{
	"contracts/05_Whitelist.sol": {
		"Whitelist": {
			"abi": [
				{
					"inputs": [],
					"stateMutability": "nonpayable",
					"type": "constructor"
				},
				{
					"anonymous": false,
					"inputs": [
						{
							"indexed": false,
							"internalType": "address",
							"name": "_address",
							"type": "address"
						}
					],
					"name": "Authorized",
					"type": "event"
				},
				{
					"inputs": [
						{
							"internalType": "address",
							"name": "_address",
							"type": "address"
						}
					],
					"name": "authorize",
					"outputs": [],
					"stateMutability": "nonpayable",
					"type": "function"
				}
			],
			"devdoc": {
				"kind": "dev",
				"methods": {},
				"version": 1
			},
			"evm": {
				"assembly": "    /* \"contracts/05_Whitelist.sol\":57:720  contract Whitelist {... */\n  mstore(0x40, 0x80)\n    /* \"contracts/05_Whitelist.sol\":218:277  constructor() {... */\n  callvalue\n  dup1\n  iszero\n  tag_1\n  jumpi\n  revert(0x00, 0x00)\ntag_1:\n  pop\n    /* \"contracts/05_Whitelist.sol\":266:270  true */\n  0x01\n    /* \"contracts/05_Whitelist.sol\":242:251  whitelist */\n  0x00\n    /* \"contracts/05_Whitelist.sol\":242:263  whitelist[msg.sender] */\n  0x00\n    /* \"contracts/05_Whitelist.sol\":252:262  msg.sender */\n  caller\n    /* \"contracts/05_Whitelist.sol\":242:263  whitelist[msg.sender] */\n  0xffffffffffffffffffffffffffffffffffffffff\n  and\n  0xffffffffffffffffffffffffffffffffffffffff\n  and\n  dup2\n  mstore\n  0x20\n  add\n  swap1\n  dup2\n  mstore\n  0x20\n  add\n  0x00\n  keccak256\n  0x00\n    /* \"contracts/05_Whitelist.sol\":242:270  whitelist[msg.sender] = true */\n  0x0100\n  exp\n  dup2\n  sload\n  dup2\n  0xff\n  mul\n  not\n  and\n  swap1\n  dup4\n  iszero\n  iszero\n  mul\n  or\n  swap1\n  sstore\n  pop\n    /* \"contracts/05_Whitelist.sol\":57:720  contract Whitelist {... */\n  dataSize(sub_0)\n  dup1\n  dataOffset(sub_0)\n  0x00\n  codecopy\n  0x00\n  return\nstop\n\nsub_0: assembly {\n        /* \"contracts/05_Whitelist.sol\":57:720  contract Whitelist {... */\n      mstore(0x40, 0x80)\n      callvalue\n      dup1\n      iszero\n      tag_1\n      jumpi\n      revert(0x00, 0x00)\n    tag_1:\n      pop\n      jumpi(tag_2, lt(calldatasize, 0x04))\n      shr(0xe0, calldataload(0x00))\n      dup1\n      0xb6a5d7de\n      eq\n      tag_3\n      jumpi\n    tag_2:\n      revert(0x00, 0x00)\n        /* \"contracts/05_Whitelist.sol\":391:519  function authorize(address _address) public check {... */\n    tag_3:\n      tag_4\n      0x04\n      dup1\n      calldatasize\n      sub\n      dup2\n      add\n      swap1\n      tag_5\n      swap2\n      swap1\n      tag_6\n      jump\t// in\n    tag_5:\n      tag_7\n      jump\t// in\n    tag_4:\n      stop\n    tag_7:\n        /* \"contracts/05_Whitelist.sol\":318:327  whitelist */\n      0x00\n        /* \"contracts/05_Whitelist.sol\":318:339  whitelist[msg.sender] */\n      0x00\n        /* \"contracts/05_Whitelist.sol\":328:338  msg.sender */\n      caller\n        /* \"contracts/05_Whitelist.sol\":318:339  whitelist[msg.sender] */\n      0xffffffffffffffffffffffffffffffffffffffff\n      and\n      0xffffffffffffffffffffffffffffffffffffffff\n      and\n      dup2\n      mstore\n      0x20\n      add\n      swap1\n      dup2\n      mstore\n      0x20\n      add\n      0x00\n      keccak256\n      0x00\n      swap1\n      sload\n      swap1\n      0x0100\n      exp\n      swap1\n      div\n      0xff\n      and\n        /* \"contracts/05_Whitelist.sol\":310:367  require(whitelist[msg.sender], \"You are not authorized!\") */\n      tag_9\n      jumpi\n      mload(0x40)\n      0x08c379a000000000000000000000000000000000000000000000000000000000\n      dup2\n      mstore\n      0x04\n      add\n      tag_10\n      swap1\n      tag_11\n      jump\t// in\n    tag_10:\n      mload(0x40)\n      dup1\n      swap2\n      sub\n      swap1\n      revert\n    tag_9:\n        /* \"contracts/05_Whitelist.sol\":473:477  true */\n      0x01\n        /* \"contracts/05_Whitelist.sol\":451:460  whitelist */\n      0x00\n        /* \"contracts/05_Whitelist.sol\":451:470  whitelist[_address] */\n      0x00\n        /* \"contracts/05_Whitelist.sol\":461:469  _address */\n      dup4\n        /* \"contracts/05_Whitelist.sol\":451:470  whitelist[_address] */\n      0xffffffffffffffffffffffffffffffffffffffff\n      and\n      0xffffffffffffffffffffffffffffffffffffffff\n      and\n      dup2\n      mstore\n      0x20\n      add\n      swap1\n      dup2\n      mstore\n      0x20\n      add\n      0x00\n      keccak256\n      0x00\n        /* \"contracts/05_Whitelist.sol\":451:477  whitelist[_address] = true */\n      0x0100\n      exp\n      dup2\n      sload\n      dup2\n      0xff\n      mul\n      not\n      and\n      swap1\n      dup4\n      iszero\n      iszero\n      mul\n      or\n      swap1\n      sstore\n      pop\n        /* \"contracts/05_Whitelist.sol\":492:512  Authorized(_address) */\n      0xdc84e3a4c83602050e3865df792a4e6800211a79ac60db94e703a820ce892924\n        /* \"contracts/05_Whitelist.sol\":503:511  _address */\n      dup2\n        /* \"contracts/05_Whitelist.sol\":492:512  Authorized(_address) */\n      mload(0x40)\n      tag_13\n      swap2\n      swap1\n      tag_14\n      jump\t// in\n    tag_13:\n      mload(0x40)\n      dup1\n      swap2\n      sub\n      swap1\n      log1\n        /* \"contracts/05_Whitelist.sol\":391:519  function authorize(address _address) public check {... */\n      pop\n      jump\t// out\n        /* \"#utility.yul\":88:205   */\n    tag_16:\n        /* \"#utility.yul\":197:198   */\n      0x00\n        /* \"#utility.yul\":194:195   */\n      0x00\n        /* \"#utility.yul\":187:199   */\n      revert\n        /* \"#utility.yul\":334:460   */\n    tag_18:\n        /* \"#utility.yul\":371:378   */\n      0x00\n        /* \"#utility.yul\":411:453   */\n      0xffffffffffffffffffffffffffffffffffffffff\n        /* \"#utility.yul\":404:409   */\n      dup3\n        /* \"#utility.yul\":400:454   */\n      and\n        /* \"#utility.yul\":389:454   */\n      swap1\n      pop\n        /* \"#utility.yul\":334:460   */\n      swap2\n      swap1\n      pop\n      jump\t// out\n        /* \"#utility.yul\":466:562   */\n    tag_19:\n        /* \"#utility.yul\":503:510   */\n      0x00\n        /* \"#utility.yul\":532:556   */\n      tag_32\n        /* \"#utility.yul\":550:555   */\n      dup3\n        /* \"#utility.yul\":532:556   */\n      tag_18\n      jump\t// in\n    tag_32:\n        /* \"#utility.yul\":521:556   */\n      swap1\n      pop\n        /* \"#utility.yul\":466:562   */\n      swap2\n      swap1\n      pop\n      jump\t// out\n        /* \"#utility.yul\":568:690   */\n    tag_20:\n        /* \"#utility.yul\":641:665   */\n      tag_34\n        /* \"#utility.yul\":659:664   */\n      dup2\n        /* \"#utility.yul\":641:665   */\n      tag_19\n      jump\t// in\n    tag_34:\n        /* \"#utility.yul\":634:639   */\n      dup2\n        /* \"#utility.yul\":631:666   */\n      eq\n        /* \"#utility.yul\":621:684   */\n      tag_35\n      jumpi\n        /* \"#utility.yul\":680:681   */\n      0x00\n        /* \"#utility.yul\":677:678   */\n      0x00\n        /* \"#utility.yul\":670:682   */\n      revert\n        /* \"#utility.yul\":621:684   */\n    tag_35:\n        /* \"#utility.yul\":568:690   */\n      pop\n      jump\t// out\n        /* \"#utility.yul\":696:835   */\n    tag_21:\n        /* \"#utility.yul\":742:747   */\n      0x00\n        /* \"#utility.yul\":780:786   */\n      dup2\n        /* \"#utility.yul\":767:787   */\n      calldataload\n        /* \"#utility.yul\":758:787   */\n      swap1\n      pop\n        /* \"#utility.yul\":796:829   */\n      tag_37\n        /* \"#utility.yul\":823:828   */\n      dup2\n        /* \"#utility.yul\":796:829   */\n      tag_20\n      jump\t// in\n    tag_37:\n        /* \"#utility.yul\":696:835   */\n      swap3\n      swap2\n      pop\n      pop\n      jump\t// out\n        /* \"#utility.yul\":841:1170   */\n    tag_6:\n        /* \"#utility.yul\":900:906   */\n      0x00\n        /* \"#utility.yul\":949:951   */\n      0x20\n        /* \"#utility.yul\":937:946   */\n      dup3\n        /* \"#utility.yul\":928:935   */\n      dup5\n        /* \"#utility.yul\":924:947   */\n      sub\n        /* \"#utility.yul\":920:952   */\n      slt\n        /* \"#utility.yul\":917:1036   */\n      iszero\n      tag_39\n      jumpi\n        /* \"#utility.yul\":955:1034   */\n      tag_40\n      tag_16\n      jump\t// in\n    tag_40:\n        /* \"#utility.yul\":917:1036   */\n    tag_39:\n        /* \"#utility.yul\":1075:1076   */\n      0x00\n        /* \"#utility.yul\":1100:1153   */\n      tag_41\n        /* \"#utility.yul\":1145:1152   */\n      dup5\n        /* \"#utility.yul\":1136:1142   */\n      dup3\n        /* \"#utility.yul\":1125:1134   */\n      dup6\n        /* \"#utility.yul\":1121:1143   */\n      add\n        /* \"#utility.yul\":1100:1153   */\n      tag_21\n      jump\t// in\n    tag_41:\n        /* \"#utility.yul\":1090:1153   */\n      swap2\n      pop\n        /* \"#utility.yul\":1046:1163   */\n      pop\n        /* \"#utility.yul\":841:1170   */\n      swap3\n      swap2\n      pop\n      pop\n      jump\t// out\n        /* \"#utility.yul\":1176:1345   */\n    tag_22:\n        /* \"#utility.yul\":1260:1271   */\n      0x00\n        /* \"#utility.yul\":1294:1300   */\n      dup3\n        /* \"#utility.yul\":1289:1292   */\n      dup3\n        /* \"#utility.yul\":1282:1301   */\n      mstore\n        /* \"#utility.yul\":1334:1338   */\n      0x20\n        /* \"#utility.yul\":1329:1332   */\n      dup3\n        /* \"#utility.yul\":1325:1339   */\n      add\n        /* \"#utility.yul\":1310:1339   */\n      swap1\n      pop\n        /* \"#utility.yul\":1176:1345   */\n      swap3\n      swap2\n      pop\n      pop\n      jump\t// out\n        /* \"#utility.yul\":1351:1524   */\n    tag_23:\n        /* \"#utility.yul\":1491:1516   */\n      0x596f7520617265206e6f7420617574686f72697a656421000000000000000000\n        /* \"#utility.yul\":1487:1488   */\n      0x00\n        /* \"#utility.yul\":1479:1485   */\n      dup3\n        /* \"#utility.yul\":1475:1489   */\n      add\n        /* \"#utility.yul\":1468:1517   */\n      mstore\n        /* \"#utility.yul\":1351:1524   */\n      pop\n      jump\t// out\n        /* \"#utility.yul\":1530:1896   */\n    tag_24:\n        /* \"#utility.yul\":1672:1675   */\n      0x00\n        /* \"#utility.yul\":1693:1760   */\n      tag_45\n        /* \"#utility.yul\":1757:1759   */\n      0x17\n        /* \"#utility.yul\":1752:1755   */\n      dup4\n        /* \"#utility.yul\":1693:1760   */\n      tag_22\n      jump\t// in\n    tag_45:\n        /* \"#utility.yul\":1686:1760   */\n      swap2\n      pop\n        /* \"#utility.yul\":1769:1862   */\n      tag_46\n        /* \"#utility.yul\":1858:1861   */\n      dup3\n        /* \"#utility.yul\":1769:1862   */\n      tag_23\n      jump\t// in\n    tag_46:\n        /* \"#utility.yul\":1887:1889   */\n      0x20\n        /* \"#utility.yul\":1882:1885   */\n      dup3\n        /* \"#utility.yul\":1878:1890   */\n      add\n        /* \"#utility.yul\":1871:1890   */\n      swap1\n      pop\n        /* \"#utility.yul\":1530:1896   */\n      swap2\n      swap1\n      pop\n      jump\t// out\n        /* \"#utility.yul\":1902:2321   */\n    tag_11:\n        /* \"#utility.yul\":2068:2072   */\n      0x00\n        /* \"#utility.yul\":2106:2108   */\n      0x20\n        /* \"#utility.yul\":2095:2104   */\n      dup3\n        /* \"#utility.yul\":2091:2109   */\n      add\n        /* \"#utility.yul\":2083:2109   */\n      swap1\n      pop\n        /* \"#utility.yul\":2155:2164   */\n      dup2\n        /* \"#utility.yul\":2149:2153   */\n      dup2\n        /* \"#utility.yul\":2145:2165   */\n      sub\n        /* \"#utility.yul\":2141:2142   */\n      0x00\n        /* \"#utility.yul\":2130:2139   */\n      dup4\n        /* \"#utility.yul\":2126:2143   */\n      add\n        /* \"#utility.yul\":2119:2166   */\n      mstore\n        /* \"#utility.yul\":2183:2314   */\n      tag_48\n        /* \"#utility.yul\":2309:2313   */\n      dup2\n        /* \"#utility.yul\":2183:2314   */\n      tag_24\n      jump\t// in\n    tag_48:\n        /* \"#utility.yul\":2175:2314   */\n      swap1\n      pop\n        /* \"#utility.yul\":1902:2321   */\n      swap2\n      swap1\n      pop\n      jump\t// out\n        /* \"#utility.yul\":2327:2445   */\n    tag_25:\n        /* \"#utility.yul\":2414:2438   */\n      tag_50\n        /* \"#utility.yul\":2432:2437   */\n      dup2\n        /* \"#utility.yul\":2414:2438   */\n      tag_19\n      jump\t// in\n    tag_50:\n        /* \"#utility.yul\":2409:2412   */\n      dup3\n        /* \"#utility.yul\":2402:2439   */\n      mstore\n        /* \"#utility.yul\":2327:2445   */\n      pop\n      pop\n      jump\t// out\n        /* \"#utility.yul\":2451:2673   */\n    tag_14:\n        /* \"#utility.yul\":2544:2548   */\n      0x00\n        /* \"#utility.yul\":2582:2584   */\n      0x20\n        /* \"#utility.yul\":2571:2580   */\n      dup3\n        /* \"#utility.yul\":2567:2585   */\n      add\n        /* \"#utility.yul\":2559:2585   */\n      swap1\n      pop\n        /* \"#utility.yul\":2595:2666   */\n      tag_52\n        /* \"#utility.yul\":2663:2664   */\n      0x00\n        /* \"#utility.yul\":2652:2661   */\n      dup4\n        /* \"#utility.yul\":2648:2665   */\n      add\n        /* \"#utility.yul\":2639:2645   */\n      dup5\n        /* \"#utility.yul\":2595:2666   */\n      tag_25\n      jump\t// in\n    tag_52:\n        /* \"#utility.yul\":2451:2673   */\n      swap3\n      swap2\n      pop\n      pop\n      jump\t// out\n\n    auxdata: 0xa2646970667358221220d85ff73a5815b8e39d990f187c1843813cd74b095804996e4a3120bf8657c4d064736f6c634300081c0033\n}\n",
				"bytecode": {
					"linkReferences": {},
					"object": "6080604052348015600e575f5ffd5b5060015f5f3373ffffffffffffffffffffffffffffffffffffffff1673ffffffffffffffffffffffffffffffffffffffff1681526020019081526020015f205f6101000a81548160ff0219169083151502179055506102be806100705f395ff3fe608060405234801561000f575f5ffd5b5060043610610029575f3560e01c8063b6a5d7de1461002d575b5f5ffd5b610047600480360381019061004291906101bd565b610049565b005b5f5f3373ffffffffffffffffffffffffffffffffffffffff1673ffffffffffffffffffffffffffffffffffffffff1681526020019081526020015f205f9054906101000a900460ff166100d1576040517f08c379a00000000000000000000000000000000000000000000000000000000081526004016100c890610242565b60405180910390fd5b60015f5f8373ffffffffffffffffffffffffffffffffffffffff1673ffffffffffffffffffffffffffffffffffffffff1681526020019081526020015f205f6101000a81548160ff0219169083151502179055507fdc84e3a4c83602050e3865df792a4e6800211a79ac60db94e703a820ce89292481604051610154919061026f565b60405180910390a150565b5f5ffd5b5f73ffffffffffffffffffffffffffffffffffffffff82169050919050565b5f61018c82610163565b9050919050565b61019c81610182565b81146101a6575f5ffd5b50565b5f813590506101b781610193565b92915050565b5f602082840312156101d2576101d161015f565b5b5f6101df848285016101a9565b91505092915050565b5f82825260208201905092915050565b7f596f7520617265206e6f7420617574686f72697a6564210000000000000000005f82015250565b5f61022c6017836101e8565b9150610237826101f8565b602082019050919050565b5f6020820190508181035f83015261025981610220565b9050919050565b61026981610182565b82525050565b5f6020820190506102825f830184610260565b9291505056fea2646970667358221220d85ff73a5815b8e39d990f187c1843813cd74b095804996e4a3120bf8657c4d064736f6c634300081c0033",
					"opcodes": "PUSH1 0x80 PUSH1 0x40 MSTORE CALLVALUE DUP1 ISZERO PUSH1 0xE JUMPI PUSH0 PUSH0 REVERT JUMPDEST POP PUSH1 0x1 PUSH0 PUSH0 CALLER PUSH20 0xFFFFFFFFFFFFFFFFFFFFFFFFFFFFFFFFFFFFFFFF AND PUSH20 0xFFFFFFFFFFFFFFFFFFFFFFFFFFFFFFFFFFFFFFFF AND DUP2 MSTORE PUSH1 0x20 ADD SWAP1 DUP2 MSTORE PUSH1 0x20 ADD PUSH0 KECCAK256 PUSH0 PUSH2 0x100 EXP DUP2 SLOAD DUP2 PUSH1 0xFF MUL NOT AND SWAP1 DUP4 ISZERO ISZERO MUL OR SWAP1 SSTORE POP PUSH2 0x2BE DUP1 PUSH2 0x70 PUSH0 CODECOPY PUSH0 RETURN INVALID PUSH1 0x80 PUSH1 0x40 MSTORE CALLVALUE DUP1 ISZERO PUSH2 0xF JUMPI PUSH0 PUSH0 REVERT JUMPDEST POP PUSH1 0x4 CALLDATASIZE LT PUSH2 0x29 JUMPI PUSH0 CALLDATALOAD PUSH1 0xE0 SHR DUP1 PUSH4 0xB6A5D7DE EQ PUSH2 0x2D JUMPI JUMPDEST PUSH0 PUSH0 REVERT JUMPDEST PUSH2 0x47 PUSH1 0x4 DUP1 CALLDATASIZE SUB DUP2 ADD SWAP1 PUSH2 0x42 SWAP2 SWAP1 PUSH2 0x1BD JUMP JUMPDEST PUSH2 0x49 JUMP JUMPDEST STOP JUMPDEST PUSH0 PUSH0 CALLER PUSH20 0xFFFFFFFFFFFFFFFFFFFFFFFFFFFFFFFFFFFFFFFF AND PUSH20 0xFFFFFFFFFFFFFFFFFFFFFFFFFFFFFFFFFFFFFFFF AND DUP2 MSTORE PUSH1 0x20 ADD SWAP1 DUP2 MSTORE PUSH1 0x20 ADD PUSH0 KECCAK256 PUSH0 SWAP1 SLOAD SWAP1 PUSH2 0x100 EXP SWAP1 DIV PUSH1 0xFF AND PUSH2 0xD1 JUMPI PUSH1 0x40 MLOAD PUSH32 0x8C379A000000000000000000000000000000000000000000000000000000000 DUP2 MSTORE PUSH1 0x4 ADD PUSH2 0xC8 SWAP1 PUSH2 0x242 JUMP JUMPDEST PUSH1 0x40 MLOAD DUP1 SWAP2 SUB SWAP1 REVERT JUMPDEST PUSH1 0x1 PUSH0 PUSH0 DUP4 PUSH20 0xFFFFFFFFFFFFFFFFFFFFFFFFFFFFFFFFFFFFFFFF AND PUSH20 0xFFFFFFFFFFFFFFFFFFFFFFFFFFFFFFFFFFFFFFFF AND DUP2 MSTORE PUSH1 0x20 ADD SWAP1 DUP2 MSTORE PUSH1 0x20 ADD PUSH0 KECCAK256 PUSH0 PUSH2 0x100 EXP DUP2 SLOAD DUP2 PUSH1 0xFF MUL NOT AND SWAP1 DUP4 ISZERO ISZERO MUL OR SWAP1 SSTORE POP PUSH32 0xDC84E3A4C83602050E3865DF792A4E6800211A79AC60DB94E703A820CE892924 DUP2 PUSH1 0x40 MLOAD PUSH2 0x154 SWAP2 SWAP1 PUSH2 0x26F JUMP JUMPDEST PUSH1 0x40 MLOAD DUP1 SWAP2 SUB SWAP1 LOG1 POP JUMP JUMPDEST PUSH0 PUSH0 REVERT JUMPDEST PUSH0 PUSH20 0xFFFFFFFFFFFFFFFFFFFFFFFFFFFFFFFFFFFFFFFF DUP3 AND SWAP1 POP SWAP2 SWAP1 POP JUMP JUMPDEST PUSH0 PUSH2 0x18C DUP3 PUSH2 0x163 JUMP JUMPDEST SWAP1 POP SWAP2 SWAP1 POP JUMP JUMPDEST PUSH2 0x19C DUP2 PUSH2 0x182 JUMP JUMPDEST DUP2 EQ PUSH2 0x1A6 JUMPI PUSH0 PUSH0 REVERT JUMPDEST POP JUMP JUMPDEST PUSH0 DUP2 CALLDATALOAD SWAP1 POP PUSH2 0x1B7 DUP2 PUSH2 0x193 JUMP JUMPDEST SWAP3 SWAP2 POP POP JUMP JUMPDEST PUSH0 PUSH1 0x20 DUP3 DUP5 SUB SLT ISZERO PUSH2 0x1D2 JUMPI PUSH2 0x1D1 PUSH2 0x15F JUMP JUMPDEST JUMPDEST PUSH0 PUSH2 0x1DF DUP5 DUP3 DUP6 ADD PUSH2 0x1A9 JUMP JUMPDEST SWAP2 POP POP SWAP3 SWAP2 POP POP JUMP JUMPDEST PUSH0 DUP3 DUP3 MSTORE PUSH1 0x20 DUP3 ADD SWAP1 POP SWAP3 SWAP2 POP POP JUMP JUMPDEST PUSH32 0x596F7520617265206E6F7420617574686F72697A656421000000000000000000 PUSH0 DUP3 ADD MSTORE POP JUMP JUMPDEST PUSH0 PUSH2 0x22C PUSH1 0x17 DUP4 PUSH2 0x1E8 JUMP JUMPDEST SWAP2 POP PUSH2 0x237 DUP3 PUSH2 0x1F8 JUMP JUMPDEST PUSH1 0x20 DUP3 ADD SWAP1 POP SWAP2 SWAP1 POP JUMP JUMPDEST PUSH0 PUSH1 0x20 DUP3 ADD SWAP1 POP DUP2 DUP2 SUB PUSH0 DUP4 ADD MSTORE PUSH2 0x259 DUP2 PUSH2 0x220 JUMP JUMPDEST SWAP1 POP SWAP2 SWAP1 POP JUMP JUMPDEST PUSH2 0x269 DUP2 PUSH2 0x182 JUMP JUMPDEST DUP3 MSTORE POP POP JUMP JUMPDEST PUSH0 PUSH1 0x20 DUP3 ADD SWAP1 POP PUSH2 0x282 PUSH0 DUP4 ADD DUP5 PUSH2 0x260 JUMP JUMPDEST SWAP3 SWAP2 POP POP JUMP INVALID LOG2 PUSH5 0x6970667358 0x22 SLT KECCAK256 0xD8 PUSH0 0xF7 GASPRICE PC ISZERO 0xB8 0xE3 SWAP14 SWAP10 0xF XOR PUSH29 0x1843813CD74B095804996E4A3120BF8657C4D064736F6C634300081C00 CALLER "
				},
				"gasEstimates": {
					"creation": {
						"codeDepositCost": "140400",
						"executionCost": "24533",
						"totalCost": "164933"
					},
					"external": {
						"authorize(address)": "infinite"
					}
				},
				"methodIdentifiers": {
					"authorize(address)": "b6a5d7de"
				}
			},
			"storageLayout": {
				"storage": [
					{
						"astId": 5,
						"contract": "contracts/05_Whitelist.sol:Whitelist",
						"label": "whitelist",
						"offset": 0,
						"slot": "0",
						"type": "t_mapping(t_address,t_bool)"
					}
				],
				"types": {
					"t_address": {
						"encoding": "inplace",
						"label": "address",
						"numberOfBytes": "20"
					},
					"t_bool": {
						"encoding": "inplace",
						"label": "bool",
						"numberOfBytes": "1"
					},
					"t_mapping(t_address,t_bool)": {
						"encoding": "mapping",
						"key": "t_address",
						"label": "mapping(address => bool)",
						"numberOfBytes": "32",
						"value": "t_bool"
					}
				}
			},
			"userdoc": {
				"kind": "user",
				"methods": {},
				"version": 1
			}
		}
	}
}