{
	"contracts/19_Bytes.sol": {
		"Bytes": {
			"abi": [
				{
					"inputs": [],
					"name": "b1",
					"outputs": [
						{
							"internalType": "bytes1",
							"name": "",
							"type": "bytes1"
						}
					],
					"stateMutability": "view",
					"type": "function"
				},
				{
					"inputs": [],
					"name": "b2",
					"outputs": [
						{
							"internalType": "bytes2",
							"name": "",
							"type": "bytes2"
						}
					],
					"stateMutability": "view",
					"type": "function"
				},
				{
					"inputs": [],
					"name": "data",
					"outputs": [
						{
							"internalType": "bytes",
							"name": "",
							"type": "bytes"
						}
					],
					"stateMutability": "view",
					"type": "function"
				},
				{
					"inputs": [],
					"name": "myString",
					"outputs": [
						{
							"internalType": "string",
							"name": "",
							"type": "string"
						}
					],
					"stateMutability": "view",
					"type": "function"
				},
				{
					"inputs": [
						{
							"internalType": "string",
							"name": "_myString",
							"type": "string"
						}
					],
					"name": "setMyString",
					"outputs": [],
					"stateMutability": "nonpayable",
					"type": "function"
				},
				{
					"inputs": [],
					"name": "stringLength",
					"outputs": [
						{
							"internalType": "uint256",
							"name": "",
							"type": "uint256"
						}
					],
					"stateMutability": "view",
					"type": "function"
				}
			],
			"devdoc": {
				"kind": "dev",
				"methods": {},
				"version": 1
			},
			"evm": {
				"assembly": "    /* \"contracts/19_Bytes.sol\":57:518  contract Bytes {... */\n  mstore(0x40, 0x80)\n    /* \"contracts/19_Bytes.sol\":97:101  0xb5 */\n  0xb5\n    /* \"contracts/19_Bytes.sol\":78:101  bytes1 public b1 = 0xb5 */\n  0xf8\n  shl\n  0x00\n  exp(0x0100, 0x00)\n  dup2\n  sload\n  dup2\n  0xff\n  mul\n  not\n  and\n  swap1\n  dup4\n  0xf8\n  shr\n  mul\n  or\n  swap1\n  sstore\n  pop\n    /* \"contracts/19_Bytes.sol\":137:143  0x1234 */\n  0x1234\n    /* \"contracts/19_Bytes.sol\":118:143  bytes2 public b2 = 0x1234 */\n  0xf0\n  shl\n  0x00\n  exp(0x0100, 0x01)\n  dup2\n  sload\n  dup2\n  0xffff\n  mul\n  not\n  and\n  swap1\n  dup4\n  0xf0\n  shr\n  mul\n  or\n  swap1\n  sstore\n  pop\n    /* \"contracts/19_Bytes.sol\":57:518  contract Bytes {... */\n  callvalue\n  dup1\n  iszero\n  tag_1\n  jumpi\n  revert(0x00, 0x00)\ntag_1:\n  pop\n  dataSize(sub_0)\n  dup1\n  dataOffset(sub_0)\n  0x00\n  codecopy\n  0x00\n  return\nstop\n\nsub_0: assembly {\n        /* \"contracts/19_Bytes.sol\":57:518  contract Bytes {... */\n      mstore(0x40, 0x80)\n      callvalue\n      dup1\n      iszero\n      tag_1\n      jumpi\n      revert(0x00, 0x00)\n    tag_1:\n      pop\n      jumpi(tag_2, lt(calldatasize, 0x04))\n      shr(0xe0, calldataload(0x00))\n      dup1\n      0x0add6ef2\n      eq\n      tag_3\n      jumpi\n      dup1\n      0x492bfa18\n      eq\n      tag_4\n      jumpi\n      dup1\n      0x56ff6f1c\n      eq\n      tag_5\n      jumpi\n      dup1\n      0x73d4a13a\n      eq\n      tag_6\n      jumpi\n      dup1\n      0x82180568\n      eq\n      tag_7\n      jumpi\n      dup1\n      0xee495002\n      eq\n      tag_8\n      jumpi\n    tag_2:\n      revert(0x00, 0x00)\n        /* \"contracts/19_Bytes.sol\":118:143  bytes2 public b2 = 0x1234 */\n    tag_3:\n      tag_9\n      tag_10\n      jump\t// in\n    tag_9:\n      mload(0x40)\n      tag_11\n      swap2\n      swap1\n      tag_12\n      jump\t// in\n    tag_11:\n      mload(0x40)\n      dup1\n      swap2\n      sub\n      swap1\n      return\n        /* \"contracts/19_Bytes.sol\":231:253  string public myString */\n    tag_4:\n      tag_13\n      tag_14\n      jump\t// in\n    tag_13:\n      mload(0x40)\n      tag_15\n      swap2\n      swap1\n      tag_16\n      jump\t// in\n    tag_15:\n      mload(0x40)\n      dup1\n      swap2\n      sub\n      swap1\n      return\n        /* \"contracts/19_Bytes.sol\":358:516  function stringLength() external view returns (uint256) {... */\n    tag_5:\n      tag_17\n      tag_18\n      jump\t// in\n    tag_17:\n      mload(0x40)\n      tag_19\n      swap2\n      swap1\n      tag_20\n      jump\t// in\n    tag_19:\n      mload(0x40)\n      dup1\n      swap2\n      sub\n      swap1\n      return\n        /* \"contracts/19_Bytes.sol\":162:179  bytes public data */\n    tag_6:\n      tag_21\n      tag_22\n      jump\t// in\n    tag_21:\n      mload(0x40)\n      tag_23\n      swap2\n      swap1\n      tag_24\n      jump\t// in\n    tag_23:\n      mload(0x40)\n      dup1\n      swap2\n      sub\n      swap1\n      return\n        /* \"contracts/19_Bytes.sol\":260:352  function setMyString(string memory _myString) external {... */\n    tag_7:\n      tag_25\n      0x04\n      dup1\n      calldatasize\n      sub\n      dup2\n      add\n      swap1\n      tag_26\n      swap2\n      swap1\n      tag_27\n      jump\t// in\n    tag_26:\n      tag_28\n      jump\t// in\n    tag_25:\n      stop\n        /* \"contracts/19_Bytes.sol\":78:101  bytes1 public b1 = 0xb5 */\n    tag_8:\n      tag_29\n      tag_30\n      jump\t// in\n    tag_29:\n      mload(0x40)\n      tag_31\n      swap2\n      swap1\n      tag_32\n      jump\t// in\n    tag_31:\n      mload(0x40)\n      dup1\n      swap2\n      sub\n      swap1\n      return\n        /* \"contracts/19_Bytes.sol\":118:143  bytes2 public b2 = 0x1234 */\n    tag_10:\n      0x00\n      0x01\n      swap1\n      sload\n      swap1\n      0x0100\n      exp\n      swap1\n      div\n      0xf0\n      shl\n      dup2\n      jump\t// out\n        /* \"contracts/19_Bytes.sol\":231:253  string public myString */\n    tag_14:\n      0x02\n      dup1\n      sload\n      tag_33\n      swap1\n      tag_34\n      jump\t// in\n    tag_33:\n      dup1\n      0x1f\n      add\n      0x20\n      dup1\n      swap2\n      div\n      mul\n      0x20\n      add\n      mload(0x40)\n      swap1\n      dup2\n      add\n      0x40\n      mstore\n      dup1\n      swap3\n      swap2\n      swap1\n      dup2\n      dup2\n      mstore\n      0x20\n      add\n      dup3\n      dup1\n      sload\n      tag_35\n      swap1\n      tag_34\n      jump\t// in\n    tag_35:\n      dup1\n      iszero\n      tag_36\n      jumpi\n      dup1\n      0x1f\n      lt\n      tag_37\n      jumpi\n      0x0100\n      dup1\n      dup4\n      sload\n      div\n      mul\n      dup4\n      mstore\n      swap2\n      0x20\n      add\n      swap2\n      jump(tag_36)\n    tag_37:\n      dup3\n      add\n      swap2\n      swap1\n      0x00\n      mstore\n      keccak256(0x00, 0x20)\n      swap1\n    tag_38:\n      dup2\n      sload\n      dup2\n      mstore\n      swap1\n      0x01\n      add\n      swap1\n      0x20\n      add\n      dup1\n      dup4\n      gt\n      tag_38\n      jumpi\n      dup3\n      swap1\n      sub\n      0x1f\n      and\n      dup3\n      add\n      swap2\n    tag_36:\n      pop\n      pop\n      pop\n      pop\n      pop\n      dup2\n      jump\t// out\n        /* \"contracts/19_Bytes.sol\":358:516  function stringLength() external view returns (uint256) {... */\n    tag_18:\n        /* \"contracts/19_Bytes.sol\":405:412  uint256 */\n      0x00\n        /* \"contracts/19_Bytes.sol\":424:452  bytes memory convertMyString */\n      0x00\n        /* \"contracts/19_Bytes.sol\":461:469  myString */\n      0x02\n        /* \"contracts/19_Bytes.sol\":424:470  bytes memory convertMyString = bytes(myString) */\n      dup1\n      sload\n      tag_40\n      swap1\n      tag_34\n      jump\t// in\n    tag_40:\n      dup1\n      0x1f\n      add\n      0x20\n      dup1\n      swap2\n      div\n      mul\n      0x20\n      add\n      mload(0x40)\n      swap1\n      dup2\n      add\n      0x40\n      mstore\n      dup1\n      swap3\n      swap2\n      swap1\n      dup2\n      dup2\n      mstore\n      0x20\n      add\n      dup3\n      dup1\n      sload\n      tag_41\n      swap1\n      tag_34\n      jump\t// in\n    tag_41:\n      dup1\n      iszero\n      tag_42\n      jumpi\n      dup1\n      0x1f\n      lt\n      tag_43\n      jumpi\n      0x0100\n      dup1\n      dup4\n      sload\n      div\n      mul\n      dup4\n      mstore\n      swap2\n      0x20\n      add\n      swap2\n      jump(tag_42)\n    tag_43:\n      dup3\n      add\n      swap2\n      swap1\n      0x00\n      mstore\n      keccak256(0x00, 0x20)\n      swap1\n    tag_44:\n      dup2\n      sload\n      dup2\n      mstore\n      swap1\n      0x01\n      add\n      swap1\n      0x20\n      add\n      dup1\n      dup4\n      gt\n      tag_44\n      jumpi\n      dup3\n      swap1\n      sub\n      0x1f\n      and\n      dup3\n      add\n      swap2\n    tag_42:\n      pop\n      pop\n      pop\n      pop\n      pop\n      swap1\n      pop\n        /* \"contracts/19_Bytes.sol\":487:502  convertMyString */\n      dup1\n        /* \"contracts/19_Bytes.sol\":487:509  convertMyString.length */\n      mload\n        /* \"contracts/19_Bytes.sol\":480:509  return convertMyString.length */\n      swap2\n      pop\n      pop\n        /* \"contracts/19_Bytes.sol\":358:516  function stringLength() external view returns (uint256) {... */\n      swap1\n      jump\t// out\n        /* \"contracts/19_Bytes.sol\":162:179  bytes public data */\n    tag_22:\n      0x01\n      dup1\n      sload\n      tag_45\n      swap1\n      tag_34\n      jump\t// in\n    tag_45:\n      dup1\n      0x1f\n      add\n      0x20\n      dup1\n      swap2\n      div\n      mul\n      0x20\n      add\n      mload(0x40)\n      swap1\n      dup2\n      add\n      0x40\n      mstore\n      dup1\n      swap3\n      swap2\n      swap1\n      dup2\n      dup2\n      mstore\n      0x20\n      add\n      dup3\n      dup1\n      sload\n      tag_46\n      swap1\n      tag_34\n      jump\t// in\n    tag_46:\n      dup1\n      iszero\n      tag_47\n      jumpi\n      dup1\n      0x1f\n      lt\n      tag_48\n      jumpi\n      0x0100\n      dup1\n      dup4\n      sload\n      div\n      mul\n      dup4\n      mstore\n      swap2\n      0x20\n      add\n      swap2\n      jump(tag_47)\n    tag_48:\n      dup3\n      add\n      swap2\n      swap1\n      0x00\n      mstore\n      keccak256(0x00, 0x20)\n      swap1\n    tag_49:\n      dup2\n      sload\n      dup2\n      mstore\n      swap1\n      0x01\n      add\n      swap1\n      0x20\n      add\n      dup1\n      dup4\n      gt\n      tag_49\n      jumpi\n      dup3\n      swap1\n      sub\n      0x1f\n      and\n      dup3\n      add\n      swap2\n    tag_47:\n      pop\n      pop\n      pop\n      pop\n      pop\n      dup2\n      jump\t// out\n        /* \"contracts/19_Bytes.sol\":260:352  function setMyString(string memory _myString) external {... */\n    tag_28:\n        /* \"contracts/19_Bytes.sol\":336:345  _myString */\n      dup1\n        /* \"contracts/19_Bytes.sol\":325:333  myString */\n      0x02\n        /* \"contracts/19_Bytes.sol\":325:345  myString = _myString */\n      swap1\n      dup2\n      tag_51\n      swap2\n      swap1\n      tag_52\n      jump\t// in\n    tag_51:\n      pop\n        /* \"contracts/19_Bytes.sol\":260:352  function setMyString(string memory _myString) external {... */\n      pop\n      jump\t// out\n        /* \"contracts/19_Bytes.sol\":78:101  bytes1 public b1 = 0xb5 */\n    tag_30:\n      0x00\n      0x00\n      swap1\n      sload\n      swap1\n      0x0100\n      exp\n      swap1\n      div\n      0xf8\n      shl\n      dup2\n      jump\t// out\n        /* \"#utility.yul\":7:156   */\n    tag_53:\n        /* \"#utility.yul\":43:50   */\n      0x00\n        /* \"#utility.yul\":83:149   */\n      0xffff000000000000000000000000000000000000000000000000000000000000\n        /* \"#utility.yul\":76:81   */\n      dup3\n        /* \"#utility.yul\":72:150   */\n      and\n        /* \"#utility.yul\":61:150   */\n      swap1\n      pop\n        /* \"#utility.yul\":7:156   */\n      swap2\n      swap1\n      pop\n      jump\t// out\n        /* \"#utility.yul\":162:277   */\n    tag_54:\n        /* \"#utility.yul\":247:270   */\n      tag_98\n        /* \"#utility.yul\":264:269   */\n      dup2\n        /* \"#utility.yul\":247:270   */\n      tag_53\n      jump\t// in\n    tag_98:\n        /* \"#utility.yul\":242:245   */\n      dup3\n        /* \"#utility.yul\":235:271   */\n      mstore\n        /* \"#utility.yul\":162:277   */\n      pop\n      pop\n      jump\t// out\n        /* \"#utility.yul\":283:501   */\n    tag_12:\n        /* \"#utility.yul\":374:378   */\n      0x00\n        /* \"#utility.yul\":412:414   */\n      0x20\n        /* \"#utility.yul\":401:410   */\n      dup3\n        /* \"#utility.yul\":397:415   */\n      add\n        /* \"#utility.yul\":389:415   */\n      swap1\n      pop\n        /* \"#utility.yul\":425:494   */\n      tag_100\n        /* \"#utility.yul\":491:492   */\n      0x00\n        /* \"#utility.yul\":480:489   */\n      dup4\n        /* \"#utility.yul\":476:493   */\n      add\n        /* \"#utility.yul\":467:473   */\n      dup5\n        /* \"#utility.yul\":425:494   */\n      tag_54\n      jump\t// in\n    tag_100:\n        /* \"#utility.yul\":283:501   */\n      swap3\n      swap2\n      pop\n      pop\n      jump\t// out\n        /* \"#utility.yul\":507:606   */\n    tag_55:\n        /* \"#utility.yul\":559:565   */\n      0x00\n        /* \"#utility.yul\":593:598   */\n      dup2\n        /* \"#utility.yul\":587:599   */\n      mload\n        /* \"#utility.yul\":577:599   */\n      swap1\n      pop\n        /* \"#utility.yul\":507:606   */\n      swap2\n      swap1\n      pop\n      jump\t// out\n        /* \"#utility.yul\":612:781   */\n    tag_56:\n        /* \"#utility.yul\":696:707   */\n      0x00\n        /* \"#utility.yul\":730:736   */\n      dup3\n        /* \"#utility.yul\":725:728   */\n      dup3\n        /* \"#utility.yul\":718:737   */\n      mstore\n        /* \"#utility.yul\":770:774   */\n      0x20\n        /* \"#utility.yul\":765:768   */\n      dup3\n        /* \"#utility.yul\":761:775   */\n      add\n        /* \"#utility.yul\":746:775   */\n      swap1\n      pop\n        /* \"#utility.yul\":612:781   */\n      swap3\n      swap2\n      pop\n      pop\n      jump\t// out\n        /* \"#utility.yul\":787:926   */\n    tag_57:\n        /* \"#utility.yul\":876:882   */\n      dup3\n        /* \"#utility.yul\":871:874   */\n      dup2\n        /* \"#utility.yul\":866:869   */\n      dup4\n        /* \"#utility.yul\":860:883   */\n      mcopy\n        /* \"#utility.yul\":917:918   */\n      0x00\n        /* \"#utility.yul\":908:914   */\n      dup4\n        /* \"#utility.yul\":903:906   */\n      dup4\n        /* \"#utility.yul\":899:915   */\n      add\n        /* \"#utility.yul\":892:919   */\n      mstore\n        /* \"#utility.yul\":787:926   */\n      pop\n      pop\n      pop\n      jump\t// out\n        /* \"#utility.yul\":932:1034   */\n    tag_58:\n        /* \"#utility.yul\":973:979   */\n      0x00\n        /* \"#utility.yul\":1024:1026   */\n      0x1f\n        /* \"#utility.yul\":1020:1027   */\n      not\n        /* \"#utility.yul\":1015:1017   */\n      0x1f\n        /* \"#utility.yul\":1008:1013   */\n      dup4\n        /* \"#utility.yul\":1004:1018   */\n      add\n        /* \"#utility.yul\":1000:1028   */\n      and\n        /* \"#utility.yul\":990:1028   */\n      swap1\n      pop\n        /* \"#utility.yul\":932:1034   */\n      swap2\n      swap1\n      pop\n      jump\t// out\n        /* \"#utility.yul\":1040:1417   */\n    tag_59:\n        /* \"#utility.yul\":1128:1131   */\n      0x00\n        /* \"#utility.yul\":1156:1195   */\n      tag_106\n        /* \"#utility.yul\":1189:1194   */\n      dup3\n        /* \"#utility.yul\":1156:1195   */\n      tag_55\n      jump\t// in\n    tag_106:\n        /* \"#utility.yul\":1211:1282   */\n      tag_107\n        /* \"#utility.yul\":1275:1281   */\n      dup2\n        /* \"#utility.yul\":1270:1273   */\n      dup6\n        /* \"#utility.yul\":1211:1282   */\n      tag_56\n      jump\t// in\n    tag_107:\n        /* \"#utility.yul\":1204:1282   */\n      swap4\n      pop\n        /* \"#utility.yul\":1291:1356   */\n      tag_108\n        /* \"#utility.yul\":1349:1355   */\n      dup2\n        /* \"#utility.yul\":1344:1347   */\n      dup6\n        /* \"#utility.yul\":1337:1341   */\n      0x20\n        /* \"#utility.yul\":1330:1335   */\n      dup7\n        /* \"#utility.yul\":1326:1342   */\n      add\n        /* \"#utility.yul\":1291:1356   */\n      tag_57\n      jump\t// in\n    tag_108:\n        /* \"#utility.yul\":1381:1410   */\n      tag_109\n        /* \"#utility.yul\":1403:1409   */\n      dup2\n        /* \"#utility.yul\":1381:1410   */\n      tag_58\n      jump\t// in\n    tag_109:\n        /* \"#utility.yul\":1376:1379   */\n      dup5\n        /* \"#utility.yul\":1372:1411   */\n      add\n        /* \"#utility.yul\":1365:1411   */\n      swap2\n      pop\n        /* \"#utility.yul\":1132:1417   */\n      pop\n        /* \"#utility.yul\":1040:1417   */\n      swap3\n      swap2\n      pop\n      pop\n      jump\t// out\n        /* \"#utility.yul\":1423:1736   */\n    tag_16:\n        /* \"#utility.yul\":1536:1540   */\n      0x00\n        /* \"#utility.yul\":1574:1576   */\n      0x20\n        /* \"#utility.yul\":1563:1572   */\n      dup3\n        /* \"#utility.yul\":1559:1577   */\n      add\n        /* \"#utility.yul\":1551:1577   */\n      swap1\n      pop\n        /* \"#utility.yul\":1623:1632   */\n      dup2\n        /* \"#utility.yul\":1617:1621   */\n      dup2\n        /* \"#utility.yul\":1613:1633   */\n      sub\n        /* \"#utility.yul\":1609:1610   */\n      0x00\n        /* \"#utility.yul\":1598:1607   */\n      dup4\n        /* \"#utility.yul\":1594:1611   */\n      add\n        /* \"#utility.yul\":1587:1634   */\n      mstore\n        /* \"#utility.yul\":1651:1729   */\n      tag_111\n        /* \"#utility.yul\":1724:1728   */\n      dup2\n        /* \"#utility.yul\":1715:1721   */\n      dup5\n        /* \"#utility.yul\":1651:1729   */\n      tag_59\n      jump\t// in\n    tag_111:\n        /* \"#utility.yul\":1643:1729   */\n      swap1\n      pop\n        /* \"#utility.yul\":1423:1736   */\n      swap3\n      swap2\n      pop\n      pop\n      jump\t// out\n        /* \"#utility.yul\":1742:1819   */\n    tag_60:\n        /* \"#utility.yul\":1779:1786   */\n      0x00\n        /* \"#utility.yul\":1808:1813   */\n      dup2\n        /* \"#utility.yul\":1797:1813   */\n      swap1\n      pop\n        /* \"#utility.yul\":1742:1819   */\n      swap2\n      swap1\n      pop\n      jump\t// out\n        /* \"#utility.yul\":1825:1943   */\n    tag_61:\n        /* \"#utility.yul\":1912:1936   */\n      tag_114\n        /* \"#utility.yul\":1930:1935   */\n      dup2\n        /* \"#utility.yul\":1912:1936   */\n      tag_60\n      jump\t// in\n    tag_114:\n        /* \"#utility.yul\":1907:1910   */\n      dup3\n        /* \"#utility.yul\":1900:1937   */\n      mstore\n        /* \"#utility.yul\":1825:1943   */\n      pop\n      pop\n      jump\t// out\n        /* \"#utility.yul\":1949:2171   */\n    tag_20:\n        /* \"#utility.yul\":2042:2046   */\n      0x00\n        /* \"#utility.yul\":2080:2082   */\n      0x20\n        /* \"#utility.yul\":2069:2078   */\n      dup3\n        /* \"#utility.yul\":2065:2083   */\n      add\n        /* \"#utility.yul\":2057:2083   */\n      swap1\n      pop\n        /* \"#utility.yul\":2093:2164   */\n      tag_116\n        /* \"#utility.yul\":2161:2162   */\n      0x00\n        /* \"#utility.yul\":2150:2159   */\n      dup4\n        /* \"#utility.yul\":2146:2163   */\n      add\n        /* \"#utility.yul\":2137:2143   */\n      dup5\n        /* \"#utility.yul\":2093:2164   */\n      tag_61\n      jump\t// in\n    tag_116:\n        /* \"#utility.yul\":1949:2171   */\n      swap3\n      swap2\n      pop\n      pop\n      jump\t// out\n        /* \"#utility.yul\":2177:2275   */\n    tag_62:\n        /* \"#utility.yul\":2228:2234   */\n      0x00\n        /* \"#utility.yul\":2262:2267   */\n      dup2\n        /* \"#utility.yul\":2256:2268   */\n      mload\n        /* \"#utility.yul\":2246:2268   */\n      swap1\n      pop\n        /* \"#utility.yul\":2177:2275   */\n      swap2\n      swap1\n      pop\n      jump\t// out\n        /* \"#utility.yul\":2281:2449   */\n    tag_63:\n        /* \"#utility.yul\":2364:2375   */\n      0x00\n        /* \"#utility.yul\":2398:2404   */\n      dup3\n        /* \"#utility.yul\":2393:2396   */\n      dup3\n        /* \"#utility.yul\":2386:2405   */\n      mstore\n        /* \"#utility.yul\":2438:2442   */\n      0x20\n        /* \"#utility.yul\":2433:2436   */\n      dup3\n        /* \"#utility.yul\":2429:2443   */\n      add\n        /* \"#utility.yul\":2414:2443   */\n      swap1\n      pop\n        /* \"#utility.yul\":2281:2449   */\n      swap3\n      swap2\n      pop\n      pop\n      jump\t// out\n        /* \"#utility.yul\":2455:2828   */\n    tag_64:\n        /* \"#utility.yul\":2541:2544   */\n      0x00\n        /* \"#utility.yul\":2569:2607   */\n      tag_120\n        /* \"#utility.yul\":2601:2606   */\n      dup3\n        /* \"#utility.yul\":2569:2607   */\n      tag_62\n      jump\t// in\n    tag_120:\n        /* \"#utility.yul\":2623:2693   */\n      tag_121\n        /* \"#utility.yul\":2686:2692   */\n      dup2\n        /* \"#utility.yul\":2681:2684   */\n      dup6\n        /* \"#utility.yul\":2623:2693   */\n      tag_63\n      jump\t// in\n    tag_121:\n        /* \"#utility.yul\":2616:2693   */\n      swap4\n      pop\n        /* \"#utility.yul\":2702:2767   */\n      tag_122\n        /* \"#utility.yul\":2760:2766   */\n      dup2\n        /* \"#utility.yul\":2755:2758   */\n      dup6\n        /* \"#utility.yul\":2748:2752   */\n      0x20\n        /* \"#utility.yul\":2741:2746   */\n      dup7\n        /* \"#utility.yul\":2737:2753   */\n      add\n        /* \"#utility.yul\":2702:2767   */\n      tag_57\n      jump\t// in\n    tag_122:\n        /* \"#utility.yul\":2792:2821   */\n      tag_123\n        /* \"#utility.yul\":2814:2820   */\n      dup2\n        /* \"#utility.yul\":2792:2821   */\n      tag_58\n      jump\t// in\n    tag_123:\n        /* \"#utility.yul\":2787:2790   */\n      dup5\n        /* \"#utility.yul\":2783:2822   */\n      add\n        /* \"#utility.yul\":2776:2822   */\n      swap2\n      pop\n        /* \"#utility.yul\":2545:2828   */\n      pop\n        /* \"#utility.yul\":2455:2828   */\n      swap3\n      swap2\n      pop\n      pop\n      jump\t// out\n        /* \"#utility.yul\":2834:3143   */\n    tag_24:\n        /* \"#utility.yul\":2945:2949   */\n      0x00\n        /* \"#utility.yul\":2983:2985   */\n      0x20\n        /* \"#utility.yul\":2972:2981   */\n      dup3\n        /* \"#utility.yul\":2968:2986   */\n      add\n        /* \"#utility.yul\":2960:2986   */\n      swap1\n      pop\n        /* \"#utility.yul\":3032:3041   */\n      dup2\n        /* \"#utility.yul\":3026:3030   */\n      dup2\n        /* \"#utility.yul\":3022:3042   */\n      sub\n        /* \"#utility.yul\":3018:3019   */\n      0x00\n        /* \"#utility.yul\":3007:3016   */\n      dup4\n        /* \"#utility.yul\":3003:3020   */\n      add\n        /* \"#utility.yul\":2996:3043   */\n      mstore\n        /* \"#utility.yul\":3060:3136   */\n      tag_125\n        /* \"#utility.yul\":3131:3135   */\n      dup2\n        /* \"#utility.yul\":3122:3128   */\n      dup5\n        /* \"#utility.yul\":3060:3136   */\n      tag_64\n      jump\t// in\n    tag_125:\n        /* \"#utility.yul\":3052:3136   */\n      swap1\n      pop\n        /* \"#utility.yul\":2834:3143   */\n      swap3\n      swap2\n      pop\n      pop\n      jump\t// out\n        /* \"#utility.yul\":3149:3224   */\n    tag_65:\n        /* \"#utility.yul\":3182:3188   */\n      0x00\n        /* \"#utility.yul\":3215:3217   */\n      0x40\n        /* \"#utility.yul\":3209:3218   */\n      mload\n        /* \"#utility.yul\":3199:3218   */\n      swap1\n      pop\n        /* \"#utility.yul\":3149:3224   */\n      swap1\n      jump\t// out\n        /* \"#utility.yul\":3230:3347   */\n    tag_66:\n        /* \"#utility.yul\":3339:3340   */\n      0x00\n        /* \"#utility.yul\":3336:3337   */\n      0x00\n        /* \"#utility.yul\":3329:3341   */\n      revert\n        /* \"#utility.yul\":3353:3470   */\n    tag_67:\n        /* \"#utility.yul\":3462:3463   */\n      0x00\n        /* \"#utility.yul\":3459:3460   */\n      0x00\n        /* \"#utility.yul\":3452:3464   */\n      revert\n        /* \"#utility.yul\":3476:3593   */\n    tag_68:\n        /* \"#utility.yul\":3585:3586   */\n      0x00\n        /* \"#utility.yul\":3582:3583   */\n      0x00\n        /* \"#utility.yul\":3575:3587   */\n      revert\n        /* \"#utility.yul\":3599:3716   */\n    tag_69:\n        /* \"#utility.yul\":3708:3709   */\n      0x00\n        /* \"#utility.yul\":3705:3706   */\n      0x00\n        /* \"#utility.yul\":3698:3710   */\n      revert\n        /* \"#utility.yul\":3722:3902   */\n    tag_70:\n        /* \"#utility.yul\":3770:3847   */\n      0x4e487b7100000000000000000000000000000000000000000000000000000000\n        /* \"#utility.yul\":3767:3768   */\n      0x00\n        /* \"#utility.yul\":3760:3848   */\n      mstore\n        /* \"#utility.yul\":3867:3871   */\n      0x41\n        /* \"#utility.yul\":3864:3865   */\n      0x04\n        /* \"#utility.yul\":3857:3872   */\n      mstore\n        /* \"#utility.yul\":3891:3895   */\n      0x24\n        /* \"#utility.yul\":3888:3889   */\n      0x00\n        /* \"#utility.yul\":3881:3896   */\n      revert\n        /* \"#utility.yul\":3908:4189   */\n    tag_71:\n        /* \"#utility.yul\":3991:4018   */\n      tag_133\n        /* \"#utility.yul\":4013:4017   */\n      dup3\n        /* \"#utility.yul\":3991:4018   */\n      tag_58\n      jump\t// in\n    tag_133:\n        /* \"#utility.yul\":3983:3989   */\n      dup2\n        /* \"#utility.yul\":3979:4019   */\n      add\n        /* \"#utility.yul\":4121:4127   */\n      dup2\n        /* \"#utility.yul\":4109:4119   */\n      dup2\n        /* \"#utility.yul\":4106:4128   */\n      lt\n        /* \"#utility.yul\":4085:4103   */\n      0xffffffffffffffff\n        /* \"#utility.yul\":4073:4083   */\n      dup3\n        /* \"#utility.yul\":4070:4104   */\n      gt\n        /* \"#utility.yul\":4067:4129   */\n      or\n        /* \"#utility.yul\":4064:4152   */\n      iszero\n      tag_134\n      jumpi\n        /* \"#utility.yul\":4132:4150   */\n      tag_135\n      tag_70\n      jump\t// in\n    tag_135:\n        /* \"#utility.yul\":4064:4152   */\n    tag_134:\n        /* \"#utility.yul\":4172:4182   */\n      dup1\n        /* \"#utility.yul\":4168:4170   */\n      0x40\n        /* \"#utility.yul\":4161:4183   */\n      mstore\n        /* \"#utility.yul\":3951:4189   */\n      pop\n        /* \"#utility.yul\":3908:4189   */\n      pop\n      pop\n      jump\t// out\n        /* \"#utility.yul\":4195:4324   */\n    tag_72:\n        /* \"#utility.yul\":4229:4235   */\n      0x00\n        /* \"#utility.yul\":4256:4276   */\n      tag_137\n      tag_65\n      jump\t// in\n    tag_137:\n        /* \"#utility.yul\":4246:4276   */\n      swap1\n      pop\n        /* \"#utility.yul\":4285:4318   */\n      tag_138\n        /* \"#utility.yul\":4313:4317   */\n      dup3\n        /* \"#utility.yul\":4305:4311   */\n      dup3\n        /* \"#utility.yul\":4285:4318   */\n      tag_71\n      jump\t// in\n    tag_138:\n        /* \"#utility.yul\":4195:4324   */\n      swap2\n      swap1\n      pop\n      jump\t// out\n        /* \"#utility.yul\":4330:4638   */\n    tag_73:\n        /* \"#utility.yul\":4392:4396   */\n      0x00\n        /* \"#utility.yul\":4482:4500   */\n      0xffffffffffffffff\n        /* \"#utility.yul\":4474:4480   */\n      dup3\n        /* \"#utility.yul\":4471:4501   */\n      gt\n        /* \"#utility.yul\":4468:4524   */\n      iszero\n      tag_140\n      jumpi\n        /* \"#utility.yul\":4504:4522   */\n      tag_141\n      tag_70\n      jump\t// in\n    tag_141:\n        /* \"#utility.yul\":4468:4524   */\n    tag_140:\n        /* \"#utility.yul\":4542:4571   */\n      tag_142\n        /* \"#utility.yul\":4564:4570   */\n      dup3\n        /* \"#utility.yul\":4542:4571   */\n      tag_58\n      jump\t// in\n    tag_142:\n        /* \"#utility.yul\":4534:4571   */\n      swap1\n      pop\n        /* \"#utility.yul\":4626:4630   */\n      0x20\n        /* \"#utility.yul\":4620:4624   */\n      dup2\n        /* \"#utility.yul\":4616:4631   */\n      add\n        /* \"#utility.yul\":4608:4631   */\n      swap1\n      pop\n        /* \"#utility.yul\":4330:4638   */\n      swap2\n      swap1\n      pop\n      jump\t// out\n        /* \"#utility.yul\":4644:4792   */\n    tag_74:\n        /* \"#utility.yul\":4742:4748   */\n      dup3\n        /* \"#utility.yul\":4737:4740   */\n      dup2\n        /* \"#utility.yul\":4732:4735   */\n      dup4\n        /* \"#utility.yul\":4719:4749   */\n      calldatacopy\n        /* \"#utility.yul\":4783:4784   */\n      0x00\n        /* \"#utility.yul\":4774:4780   */\n      dup4\n        /* \"#utility.yul\":4769:4772   */\n      dup4\n        /* \"#utility.yul\":4765:4781   */\n      add\n        /* \"#utility.yul\":4758:4785   */\n      mstore\n        /* \"#utility.yul\":4644:4792   */\n      pop\n      pop\n      pop\n      jump\t// out\n        /* \"#utility.yul\":4798:5223   */\n    tag_75:\n        /* \"#utility.yul\":4876:4881   */\n      0x00\n        /* \"#utility.yul\":4901:4967   */\n      tag_145\n        /* \"#utility.yul\":4917:4966   */\n      tag_146\n        /* \"#utility.yul\":4959:4965   */\n      dup5\n        /* \"#utility.yul\":4917:4966   */\n      tag_73\n      jump\t// in\n    tag_146:\n        /* \"#utility.yul\":4901:4967   */\n      tag_72\n      jump\t// in\n    tag_145:\n        /* \"#utility.yul\":4892:4967   */\n      swap1\n      pop\n        /* \"#utility.yul\":4990:4996   */\n      dup3\n        /* \"#utility.yul\":4983:4988   */\n      dup2\n        /* \"#utility.yul\":4976:4997   */\n      mstore\n        /* \"#utility.yul\":5028:5032   */\n      0x20\n        /* \"#utility.yul\":5021:5026   */\n      dup2\n        /* \"#utility.yul\":5017:5033   */\n      add\n        /* \"#utility.yul\":5066:5069   */\n      dup5\n        /* \"#utility.yul\":5057:5063   */\n      dup5\n        /* \"#utility.yul\":5052:5055   */\n      dup5\n        /* \"#utility.yul\":5048:5064   */\n      add\n        /* \"#utility.yul\":5045:5070   */\n      gt\n        /* \"#utility.yul\":5042:5154   */\n      iszero\n      tag_147\n      jumpi\n        /* \"#utility.yul\":5073:5152   */\n      tag_148\n      tag_69\n      jump\t// in\n    tag_148:\n        /* \"#utility.yul\":5042:5154   */\n    tag_147:\n        /* \"#utility.yul\":5163:5217   */\n      tag_149\n        /* \"#utility.yul\":5210:5216   */\n      dup5\n        /* \"#utility.yul\":5205:5208   */\n      dup3\n        /* \"#utility.yul\":5200:5203   */\n      dup6\n        /* \"#utility.yul\":5163:5217   */\n      tag_74\n      jump\t// in\n    tag_149:\n        /* \"#utility.yul\":4882:5223   */\n      pop\n        /* \"#utility.yul\":4798:5223   */\n      swap4\n      swap3\n      pop\n      pop\n      pop\n      jump\t// out\n        /* \"#utility.yul\":5243:5583   */\n    tag_76:\n        /* \"#utility.yul\":5299:5304   */\n      0x00\n        /* \"#utility.yul\":5348:5351   */\n      dup3\n        /* \"#utility.yul\":5341:5345   */\n      0x1f\n        /* \"#utility.yul\":5333:5339   */\n      dup4\n        /* \"#utility.yul\":5329:5346   */\n      add\n        /* \"#utility.yul\":5325:5352   */\n      slt\n        /* \"#utility.yul\":5315:5437   */\n      tag_151\n      jumpi\n        /* \"#utility.yul\":5356:5435   */\n      tag_152\n      tag_68\n      jump\t// in\n    tag_152:\n        /* \"#utility.yul\":5315:5437   */\n    tag_151:\n        /* \"#utility.yul\":5473:5479   */\n      dup2\n        /* \"#utility.yul\":5460:5480   */\n      calldataload\n        /* \"#utility.yul\":5498:5577   */\n      tag_153\n        /* \"#utility.yul\":5573:5576   */\n      dup5\n        /* \"#utility.yul\":5565:5571   */\n      dup3\n        /* \"#utility.yul\":5558:5562   */\n      0x20\n        /* \"#utility.yul\":5550:5556   */\n      dup7\n        /* \"#utility.yul\":5546:5563   */\n      add\n        /* \"#utility.yul\":5498:5577   */\n      tag_75\n      jump\t// in\n    tag_153:\n        /* \"#utility.yul\":5489:5577   */\n      swap2\n      pop\n        /* \"#utility.yul\":5305:5583   */\n      pop\n        /* \"#utility.yul\":5243:5583   */\n      swap3\n      swap2\n      pop\n      pop\n      jump\t// out\n        /* \"#utility.yul\":5589:6098   */\n    tag_27:\n        /* \"#utility.yul\":5658:5664   */\n      0x00\n        /* \"#utility.yul\":5707:5709   */\n      0x20\n        /* \"#utility.yul\":5695:5704   */\n      dup3\n        /* \"#utility.yul\":5686:5693   */\n      dup5\n        /* \"#utility.yul\":5682:5705   */\n      sub\n        /* \"#utility.yul\":5678:5710   */\n      slt\n        /* \"#utility.yul\":5675:5794   */\n      iszero\n      tag_155\n      jumpi\n        /* \"#utility.yul\":5713:5792   */\n      tag_156\n      tag_66\n      jump\t// in\n    tag_156:\n        /* \"#utility.yul\":5675:5794   */\n    tag_155:\n        /* \"#utility.yul\":5861:5862   */\n      0x00\n        /* \"#utility.yul\":5850:5859   */\n      dup3\n        /* \"#utility.yul\":5846:5863   */\n      add\n        /* \"#utility.yul\":5833:5864   */\n      calldataload\n        /* \"#utility.yul\":5891:5909   */\n      0xffffffffffffffff\n        /* \"#utility.yul\":5883:5889   */\n      dup2\n        /* \"#utility.yul\":5880:5910   */\n      gt\n        /* \"#utility.yul\":5877:5994   */\n      iszero\n      tag_157\n      jumpi\n        /* \"#utility.yul\":5913:5992   */\n      tag_158\n      tag_67\n      jump\t// in\n    tag_158:\n        /* \"#utility.yul\":5877:5994   */\n    tag_157:\n        /* \"#utility.yul\":6018:6081   */\n      tag_159\n        /* \"#utility.yul\":6073:6080   */\n      dup5\n        /* \"#utility.yul\":6064:6070   */\n      dup3\n        /* \"#utility.yul\":6053:6062   */\n      dup6\n        /* \"#utility.yul\":6049:6071   */\n      add\n        /* \"#utility.yul\":6018:6081   */\n      tag_76\n      jump\t// in\n    tag_159:\n        /* \"#utility.yul\":6008:6081   */\n      swap2\n      pop\n        /* \"#utility.yul\":5804:6091   */\n      pop\n        /* \"#utility.yul\":5589:6098   */\n      swap3\n      swap2\n      pop\n      pop\n      jump\t// out\n        /* \"#utility.yul\":6104:6253   */\n    tag_77:\n        /* \"#utility.yul\":6140:6147   */\n      0x00\n        /* \"#utility.yul\":6180:6246   */\n      0xff00000000000000000000000000000000000000000000000000000000000000\n        /* \"#utility.yul\":6173:6178   */\n      dup3\n        /* \"#utility.yul\":6169:6247   */\n      and\n        /* \"#utility.yul\":6158:6247   */\n      swap1\n      pop\n        /* \"#utility.yul\":6104:6253   */\n      swap2\n      swap1\n      pop\n      jump\t// out\n        /* \"#utility.yul\":6259:6374   */\n    tag_78:\n        /* \"#utility.yul\":6344:6367   */\n      tag_162\n        /* \"#utility.yul\":6361:6366   */\n      dup2\n        /* \"#utility.yul\":6344:6367   */\n      tag_77\n      jump\t// in\n    tag_162:\n        /* \"#utility.yul\":6339:6342   */\n      dup3\n        /* \"#utility.yul\":6332:6368   */\n      mstore\n        /* \"#utility.yul\":6259:6374   */\n      pop\n      pop\n      jump\t// out\n        /* \"#utility.yul\":6380:6598   */\n    tag_32:\n        /* \"#utility.yul\":6471:6475   */\n      0x00\n        /* \"#utility.yul\":6509:6511   */\n      0x20\n        /* \"#utility.yul\":6498:6507   */\n      dup3\n        /* \"#utility.yul\":6494:6512   */\n      add\n        /* \"#utility.yul\":6486:6512   */\n      swap1\n      pop\n        /* \"#utility.yul\":6522:6591   */\n      tag_164\n        /* \"#utility.yul\":6588:6589   */\n      0x00\n        /* \"#utility.yul\":6577:6586   */\n      dup4\n        /* \"#utility.yul\":6573:6590   */\n      add\n        /* \"#utility.yul\":6564:6570   */\n      dup5\n        /* \"#utility.yul\":6522:6591   */\n      tag_78\n      jump\t// in\n    tag_164:\n        /* \"#utility.yul\":6380:6598   */\n      swap3\n      swap2\n      pop\n      pop\n      jump\t// out\n        /* \"#utility.yul\":6604:6784   */\n    tag_79:\n        /* \"#utility.yul\":6652:6729   */\n      0x4e487b7100000000000000000000000000000000000000000000000000000000\n        /* \"#utility.yul\":6649:6650   */\n      0x00\n        /* \"#utility.yul\":6642:6730   */\n      mstore\n        /* \"#utility.yul\":6749:6753   */\n      0x22\n        /* \"#utility.yul\":6746:6747   */\n      0x04\n        /* \"#utility.yul\":6739:6754   */\n      mstore\n        /* \"#utility.yul\":6773:6777   */\n      0x24\n        /* \"#utility.yul\":6770:6771   */\n      0x00\n        /* \"#utility.yul\":6763:6778   */\n      revert\n        /* \"#utility.yul\":6790:7110   */\n    tag_34:\n        /* \"#utility.yul\":6834:6840   */\n      0x00\n        /* \"#utility.yul\":6871:6872   */\n      0x02\n        /* \"#utility.yul\":6865:6869   */\n      dup3\n        /* \"#utility.yul\":6861:6873   */\n      div\n        /* \"#utility.yul\":6851:6873   */\n      swap1\n      pop\n        /* \"#utility.yul\":6918:6919   */\n      0x01\n        /* \"#utility.yul\":6912:6916   */\n      dup3\n        /* \"#utility.yul\":6908:6920   */\n      and\n        /* \"#utility.yul\":6939:6957   */\n      dup1\n        /* \"#utility.yul\":6929:7010   */\n      tag_167\n      jumpi\n        /* \"#utility.yul\":6995:6999   */\n      0x7f\n        /* \"#utility.yul\":6987:6993   */\n      dup3\n        /* \"#utility.yul\":6983:7000   */\n      and\n        /* \"#utility.yul\":6973:7000   */\n      swap2\n      pop\n        /* \"#utility.yul\":6929:7010   */\n    tag_167:\n        /* \"#utility.yul\":7057:7059   */\n      0x20\n        /* \"#utility.yul\":7049:7055   */\n      dup3\n        /* \"#utility.yul\":7046:7060   */\n      lt\n        /* \"#utility.yul\":7026:7044   */\n      dup2\n        /* \"#utility.yul\":7023:7061   */\n      sub\n        /* \"#utility.yul\":7020:7104   */\n      tag_168\n      jumpi\n        /* \"#utility.yul\":7076:7094   */\n      tag_169\n      tag_79\n      jump\t// in\n    tag_169:\n        /* \"#utility.yul\":7020:7104   */\n    tag_168:\n        /* \"#utility.yul\":6841:7110   */\n      pop\n        /* \"#utility.yul\":6790:7110   */\n      swap2\n      swap1\n      pop\n      jump\t// out\n        /* \"#utility.yul\":7116:7257   */\n    tag_80:\n        /* \"#utility.yul\":7165:7169   */\n      0x00\n        /* \"#utility.yul\":7188:7191   */\n      dup2\n        /* \"#utility.yul\":7180:7191   */\n      swap1\n      pop\n        /* \"#utility.yul\":7211:7214   */\n      dup2\n        /* \"#utility.yul\":7208:7209   */\n      0x00\n        /* \"#utility.yul\":7201:7215   */\n      mstore\n        /* \"#utility.yul\":7245:7249   */\n      0x20\n        /* \"#utility.yul\":7242:7243   */\n      0x00\n        /* \"#utility.yul\":7232:7250   */\n      keccak256\n        /* \"#utility.yul\":7224:7250   */\n      swap1\n      pop\n        /* \"#utility.yul\":7116:7257   */\n      swap2\n      swap1\n      pop\n      jump\t// out\n        /* \"#utility.yul\":7263:7356   */\n    tag_81:\n        /* \"#utility.yul\":7300:7306   */\n      0x00\n        /* \"#utility.yul\":7347:7349   */\n      0x20\n        /* \"#utility.yul\":7342:7344   */\n      0x1f\n        /* \"#utility.yul\":7335:7340   */\n      dup4\n        /* \"#utility.yul\":7331:7345   */\n      add\n        /* \"#utility.yul\":7327:7350   */\n      div\n        /* \"#utility.yul\":7317:7350   */\n      swap1\n      pop\n        /* \"#utility.yul\":7263:7356   */\n      swap2\n      swap1\n      pop\n      jump\t// out\n        /* \"#utility.yul\":7362:7469   */\n    tag_82:\n        /* \"#utility.yul\":7406:7414   */\n      0x00\n        /* \"#utility.yul\":7456:7461   */\n      dup3\n        /* \"#utility.yul\":7450:7454   */\n      dup3\n        /* \"#utility.yul\":7446:7462   */\n      shl\n        /* \"#utility.yul\":7425:7462   */\n      swap1\n      pop\n        /* \"#utility.yul\":7362:7469   */\n      swap3\n      swap2\n      pop\n      pop\n      jump\t// out\n        /* \"#utility.yul\":7475:7868   */\n    tag_83:\n        /* \"#utility.yul\":7544:7550   */\n      0x00\n        /* \"#utility.yul\":7594:7595   */\n      0x08\n        /* \"#utility.yul\":7582:7592   */\n      dup4\n        /* \"#utility.yul\":7578:7596   */\n      mul\n        /* \"#utility.yul\":7617:7714   */\n      tag_174\n        /* \"#utility.yul\":7647:7713   */\n      0xffffffffffffffffffffffffffffffffffffffffffffffffffffffffffffffff\n        /* \"#utility.yul\":7636:7645   */\n      dup3\n        /* \"#utility.yul\":7617:7714   */\n      tag_82\n      jump\t// in\n    tag_174:\n        /* \"#utility.yul\":7735:7774   */\n      tag_175\n        /* \"#utility.yul\":7765:7773   */\n      dup7\n        /* \"#utility.yul\":7754:7763   */\n      dup4\n        /* \"#utility.yul\":7735:7774   */\n      tag_82\n      jump\t// in\n    tag_175:\n        /* \"#utility.yul\":7723:7774   */\n      swap6\n      pop\n        /* \"#utility.yul\":7807:7811   */\n      dup1\n        /* \"#utility.yul\":7803:7812   */\n      not\n        /* \"#utility.yul\":7796:7801   */\n      dup5\n        /* \"#utility.yul\":7792:7813   */\n      and\n        /* \"#utility.yul\":7783:7813   */\n      swap4\n      pop\n        /* \"#utility.yul\":7856:7860   */\n      dup1\n        /* \"#utility.yul\":7846:7854   */\n      dup7\n        /* \"#utility.yul\":7842:7861   */\n      and\n        /* \"#utility.yul\":7835:7840   */\n      dup5\n        /* \"#utility.yul\":7832:7862   */\n      or\n        /* \"#utility.yul\":7822:7862   */\n      swap3\n      pop\n        /* \"#utility.yul\":7551:7868   */\n      pop\n      pop\n        /* \"#utility.yul\":7475:7868   */\n      swap4\n      swap3\n      pop\n      pop\n      pop\n      jump\t// out\n        /* \"#utility.yul\":7874:7934   */\n    tag_84:\n        /* \"#utility.yul\":7902:7905   */\n      0x00\n        /* \"#utility.yul\":7923:7928   */\n      dup2\n        /* \"#utility.yul\":7916:7928   */\n      swap1\n      pop\n        /* \"#utility.yul\":7874:7934   */\n      swap2\n      swap1\n      pop\n      jump\t// out\n        /* \"#utility.yul\":7940:8082   */\n    tag_85:\n        /* \"#utility.yul\":7990:7999   */\n      0x00\n        /* \"#utility.yul\":8023:8076   */\n      tag_178\n        /* \"#utility.yul\":8041:8075   */\n      tag_179\n        /* \"#utility.yul\":8050:8074   */\n      tag_180\n        /* \"#utility.yul\":8068:8073   */\n      dup5\n        /* \"#utility.yul\":8050:8074   */\n      tag_60\n      jump\t// in\n    tag_180:\n        /* \"#utility.yul\":8041:8075   */\n      tag_84\n      jump\t// in\n    tag_179:\n        /* \"#utility.yul\":8023:8076   */\n      tag_60\n      jump\t// in\n    tag_178:\n        /* \"#utility.yul\":8010:8076   */\n      swap1\n      pop\n        /* \"#utility.yul\":7940:8082   */\n      swap2\n      swap1\n      pop\n      jump\t// out\n        /* \"#utility.yul\":8088:8163   */\n    tag_86:\n        /* \"#utility.yul\":8131:8134   */\n      0x00\n        /* \"#utility.yul\":8152:8157   */\n      dup2\n        /* \"#utility.yul\":8145:8157   */\n      swap1\n      pop\n        /* \"#utility.yul\":8088:8163   */\n      swap2\n      swap1\n      pop\n      jump\t// out\n        /* \"#utility.yul\":8169:8438   */\n    tag_87:\n        /* \"#utility.yul\":8279:8318   */\n      tag_183\n        /* \"#utility.yul\":8310:8317   */\n      dup4\n        /* \"#utility.yul\":8279:8318   */\n      tag_85\n      jump\t// in\n    tag_183:\n        /* \"#utility.yul\":8340:8431   */\n      tag_184\n        /* \"#utility.yul\":8389:8430   */\n      tag_185\n        /* \"#utility.yul\":8413:8429   */\n      dup3\n        /* \"#utility.yul\":8389:8430   */\n      tag_86\n      jump\t// in\n    tag_185:\n        /* \"#utility.yul\":8381:8387   */\n      dup5\n        /* \"#utility.yul\":8374:8378   */\n      dup5\n        /* \"#utility.yul\":8368:8379   */\n      sload\n        /* \"#utility.yul\":8340:8431   */\n      tag_83\n      jump\t// in\n    tag_184:\n        /* \"#utility.yul\":8334:8338   */\n      dup3\n        /* \"#utility.yul\":8327:8432   */\n      sstore\n        /* \"#utility.yul\":8245:8438   */\n      pop\n        /* \"#utility.yul\":8169:8438   */\n      pop\n      pop\n      pop\n      jump\t// out\n        /* \"#utility.yul\":8444:8517   */\n    tag_88:\n        /* \"#utility.yul\":8489:8492   */\n      0x00\n        /* \"#utility.yul\":8510:8511   */\n      0x00\n        /* \"#utility.yul\":8503:8511   */\n      swap1\n      pop\n        /* \"#utility.yul\":8444:8517   */\n      swap1\n      jump\t// out\n        /* \"#utility.yul\":8523:8712   */\n    tag_89:\n        /* \"#utility.yul\":8600:8632   */\n      tag_188\n      tag_88\n      jump\t// in\n    tag_188:\n        /* \"#utility.yul\":8641:8706   */\n      tag_189\n        /* \"#utility.yul\":8699:8705   */\n      dup2\n        /* \"#utility.yul\":8691:8697   */\n      dup5\n        /* \"#utility.yul\":8685:8689   */\n      dup5\n        /* \"#utility.yul\":8641:8706   */\n      tag_87\n      jump\t// in\n    tag_189:\n        /* \"#utility.yul\":8576:8712   */\n      pop\n        /* \"#utility.yul\":8523:8712   */\n      pop\n      pop\n      jump\t// out\n        /* \"#utility.yul\":8718:8904   */\n    tag_90:\n        /* \"#utility.yul\":8778:8898   */\n    tag_191:\n        /* \"#utility.yul\":8795:8798   */\n      dup2\n        /* \"#utility.yul\":8788:8793   */\n      dup2\n        /* \"#utility.yul\":8785:8799   */\n      lt\n        /* \"#utility.yul\":8778:8898   */\n      iszero\n      tag_193\n      jumpi\n        /* \"#utility.yul\":8849:8888   */\n      tag_194\n        /* \"#utility.yul\":8886:8887   */\n      0x00\n        /* \"#utility.yul\":8879:8884   */\n      dup3\n        /* \"#utility.yul\":8849:8888   */\n      tag_89\n      jump\t// in\n    tag_194:\n        /* \"#utility.yul\":8822:8823   */\n      0x01\n        /* \"#utility.yul\":8815:8820   */\n      dup2\n        /* \"#utility.yul\":8811:8824   */\n      add\n        /* \"#utility.yul\":8802:8824   */\n      swap1\n      pop\n        /* \"#utility.yul\":8778:8898   */\n      jump(tag_191)\n    tag_193:\n        /* \"#utility.yul\":8718:8904   */\n      pop\n      pop\n      jump\t// out\n        /* \"#utility.yul\":8910:9453   */\n    tag_91:\n        /* \"#utility.yul\":9011:9013   */\n      0x1f\n        /* \"#utility.yul\":9006:9009   */\n      dup3\n        /* \"#utility.yul\":9003:9014   */\n      gt\n        /* \"#utility.yul\":9000:9446   */\n      iszero\n      tag_196\n      jumpi\n        /* \"#utility.yul\":9045:9083   */\n      tag_197\n        /* \"#utility.yul\":9077:9082   */\n      dup2\n        /* \"#utility.yul\":9045:9083   */\n      tag_80\n      jump\t// in\n    tag_197:\n        /* \"#utility.yul\":9129:9158   */\n      tag_198\n        /* \"#utility.yul\":9147:9157   */\n      dup5\n        /* \"#utility.yul\":9129:9158   */\n      tag_81\n      jump\t// in\n    tag_198:\n        /* \"#utility.yul\":9119:9127   */\n      dup2\n        /* \"#utility.yul\":9115:9159   */\n      add\n        /* \"#utility.yul\":9312:9314   */\n      0x20\n        /* \"#utility.yul\":9300:9310   */\n      dup6\n        /* \"#utility.yul\":9297:9315   */\n      lt\n        /* \"#utility.yul\":9294:9343   */\n      iszero\n      tag_199\n      jumpi\n        /* \"#utility.yul\":9333:9341   */\n      dup2\n        /* \"#utility.yul\":9318:9341   */\n      swap1\n      pop\n        /* \"#utility.yul\":9294:9343   */\n    tag_199:\n        /* \"#utility.yul\":9356:9436   */\n      tag_200\n        /* \"#utility.yul\":9412:9434   */\n      tag_201\n        /* \"#utility.yul\":9430:9433   */\n      dup6\n        /* \"#utility.yul\":9412:9434   */\n      tag_81\n      jump\t// in\n    tag_201:\n        /* \"#utility.yul\":9402:9410   */\n      dup4\n        /* \"#utility.yul\":9398:9435   */\n      add\n        /* \"#utility.yul\":9385:9396   */\n      dup3\n        /* \"#utility.yul\":9356:9436   */\n      tag_90\n      jump\t// in\n    tag_200:\n        /* \"#utility.yul\":9015:9446   */\n      pop\n      pop\n        /* \"#utility.yul\":9000:9446   */\n    tag_196:\n        /* \"#utility.yul\":8910:9453   */\n      pop\n      pop\n      pop\n      jump\t// out\n        /* \"#utility.yul\":9459:9576   */\n    tag_92:\n        /* \"#utility.yul\":9513:9521   */\n      0x00\n        /* \"#utility.yul\":9563:9568   */\n      dup3\n        /* \"#utility.yul\":9557:9561   */\n      dup3\n        /* \"#utility.yul\":9553:9569   */\n      shr\n        /* \"#utility.yul\":9532:9569   */\n      swap1\n      pop\n        /* \"#utility.yul\":9459:9576   */\n      swap3\n      swap2\n      pop\n      pop\n      jump\t// out\n        /* \"#utility.yul\":9582:9751   */\n    tag_93:\n        /* \"#utility.yul\":9626:9632   */\n      0x00\n        /* \"#utility.yul\":9659:9710   */\n      tag_204\n        /* \"#utility.yul\":9707:9708   */\n      0x00\n        /* \"#utility.yul\":9703:9709   */\n      not\n        /* \"#utility.yul\":9695:9700   */\n      dup5\n        /* \"#utility.yul\":9692:9693   */\n      0x08\n        /* \"#utility.yul\":9688:9701   */\n      mul\n        /* \"#utility.yul\":9659:9710   */\n      tag_92\n      jump\t// in\n    tag_204:\n        /* \"#utility.yul\":9655:9711   */\n      not\n        /* \"#utility.yul\":9740:9744   */\n      dup1\n        /* \"#utility.yul\":9734:9738   */\n      dup4\n        /* \"#utility.yul\":9730:9745   */\n      and\n        /* \"#utility.yul\":9720:9745   */\n      swap2\n      pop\n        /* \"#utility.yul\":9633:9751   */\n      pop\n        /* \"#utility.yul\":9582:9751   */\n      swap3\n      swap2\n      pop\n      pop\n      jump\t// out\n        /* \"#utility.yul\":9756:10051   */\n    tag_94:\n        /* \"#utility.yul\":9832:9836   */\n      0x00\n        /* \"#utility.yul\":9978:10007   */\n      tag_206\n        /* \"#utility.yul\":10003:10006   */\n      dup4\n        /* \"#utility.yul\":9997:10001   */\n      dup4\n        /* \"#utility.yul\":9978:10007   */\n      tag_93\n      jump\t// in\n    tag_206:\n        /* \"#utility.yul\":9970:10007   */\n      swap2\n      pop\n        /* \"#utility.yul\":10040:10043   */\n      dup3\n        /* \"#utility.yul\":10037:10038   */\n      0x02\n        /* \"#utility.yul\":10033:10044   */\n      mul\n        /* \"#utility.yul\":10027:10031   */\n      dup3\n        /* \"#utility.yul\":10024:10045   */\n      or\n        /* \"#utility.yul\":10016:10045   */\n      swap1\n      pop\n        /* \"#utility.yul\":9756:10051   */\n      swap3\n      swap2\n      pop\n      pop\n      jump\t// out\n        /* \"#utility.yul\":10056:11451   */\n    tag_52:\n        /* \"#utility.yul\":10173:10210   */\n      tag_208\n        /* \"#utility.yul\":10206:10209   */\n      dup3\n        /* \"#utility.yul\":10173:10210   */\n      tag_55\n      jump\t// in\n    tag_208:\n        /* \"#utility.yul\":10275:10293   */\n      0xffffffffffffffff\n        /* \"#utility.yul\":10267:10273   */\n      dup2\n        /* \"#utility.yul\":10264:10294   */\n      gt\n        /* \"#utility.yul\":10261:10317   */\n      iszero\n      tag_209\n      jumpi\n        /* \"#utility.yul\":10297:10315   */\n      tag_210\n      tag_70\n      jump\t// in\n    tag_210:\n        /* \"#utility.yul\":10261:10317   */\n    tag_209:\n        /* \"#utility.yul\":10341:10379   */\n      tag_211\n        /* \"#utility.yul\":10373:10377   */\n      dup3\n        /* \"#utility.yul\":10367:10378   */\n      sload\n        /* \"#utility.yul\":10341:10379   */\n      tag_34\n      jump\t// in\n    tag_211:\n        /* \"#utility.yul\":10426:10493   */\n      tag_212\n        /* \"#utility.yul\":10486:10492   */\n      dup3\n        /* \"#utility.yul\":10478:10484   */\n      dup3\n        /* \"#utility.yul\":10472:10476   */\n      dup6\n        /* \"#utility.yul\":10426:10493   */\n      tag_91\n      jump\t// in\n    tag_212:\n        /* \"#utility.yul\":10520:10521   */\n      0x00\n        /* \"#utility.yul\":10544:10548   */\n      0x20\n        /* \"#utility.yul\":10531:10548   */\n      swap1\n      pop\n        /* \"#utility.yul\":10576:10578   */\n      0x1f\n        /* \"#utility.yul\":10568:10574   */\n      dup4\n        /* \"#utility.yul\":10565:10579   */\n      gt\n        /* \"#utility.yul\":10593:10594   */\n      0x01\n        /* \"#utility.yul\":10588:11206   */\n      dup2\n      eq\n      tag_214\n      jumpi\n        /* \"#utility.yul\":11250:11251   */\n      0x00\n        /* \"#utility.yul\":11267:11273   */\n      dup5\n        /* \"#utility.yul\":11264:11341   */\n      iszero\n      tag_215\n      jumpi\n        /* \"#utility.yul\":11316:11325   */\n      dup3\n        /* \"#utility.yul\":11311:11314   */\n      dup8\n        /* \"#utility.yul\":11307:11326   */\n      add\n        /* \"#utility.yul\":11301:11327   */\n      mload\n        /* \"#utility.yul\":11292:11327   */\n      swap1\n      pop\n        /* \"#utility.yul\":11264:11341   */\n    tag_215:\n        /* \"#utility.yul\":11367:11434   */\n      tag_216\n        /* \"#utility.yul\":11427:11433   */\n      dup6\n        /* \"#utility.yul\":11420:11425   */\n      dup3\n        /* \"#utility.yul\":11367:11434   */\n      tag_94\n      jump\t// in\n    tag_216:\n        /* \"#utility.yul\":11361:11365   */\n      dup7\n        /* \"#utility.yul\":11354:11435   */\n      sstore\n        /* \"#utility.yul\":11223:11445   */\n      pop\n        /* \"#utility.yul\":10558:11445   */\n      jump(tag_213)\n        /* \"#utility.yul\":10588:11206   */\n    tag_214:\n        /* \"#utility.yul\":10640:10644   */\n      0x1f\n        /* \"#utility.yul\":10636:10645   */\n      not\n        /* \"#utility.yul\":10628:10634   */\n      dup5\n        /* \"#utility.yul\":10624:10646   */\n      and\n        /* \"#utility.yul\":10674:10711   */\n      tag_217\n        /* \"#utility.yul\":10706:10710   */\n      dup7\n        /* \"#utility.yul\":10674:10711   */\n      tag_80\n      jump\t// in\n    tag_217:\n        /* \"#utility.yul\":10733:10734   */\n      0x00\n        /* \"#utility.yul\":10747:10955   */\n    tag_218:\n        /* \"#utility.yul\":10761:10768   */\n      dup3\n        /* \"#utility.yul\":10758:10759   */\n      dup2\n        /* \"#utility.yul\":10755:10769   */\n      lt\n        /* \"#utility.yul\":10747:10955   */\n      iszero\n      tag_220\n      jumpi\n        /* \"#utility.yul\":10840:10849   */\n      dup5\n        /* \"#utility.yul\":10835:10838   */\n      dup10\n        /* \"#utility.yul\":10831:10850   */\n      add\n        /* \"#utility.yul\":10825:10851   */\n      mload\n        /* \"#utility.yul\":10817:10823   */\n      dup3\n        /* \"#utility.yul\":10810:10852   */\n      sstore\n        /* \"#utility.yul\":10891:10892   */\n      0x01\n        /* \"#utility.yul\":10883:10889   */\n      dup3\n        /* \"#utility.yul\":10879:10893   */\n      add\n        /* \"#utility.yul\":10869:10893   */\n      swap2\n      pop\n        /* \"#utility.yul\":10938:10940   */\n      0x20\n        /* \"#utility.yul\":10927:10936   */\n      dup6\n        /* \"#utility.yul\":10923:10941   */\n      add\n        /* \"#utility.yul\":10910:10941   */\n      swap5\n      pop\n        /* \"#utility.yul\":10784:10788   */\n      0x20\n        /* \"#utility.yul\":10781:10782   */\n      dup2\n        /* \"#utility.yul\":10777:10789   */\n      add\n        /* \"#utility.yul\":10772:10789   */\n      swap1\n      pop\n        /* \"#utility.yul\":10747:10955   */\n      jump(tag_218)\n    tag_220:\n        /* \"#utility.yul\":10983:10989   */\n      dup7\n        /* \"#utility.yul\":10974:10981   */\n      dup4\n        /* \"#utility.yul\":10971:10990   */\n      lt\n        /* \"#utility.yul\":10968:11147   */\n      iszero\n      tag_221\n      jumpi\n        /* \"#utility.yul\":11041:11050   */\n      dup5\n        /* \"#utility.yul\":11036:11039   */\n      dup10\n        /* \"#utility.yul\":11032:11051   */\n      add\n        /* \"#utility.yul\":11026:11052   */\n      mload\n        /* \"#utility.yul\":11084:11132   */\n      tag_222\n        /* \"#utility.yul\":11126:11130   */\n      0x1f\n        /* \"#utility.yul\":11118:11124   */\n      dup10\n        /* \"#utility.yul\":11114:11131   */\n      and\n        /* \"#utility.yul\":11103:11112   */\n      dup3\n        /* \"#utility.yul\":11084:11132   */\n      tag_93\n      jump\t// in\n    tag_222:\n        /* \"#utility.yul\":11076:11082   */\n      dup4\n        /* \"#utility.yul\":11069:11133   */\n      sstore\n        /* \"#utility.yul\":10991:11147   */\n      pop\n        /* \"#utility.yul\":10968:11147   */\n    tag_221:\n        /* \"#utility.yul\":11193:11194   */\n      0x01\n        /* \"#utility.yul\":11189:11190   */\n      0x02\n        /* \"#utility.yul\":11181:11187   */\n      dup9\n        /* \"#utility.yul\":11177:11191   */\n      mul\n        /* \"#utility.yul\":11173:11195   */\n      add\n        /* \"#utility.yul\":11167:11171   */\n      dup9\n        /* \"#utility.yul\":11160:11196   */\n      sstore\n        /* \"#utility.yul\":10595:11206   */\n      pop\n      pop\n      pop\n        /* \"#utility.yul\":10558:11445   */\n    tag_213:\n      pop\n        /* \"#utility.yul\":10148:11451   */\n      pop\n      pop\n      pop\n        /* \"#utility.yul\":10056:11451   */\n      pop\n      pop\n      jump\t// out\n\n    auxdata: 0xa264697066735822122057fc4e45cdf7510e8d5a1b684b0b7e533eafb91b519034a00683f52873a83fa264736f6c634300081c0033\n}\n",
				"bytecode": {
					"linkReferences": {},
					"object": "608060405260b560f81b5f5f6101000a81548160ff021916908360f81c021790555061123460f01b5f60016101000a81548161ffff021916908360f01c0217905550348015604b575f5ffd5b50610958806100595f395ff3fe608060405234801561000f575f5ffd5b5060043610610060575f3560e01c80630add6ef214610064578063492bfa181461008257806356ff6f1c146100a057806373d4a13a146100be57806382180568146100dc578063ee495002146100f8575b5f5ffd5b61006c610116565b6040516100799190610333565b60405180910390f35b61008a610128565b60405161009791906103bc565b60405180910390f35b6100a86101b4565b6040516100b591906103f4565b60405180910390f35b6100c6610249565b6040516100d3919061045f565b60405180910390f35b6100f660048036038101906100f191906105bc565b6102d5565b005b6101006102e8565b60405161010d919061063d565b60405180910390f35b5f60019054906101000a900460f01b81565b6002805461013590610683565b80601f016020809104026020016040519081016040528092919081815260200182805461016190610683565b80156101ac5780601f10610183576101008083540402835291602001916101ac565b820191905f5260205f20905b81548152906001019060200180831161018f57829003601f168201915b505050505081565b5f5f600280546101c390610683565b80601f01602080910402602001604051908101604052809291908181526020018280546101ef90610683565b801561023a5780601f106102115761010080835404028352916020019161023a565b820191905f5260205f20905b81548152906001019060200180831161021d57829003601f168201915b50505050509050805191505090565b6001805461025690610683565b80601f016020809104026020016040519081016040528092919081815260200182805461028290610683565b80156102cd5780601f106102a4576101008083540402835291602001916102cd565b820191905f5260205f20905b8154815290600101906020018083116102b057829003601f168201915b505050505081565b80600290816102e49190610853565b5050565b5f5f9054906101000a900460f81b81565b5f7fffff00000000000000000000000000000000000000000000000000000000000082169050919050565b61032d816102f9565b82525050565b5f6020820190506103465f830184610324565b92915050565b5f81519050919050565b5f82825260208201905092915050565b8281835e5f83830152505050565b5f601f19601f8301169050919050565b5f61038e8261034c565b6103988185610356565b93506103a8818560208601610366565b6103b181610374565b840191505092915050565b5f6020820190508181035f8301526103d48184610384565b905092915050565b5f819050919050565b6103ee816103dc565b82525050565b5f6020820190506104075f8301846103e5565b92915050565b5f81519050919050565b5f82825260208201905092915050565b5f6104318261040d565b61043b8185610417565b935061044b818560208601610366565b61045481610374565b840191505092915050565b5f6020820190508181035f8301526104778184610427565b905092915050565b5f604051905090565b5f5ffd5b5f5ffd5b5f5ffd5b5f5ffd5b7f4e487b71000000000000000000000000000000000000000000000000000000005f52604160045260245ffd5b6104ce82610374565b810181811067ffffffffffffffff821117156104ed576104ec610498565b5b80604052505050565b5f6104ff61047f565b905061050b82826104c5565b919050565b5f67ffffffffffffffff82111561052a57610529610498565b5b61053382610374565b9050602081019050919050565b828183375f83830152505050565b5f61056061055b84610510565b6104f6565b90508281526020810184848401111561057c5761057b610494565b5b610587848285610540565b509392505050565b5f82601f8301126105a3576105a2610490565b5b81356105b384826020860161054e565b91505092915050565b5f602082840312156105d1576105d0610488565b5b5f82013567ffffffffffffffff8111156105ee576105ed61048c565b5b6105fa8482850161058f565b91505092915050565b5f7fff0000000000000000000000000000000000000000000000000000000000000082169050919050565b61063781610603565b82525050565b5f6020820190506106505f83018461062e565b92915050565b7f4e487b71000000000000000000000000000000000000000000000000000000005f52602260045260245ffd5b5f600282049050600182168061069a57607f821691505b6020821081036106ad576106ac610656565b5b50919050565b5f819050815f5260205f209050919050565b5f6020601f8301049050919050565b5f82821b905092915050565b5f6008830261070f7fffffffffffffffffffffffffffffffffffffffffffffffffffffffffffffffff826106d4565b61071986836106d4565b95508019841693508086168417925050509392505050565b5f819050919050565b5f61075461074f61074a846103dc565b610731565b6103dc565b9050919050565b5f819050919050565b61076d8361073a565b6107816107798261075b565b8484546106e0565b825550505050565b5f5f905090565b610798610789565b6107a3818484610764565b505050565b5b818110156107c6576107bb5f82610790565b6001810190506107a9565b5050565b601f82111561080b576107dc816106b3565b6107e5846106c5565b810160208510156107f4578190505b610808610800856106c5565b8301826107a8565b50505b505050565b5f82821c905092915050565b5f61082b5f1984600802610810565b1980831691505092915050565b5f610843838361081c565b9150826002028217905092915050565b61085c8261034c565b67ffffffffffffffff81111561087557610874610498565b5b61087f8254610683565b61088a8282856107ca565b5f60209050601f8311600181146108bb575f84156108a9578287015190505b6108b38582610838565b86555061091a565b601f1984166108c9866106b3565b5f5b828110156108f0578489015182556001820191506020850194506020810190506108cb565b8683101561090d5784890151610909601f89168261081c565b8355505b6001600288020188555050505b50505050505056fea264697066735822122057fc4e45cdf7510e8d5a1b684b0b7e533eafb91b519034a00683f52873a83fa264736f6c634300081c0033",
					"opcodes": "PUSH1 0x80 PUSH1 0x40 MSTORE PUSH1 0xB5 PUSH1 0xF8 SHL PUSH0 PUSH0 PUSH2 0x100 EXP DUP2 SLOAD DUP2 PUSH1 0xFF MUL NOT AND SWAP1 DUP4 PUSH1 0xF8 SHR MUL OR SWAP1 SSTORE POP PUSH2 0x1234 PUSH1 0xF0 SHL PUSH0 PUSH1 0x1 PUSH2 0x100 EXP DUP2 SLOAD DUP2 PUSH2 0xFFFF MUL NOT AND SWAP1 DUP4 PUSH1 0xF0 SHR MUL OR SWAP1 SSTORE POP CALLVALUE DUP1 ISZERO PUSH1 0x4B JUMPI PUSH0 PUSH0 REVERT JUMPDEST POP PUSH2 0x958 DUP1 PUSH2 0x59 PUSH0 CODECOPY PUSH0 RETURN INVALID PUSH1 0x80 PUSH1 0x40 MSTORE CALLVALUE DUP1 ISZERO PUSH2 0xF JUMPI PUSH0 PUSH0 REVERT JUMPDEST POP PUSH1 0x4 CALLDATASIZE LT PUSH2 0x60 JUMPI PUSH0 CALLDATALOAD PUSH1 0xE0 SHR DUP1 PUSH4 0xADD6EF2 EQ PUSH2 0x64 JUMPI DUP1 PUSH4 0x492BFA18 EQ PUSH2 0x82 JUMPI DUP1 PUSH4 0x56FF6F1C EQ PUSH2 0xA0 JUMPI DUP1 PUSH4 0x73D4A13A EQ PUSH2 0xBE JUMPI DUP1 PUSH4 0x82180568 EQ PUSH2 0xDC JUMPI DUP1 PUSH4 0xEE495002 EQ PUSH2 0xF8 JUMPI JUMPDEST PUSH0 PUSH0 REVERT JUMPDEST PUSH2 0x6C PUSH2 0x116 JUMP JUMPDEST PUSH1 0x40 MLOAD PUSH2 0x79 SWAP2 SWAP1 PUSH2 0x333 JUMP JUMPDEST PUSH1 0x40 MLOAD DUP1 SWAP2 SUB SWAP1 RETURN JUMPDEST PUSH2 0x8A PUSH2 0x128 JUMP JUMPDEST PUSH1 0x40 MLOAD PUSH2 0x97 SWAP2 SWAP1 PUSH2 0x3BC JUMP JUMPDEST PUSH1 0x40 MLOAD DUP1 SWAP2 SUB SWAP1 RETURN JUMPDEST PUSH2 0xA8 PUSH2 0x1B4 JUMP JUMPDEST PUSH1 0x40 MLOAD PUSH2 0xB5 SWAP2 SWAP1 PUSH2 0x3F4 JUMP JUMPDEST PUSH1 0x40 MLOAD DUP1 SWAP2 SUB SWAP1 RETURN JUMPDEST PUSH2 0xC6 PUSH2 0x249 JUMP JUMPDEST PUSH1 0x40 MLOAD PUSH2 0xD3 SWAP2 SWAP1 PUSH2 0x45F JUMP JUMPDEST PUSH1 0x40 MLOAD DUP1 SWAP2 SUB SWAP1 RETURN JUMPDEST PUSH2 0xF6 PUSH1 0x4 DUP1 CALLDATASIZE SUB DUP2 ADD SWAP1 PUSH2 0xF1 SWAP2 SWAP1 PUSH2 0x5BC JUMP JUMPDEST PUSH2 0x2D5 JUMP JUMPDEST STOP JUMPDEST PUSH2 0x100 PUSH2 0x2E8 JUMP JUMPDEST PUSH1 0x40 MLOAD PUSH2 0x10D SWAP2 SWAP1 PUSH2 0x63D JUMP JUMPDEST PUSH1 0x40 MLOAD DUP1 SWAP2 SUB SWAP1 RETURN JUMPDEST PUSH0 PUSH1 0x1 SWAP1 SLOAD SWAP1 PUSH2 0x100 EXP SWAP1 DIV PUSH1 0xF0 SHL DUP2 JUMP JUMPDEST PUSH1 0x2 DUP1 SLOAD PUSH2 0x135 SWAP1 PUSH2 0x683 JUMP JUMPDEST DUP1 PUSH1 0x1F ADD PUSH1 0x20 DUP1 SWAP2 DIV MUL PUSH1 0x20 ADD PUSH1 0x40 MLOAD SWAP1 DUP2 ADD PUSH1 0x40 MSTORE DUP1 SWAP3 SWAP2 SWAP1 DUP2 DUP2 MSTORE PUSH1 0x20 ADD DUP3 DUP1 SLOAD PUSH2 0x161 SWAP1 PUSH2 0x683 JUMP JUMPDEST DUP1 ISZERO PUSH2 0x1AC JUMPI DUP1 PUSH1 0x1F LT PUSH2 0x183 JUMPI PUSH2 0x100 DUP1 DUP4 SLOAD DIV MUL DUP4 MSTORE SWAP2 PUSH1 0x20 ADD SWAP2 PUSH2 0x1AC JUMP JUMPDEST DUP3 ADD SWAP2 SWAP1 PUSH0 MSTORE PUSH1 0x20 PUSH0 KECCAK256 SWAP1 JUMPDEST DUP2 SLOAD DUP2 MSTORE SWAP1 PUSH1 0x1 ADD SWAP1 PUSH1 0x20 ADD DUP1 DUP4 GT PUSH2 0x18F JUMPI DUP3 SWAP1 SUB PUSH1 0x1F AND DUP3 ADD SWAP2 JUMPDEST POP POP POP POP POP DUP2 JUMP JUMPDEST PUSH0 PUSH0 PUSH1 0x2 DUP1 SLOAD PUSH2 0x1C3 SWAP1 PUSH2 0x683 JUMP JUMPDEST DUP1 PUSH1 0x1F ADD PUSH1 0x20 DUP1 SWAP2 DIV MUL PUSH1 0x20 ADD PUSH1 0x40 MLOAD SWAP1 DUP2 ADD PUSH1 0x40 MSTORE DUP1 SWAP3 SWAP2 SWAP1 DUP2 DUP2 MSTORE PUSH1 0x20 ADD DUP3 DUP1 SLOAD PUSH2 0x1EF SWAP1 PUSH2 0x683 JUMP JUMPDEST DUP1 ISZERO PUSH2 0x23A JUMPI DUP1 PUSH1 0x1F LT PUSH2 0x211 JUMPI PUSH2 0x100 DUP1 DUP4 SLOAD DIV MUL DUP4 MSTORE SWAP2 PUSH1 0x20 ADD SWAP2 PUSH2 0x23A JUMP JUMPDEST DUP3 ADD SWAP2 SWAP1 PUSH0 MSTORE PUSH1 0x20 PUSH0 KECCAK256 SWAP1 JUMPDEST DUP2 SLOAD DUP2 MSTORE SWAP1 PUSH1 0x1 ADD SWAP1 PUSH1 0x20 ADD DUP1 DUP4 GT PUSH2 0x21D JUMPI DUP3 SWAP1 SUB PUSH1 0x1F AND DUP3 ADD SWAP2 JUMPDEST POP POP POP POP POP SWAP1 POP DUP1 MLOAD SWAP2 POP POP SWAP1 JUMP JUMPDEST PUSH1 0x1 DUP1 SLOAD PUSH2 0x256 SWAP1 PUSH2 0x683 JUMP JUMPDEST DUP1 PUSH1 0x1F ADD PUSH1 0x20 DUP1 SWAP2 DIV MUL PUSH1 0x20 ADD PUSH1 0x40 MLOAD SWAP1 DUP2 ADD PUSH1 0x40 MSTORE DUP1 SWAP3 SWAP2 SWAP1 DUP2 DUP2 MSTORE PUSH1 0x20 ADD DUP3 DUP1 SLOAD PUSH2 0x282 SWAP1 PUSH2 0x683 JUMP JUMPDEST DUP1 ISZERO PUSH2 0x2CD JUMPI DUP1 PUSH1 0x1F LT PUSH2 0x2A4 JUMPI PUSH2 0x100 DUP1 DUP4 SLOAD DIV MUL DUP4 MSTORE SWAP2 PUSH1 0x20 ADD SWAP2 PUSH2 0x2CD JUMP JUMPDEST DUP3 ADD SWAP2 SWAP1 PUSH0 MSTORE PUSH1 0x20 PUSH0 KECCAK256 SWAP1 JUMPDEST DUP2 SLOAD DUP2 MSTORE SWAP1 PUSH1 0x1 ADD SWAP1 PUSH1 0x20 ADD DUP1 DUP4 GT PUSH2 0x2B0 JUMPI DUP3 SWAP1 SUB PUSH1 0x1F AND DUP3 ADD SWAP2 JUMPDEST POP POP POP POP POP DUP2 JUMP JUMPDEST DUP1 PUSH1 0x2 SWAP1 DUP2 PUSH2 0x2E4 SWAP2 SWAP1 PUSH2 0x853 JUMP JUMPDEST POP POP JUMP JUMPDEST PUSH0 PUSH0 SWAP1 SLOAD SWAP1 PUSH2 0x100 EXP SWAP1 DIV PUSH1 0xF8 SHL DUP2 JUMP JUMPDEST PUSH0 PUSH32 0xFFFF000000000000000000000000000000000000000000000000000000000000 DUP3 AND SWAP1 POP SWAP2 SWAP1 POP JUMP JUMPDEST PUSH2 0x32D DUP2 PUSH2 0x2F9 JUMP JUMPDEST DUP3 MSTORE POP POP JUMP JUMPDEST PUSH0 PUSH1 0x20 DUP3 ADD SWAP1 POP PUSH2 0x346 PUSH0 DUP4 ADD DUP5 PUSH2 0x324 JUMP JUMPDEST SWAP3 SWAP2 POP POP JUMP JUMPDEST PUSH0 DUP2 MLOAD SWAP1 POP SWAP2 SWAP1 POP JUMP JUMPDEST PUSH0 DUP3 DUP3 MSTORE PUSH1 0x20 DUP3 ADD SWAP1 POP SWAP3 SWAP2 POP POP JUMP JUMPDEST DUP3 DUP2 DUP4 MCOPY PUSH0 DUP4 DUP4 ADD MSTORE POP POP POP JUMP JUMPDEST PUSH0 PUSH1 0x1F NOT PUSH1 0x1F DUP4 ADD AND SWAP1 POP SWAP2 SWAP1 POP JUMP JUMPDEST PUSH0 PUSH2 0x38E DUP3 PUSH2 0x34C JUMP JUMPDEST PUSH2 0x398 DUP2 DUP6 PUSH2 0x356 JUMP JUMPDEST SWAP4 POP PUSH2 0x3A8 DUP2 DUP6 PUSH1 0x20 DUP7 ADD PUSH2 0x366 JUMP JUMPDEST PUSH2 0x3B1 DUP2 PUSH2 0x374 JUMP JUMPDEST DUP5 ADD SWAP2 POP POP SWAP3 SWAP2 POP POP JUMP JUMPDEST PUSH0 PUSH1 0x20 DUP3 ADD SWAP1 POP DUP2 DUP2 SUB PUSH0 DUP4 ADD MSTORE PUSH2 0x3D4 DUP2 DUP5 PUSH2 0x384 JUMP JUMPDEST SWAP1 POP SWAP3 SWAP2 POP POP JUMP JUMPDEST PUSH0 DUP2 SWAP1 POP SWAP2 SWAP1 POP JUMP JUMPDEST PUSH2 0x3EE DUP2 PUSH2 0x3DC JUMP JUMPDEST DUP3 MSTORE POP POP JUMP JUMPDEST PUSH0 PUSH1 0x20 DUP3 ADD SWAP1 POP PUSH2 0x407 PUSH0 DUP4 ADD DUP5 PUSH2 0x3E5 JUMP JUMPDEST SWAP3 SWAP2 POP POP JUMP JUMPDEST PUSH0 DUP2 MLOAD SWAP1 POP SWAP2 SWAP1 POP JUMP JUMPDEST PUSH0 DUP3 DUP3 MSTORE PUSH1 0x20 DUP3 ADD SWAP1 POP SWAP3 SWAP2 POP POP JUMP JUMPDEST PUSH0 PUSH2 0x431 DUP3 PUSH2 0x40D JUMP JUMPDEST PUSH2 0x43B DUP2 DUP6 PUSH2 0x417 JUMP JUMPDEST SWAP4 POP PUSH2 0x44B DUP2 DUP6 PUSH1 0x20 DUP7 ADD PUSH2 0x366 JUMP JUMPDEST PUSH2 0x454 DUP2 PUSH2 0x374 JUMP JUMPDEST DUP5 ADD SWAP2 POP POP SWAP3 SWAP2 POP POP JUMP JUMPDEST PUSH0 PUSH1 0x20 DUP3 ADD SWAP1 POP DUP2 DUP2 SUB PUSH0 DUP4 ADD MSTORE PUSH2 0x477 DUP2 DUP5 PUSH2 0x427 JUMP JUMPDEST SWAP1 POP SWAP3 SWAP2 POP POP JUMP JUMPDEST PUSH0 PUSH1 0x40 MLOAD SWAP1 POP SWAP1 JUMP JUMPDEST PUSH0 PUSH0 REVERT JUMPDEST PUSH0 PUSH0 REVERT JUMPDEST PUSH0 PUSH0 REVERT JUMPDEST PUSH0 PUSH0 REVERT JUMPDEST PUSH32 0x4E487B7100000000000000000000000000000000000000000000000000000000 PUSH0 MSTORE PUSH1 0x41 PUSH1 0x4 MSTORE PUSH1 0x24 PUSH0 REVERT JUMPDEST PUSH2 0x4CE DUP3 PUSH2 0x374 JUMP JUMPDEST DUP2 ADD DUP2 DUP2 LT PUSH8 0xFFFFFFFFFFFFFFFF DUP3 GT OR ISZERO PUSH2 0x4ED JUMPI PUSH2 0x4EC PUSH2 0x498 JUMP JUMPDEST JUMPDEST DUP1 PUSH1 0x40 MSTORE POP POP POP JUMP JUMPDEST PUSH0 PUSH2 0x4FF PUSH2 0x47F JUMP JUMPDEST SWAP1 POP PUSH2 0x50B DUP3 DUP3 PUSH2 0x4C5 JUMP JUMPDEST SWAP2 SWAP1 POP JUMP JUMPDEST PUSH0 PUSH8 0xFFFFFFFFFFFFFFFF DUP3 GT ISZERO PUSH2 0x52A JUMPI PUSH2 0x529 PUSH2 0x498 JUMP JUMPDEST JUMPDEST PUSH2 0x533 DUP3 PUSH2 0x374 JUMP JUMPDEST SWAP1 POP PUSH1 0x20 DUP2 ADD SWAP1 POP SWAP2 SWAP1 POP JUMP JUMPDEST DUP3 DUP2 DUP4 CALLDATACOPY PUSH0 DUP4 DUP4 ADD MSTORE POP POP POP JUMP JUMPDEST PUSH0 PUSH2 0x560 PUSH2 0x55B DUP5 PUSH2 0x510 JUMP JUMPDEST PUSH2 0x4F6 JUMP JUMPDEST SWAP1 POP DUP3 DUP2 MSTORE PUSH1 0x20 DUP2 ADD DUP5 DUP5 DUP5 ADD GT ISZERO PUSH2 0x57C JUMPI PUSH2 0x57B PUSH2 0x494 JUMP JUMPDEST JUMPDEST PUSH2 0x587 DUP5 DUP3 DUP6 PUSH2 0x540 JUMP JUMPDEST POP SWAP4 SWAP3 POP POP POP JUMP JUMPDEST PUSH0 DUP3 PUSH1 0x1F DUP4 ADD SLT PUSH2 0x5A3 JUMPI PUSH2 0x5A2 PUSH2 0x490 JUMP JUMPDEST JUMPDEST DUP2 CALLDATALOAD PUSH2 0x5B3 DUP5 DUP3 PUSH1 0x20 DUP7 ADD PUSH2 0x54E JUMP JUMPDEST SWAP2 POP POP SWAP3 SWAP2 POP POP JUMP JUMPDEST PUSH0 PUSH1 0x20 DUP3 DUP5 SUB SLT ISZERO PUSH2 0x5D1 JUMPI PUSH2 0x5D0 PUSH2 0x488 JUMP JUMPDEST JUMPDEST PUSH0 DUP3 ADD CALLDATALOAD PUSH8 0xFFFFFFFFFFFFFFFF DUP2 GT ISZERO PUSH2 0x5EE JUMPI PUSH2 0x5ED PUSH2 0x48C JUMP JUMPDEST JUMPDEST PUSH2 0x5FA DUP5 DUP3 DUP6 ADD PUSH2 0x58F JUMP JUMPDEST SWAP2 POP POP SWAP3 SWAP2 POP POP JUMP JUMPDEST PUSH0 PUSH32 0xFF00000000000000000000000000000000000000000000000000000000000000 DUP3 AND SWAP1 POP SWAP2 SWAP1 POP JUMP JUMPDEST PUSH2 0x637 DUP2 PUSH2 0x603 JUMP JUMPDEST DUP3 MSTORE POP POP JUMP JUMPDEST PUSH0 PUSH1 0x20 DUP3 ADD SWAP1 POP PUSH2 0x650 PUSH0 DUP4 ADD DUP5 PUSH2 0x62E JUMP JUMPDEST SWAP3 SWAP2 POP POP JUMP JUMPDEST PUSH32 0x4E487B7100000000000000000000000000000000000000000000000000000000 PUSH0 MSTORE PUSH1 0x22 PUSH1 0x4 MSTORE PUSH1 0x24 PUSH0 REVERT JUMPDEST PUSH0 PUSH1 0x2 DUP3 DIV SWAP1 POP PUSH1 0x1 DUP3 AND DUP1 PUSH2 0x69A JUMPI PUSH1 0x7F DUP3 AND SWAP2 POP JUMPDEST PUSH1 0x20 DUP3 LT DUP2 SUB PUSH2 0x6AD JUMPI PUSH2 0x6AC PUSH2 0x656 JUMP JUMPDEST JUMPDEST POP SWAP2 SWAP1 POP JUMP JUMPDEST PUSH0 DUP2 SWAP1 POP DUP2 PUSH0 MSTORE PUSH1 0x20 PUSH0 KECCAK256 SWAP1 POP SWAP2 SWAP1 POP JUMP JUMPDEST PUSH0 PUSH1 0x20 PUSH1 0x1F DUP4 ADD DIV SWAP1 POP SWAP2 SWAP1 POP JUMP JUMPDEST PUSH0 DUP3 DUP3 SHL SWAP1 POP SWAP3 SWAP2 POP POP JUMP JUMPDEST PUSH0 PUSH1 0x8 DUP4 MUL PUSH2 0x70F PUSH32 0xFFFFFFFFFFFFFFFFFFFFFFFFFFFFFFFFFFFFFFFFFFFFFFFFFFFFFFFFFFFFFFFF DUP3 PUSH2 0x6D4 JUMP JUMPDEST PUSH2 0x719 DUP7 DUP4 PUSH2 0x6D4 JUMP JUMPDEST SWAP6 POP DUP1 NOT DUP5 AND SWAP4 POP DUP1 DUP7 AND DUP5 OR SWAP3 POP POP POP SWAP4 SWAP3 POP POP POP JUMP JUMPDEST PUSH0 DUP2 SWAP1 POP SWAP2 SWAP1 POP JUMP JUMPDEST PUSH0 PUSH2 0x754 PUSH2 0x74F PUSH2 0x74A DUP5 PUSH2 0x3DC JUMP JUMPDEST PUSH2 0x731 JUMP JUMPDEST PUSH2 0x3DC JUMP JUMPDEST SWAP1 POP SWAP2 SWAP1 POP JUMP JUMPDEST PUSH0 DUP2 SWAP1 POP SWAP2 SWAP1 POP JUMP JUMPDEST PUSH2 0x76D DUP4 PUSH2 0x73A JUMP JUMPDEST PUSH2 0x781 PUSH2 0x779 DUP3 PUSH2 0x75B JUMP JUMPDEST DUP5 DUP5 SLOAD PUSH2 0x6E0 JUMP JUMPDEST DUP3 SSTORE POP POP POP POP JUMP JUMPDEST PUSH0 PUSH0 SWAP1 POP SWAP1 JUMP JUMPDEST PUSH2 0x798 PUSH2 0x789 JUMP JUMPDEST PUSH2 0x7A3 DUP2 DUP5 DUP5 PUSH2 0x764 JUMP JUMPDEST POP POP POP JUMP JUMPDEST JUMPDEST DUP2 DUP2 LT ISZERO PUSH2 0x7C6 JUMPI PUSH2 0x7BB PUSH0 DUP3 PUSH2 0x790 JUMP JUMPDEST PUSH1 0x1 DUP2 ADD SWAP1 POP PUSH2 0x7A9 JUMP JUMPDEST POP POP JUMP JUMPDEST PUSH1 0x1F DUP3 GT ISZERO PUSH2 0x80B JUMPI PUSH2 0x7DC DUP2 PUSH2 0x6B3 JUMP JUMPDEST PUSH2 0x7E5 DUP5 PUSH2 0x6C5 JUMP JUMPDEST DUP2 ADD PUSH1 0x20 DUP6 LT ISZERO PUSH2 0x7F4 JUMPI DUP2 SWAP1 POP JUMPDEST PUSH2 0x808 PUSH2 0x800 DUP6 PUSH2 0x6C5 JUMP JUMPDEST DUP4 ADD DUP3 PUSH2 0x7A8 JUMP JUMPDEST POP POP JUMPDEST POP POP POP JUMP JUMPDEST PUSH0 DUP3 DUP3 SHR SWAP1 POP SWAP3 SWAP2 POP POP JUMP JUMPDEST PUSH0 PUSH2 0x82B PUSH0 NOT DUP5 PUSH1 0x8 MUL PUSH2 0x810 JUMP JUMPDEST NOT DUP1 DUP4 AND SWAP2 POP POP SWAP3 SWAP2 POP POP JUMP JUMPDEST PUSH0 PUSH2 0x843 DUP4 DUP4 PUSH2 0x81C JUMP JUMPDEST SWAP2 POP DUP3 PUSH1 0x2 MUL DUP3 OR SWAP1 POP SWAP3 SWAP2 POP POP JUMP JUMPDEST PUSH2 0x85C DUP3 PUSH2 0x34C JUMP JUMPDEST PUSH8 0xFFFFFFFFFFFFFFFF DUP2 GT ISZERO PUSH2 0x875 JUMPI PUSH2 0x874 PUSH2 0x498 JUMP JUMPDEST JUMPDEST PUSH2 0x87F DUP3 SLOAD PUSH2 0x683 JUMP JUMPDEST PUSH2 0x88A DUP3 DUP3 DUP6 PUSH2 0x7CA JUMP JUMPDEST PUSH0 PUSH1 0x20 SWAP1 POP PUSH1 0x1F DUP4 GT PUSH1 0x1 DUP2 EQ PUSH2 0x8BB JUMPI PUSH0 DUP5 ISZERO PUSH2 0x8A9 JUMPI DUP3 DUP8 ADD MLOAD SWAP1 POP JUMPDEST PUSH2 0x8B3 DUP6 DUP3 PUSH2 0x838 JUMP JUMPDEST DUP7 SSTORE POP PUSH2 0x91A JUMP JUMPDEST PUSH1 0x1F NOT DUP5 AND PUSH2 0x8C9 DUP7 PUSH2 0x6B3 JUMP JUMPDEST PUSH0 JUMPDEST DUP3 DUP2 LT ISZERO PUSH2 0x8F0 JUMPI DUP5 DUP10 ADD MLOAD DUP3 SSTORE PUSH1 0x1 DUP3 ADD SWAP2 POP PUSH1 0x20 DUP6 ADD SWAP5 POP PUSH1 0x20 DUP2 ADD SWAP1 POP PUSH2 0x8CB JUMP JUMPDEST DUP7 DUP4 LT ISZERO PUSH2 0x90D JUMPI DUP5 DUP10 ADD MLOAD PUSH2 0x909 PUSH1 0x1F DUP10 AND DUP3 PUSH2 0x81C JUMP JUMPDEST DUP4 SSTORE POP JUMPDEST PUSH1 0x1 PUSH1 0x2 DUP9 MUL ADD DUP9 SSTORE POP POP POP JUMPDEST POP POP POP POP POP POP JUMP INVALID LOG2 PUSH5 0x6970667358 0x22 SLT KECCAK256 JUMPI 0xFC 0x4E GASLIMIT 0xCD 0xF7 MLOAD 0xE DUP14 GAS SHL PUSH9 0x4B0B7E533EAFB91B51 SWAP1 CALLVALUE LOG0 MOD DUP4 CREATE2 0x28 PUSH20 0xA83FA264736F6C634300081C0033000000000000 "
				},
				"gasEstimates": {
					"creation": {
						"codeDepositCost": "478400",
						"executionCost": "49102",
						"totalCost": "527502"
					},
					"external": {
						"b1()": "2553",
						"b2()": "2494",
						"data()": "infinite",
						"myString()": "infinite",
						"setMyString(string)": "infinite",
						"stringLength()": "infinite"
					}
				},
				"methodIdentifiers": {
					"b1()": "ee495002",
					"b2()": "0add6ef2",
					"data()": "73d4a13a",
					"myString()": "492bfa18",
					"setMyString(string)": "82180568",
					"stringLength()": "56ff6f1c"
				}
			},
			"storageLayout": {
				"storage": [
					{
						"astId": 4,
						"contract": "contracts/19_Bytes.sol:Bytes",
						"label": "b1",
						"offset": 0,
						"slot": "0",
						"type": "t_bytes1"
					},
					{
						"astId": 7,
						"contract": "contracts/19_Bytes.sol:Bytes",
						"label": "b2",
						"offset": 1,
						"slot": "0",
						"type": "t_bytes2"
					},
					{
						"astId": 9,
						"contract": "contracts/19_Bytes.sol:Bytes",
						"label": "data",
						"offset": 0,
						"slot": "1",
						"type": "t_bytes_storage"
					},
					{
						"astId": 11,
						"contract": "contracts/19_Bytes.sol:Bytes",
						"label": "myString",
						"offset": 0,
						"slot": "2",
						"type": "t_string_storage"
					}
				],
				"types": {
					"t_bytes1": {
						"encoding": "inplace",
						"label": "bytes1",
						"numberOfBytes": "1"
					},
					"t_bytes2": {
						"encoding": "inplace",
						"label": "bytes2",
						"numberOfBytes": "2"
					},
					"t_bytes_storage": {
						"encoding": "bytes",
						"label": "bytes",
						"numberOfBytes": "32"
					},
					"t_string_storage": {
						"encoding": "bytes",
						"label": "string",
						"numberOfBytes": "32"
					}
				}
			},
			"userdoc": {
				"kind": "user",
				"methods": {},
				"version": 1
			}
		}
	}
}