{
	"contracts/18_ClassRatingSystem.sol": {
		"ClassRatingSystem": {
			"abi": [
				{
					"inputs": [
						{
							"components": [
								{
									"internalType": "string",
									"name": "name",
									"type": "string"
								},
								{
									"internalType": "uint256",
									"name": "noteBiology",
									"type": "uint256"
								},
								{
									"internalType": "uint256",
									"name": "noteMath",
									"type": "uint256"
								},
								{
									"internalType": "uint256",
									"name": "noteFr",
									"type": "uint256"
								}
							],
							"internalType": "struct ClassRatingSystem.Student",
							"name": "_student",
							"type": "tuple"
						}
					],
					"name": "addStudent",
					"outputs": [],
					"stateMutability": "nonpayable",
					"type": "function"
				},
				{
					"inputs": [
						{
							"internalType": "address",
							"name": "_teacherAddress",
							"type": "address"
						},
						{
							"internalType": "string",
							"name": "_teacherSubject",
							"type": "string"
						}
					],
					"name": "addTeacher",
					"outputs": [],
					"stateMutability": "nonpayable",
					"type": "function"
				},
				{
					"inputs": [
						{
							"internalType": "string",
							"name": "_name",
							"type": "string"
						},
						{
							"internalType": "string",
							"name": "_subject",
							"type": "string"
						}
					],
					"name": "getNote",
					"outputs": [
						{
							"internalType": "uint256",
							"name": "",
							"type": "uint256"
						}
					],
					"stateMutability": "view",
					"type": "function"
				}
			],
			"devdoc": {
				"kind": "dev",
				"methods": {},
				"version": 1
			},
			"evm": {
				"assembly": "    /* \"contracts/18_ClassRatingSystem.sol\":57:1670  contract ClassRatingSystem {... */\n  mstore(0x40, 0x80)\n  callvalue\n  dup1\n  iszero\n  tag_1\n  jumpi\n  revert(0x00, 0x00)\ntag_1:\n  pop\n  dataSize(sub_0)\n  dup1\n  dataOffset(sub_0)\n  0x00\n  codecopy\n  0x00\n  return\nstop\n\nsub_0: assembly {\n        /* \"contracts/18_ClassRatingSystem.sol\":57:1670  contract ClassRatingSystem {... */\n      mstore(0x40, 0x80)\n      callvalue\n      dup1\n      iszero\n      tag_1\n      jumpi\n      revert(0x00, 0x00)\n    tag_1:\n      pop\n      jumpi(tag_2, lt(calldatasize, 0x04))\n      shr(0xe0, calldataload(0x00))\n      dup1\n      0x8f5b9b2e\n      eq\n      tag_3\n      jumpi\n      dup1\n      0x9863a326\n      eq\n      tag_4\n      jumpi\n      dup1\n      0xf947387c\n      eq\n      tag_5\n      jumpi\n    tag_2:\n      revert(0x00, 0x00)\n        /* \"contracts/18_ClassRatingSystem.sol\":438:594  function addTeacher(address _teacherAddress, string memory _teacherSubject)... */\n    tag_3:\n      tag_6\n      0x04\n      dup1\n      calldatasize\n      sub\n      dup2\n      add\n      swap1\n      tag_7\n      swap2\n      swap1\n      tag_8\n      jump\t// in\n    tag_7:\n      tag_9\n      jump\t// in\n    tag_6:\n      stop\n        /* \"contracts/18_ClassRatingSystem.sol\":287:432  function addStudent(Student memory _student) external {... */\n    tag_4:\n      tag_10\n      0x04\n      dup1\n      calldatasize\n      sub\n      dup2\n      add\n      swap1\n      tag_11\n      swap2\n      swap1\n      tag_12\n      jump\t// in\n    tag_11:\n      tag_13\n      jump\t// in\n    tag_10:\n      stop\n        /* \"contracts/18_ClassRatingSystem.sol\":600:1668  function getNote(string memory _name, string memory _subject)... */\n    tag_5:\n      tag_14\n      0x04\n      dup1\n      calldatasize\n      sub\n      dup2\n      add\n      swap1\n      tag_15\n      swap2\n      swap1\n      tag_16\n      jump\t// in\n    tag_15:\n      tag_17\n      jump\t// in\n    tag_14:\n      mload(0x40)\n      tag_18\n      swap2\n      swap1\n      tag_19\n      jump\t// in\n    tag_18:\n      mload(0x40)\n      dup1\n      swap2\n      sub\n      swap1\n      return\n        /* \"contracts/18_ClassRatingSystem.sol\":438:594  function addTeacher(address _teacherAddress, string memory _teacherSubject)... */\n    tag_9:\n        /* \"contracts/18_ClassRatingSystem.sol\":572:587  _teacherSubject */\n      dup1\n        /* \"contracts/18_ClassRatingSystem.sol\":545:552  teacher */\n      0x00\n        /* \"contracts/18_ClassRatingSystem.sol\":545:569  teacher[_teacherAddress] */\n      0x00\n        /* \"contracts/18_ClassRatingSystem.sol\":553:568  _teacherAddress */\n      dup5\n        /* \"contracts/18_ClassRatingSystem.sol\":545:569  teacher[_teacherAddress] */\n      0xffffffffffffffffffffffffffffffffffffffff\n      and\n      0xffffffffffffffffffffffffffffffffffffffff\n      and\n      dup2\n      mstore\n      0x20\n      add\n      swap1\n      dup2\n      mstore\n      0x20\n      add\n      0x00\n      keccak256\n        /* \"contracts/18_ClassRatingSystem.sol\":545:587  teacher[_teacherAddress] = _teacherSubject */\n      swap1\n      dup2\n      tag_21\n      swap2\n      swap1\n      tag_22\n      jump\t// in\n    tag_21:\n      pop\n        /* \"contracts/18_ClassRatingSystem.sol\":438:594  function addTeacher(address _teacherAddress, string memory _teacherSubject)... */\n      pop\n      pop\n      jump\t// out\n        /* \"contracts/18_ClassRatingSystem.sol\":287:432  function addStudent(Student memory _student) external {... */\n    tag_13:\n        /* \"contracts/18_ClassRatingSystem.sol\":351:376  Student memory newStudent */\n      0x00\n        /* \"contracts/18_ClassRatingSystem.sol\":379:387  _student */\n      dup2\n        /* \"contracts/18_ClassRatingSystem.sol\":351:387  Student memory newStudent = _student */\n      swap1\n      pop\n        /* \"contracts/18_ClassRatingSystem.sol\":397:408  studentList */\n      0x01\n        /* \"contracts/18_ClassRatingSystem.sol\":414:424  newStudent */\n      dup2\n        /* \"contracts/18_ClassRatingSystem.sol\":397:425  studentList.push(newStudent) */\n      swap1\n      dup1\n      0x01\n      dup2\n      sload\n      add\n      dup1\n      dup3\n      sstore\n      dup1\n      swap2\n      pop\n      pop\n      0x01\n      swap1\n      sub\n      swap1\n      0x00\n      mstore\n      keccak256(0x00, 0x20)\n      swap1\n      0x04\n      mul\n      add\n      0x00\n      swap1\n      swap2\n      swap1\n      swap2\n      swap1\n      swap2\n      pop\n      0x00\n      dup3\n      add\n      mload\n      dup2\n      0x00\n      add\n      swap1\n      dup2\n      tag_25\n      swap2\n      swap1\n      tag_22\n      jump\t// in\n    tag_25:\n      pop\n      0x20\n      dup3\n      add\n      mload\n      dup2\n      0x01\n      add\n      sstore\n      0x40\n      dup3\n      add\n      mload\n      dup2\n      0x02\n      add\n      sstore\n      0x60\n      dup3\n      add\n      mload\n      dup2\n      0x03\n      add\n      sstore\n      pop\n      pop\n        /* \"contracts/18_ClassRatingSystem.sol\":341:432  {... */\n      pop\n        /* \"contracts/18_ClassRatingSystem.sol\":287:432  function addStudent(Student memory _student) external {... */\n      pop\n      jump\t// out\n        /* \"contracts/18_ClassRatingSystem.sol\":600:1668  function getNote(string memory _name, string memory _subject)... */\n    tag_17:\n        /* \"contracts/18_ClassRatingSystem.sol\":709:716  uint256 */\n      0x00\n        /* \"contracts/18_ClassRatingSystem.sol\":737:746  uint256 i */\n      0x00\n        /* \"contracts/18_ClassRatingSystem.sol\":749:750  0 */\n      0x00\n        /* \"contracts/18_ClassRatingSystem.sol\":737:750  uint256 i = 0 */\n      swap1\n      pop\n        /* \"contracts/18_ClassRatingSystem.sol\":732:1644  for (uint256 i = 0; i < studentList.length; i++) {... */\n    tag_27:\n        /* \"contracts/18_ClassRatingSystem.sol\":756:767  studentList */\n      0x01\n        /* \"contracts/18_ClassRatingSystem.sol\":756:774  studentList.length */\n      dup1\n      sload\n      swap1\n      pop\n        /* \"contracts/18_ClassRatingSystem.sol\":752:753  i */\n      dup2\n        /* \"contracts/18_ClassRatingSystem.sol\":752:774  i < studentList.length */\n      lt\n        /* \"contracts/18_ClassRatingSystem.sol\":732:1644  for (uint256 i = 0; i < studentList.length; i++) {... */\n      iszero\n      tag_28\n      jumpi\n        /* \"contracts/18_ClassRatingSystem.sol\":897:908  studentList */\n      0x01\n        /* \"contracts/18_ClassRatingSystem.sol\":909:910  i */\n      dup2\n        /* \"contracts/18_ClassRatingSystem.sol\":897:911  studentList[i] */\n      dup2\n      sload\n      dup2\n      lt\n      tag_30\n      jumpi\n      tag_31\n      tag_32\n      jump\t// in\n    tag_31:\n    tag_30:\n      swap1\n      0x00\n      mstore\n      keccak256(0x00, 0x20)\n      swap1\n      0x04\n      mul\n      add\n        /* \"contracts/18_ClassRatingSystem.sol\":897:916  studentList[i].name */\n      0x00\n      add\n        /* \"contracts/18_ClassRatingSystem.sol\":880:917  abi.encodePacked(studentList[i].name) */\n      add(0x20, mload(0x40))\n      tag_34\n      swap2\n      swap1\n      tag_35\n      jump\t// in\n    tag_34:\n      mload(0x40)\n      0x20\n      dup2\n      dup4\n      sub\n      sub\n      dup2\n      mstore\n      swap1\n      0x40\n      mstore\n        /* \"contracts/18_ClassRatingSystem.sol\":870:918  keccak256(abi.encodePacked(studentList[i].name)) */\n      dup1\n      mload\n      swap1\n      0x20\n      add\n      keccak256\n        /* \"contracts/18_ClassRatingSystem.sol\":843:848  _name */\n      dup5\n        /* \"contracts/18_ClassRatingSystem.sol\":826:849  abi.encodePacked(_name) */\n      add(0x20, mload(0x40))\n      tag_36\n      swap2\n      swap1\n      tag_37\n      jump\t// in\n    tag_36:\n      mload(0x40)\n      0x20\n      dup2\n      dup4\n      sub\n      sub\n      dup2\n      mstore\n      swap1\n      0x40\n      mstore\n        /* \"contracts/18_ClassRatingSystem.sol\":816:850  keccak256(abi.encodePacked(_name)) */\n      dup1\n      mload\n      swap1\n      0x20\n      add\n      keccak256\n        /* \"contracts/18_ClassRatingSystem.sol\":816:918  keccak256(abi.encodePacked(_name)) ==... */\n      sub\n        /* \"contracts/18_ClassRatingSystem.sol\":795:1634  if (... */\n      tag_38\n      jumpi\n        /* \"contracts/18_ClassRatingSystem.sol\":1047:1074  abi.encodePacked(\"Biology\") */\n      add(0x20, mload(0x40))\n      tag_39\n      swap1\n      tag_40\n      jump\t// in\n    tag_39:\n      mload(0x40)\n      0x20\n      dup2\n      dup4\n      sub\n      sub\n      dup2\n      mstore\n      swap1\n      0x40\n      mstore\n        /* \"contracts/18_ClassRatingSystem.sol\":1037:1075  keccak256(abi.encodePacked(\"Biology\")) */\n      dup1\n      mload\n      swap1\n      0x20\n      add\n      keccak256\n        /* \"contracts/18_ClassRatingSystem.sol\":1003:1011  _subject */\n      dup4\n        /* \"contracts/18_ClassRatingSystem.sol\":986:1012  abi.encodePacked(_subject) */\n      add(0x20, mload(0x40))\n      tag_41\n      swap2\n      swap1\n      tag_37\n      jump\t// in\n    tag_41:\n      mload(0x40)\n      0x20\n      dup2\n      dup4\n      sub\n      sub\n      dup2\n      mstore\n      swap1\n      0x40\n      mstore\n        /* \"contracts/18_ClassRatingSystem.sol\":976:1013  keccak256(abi.encodePacked(_subject)) */\n      dup1\n      mload\n      swap1\n      0x20\n      add\n      keccak256\n        /* \"contracts/18_ClassRatingSystem.sol\":976:1075  keccak256(abi.encodePacked(_subject)) ==... */\n      sub\n        /* \"contracts/18_ClassRatingSystem.sol\":951:1168  if (... */\n      tag_42\n      jumpi\n        /* \"contracts/18_ClassRatingSystem.sol\":1123:1134  studentList */\n      0x01\n        /* \"contracts/18_ClassRatingSystem.sol\":1135:1136  i */\n      dup2\n        /* \"contracts/18_ClassRatingSystem.sol\":1123:1137  studentList[i] */\n      dup2\n      sload\n      dup2\n      lt\n      tag_43\n      jumpi\n      tag_44\n      tag_32\n      jump\t// in\n    tag_44:\n    tag_43:\n      swap1\n      0x00\n      mstore\n      keccak256(0x00, 0x20)\n      swap1\n      0x04\n      mul\n      add\n        /* \"contracts/18_ClassRatingSystem.sol\":1123:1149  studentList[i].noteBiology */\n      0x01\n      add\n      sload\n        /* \"contracts/18_ClassRatingSystem.sol\":1116:1149  return studentList[i].noteBiology */\n      swap2\n      pop\n      pop\n      jump(tag_26)\n        /* \"contracts/18_ClassRatingSystem.sol\":951:1168  if (... */\n    tag_42:\n        /* \"contracts/18_ClassRatingSystem.sol\":1281:1305  abi.encodePacked(\"Math\") */\n      add(0x20, mload(0x40))\n      tag_46\n      swap1\n      tag_47\n      jump\t// in\n    tag_46:\n      mload(0x40)\n      0x20\n      dup2\n      dup4\n      sub\n      sub\n      dup2\n      mstore\n      swap1\n      0x40\n      mstore\n        /* \"contracts/18_ClassRatingSystem.sol\":1271:1306  keccak256(abi.encodePacked(\"Math\")) */\n      dup1\n      mload\n      swap1\n      0x20\n      add\n      keccak256\n        /* \"contracts/18_ClassRatingSystem.sol\":1237:1245  _subject */\n      dup4\n        /* \"contracts/18_ClassRatingSystem.sol\":1220:1246  abi.encodePacked(_subject) */\n      add(0x20, mload(0x40))\n      tag_48\n      swap2\n      swap1\n      tag_37\n      jump\t// in\n    tag_48:\n      mload(0x40)\n      0x20\n      dup2\n      dup4\n      sub\n      sub\n      dup2\n      mstore\n      swap1\n      0x40\n      mstore\n        /* \"contracts/18_ClassRatingSystem.sol\":1210:1247  keccak256(abi.encodePacked(_subject)) */\n      dup1\n      mload\n      swap1\n      0x20\n      add\n      keccak256\n        /* \"contracts/18_ClassRatingSystem.sol\":1210:1306  keccak256(abi.encodePacked(_subject)) ==... */\n      sub\n        /* \"contracts/18_ClassRatingSystem.sol\":1185:1396  if (... */\n      tag_49\n      jumpi\n        /* \"contracts/18_ClassRatingSystem.sol\":1354:1365  studentList */\n      0x01\n        /* \"contracts/18_ClassRatingSystem.sol\":1366:1367  i */\n      dup2\n        /* \"contracts/18_ClassRatingSystem.sol\":1354:1368  studentList[i] */\n      dup2\n      sload\n      dup2\n      lt\n      tag_50\n      jumpi\n      tag_51\n      tag_32\n      jump\t// in\n    tag_51:\n    tag_50:\n      swap1\n      0x00\n      mstore\n      keccak256(0x00, 0x20)\n      swap1\n      0x04\n      mul\n      add\n        /* \"contracts/18_ClassRatingSystem.sol\":1354:1377  studentList[i].noteMath */\n      0x02\n      add\n      sload\n        /* \"contracts/18_ClassRatingSystem.sol\":1347:1377  return studentList[i].noteMath */\n      swap2\n      pop\n      pop\n      jump(tag_26)\n        /* \"contracts/18_ClassRatingSystem.sol\":1185:1396  if (... */\n    tag_49:\n        /* \"contracts/18_ClassRatingSystem.sol\":1509:1531  abi.encodePacked(\"Fr\") */\n      add(0x20, mload(0x40))\n      tag_53\n      swap1\n      tag_54\n      jump\t// in\n    tag_53:\n      mload(0x40)\n      0x20\n      dup2\n      dup4\n      sub\n      sub\n      dup2\n      mstore\n      swap1\n      0x40\n      mstore\n        /* \"contracts/18_ClassRatingSystem.sol\":1499:1532  keccak256(abi.encodePacked(\"Fr\")) */\n      dup1\n      mload\n      swap1\n      0x20\n      add\n      keccak256\n        /* \"contracts/18_ClassRatingSystem.sol\":1465:1473  _subject */\n      dup4\n        /* \"contracts/18_ClassRatingSystem.sol\":1448:1474  abi.encodePacked(_subject) */\n      add(0x20, mload(0x40))\n      tag_55\n      swap2\n      swap1\n      tag_37\n      jump\t// in\n    tag_55:\n      mload(0x40)\n      0x20\n      dup2\n      dup4\n      sub\n      sub\n      dup2\n      mstore\n      swap1\n      0x40\n      mstore\n        /* \"contracts/18_ClassRatingSystem.sol\":1438:1475  keccak256(abi.encodePacked(_subject)) */\n      dup1\n      mload\n      swap1\n      0x20\n      add\n      keccak256\n        /* \"contracts/18_ClassRatingSystem.sol\":1438:1532  keccak256(abi.encodePacked(_subject)) ==... */\n      sub\n        /* \"contracts/18_ClassRatingSystem.sol\":1413:1620  if (... */\n      tag_56\n      jumpi\n        /* \"contracts/18_ClassRatingSystem.sol\":1580:1591  studentList */\n      0x01\n        /* \"contracts/18_ClassRatingSystem.sol\":1592:1593  i */\n      dup2\n        /* \"contracts/18_ClassRatingSystem.sol\":1580:1594  studentList[i] */\n      dup2\n      sload\n      dup2\n      lt\n      tag_57\n      jumpi\n      tag_58\n      tag_32\n      jump\t// in\n    tag_58:\n    tag_57:\n      swap1\n      0x00\n      mstore\n      keccak256(0x00, 0x20)\n      swap1\n      0x04\n      mul\n      add\n        /* \"contracts/18_ClassRatingSystem.sol\":1580:1601  studentList[i].noteFr */\n      0x03\n      add\n      sload\n        /* \"contracts/18_ClassRatingSystem.sol\":1573:1601  return studentList[i].noteFr */\n      swap2\n      pop\n      pop\n      jump(tag_26)\n        /* \"contracts/18_ClassRatingSystem.sol\":1413:1620  if (... */\n    tag_56:\n        /* \"contracts/18_ClassRatingSystem.sol\":795:1634  if (... */\n    tag_38:\n        /* \"contracts/18_ClassRatingSystem.sol\":776:779  i++ */\n      dup1\n      dup1\n      0x01\n      add\n      swap2\n      pop\n      pop\n        /* \"contracts/18_ClassRatingSystem.sol\":732:1644  for (uint256 i = 0; i < studentList.length; i++) {... */\n      jump(tag_27)\n    tag_28:\n      pop\n        /* \"contracts/18_ClassRatingSystem.sol\":1660:1661  0 */\n      0x00\n        /* \"contracts/18_ClassRatingSystem.sol\":1653:1661  return 0 */\n      swap1\n      pop\n        /* \"contracts/18_ClassRatingSystem.sol\":600:1668  function getNote(string memory _name, string memory _subject)... */\n    tag_26:\n      swap3\n      swap2\n      pop\n      pop\n      jump\t// out\n        /* \"#utility.yul\":7:82   */\n    tag_60:\n        /* \"#utility.yul\":40:46   */\n      0x00\n        /* \"#utility.yul\":73:75   */\n      0x40\n        /* \"#utility.yul\":67:76   */\n      mload\n        /* \"#utility.yul\":57:76   */\n      swap1\n      pop\n        /* \"#utility.yul\":7:82   */\n      swap1\n      jump\t// out\n        /* \"#utility.yul\":88:205   */\n    tag_61:\n        /* \"#utility.yul\":197:198   */\n      0x00\n        /* \"#utility.yul\":194:195   */\n      0x00\n        /* \"#utility.yul\":187:199   */\n      revert\n        /* \"#utility.yul\":211:328   */\n    tag_62:\n        /* \"#utility.yul\":320:321   */\n      0x00\n        /* \"#utility.yul\":317:318   */\n      0x00\n        /* \"#utility.yul\":310:322   */\n      revert\n        /* \"#utility.yul\":334:460   */\n    tag_63:\n        /* \"#utility.yul\":371:378   */\n      0x00\n        /* \"#utility.yul\":411:453   */\n      0xffffffffffffffffffffffffffffffffffffffff\n        /* \"#utility.yul\":404:409   */\n      dup3\n        /* \"#utility.yul\":400:454   */\n      and\n        /* \"#utility.yul\":389:454   */\n      swap1\n      pop\n        /* \"#utility.yul\":334:460   */\n      swap2\n      swap1\n      pop\n      jump\t// out\n        /* \"#utility.yul\":466:562   */\n    tag_64:\n        /* \"#utility.yul\":503:510   */\n      0x00\n        /* \"#utility.yul\":532:556   */\n      tag_118\n        /* \"#utility.yul\":550:555   */\n      dup3\n        /* \"#utility.yul\":532:556   */\n      tag_63\n      jump\t// in\n    tag_118:\n        /* \"#utility.yul\":521:556   */\n      swap1\n      pop\n        /* \"#utility.yul\":466:562   */\n      swap2\n      swap1\n      pop\n      jump\t// out\n        /* \"#utility.yul\":568:690   */\n    tag_65:\n        /* \"#utility.yul\":641:665   */\n      tag_120\n        /* \"#utility.yul\":659:664   */\n      dup2\n        /* \"#utility.yul\":641:665   */\n      tag_64\n      jump\t// in\n    tag_120:\n        /* \"#utility.yul\":634:639   */\n      dup2\n        /* \"#utility.yul\":631:666   */\n      eq\n        /* \"#utility.yul\":621:684   */\n      tag_121\n      jumpi\n        /* \"#utility.yul\":680:681   */\n      0x00\n        /* \"#utility.yul\":677:678   */\n      0x00\n        /* \"#utility.yul\":670:682   */\n      revert\n        /* \"#utility.yul\":621:684   */\n    tag_121:\n        /* \"#utility.yul\":568:690   */\n      pop\n      jump\t// out\n        /* \"#utility.yul\":696:835   */\n    tag_66:\n        /* \"#utility.yul\":742:747   */\n      0x00\n        /* \"#utility.yul\":780:786   */\n      dup2\n        /* \"#utility.yul\":767:787   */\n      calldataload\n        /* \"#utility.yul\":758:787   */\n      swap1\n      pop\n        /* \"#utility.yul\":796:829   */\n      tag_123\n        /* \"#utility.yul\":823:828   */\n      dup2\n        /* \"#utility.yul\":796:829   */\n      tag_65\n      jump\t// in\n    tag_123:\n        /* \"#utility.yul\":696:835   */\n      swap3\n      swap2\n      pop\n      pop\n      jump\t// out\n        /* \"#utility.yul\":841:958   */\n    tag_67:\n        /* \"#utility.yul\":950:951   */\n      0x00\n        /* \"#utility.yul\":947:948   */\n      0x00\n        /* \"#utility.yul\":940:952   */\n      revert\n        /* \"#utility.yul\":964:1081   */\n    tag_68:\n        /* \"#utility.yul\":1073:1074   */\n      0x00\n        /* \"#utility.yul\":1070:1071   */\n      0x00\n        /* \"#utility.yul\":1063:1075   */\n      revert\n        /* \"#utility.yul\":1087:1189   */\n    tag_69:\n        /* \"#utility.yul\":1128:1134   */\n      0x00\n        /* \"#utility.yul\":1179:1181   */\n      0x1f\n        /* \"#utility.yul\":1175:1182   */\n      not\n        /* \"#utility.yul\":1170:1172   */\n      0x1f\n        /* \"#utility.yul\":1163:1168   */\n      dup4\n        /* \"#utility.yul\":1159:1173   */\n      add\n        /* \"#utility.yul\":1155:1183   */\n      and\n        /* \"#utility.yul\":1145:1183   */\n      swap1\n      pop\n        /* \"#utility.yul\":1087:1189   */\n      swap2\n      swap1\n      pop\n      jump\t// out\n        /* \"#utility.yul\":1195:1375   */\n    tag_70:\n        /* \"#utility.yul\":1243:1320   */\n      0x4e487b7100000000000000000000000000000000000000000000000000000000\n        /* \"#utility.yul\":1240:1241   */\n      0x00\n        /* \"#utility.yul\":1233:1321   */\n      mstore\n        /* \"#utility.yul\":1340:1344   */\n      0x41\n        /* \"#utility.yul\":1337:1338   */\n      0x04\n        /* \"#utility.yul\":1330:1345   */\n      mstore\n        /* \"#utility.yul\":1364:1368   */\n      0x24\n        /* \"#utility.yul\":1361:1362   */\n      0x00\n        /* \"#utility.yul\":1354:1369   */\n      revert\n        /* \"#utility.yul\":1381:1662   */\n    tag_71:\n        /* \"#utility.yul\":1464:1491   */\n      tag_129\n        /* \"#utility.yul\":1486:1490   */\n      dup3\n        /* \"#utility.yul\":1464:1491   */\n      tag_69\n      jump\t// in\n    tag_129:\n        /* \"#utility.yul\":1456:1462   */\n      dup2\n        /* \"#utility.yul\":1452:1492   */\n      add\n        /* \"#utility.yul\":1594:1600   */\n      dup2\n        /* \"#utility.yul\":1582:1592   */\n      dup2\n        /* \"#utility.yul\":1579:1601   */\n      lt\n        /* \"#utility.yul\":1558:1576   */\n      0xffffffffffffffff\n        /* \"#utility.yul\":1546:1556   */\n      dup3\n        /* \"#utility.yul\":1543:1577   */\n      gt\n        /* \"#utility.yul\":1540:1602   */\n      or\n        /* \"#utility.yul\":1537:1625   */\n      iszero\n      tag_130\n      jumpi\n        /* \"#utility.yul\":1605:1623   */\n      tag_131\n      tag_70\n      jump\t// in\n    tag_131:\n        /* \"#utility.yul\":1537:1625   */\n    tag_130:\n        /* \"#utility.yul\":1645:1655   */\n      dup1\n        /* \"#utility.yul\":1641:1643   */\n      0x40\n        /* \"#utility.yul\":1634:1656   */\n      mstore\n        /* \"#utility.yul\":1424:1662   */\n      pop\n        /* \"#utility.yul\":1381:1662   */\n      pop\n      pop\n      jump\t// out\n        /* \"#utility.yul\":1668:1797   */\n    tag_72:\n        /* \"#utility.yul\":1702:1708   */\n      0x00\n        /* \"#utility.yul\":1729:1749   */\n      tag_133\n      tag_60\n      jump\t// in\n    tag_133:\n        /* \"#utility.yul\":1719:1749   */\n      swap1\n      pop\n        /* \"#utility.yul\":1758:1791   */\n      tag_134\n        /* \"#utility.yul\":1786:1790   */\n      dup3\n        /* \"#utility.yul\":1778:1784   */\n      dup3\n        /* \"#utility.yul\":1758:1791   */\n      tag_71\n      jump\t// in\n    tag_134:\n        /* \"#utility.yul\":1668:1797   */\n      swap2\n      swap1\n      pop\n      jump\t// out\n        /* \"#utility.yul\":1803:2111   */\n    tag_73:\n        /* \"#utility.yul\":1865:1869   */\n      0x00\n        /* \"#utility.yul\":1955:1973   */\n      0xffffffffffffffff\n        /* \"#utility.yul\":1947:1953   */\n      dup3\n        /* \"#utility.yul\":1944:1974   */\n      gt\n        /* \"#utility.yul\":1941:1997   */\n      iszero\n      tag_136\n      jumpi\n        /* \"#utility.yul\":1977:1995   */\n      tag_137\n      tag_70\n      jump\t// in\n    tag_137:\n        /* \"#utility.yul\":1941:1997   */\n    tag_136:\n        /* \"#utility.yul\":2015:2044   */\n      tag_138\n        /* \"#utility.yul\":2037:2043   */\n      dup3\n        /* \"#utility.yul\":2015:2044   */\n      tag_69\n      jump\t// in\n    tag_138:\n        /* \"#utility.yul\":2007:2044   */\n      swap1\n      pop\n        /* \"#utility.yul\":2099:2103   */\n      0x20\n        /* \"#utility.yul\":2093:2097   */\n      dup2\n        /* \"#utility.yul\":2089:2104   */\n      add\n        /* \"#utility.yul\":2081:2104   */\n      swap1\n      pop\n        /* \"#utility.yul\":1803:2111   */\n      swap2\n      swap1\n      pop\n      jump\t// out\n        /* \"#utility.yul\":2117:2265   */\n    tag_74:\n        /* \"#utility.yul\":2215:2221   */\n      dup3\n        /* \"#utility.yul\":2210:2213   */\n      dup2\n        /* \"#utility.yul\":2205:2208   */\n      dup4\n        /* \"#utility.yul\":2192:2222   */\n      calldatacopy\n        /* \"#utility.yul\":2256:2257   */\n      0x00\n        /* \"#utility.yul\":2247:2253   */\n      dup4\n        /* \"#utility.yul\":2242:2245   */\n      dup4\n        /* \"#utility.yul\":2238:2254   */\n      add\n        /* \"#utility.yul\":2231:2258   */\n      mstore\n        /* \"#utility.yul\":2117:2265   */\n      pop\n      pop\n      pop\n      jump\t// out\n        /* \"#utility.yul\":2271:2696   */\n    tag_75:\n        /* \"#utility.yul\":2349:2354   */\n      0x00\n        /* \"#utility.yul\":2374:2440   */\n      tag_141\n        /* \"#utility.yul\":2390:2439   */\n      tag_142\n        /* \"#utility.yul\":2432:2438   */\n      dup5\n        /* \"#utility.yul\":2390:2439   */\n      tag_73\n      jump\t// in\n    tag_142:\n        /* \"#utility.yul\":2374:2440   */\n      tag_72\n      jump\t// in\n    tag_141:\n        /* \"#utility.yul\":2365:2440   */\n      swap1\n      pop\n        /* \"#utility.yul\":2463:2469   */\n      dup3\n        /* \"#utility.yul\":2456:2461   */\n      dup2\n        /* \"#utility.yul\":2449:2470   */\n      mstore\n        /* \"#utility.yul\":2501:2505   */\n      0x20\n        /* \"#utility.yul\":2494:2499   */\n      dup2\n        /* \"#utility.yul\":2490:2506   */\n      add\n        /* \"#utility.yul\":2539:2542   */\n      dup5\n        /* \"#utility.yul\":2530:2536   */\n      dup5\n        /* \"#utility.yul\":2525:2528   */\n      dup5\n        /* \"#utility.yul\":2521:2537   */\n      add\n        /* \"#utility.yul\":2518:2543   */\n      gt\n        /* \"#utility.yul\":2515:2627   */\n      iszero\n      tag_143\n      jumpi\n        /* \"#utility.yul\":2546:2625   */\n      tag_144\n      tag_68\n      jump\t// in\n    tag_144:\n        /* \"#utility.yul\":2515:2627   */\n    tag_143:\n        /* \"#utility.yul\":2636:2690   */\n      tag_145\n        /* \"#utility.yul\":2683:2689   */\n      dup5\n        /* \"#utility.yul\":2678:2681   */\n      dup3\n        /* \"#utility.yul\":2673:2676   */\n      dup6\n        /* \"#utility.yul\":2636:2690   */\n      tag_74\n      jump\t// in\n    tag_145:\n        /* \"#utility.yul\":2355:2696   */\n      pop\n        /* \"#utility.yul\":2271:2696   */\n      swap4\n      swap3\n      pop\n      pop\n      pop\n      jump\t// out\n        /* \"#utility.yul\":2716:3056   */\n    tag_76:\n        /* \"#utility.yul\":2772:2777   */\n      0x00\n        /* \"#utility.yul\":2821:2824   */\n      dup3\n        /* \"#utility.yul\":2814:2818   */\n      0x1f\n        /* \"#utility.yul\":2806:2812   */\n      dup4\n        /* \"#utility.yul\":2802:2819   */\n      add\n        /* \"#utility.yul\":2798:2825   */\n      slt\n        /* \"#utility.yul\":2788:2910   */\n      tag_147\n      jumpi\n        /* \"#utility.yul\":2829:2908   */\n      tag_148\n      tag_67\n      jump\t// in\n    tag_148:\n        /* \"#utility.yul\":2788:2910   */\n    tag_147:\n        /* \"#utility.yul\":2946:2952   */\n      dup2\n        /* \"#utility.yul\":2933:2953   */\n      calldataload\n        /* \"#utility.yul\":2971:3050   */\n      tag_149\n        /* \"#utility.yul\":3046:3049   */\n      dup5\n        /* \"#utility.yul\":3038:3044   */\n      dup3\n        /* \"#utility.yul\":3031:3035   */\n      0x20\n        /* \"#utility.yul\":3023:3029   */\n      dup7\n        /* \"#utility.yul\":3019:3036   */\n      add\n        /* \"#utility.yul\":2971:3050   */\n      tag_75\n      jump\t// in\n    tag_149:\n        /* \"#utility.yul\":2962:3050   */\n      swap2\n      pop\n        /* \"#utility.yul\":2778:3056   */\n      pop\n        /* \"#utility.yul\":2716:3056   */\n      swap3\n      swap2\n      pop\n      pop\n      jump\t// out\n        /* \"#utility.yul\":3062:3716   */\n    tag_8:\n        /* \"#utility.yul\":3140:3146   */\n      0x00\n        /* \"#utility.yul\":3148:3154   */\n      0x00\n        /* \"#utility.yul\":3197:3199   */\n      0x40\n        /* \"#utility.yul\":3185:3194   */\n      dup4\n        /* \"#utility.yul\":3176:3183   */\n      dup6\n        /* \"#utility.yul\":3172:3195   */\n      sub\n        /* \"#utility.yul\":3168:3200   */\n      slt\n        /* \"#utility.yul\":3165:3284   */\n      iszero\n      tag_151\n      jumpi\n        /* \"#utility.yul\":3203:3282   */\n      tag_152\n      tag_61\n      jump\t// in\n    tag_152:\n        /* \"#utility.yul\":3165:3284   */\n    tag_151:\n        /* \"#utility.yul\":3323:3324   */\n      0x00\n        /* \"#utility.yul\":3348:3401   */\n      tag_153\n        /* \"#utility.yul\":3393:3400   */\n      dup6\n        /* \"#utility.yul\":3384:3390   */\n      dup3\n        /* \"#utility.yul\":3373:3382   */\n      dup7\n        /* \"#utility.yul\":3369:3391   */\n      add\n        /* \"#utility.yul\":3348:3401   */\n      tag_66\n      jump\t// in\n    tag_153:\n        /* \"#utility.yul\":3338:3401   */\n      swap3\n      pop\n        /* \"#utility.yul\":3294:3411   */\n      pop\n        /* \"#utility.yul\":3478:3480   */\n      0x20\n        /* \"#utility.yul\":3467:3476   */\n      dup4\n        /* \"#utility.yul\":3463:3481   */\n      add\n        /* \"#utility.yul\":3450:3482   */\n      calldataload\n        /* \"#utility.yul\":3509:3527   */\n      0xffffffffffffffff\n        /* \"#utility.yul\":3501:3507   */\n      dup2\n        /* \"#utility.yul\":3498:3528   */\n      gt\n        /* \"#utility.yul\":3495:3612   */\n      iszero\n      tag_154\n      jumpi\n        /* \"#utility.yul\":3531:3610   */\n      tag_155\n      tag_62\n      jump\t// in\n    tag_155:\n        /* \"#utility.yul\":3495:3612   */\n    tag_154:\n        /* \"#utility.yul\":3636:3699   */\n      tag_156\n        /* \"#utility.yul\":3691:3698   */\n      dup6\n        /* \"#utility.yul\":3682:3688   */\n      dup3\n        /* \"#utility.yul\":3671:3680   */\n      dup7\n        /* \"#utility.yul\":3667:3689   */\n      add\n        /* \"#utility.yul\":3636:3699   */\n      tag_76\n      jump\t// in\n    tag_156:\n        /* \"#utility.yul\":3626:3699   */\n      swap2\n      pop\n        /* \"#utility.yul\":3421:3709   */\n      pop\n        /* \"#utility.yul\":3062:3716   */\n      swap3\n      pop\n      swap3\n      swap1\n      pop\n      jump\t// out\n        /* \"#utility.yul\":3722:3839   */\n    tag_77:\n        /* \"#utility.yul\":3831:3832   */\n      0x00\n        /* \"#utility.yul\":3828:3829   */\n      0x00\n        /* \"#utility.yul\":3821:3833   */\n      revert\n        /* \"#utility.yul\":3845:3962   */\n    tag_78:\n        /* \"#utility.yul\":3954:3955   */\n      0x00\n        /* \"#utility.yul\":3951:3952   */\n      0x00\n        /* \"#utility.yul\":3944:3956   */\n      revert\n        /* \"#utility.yul\":3968:4045   */\n    tag_79:\n        /* \"#utility.yul\":4005:4012   */\n      0x00\n        /* \"#utility.yul\":4034:4039   */\n      dup2\n        /* \"#utility.yul\":4023:4039   */\n      swap1\n      pop\n        /* \"#utility.yul\":3968:4045   */\n      swap2\n      swap1\n      pop\n      jump\t// out\n        /* \"#utility.yul\":4051:4173   */\n    tag_80:\n        /* \"#utility.yul\":4124:4148   */\n      tag_161\n        /* \"#utility.yul\":4142:4147   */\n      dup2\n        /* \"#utility.yul\":4124:4148   */\n      tag_79\n      jump\t// in\n    tag_161:\n        /* \"#utility.yul\":4117:4122   */\n      dup2\n        /* \"#utility.yul\":4114:4149   */\n      eq\n        /* \"#utility.yul\":4104:4167   */\n      tag_162\n      jumpi\n        /* \"#utility.yul\":4163:4164   */\n      0x00\n        /* \"#utility.yul\":4160:4161   */\n      0x00\n        /* \"#utility.yul\":4153:4165   */\n      revert\n        /* \"#utility.yul\":4104:4167   */\n    tag_162:\n        /* \"#utility.yul\":4051:4173   */\n      pop\n      jump\t// out\n        /* \"#utility.yul\":4179:4318   */\n    tag_81:\n        /* \"#utility.yul\":4225:4230   */\n      0x00\n        /* \"#utility.yul\":4263:4269   */\n      dup2\n        /* \"#utility.yul\":4250:4270   */\n      calldataload\n        /* \"#utility.yul\":4241:4270   */\n      swap1\n      pop\n        /* \"#utility.yul\":4279:4312   */\n      tag_164\n        /* \"#utility.yul\":4306:4311   */\n      dup2\n        /* \"#utility.yul\":4279:4312   */\n      tag_80\n      jump\t// in\n    tag_164:\n        /* \"#utility.yul\":4179:4318   */\n      swap3\n      swap2\n      pop\n      pop\n      jump\t// out\n        /* \"#utility.yul\":4364:5441   */\n    tag_82:\n        /* \"#utility.yul\":4436:4441   */\n      0x00\n        /* \"#utility.yul\":4480:4484   */\n      0x80\n        /* \"#utility.yul\":4468:4477   */\n      dup3\n        /* \"#utility.yul\":4463:4466   */\n      dup5\n        /* \"#utility.yul\":4459:4478   */\n      sub\n        /* \"#utility.yul\":4455:4485   */\n      slt\n        /* \"#utility.yul\":4452:4569   */\n      iszero\n      tag_166\n      jumpi\n        /* \"#utility.yul\":4488:4567   */\n      tag_167\n      tag_77\n      jump\t// in\n    tag_167:\n        /* \"#utility.yul\":4452:4569   */\n    tag_166:\n        /* \"#utility.yul\":4587:4608   */\n      tag_168\n        /* \"#utility.yul\":4603:4607   */\n      0x80\n        /* \"#utility.yul\":4587:4608   */\n      tag_72\n      jump\t// in\n    tag_168:\n        /* \"#utility.yul\":4578:4608   */\n      swap1\n      pop\n        /* \"#utility.yul\":4695:4696   */\n      0x00\n        /* \"#utility.yul\":4684:4693   */\n      dup3\n        /* \"#utility.yul\":4680:4697   */\n      add\n        /* \"#utility.yul\":4667:4698   */\n      calldataload\n        /* \"#utility.yul\":4725:4743   */\n      0xffffffffffffffff\n        /* \"#utility.yul\":4717:4723   */\n      dup2\n        /* \"#utility.yul\":4714:4744   */\n      gt\n        /* \"#utility.yul\":4711:4828   */\n      iszero\n      tag_169\n      jumpi\n        /* \"#utility.yul\":4747:4826   */\n      tag_170\n      tag_78\n      jump\t// in\n    tag_170:\n        /* \"#utility.yul\":4711:4828   */\n    tag_169:\n        /* \"#utility.yul\":4867:4926   */\n      tag_171\n        /* \"#utility.yul\":4922:4925   */\n      dup5\n        /* \"#utility.yul\":4913:4919   */\n      dup3\n        /* \"#utility.yul\":4902:4911   */\n      dup6\n        /* \"#utility.yul\":4898:4920   */\n      add\n        /* \"#utility.yul\":4867:4926   */\n      tag_76\n      jump\t// in\n    tag_171:\n        /* \"#utility.yul\":4860:4864   */\n      0x00\n        /* \"#utility.yul\":4853:4858   */\n      dup4\n        /* \"#utility.yul\":4849:4865   */\n      add\n        /* \"#utility.yul\":4842:4927   */\n      mstore\n        /* \"#utility.yul\":4618:4938   */\n      pop\n        /* \"#utility.yul\":5004:5006   */\n      0x20\n        /* \"#utility.yul\":5045:5094   */\n      tag_172\n        /* \"#utility.yul\":5090:5093   */\n      dup5\n        /* \"#utility.yul\":5081:5087   */\n      dup3\n        /* \"#utility.yul\":5070:5079   */\n      dup6\n        /* \"#utility.yul\":5066:5088   */\n      add\n        /* \"#utility.yul\":5045:5094   */\n      tag_81\n      jump\t// in\n    tag_172:\n        /* \"#utility.yul\":5038:5042   */\n      0x20\n        /* \"#utility.yul\":5031:5036   */\n      dup4\n        /* \"#utility.yul\":5027:5043   */\n      add\n        /* \"#utility.yul\":5020:5095   */\n      mstore\n        /* \"#utility.yul\":4948:5106   */\n      pop\n        /* \"#utility.yul\":5169:5171   */\n      0x40\n        /* \"#utility.yul\":5210:5259   */\n      tag_173\n        /* \"#utility.yul\":5255:5258   */\n      dup5\n        /* \"#utility.yul\":5246:5252   */\n      dup3\n        /* \"#utility.yul\":5235:5244   */\n      dup6\n        /* \"#utility.yul\":5231:5253   */\n      add\n        /* \"#utility.yul\":5210:5259   */\n      tag_81\n      jump\t// in\n    tag_173:\n        /* \"#utility.yul\":5203:5207   */\n      0x40\n        /* \"#utility.yul\":5196:5201   */\n      dup4\n        /* \"#utility.yul\":5192:5208   */\n      add\n        /* \"#utility.yul\":5185:5260   */\n      mstore\n        /* \"#utility.yul\":5116:5271   */\n      pop\n        /* \"#utility.yul\":5332:5334   */\n      0x60\n        /* \"#utility.yul\":5373:5422   */\n      tag_174\n        /* \"#utility.yul\":5418:5421   */\n      dup5\n        /* \"#utility.yul\":5409:5415   */\n      dup3\n        /* \"#utility.yul\":5398:5407   */\n      dup6\n        /* \"#utility.yul\":5394:5416   */\n      add\n        /* \"#utility.yul\":5373:5422   */\n      tag_81\n      jump\t// in\n    tag_174:\n        /* \"#utility.yul\":5366:5370   */\n      0x60\n        /* \"#utility.yul\":5359:5364   */\n      dup4\n        /* \"#utility.yul\":5355:5371   */\n      add\n        /* \"#utility.yul\":5348:5423   */\n      mstore\n        /* \"#utility.yul\":5281:5434   */\n      pop\n        /* \"#utility.yul\":4364:5441   */\n      swap3\n      swap2\n      pop\n      pop\n      jump\t// out\n        /* \"#utility.yul\":5447:5982   */\n    tag_12:\n        /* \"#utility.yul\":5529:5535   */\n      0x00\n        /* \"#utility.yul\":5578:5580   */\n      0x20\n        /* \"#utility.yul\":5566:5575   */\n      dup3\n        /* \"#utility.yul\":5557:5564   */\n      dup5\n        /* \"#utility.yul\":5553:5576   */\n      sub\n        /* \"#utility.yul\":5549:5581   */\n      slt\n        /* \"#utility.yul\":5546:5665   */\n      iszero\n      tag_176\n      jumpi\n        /* \"#utility.yul\":5584:5663   */\n      tag_177\n      tag_61\n      jump\t// in\n    tag_177:\n        /* \"#utility.yul\":5546:5665   */\n    tag_176:\n        /* \"#utility.yul\":5732:5733   */\n      0x00\n        /* \"#utility.yul\":5721:5730   */\n      dup3\n        /* \"#utility.yul\":5717:5734   */\n      add\n        /* \"#utility.yul\":5704:5735   */\n      calldataload\n        /* \"#utility.yul\":5762:5780   */\n      0xffffffffffffffff\n        /* \"#utility.yul\":5754:5760   */\n      dup2\n        /* \"#utility.yul\":5751:5781   */\n      gt\n        /* \"#utility.yul\":5748:5865   */\n      iszero\n      tag_178\n      jumpi\n        /* \"#utility.yul\":5784:5863   */\n      tag_179\n      tag_62\n      jump\t// in\n    tag_179:\n        /* \"#utility.yul\":5748:5865   */\n    tag_178:\n        /* \"#utility.yul\":5889:5965   */\n      tag_180\n        /* \"#utility.yul\":5957:5964   */\n      dup5\n        /* \"#utility.yul\":5948:5954   */\n      dup3\n        /* \"#utility.yul\":5937:5946   */\n      dup6\n        /* \"#utility.yul\":5933:5955   */\n      add\n        /* \"#utility.yul\":5889:5965   */\n      tag_82\n      jump\t// in\n    tag_180:\n        /* \"#utility.yul\":5879:5965   */\n      swap2\n      pop\n        /* \"#utility.yul\":5675:5975   */\n      pop\n        /* \"#utility.yul\":5447:5982   */\n      swap3\n      swap2\n      pop\n      pop\n      jump\t// out\n        /* \"#utility.yul\":5988:6822   */\n    tag_16:\n        /* \"#utility.yul\":6076:6082   */\n      0x00\n        /* \"#utility.yul\":6084:6090   */\n      0x00\n        /* \"#utility.yul\":6133:6135   */\n      0x40\n        /* \"#utility.yul\":6121:6130   */\n      dup4\n        /* \"#utility.yul\":6112:6119   */\n      dup6\n        /* \"#utility.yul\":6108:6131   */\n      sub\n        /* \"#utility.yul\":6104:6136   */\n      slt\n        /* \"#utility.yul\":6101:6220   */\n      iszero\n      tag_182\n      jumpi\n        /* \"#utility.yul\":6139:6218   */\n      tag_183\n      tag_61\n      jump\t// in\n    tag_183:\n        /* \"#utility.yul\":6101:6220   */\n    tag_182:\n        /* \"#utility.yul\":6287:6288   */\n      0x00\n        /* \"#utility.yul\":6276:6285   */\n      dup4\n        /* \"#utility.yul\":6272:6289   */\n      add\n        /* \"#utility.yul\":6259:6290   */\n      calldataload\n        /* \"#utility.yul\":6317:6335   */\n      0xffffffffffffffff\n        /* \"#utility.yul\":6309:6315   */\n      dup2\n        /* \"#utility.yul\":6306:6336   */\n      gt\n        /* \"#utility.yul\":6303:6420   */\n      iszero\n      tag_184\n      jumpi\n        /* \"#utility.yul\":6339:6418   */\n      tag_185\n      tag_62\n      jump\t// in\n    tag_185:\n        /* \"#utility.yul\":6303:6420   */\n    tag_184:\n        /* \"#utility.yul\":6444:6507   */\n      tag_186\n        /* \"#utility.yul\":6499:6506   */\n      dup6\n        /* \"#utility.yul\":6490:6496   */\n      dup3\n        /* \"#utility.yul\":6479:6488   */\n      dup7\n        /* \"#utility.yul\":6475:6497   */\n      add\n        /* \"#utility.yul\":6444:6507   */\n      tag_76\n      jump\t// in\n    tag_186:\n        /* \"#utility.yul\":6434:6507   */\n      swap3\n      pop\n        /* \"#utility.yul\":6230:6517   */\n      pop\n        /* \"#utility.yul\":6584:6586   */\n      0x20\n        /* \"#utility.yul\":6573:6582   */\n      dup4\n        /* \"#utility.yul\":6569:6587   */\n      add\n        /* \"#utility.yul\":6556:6588   */\n      calldataload\n        /* \"#utility.yul\":6615:6633   */\n      0xffffffffffffffff\n        /* \"#utility.yul\":6607:6613   */\n      dup2\n        /* \"#utility.yul\":6604:6634   */\n      gt\n        /* \"#utility.yul\":6601:6718   */\n      iszero\n      tag_187\n      jumpi\n        /* \"#utility.yul\":6637:6716   */\n      tag_188\n      tag_62\n      jump\t// in\n    tag_188:\n        /* \"#utility.yul\":6601:6718   */\n    tag_187:\n        /* \"#utility.yul\":6742:6805   */\n      tag_189\n        /* \"#utility.yul\":6797:6804   */\n      dup6\n        /* \"#utility.yul\":6788:6794   */\n      dup3\n        /* \"#utility.yul\":6777:6786   */\n      dup7\n        /* \"#utility.yul\":6773:6795   */\n      add\n        /* \"#utility.yul\":6742:6805   */\n      tag_76\n      jump\t// in\n    tag_189:\n        /* \"#utility.yul\":6732:6805   */\n      swap2\n      pop\n        /* \"#utility.yul\":6527:6815   */\n      pop\n        /* \"#utility.yul\":5988:6822   */\n      swap3\n      pop\n      swap3\n      swap1\n      pop\n      jump\t// out\n        /* \"#utility.yul\":6828:6946   */\n    tag_83:\n        /* \"#utility.yul\":6915:6939   */\n      tag_191\n        /* \"#utility.yul\":6933:6938   */\n      dup2\n        /* \"#utility.yul\":6915:6939   */\n      tag_79\n      jump\t// in\n    tag_191:\n        /* \"#utility.yul\":6910:6913   */\n      dup3\n        /* \"#utility.yul\":6903:6940   */\n      mstore\n        /* \"#utility.yul\":6828:6946   */\n      pop\n      pop\n      jump\t// out\n        /* \"#utility.yul\":6952:7174   */\n    tag_19:\n        /* \"#utility.yul\":7045:7049   */\n      0x00\n        /* \"#utility.yul\":7083:7085   */\n      0x20\n        /* \"#utility.yul\":7072:7081   */\n      dup3\n        /* \"#utility.yul\":7068:7086   */\n      add\n        /* \"#utility.yul\":7060:7086   */\n      swap1\n      pop\n        /* \"#utility.yul\":7096:7167   */\n      tag_193\n        /* \"#utility.yul\":7164:7165   */\n      0x00\n        /* \"#utility.yul\":7153:7162   */\n      dup4\n        /* \"#utility.yul\":7149:7166   */\n      add\n        /* \"#utility.yul\":7140:7146   */\n      dup5\n        /* \"#utility.yul\":7096:7167   */\n      tag_83\n      jump\t// in\n    tag_193:\n        /* \"#utility.yul\":6952:7174   */\n      swap3\n      swap2\n      pop\n      pop\n      jump\t// out\n        /* \"#utility.yul\":7180:7279   */\n    tag_84:\n        /* \"#utility.yul\":7232:7238   */\n      0x00\n        /* \"#utility.yul\":7266:7271   */\n      dup2\n        /* \"#utility.yul\":7260:7272   */\n      mload\n        /* \"#utility.yul\":7250:7272   */\n      swap1\n      pop\n        /* \"#utility.yul\":7180:7279   */\n      swap2\n      swap1\n      pop\n      jump\t// out\n        /* \"#utility.yul\":7285:7465   */\n    tag_85:\n        /* \"#utility.yul\":7333:7410   */\n      0x4e487b7100000000000000000000000000000000000000000000000000000000\n        /* \"#utility.yul\":7330:7331   */\n      0x00\n        /* \"#utility.yul\":7323:7411   */\n      mstore\n        /* \"#utility.yul\":7430:7434   */\n      0x22\n        /* \"#utility.yul\":7427:7428   */\n      0x04\n        /* \"#utility.yul\":7420:7435   */\n      mstore\n        /* \"#utility.yul\":7454:7458   */\n      0x24\n        /* \"#utility.yul\":7451:7452   */\n      0x00\n        /* \"#utility.yul\":7444:7459   */\n      revert\n        /* \"#utility.yul\":7471:7791   */\n    tag_86:\n        /* \"#utility.yul\":7515:7521   */\n      0x00\n        /* \"#utility.yul\":7552:7553   */\n      0x02\n        /* \"#utility.yul\":7546:7550   */\n      dup3\n        /* \"#utility.yul\":7542:7554   */\n      div\n        /* \"#utility.yul\":7532:7554   */\n      swap1\n      pop\n        /* \"#utility.yul\":7599:7600   */\n      0x01\n        /* \"#utility.yul\":7593:7597   */\n      dup3\n        /* \"#utility.yul\":7589:7601   */\n      and\n        /* \"#utility.yul\":7620:7638   */\n      dup1\n        /* \"#utility.yul\":7610:7691   */\n      tag_197\n      jumpi\n        /* \"#utility.yul\":7676:7680   */\n      0x7f\n        /* \"#utility.yul\":7668:7674   */\n      dup3\n        /* \"#utility.yul\":7664:7681   */\n      and\n        /* \"#utility.yul\":7654:7681   */\n      swap2\n      pop\n        /* \"#utility.yul\":7610:7691   */\n    tag_197:\n        /* \"#utility.yul\":7738:7740   */\n      0x20\n        /* \"#utility.yul\":7730:7736   */\n      dup3\n        /* \"#utility.yul\":7727:7741   */\n      lt\n        /* \"#utility.yul\":7707:7725   */\n      dup2\n        /* \"#utility.yul\":7704:7742   */\n      sub\n        /* \"#utility.yul\":7701:7785   */\n      tag_198\n      jumpi\n        /* \"#utility.yul\":7757:7775   */\n      tag_199\n      tag_85\n      jump\t// in\n    tag_199:\n        /* \"#utility.yul\":7701:7785   */\n    tag_198:\n        /* \"#utility.yul\":7522:7791   */\n      pop\n        /* \"#utility.yul\":7471:7791   */\n      swap2\n      swap1\n      pop\n      jump\t// out\n        /* \"#utility.yul\":7797:7938   */\n    tag_87:\n        /* \"#utility.yul\":7846:7850   */\n      0x00\n        /* \"#utility.yul\":7869:7872   */\n      dup2\n        /* \"#utility.yul\":7861:7872   */\n      swap1\n      pop\n        /* \"#utility.yul\":7892:7895   */\n      dup2\n        /* \"#utility.yul\":7889:7890   */\n      0x00\n        /* \"#utility.yul\":7882:7896   */\n      mstore\n        /* \"#utility.yul\":7926:7930   */\n      0x20\n        /* \"#utility.yul\":7923:7924   */\n      0x00\n        /* \"#utility.yul\":7913:7931   */\n      keccak256\n        /* \"#utility.yul\":7905:7931   */\n      swap1\n      pop\n        /* \"#utility.yul\":7797:7938   */\n      swap2\n      swap1\n      pop\n      jump\t// out\n        /* \"#utility.yul\":7944:8037   */\n    tag_88:\n        /* \"#utility.yul\":7981:7987   */\n      0x00\n        /* \"#utility.yul\":8028:8030   */\n      0x20\n        /* \"#utility.yul\":8023:8025   */\n      0x1f\n        /* \"#utility.yul\":8016:8021   */\n      dup4\n        /* \"#utility.yul\":8012:8026   */\n      add\n        /* \"#utility.yul\":8008:8031   */\n      div\n        /* \"#utility.yul\":7998:8031   */\n      swap1\n      pop\n        /* \"#utility.yul\":7944:8037   */\n      swap2\n      swap1\n      pop\n      jump\t// out\n        /* \"#utility.yul\":8043:8150   */\n    tag_89:\n        /* \"#utility.yul\":8087:8095   */\n      0x00\n        /* \"#utility.yul\":8137:8142   */\n      dup3\n        /* \"#utility.yul\":8131:8135   */\n      dup3\n        /* \"#utility.yul\":8127:8143   */\n      shl\n        /* \"#utility.yul\":8106:8143   */\n      swap1\n      pop\n        /* \"#utility.yul\":8043:8150   */\n      swap3\n      swap2\n      pop\n      pop\n      jump\t// out\n        /* \"#utility.yul\":8156:8549   */\n    tag_90:\n        /* \"#utility.yul\":8225:8231   */\n      0x00\n        /* \"#utility.yul\":8275:8276   */\n      0x08\n        /* \"#utility.yul\":8263:8273   */\n      dup4\n        /* \"#utility.yul\":8259:8277   */\n      mul\n        /* \"#utility.yul\":8298:8395   */\n      tag_204\n        /* \"#utility.yul\":8328:8394   */\n      0xffffffffffffffffffffffffffffffffffffffffffffffffffffffffffffffff\n        /* \"#utility.yul\":8317:8326   */\n      dup3\n        /* \"#utility.yul\":8298:8395   */\n      tag_89\n      jump\t// in\n    tag_204:\n        /* \"#utility.yul\":8416:8455   */\n      tag_205\n        /* \"#utility.yul\":8446:8454   */\n      dup7\n        /* \"#utility.yul\":8435:8444   */\n      dup4\n        /* \"#utility.yul\":8416:8455   */\n      tag_89\n      jump\t// in\n    tag_205:\n        /* \"#utility.yul\":8404:8455   */\n      swap6\n      pop\n        /* \"#utility.yul\":8488:8492   */\n      dup1\n        /* \"#utility.yul\":8484:8493   */\n      not\n        /* \"#utility.yul\":8477:8482   */\n      dup5\n        /* \"#utility.yul\":8473:8494   */\n      and\n        /* \"#utility.yul\":8464:8494   */\n      swap4\n      pop\n        /* \"#utility.yul\":8537:8541   */\n      dup1\n        /* \"#utility.yul\":8527:8535   */\n      dup7\n        /* \"#utility.yul\":8523:8542   */\n      and\n        /* \"#utility.yul\":8516:8521   */\n      dup5\n        /* \"#utility.yul\":8513:8543   */\n      or\n        /* \"#utility.yul\":8503:8543   */\n      swap3\n      pop\n        /* \"#utility.yul\":8232:8549   */\n      pop\n      pop\n        /* \"#utility.yul\":8156:8549   */\n      swap4\n      swap3\n      pop\n      pop\n      pop\n      jump\t// out\n        /* \"#utility.yul\":8555:8615   */\n    tag_91:\n        /* \"#utility.yul\":8583:8586   */\n      0x00\n        /* \"#utility.yul\":8604:8609   */\n      dup2\n        /* \"#utility.yul\":8597:8609   */\n      swap1\n      pop\n        /* \"#utility.yul\":8555:8615   */\n      swap2\n      swap1\n      pop\n      jump\t// out\n        /* \"#utility.yul\":8621:8763   */\n    tag_92:\n        /* \"#utility.yul\":8671:8680   */\n      0x00\n        /* \"#utility.yul\":8704:8757   */\n      tag_208\n        /* \"#utility.yul\":8722:8756   */\n      tag_209\n        /* \"#utility.yul\":8731:8755   */\n      tag_210\n        /* \"#utility.yul\":8749:8754   */\n      dup5\n        /* \"#utility.yul\":8731:8755   */\n      tag_79\n      jump\t// in\n    tag_210:\n        /* \"#utility.yul\":8722:8756   */\n      tag_91\n      jump\t// in\n    tag_209:\n        /* \"#utility.yul\":8704:8757   */\n      tag_79\n      jump\t// in\n    tag_208:\n        /* \"#utility.yul\":8691:8757   */\n      swap1\n      pop\n        /* \"#utility.yul\":8621:8763   */\n      swap2\n      swap1\n      pop\n      jump\t// out\n        /* \"#utility.yul\":8769:8844   */\n    tag_93:\n        /* \"#utility.yul\":8812:8815   */\n      0x00\n        /* \"#utility.yul\":8833:8838   */\n      dup2\n        /* \"#utility.yul\":8826:8838   */\n      swap1\n      pop\n        /* \"#utility.yul\":8769:8844   */\n      swap2\n      swap1\n      pop\n      jump\t// out\n        /* \"#utility.yul\":8850:9119   */\n    tag_94:\n        /* \"#utility.yul\":8960:8999   */\n      tag_213\n        /* \"#utility.yul\":8991:8998   */\n      dup4\n        /* \"#utility.yul\":8960:8999   */\n      tag_92\n      jump\t// in\n    tag_213:\n        /* \"#utility.yul\":9021:9112   */\n      tag_214\n        /* \"#utility.yul\":9070:9111   */\n      tag_215\n        /* \"#utility.yul\":9094:9110   */\n      dup3\n        /* \"#utility.yul\":9070:9111   */\n      tag_93\n      jump\t// in\n    tag_215:\n        /* \"#utility.yul\":9062:9068   */\n      dup5\n        /* \"#utility.yul\":9055:9059   */\n      dup5\n        /* \"#utility.yul\":9049:9060   */\n      sload\n        /* \"#utility.yul\":9021:9112   */\n      tag_90\n      jump\t// in\n    tag_214:\n        /* \"#utility.yul\":9015:9019   */\n      dup3\n        /* \"#utility.yul\":9008:9113   */\n      sstore\n        /* \"#utility.yul\":8926:9119   */\n      pop\n        /* \"#utility.yul\":8850:9119   */\n      pop\n      pop\n      pop\n      jump\t// out\n        /* \"#utility.yul\":9125:9198   */\n    tag_95:\n        /* \"#utility.yul\":9170:9173   */\n      0x00\n        /* \"#utility.yul\":9191:9192   */\n      0x00\n        /* \"#utility.yul\":9184:9192   */\n      swap1\n      pop\n        /* \"#utility.yul\":9125:9198   */\n      swap1\n      jump\t// out\n        /* \"#utility.yul\":9204:9393   */\n    tag_96:\n        /* \"#utility.yul\":9281:9313   */\n      tag_218\n      tag_95\n      jump\t// in\n    tag_218:\n        /* \"#utility.yul\":9322:9387   */\n      tag_219\n        /* \"#utility.yul\":9380:9386   */\n      dup2\n        /* \"#utility.yul\":9372:9378   */\n      dup5\n        /* \"#utility.yul\":9366:9370   */\n      dup5\n        /* \"#utility.yul\":9322:9387   */\n      tag_94\n      jump\t// in\n    tag_219:\n        /* \"#utility.yul\":9257:9393   */\n      pop\n        /* \"#utility.yul\":9204:9393   */\n      pop\n      pop\n      jump\t// out\n        /* \"#utility.yul\":9399:9585   */\n    tag_97:\n        /* \"#utility.yul\":9459:9579   */\n    tag_221:\n        /* \"#utility.yul\":9476:9479   */\n      dup2\n        /* \"#utility.yul\":9469:9474   */\n      dup2\n        /* \"#utility.yul\":9466:9480   */\n      lt\n        /* \"#utility.yul\":9459:9579   */\n      iszero\n      tag_223\n      jumpi\n        /* \"#utility.yul\":9530:9569   */\n      tag_224\n        /* \"#utility.yul\":9567:9568   */\n      0x00\n        /* \"#utility.yul\":9560:9565   */\n      dup3\n        /* \"#utility.yul\":9530:9569   */\n      tag_96\n      jump\t// in\n    tag_224:\n        /* \"#utility.yul\":9503:9504   */\n      0x01\n        /* \"#utility.yul\":9496:9501   */\n      dup2\n        /* \"#utility.yul\":9492:9505   */\n      add\n        /* \"#utility.yul\":9483:9505   */\n      swap1\n      pop\n        /* \"#utility.yul\":9459:9579   */\n      jump(tag_221)\n    tag_223:\n        /* \"#utility.yul\":9399:9585   */\n      pop\n      pop\n      jump\t// out\n        /* \"#utility.yul\":9591:10134   */\n    tag_98:\n        /* \"#utility.yul\":9692:9694   */\n      0x1f\n        /* \"#utility.yul\":9687:9690   */\n      dup3\n        /* \"#utility.yul\":9684:9695   */\n      gt\n        /* \"#utility.yul\":9681:10127   */\n      iszero\n      tag_226\n      jumpi\n        /* \"#utility.yul\":9726:9764   */\n      tag_227\n        /* \"#utility.yul\":9758:9763   */\n      dup2\n        /* \"#utility.yul\":9726:9764   */\n      tag_87\n      jump\t// in\n    tag_227:\n        /* \"#utility.yul\":9810:9839   */\n      tag_228\n        /* \"#utility.yul\":9828:9838   */\n      dup5\n        /* \"#utility.yul\":9810:9839   */\n      tag_88\n      jump\t// in\n    tag_228:\n        /* \"#utility.yul\":9800:9808   */\n      dup2\n        /* \"#utility.yul\":9796:9840   */\n      add\n        /* \"#utility.yul\":9993:9995   */\n      0x20\n        /* \"#utility.yul\":9981:9991   */\n      dup6\n        /* \"#utility.yul\":9978:9996   */\n      lt\n        /* \"#utility.yul\":9975:10024   */\n      iszero\n      tag_229\n      jumpi\n        /* \"#utility.yul\":10014:10022   */\n      dup2\n        /* \"#utility.yul\":9999:10022   */\n      swap1\n      pop\n        /* \"#utility.yul\":9975:10024   */\n    tag_229:\n        /* \"#utility.yul\":10037:10117   */\n      tag_230\n        /* \"#utility.yul\":10093:10115   */\n      tag_231\n        /* \"#utility.yul\":10111:10114   */\n      dup6\n        /* \"#utility.yul\":10093:10115   */\n      tag_88\n      jump\t// in\n    tag_231:\n        /* \"#utility.yul\":10083:10091   */\n      dup4\n        /* \"#utility.yul\":10079:10116   */\n      add\n        /* \"#utility.yul\":10066:10077   */\n      dup3\n        /* \"#utility.yul\":10037:10117   */\n      tag_97\n      jump\t// in\n    tag_230:\n        /* \"#utility.yul\":9696:10127   */\n      pop\n      pop\n        /* \"#utility.yul\":9681:10127   */\n    tag_226:\n        /* \"#utility.yul\":9591:10134   */\n      pop\n      pop\n      pop\n      jump\t// out\n        /* \"#utility.yul\":10140:10257   */\n    tag_99:\n        /* \"#utility.yul\":10194:10202   */\n      0x00\n        /* \"#utility.yul\":10244:10249   */\n      dup3\n        /* \"#utility.yul\":10238:10242   */\n      dup3\n        /* \"#utility.yul\":10234:10250   */\n      shr\n        /* \"#utility.yul\":10213:10250   */\n      swap1\n      pop\n        /* \"#utility.yul\":10140:10257   */\n      swap3\n      swap2\n      pop\n      pop\n      jump\t// out\n        /* \"#utility.yul\":10263:10432   */\n    tag_100:\n        /* \"#utility.yul\":10307:10313   */\n      0x00\n        /* \"#utility.yul\":10340:10391   */\n      tag_234\n        /* \"#utility.yul\":10388:10389   */\n      0x00\n        /* \"#utility.yul\":10384:10390   */\n      not\n        /* \"#utility.yul\":10376:10381   */\n      dup5\n        /* \"#utility.yul\":10373:10374   */\n      0x08\n        /* \"#utility.yul\":10369:10382   */\n      mul\n        /* \"#utility.yul\":10340:10391   */\n      tag_99\n      jump\t// in\n    tag_234:\n        /* \"#utility.yul\":10336:10392   */\n      not\n        /* \"#utility.yul\":10421:10425   */\n      dup1\n        /* \"#utility.yul\":10415:10419   */\n      dup4\n        /* \"#utility.yul\":10411:10426   */\n      and\n        /* \"#utility.yul\":10401:10426   */\n      swap2\n      pop\n        /* \"#utility.yul\":10314:10432   */\n      pop\n        /* \"#utility.yul\":10263:10432   */\n      swap3\n      swap2\n      pop\n      pop\n      jump\t// out\n        /* \"#utility.yul\":10437:10732   */\n    tag_101:\n        /* \"#utility.yul\":10513:10517   */\n      0x00\n        /* \"#utility.yul\":10659:10688   */\n      tag_236\n        /* \"#utility.yul\":10684:10687   */\n      dup4\n        /* \"#utility.yul\":10678:10682   */\n      dup4\n        /* \"#utility.yul\":10659:10688   */\n      tag_100\n      jump\t// in\n    tag_236:\n        /* \"#utility.yul\":10651:10688   */\n      swap2\n      pop\n        /* \"#utility.yul\":10721:10724   */\n      dup3\n        /* \"#utility.yul\":10718:10719   */\n      0x02\n        /* \"#utility.yul\":10714:10725   */\n      mul\n        /* \"#utility.yul\":10708:10712   */\n      dup3\n        /* \"#utility.yul\":10705:10726   */\n      or\n        /* \"#utility.yul\":10697:10726   */\n      swap1\n      pop\n        /* \"#utility.yul\":10437:10732   */\n      swap3\n      swap2\n      pop\n      pop\n      jump\t// out\n        /* \"#utility.yul\":10737:12132   */\n    tag_22:\n        /* \"#utility.yul\":10854:10891   */\n      tag_238\n        /* \"#utility.yul\":10887:10890   */\n      dup3\n        /* \"#utility.yul\":10854:10891   */\n      tag_84\n      jump\t// in\n    tag_238:\n        /* \"#utility.yul\":10956:10974   */\n      0xffffffffffffffff\n        /* \"#utility.yul\":10948:10954   */\n      dup2\n        /* \"#utility.yul\":10945:10975   */\n      gt\n        /* \"#utility.yul\":10942:10998   */\n      iszero\n      tag_239\n      jumpi\n        /* \"#utility.yul\":10978:10996   */\n      tag_240\n      tag_70\n      jump\t// in\n    tag_240:\n        /* \"#utility.yul\":10942:10998   */\n    tag_239:\n        /* \"#utility.yul\":11022:11060   */\n      tag_241\n        /* \"#utility.yul\":11054:11058   */\n      dup3\n        /* \"#utility.yul\":11048:11059   */\n      sload\n        /* \"#utility.yul\":11022:11060   */\n      tag_86\n      jump\t// in\n    tag_241:\n        /* \"#utility.yul\":11107:11174   */\n      tag_242\n        /* \"#utility.yul\":11167:11173   */\n      dup3\n        /* \"#utility.yul\":11159:11165   */\n      dup3\n        /* \"#utility.yul\":11153:11157   */\n      dup6\n        /* \"#utility.yul\":11107:11174   */\n      tag_98\n      jump\t// in\n    tag_242:\n        /* \"#utility.yul\":11201:11202   */\n      0x00\n        /* \"#utility.yul\":11225:11229   */\n      0x20\n        /* \"#utility.yul\":11212:11229   */\n      swap1\n      pop\n        /* \"#utility.yul\":11257:11259   */\n      0x1f\n        /* \"#utility.yul\":11249:11255   */\n      dup4\n        /* \"#utility.yul\":11246:11260   */\n      gt\n        /* \"#utility.yul\":11274:11275   */\n      0x01\n        /* \"#utility.yul\":11269:11887   */\n      dup2\n      eq\n      tag_244\n      jumpi\n        /* \"#utility.yul\":11931:11932   */\n      0x00\n        /* \"#utility.yul\":11948:11954   */\n      dup5\n        /* \"#utility.yul\":11945:12022   */\n      iszero\n      tag_245\n      jumpi\n        /* \"#utility.yul\":11997:12006   */\n      dup3\n        /* \"#utility.yul\":11992:11995   */\n      dup8\n        /* \"#utility.yul\":11988:12007   */\n      add\n        /* \"#utility.yul\":11982:12008   */\n      mload\n        /* \"#utility.yul\":11973:12008   */\n      swap1\n      pop\n        /* \"#utility.yul\":11945:12022   */\n    tag_245:\n        /* \"#utility.yul\":12048:12115   */\n      tag_246\n        /* \"#utility.yul\":12108:12114   */\n      dup6\n        /* \"#utility.yul\":12101:12106   */\n      dup3\n        /* \"#utility.yul\":12048:12115   */\n      tag_101\n      jump\t// in\n    tag_246:\n        /* \"#utility.yul\":12042:12046   */\n      dup7\n        /* \"#utility.yul\":12035:12116   */\n      sstore\n        /* \"#utility.yul\":11904:12126   */\n      pop\n        /* \"#utility.yul\":11239:12126   */\n      jump(tag_243)\n        /* \"#utility.yul\":11269:11887   */\n    tag_244:\n        /* \"#utility.yul\":11321:11325   */\n      0x1f\n        /* \"#utility.yul\":11317:11326   */\n      not\n        /* \"#utility.yul\":11309:11315   */\n      dup5\n        /* \"#utility.yul\":11305:11327   */\n      and\n        /* \"#utility.yul\":11355:11392   */\n      tag_247\n        /* \"#utility.yul\":11387:11391   */\n      dup7\n        /* \"#utility.yul\":11355:11392   */\n      tag_87\n      jump\t// in\n    tag_247:\n        /* \"#utility.yul\":11414:11415   */\n      0x00\n        /* \"#utility.yul\":11428:11636   */\n    tag_248:\n        /* \"#utility.yul\":11442:11449   */\n      dup3\n        /* \"#utility.yul\":11439:11440   */\n      dup2\n        /* \"#utility.yul\":11436:11450   */\n      lt\n        /* \"#utility.yul\":11428:11636   */\n      iszero\n      tag_250\n      jumpi\n        /* \"#utility.yul\":11521:11530   */\n      dup5\n        /* \"#utility.yul\":11516:11519   */\n      dup10\n        /* \"#utility.yul\":11512:11531   */\n      add\n        /* \"#utility.yul\":11506:11532   */\n      mload\n        /* \"#utility.yul\":11498:11504   */\n      dup3\n        /* \"#utility.yul\":11491:11533   */\n      sstore\n        /* \"#utility.yul\":11572:11573   */\n      0x01\n        /* \"#utility.yul\":11564:11570   */\n      dup3\n        /* \"#utility.yul\":11560:11574   */\n      add\n        /* \"#utility.yul\":11550:11574   */\n      swap2\n      pop\n        /* \"#utility.yul\":11619:11621   */\n      0x20\n        /* \"#utility.yul\":11608:11617   */\n      dup6\n        /* \"#utility.yul\":11604:11622   */\n      add\n        /* \"#utility.yul\":11591:11622   */\n      swap5\n      pop\n        /* \"#utility.yul\":11465:11469   */\n      0x20\n        /* \"#utility.yul\":11462:11463   */\n      dup2\n        /* \"#utility.yul\":11458:11470   */\n      add\n        /* \"#utility.yul\":11453:11470   */\n      swap1\n      pop\n        /* \"#utility.yul\":11428:11636   */\n      jump(tag_248)\n    tag_250:\n        /* \"#utility.yul\":11664:11670   */\n      dup7\n        /* \"#utility.yul\":11655:11662   */\n      dup4\n        /* \"#utility.yul\":11652:11671   */\n      lt\n        /* \"#utility.yul\":11649:11828   */\n      iszero\n      tag_251\n      jumpi\n        /* \"#utility.yul\":11722:11731   */\n      dup5\n        /* \"#utility.yul\":11717:11720   */\n      dup10\n        /* \"#utility.yul\":11713:11732   */\n      add\n        /* \"#utility.yul\":11707:11733   */\n      mload\n        /* \"#utility.yul\":11765:11813   */\n      tag_252\n        /* \"#utility.yul\":11807:11811   */\n      0x1f\n        /* \"#utility.yul\":11799:11805   */\n      dup10\n        /* \"#utility.yul\":11795:11812   */\n      and\n        /* \"#utility.yul\":11784:11793   */\n      dup3\n        /* \"#utility.yul\":11765:11813   */\n      tag_100\n      jump\t// in\n    tag_252:\n        /* \"#utility.yul\":11757:11763   */\n      dup4\n        /* \"#utility.yul\":11750:11814   */\n      sstore\n        /* \"#utility.yul\":11672:11828   */\n      pop\n        /* \"#utility.yul\":11649:11828   */\n    tag_251:\n        /* \"#utility.yul\":11874:11875   */\n      0x01\n        /* \"#utility.yul\":11870:11871   */\n      0x02\n        /* \"#utility.yul\":11862:11868   */\n      dup9\n        /* \"#utility.yul\":11858:11872   */\n      mul\n        /* \"#utility.yul\":11854:11876   */\n      add\n        /* \"#utility.yul\":11848:11852   */\n      dup9\n        /* \"#utility.yul\":11841:11877   */\n      sstore\n        /* \"#utility.yul\":11276:11887   */\n      pop\n      pop\n      pop\n        /* \"#utility.yul\":11239:12126   */\n    tag_243:\n      pop\n        /* \"#utility.yul\":10829:12132   */\n      pop\n      pop\n      pop\n        /* \"#utility.yul\":10737:12132   */\n      pop\n      pop\n      jump\t// out\n        /* \"#utility.yul\":12138:12318   */\n    tag_32:\n        /* \"#utility.yul\":12186:12263   */\n      0x4e487b7100000000000000000000000000000000000000000000000000000000\n        /* \"#utility.yul\":12183:12184   */\n      0x00\n        /* \"#utility.yul\":12176:12264   */\n      mstore\n        /* \"#utility.yul\":12283:12287   */\n      0x32\n        /* \"#utility.yul\":12280:12281   */\n      0x04\n        /* \"#utility.yul\":12273:12288   */\n      mstore\n        /* \"#utility.yul\":12307:12311   */\n      0x24\n        /* \"#utility.yul\":12304:12305   */\n      0x00\n        /* \"#utility.yul\":12297:12312   */\n      revert\n        /* \"#utility.yul\":12324:12472   */\n    tag_102:\n        /* \"#utility.yul\":12426:12437   */\n      0x00\n        /* \"#utility.yul\":12463:12466   */\n      dup2\n        /* \"#utility.yul\":12448:12466   */\n      swap1\n      pop\n        /* \"#utility.yul\":12324:12472   */\n      swap3\n      swap2\n      pop\n      pop\n      jump\t// out\n        /* \"#utility.yul\":12502:13376   */\n    tag_103:\n        /* \"#utility.yul\":12605:12608   */\n      0x00\n        /* \"#utility.yul\":12642:12647   */\n      dup2\n        /* \"#utility.yul\":12636:12648   */\n      sload\n        /* \"#utility.yul\":12671:12707   */\n      tag_256\n        /* \"#utility.yul\":12697:12706   */\n      dup2\n        /* \"#utility.yul\":12671:12707   */\n      tag_86\n      jump\t// in\n    tag_256:\n        /* \"#utility.yul\":12723:12812   */\n      tag_257\n        /* \"#utility.yul\":12805:12811   */\n      dup2\n        /* \"#utility.yul\":12800:12803   */\n      dup7\n        /* \"#utility.yul\":12723:12812   */\n      tag_102\n      jump\t// in\n    tag_257:\n        /* \"#utility.yul\":12716:12812   */\n      swap5\n      pop\n        /* \"#utility.yul\":12843:12844   */\n      0x01\n        /* \"#utility.yul\":12832:12841   */\n      dup3\n        /* \"#utility.yul\":12828:12845   */\n      and\n        /* \"#utility.yul\":12859:12860   */\n      0x00\n        /* \"#utility.yul\":12854:13020   */\n      dup2\n      eq\n      tag_259\n      jumpi\n        /* \"#utility.yul\":13034:13035   */\n      0x01\n        /* \"#utility.yul\":13029:13370   */\n      dup2\n      eq\n      tag_260\n      jumpi\n        /* \"#utility.yul\":12821:13370   */\n      jump(tag_258)\n        /* \"#utility.yul\":12854:13020   */\n    tag_259:\n        /* \"#utility.yul\":12938:12942   */\n      0xff\n        /* \"#utility.yul\":12934:12943   */\n      not\n        /* \"#utility.yul\":12923:12932   */\n      dup4\n        /* \"#utility.yul\":12919:12944   */\n      and\n        /* \"#utility.yul\":12914:12917   */\n      dup7\n        /* \"#utility.yul\":12907:12945   */\n      mstore\n        /* \"#utility.yul\":13000:13006   */\n      dup2\n        /* \"#utility.yul\":12993:13007   */\n      iszero\n        /* \"#utility.yul\":12986:13008   */\n      iszero\n        /* \"#utility.yul\":12978:12984   */\n      dup3\n        /* \"#utility.yul\":12974:13009   */\n      mul\n        /* \"#utility.yul\":12969:12972   */\n      dup7\n        /* \"#utility.yul\":12965:13010   */\n      add\n        /* \"#utility.yul\":12958:13010   */\n      swap4\n      pop\n        /* \"#utility.yul\":12854:13020   */\n      jump(tag_258)\n        /* \"#utility.yul\":13029:13370   */\n    tag_260:\n        /* \"#utility.yul\":13096:13134   */\n      tag_261\n        /* \"#utility.yul\":13128:13133   */\n      dup6\n        /* \"#utility.yul\":13096:13134   */\n      tag_87\n      jump\t// in\n    tag_261:\n        /* \"#utility.yul\":13156:13157   */\n      0x00\n        /* \"#utility.yul\":13170:13324   */\n    tag_262:\n        /* \"#utility.yul\":13184:13190   */\n      dup4\n        /* \"#utility.yul\":13181:13182   */\n      dup2\n        /* \"#utility.yul\":13178:13191   */\n      lt\n        /* \"#utility.yul\":13170:13324   */\n      iszero\n      tag_264\n      jumpi\n        /* \"#utility.yul\":13258:13265   */\n      dup2\n        /* \"#utility.yul\":13252:13266   */\n      sload\n        /* \"#utility.yul\":13248:13249   */\n      dup2\n        /* \"#utility.yul\":13243:13246   */\n      dup10\n        /* \"#utility.yul\":13239:13250   */\n      add\n        /* \"#utility.yul\":13232:13267   */\n      mstore\n        /* \"#utility.yul\":13308:13309   */\n      0x01\n        /* \"#utility.yul\":13299:13306   */\n      dup3\n        /* \"#utility.yul\":13295:13310   */\n      add\n        /* \"#utility.yul\":13284:13310   */\n      swap2\n      pop\n        /* \"#utility.yul\":13206:13210   */\n      0x20\n        /* \"#utility.yul\":13203:13204   */\n      dup2\n        /* \"#utility.yul\":13199:13211   */\n      add\n        /* \"#utility.yul\":13194:13211   */\n      swap1\n      pop\n        /* \"#utility.yul\":13170:13324   */\n      jump(tag_262)\n    tag_264:\n        /* \"#utility.yul\":13353:13359   */\n      dup4\n        /* \"#utility.yul\":13348:13351   */\n      dup9\n        /* \"#utility.yul\":13344:13360   */\n      add\n        /* \"#utility.yul\":13337:13360   */\n      swap6\n      pop\n        /* \"#utility.yul\":13036:13370   */\n      pop\n      pop\n        /* \"#utility.yul\":12821:13370   */\n    tag_258:\n      pop\n        /* \"#utility.yul\":12609:13376   */\n      pop\n      pop\n        /* \"#utility.yul\":12502:13376   */\n      swap3\n      swap2\n      pop\n      pop\n      jump\t// out\n        /* \"#utility.yul\":13382:13651   */\n    tag_35:\n        /* \"#utility.yul\":13511:13514   */\n      0x00\n        /* \"#utility.yul\":13533:13625   */\n      tag_266\n        /* \"#utility.yul\":13621:13624   */\n      dup3\n        /* \"#utility.yul\":13612:13618   */\n      dup5\n        /* \"#utility.yul\":13533:13625   */\n      tag_103\n      jump\t// in\n    tag_266:\n        /* \"#utility.yul\":13526:13625   */\n      swap2\n      pop\n        /* \"#utility.yul\":13642:13645   */\n      dup2\n        /* \"#utility.yul\":13635:13645   */\n      swap1\n      pop\n        /* \"#utility.yul\":13382:13651   */\n      swap3\n      swap2\n      pop\n      pop\n      jump\t// out\n        /* \"#utility.yul\":13657:13796   */\n    tag_104:\n        /* \"#utility.yul\":13746:13752   */\n      dup3\n        /* \"#utility.yul\":13741:13744   */\n      dup2\n        /* \"#utility.yul\":13736:13739   */\n      dup4\n        /* \"#utility.yul\":13730:13753   */\n      mcopy\n        /* \"#utility.yul\":13787:13788   */\n      0x00\n        /* \"#utility.yul\":13778:13784   */\n      dup4\n        /* \"#utility.yul\":13773:13776   */\n      dup4\n        /* \"#utility.yul\":13769:13785   */\n      add\n        /* \"#utility.yul\":13762:13789   */\n      mstore\n        /* \"#utility.yul\":13657:13796   */\n      pop\n      pop\n      pop\n      jump\t// out\n        /* \"#utility.yul\":13802:14192   */\n    tag_105:\n        /* \"#utility.yul\":13908:13911   */\n      0x00\n        /* \"#utility.yul\":13936:13975   */\n      tag_269\n        /* \"#utility.yul\":13969:13974   */\n      dup3\n        /* \"#utility.yul\":13936:13975   */\n      tag_84\n      jump\t// in\n    tag_269:\n        /* \"#utility.yul\":13991:14080   */\n      tag_270\n        /* \"#utility.yul\":14073:14079   */\n      dup2\n        /* \"#utility.yul\":14068:14071   */\n      dup6\n        /* \"#utility.yul\":13991:14080   */\n      tag_102\n      jump\t// in\n    tag_270:\n        /* \"#utility.yul\":13984:14080   */\n      swap4\n      pop\n        /* \"#utility.yul\":14089:14154   */\n      tag_271\n        /* \"#utility.yul\":14147:14153   */\n      dup2\n        /* \"#utility.yul\":14142:14145   */\n      dup6\n        /* \"#utility.yul\":14135:14139   */\n      0x20\n        /* \"#utility.yul\":14128:14133   */\n      dup7\n        /* \"#utility.yul\":14124:14140   */\n      add\n        /* \"#utility.yul\":14089:14154   */\n      tag_104\n      jump\t// in\n    tag_271:\n        /* \"#utility.yul\":14179:14185   */\n      dup1\n        /* \"#utility.yul\":14174:14177   */\n      dup5\n        /* \"#utility.yul\":14170:14186   */\n      add\n        /* \"#utility.yul\":14163:14186   */\n      swap2\n      pop\n        /* \"#utility.yul\":13912:14192   */\n      pop\n        /* \"#utility.yul\":13802:14192   */\n      swap3\n      swap2\n      pop\n      pop\n      jump\t// out\n        /* \"#utility.yul\":14198:14473   */\n    tag_37:\n        /* \"#utility.yul\":14330:14333   */\n      0x00\n        /* \"#utility.yul\":14352:14447   */\n      tag_273\n        /* \"#utility.yul\":14443:14446   */\n      dup3\n        /* \"#utility.yul\":14434:14440   */\n      dup5\n        /* \"#utility.yul\":14352:14447   */\n      tag_105\n      jump\t// in\n    tag_273:\n        /* \"#utility.yul\":14345:14447   */\n      swap2\n      pop\n        /* \"#utility.yul\":14464:14467   */\n      dup2\n        /* \"#utility.yul\":14457:14467   */\n      swap1\n      pop\n        /* \"#utility.yul\":14198:14473   */\n      swap3\n      swap2\n      pop\n      pop\n      jump\t// out\n        /* \"#utility.yul\":14479:14636   */\n    tag_106:\n        /* \"#utility.yul\":14619:14628   */\n      0x42696f6c6f677900000000000000000000000000000000000000000000000000\n        /* \"#utility.yul\":14615:14616   */\n      0x00\n        /* \"#utility.yul\":14607:14613   */\n      dup3\n        /* \"#utility.yul\":14603:14617   */\n      add\n        /* \"#utility.yul\":14596:14629   */\n      mstore\n        /* \"#utility.yul\":14479:14636   */\n      pop\n      jump\t// out\n        /* \"#utility.yul\":14642:15042   */\n    tag_107:\n        /* \"#utility.yul\":14802:14805   */\n      0x00\n        /* \"#utility.yul\":14823:14907   */\n      tag_276\n        /* \"#utility.yul\":14905:14906   */\n      0x07\n        /* \"#utility.yul\":14900:14903   */\n      dup4\n        /* \"#utility.yul\":14823:14907   */\n      tag_102\n      jump\t// in\n    tag_276:\n        /* \"#utility.yul\":14816:14907   */\n      swap2\n      pop\n        /* \"#utility.yul\":14916:15009   */\n      tag_277\n        /* \"#utility.yul\":15005:15008   */\n      dup3\n        /* \"#utility.yul\":14916:15009   */\n      tag_106\n      jump\t// in\n    tag_277:\n        /* \"#utility.yul\":15034:15035   */\n      0x07\n        /* \"#utility.yul\":15029:15032   */\n      dup3\n        /* \"#utility.yul\":15025:15036   */\n      add\n        /* \"#utility.yul\":15018:15036   */\n      swap1\n      pop\n        /* \"#utility.yul\":14642:15042   */\n      swap2\n      swap1\n      pop\n      jump\t// out\n        /* \"#utility.yul\":15048:15429   */\n    tag_40:\n        /* \"#utility.yul\":15233:15236   */\n      0x00\n        /* \"#utility.yul\":15255:15403   */\n      tag_279\n        /* \"#utility.yul\":15399:15402   */\n      dup3\n        /* \"#utility.yul\":15255:15403   */\n      tag_107\n      jump\t// in\n    tag_279:\n        /* \"#utility.yul\":15248:15403   */\n      swap2\n      pop\n        /* \"#utility.yul\":15420:15423   */\n      dup2\n        /* \"#utility.yul\":15413:15423   */\n      swap1\n      pop\n        /* \"#utility.yul\":15048:15429   */\n      swap2\n      swap1\n      pop\n      jump\t// out\n        /* \"#utility.yul\":15435:15589   */\n    tag_108:\n        /* \"#utility.yul\":15575:15581   */\n      0x4d61746800000000000000000000000000000000000000000000000000000000\n        /* \"#utility.yul\":15571:15572   */\n      0x00\n        /* \"#utility.yul\":15563:15569   */\n      dup3\n        /* \"#utility.yul\":15559:15573   */\n      add\n        /* \"#utility.yul\":15552:15582   */\n      mstore\n        /* \"#utility.yul\":15435:15589   */\n      pop\n      jump\t// out\n        /* \"#utility.yul\":15595:15995   */\n    tag_109:\n        /* \"#utility.yul\":15755:15758   */\n      0x00\n        /* \"#utility.yul\":15776:15860   */\n      tag_282\n        /* \"#utility.yul\":15858:15859   */\n      0x04\n        /* \"#utility.yul\":15853:15856   */\n      dup4\n        /* \"#utility.yul\":15776:15860   */\n      tag_102\n      jump\t// in\n    tag_282:\n        /* \"#utility.yul\":15769:15860   */\n      swap2\n      pop\n        /* \"#utility.yul\":15869:15962   */\n      tag_283\n        /* \"#utility.yul\":15958:15961   */\n      dup3\n        /* \"#utility.yul\":15869:15962   */\n      tag_108\n      jump\t// in\n    tag_283:\n        /* \"#utility.yul\":15987:15988   */\n      0x04\n        /* \"#utility.yul\":15982:15985   */\n      dup3\n        /* \"#utility.yul\":15978:15989   */\n      add\n        /* \"#utility.yul\":15971:15989   */\n      swap1\n      pop\n        /* \"#utility.yul\":15595:15995   */\n      swap2\n      swap1\n      pop\n      jump\t// out\n        /* \"#utility.yul\":16001:16382   */\n    tag_47:\n        /* \"#utility.yul\":16186:16189   */\n      0x00\n        /* \"#utility.yul\":16208:16356   */\n      tag_285\n        /* \"#utility.yul\":16352:16355   */\n      dup3\n        /* \"#utility.yul\":16208:16356   */\n      tag_109\n      jump\t// in\n    tag_285:\n        /* \"#utility.yul\":16201:16356   */\n      swap2\n      pop\n        /* \"#utility.yul\":16373:16376   */\n      dup2\n        /* \"#utility.yul\":16366:16376   */\n      swap1\n      pop\n        /* \"#utility.yul\":16001:16382   */\n      swap2\n      swap1\n      pop\n      jump\t// out\n        /* \"#utility.yul\":16388:16540   */\n    tag_110:\n        /* \"#utility.yul\":16528:16532   */\n      0x4672000000000000000000000000000000000000000000000000000000000000\n        /* \"#utility.yul\":16524:16525   */\n      0x00\n        /* \"#utility.yul\":16516:16522   */\n      dup3\n        /* \"#utility.yul\":16512:16526   */\n      add\n        /* \"#utility.yul\":16505:16533   */\n      mstore\n        /* \"#utility.yul\":16388:16540   */\n      pop\n      jump\t// out\n        /* \"#utility.yul\":16546:16946   */\n    tag_111:\n        /* \"#utility.yul\":16706:16709   */\n      0x00\n        /* \"#utility.yul\":16727:16811   */\n      tag_288\n        /* \"#utility.yul\":16809:16810   */\n      0x02\n        /* \"#utility.yul\":16804:16807   */\n      dup4\n        /* \"#utility.yul\":16727:16811   */\n      tag_102\n      jump\t// in\n    tag_288:\n        /* \"#utility.yul\":16720:16811   */\n      swap2\n      pop\n        /* \"#utility.yul\":16820:16913   */\n      tag_289\n        /* \"#utility.yul\":16909:16912   */\n      dup3\n        /* \"#utility.yul\":16820:16913   */\n      tag_110\n      jump\t// in\n    tag_289:\n        /* \"#utility.yul\":16938:16939   */\n      0x02\n        /* \"#utility.yul\":16933:16936   */\n      dup3\n        /* \"#utility.yul\":16929:16940   */\n      add\n        /* \"#utility.yul\":16922:16940   */\n      swap1\n      pop\n        /* \"#utility.yul\":16546:16946   */\n      swap2\n      swap1\n      pop\n      jump\t// out\n        /* \"#utility.yul\":16952:17333   */\n    tag_54:\n        /* \"#utility.yul\":17137:17140   */\n      0x00\n        /* \"#utility.yul\":17159:17307   */\n      tag_291\n        /* \"#utility.yul\":17303:17306   */\n      dup3\n        /* \"#utility.yul\":17159:17307   */\n      tag_111\n      jump\t// in\n    tag_291:\n        /* \"#utility.yul\":17152:17307   */\n      swap2\n      pop\n        /* \"#utility.yul\":17324:17327   */\n      dup2\n        /* \"#utility.yul\":17317:17327   */\n      swap1\n      pop\n        /* \"#utility.yul\":16952:17333   */\n      swap2\n      swap1\n      pop\n      jump\t// out\n\n    auxdata: 0xa2646970667358221220205aac81c11b07dcb7efacb0543c86924ac607b787401afec419d94b81d078ce64736f6c634300081c0033\n}\n",
				"bytecode": {
					"linkReferences": {},
					"object": "6080604052348015600e575f5ffd5b50610c6e8061001c5f395ff3fe608060405234801561000f575f5ffd5b506004361061003f575f3560e01c80638f5b9b2e146100435780639863a3261461005f578063f947387c1461007b575b5f5ffd5b61005d6004803603810190610058919061051c565b6100ab565b005b61007960048036038101906100749190610642565b6100f9565b005b61009560048036038101906100909190610689565b61015e565b6040516100a2919061070e565b60405180910390f35b805f5f8473ffffffffffffffffffffffffffffffffffffffff1673ffffffffffffffffffffffffffffffffffffffff1681526020019081526020015f2090816100f4919061092e565b505050565b5f819050600181908060018154018082558091505060019003905f5260205f2090600402015f909190919091505f820151815f019081610139919061092e565b5060208201518160010155604082015181600201556060820151816003015550505050565b5f5f5f90505b60018054905081101561036a5760018181548110610185576101846109fd565b5b905f5260205f2090600402015f016040516020016101a39190610ab4565b60405160208183030381529060405280519060200120846040516020016101ca9190610b08565b604051602081830303815290604052805190602001200361035d576040516020016101f490610b68565b604051602081830303815290604052805190602001208360405160200161021b9190610b08565b6040516020818303038152906040528051906020012003610262576001818154811061024a576102496109fd565b5b905f5260205f2090600402016001015491505061036f565b60405160200161027190610bc6565b60405160208183030381529060405280519060200120836040516020016102989190610b08565b60405160208183030381529060405280519060200120036102df57600181815481106102c7576102c66109fd565b5b905f5260205f2090600402016002015491505061036f565b6040516020016102ee90610c24565b60405160208183030381529060405280519060200120836040516020016103159190610b08565b604051602081830303815290604052805190602001200361035c5760018181548110610344576103436109fd565b5b905f5260205f2090600402016003015491505061036f565b5b8080600101915050610164565b505f90505b92915050565b5f604051905090565b5f5ffd5b5f5ffd5b5f73ffffffffffffffffffffffffffffffffffffffff82169050919050565b5f6103af82610386565b9050919050565b6103bf816103a5565b81146103c9575f5ffd5b50565b5f813590506103da816103b6565b92915050565b5f5ffd5b5f5ffd5b5f601f19601f8301169050919050565b7f4e487b71000000000000000000000000000000000000000000000000000000005f52604160045260245ffd5b61042e826103e8565b810181811067ffffffffffffffff8211171561044d5761044c6103f8565b5b80604052505050565b5f61045f610375565b905061046b8282610425565b919050565b5f67ffffffffffffffff82111561048a576104896103f8565b5b610493826103e8565b9050602081019050919050565b828183375f83830152505050565b5f6104c06104bb84610470565b610456565b9050828152602081018484840111156104dc576104db6103e4565b5b6104e78482856104a0565b509392505050565b5f82601f830112610503576105026103e0565b5b81356105138482602086016104ae565b91505092915050565b5f5f604083850312156105325761053161037e565b5b5f61053f858286016103cc565b925050602083013567ffffffffffffffff8111156105605761055f610382565b5b61056c858286016104ef565b9150509250929050565b5f5ffd5b5f5ffd5b5f819050919050565b6105908161057e565b811461059a575f5ffd5b50565b5f813590506105ab81610587565b92915050565b5f608082840312156105c6576105c5610576565b5b6105d06080610456565b90505f82013567ffffffffffffffff8111156105ef576105ee61057a565b5b6105fb848285016104ef565b5f83015250602061060e8482850161059d565b60208301525060406106228482850161059d565b60408301525060606106368482850161059d565b60608301525092915050565b5f602082840312156106575761065661037e565b5b5f82013567ffffffffffffffff81111561067457610673610382565b5b610680848285016105b1565b91505092915050565b5f5f6040838503121561069f5761069e61037e565b5b5f83013567ffffffffffffffff8111156106bc576106bb610382565b5b6106c8858286016104ef565b925050602083013567ffffffffffffffff8111156106e9576106e8610382565b5b6106f5858286016104ef565b9150509250929050565b6107088161057e565b82525050565b5f6020820190506107215f8301846106ff565b92915050565b5f81519050919050565b7f4e487b71000000000000000000000000000000000000000000000000000000005f52602260045260245ffd5b5f600282049050600182168061077557607f821691505b60208210810361078857610787610731565b5b50919050565b5f819050815f5260205f209050919050565b5f6020601f8301049050919050565b5f82821b905092915050565b5f600883026107ea7fffffffffffffffffffffffffffffffffffffffffffffffffffffffffffffffff826107af565b6107f486836107af565b95508019841693508086168417925050509392505050565b5f819050919050565b5f61082f61082a6108258461057e565b61080c565b61057e565b9050919050565b5f819050919050565b61084883610815565b61085c61085482610836565b8484546107bb565b825550505050565b5f5f905090565b610873610864565b61087e81848461083f565b505050565b5b818110156108a1576108965f8261086b565b600181019050610884565b5050565b601f8211156108e6576108b78161078e565b6108c0846107a0565b810160208510156108cf578190505b6108e36108db856107a0565b830182610883565b50505b505050565b5f82821c905092915050565b5f6109065f19846008026108eb565b1980831691505092915050565b5f61091e83836108f7565b9150826002028217905092915050565b61093782610727565b67ffffffffffffffff8111156109505761094f6103f8565b5b61095a825461075e565b6109658282856108a5565b5f60209050601f831160018114610996575f8415610984578287015190505b61098e8582610913565b8655506109f5565b601f1984166109a48661078e565b5f5b828110156109cb578489015182556001820191506020850194506020810190506109a6565b868310156109e857848901516109e4601f8916826108f7565b8355505b6001600288020188555050505b505050505050565b7f4e487b71000000000000000000000000000000000000000000000000000000005f52603260045260245ffd5b5f81905092915050565b5f8154610a408161075e565b610a4a8186610a2a565b9450600182165f8114610a645760018114610a7957610aab565b60ff1983168652811515820286019350610aab565b610a828561078e565b5f5b83811015610aa357815481890152600182019150602081019050610a84565b838801955050505b50505092915050565b5f610abf8284610a34565b915081905092915050565b8281835e5f83830152505050565b5f610ae282610727565b610aec8185610a2a565b9350610afc818560208601610aca565b80840191505092915050565b5f610b138284610ad8565b915081905092915050565b7f42696f6c6f6779000000000000000000000000000000000000000000000000005f82015250565b5f610b52600783610a2a565b9150610b5d82610b1e565b600782019050919050565b5f610b7282610b46565b9150819050919050565b7f4d617468000000000000000000000000000000000000000000000000000000005f82015250565b5f610bb0600483610a2a565b9150610bbb82610b7c565b600482019050919050565b5f610bd082610ba4565b9150819050919050565b7f46720000000000000000000000000000000000000000000000000000000000005f82015250565b5f610c0e600283610a2a565b9150610c1982610bda565b600282019050919050565b5f610c2e82610c02565b915081905091905056fea2646970667358221220205aac81c11b07dcb7efacb0543c86924ac607b787401afec419d94b81d078ce64736f6c634300081c0033",
					"opcodes": "PUSH1 0x80 PUSH1 0x40 MSTORE CALLVALUE DUP1 ISZERO PUSH1 0xE JUMPI PUSH0 PUSH0 REVERT JUMPDEST POP PUSH2 0xC6E DUP1 PUSH2 0x1C PUSH0 CODECOPY PUSH0 RETURN INVALID PUSH1 0x80 PUSH1 0x40 MSTORE CALLVALUE DUP1 ISZERO PUSH2 0xF JUMPI PUSH0 PUSH0 REVERT JUMPDEST POP PUSH1 0x4 CALLDATASIZE LT PUSH2 0x3F JUMPI PUSH0 CALLDATALOAD PUSH1 0xE0 SHR DUP1 PUSH4 0x8F5B9B2E EQ PUSH2 0x43 JUMPI DUP1 PUSH4 0x9863A326 EQ PUSH2 0x5F JUMPI DUP1 PUSH4 0xF947387C EQ PUSH2 0x7B JUMPI JUMPDEST PUSH0 PUSH0 REVERT JUMPDEST PUSH2 0x5D PUSH1 0x4 DUP1 CALLDATASIZE SUB DUP2 ADD SWAP1 PUSH2 0x58 SWAP2 SWAP1 PUSH2 0x51C JUMP JUMPDEST PUSH2 0xAB JUMP JUMPDEST STOP JUMPDEST PUSH2 0x79 PUSH1 0x4 DUP1 CALLDATASIZE SUB DUP2 ADD SWAP1 PUSH2 0x74 SWAP2 SWAP1 PUSH2 0x642 JUMP JUMPDEST PUSH2 0xF9 JUMP JUMPDEST STOP JUMPDEST PUSH2 0x95 PUSH1 0x4 DUP1 CALLDATASIZE SUB DUP2 ADD SWAP1 PUSH2 0x90 SWAP2 SWAP1 PUSH2 0x689 JUMP JUMPDEST PUSH2 0x15E JUMP JUMPDEST PUSH1 0x40 MLOAD PUSH2 0xA2 SWAP2 SWAP1 PUSH2 0x70E JUMP JUMPDEST PUSH1 0x40 MLOAD DUP1 SWAP2 SUB SWAP1 RETURN JUMPDEST DUP1 PUSH0 PUSH0 DUP5 PUSH20 0xFFFFFFFFFFFFFFFFFFFFFFFFFFFFFFFFFFFFFFFF AND PUSH20 0xFFFFFFFFFFFFFFFFFFFFFFFFFFFFFFFFFFFFFFFF AND DUP2 MSTORE PUSH1 0x20 ADD SWAP1 DUP2 MSTORE PUSH1 0x20 ADD PUSH0 KECCAK256 SWAP1 DUP2 PUSH2 0xF4 SWAP2 SWAP1 PUSH2 0x92E JUMP JUMPDEST POP POP POP JUMP JUMPDEST PUSH0 DUP2 SWAP1 POP PUSH1 0x1 DUP2 SWAP1 DUP1 PUSH1 0x1 DUP2 SLOAD ADD DUP1 DUP3 SSTORE DUP1 SWAP2 POP POP PUSH1 0x1 SWAP1 SUB SWAP1 PUSH0 MSTORE PUSH1 0x20 PUSH0 KECCAK256 SWAP1 PUSH1 0x4 MUL ADD PUSH0 SWAP1 SWAP2 SWAP1 SWAP2 SWAP1 SWAP2 POP PUSH0 DUP3 ADD MLOAD DUP2 PUSH0 ADD SWAP1 DUP2 PUSH2 0x139 SWAP2 SWAP1 PUSH2 0x92E JUMP JUMPDEST POP PUSH1 0x20 DUP3 ADD MLOAD DUP2 PUSH1 0x1 ADD SSTORE PUSH1 0x40 DUP3 ADD MLOAD DUP2 PUSH1 0x2 ADD SSTORE PUSH1 0x60 DUP3 ADD MLOAD DUP2 PUSH1 0x3 ADD SSTORE POP POP POP POP JUMP JUMPDEST PUSH0 PUSH0 PUSH0 SWAP1 POP JUMPDEST PUSH1 0x1 DUP1 SLOAD SWAP1 POP DUP2 LT ISZERO PUSH2 0x36A JUMPI PUSH1 0x1 DUP2 DUP2 SLOAD DUP2 LT PUSH2 0x185 JUMPI PUSH2 0x184 PUSH2 0x9FD JUMP JUMPDEST JUMPDEST SWAP1 PUSH0 MSTORE PUSH1 0x20 PUSH0 KECCAK256 SWAP1 PUSH1 0x4 MUL ADD PUSH0 ADD PUSH1 0x40 MLOAD PUSH1 0x20 ADD PUSH2 0x1A3 SWAP2 SWAP1 PUSH2 0xAB4 JUMP JUMPDEST PUSH1 0x40 MLOAD PUSH1 0x20 DUP2 DUP4 SUB SUB DUP2 MSTORE SWAP1 PUSH1 0x40 MSTORE DUP1 MLOAD SWAP1 PUSH1 0x20 ADD KECCAK256 DUP5 PUSH1 0x40 MLOAD PUSH1 0x20 ADD PUSH2 0x1CA SWAP2 SWAP1 PUSH2 0xB08 JUMP JUMPDEST PUSH1 0x40 MLOAD PUSH1 0x20 DUP2 DUP4 SUB SUB DUP2 MSTORE SWAP1 PUSH1 0x40 MSTORE DUP1 MLOAD SWAP1 PUSH1 0x20 ADD KECCAK256 SUB PUSH2 0x35D JUMPI PUSH1 0x40 MLOAD PUSH1 0x20 ADD PUSH2 0x1F4 SWAP1 PUSH2 0xB68 JUMP JUMPDEST PUSH1 0x40 MLOAD PUSH1 0x20 DUP2 DUP4 SUB SUB DUP2 MSTORE SWAP1 PUSH1 0x40 MSTORE DUP1 MLOAD SWAP1 PUSH1 0x20 ADD KECCAK256 DUP4 PUSH1 0x40 MLOAD PUSH1 0x20 ADD PUSH2 0x21B SWAP2 SWAP1 PUSH2 0xB08 JUMP JUMPDEST PUSH1 0x40 MLOAD PUSH1 0x20 DUP2 DUP4 SUB SUB DUP2 MSTORE SWAP1 PUSH1 0x40 MSTORE DUP1 MLOAD SWAP1 PUSH1 0x20 ADD KECCAK256 SUB PUSH2 0x262 JUMPI PUSH1 0x1 DUP2 DUP2 SLOAD DUP2 LT PUSH2 0x24A JUMPI PUSH2 0x249 PUSH2 0x9FD JUMP JUMPDEST JUMPDEST SWAP1 PUSH0 MSTORE PUSH1 0x20 PUSH0 KECCAK256 SWAP1 PUSH1 0x4 MUL ADD PUSH1 0x1 ADD SLOAD SWAP2 POP POP PUSH2 0x36F JUMP JUMPDEST PUSH1 0x40 MLOAD PUSH1 0x20 ADD PUSH2 0x271 SWAP1 PUSH2 0xBC6 JUMP JUMPDEST PUSH1 0x40 MLOAD PUSH1 0x20 DUP2 DUP4 SUB SUB DUP2 MSTORE SWAP1 PUSH1 0x40 MSTORE DUP1 MLOAD SWAP1 PUSH1 0x20 ADD KECCAK256 DUP4 PUSH1 0x40 MLOAD PUSH1 0x20 ADD PUSH2 0x298 SWAP2 SWAP1 PUSH2 0xB08 JUMP JUMPDEST PUSH1 0x40 MLOAD PUSH1 0x20 DUP2 DUP4 SUB SUB DUP2 MSTORE SWAP1 PUSH1 0x40 MSTORE DUP1 MLOAD SWAP1 PUSH1 0x20 ADD KECCAK256 SUB PUSH2 0x2DF JUMPI PUSH1 0x1 DUP2 DUP2 SLOAD DUP2 LT PUSH2 0x2C7 JUMPI PUSH2 0x2C6 PUSH2 0x9FD JUMP JUMPDEST JUMPDEST SWAP1 PUSH0 MSTORE PUSH1 0x20 PUSH0 KECCAK256 SWAP1 PUSH1 0x4 MUL ADD PUSH1 0x2 ADD SLOAD SWAP2 POP POP PUSH2 0x36F JUMP JUMPDEST PUSH1 0x40 MLOAD PUSH1 0x20 ADD PUSH2 0x2EE SWAP1 PUSH2 0xC24 JUMP JUMPDEST PUSH1 0x40 MLOAD PUSH1 0x20 DUP2 DUP4 SUB SUB DUP2 MSTORE SWAP1 PUSH1 0x40 MSTORE DUP1 MLOAD SWAP1 PUSH1 0x20 ADD KECCAK256 DUP4 PUSH1 0x40 MLOAD PUSH1 0x20 ADD PUSH2 0x315 SWAP2 SWAP1 PUSH2 0xB08 JUMP JUMPDEST PUSH1 0x40 MLOAD PUSH1 0x20 DUP2 DUP4 SUB SUB DUP2 MSTORE SWAP1 PUSH1 0x40 MSTORE DUP1 MLOAD SWAP1 PUSH1 0x20 ADD KECCAK256 SUB PUSH2 0x35C JUMPI PUSH1 0x1 DUP2 DUP2 SLOAD DUP2 LT PUSH2 0x344 JUMPI PUSH2 0x343 PUSH2 0x9FD JUMP JUMPDEST JUMPDEST SWAP1 PUSH0 MSTORE PUSH1 0x20 PUSH0 KECCAK256 SWAP1 PUSH1 0x4 MUL ADD PUSH1 0x3 ADD SLOAD SWAP2 POP POP PUSH2 0x36F JUMP JUMPDEST JUMPDEST DUP1 DUP1 PUSH1 0x1 ADD SWAP2 POP POP PUSH2 0x164 JUMP JUMPDEST POP PUSH0 SWAP1 POP JUMPDEST SWAP3 SWAP2 POP POP JUMP JUMPDEST PUSH0 PUSH1 0x40 MLOAD SWAP1 POP SWAP1 JUMP JUMPDEST PUSH0 PUSH0 REVERT JUMPDEST PUSH0 PUSH0 REVERT JUMPDEST PUSH0 PUSH20 0xFFFFFFFFFFFFFFFFFFFFFFFFFFFFFFFFFFFFFFFF DUP3 AND SWAP1 POP SWAP2 SWAP1 POP JUMP JUMPDEST PUSH0 PUSH2 0x3AF DUP3 PUSH2 0x386 JUMP JUMPDEST SWAP1 POP SWAP2 SWAP1 POP JUMP JUMPDEST PUSH2 0x3BF DUP2 PUSH2 0x3A5 JUMP JUMPDEST DUP2 EQ PUSH2 0x3C9 JUMPI PUSH0 PUSH0 REVERT JUMPDEST POP JUMP JUMPDEST PUSH0 DUP2 CALLDATALOAD SWAP1 POP PUSH2 0x3DA DUP2 PUSH2 0x3B6 JUMP JUMPDEST SWAP3 SWAP2 POP POP JUMP JUMPDEST PUSH0 PUSH0 REVERT JUMPDEST PUSH0 PUSH0 REVERT JUMPDEST PUSH0 PUSH1 0x1F NOT PUSH1 0x1F DUP4 ADD AND SWAP1 POP SWAP2 SWAP1 POP JUMP JUMPDEST PUSH32 0x4E487B7100000000000000000000000000000000000000000000000000000000 PUSH0 MSTORE PUSH1 0x41 PUSH1 0x4 MSTORE PUSH1 0x24 PUSH0 REVERT JUMPDEST PUSH2 0x42E DUP3 PUSH2 0x3E8 JUMP JUMPDEST DUP2 ADD DUP2 DUP2 LT PUSH8 0xFFFFFFFFFFFFFFFF DUP3 GT OR ISZERO PUSH2 0x44D JUMPI PUSH2 0x44C PUSH2 0x3F8 JUMP JUMPDEST JUMPDEST DUP1 PUSH1 0x40 MSTORE POP POP POP JUMP JUMPDEST PUSH0 PUSH2 0x45F PUSH2 0x375 JUMP JUMPDEST SWAP1 POP PUSH2 0x46B DUP3 DUP3 PUSH2 0x425 JUMP JUMPDEST SWAP2 SWAP1 POP JUMP JUMPDEST PUSH0 PUSH8 0xFFFFFFFFFFFFFFFF DUP3 GT ISZERO PUSH2 0x48A JUMPI PUSH2 0x489 PUSH2 0x3F8 JUMP JUMPDEST JUMPDEST PUSH2 0x493 DUP3 PUSH2 0x3E8 JUMP JUMPDEST SWAP1 POP PUSH1 0x20 DUP2 ADD SWAP1 POP SWAP2 SWAP1 POP JUMP JUMPDEST DUP3 DUP2 DUP4 CALLDATACOPY PUSH0 DUP4 DUP4 ADD MSTORE POP POP POP JUMP JUMPDEST PUSH0 PUSH2 0x4C0 PUSH2 0x4BB DUP5 PUSH2 0x470 JUMP JUMPDEST PUSH2 0x456 JUMP JUMPDEST SWAP1 POP DUP3 DUP2 MSTORE PUSH1 0x20 DUP2 ADD DUP5 DUP5 DUP5 ADD GT ISZERO PUSH2 0x4DC JUMPI PUSH2 0x4DB PUSH2 0x3E4 JUMP JUMPDEST JUMPDEST PUSH2 0x4E7 DUP5 DUP3 DUP6 PUSH2 0x4A0 JUMP JUMPDEST POP SWAP4 SWAP3 POP POP POP JUMP JUMPDEST PUSH0 DUP3 PUSH1 0x1F DUP4 ADD SLT PUSH2 0x503 JUMPI PUSH2 0x502 PUSH2 0x3E0 JUMP JUMPDEST JUMPDEST DUP2 CALLDATALOAD PUSH2 0x513 DUP5 DUP3 PUSH1 0x20 DUP7 ADD PUSH2 0x4AE JUMP JUMPDEST SWAP2 POP POP SWAP3 SWAP2 POP POP JUMP JUMPDEST PUSH0 PUSH0 PUSH1 0x40 DUP4 DUP6 SUB SLT ISZERO PUSH2 0x532 JUMPI PUSH2 0x531 PUSH2 0x37E JUMP JUMPDEST JUMPDEST PUSH0 PUSH2 0x53F DUP6 DUP3 DUP7 ADD PUSH2 0x3CC JUMP JUMPDEST SWAP3 POP POP PUSH1 0x20 DUP4 ADD CALLDATALOAD PUSH8 0xFFFFFFFFFFFFFFFF DUP2 GT ISZERO PUSH2 0x560 JUMPI PUSH2 0x55F PUSH2 0x382 JUMP JUMPDEST JUMPDEST PUSH2 0x56C DUP6 DUP3 DUP7 ADD PUSH2 0x4EF JUMP JUMPDEST SWAP2 POP POP SWAP3 POP SWAP3 SWAP1 POP JUMP JUMPDEST PUSH0 PUSH0 REVERT JUMPDEST PUSH0 PUSH0 REVERT JUMPDEST PUSH0 DUP2 SWAP1 POP SWAP2 SWAP1 POP JUMP JUMPDEST PUSH2 0x590 DUP2 PUSH2 0x57E JUMP JUMPDEST DUP2 EQ PUSH2 0x59A JUMPI PUSH0 PUSH0 REVERT JUMPDEST POP JUMP JUMPDEST PUSH0 DUP2 CALLDATALOAD SWAP1 POP PUSH2 0x5AB DUP2 PUSH2 0x587 JUMP JUMPDEST SWAP3 SWAP2 POP POP JUMP JUMPDEST PUSH0 PUSH1 0x80 DUP3 DUP5 SUB SLT ISZERO PUSH2 0x5C6 JUMPI PUSH2 0x5C5 PUSH2 0x576 JUMP JUMPDEST JUMPDEST PUSH2 0x5D0 PUSH1 0x80 PUSH2 0x456 JUMP JUMPDEST SWAP1 POP PUSH0 DUP3 ADD CALLDATALOAD PUSH8 0xFFFFFFFFFFFFFFFF DUP2 GT ISZERO PUSH2 0x5EF JUMPI PUSH2 0x5EE PUSH2 0x57A JUMP JUMPDEST JUMPDEST PUSH2 0x5FB DUP5 DUP3 DUP6 ADD PUSH2 0x4EF JUMP JUMPDEST PUSH0 DUP4 ADD MSTORE POP PUSH1 0x20 PUSH2 0x60E DUP5 DUP3 DUP6 ADD PUSH2 0x59D JUMP JUMPDEST PUSH1 0x20 DUP4 ADD MSTORE POP PUSH1 0x40 PUSH2 0x622 DUP5 DUP3 DUP6 ADD PUSH2 0x59D JUMP JUMPDEST PUSH1 0x40 DUP4 ADD MSTORE POP PUSH1 0x60 PUSH2 0x636 DUP5 DUP3 DUP6 ADD PUSH2 0x59D JUMP JUMPDEST PUSH1 0x60 DUP4 ADD MSTORE POP SWAP3 SWAP2 POP POP JUMP JUMPDEST PUSH0 PUSH1 0x20 DUP3 DUP5 SUB SLT ISZERO PUSH2 0x657 JUMPI PUSH2 0x656 PUSH2 0x37E JUMP JUMPDEST JUMPDEST PUSH0 DUP3 ADD CALLDATALOAD PUSH8 0xFFFFFFFFFFFFFFFF DUP2 GT ISZERO PUSH2 0x674 JUMPI PUSH2 0x673 PUSH2 0x382 JUMP JUMPDEST JUMPDEST PUSH2 0x680 DUP5 DUP3 DUP6 ADD PUSH2 0x5B1 JUMP JUMPDEST SWAP2 POP POP SWAP3 SWAP2 POP POP JUMP JUMPDEST PUSH0 PUSH0 PUSH1 0x40 DUP4 DUP6 SUB SLT ISZERO PUSH2 0x69F JUMPI PUSH2 0x69E PUSH2 0x37E JUMP JUMPDEST JUMPDEST PUSH0 DUP4 ADD CALLDATALOAD PUSH8 0xFFFFFFFFFFFFFFFF DUP2 GT ISZERO PUSH2 0x6BC JUMPI PUSH2 0x6BB PUSH2 0x382 JUMP JUMPDEST JUMPDEST PUSH2 0x6C8 DUP6 DUP3 DUP7 ADD PUSH2 0x4EF JUMP JUMPDEST SWAP3 POP POP PUSH1 0x20 DUP4 ADD CALLDATALOAD PUSH8 0xFFFFFFFFFFFFFFFF DUP2 GT ISZERO PUSH2 0x6E9 JUMPI PUSH2 0x6E8 PUSH2 0x382 JUMP JUMPDEST JUMPDEST PUSH2 0x6F5 DUP6 DUP3 DUP7 ADD PUSH2 0x4EF JUMP JUMPDEST SWAP2 POP POP SWAP3 POP SWAP3 SWAP1 POP JUMP JUMPDEST PUSH2 0x708 DUP2 PUSH2 0x57E JUMP JUMPDEST DUP3 MSTORE POP POP JUMP JUMPDEST PUSH0 PUSH1 0x20 DUP3 ADD SWAP1 POP PUSH2 0x721 PUSH0 DUP4 ADD DUP5 PUSH2 0x6FF JUMP JUMPDEST SWAP3 SWAP2 POP POP JUMP JUMPDEST PUSH0 DUP2 MLOAD SWAP1 POP SWAP2 SWAP1 POP JUMP JUMPDEST PUSH32 0x4E487B7100000000000000000000000000000000000000000000000000000000 PUSH0 MSTORE PUSH1 0x22 PUSH1 0x4 MSTORE PUSH1 0x24 PUSH0 REVERT JUMPDEST PUSH0 PUSH1 0x2 DUP3 DIV SWAP1 POP PUSH1 0x1 DUP3 AND DUP1 PUSH2 0x775 JUMPI PUSH1 0x7F DUP3 AND SWAP2 POP JUMPDEST PUSH1 0x20 DUP3 LT DUP2 SUB PUSH2 0x788 JUMPI PUSH2 0x787 PUSH2 0x731 JUMP JUMPDEST JUMPDEST POP SWAP2 SWAP1 POP JUMP JUMPDEST PUSH0 DUP2 SWAP1 POP DUP2 PUSH0 MSTORE PUSH1 0x20 PUSH0 KECCAK256 SWAP1 POP SWAP2 SWAP1 POP JUMP JUMPDEST PUSH0 PUSH1 0x20 PUSH1 0x1F DUP4 ADD DIV SWAP1 POP SWAP2 SWAP1 POP JUMP JUMPDEST PUSH0 DUP3 DUP3 SHL SWAP1 POP SWAP3 SWAP2 POP POP JUMP JUMPDEST PUSH0 PUSH1 0x8 DUP4 MUL PUSH2 0x7EA PUSH32 0xFFFFFFFFFFFFFFFFFFFFFFFFFFFFFFFFFFFFFFFFFFFFFFFFFFFFFFFFFFFFFFFF DUP3 PUSH2 0x7AF JUMP JUMPDEST PUSH2 0x7F4 DUP7 DUP4 PUSH2 0x7AF JUMP JUMPDEST SWAP6 POP DUP1 NOT DUP5 AND SWAP4 POP DUP1 DUP7 AND DUP5 OR SWAP3 POP POP POP SWAP4 SWAP3 POP POP POP JUMP JUMPDEST PUSH0 DUP2 SWAP1 POP SWAP2 SWAP1 POP JUMP JUMPDEST PUSH0 PUSH2 0x82F PUSH2 0x82A PUSH2 0x825 DUP5 PUSH2 0x57E JUMP JUMPDEST PUSH2 0x80C JUMP JUMPDEST PUSH2 0x57E JUMP JUMPDEST SWAP1 POP SWAP2 SWAP1 POP JUMP JUMPDEST PUSH0 DUP2 SWAP1 POP SWAP2 SWAP1 POP JUMP JUMPDEST PUSH2 0x848 DUP4 PUSH2 0x815 JUMP JUMPDEST PUSH2 0x85C PUSH2 0x854 DUP3 PUSH2 0x836 JUMP JUMPDEST DUP5 DUP5 SLOAD PUSH2 0x7BB JUMP JUMPDEST DUP3 SSTORE POP POP POP POP JUMP JUMPDEST PUSH0 PUSH0 SWAP1 POP SWAP1 JUMP JUMPDEST PUSH2 0x873 PUSH2 0x864 JUMP JUMPDEST PUSH2 0x87E DUP2 DUP5 DUP5 PUSH2 0x83F JUMP JUMPDEST POP POP POP JUMP JUMPDEST JUMPDEST DUP2 DUP2 LT ISZERO PUSH2 0x8A1 JUMPI PUSH2 0x896 PUSH0 DUP3 PUSH2 0x86B JUMP JUMPDEST PUSH1 0x1 DUP2 ADD SWAP1 POP PUSH2 0x884 JUMP JUMPDEST POP POP JUMP JUMPDEST PUSH1 0x1F DUP3 GT ISZERO PUSH2 0x8E6 JUMPI PUSH2 0x8B7 DUP2 PUSH2 0x78E JUMP JUMPDEST PUSH2 0x8C0 DUP5 PUSH2 0x7A0 JUMP JUMPDEST DUP2 ADD PUSH1 0x20 DUP6 LT ISZERO PUSH2 0x8CF JUMPI DUP2 SWAP1 POP JUMPDEST PUSH2 0x8E3 PUSH2 0x8DB DUP6 PUSH2 0x7A0 JUMP JUMPDEST DUP4 ADD DUP3 PUSH2 0x883 JUMP JUMPDEST POP POP JUMPDEST POP POP POP JUMP JUMPDEST PUSH0 DUP3 DUP3 SHR SWAP1 POP SWAP3 SWAP2 POP POP JUMP JUMPDEST PUSH0 PUSH2 0x906 PUSH0 NOT DUP5 PUSH1 0x8 MUL PUSH2 0x8EB JUMP JUMPDEST NOT DUP1 DUP4 AND SWAP2 POP POP SWAP3 SWAP2 POP POP JUMP JUMPDEST PUSH0 PUSH2 0x91E DUP4 DUP4 PUSH2 0x8F7 JUMP JUMPDEST SWAP2 POP DUP3 PUSH1 0x2 MUL DUP3 OR SWAP1 POP SWAP3 SWAP2 POP POP JUMP JUMPDEST PUSH2 0x937 DUP3 PUSH2 0x727 JUMP JUMPDEST PUSH8 0xFFFFFFFFFFFFFFFF DUP2 GT ISZERO PUSH2 0x950 JUMPI PUSH2 0x94F PUSH2 0x3F8 JUMP JUMPDEST JUMPDEST PUSH2 0x95A DUP3 SLOAD PUSH2 0x75E JUMP JUMPDEST PUSH2 0x965 DUP3 DUP3 DUP6 PUSH2 0x8A5 JUMP JUMPDEST PUSH0 PUSH1 0x20 SWAP1 POP PUSH1 0x1F DUP4 GT PUSH1 0x1 DUP2 EQ PUSH2 0x996 JUMPI PUSH0 DUP5 ISZERO PUSH2 0x984 JUMPI DUP3 DUP8 ADD MLOAD SWAP1 POP JUMPDEST PUSH2 0x98E DUP6 DUP3 PUSH2 0x913 JUMP JUMPDEST DUP7 SSTORE POP PUSH2 0x9F5 JUMP JUMPDEST PUSH1 0x1F NOT DUP5 AND PUSH2 0x9A4 DUP7 PUSH2 0x78E JUMP JUMPDEST PUSH0 JUMPDEST DUP3 DUP2 LT ISZERO PUSH2 0x9CB JUMPI DUP5 DUP10 ADD MLOAD DUP3 SSTORE PUSH1 0x1 DUP3 ADD SWAP2 POP PUSH1 0x20 DUP6 ADD SWAP5 POP PUSH1 0x20 DUP2 ADD SWAP1 POP PUSH2 0x9A6 JUMP JUMPDEST DUP7 DUP4 LT ISZERO PUSH2 0x9E8 JUMPI DUP5 DUP10 ADD MLOAD PUSH2 0x9E4 PUSH1 0x1F DUP10 AND DUP3 PUSH2 0x8F7 JUMP JUMPDEST DUP4 SSTORE POP JUMPDEST PUSH1 0x1 PUSH1 0x2 DUP9 MUL ADD DUP9 SSTORE POP POP POP JUMPDEST POP POP POP POP POP POP JUMP JUMPDEST PUSH32 0x4E487B7100000000000000000000000000000000000000000000000000000000 PUSH0 MSTORE PUSH1 0x32 PUSH1 0x4 MSTORE PUSH1 0x24 PUSH0 REVERT JUMPDEST PUSH0 DUP2 SWAP1 POP SWAP3 SWAP2 POP POP JUMP JUMPDEST PUSH0 DUP2 SLOAD PUSH2 0xA40 DUP2 PUSH2 0x75E JUMP JUMPDEST PUSH2 0xA4A DUP2 DUP7 PUSH2 0xA2A JUMP JUMPDEST SWAP5 POP PUSH1 0x1 DUP3 AND PUSH0 DUP2 EQ PUSH2 0xA64 JUMPI PUSH1 0x1 DUP2 EQ PUSH2 0xA79 JUMPI PUSH2 0xAAB JUMP JUMPDEST PUSH1 0xFF NOT DUP4 AND DUP7 MSTORE DUP2 ISZERO ISZERO DUP3 MUL DUP7 ADD SWAP4 POP PUSH2 0xAAB JUMP JUMPDEST PUSH2 0xA82 DUP6 PUSH2 0x78E JUMP JUMPDEST PUSH0 JUMPDEST DUP4 DUP2 LT ISZERO PUSH2 0xAA3 JUMPI DUP2 SLOAD DUP2 DUP10 ADD MSTORE PUSH1 0x1 DUP3 ADD SWAP2 POP PUSH1 0x20 DUP2 ADD SWAP1 POP PUSH2 0xA84 JUMP JUMPDEST DUP4 DUP9 ADD SWAP6 POP POP POP JUMPDEST POP POP POP SWAP3 SWAP2 POP POP JUMP JUMPDEST PUSH0 PUSH2 0xABF DUP3 DUP5 PUSH2 0xA34 JUMP JUMPDEST SWAP2 POP DUP2 SWAP1 POP SWAP3 SWAP2 POP POP JUMP JUMPDEST DUP3 DUP2 DUP4 MCOPY PUSH0 DUP4 DUP4 ADD MSTORE POP POP POP JUMP JUMPDEST PUSH0 PUSH2 0xAE2 DUP3 PUSH2 0x727 JUMP JUMPDEST PUSH2 0xAEC DUP2 DUP6 PUSH2 0xA2A JUMP JUMPDEST SWAP4 POP PUSH2 0xAFC DUP2 DUP6 PUSH1 0x20 DUP7 ADD PUSH2 0xACA JUMP JUMPDEST DUP1 DUP5 ADD SWAP2 POP POP SWAP3 SWAP2 POP POP JUMP JUMPDEST PUSH0 PUSH2 0xB13 DUP3 DUP5 PUSH2 0xAD8 JUMP JUMPDEST SWAP2 POP DUP2 SWAP1 POP SWAP3 SWAP2 POP POP JUMP JUMPDEST PUSH32 0x42696F6C6F677900000000000000000000000000000000000000000000000000 PUSH0 DUP3 ADD MSTORE POP JUMP JUMPDEST PUSH0 PUSH2 0xB52 PUSH1 0x7 DUP4 PUSH2 0xA2A JUMP JUMPDEST SWAP2 POP PUSH2 0xB5D DUP3 PUSH2 0xB1E JUMP JUMPDEST PUSH1 0x7 DUP3 ADD SWAP1 POP SWAP2 SWAP1 POP JUMP JUMPDEST PUSH0 PUSH2 0xB72 DUP3 PUSH2 0xB46 JUMP JUMPDEST SWAP2 POP DUP2 SWAP1 POP SWAP2 SWAP1 POP JUMP JUMPDEST PUSH32 0x4D61746800000000000000000000000000000000000000000000000000000000 PUSH0 DUP3 ADD MSTORE POP JUMP JUMPDEST PUSH0 PUSH2 0xBB0 PUSH1 0x4 DUP4 PUSH2 0xA2A JUMP JUMPDEST SWAP2 POP PUSH2 0xBBB DUP3 PUSH2 0xB7C JUMP JUMPDEST PUSH1 0x4 DUP3 ADD SWAP1 POP SWAP2 SWAP1 POP JUMP JUMPDEST PUSH0 PUSH2 0xBD0 DUP3 PUSH2 0xBA4 JUMP JUMPDEST SWAP2 POP DUP2 SWAP1 POP SWAP2 SWAP1 POP JUMP JUMPDEST PUSH32 0x4672000000000000000000000000000000000000000000000000000000000000 PUSH0 DUP3 ADD MSTORE POP JUMP JUMPDEST PUSH0 PUSH2 0xC0E PUSH1 0x2 DUP4 PUSH2 0xA2A JUMP JUMPDEST SWAP2 POP PUSH2 0xC19 DUP3 PUSH2 0xBDA JUMP JUMPDEST PUSH1 0x2 DUP3 ADD SWAP1 POP SWAP2 SWAP1 POP JUMP JUMPDEST PUSH0 PUSH2 0xC2E DUP3 PUSH2 0xC02 JUMP JUMPDEST SWAP2 POP DUP2 SWAP1 POP SWAP2 SWAP1 POP JUMP INVALID LOG2 PUSH5 0x6970667358 0x22 SLT KECCAK256 KECCAK256 GAS 0xAC DUP2 0xC1 SHL SMOD 0xDC 0xB7 0xEF 0xAC 0xB0 SLOAD EXTCODECOPY DUP7 SWAP3 BLOBBASEFEE 0xC6 SMOD 0xB7 DUP8 BLOCKHASH BYTE INVALID 0xC4 NOT 0xD9 0x4B DUP2 0xD0 PUSH25 0xCE64736F6C634300081C003300000000000000000000000000 "
				},
				"gasEstimates": {
					"creation": {
						"codeDepositCost": "636400",
						"executionCost": "668",
						"totalCost": "637068"
					},
					"external": {
						"addStudent((string,uint256,uint256,uint256))": "infinite",
						"addTeacher(address,string)": "infinite",
						"getNote(string,string)": "infinite"
					}
				},
				"methodIdentifiers": {
					"addStudent((string,uint256,uint256,uint256))": "9863a326",
					"addTeacher(address,string)": "8f5b9b2e",
					"getNote(string,string)": "f947387c"
				}
			},
			"storageLayout": {
				"storage": [
					{
						"astId": 14,
						"contract": "contracts/18_ClassRatingSystem.sol:ClassRatingSystem",
						"label": "teacher",
						"offset": 0,
						"slot": "0",
						"type": "t_mapping(t_address,t_string_storage)"
					},
					{
						"astId": 18,
						"contract": "contracts/18_ClassRatingSystem.sol:ClassRatingSystem",
						"label": "studentList",
						"offset": 0,
						"slot": "1",
						"type": "t_array(t_struct(Student)10_storage)dyn_storage"
					}
				],
				"types": {
					"t_address": {
						"encoding": "inplace",
						"label": "address",
						"numberOfBytes": "20"
					},
					"t_array(t_struct(Student)10_storage)dyn_storage": {
						"base": "t_struct(Student)10_storage",
						"encoding": "dynamic_array",
						"label": "struct ClassRatingSystem.Student[]",
						"numberOfBytes": "32"
					},
					"t_mapping(t_address,t_string_storage)": {
						"encoding": "mapping",
						"key": "t_address",
						"label": "mapping(address => string)",
						"numberOfBytes": "32",
						"value": "t_string_storage"
					},
					"t_string_storage": {
						"encoding": "bytes",
						"label": "string",
						"numberOfBytes": "32"
					},
					"t_struct(Student)10_storage": {
						"encoding": "inplace",
						"label": "struct ClassRatingSystem.Student",
						"members": [
							{
								"astId": 3,
								"contract": "contracts/18_ClassRatingSystem.sol:ClassRatingSystem",
								"label": "name",
								"offset": 0,
								"slot": "0",
								"type": "t_string_storage"
							},
							{
								"astId": 5,
								"contract": "contracts/18_ClassRatingSystem.sol:ClassRatingSystem",
								"label": "noteBiology",
								"offset": 0,
								"slot": "1",
								"type": "t_uint256"
							},
							{
								"astId": 7,
								"contract": "contracts/18_ClassRatingSystem.sol:ClassRatingSystem",
								"label": "noteMath",
								"offset": 0,
								"slot": "2",
								"type": "t_uint256"
							},
							{
								"astId": 9,
								"contract": "contracts/18_ClassRatingSystem.sol:ClassRatingSystem",
								"label": "noteFr",
								"offset": 0,
								"slot": "3",
								"type": "t_uint256"
							}
						],
						"numberOfBytes": "128"
					},
					"t_uint256": {
						"encoding": "inplace",
						"label": "uint256",
						"numberOfBytes": "32"
					}
				}
			},
			"userdoc": {
				"kind": "user",
				"methods": {},
				"version": 1
			}
		}
	}
}