{
	"contracts/4_People.sol": {
		"People": {
			"abi": [
				{
					"inputs": [
						{
							"internalType": "string",
							"name": "_name",
							"type": "string"
						},
						{
							"internalType": "uint8",
							"name": "_age",
							"type": "uint8"
						}
					],
					"name": "add",
					"outputs": [],
					"stateMutability": "nonpayable",
					"type": "function"
				},
				{
					"inputs": [
						{
							"internalType": "string",
							"name": "_name",
							"type": "string"
						},
						{
							"internalType": "uint8",
							"name": "_age",
							"type": "uint8"
						}
					],
					"name": "modifyPerson",
					"outputs": [],
					"stateMutability": "nonpayable",
					"type": "function"
				},
				{
					"inputs": [],
					"name": "moi",
					"outputs": [
						{
							"internalType": "string",
							"name": "name",
							"type": "string"
						},
						{
							"internalType": "uint8",
							"name": "age",
							"type": "uint8"
						}
					],
					"stateMutability": "view",
					"type": "function"
				},
				{
					"inputs": [
						{
							"internalType": "uint256",
							"name": "",
							"type": "uint256"
						}
					],
					"name": "persons",
					"outputs": [
						{
							"internalType": "string",
							"name": "name",
							"type": "string"
						},
						{
							"internalType": "uint8",
							"name": "age",
							"type": "uint8"
						}
					],
					"stateMutability": "view",
					"type": "function"
				},
				{
					"inputs": [],
					"name": "remove",
					"outputs": [],
					"stateMutability": "nonpayable",
					"type": "function"
				},
				{
					"inputs": [],
					"name": "retrieve",
					"outputs": [
						{
							"components": [
								{
									"internalType": "string",
									"name": "name",
									"type": "string"
								},
								{
									"internalType": "uint8",
									"name": "age",
									"type": "uint8"
								}
							],
							"internalType": "struct People.Person[]",
							"name": "",
							"type": "tuple[]"
						}
					],
					"stateMutability": "view",
					"type": "function"
				}
			],
			"devdoc": {
				"kind": "dev",
				"methods": {},
				"version": 1
			},
			"evm": {
				"assembly": "    /* \"contracts/4_People.sol\":60:603  contract People {... */\n  mstore(0x40, 0x80)\n  callvalue\n  dup1\n  iszero\n  tag_1\n  jumpi\n  0x00\n  dup1\n  revert\ntag_1:\n  pop\n  dataSize(sub_0)\n  dup1\n  dataOffset(sub_0)\n  0x00\n  codecopy\n  0x00\n  return\nstop\n\nsub_0: assembly {\n        /* \"contracts/4_People.sol\":60:603  contract People {... */\n      mstore(0x40, 0x80)\n      callvalue\n      dup1\n      iszero\n      tag_1\n      jumpi\n      0x00\n      dup1\n      revert\n    tag_1:\n      pop\n      jumpi(tag_2, lt(calldatasize, 0x04))\n      shr(0xe0, calldataload(0x00))\n      dup1\n      0x2e64cec1\n      eq\n      tag_3\n      jumpi\n      dup1\n      0x49d812b2\n      eq\n      tag_4\n      jumpi\n      dup1\n      0x63f74bac\n      eq\n      tag_5\n      jumpi\n      dup1\n      0x90736130\n      eq\n      tag_6\n      jumpi\n      dup1\n      0xa2f9eac6\n      eq\n      tag_7\n      jumpi\n      dup1\n      0xa7f43779\n      eq\n      tag_8\n      jumpi\n    tag_2:\n      0x00\n      dup1\n      revert\n        /* \"contracts/4_People.sol\":507:600  function retrieve() public view  returns (Person[] memory) {... */\n    tag_3:\n      tag_9\n      tag_10\n      jump\t// in\n    tag_9:\n      mload(0x40)\n      tag_11\n      swap2\n      swap1\n      tag_12\n      jump\t// in\n    tag_11:\n      mload(0x40)\n      dup1\n      swap2\n      sub\n      swap1\n      return\n        /* \"contracts/4_People.sol\":213:320  function modifyPerson (string memory _name, uint8 _age) public {... */\n    tag_4:\n      tag_13\n      0x04\n      dup1\n      calldatasize\n      sub\n      dup2\n      add\n      swap1\n      tag_14\n      swap2\n      swap1\n      tag_15\n      jump\t// in\n    tag_14:\n      tag_16\n      jump\t// in\n    tag_13:\n      stop\n        /* \"contracts/4_People.sol\":328:434  function add (string memory _name, uint8 _age) public {... */\n    tag_5:\n      tag_17\n      0x04\n      dup1\n      calldatasize\n      sub\n      dup2\n      add\n      swap1\n      tag_18\n      swap2\n      swap1\n      tag_15\n      jump\t// in\n    tag_18:\n      tag_19\n      jump\t// in\n    tag_17:\n      stop\n        /* \"contracts/4_People.sol\":155:172  Person public moi */\n    tag_6:\n      tag_20\n      tag_21\n      jump\t// in\n    tag_20:\n      mload(0x40)\n      tag_22\n      swap3\n      swap2\n      swap1\n      tag_23\n      jump\t// in\n    tag_22:\n      mload(0x40)\n      dup1\n      swap2\n      sub\n      swap1\n      return\n        /* \"contracts/4_People.sol\":181:204  Person[] public persons */\n    tag_7:\n      tag_24\n      0x04\n      dup1\n      calldatasize\n      sub\n      dup2\n      add\n      swap1\n      tag_25\n      swap2\n      swap1\n      tag_26\n      jump\t// in\n    tag_25:\n      tag_27\n      jump\t// in\n    tag_24:\n      mload(0x40)\n      tag_28\n      swap3\n      swap2\n      swap1\n      tag_23\n      jump\t// in\n    tag_28:\n      mload(0x40)\n      dup1\n      swap2\n      sub\n      swap1\n      return\n        /* \"contracts/4_People.sol\":442:499  function remove() public {... */\n    tag_8:\n      tag_29\n      tag_30\n      jump\t// in\n    tag_29:\n      stop\n        /* \"contracts/4_People.sol\":507:600  function retrieve() public view  returns (Person[] memory) {... */\n    tag_10:\n        /* \"contracts/4_People.sol\":549:564  Person[] memory */\n      0x60\n        /* \"contracts/4_People.sol\":585:592  persons */\n      0x02\n        /* \"contracts/4_People.sol\":577:592  return  persons */\n      dup1\n      sload\n      dup1\n      0x20\n      mul\n      0x20\n      add\n      mload(0x40)\n      swap1\n      dup2\n      add\n      0x40\n      mstore\n      dup1\n      swap3\n      swap2\n      swap1\n      dup2\n      dup2\n      mstore\n      0x20\n      add\n      0x00\n      swap1\n    tag_32:\n      dup3\n      dup3\n      lt\n      iszero\n      tag_33\n      jumpi\n      dup4\n      dup3\n      swap1\n      0x00\n      mstore\n      keccak256(0x00, 0x20)\n      swap1\n      0x02\n      mul\n      add\n      mload(0x40)\n      dup1\n      0x40\n      add\n      0x40\n      mstore\n      swap1\n      dup2\n      0x00\n      dup3\n      add\n      dup1\n      sload\n      tag_35\n      swap1\n      tag_36\n      jump\t// in\n    tag_35:\n      dup1\n      0x1f\n      add\n      0x20\n      dup1\n      swap2\n      div\n      mul\n      0x20\n      add\n      mload(0x40)\n      swap1\n      dup2\n      add\n      0x40\n      mstore\n      dup1\n      swap3\n      swap2\n      swap1\n      dup2\n      dup2\n      mstore\n      0x20\n      add\n      dup3\n      dup1\n      sload\n      tag_37\n      swap1\n      tag_36\n      jump\t// in\n    tag_37:\n      dup1\n      iszero\n      tag_38\n      jumpi\n      dup1\n      0x1f\n      lt\n      tag_39\n      jumpi\n      0x0100\n      dup1\n      dup4\n      sload\n      div\n      mul\n      dup4\n      mstore\n      swap2\n      0x20\n      add\n      swap2\n      jump(tag_38)\n    tag_39:\n      dup3\n      add\n      swap2\n      swap1\n      0x00\n      mstore\n      keccak256(0x00, 0x20)\n      swap1\n    tag_40:\n      dup2\n      sload\n      dup2\n      mstore\n      swap1\n      0x01\n      add\n      swap1\n      0x20\n      add\n      dup1\n      dup4\n      gt\n      tag_40\n      jumpi\n      dup3\n      swap1\n      sub\n      0x1f\n      and\n      dup3\n      add\n      swap2\n    tag_38:\n      pop\n      pop\n      pop\n      pop\n      pop\n      dup2\n      mstore\n      0x20\n      add\n      0x01\n      dup3\n      add\n      0x00\n      swap1\n      sload\n      swap1\n      0x0100\n      exp\n      swap1\n      div\n      0xff\n      and\n      0xff\n      and\n      0xff\n      and\n      dup2\n      mstore\n      pop\n      pop\n      dup2\n      mstore\n      0x20\n      add\n      swap1\n      0x01\n      add\n      swap1\n      jump(tag_32)\n    tag_33:\n      pop\n      pop\n      pop\n      pop\n      swap1\n      pop\n        /* \"contracts/4_People.sol\":507:600  function retrieve() public view  returns (Person[] memory) {... */\n      swap1\n      jump\t// out\n        /* \"contracts/4_People.sol\":213:320  function modifyPerson (string memory _name, uint8 _age) public {... */\n    tag_16:\n        /* \"contracts/4_People.sol\":293:312  Person(_name, _age) */\n      mload(0x40)\n      dup1\n      0x40\n      add\n      0x40\n      mstore\n      dup1\n        /* \"contracts/4_People.sol\":300:305  _name */\n      dup4\n        /* \"contracts/4_People.sol\":293:312  Person(_name, _age) */\n      dup2\n      mstore\n      0x20\n      add\n        /* \"contracts/4_People.sol\":307:311  _age */\n      dup3\n        /* \"contracts/4_People.sol\":293:312  Person(_name, _age) */\n      0xff\n      and\n      dup2\n      mstore\n      pop\n        /* \"contracts/4_People.sol\":287:290  moi */\n      0x00\n        /* \"contracts/4_People.sol\":287:312  moi = Person(_name, _age) */\n      dup1\n      dup3\n      add\n      mload\n      dup2\n      0x00\n      add\n      swap1\n      dup2\n      tag_42\n      swap2\n      swap1\n      tag_43\n      jump\t// in\n    tag_42:\n      pop\n      0x20\n      dup3\n      add\n      mload\n      dup2\n      0x01\n      add\n      exp(0x0100, 0x00)\n      dup2\n      sload\n      dup2\n      0xff\n      mul\n      not\n      and\n      swap1\n      dup4\n      0xff\n      and\n      mul\n      or\n      swap1\n      sstore\n      pop\n      swap1\n      pop\n      pop\n        /* \"contracts/4_People.sol\":213:320  function modifyPerson (string memory _name, uint8 _age) public {... */\n      pop\n      pop\n      jump\t// out\n        /* \"contracts/4_People.sol\":328:434  function add (string memory _name, uint8 _age) public {... */\n    tag_19:\n        /* \"contracts/4_People.sol\":393:400  persons */\n      0x02\n        /* \"contracts/4_People.sol\":406:425  Person(_name, _age) */\n      mload(0x40)\n      dup1\n      0x40\n      add\n      0x40\n      mstore\n      dup1\n        /* \"contracts/4_People.sol\":413:418  _name */\n      dup5\n        /* \"contracts/4_People.sol\":406:425  Person(_name, _age) */\n      dup2\n      mstore\n      0x20\n      add\n        /* \"contracts/4_People.sol\":420:424  _age */\n      dup4\n        /* \"contracts/4_People.sol\":406:425  Person(_name, _age) */\n      0xff\n      and\n      dup2\n      mstore\n      pop\n        /* \"contracts/4_People.sol\":393:426  persons.push(Person(_name, _age)) */\n      swap1\n      dup1\n      0x01\n      dup2\n      sload\n      add\n      dup1\n      dup3\n      sstore\n      dup1\n      swap2\n      pop\n      pop\n      0x01\n      swap1\n      sub\n      swap1\n      0x00\n      mstore\n      keccak256(0x00, 0x20)\n      swap1\n      0x02\n      mul\n      add\n      0x00\n      swap1\n      swap2\n      swap1\n      swap2\n      swap1\n      swap2\n      pop\n      0x00\n      dup3\n      add\n      mload\n      dup2\n      0x00\n      add\n      swap1\n      dup2\n      tag_46\n      swap2\n      swap1\n      tag_43\n      jump\t// in\n    tag_46:\n      pop\n      0x20\n      dup3\n      add\n      mload\n      dup2\n      0x01\n      add\n      exp(0x0100, 0x00)\n      dup2\n      sload\n      dup2\n      0xff\n      mul\n      not\n      and\n      swap1\n      dup4\n      0xff\n      and\n      mul\n      or\n      swap1\n      sstore\n      pop\n      pop\n      pop\n        /* \"contracts/4_People.sol\":328:434  function add (string memory _name, uint8 _age) public {... */\n      pop\n      pop\n      jump\t// out\n        /* \"contracts/4_People.sol\":155:172  Person public moi */\n    tag_21:\n      0x00\n      dup1\n      0x00\n      add\n      dup1\n      sload\n      tag_47\n      swap1\n      tag_36\n      jump\t// in\n    tag_47:\n      dup1\n      0x1f\n      add\n      0x20\n      dup1\n      swap2\n      div\n      mul\n      0x20\n      add\n      mload(0x40)\n      swap1\n      dup2\n      add\n      0x40\n      mstore\n      dup1\n      swap3\n      swap2\n      swap1\n      dup2\n      dup2\n      mstore\n      0x20\n      add\n      dup3\n      dup1\n      sload\n      tag_48\n      swap1\n      tag_36\n      jump\t// in\n    tag_48:\n      dup1\n      iszero\n      tag_49\n      jumpi\n      dup1\n      0x1f\n      lt\n      tag_50\n      jumpi\n      0x0100\n      dup1\n      dup4\n      sload\n      div\n      mul\n      dup4\n      mstore\n      swap2\n      0x20\n      add\n      swap2\n      jump(tag_49)\n    tag_50:\n      dup3\n      add\n      swap2\n      swap1\n      0x00\n      mstore\n      keccak256(0x00, 0x20)\n      swap1\n    tag_51:\n      dup2\n      sload\n      dup2\n      mstore\n      swap1\n      0x01\n      add\n      swap1\n      0x20\n      add\n      dup1\n      dup4\n      gt\n      tag_51\n      jumpi\n      dup3\n      swap1\n      sub\n      0x1f\n      and\n      dup3\n      add\n      swap2\n    tag_49:\n      pop\n      pop\n      pop\n      pop\n      pop\n      swap1\n      dup1\n      0x01\n      add\n      0x00\n      swap1\n      sload\n      swap1\n      0x0100\n      exp\n      swap1\n      div\n      0xff\n      and\n      swap1\n      pop\n      dup3\n      jump\t// out\n        /* \"contracts/4_People.sol\":181:204  Person[] public persons */\n    tag_27:\n      0x02\n      dup2\n      dup2\n      sload\n      dup2\n      lt\n      tag_52\n      jumpi\n      0x00\n      dup1\n      revert\n    tag_52:\n      swap1\n      0x00\n      mstore\n      keccak256(0x00, 0x20)\n      swap1\n      0x02\n      mul\n      add\n      0x00\n      swap2\n      pop\n      swap1\n      pop\n      dup1\n      0x00\n      add\n      dup1\n      sload\n      tag_54\n      swap1\n      tag_36\n      jump\t// in\n    tag_54:\n      dup1\n      0x1f\n      add\n      0x20\n      dup1\n      swap2\n      div\n      mul\n      0x20\n      add\n      mload(0x40)\n      swap1\n      dup2\n      add\n      0x40\n      mstore\n      dup1\n      swap3\n      swap2\n      swap1\n      dup2\n      dup2\n      mstore\n      0x20\n      add\n      dup3\n      dup1\n      sload\n      tag_55\n      swap1\n      tag_36\n      jump\t// in\n    tag_55:\n      dup1\n      iszero\n      tag_56\n      jumpi\n      dup1\n      0x1f\n      lt\n      tag_57\n      jumpi\n      0x0100\n      dup1\n      dup4\n      sload\n      div\n      mul\n      dup4\n      mstore\n      swap2\n      0x20\n      add\n      swap2\n      jump(tag_56)\n    tag_57:\n      dup3\n      add\n      swap2\n      swap1\n      0x00\n      mstore\n      keccak256(0x00, 0x20)\n      swap1\n    tag_58:\n      dup2\n      sload\n      dup2\n      mstore\n      swap1\n      0x01\n      add\n      swap1\n      0x20\n      add\n      dup1\n      dup4\n      gt\n      tag_58\n      jumpi\n      dup3\n      swap1\n      sub\n      0x1f\n      and\n      dup3\n      add\n      swap2\n    tag_56:\n      pop\n      pop\n      pop\n      pop\n      pop\n      swap1\n      dup1\n      0x01\n      add\n      0x00\n      swap1\n      sload\n      swap1\n      0x0100\n      exp\n      swap1\n      div\n      0xff\n      and\n      swap1\n      pop\n      dup3\n      jump\t// out\n        /* \"contracts/4_People.sol\":442:499  function remove() public {... */\n    tag_30:\n        /* \"contracts/4_People.sol\":478:485  persons */\n      0x02\n        /* \"contracts/4_People.sol\":478:491  persons.pop() */\n      dup1\n      sload\n      dup1\n      tag_60\n      jumpi\n      tag_61\n      tag_62\n      jump\t// in\n    tag_61:\n    tag_60:\n      0x01\n      swap1\n      sub\n      dup2\n      dup2\n      swap1\n      0x00\n      mstore\n      keccak256(0x00, 0x20)\n      swap1\n      0x02\n      mul\n      add\n      0x00\n      dup1\n      dup3\n      add\n      0x00\n      tag_64\n      swap2\n      swap1\n      tag_65\n      jump\t// in\n    tag_64:\n      0x01\n      dup3\n      add\n      exp(0x0100, 0x00)\n      dup2\n      sload\n      swap1\n      0xff\n      mul\n      not\n      and\n      swap1\n      sstore\n      pop\n      pop\n      swap1\n      sstore\n        /* \"contracts/4_People.sol\":442:499  function remove() public {... */\n      jump\t// out\n    tag_65:\n      pop\n      dup1\n      sload\n      tag_66\n      swap1\n      tag_36\n      jump\t// in\n    tag_66:\n      0x00\n      dup3\n      sstore\n      dup1\n      0x1f\n      lt\n      tag_68\n      jumpi\n      pop\n      jump(tag_67)\n    tag_68:\n      0x1f\n      add\n      0x20\n      swap1\n      div\n      swap1\n      0x00\n      mstore\n      keccak256(0x00, 0x20)\n      swap1\n      dup2\n      add\n      swap1\n      tag_69\n      swap2\n      swap1\n      tag_70\n      jump\t// in\n    tag_69:\n    tag_67:\n      pop\n      jump\t// out\n    tag_70:\n    tag_71:\n      dup1\n      dup3\n      gt\n      iszero\n      tag_72\n      jumpi\n      0x00\n      dup2\n      0x00\n      swap1\n      sstore\n      pop\n      0x01\n      add\n      jump(tag_71)\n    tag_72:\n      pop\n      swap1\n      jump\t// out\n        /* \"#utility.yul\":7:142   */\n    tag_73:\n        /* \"#utility.yul\":95:101   */\n      0x00\n        /* \"#utility.yul\":129:134   */\n      dup2\n        /* \"#utility.yul\":123:135   */\n      mload\n        /* \"#utility.yul\":113:135   */\n      swap1\n      pop\n        /* \"#utility.yul\":7:142   */\n      swap2\n      swap1\n      pop\n      jump\t// out\n        /* \"#utility.yul\":148:353   */\n    tag_74:\n        /* \"#utility.yul\":268:279   */\n      0x00\n        /* \"#utility.yul\":302:308   */\n      dup3\n        /* \"#utility.yul\":297:300   */\n      dup3\n        /* \"#utility.yul\":290:309   */\n      mstore\n        /* \"#utility.yul\":342:346   */\n      0x20\n        /* \"#utility.yul\":337:340   */\n      dup3\n        /* \"#utility.yul\":333:347   */\n      add\n        /* \"#utility.yul\":318:347   */\n      swap1\n      pop\n        /* \"#utility.yul\":148:353   */\n      swap3\n      swap2\n      pop\n      pop\n      jump\t// out\n        /* \"#utility.yul\":359:512   */\n    tag_75:\n        /* \"#utility.yul\":447:451   */\n      0x00\n        /* \"#utility.yul\":470:473   */\n      dup2\n        /* \"#utility.yul\":462:473   */\n      swap1\n      pop\n        /* \"#utility.yul\":500:504   */\n      0x20\n        /* \"#utility.yul\":495:498   */\n      dup3\n        /* \"#utility.yul\":491:505   */\n      add\n        /* \"#utility.yul\":483:505   */\n      swap1\n      pop\n        /* \"#utility.yul\":359:512   */\n      swap2\n      swap1\n      pop\n      jump\t// out\n        /* \"#utility.yul\":518:617   */\n    tag_76:\n        /* \"#utility.yul\":570:576   */\n      0x00\n        /* \"#utility.yul\":604:609   */\n      dup2\n        /* \"#utility.yul\":598:610   */\n      mload\n        /* \"#utility.yul\":588:610   */\n      swap1\n      pop\n        /* \"#utility.yul\":518:617   */\n      swap2\n      swap1\n      pop\n      jump\t// out\n        /* \"#utility.yul\":623:782   */\n    tag_77:\n        /* \"#utility.yul\":697:708   */\n      0x00\n        /* \"#utility.yul\":731:737   */\n      dup3\n        /* \"#utility.yul\":726:729   */\n      dup3\n        /* \"#utility.yul\":719:738   */\n      mstore\n        /* \"#utility.yul\":771:775   */\n      0x20\n        /* \"#utility.yul\":766:769   */\n      dup3\n        /* \"#utility.yul\":762:776   */\n      add\n        /* \"#utility.yul\":747:776   */\n      swap1\n      pop\n        /* \"#utility.yul\":623:782   */\n      swap3\n      swap2\n      pop\n      pop\n      jump\t// out\n        /* \"#utility.yul\":788:927   */\n    tag_78:\n        /* \"#utility.yul\":877:883   */\n      dup3\n        /* \"#utility.yul\":872:875   */\n      dup2\n        /* \"#utility.yul\":867:870   */\n      dup4\n        /* \"#utility.yul\":861:884   */\n      mcopy\n        /* \"#utility.yul\":918:919   */\n      0x00\n        /* \"#utility.yul\":909:915   */\n      dup4\n        /* \"#utility.yul\":904:907   */\n      dup4\n        /* \"#utility.yul\":900:916   */\n      add\n        /* \"#utility.yul\":893:920   */\n      mstore\n        /* \"#utility.yul\":788:927   */\n      pop\n      pop\n      pop\n      jump\t// out\n        /* \"#utility.yul\":933:1035   */\n    tag_79:\n        /* \"#utility.yul\":974:980   */\n      0x00\n        /* \"#utility.yul\":1025:1027   */\n      0x1f\n        /* \"#utility.yul\":1021:1028   */\n      not\n        /* \"#utility.yul\":1016:1018   */\n      0x1f\n        /* \"#utility.yul\":1009:1014   */\n      dup4\n        /* \"#utility.yul\":1005:1019   */\n      add\n        /* \"#utility.yul\":1001:1029   */\n      and\n        /* \"#utility.yul\":991:1029   */\n      swap1\n      pop\n        /* \"#utility.yul\":933:1035   */\n      swap2\n      swap1\n      pop\n      jump\t// out\n        /* \"#utility.yul\":1041:1398   */\n    tag_80:\n        /* \"#utility.yul\":1119:1122   */\n      0x00\n        /* \"#utility.yul\":1147:1186   */\n      tag_132\n        /* \"#utility.yul\":1180:1185   */\n      dup3\n        /* \"#utility.yul\":1147:1186   */\n      tag_76\n      jump\t// in\n    tag_132:\n        /* \"#utility.yul\":1202:1263   */\n      tag_133\n        /* \"#utility.yul\":1256:1262   */\n      dup2\n        /* \"#utility.yul\":1251:1254   */\n      dup6\n        /* \"#utility.yul\":1202:1263   */\n      tag_77\n      jump\t// in\n    tag_133:\n        /* \"#utility.yul\":1195:1263   */\n      swap4\n      pop\n        /* \"#utility.yul\":1272:1337   */\n      tag_134\n        /* \"#utility.yul\":1330:1336   */\n      dup2\n        /* \"#utility.yul\":1325:1328   */\n      dup6\n        /* \"#utility.yul\":1318:1322   */\n      0x20\n        /* \"#utility.yul\":1311:1316   */\n      dup7\n        /* \"#utility.yul\":1307:1323   */\n      add\n        /* \"#utility.yul\":1272:1337   */\n      tag_78\n      jump\t// in\n    tag_134:\n        /* \"#utility.yul\":1362:1391   */\n      tag_135\n        /* \"#utility.yul\":1384:1390   */\n      dup2\n        /* \"#utility.yul\":1362:1391   */\n      tag_79\n      jump\t// in\n    tag_135:\n        /* \"#utility.yul\":1357:1360   */\n      dup5\n        /* \"#utility.yul\":1353:1392   */\n      add\n        /* \"#utility.yul\":1346:1392   */\n      swap2\n      pop\n        /* \"#utility.yul\":1123:1398   */\n      pop\n        /* \"#utility.yul\":1041:1398   */\n      swap3\n      swap2\n      pop\n      pop\n      jump\t// out\n        /* \"#utility.yul\":1404:1490   */\n    tag_81:\n        /* \"#utility.yul\":1439:1446   */\n      0x00\n        /* \"#utility.yul\":1479:1483   */\n      0xff\n        /* \"#utility.yul\":1472:1477   */\n      dup3\n        /* \"#utility.yul\":1468:1484   */\n      and\n        /* \"#utility.yul\":1457:1484   */\n      swap1\n      pop\n        /* \"#utility.yul\":1404:1490   */\n      swap2\n      swap1\n      pop\n      jump\t// out\n        /* \"#utility.yul\":1496:1598   */\n    tag_82:\n        /* \"#utility.yul\":1569:1591   */\n      tag_138\n        /* \"#utility.yul\":1585:1590   */\n      dup2\n        /* \"#utility.yul\":1569:1591   */\n      tag_81\n      jump\t// in\n    tag_138:\n        /* \"#utility.yul\":1564:1567   */\n      dup3\n        /* \"#utility.yul\":1557:1592   */\n      mstore\n        /* \"#utility.yul\":1496:1598   */\n      pop\n      pop\n      jump\t// out\n        /* \"#utility.yul\":1656:2239   */\n    tag_83:\n        /* \"#utility.yul\":1757:1760   */\n      0x00\n        /* \"#utility.yul\":1793:1797   */\n      0x40\n        /* \"#utility.yul\":1788:1791   */\n      dup4\n        /* \"#utility.yul\":1784:1798   */\n      add\n        /* \"#utility.yul\":1880:1884   */\n      0x00\n        /* \"#utility.yul\":1873:1878   */\n      dup4\n        /* \"#utility.yul\":1869:1885   */\n      add\n        /* \"#utility.yul\":1863:1886   */\n      mload\n        /* \"#utility.yul\":1933:1936   */\n      dup5\n        /* \"#utility.yul\":1927:1931   */\n      dup3\n        /* \"#utility.yul\":1923:1937   */\n      sub\n        /* \"#utility.yul\":1916:1920   */\n      0x00\n        /* \"#utility.yul\":1911:1914   */\n      dup7\n        /* \"#utility.yul\":1907:1921   */\n      add\n        /* \"#utility.yul\":1900:1938   */\n      mstore\n        /* \"#utility.yul\":1959:2032   */\n      tag_140\n        /* \"#utility.yul\":2027:2031   */\n      dup3\n        /* \"#utility.yul\":2013:2025   */\n      dup3\n        /* \"#utility.yul\":1959:2032   */\n      tag_80\n      jump\t// in\n    tag_140:\n        /* \"#utility.yul\":1951:2032   */\n      swap2\n      pop\n        /* \"#utility.yul\":1808:2043   */\n      pop\n        /* \"#utility.yul\":2124:2128   */\n      0x20\n        /* \"#utility.yul\":2117:2122   */\n      dup4\n        /* \"#utility.yul\":2113:2129   */\n      add\n        /* \"#utility.yul\":2107:2130   */\n      mload\n        /* \"#utility.yul\":2143:2202   */\n      tag_141\n        /* \"#utility.yul\":2196:2200   */\n      0x20\n        /* \"#utility.yul\":2191:2194   */\n      dup7\n        /* \"#utility.yul\":2187:2201   */\n      add\n        /* \"#utility.yul\":2173:2185   */\n      dup3\n        /* \"#utility.yul\":2143:2202   */\n      tag_82\n      jump\t// in\n    tag_141:\n        /* \"#utility.yul\":2053:2212   */\n      pop\n        /* \"#utility.yul\":2229:2233   */\n      dup1\n        /* \"#utility.yul\":2222:2233   */\n      swap2\n      pop\n        /* \"#utility.yul\":1762:2239   */\n      pop\n        /* \"#utility.yul\":1656:2239   */\n      swap3\n      swap2\n      pop\n      pop\n      jump\t// out\n        /* \"#utility.yul\":2245:2485   */\n    tag_84:\n        /* \"#utility.yul\":2356:2366   */\n      0x00\n        /* \"#utility.yul\":2391:2479   */\n      tag_143\n        /* \"#utility.yul\":2475:2478   */\n      dup4\n        /* \"#utility.yul\":2467:2473   */\n      dup4\n        /* \"#utility.yul\":2391:2479   */\n      tag_83\n      jump\t// in\n    tag_143:\n        /* \"#utility.yul\":2377:2479   */\n      swap1\n      pop\n        /* \"#utility.yul\":2245:2485   */\n      swap3\n      swap2\n      pop\n      pop\n      jump\t// out\n        /* \"#utility.yul\":2491:2625   */\n    tag_85:\n        /* \"#utility.yul\":2582:2586   */\n      0x00\n        /* \"#utility.yul\":2614:2618   */\n      0x20\n        /* \"#utility.yul\":2609:2612   */\n      dup3\n        /* \"#utility.yul\":2605:2619   */\n      add\n        /* \"#utility.yul\":2597:2619   */\n      swap1\n      pop\n        /* \"#utility.yul\":2491:2625   */\n      swap2\n      swap1\n      pop\n      jump\t// out\n        /* \"#utility.yul\":2687:3766   */\n    tag_86:\n        /* \"#utility.yul\":2848:2851   */\n      0x00\n        /* \"#utility.yul\":2877:2952   */\n      tag_146\n        /* \"#utility.yul\":2946:2951   */\n      dup3\n        /* \"#utility.yul\":2877:2952   */\n      tag_73\n      jump\t// in\n    tag_146:\n        /* \"#utility.yul\":2968:3075   */\n      tag_147\n        /* \"#utility.yul\":3068:3074   */\n      dup2\n        /* \"#utility.yul\":3063:3066   */\n      dup6\n        /* \"#utility.yul\":2968:3075   */\n      tag_74\n      jump\t// in\n    tag_147:\n        /* \"#utility.yul\":2961:3075   */\n      swap4\n      pop\n        /* \"#utility.yul\":3101:3104   */\n      dup4\n        /* \"#utility.yul\":3146:3150   */\n      0x20\n        /* \"#utility.yul\":3138:3144   */\n      dup3\n        /* \"#utility.yul\":3134:3151   */\n      mul\n        /* \"#utility.yul\":3129:3132   */\n      dup6\n        /* \"#utility.yul\":3125:3152   */\n      add\n        /* \"#utility.yul\":3176:3253   */\n      tag_148\n        /* \"#utility.yul\":3247:3252   */\n      dup6\n        /* \"#utility.yul\":3176:3253   */\n      tag_75\n      jump\t// in\n    tag_148:\n        /* \"#utility.yul\":3276:3283   */\n      dup1\n        /* \"#utility.yul\":3307:3308   */\n      0x00\n        /* \"#utility.yul\":3292:3721   */\n    tag_149:\n        /* \"#utility.yul\":3317:3323   */\n      dup6\n        /* \"#utility.yul\":3314:3315   */\n      dup2\n        /* \"#utility.yul\":3311:3324   */\n      lt\n        /* \"#utility.yul\":3292:3721   */\n      iszero\n      tag_151\n      jumpi\n        /* \"#utility.yul\":3388:3397   */\n      dup5\n        /* \"#utility.yul\":3382:3386   */\n      dup5\n        /* \"#utility.yul\":3378:3398   */\n      sub\n        /* \"#utility.yul\":3373:3376   */\n      dup10\n        /* \"#utility.yul\":3366:3399   */\n      mstore\n        /* \"#utility.yul\":3439:3445   */\n      dup2\n        /* \"#utility.yul\":3433:3446   */\n      mload\n        /* \"#utility.yul\":3467:3573   */\n      tag_152\n        /* \"#utility.yul\":3568:3572   */\n      dup6\n        /* \"#utility.yul\":3553:3566   */\n      dup3\n        /* \"#utility.yul\":3467:3573   */\n      tag_84\n      jump\t// in\n    tag_152:\n        /* \"#utility.yul\":3459:3573   */\n      swap5\n      pop\n        /* \"#utility.yul\":3596:3677   */\n      tag_153\n        /* \"#utility.yul\":3670:3676   */\n      dup4\n        /* \"#utility.yul\":3596:3677   */\n      tag_85\n      jump\t// in\n    tag_153:\n        /* \"#utility.yul\":3586:3677   */\n      swap3\n      pop\n        /* \"#utility.yul\":3706:3710   */\n      0x20\n        /* \"#utility.yul\":3701:3704   */\n      dup11\n        /* \"#utility.yul\":3697:3711   */\n      add\n        /* \"#utility.yul\":3690:3711   */\n      swap10\n      pop\n        /* \"#utility.yul\":3352:3721   */\n      pop\n        /* \"#utility.yul\":3339:3340   */\n      0x01\n        /* \"#utility.yul\":3336:3337   */\n      dup2\n        /* \"#utility.yul\":3332:3341   */\n      add\n        /* \"#utility.yul\":3327:3341   */\n      swap1\n      pop\n        /* \"#utility.yul\":3292:3721   */\n      jump(tag_149)\n    tag_151:\n        /* \"#utility.yul\":3296:3310   */\n      pop\n        /* \"#utility.yul\":3737:3741   */\n      dup3\n        /* \"#utility.yul\":3730:3741   */\n      swap8\n      pop\n        /* \"#utility.yul\":3757:3760   */\n      dup8\n        /* \"#utility.yul\":3750:3760   */\n      swap6\n      pop\n        /* \"#utility.yul\":2853:3766   */\n      pop\n      pop\n      pop\n      pop\n      pop\n        /* \"#utility.yul\":2687:3766   */\n      swap3\n      swap2\n      pop\n      pop\n      jump\t// out\n        /* \"#utility.yul\":3772:4229   */\n    tag_12:\n        /* \"#utility.yul\":3957:3961   */\n      0x00\n        /* \"#utility.yul\":3995:3997   */\n      0x20\n        /* \"#utility.yul\":3984:3993   */\n      dup3\n        /* \"#utility.yul\":3980:3998   */\n      add\n        /* \"#utility.yul\":3972:3998   */\n      swap1\n      pop\n        /* \"#utility.yul\":4044:4053   */\n      dup2\n        /* \"#utility.yul\":4038:4042   */\n      dup2\n        /* \"#utility.yul\":4034:4054   */\n      sub\n        /* \"#utility.yul\":4030:4031   */\n      0x00\n        /* \"#utility.yul\":4019:4028   */\n      dup4\n        /* \"#utility.yul\":4015:4032   */\n      add\n        /* \"#utility.yul\":4008:4055   */\n      mstore\n        /* \"#utility.yul\":4072:4222   */\n      tag_155\n        /* \"#utility.yul\":4217:4221   */\n      dup2\n        /* \"#utility.yul\":4208:4214   */\n      dup5\n        /* \"#utility.yul\":4072:4222   */\n      tag_86\n      jump\t// in\n    tag_155:\n        /* \"#utility.yul\":4064:4222   */\n      swap1\n      pop\n        /* \"#utility.yul\":3772:4229   */\n      swap3\n      swap2\n      pop\n      pop\n      jump\t// out\n        /* \"#utility.yul\":4235:4310   */\n    tag_87:\n        /* \"#utility.yul\":4268:4274   */\n      0x00\n        /* \"#utility.yul\":4301:4303   */\n      0x40\n        /* \"#utility.yul\":4295:4304   */\n      mload\n        /* \"#utility.yul\":4285:4304   */\n      swap1\n      pop\n        /* \"#utility.yul\":4235:4310   */\n      swap1\n      jump\t// out\n        /* \"#utility.yul\":4316:4433   */\n    tag_88:\n        /* \"#utility.yul\":4425:4426   */\n      0x00\n        /* \"#utility.yul\":4422:4423   */\n      dup1\n        /* \"#utility.yul\":4415:4427   */\n      revert\n        /* \"#utility.yul\":4439:4556   */\n    tag_89:\n        /* \"#utility.yul\":4548:4549   */\n      0x00\n        /* \"#utility.yul\":4545:4546   */\n      dup1\n        /* \"#utility.yul\":4538:4550   */\n      revert\n        /* \"#utility.yul\":4562:4679   */\n    tag_90:\n        /* \"#utility.yul\":4671:4672   */\n      0x00\n        /* \"#utility.yul\":4668:4669   */\n      dup1\n        /* \"#utility.yul\":4661:4673   */\n      revert\n        /* \"#utility.yul\":4685:4802   */\n    tag_91:\n        /* \"#utility.yul\":4794:4795   */\n      0x00\n        /* \"#utility.yul\":4791:4792   */\n      dup1\n        /* \"#utility.yul\":4784:4796   */\n      revert\n        /* \"#utility.yul\":4808:4988   */\n    tag_92:\n        /* \"#utility.yul\":4856:4933   */\n      0x4e487b7100000000000000000000000000000000000000000000000000000000\n        /* \"#utility.yul\":4853:4854   */\n      0x00\n        /* \"#utility.yul\":4846:4934   */\n      mstore\n        /* \"#utility.yul\":4953:4957   */\n      0x41\n        /* \"#utility.yul\":4950:4951   */\n      0x04\n        /* \"#utility.yul\":4943:4958   */\n      mstore\n        /* \"#utility.yul\":4977:4981   */\n      0x24\n        /* \"#utility.yul\":4974:4975   */\n      0x00\n        /* \"#utility.yul\":4967:4982   */\n      revert\n        /* \"#utility.yul\":4994:5275   */\n    tag_93:\n        /* \"#utility.yul\":5077:5104   */\n      tag_163\n        /* \"#utility.yul\":5099:5103   */\n      dup3\n        /* \"#utility.yul\":5077:5104   */\n      tag_79\n      jump\t// in\n    tag_163:\n        /* \"#utility.yul\":5069:5075   */\n      dup2\n        /* \"#utility.yul\":5065:5105   */\n      add\n        /* \"#utility.yul\":5207:5213   */\n      dup2\n        /* \"#utility.yul\":5195:5205   */\n      dup2\n        /* \"#utility.yul\":5192:5214   */\n      lt\n        /* \"#utility.yul\":5171:5189   */\n      0xffffffffffffffff\n        /* \"#utility.yul\":5159:5169   */\n      dup3\n        /* \"#utility.yul\":5156:5190   */\n      gt\n        /* \"#utility.yul\":5153:5215   */\n      or\n        /* \"#utility.yul\":5150:5238   */\n      iszero\n      tag_164\n      jumpi\n        /* \"#utility.yul\":5218:5236   */\n      tag_165\n      tag_92\n      jump\t// in\n    tag_165:\n        /* \"#utility.yul\":5150:5238   */\n    tag_164:\n        /* \"#utility.yul\":5258:5268   */\n      dup1\n        /* \"#utility.yul\":5254:5256   */\n      0x40\n        /* \"#utility.yul\":5247:5269   */\n      mstore\n        /* \"#utility.yul\":5037:5275   */\n      pop\n        /* \"#utility.yul\":4994:5275   */\n      pop\n      pop\n      jump\t// out\n        /* \"#utility.yul\":5281:5410   */\n    tag_94:\n        /* \"#utility.yul\":5315:5321   */\n      0x00\n        /* \"#utility.yul\":5342:5362   */\n      tag_167\n      tag_87\n      jump\t// in\n    tag_167:\n        /* \"#utility.yul\":5332:5362   */\n      swap1\n      pop\n        /* \"#utility.yul\":5371:5404   */\n      tag_168\n        /* \"#utility.yul\":5399:5403   */\n      dup3\n        /* \"#utility.yul\":5391:5397   */\n      dup3\n        /* \"#utility.yul\":5371:5404   */\n      tag_93\n      jump\t// in\n    tag_168:\n        /* \"#utility.yul\":5281:5410   */\n      swap2\n      swap1\n      pop\n      jump\t// out\n        /* \"#utility.yul\":5416:5724   */\n    tag_95:\n        /* \"#utility.yul\":5478:5482   */\n      0x00\n        /* \"#utility.yul\":5568:5586   */\n      0xffffffffffffffff\n        /* \"#utility.yul\":5560:5566   */\n      dup3\n        /* \"#utility.yul\":5557:5587   */\n      gt\n        /* \"#utility.yul\":5554:5610   */\n      iszero\n      tag_170\n      jumpi\n        /* \"#utility.yul\":5590:5608   */\n      tag_171\n      tag_92\n      jump\t// in\n    tag_171:\n        /* \"#utility.yul\":5554:5610   */\n    tag_170:\n        /* \"#utility.yul\":5628:5657   */\n      tag_172\n        /* \"#utility.yul\":5650:5656   */\n      dup3\n        /* \"#utility.yul\":5628:5657   */\n      tag_79\n      jump\t// in\n    tag_172:\n        /* \"#utility.yul\":5620:5657   */\n      swap1\n      pop\n        /* \"#utility.yul\":5712:5716   */\n      0x20\n        /* \"#utility.yul\":5706:5710   */\n      dup2\n        /* \"#utility.yul\":5702:5717   */\n      add\n        /* \"#utility.yul\":5694:5717   */\n      swap1\n      pop\n        /* \"#utility.yul\":5416:5724   */\n      swap2\n      swap1\n      pop\n      jump\t// out\n        /* \"#utility.yul\":5730:5878   */\n    tag_96:\n        /* \"#utility.yul\":5828:5834   */\n      dup3\n        /* \"#utility.yul\":5823:5826   */\n      dup2\n        /* \"#utility.yul\":5818:5821   */\n      dup4\n        /* \"#utility.yul\":5805:5835   */\n      calldatacopy\n        /* \"#utility.yul\":5869:5870   */\n      0x00\n        /* \"#utility.yul\":5860:5866   */\n      dup4\n        /* \"#utility.yul\":5855:5858   */\n      dup4\n        /* \"#utility.yul\":5851:5867   */\n      add\n        /* \"#utility.yul\":5844:5871   */\n      mstore\n        /* \"#utility.yul\":5730:5878   */\n      pop\n      pop\n      pop\n      jump\t// out\n        /* \"#utility.yul\":5884:6309   */\n    tag_97:\n        /* \"#utility.yul\":5962:5967   */\n      0x00\n        /* \"#utility.yul\":5987:6053   */\n      tag_175\n        /* \"#utility.yul\":6003:6052   */\n      tag_176\n        /* \"#utility.yul\":6045:6051   */\n      dup5\n        /* \"#utility.yul\":6003:6052   */\n      tag_95\n      jump\t// in\n    tag_176:\n        /* \"#utility.yul\":5987:6053   */\n      tag_94\n      jump\t// in\n    tag_175:\n        /* \"#utility.yul\":5978:6053   */\n      swap1\n      pop\n        /* \"#utility.yul\":6076:6082   */\n      dup3\n        /* \"#utility.yul\":6069:6074   */\n      dup2\n        /* \"#utility.yul\":6062:6083   */\n      mstore\n        /* \"#utility.yul\":6114:6118   */\n      0x20\n        /* \"#utility.yul\":6107:6112   */\n      dup2\n        /* \"#utility.yul\":6103:6119   */\n      add\n        /* \"#utility.yul\":6152:6155   */\n      dup5\n        /* \"#utility.yul\":6143:6149   */\n      dup5\n        /* \"#utility.yul\":6138:6141   */\n      dup5\n        /* \"#utility.yul\":6134:6150   */\n      add\n        /* \"#utility.yul\":6131:6156   */\n      gt\n        /* \"#utility.yul\":6128:6240   */\n      iszero\n      tag_177\n      jumpi\n        /* \"#utility.yul\":6159:6238   */\n      tag_178\n      tag_91\n      jump\t// in\n    tag_178:\n        /* \"#utility.yul\":6128:6240   */\n    tag_177:\n        /* \"#utility.yul\":6249:6303   */\n      tag_179\n        /* \"#utility.yul\":6296:6302   */\n      dup5\n        /* \"#utility.yul\":6291:6294   */\n      dup3\n        /* \"#utility.yul\":6286:6289   */\n      dup6\n        /* \"#utility.yul\":6249:6303   */\n      tag_96\n      jump\t// in\n    tag_179:\n        /* \"#utility.yul\":5968:6309   */\n      pop\n        /* \"#utility.yul\":5884:6309   */\n      swap4\n      swap3\n      pop\n      pop\n      pop\n      jump\t// out\n        /* \"#utility.yul\":6329:6669   */\n    tag_98:\n        /* \"#utility.yul\":6385:6390   */\n      0x00\n        /* \"#utility.yul\":6434:6437   */\n      dup3\n        /* \"#utility.yul\":6427:6431   */\n      0x1f\n        /* \"#utility.yul\":6419:6425   */\n      dup4\n        /* \"#utility.yul\":6415:6432   */\n      add\n        /* \"#utility.yul\":6411:6438   */\n      slt\n        /* \"#utility.yul\":6401:6523   */\n      tag_181\n      jumpi\n        /* \"#utility.yul\":6442:6521   */\n      tag_182\n      tag_90\n      jump\t// in\n    tag_182:\n        /* \"#utility.yul\":6401:6523   */\n    tag_181:\n        /* \"#utility.yul\":6559:6565   */\n      dup2\n        /* \"#utility.yul\":6546:6566   */\n      calldataload\n        /* \"#utility.yul\":6584:6663   */\n      tag_183\n        /* \"#utility.yul\":6659:6662   */\n      dup5\n        /* \"#utility.yul\":6651:6657   */\n      dup3\n        /* \"#utility.yul\":6644:6648   */\n      0x20\n        /* \"#utility.yul\":6636:6642   */\n      dup7\n        /* \"#utility.yul\":6632:6649   */\n      add\n        /* \"#utility.yul\":6584:6663   */\n      tag_97\n      jump\t// in\n    tag_183:\n        /* \"#utility.yul\":6575:6663   */\n      swap2\n      pop\n        /* \"#utility.yul\":6391:6669   */\n      pop\n        /* \"#utility.yul\":6329:6669   */\n      swap3\n      swap2\n      pop\n      pop\n      jump\t// out\n        /* \"#utility.yul\":6675:6793   */\n    tag_99:\n        /* \"#utility.yul\":6746:6768   */\n      tag_185\n        /* \"#utility.yul\":6762:6767   */\n      dup2\n        /* \"#utility.yul\":6746:6768   */\n      tag_81\n      jump\t// in\n    tag_185:\n        /* \"#utility.yul\":6739:6744   */\n      dup2\n        /* \"#utility.yul\":6736:6769   */\n      eq\n        /* \"#utility.yul\":6726:6787   */\n      tag_186\n      jumpi\n        /* \"#utility.yul\":6783:6784   */\n      0x00\n        /* \"#utility.yul\":6780:6781   */\n      dup1\n        /* \"#utility.yul\":6773:6785   */\n      revert\n        /* \"#utility.yul\":6726:6787   */\n    tag_186:\n        /* \"#utility.yul\":6675:6793   */\n      pop\n      jump\t// out\n        /* \"#utility.yul\":6799:6934   */\n    tag_100:\n        /* \"#utility.yul\":6843:6848   */\n      0x00\n        /* \"#utility.yul\":6881:6887   */\n      dup2\n        /* \"#utility.yul\":6868:6888   */\n      calldataload\n        /* \"#utility.yul\":6859:6888   */\n      swap1\n      pop\n        /* \"#utility.yul\":6897:6928   */\n      tag_188\n        /* \"#utility.yul\":6922:6927   */\n      dup2\n        /* \"#utility.yul\":6897:6928   */\n      tag_99\n      jump\t// in\n    tag_188:\n        /* \"#utility.yul\":6799:6934   */\n      swap3\n      swap2\n      pop\n      pop\n      jump\t// out\n        /* \"#utility.yul\":6940:7590   */\n    tag_15:\n        /* \"#utility.yul\":7016:7022   */\n      0x00\n        /* \"#utility.yul\":7024:7030   */\n      dup1\n        /* \"#utility.yul\":7073:7075   */\n      0x40\n        /* \"#utility.yul\":7061:7070   */\n      dup4\n        /* \"#utility.yul\":7052:7059   */\n      dup6\n        /* \"#utility.yul\":7048:7071   */\n      sub\n        /* \"#utility.yul\":7044:7076   */\n      slt\n        /* \"#utility.yul\":7041:7160   */\n      iszero\n      tag_190\n      jumpi\n        /* \"#utility.yul\":7079:7158   */\n      tag_191\n      tag_88\n      jump\t// in\n    tag_191:\n        /* \"#utility.yul\":7041:7160   */\n    tag_190:\n        /* \"#utility.yul\":7227:7228   */\n      0x00\n        /* \"#utility.yul\":7216:7225   */\n      dup4\n        /* \"#utility.yul\":7212:7229   */\n      add\n        /* \"#utility.yul\":7199:7230   */\n      calldataload\n        /* \"#utility.yul\":7257:7275   */\n      0xffffffffffffffff\n        /* \"#utility.yul\":7249:7255   */\n      dup2\n        /* \"#utility.yul\":7246:7276   */\n      gt\n        /* \"#utility.yul\":7243:7360   */\n      iszero\n      tag_192\n      jumpi\n        /* \"#utility.yul\":7279:7358   */\n      tag_193\n      tag_89\n      jump\t// in\n    tag_193:\n        /* \"#utility.yul\":7243:7360   */\n    tag_192:\n        /* \"#utility.yul\":7384:7447   */\n      tag_194\n        /* \"#utility.yul\":7439:7446   */\n      dup6\n        /* \"#utility.yul\":7430:7436   */\n      dup3\n        /* \"#utility.yul\":7419:7428   */\n      dup7\n        /* \"#utility.yul\":7415:7437   */\n      add\n        /* \"#utility.yul\":7384:7447   */\n      tag_98\n      jump\t// in\n    tag_194:\n        /* \"#utility.yul\":7374:7447   */\n      swap3\n      pop\n        /* \"#utility.yul\":7170:7457   */\n      pop\n        /* \"#utility.yul\":7496:7498   */\n      0x20\n        /* \"#utility.yul\":7522:7573   */\n      tag_195\n        /* \"#utility.yul\":7565:7572   */\n      dup6\n        /* \"#utility.yul\":7556:7562   */\n      dup3\n        /* \"#utility.yul\":7545:7554   */\n      dup7\n        /* \"#utility.yul\":7541:7563   */\n      add\n        /* \"#utility.yul\":7522:7573   */\n      tag_100\n      jump\t// in\n    tag_195:\n        /* \"#utility.yul\":7512:7573   */\n      swap2\n      pop\n        /* \"#utility.yul\":7467:7583   */\n      pop\n        /* \"#utility.yul\":6940:7590   */\n      swap3\n      pop\n      swap3\n      swap1\n      pop\n      jump\t// out\n        /* \"#utility.yul\":7596:7765   */\n    tag_101:\n        /* \"#utility.yul\":7680:7691   */\n      0x00\n        /* \"#utility.yul\":7714:7720   */\n      dup3\n        /* \"#utility.yul\":7709:7712   */\n      dup3\n        /* \"#utility.yul\":7702:7721   */\n      mstore\n        /* \"#utility.yul\":7754:7758   */\n      0x20\n        /* \"#utility.yul\":7749:7752   */\n      dup3\n        /* \"#utility.yul\":7745:7759   */\n      add\n        /* \"#utility.yul\":7730:7759   */\n      swap1\n      pop\n        /* \"#utility.yul\":7596:7765   */\n      swap3\n      swap2\n      pop\n      pop\n      jump\t// out\n        /* \"#utility.yul\":7771:8148   */\n    tag_102:\n        /* \"#utility.yul\":7859:7862   */\n      0x00\n        /* \"#utility.yul\":7887:7926   */\n      tag_198\n        /* \"#utility.yul\":7920:7925   */\n      dup3\n        /* \"#utility.yul\":7887:7926   */\n      tag_76\n      jump\t// in\n    tag_198:\n        /* \"#utility.yul\":7942:8013   */\n      tag_199\n        /* \"#utility.yul\":8006:8012   */\n      dup2\n        /* \"#utility.yul\":8001:8004   */\n      dup6\n        /* \"#utility.yul\":7942:8013   */\n      tag_101\n      jump\t// in\n    tag_199:\n        /* \"#utility.yul\":7935:8013   */\n      swap4\n      pop\n        /* \"#utility.yul\":8022:8087   */\n      tag_200\n        /* \"#utility.yul\":8080:8086   */\n      dup2\n        /* \"#utility.yul\":8075:8078   */\n      dup6\n        /* \"#utility.yul\":8068:8072   */\n      0x20\n        /* \"#utility.yul\":8061:8066   */\n      dup7\n        /* \"#utility.yul\":8057:8073   */\n      add\n        /* \"#utility.yul\":8022:8087   */\n      tag_78\n      jump\t// in\n    tag_200:\n        /* \"#utility.yul\":8112:8141   */\n      tag_201\n        /* \"#utility.yul\":8134:8140   */\n      dup2\n        /* \"#utility.yul\":8112:8141   */\n      tag_79\n      jump\t// in\n    tag_201:\n        /* \"#utility.yul\":8107:8110   */\n      dup5\n        /* \"#utility.yul\":8103:8142   */\n      add\n        /* \"#utility.yul\":8096:8142   */\n      swap2\n      pop\n        /* \"#utility.yul\":7863:8148   */\n      pop\n        /* \"#utility.yul\":7771:8148   */\n      swap3\n      swap2\n      pop\n      pop\n      jump\t// out\n        /* \"#utility.yul\":8154:8266   */\n    tag_103:\n        /* \"#utility.yul\":8237:8259   */\n      tag_203\n        /* \"#utility.yul\":8253:8258   */\n      dup2\n        /* \"#utility.yul\":8237:8259   */\n      tag_81\n      jump\t// in\n    tag_203:\n        /* \"#utility.yul\":8232:8235   */\n      dup3\n        /* \"#utility.yul\":8225:8260   */\n      mstore\n        /* \"#utility.yul\":8154:8266   */\n      pop\n      pop\n      jump\t// out\n        /* \"#utility.yul\":8272:8687   */\n    tag_23:\n        /* \"#utility.yul\":8409:8413   */\n      0x00\n        /* \"#utility.yul\":8447:8449   */\n      0x40\n        /* \"#utility.yul\":8436:8445   */\n      dup3\n        /* \"#utility.yul\":8432:8450   */\n      add\n        /* \"#utility.yul\":8424:8450   */\n      swap1\n      pop\n        /* \"#utility.yul\":8496:8505   */\n      dup2\n        /* \"#utility.yul\":8490:8494   */\n      dup2\n        /* \"#utility.yul\":8486:8506   */\n      sub\n        /* \"#utility.yul\":8482:8483   */\n      0x00\n        /* \"#utility.yul\":8471:8480   */\n      dup4\n        /* \"#utility.yul\":8467:8484   */\n      add\n        /* \"#utility.yul\":8460:8507   */\n      mstore\n        /* \"#utility.yul\":8524:8602   */\n      tag_205\n        /* \"#utility.yul\":8597:8601   */\n      dup2\n        /* \"#utility.yul\":8588:8594   */\n      dup6\n        /* \"#utility.yul\":8524:8602   */\n      tag_102\n      jump\t// in\n    tag_205:\n        /* \"#utility.yul\":8516:8602   */\n      swap1\n      pop\n        /* \"#utility.yul\":8612:8680   */\n      tag_206\n        /* \"#utility.yul\":8676:8678   */\n      0x20\n        /* \"#utility.yul\":8665:8674   */\n      dup4\n        /* \"#utility.yul\":8661:8679   */\n      add\n        /* \"#utility.yul\":8652:8658   */\n      dup5\n        /* \"#utility.yul\":8612:8680   */\n      tag_103\n      jump\t// in\n    tag_206:\n        /* \"#utility.yul\":8272:8687   */\n      swap4\n      swap3\n      pop\n      pop\n      pop\n      jump\t// out\n        /* \"#utility.yul\":8693:8770   */\n    tag_104:\n        /* \"#utility.yul\":8730:8737   */\n      0x00\n        /* \"#utility.yul\":8759:8764   */\n      dup2\n        /* \"#utility.yul\":8748:8764   */\n      swap1\n      pop\n        /* \"#utility.yul\":8693:8770   */\n      swap2\n      swap1\n      pop\n      jump\t// out\n        /* \"#utility.yul\":8776:8898   */\n    tag_105:\n        /* \"#utility.yul\":8849:8873   */\n      tag_209\n        /* \"#utility.yul\":8867:8872   */\n      dup2\n        /* \"#utility.yul\":8849:8873   */\n      tag_104\n      jump\t// in\n    tag_209:\n        /* \"#utility.yul\":8842:8847   */\n      dup2\n        /* \"#utility.yul\":8839:8874   */\n      eq\n        /* \"#utility.yul\":8829:8892   */\n      tag_210\n      jumpi\n        /* \"#utility.yul\":8888:8889   */\n      0x00\n        /* \"#utility.yul\":8885:8886   */\n      dup1\n        /* \"#utility.yul\":8878:8890   */\n      revert\n        /* \"#utility.yul\":8829:8892   */\n    tag_210:\n        /* \"#utility.yul\":8776:8898   */\n      pop\n      jump\t// out\n        /* \"#utility.yul\":8904:9043   */\n    tag_106:\n        /* \"#utility.yul\":8950:8955   */\n      0x00\n        /* \"#utility.yul\":8988:8994   */\n      dup2\n        /* \"#utility.yul\":8975:8995   */\n      calldataload\n        /* \"#utility.yul\":8966:8995   */\n      swap1\n      pop\n        /* \"#utility.yul\":9004:9037   */\n      tag_212\n        /* \"#utility.yul\":9031:9036   */\n      dup2\n        /* \"#utility.yul\":9004:9037   */\n      tag_105\n      jump\t// in\n    tag_212:\n        /* \"#utility.yul\":8904:9043   */\n      swap3\n      swap2\n      pop\n      pop\n      jump\t// out\n        /* \"#utility.yul\":9049:9378   */\n    tag_26:\n        /* \"#utility.yul\":9108:9114   */\n      0x00\n        /* \"#utility.yul\":9157:9159   */\n      0x20\n        /* \"#utility.yul\":9145:9154   */\n      dup3\n        /* \"#utility.yul\":9136:9143   */\n      dup5\n        /* \"#utility.yul\":9132:9155   */\n      sub\n        /* \"#utility.yul\":9128:9160   */\n      slt\n        /* \"#utility.yul\":9125:9244   */\n      iszero\n      tag_214\n      jumpi\n        /* \"#utility.yul\":9163:9242   */\n      tag_215\n      tag_88\n      jump\t// in\n    tag_215:\n        /* \"#utility.yul\":9125:9244   */\n    tag_214:\n        /* \"#utility.yul\":9283:9284   */\n      0x00\n        /* \"#utility.yul\":9308:9361   */\n      tag_216\n        /* \"#utility.yul\":9353:9360   */\n      dup5\n        /* \"#utility.yul\":9344:9350   */\n      dup3\n        /* \"#utility.yul\":9333:9342   */\n      dup6\n        /* \"#utility.yul\":9329:9351   */\n      add\n        /* \"#utility.yul\":9308:9361   */\n      tag_106\n      jump\t// in\n    tag_216:\n        /* \"#utility.yul\":9298:9361   */\n      swap2\n      pop\n        /* \"#utility.yul\":9254:9371   */\n      pop\n        /* \"#utility.yul\":9049:9378   */\n      swap3\n      swap2\n      pop\n      pop\n      jump\t// out\n        /* \"#utility.yul\":9384:9564   */\n    tag_107:\n        /* \"#utility.yul\":9432:9509   */\n      0x4e487b7100000000000000000000000000000000000000000000000000000000\n        /* \"#utility.yul\":9429:9430   */\n      0x00\n        /* \"#utility.yul\":9422:9510   */\n      mstore\n        /* \"#utility.yul\":9529:9533   */\n      0x22\n        /* \"#utility.yul\":9526:9527   */\n      0x04\n        /* \"#utility.yul\":9519:9534   */\n      mstore\n        /* \"#utility.yul\":9553:9557   */\n      0x24\n        /* \"#utility.yul\":9550:9551   */\n      0x00\n        /* \"#utility.yul\":9543:9558   */\n      revert\n        /* \"#utility.yul\":9570:9890   */\n    tag_36:\n        /* \"#utility.yul\":9614:9620   */\n      0x00\n        /* \"#utility.yul\":9651:9652   */\n      0x02\n        /* \"#utility.yul\":9645:9649   */\n      dup3\n        /* \"#utility.yul\":9641:9653   */\n      div\n        /* \"#utility.yul\":9631:9653   */\n      swap1\n      pop\n        /* \"#utility.yul\":9698:9699   */\n      0x01\n        /* \"#utility.yul\":9692:9696   */\n      dup3\n        /* \"#utility.yul\":9688:9700   */\n      and\n        /* \"#utility.yul\":9719:9737   */\n      dup1\n        /* \"#utility.yul\":9709:9790   */\n      tag_219\n      jumpi\n        /* \"#utility.yul\":9775:9779   */\n      0x7f\n        /* \"#utility.yul\":9767:9773   */\n      dup3\n        /* \"#utility.yul\":9763:9780   */\n      and\n        /* \"#utility.yul\":9753:9780   */\n      swap2\n      pop\n        /* \"#utility.yul\":9709:9790   */\n    tag_219:\n        /* \"#utility.yul\":9837:9839   */\n      0x20\n        /* \"#utility.yul\":9829:9835   */\n      dup3\n        /* \"#utility.yul\":9826:9840   */\n      lt\n        /* \"#utility.yul\":9806:9824   */\n      dup2\n        /* \"#utility.yul\":9803:9841   */\n      sub\n        /* \"#utility.yul\":9800:9884   */\n      tag_220\n      jumpi\n        /* \"#utility.yul\":9856:9874   */\n      tag_221\n      tag_107\n      jump\t// in\n    tag_221:\n        /* \"#utility.yul\":9800:9884   */\n    tag_220:\n        /* \"#utility.yul\":9621:9890   */\n      pop\n        /* \"#utility.yul\":9570:9890   */\n      swap2\n      swap1\n      pop\n      jump\t// out\n        /* \"#utility.yul\":9896:10037   */\n    tag_108:\n        /* \"#utility.yul\":9945:9949   */\n      0x00\n        /* \"#utility.yul\":9968:9971   */\n      dup2\n        /* \"#utility.yul\":9960:9971   */\n      swap1\n      pop\n        /* \"#utility.yul\":9991:9994   */\n      dup2\n        /* \"#utility.yul\":9988:9989   */\n      0x00\n        /* \"#utility.yul\":9981:9995   */\n      mstore\n        /* \"#utility.yul\":10025:10029   */\n      0x20\n        /* \"#utility.yul\":10022:10023   */\n      0x00\n        /* \"#utility.yul\":10012:10030   */\n      keccak256\n        /* \"#utility.yul\":10004:10030   */\n      swap1\n      pop\n        /* \"#utility.yul\":9896:10037   */\n      swap2\n      swap1\n      pop\n      jump\t// out\n        /* \"#utility.yul\":10043:10136   */\n    tag_109:\n        /* \"#utility.yul\":10080:10086   */\n      0x00\n        /* \"#utility.yul\":10127:10129   */\n      0x20\n        /* \"#utility.yul\":10122:10124   */\n      0x1f\n        /* \"#utility.yul\":10115:10120   */\n      dup4\n        /* \"#utility.yul\":10111:10125   */\n      add\n        /* \"#utility.yul\":10107:10130   */\n      div\n        /* \"#utility.yul\":10097:10130   */\n      swap1\n      pop\n        /* \"#utility.yul\":10043:10136   */\n      swap2\n      swap1\n      pop\n      jump\t// out\n        /* \"#utility.yul\":10142:10249   */\n    tag_110:\n        /* \"#utility.yul\":10186:10194   */\n      0x00\n        /* \"#utility.yul\":10236:10241   */\n      dup3\n        /* \"#utility.yul\":10230:10234   */\n      dup3\n        /* \"#utility.yul\":10226:10242   */\n      shl\n        /* \"#utility.yul\":10205:10242   */\n      swap1\n      pop\n        /* \"#utility.yul\":10142:10249   */\n      swap3\n      swap2\n      pop\n      pop\n      jump\t// out\n        /* \"#utility.yul\":10255:10648   */\n    tag_111:\n        /* \"#utility.yul\":10324:10330   */\n      0x00\n        /* \"#utility.yul\":10374:10375   */\n      0x08\n        /* \"#utility.yul\":10362:10372   */\n      dup4\n        /* \"#utility.yul\":10358:10376   */\n      mul\n        /* \"#utility.yul\":10397:10494   */\n      tag_226\n        /* \"#utility.yul\":10427:10493   */\n      0xffffffffffffffffffffffffffffffffffffffffffffffffffffffffffffffff\n        /* \"#utility.yul\":10416:10425   */\n      dup3\n        /* \"#utility.yul\":10397:10494   */\n      tag_110\n      jump\t// in\n    tag_226:\n        /* \"#utility.yul\":10515:10554   */\n      tag_227\n        /* \"#utility.yul\":10545:10553   */\n      dup7\n        /* \"#utility.yul\":10534:10543   */\n      dup4\n        /* \"#utility.yul\":10515:10554   */\n      tag_110\n      jump\t// in\n    tag_227:\n        /* \"#utility.yul\":10503:10554   */\n      swap6\n      pop\n        /* \"#utility.yul\":10587:10591   */\n      dup1\n        /* \"#utility.yul\":10583:10592   */\n      not\n        /* \"#utility.yul\":10576:10581   */\n      dup5\n        /* \"#utility.yul\":10572:10593   */\n      and\n        /* \"#utility.yul\":10563:10593   */\n      swap4\n      pop\n        /* \"#utility.yul\":10636:10640   */\n      dup1\n        /* \"#utility.yul\":10626:10634   */\n      dup7\n        /* \"#utility.yul\":10622:10641   */\n      and\n        /* \"#utility.yul\":10615:10620   */\n      dup5\n        /* \"#utility.yul\":10612:10642   */\n      or\n        /* \"#utility.yul\":10602:10642   */\n      swap3\n      pop\n        /* \"#utility.yul\":10331:10648   */\n      pop\n      pop\n        /* \"#utility.yul\":10255:10648   */\n      swap4\n      swap3\n      pop\n      pop\n      pop\n      jump\t// out\n        /* \"#utility.yul\":10654:10714   */\n    tag_112:\n        /* \"#utility.yul\":10682:10685   */\n      0x00\n        /* \"#utility.yul\":10703:10708   */\n      dup2\n        /* \"#utility.yul\":10696:10708   */\n      swap1\n      pop\n        /* \"#utility.yul\":10654:10714   */\n      swap2\n      swap1\n      pop\n      jump\t// out\n        /* \"#utility.yul\":10720:10862   */\n    tag_113:\n        /* \"#utility.yul\":10770:10779   */\n      0x00\n        /* \"#utility.yul\":10803:10856   */\n      tag_230\n        /* \"#utility.yul\":10821:10855   */\n      tag_231\n        /* \"#utility.yul\":10830:10854   */\n      tag_232\n        /* \"#utility.yul\":10848:10853   */\n      dup5\n        /* \"#utility.yul\":10830:10854   */\n      tag_104\n      jump\t// in\n    tag_232:\n        /* \"#utility.yul\":10821:10855   */\n      tag_112\n      jump\t// in\n    tag_231:\n        /* \"#utility.yul\":10803:10856   */\n      tag_104\n      jump\t// in\n    tag_230:\n        /* \"#utility.yul\":10790:10856   */\n      swap1\n      pop\n        /* \"#utility.yul\":10720:10862   */\n      swap2\n      swap1\n      pop\n      jump\t// out\n        /* \"#utility.yul\":10868:10943   */\n    tag_114:\n        /* \"#utility.yul\":10911:10914   */\n      0x00\n        /* \"#utility.yul\":10932:10937   */\n      dup2\n        /* \"#utility.yul\":10925:10937   */\n      swap1\n      pop\n        /* \"#utility.yul\":10868:10943   */\n      swap2\n      swap1\n      pop\n      jump\t// out\n        /* \"#utility.yul\":10949:11218   */\n    tag_115:\n        /* \"#utility.yul\":11059:11098   */\n      tag_235\n        /* \"#utility.yul\":11090:11097   */\n      dup4\n        /* \"#utility.yul\":11059:11098   */\n      tag_113\n      jump\t// in\n    tag_235:\n        /* \"#utility.yul\":11120:11211   */\n      tag_236\n        /* \"#utility.yul\":11169:11210   */\n      tag_237\n        /* \"#utility.yul\":11193:11209   */\n      dup3\n        /* \"#utility.yul\":11169:11210   */\n      tag_114\n      jump\t// in\n    tag_237:\n        /* \"#utility.yul\":11161:11167   */\n      dup5\n        /* \"#utility.yul\":11154:11158   */\n      dup5\n        /* \"#utility.yul\":11148:11159   */\n      sload\n        /* \"#utility.yul\":11120:11211   */\n      tag_111\n      jump\t// in\n    tag_236:\n        /* \"#utility.yul\":11114:11118   */\n      dup3\n        /* \"#utility.yul\":11107:11212   */\n      sstore\n        /* \"#utility.yul\":11025:11218   */\n      pop\n        /* \"#utility.yul\":10949:11218   */\n      pop\n      pop\n      pop\n      jump\t// out\n        /* \"#utility.yul\":11224:11297   */\n    tag_116:\n        /* \"#utility.yul\":11269:11272   */\n      0x00\n        /* \"#utility.yul\":11224:11297   */\n      swap1\n      jump\t// out\n        /* \"#utility.yul\":11303:11492   */\n    tag_117:\n        /* \"#utility.yul\":11380:11412   */\n      tag_240\n      tag_116\n      jump\t// in\n    tag_240:\n        /* \"#utility.yul\":11421:11486   */\n      tag_241\n        /* \"#utility.yul\":11479:11485   */\n      dup2\n        /* \"#utility.yul\":11471:11477   */\n      dup5\n        /* \"#utility.yul\":11465:11469   */\n      dup5\n        /* \"#utility.yul\":11421:11486   */\n      tag_115\n      jump\t// in\n    tag_241:\n        /* \"#utility.yul\":11356:11492   */\n      pop\n        /* \"#utility.yul\":11303:11492   */\n      pop\n      pop\n      jump\t// out\n        /* \"#utility.yul\":11498:11684   */\n    tag_118:\n        /* \"#utility.yul\":11558:11678   */\n    tag_243:\n        /* \"#utility.yul\":11575:11578   */\n      dup2\n        /* \"#utility.yul\":11568:11573   */\n      dup2\n        /* \"#utility.yul\":11565:11579   */\n      lt\n        /* \"#utility.yul\":11558:11678   */\n      iszero\n      tag_245\n      jumpi\n        /* \"#utility.yul\":11629:11668   */\n      tag_246\n        /* \"#utility.yul\":11666:11667   */\n      0x00\n        /* \"#utility.yul\":11659:11664   */\n      dup3\n        /* \"#utility.yul\":11629:11668   */\n      tag_117\n      jump\t// in\n    tag_246:\n        /* \"#utility.yul\":11602:11603   */\n      0x01\n        /* \"#utility.yul\":11595:11600   */\n      dup2\n        /* \"#utility.yul\":11591:11604   */\n      add\n        /* \"#utility.yul\":11582:11604   */\n      swap1\n      pop\n        /* \"#utility.yul\":11558:11678   */\n      jump(tag_243)\n    tag_245:\n        /* \"#utility.yul\":11498:11684   */\n      pop\n      pop\n      jump\t// out\n        /* \"#utility.yul\":11690:12233   */\n    tag_119:\n        /* \"#utility.yul\":11791:11793   */\n      0x1f\n        /* \"#utility.yul\":11786:11789   */\n      dup3\n        /* \"#utility.yul\":11783:11794   */\n      gt\n        /* \"#utility.yul\":11780:12226   */\n      iszero\n      tag_248\n      jumpi\n        /* \"#utility.yul\":11825:11863   */\n      tag_249\n        /* \"#utility.yul\":11857:11862   */\n      dup2\n        /* \"#utility.yul\":11825:11863   */\n      tag_108\n      jump\t// in\n    tag_249:\n        /* \"#utility.yul\":11909:11938   */\n      tag_250\n        /* \"#utility.yul\":11927:11937   */\n      dup5\n        /* \"#utility.yul\":11909:11938   */\n      tag_109\n      jump\t// in\n    tag_250:\n        /* \"#utility.yul\":11899:11907   */\n      dup2\n        /* \"#utility.yul\":11895:11939   */\n      add\n        /* \"#utility.yul\":12092:12094   */\n      0x20\n        /* \"#utility.yul\":12080:12090   */\n      dup6\n        /* \"#utility.yul\":12077:12095   */\n      lt\n        /* \"#utility.yul\":12074:12123   */\n      iszero\n      tag_251\n      jumpi\n        /* \"#utility.yul\":12113:12121   */\n      dup2\n        /* \"#utility.yul\":12098:12121   */\n      swap1\n      pop\n        /* \"#utility.yul\":12074:12123   */\n    tag_251:\n        /* \"#utility.yul\":12136:12216   */\n      tag_252\n        /* \"#utility.yul\":12192:12214   */\n      tag_253\n        /* \"#utility.yul\":12210:12213   */\n      dup6\n        /* \"#utility.yul\":12192:12214   */\n      tag_109\n      jump\t// in\n    tag_253:\n        /* \"#utility.yul\":12182:12190   */\n      dup4\n        /* \"#utility.yul\":12178:12215   */\n      add\n        /* \"#utility.yul\":12165:12176   */\n      dup3\n        /* \"#utility.yul\":12136:12216   */\n      tag_118\n      jump\t// in\n    tag_252:\n        /* \"#utility.yul\":11795:12226   */\n      pop\n      pop\n        /* \"#utility.yul\":11780:12226   */\n    tag_248:\n        /* \"#utility.yul\":11690:12233   */\n      pop\n      pop\n      pop\n      jump\t// out\n        /* \"#utility.yul\":12239:12356   */\n    tag_120:\n        /* \"#utility.yul\":12293:12301   */\n      0x00\n        /* \"#utility.yul\":12343:12348   */\n      dup3\n        /* \"#utility.yul\":12337:12341   */\n      dup3\n        /* \"#utility.yul\":12333:12349   */\n      shr\n        /* \"#utility.yul\":12312:12349   */\n      swap1\n      pop\n        /* \"#utility.yul\":12239:12356   */\n      swap3\n      swap2\n      pop\n      pop\n      jump\t// out\n        /* \"#utility.yul\":12362:12531   */\n    tag_121:\n        /* \"#utility.yul\":12406:12412   */\n      0x00\n        /* \"#utility.yul\":12439:12490   */\n      tag_256\n        /* \"#utility.yul\":12487:12488   */\n      0x00\n        /* \"#utility.yul\":12483:12489   */\n      not\n        /* \"#utility.yul\":12475:12480   */\n      dup5\n        /* \"#utility.yul\":12472:12473   */\n      0x08\n        /* \"#utility.yul\":12468:12481   */\n      mul\n        /* \"#utility.yul\":12439:12490   */\n      tag_120\n      jump\t// in\n    tag_256:\n        /* \"#utility.yul\":12435:12491   */\n      not\n        /* \"#utility.yul\":12520:12524   */\n      dup1\n        /* \"#utility.yul\":12514:12518   */\n      dup4\n        /* \"#utility.yul\":12510:12525   */\n      and\n        /* \"#utility.yul\":12500:12525   */\n      swap2\n      pop\n        /* \"#utility.yul\":12413:12531   */\n      pop\n        /* \"#utility.yul\":12362:12531   */\n      swap3\n      swap2\n      pop\n      pop\n      jump\t// out\n        /* \"#utility.yul\":12536:12831   */\n    tag_122:\n        /* \"#utility.yul\":12612:12616   */\n      0x00\n        /* \"#utility.yul\":12758:12787   */\n      tag_258\n        /* \"#utility.yul\":12783:12786   */\n      dup4\n        /* \"#utility.yul\":12777:12781   */\n      dup4\n        /* \"#utility.yul\":12758:12787   */\n      tag_121\n      jump\t// in\n    tag_258:\n        /* \"#utility.yul\":12750:12787   */\n      swap2\n      pop\n        /* \"#utility.yul\":12820:12823   */\n      dup3\n        /* \"#utility.yul\":12817:12818   */\n      0x02\n        /* \"#utility.yul\":12813:12824   */\n      mul\n        /* \"#utility.yul\":12807:12811   */\n      dup3\n        /* \"#utility.yul\":12804:12825   */\n      or\n        /* \"#utility.yul\":12796:12825   */\n      swap1\n      pop\n        /* \"#utility.yul\":12536:12831   */\n      swap3\n      swap2\n      pop\n      pop\n      jump\t// out\n        /* \"#utility.yul\":12836:14231   */\n    tag_43:\n        /* \"#utility.yul\":12953:12990   */\n      tag_260\n        /* \"#utility.yul\":12986:12989   */\n      dup3\n        /* \"#utility.yul\":12953:12990   */\n      tag_76\n      jump\t// in\n    tag_260:\n        /* \"#utility.yul\":13055:13073   */\n      0xffffffffffffffff\n        /* \"#utility.yul\":13047:13053   */\n      dup2\n        /* \"#utility.yul\":13044:13074   */\n      gt\n        /* \"#utility.yul\":13041:13097   */\n      iszero\n      tag_261\n      jumpi\n        /* \"#utility.yul\":13077:13095   */\n      tag_262\n      tag_92\n      jump\t// in\n    tag_262:\n        /* \"#utility.yul\":13041:13097   */\n    tag_261:\n        /* \"#utility.yul\":13121:13159   */\n      tag_263\n        /* \"#utility.yul\":13153:13157   */\n      dup3\n        /* \"#utility.yul\":13147:13158   */\n      sload\n        /* \"#utility.yul\":13121:13159   */\n      tag_36\n      jump\t// in\n    tag_263:\n        /* \"#utility.yul\":13206:13273   */\n      tag_264\n        /* \"#utility.yul\":13266:13272   */\n      dup3\n        /* \"#utility.yul\":13258:13264   */\n      dup3\n        /* \"#utility.yul\":13252:13256   */\n      dup6\n        /* \"#utility.yul\":13206:13273   */\n      tag_119\n      jump\t// in\n    tag_264:\n        /* \"#utility.yul\":13300:13301   */\n      0x00\n        /* \"#utility.yul\":13324:13328   */\n      0x20\n        /* \"#utility.yul\":13311:13328   */\n      swap1\n      pop\n        /* \"#utility.yul\":13356:13358   */\n      0x1f\n        /* \"#utility.yul\":13348:13354   */\n      dup4\n        /* \"#utility.yul\":13345:13359   */\n      gt\n        /* \"#utility.yul\":13373:13374   */\n      0x01\n        /* \"#utility.yul\":13368:13986   */\n      dup2\n      eq\n      tag_266\n      jumpi\n        /* \"#utility.yul\":14030:14031   */\n      0x00\n        /* \"#utility.yul\":14047:14053   */\n      dup5\n        /* \"#utility.yul\":14044:14121   */\n      iszero\n      tag_267\n      jumpi\n        /* \"#utility.yul\":14096:14105   */\n      dup3\n        /* \"#utility.yul\":14091:14094   */\n      dup8\n        /* \"#utility.yul\":14087:14106   */\n      add\n        /* \"#utility.yul\":14081:14107   */\n      mload\n        /* \"#utility.yul\":14072:14107   */\n      swap1\n      pop\n        /* \"#utility.yul\":14044:14121   */\n    tag_267:\n        /* \"#utility.yul\":14147:14214   */\n      tag_268\n        /* \"#utility.yul\":14207:14213   */\n      dup6\n        /* \"#utility.yul\":14200:14205   */\n      dup3\n        /* \"#utility.yul\":14147:14214   */\n      tag_122\n      jump\t// in\n    tag_268:\n        /* \"#utility.yul\":14141:14145   */\n      dup7\n        /* \"#utility.yul\":14134:14215   */\n      sstore\n        /* \"#utility.yul\":14003:14225   */\n      pop\n        /* \"#utility.yul\":13338:14225   */\n      jump(tag_265)\n        /* \"#utility.yul\":13368:13986   */\n    tag_266:\n        /* \"#utility.yul\":13420:13424   */\n      0x1f\n        /* \"#utility.yul\":13416:13425   */\n      not\n        /* \"#utility.yul\":13408:13414   */\n      dup5\n        /* \"#utility.yul\":13404:13426   */\n      and\n        /* \"#utility.yul\":13454:13491   */\n      tag_269\n        /* \"#utility.yul\":13486:13490   */\n      dup7\n        /* \"#utility.yul\":13454:13491   */\n      tag_108\n      jump\t// in\n    tag_269:\n        /* \"#utility.yul\":13513:13514   */\n      0x00\n        /* \"#utility.yul\":13527:13735   */\n    tag_270:\n        /* \"#utility.yul\":13541:13548   */\n      dup3\n        /* \"#utility.yul\":13538:13539   */\n      dup2\n        /* \"#utility.yul\":13535:13549   */\n      lt\n        /* \"#utility.yul\":13527:13735   */\n      iszero\n      tag_272\n      jumpi\n        /* \"#utility.yul\":13620:13629   */\n      dup5\n        /* \"#utility.yul\":13615:13618   */\n      dup10\n        /* \"#utility.yul\":13611:13630   */\n      add\n        /* \"#utility.yul\":13605:13631   */\n      mload\n        /* \"#utility.yul\":13597:13603   */\n      dup3\n        /* \"#utility.yul\":13590:13632   */\n      sstore\n        /* \"#utility.yul\":13671:13672   */\n      0x01\n        /* \"#utility.yul\":13663:13669   */\n      dup3\n        /* \"#utility.yul\":13659:13673   */\n      add\n        /* \"#utility.yul\":13649:13673   */\n      swap2\n      pop\n        /* \"#utility.yul\":13718:13720   */\n      0x20\n        /* \"#utility.yul\":13707:13716   */\n      dup6\n        /* \"#utility.yul\":13703:13721   */\n      add\n        /* \"#utility.yul\":13690:13721   */\n      swap5\n      pop\n        /* \"#utility.yul\":13564:13568   */\n      0x20\n        /* \"#utility.yul\":13561:13562   */\n      dup2\n        /* \"#utility.yul\":13557:13569   */\n      add\n        /* \"#utility.yul\":13552:13569   */\n      swap1\n      pop\n        /* \"#utility.yul\":13527:13735   */\n      jump(tag_270)\n    tag_272:\n        /* \"#utility.yul\":13763:13769   */\n      dup7\n        /* \"#utility.yul\":13754:13761   */\n      dup4\n        /* \"#utility.yul\":13751:13770   */\n      lt\n        /* \"#utility.yul\":13748:13927   */\n      iszero\n      tag_273\n      jumpi\n        /* \"#utility.yul\":13821:13830   */\n      dup5\n        /* \"#utility.yul\":13816:13819   */\n      dup10\n        /* \"#utility.yul\":13812:13831   */\n      add\n        /* \"#utility.yul\":13806:13832   */\n      mload\n        /* \"#utility.yul\":13864:13912   */\n      tag_274\n        /* \"#utility.yul\":13906:13910   */\n      0x1f\n        /* \"#utility.yul\":13898:13904   */\n      dup10\n        /* \"#utility.yul\":13894:13911   */\n      and\n        /* \"#utility.yul\":13883:13892   */\n      dup3\n        /* \"#utility.yul\":13864:13912   */\n      tag_121\n      jump\t// in\n    tag_274:\n        /* \"#utility.yul\":13856:13862   */\n      dup4\n        /* \"#utility.yul\":13849:13913   */\n      sstore\n        /* \"#utility.yul\":13771:13927   */\n      pop\n        /* \"#utility.yul\":13748:13927   */\n    tag_273:\n        /* \"#utility.yul\":13973:13974   */\n      0x01\n        /* \"#utility.yul\":13969:13970   */\n      0x02\n        /* \"#utility.yul\":13961:13967   */\n      dup9\n        /* \"#utility.yul\":13957:13971   */\n      mul\n        /* \"#utility.yul\":13953:13975   */\n      add\n        /* \"#utility.yul\":13947:13951   */\n      dup9\n        /* \"#utility.yul\":13940:13976   */\n      sstore\n        /* \"#utility.yul\":13375:13986   */\n      pop\n      pop\n      pop\n        /* \"#utility.yul\":13338:14225   */\n    tag_265:\n      pop\n        /* \"#utility.yul\":12928:14231   */\n      pop\n      pop\n      pop\n        /* \"#utility.yul\":12836:14231   */\n      pop\n      pop\n      jump\t// out\n        /* \"#utility.yul\":14237:14417   */\n    tag_62:\n        /* \"#utility.yul\":14285:14362   */\n      0x4e487b7100000000000000000000000000000000000000000000000000000000\n        /* \"#utility.yul\":14282:14283   */\n      0x00\n        /* \"#utility.yul\":14275:14363   */\n      mstore\n        /* \"#utility.yul\":14382:14386   */\n      0x31\n        /* \"#utility.yul\":14379:14380   */\n      0x04\n        /* \"#utility.yul\":14372:14387   */\n      mstore\n        /* \"#utility.yul\":14406:14410   */\n      0x24\n        /* \"#utility.yul\":14403:14404   */\n      0x00\n        /* \"#utility.yul\":14396:14411   */\n      revert\n\n    auxdata: 0xa2646970667358221220a1aa487d3c4f9d95c7e5a2af9fe6c0cb2671554dd65dd5bb647133aea115762164736f6c634300081a0033\n}\n",
				"bytecode": {
					"linkReferences": {},
					"object": "6080604052348015600e575f80fd5b50610c608061001c5f395ff3fe608060405234801561000f575f80fd5b5060043610610060575f3560e01c80632e64cec11461006457806349d812b21461008257806363f74bac1461009e57806390736130146100ba578063a2f9eac6146100d9578063a7f437791461010a575b5f80fd5b61006c610114565b6040516100799190610670565b60405180910390f35b61009c600480360381019061009791906107f7565b61021b565b005b6100b860048036038101906100b391906107f7565b61026f565b005b6100c26102e9565b6040516100d09291906108a8565b60405180910390f35b6100f360048036038101906100ee9190610909565b61038b565b6040516101019291906108a8565b60405180910390f35b61011261044c565b005b60606002805480602002602001604051908101604052809291908181526020015f905b82821015610212578382905f5260205f2090600202016040518060400160405290815f8201805461016790610961565b80601f016020809104026020016040519081016040528092919081815260200182805461019390610961565b80156101de5780601f106101b5576101008083540402835291602001916101de565b820191905f5260205f20905b8154815290600101906020018083116101c157829003601f168201915b50505050508152602001600182015f9054906101000a900460ff1660ff1660ff168152505081526020019060010190610137565b50505050905090565b60405180604001604052808381526020018260ff168152505f80820151815f0190816102479190610b2e565b506020820151816001015f6101000a81548160ff021916908360ff1602179055509050505050565b600260405180604001604052808481526020018360ff16815250908060018154018082558091505060019003905f5260205f2090600202015f909190919091505f820151815f0190816102c29190610b2e565b506020820151816001015f6101000a81548160ff021916908360ff16021790555050505050565b5f805f0180546102f890610961565b80601f016020809104026020016040519081016040528092919081815260200182805461032490610961565b801561036f5780601f106103465761010080835404028352916020019161036f565b820191905f5260205f20905b81548152906001019060200180831161035257829003601f168201915b505050505090806001015f9054906101000a900460ff16905082565b6002818154811061039a575f80fd5b905f5260205f2090600202015f91509050805f0180546103b990610961565b80601f01602080910402602001604051908101604052809291908181526020018280546103e590610961565b80156104305780601f1061040757610100808354040283529160200191610430565b820191905f5260205f20905b81548152906001019060200180831161041357829003601f168201915b505050505090806001015f9054906101000a900460ff16905082565b600280548061045e5761045d610bfd565b5b600190038181905f5260205f2090600202015f8082015f61047f9190610498565b600182015f6101000a81549060ff021916905550509055565b5080546104a490610961565b5f825580601f106104b557506104d2565b601f0160209004905f5260205f20908101906104d191906104d5565b5b50565b5b808211156104ec575f815f9055506001016104d6565b5090565b5f81519050919050565b5f82825260208201905092915050565b5f819050602082019050919050565b5f81519050919050565b5f82825260208201905092915050565b8281835e5f83830152505050565b5f601f19601f8301169050919050565b5f61055b82610519565b6105658185610523565b9350610575818560208601610533565b61057e81610541565b840191505092915050565b5f60ff82169050919050565b61059e81610589565b82525050565b5f604083015f8301518482035f8601526105be8282610551565b91505060208301516105d36020860182610595565b508091505092915050565b5f6105e983836105a4565b905092915050565b5f602082019050919050565b5f610607826104f0565b61061181856104fa565b9350836020820285016106238561050a565b805f5b8581101561065e578484038952815161063f85826105de565b945061064a836105f1565b925060208a01995050600181019050610626565b50829750879550505050505092915050565b5f6020820190508181035f83015261068881846105fd565b905092915050565b5f604051905090565b5f80fd5b5f80fd5b5f80fd5b5f80fd5b7f4e487b71000000000000000000000000000000000000000000000000000000005f52604160045260245ffd5b6106df82610541565b810181811067ffffffffffffffff821117156106fe576106fd6106a9565b5b80604052505050565b5f610710610690565b905061071c82826106d6565b919050565b5f67ffffffffffffffff82111561073b5761073a6106a9565b5b61074482610541565b9050602081019050919050565b828183375f83830152505050565b5f61077161076c84610721565b610707565b90508281526020810184848401111561078d5761078c6106a5565b5b610798848285610751565b509392505050565b5f82601f8301126107b4576107b36106a1565b5b81356107c484826020860161075f565b91505092915050565b6107d681610589565b81146107e0575f80fd5b50565b5f813590506107f1816107cd565b92915050565b5f806040838503121561080d5761080c610699565b5b5f83013567ffffffffffffffff81111561082a5761082961069d565b5b610836858286016107a0565b9250506020610847858286016107e3565b9150509250929050565b5f82825260208201905092915050565b5f61086b82610519565b6108758185610851565b9350610885818560208601610533565b61088e81610541565b840191505092915050565b6108a281610589565b82525050565b5f6040820190508181035f8301526108c08185610861565b90506108cf6020830184610899565b9392505050565b5f819050919050565b6108e8816108d6565b81146108f2575f80fd5b50565b5f81359050610903816108df565b92915050565b5f6020828403121561091e5761091d610699565b5b5f61092b848285016108f5565b91505092915050565b7f4e487b71000000000000000000000000000000000000000000000000000000005f52602260045260245ffd5b5f600282049050600182168061097857607f821691505b60208210810361098b5761098a610934565b5b50919050565b5f819050815f5260205f209050919050565b5f6020601f8301049050919050565b5f82821b905092915050565b5f600883026109ed7fffffffffffffffffffffffffffffffffffffffffffffffffffffffffffffffff826109b2565b6109f786836109b2565b95508019841693508086168417925050509392505050565b5f819050919050565b5f610a32610a2d610a28846108d6565b610a0f565b6108d6565b9050919050565b5f819050919050565b610a4b83610a18565b610a5f610a5782610a39565b8484546109be565b825550505050565b5f90565b610a73610a67565b610a7e818484610a42565b505050565b5b81811015610aa157610a965f82610a6b565b600181019050610a84565b5050565b601f821115610ae657610ab781610991565b610ac0846109a3565b81016020851015610acf578190505b610ae3610adb856109a3565b830182610a83565b50505b505050565b5f82821c905092915050565b5f610b065f1984600802610aeb565b1980831691505092915050565b5f610b1e8383610af7565b9150826002028217905092915050565b610b3782610519565b67ffffffffffffffff811115610b5057610b4f6106a9565b5b610b5a8254610961565b610b65828285610aa5565b5f60209050601f831160018114610b96575f8415610b84578287015190505b610b8e8582610b13565b865550610bf5565b601f198416610ba486610991565b5f5b82811015610bcb57848901518255600182019150602085019450602081019050610ba6565b86831015610be85784890151610be4601f891682610af7565b8355505b6001600288020188555050505b505050505050565b7f4e487b71000000000000000000000000000000000000000000000000000000005f52603160045260245ffdfea2646970667358221220a1aa487d3c4f9d95c7e5a2af9fe6c0cb2671554dd65dd5bb647133aea115762164736f6c634300081a0033",
					"opcodes": "PUSH1 0x80 PUSH1 0x40 MSTORE CALLVALUE DUP1 ISZERO PUSH1 0xE JUMPI PUSH0 DUP1 REVERT JUMPDEST POP PUSH2 0xC60 DUP1 PUSH2 0x1C PUSH0 CODECOPY PUSH0 RETURN INVALID PUSH1 0x80 PUSH1 0x40 MSTORE CALLVALUE DUP1 ISZERO PUSH2 0xF JUMPI PUSH0 DUP1 REVERT JUMPDEST POP PUSH1 0x4 CALLDATASIZE LT PUSH2 0x60 JUMPI PUSH0 CALLDATALOAD PUSH1 0xE0 SHR DUP1 PUSH4 0x2E64CEC1 EQ PUSH2 0x64 JUMPI DUP1 PUSH4 0x49D812B2 EQ PUSH2 0x82 JUMPI DUP1 PUSH4 0x63F74BAC EQ PUSH2 0x9E JUMPI DUP1 PUSH4 0x90736130 EQ PUSH2 0xBA JUMPI DUP1 PUSH4 0xA2F9EAC6 EQ PUSH2 0xD9 JUMPI DUP1 PUSH4 0xA7F43779 EQ PUSH2 0x10A JUMPI JUMPDEST PUSH0 DUP1 REVERT JUMPDEST PUSH2 0x6C PUSH2 0x114 JUMP JUMPDEST PUSH1 0x40 MLOAD PUSH2 0x79 SWAP2 SWAP1 PUSH2 0x670 JUMP JUMPDEST PUSH1 0x40 MLOAD DUP1 SWAP2 SUB SWAP1 RETURN JUMPDEST PUSH2 0x9C PUSH1 0x4 DUP1 CALLDATASIZE SUB DUP2 ADD SWAP1 PUSH2 0x97 SWAP2 SWAP1 PUSH2 0x7F7 JUMP JUMPDEST PUSH2 0x21B JUMP JUMPDEST STOP JUMPDEST PUSH2 0xB8 PUSH1 0x4 DUP1 CALLDATASIZE SUB DUP2 ADD SWAP1 PUSH2 0xB3 SWAP2 SWAP1 PUSH2 0x7F7 JUMP JUMPDEST PUSH2 0x26F JUMP JUMPDEST STOP JUMPDEST PUSH2 0xC2 PUSH2 0x2E9 JUMP JUMPDEST PUSH1 0x40 MLOAD PUSH2 0xD0 SWAP3 SWAP2 SWAP1 PUSH2 0x8A8 JUMP JUMPDEST PUSH1 0x40 MLOAD DUP1 SWAP2 SUB SWAP1 RETURN JUMPDEST PUSH2 0xF3 PUSH1 0x4 DUP1 CALLDATASIZE SUB DUP2 ADD SWAP1 PUSH2 0xEE SWAP2 SWAP1 PUSH2 0x909 JUMP JUMPDEST PUSH2 0x38B JUMP JUMPDEST PUSH1 0x40 MLOAD PUSH2 0x101 SWAP3 SWAP2 SWAP1 PUSH2 0x8A8 JUMP JUMPDEST PUSH1 0x40 MLOAD DUP1 SWAP2 SUB SWAP1 RETURN JUMPDEST PUSH2 0x112 PUSH2 0x44C JUMP JUMPDEST STOP JUMPDEST PUSH1 0x60 PUSH1 0x2 DUP1 SLOAD DUP1 PUSH1 0x20 MUL PUSH1 0x20 ADD PUSH1 0x40 MLOAD SWAP1 DUP2 ADD PUSH1 0x40 MSTORE DUP1 SWAP3 SWAP2 SWAP1 DUP2 DUP2 MSTORE PUSH1 0x20 ADD PUSH0 SWAP1 JUMPDEST DUP3 DUP3 LT ISZERO PUSH2 0x212 JUMPI DUP4 DUP3 SWAP1 PUSH0 MSTORE PUSH1 0x20 PUSH0 KECCAK256 SWAP1 PUSH1 0x2 MUL ADD PUSH1 0x40 MLOAD DUP1 PUSH1 0x40 ADD PUSH1 0x40 MSTORE SWAP1 DUP2 PUSH0 DUP3 ADD DUP1 SLOAD PUSH2 0x167 SWAP1 PUSH2 0x961 JUMP JUMPDEST DUP1 PUSH1 0x1F ADD PUSH1 0x20 DUP1 SWAP2 DIV MUL PUSH1 0x20 ADD PUSH1 0x40 MLOAD SWAP1 DUP2 ADD PUSH1 0x40 MSTORE DUP1 SWAP3 SWAP2 SWAP1 DUP2 DUP2 MSTORE PUSH1 0x20 ADD DUP3 DUP1 SLOAD PUSH2 0x193 SWAP1 PUSH2 0x961 JUMP JUMPDEST DUP1 ISZERO PUSH2 0x1DE JUMPI DUP1 PUSH1 0x1F LT PUSH2 0x1B5 JUMPI PUSH2 0x100 DUP1 DUP4 SLOAD DIV MUL DUP4 MSTORE SWAP2 PUSH1 0x20 ADD SWAP2 PUSH2 0x1DE JUMP JUMPDEST DUP3 ADD SWAP2 SWAP1 PUSH0 MSTORE PUSH1 0x20 PUSH0 KECCAK256 SWAP1 JUMPDEST DUP2 SLOAD DUP2 MSTORE SWAP1 PUSH1 0x1 ADD SWAP1 PUSH1 0x20 ADD DUP1 DUP4 GT PUSH2 0x1C1 JUMPI DUP3 SWAP1 SUB PUSH1 0x1F AND DUP3 ADD SWAP2 JUMPDEST POP POP POP POP POP DUP2 MSTORE PUSH1 0x20 ADD PUSH1 0x1 DUP3 ADD PUSH0 SWAP1 SLOAD SWAP1 PUSH2 0x100 EXP SWAP1 DIV PUSH1 0xFF AND PUSH1 0xFF AND PUSH1 0xFF AND DUP2 MSTORE POP POP DUP2 MSTORE PUSH1 0x20 ADD SWAP1 PUSH1 0x1 ADD SWAP1 PUSH2 0x137 JUMP JUMPDEST POP POP POP POP SWAP1 POP SWAP1 JUMP JUMPDEST PUSH1 0x40 MLOAD DUP1 PUSH1 0x40 ADD PUSH1 0x40 MSTORE DUP1 DUP4 DUP2 MSTORE PUSH1 0x20 ADD DUP3 PUSH1 0xFF AND DUP2 MSTORE POP PUSH0 DUP1 DUP3 ADD MLOAD DUP2 PUSH0 ADD SWAP1 DUP2 PUSH2 0x247 SWAP2 SWAP1 PUSH2 0xB2E JUMP JUMPDEST POP PUSH1 0x20 DUP3 ADD MLOAD DUP2 PUSH1 0x1 ADD PUSH0 PUSH2 0x100 EXP DUP2 SLOAD DUP2 PUSH1 0xFF MUL NOT AND SWAP1 DUP4 PUSH1 0xFF AND MUL OR SWAP1 SSTORE POP SWAP1 POP POP POP POP JUMP JUMPDEST PUSH1 0x2 PUSH1 0x40 MLOAD DUP1 PUSH1 0x40 ADD PUSH1 0x40 MSTORE DUP1 DUP5 DUP2 MSTORE PUSH1 0x20 ADD DUP4 PUSH1 0xFF AND DUP2 MSTORE POP SWAP1 DUP1 PUSH1 0x1 DUP2 SLOAD ADD DUP1 DUP3 SSTORE DUP1 SWAP2 POP POP PUSH1 0x1 SWAP1 SUB SWAP1 PUSH0 MSTORE PUSH1 0x20 PUSH0 KECCAK256 SWAP1 PUSH1 0x2 MUL ADD PUSH0 SWAP1 SWAP2 SWAP1 SWAP2 SWAP1 SWAP2 POP PUSH0 DUP3 ADD MLOAD DUP2 PUSH0 ADD SWAP1 DUP2 PUSH2 0x2C2 SWAP2 SWAP1 PUSH2 0xB2E JUMP JUMPDEST POP PUSH1 0x20 DUP3 ADD MLOAD DUP2 PUSH1 0x1 ADD PUSH0 PUSH2 0x100 EXP DUP2 SLOAD DUP2 PUSH1 0xFF MUL NOT AND SWAP1 DUP4 PUSH1 0xFF AND MUL OR SWAP1 SSTORE POP POP POP POP POP JUMP JUMPDEST PUSH0 DUP1 PUSH0 ADD DUP1 SLOAD PUSH2 0x2F8 SWAP1 PUSH2 0x961 JUMP JUMPDEST DUP1 PUSH1 0x1F ADD PUSH1 0x20 DUP1 SWAP2 DIV MUL PUSH1 0x20 ADD PUSH1 0x40 MLOAD SWAP1 DUP2 ADD PUSH1 0x40 MSTORE DUP1 SWAP3 SWAP2 SWAP1 DUP2 DUP2 MSTORE PUSH1 0x20 ADD DUP3 DUP1 SLOAD PUSH2 0x324 SWAP1 PUSH2 0x961 JUMP JUMPDEST DUP1 ISZERO PUSH2 0x36F JUMPI DUP1 PUSH1 0x1F LT PUSH2 0x346 JUMPI PUSH2 0x100 DUP1 DUP4 SLOAD DIV MUL DUP4 MSTORE SWAP2 PUSH1 0x20 ADD SWAP2 PUSH2 0x36F JUMP JUMPDEST DUP3 ADD SWAP2 SWAP1 PUSH0 MSTORE PUSH1 0x20 PUSH0 KECCAK256 SWAP1 JUMPDEST DUP2 SLOAD DUP2 MSTORE SWAP1 PUSH1 0x1 ADD SWAP1 PUSH1 0x20 ADD DUP1 DUP4 GT PUSH2 0x352 JUMPI DUP3 SWAP1 SUB PUSH1 0x1F AND DUP3 ADD SWAP2 JUMPDEST POP POP POP POP POP SWAP1 DUP1 PUSH1 0x1 ADD PUSH0 SWAP1 SLOAD SWAP1 PUSH2 0x100 EXP SWAP1 DIV PUSH1 0xFF AND SWAP1 POP DUP3 JUMP JUMPDEST PUSH1 0x2 DUP2 DUP2 SLOAD DUP2 LT PUSH2 0x39A JUMPI PUSH0 DUP1 REVERT JUMPDEST SWAP1 PUSH0 MSTORE PUSH1 0x20 PUSH0 KECCAK256 SWAP1 PUSH1 0x2 MUL ADD PUSH0 SWAP2 POP SWAP1 POP DUP1 PUSH0 ADD DUP1 SLOAD PUSH2 0x3B9 SWAP1 PUSH2 0x961 JUMP JUMPDEST DUP1 PUSH1 0x1F ADD PUSH1 0x20 DUP1 SWAP2 DIV MUL PUSH1 0x20 ADD PUSH1 0x40 MLOAD SWAP1 DUP2 ADD PUSH1 0x40 MSTORE DUP1 SWAP3 SWAP2 SWAP1 DUP2 DUP2 MSTORE PUSH1 0x20 ADD DUP3 DUP1 SLOAD PUSH2 0x3E5 SWAP1 PUSH2 0x961 JUMP JUMPDEST DUP1 ISZERO PUSH2 0x430 JUMPI DUP1 PUSH1 0x1F LT PUSH2 0x407 JUMPI PUSH2 0x100 DUP1 DUP4 SLOAD DIV MUL DUP4 MSTORE SWAP2 PUSH1 0x20 ADD SWAP2 PUSH2 0x430 JUMP JUMPDEST DUP3 ADD SWAP2 SWAP1 PUSH0 MSTORE PUSH1 0x20 PUSH0 KECCAK256 SWAP1 JUMPDEST DUP2 SLOAD DUP2 MSTORE SWAP1 PUSH1 0x1 ADD SWAP1 PUSH1 0x20 ADD DUP1 DUP4 GT PUSH2 0x413 JUMPI DUP3 SWAP1 SUB PUSH1 0x1F AND DUP3 ADD SWAP2 JUMPDEST POP POP POP POP POP SWAP1 DUP1 PUSH1 0x1 ADD PUSH0 SWAP1 SLOAD SWAP1 PUSH2 0x100 EXP SWAP1 DIV PUSH1 0xFF AND SWAP1 POP DUP3 JUMP JUMPDEST PUSH1 0x2 DUP1 SLOAD DUP1 PUSH2 0x45E JUMPI PUSH2 0x45D PUSH2 0xBFD JUMP JUMPDEST JUMPDEST PUSH1 0x1 SWAP1 SUB DUP2 DUP2 SWAP1 PUSH0 MSTORE PUSH1 0x20 PUSH0 KECCAK256 SWAP1 PUSH1 0x2 MUL ADD PUSH0 DUP1 DUP3 ADD PUSH0 PUSH2 0x47F SWAP2 SWAP1 PUSH2 0x498 JUMP JUMPDEST PUSH1 0x1 DUP3 ADD PUSH0 PUSH2 0x100 EXP DUP2 SLOAD SWAP1 PUSH1 0xFF MUL NOT AND SWAP1 SSTORE POP POP SWAP1 SSTORE JUMP JUMPDEST POP DUP1 SLOAD PUSH2 0x4A4 SWAP1 PUSH2 0x961 JUMP JUMPDEST PUSH0 DUP3 SSTORE DUP1 PUSH1 0x1F LT PUSH2 0x4B5 JUMPI POP PUSH2 0x4D2 JUMP JUMPDEST PUSH1 0x1F ADD PUSH1 0x20 SWAP1 DIV SWAP1 PUSH0 MSTORE PUSH1 0x20 PUSH0 KECCAK256 SWAP1 DUP2 ADD SWAP1 PUSH2 0x4D1 SWAP2 SWAP1 PUSH2 0x4D5 JUMP JUMPDEST JUMPDEST POP JUMP JUMPDEST JUMPDEST DUP1 DUP3 GT ISZERO PUSH2 0x4EC JUMPI PUSH0 DUP2 PUSH0 SWAP1 SSTORE POP PUSH1 0x1 ADD PUSH2 0x4D6 JUMP JUMPDEST POP SWAP1 JUMP JUMPDEST PUSH0 DUP2 MLOAD SWAP1 POP SWAP2 SWAP1 POP JUMP JUMPDEST PUSH0 DUP3 DUP3 MSTORE PUSH1 0x20 DUP3 ADD SWAP1 POP SWAP3 SWAP2 POP POP JUMP JUMPDEST PUSH0 DUP2 SWAP1 POP PUSH1 0x20 DUP3 ADD SWAP1 POP SWAP2 SWAP1 POP JUMP JUMPDEST PUSH0 DUP2 MLOAD SWAP1 POP SWAP2 SWAP1 POP JUMP JUMPDEST PUSH0 DUP3 DUP3 MSTORE PUSH1 0x20 DUP3 ADD SWAP1 POP SWAP3 SWAP2 POP POP JUMP JUMPDEST DUP3 DUP2 DUP4 MCOPY PUSH0 DUP4 DUP4 ADD MSTORE POP POP POP JUMP JUMPDEST PUSH0 PUSH1 0x1F NOT PUSH1 0x1F DUP4 ADD AND SWAP1 POP SWAP2 SWAP1 POP JUMP JUMPDEST PUSH0 PUSH2 0x55B DUP3 PUSH2 0x519 JUMP JUMPDEST PUSH2 0x565 DUP2 DUP6 PUSH2 0x523 JUMP JUMPDEST SWAP4 POP PUSH2 0x575 DUP2 DUP6 PUSH1 0x20 DUP7 ADD PUSH2 0x533 JUMP JUMPDEST PUSH2 0x57E DUP2 PUSH2 0x541 JUMP JUMPDEST DUP5 ADD SWAP2 POP POP SWAP3 SWAP2 POP POP JUMP JUMPDEST PUSH0 PUSH1 0xFF DUP3 AND SWAP1 POP SWAP2 SWAP1 POP JUMP JUMPDEST PUSH2 0x59E DUP2 PUSH2 0x589 JUMP JUMPDEST DUP3 MSTORE POP POP JUMP JUMPDEST PUSH0 PUSH1 0x40 DUP4 ADD PUSH0 DUP4 ADD MLOAD DUP5 DUP3 SUB PUSH0 DUP7 ADD MSTORE PUSH2 0x5BE DUP3 DUP3 PUSH2 0x551 JUMP JUMPDEST SWAP2 POP POP PUSH1 0x20 DUP4 ADD MLOAD PUSH2 0x5D3 PUSH1 0x20 DUP7 ADD DUP3 PUSH2 0x595 JUMP JUMPDEST POP DUP1 SWAP2 POP POP SWAP3 SWAP2 POP POP JUMP JUMPDEST PUSH0 PUSH2 0x5E9 DUP4 DUP4 PUSH2 0x5A4 JUMP JUMPDEST SWAP1 POP SWAP3 SWAP2 POP POP JUMP JUMPDEST PUSH0 PUSH1 0x20 DUP3 ADD SWAP1 POP SWAP2 SWAP1 POP JUMP JUMPDEST PUSH0 PUSH2 0x607 DUP3 PUSH2 0x4F0 JUMP JUMPDEST PUSH2 0x611 DUP2 DUP6 PUSH2 0x4FA JUMP JUMPDEST SWAP4 POP DUP4 PUSH1 0x20 DUP3 MUL DUP6 ADD PUSH2 0x623 DUP6 PUSH2 0x50A JUMP JUMPDEST DUP1 PUSH0 JUMPDEST DUP6 DUP2 LT ISZERO PUSH2 0x65E JUMPI DUP5 DUP5 SUB DUP10 MSTORE DUP2 MLOAD PUSH2 0x63F DUP6 DUP3 PUSH2 0x5DE JUMP JUMPDEST SWAP5 POP PUSH2 0x64A DUP4 PUSH2 0x5F1 JUMP JUMPDEST SWAP3 POP PUSH1 0x20 DUP11 ADD SWAP10 POP POP PUSH1 0x1 DUP2 ADD SWAP1 POP PUSH2 0x626 JUMP JUMPDEST POP DUP3 SWAP8 POP DUP8 SWAP6 POP POP POP POP POP POP SWAP3 SWAP2 POP POP JUMP JUMPDEST PUSH0 PUSH1 0x20 DUP3 ADD SWAP1 POP DUP2 DUP2 SUB PUSH0 DUP4 ADD MSTORE PUSH2 0x688 DUP2 DUP5 PUSH2 0x5FD JUMP JUMPDEST SWAP1 POP SWAP3 SWAP2 POP POP JUMP JUMPDEST PUSH0 PUSH1 0x40 MLOAD SWAP1 POP SWAP1 JUMP JUMPDEST PUSH0 DUP1 REVERT JUMPDEST PUSH0 DUP1 REVERT JUMPDEST PUSH0 DUP1 REVERT JUMPDEST PUSH0 DUP1 REVERT JUMPDEST PUSH32 0x4E487B7100000000000000000000000000000000000000000000000000000000 PUSH0 MSTORE PUSH1 0x41 PUSH1 0x4 MSTORE PUSH1 0x24 PUSH0 REVERT JUMPDEST PUSH2 0x6DF DUP3 PUSH2 0x541 JUMP JUMPDEST DUP2 ADD DUP2 DUP2 LT PUSH8 0xFFFFFFFFFFFFFFFF DUP3 GT OR ISZERO PUSH2 0x6FE JUMPI PUSH2 0x6FD PUSH2 0x6A9 JUMP JUMPDEST JUMPDEST DUP1 PUSH1 0x40 MSTORE POP POP POP JUMP JUMPDEST PUSH0 PUSH2 0x710 PUSH2 0x690 JUMP JUMPDEST SWAP1 POP PUSH2 0x71C DUP3 DUP3 PUSH2 0x6D6 JUMP JUMPDEST SWAP2 SWAP1 POP JUMP JUMPDEST PUSH0 PUSH8 0xFFFFFFFFFFFFFFFF DUP3 GT ISZERO PUSH2 0x73B JUMPI PUSH2 0x73A PUSH2 0x6A9 JUMP JUMPDEST JUMPDEST PUSH2 0x744 DUP3 PUSH2 0x541 JUMP JUMPDEST SWAP1 POP PUSH1 0x20 DUP2 ADD SWAP1 POP SWAP2 SWAP1 POP JUMP JUMPDEST DUP3 DUP2 DUP4 CALLDATACOPY PUSH0 DUP4 DUP4 ADD MSTORE POP POP POP JUMP JUMPDEST PUSH0 PUSH2 0x771 PUSH2 0x76C DUP5 PUSH2 0x721 JUMP JUMPDEST PUSH2 0x707 JUMP JUMPDEST SWAP1 POP DUP3 DUP2 MSTORE PUSH1 0x20 DUP2 ADD DUP5 DUP5 DUP5 ADD GT ISZERO PUSH2 0x78D JUMPI PUSH2 0x78C PUSH2 0x6A5 JUMP JUMPDEST JUMPDEST PUSH2 0x798 DUP5 DUP3 DUP6 PUSH2 0x751 JUMP JUMPDEST POP SWAP4 SWAP3 POP POP POP JUMP JUMPDEST PUSH0 DUP3 PUSH1 0x1F DUP4 ADD SLT PUSH2 0x7B4 JUMPI PUSH2 0x7B3 PUSH2 0x6A1 JUMP JUMPDEST JUMPDEST DUP2 CALLDATALOAD PUSH2 0x7C4 DUP5 DUP3 PUSH1 0x20 DUP7 ADD PUSH2 0x75F JUMP JUMPDEST SWAP2 POP POP SWAP3 SWAP2 POP POP JUMP JUMPDEST PUSH2 0x7D6 DUP2 PUSH2 0x589 JUMP JUMPDEST DUP2 EQ PUSH2 0x7E0 JUMPI PUSH0 DUP1 REVERT JUMPDEST POP JUMP JUMPDEST PUSH0 DUP2 CALLDATALOAD SWAP1 POP PUSH2 0x7F1 DUP2 PUSH2 0x7CD JUMP JUMPDEST SWAP3 SWAP2 POP POP JUMP JUMPDEST PUSH0 DUP1 PUSH1 0x40 DUP4 DUP6 SUB SLT ISZERO PUSH2 0x80D JUMPI PUSH2 0x80C PUSH2 0x699 JUMP JUMPDEST JUMPDEST PUSH0 DUP4 ADD CALLDATALOAD PUSH8 0xFFFFFFFFFFFFFFFF DUP2 GT ISZERO PUSH2 0x82A JUMPI PUSH2 0x829 PUSH2 0x69D JUMP JUMPDEST JUMPDEST PUSH2 0x836 DUP6 DUP3 DUP7 ADD PUSH2 0x7A0 JUMP JUMPDEST SWAP3 POP POP PUSH1 0x20 PUSH2 0x847 DUP6 DUP3 DUP7 ADD PUSH2 0x7E3 JUMP JUMPDEST SWAP2 POP POP SWAP3 POP SWAP3 SWAP1 POP JUMP JUMPDEST PUSH0 DUP3 DUP3 MSTORE PUSH1 0x20 DUP3 ADD SWAP1 POP SWAP3 SWAP2 POP POP JUMP JUMPDEST PUSH0 PUSH2 0x86B DUP3 PUSH2 0x519 JUMP JUMPDEST PUSH2 0x875 DUP2 DUP6 PUSH2 0x851 JUMP JUMPDEST SWAP4 POP PUSH2 0x885 DUP2 DUP6 PUSH1 0x20 DUP7 ADD PUSH2 0x533 JUMP JUMPDEST PUSH2 0x88E DUP2 PUSH2 0x541 JUMP JUMPDEST DUP5 ADD SWAP2 POP POP SWAP3 SWAP2 POP POP JUMP JUMPDEST PUSH2 0x8A2 DUP2 PUSH2 0x589 JUMP JUMPDEST DUP3 MSTORE POP POP JUMP JUMPDEST PUSH0 PUSH1 0x40 DUP3 ADD SWAP1 POP DUP2 DUP2 SUB PUSH0 DUP4 ADD MSTORE PUSH2 0x8C0 DUP2 DUP6 PUSH2 0x861 JUMP JUMPDEST SWAP1 POP PUSH2 0x8CF PUSH1 0x20 DUP4 ADD DUP5 PUSH2 0x899 JUMP JUMPDEST SWAP4 SWAP3 POP POP POP JUMP JUMPDEST PUSH0 DUP2 SWAP1 POP SWAP2 SWAP1 POP JUMP JUMPDEST PUSH2 0x8E8 DUP2 PUSH2 0x8D6 JUMP JUMPDEST DUP2 EQ PUSH2 0x8F2 JUMPI PUSH0 DUP1 REVERT JUMPDEST POP JUMP JUMPDEST PUSH0 DUP2 CALLDATALOAD SWAP1 POP PUSH2 0x903 DUP2 PUSH2 0x8DF JUMP JUMPDEST SWAP3 SWAP2 POP POP JUMP JUMPDEST PUSH0 PUSH1 0x20 DUP3 DUP5 SUB SLT ISZERO PUSH2 0x91E JUMPI PUSH2 0x91D PUSH2 0x699 JUMP JUMPDEST JUMPDEST PUSH0 PUSH2 0x92B DUP5 DUP3 DUP6 ADD PUSH2 0x8F5 JUMP JUMPDEST SWAP2 POP POP SWAP3 SWAP2 POP POP JUMP JUMPDEST PUSH32 0x4E487B7100000000000000000000000000000000000000000000000000000000 PUSH0 MSTORE PUSH1 0x22 PUSH1 0x4 MSTORE PUSH1 0x24 PUSH0 REVERT JUMPDEST PUSH0 PUSH1 0x2 DUP3 DIV SWAP1 POP PUSH1 0x1 DUP3 AND DUP1 PUSH2 0x978 JUMPI PUSH1 0x7F DUP3 AND SWAP2 POP JUMPDEST PUSH1 0x20 DUP3 LT DUP2 SUB PUSH2 0x98B JUMPI PUSH2 0x98A PUSH2 0x934 JUMP JUMPDEST JUMPDEST POP SWAP2 SWAP1 POP JUMP JUMPDEST PUSH0 DUP2 SWAP1 POP DUP2 PUSH0 MSTORE PUSH1 0x20 PUSH0 KECCAK256 SWAP1 POP SWAP2 SWAP1 POP JUMP JUMPDEST PUSH0 PUSH1 0x20 PUSH1 0x1F DUP4 ADD DIV SWAP1 POP SWAP2 SWAP1 POP JUMP JUMPDEST PUSH0 DUP3 DUP3 SHL SWAP1 POP SWAP3 SWAP2 POP POP JUMP JUMPDEST PUSH0 PUSH1 0x8 DUP4 MUL PUSH2 0x9ED PUSH32 0xFFFFFFFFFFFFFFFFFFFFFFFFFFFFFFFFFFFFFFFFFFFFFFFFFFFFFFFFFFFFFFFF DUP3 PUSH2 0x9B2 JUMP JUMPDEST PUSH2 0x9F7 DUP7 DUP4 PUSH2 0x9B2 JUMP JUMPDEST SWAP6 POP DUP1 NOT DUP5 AND SWAP4 POP DUP1 DUP7 AND DUP5 OR SWAP3 POP POP POP SWAP4 SWAP3 POP POP POP JUMP JUMPDEST PUSH0 DUP2 SWAP1 POP SWAP2 SWAP1 POP JUMP JUMPDEST PUSH0 PUSH2 0xA32 PUSH2 0xA2D PUSH2 0xA28 DUP5 PUSH2 0x8D6 JUMP JUMPDEST PUSH2 0xA0F JUMP JUMPDEST PUSH2 0x8D6 JUMP JUMPDEST SWAP1 POP SWAP2 SWAP1 POP JUMP JUMPDEST PUSH0 DUP2 SWAP1 POP SWAP2 SWAP1 POP JUMP JUMPDEST PUSH2 0xA4B DUP4 PUSH2 0xA18 JUMP JUMPDEST PUSH2 0xA5F PUSH2 0xA57 DUP3 PUSH2 0xA39 JUMP JUMPDEST DUP5 DUP5 SLOAD PUSH2 0x9BE JUMP JUMPDEST DUP3 SSTORE POP POP POP POP JUMP JUMPDEST PUSH0 SWAP1 JUMP JUMPDEST PUSH2 0xA73 PUSH2 0xA67 JUMP JUMPDEST PUSH2 0xA7E DUP2 DUP5 DUP5 PUSH2 0xA42 JUMP JUMPDEST POP POP POP JUMP JUMPDEST JUMPDEST DUP2 DUP2 LT ISZERO PUSH2 0xAA1 JUMPI PUSH2 0xA96 PUSH0 DUP3 PUSH2 0xA6B JUMP JUMPDEST PUSH1 0x1 DUP2 ADD SWAP1 POP PUSH2 0xA84 JUMP JUMPDEST POP POP JUMP JUMPDEST PUSH1 0x1F DUP3 GT ISZERO PUSH2 0xAE6 JUMPI PUSH2 0xAB7 DUP2 PUSH2 0x991 JUMP JUMPDEST PUSH2 0xAC0 DUP5 PUSH2 0x9A3 JUMP JUMPDEST DUP2 ADD PUSH1 0x20 DUP6 LT ISZERO PUSH2 0xACF JUMPI DUP2 SWAP1 POP JUMPDEST PUSH2 0xAE3 PUSH2 0xADB DUP6 PUSH2 0x9A3 JUMP JUMPDEST DUP4 ADD DUP3 PUSH2 0xA83 JUMP JUMPDEST POP POP JUMPDEST POP POP POP JUMP JUMPDEST PUSH0 DUP3 DUP3 SHR SWAP1 POP SWAP3 SWAP2 POP POP JUMP JUMPDEST PUSH0 PUSH2 0xB06 PUSH0 NOT DUP5 PUSH1 0x8 MUL PUSH2 0xAEB JUMP JUMPDEST NOT DUP1 DUP4 AND SWAP2 POP POP SWAP3 SWAP2 POP POP JUMP JUMPDEST PUSH0 PUSH2 0xB1E DUP4 DUP4 PUSH2 0xAF7 JUMP JUMPDEST SWAP2 POP DUP3 PUSH1 0x2 MUL DUP3 OR SWAP1 POP SWAP3 SWAP2 POP POP JUMP JUMPDEST PUSH2 0xB37 DUP3 PUSH2 0x519 JUMP JUMPDEST PUSH8 0xFFFFFFFFFFFFFFFF DUP2 GT ISZERO PUSH2 0xB50 JUMPI PUSH2 0xB4F PUSH2 0x6A9 JUMP JUMPDEST JUMPDEST PUSH2 0xB5A DUP3 SLOAD PUSH2 0x961 JUMP JUMPDEST PUSH2 0xB65 DUP3 DUP3 DUP6 PUSH2 0xAA5 JUMP JUMPDEST PUSH0 PUSH1 0x20 SWAP1 POP PUSH1 0x1F DUP4 GT PUSH1 0x1 DUP2 EQ PUSH2 0xB96 JUMPI PUSH0 DUP5 ISZERO PUSH2 0xB84 JUMPI DUP3 DUP8 ADD MLOAD SWAP1 POP JUMPDEST PUSH2 0xB8E DUP6 DUP3 PUSH2 0xB13 JUMP JUMPDEST DUP7 SSTORE POP PUSH2 0xBF5 JUMP JUMPDEST PUSH1 0x1F NOT DUP5 AND PUSH2 0xBA4 DUP7 PUSH2 0x991 JUMP JUMPDEST PUSH0 JUMPDEST DUP3 DUP2 LT ISZERO PUSH2 0xBCB JUMPI DUP5 DUP10 ADD MLOAD DUP3 SSTORE PUSH1 0x1 DUP3 ADD SWAP2 POP PUSH1 0x20 DUP6 ADD SWAP5 POP PUSH1 0x20 DUP2 ADD SWAP1 POP PUSH2 0xBA6 JUMP JUMPDEST DUP7 DUP4 LT ISZERO PUSH2 0xBE8 JUMPI DUP5 DUP10 ADD MLOAD PUSH2 0xBE4 PUSH1 0x1F DUP10 AND DUP3 PUSH2 0xAF7 JUMP JUMPDEST DUP4 SSTORE POP JUMPDEST PUSH1 0x1 PUSH1 0x2 DUP9 MUL ADD DUP9 SSTORE POP POP POP JUMPDEST POP POP POP POP POP POP JUMP JUMPDEST PUSH32 0x4E487B7100000000000000000000000000000000000000000000000000000000 PUSH0 MSTORE PUSH1 0x31 PUSH1 0x4 MSTORE PUSH1 0x24 PUSH0 REVERT INVALID LOG2 PUSH5 0x6970667358 0x22 SLT KECCAK256 LOG1 0xAA BASEFEE PUSH30 0x3C4F9D95C7E5A2AF9FE6C0CB2671554DD65DD5BB647133AEA11576216473 PUSH16 0x6C634300081A00330000000000000000 "
				},
				"gasEstimates": {
					"creation": {
						"codeDepositCost": "633600",
						"executionCost": "662",
						"totalCost": "634262"
					},
					"external": {
						"add(string,uint8)": "infinite",
						"modifyPerson(string,uint8)": "infinite",
						"moi()": "infinite",
						"persons(uint256)": "infinite",
						"remove()": "infinite",
						"retrieve()": "infinite"
					}
				},
				"methodIdentifiers": {
					"add(string,uint8)": "63f74bac",
					"modifyPerson(string,uint8)": "49d812b2",
					"moi()": "90736130",
					"persons(uint256)": "a2f9eac6",
					"remove()": "a7f43779",
					"retrieve()": "2e64cec1"
				}
			},
			"storageLayout": {
				"storage": [
					{
						"astId": 9,
						"contract": "contracts/4_People.sol:People",
						"label": "moi",
						"offset": 0,
						"slot": "0",
						"type": "t_struct(Person)6_storage"
					},
					{
						"astId": 13,
						"contract": "contracts/4_People.sol:People",
						"label": "persons",
						"offset": 0,
						"slot": "2",
						"type": "t_array(t_struct(Person)6_storage)dyn_storage"
					}
				],
				"types": {
					"t_array(t_struct(Person)6_storage)dyn_storage": {
						"base": "t_struct(Person)6_storage",
						"encoding": "dynamic_array",
						"label": "struct People.Person[]",
						"numberOfBytes": "32"
					},
					"t_string_storage": {
						"encoding": "bytes",
						"label": "string",
						"numberOfBytes": "32"
					},
					"t_struct(Person)6_storage": {
						"encoding": "inplace",
						"label": "struct People.Person",
						"members": [
							{
								"astId": 3,
								"contract": "contracts/4_People.sol:People",
								"label": "name",
								"offset": 0,
								"slot": "0",
								"type": "t_string_storage"
							},
							{
								"astId": 5,
								"contract": "contracts/4_People.sol:People",
								"label": "age",
								"offset": 0,
								"slot": "1",
								"type": "t_uint8"
							}
						],
						"numberOfBytes": "64"
					},
					"t_uint8": {
						"encoding": "inplace",
						"label": "uint8",
						"numberOfBytes": "1"
					}
				}
			},
			"userdoc": {
				"kind": "user",
				"methods": {},
				"version": 1
			}
		}
	}
}