{
	"contracts/17_GuessToWinBen.sol": {
		"GuessToWinBen": {
			"abi": [
				{
					"inputs": [],
					"stateMutability": "nonpayable",
					"type": "constructor"
				},
				{
					"inputs": [],
					"name": "GameIsFinished",
					"type": "error"
				},
				{
					"inputs": [
						{
							"internalType": "address",
							"name": "owner",
							"type": "address"
						}
					],
					"name": "OwnableInvalidOwner",
					"type": "error"
				},
				{
					"inputs": [
						{
							"internalType": "address",
							"name": "account",
							"type": "address"
						}
					],
					"name": "OwnableUnauthorizedAccount",
					"type": "error"
				},
				{
					"inputs": [
						{
							"internalType": "address",
							"name": "user",
							"type": "address"
						}
					],
					"name": "UserHasAlreadyPlayed",
					"type": "error"
				},
				{
					"anonymous": false,
					"inputs": [
						{
							"indexed": true,
							"internalType": "address",
							"name": "_winner",
							"type": "address"
						}
					],
					"name": "GameWon",
					"type": "event"
				},
				{
					"anonymous": false,
					"inputs": [
						{
							"indexed": true,
							"internalType": "address",
							"name": "previousOwner",
							"type": "address"
						},
						{
							"indexed": true,
							"internalType": "address",
							"name": "newOwner",
							"type": "address"
						}
					],
					"name": "OwnershipTransferred",
					"type": "event"
				},
				{
					"inputs": [],
					"name": "getHint",
					"outputs": [
						{
							"internalType": "string",
							"name": "",
							"type": "string"
						}
					],
					"stateMutability": "view",
					"type": "function"
				},
				{
					"inputs": [],
					"name": "getWinner",
					"outputs": [
						{
							"internalType": "address",
							"name": "",
							"type": "address"
						}
					],
					"stateMutability": "view",
					"type": "function"
				},
				{
					"inputs": [
						{
							"internalType": "string",
							"name": "_word",
							"type": "string"
						}
					],
					"name": "guess",
					"outputs": [
						{
							"internalType": "bool",
							"name": "",
							"type": "bool"
						}
					],
					"stateMutability": "view",
					"type": "function"
				},
				{
					"inputs": [],
					"name": "owner",
					"outputs": [
						{
							"internalType": "address",
							"name": "",
							"type": "address"
						}
					],
					"stateMutability": "view",
					"type": "function"
				},
				{
					"inputs": [],
					"name": "renounceOwnership",
					"outputs": [],
					"stateMutability": "nonpayable",
					"type": "function"
				},
				{
					"inputs": [
						{
							"internalType": "string",
							"name": "_word",
							"type": "string"
						},
						{
							"internalType": "string",
							"name": "_hint",
							"type": "string"
						}
					],
					"name": "setWordAndHint",
					"outputs": [],
					"stateMutability": "nonpayable",
					"type": "function"
				},
				{
					"inputs": [
						{
							"internalType": "address",
							"name": "newOwner",
							"type": "address"
						}
					],
					"name": "transferOwnership",
					"outputs": [],
					"stateMutability": "nonpayable",
					"type": "function"
				}
			],
			"devdoc": {
				"errors": {
					"OwnableInvalidOwner(address)": [
						{
							"details": "The owner is not a valid owner account. (eg. `address(0)`)"
						}
					],
					"OwnableUnauthorizedAccount(address)": [
						{
							"details": "The caller account is not authorized to perform an operation."
						}
					]
				},
				"kind": "dev",
				"methods": {
					"owner()": {
						"details": "Returns the address of the current owner."
					},
					"renounceOwnership()": {
						"details": "Leaves the contract without owner. It will not be possible to call `onlyOwner` functions. Can only be called by the current owner. NOTE: Renouncing ownership will leave the contract without an owner, thereby disabling any functionality that is only available to the owner."
					},
					"transferOwnership(address)": {
						"details": "Transfers ownership of the contract to a new account (`newOwner`). Can only be called by the current owner."
					}
				},
				"version": 1
			},
			"evm": {
				"assembly": "    /* \"contracts/17_GuessToWinBen.sol\":242:1417  contract GuessToWinBen is Ownable {... */\n  mstore(0x40, 0x80)\n    /* \"contracts/17_GuessToWinBen.sol\":282:318  constructor() Ownable(msg.sender) {} */\n  callvalue\n  dup1\n  iszero\n  tag_1\n  jumpi\n  revert(0x00, 0x00)\ntag_1:\n  pop\n    /* \"contracts/17_GuessToWinBen.sol\":304:314  msg.sender */\n  caller\n    /* \"@openzeppelin/contracts/access/Ownable.sol\":1297:1298  0 */\n  0x00\n    /* \"@openzeppelin/contracts/access/Ownable.sol\":1273:1299  initialOwner == address(0) */\n  0xffffffffffffffffffffffffffffffffffffffff\n  and\n    /* \"@openzeppelin/contracts/access/Ownable.sol\":1273:1285  initialOwner */\n  dup2\n    /* \"@openzeppelin/contracts/access/Ownable.sol\":1273:1299  initialOwner == address(0) */\n  0xffffffffffffffffffffffffffffffffffffffff\n  and\n  sub\n    /* \"@openzeppelin/contracts/access/Ownable.sol\":1269:1364  if (initialOwner == address(0)) {... */\n  tag_5\n  jumpi\n    /* \"@openzeppelin/contracts/access/Ownable.sol\":1350:1351  0 */\n  0x00\n    /* \"@openzeppelin/contracts/access/Ownable.sol\":1322:1353  OwnableInvalidOwner(address(0)) */\n  mload(0x40)\n  0x1e4fbdf700000000000000000000000000000000000000000000000000000000\n  dup2\n  mstore\n  0x04\n  add\n  tag_6\n  swap2\n  swap1\n  tag_7\n  jump\t// in\ntag_6:\n  mload(0x40)\n  dup1\n  swap2\n  sub\n  swap1\n  revert\n    /* \"@openzeppelin/contracts/access/Ownable.sol\":1269:1364  if (initialOwner == address(0)) {... */\ntag_5:\n    /* \"@openzeppelin/contracts/access/Ownable.sol\":1373:1405  _transferOwnership(initialOwner) */\n  tag_8\n    /* \"@openzeppelin/contracts/access/Ownable.sol\":1392:1404  initialOwner */\n  dup2\n    /* \"@openzeppelin/contracts/access/Ownable.sol\":1373:1391  _transferOwnership */\n  shl(0x20, tag_9)\n    /* \"@openzeppelin/contracts/access/Ownable.sol\":1373:1405  _transferOwnership(initialOwner) */\n  0x20\n  shr\n  jump\t// in\ntag_8:\n    /* \"@openzeppelin/contracts/access/Ownable.sol\":1225:1412  constructor(address initialOwner) {... */\n  pop\n    /* \"contracts/17_GuessToWinBen.sol\":242:1417  contract GuessToWinBen is Ownable {... */\n  jump(tag_11)\n    /* \"@openzeppelin/contracts/access/Ownable.sol\":2912:3099  function _transferOwnership(address newOwner) internal virtual {... */\ntag_9:\n    /* \"@openzeppelin/contracts/access/Ownable.sol\":2985:3001  address oldOwner */\n  0x00\n    /* \"@openzeppelin/contracts/access/Ownable.sol\":3004:3010  _owner */\n  0x00\n  0x00\n  swap1\n  sload\n  swap1\n  0x0100\n  exp\n  swap1\n  div\n  0xffffffffffffffffffffffffffffffffffffffff\n  and\n    /* \"@openzeppelin/contracts/access/Ownable.sol\":2985:3010  address oldOwner = _owner */\n  swap1\n  pop\n    /* \"@openzeppelin/contracts/access/Ownable.sol\":3029:3037  newOwner */\n  dup2\n    /* \"@openzeppelin/contracts/access/Ownable.sol\":3020:3026  _owner */\n  0x00\n  0x00\n    /* \"@openzeppelin/contracts/access/Ownable.sol\":3020:3037  _owner = newOwner */\n  0x0100\n  exp\n  dup2\n  sload\n  dup2\n  0xffffffffffffffffffffffffffffffffffffffff\n  mul\n  not\n  and\n  swap1\n  dup4\n  0xffffffffffffffffffffffffffffffffffffffff\n  and\n  mul\n  or\n  swap1\n  sstore\n  pop\n    /* \"@openzeppelin/contracts/access/Ownable.sol\":3083:3091  newOwner */\n  dup2\n    /* \"@openzeppelin/contracts/access/Ownable.sol\":3052:3092  OwnershipTransferred(oldOwner, newOwner) */\n  0xffffffffffffffffffffffffffffffffffffffff\n  and\n    /* \"@openzeppelin/contracts/access/Ownable.sol\":3073:3081  oldOwner */\n  dup2\n    /* \"@openzeppelin/contracts/access/Ownable.sol\":3052:3092  OwnershipTransferred(oldOwner, newOwner) */\n  0xffffffffffffffffffffffffffffffffffffffff\n  and\n  0x8be0079c531659141344cd1fd0a4f28419497f9722a3daafe3b4186f6b6457e0\n  mload(0x40)\n  mload(0x40)\n  dup1\n  swap2\n  sub\n  swap1\n  log3\n    /* \"@openzeppelin/contracts/access/Ownable.sol\":2975:3099  {... */\n  pop\n    /* \"@openzeppelin/contracts/access/Ownable.sol\":2912:3099  function _transferOwnership(address newOwner) internal virtual {... */\n  pop\n  jump\t// out\n    /* \"#utility.yul\":7:133   */\ntag_13:\n    /* \"#utility.yul\":44:51   */\n  0x00\n    /* \"#utility.yul\":84:126   */\n  0xffffffffffffffffffffffffffffffffffffffff\n    /* \"#utility.yul\":77:82   */\n  dup3\n    /* \"#utility.yul\":73:127   */\n  and\n    /* \"#utility.yul\":62:127   */\n  swap1\n  pop\n    /* \"#utility.yul\":7:133   */\n  swap2\n  swap1\n  pop\n  jump\t// out\n    /* \"#utility.yul\":139:235   */\ntag_14:\n    /* \"#utility.yul\":176:183   */\n  0x00\n    /* \"#utility.yul\":205:229   */\n  tag_19\n    /* \"#utility.yul\":223:228   */\n  dup3\n    /* \"#utility.yul\":205:229   */\n  tag_13\n  jump\t// in\ntag_19:\n    /* \"#utility.yul\":194:229   */\n  swap1\n  pop\n    /* \"#utility.yul\":139:235   */\n  swap2\n  swap1\n  pop\n  jump\t// out\n    /* \"#utility.yul\":241:359   */\ntag_15:\n    /* \"#utility.yul\":328:352   */\n  tag_21\n    /* \"#utility.yul\":346:351   */\n  dup2\n    /* \"#utility.yul\":328:352   */\n  tag_14\n  jump\t// in\ntag_21:\n    /* \"#utility.yul\":323:326   */\n  dup3\n    /* \"#utility.yul\":316:353   */\n  mstore\n    /* \"#utility.yul\":241:359   */\n  pop\n  pop\n  jump\t// out\n    /* \"#utility.yul\":365:587   */\ntag_7:\n    /* \"#utility.yul\":458:462   */\n  0x00\n    /* \"#utility.yul\":496:498   */\n  0x20\n    /* \"#utility.yul\":485:494   */\n  dup3\n    /* \"#utility.yul\":481:499   */\n  add\n    /* \"#utility.yul\":473:499   */\n  swap1\n  pop\n    /* \"#utility.yul\":509:580   */\n  tag_23\n    /* \"#utility.yul\":577:578   */\n  0x00\n    /* \"#utility.yul\":566:575   */\n  dup4\n    /* \"#utility.yul\":562:579   */\n  add\n    /* \"#utility.yul\":553:559   */\n  dup5\n    /* \"#utility.yul\":509:580   */\n  tag_15\n  jump\t// in\ntag_23:\n    /* \"#utility.yul\":365:587   */\n  swap3\n  swap2\n  pop\n  pop\n  jump\t// out\n    /* \"contracts/17_GuessToWinBen.sol\":242:1417  contract GuessToWinBen is Ownable {... */\ntag_11:\n  dataSize(sub_0)\n  dup1\n  dataOffset(sub_0)\n  0x00\n  codecopy\n  0x00\n  return\nstop\n\nsub_0: assembly {\n        /* \"contracts/17_GuessToWinBen.sol\":242:1417  contract GuessToWinBen is Ownable {... */\n      mstore(0x40, 0x80)\n      callvalue\n      dup1\n      iszero\n      tag_1\n      jumpi\n      revert(0x00, 0x00)\n    tag_1:\n      pop\n      jumpi(tag_2, lt(calldatasize, 0x04))\n      shr(0xe0, calldataload(0x00))\n      dup1\n      0x8da5cb5b\n      gt\n      tag_10\n      jumpi\n      dup1\n      0x8da5cb5b\n      eq\n      tag_6\n      jumpi\n      dup1\n      0x8e7ea5b2\n      eq\n      tag_7\n      jumpi\n      dup1\n      0xb166eafe\n      eq\n      tag_8\n      jumpi\n      dup1\n      0xf2fde38b\n      eq\n      tag_9\n      jumpi\n      jump(tag_2)\n    tag_10:\n      dup1\n      0x41225071\n      eq\n      tag_3\n      jumpi\n      dup1\n      0x4eee59b3\n      eq\n      tag_4\n      jumpi\n      dup1\n      0x715018a6\n      eq\n      tag_5\n      jumpi\n    tag_2:\n      revert(0x00, 0x00)\n        /* \"contracts/17_GuessToWinBen.sol\":1168:1253  function getHint() external view returns (string memory) {... */\n    tag_3:\n      tag_11\n      tag_12\n      jump\t// in\n    tag_11:\n      mload(0x40)\n      tag_13\n      swap2\n      swap1\n      tag_14\n      jump\t// in\n    tag_13:\n      mload(0x40)\n      dup1\n      swap2\n      sub\n      swap1\n      return\n        /* \"contracts/17_GuessToWinBen.sol\":480:783  function guess(string memory _word) external view returns (bool) {... */\n    tag_4:\n      tag_15\n      0x04\n      dup1\n      calldatasize\n      sub\n      dup2\n      add\n      swap1\n      tag_16\n      swap2\n      swap1\n      tag_17\n      jump\t// in\n    tag_16:\n      tag_18\n      jump\t// in\n    tag_15:\n      mload(0x40)\n      tag_19\n      swap2\n      swap1\n      tag_20\n      jump\t// in\n    tag_19:\n      mload(0x40)\n      dup1\n      swap2\n      sub\n      swap1\n      return\n        /* \"@openzeppelin/contracts/access/Ownable.sol\":2293:2394  function renounceOwnership() public virtual onlyOwner {... */\n    tag_5:\n      tag_21\n      tag_22\n      jump\t// in\n    tag_21:\n      stop\n        /* \"@openzeppelin/contracts/access/Ownable.sol\":1638:1723  function owner() public view virtual returns (address) {... */\n    tag_6:\n      tag_23\n      tag_24\n      jump\t// in\n    tag_23:\n      mload(0x40)\n      tag_25\n      swap2\n      swap1\n      tag_26\n      jump\t// in\n    tag_25:\n      mload(0x40)\n      dup1\n      swap2\n      sub\n      swap1\n      return\n        /* \"contracts/17_GuessToWinBen.sol\":1259:1415  function getWinner() external view returns (address) {... */\n    tag_7:\n      tag_27\n      tag_28\n      jump\t// in\n    tag_27:\n      mload(0x40)\n      tag_29\n      swap2\n      swap1\n      tag_26\n      jump\t// in\n    tag_29:\n      mload(0x40)\n      dup1\n      swap2\n      sub\n      swap1\n      return\n        /* \"contracts/17_GuessToWinBen.sol\":789:949  function setWordAndHint(string calldata _word, string calldata _hint)... */\n    tag_8:\n      tag_30\n      0x04\n      dup1\n      calldatasize\n      sub\n      dup2\n      add\n      swap1\n      tag_31\n      swap2\n      swap1\n      tag_32\n      jump\t// in\n    tag_31:\n      tag_33\n      jump\t// in\n    tag_30:\n      stop\n        /* \"@openzeppelin/contracts/access/Ownable.sol\":2543:2758  function transferOwnership(address newOwner) public virtual onlyOwner {... */\n    tag_9:\n      tag_34\n      0x04\n      dup1\n      calldatasize\n      sub\n      dup2\n      add\n      swap1\n      tag_35\n      swap2\n      swap1\n      tag_36\n      jump\t// in\n    tag_35:\n      tag_37\n      jump\t// in\n    tag_34:\n      stop\n        /* \"contracts/17_GuessToWinBen.sol\":1168:1253  function getHint() external view returns (string memory) {... */\n    tag_12:\n        /* \"contracts/17_GuessToWinBen.sol\":1210:1223  string memory */\n      0x60\n        /* \"contracts/17_GuessToWinBen.sol\":1242:1246  hint */\n      0x02\n        /* \"contracts/17_GuessToWinBen.sol\":1235:1246  return hint */\n      dup1\n      sload\n      tag_39\n      swap1\n      tag_40\n      jump\t// in\n    tag_39:\n      dup1\n      0x1f\n      add\n      0x20\n      dup1\n      swap2\n      div\n      mul\n      0x20\n      add\n      mload(0x40)\n      swap1\n      dup2\n      add\n      0x40\n      mstore\n      dup1\n      swap3\n      swap2\n      swap1\n      dup2\n      dup2\n      mstore\n      0x20\n      add\n      dup3\n      dup1\n      sload\n      tag_41\n      swap1\n      tag_40\n      jump\t// in\n    tag_41:\n      dup1\n      iszero\n      tag_42\n      jumpi\n      dup1\n      0x1f\n      lt\n      tag_43\n      jumpi\n      0x0100\n      dup1\n      dup4\n      sload\n      div\n      mul\n      dup4\n      mstore\n      swap2\n      0x20\n      add\n      swap2\n      jump(tag_42)\n    tag_43:\n      dup3\n      add\n      swap2\n      swap1\n      0x00\n      mstore\n      keccak256(0x00, 0x20)\n      swap1\n    tag_44:\n      dup2\n      sload\n      dup2\n      mstore\n      swap1\n      0x01\n      add\n      swap1\n      0x20\n      add\n      dup1\n      dup4\n      gt\n      tag_44\n      jumpi\n      dup3\n      swap1\n      sub\n      0x1f\n      and\n      dup3\n      add\n      swap2\n    tag_42:\n      pop\n      pop\n      pop\n      pop\n      pop\n      swap1\n      pop\n        /* \"contracts/17_GuessToWinBen.sol\":1168:1253  function getHint() external view returns (string memory) {... */\n      swap1\n      jump\t// out\n        /* \"contracts/17_GuessToWinBen.sol\":480:783  function guess(string memory _word) external view returns (bool) {... */\n    tag_18:\n        /* \"contracts/17_GuessToWinBen.sol\":539:543  bool */\n      0x00\n        /* \"contracts/17_GuessToWinBen.sol\":564:573  hasPlayed */\n      0x04\n        /* \"contracts/17_GuessToWinBen.sol\":564:585  hasPlayed[msg.sender] */\n      0x00\n        /* \"contracts/17_GuessToWinBen.sol\":574:584  msg.sender */\n      caller\n        /* \"contracts/17_GuessToWinBen.sol\":564:585  hasPlayed[msg.sender] */\n      0xffffffffffffffffffffffffffffffffffffffff\n      and\n      0xffffffffffffffffffffffffffffffffffffffff\n      and\n      dup2\n      mstore\n      0x20\n      add\n      swap1\n      dup2\n      mstore\n      0x20\n      add\n      0x00\n      keccak256\n      0x00\n      swap1\n      sload\n      swap1\n      0x0100\n      exp\n      swap1\n      div\n      0xff\n      and\n        /* \"contracts/17_GuessToWinBen.sol\":563:585  !hasPlayed[msg.sender] */\n      iszero\n        /* \"contracts/17_GuessToWinBen.sol\":608:618  msg.sender */\n      caller\n        /* \"contracts/17_GuessToWinBen.sol\":555:620  require(!hasPlayed[msg.sender], UserHasAlreadyPlayed(msg.sender)) */\n      swap1\n      tag_46\n      jumpi\n      mload(0x40)\n      0xc4297ffb00000000000000000000000000000000000000000000000000000000\n      dup2\n      mstore\n      0x04\n      add\n      tag_47\n      swap2\n      swap1\n      tag_26\n      jump\t// in\n    tag_47:\n      mload(0x40)\n      dup1\n      swap2\n      sub\n      swap1\n      revert\n    tag_46:\n      pop\n        /* \"contracts/17_GuessToWinBen.sol\":656:657  0 */\n      0x00\n        /* \"contracts/17_GuessToWinBen.sol\":638:658  winner == address(0) */\n      0xffffffffffffffffffffffffffffffffffffffff\n      and\n        /* \"contracts/17_GuessToWinBen.sol\":638:644  winner */\n      0x03\n      0x00\n      swap1\n      sload\n      swap1\n      0x0100\n      exp\n      swap1\n      div\n      0xffffffffffffffffffffffffffffffffffffffff\n      and\n        /* \"contracts/17_GuessToWinBen.sol\":638:658  winner == address(0) */\n      0xffffffffffffffffffffffffffffffffffffffff\n      and\n      eq\n        /* \"contracts/17_GuessToWinBen.sol\":630:677  require(winner == address(0), GameIsFinished()) */\n      tag_48\n      jumpi\n      mload(0x40)\n      0x68a4ebce00000000000000000000000000000000000000000000000000000000\n      dup2\n      mstore\n      0x04\n      add\n      mload(0x40)\n      dup1\n      swap2\n      sub\n      swap1\n      revert\n    tag_48:\n        /* \"contracts/17_GuessToWinBen.sol\":691:717  compareString(word, _word) */\n      tag_49\n        /* \"contracts/17_GuessToWinBen.sol\":705:709  word */\n      0x01\n        /* \"contracts/17_GuessToWinBen.sol\":691:717  compareString(word, _word) */\n      dup1\n      sload\n      tag_50\n      swap1\n      tag_40\n      jump\t// in\n    tag_50:\n      dup1\n      0x1f\n      add\n      0x20\n      dup1\n      swap2\n      div\n      mul\n      0x20\n      add\n      mload(0x40)\n      swap1\n      dup2\n      add\n      0x40\n      mstore\n      dup1\n      swap3\n      swap2\n      swap1\n      dup2\n      dup2\n      mstore\n      0x20\n      add\n      dup3\n      dup1\n      sload\n      tag_51\n      swap1\n      tag_40\n      jump\t// in\n    tag_51:\n      dup1\n      iszero\n      tag_52\n      jumpi\n      dup1\n      0x1f\n      lt\n      tag_53\n      jumpi\n      0x0100\n      dup1\n      dup4\n      sload\n      div\n      mul\n      dup4\n      mstore\n      swap2\n      0x20\n      add\n      swap2\n      jump(tag_52)\n    tag_53:\n      dup3\n      add\n      swap2\n      swap1\n      0x00\n      mstore\n      keccak256(0x00, 0x20)\n      swap1\n    tag_54:\n      dup2\n      sload\n      dup2\n      mstore\n      swap1\n      0x01\n      add\n      swap1\n      0x20\n      add\n      dup1\n      dup4\n      gt\n      tag_54\n      jumpi\n      dup3\n      swap1\n      sub\n      0x1f\n      and\n      dup3\n      add\n      swap2\n    tag_52:\n      pop\n      pop\n      pop\n      pop\n      pop\n        /* \"contracts/17_GuessToWinBen.sol\":711:716  _word */\n      dup4\n        /* \"contracts/17_GuessToWinBen.sol\":691:704  compareString */\n      tag_55\n        /* \"contracts/17_GuessToWinBen.sol\":691:717  compareString(word, _word) */\n      jump\t// in\n    tag_49:\n        /* \"contracts/17_GuessToWinBen.sol\":687:755  if (compareString(word, _word)) {... */\n      iszero\n      tag_56\n      jumpi\n        /* \"contracts/17_GuessToWinBen.sol\":740:744  true */\n      0x01\n        /* \"contracts/17_GuessToWinBen.sol\":733:744  return true */\n      swap1\n      pop\n      jump(tag_45)\n        /* \"contracts/17_GuessToWinBen.sol\":687:755  if (compareString(word, _word)) {... */\n    tag_56:\n        /* \"contracts/17_GuessToWinBen.sol\":771:776  false */\n      0x00\n        /* \"contracts/17_GuessToWinBen.sol\":764:776  return false */\n      swap1\n      pop\n        /* \"contracts/17_GuessToWinBen.sol\":480:783  function guess(string memory _word) external view returns (bool) {... */\n    tag_45:\n      swap2\n      swap1\n      pop\n      jump\t// out\n        /* \"@openzeppelin/contracts/access/Ownable.sol\":2293:2394  function renounceOwnership() public virtual onlyOwner {... */\n    tag_22:\n        /* \"@openzeppelin/contracts/access/Ownable.sol\":1531:1544  _checkOwner() */\n      tag_58\n        /* \"@openzeppelin/contracts/access/Ownable.sol\":1531:1542  _checkOwner */\n      tag_59\n        /* \"@openzeppelin/contracts/access/Ownable.sol\":1531:1544  _checkOwner() */\n      jump\t// in\n    tag_58:\n        /* \"@openzeppelin/contracts/access/Ownable.sol\":2357:2387  _transferOwnership(address(0)) */\n      tag_61\n        /* \"@openzeppelin/contracts/access/Ownable.sol\":2384:2385  0 */\n      0x00\n        /* \"@openzeppelin/contracts/access/Ownable.sol\":2357:2375  _transferOwnership */\n      tag_62\n        /* \"@openzeppelin/contracts/access/Ownable.sol\":2357:2387  _transferOwnership(address(0)) */\n      jump\t// in\n    tag_61:\n        /* \"@openzeppelin/contracts/access/Ownable.sol\":2293:2394  function renounceOwnership() public virtual onlyOwner {... */\n      jump\t// out\n        /* \"@openzeppelin/contracts/access/Ownable.sol\":1638:1723  function owner() public view virtual returns (address) {... */\n    tag_24:\n        /* \"@openzeppelin/contracts/access/Ownable.sol\":1684:1691  address */\n      0x00\n        /* \"@openzeppelin/contracts/access/Ownable.sol\":1710:1716  _owner */\n      0x00\n      0x00\n      swap1\n      sload\n      swap1\n      0x0100\n      exp\n      swap1\n      div\n      0xffffffffffffffffffffffffffffffffffffffff\n      and\n        /* \"@openzeppelin/contracts/access/Ownable.sol\":1703:1716  return _owner */\n      swap1\n      pop\n        /* \"@openzeppelin/contracts/access/Ownable.sol\":1638:1723  function owner() public view virtual returns (address) {... */\n      swap1\n      jump\t// out\n        /* \"contracts/17_GuessToWinBen.sol\":1259:1415  function getWinner() external view returns (address) {... */\n    tag_28:\n        /* \"contracts/17_GuessToWinBen.sol\":1303:1310  address */\n      0x00\n        /* \"contracts/17_GuessToWinBen.sol\":1348:1349  0 */\n      0x00\n        /* \"contracts/17_GuessToWinBen.sol\":1330:1350  winner != address(0) */\n      0xffffffffffffffffffffffffffffffffffffffff\n      and\n        /* \"contracts/17_GuessToWinBen.sol\":1330:1336  winner */\n      0x03\n      0x00\n      swap1\n      sload\n      swap1\n      0x0100\n      exp\n      swap1\n      div\n      0xffffffffffffffffffffffffffffffffffffffff\n      and\n        /* \"contracts/17_GuessToWinBen.sol\":1330:1350  winner != address(0) */\n      0xffffffffffffffffffffffffffffffffffffffff\n      and\n      sub\n        /* \"contracts/17_GuessToWinBen.sol\":1322:1385  require(winner != address(0), \"The winner cannot be address 0\") */\n      tag_65\n      jumpi\n      mload(0x40)\n      0x08c379a000000000000000000000000000000000000000000000000000000000\n      dup2\n      mstore\n      0x04\n      add\n      tag_66\n      swap1\n      tag_67\n      jump\t// in\n    tag_66:\n      mload(0x40)\n      dup1\n      swap2\n      sub\n      swap1\n      revert\n    tag_65:\n        /* \"contracts/17_GuessToWinBen.sol\":1402:1408  winner */\n      0x03\n      0x00\n      swap1\n      sload\n      swap1\n      0x0100\n      exp\n      swap1\n      div\n      0xffffffffffffffffffffffffffffffffffffffff\n      and\n        /* \"contracts/17_GuessToWinBen.sol\":1395:1408  return winner */\n      swap1\n      pop\n        /* \"contracts/17_GuessToWinBen.sol\":1259:1415  function getWinner() external view returns (address) {... */\n      swap1\n      jump\t// out\n        /* \"contracts/17_GuessToWinBen.sol\":789:949  function setWordAndHint(string calldata _word, string calldata _hint)... */\n    tag_33:\n        /* \"@openzeppelin/contracts/access/Ownable.sol\":1531:1544  _checkOwner() */\n      tag_69\n        /* \"@openzeppelin/contracts/access/Ownable.sol\":1531:1542  _checkOwner */\n      tag_59\n        /* \"@openzeppelin/contracts/access/Ownable.sol\":1531:1544  _checkOwner() */\n      jump\t// in\n    tag_69:\n        /* \"contracts/17_GuessToWinBen.sol\":915:920  _word */\n      dup4\n      dup4\n        /* \"contracts/17_GuessToWinBen.sol\":908:912  word */\n      0x01\n        /* \"contracts/17_GuessToWinBen.sol\":908:920  word = _word */\n      swap2\n      dup3\n      tag_71\n      swap3\n      swap2\n      swap1\n      tag_72\n      jump\t// in\n    tag_71:\n      pop\n        /* \"contracts/17_GuessToWinBen.sol\":937:942  _hint */\n      dup2\n      dup2\n        /* \"contracts/17_GuessToWinBen.sol\":930:934  hint */\n      0x02\n        /* \"contracts/17_GuessToWinBen.sol\":930:942  hint = _hint */\n      swap2\n      dup3\n      tag_73\n      swap3\n      swap2\n      swap1\n      tag_72\n      jump\t// in\n    tag_73:\n      pop\n        /* \"contracts/17_GuessToWinBen.sol\":789:949  function setWordAndHint(string calldata _word, string calldata _hint)... */\n      pop\n      pop\n      pop\n      pop\n      jump\t// out\n        /* \"@openzeppelin/contracts/access/Ownable.sol\":2543:2758  function transferOwnership(address newOwner) public virtual onlyOwner {... */\n    tag_37:\n        /* \"@openzeppelin/contracts/access/Ownable.sol\":1531:1544  _checkOwner() */\n      tag_75\n        /* \"@openzeppelin/contracts/access/Ownable.sol\":1531:1542  _checkOwner */\n      tag_59\n        /* \"@openzeppelin/contracts/access/Ownable.sol\":1531:1544  _checkOwner() */\n      jump\t// in\n    tag_75:\n        /* \"@openzeppelin/contracts/access/Ownable.sol\":2647:2648  0 */\n      0x00\n        /* \"@openzeppelin/contracts/access/Ownable.sol\":2627:2649  newOwner == address(0) */\n      0xffffffffffffffffffffffffffffffffffffffff\n      and\n        /* \"@openzeppelin/contracts/access/Ownable.sol\":2627:2635  newOwner */\n      dup2\n        /* \"@openzeppelin/contracts/access/Ownable.sol\":2627:2649  newOwner == address(0) */\n      0xffffffffffffffffffffffffffffffffffffffff\n      and\n      sub\n        /* \"@openzeppelin/contracts/access/Ownable.sol\":2623:2714  if (newOwner == address(0)) {... */\n      tag_77\n      jumpi\n        /* \"@openzeppelin/contracts/access/Ownable.sol\":2700:2701  0 */\n      0x00\n        /* \"@openzeppelin/contracts/access/Ownable.sol\":2672:2703  OwnableInvalidOwner(address(0)) */\n      mload(0x40)\n      0x1e4fbdf700000000000000000000000000000000000000000000000000000000\n      dup2\n      mstore\n      0x04\n      add\n      tag_78\n      swap2\n      swap1\n      tag_26\n      jump\t// in\n    tag_78:\n      mload(0x40)\n      dup1\n      swap2\n      sub\n      swap1\n      revert\n        /* \"@openzeppelin/contracts/access/Ownable.sol\":2623:2714  if (newOwner == address(0)) {... */\n    tag_77:\n        /* \"@openzeppelin/contracts/access/Ownable.sol\":2723:2751  _transferOwnership(newOwner) */\n      tag_79\n        /* \"@openzeppelin/contracts/access/Ownable.sol\":2742:2750  newOwner */\n      dup2\n        /* \"@openzeppelin/contracts/access/Ownable.sol\":2723:2741  _transferOwnership */\n      tag_62\n        /* \"@openzeppelin/contracts/access/Ownable.sol\":2723:2751  _transferOwnership(newOwner) */\n      jump\t// in\n    tag_79:\n        /* \"@openzeppelin/contracts/access/Ownable.sol\":2543:2758  function transferOwnership(address newOwner) public virtual onlyOwner {... */\n      pop\n      jump\t// out\n        /* \"contracts/17_GuessToWinBen.sol\":955:1162  function compareString(string memory _string1, string memory _string2)... */\n    tag_55:\n        /* \"contracts/17_GuessToWinBen.sol\":1072:1076  bool */\n      0x00\n        /* \"contracts/17_GuessToWinBen.sol\":1145:1153  _string2 */\n      dup2\n        /* \"contracts/17_GuessToWinBen.sol\":1129:1155  keccak256(bytes(_string2)) */\n      dup1\n      mload\n      swap1\n      0x20\n      add\n      keccak256\n        /* \"contracts/17_GuessToWinBen.sol\":1115:1123  _string1 */\n      dup4\n        /* \"contracts/17_GuessToWinBen.sol\":1099:1125  keccak256(bytes(_string1)) */\n      dup1\n      mload\n      swap1\n      0x20\n      add\n      keccak256\n        /* \"contracts/17_GuessToWinBen.sol\":1099:1155  keccak256(bytes(_string1)) == keccak256(bytes(_string2)) */\n      eq\n        /* \"contracts/17_GuessToWinBen.sol\":1092:1155  return keccak256(bytes(_string1)) == keccak256(bytes(_string2)) */\n      swap1\n      pop\n        /* \"contracts/17_GuessToWinBen.sol\":955:1162  function compareString(string memory _string1, string memory _string2)... */\n      swap3\n      swap2\n      pop\n      pop\n      jump\t// out\n        /* \"@openzeppelin/contracts/access/Ownable.sol\":1796:1958  function _checkOwner() internal view virtual {... */\n    tag_59:\n        /* \"@openzeppelin/contracts/access/Ownable.sol\":1866:1878  _msgSender() */\n      tag_82\n        /* \"@openzeppelin/contracts/access/Ownable.sol\":1866:1876  _msgSender */\n      tag_83\n        /* \"@openzeppelin/contracts/access/Ownable.sol\":1866:1878  _msgSender() */\n      jump\t// in\n    tag_82:\n        /* \"@openzeppelin/contracts/access/Ownable.sol\":1855:1878  owner() != _msgSender() */\n      0xffffffffffffffffffffffffffffffffffffffff\n      and\n        /* \"@openzeppelin/contracts/access/Ownable.sol\":1855:1862  owner() */\n      tag_84\n        /* \"@openzeppelin/contracts/access/Ownable.sol\":1855:1860  owner */\n      tag_24\n        /* \"@openzeppelin/contracts/access/Ownable.sol\":1855:1862  owner() */\n      jump\t// in\n    tag_84:\n        /* \"@openzeppelin/contracts/access/Ownable.sol\":1855:1878  owner() != _msgSender() */\n      0xffffffffffffffffffffffffffffffffffffffff\n      and\n      eq\n        /* \"@openzeppelin/contracts/access/Ownable.sol\":1851:1952  if (owner() != _msgSender()) {... */\n      tag_85\n      jumpi\n        /* \"@openzeppelin/contracts/access/Ownable.sol\":1928:1940  _msgSender() */\n      tag_86\n        /* \"@openzeppelin/contracts/access/Ownable.sol\":1928:1938  _msgSender */\n      tag_83\n        /* \"@openzeppelin/contracts/access/Ownable.sol\":1928:1940  _msgSender() */\n      jump\t// in\n    tag_86:\n        /* \"@openzeppelin/contracts/access/Ownable.sol\":1901:1941  OwnableUnauthorizedAccount(_msgSender()) */\n      mload(0x40)\n      0x118cdaa700000000000000000000000000000000000000000000000000000000\n      dup2\n      mstore\n      0x04\n      add\n      tag_87\n      swap2\n      swap1\n      tag_26\n      jump\t// in\n    tag_87:\n      mload(0x40)\n      dup1\n      swap2\n      sub\n      swap1\n      revert\n        /* \"@openzeppelin/contracts/access/Ownable.sol\":1851:1952  if (owner() != _msgSender()) {... */\n    tag_85:\n        /* \"@openzeppelin/contracts/access/Ownable.sol\":1796:1958  function _checkOwner() internal view virtual {... */\n      jump\t// out\n        /* \"@openzeppelin/contracts/access/Ownable.sol\":2912:3099  function _transferOwnership(address newOwner) internal virtual {... */\n    tag_62:\n        /* \"@openzeppelin/contracts/access/Ownable.sol\":2985:3001  address oldOwner */\n      0x00\n        /* \"@openzeppelin/contracts/access/Ownable.sol\":3004:3010  _owner */\n      0x00\n      0x00\n      swap1\n      sload\n      swap1\n      0x0100\n      exp\n      swap1\n      div\n      0xffffffffffffffffffffffffffffffffffffffff\n      and\n        /* \"@openzeppelin/contracts/access/Ownable.sol\":2985:3010  address oldOwner = _owner */\n      swap1\n      pop\n        /* \"@openzeppelin/contracts/access/Ownable.sol\":3029:3037  newOwner */\n      dup2\n        /* \"@openzeppelin/contracts/access/Ownable.sol\":3020:3026  _owner */\n      0x00\n      0x00\n        /* \"@openzeppelin/contracts/access/Ownable.sol\":3020:3037  _owner = newOwner */\n      0x0100\n      exp\n      dup2\n      sload\n      dup2\n      0xffffffffffffffffffffffffffffffffffffffff\n      mul\n      not\n      and\n      swap1\n      dup4\n      0xffffffffffffffffffffffffffffffffffffffff\n      and\n      mul\n      or\n      swap1\n      sstore\n      pop\n        /* \"@openzeppelin/contracts/access/Ownable.sol\":3083:3091  newOwner */\n      dup2\n        /* \"@openzeppelin/contracts/access/Ownable.sol\":3052:3092  OwnershipTransferred(oldOwner, newOwner) */\n      0xffffffffffffffffffffffffffffffffffffffff\n      and\n        /* \"@openzeppelin/contracts/access/Ownable.sol\":3073:3081  oldOwner */\n      dup2\n        /* \"@openzeppelin/contracts/access/Ownable.sol\":3052:3092  OwnershipTransferred(oldOwner, newOwner) */\n      0xffffffffffffffffffffffffffffffffffffffff\n      and\n      0x8be0079c531659141344cd1fd0a4f28419497f9722a3daafe3b4186f6b6457e0\n      mload(0x40)\n      mload(0x40)\n      dup1\n      swap2\n      sub\n      swap1\n      log3\n        /* \"@openzeppelin/contracts/access/Ownable.sol\":2975:3099  {... */\n      pop\n        /* \"@openzeppelin/contracts/access/Ownable.sol\":2912:3099  function _transferOwnership(address newOwner) internal virtual {... */\n      pop\n      jump\t// out\n        /* \"@openzeppelin/contracts/utils/Context.sol\":656:752  function _msgSender() internal view virtual returns (address) {... */\n    tag_83:\n        /* \"@openzeppelin/contracts/utils/Context.sol\":709:716  address */\n      0x00\n        /* \"@openzeppelin/contracts/utils/Context.sol\":735:745  msg.sender */\n      caller\n        /* \"@openzeppelin/contracts/utils/Context.sol\":728:745  return msg.sender */\n      swap1\n      pop\n        /* \"@openzeppelin/contracts/utils/Context.sol\":656:752  function _msgSender() internal view virtual returns (address) {... */\n      swap1\n      jump\t// out\n        /* \"#utility.yul\":7:106   */\n    tag_90:\n        /* \"#utility.yul\":59:65   */\n      0x00\n        /* \"#utility.yul\":93:98   */\n      dup2\n        /* \"#utility.yul\":87:99   */\n      mload\n        /* \"#utility.yul\":77:99   */\n      swap1\n      pop\n        /* \"#utility.yul\":7:106   */\n      swap2\n      swap1\n      pop\n      jump\t// out\n        /* \"#utility.yul\":112:281   */\n    tag_91:\n        /* \"#utility.yul\":196:207   */\n      0x00\n        /* \"#utility.yul\":230:236   */\n      dup3\n        /* \"#utility.yul\":225:228   */\n      dup3\n        /* \"#utility.yul\":218:237   */\n      mstore\n        /* \"#utility.yul\":270:274   */\n      0x20\n        /* \"#utility.yul\":265:268   */\n      dup3\n        /* \"#utility.yul\":261:275   */\n      add\n        /* \"#utility.yul\":246:275   */\n      swap1\n      pop\n        /* \"#utility.yul\":112:281   */\n      swap3\n      swap2\n      pop\n      pop\n      jump\t// out\n        /* \"#utility.yul\":287:426   */\n    tag_92:\n        /* \"#utility.yul\":376:382   */\n      dup3\n        /* \"#utility.yul\":371:374   */\n      dup2\n        /* \"#utility.yul\":366:369   */\n      dup4\n        /* \"#utility.yul\":360:383   */\n      mcopy\n        /* \"#utility.yul\":417:418   */\n      0x00\n        /* \"#utility.yul\":408:414   */\n      dup4\n        /* \"#utility.yul\":403:406   */\n      dup4\n        /* \"#utility.yul\":399:415   */\n      add\n        /* \"#utility.yul\":392:419   */\n      mstore\n        /* \"#utility.yul\":287:426   */\n      pop\n      pop\n      pop\n      jump\t// out\n        /* \"#utility.yul\":432:534   */\n    tag_93:\n        /* \"#utility.yul\":473:479   */\n      0x00\n        /* \"#utility.yul\":524:526   */\n      0x1f\n        /* \"#utility.yul\":520:527   */\n      not\n        /* \"#utility.yul\":515:517   */\n      0x1f\n        /* \"#utility.yul\":508:513   */\n      dup4\n        /* \"#utility.yul\":504:518   */\n      add\n        /* \"#utility.yul\":500:528   */\n      and\n        /* \"#utility.yul\":490:528   */\n      swap1\n      pop\n        /* \"#utility.yul\":432:534   */\n      swap2\n      swap1\n      pop\n      jump\t// out\n        /* \"#utility.yul\":540:917   */\n    tag_94:\n        /* \"#utility.yul\":628:631   */\n      0x00\n        /* \"#utility.yul\":656:695   */\n      tag_143\n        /* \"#utility.yul\":689:694   */\n      dup3\n        /* \"#utility.yul\":656:695   */\n      tag_90\n      jump\t// in\n    tag_143:\n        /* \"#utility.yul\":711:782   */\n      tag_144\n        /* \"#utility.yul\":775:781   */\n      dup2\n        /* \"#utility.yul\":770:773   */\n      dup6\n        /* \"#utility.yul\":711:782   */\n      tag_91\n      jump\t// in\n    tag_144:\n        /* \"#utility.yul\":704:782   */\n      swap4\n      pop\n        /* \"#utility.yul\":791:856   */\n      tag_145\n        /* \"#utility.yul\":849:855   */\n      dup2\n        /* \"#utility.yul\":844:847   */\n      dup6\n        /* \"#utility.yul\":837:841   */\n      0x20\n        /* \"#utility.yul\":830:835   */\n      dup7\n        /* \"#utility.yul\":826:842   */\n      add\n        /* \"#utility.yul\":791:856   */\n      tag_92\n      jump\t// in\n    tag_145:\n        /* \"#utility.yul\":881:910   */\n      tag_146\n        /* \"#utility.yul\":903:909   */\n      dup2\n        /* \"#utility.yul\":881:910   */\n      tag_93\n      jump\t// in\n    tag_146:\n        /* \"#utility.yul\":876:879   */\n      dup5\n        /* \"#utility.yul\":872:911   */\n      add\n        /* \"#utility.yul\":865:911   */\n      swap2\n      pop\n        /* \"#utility.yul\":632:917   */\n      pop\n        /* \"#utility.yul\":540:917   */\n      swap3\n      swap2\n      pop\n      pop\n      jump\t// out\n        /* \"#utility.yul\":923:1236   */\n    tag_14:\n        /* \"#utility.yul\":1036:1040   */\n      0x00\n        /* \"#utility.yul\":1074:1076   */\n      0x20\n        /* \"#utility.yul\":1063:1072   */\n      dup3\n        /* \"#utility.yul\":1059:1077   */\n      add\n        /* \"#utility.yul\":1051:1077   */\n      swap1\n      pop\n        /* \"#utility.yul\":1123:1132   */\n      dup2\n        /* \"#utility.yul\":1117:1121   */\n      dup2\n        /* \"#utility.yul\":1113:1133   */\n      sub\n        /* \"#utility.yul\":1109:1110   */\n      0x00\n        /* \"#utility.yul\":1098:1107   */\n      dup4\n        /* \"#utility.yul\":1094:1111   */\n      add\n        /* \"#utility.yul\":1087:1134   */\n      mstore\n        /* \"#utility.yul\":1151:1229   */\n      tag_148\n        /* \"#utility.yul\":1224:1228   */\n      dup2\n        /* \"#utility.yul\":1215:1221   */\n      dup5\n        /* \"#utility.yul\":1151:1229   */\n      tag_94\n      jump\t// in\n    tag_148:\n        /* \"#utility.yul\":1143:1229   */\n      swap1\n      pop\n        /* \"#utility.yul\":923:1236   */\n      swap3\n      swap2\n      pop\n      pop\n      jump\t// out\n        /* \"#utility.yul\":1242:1317   */\n    tag_95:\n        /* \"#utility.yul\":1275:1281   */\n      0x00\n        /* \"#utility.yul\":1308:1310   */\n      0x40\n        /* \"#utility.yul\":1302:1311   */\n      mload\n        /* \"#utility.yul\":1292:1311   */\n      swap1\n      pop\n        /* \"#utility.yul\":1242:1317   */\n      swap1\n      jump\t// out\n        /* \"#utility.yul\":1323:1440   */\n    tag_96:\n        /* \"#utility.yul\":1432:1433   */\n      0x00\n        /* \"#utility.yul\":1429:1430   */\n      0x00\n        /* \"#utility.yul\":1422:1434   */\n      revert\n        /* \"#utility.yul\":1446:1563   */\n    tag_97:\n        /* \"#utility.yul\":1555:1556   */\n      0x00\n        /* \"#utility.yul\":1552:1553   */\n      0x00\n        /* \"#utility.yul\":1545:1557   */\n      revert\n        /* \"#utility.yul\":1569:1686   */\n    tag_98:\n        /* \"#utility.yul\":1678:1679   */\n      0x00\n        /* \"#utility.yul\":1675:1676   */\n      0x00\n        /* \"#utility.yul\":1668:1680   */\n      revert\n        /* \"#utility.yul\":1692:1809   */\n    tag_99:\n        /* \"#utility.yul\":1801:1802   */\n      0x00\n        /* \"#utility.yul\":1798:1799   */\n      0x00\n        /* \"#utility.yul\":1791:1803   */\n      revert\n        /* \"#utility.yul\":1815:1995   */\n    tag_100:\n        /* \"#utility.yul\":1863:1940   */\n      0x4e487b7100000000000000000000000000000000000000000000000000000000\n        /* \"#utility.yul\":1860:1861   */\n      0x00\n        /* \"#utility.yul\":1853:1941   */\n      mstore\n        /* \"#utility.yul\":1960:1964   */\n      0x41\n        /* \"#utility.yul\":1957:1958   */\n      0x04\n        /* \"#utility.yul\":1950:1965   */\n      mstore\n        /* \"#utility.yul\":1984:1988   */\n      0x24\n        /* \"#utility.yul\":1981:1982   */\n      0x00\n        /* \"#utility.yul\":1974:1989   */\n      revert\n        /* \"#utility.yul\":2001:2282   */\n    tag_101:\n        /* \"#utility.yul\":2084:2111   */\n      tag_156\n        /* \"#utility.yul\":2106:2110   */\n      dup3\n        /* \"#utility.yul\":2084:2111   */\n      tag_93\n      jump\t// in\n    tag_156:\n        /* \"#utility.yul\":2076:2082   */\n      dup2\n        /* \"#utility.yul\":2072:2112   */\n      add\n        /* \"#utility.yul\":2214:2220   */\n      dup2\n        /* \"#utility.yul\":2202:2212   */\n      dup2\n        /* \"#utility.yul\":2199:2221   */\n      lt\n        /* \"#utility.yul\":2178:2196   */\n      0xffffffffffffffff\n        /* \"#utility.yul\":2166:2176   */\n      dup3\n        /* \"#utility.yul\":2163:2197   */\n      gt\n        /* \"#utility.yul\":2160:2222   */\n      or\n        /* \"#utility.yul\":2157:2245   */\n      iszero\n      tag_157\n      jumpi\n        /* \"#utility.yul\":2225:2243   */\n      tag_158\n      tag_100\n      jump\t// in\n    tag_158:\n        /* \"#utility.yul\":2157:2245   */\n    tag_157:\n        /* \"#utility.yul\":2265:2275   */\n      dup1\n        /* \"#utility.yul\":2261:2263   */\n      0x40\n        /* \"#utility.yul\":2254:2276   */\n      mstore\n        /* \"#utility.yul\":2044:2282   */\n      pop\n        /* \"#utility.yul\":2001:2282   */\n      pop\n      pop\n      jump\t// out\n        /* \"#utility.yul\":2288:2417   */\n    tag_102:\n        /* \"#utility.yul\":2322:2328   */\n      0x00\n        /* \"#utility.yul\":2349:2369   */\n      tag_160\n      tag_95\n      jump\t// in\n    tag_160:\n        /* \"#utility.yul\":2339:2369   */\n      swap1\n      pop\n        /* \"#utility.yul\":2378:2411   */\n      tag_161\n        /* \"#utility.yul\":2406:2410   */\n      dup3\n        /* \"#utility.yul\":2398:2404   */\n      dup3\n        /* \"#utility.yul\":2378:2411   */\n      tag_101\n      jump\t// in\n    tag_161:\n        /* \"#utility.yul\":2288:2417   */\n      swap2\n      swap1\n      pop\n      jump\t// out\n        /* \"#utility.yul\":2423:2731   */\n    tag_103:\n        /* \"#utility.yul\":2485:2489   */\n      0x00\n        /* \"#utility.yul\":2575:2593   */\n      0xffffffffffffffff\n        /* \"#utility.yul\":2567:2573   */\n      dup3\n        /* \"#utility.yul\":2564:2594   */\n      gt\n        /* \"#utility.yul\":2561:2617   */\n      iszero\n      tag_163\n      jumpi\n        /* \"#utility.yul\":2597:2615   */\n      tag_164\n      tag_100\n      jump\t// in\n    tag_164:\n        /* \"#utility.yul\":2561:2617   */\n    tag_163:\n        /* \"#utility.yul\":2635:2664   */\n      tag_165\n        /* \"#utility.yul\":2657:2663   */\n      dup3\n        /* \"#utility.yul\":2635:2664   */\n      tag_93\n      jump\t// in\n    tag_165:\n        /* \"#utility.yul\":2627:2664   */\n      swap1\n      pop\n        /* \"#utility.yul\":2719:2723   */\n      0x20\n        /* \"#utility.yul\":2713:2717   */\n      dup2\n        /* \"#utility.yul\":2709:2724   */\n      add\n        /* \"#utility.yul\":2701:2724   */\n      swap1\n      pop\n        /* \"#utility.yul\":2423:2731   */\n      swap2\n      swap1\n      pop\n      jump\t// out\n        /* \"#utility.yul\":2737:2885   */\n    tag_104:\n        /* \"#utility.yul\":2835:2841   */\n      dup3\n        /* \"#utility.yul\":2830:2833   */\n      dup2\n        /* \"#utility.yul\":2825:2828   */\n      dup4\n        /* \"#utility.yul\":2812:2842   */\n      calldatacopy\n        /* \"#utility.yul\":2876:2877   */\n      0x00\n        /* \"#utility.yul\":2867:2873   */\n      dup4\n        /* \"#utility.yul\":2862:2865   */\n      dup4\n        /* \"#utility.yul\":2858:2874   */\n      add\n        /* \"#utility.yul\":2851:2878   */\n      mstore\n        /* \"#utility.yul\":2737:2885   */\n      pop\n      pop\n      pop\n      jump\t// out\n        /* \"#utility.yul\":2891:3316   */\n    tag_105:\n        /* \"#utility.yul\":2969:2974   */\n      0x00\n        /* \"#utility.yul\":2994:3060   */\n      tag_168\n        /* \"#utility.yul\":3010:3059   */\n      tag_169\n        /* \"#utility.yul\":3052:3058   */\n      dup5\n        /* \"#utility.yul\":3010:3059   */\n      tag_103\n      jump\t// in\n    tag_169:\n        /* \"#utility.yul\":2994:3060   */\n      tag_102\n      jump\t// in\n    tag_168:\n        /* \"#utility.yul\":2985:3060   */\n      swap1\n      pop\n        /* \"#utility.yul\":3083:3089   */\n      dup3\n        /* \"#utility.yul\":3076:3081   */\n      dup2\n        /* \"#utility.yul\":3069:3090   */\n      mstore\n        /* \"#utility.yul\":3121:3125   */\n      0x20\n        /* \"#utility.yul\":3114:3119   */\n      dup2\n        /* \"#utility.yul\":3110:3126   */\n      add\n        /* \"#utility.yul\":3159:3162   */\n      dup5\n        /* \"#utility.yul\":3150:3156   */\n      dup5\n        /* \"#utility.yul\":3145:3148   */\n      dup5\n        /* \"#utility.yul\":3141:3157   */\n      add\n        /* \"#utility.yul\":3138:3163   */\n      gt\n        /* \"#utility.yul\":3135:3247   */\n      iszero\n      tag_170\n      jumpi\n        /* \"#utility.yul\":3166:3245   */\n      tag_171\n      tag_99\n      jump\t// in\n    tag_171:\n        /* \"#utility.yul\":3135:3247   */\n    tag_170:\n        /* \"#utility.yul\":3256:3310   */\n      tag_172\n        /* \"#utility.yul\":3303:3309   */\n      dup5\n        /* \"#utility.yul\":3298:3301   */\n      dup3\n        /* \"#utility.yul\":3293:3296   */\n      dup6\n        /* \"#utility.yul\":3256:3310   */\n      tag_104\n      jump\t// in\n    tag_172:\n        /* \"#utility.yul\":2975:3316   */\n      pop\n        /* \"#utility.yul\":2891:3316   */\n      swap4\n      swap3\n      pop\n      pop\n      pop\n      jump\t// out\n        /* \"#utility.yul\":3336:3676   */\n    tag_106:\n        /* \"#utility.yul\":3392:3397   */\n      0x00\n        /* \"#utility.yul\":3441:3444   */\n      dup3\n        /* \"#utility.yul\":3434:3438   */\n      0x1f\n        /* \"#utility.yul\":3426:3432   */\n      dup4\n        /* \"#utility.yul\":3422:3439   */\n      add\n        /* \"#utility.yul\":3418:3445   */\n      slt\n        /* \"#utility.yul\":3408:3530   */\n      tag_174\n      jumpi\n        /* \"#utility.yul\":3449:3528   */\n      tag_175\n      tag_98\n      jump\t// in\n    tag_175:\n        /* \"#utility.yul\":3408:3530   */\n    tag_174:\n        /* \"#utility.yul\":3566:3572   */\n      dup2\n        /* \"#utility.yul\":3553:3573   */\n      calldataload\n        /* \"#utility.yul\":3591:3670   */\n      tag_176\n        /* \"#utility.yul\":3666:3669   */\n      dup5\n        /* \"#utility.yul\":3658:3664   */\n      dup3\n        /* \"#utility.yul\":3651:3655   */\n      0x20\n        /* \"#utility.yul\":3643:3649   */\n      dup7\n        /* \"#utility.yul\":3639:3656   */\n      add\n        /* \"#utility.yul\":3591:3670   */\n      tag_105\n      jump\t// in\n    tag_176:\n        /* \"#utility.yul\":3582:3670   */\n      swap2\n      pop\n        /* \"#utility.yul\":3398:3676   */\n      pop\n        /* \"#utility.yul\":3336:3676   */\n      swap3\n      swap2\n      pop\n      pop\n      jump\t// out\n        /* \"#utility.yul\":3682:4191   */\n    tag_17:\n        /* \"#utility.yul\":3751:3757   */\n      0x00\n        /* \"#utility.yul\":3800:3802   */\n      0x20\n        /* \"#utility.yul\":3788:3797   */\n      dup3\n        /* \"#utility.yul\":3779:3786   */\n      dup5\n        /* \"#utility.yul\":3775:3798   */\n      sub\n        /* \"#utility.yul\":3771:3803   */\n      slt\n        /* \"#utility.yul\":3768:3887   */\n      iszero\n      tag_178\n      jumpi\n        /* \"#utility.yul\":3806:3885   */\n      tag_179\n      tag_96\n      jump\t// in\n    tag_179:\n        /* \"#utility.yul\":3768:3887   */\n    tag_178:\n        /* \"#utility.yul\":3954:3955   */\n      0x00\n        /* \"#utility.yul\":3943:3952   */\n      dup3\n        /* \"#utility.yul\":3939:3956   */\n      add\n        /* \"#utility.yul\":3926:3957   */\n      calldataload\n        /* \"#utility.yul\":3984:4002   */\n      0xffffffffffffffff\n        /* \"#utility.yul\":3976:3982   */\n      dup2\n        /* \"#utility.yul\":3973:4003   */\n      gt\n        /* \"#utility.yul\":3970:4087   */\n      iszero\n      tag_180\n      jumpi\n        /* \"#utility.yul\":4006:4085   */\n      tag_181\n      tag_97\n      jump\t// in\n    tag_181:\n        /* \"#utility.yul\":3970:4087   */\n    tag_180:\n        /* \"#utility.yul\":4111:4174   */\n      tag_182\n        /* \"#utility.yul\":4166:4173   */\n      dup5\n        /* \"#utility.yul\":4157:4163   */\n      dup3\n        /* \"#utility.yul\":4146:4155   */\n      dup6\n        /* \"#utility.yul\":4142:4164   */\n      add\n        /* \"#utility.yul\":4111:4174   */\n      tag_106\n      jump\t// in\n    tag_182:\n        /* \"#utility.yul\":4101:4174   */\n      swap2\n      pop\n        /* \"#utility.yul\":3897:4184   */\n      pop\n        /* \"#utility.yul\":3682:4191   */\n      swap3\n      swap2\n      pop\n      pop\n      jump\t// out\n        /* \"#utility.yul\":4197:4287   */\n    tag_107:\n        /* \"#utility.yul\":4231:4238   */\n      0x00\n        /* \"#utility.yul\":4274:4279   */\n      dup2\n        /* \"#utility.yul\":4267:4280   */\n      iszero\n        /* \"#utility.yul\":4260:4281   */\n      iszero\n        /* \"#utility.yul\":4249:4281   */\n      swap1\n      pop\n        /* \"#utility.yul\":4197:4287   */\n      swap2\n      swap1\n      pop\n      jump\t// out\n        /* \"#utility.yul\":4293:4402   */\n    tag_108:\n        /* \"#utility.yul\":4374:4395   */\n      tag_185\n        /* \"#utility.yul\":4389:4394   */\n      dup2\n        /* \"#utility.yul\":4374:4395   */\n      tag_107\n      jump\t// in\n    tag_185:\n        /* \"#utility.yul\":4369:4372   */\n      dup3\n        /* \"#utility.yul\":4362:4396   */\n      mstore\n        /* \"#utility.yul\":4293:4402   */\n      pop\n      pop\n      jump\t// out\n        /* \"#utility.yul\":4408:4618   */\n    tag_20:\n        /* \"#utility.yul\":4495:4499   */\n      0x00\n        /* \"#utility.yul\":4533:4535   */\n      0x20\n        /* \"#utility.yul\":4522:4531   */\n      dup3\n        /* \"#utility.yul\":4518:4536   */\n      add\n        /* \"#utility.yul\":4510:4536   */\n      swap1\n      pop\n        /* \"#utility.yul\":4546:4611   */\n      tag_187\n        /* \"#utility.yul\":4608:4609   */\n      0x00\n        /* \"#utility.yul\":4597:4606   */\n      dup4\n        /* \"#utility.yul\":4593:4610   */\n      add\n        /* \"#utility.yul\":4584:4590   */\n      dup5\n        /* \"#utility.yul\":4546:4611   */\n      tag_108\n      jump\t// in\n    tag_187:\n        /* \"#utility.yul\":4408:4618   */\n      swap3\n      swap2\n      pop\n      pop\n      jump\t// out\n        /* \"#utility.yul\":4624:4750   */\n    tag_109:\n        /* \"#utility.yul\":4661:4668   */\n      0x00\n        /* \"#utility.yul\":4701:4743   */\n      0xffffffffffffffffffffffffffffffffffffffff\n        /* \"#utility.yul\":4694:4699   */\n      dup3\n        /* \"#utility.yul\":4690:4744   */\n      and\n        /* \"#utility.yul\":4679:4744   */\n      swap1\n      pop\n        /* \"#utility.yul\":4624:4750   */\n      swap2\n      swap1\n      pop\n      jump\t// out\n        /* \"#utility.yul\":4756:4852   */\n    tag_110:\n        /* \"#utility.yul\":4793:4800   */\n      0x00\n        /* \"#utility.yul\":4822:4846   */\n      tag_190\n        /* \"#utility.yul\":4840:4845   */\n      dup3\n        /* \"#utility.yul\":4822:4846   */\n      tag_109\n      jump\t// in\n    tag_190:\n        /* \"#utility.yul\":4811:4846   */\n      swap1\n      pop\n        /* \"#utility.yul\":4756:4852   */\n      swap2\n      swap1\n      pop\n      jump\t// out\n        /* \"#utility.yul\":4858:4976   */\n    tag_111:\n        /* \"#utility.yul\":4945:4969   */\n      tag_192\n        /* \"#utility.yul\":4963:4968   */\n      dup2\n        /* \"#utility.yul\":4945:4969   */\n      tag_110\n      jump\t// in\n    tag_192:\n        /* \"#utility.yul\":4940:4943   */\n      dup3\n        /* \"#utility.yul\":4933:4970   */\n      mstore\n        /* \"#utility.yul\":4858:4976   */\n      pop\n      pop\n      jump\t// out\n        /* \"#utility.yul\":4982:5204   */\n    tag_26:\n        /* \"#utility.yul\":5075:5079   */\n      0x00\n        /* \"#utility.yul\":5113:5115   */\n      0x20\n        /* \"#utility.yul\":5102:5111   */\n      dup3\n        /* \"#utility.yul\":5098:5116   */\n      add\n        /* \"#utility.yul\":5090:5116   */\n      swap1\n      pop\n        /* \"#utility.yul\":5126:5197   */\n      tag_194\n        /* \"#utility.yul\":5194:5195   */\n      0x00\n        /* \"#utility.yul\":5183:5192   */\n      dup4\n        /* \"#utility.yul\":5179:5196   */\n      add\n        /* \"#utility.yul\":5170:5176   */\n      dup5\n        /* \"#utility.yul\":5126:5197   */\n      tag_111\n      jump\t// in\n    tag_194:\n        /* \"#utility.yul\":4982:5204   */\n      swap3\n      swap2\n      pop\n      pop\n      jump\t// out\n        /* \"#utility.yul\":5210:5327   */\n    tag_112:\n        /* \"#utility.yul\":5319:5320   */\n      0x00\n        /* \"#utility.yul\":5316:5317   */\n      0x00\n        /* \"#utility.yul\":5309:5321   */\n      revert\n        /* \"#utility.yul\":5333:5450   */\n    tag_113:\n        /* \"#utility.yul\":5442:5443   */\n      0x00\n        /* \"#utility.yul\":5439:5440   */\n      0x00\n        /* \"#utility.yul\":5432:5444   */\n      revert\n        /* \"#utility.yul\":5470:6023   */\n    tag_114:\n        /* \"#utility.yul\":5528:5536   */\n      0x00\n        /* \"#utility.yul\":5538:5544   */\n      0x00\n        /* \"#utility.yul\":5588:5591   */\n      dup4\n        /* \"#utility.yul\":5581:5585   */\n      0x1f\n        /* \"#utility.yul\":5573:5579   */\n      dup5\n        /* \"#utility.yul\":5569:5586   */\n      add\n        /* \"#utility.yul\":5565:5592   */\n      slt\n        /* \"#utility.yul\":5555:5677   */\n      tag_198\n      jumpi\n        /* \"#utility.yul\":5596:5675   */\n      tag_199\n      tag_98\n      jump\t// in\n    tag_199:\n        /* \"#utility.yul\":5555:5677   */\n    tag_198:\n        /* \"#utility.yul\":5709:5715   */\n      dup3\n        /* \"#utility.yul\":5696:5716   */\n      calldataload\n        /* \"#utility.yul\":5686:5716   */\n      swap1\n      pop\n        /* \"#utility.yul\":5739:5757   */\n      0xffffffffffffffff\n        /* \"#utility.yul\":5731:5737   */\n      dup2\n        /* \"#utility.yul\":5728:5758   */\n      gt\n        /* \"#utility.yul\":5725:5842   */\n      iszero\n      tag_200\n      jumpi\n        /* \"#utility.yul\":5761:5840   */\n      tag_201\n      tag_112\n      jump\t// in\n    tag_201:\n        /* \"#utility.yul\":5725:5842   */\n    tag_200:\n        /* \"#utility.yul\":5875:5879   */\n      0x20\n        /* \"#utility.yul\":5867:5873   */\n      dup4\n        /* \"#utility.yul\":5863:5880   */\n      add\n        /* \"#utility.yul\":5851:5880   */\n      swap2\n      pop\n        /* \"#utility.yul\":5929:5932   */\n      dup4\n        /* \"#utility.yul\":5921:5925   */\n      0x01\n        /* \"#utility.yul\":5913:5919   */\n      dup3\n        /* \"#utility.yul\":5909:5926   */\n      mul\n        /* \"#utility.yul\":5899:5907   */\n      dup4\n        /* \"#utility.yul\":5895:5927   */\n      add\n        /* \"#utility.yul\":5892:5933   */\n      gt\n        /* \"#utility.yul\":5889:6017   */\n      iszero\n      tag_202\n      jumpi\n        /* \"#utility.yul\":5936:6015   */\n      tag_203\n      tag_113\n      jump\t// in\n    tag_203:\n        /* \"#utility.yul\":5889:6017   */\n    tag_202:\n        /* \"#utility.yul\":5470:6023   */\n      swap3\n      pop\n      swap3\n      swap1\n      pop\n      jump\t// out\n        /* \"#utility.yul\":6029:6903   */\n    tag_32:\n        /* \"#utility.yul\":6121:6127   */\n      0x00\n        /* \"#utility.yul\":6129:6135   */\n      0x00\n        /* \"#utility.yul\":6137:6143   */\n      0x00\n        /* \"#utility.yul\":6145:6151   */\n      0x00\n        /* \"#utility.yul\":6194:6196   */\n      0x40\n        /* \"#utility.yul\":6182:6191   */\n      dup6\n        /* \"#utility.yul\":6173:6180   */\n      dup8\n        /* \"#utility.yul\":6169:6192   */\n      sub\n        /* \"#utility.yul\":6165:6197   */\n      slt\n        /* \"#utility.yul\":6162:6281   */\n      iszero\n      tag_205\n      jumpi\n        /* \"#utility.yul\":6200:6279   */\n      tag_206\n      tag_96\n      jump\t// in\n    tag_206:\n        /* \"#utility.yul\":6162:6281   */\n    tag_205:\n        /* \"#utility.yul\":6348:6349   */\n      0x00\n        /* \"#utility.yul\":6337:6346   */\n      dup6\n        /* \"#utility.yul\":6333:6350   */\n      add\n        /* \"#utility.yul\":6320:6351   */\n      calldataload\n        /* \"#utility.yul\":6378:6396   */\n      0xffffffffffffffff\n        /* \"#utility.yul\":6370:6376   */\n      dup2\n        /* \"#utility.yul\":6367:6397   */\n      gt\n        /* \"#utility.yul\":6364:6481   */\n      iszero\n      tag_207\n      jumpi\n        /* \"#utility.yul\":6400:6479   */\n      tag_208\n      tag_97\n      jump\t// in\n    tag_208:\n        /* \"#utility.yul\":6364:6481   */\n    tag_207:\n        /* \"#utility.yul\":6513:6578   */\n      tag_209\n        /* \"#utility.yul\":6570:6577   */\n      dup8\n        /* \"#utility.yul\":6561:6567   */\n      dup3\n        /* \"#utility.yul\":6550:6559   */\n      dup9\n        /* \"#utility.yul\":6546:6568   */\n      add\n        /* \"#utility.yul\":6513:6578   */\n      tag_114\n      jump\t// in\n    tag_209:\n        /* \"#utility.yul\":6495:6578   */\n      swap5\n      pop\n      swap5\n      pop\n        /* \"#utility.yul\":6291:6588   */\n      pop\n        /* \"#utility.yul\":6655:6657   */\n      0x20\n        /* \"#utility.yul\":6644:6653   */\n      dup6\n        /* \"#utility.yul\":6640:6658   */\n      add\n        /* \"#utility.yul\":6627:6659   */\n      calldataload\n        /* \"#utility.yul\":6686:6704   */\n      0xffffffffffffffff\n        /* \"#utility.yul\":6678:6684   */\n      dup2\n        /* \"#utility.yul\":6675:6705   */\n      gt\n        /* \"#utility.yul\":6672:6789   */\n      iszero\n      tag_210\n      jumpi\n        /* \"#utility.yul\":6708:6787   */\n      tag_211\n      tag_97\n      jump\t// in\n    tag_211:\n        /* \"#utility.yul\":6672:6789   */\n    tag_210:\n        /* \"#utility.yul\":6821:6886   */\n      tag_212\n        /* \"#utility.yul\":6878:6885   */\n      dup8\n        /* \"#utility.yul\":6869:6875   */\n      dup3\n        /* \"#utility.yul\":6858:6867   */\n      dup9\n        /* \"#utility.yul\":6854:6876   */\n      add\n        /* \"#utility.yul\":6821:6886   */\n      tag_114\n      jump\t// in\n    tag_212:\n        /* \"#utility.yul\":6803:6886   */\n      swap3\n      pop\n      swap3\n      pop\n        /* \"#utility.yul\":6598:6896   */\n      pop\n        /* \"#utility.yul\":6029:6903   */\n      swap3\n      swap6\n      swap2\n      swap5\n      pop\n      swap3\n      pop\n      jump\t// out\n        /* \"#utility.yul\":6909:7031   */\n    tag_115:\n        /* \"#utility.yul\":6982:7006   */\n      tag_214\n        /* \"#utility.yul\":7000:7005   */\n      dup2\n        /* \"#utility.yul\":6982:7006   */\n      tag_110\n      jump\t// in\n    tag_214:\n        /* \"#utility.yul\":6975:6980   */\n      dup2\n        /* \"#utility.yul\":6972:7007   */\n      eq\n        /* \"#utility.yul\":6962:7025   */\n      tag_215\n      jumpi\n        /* \"#utility.yul\":7021:7022   */\n      0x00\n        /* \"#utility.yul\":7018:7019   */\n      0x00\n        /* \"#utility.yul\":7011:7023   */\n      revert\n        /* \"#utility.yul\":6962:7025   */\n    tag_215:\n        /* \"#utility.yul\":6909:7031   */\n      pop\n      jump\t// out\n        /* \"#utility.yul\":7037:7176   */\n    tag_116:\n        /* \"#utility.yul\":7083:7088   */\n      0x00\n        /* \"#utility.yul\":7121:7127   */\n      dup2\n        /* \"#utility.yul\":7108:7128   */\n      calldataload\n        /* \"#utility.yul\":7099:7128   */\n      swap1\n      pop\n        /* \"#utility.yul\":7137:7170   */\n      tag_217\n        /* \"#utility.yul\":7164:7169   */\n      dup2\n        /* \"#utility.yul\":7137:7170   */\n      tag_115\n      jump\t// in\n    tag_217:\n        /* \"#utility.yul\":7037:7176   */\n      swap3\n      swap2\n      pop\n      pop\n      jump\t// out\n        /* \"#utility.yul\":7182:7511   */\n    tag_36:\n        /* \"#utility.yul\":7241:7247   */\n      0x00\n        /* \"#utility.yul\":7290:7292   */\n      0x20\n        /* \"#utility.yul\":7278:7287   */\n      dup3\n        /* \"#utility.yul\":7269:7276   */\n      dup5\n        /* \"#utility.yul\":7265:7288   */\n      sub\n        /* \"#utility.yul\":7261:7293   */\n      slt\n        /* \"#utility.yul\":7258:7377   */\n      iszero\n      tag_219\n      jumpi\n        /* \"#utility.yul\":7296:7375   */\n      tag_220\n      tag_96\n      jump\t// in\n    tag_220:\n        /* \"#utility.yul\":7258:7377   */\n    tag_219:\n        /* \"#utility.yul\":7416:7417   */\n      0x00\n        /* \"#utility.yul\":7441:7494   */\n      tag_221\n        /* \"#utility.yul\":7486:7493   */\n      dup5\n        /* \"#utility.yul\":7477:7483   */\n      dup3\n        /* \"#utility.yul\":7466:7475   */\n      dup6\n        /* \"#utility.yul\":7462:7484   */\n      add\n        /* \"#utility.yul\":7441:7494   */\n      tag_116\n      jump\t// in\n    tag_221:\n        /* \"#utility.yul\":7431:7494   */\n      swap2\n      pop\n        /* \"#utility.yul\":7387:7504   */\n      pop\n        /* \"#utility.yul\":7182:7511   */\n      swap3\n      swap2\n      pop\n      pop\n      jump\t// out\n        /* \"#utility.yul\":7517:7697   */\n    tag_117:\n        /* \"#utility.yul\":7565:7642   */\n      0x4e487b7100000000000000000000000000000000000000000000000000000000\n        /* \"#utility.yul\":7562:7563   */\n      0x00\n        /* \"#utility.yul\":7555:7643   */\n      mstore\n        /* \"#utility.yul\":7662:7666   */\n      0x22\n        /* \"#utility.yul\":7659:7660   */\n      0x04\n        /* \"#utility.yul\":7652:7667   */\n      mstore\n        /* \"#utility.yul\":7686:7690   */\n      0x24\n        /* \"#utility.yul\":7683:7684   */\n      0x00\n        /* \"#utility.yul\":7676:7691   */\n      revert\n        /* \"#utility.yul\":7703:8023   */\n    tag_40:\n        /* \"#utility.yul\":7747:7753   */\n      0x00\n        /* \"#utility.yul\":7784:7785   */\n      0x02\n        /* \"#utility.yul\":7778:7782   */\n      dup3\n        /* \"#utility.yul\":7774:7786   */\n      div\n        /* \"#utility.yul\":7764:7786   */\n      swap1\n      pop\n        /* \"#utility.yul\":7831:7832   */\n      0x01\n        /* \"#utility.yul\":7825:7829   */\n      dup3\n        /* \"#utility.yul\":7821:7833   */\n      and\n        /* \"#utility.yul\":7852:7870   */\n      dup1\n        /* \"#utility.yul\":7842:7923   */\n      tag_224\n      jumpi\n        /* \"#utility.yul\":7908:7912   */\n      0x7f\n        /* \"#utility.yul\":7900:7906   */\n      dup3\n        /* \"#utility.yul\":7896:7913   */\n      and\n        /* \"#utility.yul\":7886:7913   */\n      swap2\n      pop\n        /* \"#utility.yul\":7842:7923   */\n    tag_224:\n        /* \"#utility.yul\":7970:7972   */\n      0x20\n        /* \"#utility.yul\":7962:7968   */\n      dup3\n        /* \"#utility.yul\":7959:7973   */\n      lt\n        /* \"#utility.yul\":7939:7957   */\n      dup2\n        /* \"#utility.yul\":7936:7974   */\n      sub\n        /* \"#utility.yul\":7933:8017   */\n      tag_225\n      jumpi\n        /* \"#utility.yul\":7989:8007   */\n      tag_226\n      tag_117\n      jump\t// in\n    tag_226:\n        /* \"#utility.yul\":7933:8017   */\n    tag_225:\n        /* \"#utility.yul\":7754:8023   */\n      pop\n        /* \"#utility.yul\":7703:8023   */\n      swap2\n      swap1\n      pop\n      jump\t// out\n        /* \"#utility.yul\":8029:8209   */\n    tag_118:\n        /* \"#utility.yul\":8169:8201   */\n      0x5468652077696e6e65722063616e6e6f74206265206164647265737320300000\n        /* \"#utility.yul\":8165:8166   */\n      0x00\n        /* \"#utility.yul\":8157:8163   */\n      dup3\n        /* \"#utility.yul\":8153:8167   */\n      add\n        /* \"#utility.yul\":8146:8202   */\n      mstore\n        /* \"#utility.yul\":8029:8209   */\n      pop\n      jump\t// out\n        /* \"#utility.yul\":8215:8581   */\n    tag_119:\n        /* \"#utility.yul\":8357:8360   */\n      0x00\n        /* \"#utility.yul\":8378:8445   */\n      tag_229\n        /* \"#utility.yul\":8442:8444   */\n      0x1e\n        /* \"#utility.yul\":8437:8440   */\n      dup4\n        /* \"#utility.yul\":8378:8445   */\n      tag_91\n      jump\t// in\n    tag_229:\n        /* \"#utility.yul\":8371:8445   */\n      swap2\n      pop\n        /* \"#utility.yul\":8454:8547   */\n      tag_230\n        /* \"#utility.yul\":8543:8546   */\n      dup3\n        /* \"#utility.yul\":8454:8547   */\n      tag_118\n      jump\t// in\n    tag_230:\n        /* \"#utility.yul\":8572:8574   */\n      0x20\n        /* \"#utility.yul\":8567:8570   */\n      dup3\n        /* \"#utility.yul\":8563:8575   */\n      add\n        /* \"#utility.yul\":8556:8575   */\n      swap1\n      pop\n        /* \"#utility.yul\":8215:8581   */\n      swap2\n      swap1\n      pop\n      jump\t// out\n        /* \"#utility.yul\":8587:9006   */\n    tag_67:\n        /* \"#utility.yul\":8753:8757   */\n      0x00\n        /* \"#utility.yul\":8791:8793   */\n      0x20\n        /* \"#utility.yul\":8780:8789   */\n      dup3\n        /* \"#utility.yul\":8776:8794   */\n      add\n        /* \"#utility.yul\":8768:8794   */\n      swap1\n      pop\n        /* \"#utility.yul\":8840:8849   */\n      dup2\n        /* \"#utility.yul\":8834:8838   */\n      dup2\n        /* \"#utility.yul\":8830:8850   */\n      sub\n        /* \"#utility.yul\":8826:8827   */\n      0x00\n        /* \"#utility.yul\":8815:8824   */\n      dup4\n        /* \"#utility.yul\":8811:8828   */\n      add\n        /* \"#utility.yul\":8804:8851   */\n      mstore\n        /* \"#utility.yul\":8868:8999   */\n      tag_232\n        /* \"#utility.yul\":8994:8998   */\n      dup2\n        /* \"#utility.yul\":8868:8999   */\n      tag_119\n      jump\t// in\n    tag_232:\n        /* \"#utility.yul\":8860:8999   */\n      swap1\n      pop\n        /* \"#utility.yul\":8587:9006   */\n      swap2\n      swap1\n      pop\n      jump\t// out\n        /* \"#utility.yul\":9012:9109   */\n    tag_120:\n        /* \"#utility.yul\":9071:9077   */\n      0x00\n        /* \"#utility.yul\":9099:9102   */\n      dup3\n        /* \"#utility.yul\":9089:9102   */\n      swap1\n      pop\n        /* \"#utility.yul\":9012:9109   */\n      swap3\n      swap2\n      pop\n      pop\n      jump\t// out\n        /* \"#utility.yul\":9115:9256   */\n    tag_121:\n        /* \"#utility.yul\":9164:9168   */\n      0x00\n        /* \"#utility.yul\":9187:9190   */\n      dup2\n        /* \"#utility.yul\":9179:9190   */\n      swap1\n      pop\n        /* \"#utility.yul\":9210:9213   */\n      dup2\n        /* \"#utility.yul\":9207:9208   */\n      0x00\n        /* \"#utility.yul\":9200:9214   */\n      mstore\n        /* \"#utility.yul\":9244:9248   */\n      0x20\n        /* \"#utility.yul\":9241:9242   */\n      0x00\n        /* \"#utility.yul\":9231:9249   */\n      keccak256\n        /* \"#utility.yul\":9223:9249   */\n      swap1\n      pop\n        /* \"#utility.yul\":9115:9256   */\n      swap2\n      swap1\n      pop\n      jump\t// out\n        /* \"#utility.yul\":9262:9355   */\n    tag_122:\n        /* \"#utility.yul\":9299:9305   */\n      0x00\n        /* \"#utility.yul\":9346:9348   */\n      0x20\n        /* \"#utility.yul\":9341:9343   */\n      0x1f\n        /* \"#utility.yul\":9334:9339   */\n      dup4\n        /* \"#utility.yul\":9330:9344   */\n      add\n        /* \"#utility.yul\":9326:9349   */\n      div\n        /* \"#utility.yul\":9316:9349   */\n      swap1\n      pop\n        /* \"#utility.yul\":9262:9355   */\n      swap2\n      swap1\n      pop\n      jump\t// out\n        /* \"#utility.yul\":9361:9468   */\n    tag_123:\n        /* \"#utility.yul\":9405:9413   */\n      0x00\n        /* \"#utility.yul\":9455:9460   */\n      dup3\n        /* \"#utility.yul\":9449:9453   */\n      dup3\n        /* \"#utility.yul\":9445:9461   */\n      shl\n        /* \"#utility.yul\":9424:9461   */\n      swap1\n      pop\n        /* \"#utility.yul\":9361:9468   */\n      swap3\n      swap2\n      pop\n      pop\n      jump\t// out\n        /* \"#utility.yul\":9474:9867   */\n    tag_124:\n        /* \"#utility.yul\":9543:9549   */\n      0x00\n        /* \"#utility.yul\":9593:9594   */\n      0x08\n        /* \"#utility.yul\":9581:9591   */\n      dup4\n        /* \"#utility.yul\":9577:9595   */\n      mul\n        /* \"#utility.yul\":9616:9713   */\n      tag_238\n        /* \"#utility.yul\":9646:9712   */\n      0xffffffffffffffffffffffffffffffffffffffffffffffffffffffffffffffff\n        /* \"#utility.yul\":9635:9644   */\n      dup3\n        /* \"#utility.yul\":9616:9713   */\n      tag_123\n      jump\t// in\n    tag_238:\n        /* \"#utility.yul\":9734:9773   */\n      tag_239\n        /* \"#utility.yul\":9764:9772   */\n      dup7\n        /* \"#utility.yul\":9753:9762   */\n      dup4\n        /* \"#utility.yul\":9734:9773   */\n      tag_123\n      jump\t// in\n    tag_239:\n        /* \"#utility.yul\":9722:9773   */\n      swap6\n      pop\n        /* \"#utility.yul\":9806:9810   */\n      dup1\n        /* \"#utility.yul\":9802:9811   */\n      not\n        /* \"#utility.yul\":9795:9800   */\n      dup5\n        /* \"#utility.yul\":9791:9812   */\n      and\n        /* \"#utility.yul\":9782:9812   */\n      swap4\n      pop\n        /* \"#utility.yul\":9855:9859   */\n      dup1\n        /* \"#utility.yul\":9845:9853   */\n      dup7\n        /* \"#utility.yul\":9841:9860   */\n      and\n        /* \"#utility.yul\":9834:9839   */\n      dup5\n        /* \"#utility.yul\":9831:9861   */\n      or\n        /* \"#utility.yul\":9821:9861   */\n      swap3\n      pop\n        /* \"#utility.yul\":9550:9867   */\n      pop\n      pop\n        /* \"#utility.yul\":9474:9867   */\n      swap4\n      swap3\n      pop\n      pop\n      pop\n      jump\t// out\n        /* \"#utility.yul\":9873:9950   */\n    tag_125:\n        /* \"#utility.yul\":9910:9917   */\n      0x00\n        /* \"#utility.yul\":9939:9944   */\n      dup2\n        /* \"#utility.yul\":9928:9944   */\n      swap1\n      pop\n        /* \"#utility.yul\":9873:9950   */\n      swap2\n      swap1\n      pop\n      jump\t// out\n        /* \"#utility.yul\":9956:10016   */\n    tag_126:\n        /* \"#utility.yul\":9984:9987   */\n      0x00\n        /* \"#utility.yul\":10005:10010   */\n      dup2\n        /* \"#utility.yul\":9998:10010   */\n      swap1\n      pop\n        /* \"#utility.yul\":9956:10016   */\n      swap2\n      swap1\n      pop\n      jump\t// out\n        /* \"#utility.yul\":10022:10164   */\n    tag_127:\n        /* \"#utility.yul\":10072:10081   */\n      0x00\n        /* \"#utility.yul\":10105:10158   */\n      tag_243\n        /* \"#utility.yul\":10123:10157   */\n      tag_244\n        /* \"#utility.yul\":10132:10156   */\n      tag_245\n        /* \"#utility.yul\":10150:10155   */\n      dup5\n        /* \"#utility.yul\":10132:10156   */\n      tag_125\n      jump\t// in\n    tag_245:\n        /* \"#utility.yul\":10123:10157   */\n      tag_126\n      jump\t// in\n    tag_244:\n        /* \"#utility.yul\":10105:10158   */\n      tag_125\n      jump\t// in\n    tag_243:\n        /* \"#utility.yul\":10092:10158   */\n      swap1\n      pop\n        /* \"#utility.yul\":10022:10164   */\n      swap2\n      swap1\n      pop\n      jump\t// out\n        /* \"#utility.yul\":10170:10245   */\n    tag_128:\n        /* \"#utility.yul\":10213:10216   */\n      0x00\n        /* \"#utility.yul\":10234:10239   */\n      dup2\n        /* \"#utility.yul\":10227:10239   */\n      swap1\n      pop\n        /* \"#utility.yul\":10170:10245   */\n      swap2\n      swap1\n      pop\n      jump\t// out\n        /* \"#utility.yul\":10251:10520   */\n    tag_129:\n        /* \"#utility.yul\":10361:10400   */\n      tag_248\n        /* \"#utility.yul\":10392:10399   */\n      dup4\n        /* \"#utility.yul\":10361:10400   */\n      tag_127\n      jump\t// in\n    tag_248:\n        /* \"#utility.yul\":10422:10513   */\n      tag_249\n        /* \"#utility.yul\":10471:10512   */\n      tag_250\n        /* \"#utility.yul\":10495:10511   */\n      dup3\n        /* \"#utility.yul\":10471:10512   */\n      tag_128\n      jump\t// in\n    tag_250:\n        /* \"#utility.yul\":10463:10469   */\n      dup5\n        /* \"#utility.yul\":10456:10460   */\n      dup5\n        /* \"#utility.yul\":10450:10461   */\n      sload\n        /* \"#utility.yul\":10422:10513   */\n      tag_124\n      jump\t// in\n    tag_249:\n        /* \"#utility.yul\":10416:10420   */\n      dup3\n        /* \"#utility.yul\":10409:10514   */\n      sstore\n        /* \"#utility.yul\":10327:10520   */\n      pop\n        /* \"#utility.yul\":10251:10520   */\n      pop\n      pop\n      pop\n      jump\t// out\n        /* \"#utility.yul\":10526:10599   */\n    tag_130:\n        /* \"#utility.yul\":10571:10574   */\n      0x00\n        /* \"#utility.yul\":10592:10593   */\n      0x00\n        /* \"#utility.yul\":10585:10593   */\n      swap1\n      pop\n        /* \"#utility.yul\":10526:10599   */\n      swap1\n      jump\t// out\n        /* \"#utility.yul\":10605:10794   */\n    tag_131:\n        /* \"#utility.yul\":10682:10714   */\n      tag_253\n      tag_130\n      jump\t// in\n    tag_253:\n        /* \"#utility.yul\":10723:10788   */\n      tag_254\n        /* \"#utility.yul\":10781:10787   */\n      dup2\n        /* \"#utility.yul\":10773:10779   */\n      dup5\n        /* \"#utility.yul\":10767:10771   */\n      dup5\n        /* \"#utility.yul\":10723:10788   */\n      tag_129\n      jump\t// in\n    tag_254:\n        /* \"#utility.yul\":10658:10794   */\n      pop\n        /* \"#utility.yul\":10605:10794   */\n      pop\n      pop\n      jump\t// out\n        /* \"#utility.yul\":10800:10986   */\n    tag_132:\n        /* \"#utility.yul\":10860:10980   */\n    tag_256:\n        /* \"#utility.yul\":10877:10880   */\n      dup2\n        /* \"#utility.yul\":10870:10875   */\n      dup2\n        /* \"#utility.yul\":10867:10881   */\n      lt\n        /* \"#utility.yul\":10860:10980   */\n      iszero\n      tag_258\n      jumpi\n        /* \"#utility.yul\":10931:10970   */\n      tag_259\n        /* \"#utility.yul\":10968:10969   */\n      0x00\n        /* \"#utility.yul\":10961:10966   */\n      dup3\n        /* \"#utility.yul\":10931:10970   */\n      tag_131\n      jump\t// in\n    tag_259:\n        /* \"#utility.yul\":10904:10905   */\n      0x01\n        /* \"#utility.yul\":10897:10902   */\n      dup2\n        /* \"#utility.yul\":10893:10906   */\n      add\n        /* \"#utility.yul\":10884:10906   */\n      swap1\n      pop\n        /* \"#utility.yul\":10860:10980   */\n      jump(tag_256)\n    tag_258:\n        /* \"#utility.yul\":10800:10986   */\n      pop\n      pop\n      jump\t// out\n        /* \"#utility.yul\":10992:11535   */\n    tag_133:\n        /* \"#utility.yul\":11093:11095   */\n      0x1f\n        /* \"#utility.yul\":11088:11091   */\n      dup3\n        /* \"#utility.yul\":11085:11096   */\n      gt\n        /* \"#utility.yul\":11082:11528   */\n      iszero\n      tag_261\n      jumpi\n        /* \"#utility.yul\":11127:11165   */\n      tag_262\n        /* \"#utility.yul\":11159:11164   */\n      dup2\n        /* \"#utility.yul\":11127:11165   */\n      tag_121\n      jump\t// in\n    tag_262:\n        /* \"#utility.yul\":11211:11240   */\n      tag_263\n        /* \"#utility.yul\":11229:11239   */\n      dup5\n        /* \"#utility.yul\":11211:11240   */\n      tag_122\n      jump\t// in\n    tag_263:\n        /* \"#utility.yul\":11201:11209   */\n      dup2\n        /* \"#utility.yul\":11197:11241   */\n      add\n        /* \"#utility.yul\":11394:11396   */\n      0x20\n        /* \"#utility.yul\":11382:11392   */\n      dup6\n        /* \"#utility.yul\":11379:11397   */\n      lt\n        /* \"#utility.yul\":11376:11425   */\n      iszero\n      tag_264\n      jumpi\n        /* \"#utility.yul\":11415:11423   */\n      dup2\n        /* \"#utility.yul\":11400:11423   */\n      swap1\n      pop\n        /* \"#utility.yul\":11376:11425   */\n    tag_264:\n        /* \"#utility.yul\":11438:11518   */\n      tag_265\n        /* \"#utility.yul\":11494:11516   */\n      tag_266\n        /* \"#utility.yul\":11512:11515   */\n      dup6\n        /* \"#utility.yul\":11494:11516   */\n      tag_122\n      jump\t// in\n    tag_266:\n        /* \"#utility.yul\":11484:11492   */\n      dup4\n        /* \"#utility.yul\":11480:11517   */\n      add\n        /* \"#utility.yul\":11467:11478   */\n      dup3\n        /* \"#utility.yul\":11438:11518   */\n      tag_132\n      jump\t// in\n    tag_265:\n        /* \"#utility.yul\":11097:11528   */\n      pop\n      pop\n        /* \"#utility.yul\":11082:11528   */\n    tag_261:\n        /* \"#utility.yul\":10992:11535   */\n      pop\n      pop\n      pop\n      jump\t// out\n        /* \"#utility.yul\":11541:11658   */\n    tag_134:\n        /* \"#utility.yul\":11595:11603   */\n      0x00\n        /* \"#utility.yul\":11645:11650   */\n      dup3\n        /* \"#utility.yul\":11639:11643   */\n      dup3\n        /* \"#utility.yul\":11635:11651   */\n      shr\n        /* \"#utility.yul\":11614:11651   */\n      swap1\n      pop\n        /* \"#utility.yul\":11541:11658   */\n      swap3\n      swap2\n      pop\n      pop\n      jump\t// out\n        /* \"#utility.yul\":11664:11833   */\n    tag_135:\n        /* \"#utility.yul\":11708:11714   */\n      0x00\n        /* \"#utility.yul\":11741:11792   */\n      tag_269\n        /* \"#utility.yul\":11789:11790   */\n      0x00\n        /* \"#utility.yul\":11785:11791   */\n      not\n        /* \"#utility.yul\":11777:11782   */\n      dup5\n        /* \"#utility.yul\":11774:11775   */\n      0x08\n        /* \"#utility.yul\":11770:11783   */\n      mul\n        /* \"#utility.yul\":11741:11792   */\n      tag_134\n      jump\t// in\n    tag_269:\n        /* \"#utility.yul\":11737:11793   */\n      not\n        /* \"#utility.yul\":11822:11826   */\n      dup1\n        /* \"#utility.yul\":11816:11820   */\n      dup4\n        /* \"#utility.yul\":11812:11827   */\n      and\n        /* \"#utility.yul\":11802:11827   */\n      swap2\n      pop\n        /* \"#utility.yul\":11715:11833   */\n      pop\n        /* \"#utility.yul\":11664:11833   */\n      swap3\n      swap2\n      pop\n      pop\n      jump\t// out\n        /* \"#utility.yul\":11838:12133   */\n    tag_136:\n        /* \"#utility.yul\":11914:11918   */\n      0x00\n        /* \"#utility.yul\":12060:12089   */\n      tag_271\n        /* \"#utility.yul\":12085:12088   */\n      dup4\n        /* \"#utility.yul\":12079:12083   */\n      dup4\n        /* \"#utility.yul\":12060:12089   */\n      tag_135\n      jump\t// in\n    tag_271:\n        /* \"#utility.yul\":12052:12089   */\n      swap2\n      pop\n        /* \"#utility.yul\":12122:12125   */\n      dup3\n        /* \"#utility.yul\":12119:12120   */\n      0x02\n        /* \"#utility.yul\":12115:12126   */\n      mul\n        /* \"#utility.yul\":12109:12113   */\n      dup3\n        /* \"#utility.yul\":12106:12127   */\n      or\n        /* \"#utility.yul\":12098:12127   */\n      swap1\n      pop\n        /* \"#utility.yul\":11838:12133   */\n      swap3\n      swap2\n      pop\n      pop\n      jump\t// out\n        /* \"#utility.yul\":12138:13541   */\n    tag_72:\n        /* \"#utility.yul\":12262:12306   */\n      tag_273\n        /* \"#utility.yul\":12302:12305   */\n      dup4\n        /* \"#utility.yul\":12297:12300   */\n      dup4\n        /* \"#utility.yul\":12262:12306   */\n      tag_120\n      jump\t// in\n    tag_273:\n        /* \"#utility.yul\":12371:12389   */\n      0xffffffffffffffff\n        /* \"#utility.yul\":12363:12369   */\n      dup2\n        /* \"#utility.yul\":12360:12390   */\n      gt\n        /* \"#utility.yul\":12357:12413   */\n      iszero\n      tag_274\n      jumpi\n        /* \"#utility.yul\":12393:12411   */\n      tag_275\n      tag_100\n      jump\t// in\n    tag_275:\n        /* \"#utility.yul\":12357:12413   */\n    tag_274:\n        /* \"#utility.yul\":12437:12475   */\n      tag_276\n        /* \"#utility.yul\":12469:12473   */\n      dup3\n        /* \"#utility.yul\":12463:12474   */\n      sload\n        /* \"#utility.yul\":12437:12475   */\n      tag_40\n      jump\t// in\n    tag_276:\n        /* \"#utility.yul\":12522:12589   */\n      tag_277\n        /* \"#utility.yul\":12582:12588   */\n      dup3\n        /* \"#utility.yul\":12574:12580   */\n      dup3\n        /* \"#utility.yul\":12568:12572   */\n      dup6\n        /* \"#utility.yul\":12522:12589   */\n      tag_133\n      jump\t// in\n    tag_277:\n        /* \"#utility.yul\":12616:12617   */\n      0x00\n        /* \"#utility.yul\":12645:12647   */\n      0x1f\n        /* \"#utility.yul\":12637:12643   */\n      dup4\n        /* \"#utility.yul\":12634:12648   */\n      gt\n        /* \"#utility.yul\":12662:12663   */\n      0x01\n        /* \"#utility.yul\":12657:13289   */\n      dup2\n      eq\n      tag_279\n      jumpi\n        /* \"#utility.yul\":13333:13334   */\n      0x00\n        /* \"#utility.yul\":13350:13356   */\n      dup5\n        /* \"#utility.yul\":13347:13431   */\n      iszero\n      tag_280\n      jumpi\n        /* \"#utility.yul\":13406:13415   */\n      dup3\n        /* \"#utility.yul\":13401:13404   */\n      dup8\n        /* \"#utility.yul\":13397:13416   */\n      add\n        /* \"#utility.yul\":13384:13417   */\n      calldataload\n        /* \"#utility.yul\":13375:13417   */\n      swap1\n      pop\n        /* \"#utility.yul\":13347:13431   */\n    tag_280:\n        /* \"#utility.yul\":13457:13524   */\n      tag_281\n        /* \"#utility.yul\":13517:13523   */\n      dup6\n        /* \"#utility.yul\":13510:13515   */\n      dup3\n        /* \"#utility.yul\":13457:13524   */\n      tag_136\n      jump\t// in\n    tag_281:\n        /* \"#utility.yul\":13451:13455   */\n      dup7\n        /* \"#utility.yul\":13444:13525   */\n      sstore\n        /* \"#utility.yul\":13306:13535   */\n      pop\n        /* \"#utility.yul\":12627:13535   */\n      jump(tag_278)\n        /* \"#utility.yul\":12657:13289   */\n    tag_279:\n        /* \"#utility.yul\":12709:12713   */\n      0x1f\n        /* \"#utility.yul\":12705:12714   */\n      not\n        /* \"#utility.yul\":12697:12703   */\n      dup5\n        /* \"#utility.yul\":12693:12715   */\n      and\n        /* \"#utility.yul\":12743:12780   */\n      tag_282\n        /* \"#utility.yul\":12775:12779   */\n      dup7\n        /* \"#utility.yul\":12743:12780   */\n      tag_121\n      jump\t// in\n    tag_282:\n        /* \"#utility.yul\":12802:12803   */\n      0x00\n        /* \"#utility.yul\":12816:13031   */\n    tag_283:\n        /* \"#utility.yul\":12830:12837   */\n      dup3\n        /* \"#utility.yul\":12827:12828   */\n      dup2\n        /* \"#utility.yul\":12824:12838   */\n      lt\n        /* \"#utility.yul\":12816:13031   */\n      iszero\n      tag_285\n      jumpi\n        /* \"#utility.yul\":12916:12925   */\n      dup5\n        /* \"#utility.yul\":12911:12914   */\n      dup10\n        /* \"#utility.yul\":12907:12926   */\n      add\n        /* \"#utility.yul\":12894:12927   */\n      calldataload\n        /* \"#utility.yul\":12886:12892   */\n      dup3\n        /* \"#utility.yul\":12879:12928   */\n      sstore\n        /* \"#utility.yul\":12967:12968   */\n      0x01\n        /* \"#utility.yul\":12959:12965   */\n      dup3\n        /* \"#utility.yul\":12955:12969   */\n      add\n        /* \"#utility.yul\":12945:12969   */\n      swap2\n      pop\n        /* \"#utility.yul\":13014:13016   */\n      0x20\n        /* \"#utility.yul\":13003:13012   */\n      dup6\n        /* \"#utility.yul\":12999:13017   */\n      add\n        /* \"#utility.yul\":12986:13017   */\n      swap5\n      pop\n        /* \"#utility.yul\":12853:12857   */\n      0x20\n        /* \"#utility.yul\":12850:12851   */\n      dup2\n        /* \"#utility.yul\":12846:12858   */\n      add\n        /* \"#utility.yul\":12841:12858   */\n      swap1\n      pop\n        /* \"#utility.yul\":12816:13031   */\n      jump(tag_283)\n    tag_285:\n        /* \"#utility.yul\":13059:13065   */\n      dup7\n        /* \"#utility.yul\":13050:13057   */\n      dup4\n        /* \"#utility.yul\":13047:13066   */\n      lt\n        /* \"#utility.yul\":13044:13230   */\n      iszero\n      tag_286\n      jumpi\n        /* \"#utility.yul\":13124:13133   */\n      dup5\n        /* \"#utility.yul\":13119:13122   */\n      dup10\n        /* \"#utility.yul\":13115:13134   */\n      add\n        /* \"#utility.yul\":13102:13135   */\n      calldataload\n        /* \"#utility.yul\":13167:13215   */\n      tag_287\n        /* \"#utility.yul\":13209:13213   */\n      0x1f\n        /* \"#utility.yul\":13201:13207   */\n      dup10\n        /* \"#utility.yul\":13197:13214   */\n      and\n        /* \"#utility.yul\":13186:13195   */\n      dup3\n        /* \"#utility.yul\":13167:13215   */\n      tag_135\n      jump\t// in\n    tag_287:\n        /* \"#utility.yul\":13159:13165   */\n      dup4\n        /* \"#utility.yul\":13152:13216   */\n      sstore\n        /* \"#utility.yul\":13067:13230   */\n      pop\n        /* \"#utility.yul\":13044:13230   */\n    tag_286:\n        /* \"#utility.yul\":13276:13277   */\n      0x01\n        /* \"#utility.yul\":13272:13273   */\n      0x02\n        /* \"#utility.yul\":13264:13270   */\n      dup9\n        /* \"#utility.yul\":13260:13274   */\n      mul\n        /* \"#utility.yul\":13256:13278   */\n      add\n        /* \"#utility.yul\":13250:13254   */\n      dup9\n        /* \"#utility.yul\":13243:13279   */\n      sstore\n        /* \"#utility.yul\":12664:13289   */\n      pop\n      pop\n      pop\n        /* \"#utility.yul\":12627:13535   */\n    tag_278:\n      pop\n        /* \"#utility.yul\":12237:13541   */\n      pop\n      pop\n      pop\n        /* \"#utility.yul\":12138:13541   */\n      pop\n      pop\n      pop\n      jump\t// out\n\n    auxdata: 0xa2646970667358221220ddd214c033f2fb588e4a83253c4e088393dabae2195389ce281267d05fcac19564736f6c634300081c0033\n}\n",
				"bytecode": {
					"linkReferences": {},
					"object": "608060405234801561000f575f5ffd5b50335f73ffffffffffffffffffffffffffffffffffffffff168173ffffffffffffffffffffffffffffffffffffffff1603610081575f6040517f1e4fbdf70000000000000000000000000000000000000000000000000000000081526004016100789190610196565b60405180910390fd5b6100908161009660201b60201c565b506101af565b5f5f5f9054906101000a900473ffffffffffffffffffffffffffffffffffffffff169050815f5f6101000a81548173ffffffffffffffffffffffffffffffffffffffff021916908373ffffffffffffffffffffffffffffffffffffffff1602179055508173ffffffffffffffffffffffffffffffffffffffff168173ffffffffffffffffffffffffffffffffffffffff167f8be0079c531659141344cd1fd0a4f28419497f9722a3daafe3b4186f6b6457e060405160405180910390a35050565b5f73ffffffffffffffffffffffffffffffffffffffff82169050919050565b5f61018082610157565b9050919050565b61019081610176565b82525050565b5f6020820190506101a95f830184610187565b92915050565b610df3806101bc5f395ff3fe608060405234801561000f575f5ffd5b506004361061007b575f3560e01c80638da5cb5b116100595780638da5cb5b146100d75780638e7ea5b2146100f5578063b166eafe14610113578063f2fde38b1461012f5761007b565b8063412250711461007f5780634eee59b31461009d578063715018a6146100cd575b5f5ffd5b61008761014b565b6040516100949190610719565b60405180910390f35b6100b760048036038101906100b29190610876565b6101db565b6040516100c491906108d7565b60405180910390f35b6100d5610399565b005b6100df6103ac565b6040516100ec919061092f565b60405180910390f35b6100fd6103d3565b60405161010a919061092f565b60405180910390f35b61012d600480360381019061012891906109a5565b61048a565b005b61014960048036038101906101449190610a4d565b6104bc565b005b60606002805461015a90610aa5565b80601f016020809104026020016040519081016040528092919081815260200182805461018690610aa5565b80156101d15780601f106101a8576101008083540402835291602001916101d1565b820191905f5260205f20905b8154815290600101906020018083116101b457829003601f168201915b5050505050905090565b5f60045f3373ffffffffffffffffffffffffffffffffffffffff1673ffffffffffffffffffffffffffffffffffffffff1681526020019081526020015f205f9054906101000a900460ff16153390610269576040517fc4297ffb000000000000000000000000000000000000000000000000000000008152600401610260919061092f565b60405180910390fd5b505f73ffffffffffffffffffffffffffffffffffffffff1660035f9054906101000a900473ffffffffffffffffffffffffffffffffffffffff1673ffffffffffffffffffffffffffffffffffffffff16146102f0576040517f68a4ebce00000000000000000000000000000000000000000000000000000000815260040160405180910390fd5b6103826001805461030090610aa5565b80601f016020809104026020016040519081016040528092919081815260200182805461032c90610aa5565b80156103775780601f1061034e57610100808354040283529160200191610377565b820191905f5260205f20905b81548152906001019060200180831161035a57829003601f168201915b505050505083610540565b156103905760019050610394565b5f90505b919050565b6103a161055a565b6103aa5f6105e1565b565b5f5f5f9054906101000a900473ffffffffffffffffffffffffffffffffffffffff16905090565b5f5f73ffffffffffffffffffffffffffffffffffffffff1660035f9054906101000a900473ffffffffffffffffffffffffffffffffffffffff1673ffffffffffffffffffffffffffffffffffffffff1603610463576040517f08c379a000000000000000000000000000000000000000000000000000000000815260040161045a90610b1f565b60405180910390fd5b60035f9054906101000a900473ffffffffffffffffffffffffffffffffffffffff16905090565b61049261055a565b8383600191826104a3929190610cf0565b508181600291826104b5929190610cf0565b5050505050565b6104c461055a565b5f73ffffffffffffffffffffffffffffffffffffffff168173ffffffffffffffffffffffffffffffffffffffff1603610534575f6040517f1e4fbdf700000000000000000000000000000000000000000000000000000000815260040161052b919061092f565b60405180910390fd5b61053d816105e1565b50565b5f8180519060200120838051906020012014905092915050565b6105626106a2565b73ffffffffffffffffffffffffffffffffffffffff166105806103ac565b73ffffffffffffffffffffffffffffffffffffffff16146105df576105a36106a2565b6040517f118cdaa70000000000000000000000000000000000000000000000000000000081526004016105d6919061092f565b60405180910390fd5b565b5f5f5f9054906101000a900473ffffffffffffffffffffffffffffffffffffffff169050815f5f6101000a81548173ffffffffffffffffffffffffffffffffffffffff021916908373ffffffffffffffffffffffffffffffffffffffff1602179055508173ffffffffffffffffffffffffffffffffffffffff168173ffffffffffffffffffffffffffffffffffffffff167f8be0079c531659141344cd1fd0a4f28419497f9722a3daafe3b4186f6b6457e060405160405180910390a35050565b5f33905090565b5f81519050919050565b5f82825260208201905092915050565b8281835e5f83830152505050565b5f601f19601f8301169050919050565b5f6106eb826106a9565b6106f581856106b3565b93506107058185602086016106c3565b61070e816106d1565b840191505092915050565b5f6020820190508181035f83015261073181846106e1565b905092915050565b5f604051905090565b5f5ffd5b5f5ffd5b5f5ffd5b5f5ffd5b7f4e487b71000000000000000000000000000000000000000000000000000000005f52604160045260245ffd5b610788826106d1565b810181811067ffffffffffffffff821117156107a7576107a6610752565b5b80604052505050565b5f6107b9610739565b90506107c5828261077f565b919050565b5f67ffffffffffffffff8211156107e4576107e3610752565b5b6107ed826106d1565b9050602081019050919050565b828183375f83830152505050565b5f61081a610815846107ca565b6107b0565b9050828152602081018484840111156108365761083561074e565b5b6108418482856107fa565b509392505050565b5f82601f83011261085d5761085c61074a565b5b813561086d848260208601610808565b91505092915050565b5f6020828403121561088b5761088a610742565b5b5f82013567ffffffffffffffff8111156108a8576108a7610746565b5b6108b484828501610849565b91505092915050565b5f8115159050919050565b6108d1816108bd565b82525050565b5f6020820190506108ea5f8301846108c8565b92915050565b5f73ffffffffffffffffffffffffffffffffffffffff82169050919050565b5f610919826108f0565b9050919050565b6109298161090f565b82525050565b5f6020820190506109425f830184610920565b92915050565b5f5ffd5b5f5ffd5b5f5f83601f8401126109655761096461074a565b5b8235905067ffffffffffffffff81111561098257610981610948565b5b60208301915083600182028301111561099e5761099d61094c565b5b9250929050565b5f5f5f5f604085870312156109bd576109bc610742565b5b5f85013567ffffffffffffffff8111156109da576109d9610746565b5b6109e687828801610950565b9450945050602085013567ffffffffffffffff811115610a0957610a08610746565b5b610a1587828801610950565b925092505092959194509250565b610a2c8161090f565b8114610a36575f5ffd5b50565b5f81359050610a4781610a23565b92915050565b5f60208284031215610a6257610a61610742565b5b5f610a6f84828501610a39565b91505092915050565b7f4e487b71000000000000000000000000000000000000000000000000000000005f52602260045260245ffd5b5f6002820490506001821680610abc57607f821691505b602082108103610acf57610ace610a78565b5b50919050565b7f5468652077696e6e65722063616e6e6f742062652061646472657373203000005f82015250565b5f610b09601e836106b3565b9150610b1482610ad5565b602082019050919050565b5f6020820190508181035f830152610b3681610afd565b9050919050565b5f82905092915050565b5f819050815f5260205f209050919050565b5f6020601f8301049050919050565b5f82821b905092915050565b5f60088302610ba37fffffffffffffffffffffffffffffffffffffffffffffffffffffffffffffffff82610b68565b610bad8683610b68565b95508019841693508086168417925050509392505050565b5f819050919050565b5f819050919050565b5f610bf1610bec610be784610bc5565b610bce565b610bc5565b9050919050565b5f819050919050565b610c0a83610bd7565b610c1e610c1682610bf8565b848454610b74565b825550505050565b5f5f905090565b610c35610c26565b610c40818484610c01565b505050565b5b81811015610c6357610c585f82610c2d565b600181019050610c46565b5050565b601f821115610ca857610c7981610b47565b610c8284610b59565b81016020851015610c91578190505b610ca5610c9d85610b59565b830182610c45565b50505b505050565b5f82821c905092915050565b5f610cc85f1984600802610cad565b1980831691505092915050565b5f610ce08383610cb9565b9150826002028217905092915050565b610cfa8383610b3d565b67ffffffffffffffff811115610d1357610d12610752565b5b610d1d8254610aa5565b610d28828285610c67565b5f601f831160018114610d55575f8415610d43578287013590505b610d4d8582610cd5565b865550610db4565b601f198416610d6386610b47565b5f5b82811015610d8a57848901358255600182019150602085019450602081019050610d65565b86831015610da75784890135610da3601f891682610cb9565b8355505b6001600288020188555050505b5050505050505056fea2646970667358221220ddd214c033f2fb588e4a83253c4e088393dabae2195389ce281267d05fcac19564736f6c634300081c0033",
					"opcodes": "PUSH1 0x80 PUSH1 0x40 MSTORE CALLVALUE DUP1 ISZERO PUSH2 0xF JUMPI PUSH0 PUSH0 REVERT JUMPDEST POP CALLER PUSH0 PUSH20 0xFFFFFFFFFFFFFFFFFFFFFFFFFFFFFFFFFFFFFFFF AND DUP2 PUSH20 0xFFFFFFFFFFFFFFFFFFFFFFFFFFFFFFFFFFFFFFFF AND SUB PUSH2 0x81 JUMPI PUSH0 PUSH1 0x40 MLOAD PUSH32 0x1E4FBDF700000000000000000000000000000000000000000000000000000000 DUP2 MSTORE PUSH1 0x4 ADD PUSH2 0x78 SWAP2 SWAP1 PUSH2 0x196 JUMP JUMPDEST PUSH1 0x40 MLOAD DUP1 SWAP2 SUB SWAP1 REVERT JUMPDEST PUSH2 0x90 DUP2 PUSH2 0x96 PUSH1 0x20 SHL PUSH1 0x20 SHR JUMP JUMPDEST POP PUSH2 0x1AF JUMP JUMPDEST PUSH0 PUSH0 PUSH0 SWAP1 SLOAD SWAP1 PUSH2 0x100 EXP SWAP1 DIV PUSH20 0xFFFFFFFFFFFFFFFFFFFFFFFFFFFFFFFFFFFFFFFF AND SWAP1 POP DUP2 PUSH0 PUSH0 PUSH2 0x100 EXP DUP2 SLOAD DUP2 PUSH20 0xFFFFFFFFFFFFFFFFFFFFFFFFFFFFFFFFFFFFFFFF MUL NOT AND SWAP1 DUP4 PUSH20 0xFFFFFFFFFFFFFFFFFFFFFFFFFFFFFFFFFFFFFFFF AND MUL OR SWAP1 SSTORE POP DUP2 PUSH20 0xFFFFFFFFFFFFFFFFFFFFFFFFFFFFFFFFFFFFFFFF AND DUP2 PUSH20 0xFFFFFFFFFFFFFFFFFFFFFFFFFFFFFFFFFFFFFFFF AND PUSH32 0x8BE0079C531659141344CD1FD0A4F28419497F9722A3DAAFE3B4186F6B6457E0 PUSH1 0x40 MLOAD PUSH1 0x40 MLOAD DUP1 SWAP2 SUB SWAP1 LOG3 POP POP JUMP JUMPDEST PUSH0 PUSH20 0xFFFFFFFFFFFFFFFFFFFFFFFFFFFFFFFFFFFFFFFF DUP3 AND SWAP1 POP SWAP2 SWAP1 POP JUMP JUMPDEST PUSH0 PUSH2 0x180 DUP3 PUSH2 0x157 JUMP JUMPDEST SWAP1 POP SWAP2 SWAP1 POP JUMP JUMPDEST PUSH2 0x190 DUP2 PUSH2 0x176 JUMP JUMPDEST DUP3 MSTORE POP POP JUMP JUMPDEST PUSH0 PUSH1 0x20 DUP3 ADD SWAP1 POP PUSH2 0x1A9 PUSH0 DUP4 ADD DUP5 PUSH2 0x187 JUMP JUMPDEST SWAP3 SWAP2 POP POP JUMP JUMPDEST PUSH2 0xDF3 DUP1 PUSH2 0x1BC PUSH0 CODECOPY PUSH0 RETURN INVALID PUSH1 0x80 PUSH1 0x40 MSTORE CALLVALUE DUP1 ISZERO PUSH2 0xF JUMPI PUSH0 PUSH0 REVERT JUMPDEST POP PUSH1 0x4 CALLDATASIZE LT PUSH2 0x7B JUMPI PUSH0 CALLDATALOAD PUSH1 0xE0 SHR DUP1 PUSH4 0x8DA5CB5B GT PUSH2 0x59 JUMPI DUP1 PUSH4 0x8DA5CB5B EQ PUSH2 0xD7 JUMPI DUP1 PUSH4 0x8E7EA5B2 EQ PUSH2 0xF5 JUMPI DUP1 PUSH4 0xB166EAFE EQ PUSH2 0x113 JUMPI DUP1 PUSH4 0xF2FDE38B EQ PUSH2 0x12F JUMPI PUSH2 0x7B JUMP JUMPDEST DUP1 PUSH4 0x41225071 EQ PUSH2 0x7F JUMPI DUP1 PUSH4 0x4EEE59B3 EQ PUSH2 0x9D JUMPI DUP1 PUSH4 0x715018A6 EQ PUSH2 0xCD JUMPI JUMPDEST PUSH0 PUSH0 REVERT JUMPDEST PUSH2 0x87 PUSH2 0x14B JUMP JUMPDEST PUSH1 0x40 MLOAD PUSH2 0x94 SWAP2 SWAP1 PUSH2 0x719 JUMP JUMPDEST PUSH1 0x40 MLOAD DUP1 SWAP2 SUB SWAP1 RETURN JUMPDEST PUSH2 0xB7 PUSH1 0x4 DUP1 CALLDATASIZE SUB DUP2 ADD SWAP1 PUSH2 0xB2 SWAP2 SWAP1 PUSH2 0x876 JUMP JUMPDEST PUSH2 0x1DB JUMP JUMPDEST PUSH1 0x40 MLOAD PUSH2 0xC4 SWAP2 SWAP1 PUSH2 0x8D7 JUMP JUMPDEST PUSH1 0x40 MLOAD DUP1 SWAP2 SUB SWAP1 RETURN JUMPDEST PUSH2 0xD5 PUSH2 0x399 JUMP JUMPDEST STOP JUMPDEST PUSH2 0xDF PUSH2 0x3AC JUMP JUMPDEST PUSH1 0x40 MLOAD PUSH2 0xEC SWAP2 SWAP1 PUSH2 0x92F JUMP JUMPDEST PUSH1 0x40 MLOAD DUP1 SWAP2 SUB SWAP1 RETURN JUMPDEST PUSH2 0xFD PUSH2 0x3D3 JUMP JUMPDEST PUSH1 0x40 MLOAD PUSH2 0x10A SWAP2 SWAP1 PUSH2 0x92F JUMP JUMPDEST PUSH1 0x40 MLOAD DUP1 SWAP2 SUB SWAP1 RETURN JUMPDEST PUSH2 0x12D PUSH1 0x4 DUP1 CALLDATASIZE SUB DUP2 ADD SWAP1 PUSH2 0x128 SWAP2 SWAP1 PUSH2 0x9A5 JUMP JUMPDEST PUSH2 0x48A JUMP JUMPDEST STOP JUMPDEST PUSH2 0x149 PUSH1 0x4 DUP1 CALLDATASIZE SUB DUP2 ADD SWAP1 PUSH2 0x144 SWAP2 SWAP1 PUSH2 0xA4D JUMP JUMPDEST PUSH2 0x4BC JUMP JUMPDEST STOP JUMPDEST PUSH1 0x60 PUSH1 0x2 DUP1 SLOAD PUSH2 0x15A SWAP1 PUSH2 0xAA5 JUMP JUMPDEST DUP1 PUSH1 0x1F ADD PUSH1 0x20 DUP1 SWAP2 DIV MUL PUSH1 0x20 ADD PUSH1 0x40 MLOAD SWAP1 DUP2 ADD PUSH1 0x40 MSTORE DUP1 SWAP3 SWAP2 SWAP1 DUP2 DUP2 MSTORE PUSH1 0x20 ADD DUP3 DUP1 SLOAD PUSH2 0x186 SWAP1 PUSH2 0xAA5 JUMP JUMPDEST DUP1 ISZERO PUSH2 0x1D1 JUMPI DUP1 PUSH1 0x1F LT PUSH2 0x1A8 JUMPI PUSH2 0x100 DUP1 DUP4 SLOAD DIV MUL DUP4 MSTORE SWAP2 PUSH1 0x20 ADD SWAP2 PUSH2 0x1D1 JUMP JUMPDEST DUP3 ADD SWAP2 SWAP1 PUSH0 MSTORE PUSH1 0x20 PUSH0 KECCAK256 SWAP1 JUMPDEST DUP2 SLOAD DUP2 MSTORE SWAP1 PUSH1 0x1 ADD SWAP1 PUSH1 0x20 ADD DUP1 DUP4 GT PUSH2 0x1B4 JUMPI DUP3 SWAP1 SUB PUSH1 0x1F AND DUP3 ADD SWAP2 JUMPDEST POP POP POP POP POP SWAP1 POP SWAP1 JUMP JUMPDEST PUSH0 PUSH1 0x4 PUSH0 CALLER PUSH20 0xFFFFFFFFFFFFFFFFFFFFFFFFFFFFFFFFFFFFFFFF AND PUSH20 0xFFFFFFFFFFFFFFFFFFFFFFFFFFFFFFFFFFFFFFFF AND DUP2 MSTORE PUSH1 0x20 ADD SWAP1 DUP2 MSTORE PUSH1 0x20 ADD PUSH0 KECCAK256 PUSH0 SWAP1 SLOAD SWAP1 PUSH2 0x100 EXP SWAP1 DIV PUSH1 0xFF AND ISZERO CALLER SWAP1 PUSH2 0x269 JUMPI PUSH1 0x40 MLOAD PUSH32 0xC4297FFB00000000000000000000000000000000000000000000000000000000 DUP2 MSTORE PUSH1 0x4 ADD PUSH2 0x260 SWAP2 SWAP1 PUSH2 0x92F JUMP JUMPDEST PUSH1 0x40 MLOAD DUP1 SWAP2 SUB SWAP1 REVERT JUMPDEST POP PUSH0 PUSH20 0xFFFFFFFFFFFFFFFFFFFFFFFFFFFFFFFFFFFFFFFF AND PUSH1 0x3 PUSH0 SWAP1 SLOAD SWAP1 PUSH2 0x100 EXP SWAP1 DIV PUSH20 0xFFFFFFFFFFFFFFFFFFFFFFFFFFFFFFFFFFFFFFFF AND PUSH20 0xFFFFFFFFFFFFFFFFFFFFFFFFFFFFFFFFFFFFFFFF AND EQ PUSH2 0x2F0 JUMPI PUSH1 0x40 MLOAD PUSH32 0x68A4EBCE00000000000000000000000000000000000000000000000000000000 DUP2 MSTORE PUSH1 0x4 ADD PUSH1 0x40 MLOAD DUP1 SWAP2 SUB SWAP1 REVERT JUMPDEST PUSH2 0x382 PUSH1 0x1 DUP1 SLOAD PUSH2 0x300 SWAP1 PUSH2 0xAA5 JUMP JUMPDEST DUP1 PUSH1 0x1F ADD PUSH1 0x20 DUP1 SWAP2 DIV MUL PUSH1 0x20 ADD PUSH1 0x40 MLOAD SWAP1 DUP2 ADD PUSH1 0x40 MSTORE DUP1 SWAP3 SWAP2 SWAP1 DUP2 DUP2 MSTORE PUSH1 0x20 ADD DUP3 DUP1 SLOAD PUSH2 0x32C SWAP1 PUSH2 0xAA5 JUMP JUMPDEST DUP1 ISZERO PUSH2 0x377 JUMPI DUP1 PUSH1 0x1F LT PUSH2 0x34E JUMPI PUSH2 0x100 DUP1 DUP4 SLOAD DIV MUL DUP4 MSTORE SWAP2 PUSH1 0x20 ADD SWAP2 PUSH2 0x377 JUMP JUMPDEST DUP3 ADD SWAP2 SWAP1 PUSH0 MSTORE PUSH1 0x20 PUSH0 KECCAK256 SWAP1 JUMPDEST DUP2 SLOAD DUP2 MSTORE SWAP1 PUSH1 0x1 ADD SWAP1 PUSH1 0x20 ADD DUP1 DUP4 GT PUSH2 0x35A JUMPI DUP3 SWAP1 SUB PUSH1 0x1F AND DUP3 ADD SWAP2 JUMPDEST POP POP POP POP POP DUP4 PUSH2 0x540 JUMP JUMPDEST ISZERO PUSH2 0x390 JUMPI PUSH1 0x1 SWAP1 POP PUSH2 0x394 JUMP JUMPDEST PUSH0 SWAP1 POP JUMPDEST SWAP2 SWAP1 POP JUMP JUMPDEST PUSH2 0x3A1 PUSH2 0x55A JUMP JUMPDEST PUSH2 0x3AA PUSH0 PUSH2 0x5E1 JUMP JUMPDEST JUMP JUMPDEST PUSH0 PUSH0 PUSH0 SWAP1 SLOAD SWAP1 PUSH2 0x100 EXP SWAP1 DIV PUSH20 0xFFFFFFFFFFFFFFFFFFFFFFFFFFFFFFFFFFFFFFFF AND SWAP1 POP SWAP1 JUMP JUMPDEST PUSH0 PUSH0 PUSH20 0xFFFFFFFFFFFFFFFFFFFFFFFFFFFFFFFFFFFFFFFF AND PUSH1 0x3 PUSH0 SWAP1 SLOAD SWAP1 PUSH2 0x100 EXP SWAP1 DIV PUSH20 0xFFFFFFFFFFFFFFFFFFFFFFFFFFFFFFFFFFFFFFFF AND PUSH20 0xFFFFFFFFFFFFFFFFFFFFFFFFFFFFFFFFFFFFFFFF AND SUB PUSH2 0x463 JUMPI PUSH1 0x40 MLOAD PUSH32 0x8C379A000000000000000000000000000000000000000000000000000000000 DUP2 MSTORE PUSH1 0x4 ADD PUSH2 0x45A SWAP1 PUSH2 0xB1F JUMP JUMPDEST PUSH1 0x40 MLOAD DUP1 SWAP2 SUB SWAP1 REVERT JUMPDEST PUSH1 0x3 PUSH0 SWAP1 SLOAD SWAP1 PUSH2 0x100 EXP SWAP1 DIV PUSH20 0xFFFFFFFFFFFFFFFFFFFFFFFFFFFFFFFFFFFFFFFF AND SWAP1 POP SWAP1 JUMP JUMPDEST PUSH2 0x492 PUSH2 0x55A JUMP JUMPDEST DUP4 DUP4 PUSH1 0x1 SWAP2 DUP3 PUSH2 0x4A3 SWAP3 SWAP2 SWAP1 PUSH2 0xCF0 JUMP JUMPDEST POP DUP2 DUP2 PUSH1 0x2 SWAP2 DUP3 PUSH2 0x4B5 SWAP3 SWAP2 SWAP1 PUSH2 0xCF0 JUMP JUMPDEST POP POP POP POP POP JUMP JUMPDEST PUSH2 0x4C4 PUSH2 0x55A JUMP JUMPDEST PUSH0 PUSH20 0xFFFFFFFFFFFFFFFFFFFFFFFFFFFFFFFFFFFFFFFF AND DUP2 PUSH20 0xFFFFFFFFFFFFFFFFFFFFFFFFFFFFFFFFFFFFFFFF AND SUB PUSH2 0x534 JUMPI PUSH0 PUSH1 0x40 MLOAD PUSH32 0x1E4FBDF700000000000000000000000000000000000000000000000000000000 DUP2 MSTORE PUSH1 0x4 ADD PUSH2 0x52B SWAP2 SWAP1 PUSH2 0x92F JUMP JUMPDEST PUSH1 0x40 MLOAD DUP1 SWAP2 SUB SWAP1 REVERT JUMPDEST PUSH2 0x53D DUP2 PUSH2 0x5E1 JUMP JUMPDEST POP JUMP JUMPDEST PUSH0 DUP2 DUP1 MLOAD SWAP1 PUSH1 0x20 ADD KECCAK256 DUP4 DUP1 MLOAD SWAP1 PUSH1 0x20 ADD KECCAK256 EQ SWAP1 POP SWAP3 SWAP2 POP POP JUMP JUMPDEST PUSH2 0x562 PUSH2 0x6A2 JUMP JUMPDEST PUSH20 0xFFFFFFFFFFFFFFFFFFFFFFFFFFFFFFFFFFFFFFFF AND PUSH2 0x580 PUSH2 0x3AC JUMP JUMPDEST PUSH20 0xFFFFFFFFFFFFFFFFFFFFFFFFFFFFFFFFFFFFFFFF AND EQ PUSH2 0x5DF JUMPI PUSH2 0x5A3 PUSH2 0x6A2 JUMP JUMPDEST PUSH1 0x40 MLOAD PUSH32 0x118CDAA700000000000000000000000000000000000000000000000000000000 DUP2 MSTORE PUSH1 0x4 ADD PUSH2 0x5D6 SWAP2 SWAP1 PUSH2 0x92F JUMP JUMPDEST PUSH1 0x40 MLOAD DUP1 SWAP2 SUB SWAP1 REVERT JUMPDEST JUMP JUMPDEST PUSH0 PUSH0 PUSH0 SWAP1 SLOAD SWAP1 PUSH2 0x100 EXP SWAP1 DIV PUSH20 0xFFFFFFFFFFFFFFFFFFFFFFFFFFFFFFFFFFFFFFFF AND SWAP1 POP DUP2 PUSH0 PUSH0 PUSH2 0x100 EXP DUP2 SLOAD DUP2 PUSH20 0xFFFFFFFFFFFFFFFFFFFFFFFFFFFFFFFFFFFFFFFF MUL NOT AND SWAP1 DUP4 PUSH20 0xFFFFFFFFFFFFFFFFFFFFFFFFFFFFFFFFFFFFFFFF AND MUL OR SWAP1 SSTORE POP DUP2 PUSH20 0xFFFFFFFFFFFFFFFFFFFFFFFFFFFFFFFFFFFFFFFF AND DUP2 PUSH20 0xFFFFFFFFFFFFFFFFFFFFFFFFFFFFFFFFFFFFFFFF AND PUSH32 0x8BE0079C531659141344CD1FD0A4F28419497F9722A3DAAFE3B4186F6B6457E0 PUSH1 0x40 MLOAD PUSH1 0x40 MLOAD DUP1 SWAP2 SUB SWAP1 LOG3 POP POP JUMP JUMPDEST PUSH0 CALLER SWAP1 POP SWAP1 JUMP JUMPDEST PUSH0 DUP2 MLOAD SWAP1 POP SWAP2 SWAP1 POP JUMP JUMPDEST PUSH0 DUP3 DUP3 MSTORE PUSH1 0x20 DUP3 ADD SWAP1 POP SWAP3 SWAP2 POP POP JUMP JUMPDEST DUP3 DUP2 DUP4 MCOPY PUSH0 DUP4 DUP4 ADD MSTORE POP POP POP JUMP JUMPDEST PUSH0 PUSH1 0x1F NOT PUSH1 0x1F DUP4 ADD AND SWAP1 POP SWAP2 SWAP1 POP JUMP JUMPDEST PUSH0 PUSH2 0x6EB DUP3 PUSH2 0x6A9 JUMP JUMPDEST PUSH2 0x6F5 DUP2 DUP6 PUSH2 0x6B3 JUMP JUMPDEST SWAP4 POP PUSH2 0x705 DUP2 DUP6 PUSH1 0x20 DUP7 ADD PUSH2 0x6C3 JUMP JUMPDEST PUSH2 0x70E DUP2 PUSH2 0x6D1 JUMP JUMPDEST DUP5 ADD SWAP2 POP POP SWAP3 SWAP2 POP POP JUMP JUMPDEST PUSH0 PUSH1 0x20 DUP3 ADD SWAP1 POP DUP2 DUP2 SUB PUSH0 DUP4 ADD MSTORE PUSH2 0x731 DUP2 DUP5 PUSH2 0x6E1 JUMP JUMPDEST SWAP1 POP SWAP3 SWAP2 POP POP JUMP JUMPDEST PUSH0 PUSH1 0x40 MLOAD SWAP1 POP SWAP1 JUMP JUMPDEST PUSH0 PUSH0 REVERT JUMPDEST PUSH0 PUSH0 REVERT JUMPDEST PUSH0 PUSH0 REVERT JUMPDEST PUSH0 PUSH0 REVERT JUMPDEST PUSH32 0x4E487B7100000000000000000000000000000000000000000000000000000000 PUSH0 MSTORE PUSH1 0x41 PUSH1 0x4 MSTORE PUSH1 0x24 PUSH0 REVERT JUMPDEST PUSH2 0x788 DUP3 PUSH2 0x6D1 JUMP JUMPDEST DUP2 ADD DUP2 DUP2 LT PUSH8 0xFFFFFFFFFFFFFFFF DUP3 GT OR ISZERO PUSH2 0x7A7 JUMPI PUSH2 0x7A6 PUSH2 0x752 JUMP JUMPDEST JUMPDEST DUP1 PUSH1 0x40 MSTORE POP POP POP JUMP JUMPDEST PUSH0 PUSH2 0x7B9 PUSH2 0x739 JUMP JUMPDEST SWAP1 POP PUSH2 0x7C5 DUP3 DUP3 PUSH2 0x77F JUMP JUMPDEST SWAP2 SWAP1 POP JUMP JUMPDEST PUSH0 PUSH8 0xFFFFFFFFFFFFFFFF DUP3 GT ISZERO PUSH2 0x7E4 JUMPI PUSH2 0x7E3 PUSH2 0x752 JUMP JUMPDEST JUMPDEST PUSH2 0x7ED DUP3 PUSH2 0x6D1 JUMP JUMPDEST SWAP1 POP PUSH1 0x20 DUP2 ADD SWAP1 POP SWAP2 SWAP1 POP JUMP JUMPDEST DUP3 DUP2 DUP4 CALLDATACOPY PUSH0 DUP4 DUP4 ADD MSTORE POP POP POP JUMP JUMPDEST PUSH0 PUSH2 0x81A PUSH2 0x815 DUP5 PUSH2 0x7CA JUMP JUMPDEST PUSH2 0x7B0 JUMP JUMPDEST SWAP1 POP DUP3 DUP2 MSTORE PUSH1 0x20 DUP2 ADD DUP5 DUP5 DUP5 ADD GT ISZERO PUSH2 0x836 JUMPI PUSH2 0x835 PUSH2 0x74E JUMP JUMPDEST JUMPDEST PUSH2 0x841 DUP5 DUP3 DUP6 PUSH2 0x7FA JUMP JUMPDEST POP SWAP4 SWAP3 POP POP POP JUMP JUMPDEST PUSH0 DUP3 PUSH1 0x1F DUP4 ADD SLT PUSH2 0x85D JUMPI PUSH2 0x85C PUSH2 0x74A JUMP JUMPDEST JUMPDEST DUP2 CALLDATALOAD PUSH2 0x86D DUP5 DUP3 PUSH1 0x20 DUP7 ADD PUSH2 0x808 JUMP JUMPDEST SWAP2 POP POP SWAP3 SWAP2 POP POP JUMP JUMPDEST PUSH0 PUSH1 0x20 DUP3 DUP5 SUB SLT ISZERO PUSH2 0x88B JUMPI PUSH2 0x88A PUSH2 0x742 JUMP JUMPDEST JUMPDEST PUSH0 DUP3 ADD CALLDATALOAD PUSH8 0xFFFFFFFFFFFFFFFF DUP2 GT ISZERO PUSH2 0x8A8 JUMPI PUSH2 0x8A7 PUSH2 0x746 JUMP JUMPDEST JUMPDEST PUSH2 0x8B4 DUP5 DUP3 DUP6 ADD PUSH2 0x849 JUMP JUMPDEST SWAP2 POP POP SWAP3 SWAP2 POP POP JUMP JUMPDEST PUSH0 DUP2 ISZERO ISZERO SWAP1 POP SWAP2 SWAP1 POP JUMP JUMPDEST PUSH2 0x8D1 DUP2 PUSH2 0x8BD JUMP JUMPDEST DUP3 MSTORE POP POP JUMP JUMPDEST PUSH0 PUSH1 0x20 DUP3 ADD SWAP1 POP PUSH2 0x8EA PUSH0 DUP4 ADD DUP5 PUSH2 0x8C8 JUMP JUMPDEST SWAP3 SWAP2 POP POP JUMP JUMPDEST PUSH0 PUSH20 0xFFFFFFFFFFFFFFFFFFFFFFFFFFFFFFFFFFFFFFFF DUP3 AND SWAP1 POP SWAP2 SWAP1 POP JUMP JUMPDEST PUSH0 PUSH2 0x919 DUP3 PUSH2 0x8F0 JUMP JUMPDEST SWAP1 POP SWAP2 SWAP1 POP JUMP JUMPDEST PUSH2 0x929 DUP2 PUSH2 0x90F JUMP JUMPDEST DUP3 MSTORE POP POP JUMP JUMPDEST PUSH0 PUSH1 0x20 DUP3 ADD SWAP1 POP PUSH2 0x942 PUSH0 DUP4 ADD DUP5 PUSH2 0x920 JUMP JUMPDEST SWAP3 SWAP2 POP POP JUMP JUMPDEST PUSH0 PUSH0 REVERT JUMPDEST PUSH0 PUSH0 REVERT JUMPDEST PUSH0 PUSH0 DUP4 PUSH1 0x1F DUP5 ADD SLT PUSH2 0x965 JUMPI PUSH2 0x964 PUSH2 0x74A JUMP JUMPDEST JUMPDEST DUP3 CALLDATALOAD SWAP1 POP PUSH8 0xFFFFFFFFFFFFFFFF DUP2 GT ISZERO PUSH2 0x982 JUMPI PUSH2 0x981 PUSH2 0x948 JUMP JUMPDEST JUMPDEST PUSH1 0x20 DUP4 ADD SWAP2 POP DUP4 PUSH1 0x1 DUP3 MUL DUP4 ADD GT ISZERO PUSH2 0x99E JUMPI PUSH2 0x99D PUSH2 0x94C JUMP JUMPDEST JUMPDEST SWAP3 POP SWAP3 SWAP1 POP JUMP JUMPDEST PUSH0 PUSH0 PUSH0 PUSH0 PUSH1 0x40 DUP6 DUP8 SUB SLT ISZERO PUSH2 0x9BD JUMPI PUSH2 0x9BC PUSH2 0x742 JUMP JUMPDEST JUMPDEST PUSH0 DUP6 ADD CALLDATALOAD PUSH8 0xFFFFFFFFFFFFFFFF DUP2 GT ISZERO PUSH2 0x9DA JUMPI PUSH2 0x9D9 PUSH2 0x746 JUMP JUMPDEST JUMPDEST PUSH2 0x9E6 DUP8 DUP3 DUP9 ADD PUSH2 0x950 JUMP JUMPDEST SWAP5 POP SWAP5 POP POP PUSH1 0x20 DUP6 ADD CALLDATALOAD PUSH8 0xFFFFFFFFFFFFFFFF DUP2 GT ISZERO PUSH2 0xA09 JUMPI PUSH2 0xA08 PUSH2 0x746 JUMP JUMPDEST JUMPDEST PUSH2 0xA15 DUP8 DUP3 DUP9 ADD PUSH2 0x950 JUMP JUMPDEST SWAP3 POP SWAP3 POP POP SWAP3 SWAP6 SWAP2 SWAP5 POP SWAP3 POP JUMP JUMPDEST PUSH2 0xA2C DUP2 PUSH2 0x90F JUMP JUMPDEST DUP2 EQ PUSH2 0xA36 JUMPI PUSH0 PUSH0 REVERT JUMPDEST POP JUMP JUMPDEST PUSH0 DUP2 CALLDATALOAD SWAP1 POP PUSH2 0xA47 DUP2 PUSH2 0xA23 JUMP JUMPDEST SWAP3 SWAP2 POP POP JUMP JUMPDEST PUSH0 PUSH1 0x20 DUP3 DUP5 SUB SLT ISZERO PUSH2 0xA62 JUMPI PUSH2 0xA61 PUSH2 0x742 JUMP JUMPDEST JUMPDEST PUSH0 PUSH2 0xA6F DUP5 DUP3 DUP6 ADD PUSH2 0xA39 JUMP JUMPDEST SWAP2 POP POP SWAP3 SWAP2 POP POP JUMP JUMPDEST PUSH32 0x4E487B7100000000000000000000000000000000000000000000000000000000 PUSH0 MSTORE PUSH1 0x22 PUSH1 0x4 MSTORE PUSH1 0x24 PUSH0 REVERT JUMPDEST PUSH0 PUSH1 0x2 DUP3 DIV SWAP1 POP PUSH1 0x1 DUP3 AND DUP1 PUSH2 0xABC JUMPI PUSH1 0x7F DUP3 AND SWAP2 POP JUMPDEST PUSH1 0x20 DUP3 LT DUP2 SUB PUSH2 0xACF JUMPI PUSH2 0xACE PUSH2 0xA78 JUMP JUMPDEST JUMPDEST POP SWAP2 SWAP1 POP JUMP JUMPDEST PUSH32 0x5468652077696E6E65722063616E6E6F74206265206164647265737320300000 PUSH0 DUP3 ADD MSTORE POP JUMP JUMPDEST PUSH0 PUSH2 0xB09 PUSH1 0x1E DUP4 PUSH2 0x6B3 JUMP JUMPDEST SWAP2 POP PUSH2 0xB14 DUP3 PUSH2 0xAD5 JUMP JUMPDEST PUSH1 0x20 DUP3 ADD SWAP1 POP SWAP2 SWAP1 POP JUMP JUMPDEST PUSH0 PUSH1 0x20 DUP3 ADD SWAP1 POP DUP2 DUP2 SUB PUSH0 DUP4 ADD MSTORE PUSH2 0xB36 DUP2 PUSH2 0xAFD JUMP JUMPDEST SWAP1 POP SWAP2 SWAP1 POP JUMP JUMPDEST PUSH0 DUP3 SWAP1 POP SWAP3 SWAP2 POP POP JUMP JUMPDEST PUSH0 DUP2 SWAP1 POP DUP2 PUSH0 MSTORE PUSH1 0x20 PUSH0 KECCAK256 SWAP1 POP SWAP2 SWAP1 POP JUMP JUMPDEST PUSH0 PUSH1 0x20 PUSH1 0x1F DUP4 ADD DIV SWAP1 POP SWAP2 SWAP1 POP JUMP JUMPDEST PUSH0 DUP3 DUP3 SHL SWAP1 POP SWAP3 SWAP2 POP POP JUMP JUMPDEST PUSH0 PUSH1 0x8 DUP4 MUL PUSH2 0xBA3 PUSH32 0xFFFFFFFFFFFFFFFFFFFFFFFFFFFFFFFFFFFFFFFFFFFFFFFFFFFFFFFFFFFFFFFF DUP3 PUSH2 0xB68 JUMP JUMPDEST PUSH2 0xBAD DUP7 DUP4 PUSH2 0xB68 JUMP JUMPDEST SWAP6 POP DUP1 NOT DUP5 AND SWAP4 POP DUP1 DUP7 AND DUP5 OR SWAP3 POP POP POP SWAP4 SWAP3 POP POP POP JUMP JUMPDEST PUSH0 DUP2 SWAP1 POP SWAP2 SWAP1 POP JUMP JUMPDEST PUSH0 DUP2 SWAP1 POP SWAP2 SWAP1 POP JUMP JUMPDEST PUSH0 PUSH2 0xBF1 PUSH2 0xBEC PUSH2 0xBE7 DUP5 PUSH2 0xBC5 JUMP JUMPDEST PUSH2 0xBCE JUMP JUMPDEST PUSH2 0xBC5 JUMP JUMPDEST SWAP1 POP SWAP2 SWAP1 POP JUMP JUMPDEST PUSH0 DUP2 SWAP1 POP SWAP2 SWAP1 POP JUMP JUMPDEST PUSH2 0xC0A DUP4 PUSH2 0xBD7 JUMP JUMPDEST PUSH2 0xC1E PUSH2 0xC16 DUP3 PUSH2 0xBF8 JUMP JUMPDEST DUP5 DUP5 SLOAD PUSH2 0xB74 JUMP JUMPDEST DUP3 SSTORE POP POP POP POP JUMP JUMPDEST PUSH0 PUSH0 SWAP1 POP SWAP1 JUMP JUMPDEST PUSH2 0xC35 PUSH2 0xC26 JUMP JUMPDEST PUSH2 0xC40 DUP2 DUP5 DUP5 PUSH2 0xC01 JUMP JUMPDEST POP POP POP JUMP JUMPDEST JUMPDEST DUP2 DUP2 LT ISZERO PUSH2 0xC63 JUMPI PUSH2 0xC58 PUSH0 DUP3 PUSH2 0xC2D JUMP JUMPDEST PUSH1 0x1 DUP2 ADD SWAP1 POP PUSH2 0xC46 JUMP JUMPDEST POP POP JUMP JUMPDEST PUSH1 0x1F DUP3 GT ISZERO PUSH2 0xCA8 JUMPI PUSH2 0xC79 DUP2 PUSH2 0xB47 JUMP JUMPDEST PUSH2 0xC82 DUP5 PUSH2 0xB59 JUMP JUMPDEST DUP2 ADD PUSH1 0x20 DUP6 LT ISZERO PUSH2 0xC91 JUMPI DUP2 SWAP1 POP JUMPDEST PUSH2 0xCA5 PUSH2 0xC9D DUP6 PUSH2 0xB59 JUMP JUMPDEST DUP4 ADD DUP3 PUSH2 0xC45 JUMP JUMPDEST POP POP JUMPDEST POP POP POP JUMP JUMPDEST PUSH0 DUP3 DUP3 SHR SWAP1 POP SWAP3 SWAP2 POP POP JUMP JUMPDEST PUSH0 PUSH2 0xCC8 PUSH0 NOT DUP5 PUSH1 0x8 MUL PUSH2 0xCAD JUMP JUMPDEST NOT DUP1 DUP4 AND SWAP2 POP POP SWAP3 SWAP2 POP POP JUMP JUMPDEST PUSH0 PUSH2 0xCE0 DUP4 DUP4 PUSH2 0xCB9 JUMP JUMPDEST SWAP2 POP DUP3 PUSH1 0x2 MUL DUP3 OR SWAP1 POP SWAP3 SWAP2 POP POP JUMP JUMPDEST PUSH2 0xCFA DUP4 DUP4 PUSH2 0xB3D JUMP JUMPDEST PUSH8 0xFFFFFFFFFFFFFFFF DUP2 GT ISZERO PUSH2 0xD13 JUMPI PUSH2 0xD12 PUSH2 0x752 JUMP JUMPDEST JUMPDEST PUSH2 0xD1D DUP3 SLOAD PUSH2 0xAA5 JUMP JUMPDEST PUSH2 0xD28 DUP3 DUP3 DUP6 PUSH2 0xC67 JUMP JUMPDEST PUSH0 PUSH1 0x1F DUP4 GT PUSH1 0x1 DUP2 EQ PUSH2 0xD55 JUMPI PUSH0 DUP5 ISZERO PUSH2 0xD43 JUMPI DUP3 DUP8 ADD CALLDATALOAD SWAP1 POP JUMPDEST PUSH2 0xD4D DUP6 DUP3 PUSH2 0xCD5 JUMP JUMPDEST DUP7 SSTORE POP PUSH2 0xDB4 JUMP JUMPDEST PUSH1 0x1F NOT DUP5 AND PUSH2 0xD63 DUP7 PUSH2 0xB47 JUMP JUMPDEST PUSH0 JUMPDEST DUP3 DUP2 LT ISZERO PUSH2 0xD8A JUMPI DUP5 DUP10 ADD CALLDATALOAD DUP3 SSTORE PUSH1 0x1 DUP3 ADD SWAP2 POP PUSH1 0x20 DUP6 ADD SWAP5 POP PUSH1 0x20 DUP2 ADD SWAP1 POP PUSH2 0xD65 JUMP JUMPDEST DUP7 DUP4 LT ISZERO PUSH2 0xDA7 JUMPI DUP5 DUP10 ADD CALLDATALOAD PUSH2 0xDA3 PUSH1 0x1F DUP10 AND DUP3 PUSH2 0xCB9 JUMP JUMPDEST DUP4 SSTORE POP JUMPDEST PUSH1 0x1 PUSH1 0x2 DUP9 MUL ADD DUP9 SSTORE POP POP POP JUMPDEST POP POP POP POP POP POP POP JUMP INVALID LOG2 PUSH5 0x6970667358 0x22 SLT KECCAK256 0xDD 0xD2 EQ 0xC0 CALLER CALLCODE 0xFB PC DUP15 BLOBBASEFEE DUP4 0x25 EXTCODECOPY 0x4E ADDMOD DUP4 SWAP4 0xDA 0xBA 0xE2 NOT MSTORE8 DUP10 0xCE 0x28 SLT PUSH8 0xD05FCAC19564736F PUSH13 0x634300081C0033000000000000 "
				},
				"gasEstimates": {
					"creation": {
						"codeDepositCost": "714200",
						"executionCost": "infinite",
						"totalCost": "infinite"
					},
					"external": {
						"getHint()": "infinite",
						"getWinner()": "4706",
						"guess(string)": "infinite",
						"owner()": "2514",
						"renounceOwnership()": "infinite",
						"setWordAndHint(string,string)": "infinite",
						"transferOwnership(address)": "infinite"
					},
					"internal": {
						"compareString(string memory,string memory)": "infinite"
					}
				},
				"methodIdentifiers": {
					"getHint()": "41225071",
					"getWinner()": "8e7ea5b2",
					"guess(string)": "4eee59b3",
					"owner()": "8da5cb5b",
					"renounceOwnership()": "715018a6",
					"setWordAndHint(string,string)": "b166eafe",
					"transferOwnership(address)": "f2fde38b"
				}
			},
			"storageLayout": {
				"storage": [
					{
						"astId": 8,
						"contract": "contracts/17_GuessToWinBen.sol:GuessToWinBen",
						"label": "_owner",
						"offset": 0,
						"slot": "0",
						"type": "t_address"
					},
					{
						"astId": 198,
						"contract": "contracts/17_GuessToWinBen.sol:GuessToWinBen",
						"label": "word",
						"offset": 0,
						"slot": "1",
						"type": "t_string_storage"
					},
					{
						"astId": 200,
						"contract": "contracts/17_GuessToWinBen.sol:GuessToWinBen",
						"label": "hint",
						"offset": 0,
						"slot": "2",
						"type": "t_string_storage"
					},
					{
						"astId": 202,
						"contract": "contracts/17_GuessToWinBen.sol:GuessToWinBen",
						"label": "winner",
						"offset": 0,
						"slot": "3",
						"type": "t_address"
					},
					{
						"astId": 206,
						"contract": "contracts/17_GuessToWinBen.sol:GuessToWinBen",
						"label": "hasPlayed",
						"offset": 0,
						"slot": "4",
						"type": "t_mapping(t_address,t_bool)"
					}
				],
				"types": {
					"t_address": {
						"encoding": "inplace",
						"label": "address",
						"numberOfBytes": "20"
					},
					"t_bool": {
						"encoding": "inplace",
						"label": "bool",
						"numberOfBytes": "1"
					},
					"t_mapping(t_address,t_bool)": {
						"encoding": "mapping",
						"key": "t_address",
						"label": "mapping(address => bool)",
						"numberOfBytes": "32",
						"value": "t_bool"
					},
					"t_string_storage": {
						"encoding": "bytes",
						"label": "string",
						"numberOfBytes": "32"
					}
				}
			},
			"userdoc": {
				"kind": "user",
				"methods": {},
				"version": 1
			}
		}
	}
}