{
	"contracts/4_People.sol": {
		"People": {
			"abi": [
				{
					"inputs": [
						{
							"internalType": "string",
							"name": "_name",
							"type": "string"
						},
						{
							"internalType": "uint8",
							"name": "_age",
							"type": "uint8"
						}
					],
					"name": "modifyPerson",
					"outputs": [],
					"stateMutability": "nonpayable",
					"type": "function"
				},
				{
					"inputs": [],
					"name": "moi",
					"outputs": [
						{
							"internalType": "string",
							"name": "name",
							"type": "string"
						},
						{
							"internalType": "uint8",
							"name": "age",
							"type": "uint8"
						}
					],
					"stateMutability": "view",
					"type": "function"
				},
				{
					"inputs": [
						{
							"internalType": "uint256",
							"name": "",
							"type": "uint256"
						}
					],
					"name": "persons",
					"outputs": [
						{
							"internalType": "string",
							"name": "name",
							"type": "string"
						},
						{
							"internalType": "uint8",
							"name": "age",
							"type": "uint8"
						}
					],
					"stateMutability": "view",
					"type": "function"
				}
			],
			"devdoc": {
				"kind": "dev",
				"methods": {},
				"version": 1
			},
			"evm": {
				"assembly": "    /* \"contracts/4_People.sol\":60:323  contract People {... */\n  mstore(0x40, 0x80)\n  callvalue\n  dup1\n  iszero\n  tag_1\n  jumpi\n  0x00\n  dup1\n  revert\ntag_1:\n  pop\n  dataSize(sub_0)\n  dup1\n  dataOffset(sub_0)\n  0x00\n  codecopy\n  0x00\n  return\nstop\n\nsub_0: assembly {\n        /* \"contracts/4_People.sol\":60:323  contract People {... */\n      mstore(0x40, 0x80)\n      callvalue\n      dup1\n      iszero\n      tag_1\n      jumpi\n      0x00\n      dup1\n      revert\n    tag_1:\n      pop\n      jumpi(tag_2, lt(calldatasize, 0x04))\n      shr(0xe0, calldataload(0x00))\n      dup1\n      0x49d812b2\n      eq\n      tag_3\n      jumpi\n      dup1\n      0x90736130\n      eq\n      tag_4\n      jumpi\n      dup1\n      0xa2f9eac6\n      eq\n      tag_5\n      jumpi\n    tag_2:\n      0x00\n      dup1\n      revert\n        /* \"contracts/4_People.sol\":213:320  function modifyPerson (string memory _name, uint8 _age) public {... */\n    tag_3:\n      tag_6\n      0x04\n      dup1\n      calldatasize\n      sub\n      dup2\n      add\n      swap1\n      tag_7\n      swap2\n      swap1\n      tag_8\n      jump\t// in\n    tag_7:\n      tag_9\n      jump\t// in\n    tag_6:\n      stop\n        /* \"contracts/4_People.sol\":155:172  Person public moi */\n    tag_4:\n      tag_10\n      tag_11\n      jump\t// in\n    tag_10:\n      mload(0x40)\n      tag_12\n      swap3\n      swap2\n      swap1\n      tag_13\n      jump\t// in\n    tag_12:\n      mload(0x40)\n      dup1\n      swap2\n      sub\n      swap1\n      return\n        /* \"contracts/4_People.sol\":181:204  Person[] public persons */\n    tag_5:\n      tag_14\n      0x04\n      dup1\n      calldatasize\n      sub\n      dup2\n      add\n      swap1\n      tag_15\n      swap2\n      swap1\n      tag_16\n      jump\t// in\n    tag_15:\n      tag_17\n      jump\t// in\n    tag_14:\n      mload(0x40)\n      tag_18\n      swap3\n      swap2\n      swap1\n      tag_13\n      jump\t// in\n    tag_18:\n      mload(0x40)\n      dup1\n      swap2\n      sub\n      swap1\n      return\n        /* \"contracts/4_People.sol\":213:320  function modifyPerson (string memory _name, uint8 _age) public {... */\n    tag_9:\n        /* \"contracts/4_People.sol\":293:312  Person(_name, _age) */\n      mload(0x40)\n      dup1\n      0x40\n      add\n      0x40\n      mstore\n      dup1\n        /* \"contracts/4_People.sol\":300:305  _name */\n      dup4\n        /* \"contracts/4_People.sol\":293:312  Person(_name, _age) */\n      dup2\n      mstore\n      0x20\n      add\n        /* \"contracts/4_People.sol\":307:311  _age */\n      dup3\n        /* \"contracts/4_People.sol\":293:312  Person(_name, _age) */\n      0xff\n      and\n      dup2\n      mstore\n      pop\n        /* \"contracts/4_People.sol\":287:290  moi */\n      0x00\n        /* \"contracts/4_People.sol\":287:312  moi = Person(_name, _age) */\n      dup1\n      dup3\n      add\n      mload\n      dup2\n      0x00\n      add\n      swap1\n      dup2\n      tag_20\n      swap2\n      swap1\n      tag_21\n      jump\t// in\n    tag_20:\n      pop\n      0x20\n      dup3\n      add\n      mload\n      dup2\n      0x01\n      add\n      exp(0x0100, 0x00)\n      dup2\n      sload\n      dup2\n      0xff\n      mul\n      not\n      and\n      swap1\n      dup4\n      0xff\n      and\n      mul\n      or\n      swap1\n      sstore\n      pop\n      swap1\n      pop\n      pop\n        /* \"contracts/4_People.sol\":213:320  function modifyPerson (string memory _name, uint8 _age) public {... */\n      pop\n      pop\n      jump\t// out\n        /* \"contracts/4_People.sol\":155:172  Person public moi */\n    tag_11:\n      0x00\n      dup1\n      0x00\n      add\n      dup1\n      sload\n      tag_22\n      swap1\n      tag_23\n      jump\t// in\n    tag_22:\n      dup1\n      0x1f\n      add\n      0x20\n      dup1\n      swap2\n      div\n      mul\n      0x20\n      add\n      mload(0x40)\n      swap1\n      dup2\n      add\n      0x40\n      mstore\n      dup1\n      swap3\n      swap2\n      swap1\n      dup2\n      dup2\n      mstore\n      0x20\n      add\n      dup3\n      dup1\n      sload\n      tag_24\n      swap1\n      tag_23\n      jump\t// in\n    tag_24:\n      dup1\n      iszero\n      tag_25\n      jumpi\n      dup1\n      0x1f\n      lt\n      tag_26\n      jumpi\n      0x0100\n      dup1\n      dup4\n      sload\n      div\n      mul\n      dup4\n      mstore\n      swap2\n      0x20\n      add\n      swap2\n      jump(tag_25)\n    tag_26:\n      dup3\n      add\n      swap2\n      swap1\n      0x00\n      mstore\n      keccak256(0x00, 0x20)\n      swap1\n    tag_27:\n      dup2\n      sload\n      dup2\n      mstore\n      swap1\n      0x01\n      add\n      swap1\n      0x20\n      add\n      dup1\n      dup4\n      gt\n      tag_27\n      jumpi\n      dup3\n      swap1\n      sub\n      0x1f\n      and\n      dup3\n      add\n      swap2\n    tag_25:\n      pop\n      pop\n      pop\n      pop\n      pop\n      swap1\n      dup1\n      0x01\n      add\n      0x00\n      swap1\n      sload\n      swap1\n      0x0100\n      exp\n      swap1\n      div\n      0xff\n      and\n      swap1\n      pop\n      dup3\n      jump\t// out\n        /* \"contracts/4_People.sol\":181:204  Person[] public persons */\n    tag_17:\n      0x02\n      dup2\n      dup2\n      sload\n      dup2\n      lt\n      tag_28\n      jumpi\n      0x00\n      dup1\n      revert\n    tag_28:\n      swap1\n      0x00\n      mstore\n      keccak256(0x00, 0x20)\n      swap1\n      0x02\n      mul\n      add\n      0x00\n      swap2\n      pop\n      swap1\n      pop\n      dup1\n      0x00\n      add\n      dup1\n      sload\n      tag_30\n      swap1\n      tag_23\n      jump\t// in\n    tag_30:\n      dup1\n      0x1f\n      add\n      0x20\n      dup1\n      swap2\n      div\n      mul\n      0x20\n      add\n      mload(0x40)\n      swap1\n      dup2\n      add\n      0x40\n      mstore\n      dup1\n      swap3\n      swap2\n      swap1\n      dup2\n      dup2\n      mstore\n      0x20\n      add\n      dup3\n      dup1\n      sload\n      tag_31\n      swap1\n      tag_23\n      jump\t// in\n    tag_31:\n      dup1\n      iszero\n      tag_32\n      jumpi\n      dup1\n      0x1f\n      lt\n      tag_33\n      jumpi\n      0x0100\n      dup1\n      dup4\n      sload\n      div\n      mul\n      dup4\n      mstore\n      swap2\n      0x20\n      add\n      swap2\n      jump(tag_32)\n    tag_33:\n      dup3\n      add\n      swap2\n      swap1\n      0x00\n      mstore\n      keccak256(0x00, 0x20)\n      swap1\n    tag_34:\n      dup2\n      sload\n      dup2\n      mstore\n      swap1\n      0x01\n      add\n      swap1\n      0x20\n      add\n      dup1\n      dup4\n      gt\n      tag_34\n      jumpi\n      dup3\n      swap1\n      sub\n      0x1f\n      and\n      dup3\n      add\n      swap2\n    tag_32:\n      pop\n      pop\n      pop\n      pop\n      pop\n      swap1\n      dup1\n      0x01\n      add\n      0x00\n      swap1\n      sload\n      swap1\n      0x0100\n      exp\n      swap1\n      div\n      0xff\n      and\n      swap1\n      pop\n      dup3\n      jump\t// out\n        /* \"#utility.yul\":7:82   */\n    tag_35:\n        /* \"#utility.yul\":40:46   */\n      0x00\n        /* \"#utility.yul\":73:75   */\n      0x40\n        /* \"#utility.yul\":67:76   */\n      mload\n        /* \"#utility.yul\":57:76   */\n      swap1\n      pop\n        /* \"#utility.yul\":7:82   */\n      swap1\n      jump\t// out\n        /* \"#utility.yul\":88:205   */\n    tag_36:\n        /* \"#utility.yul\":197:198   */\n      0x00\n        /* \"#utility.yul\":194:195   */\n      dup1\n        /* \"#utility.yul\":187:199   */\n      revert\n        /* \"#utility.yul\":211:328   */\n    tag_37:\n        /* \"#utility.yul\":320:321   */\n      0x00\n        /* \"#utility.yul\":317:318   */\n      dup1\n        /* \"#utility.yul\":310:322   */\n      revert\n        /* \"#utility.yul\":334:451   */\n    tag_38:\n        /* \"#utility.yul\":443:444   */\n      0x00\n        /* \"#utility.yul\":440:441   */\n      dup1\n        /* \"#utility.yul\":433:445   */\n      revert\n        /* \"#utility.yul\":457:574   */\n    tag_39:\n        /* \"#utility.yul\":566:567   */\n      0x00\n        /* \"#utility.yul\":563:564   */\n      dup1\n        /* \"#utility.yul\":556:568   */\n      revert\n        /* \"#utility.yul\":580:682   */\n    tag_40:\n        /* \"#utility.yul\":621:627   */\n      0x00\n        /* \"#utility.yul\":672:674   */\n      0x1f\n        /* \"#utility.yul\":668:675   */\n      not\n        /* \"#utility.yul\":663:665   */\n      0x1f\n        /* \"#utility.yul\":656:661   */\n      dup4\n        /* \"#utility.yul\":652:666   */\n      add\n        /* \"#utility.yul\":648:676   */\n      and\n        /* \"#utility.yul\":638:676   */\n      swap1\n      pop\n        /* \"#utility.yul\":580:682   */\n      swap2\n      swap1\n      pop\n      jump\t// out\n        /* \"#utility.yul\":688:868   */\n    tag_41:\n        /* \"#utility.yul\":736:813   */\n      0x4e487b7100000000000000000000000000000000000000000000000000000000\n        /* \"#utility.yul\":733:734   */\n      0x00\n        /* \"#utility.yul\":726:814   */\n      mstore\n        /* \"#utility.yul\":833:837   */\n      0x41\n        /* \"#utility.yul\":830:831   */\n      0x04\n        /* \"#utility.yul\":823:838   */\n      mstore\n        /* \"#utility.yul\":857:861   */\n      0x24\n        /* \"#utility.yul\":854:855   */\n      0x00\n        /* \"#utility.yul\":847:862   */\n      revert\n        /* \"#utility.yul\":874:1155   */\n    tag_42:\n        /* \"#utility.yul\":957:984   */\n      tag_84\n        /* \"#utility.yul\":979:983   */\n      dup3\n        /* \"#utility.yul\":957:984   */\n      tag_40\n      jump\t// in\n    tag_84:\n        /* \"#utility.yul\":949:955   */\n      dup2\n        /* \"#utility.yul\":945:985   */\n      add\n        /* \"#utility.yul\":1087:1093   */\n      dup2\n        /* \"#utility.yul\":1075:1085   */\n      dup2\n        /* \"#utility.yul\":1072:1094   */\n      lt\n        /* \"#utility.yul\":1051:1069   */\n      0xffffffffffffffff\n        /* \"#utility.yul\":1039:1049   */\n      dup3\n        /* \"#utility.yul\":1036:1070   */\n      gt\n        /* \"#utility.yul\":1033:1095   */\n      or\n        /* \"#utility.yul\":1030:1118   */\n      iszero\n      tag_85\n      jumpi\n        /* \"#utility.yul\":1098:1116   */\n      tag_86\n      tag_41\n      jump\t// in\n    tag_86:\n        /* \"#utility.yul\":1030:1118   */\n    tag_85:\n        /* \"#utility.yul\":1138:1148   */\n      dup1\n        /* \"#utility.yul\":1134:1136   */\n      0x40\n        /* \"#utility.yul\":1127:1149   */\n      mstore\n        /* \"#utility.yul\":917:1155   */\n      pop\n        /* \"#utility.yul\":874:1155   */\n      pop\n      pop\n      jump\t// out\n        /* \"#utility.yul\":1161:1290   */\n    tag_43:\n        /* \"#utility.yul\":1195:1201   */\n      0x00\n        /* \"#utility.yul\":1222:1242   */\n      tag_88\n      tag_35\n      jump\t// in\n    tag_88:\n        /* \"#utility.yul\":1212:1242   */\n      swap1\n      pop\n        /* \"#utility.yul\":1251:1284   */\n      tag_89\n        /* \"#utility.yul\":1279:1283   */\n      dup3\n        /* \"#utility.yul\":1271:1277   */\n      dup3\n        /* \"#utility.yul\":1251:1284   */\n      tag_42\n      jump\t// in\n    tag_89:\n        /* \"#utility.yul\":1161:1290   */\n      swap2\n      swap1\n      pop\n      jump\t// out\n        /* \"#utility.yul\":1296:1604   */\n    tag_44:\n        /* \"#utility.yul\":1358:1362   */\n      0x00\n        /* \"#utility.yul\":1448:1466   */\n      0xffffffffffffffff\n        /* \"#utility.yul\":1440:1446   */\n      dup3\n        /* \"#utility.yul\":1437:1467   */\n      gt\n        /* \"#utility.yul\":1434:1490   */\n      iszero\n      tag_91\n      jumpi\n        /* \"#utility.yul\":1470:1488   */\n      tag_92\n      tag_41\n      jump\t// in\n    tag_92:\n        /* \"#utility.yul\":1434:1490   */\n    tag_91:\n        /* \"#utility.yul\":1508:1537   */\n      tag_93\n        /* \"#utility.yul\":1530:1536   */\n      dup3\n        /* \"#utility.yul\":1508:1537   */\n      tag_40\n      jump\t// in\n    tag_93:\n        /* \"#utility.yul\":1500:1537   */\n      swap1\n      pop\n        /* \"#utility.yul\":1592:1596   */\n      0x20\n        /* \"#utility.yul\":1586:1590   */\n      dup2\n        /* \"#utility.yul\":1582:1597   */\n      add\n        /* \"#utility.yul\":1574:1597   */\n      swap1\n      pop\n        /* \"#utility.yul\":1296:1604   */\n      swap2\n      swap1\n      pop\n      jump\t// out\n        /* \"#utility.yul\":1610:1758   */\n    tag_45:\n        /* \"#utility.yul\":1708:1714   */\n      dup3\n        /* \"#utility.yul\":1703:1706   */\n      dup2\n        /* \"#utility.yul\":1698:1701   */\n      dup4\n        /* \"#utility.yul\":1685:1715   */\n      calldatacopy\n        /* \"#utility.yul\":1749:1750   */\n      0x00\n        /* \"#utility.yul\":1740:1746   */\n      dup4\n        /* \"#utility.yul\":1735:1738   */\n      dup4\n        /* \"#utility.yul\":1731:1747   */\n      add\n        /* \"#utility.yul\":1724:1751   */\n      mstore\n        /* \"#utility.yul\":1610:1758   */\n      pop\n      pop\n      pop\n      jump\t// out\n        /* \"#utility.yul\":1764:2189   */\n    tag_46:\n        /* \"#utility.yul\":1842:1847   */\n      0x00\n        /* \"#utility.yul\":1867:1933   */\n      tag_96\n        /* \"#utility.yul\":1883:1932   */\n      tag_97\n        /* \"#utility.yul\":1925:1931   */\n      dup5\n        /* \"#utility.yul\":1883:1932   */\n      tag_44\n      jump\t// in\n    tag_97:\n        /* \"#utility.yul\":1867:1933   */\n      tag_43\n      jump\t// in\n    tag_96:\n        /* \"#utility.yul\":1858:1933   */\n      swap1\n      pop\n        /* \"#utility.yul\":1956:1962   */\n      dup3\n        /* \"#utility.yul\":1949:1954   */\n      dup2\n        /* \"#utility.yul\":1942:1963   */\n      mstore\n        /* \"#utility.yul\":1994:1998   */\n      0x20\n        /* \"#utility.yul\":1987:1992   */\n      dup2\n        /* \"#utility.yul\":1983:1999   */\n      add\n        /* \"#utility.yul\":2032:2035   */\n      dup5\n        /* \"#utility.yul\":2023:2029   */\n      dup5\n        /* \"#utility.yul\":2018:2021   */\n      dup5\n        /* \"#utility.yul\":2014:2030   */\n      add\n        /* \"#utility.yul\":2011:2036   */\n      gt\n        /* \"#utility.yul\":2008:2120   */\n      iszero\n      tag_98\n      jumpi\n        /* \"#utility.yul\":2039:2118   */\n      tag_99\n      tag_39\n      jump\t// in\n    tag_99:\n        /* \"#utility.yul\":2008:2120   */\n    tag_98:\n        /* \"#utility.yul\":2129:2183   */\n      tag_100\n        /* \"#utility.yul\":2176:2182   */\n      dup5\n        /* \"#utility.yul\":2171:2174   */\n      dup3\n        /* \"#utility.yul\":2166:2169   */\n      dup6\n        /* \"#utility.yul\":2129:2183   */\n      tag_45\n      jump\t// in\n    tag_100:\n        /* \"#utility.yul\":1848:2189   */\n      pop\n        /* \"#utility.yul\":1764:2189   */\n      swap4\n      swap3\n      pop\n      pop\n      pop\n      jump\t// out\n        /* \"#utility.yul\":2209:2549   */\n    tag_47:\n        /* \"#utility.yul\":2265:2270   */\n      0x00\n        /* \"#utility.yul\":2314:2317   */\n      dup3\n        /* \"#utility.yul\":2307:2311   */\n      0x1f\n        /* \"#utility.yul\":2299:2305   */\n      dup4\n        /* \"#utility.yul\":2295:2312   */\n      add\n        /* \"#utility.yul\":2291:2318   */\n      slt\n        /* \"#utility.yul\":2281:2403   */\n      tag_102\n      jumpi\n        /* \"#utility.yul\":2322:2401   */\n      tag_103\n      tag_38\n      jump\t// in\n    tag_103:\n        /* \"#utility.yul\":2281:2403   */\n    tag_102:\n        /* \"#utility.yul\":2439:2445   */\n      dup2\n        /* \"#utility.yul\":2426:2446   */\n      calldataload\n        /* \"#utility.yul\":2464:2543   */\n      tag_104\n        /* \"#utility.yul\":2539:2542   */\n      dup5\n        /* \"#utility.yul\":2531:2537   */\n      dup3\n        /* \"#utility.yul\":2524:2528   */\n      0x20\n        /* \"#utility.yul\":2516:2522   */\n      dup7\n        /* \"#utility.yul\":2512:2529   */\n      add\n        /* \"#utility.yul\":2464:2543   */\n      tag_46\n      jump\t// in\n    tag_104:\n        /* \"#utility.yul\":2455:2543   */\n      swap2\n      pop\n        /* \"#utility.yul\":2271:2549   */\n      pop\n        /* \"#utility.yul\":2209:2549   */\n      swap3\n      swap2\n      pop\n      pop\n      jump\t// out\n        /* \"#utility.yul\":2555:2641   */\n    tag_48:\n        /* \"#utility.yul\":2590:2597   */\n      0x00\n        /* \"#utility.yul\":2630:2634   */\n      0xff\n        /* \"#utility.yul\":2623:2628   */\n      dup3\n        /* \"#utility.yul\":2619:2635   */\n      and\n        /* \"#utility.yul\":2608:2635   */\n      swap1\n      pop\n        /* \"#utility.yul\":2555:2641   */\n      swap2\n      swap1\n      pop\n      jump\t// out\n        /* \"#utility.yul\":2647:2765   */\n    tag_49:\n        /* \"#utility.yul\":2718:2740   */\n      tag_107\n        /* \"#utility.yul\":2734:2739   */\n      dup2\n        /* \"#utility.yul\":2718:2740   */\n      tag_48\n      jump\t// in\n    tag_107:\n        /* \"#utility.yul\":2711:2716   */\n      dup2\n        /* \"#utility.yul\":2708:2741   */\n      eq\n        /* \"#utility.yul\":2698:2759   */\n      tag_108\n      jumpi\n        /* \"#utility.yul\":2755:2756   */\n      0x00\n        /* \"#utility.yul\":2752:2753   */\n      dup1\n        /* \"#utility.yul\":2745:2757   */\n      revert\n        /* \"#utility.yul\":2698:2759   */\n    tag_108:\n        /* \"#utility.yul\":2647:2765   */\n      pop\n      jump\t// out\n        /* \"#utility.yul\":2771:2906   */\n    tag_50:\n        /* \"#utility.yul\":2815:2820   */\n      0x00\n        /* \"#utility.yul\":2853:2859   */\n      dup2\n        /* \"#utility.yul\":2840:2860   */\n      calldataload\n        /* \"#utility.yul\":2831:2860   */\n      swap1\n      pop\n        /* \"#utility.yul\":2869:2900   */\n      tag_110\n        /* \"#utility.yul\":2894:2899   */\n      dup2\n        /* \"#utility.yul\":2869:2900   */\n      tag_49\n      jump\t// in\n    tag_110:\n        /* \"#utility.yul\":2771:2906   */\n      swap3\n      swap2\n      pop\n      pop\n      jump\t// out\n        /* \"#utility.yul\":2912:3562   */\n    tag_8:\n        /* \"#utility.yul\":2988:2994   */\n      0x00\n        /* \"#utility.yul\":2996:3002   */\n      dup1\n        /* \"#utility.yul\":3045:3047   */\n      0x40\n        /* \"#utility.yul\":3033:3042   */\n      dup4\n        /* \"#utility.yul\":3024:3031   */\n      dup6\n        /* \"#utility.yul\":3020:3043   */\n      sub\n        /* \"#utility.yul\":3016:3048   */\n      slt\n        /* \"#utility.yul\":3013:3132   */\n      iszero\n      tag_112\n      jumpi\n        /* \"#utility.yul\":3051:3130   */\n      tag_113\n      tag_36\n      jump\t// in\n    tag_113:\n        /* \"#utility.yul\":3013:3132   */\n    tag_112:\n        /* \"#utility.yul\":3199:3200   */\n      0x00\n        /* \"#utility.yul\":3188:3197   */\n      dup4\n        /* \"#utility.yul\":3184:3201   */\n      add\n        /* \"#utility.yul\":3171:3202   */\n      calldataload\n        /* \"#utility.yul\":3229:3247   */\n      0xffffffffffffffff\n        /* \"#utility.yul\":3221:3227   */\n      dup2\n        /* \"#utility.yul\":3218:3248   */\n      gt\n        /* \"#utility.yul\":3215:3332   */\n      iszero\n      tag_114\n      jumpi\n        /* \"#utility.yul\":3251:3330   */\n      tag_115\n      tag_37\n      jump\t// in\n    tag_115:\n        /* \"#utility.yul\":3215:3332   */\n    tag_114:\n        /* \"#utility.yul\":3356:3419   */\n      tag_116\n        /* \"#utility.yul\":3411:3418   */\n      dup6\n        /* \"#utility.yul\":3402:3408   */\n      dup3\n        /* \"#utility.yul\":3391:3400   */\n      dup7\n        /* \"#utility.yul\":3387:3409   */\n      add\n        /* \"#utility.yul\":3356:3419   */\n      tag_47\n      jump\t// in\n    tag_116:\n        /* \"#utility.yul\":3346:3419   */\n      swap3\n      pop\n        /* \"#utility.yul\":3142:3429   */\n      pop\n        /* \"#utility.yul\":3468:3470   */\n      0x20\n        /* \"#utility.yul\":3494:3545   */\n      tag_117\n        /* \"#utility.yul\":3537:3544   */\n      dup6\n        /* \"#utility.yul\":3528:3534   */\n      dup3\n        /* \"#utility.yul\":3517:3526   */\n      dup7\n        /* \"#utility.yul\":3513:3535   */\n      add\n        /* \"#utility.yul\":3494:3545   */\n      tag_50\n      jump\t// in\n    tag_117:\n        /* \"#utility.yul\":3484:3545   */\n      swap2\n      pop\n        /* \"#utility.yul\":3439:3555   */\n      pop\n        /* \"#utility.yul\":2912:3562   */\n      swap3\n      pop\n      swap3\n      swap1\n      pop\n      jump\t// out\n        /* \"#utility.yul\":3568:3667   */\n    tag_51:\n        /* \"#utility.yul\":3620:3626   */\n      0x00\n        /* \"#utility.yul\":3654:3659   */\n      dup2\n        /* \"#utility.yul\":3648:3660   */\n      mload\n        /* \"#utility.yul\":3638:3660   */\n      swap1\n      pop\n        /* \"#utility.yul\":3568:3667   */\n      swap2\n      swap1\n      pop\n      jump\t// out\n        /* \"#utility.yul\":3673:3842   */\n    tag_52:\n        /* \"#utility.yul\":3757:3768   */\n      0x00\n        /* \"#utility.yul\":3791:3797   */\n      dup3\n        /* \"#utility.yul\":3786:3789   */\n      dup3\n        /* \"#utility.yul\":3779:3798   */\n      mstore\n        /* \"#utility.yul\":3831:3835   */\n      0x20\n        /* \"#utility.yul\":3826:3829   */\n      dup3\n        /* \"#utility.yul\":3822:3836   */\n      add\n        /* \"#utility.yul\":3807:3836   */\n      swap1\n      pop\n        /* \"#utility.yul\":3673:3842   */\n      swap3\n      swap2\n      pop\n      pop\n      jump\t// out\n        /* \"#utility.yul\":3848:3987   */\n    tag_53:\n        /* \"#utility.yul\":3937:3943   */\n      dup3\n        /* \"#utility.yul\":3932:3935   */\n      dup2\n        /* \"#utility.yul\":3927:3930   */\n      dup4\n        /* \"#utility.yul\":3921:3944   */\n      mcopy\n        /* \"#utility.yul\":3978:3979   */\n      0x00\n        /* \"#utility.yul\":3969:3975   */\n      dup4\n        /* \"#utility.yul\":3964:3967   */\n      dup4\n        /* \"#utility.yul\":3960:3976   */\n      add\n        /* \"#utility.yul\":3953:3980   */\n      mstore\n        /* \"#utility.yul\":3848:3987   */\n      pop\n      pop\n      pop\n      jump\t// out\n        /* \"#utility.yul\":3993:4370   */\n    tag_54:\n        /* \"#utility.yul\":4081:4084   */\n      0x00\n        /* \"#utility.yul\":4109:4148   */\n      tag_122\n        /* \"#utility.yul\":4142:4147   */\n      dup3\n        /* \"#utility.yul\":4109:4148   */\n      tag_51\n      jump\t// in\n    tag_122:\n        /* \"#utility.yul\":4164:4235   */\n      tag_123\n        /* \"#utility.yul\":4228:4234   */\n      dup2\n        /* \"#utility.yul\":4223:4226   */\n      dup6\n        /* \"#utility.yul\":4164:4235   */\n      tag_52\n      jump\t// in\n    tag_123:\n        /* \"#utility.yul\":4157:4235   */\n      swap4\n      pop\n        /* \"#utility.yul\":4244:4309   */\n      tag_124\n        /* \"#utility.yul\":4302:4308   */\n      dup2\n        /* \"#utility.yul\":4297:4300   */\n      dup6\n        /* \"#utility.yul\":4290:4294   */\n      0x20\n        /* \"#utility.yul\":4283:4288   */\n      dup7\n        /* \"#utility.yul\":4279:4295   */\n      add\n        /* \"#utility.yul\":4244:4309   */\n      tag_53\n      jump\t// in\n    tag_124:\n        /* \"#utility.yul\":4334:4363   */\n      tag_125\n        /* \"#utility.yul\":4356:4362   */\n      dup2\n        /* \"#utility.yul\":4334:4363   */\n      tag_40\n      jump\t// in\n    tag_125:\n        /* \"#utility.yul\":4329:4332   */\n      dup5\n        /* \"#utility.yul\":4325:4364   */\n      add\n        /* \"#utility.yul\":4318:4364   */\n      swap2\n      pop\n        /* \"#utility.yul\":4085:4370   */\n      pop\n        /* \"#utility.yul\":3993:4370   */\n      swap3\n      swap2\n      pop\n      pop\n      jump\t// out\n        /* \"#utility.yul\":4376:4488   */\n    tag_55:\n        /* \"#utility.yul\":4459:4481   */\n      tag_127\n        /* \"#utility.yul\":4475:4480   */\n      dup2\n        /* \"#utility.yul\":4459:4481   */\n      tag_48\n      jump\t// in\n    tag_127:\n        /* \"#utility.yul\":4454:4457   */\n      dup3\n        /* \"#utility.yul\":4447:4482   */\n      mstore\n        /* \"#utility.yul\":4376:4488   */\n      pop\n      pop\n      jump\t// out\n        /* \"#utility.yul\":4494:4909   */\n    tag_13:\n        /* \"#utility.yul\":4631:4635   */\n      0x00\n        /* \"#utility.yul\":4669:4671   */\n      0x40\n        /* \"#utility.yul\":4658:4667   */\n      dup3\n        /* \"#utility.yul\":4654:4672   */\n      add\n        /* \"#utility.yul\":4646:4672   */\n      swap1\n      pop\n        /* \"#utility.yul\":4718:4727   */\n      dup2\n        /* \"#utility.yul\":4712:4716   */\n      dup2\n        /* \"#utility.yul\":4708:4728   */\n      sub\n        /* \"#utility.yul\":4704:4705   */\n      0x00\n        /* \"#utility.yul\":4693:4702   */\n      dup4\n        /* \"#utility.yul\":4689:4706   */\n      add\n        /* \"#utility.yul\":4682:4729   */\n      mstore\n        /* \"#utility.yul\":4746:4824   */\n      tag_129\n        /* \"#utility.yul\":4819:4823   */\n      dup2\n        /* \"#utility.yul\":4810:4816   */\n      dup6\n        /* \"#utility.yul\":4746:4824   */\n      tag_54\n      jump\t// in\n    tag_129:\n        /* \"#utility.yul\":4738:4824   */\n      swap1\n      pop\n        /* \"#utility.yul\":4834:4902   */\n      tag_130\n        /* \"#utility.yul\":4898:4900   */\n      0x20\n        /* \"#utility.yul\":4887:4896   */\n      dup4\n        /* \"#utility.yul\":4883:4901   */\n      add\n        /* \"#utility.yul\":4874:4880   */\n      dup5\n        /* \"#utility.yul\":4834:4902   */\n      tag_55\n      jump\t// in\n    tag_130:\n        /* \"#utility.yul\":4494:4909   */\n      swap4\n      swap3\n      pop\n      pop\n      pop\n      jump\t// out\n        /* \"#utility.yul\":4915:4992   */\n    tag_56:\n        /* \"#utility.yul\":4952:4959   */\n      0x00\n        /* \"#utility.yul\":4981:4986   */\n      dup2\n        /* \"#utility.yul\":4970:4986   */\n      swap1\n      pop\n        /* \"#utility.yul\":4915:4992   */\n      swap2\n      swap1\n      pop\n      jump\t// out\n        /* \"#utility.yul\":4998:5120   */\n    tag_57:\n        /* \"#utility.yul\":5071:5095   */\n      tag_133\n        /* \"#utility.yul\":5089:5094   */\n      dup2\n        /* \"#utility.yul\":5071:5095   */\n      tag_56\n      jump\t// in\n    tag_133:\n        /* \"#utility.yul\":5064:5069   */\n      dup2\n        /* \"#utility.yul\":5061:5096   */\n      eq\n        /* \"#utility.yul\":5051:5114   */\n      tag_134\n      jumpi\n        /* \"#utility.yul\":5110:5111   */\n      0x00\n        /* \"#utility.yul\":5107:5108   */\n      dup1\n        /* \"#utility.yul\":5100:5112   */\n      revert\n        /* \"#utility.yul\":5051:5114   */\n    tag_134:\n        /* \"#utility.yul\":4998:5120   */\n      pop\n      jump\t// out\n        /* \"#utility.yul\":5126:5265   */\n    tag_58:\n        /* \"#utility.yul\":5172:5177   */\n      0x00\n        /* \"#utility.yul\":5210:5216   */\n      dup2\n        /* \"#utility.yul\":5197:5217   */\n      calldataload\n        /* \"#utility.yul\":5188:5217   */\n      swap1\n      pop\n        /* \"#utility.yul\":5226:5259   */\n      tag_136\n        /* \"#utility.yul\":5253:5258   */\n      dup2\n        /* \"#utility.yul\":5226:5259   */\n      tag_57\n      jump\t// in\n    tag_136:\n        /* \"#utility.yul\":5126:5265   */\n      swap3\n      swap2\n      pop\n      pop\n      jump\t// out\n        /* \"#utility.yul\":5271:5600   */\n    tag_16:\n        /* \"#utility.yul\":5330:5336   */\n      0x00\n        /* \"#utility.yul\":5379:5381   */\n      0x20\n        /* \"#utility.yul\":5367:5376   */\n      dup3\n        /* \"#utility.yul\":5358:5365   */\n      dup5\n        /* \"#utility.yul\":5354:5377   */\n      sub\n        /* \"#utility.yul\":5350:5382   */\n      slt\n        /* \"#utility.yul\":5347:5466   */\n      iszero\n      tag_138\n      jumpi\n        /* \"#utility.yul\":5385:5464   */\n      tag_139\n      tag_36\n      jump\t// in\n    tag_139:\n        /* \"#utility.yul\":5347:5466   */\n    tag_138:\n        /* \"#utility.yul\":5505:5506   */\n      0x00\n        /* \"#utility.yul\":5530:5583   */\n      tag_140\n        /* \"#utility.yul\":5575:5582   */\n      dup5\n        /* \"#utility.yul\":5566:5572   */\n      dup3\n        /* \"#utility.yul\":5555:5564   */\n      dup6\n        /* \"#utility.yul\":5551:5573   */\n      add\n        /* \"#utility.yul\":5530:5583   */\n      tag_58\n      jump\t// in\n    tag_140:\n        /* \"#utility.yul\":5520:5583   */\n      swap2\n      pop\n        /* \"#utility.yul\":5476:5593   */\n      pop\n        /* \"#utility.yul\":5271:5600   */\n      swap3\n      swap2\n      pop\n      pop\n      jump\t// out\n        /* \"#utility.yul\":5606:5786   */\n    tag_59:\n        /* \"#utility.yul\":5654:5731   */\n      0x4e487b7100000000000000000000000000000000000000000000000000000000\n        /* \"#utility.yul\":5651:5652   */\n      0x00\n        /* \"#utility.yul\":5644:5732   */\n      mstore\n        /* \"#utility.yul\":5751:5755   */\n      0x22\n        /* \"#utility.yul\":5748:5749   */\n      0x04\n        /* \"#utility.yul\":5741:5756   */\n      mstore\n        /* \"#utility.yul\":5775:5779   */\n      0x24\n        /* \"#utility.yul\":5772:5773   */\n      0x00\n        /* \"#utility.yul\":5765:5780   */\n      revert\n        /* \"#utility.yul\":5792:6112   */\n    tag_23:\n        /* \"#utility.yul\":5836:5842   */\n      0x00\n        /* \"#utility.yul\":5873:5874   */\n      0x02\n        /* \"#utility.yul\":5867:5871   */\n      dup3\n        /* \"#utility.yul\":5863:5875   */\n      div\n        /* \"#utility.yul\":5853:5875   */\n      swap1\n      pop\n        /* \"#utility.yul\":5920:5921   */\n      0x01\n        /* \"#utility.yul\":5914:5918   */\n      dup3\n        /* \"#utility.yul\":5910:5922   */\n      and\n        /* \"#utility.yul\":5941:5959   */\n      dup1\n        /* \"#utility.yul\":5931:6012   */\n      tag_143\n      jumpi\n        /* \"#utility.yul\":5997:6001   */\n      0x7f\n        /* \"#utility.yul\":5989:5995   */\n      dup3\n        /* \"#utility.yul\":5985:6002   */\n      and\n        /* \"#utility.yul\":5975:6002   */\n      swap2\n      pop\n        /* \"#utility.yul\":5931:6012   */\n    tag_143:\n        /* \"#utility.yul\":6059:6061   */\n      0x20\n        /* \"#utility.yul\":6051:6057   */\n      dup3\n        /* \"#utility.yul\":6048:6062   */\n      lt\n        /* \"#utility.yul\":6028:6046   */\n      dup2\n        /* \"#utility.yul\":6025:6063   */\n      sub\n        /* \"#utility.yul\":6022:6106   */\n      tag_144\n      jumpi\n        /* \"#utility.yul\":6078:6096   */\n      tag_145\n      tag_59\n      jump\t// in\n    tag_145:\n        /* \"#utility.yul\":6022:6106   */\n    tag_144:\n        /* \"#utility.yul\":5843:6112   */\n      pop\n        /* \"#utility.yul\":5792:6112   */\n      swap2\n      swap1\n      pop\n      jump\t// out\n        /* \"#utility.yul\":6118:6259   */\n    tag_60:\n        /* \"#utility.yul\":6167:6171   */\n      0x00\n        /* \"#utility.yul\":6190:6193   */\n      dup2\n        /* \"#utility.yul\":6182:6193   */\n      swap1\n      pop\n        /* \"#utility.yul\":6213:6216   */\n      dup2\n        /* \"#utility.yul\":6210:6211   */\n      0x00\n        /* \"#utility.yul\":6203:6217   */\n      mstore\n        /* \"#utility.yul\":6247:6251   */\n      0x20\n        /* \"#utility.yul\":6244:6245   */\n      0x00\n        /* \"#utility.yul\":6234:6252   */\n      keccak256\n        /* \"#utility.yul\":6226:6252   */\n      swap1\n      pop\n        /* \"#utility.yul\":6118:6259   */\n      swap2\n      swap1\n      pop\n      jump\t// out\n        /* \"#utility.yul\":6265:6358   */\n    tag_61:\n        /* \"#utility.yul\":6302:6308   */\n      0x00\n        /* \"#utility.yul\":6349:6351   */\n      0x20\n        /* \"#utility.yul\":6344:6346   */\n      0x1f\n        /* \"#utility.yul\":6337:6342   */\n      dup4\n        /* \"#utility.yul\":6333:6347   */\n      add\n        /* \"#utility.yul\":6329:6352   */\n      div\n        /* \"#utility.yul\":6319:6352   */\n      swap1\n      pop\n        /* \"#utility.yul\":6265:6358   */\n      swap2\n      swap1\n      pop\n      jump\t// out\n        /* \"#utility.yul\":6364:6471   */\n    tag_62:\n        /* \"#utility.yul\":6408:6416   */\n      0x00\n        /* \"#utility.yul\":6458:6463   */\n      dup3\n        /* \"#utility.yul\":6452:6456   */\n      dup3\n        /* \"#utility.yul\":6448:6464   */\n      shl\n        /* \"#utility.yul\":6427:6464   */\n      swap1\n      pop\n        /* \"#utility.yul\":6364:6471   */\n      swap3\n      swap2\n      pop\n      pop\n      jump\t// out\n        /* \"#utility.yul\":6477:6870   */\n    tag_63:\n        /* \"#utility.yul\":6546:6552   */\n      0x00\n        /* \"#utility.yul\":6596:6597   */\n      0x08\n        /* \"#utility.yul\":6584:6594   */\n      dup4\n        /* \"#utility.yul\":6580:6598   */\n      mul\n        /* \"#utility.yul\":6619:6716   */\n      tag_150\n        /* \"#utility.yul\":6649:6715   */\n      0xffffffffffffffffffffffffffffffffffffffffffffffffffffffffffffffff\n        /* \"#utility.yul\":6638:6647   */\n      dup3\n        /* \"#utility.yul\":6619:6716   */\n      tag_62\n      jump\t// in\n    tag_150:\n        /* \"#utility.yul\":6737:6776   */\n      tag_151\n        /* \"#utility.yul\":6767:6775   */\n      dup7\n        /* \"#utility.yul\":6756:6765   */\n      dup4\n        /* \"#utility.yul\":6737:6776   */\n      tag_62\n      jump\t// in\n    tag_151:\n        /* \"#utility.yul\":6725:6776   */\n      swap6\n      pop\n        /* \"#utility.yul\":6809:6813   */\n      dup1\n        /* \"#utility.yul\":6805:6814   */\n      not\n        /* \"#utility.yul\":6798:6803   */\n      dup5\n        /* \"#utility.yul\":6794:6815   */\n      and\n        /* \"#utility.yul\":6785:6815   */\n      swap4\n      pop\n        /* \"#utility.yul\":6858:6862   */\n      dup1\n        /* \"#utility.yul\":6848:6856   */\n      dup7\n        /* \"#utility.yul\":6844:6863   */\n      and\n        /* \"#utility.yul\":6837:6842   */\n      dup5\n        /* \"#utility.yul\":6834:6864   */\n      or\n        /* \"#utility.yul\":6824:6864   */\n      swap3\n      pop\n        /* \"#utility.yul\":6553:6870   */\n      pop\n      pop\n        /* \"#utility.yul\":6477:6870   */\n      swap4\n      swap3\n      pop\n      pop\n      pop\n      jump\t// out\n        /* \"#utility.yul\":6876:6936   */\n    tag_64:\n        /* \"#utility.yul\":6904:6907   */\n      0x00\n        /* \"#utility.yul\":6925:6930   */\n      dup2\n        /* \"#utility.yul\":6918:6930   */\n      swap1\n      pop\n        /* \"#utility.yul\":6876:6936   */\n      swap2\n      swap1\n      pop\n      jump\t// out\n        /* \"#utility.yul\":6942:7084   */\n    tag_65:\n        /* \"#utility.yul\":6992:7001   */\n      0x00\n        /* \"#utility.yul\":7025:7078   */\n      tag_154\n        /* \"#utility.yul\":7043:7077   */\n      tag_155\n        /* \"#utility.yul\":7052:7076   */\n      tag_156\n        /* \"#utility.yul\":7070:7075   */\n      dup5\n        /* \"#utility.yul\":7052:7076   */\n      tag_56\n      jump\t// in\n    tag_156:\n        /* \"#utility.yul\":7043:7077   */\n      tag_64\n      jump\t// in\n    tag_155:\n        /* \"#utility.yul\":7025:7078   */\n      tag_56\n      jump\t// in\n    tag_154:\n        /* \"#utility.yul\":7012:7078   */\n      swap1\n      pop\n        /* \"#utility.yul\":6942:7084   */\n      swap2\n      swap1\n      pop\n      jump\t// out\n        /* \"#utility.yul\":7090:7165   */\n    tag_66:\n        /* \"#utility.yul\":7133:7136   */\n      0x00\n        /* \"#utility.yul\":7154:7159   */\n      dup2\n        /* \"#utility.yul\":7147:7159   */\n      swap1\n      pop\n        /* \"#utility.yul\":7090:7165   */\n      swap2\n      swap1\n      pop\n      jump\t// out\n        /* \"#utility.yul\":7171:7440   */\n    tag_67:\n        /* \"#utility.yul\":7281:7320   */\n      tag_159\n        /* \"#utility.yul\":7312:7319   */\n      dup4\n        /* \"#utility.yul\":7281:7320   */\n      tag_65\n      jump\t// in\n    tag_159:\n        /* \"#utility.yul\":7342:7433   */\n      tag_160\n        /* \"#utility.yul\":7391:7432   */\n      tag_161\n        /* \"#utility.yul\":7415:7431   */\n      dup3\n        /* \"#utility.yul\":7391:7432   */\n      tag_66\n      jump\t// in\n    tag_161:\n        /* \"#utility.yul\":7383:7389   */\n      dup5\n        /* \"#utility.yul\":7376:7380   */\n      dup5\n        /* \"#utility.yul\":7370:7381   */\n      sload\n        /* \"#utility.yul\":7342:7433   */\n      tag_63\n      jump\t// in\n    tag_160:\n        /* \"#utility.yul\":7336:7340   */\n      dup3\n        /* \"#utility.yul\":7329:7434   */\n      sstore\n        /* \"#utility.yul\":7247:7440   */\n      pop\n        /* \"#utility.yul\":7171:7440   */\n      pop\n      pop\n      pop\n      jump\t// out\n        /* \"#utility.yul\":7446:7519   */\n    tag_68:\n        /* \"#utility.yul\":7491:7494   */\n      0x00\n        /* \"#utility.yul\":7446:7519   */\n      swap1\n      jump\t// out\n        /* \"#utility.yul\":7525:7714   */\n    tag_69:\n        /* \"#utility.yul\":7602:7634   */\n      tag_164\n      tag_68\n      jump\t// in\n    tag_164:\n        /* \"#utility.yul\":7643:7708   */\n      tag_165\n        /* \"#utility.yul\":7701:7707   */\n      dup2\n        /* \"#utility.yul\":7693:7699   */\n      dup5\n        /* \"#utility.yul\":7687:7691   */\n      dup5\n        /* \"#utility.yul\":7643:7708   */\n      tag_67\n      jump\t// in\n    tag_165:\n        /* \"#utility.yul\":7578:7714   */\n      pop\n        /* \"#utility.yul\":7525:7714   */\n      pop\n      pop\n      jump\t// out\n        /* \"#utility.yul\":7720:7906   */\n    tag_70:\n        /* \"#utility.yul\":7780:7900   */\n    tag_167:\n        /* \"#utility.yul\":7797:7800   */\n      dup2\n        /* \"#utility.yul\":7790:7795   */\n      dup2\n        /* \"#utility.yul\":7787:7801   */\n      lt\n        /* \"#utility.yul\":7780:7900   */\n      iszero\n      tag_169\n      jumpi\n        /* \"#utility.yul\":7851:7890   */\n      tag_170\n        /* \"#utility.yul\":7888:7889   */\n      0x00\n        /* \"#utility.yul\":7881:7886   */\n      dup3\n        /* \"#utility.yul\":7851:7890   */\n      tag_69\n      jump\t// in\n    tag_170:\n        /* \"#utility.yul\":7824:7825   */\n      0x01\n        /* \"#utility.yul\":7817:7822   */\n      dup2\n        /* \"#utility.yul\":7813:7826   */\n      add\n        /* \"#utility.yul\":7804:7826   */\n      swap1\n      pop\n        /* \"#utility.yul\":7780:7900   */\n      jump(tag_167)\n    tag_169:\n        /* \"#utility.yul\":7720:7906   */\n      pop\n      pop\n      jump\t// out\n        /* \"#utility.yul\":7912:8455   */\n    tag_71:\n        /* \"#utility.yul\":8013:8015   */\n      0x1f\n        /* \"#utility.yul\":8008:8011   */\n      dup3\n        /* \"#utility.yul\":8005:8016   */\n      gt\n        /* \"#utility.yul\":8002:8448   */\n      iszero\n      tag_172\n      jumpi\n        /* \"#utility.yul\":8047:8085   */\n      tag_173\n        /* \"#utility.yul\":8079:8084   */\n      dup2\n        /* \"#utility.yul\":8047:8085   */\n      tag_60\n      jump\t// in\n    tag_173:\n        /* \"#utility.yul\":8131:8160   */\n      tag_174\n        /* \"#utility.yul\":8149:8159   */\n      dup5\n        /* \"#utility.yul\":8131:8160   */\n      tag_61\n      jump\t// in\n    tag_174:\n        /* \"#utility.yul\":8121:8129   */\n      dup2\n        /* \"#utility.yul\":8117:8161   */\n      add\n        /* \"#utility.yul\":8314:8316   */\n      0x20\n        /* \"#utility.yul\":8302:8312   */\n      dup6\n        /* \"#utility.yul\":8299:8317   */\n      lt\n        /* \"#utility.yul\":8296:8345   */\n      iszero\n      tag_175\n      jumpi\n        /* \"#utility.yul\":8335:8343   */\n      dup2\n        /* \"#utility.yul\":8320:8343   */\n      swap1\n      pop\n        /* \"#utility.yul\":8296:8345   */\n    tag_175:\n        /* \"#utility.yul\":8358:8438   */\n      tag_176\n        /* \"#utility.yul\":8414:8436   */\n      tag_177\n        /* \"#utility.yul\":8432:8435   */\n      dup6\n        /* \"#utility.yul\":8414:8436   */\n      tag_61\n      jump\t// in\n    tag_177:\n        /* \"#utility.yul\":8404:8412   */\n      dup4\n        /* \"#utility.yul\":8400:8437   */\n      add\n        /* \"#utility.yul\":8387:8398   */\n      dup3\n        /* \"#utility.yul\":8358:8438   */\n      tag_70\n      jump\t// in\n    tag_176:\n        /* \"#utility.yul\":8017:8448   */\n      pop\n      pop\n        /* \"#utility.yul\":8002:8448   */\n    tag_172:\n        /* \"#utility.yul\":7912:8455   */\n      pop\n      pop\n      pop\n      jump\t// out\n        /* \"#utility.yul\":8461:8578   */\n    tag_72:\n        /* \"#utility.yul\":8515:8523   */\n      0x00\n        /* \"#utility.yul\":8565:8570   */\n      dup3\n        /* \"#utility.yul\":8559:8563   */\n      dup3\n        /* \"#utility.yul\":8555:8571   */\n      shr\n        /* \"#utility.yul\":8534:8571   */\n      swap1\n      pop\n        /* \"#utility.yul\":8461:8578   */\n      swap3\n      swap2\n      pop\n      pop\n      jump\t// out\n        /* \"#utility.yul\":8584:8753   */\n    tag_73:\n        /* \"#utility.yul\":8628:8634   */\n      0x00\n        /* \"#utility.yul\":8661:8712   */\n      tag_180\n        /* \"#utility.yul\":8709:8710   */\n      0x00\n        /* \"#utility.yul\":8705:8711   */\n      not\n        /* \"#utility.yul\":8697:8702   */\n      dup5\n        /* \"#utility.yul\":8694:8695   */\n      0x08\n        /* \"#utility.yul\":8690:8703   */\n      mul\n        /* \"#utility.yul\":8661:8712   */\n      tag_72\n      jump\t// in\n    tag_180:\n        /* \"#utility.yul\":8657:8713   */\n      not\n        /* \"#utility.yul\":8742:8746   */\n      dup1\n        /* \"#utility.yul\":8736:8740   */\n      dup4\n        /* \"#utility.yul\":8732:8747   */\n      and\n        /* \"#utility.yul\":8722:8747   */\n      swap2\n      pop\n        /* \"#utility.yul\":8635:8753   */\n      pop\n        /* \"#utility.yul\":8584:8753   */\n      swap3\n      swap2\n      pop\n      pop\n      jump\t// out\n        /* \"#utility.yul\":8758:9053   */\n    tag_74:\n        /* \"#utility.yul\":8834:8838   */\n      0x00\n        /* \"#utility.yul\":8980:9009   */\n      tag_182\n        /* \"#utility.yul\":9005:9008   */\n      dup4\n        /* \"#utility.yul\":8999:9003   */\n      dup4\n        /* \"#utility.yul\":8980:9009   */\n      tag_73\n      jump\t// in\n    tag_182:\n        /* \"#utility.yul\":8972:9009   */\n      swap2\n      pop\n        /* \"#utility.yul\":9042:9045   */\n      dup3\n        /* \"#utility.yul\":9039:9040   */\n      0x02\n        /* \"#utility.yul\":9035:9046   */\n      mul\n        /* \"#utility.yul\":9029:9033   */\n      dup3\n        /* \"#utility.yul\":9026:9047   */\n      or\n        /* \"#utility.yul\":9018:9047   */\n      swap1\n      pop\n        /* \"#utility.yul\":8758:9053   */\n      swap3\n      swap2\n      pop\n      pop\n      jump\t// out\n        /* \"#utility.yul\":9058:10453   */\n    tag_21:\n        /* \"#utility.yul\":9175:9212   */\n      tag_184\n        /* \"#utility.yul\":9208:9211   */\n      dup3\n        /* \"#utility.yul\":9175:9212   */\n      tag_51\n      jump\t// in\n    tag_184:\n        /* \"#utility.yul\":9277:9295   */\n      0xffffffffffffffff\n        /* \"#utility.yul\":9269:9275   */\n      dup2\n        /* \"#utility.yul\":9266:9296   */\n      gt\n        /* \"#utility.yul\":9263:9319   */\n      iszero\n      tag_185\n      jumpi\n        /* \"#utility.yul\":9299:9317   */\n      tag_186\n      tag_41\n      jump\t// in\n    tag_186:\n        /* \"#utility.yul\":9263:9319   */\n    tag_185:\n        /* \"#utility.yul\":9343:9381   */\n      tag_187\n        /* \"#utility.yul\":9375:9379   */\n      dup3\n        /* \"#utility.yul\":9369:9380   */\n      sload\n        /* \"#utility.yul\":9343:9381   */\n      tag_23\n      jump\t// in\n    tag_187:\n        /* \"#utility.yul\":9428:9495   */\n      tag_188\n        /* \"#utility.yul\":9488:9494   */\n      dup3\n        /* \"#utility.yul\":9480:9486   */\n      dup3\n        /* \"#utility.yul\":9474:9478   */\n      dup6\n        /* \"#utility.yul\":9428:9495   */\n      tag_71\n      jump\t// in\n    tag_188:\n        /* \"#utility.yul\":9522:9523   */\n      0x00\n        /* \"#utility.yul\":9546:9550   */\n      0x20\n        /* \"#utility.yul\":9533:9550   */\n      swap1\n      pop\n        /* \"#utility.yul\":9578:9580   */\n      0x1f\n        /* \"#utility.yul\":9570:9576   */\n      dup4\n        /* \"#utility.yul\":9567:9581   */\n      gt\n        /* \"#utility.yul\":9595:9596   */\n      0x01\n        /* \"#utility.yul\":9590:10208   */\n      dup2\n      eq\n      tag_190\n      jumpi\n        /* \"#utility.yul\":10252:10253   */\n      0x00\n        /* \"#utility.yul\":10269:10275   */\n      dup5\n        /* \"#utility.yul\":10266:10343   */\n      iszero\n      tag_191\n      jumpi\n        /* \"#utility.yul\":10318:10327   */\n      dup3\n        /* \"#utility.yul\":10313:10316   */\n      dup8\n        /* \"#utility.yul\":10309:10328   */\n      add\n        /* \"#utility.yul\":10303:10329   */\n      mload\n        /* \"#utility.yul\":10294:10329   */\n      swap1\n      pop\n        /* \"#utility.yul\":10266:10343   */\n    tag_191:\n        /* \"#utility.yul\":10369:10436   */\n      tag_192\n        /* \"#utility.yul\":10429:10435   */\n      dup6\n        /* \"#utility.yul\":10422:10427   */\n      dup3\n        /* \"#utility.yul\":10369:10436   */\n      tag_74\n      jump\t// in\n    tag_192:\n        /* \"#utility.yul\":10363:10367   */\n      dup7\n        /* \"#utility.yul\":10356:10437   */\n      sstore\n        /* \"#utility.yul\":10225:10447   */\n      pop\n        /* \"#utility.yul\":9560:10447   */\n      jump(tag_189)\n        /* \"#utility.yul\":9590:10208   */\n    tag_190:\n        /* \"#utility.yul\":9642:9646   */\n      0x1f\n        /* \"#utility.yul\":9638:9647   */\n      not\n        /* \"#utility.yul\":9630:9636   */\n      dup5\n        /* \"#utility.yul\":9626:9648   */\n      and\n        /* \"#utility.yul\":9676:9713   */\n      tag_193\n        /* \"#utility.yul\":9708:9712   */\n      dup7\n        /* \"#utility.yul\":9676:9713   */\n      tag_60\n      jump\t// in\n    tag_193:\n        /* \"#utility.yul\":9735:9736   */\n      0x00\n        /* \"#utility.yul\":9749:9957   */\n    tag_194:\n        /* \"#utility.yul\":9763:9770   */\n      dup3\n        /* \"#utility.yul\":9760:9761   */\n      dup2\n        /* \"#utility.yul\":9757:9771   */\n      lt\n        /* \"#utility.yul\":9749:9957   */\n      iszero\n      tag_196\n      jumpi\n        /* \"#utility.yul\":9842:9851   */\n      dup5\n        /* \"#utility.yul\":9837:9840   */\n      dup10\n        /* \"#utility.yul\":9833:9852   */\n      add\n        /* \"#utility.yul\":9827:9853   */\n      mload\n        /* \"#utility.yul\":9819:9825   */\n      dup3\n        /* \"#utility.yul\":9812:9854   */\n      sstore\n        /* \"#utility.yul\":9893:9894   */\n      0x01\n        /* \"#utility.yul\":9885:9891   */\n      dup3\n        /* \"#utility.yul\":9881:9895   */\n      add\n        /* \"#utility.yul\":9871:9895   */\n      swap2\n      pop\n        /* \"#utility.yul\":9940:9942   */\n      0x20\n        /* \"#utility.yul\":9929:9938   */\n      dup6\n        /* \"#utility.yul\":9925:9943   */\n      add\n        /* \"#utility.yul\":9912:9943   */\n      swap5\n      pop\n        /* \"#utility.yul\":9786:9790   */\n      0x20\n        /* \"#utility.yul\":9783:9784   */\n      dup2\n        /* \"#utility.yul\":9779:9791   */\n      add\n        /* \"#utility.yul\":9774:9791   */\n      swap1\n      pop\n        /* \"#utility.yul\":9749:9957   */\n      jump(tag_194)\n    tag_196:\n        /* \"#utility.yul\":9985:9991   */\n      dup7\n        /* \"#utility.yul\":9976:9983   */\n      dup4\n        /* \"#utility.yul\":9973:9992   */\n      lt\n        /* \"#utility.yul\":9970:10149   */\n      iszero\n      tag_197\n      jumpi\n        /* \"#utility.yul\":10043:10052   */\n      dup5\n        /* \"#utility.yul\":10038:10041   */\n      dup10\n        /* \"#utility.yul\":10034:10053   */\n      add\n        /* \"#utility.yul\":10028:10054   */\n      mload\n        /* \"#utility.yul\":10086:10134   */\n      tag_198\n        /* \"#utility.yul\":10128:10132   */\n      0x1f\n        /* \"#utility.yul\":10120:10126   */\n      dup10\n        /* \"#utility.yul\":10116:10133   */\n      and\n        /* \"#utility.yul\":10105:10114   */\n      dup3\n        /* \"#utility.yul\":10086:10134   */\n      tag_73\n      jump\t// in\n    tag_198:\n        /* \"#utility.yul\":10078:10084   */\n      dup4\n        /* \"#utility.yul\":10071:10135   */\n      sstore\n        /* \"#utility.yul\":9993:10149   */\n      pop\n        /* \"#utility.yul\":9970:10149   */\n    tag_197:\n        /* \"#utility.yul\":10195:10196   */\n      0x01\n        /* \"#utility.yul\":10191:10192   */\n      0x02\n        /* \"#utility.yul\":10183:10189   */\n      dup9\n        /* \"#utility.yul\":10179:10193   */\n      mul\n        /* \"#utility.yul\":10175:10197   */\n      add\n        /* \"#utility.yul\":10169:10173   */\n      dup9\n        /* \"#utility.yul\":10162:10198   */\n      sstore\n        /* \"#utility.yul\":9597:10208   */\n      pop\n      pop\n      pop\n        /* \"#utility.yul\":9560:10447   */\n    tag_189:\n      pop\n        /* \"#utility.yul\":9150:10453   */\n      pop\n      pop\n      pop\n        /* \"#utility.yul\":9058:10453   */\n      pop\n      pop\n      jump\t// out\n\n    auxdata: 0xa26469706673582212209ddaa6df7a3ec6281859152a1e66192c6ad78200a8d68daa486683a35f7cc74e64736f6c634300081a0033\n}\n",
				"bytecode": {
					"linkReferences": {},
					"object": "6080604052348015600e575f80fd5b5061083d8061001c5f395ff3fe608060405234801561000f575f80fd5b506004361061003f575f3560e01c806349d812b214610043578063907361301461005f578063a2f9eac61461007e575b5f80fd5b61005d600480360381019061005891906103e9565b6100af565b005b610067610103565b6040516100759291906104b2565b60405180910390f35b61009860048036038101906100939190610513565b6101a5565b6040516100a69291906104b2565b60405180910390f35b60405180604001604052808381526020018260ff168152505f80820151815f0190816100db9190610738565b506020820151816001015f6101000a81548160ff021916908360ff1602179055509050505050565b5f805f0180546101129061056b565b80601f016020809104026020016040519081016040528092919081815260200182805461013e9061056b565b80156101895780601f1061016057610100808354040283529160200191610189565b820191905f5260205f20905b81548152906001019060200180831161016c57829003601f168201915b505050505090806001015f9054906101000a900460ff16905082565b600281815481106101b4575f80fd5b905f5260205f2090600202015f91509050805f0180546101d39061056b565b80601f01602080910402602001604051908101604052809291908181526020018280546101ff9061056b565b801561024a5780601f106102215761010080835404028352916020019161024a565b820191905f5260205f20905b81548152906001019060200180831161022d57829003601f168201915b505050505090806001015f9054906101000a900460ff16905082565b5f604051905090565b5f80fd5b5f80fd5b5f80fd5b5f80fd5b5f601f19601f8301169050919050565b7f4e487b71000000000000000000000000000000000000000000000000000000005f52604160045260245ffd5b6102c58261027f565b810181811067ffffffffffffffff821117156102e4576102e361028f565b5b80604052505050565b5f6102f6610266565b905061030282826102bc565b919050565b5f67ffffffffffffffff8211156103215761032061028f565b5b61032a8261027f565b9050602081019050919050565b828183375f83830152505050565b5f61035761035284610307565b6102ed565b9050828152602081018484840111156103735761037261027b565b5b61037e848285610337565b509392505050565b5f82601f83011261039a57610399610277565b5b81356103aa848260208601610345565b91505092915050565b5f60ff82169050919050565b6103c8816103b3565b81146103d2575f80fd5b50565b5f813590506103e3816103bf565b92915050565b5f80604083850312156103ff576103fe61026f565b5b5f83013567ffffffffffffffff81111561041c5761041b610273565b5b61042885828601610386565b9250506020610439858286016103d5565b9150509250929050565b5f81519050919050565b5f82825260208201905092915050565b8281835e5f83830152505050565b5f61047582610443565b61047f818561044d565b935061048f81856020860161045d565b6104988161027f565b840191505092915050565b6104ac816103b3565b82525050565b5f6040820190508181035f8301526104ca818561046b565b90506104d960208301846104a3565b9392505050565b5f819050919050565b6104f2816104e0565b81146104fc575f80fd5b50565b5f8135905061050d816104e9565b92915050565b5f602082840312156105285761052761026f565b5b5f610535848285016104ff565b91505092915050565b7f4e487b71000000000000000000000000000000000000000000000000000000005f52602260045260245ffd5b5f600282049050600182168061058257607f821691505b6020821081036105955761059461053e565b5b50919050565b5f819050815f5260205f209050919050565b5f6020601f8301049050919050565b5f82821b905092915050565b5f600883026105f77fffffffffffffffffffffffffffffffffffffffffffffffffffffffffffffffff826105bc565b61060186836105bc565b95508019841693508086168417925050509392505050565b5f819050919050565b5f61063c610637610632846104e0565b610619565b6104e0565b9050919050565b5f819050919050565b61065583610622565b61066961066182610643565b8484546105c8565b825550505050565b5f90565b61067d610671565b61068881848461064c565b505050565b5b818110156106ab576106a05f82610675565b60018101905061068e565b5050565b601f8211156106f0576106c18161059b565b6106ca846105ad565b810160208510156106d9578190505b6106ed6106e5856105ad565b83018261068d565b50505b505050565b5f82821c905092915050565b5f6107105f19846008026106f5565b1980831691505092915050565b5f6107288383610701565b9150826002028217905092915050565b61074182610443565b67ffffffffffffffff81111561075a5761075961028f565b5b610764825461056b565b61076f8282856106af565b5f60209050601f8311600181146107a0575f841561078e578287015190505b610798858261071d565b8655506107ff565b601f1984166107ae8661059b565b5f5b828110156107d5578489015182556001820191506020850194506020810190506107b0565b868310156107f257848901516107ee601f891682610701565b8355505b6001600288020188555050505b50505050505056fea26469706673582212209ddaa6df7a3ec6281859152a1e66192c6ad78200a8d68daa486683a35f7cc74e64736f6c634300081a0033",
					"opcodes": "PUSH1 0x80 PUSH1 0x40 MSTORE CALLVALUE DUP1 ISZERO PUSH1 0xE JUMPI PUSH0 DUP1 REVERT JUMPDEST POP PUSH2 0x83D DUP1 PUSH2 0x1C PUSH0 CODECOPY PUSH0 RETURN INVALID PUSH1 0x80 PUSH1 0x40 MSTORE CALLVALUE DUP1 ISZERO PUSH2 0xF JUMPI PUSH0 DUP1 REVERT JUMPDEST POP PUSH1 0x4 CALLDATASIZE LT PUSH2 0x3F JUMPI PUSH0 CALLDATALOAD PUSH1 0xE0 SHR DUP1 PUSH4 0x49D812B2 EQ PUSH2 0x43 JUMPI DUP1 PUSH4 0x90736130 EQ PUSH2 0x5F JUMPI DUP1 PUSH4 0xA2F9EAC6 EQ PUSH2 0x7E JUMPI JUMPDEST PUSH0 DUP1 REVERT JUMPDEST PUSH2 0x5D PUSH1 0x4 DUP1 CALLDATASIZE SUB DUP2 ADD SWAP1 PUSH2 0x58 SWAP2 SWAP1 PUSH2 0x3E9 JUMP JUMPDEST PUSH2 0xAF JUMP JUMPDEST STOP JUMPDEST PUSH2 0x67 PUSH2 0x103 JUMP JUMPDEST PUSH1 0x40 MLOAD PUSH2 0x75 SWAP3 SWAP2 SWAP1 PUSH2 0x4B2 JUMP JUMPDEST PUSH1 0x40 MLOAD DUP1 SWAP2 SUB SWAP1 RETURN JUMPDEST PUSH2 0x98 PUSH1 0x4 DUP1 CALLDATASIZE SUB DUP2 ADD SWAP1 PUSH2 0x93 SWAP2 SWAP1 PUSH2 0x513 JUMP JUMPDEST PUSH2 0x1A5 JUMP JUMPDEST PUSH1 0x40 MLOAD PUSH2 0xA6 SWAP3 SWAP2 SWAP1 PUSH2 0x4B2 JUMP JUMPDEST PUSH1 0x40 MLOAD DUP1 SWAP2 SUB SWAP1 RETURN JUMPDEST PUSH1 0x40 MLOAD DUP1 PUSH1 0x40 ADD PUSH1 0x40 MSTORE DUP1 DUP4 DUP2 MSTORE PUSH1 0x20 ADD DUP3 PUSH1 0xFF AND DUP2 MSTORE POP PUSH0 DUP1 DUP3 ADD MLOAD DUP2 PUSH0 ADD SWAP1 DUP2 PUSH2 0xDB SWAP2 SWAP1 PUSH2 0x738 JUMP JUMPDEST POP PUSH1 0x20 DUP3 ADD MLOAD DUP2 PUSH1 0x1 ADD PUSH0 PUSH2 0x100 EXP DUP2 SLOAD DUP2 PUSH1 0xFF MUL NOT AND SWAP1 DUP4 PUSH1 0xFF AND MUL OR SWAP1 SSTORE POP SWAP1 POP POP POP POP JUMP JUMPDEST PUSH0 DUP1 PUSH0 ADD DUP1 SLOAD PUSH2 0x112 SWAP1 PUSH2 0x56B JUMP JUMPDEST DUP1 PUSH1 0x1F ADD PUSH1 0x20 DUP1 SWAP2 DIV MUL PUSH1 0x20 ADD PUSH1 0x40 MLOAD SWAP1 DUP2 ADD PUSH1 0x40 MSTORE DUP1 SWAP3 SWAP2 SWAP1 DUP2 DUP2 MSTORE PUSH1 0x20 ADD DUP3 DUP1 SLOAD PUSH2 0x13E SWAP1 PUSH2 0x56B JUMP JUMPDEST DUP1 ISZERO PUSH2 0x189 JUMPI DUP1 PUSH1 0x1F LT PUSH2 0x160 JUMPI PUSH2 0x100 DUP1 DUP4 SLOAD DIV MUL DUP4 MSTORE SWAP2 PUSH1 0x20 ADD SWAP2 PUSH2 0x189 JUMP JUMPDEST DUP3 ADD SWAP2 SWAP1 PUSH0 MSTORE PUSH1 0x20 PUSH0 KECCAK256 SWAP1 JUMPDEST DUP2 SLOAD DUP2 MSTORE SWAP1 PUSH1 0x1 ADD SWAP1 PUSH1 0x20 ADD DUP1 DUP4 GT PUSH2 0x16C JUMPI DUP3 SWAP1 SUB PUSH1 0x1F AND DUP3 ADD SWAP2 JUMPDEST POP POP POP POP POP SWAP1 DUP1 PUSH1 0x1 ADD PUSH0 SWAP1 SLOAD SWAP1 PUSH2 0x100 EXP SWAP1 DIV PUSH1 0xFF AND SWAP1 POP DUP3 JUMP JUMPDEST PUSH1 0x2 DUP2 DUP2 SLOAD DUP2 LT PUSH2 0x1B4 JUMPI PUSH0 DUP1 REVERT JUMPDEST SWAP1 PUSH0 MSTORE PUSH1 0x20 PUSH0 KECCAK256 SWAP1 PUSH1 0x2 MUL ADD PUSH0 SWAP2 POP SWAP1 POP DUP1 PUSH0 ADD DUP1 SLOAD PUSH2 0x1D3 SWAP1 PUSH2 0x56B JUMP JUMPDEST DUP1 PUSH1 0x1F ADD PUSH1 0x20 DUP1 SWAP2 DIV MUL PUSH1 0x20 ADD PUSH1 0x40 MLOAD SWAP1 DUP2 ADD PUSH1 0x40 MSTORE DUP1 SWAP3 SWAP2 SWAP1 DUP2 DUP2 MSTORE PUSH1 0x20 ADD DUP3 DUP1 SLOAD PUSH2 0x1FF SWAP1 PUSH2 0x56B JUMP JUMPDEST DUP1 ISZERO PUSH2 0x24A JUMPI DUP1 PUSH1 0x1F LT PUSH2 0x221 JUMPI PUSH2 0x100 DUP1 DUP4 SLOAD DIV MUL DUP4 MSTORE SWAP2 PUSH1 0x20 ADD SWAP2 PUSH2 0x24A JUMP JUMPDEST DUP3 ADD SWAP2 SWAP1 PUSH0 MSTORE PUSH1 0x20 PUSH0 KECCAK256 SWAP1 JUMPDEST DUP2 SLOAD DUP2 MSTORE SWAP1 PUSH1 0x1 ADD SWAP1 PUSH1 0x20 ADD DUP1 DUP4 GT PUSH2 0x22D JUMPI DUP3 SWAP1 SUB PUSH1 0x1F AND DUP3 ADD SWAP2 JUMPDEST POP POP POP POP POP SWAP1 DUP1 PUSH1 0x1 ADD PUSH0 SWAP1 SLOAD SWAP1 PUSH2 0x100 EXP SWAP1 DIV PUSH1 0xFF AND SWAP1 POP DUP3 JUMP JUMPDEST PUSH0 PUSH1 0x40 MLOAD SWAP1 POP SWAP1 JUMP JUMPDEST PUSH0 DUP1 REVERT JUMPDEST PUSH0 DUP1 REVERT JUMPDEST PUSH0 DUP1 REVERT JUMPDEST PUSH0 DUP1 REVERT JUMPDEST PUSH0 PUSH1 0x1F NOT PUSH1 0x1F DUP4 ADD AND SWAP1 POP SWAP2 SWAP1 POP JUMP JUMPDEST PUSH32 0x4E487B7100000000000000000000000000000000000000000000000000000000 PUSH0 MSTORE PUSH1 0x41 PUSH1 0x4 MSTORE PUSH1 0x24 PUSH0 REVERT JUMPDEST PUSH2 0x2C5 DUP3 PUSH2 0x27F JUMP JUMPDEST DUP2 ADD DUP2 DUP2 LT PUSH8 0xFFFFFFFFFFFFFFFF DUP3 GT OR ISZERO PUSH2 0x2E4 JUMPI PUSH2 0x2E3 PUSH2 0x28F JUMP JUMPDEST JUMPDEST DUP1 PUSH1 0x40 MSTORE POP POP POP JUMP JUMPDEST PUSH0 PUSH2 0x2F6 PUSH2 0x266 JUMP JUMPDEST SWAP1 POP PUSH2 0x302 DUP3 DUP3 PUSH2 0x2BC JUMP JUMPDEST SWAP2 SWAP1 POP JUMP JUMPDEST PUSH0 PUSH8 0xFFFFFFFFFFFFFFFF DUP3 GT ISZERO PUSH2 0x321 JUMPI PUSH2 0x320 PUSH2 0x28F JUMP JUMPDEST JUMPDEST PUSH2 0x32A DUP3 PUSH2 0x27F JUMP JUMPDEST SWAP1 POP PUSH1 0x20 DUP2 ADD SWAP1 POP SWAP2 SWAP1 POP JUMP JUMPDEST DUP3 DUP2 DUP4 CALLDATACOPY PUSH0 DUP4 DUP4 ADD MSTORE POP POP POP JUMP JUMPDEST PUSH0 PUSH2 0x357 PUSH2 0x352 DUP5 PUSH2 0x307 JUMP JUMPDEST PUSH2 0x2ED JUMP JUMPDEST SWAP1 POP DUP3 DUP2 MSTORE PUSH1 0x20 DUP2 ADD DUP5 DUP5 DUP5 ADD GT ISZERO PUSH2 0x373 JUMPI PUSH2 0x372 PUSH2 0x27B JUMP JUMPDEST JUMPDEST PUSH2 0x37E DUP5 DUP3 DUP6 PUSH2 0x337 JUMP JUMPDEST POP SWAP4 SWAP3 POP POP POP JUMP JUMPDEST PUSH0 DUP3 PUSH1 0x1F DUP4 ADD SLT PUSH2 0x39A JUMPI PUSH2 0x399 PUSH2 0x277 JUMP JUMPDEST JUMPDEST DUP2 CALLDATALOAD PUSH2 0x3AA DUP5 DUP3 PUSH1 0x20 DUP7 ADD PUSH2 0x345 JUMP JUMPDEST SWAP2 POP POP SWAP3 SWAP2 POP POP JUMP JUMPDEST PUSH0 PUSH1 0xFF DUP3 AND SWAP1 POP SWAP2 SWAP1 POP JUMP JUMPDEST PUSH2 0x3C8 DUP2 PUSH2 0x3B3 JUMP JUMPDEST DUP2 EQ PUSH2 0x3D2 JUMPI PUSH0 DUP1 REVERT JUMPDEST POP JUMP JUMPDEST PUSH0 DUP2 CALLDATALOAD SWAP1 POP PUSH2 0x3E3 DUP2 PUSH2 0x3BF JUMP JUMPDEST SWAP3 SWAP2 POP POP JUMP JUMPDEST PUSH0 DUP1 PUSH1 0x40 DUP4 DUP6 SUB SLT ISZERO PUSH2 0x3FF JUMPI PUSH2 0x3FE PUSH2 0x26F JUMP JUMPDEST JUMPDEST PUSH0 DUP4 ADD CALLDATALOAD PUSH8 0xFFFFFFFFFFFFFFFF DUP2 GT ISZERO PUSH2 0x41C JUMPI PUSH2 0x41B PUSH2 0x273 JUMP JUMPDEST JUMPDEST PUSH2 0x428 DUP6 DUP3 DUP7 ADD PUSH2 0x386 JUMP JUMPDEST SWAP3 POP POP PUSH1 0x20 PUSH2 0x439 DUP6 DUP3 DUP7 ADD PUSH2 0x3D5 JUMP JUMPDEST SWAP2 POP POP SWAP3 POP SWAP3 SWAP1 POP JUMP JUMPDEST PUSH0 DUP2 MLOAD SWAP1 POP SWAP2 SWAP1 POP JUMP JUMPDEST PUSH0 DUP3 DUP3 MSTORE PUSH1 0x20 DUP3 ADD SWAP1 POP SWAP3 SWAP2 POP POP JUMP JUMPDEST DUP3 DUP2 DUP4 MCOPY PUSH0 DUP4 DUP4 ADD MSTORE POP POP POP JUMP JUMPDEST PUSH0 PUSH2 0x475 DUP3 PUSH2 0x443 JUMP JUMPDEST PUSH2 0x47F DUP2 DUP6 PUSH2 0x44D JUMP JUMPDEST SWAP4 POP PUSH2 0x48F DUP2 DUP6 PUSH1 0x20 DUP7 ADD PUSH2 0x45D JUMP JUMPDEST PUSH2 0x498 DUP2 PUSH2 0x27F JUMP JUMPDEST DUP5 ADD SWAP2 POP POP SWAP3 SWAP2 POP POP JUMP JUMPDEST PUSH2 0x4AC DUP2 PUSH2 0x3B3 JUMP JUMPDEST DUP3 MSTORE POP POP JUMP JUMPDEST PUSH0 PUSH1 0x40 DUP3 ADD SWAP1 POP DUP2 DUP2 SUB PUSH0 DUP4 ADD MSTORE PUSH2 0x4CA DUP2 DUP6 PUSH2 0x46B JUMP JUMPDEST SWAP1 POP PUSH2 0x4D9 PUSH1 0x20 DUP4 ADD DUP5 PUSH2 0x4A3 JUMP JUMPDEST SWAP4 SWAP3 POP POP POP JUMP JUMPDEST PUSH0 DUP2 SWAP1 POP SWAP2 SWAP1 POP JUMP JUMPDEST PUSH2 0x4F2 DUP2 PUSH2 0x4E0 JUMP JUMPDEST DUP2 EQ PUSH2 0x4FC JUMPI PUSH0 DUP1 REVERT JUMPDEST POP JUMP JUMPDEST PUSH0 DUP2 CALLDATALOAD SWAP1 POP PUSH2 0x50D DUP2 PUSH2 0x4E9 JUMP JUMPDEST SWAP3 SWAP2 POP POP JUMP JUMPDEST PUSH0 PUSH1 0x20 DUP3 DUP5 SUB SLT ISZERO PUSH2 0x528 JUMPI PUSH2 0x527 PUSH2 0x26F JUMP JUMPDEST JUMPDEST PUSH0 PUSH2 0x535 DUP5 DUP3 DUP6 ADD PUSH2 0x4FF JUMP JUMPDEST SWAP2 POP POP SWAP3 SWAP2 POP POP JUMP JUMPDEST PUSH32 0x4E487B7100000000000000000000000000000000000000000000000000000000 PUSH0 MSTORE PUSH1 0x22 PUSH1 0x4 MSTORE PUSH1 0x24 PUSH0 REVERT JUMPDEST PUSH0 PUSH1 0x2 DUP3 DIV SWAP1 POP PUSH1 0x1 DUP3 AND DUP1 PUSH2 0x582 JUMPI PUSH1 0x7F DUP3 AND SWAP2 POP JUMPDEST PUSH1 0x20 DUP3 LT DUP2 SUB PUSH2 0x595 JUMPI PUSH2 0x594 PUSH2 0x53E JUMP JUMPDEST JUMPDEST POP SWAP2 SWAP1 POP JUMP JUMPDEST PUSH0 DUP2 SWAP1 POP DUP2 PUSH0 MSTORE PUSH1 0x20 PUSH0 KECCAK256 SWAP1 POP SWAP2 SWAP1 POP JUMP JUMPDEST PUSH0 PUSH1 0x20 PUSH1 0x1F DUP4 ADD DIV SWAP1 POP SWAP2 SWAP1 POP JUMP JUMPDEST PUSH0 DUP3 DUP3 SHL SWAP1 POP SWAP3 SWAP2 POP POP JUMP JUMPDEST PUSH0 PUSH1 0x8 DUP4 MUL PUSH2 0x5F7 PUSH32 0xFFFFFFFFFFFFFFFFFFFFFFFFFFFFFFFFFFFFFFFFFFFFFFFFFFFFFFFFFFFFFFFF DUP3 PUSH2 0x5BC JUMP JUMPDEST PUSH2 0x601 DUP7 DUP4 PUSH2 0x5BC JUMP JUMPDEST SWAP6 POP DUP1 NOT DUP5 AND SWAP4 POP DUP1 DUP7 AND DUP5 OR SWAP3 POP POP POP SWAP4 SWAP3 POP POP POP JUMP JUMPDEST PUSH0 DUP2 SWAP1 POP SWAP2 SWAP1 POP JUMP JUMPDEST PUSH0 PUSH2 0x63C PUSH2 0x637 PUSH2 0x632 DUP5 PUSH2 0x4E0 JUMP JUMPDEST PUSH2 0x619 JUMP JUMPDEST PUSH2 0x4E0 JUMP JUMPDEST SWAP1 POP SWAP2 SWAP1 POP JUMP JUMPDEST PUSH0 DUP2 SWAP1 POP SWAP2 SWAP1 POP JUMP JUMPDEST PUSH2 0x655 DUP4 PUSH2 0x622 JUMP JUMPDEST PUSH2 0x669 PUSH2 0x661 DUP3 PUSH2 0x643 JUMP JUMPDEST DUP5 DUP5 SLOAD PUSH2 0x5C8 JUMP JUMPDEST DUP3 SSTORE POP POP POP POP JUMP JUMPDEST PUSH0 SWAP1 JUMP JUMPDEST PUSH2 0x67D PUSH2 0x671 JUMP JUMPDEST PUSH2 0x688 DUP2 DUP5 DUP5 PUSH2 0x64C JUMP JUMPDEST POP POP POP JUMP JUMPDEST JUMPDEST DUP2 DUP2 LT ISZERO PUSH2 0x6AB JUMPI PUSH2 0x6A0 PUSH0 DUP3 PUSH2 0x675 JUMP JUMPDEST PUSH1 0x1 DUP2 ADD SWAP1 POP PUSH2 0x68E JUMP JUMPDEST POP POP JUMP JUMPDEST PUSH1 0x1F DUP3 GT ISZERO PUSH2 0x6F0 JUMPI PUSH2 0x6C1 DUP2 PUSH2 0x59B JUMP JUMPDEST PUSH2 0x6CA DUP5 PUSH2 0x5AD JUMP JUMPDEST DUP2 ADD PUSH1 0x20 DUP6 LT ISZERO PUSH2 0x6D9 JUMPI DUP2 SWAP1 POP JUMPDEST PUSH2 0x6ED PUSH2 0x6E5 DUP6 PUSH2 0x5AD JUMP JUMPDEST DUP4 ADD DUP3 PUSH2 0x68D JUMP JUMPDEST POP POP JUMPDEST POP POP POP JUMP JUMPDEST PUSH0 DUP3 DUP3 SHR SWAP1 POP SWAP3 SWAP2 POP POP JUMP JUMPDEST PUSH0 PUSH2 0x710 PUSH0 NOT DUP5 PUSH1 0x8 MUL PUSH2 0x6F5 JUMP JUMPDEST NOT DUP1 DUP4 AND SWAP2 POP POP SWAP3 SWAP2 POP POP JUMP JUMPDEST PUSH0 PUSH2 0x728 DUP4 DUP4 PUSH2 0x701 JUMP JUMPDEST SWAP2 POP DUP3 PUSH1 0x2 MUL DUP3 OR SWAP1 POP SWAP3 SWAP2 POP POP JUMP JUMPDEST PUSH2 0x741 DUP3 PUSH2 0x443 JUMP JUMPDEST PUSH8 0xFFFFFFFFFFFFFFFF DUP2 GT ISZERO PUSH2 0x75A JUMPI PUSH2 0x759 PUSH2 0x28F JUMP JUMPDEST JUMPDEST PUSH2 0x764 DUP3 SLOAD PUSH2 0x56B JUMP JUMPDEST PUSH2 0x76F DUP3 DUP3 DUP6 PUSH2 0x6AF JUMP JUMPDEST PUSH0 PUSH1 0x20 SWAP1 POP PUSH1 0x1F DUP4 GT PUSH1 0x1 DUP2 EQ PUSH2 0x7A0 JUMPI PUSH0 DUP5 ISZERO PUSH2 0x78E JUMPI DUP3 DUP8 ADD MLOAD SWAP1 POP JUMPDEST PUSH2 0x798 DUP6 DUP3 PUSH2 0x71D JUMP JUMPDEST DUP7 SSTORE POP PUSH2 0x7FF JUMP JUMPDEST PUSH1 0x1F NOT DUP5 AND PUSH2 0x7AE DUP7 PUSH2 0x59B JUMP JUMPDEST PUSH0 JUMPDEST DUP3 DUP2 LT ISZERO PUSH2 0x7D5 JUMPI DUP5 DUP10 ADD MLOAD DUP3 SSTORE PUSH1 0x1 DUP3 ADD SWAP2 POP PUSH1 0x20 DUP6 ADD SWAP5 POP PUSH1 0x20 DUP2 ADD SWAP1 POP PUSH2 0x7B0 JUMP JUMPDEST DUP7 DUP4 LT ISZERO PUSH2 0x7F2 JUMPI DUP5 DUP10 ADD MLOAD PUSH2 0x7EE PUSH1 0x1F DUP10 AND DUP3 PUSH2 0x701 JUMP JUMPDEST DUP4 SSTORE POP JUMPDEST PUSH1 0x1 PUSH1 0x2 DUP9 MUL ADD DUP9 SSTORE POP POP POP JUMPDEST POP POP POP POP POP POP JUMP INVALID LOG2 PUSH5 0x6970667358 0x22 SLT KECCAK256 SWAP14 0xDA 0xA6 0xDF PUSH27 0x3EC6281859152A1E66192C6AD78200A8D68DAA486683A35F7CC74E PUSH5 0x736F6C6343 STOP ADDMOD BYTE STOP CALLER "
				},
				"gasEstimates": {
					"creation": {
						"codeDepositCost": "421800",
						"executionCost": "453",
						"totalCost": "422253"
					},
					"external": {
						"modifyPerson(string,uint8)": "infinite",
						"moi()": "infinite",
						"persons(uint256)": "infinite"
					}
				},
				"methodIdentifiers": {
					"modifyPerson(string,uint8)": "49d812b2",
					"moi()": "90736130",
					"persons(uint256)": "a2f9eac6"
				}
			},
			"storageLayout": {
				"storage": [
					{
						"astId": 9,
						"contract": "contracts/4_People.sol:People",
						"label": "moi",
						"offset": 0,
						"slot": "0",
						"type": "t_struct(Person)6_storage"
					},
					{
						"astId": 13,
						"contract": "contracts/4_People.sol:People",
						"label": "persons",
						"offset": 0,
						"slot": "2",
						"type": "t_array(t_struct(Person)6_storage)dyn_storage"
					}
				],
				"types": {
					"t_array(t_struct(Person)6_storage)dyn_storage": {
						"base": "t_struct(Person)6_storage",
						"encoding": "dynamic_array",
						"label": "struct People.Person[]",
						"numberOfBytes": "32"
					},
					"t_string_storage": {
						"encoding": "bytes",
						"label": "string",
						"numberOfBytes": "32"
					},
					"t_struct(Person)6_storage": {
						"encoding": "inplace",
						"label": "struct People.Person",
						"members": [
							{
								"astId": 3,
								"contract": "contracts/4_People.sol:People",
								"label": "name",
								"offset": 0,
								"slot": "0",
								"type": "t_string_storage"
							},
							{
								"astId": 5,
								"contract": "contracts/4_People.sol:People",
								"label": "age",
								"offset": 0,
								"slot": "1",
								"type": "t_uint8"
							}
						],
						"numberOfBytes": "64"
					},
					"t_uint8": {
						"encoding": "inplace",
						"label": "uint8",
						"numberOfBytes": "1"
					}
				}
			},
			"userdoc": {
				"kind": "user",
				"methods": {},
				"version": 1
			}
		}
	}
}