{
	"contracts/12_ContractExoLive.sol": {
		"ContractExoLive3": {
			"abi": [
				{
					"anonymous": false,
					"inputs": [
						{
							"indexed": true,
							"internalType": "address",
							"name": "user",
							"type": "address"
						},
						{
							"indexed": false,
							"internalType": "uint256",
							"name": "",
							"type": "uint256"
						}
					],
					"name": "Deposit",
					"type": "event"
				},
				{
					"anonymous": false,
					"inputs": [
						{
							"indexed": true,
							"internalType": "address",
							"name": "user",
							"type": "address"
						},
						{
							"indexed": false,
							"internalType": "uint256",
							"name": "",
							"type": "uint256"
						}
					],
					"name": "Withdraw",
					"type": "event"
				},
				{
					"inputs": [],
					"name": "deposit",
					"outputs": [],
					"stateMutability": "payable",
					"type": "function"
				},
				{
					"inputs": [
						{
							"internalType": "address",
							"name": "_user",
							"type": "address"
						}
					],
					"name": "getBalance",
					"outputs": [
						{
							"internalType": "uint256",
							"name": "",
							"type": "uint256"
						}
					],
					"stateMutability": "view",
					"type": "function"
				},
				{
					"inputs": [
						{
							"internalType": "uint256",
							"name": "_amount",
							"type": "uint256"
						}
					],
					"name": "withdraw",
					"outputs": [],
					"stateMutability": "nonpayable",
					"type": "function"
				}
			],
			"devdoc": {
				"kind": "dev",
				"methods": {},
				"version": 1
			},
			"evm": {
				"assembly": "    /* \"contracts/12_ContractExoLive.sol\":57:795  contract ContractExoLive3 {... */\n  mstore(0x40, 0x80)\n  callvalue\n  dup1\n  iszero\n  tag_1\n  jumpi\n  revert(0x00, 0x00)\ntag_1:\n  pop\n  dataSize(sub_0)\n  dup1\n  dataOffset(sub_0)\n  0x00\n  codecopy\n  0x00\n  return\nstop\n\nsub_0: assembly {\n        /* \"contracts/12_ContractExoLive.sol\":57:795  contract ContractExoLive3 {... */\n      mstore(0x40, 0x80)\n      jumpi(tag_1, lt(calldatasize, 0x04))\n      shr(0xe0, calldataload(0x00))\n      dup1\n      0x2e1a7d4d\n      eq\n      tag_2\n      jumpi\n      dup1\n      0xd0e30db0\n      eq\n      tag_3\n      jumpi\n      dup1\n      0xf8b2cb4f\n      eq\n      tag_4\n      jumpi\n    tag_1:\n      revert(0x00, 0x00)\n        /* \"contracts/12_ContractExoLive.sol\":371:681  function withdraw(uint256 _amount) external {... */\n    tag_2:\n      callvalue\n      dup1\n      iszero\n      tag_5\n      jumpi\n      revert(0x00, 0x00)\n    tag_5:\n      pop\n      tag_6\n      0x04\n      dup1\n      calldatasize\n      sub\n      dup2\n      add\n      swap1\n      tag_7\n      swap2\n      swap1\n      tag_8\n      jump\t// in\n    tag_7:\n      tag_9\n      jump\t// in\n    tag_6:\n      stop\n        /* \"contracts/12_ContractExoLive.sol\":234:365  function deposit() external payable {... */\n    tag_3:\n      tag_10\n      tag_11\n      jump\t// in\n    tag_10:\n      stop\n        /* \"contracts/12_ContractExoLive.sol\":687:793  function getBalance(address _user) external view returns (uint256) {... */\n    tag_4:\n      callvalue\n      dup1\n      iszero\n      tag_12\n      jumpi\n      revert(0x00, 0x00)\n    tag_12:\n      pop\n      tag_13\n      0x04\n      dup1\n      calldatasize\n      sub\n      dup2\n      add\n      swap1\n      tag_14\n      swap2\n      swap1\n      tag_15\n      jump\t// in\n    tag_14:\n      tag_16\n      jump\t// in\n    tag_13:\n      mload(0x40)\n      tag_17\n      swap2\n      swap1\n      tag_18\n      jump\t// in\n    tag_17:\n      mload(0x40)\n      dup1\n      swap2\n      sub\n      swap1\n      return\n        /* \"contracts/12_ContractExoLive.sol\":371:681  function withdraw(uint256 _amount) external {... */\n    tag_9:\n        /* \"contracts/12_ContractExoLive.sol\":457:464  _amount */\n      dup1\n        /* \"contracts/12_ContractExoLive.sol\":433:441  balances */\n      0x00\n        /* \"contracts/12_ContractExoLive.sol\":433:453  balances[msg.sender] */\n      0x00\n        /* \"contracts/12_ContractExoLive.sol\":442:452  msg.sender */\n      caller\n        /* \"contracts/12_ContractExoLive.sol\":433:453  balances[msg.sender] */\n      0xffffffffffffffffffffffffffffffffffffffff\n      and\n      0xffffffffffffffffffffffffffffffffffffffff\n      and\n      dup2\n      mstore\n      0x20\n      add\n      swap1\n      dup2\n      mstore\n      0x20\n      add\n      0x00\n      keccak256\n      sload\n        /* \"contracts/12_ContractExoLive.sol\":433:464  balances[msg.sender] >= _amount */\n      lt\n      iszero\n        /* \"contracts/12_ContractExoLive.sol\":425:486  require(balances[msg.sender] >= _amount, \"You have no funds\") */\n      tag_20\n      jumpi\n      mload(0x40)\n      0x08c379a000000000000000000000000000000000000000000000000000000000\n      dup2\n      mstore\n      0x04\n      add\n      tag_21\n      swap1\n      tag_22\n      jump\t// in\n    tag_21:\n      mload(0x40)\n      dup1\n      swap2\n      sub\n      swap1\n      revert\n    tag_20:\n        /* \"contracts/12_ContractExoLive.sol\":520:527  _amount */\n      dup1\n        /* \"contracts/12_ContractExoLive.sol\":496:504  balances */\n      0x00\n        /* \"contracts/12_ContractExoLive.sol\":496:516  balances[msg.sender] */\n      0x00\n        /* \"contracts/12_ContractExoLive.sol\":505:515  msg.sender */\n      caller\n        /* \"contracts/12_ContractExoLive.sol\":496:516  balances[msg.sender] */\n      0xffffffffffffffffffffffffffffffffffffffff\n      and\n      0xffffffffffffffffffffffffffffffffffffffff\n      and\n      dup2\n      mstore\n      0x20\n      add\n      swap1\n      dup2\n      mstore\n      0x20\n      add\n      0x00\n      keccak256\n      0x00\n        /* \"contracts/12_ContractExoLive.sol\":496:527  balances[msg.sender] -= _amount */\n      dup3\n      dup3\n      sload\n      tag_23\n      swap2\n      swap1\n      tag_24\n      jump\t// in\n    tag_23:\n      swap3\n      pop\n      pop\n      dup2\n      swap1\n      sstore\n      pop\n        /* \"contracts/12_ContractExoLive.sol\":538:547  bool sent */\n      0x00\n        /* \"contracts/12_ContractExoLive.sol\":561:571  msg.sender */\n      caller\n        /* \"contracts/12_ContractExoLive.sol\":553:577  payable(msg.sender).call */\n      0xffffffffffffffffffffffffffffffffffffffff\n      and\n        /* \"contracts/12_ContractExoLive.sol\":585:592  _amount */\n      dup3\n        /* \"contracts/12_ContractExoLive.sol\":553:597  payable(msg.sender).call{value: _amount}(\"\") */\n      mload(0x40)\n      tag_25\n      swap1\n      tag_26\n      jump\t// in\n    tag_25:\n      0x00\n      mload(0x40)\n      dup1\n      dup4\n      sub\n      dup2\n      dup6\n      dup8\n      gas\n      call\n      swap3\n      pop\n      pop\n      pop\n      returndatasize\n      dup1\n      0x00\n      dup2\n      eq\n      tag_29\n      jumpi\n      mload(0x40)\n      swap2\n      pop\n      and(add(returndatasize, 0x3f), not(0x1f))\n      dup3\n      add\n      0x40\n      mstore\n      returndatasize\n      dup3\n      mstore\n      returndatasize\n      0x00\n      0x20\n      dup5\n      add\n      returndatacopy\n      jump(tag_28)\n    tag_29:\n      0x60\n      swap2\n      pop\n    tag_28:\n      pop\n        /* \"contracts/12_ContractExoLive.sol\":537:597  (bool sent, ) = payable(msg.sender).call{value: _amount}(\"\") */\n      pop\n      swap1\n      pop\n        /* \"contracts/12_ContractExoLive.sol\":615:619  sent */\n      dup1\n        /* \"contracts/12_ContractExoLive.sol\":607:630  require(sent, \"Failed\") */\n      tag_30\n      jumpi\n      mload(0x40)\n      0x08c379a000000000000000000000000000000000000000000000000000000000\n      dup2\n      mstore\n      0x04\n      add\n      tag_31\n      swap1\n      tag_32\n      jump\t// in\n    tag_31:\n      mload(0x40)\n      dup1\n      swap2\n      sub\n      swap1\n      revert\n    tag_30:\n        /* \"contracts/12_ContractExoLive.sol\":654:664  msg.sender */\n      caller\n        /* \"contracts/12_ContractExoLive.sol\":645:674  Withdraw(msg.sender, _amount) */\n      0xffffffffffffffffffffffffffffffffffffffff\n      and\n      0x884edad9ce6fa2440d8a54cc123490eb96d2768479d49ff9c7366125a9424364\n        /* \"contracts/12_ContractExoLive.sol\":666:673  _amount */\n      dup4\n        /* \"contracts/12_ContractExoLive.sol\":645:674  Withdraw(msg.sender, _amount) */\n      mload(0x40)\n      tag_33\n      swap2\n      swap1\n      tag_18\n      jump\t// in\n    tag_33:\n      mload(0x40)\n      dup1\n      swap2\n      sub\n      swap1\n      log2\n        /* \"contracts/12_ContractExoLive.sol\":415:681  {... */\n      pop\n        /* \"contracts/12_ContractExoLive.sol\":371:681  function withdraw(uint256 _amount) external {... */\n      pop\n      jump\t// out\n        /* \"contracts/12_ContractExoLive.sol\":234:365  function deposit() external payable {... */\n    tag_11:\n        /* \"contracts/12_ContractExoLive.sol\":304:313  msg.value */\n      callvalue\n        /* \"contracts/12_ContractExoLive.sol\":280:288  balances */\n      0x00\n        /* \"contracts/12_ContractExoLive.sol\":280:300  balances[msg.sender] */\n      0x00\n        /* \"contracts/12_ContractExoLive.sol\":289:299  msg.sender */\n      caller\n        /* \"contracts/12_ContractExoLive.sol\":280:300  balances[msg.sender] */\n      0xffffffffffffffffffffffffffffffffffffffff\n      and\n      0xffffffffffffffffffffffffffffffffffffffff\n      and\n      dup2\n      mstore\n      0x20\n      add\n      swap1\n      dup2\n      mstore\n      0x20\n      add\n      0x00\n      keccak256\n      0x00\n        /* \"contracts/12_ContractExoLive.sol\":280:313  balances[msg.sender] += msg.value */\n      dup3\n      dup3\n      sload\n      tag_35\n      swap2\n      swap1\n      tag_36\n      jump\t// in\n    tag_35:\n      swap3\n      pop\n      pop\n      dup2\n      swap1\n      sstore\n      pop\n        /* \"contracts/12_ContractExoLive.sol\":336:346  msg.sender */\n      caller\n        /* \"contracts/12_ContractExoLive.sol\":328:358  Deposit(msg.sender, msg.value) */\n      0xffffffffffffffffffffffffffffffffffffffff\n      and\n      0xe1fffcc4923d04b559f4d29a8bfc6cda04eb5b0d3c460751c2402c5c5cc9109c\n        /* \"contracts/12_ContractExoLive.sol\":348:357  msg.value */\n      callvalue\n        /* \"contracts/12_ContractExoLive.sol\":328:358  Deposit(msg.sender, msg.value) */\n      mload(0x40)\n      tag_37\n      swap2\n      swap1\n      tag_18\n      jump\t// in\n    tag_37:\n      mload(0x40)\n      dup1\n      swap2\n      sub\n      swap1\n      log2\n        /* \"contracts/12_ContractExoLive.sol\":234:365  function deposit() external payable {... */\n      jump\t// out\n        /* \"contracts/12_ContractExoLive.sol\":687:793  function getBalance(address _user) external view returns (uint256) {... */\n    tag_16:\n        /* \"contracts/12_ContractExoLive.sol\":745:752  uint256 */\n      0x00\n        /* \"contracts/12_ContractExoLive.sol\":771:779  balances */\n      0x00\n        /* \"contracts/12_ContractExoLive.sol\":771:786  balances[_user] */\n      0x00\n        /* \"contracts/12_ContractExoLive.sol\":780:785  _user */\n      dup4\n        /* \"contracts/12_ContractExoLive.sol\":771:786  balances[_user] */\n      0xffffffffffffffffffffffffffffffffffffffff\n      and\n      0xffffffffffffffffffffffffffffffffffffffff\n      and\n      dup2\n      mstore\n      0x20\n      add\n      swap1\n      dup2\n      mstore\n      0x20\n      add\n      0x00\n      keccak256\n      sload\n        /* \"contracts/12_ContractExoLive.sol\":764:786  return balances[_user] */\n      swap1\n      pop\n        /* \"contracts/12_ContractExoLive.sol\":687:793  function getBalance(address _user) external view returns (uint256) {... */\n      swap2\n      swap1\n      pop\n      jump\t// out\n        /* \"#utility.yul\":88:205   */\n    tag_40:\n        /* \"#utility.yul\":197:198   */\n      0x00\n        /* \"#utility.yul\":194:195   */\n      0x00\n        /* \"#utility.yul\":187:199   */\n      revert\n        /* \"#utility.yul\":334:411   */\n    tag_42:\n        /* \"#utility.yul\":371:378   */\n      0x00\n        /* \"#utility.yul\":400:405   */\n      dup2\n        /* \"#utility.yul\":389:405   */\n      swap1\n      pop\n        /* \"#utility.yul\":334:411   */\n      swap2\n      swap1\n      pop\n      jump\t// out\n        /* \"#utility.yul\":417:539   */\n    tag_43:\n        /* \"#utility.yul\":490:514   */\n      tag_65\n        /* \"#utility.yul\":508:513   */\n      dup2\n        /* \"#utility.yul\":490:514   */\n      tag_42\n      jump\t// in\n    tag_65:\n        /* \"#utility.yul\":483:488   */\n      dup2\n        /* \"#utility.yul\":480:515   */\n      eq\n        /* \"#utility.yul\":470:533   */\n      tag_66\n      jumpi\n        /* \"#utility.yul\":529:530   */\n      0x00\n        /* \"#utility.yul\":526:527   */\n      0x00\n        /* \"#utility.yul\":519:531   */\n      revert\n        /* \"#utility.yul\":470:533   */\n    tag_66:\n        /* \"#utility.yul\":417:539   */\n      pop\n      jump\t// out\n        /* \"#utility.yul\":545:684   */\n    tag_44:\n        /* \"#utility.yul\":591:596   */\n      0x00\n        /* \"#utility.yul\":629:635   */\n      dup2\n        /* \"#utility.yul\":616:636   */\n      calldataload\n        /* \"#utility.yul\":607:636   */\n      swap1\n      pop\n        /* \"#utility.yul\":645:678   */\n      tag_68\n        /* \"#utility.yul\":672:677   */\n      dup2\n        /* \"#utility.yul\":645:678   */\n      tag_43\n      jump\t// in\n    tag_68:\n        /* \"#utility.yul\":545:684   */\n      swap3\n      swap2\n      pop\n      pop\n      jump\t// out\n        /* \"#utility.yul\":690:1019   */\n    tag_8:\n        /* \"#utility.yul\":749:755   */\n      0x00\n        /* \"#utility.yul\":798:800   */\n      0x20\n        /* \"#utility.yul\":786:795   */\n      dup3\n        /* \"#utility.yul\":777:784   */\n      dup5\n        /* \"#utility.yul\":773:796   */\n      sub\n        /* \"#utility.yul\":769:801   */\n      slt\n        /* \"#utility.yul\":766:885   */\n      iszero\n      tag_70\n      jumpi\n        /* \"#utility.yul\":804:883   */\n      tag_71\n      tag_40\n      jump\t// in\n    tag_71:\n        /* \"#utility.yul\":766:885   */\n    tag_70:\n        /* \"#utility.yul\":924:925   */\n      0x00\n        /* \"#utility.yul\":949:1002   */\n      tag_72\n        /* \"#utility.yul\":994:1001   */\n      dup5\n        /* \"#utility.yul\":985:991   */\n      dup3\n        /* \"#utility.yul\":974:983   */\n      dup6\n        /* \"#utility.yul\":970:992   */\n      add\n        /* \"#utility.yul\":949:1002   */\n      tag_44\n      jump\t// in\n    tag_72:\n        /* \"#utility.yul\":939:1002   */\n      swap2\n      pop\n        /* \"#utility.yul\":895:1012   */\n      pop\n        /* \"#utility.yul\":690:1019   */\n      swap3\n      swap2\n      pop\n      pop\n      jump\t// out\n        /* \"#utility.yul\":1025:1151   */\n    tag_45:\n        /* \"#utility.yul\":1062:1069   */\n      0x00\n        /* \"#utility.yul\":1102:1144   */\n      0xffffffffffffffffffffffffffffffffffffffff\n        /* \"#utility.yul\":1095:1100   */\n      dup3\n        /* \"#utility.yul\":1091:1145   */\n      and\n        /* \"#utility.yul\":1080:1145   */\n      swap1\n      pop\n        /* \"#utility.yul\":1025:1151   */\n      swap2\n      swap1\n      pop\n      jump\t// out\n        /* \"#utility.yul\":1157:1253   */\n    tag_46:\n        /* \"#utility.yul\":1194:1201   */\n      0x00\n        /* \"#utility.yul\":1223:1247   */\n      tag_75\n        /* \"#utility.yul\":1241:1246   */\n      dup3\n        /* \"#utility.yul\":1223:1247   */\n      tag_45\n      jump\t// in\n    tag_75:\n        /* \"#utility.yul\":1212:1247   */\n      swap1\n      pop\n        /* \"#utility.yul\":1157:1253   */\n      swap2\n      swap1\n      pop\n      jump\t// out\n        /* \"#utility.yul\":1259:1381   */\n    tag_47:\n        /* \"#utility.yul\":1332:1356   */\n      tag_77\n        /* \"#utility.yul\":1350:1355   */\n      dup2\n        /* \"#utility.yul\":1332:1356   */\n      tag_46\n      jump\t// in\n    tag_77:\n        /* \"#utility.yul\":1325:1330   */\n      dup2\n        /* \"#utility.yul\":1322:1357   */\n      eq\n        /* \"#utility.yul\":1312:1375   */\n      tag_78\n      jumpi\n        /* \"#utility.yul\":1371:1372   */\n      0x00\n        /* \"#utility.yul\":1368:1369   */\n      0x00\n        /* \"#utility.yul\":1361:1373   */\n      revert\n        /* \"#utility.yul\":1312:1375   */\n    tag_78:\n        /* \"#utility.yul\":1259:1381   */\n      pop\n      jump\t// out\n        /* \"#utility.yul\":1387:1526   */\n    tag_48:\n        /* \"#utility.yul\":1433:1438   */\n      0x00\n        /* \"#utility.yul\":1471:1477   */\n      dup2\n        /* \"#utility.yul\":1458:1478   */\n      calldataload\n        /* \"#utility.yul\":1449:1478   */\n      swap1\n      pop\n        /* \"#utility.yul\":1487:1520   */\n      tag_80\n        /* \"#utility.yul\":1514:1519   */\n      dup2\n        /* \"#utility.yul\":1487:1520   */\n      tag_47\n      jump\t// in\n    tag_80:\n        /* \"#utility.yul\":1387:1526   */\n      swap3\n      swap2\n      pop\n      pop\n      jump\t// out\n        /* \"#utility.yul\":1532:1861   */\n    tag_15:\n        /* \"#utility.yul\":1591:1597   */\n      0x00\n        /* \"#utility.yul\":1640:1642   */\n      0x20\n        /* \"#utility.yul\":1628:1637   */\n      dup3\n        /* \"#utility.yul\":1619:1626   */\n      dup5\n        /* \"#utility.yul\":1615:1638   */\n      sub\n        /* \"#utility.yul\":1611:1643   */\n      slt\n        /* \"#utility.yul\":1608:1727   */\n      iszero\n      tag_82\n      jumpi\n        /* \"#utility.yul\":1646:1725   */\n      tag_83\n      tag_40\n      jump\t// in\n    tag_83:\n        /* \"#utility.yul\":1608:1727   */\n    tag_82:\n        /* \"#utility.yul\":1766:1767   */\n      0x00\n        /* \"#utility.yul\":1791:1844   */\n      tag_84\n        /* \"#utility.yul\":1836:1843   */\n      dup5\n        /* \"#utility.yul\":1827:1833   */\n      dup3\n        /* \"#utility.yul\":1816:1825   */\n      dup6\n        /* \"#utility.yul\":1812:1834   */\n      add\n        /* \"#utility.yul\":1791:1844   */\n      tag_48\n      jump\t// in\n    tag_84:\n        /* \"#utility.yul\":1781:1844   */\n      swap2\n      pop\n        /* \"#utility.yul\":1737:1854   */\n      pop\n        /* \"#utility.yul\":1532:1861   */\n      swap3\n      swap2\n      pop\n      pop\n      jump\t// out\n        /* \"#utility.yul\":1867:1985   */\n    tag_49:\n        /* \"#utility.yul\":1954:1978   */\n      tag_86\n        /* \"#utility.yul\":1972:1977   */\n      dup2\n        /* \"#utility.yul\":1954:1978   */\n      tag_42\n      jump\t// in\n    tag_86:\n        /* \"#utility.yul\":1949:1952   */\n      dup3\n        /* \"#utility.yul\":1942:1979   */\n      mstore\n        /* \"#utility.yul\":1867:1985   */\n      pop\n      pop\n      jump\t// out\n        /* \"#utility.yul\":1991:2213   */\n    tag_18:\n        /* \"#utility.yul\":2084:2088   */\n      0x00\n        /* \"#utility.yul\":2122:2124   */\n      0x20\n        /* \"#utility.yul\":2111:2120   */\n      dup3\n        /* \"#utility.yul\":2107:2125   */\n      add\n        /* \"#utility.yul\":2099:2125   */\n      swap1\n      pop\n        /* \"#utility.yul\":2135:2206   */\n      tag_88\n        /* \"#utility.yul\":2203:2204   */\n      0x00\n        /* \"#utility.yul\":2192:2201   */\n      dup4\n        /* \"#utility.yul\":2188:2205   */\n      add\n        /* \"#utility.yul\":2179:2185   */\n      dup5\n        /* \"#utility.yul\":2135:2206   */\n      tag_49\n      jump\t// in\n    tag_88:\n        /* \"#utility.yul\":1991:2213   */\n      swap3\n      swap2\n      pop\n      pop\n      jump\t// out\n        /* \"#utility.yul\":2219:2388   */\n    tag_50:\n        /* \"#utility.yul\":2303:2314   */\n      0x00\n        /* \"#utility.yul\":2337:2343   */\n      dup3\n        /* \"#utility.yul\":2332:2335   */\n      dup3\n        /* \"#utility.yul\":2325:2344   */\n      mstore\n        /* \"#utility.yul\":2377:2381   */\n      0x20\n        /* \"#utility.yul\":2372:2375   */\n      dup3\n        /* \"#utility.yul\":2368:2382   */\n      add\n        /* \"#utility.yul\":2353:2382   */\n      swap1\n      pop\n        /* \"#utility.yul\":2219:2388   */\n      swap3\n      swap2\n      pop\n      pop\n      jump\t// out\n        /* \"#utility.yul\":2394:2561   */\n    tag_51:\n        /* \"#utility.yul\":2534:2553   */\n      0x596f752068617665206e6f2066756e6473000000000000000000000000000000\n        /* \"#utility.yul\":2530:2531   */\n      0x00\n        /* \"#utility.yul\":2522:2528   */\n      dup3\n        /* \"#utility.yul\":2518:2532   */\n      add\n        /* \"#utility.yul\":2511:2554   */\n      mstore\n        /* \"#utility.yul\":2394:2561   */\n      pop\n      jump\t// out\n        /* \"#utility.yul\":2567:2933   */\n    tag_52:\n        /* \"#utility.yul\":2709:2712   */\n      0x00\n        /* \"#utility.yul\":2730:2797   */\n      tag_92\n        /* \"#utility.yul\":2794:2796   */\n      0x11\n        /* \"#utility.yul\":2789:2792   */\n      dup4\n        /* \"#utility.yul\":2730:2797   */\n      tag_50\n      jump\t// in\n    tag_92:\n        /* \"#utility.yul\":2723:2797   */\n      swap2\n      pop\n        /* \"#utility.yul\":2806:2899   */\n      tag_93\n        /* \"#utility.yul\":2895:2898   */\n      dup3\n        /* \"#utility.yul\":2806:2899   */\n      tag_51\n      jump\t// in\n    tag_93:\n        /* \"#utility.yul\":2924:2926   */\n      0x20\n        /* \"#utility.yul\":2919:2922   */\n      dup3\n        /* \"#utility.yul\":2915:2927   */\n      add\n        /* \"#utility.yul\":2908:2927   */\n      swap1\n      pop\n        /* \"#utility.yul\":2567:2933   */\n      swap2\n      swap1\n      pop\n      jump\t// out\n        /* \"#utility.yul\":2939:3358   */\n    tag_22:\n        /* \"#utility.yul\":3105:3109   */\n      0x00\n        /* \"#utility.yul\":3143:3145   */\n      0x20\n        /* \"#utility.yul\":3132:3141   */\n      dup3\n        /* \"#utility.yul\":3128:3146   */\n      add\n        /* \"#utility.yul\":3120:3146   */\n      swap1\n      pop\n        /* \"#utility.yul\":3192:3201   */\n      dup2\n        /* \"#utility.yul\":3186:3190   */\n      dup2\n        /* \"#utility.yul\":3182:3202   */\n      sub\n        /* \"#utility.yul\":3178:3179   */\n      0x00\n        /* \"#utility.yul\":3167:3176   */\n      dup4\n        /* \"#utility.yul\":3163:3180   */\n      add\n        /* \"#utility.yul\":3156:3203   */\n      mstore\n        /* \"#utility.yul\":3220:3351   */\n      tag_95\n        /* \"#utility.yul\":3346:3350   */\n      dup2\n        /* \"#utility.yul\":3220:3351   */\n      tag_52\n      jump\t// in\n    tag_95:\n        /* \"#utility.yul\":3212:3351   */\n      swap1\n      pop\n        /* \"#utility.yul\":2939:3358   */\n      swap2\n      swap1\n      pop\n      jump\t// out\n        /* \"#utility.yul\":3364:3544   */\n    tag_53:\n        /* \"#utility.yul\":3412:3489   */\n      0x4e487b7100000000000000000000000000000000000000000000000000000000\n        /* \"#utility.yul\":3409:3410   */\n      0x00\n        /* \"#utility.yul\":3402:3490   */\n      mstore\n        /* \"#utility.yul\":3509:3513   */\n      0x11\n        /* \"#utility.yul\":3506:3507   */\n      0x04\n        /* \"#utility.yul\":3499:3514   */\n      mstore\n        /* \"#utility.yul\":3533:3537   */\n      0x24\n        /* \"#utility.yul\":3530:3531   */\n      0x00\n        /* \"#utility.yul\":3523:3538   */\n      revert\n        /* \"#utility.yul\":3550:3744   */\n    tag_24:\n        /* \"#utility.yul\":3590:3594   */\n      0x00\n        /* \"#utility.yul\":3610:3630   */\n      tag_98\n        /* \"#utility.yul\":3628:3629   */\n      dup3\n        /* \"#utility.yul\":3610:3630   */\n      tag_42\n      jump\t// in\n    tag_98:\n        /* \"#utility.yul\":3605:3630   */\n      swap2\n      pop\n        /* \"#utility.yul\":3644:3664   */\n      tag_99\n        /* \"#utility.yul\":3662:3663   */\n      dup4\n        /* \"#utility.yul\":3644:3664   */\n      tag_42\n      jump\t// in\n    tag_99:\n        /* \"#utility.yul\":3639:3664   */\n      swap3\n      pop\n        /* \"#utility.yul\":3688:3689   */\n      dup3\n        /* \"#utility.yul\":3685:3686   */\n      dup3\n        /* \"#utility.yul\":3681:3690   */\n      sub\n        /* \"#utility.yul\":3673:3690   */\n      swap1\n      pop\n        /* \"#utility.yul\":3712:3713   */\n      dup2\n        /* \"#utility.yul\":3706:3710   */\n      dup2\n        /* \"#utility.yul\":3703:3714   */\n      gt\n        /* \"#utility.yul\":3700:3737   */\n      iszero\n      tag_100\n      jumpi\n        /* \"#utility.yul\":3717:3735   */\n      tag_101\n      tag_53\n      jump\t// in\n    tag_101:\n        /* \"#utility.yul\":3700:3737   */\n    tag_100:\n        /* \"#utility.yul\":3550:3744   */\n      swap3\n      swap2\n      pop\n      pop\n      jump\t// out\n        /* \"#utility.yul\":3750:3897   */\n    tag_54:\n        /* \"#utility.yul\":3851:3862   */\n      0x00\n        /* \"#utility.yul\":3888:3891   */\n      dup2\n        /* \"#utility.yul\":3873:3891   */\n      swap1\n      pop\n        /* \"#utility.yul\":3750:3897   */\n      swap3\n      swap2\n      pop\n      pop\n      jump\t// out\n        /* \"#utility.yul\":3903:4017   */\n    tag_55:\n      pop\n      jump\t// out\n        /* \"#utility.yul\":4023:4421   */\n    tag_56:\n        /* \"#utility.yul\":4182:4185   */\n      0x00\n        /* \"#utility.yul\":4203:4286   */\n      tag_105\n        /* \"#utility.yul\":4284:4285   */\n      0x00\n        /* \"#utility.yul\":4279:4282   */\n      dup4\n        /* \"#utility.yul\":4203:4286   */\n      tag_54\n      jump\t// in\n    tag_105:\n        /* \"#utility.yul\":4196:4286   */\n      swap2\n      pop\n        /* \"#utility.yul\":4295:4388   */\n      tag_106\n        /* \"#utility.yul\":4384:4387   */\n      dup3\n        /* \"#utility.yul\":4295:4388   */\n      tag_55\n      jump\t// in\n    tag_106:\n        /* \"#utility.yul\":4413:4414   */\n      0x00\n        /* \"#utility.yul\":4408:4411   */\n      dup3\n        /* \"#utility.yul\":4404:4415   */\n      add\n        /* \"#utility.yul\":4397:4415   */\n      swap1\n      pop\n        /* \"#utility.yul\":4023:4421   */\n      swap2\n      swap1\n      pop\n      jump\t// out\n        /* \"#utility.yul\":4427:4806   */\n    tag_26:\n        /* \"#utility.yul\":4611:4614   */\n      0x00\n        /* \"#utility.yul\":4633:4780   */\n      tag_108\n        /* \"#utility.yul\":4776:4779   */\n      dup3\n        /* \"#utility.yul\":4633:4780   */\n      tag_56\n      jump\t// in\n    tag_108:\n        /* \"#utility.yul\":4626:4780   */\n      swap2\n      pop\n        /* \"#utility.yul\":4797:4800   */\n      dup2\n        /* \"#utility.yul\":4790:4800   */\n      swap1\n      pop\n        /* \"#utility.yul\":4427:4806   */\n      swap2\n      swap1\n      pop\n      jump\t// out\n        /* \"#utility.yul\":4812:4968   */\n    tag_57:\n        /* \"#utility.yul\":4952:4960   */\n      0x4661696c65640000000000000000000000000000000000000000000000000000\n        /* \"#utility.yul\":4948:4949   */\n      0x00\n        /* \"#utility.yul\":4940:4946   */\n      dup3\n        /* \"#utility.yul\":4936:4950   */\n      add\n        /* \"#utility.yul\":4929:4961   */\n      mstore\n        /* \"#utility.yul\":4812:4968   */\n      pop\n      jump\t// out\n        /* \"#utility.yul\":4974:5339   */\n    tag_58:\n        /* \"#utility.yul\":5116:5119   */\n      0x00\n        /* \"#utility.yul\":5137:5203   */\n      tag_111\n        /* \"#utility.yul\":5201:5202   */\n      0x06\n        /* \"#utility.yul\":5196:5199   */\n      dup4\n        /* \"#utility.yul\":5137:5203   */\n      tag_50\n      jump\t// in\n    tag_111:\n        /* \"#utility.yul\":5130:5203   */\n      swap2\n      pop\n        /* \"#utility.yul\":5212:5305   */\n      tag_112\n        /* \"#utility.yul\":5301:5304   */\n      dup3\n        /* \"#utility.yul\":5212:5305   */\n      tag_57\n      jump\t// in\n    tag_112:\n        /* \"#utility.yul\":5330:5332   */\n      0x20\n        /* \"#utility.yul\":5325:5328   */\n      dup3\n        /* \"#utility.yul\":5321:5333   */\n      add\n        /* \"#utility.yul\":5314:5333   */\n      swap1\n      pop\n        /* \"#utility.yul\":4974:5339   */\n      swap2\n      swap1\n      pop\n      jump\t// out\n        /* \"#utility.yul\":5345:5764   */\n    tag_32:\n        /* \"#utility.yul\":5511:5515   */\n      0x00\n        /* \"#utility.yul\":5549:5551   */\n      0x20\n        /* \"#utility.yul\":5538:5547   */\n      dup3\n        /* \"#utility.yul\":5534:5552   */\n      add\n        /* \"#utility.yul\":5526:5552   */\n      swap1\n      pop\n        /* \"#utility.yul\":5598:5607   */\n      dup2\n        /* \"#utility.yul\":5592:5596   */\n      dup2\n        /* \"#utility.yul\":5588:5608   */\n      sub\n        /* \"#utility.yul\":5584:5585   */\n      0x00\n        /* \"#utility.yul\":5573:5582   */\n      dup4\n        /* \"#utility.yul\":5569:5586   */\n      add\n        /* \"#utility.yul\":5562:5609   */\n      mstore\n        /* \"#utility.yul\":5626:5757   */\n      tag_114\n        /* \"#utility.yul\":5752:5756   */\n      dup2\n        /* \"#utility.yul\":5626:5757   */\n      tag_58\n      jump\t// in\n    tag_114:\n        /* \"#utility.yul\":5618:5757   */\n      swap1\n      pop\n        /* \"#utility.yul\":5345:5764   */\n      swap2\n      swap1\n      pop\n      jump\t// out\n        /* \"#utility.yul\":5770:5961   */\n    tag_36:\n        /* \"#utility.yul\":5810:5813   */\n      0x00\n        /* \"#utility.yul\":5829:5849   */\n      tag_116\n        /* \"#utility.yul\":5847:5848   */\n      dup3\n        /* \"#utility.yul\":5829:5849   */\n      tag_42\n      jump\t// in\n    tag_116:\n        /* \"#utility.yul\":5824:5849   */\n      swap2\n      pop\n        /* \"#utility.yul\":5863:5883   */\n      tag_117\n        /* \"#utility.yul\":5881:5882   */\n      dup4\n        /* \"#utility.yul\":5863:5883   */\n      tag_42\n      jump\t// in\n    tag_117:\n        /* \"#utility.yul\":5858:5883   */\n      swap3\n      pop\n        /* \"#utility.yul\":5906:5907   */\n      dup3\n        /* \"#utility.yul\":5903:5904   */\n      dup3\n        /* \"#utility.yul\":5899:5908   */\n      add\n        /* \"#utility.yul\":5892:5908   */\n      swap1\n      pop\n        /* \"#utility.yul\":5927:5930   */\n      dup1\n        /* \"#utility.yul\":5924:5925   */\n      dup3\n        /* \"#utility.yul\":5921:5931   */\n      gt\n        /* \"#utility.yul\":5918:5954   */\n      iszero\n      tag_118\n      jumpi\n        /* \"#utility.yul\":5934:5952   */\n      tag_119\n      tag_53\n      jump\t// in\n    tag_119:\n        /* \"#utility.yul\":5918:5954   */\n    tag_118:\n        /* \"#utility.yul\":5770:5961   */\n      swap3\n      swap2\n      pop\n      pop\n      jump\t// out\n\n    auxdata: 0xa2646970667358221220facefee16c7580c392715896fb83beb3a6d6f499a5b8c65cf312effdb80ed4d464736f6c634300081b0033\n}\n",
				"bytecode": {
					"linkReferences": {},
					"object": "6080604052348015600e575f5ffd5b506106508061001c5f395ff3fe608060405260043610610033575f3560e01c80632e1a7d4d14610037578063d0e30db01461005f578063f8b2cb4f14610069575b5f5ffd5b348015610042575f5ffd5b5061005d6004803603810190610058919061038e565b6100a5565b005b610067610270565b005b348015610074575f5ffd5b5061008f600480360381019061008a9190610413565b610312565b60405161009c919061044d565b60405180910390f35b805f5f3373ffffffffffffffffffffffffffffffffffffffff1673ffffffffffffffffffffffffffffffffffffffff1681526020019081526020015f20541015610124576040517f08c379a000000000000000000000000000000000000000000000000000000000815260040161011b906104c0565b60405180910390fd5b805f5f3373ffffffffffffffffffffffffffffffffffffffff1673ffffffffffffffffffffffffffffffffffffffff1681526020019081526020015f205f82825461016f919061050b565b925050819055505f3373ffffffffffffffffffffffffffffffffffffffff168260405161019b9061056b565b5f6040518083038185875af1925050503d805f81146101d5576040519150601f19603f3d011682016040523d82523d5f602084013e6101da565b606091505b505090508061021e576040517f08c379a0000000000000000000000000000000000000000000000000000000008152600401610215906105c9565b60405180910390fd5b3373ffffffffffffffffffffffffffffffffffffffff167f884edad9ce6fa2440d8a54cc123490eb96d2768479d49ff9c7366125a942436483604051610264919061044d565b60405180910390a25050565b345f5f3373ffffffffffffffffffffffffffffffffffffffff1673ffffffffffffffffffffffffffffffffffffffff1681526020019081526020015f205f8282546102bb91906105e7565b925050819055503373ffffffffffffffffffffffffffffffffffffffff167fe1fffcc4923d04b559f4d29a8bfc6cda04eb5b0d3c460751c2402c5c5cc9109c34604051610308919061044d565b60405180910390a2565b5f5f5f8373ffffffffffffffffffffffffffffffffffffffff1673ffffffffffffffffffffffffffffffffffffffff1681526020019081526020015f20549050919050565b5f5ffd5b5f819050919050565b61036d8161035b565b8114610377575f5ffd5b50565b5f8135905061038881610364565b92915050565b5f602082840312156103a3576103a2610357565b5b5f6103b08482850161037a565b91505092915050565b5f73ffffffffffffffffffffffffffffffffffffffff82169050919050565b5f6103e2826103b9565b9050919050565b6103f2816103d8565b81146103fc575f5ffd5b50565b5f8135905061040d816103e9565b92915050565b5f6020828403121561042857610427610357565b5b5f610435848285016103ff565b91505092915050565b6104478161035b565b82525050565b5f6020820190506104605f83018461043e565b92915050565b5f82825260208201905092915050565b7f596f752068617665206e6f2066756e64730000000000000000000000000000005f82015250565b5f6104aa601183610466565b91506104b582610476565b602082019050919050565b5f6020820190508181035f8301526104d78161049e565b9050919050565b7f4e487b71000000000000000000000000000000000000000000000000000000005f52601160045260245ffd5b5f6105158261035b565b91506105208361035b565b9250828203905081811115610538576105376104de565b5b92915050565b5f81905092915050565b50565b5f6105565f8361053e565b915061056182610548565b5f82019050919050565b5f6105758261054b565b9150819050919050565b7f4661696c656400000000000000000000000000000000000000000000000000005f82015250565b5f6105b3600683610466565b91506105be8261057f565b602082019050919050565b5f6020820190508181035f8301526105e0816105a7565b9050919050565b5f6105f18261035b565b91506105fc8361035b565b9250828201905080821115610614576106136104de565b5b9291505056fea2646970667358221220facefee16c7580c392715896fb83beb3a6d6f499a5b8c65cf312effdb80ed4d464736f6c634300081b0033",
					"opcodes": "PUSH1 0x80 PUSH1 0x40 MSTORE CALLVALUE DUP1 ISZERO PUSH1 0xE JUMPI PUSH0 PUSH0 REVERT JUMPDEST POP PUSH2 0x650 DUP1 PUSH2 0x1C PUSH0 CODECOPY PUSH0 RETURN INVALID PUSH1 0x80 PUSH1 0x40 MSTORE PUSH1 0x4 CALLDATASIZE LT PUSH2 0x33 JUMPI PUSH0 CALLDATALOAD PUSH1 0xE0 SHR DUP1 PUSH4 0x2E1A7D4D EQ PUSH2 0x37 JUMPI DUP1 PUSH4 0xD0E30DB0 EQ PUSH2 0x5F JUMPI DUP1 PUSH4 0xF8B2CB4F EQ PUSH2 0x69 JUMPI JUMPDEST PUSH0 PUSH0 REVERT JUMPDEST CALLVALUE DUP1 ISZERO PUSH2 0x42 JUMPI PUSH0 PUSH0 REVERT JUMPDEST POP PUSH2 0x5D PUSH1 0x4 DUP1 CALLDATASIZE SUB DUP2 ADD SWAP1 PUSH2 0x58 SWAP2 SWAP1 PUSH2 0x38E JUMP JUMPDEST PUSH2 0xA5 JUMP JUMPDEST STOP JUMPDEST PUSH2 0x67 PUSH2 0x270 JUMP JUMPDEST STOP JUMPDEST CALLVALUE DUP1 ISZERO PUSH2 0x74 JUMPI PUSH0 PUSH0 REVERT JUMPDEST POP PUSH2 0x8F PUSH1 0x4 DUP1 CALLDATASIZE SUB DUP2 ADD SWAP1 PUSH2 0x8A SWAP2 SWAP1 PUSH2 0x413 JUMP JUMPDEST PUSH2 0x312 JUMP JUMPDEST PUSH1 0x40 MLOAD PUSH2 0x9C SWAP2 SWAP1 PUSH2 0x44D JUMP JUMPDEST PUSH1 0x40 MLOAD DUP1 SWAP2 SUB SWAP1 RETURN JUMPDEST DUP1 PUSH0 PUSH0 CALLER PUSH20 0xFFFFFFFFFFFFFFFFFFFFFFFFFFFFFFFFFFFFFFFF AND PUSH20 0xFFFFFFFFFFFFFFFFFFFFFFFFFFFFFFFFFFFFFFFF AND DUP2 MSTORE PUSH1 0x20 ADD SWAP1 DUP2 MSTORE PUSH1 0x20 ADD PUSH0 KECCAK256 SLOAD LT ISZERO PUSH2 0x124 JUMPI PUSH1 0x40 MLOAD PUSH32 0x8C379A000000000000000000000000000000000000000000000000000000000 DUP2 MSTORE PUSH1 0x4 ADD PUSH2 0x11B SWAP1 PUSH2 0x4C0 JUMP JUMPDEST PUSH1 0x40 MLOAD DUP1 SWAP2 SUB SWAP1 REVERT JUMPDEST DUP1 PUSH0 PUSH0 CALLER PUSH20 0xFFFFFFFFFFFFFFFFFFFFFFFFFFFFFFFFFFFFFFFF AND PUSH20 0xFFFFFFFFFFFFFFFFFFFFFFFFFFFFFFFFFFFFFFFF AND DUP2 MSTORE PUSH1 0x20 ADD SWAP1 DUP2 MSTORE PUSH1 0x20 ADD PUSH0 KECCAK256 PUSH0 DUP3 DUP3 SLOAD PUSH2 0x16F SWAP2 SWAP1 PUSH2 0x50B JUMP JUMPDEST SWAP3 POP POP DUP2 SWAP1 SSTORE POP PUSH0 CALLER PUSH20 0xFFFFFFFFFFFFFFFFFFFFFFFFFFFFFFFFFFFFFFFF AND DUP3 PUSH1 0x40 MLOAD PUSH2 0x19B SWAP1 PUSH2 0x56B JUMP JUMPDEST PUSH0 PUSH1 0x40 MLOAD DUP1 DUP4 SUB DUP2 DUP6 DUP8 GAS CALL SWAP3 POP POP POP RETURNDATASIZE DUP1 PUSH0 DUP2 EQ PUSH2 0x1D5 JUMPI PUSH1 0x40 MLOAD SWAP2 POP PUSH1 0x1F NOT PUSH1 0x3F RETURNDATASIZE ADD AND DUP3 ADD PUSH1 0x40 MSTORE RETURNDATASIZE DUP3 MSTORE RETURNDATASIZE PUSH0 PUSH1 0x20 DUP5 ADD RETURNDATACOPY PUSH2 0x1DA JUMP JUMPDEST PUSH1 0x60 SWAP2 POP JUMPDEST POP POP SWAP1 POP DUP1 PUSH2 0x21E JUMPI PUSH1 0x40 MLOAD PUSH32 0x8C379A000000000000000000000000000000000000000000000000000000000 DUP2 MSTORE PUSH1 0x4 ADD PUSH2 0x215 SWAP1 PUSH2 0x5C9 JUMP JUMPDEST PUSH1 0x40 MLOAD DUP1 SWAP2 SUB SWAP1 REVERT JUMPDEST CALLER PUSH20 0xFFFFFFFFFFFFFFFFFFFFFFFFFFFFFFFFFFFFFFFF AND PUSH32 0x884EDAD9CE6FA2440D8A54CC123490EB96D2768479D49FF9C7366125A9424364 DUP4 PUSH1 0x40 MLOAD PUSH2 0x264 SWAP2 SWAP1 PUSH2 0x44D JUMP JUMPDEST PUSH1 0x40 MLOAD DUP1 SWAP2 SUB SWAP1 LOG2 POP POP JUMP JUMPDEST CALLVALUE PUSH0 PUSH0 CALLER PUSH20 0xFFFFFFFFFFFFFFFFFFFFFFFFFFFFFFFFFFFFFFFF AND PUSH20 0xFFFFFFFFFFFFFFFFFFFFFFFFFFFFFFFFFFFFFFFF AND DUP2 MSTORE PUSH1 0x20 ADD SWAP1 DUP2 MSTORE PUSH1 0x20 ADD PUSH0 KECCAK256 PUSH0 DUP3 DUP3 SLOAD PUSH2 0x2BB SWAP2 SWAP1 PUSH2 0x5E7 JUMP JUMPDEST SWAP3 POP POP DUP2 SWAP1 SSTORE POP CALLER PUSH20 0xFFFFFFFFFFFFFFFFFFFFFFFFFFFFFFFFFFFFFFFF AND PUSH32 0xE1FFFCC4923D04B559F4D29A8BFC6CDA04EB5B0D3C460751C2402C5C5CC9109C CALLVALUE PUSH1 0x40 MLOAD PUSH2 0x308 SWAP2 SWAP1 PUSH2 0x44D JUMP JUMPDEST PUSH1 0x40 MLOAD DUP1 SWAP2 SUB SWAP1 LOG2 JUMP JUMPDEST PUSH0 PUSH0 PUSH0 DUP4 PUSH20 0xFFFFFFFFFFFFFFFFFFFFFFFFFFFFFFFFFFFFFFFF AND PUSH20 0xFFFFFFFFFFFFFFFFFFFFFFFFFFFFFFFFFFFFFFFF AND DUP2 MSTORE PUSH1 0x20 ADD SWAP1 DUP2 MSTORE PUSH1 0x20 ADD PUSH0 KECCAK256 SLOAD SWAP1 POP SWAP2 SWAP1 POP JUMP JUMPDEST PUSH0 PUSH0 REVERT JUMPDEST PUSH0 DUP2 SWAP1 POP SWAP2 SWAP1 POP JUMP JUMPDEST PUSH2 0x36D DUP2 PUSH2 0x35B JUMP JUMPDEST DUP2 EQ PUSH2 0x377 JUMPI PUSH0 PUSH0 REVERT JUMPDEST POP JUMP JUMPDEST PUSH0 DUP2 CALLDATALOAD SWAP1 POP PUSH2 0x388 DUP2 PUSH2 0x364 JUMP JUMPDEST SWAP3 SWAP2 POP POP JUMP JUMPDEST PUSH0 PUSH1 0x20 DUP3 DUP5 SUB SLT ISZERO PUSH2 0x3A3 JUMPI PUSH2 0x3A2 PUSH2 0x357 JUMP JUMPDEST JUMPDEST PUSH0 PUSH2 0x3B0 DUP5 DUP3 DUP6 ADD PUSH2 0x37A JUMP JUMPDEST SWAP2 POP POP SWAP3 SWAP2 POP POP JUMP JUMPDEST PUSH0 PUSH20 0xFFFFFFFFFFFFFFFFFFFFFFFFFFFFFFFFFFFFFFFF DUP3 AND SWAP1 POP SWAP2 SWAP1 POP JUMP JUMPDEST PUSH0 PUSH2 0x3E2 DUP3 PUSH2 0x3B9 JUMP JUMPDEST SWAP1 POP SWAP2 SWAP1 POP JUMP JUMPDEST PUSH2 0x3F2 DUP2 PUSH2 0x3D8 JUMP JUMPDEST DUP2 EQ PUSH2 0x3FC JUMPI PUSH0 PUSH0 REVERT JUMPDEST POP JUMP JUMPDEST PUSH0 DUP2 CALLDATALOAD SWAP1 POP PUSH2 0x40D DUP2 PUSH2 0x3E9 JUMP JUMPDEST SWAP3 SWAP2 POP POP JUMP JUMPDEST PUSH0 PUSH1 0x20 DUP3 DUP5 SUB SLT ISZERO PUSH2 0x428 JUMPI PUSH2 0x427 PUSH2 0x357 JUMP JUMPDEST JUMPDEST PUSH0 PUSH2 0x435 DUP5 DUP3 DUP6 ADD PUSH2 0x3FF JUMP JUMPDEST SWAP2 POP POP SWAP3 SWAP2 POP POP JUMP JUMPDEST PUSH2 0x447 DUP2 PUSH2 0x35B JUMP JUMPDEST DUP3 MSTORE POP POP JUMP JUMPDEST PUSH0 PUSH1 0x20 DUP3 ADD SWAP1 POP PUSH2 0x460 PUSH0 DUP4 ADD DUP5 PUSH2 0x43E JUMP JUMPDEST SWAP3 SWAP2 POP POP JUMP JUMPDEST PUSH0 DUP3 DUP3 MSTORE PUSH1 0x20 DUP3 ADD SWAP1 POP SWAP3 SWAP2 POP POP JUMP JUMPDEST PUSH32 0x596F752068617665206E6F2066756E6473000000000000000000000000000000 PUSH0 DUP3 ADD MSTORE POP JUMP JUMPDEST PUSH0 PUSH2 0x4AA PUSH1 0x11 DUP4 PUSH2 0x466 JUMP JUMPDEST SWAP2 POP PUSH2 0x4B5 DUP3 PUSH2 0x476 JUMP JUMPDEST PUSH1 0x20 DUP3 ADD SWAP1 POP SWAP2 SWAP1 POP JUMP JUMPDEST PUSH0 PUSH1 0x20 DUP3 ADD SWAP1 POP DUP2 DUP2 SUB PUSH0 DUP4 ADD MSTORE PUSH2 0x4D7 DUP2 PUSH2 0x49E JUMP JUMPDEST SWAP1 POP SWAP2 SWAP1 POP JUMP JUMPDEST PUSH32 0x4E487B7100000000000000000000000000000000000000000000000000000000 PUSH0 MSTORE PUSH1 0x11 PUSH1 0x4 MSTORE PUSH1 0x24 PUSH0 REVERT JUMPDEST PUSH0 PUSH2 0x515 DUP3 PUSH2 0x35B JUMP JUMPDEST SWAP2 POP PUSH2 0x520 DUP4 PUSH2 0x35B JUMP JUMPDEST SWAP3 POP DUP3 DUP3 SUB SWAP1 POP DUP2 DUP2 GT ISZERO PUSH2 0x538 JUMPI PUSH2 0x537 PUSH2 0x4DE JUMP JUMPDEST JUMPDEST SWAP3 SWAP2 POP POP JUMP JUMPDEST PUSH0 DUP2 SWAP1 POP SWAP3 SWAP2 POP POP JUMP JUMPDEST POP JUMP JUMPDEST PUSH0 PUSH2 0x556 PUSH0 DUP4 PUSH2 0x53E JUMP JUMPDEST SWAP2 POP PUSH2 0x561 DUP3 PUSH2 0x548 JUMP JUMPDEST PUSH0 DUP3 ADD SWAP1 POP SWAP2 SWAP1 POP JUMP JUMPDEST PUSH0 PUSH2 0x575 DUP3 PUSH2 0x54B JUMP JUMPDEST SWAP2 POP DUP2 SWAP1 POP SWAP2 SWAP1 POP JUMP JUMPDEST PUSH32 0x4661696C65640000000000000000000000000000000000000000000000000000 PUSH0 DUP3 ADD MSTORE POP JUMP JUMPDEST PUSH0 PUSH2 0x5B3 PUSH1 0x6 DUP4 PUSH2 0x466 JUMP JUMPDEST SWAP2 POP PUSH2 0x5BE DUP3 PUSH2 0x57F JUMP JUMPDEST PUSH1 0x20 DUP3 ADD SWAP1 POP SWAP2 SWAP1 POP JUMP JUMPDEST PUSH0 PUSH1 0x20 DUP3 ADD SWAP1 POP DUP2 DUP2 SUB PUSH0 DUP4 ADD MSTORE PUSH2 0x5E0 DUP2 PUSH2 0x5A7 JUMP JUMPDEST SWAP1 POP SWAP2 SWAP1 POP JUMP JUMPDEST PUSH0 PUSH2 0x5F1 DUP3 PUSH2 0x35B JUMP JUMPDEST SWAP2 POP PUSH2 0x5FC DUP4 PUSH2 0x35B JUMP JUMPDEST SWAP3 POP DUP3 DUP3 ADD SWAP1 POP DUP1 DUP3 GT ISZERO PUSH2 0x614 JUMPI PUSH2 0x613 PUSH2 0x4DE JUMP JUMPDEST JUMPDEST SWAP3 SWAP2 POP POP JUMP INVALID LOG2 PUSH5 0x6970667358 0x22 SLT KECCAK256 STATICCALL 0xCE INVALID 0xE1 PUSH13 0x7580C392715896FB83BEB3A6D6 DELEGATECALL SWAP10 0xA5 0xB8 0xC6 TLOAD RETURN SLT 0xEF REVERT 0xB8 0xE 0xD4 0xD4 PUSH5 0x736F6C6343 STOP ADDMOD SHL STOP CALLER "
				},
				"gasEstimates": {
					"creation": {
						"codeDepositCost": "323200",
						"executionCost": "360",
						"totalCost": "323560"
					},
					"external": {
						"deposit()": "infinite",
						"getBalance(address)": "2850",
						"withdraw(uint256)": "infinite"
					}
				},
				"methodIdentifiers": {
					"deposit()": "d0e30db0",
					"getBalance(address)": "f8b2cb4f",
					"withdraw(uint256)": "2e1a7d4d"
				}
			},
			"storageLayout": {
				"storage": [
					{
						"astId": 5,
						"contract": "contracts/12_ContractExoLive.sol:ContractExoLive3",
						"label": "balances",
						"offset": 0,
						"slot": "0",
						"type": "t_mapping(t_address,t_uint256)"
					}
				],
				"types": {
					"t_address": {
						"encoding": "inplace",
						"label": "address",
						"numberOfBytes": "20"
					},
					"t_mapping(t_address,t_uint256)": {
						"encoding": "mapping",
						"key": "t_address",
						"label": "mapping(address => uint256)",
						"numberOfBytes": "32",
						"value": "t_uint256"
					},
					"t_uint256": {
						"encoding": "inplace",
						"label": "uint256",
						"numberOfBytes": "32"
					}
				}
			},
			"userdoc": {
				"kind": "user",
				"methods": {},
				"version": 1
			}
		}
	}
}