{
	"contracts/15_ContractExoLive.sol": {
		"ContractExoLive61": {
			"abi": [
				{
					"inputs": [
						{
							"internalType": "uint256",
							"name": "_nombre",
							"type": "uint256"
						}
					],
					"name": "addNombres",
					"outputs": [],
					"stateMutability": "nonpayable",
					"type": "function"
				},
				{
					"inputs": [
						{
							"internalType": "uint256",
							"name": "_index",
							"type": "uint256"
						}
					],
					"name": "deleteValue",
					"outputs": [],
					"stateMutability": "nonpayable",
					"type": "function"
				},
				{
					"inputs": [
						{
							"internalType": "uint256",
							"name": "",
							"type": "uint256"
						}
					],
					"name": "nombres",
					"outputs": [
						{
							"internalType": "uint256",
							"name": "",
							"type": "uint256"
						}
					],
					"stateMutability": "view",
					"type": "function"
				}
			],
			"devdoc": {
				"kind": "dev",
				"methods": {},
				"version": 1
			},
			"evm": {
				"assembly": "    /* \"contracts/15_ContractExoLive.sol\":476:764  contract ContractExoLive61 {... */\n  mstore(0x40, 0x80)\n  callvalue\n  dup1\n  iszero\n  tag_1\n  jumpi\n  revert(0x00, 0x00)\ntag_1:\n  pop\n  dataSize(sub_0)\n  dup1\n  dataOffset(sub_0)\n  0x00\n  codecopy\n  0x00\n  return\nstop\n\nsub_0: assembly {\n        /* \"contracts/15_ContractExoLive.sol\":476:764  contract ContractExoLive61 {... */\n      mstore(0x40, 0x80)\n      callvalue\n      dup1\n      iszero\n      tag_1\n      jumpi\n      revert(0x00, 0x00)\n    tag_1:\n      pop\n      jumpi(tag_2, lt(calldatasize, 0x04))\n      shr(0xe0, calldataload(0x00))\n      dup1\n      0x0cf3dfd9\n      eq\n      tag_3\n      jumpi\n      dup1\n      0x7692fb5f\n      eq\n      tag_4\n      jumpi\n      dup1\n      0xa7521982\n      eq\n      tag_5\n      jumpi\n    tag_2:\n      revert(0x00, 0x00)\n        /* \"contracts/15_ContractExoLive.sol\":628:762  function deleteValue(uint256 _index) public {... */\n    tag_3:\n      tag_6\n      0x04\n      dup1\n      calldatasize\n      sub\n      dup2\n      add\n      swap1\n      tag_7\n      swap2\n      swap1\n      tag_8\n      jump\t// in\n    tag_7:\n      tag_9\n      jump\t// in\n    tag_6:\n      stop\n        /* \"contracts/15_ContractExoLive.sol\":509:533  uint256[] public nombres */\n    tag_4:\n      tag_10\n      0x04\n      dup1\n      calldatasize\n      sub\n      dup2\n      add\n      swap1\n      tag_11\n      swap2\n      swap1\n      tag_8\n      jump\t// in\n    tag_11:\n      tag_12\n      jump\t// in\n    tag_10:\n      mload(0x40)\n      tag_13\n      swap2\n      swap1\n      tag_14\n      jump\t// in\n    tag_13:\n      mload(0x40)\n      dup1\n      swap2\n      sub\n      swap1\n      return\n        /* \"contracts/15_ContractExoLive.sol\":540:622  function addNombres(uint256 _nombre) public {... */\n    tag_5:\n      tag_15\n      0x04\n      dup1\n      calldatasize\n      sub\n      dup2\n      add\n      swap1\n      tag_16\n      swap2\n      swap1\n      tag_8\n      jump\t// in\n    tag_16:\n      tag_17\n      jump\t// in\n    tag_15:\n      stop\n        /* \"contracts/15_ContractExoLive.sol\":628:762  function deleteValue(uint256 _index) public {... */\n    tag_9:\n        /* \"contracts/15_ContractExoLive.sol\":689:696  nombres */\n      0x00\n        /* \"contracts/15_ContractExoLive.sol\":697:703  _index */\n      dup2\n        /* \"contracts/15_ContractExoLive.sol\":689:704  nombres[_index] */\n      dup2\n      sload\n      dup2\n      lt\n      tag_19\n      jumpi\n      tag_20\n      tag_21\n      jump\t// in\n    tag_20:\n    tag_19:\n      swap1\n      0x00\n      mstore\n      keccak256(0x00, 0x20)\n      add\n        /* \"contracts/15_ContractExoLive.sol\":682:704  delete nombres[_index] */\n      0x00\n      swap1\n      sstore\n        /* \"contracts/15_ContractExoLive.sol\":628:762  function deleteValue(uint256 _index) public {... */\n      pop\n      jump\t// out\n        /* \"contracts/15_ContractExoLive.sol\":509:533  uint256[] public nombres */\n    tag_12:\n      0x00\n      dup2\n      dup2\n      sload\n      dup2\n      lt\n      tag_23\n      jumpi\n      0x00\n      dup1\n      revert\n    tag_23:\n      swap1\n      0x00\n      mstore\n      keccak256(0x00, 0x20)\n      add\n      0x00\n      swap2\n      pop\n      swap1\n      pop\n      sload\n      dup2\n      jump\t// out\n        /* \"contracts/15_ContractExoLive.sol\":540:622  function addNombres(uint256 _nombre) public {... */\n    tag_17:\n        /* \"contracts/15_ContractExoLive.sol\":594:601  nombres */\n      0x00\n        /* \"contracts/15_ContractExoLive.sol\":607:614  _nombre */\n      dup2\n        /* \"contracts/15_ContractExoLive.sol\":594:615  nombres.push(_nombre) */\n      swap1\n      dup1\n      0x01\n      dup2\n      sload\n      add\n      dup1\n      dup3\n      sstore\n      dup1\n      swap2\n      pop\n      pop\n      0x01\n      swap1\n      sub\n      swap1\n      0x00\n      mstore\n      keccak256(0x00, 0x20)\n      add\n      0x00\n      swap1\n      swap2\n      swap1\n      swap2\n      swap1\n      swap2\n      pop\n      sstore\n        /* \"contracts/15_ContractExoLive.sol\":540:622  function addNombres(uint256 _nombre) public {... */\n      pop\n      jump\t// out\n        /* \"#utility.yul\":88:205   */\n    tag_28:\n        /* \"#utility.yul\":197:198   */\n      0x00\n        /* \"#utility.yul\":194:195   */\n      0x00\n        /* \"#utility.yul\":187:199   */\n      revert\n        /* \"#utility.yul\":334:411   */\n    tag_30:\n        /* \"#utility.yul\":371:378   */\n      0x00\n        /* \"#utility.yul\":400:405   */\n      dup2\n        /* \"#utility.yul\":389:405   */\n      swap1\n      pop\n        /* \"#utility.yul\":334:411   */\n      swap2\n      swap1\n      pop\n      jump\t// out\n        /* \"#utility.yul\":417:539   */\n    tag_31:\n        /* \"#utility.yul\":490:514   */\n      tag_40\n        /* \"#utility.yul\":508:513   */\n      dup2\n        /* \"#utility.yul\":490:514   */\n      tag_30\n      jump\t// in\n    tag_40:\n        /* \"#utility.yul\":483:488   */\n      dup2\n        /* \"#utility.yul\":480:515   */\n      eq\n        /* \"#utility.yul\":470:533   */\n      tag_41\n      jumpi\n        /* \"#utility.yul\":529:530   */\n      0x00\n        /* \"#utility.yul\":526:527   */\n      0x00\n        /* \"#utility.yul\":519:531   */\n      revert\n        /* \"#utility.yul\":470:533   */\n    tag_41:\n        /* \"#utility.yul\":417:539   */\n      pop\n      jump\t// out\n        /* \"#utility.yul\":545:684   */\n    tag_32:\n        /* \"#utility.yul\":591:596   */\n      0x00\n        /* \"#utility.yul\":629:635   */\n      dup2\n        /* \"#utility.yul\":616:636   */\n      calldataload\n        /* \"#utility.yul\":607:636   */\n      swap1\n      pop\n        /* \"#utility.yul\":645:678   */\n      tag_43\n        /* \"#utility.yul\":672:677   */\n      dup2\n        /* \"#utility.yul\":645:678   */\n      tag_31\n      jump\t// in\n    tag_43:\n        /* \"#utility.yul\":545:684   */\n      swap3\n      swap2\n      pop\n      pop\n      jump\t// out\n        /* \"#utility.yul\":690:1019   */\n    tag_8:\n        /* \"#utility.yul\":749:755   */\n      0x00\n        /* \"#utility.yul\":798:800   */\n      0x20\n        /* \"#utility.yul\":786:795   */\n      dup3\n        /* \"#utility.yul\":777:784   */\n      dup5\n        /* \"#utility.yul\":773:796   */\n      sub\n        /* \"#utility.yul\":769:801   */\n      slt\n        /* \"#utility.yul\":766:885   */\n      iszero\n      tag_45\n      jumpi\n        /* \"#utility.yul\":804:883   */\n      tag_46\n      tag_28\n      jump\t// in\n    tag_46:\n        /* \"#utility.yul\":766:885   */\n    tag_45:\n        /* \"#utility.yul\":924:925   */\n      0x00\n        /* \"#utility.yul\":949:1002   */\n      tag_47\n        /* \"#utility.yul\":994:1001   */\n      dup5\n        /* \"#utility.yul\":985:991   */\n      dup3\n        /* \"#utility.yul\":974:983   */\n      dup6\n        /* \"#utility.yul\":970:992   */\n      add\n        /* \"#utility.yul\":949:1002   */\n      tag_32\n      jump\t// in\n    tag_47:\n        /* \"#utility.yul\":939:1002   */\n      swap2\n      pop\n        /* \"#utility.yul\":895:1012   */\n      pop\n        /* \"#utility.yul\":690:1019   */\n      swap3\n      swap2\n      pop\n      pop\n      jump\t// out\n        /* \"#utility.yul\":1025:1143   */\n    tag_33:\n        /* \"#utility.yul\":1112:1136   */\n      tag_49\n        /* \"#utility.yul\":1130:1135   */\n      dup2\n        /* \"#utility.yul\":1112:1136   */\n      tag_30\n      jump\t// in\n    tag_49:\n        /* \"#utility.yul\":1107:1110   */\n      dup3\n        /* \"#utility.yul\":1100:1137   */\n      mstore\n        /* \"#utility.yul\":1025:1143   */\n      pop\n      pop\n      jump\t// out\n        /* \"#utility.yul\":1149:1371   */\n    tag_14:\n        /* \"#utility.yul\":1242:1246   */\n      0x00\n        /* \"#utility.yul\":1280:1282   */\n      0x20\n        /* \"#utility.yul\":1269:1278   */\n      dup3\n        /* \"#utility.yul\":1265:1283   */\n      add\n        /* \"#utility.yul\":1257:1283   */\n      swap1\n      pop\n        /* \"#utility.yul\":1293:1364   */\n      tag_51\n        /* \"#utility.yul\":1361:1362   */\n      0x00\n        /* \"#utility.yul\":1350:1359   */\n      dup4\n        /* \"#utility.yul\":1346:1363   */\n      add\n        /* \"#utility.yul\":1337:1343   */\n      dup5\n        /* \"#utility.yul\":1293:1364   */\n      tag_33\n      jump\t// in\n    tag_51:\n        /* \"#utility.yul\":1149:1371   */\n      swap3\n      swap2\n      pop\n      pop\n      jump\t// out\n        /* \"#utility.yul\":1377:1557   */\n    tag_21:\n        /* \"#utility.yul\":1425:1502   */\n      0x4e487b7100000000000000000000000000000000000000000000000000000000\n        /* \"#utility.yul\":1422:1423   */\n      0x00\n        /* \"#utility.yul\":1415:1503   */\n      mstore\n        /* \"#utility.yul\":1522:1526   */\n      0x32\n        /* \"#utility.yul\":1519:1520   */\n      0x04\n        /* \"#utility.yul\":1512:1527   */\n      mstore\n        /* \"#utility.yul\":1546:1550   */\n      0x24\n        /* \"#utility.yul\":1543:1544   */\n      0x00\n        /* \"#utility.yul\":1536:1551   */\n      revert\n\n    auxdata: 0xa26469706673582212201c5f2711db6cc9acaf84c31c4fe036fed353c7f2024a7c5444f588cf9f7486d664736f6c634300081c0033\n}\n",
				"bytecode": {
					"linkReferences": {},
					"object": "6080604052348015600e575f5ffd5b506102008061001c5f395ff3fe608060405234801561000f575f5ffd5b506004361061003f575f3560e01c80630cf3dfd9146100435780637692fb5f1461005f578063a75219821461008f575b5f5ffd5b61005d6004803603810190610058919061014a565b6100ab565b005b6100796004803603810190610074919061014a565b6100cc565b6040516100869190610184565b60405180910390f35b6100a960048036038101906100a4919061014a565b6100eb565b005b5f81815481106100be576100bd61019d565b5b905f5260205f20015f905550565b5f81815481106100da575f80fd5b905f5260205f20015f915090505481565b5f81908060018154018082558091505060019003905f5260205f20015f909190919091505550565b5f5ffd5b5f819050919050565b61012981610117565b8114610133575f5ffd5b50565b5f8135905061014481610120565b92915050565b5f6020828403121561015f5761015e610113565b5b5f61016c84828501610136565b91505092915050565b61017e81610117565b82525050565b5f6020820190506101975f830184610175565b92915050565b7f4e487b71000000000000000000000000000000000000000000000000000000005f52603260045260245ffdfea26469706673582212201c5f2711db6cc9acaf84c31c4fe036fed353c7f2024a7c5444f588cf9f7486d664736f6c634300081c0033",
					"opcodes": "PUSH1 0x80 PUSH1 0x40 MSTORE CALLVALUE DUP1 ISZERO PUSH1 0xE JUMPI PUSH0 PUSH0 REVERT JUMPDEST POP PUSH2 0x200 DUP1 PUSH2 0x1C PUSH0 CODECOPY PUSH0 RETURN INVALID PUSH1 0x80 PUSH1 0x40 MSTORE CALLVALUE DUP1 ISZERO PUSH2 0xF JUMPI PUSH0 PUSH0 REVERT JUMPDEST POP PUSH1 0x4 CALLDATASIZE LT PUSH2 0x3F JUMPI PUSH0 CALLDATALOAD PUSH1 0xE0 SHR DUP1 PUSH4 0xCF3DFD9 EQ PUSH2 0x43 JUMPI DUP1 PUSH4 0x7692FB5F EQ PUSH2 0x5F JUMPI DUP1 PUSH4 0xA7521982 EQ PUSH2 0x8F JUMPI JUMPDEST PUSH0 PUSH0 REVERT JUMPDEST PUSH2 0x5D PUSH1 0x4 DUP1 CALLDATASIZE SUB DUP2 ADD SWAP1 PUSH2 0x58 SWAP2 SWAP1 PUSH2 0x14A JUMP JUMPDEST PUSH2 0xAB JUMP JUMPDEST STOP JUMPDEST PUSH2 0x79 PUSH1 0x4 DUP1 CALLDATASIZE SUB DUP2 ADD SWAP1 PUSH2 0x74 SWAP2 SWAP1 PUSH2 0x14A JUMP JUMPDEST PUSH2 0xCC JUMP JUMPDEST PUSH1 0x40 MLOAD PUSH2 0x86 SWAP2 SWAP1 PUSH2 0x184 JUMP JUMPDEST PUSH1 0x40 MLOAD DUP1 SWAP2 SUB SWAP1 RETURN JUMPDEST PUSH2 0xA9 PUSH1 0x4 DUP1 CALLDATASIZE SUB DUP2 ADD SWAP1 PUSH2 0xA4 SWAP2 SWAP1 PUSH2 0x14A JUMP JUMPDEST PUSH2 0xEB JUMP JUMPDEST STOP JUMPDEST PUSH0 DUP2 DUP2 SLOAD DUP2 LT PUSH2 0xBE JUMPI PUSH2 0xBD PUSH2 0x19D JUMP JUMPDEST JUMPDEST SWAP1 PUSH0 MSTORE PUSH1 0x20 PUSH0 KECCAK256 ADD PUSH0 SWAP1 SSTORE POP JUMP JUMPDEST PUSH0 DUP2 DUP2 SLOAD DUP2 LT PUSH2 0xDA JUMPI PUSH0 DUP1 REVERT JUMPDEST SWAP1 PUSH0 MSTORE PUSH1 0x20 PUSH0 KECCAK256 ADD PUSH0 SWAP2 POP SWAP1 POP SLOAD DUP2 JUMP JUMPDEST PUSH0 DUP2 SWAP1 DUP1 PUSH1 0x1 DUP2 SLOAD ADD DUP1 DUP3 SSTORE DUP1 SWAP2 POP POP PUSH1 0x1 SWAP1 SUB SWAP1 PUSH0 MSTORE PUSH1 0x20 PUSH0 KECCAK256 ADD PUSH0 SWAP1 SWAP2 SWAP1 SWAP2 SWAP1 SWAP2 POP SSTORE POP JUMP JUMPDEST PUSH0 PUSH0 REVERT JUMPDEST PUSH0 DUP2 SWAP1 POP SWAP2 SWAP1 POP JUMP JUMPDEST PUSH2 0x129 DUP2 PUSH2 0x117 JUMP JUMPDEST DUP2 EQ PUSH2 0x133 JUMPI PUSH0 PUSH0 REVERT JUMPDEST POP JUMP JUMPDEST PUSH0 DUP2 CALLDATALOAD SWAP1 POP PUSH2 0x144 DUP2 PUSH2 0x120 JUMP JUMPDEST SWAP3 SWAP2 POP POP JUMP JUMPDEST PUSH0 PUSH1 0x20 DUP3 DUP5 SUB SLT ISZERO PUSH2 0x15F JUMPI PUSH2 0x15E PUSH2 0x113 JUMP JUMPDEST JUMPDEST PUSH0 PUSH2 0x16C DUP5 DUP3 DUP6 ADD PUSH2 0x136 JUMP JUMPDEST SWAP2 POP POP SWAP3 SWAP2 POP POP JUMP JUMPDEST PUSH2 0x17E DUP2 PUSH2 0x117 JUMP JUMPDEST DUP3 MSTORE POP POP JUMP JUMPDEST PUSH0 PUSH1 0x20 DUP3 ADD SWAP1 POP PUSH2 0x197 PUSH0 DUP4 ADD DUP5 PUSH2 0x175 JUMP JUMPDEST SWAP3 SWAP2 POP POP JUMP JUMPDEST PUSH32 0x4E487B7100000000000000000000000000000000000000000000000000000000 PUSH0 MSTORE PUSH1 0x32 PUSH1 0x4 MSTORE PUSH1 0x24 PUSH0 REVERT INVALID LOG2 PUSH5 0x6970667358 0x22 SLT KECCAK256 SHR PUSH0 0x27 GT 0xDB PUSH13 0xC9ACAF84C31C4FE036FED353C7 CALLCODE MUL BLOBBASEFEE PUSH29 0x5444F588CF9F7486D664736F6C634300081C0033000000000000000000 "
				},
				"gasEstimates": {
					"creation": {
						"codeDepositCost": "102400",
						"executionCost": "145",
						"totalCost": "102545"
					},
					"external": {
						"addNombres(uint256)": "46842",
						"deleteValue(uint256)": "7564",
						"nombres(uint256)": "infinite"
					}
				},
				"methodIdentifiers": {
					"addNombres(uint256)": "a7521982",
					"deleteValue(uint256)": "0cf3dfd9",
					"nombres(uint256)": "7692fb5f"
				}
			},
			"storageLayout": {
				"storage": [
					{
						"astId": 36,
						"contract": "contracts/15_ContractExoLive.sol:ContractExoLive61",
						"label": "nombres",
						"offset": 0,
						"slot": "0",
						"type": "t_array(t_uint256)dyn_storage"
					}
				],
				"types": {
					"t_array(t_uint256)dyn_storage": {
						"base": "t_uint256",
						"encoding": "dynamic_array",
						"label": "uint256[]",
						"numberOfBytes": "32"
					},
					"t_uint256": {
						"encoding": "inplace",
						"label": "uint256",
						"numberOfBytes": "32"
					}
				}
			},
			"userdoc": {
				"kind": "user",
				"methods": {},
				"version": 1
			}
		}
	}
}