{
	"contracts/15_ContractExoLive.sol": {
		"ContractExoLive63": {
			"abi": [
				{
					"inputs": [
						{
							"internalType": "address",
							"name": "",
							"type": "address"
						}
					],
					"name": "CommandesClients",
					"outputs": [
						{
							"internalType": "uint256",
							"name": "_SKU",
							"type": "uint256"
						},
						{
							"internalType": "enum ContractExoLive63.etape",
							"name": "_etape",
							"type": "uint8"
						}
					],
					"stateMutability": "view",
					"type": "function"
				},
				{
					"inputs": [
						{
							"internalType": "uint256",
							"name": "_SKU",
							"type": "uint256"
						}
					],
					"name": "command",
					"outputs": [],
					"stateMutability": "nonpayable",
					"type": "function"
				}
			],
			"devdoc": {
				"kind": "dev",
				"methods": {},
				"version": 1
			},
			"evm": {
				"assembly": "    /* \"contracts/15_ContractExoLive.sol\":1581:1966  contract ContractExoLive63 {... */\n  mstore(0x40, 0x80)\n  callvalue\n  dup1\n  iszero\n  tag_1\n  jumpi\n  revert(0x00, 0x00)\ntag_1:\n  pop\n  dataSize(sub_0)\n  dup1\n  dataOffset(sub_0)\n  0x00\n  codecopy\n  0x00\n  return\nstop\n\nsub_0: assembly {\n        /* \"contracts/15_ContractExoLive.sol\":1581:1966  contract ContractExoLive63 {... */\n      mstore(0x40, 0x80)\n      callvalue\n      dup1\n      iszero\n      tag_1\n      jumpi\n      revert(0x00, 0x00)\n    tag_1:\n      pop\n      jumpi(tag_2, lt(calldatasize, 0x04))\n      shr(0xe0, calldataload(0x00))\n      dup1\n      0x901322db\n      eq\n      tag_3\n      jumpi\n      dup1\n      0xd1539a21\n      eq\n      tag_4\n      jumpi\n    tag_2:\n      revert(0x00, 0x00)\n        /* \"contracts/15_ContractExoLive.sol\":1759:1810  mapping(address => Produit) public CommandesClients */\n    tag_3:\n      tag_5\n      0x04\n      dup1\n      calldatasize\n      sub\n      dup2\n      add\n      swap1\n      tag_6\n      swap2\n      swap1\n      tag_7\n      jump\t// in\n    tag_6:\n      tag_8\n      jump\t// in\n    tag_5:\n      mload(0x40)\n      tag_9\n      swap3\n      swap2\n      swap1\n      tag_10\n      jump\t// in\n    tag_9:\n      mload(0x40)\n      dup1\n      swap2\n      sub\n      swap1\n      return\n        /* \"contracts/15_ContractExoLive.sol\":1817:1964  function command(uint256 _SKU) external {... */\n    tag_4:\n      tag_11\n      0x04\n      dup1\n      calldatasize\n      sub\n      dup2\n      add\n      swap1\n      tag_12\n      swap2\n      swap1\n      tag_13\n      jump\t// in\n    tag_12:\n      tag_14\n      jump\t// in\n    tag_11:\n      stop\n        /* \"contracts/15_ContractExoLive.sol\":1759:1810  mapping(address => Produit) public CommandesClients */\n    tag_8:\n      mstore(0x20, 0x00)\n      dup1\n      0x00\n      mstore\n      keccak256(0x00, 0x40)\n      0x00\n      swap2\n      pop\n      swap1\n      pop\n      dup1\n      0x00\n      add\n      sload\n      swap1\n      dup1\n      0x01\n      add\n      0x00\n      swap1\n      sload\n      swap1\n      0x0100\n      exp\n      swap1\n      div\n      0xff\n      and\n      swap1\n      pop\n      dup3\n      jump\t// out\n        /* \"contracts/15_ContractExoLive.sol\":1817:1964  function command(uint256 _SKU) external {... */\n    tag_14:\n        /* \"contracts/15_ContractExoLive.sol\":1867:1883  Produit memory p */\n      0x00\n        /* \"contracts/15_ContractExoLive.sol\":1886:1915  Produit(_SKU, etape.commande) */\n      mload(0x40)\n      dup1\n      0x40\n      add\n      0x40\n      mstore\n      dup1\n        /* \"contracts/15_ContractExoLive.sol\":1894:1898  _SKU */\n      dup4\n        /* \"contracts/15_ContractExoLive.sol\":1886:1915  Produit(_SKU, etape.commande) */\n      dup2\n      mstore\n      0x20\n      add\n        /* \"contracts/15_ContractExoLive.sol\":1900:1914  etape.commande */\n      0x00\n        /* \"contracts/15_ContractExoLive.sol\":1886:1915  Produit(_SKU, etape.commande) */\n      0x02\n      dup2\n      gt\n      iszero\n      tag_16\n      jumpi\n      tag_17\n      tag_18\n      jump\t// in\n    tag_17:\n    tag_16:\n      dup2\n      mstore\n      pop\n        /* \"contracts/15_ContractExoLive.sol\":1867:1915  Produit memory p = Produit(_SKU, etape.commande) */\n      swap1\n      pop\n        /* \"contracts/15_ContractExoLive.sol\":1956:1957  p */\n      dup1\n        /* \"contracts/15_ContractExoLive.sol\":1925:1941  CommandesClients */\n      0x00\n        /* \"contracts/15_ContractExoLive.sol\":1925:1953  CommandesClients[msg.sender] */\n      0x00\n        /* \"contracts/15_ContractExoLive.sol\":1942:1952  msg.sender */\n      caller\n        /* \"contracts/15_ContractExoLive.sol\":1925:1953  CommandesClients[msg.sender] */\n      0xffffffffffffffffffffffffffffffffffffffff\n      and\n      0xffffffffffffffffffffffffffffffffffffffff\n      and\n      dup2\n      mstore\n      0x20\n      add\n      swap1\n      dup2\n      mstore\n      0x20\n      add\n      0x00\n      keccak256\n        /* \"contracts/15_ContractExoLive.sol\":1925:1957  CommandesClients[msg.sender] = p */\n      0x00\n      dup3\n      add\n      mload\n      dup2\n      0x00\n      add\n      sstore\n      0x20\n      dup3\n      add\n      mload\n      dup2\n      0x01\n      add\n      exp(0x0100, 0x00)\n      dup2\n      sload\n      dup2\n      0xff\n      mul\n      not\n      and\n      swap1\n      dup4\n      0x02\n      dup2\n      gt\n      iszero\n      tag_19\n      jumpi\n      tag_20\n      tag_18\n      jump\t// in\n    tag_20:\n    tag_19:\n      mul\n      or\n      swap1\n      sstore\n      pop\n      swap1\n      pop\n      pop\n        /* \"contracts/15_ContractExoLive.sol\":1857:1964  {... */\n      pop\n        /* \"contracts/15_ContractExoLive.sol\":1817:1964  function command(uint256 _SKU) external {... */\n      pop\n      jump\t// out\n        /* \"#utility.yul\":88:205   */\n    tag_22:\n        /* \"#utility.yul\":197:198   */\n      0x00\n        /* \"#utility.yul\":194:195   */\n      0x00\n        /* \"#utility.yul\":187:199   */\n      revert\n        /* \"#utility.yul\":334:460   */\n    tag_24:\n        /* \"#utility.yul\":371:378   */\n      0x00\n        /* \"#utility.yul\":411:453   */\n      0xffffffffffffffffffffffffffffffffffffffff\n        /* \"#utility.yul\":404:409   */\n      dup3\n        /* \"#utility.yul\":400:454   */\n      and\n        /* \"#utility.yul\":389:454   */\n      swap1\n      pop\n        /* \"#utility.yul\":334:460   */\n      swap2\n      swap1\n      pop\n      jump\t// out\n        /* \"#utility.yul\":466:562   */\n    tag_25:\n        /* \"#utility.yul\":503:510   */\n      0x00\n        /* \"#utility.yul\":532:556   */\n      tag_42\n        /* \"#utility.yul\":550:555   */\n      dup3\n        /* \"#utility.yul\":532:556   */\n      tag_24\n      jump\t// in\n    tag_42:\n        /* \"#utility.yul\":521:556   */\n      swap1\n      pop\n        /* \"#utility.yul\":466:562   */\n      swap2\n      swap1\n      pop\n      jump\t// out\n        /* \"#utility.yul\":568:690   */\n    tag_26:\n        /* \"#utility.yul\":641:665   */\n      tag_44\n        /* \"#utility.yul\":659:664   */\n      dup2\n        /* \"#utility.yul\":641:665   */\n      tag_25\n      jump\t// in\n    tag_44:\n        /* \"#utility.yul\":634:639   */\n      dup2\n        /* \"#utility.yul\":631:666   */\n      eq\n        /* \"#utility.yul\":621:684   */\n      tag_45\n      jumpi\n        /* \"#utility.yul\":680:681   */\n      0x00\n        /* \"#utility.yul\":677:678   */\n      0x00\n        /* \"#utility.yul\":670:682   */\n      revert\n        /* \"#utility.yul\":621:684   */\n    tag_45:\n        /* \"#utility.yul\":568:690   */\n      pop\n      jump\t// out\n        /* \"#utility.yul\":696:835   */\n    tag_27:\n        /* \"#utility.yul\":742:747   */\n      0x00\n        /* \"#utility.yul\":780:786   */\n      dup2\n        /* \"#utility.yul\":767:787   */\n      calldataload\n        /* \"#utility.yul\":758:787   */\n      swap1\n      pop\n        /* \"#utility.yul\":796:829   */\n      tag_47\n        /* \"#utility.yul\":823:828   */\n      dup2\n        /* \"#utility.yul\":796:829   */\n      tag_26\n      jump\t// in\n    tag_47:\n        /* \"#utility.yul\":696:835   */\n      swap3\n      swap2\n      pop\n      pop\n      jump\t// out\n        /* \"#utility.yul\":841:1170   */\n    tag_7:\n        /* \"#utility.yul\":900:906   */\n      0x00\n        /* \"#utility.yul\":949:951   */\n      0x20\n        /* \"#utility.yul\":937:946   */\n      dup3\n        /* \"#utility.yul\":928:935   */\n      dup5\n        /* \"#utility.yul\":924:947   */\n      sub\n        /* \"#utility.yul\":920:952   */\n      slt\n        /* \"#utility.yul\":917:1036   */\n      iszero\n      tag_49\n      jumpi\n        /* \"#utility.yul\":955:1034   */\n      tag_50\n      tag_22\n      jump\t// in\n    tag_50:\n        /* \"#utility.yul\":917:1036   */\n    tag_49:\n        /* \"#utility.yul\":1075:1076   */\n      0x00\n        /* \"#utility.yul\":1100:1153   */\n      tag_51\n        /* \"#utility.yul\":1145:1152   */\n      dup5\n        /* \"#utility.yul\":1136:1142   */\n      dup3\n        /* \"#utility.yul\":1125:1134   */\n      dup6\n        /* \"#utility.yul\":1121:1143   */\n      add\n        /* \"#utility.yul\":1100:1153   */\n      tag_27\n      jump\t// in\n    tag_51:\n        /* \"#utility.yul\":1090:1153   */\n      swap2\n      pop\n        /* \"#utility.yul\":1046:1163   */\n      pop\n        /* \"#utility.yul\":841:1170   */\n      swap3\n      swap2\n      pop\n      pop\n      jump\t// out\n        /* \"#utility.yul\":1176:1253   */\n    tag_28:\n        /* \"#utility.yul\":1213:1220   */\n      0x00\n        /* \"#utility.yul\":1242:1247   */\n      dup2\n        /* \"#utility.yul\":1231:1247   */\n      swap1\n      pop\n        /* \"#utility.yul\":1176:1253   */\n      swap2\n      swap1\n      pop\n      jump\t// out\n        /* \"#utility.yul\":1259:1377   */\n    tag_29:\n        /* \"#utility.yul\":1346:1370   */\n      tag_54\n        /* \"#utility.yul\":1364:1369   */\n      dup2\n        /* \"#utility.yul\":1346:1370   */\n      tag_28\n      jump\t// in\n    tag_54:\n        /* \"#utility.yul\":1341:1344   */\n      dup3\n        /* \"#utility.yul\":1334:1371   */\n      mstore\n        /* \"#utility.yul\":1259:1377   */\n      pop\n      pop\n      jump\t// out\n        /* \"#utility.yul\":1383:1563   */\n    tag_18:\n        /* \"#utility.yul\":1431:1508   */\n      0x4e487b7100000000000000000000000000000000000000000000000000000000\n        /* \"#utility.yul\":1428:1429   */\n      0x00\n        /* \"#utility.yul\":1421:1509   */\n      mstore\n        /* \"#utility.yul\":1528:1532   */\n      0x21\n        /* \"#utility.yul\":1525:1526   */\n      0x04\n        /* \"#utility.yul\":1518:1533   */\n      mstore\n        /* \"#utility.yul\":1552:1556   */\n      0x24\n        /* \"#utility.yul\":1549:1550   */\n      0x00\n        /* \"#utility.yul\":1542:1557   */\n      revert\n        /* \"#utility.yul\":1569:1683   */\n    tag_30:\n        /* \"#utility.yul\":1651:1652   */\n      0x03\n        /* \"#utility.yul\":1644:1649   */\n      dup2\n        /* \"#utility.yul\":1641:1653   */\n      lt\n        /* \"#utility.yul\":1631:1677   */\n      tag_57\n      jumpi\n        /* \"#utility.yul\":1657:1675   */\n      tag_58\n      tag_18\n      jump\t// in\n    tag_58:\n        /* \"#utility.yul\":1631:1677   */\n    tag_57:\n        /* \"#utility.yul\":1569:1683   */\n      pop\n      jump\t// out\n        /* \"#utility.yul\":1689:1818   */\n    tag_31:\n        /* \"#utility.yul\":1735:1742   */\n      0x00\n        /* \"#utility.yul\":1764:1769   */\n      dup2\n        /* \"#utility.yul\":1753:1769   */\n      swap1\n      pop\n        /* \"#utility.yul\":1770:1812   */\n      tag_60\n        /* \"#utility.yul\":1806:1811   */\n      dup3\n        /* \"#utility.yul\":1770:1812   */\n      tag_30\n      jump\t// in\n    tag_60:\n        /* \"#utility.yul\":1689:1818   */\n      swap2\n      swap1\n      pop\n      jump\t// out\n        /* \"#utility.yul\":1824:1953   */\n    tag_32:\n        /* \"#utility.yul\":1881:1890   */\n      0x00\n        /* \"#utility.yul\":1914:1947   */\n      tag_62\n        /* \"#utility.yul\":1941:1946   */\n      dup3\n        /* \"#utility.yul\":1914:1947   */\n      tag_31\n      jump\t// in\n    tag_62:\n        /* \"#utility.yul\":1901:1947   */\n      swap1\n      pop\n        /* \"#utility.yul\":1824:1953   */\n      swap2\n      swap1\n      pop\n      jump\t// out\n        /* \"#utility.yul\":1959:2104   */\n    tag_33:\n        /* \"#utility.yul\":2053:2097   */\n      tag_64\n        /* \"#utility.yul\":2091:2096   */\n      dup2\n        /* \"#utility.yul\":2053:2097   */\n      tag_32\n      jump\t// in\n    tag_64:\n        /* \"#utility.yul\":2048:2051   */\n      dup3\n        /* \"#utility.yul\":2041:2098   */\n      mstore\n        /* \"#utility.yul\":1959:2104   */\n      pop\n      pop\n      jump\t// out\n        /* \"#utility.yul\":2110:2456   */\n    tag_10:\n        /* \"#utility.yul\":2238:2242   */\n      0x00\n        /* \"#utility.yul\":2276:2278   */\n      0x40\n        /* \"#utility.yul\":2265:2274   */\n      dup3\n        /* \"#utility.yul\":2261:2279   */\n      add\n        /* \"#utility.yul\":2253:2279   */\n      swap1\n      pop\n        /* \"#utility.yul\":2289:2360   */\n      tag_66\n        /* \"#utility.yul\":2357:2358   */\n      0x00\n        /* \"#utility.yul\":2346:2355   */\n      dup4\n        /* \"#utility.yul\":2342:2359   */\n      add\n        /* \"#utility.yul\":2333:2339   */\n      dup6\n        /* \"#utility.yul\":2289:2360   */\n      tag_29\n      jump\t// in\n    tag_66:\n        /* \"#utility.yul\":2370:2449   */\n      tag_67\n        /* \"#utility.yul\":2445:2447   */\n      0x20\n        /* \"#utility.yul\":2434:2443   */\n      dup4\n        /* \"#utility.yul\":2430:2448   */\n      add\n        /* \"#utility.yul\":2421:2427   */\n      dup5\n        /* \"#utility.yul\":2370:2449   */\n      tag_33\n      jump\t// in\n    tag_67:\n        /* \"#utility.yul\":2110:2456   */\n      swap4\n      swap3\n      pop\n      pop\n      pop\n      jump\t// out\n        /* \"#utility.yul\":2462:2584   */\n    tag_34:\n        /* \"#utility.yul\":2535:2559   */\n      tag_69\n        /* \"#utility.yul\":2553:2558   */\n      dup2\n        /* \"#utility.yul\":2535:2559   */\n      tag_28\n      jump\t// in\n    tag_69:\n        /* \"#utility.yul\":2528:2533   */\n      dup2\n        /* \"#utility.yul\":2525:2560   */\n      eq\n        /* \"#utility.yul\":2515:2578   */\n      tag_70\n      jumpi\n        /* \"#utility.yul\":2574:2575   */\n      0x00\n        /* \"#utility.yul\":2571:2572   */\n      0x00\n        /* \"#utility.yul\":2564:2576   */\n      revert\n        /* \"#utility.yul\":2515:2578   */\n    tag_70:\n        /* \"#utility.yul\":2462:2584   */\n      pop\n      jump\t// out\n        /* \"#utility.yul\":2590:2729   */\n    tag_35:\n        /* \"#utility.yul\":2636:2641   */\n      0x00\n        /* \"#utility.yul\":2674:2680   */\n      dup2\n        /* \"#utility.yul\":2661:2681   */\n      calldataload\n        /* \"#utility.yul\":2652:2681   */\n      swap1\n      pop\n        /* \"#utility.yul\":2690:2723   */\n      tag_72\n        /* \"#utility.yul\":2717:2722   */\n      dup2\n        /* \"#utility.yul\":2690:2723   */\n      tag_34\n      jump\t// in\n    tag_72:\n        /* \"#utility.yul\":2590:2729   */\n      swap3\n      swap2\n      pop\n      pop\n      jump\t// out\n        /* \"#utility.yul\":2735:3064   */\n    tag_13:\n        /* \"#utility.yul\":2794:2800   */\n      0x00\n        /* \"#utility.yul\":2843:2845   */\n      0x20\n        /* \"#utility.yul\":2831:2840   */\n      dup3\n        /* \"#utility.yul\":2822:2829   */\n      dup5\n        /* \"#utility.yul\":2818:2841   */\n      sub\n        /* \"#utility.yul\":2814:2846   */\n      slt\n        /* \"#utility.yul\":2811:2930   */\n      iszero\n      tag_74\n      jumpi\n        /* \"#utility.yul\":2849:2928   */\n      tag_75\n      tag_22\n      jump\t// in\n    tag_75:\n        /* \"#utility.yul\":2811:2930   */\n    tag_74:\n        /* \"#utility.yul\":2969:2970   */\n      0x00\n        /* \"#utility.yul\":2994:3047   */\n      tag_76\n        /* \"#utility.yul\":3039:3046   */\n      dup5\n        /* \"#utility.yul\":3030:3036   */\n      dup3\n        /* \"#utility.yul\":3019:3028   */\n      dup6\n        /* \"#utility.yul\":3015:3037   */\n      add\n        /* \"#utility.yul\":2994:3047   */\n      tag_35\n      jump\t// in\n    tag_76:\n        /* \"#utility.yul\":2984:3047   */\n      swap2\n      pop\n        /* \"#utility.yul\":2940:3057   */\n      pop\n        /* \"#utility.yul\":2735:3064   */\n      swap3\n      swap2\n      pop\n      pop\n      jump\t// out\n\n    auxdata: 0xa26469706673582212207a8a045b8efd72f61bb2bea1462477d59ddfe5478576203da56123b8a922166764736f6c634300081c0033\n}\n",
				"bytecode": {
					"linkReferences": {},
					"object": "6080604052348015600e575f5ffd5b5061031b8061001c5f395ff3fe608060405234801561000f575f5ffd5b5060043610610034575f3560e01c8063901322db14610038578063d1539a2114610069575b5f5ffd5b610052600480360381019061004d91906101b3565b610085565b604051610060929190610269565b60405180910390f35b610083600480360381019061007e91906102ba565b6100b0565b005b5f602052805f5260405f205f91509050805f015490806001015f9054906101000a900460ff16905082565b5f60405180604001604052808381526020015f60028111156100d5576100d46101f6565b5b8152509050805f5f3373ffffffffffffffffffffffffffffffffffffffff1673ffffffffffffffffffffffffffffffffffffffff1681526020019081526020015f205f820151815f01556020820151816001015f6101000a81548160ff02191690836002811115610149576101486101f6565b5b02179055509050505050565b5f5ffd5b5f73ffffffffffffffffffffffffffffffffffffffff82169050919050565b5f61018282610159565b9050919050565b61019281610178565b811461019c575f5ffd5b50565b5f813590506101ad81610189565b92915050565b5f602082840312156101c8576101c7610155565b5b5f6101d58482850161019f565b91505092915050565b5f819050919050565b6101f0816101de565b82525050565b7f4e487b71000000000000000000000000000000000000000000000000000000005f52602160045260245ffd5b60038110610234576102336101f6565b5b50565b5f81905061024482610223565b919050565b5f61025382610237565b9050919050565b61026381610249565b82525050565b5f60408201905061027c5f8301856101e7565b610289602083018461025a565b9392505050565b610299816101de565b81146102a3575f5ffd5b50565b5f813590506102b481610290565b92915050565b5f602082840312156102cf576102ce610155565b5b5f6102dc848285016102a6565b9150509291505056fea26469706673582212207a8a045b8efd72f61bb2bea1462477d59ddfe5478576203da56123b8a922166764736f6c634300081c0033",
					"opcodes": "PUSH1 0x80 PUSH1 0x40 MSTORE CALLVALUE DUP1 ISZERO PUSH1 0xE JUMPI PUSH0 PUSH0 REVERT JUMPDEST POP PUSH2 0x31B DUP1 PUSH2 0x1C PUSH0 CODECOPY PUSH0 RETURN INVALID PUSH1 0x80 PUSH1 0x40 MSTORE CALLVALUE DUP1 ISZERO PUSH2 0xF JUMPI PUSH0 PUSH0 REVERT JUMPDEST POP PUSH1 0x4 CALLDATASIZE LT PUSH2 0x34 JUMPI PUSH0 CALLDATALOAD PUSH1 0xE0 SHR DUP1 PUSH4 0x901322DB EQ PUSH2 0x38 JUMPI DUP1 PUSH4 0xD1539A21 EQ PUSH2 0x69 JUMPI JUMPDEST PUSH0 PUSH0 REVERT JUMPDEST PUSH2 0x52 PUSH1 0x4 DUP1 CALLDATASIZE SUB DUP2 ADD SWAP1 PUSH2 0x4D SWAP2 SWAP1 PUSH2 0x1B3 JUMP JUMPDEST PUSH2 0x85 JUMP JUMPDEST PUSH1 0x40 MLOAD PUSH2 0x60 SWAP3 SWAP2 SWAP1 PUSH2 0x269 JUMP JUMPDEST PUSH1 0x40 MLOAD DUP1 SWAP2 SUB SWAP1 RETURN JUMPDEST PUSH2 0x83 PUSH1 0x4 DUP1 CALLDATASIZE SUB DUP2 ADD SWAP1 PUSH2 0x7E SWAP2 SWAP1 PUSH2 0x2BA JUMP JUMPDEST PUSH2 0xB0 JUMP JUMPDEST STOP JUMPDEST PUSH0 PUSH1 0x20 MSTORE DUP1 PUSH0 MSTORE PUSH1 0x40 PUSH0 KECCAK256 PUSH0 SWAP2 POP SWAP1 POP DUP1 PUSH0 ADD SLOAD SWAP1 DUP1 PUSH1 0x1 ADD PUSH0 SWAP1 SLOAD SWAP1 PUSH2 0x100 EXP SWAP1 DIV PUSH1 0xFF AND SWAP1 POP DUP3 JUMP JUMPDEST PUSH0 PUSH1 0x40 MLOAD DUP1 PUSH1 0x40 ADD PUSH1 0x40 MSTORE DUP1 DUP4 DUP2 MSTORE PUSH1 0x20 ADD PUSH0 PUSH1 0x2 DUP2 GT ISZERO PUSH2 0xD5 JUMPI PUSH2 0xD4 PUSH2 0x1F6 JUMP JUMPDEST JUMPDEST DUP2 MSTORE POP SWAP1 POP DUP1 PUSH0 PUSH0 CALLER PUSH20 0xFFFFFFFFFFFFFFFFFFFFFFFFFFFFFFFFFFFFFFFF AND PUSH20 0xFFFFFFFFFFFFFFFFFFFFFFFFFFFFFFFFFFFFFFFF AND DUP2 MSTORE PUSH1 0x20 ADD SWAP1 DUP2 MSTORE PUSH1 0x20 ADD PUSH0 KECCAK256 PUSH0 DUP3 ADD MLOAD DUP2 PUSH0 ADD SSTORE PUSH1 0x20 DUP3 ADD MLOAD DUP2 PUSH1 0x1 ADD PUSH0 PUSH2 0x100 EXP DUP2 SLOAD DUP2 PUSH1 0xFF MUL NOT AND SWAP1 DUP4 PUSH1 0x2 DUP2 GT ISZERO PUSH2 0x149 JUMPI PUSH2 0x148 PUSH2 0x1F6 JUMP JUMPDEST JUMPDEST MUL OR SWAP1 SSTORE POP SWAP1 POP POP POP POP JUMP JUMPDEST PUSH0 PUSH0 REVERT JUMPDEST PUSH0 PUSH20 0xFFFFFFFFFFFFFFFFFFFFFFFFFFFFFFFFFFFFFFFF DUP3 AND SWAP1 POP SWAP2 SWAP1 POP JUMP JUMPDEST PUSH0 PUSH2 0x182 DUP3 PUSH2 0x159 JUMP JUMPDEST SWAP1 POP SWAP2 SWAP1 POP JUMP JUMPDEST PUSH2 0x192 DUP2 PUSH2 0x178 JUMP JUMPDEST DUP2 EQ PUSH2 0x19C JUMPI PUSH0 PUSH0 REVERT JUMPDEST POP JUMP JUMPDEST PUSH0 DUP2 CALLDATALOAD SWAP1 POP PUSH2 0x1AD DUP2 PUSH2 0x189 JUMP JUMPDEST SWAP3 SWAP2 POP POP JUMP JUMPDEST PUSH0 PUSH1 0x20 DUP3 DUP5 SUB SLT ISZERO PUSH2 0x1C8 JUMPI PUSH2 0x1C7 PUSH2 0x155 JUMP JUMPDEST JUMPDEST PUSH0 PUSH2 0x1D5 DUP5 DUP3 DUP6 ADD PUSH2 0x19F JUMP JUMPDEST SWAP2 POP POP SWAP3 SWAP2 POP POP JUMP JUMPDEST PUSH0 DUP2 SWAP1 POP SWAP2 SWAP1 POP JUMP JUMPDEST PUSH2 0x1F0 DUP2 PUSH2 0x1DE JUMP JUMPDEST DUP3 MSTORE POP POP JUMP JUMPDEST PUSH32 0x4E487B7100000000000000000000000000000000000000000000000000000000 PUSH0 MSTORE PUSH1 0x21 PUSH1 0x4 MSTORE PUSH1 0x24 PUSH0 REVERT JUMPDEST PUSH1 0x3 DUP2 LT PUSH2 0x234 JUMPI PUSH2 0x233 PUSH2 0x1F6 JUMP JUMPDEST JUMPDEST POP JUMP JUMPDEST PUSH0 DUP2 SWAP1 POP PUSH2 0x244 DUP3 PUSH2 0x223 JUMP JUMPDEST SWAP2 SWAP1 POP JUMP JUMPDEST PUSH0 PUSH2 0x253 DUP3 PUSH2 0x237 JUMP JUMPDEST SWAP1 POP SWAP2 SWAP1 POP JUMP JUMPDEST PUSH2 0x263 DUP2 PUSH2 0x249 JUMP JUMPDEST DUP3 MSTORE POP POP JUMP JUMPDEST PUSH0 PUSH1 0x40 DUP3 ADD SWAP1 POP PUSH2 0x27C PUSH0 DUP4 ADD DUP6 PUSH2 0x1E7 JUMP JUMPDEST PUSH2 0x289 PUSH1 0x20 DUP4 ADD DUP5 PUSH2 0x25A JUMP JUMPDEST SWAP4 SWAP3 POP POP POP JUMP JUMPDEST PUSH2 0x299 DUP2 PUSH2 0x1DE JUMP JUMPDEST DUP2 EQ PUSH2 0x2A3 JUMPI PUSH0 PUSH0 REVERT JUMPDEST POP JUMP JUMPDEST PUSH0 DUP2 CALLDATALOAD SWAP1 POP PUSH2 0x2B4 DUP2 PUSH2 0x290 JUMP JUMPDEST SWAP3 SWAP2 POP POP JUMP JUMPDEST PUSH0 PUSH1 0x20 DUP3 DUP5 SUB SLT ISZERO PUSH2 0x2CF JUMPI PUSH2 0x2CE PUSH2 0x155 JUMP JUMPDEST JUMPDEST PUSH0 PUSH2 0x2DC DUP5 DUP3 DUP6 ADD PUSH2 0x2A6 JUMP JUMPDEST SWAP2 POP POP SWAP3 SWAP2 POP POP JUMP INVALID LOG2 PUSH5 0x6970667358 0x22 SLT KECCAK256 PUSH27 0x8A045B8EFD72F61BB2BEA1462477D59DDFE5478576203DA56123B8 0xA9 0x22 AND PUSH8 0x64736F6C63430008 SHR STOP CALLER "
				},
				"gasEstimates": {
					"creation": {
						"codeDepositCost": "159000",
						"executionCost": "200",
						"totalCost": "159200"
					},
					"external": {
						"CommandesClients(address)": "5132",
						"command(uint256)": "47013"
					}
				},
				"methodIdentifiers": {
					"CommandesClients(address)": "901322db",
					"command(uint256)": "d1539a21"
				}
			},
			"storageLayout": {
				"storage": [
					{
						"astId": 171,
						"contract": "contracts/15_ContractExoLive.sol:ContractExoLive63",
						"label": "CommandesClients",
						"offset": 0,
						"slot": "0",
						"type": "t_mapping(t_address,t_struct(Produit)166_storage)"
					}
				],
				"types": {
					"t_address": {
						"encoding": "inplace",
						"label": "address",
						"numberOfBytes": "20"
					},
					"t_enum(etape)160": {
						"encoding": "inplace",
						"label": "enum ContractExoLive63.etape",
						"numberOfBytes": "1"
					},
					"t_mapping(t_address,t_struct(Produit)166_storage)": {
						"encoding": "mapping",
						"key": "t_address",
						"label": "mapping(address => struct ContractExoLive63.Produit)",
						"numberOfBytes": "32",
						"value": "t_struct(Produit)166_storage"
					},
					"t_struct(Produit)166_storage": {
						"encoding": "inplace",
						"label": "struct ContractExoLive63.Produit",
						"members": [
							{
								"astId": 162,
								"contract": "contracts/15_ContractExoLive.sol:ContractExoLive63",
								"label": "_SKU",
								"offset": 0,
								"slot": "0",
								"type": "t_uint256"
							},
							{
								"astId": 165,
								"contract": "contracts/15_ContractExoLive.sol:ContractExoLive63",
								"label": "_etape",
								"offset": 0,
								"slot": "1",
								"type": "t_enum(etape)160"
							}
						],
						"numberOfBytes": "64"
					},
					"t_uint256": {
						"encoding": "inplace",
						"label": "uint256",
						"numberOfBytes": "32"
					}
				}
			},
			"userdoc": {
				"kind": "user",
				"methods": {},
				"version": 1
			}
		}
	}
}