{
	"contracts/15_ContractExoLive.sol": {
		"ContractExoLive62": {
			"abi": [
				{
					"inputs": [
						{
							"internalType": "uint256",
							"name": "_nombre",
							"type": "uint256"
						}
					],
					"name": "addNombres",
					"outputs": [],
					"stateMutability": "nonpayable",
					"type": "function"
				},
				{
					"inputs": [],
					"name": "getNombresX2",
					"outputs": [
						{
							"internalType": "uint256[]",
							"name": "",
							"type": "uint256[]"
						}
					],
					"stateMutability": "view",
					"type": "function"
				},
				{
					"inputs": [
						{
							"internalType": "uint256",
							"name": "",
							"type": "uint256"
						}
					],
					"name": "nombres",
					"outputs": [
						{
							"internalType": "uint256",
							"name": "",
							"type": "uint256"
						}
					],
					"stateMutability": "view",
					"type": "function"
				},
				{
					"inputs": [
						{
							"internalType": "uint256[]",
							"name": "monTableau",
							"type": "uint256[]"
						}
					],
					"name": "sommeTableau",
					"outputs": [
						{
							"internalType": "uint256",
							"name": "",
							"type": "uint256"
						}
					],
					"stateMutability": "pure",
					"type": "function"
				}
			],
			"devdoc": {
				"kind": "dev",
				"methods": {},
				"version": 1
			},
			"evm": {
				"assembly": "    /* \"contracts/15_ContractExoLive.sol\":766:1579  contract ContractExoLive62 {... */\n  mstore(0x40, 0x80)\n  callvalue\n  dup1\n  iszero\n  tag_1\n  jumpi\n  revert(0x00, 0x00)\ntag_1:\n  pop\n  dataSize(sub_0)\n  dup1\n  dataOffset(sub_0)\n  0x00\n  codecopy\n  0x00\n  return\nstop\n\nsub_0: assembly {\n        /* \"contracts/15_ContractExoLive.sol\":766:1579  contract ContractExoLive62 {... */\n      mstore(0x40, 0x80)\n      callvalue\n      dup1\n      iszero\n      tag_1\n      jumpi\n      revert(0x00, 0x00)\n    tag_1:\n      pop\n      jumpi(tag_2, lt(calldatasize, 0x04))\n      shr(0xe0, calldataload(0x00))\n      dup1\n      0x49b5a636\n      eq\n      tag_3\n      jumpi\n      dup1\n      0x7692fb5f\n      eq\n      tag_4\n      jumpi\n      dup1\n      0xa7521982\n      eq\n      tag_5\n      jumpi\n      dup1\n      0xdef703a8\n      eq\n      tag_6\n      jumpi\n    tag_2:\n      revert(0x00, 0x00)\n        /* \"contracts/15_ContractExoLive.sol\":1316:1577  function sommeTableau(uint256[] memory monTableau)... */\n    tag_3:\n      tag_7\n      0x04\n      dup1\n      calldatasize\n      sub\n      dup2\n      add\n      swap1\n      tag_8\n      swap2\n      swap1\n      tag_9\n      jump\t// in\n    tag_8:\n      tag_10\n      jump\t// in\n    tag_7:\n      mload(0x40)\n      tag_11\n      swap2\n      swap1\n      tag_12\n      jump\t// in\n    tag_11:\n      mload(0x40)\n      dup1\n      swap2\n      sub\n      swap1\n      return\n        /* \"contracts/15_ContractExoLive.sol\":799:823  uint256[] public nombres */\n    tag_4:\n      tag_13\n      0x04\n      dup1\n      calldatasize\n      sub\n      dup2\n      add\n      swap1\n      tag_14\n      swap2\n      swap1\n      tag_15\n      jump\t// in\n    tag_14:\n      tag_16\n      jump\t// in\n    tag_13:\n      mload(0x40)\n      tag_17\n      swap2\n      swap1\n      tag_12\n      jump\t// in\n    tag_17:\n      mload(0x40)\n      dup1\n      swap2\n      sub\n      swap1\n      return\n        /* \"contracts/15_ContractExoLive.sol\":830:912  function addNombres(uint256 _nombre) public {... */\n    tag_5:\n      tag_18\n      0x04\n      dup1\n      calldatasize\n      sub\n      dup2\n      add\n      swap1\n      tag_19\n      swap2\n      swap1\n      tag_15\n      jump\t// in\n    tag_19:\n      tag_20\n      jump\t// in\n    tag_18:\n      stop\n        /* \"contracts/15_ContractExoLive.sol\":918:1310  function getNombresX2() external view returns (uint256[] memory) {... */\n    tag_6:\n      tag_21\n      tag_22\n      jump\t// in\n    tag_21:\n      mload(0x40)\n      tag_23\n      swap2\n      swap1\n      tag_24\n      jump\t// in\n    tag_23:\n      mload(0x40)\n      dup1\n      swap2\n      sub\n      swap1\n      return\n        /* \"contracts/15_ContractExoLive.sol\":1316:1577  function sommeTableau(uint256[] memory monTableau)... */\n    tag_10:\n        /* \"contracts/15_ContractExoLive.sol\":1414:1421  uint256 */\n      0x00\n        /* \"contracts/15_ContractExoLive.sol\":1437:1448  uint256 res */\n      0x00\n        /* \"contracts/15_ContractExoLive.sol\":1463:1472  uint256 i */\n      0x00\n        /* \"contracts/15_ContractExoLive.sol\":1475:1476  0 */\n      0x00\n        /* \"contracts/15_ContractExoLive.sol\":1463:1476  uint256 i = 0 */\n      swap1\n      pop\n        /* \"contracts/15_ContractExoLive.sol\":1458:1551  for (uint256 i = 0; i < monTableau.length; i++) {... */\n    tag_26:\n        /* \"contracts/15_ContractExoLive.sol\":1482:1492  monTableau */\n      dup4\n        /* \"contracts/15_ContractExoLive.sol\":1482:1499  monTableau.length */\n      mload\n        /* \"contracts/15_ContractExoLive.sol\":1478:1479  i */\n      dup2\n        /* \"contracts/15_ContractExoLive.sol\":1478:1499  i < monTableau.length */\n      lt\n        /* \"contracts/15_ContractExoLive.sol\":1458:1551  for (uint256 i = 0; i < monTableau.length; i++) {... */\n      iszero\n      tag_27\n      jumpi\n        /* \"contracts/15_ContractExoLive.sol\":1527:1537  monTableau */\n      dup4\n        /* \"contracts/15_ContractExoLive.sol\":1538:1539  i */\n      dup2\n        /* \"contracts/15_ContractExoLive.sol\":1527:1540  monTableau[i] */\n      dup2\n      mload\n      dup2\n      lt\n      tag_29\n      jumpi\n      tag_30\n      tag_31\n      jump\t// in\n    tag_30:\n    tag_29:\n      0x20\n      mul\n      0x20\n      add\n      add\n      mload\n        /* \"contracts/15_ContractExoLive.sol\":1520:1540  res += monTableau[i] */\n      dup3\n      tag_32\n      swap2\n      swap1\n      tag_33\n      jump\t// in\n    tag_32:\n      swap2\n      pop\n        /* \"contracts/15_ContractExoLive.sol\":1501:1504  i++ */\n      dup1\n      dup1\n      0x01\n      add\n      swap2\n      pop\n      pop\n        /* \"contracts/15_ContractExoLive.sol\":1458:1551  for (uint256 i = 0; i < monTableau.length; i++) {... */\n      jump(tag_26)\n    tag_27:\n      pop\n        /* \"contracts/15_ContractExoLive.sol\":1567:1570  res */\n      dup1\n        /* \"contracts/15_ContractExoLive.sol\":1560:1570  return res */\n      swap2\n      pop\n      pop\n        /* \"contracts/15_ContractExoLive.sol\":1316:1577  function sommeTableau(uint256[] memory monTableau)... */\n      swap2\n      swap1\n      pop\n      jump\t// out\n        /* \"contracts/15_ContractExoLive.sol\":799:823  uint256[] public nombres */\n    tag_16:\n      0x00\n      dup2\n      dup2\n      sload\n      dup2\n      lt\n      tag_34\n      jumpi\n      0x00\n      dup1\n      revert\n    tag_34:\n      swap1\n      0x00\n      mstore\n      keccak256(0x00, 0x20)\n      add\n      0x00\n      swap2\n      pop\n      swap1\n      pop\n      sload\n      dup2\n      jump\t// out\n        /* \"contracts/15_ContractExoLive.sol\":830:912  function addNombres(uint256 _nombre) public {... */\n    tag_20:\n        /* \"contracts/15_ContractExoLive.sol\":884:891  nombres */\n      0x00\n        /* \"contracts/15_ContractExoLive.sol\":897:904  _nombre */\n      dup2\n        /* \"contracts/15_ContractExoLive.sol\":884:905  nombres.push(_nombre) */\n      swap1\n      dup1\n      0x01\n      dup2\n      sload\n      add\n      dup1\n      dup3\n      sstore\n      dup1\n      swap2\n      pop\n      pop\n      0x01\n      swap1\n      sub\n      swap1\n      0x00\n      mstore\n      keccak256(0x00, 0x20)\n      add\n      0x00\n      swap1\n      swap2\n      swap1\n      swap2\n      swap1\n      swap2\n      pop\n      sstore\n        /* \"contracts/15_ContractExoLive.sol\":830:912  function addNombres(uint256 _nombre) public {... */\n      pop\n      jump\t// out\n        /* \"contracts/15_ContractExoLive.sol\":918:1310  function getNombresX2() external view returns (uint256[] memory) {... */\n    tag_22:\n        /* \"contracts/15_ContractExoLive.sol\":965:981  uint256[] memory */\n      0x60\n        /* \"contracts/15_ContractExoLive.sol\":993:1016  uint256 longueurTableau */\n      0x00\n        /* \"contracts/15_ContractExoLive.sol\":1019:1026  nombres */\n      0x00\n        /* \"contracts/15_ContractExoLive.sol\":1019:1033  nombres.length */\n      dup1\n      sload\n      swap1\n      pop\n        /* \"contracts/15_ContractExoLive.sol\":993:1033  uint256 longueurTableau = nombres.length */\n      swap1\n      pop\n        /* \"contracts/15_ContractExoLive.sol\":1109:1135  uint256[] memory nombresX2 */\n      0x00\n        /* \"contracts/15_ContractExoLive.sol\":1152:1167  longueurTableau */\n      dup2\n        /* \"contracts/15_ContractExoLive.sol\":1138:1168  new uint256[](longueurTableau) */\n      0xffffffffffffffff\n      dup2\n      gt\n      iszero\n      tag_39\n      jumpi\n      tag_40\n      tag_41\n      jump\t// in\n    tag_40:\n    tag_39:\n      mload(0x40)\n      swap1\n      dup1\n      dup3\n      mstore\n      dup1\n      0x20\n      mul\n      0x20\n      add\n      dup3\n      add\n      0x40\n      mstore\n      dup1\n      iszero\n      tag_42\n      jumpi\n      dup2\n      0x20\n      add\n      0x20\n      dup3\n      mul\n      dup1\n      calldatasize\n      dup4\n      calldatacopy\n      dup1\n      dup3\n      add\n      swap2\n      pop\n      pop\n      swap1\n      pop\n    tag_42:\n      pop\n        /* \"contracts/15_ContractExoLive.sol\":1109:1168  uint256[] memory nombresX2 = new uint256[](longueurTableau) */\n      swap1\n      pop\n        /* \"contracts/15_ContractExoLive.sol\":1183:1192  uint256 i */\n      0x00\n        /* \"contracts/15_ContractExoLive.sol\":1195:1196  0 */\n      0x00\n        /* \"contracts/15_ContractExoLive.sol\":1183:1196  uint256 i = 0 */\n      swap1\n      pop\n        /* \"contracts/15_ContractExoLive.sol\":1178:1278  for (uint256 i = 0; i < longueurTableau; i++) {... */\n    tag_43:\n        /* \"contracts/15_ContractExoLive.sol\":1202:1217  longueurTableau */\n      dup3\n        /* \"contracts/15_ContractExoLive.sol\":1198:1199  i */\n      dup2\n        /* \"contracts/15_ContractExoLive.sol\":1198:1217  i < longueurTableau */\n      lt\n        /* \"contracts/15_ContractExoLive.sol\":1178:1278  for (uint256 i = 0; i < longueurTableau; i++) {... */\n      iszero\n      tag_44\n      jumpi\n        /* \"contracts/15_ContractExoLive.sol\":1266:1267  2 */\n      0x02\n        /* \"contracts/15_ContractExoLive.sol\":1253:1260  nombres */\n      0x00\n        /* \"contracts/15_ContractExoLive.sol\":1261:1262  i */\n      dup3\n        /* \"contracts/15_ContractExoLive.sol\":1253:1263  nombres[i] */\n      dup2\n      sload\n      dup2\n      lt\n      tag_46\n      jumpi\n      tag_47\n      tag_31\n      jump\t// in\n    tag_47:\n    tag_46:\n      swap1\n      0x00\n      mstore\n      keccak256(0x00, 0x20)\n      add\n      sload\n        /* \"contracts/15_ContractExoLive.sol\":1253:1267  nombres[i] * 2 */\n      tag_49\n      swap2\n      swap1\n      tag_50\n      jump\t// in\n    tag_49:\n        /* \"contracts/15_ContractExoLive.sol\":1238:1247  nombresX2 */\n      dup3\n        /* \"contracts/15_ContractExoLive.sol\":1248:1249  i */\n      dup3\n        /* \"contracts/15_ContractExoLive.sol\":1238:1250  nombresX2[i] */\n      dup2\n      mload\n      dup2\n      lt\n      tag_51\n      jumpi\n      tag_52\n      tag_31\n      jump\t// in\n    tag_52:\n    tag_51:\n      0x20\n      mul\n      0x20\n      add\n      add\n        /* \"contracts/15_ContractExoLive.sol\":1238:1267  nombresX2[i] = nombres[i] * 2 */\n      dup2\n      dup2\n      mstore\n      pop\n      pop\n        /* \"contracts/15_ContractExoLive.sol\":1219:1222  i++ */\n      dup1\n      dup1\n      0x01\n      add\n      swap2\n      pop\n      pop\n        /* \"contracts/15_ContractExoLive.sol\":1178:1278  for (uint256 i = 0; i < longueurTableau; i++) {... */\n      jump(tag_43)\n    tag_44:\n      pop\n        /* \"contracts/15_ContractExoLive.sol\":1294:1303  nombresX2 */\n      dup1\n        /* \"contracts/15_ContractExoLive.sol\":1287:1303  return nombresX2 */\n      swap3\n      pop\n      pop\n      pop\n        /* \"contracts/15_ContractExoLive.sol\":918:1310  function getNombresX2() external view returns (uint256[] memory) {... */\n      swap1\n      jump\t// out\n        /* \"#utility.yul\":7:82   */\n    tag_53:\n        /* \"#utility.yul\":40:46   */\n      0x00\n        /* \"#utility.yul\":73:75   */\n      0x40\n        /* \"#utility.yul\":67:76   */\n      mload\n        /* \"#utility.yul\":57:76   */\n      swap1\n      pop\n        /* \"#utility.yul\":7:82   */\n      swap1\n      jump\t// out\n        /* \"#utility.yul\":88:205   */\n    tag_54:\n        /* \"#utility.yul\":197:198   */\n      0x00\n        /* \"#utility.yul\":194:195   */\n      0x00\n        /* \"#utility.yul\":187:199   */\n      revert\n        /* \"#utility.yul\":211:328   */\n    tag_55:\n        /* \"#utility.yul\":320:321   */\n      0x00\n        /* \"#utility.yul\":317:318   */\n      0x00\n        /* \"#utility.yul\":310:322   */\n      revert\n        /* \"#utility.yul\":334:451   */\n    tag_56:\n        /* \"#utility.yul\":443:444   */\n      0x00\n        /* \"#utility.yul\":440:441   */\n      0x00\n        /* \"#utility.yul\":433:445   */\n      revert\n        /* \"#utility.yul\":457:559   */\n    tag_57:\n        /* \"#utility.yul\":498:504   */\n      0x00\n        /* \"#utility.yul\":549:551   */\n      0x1f\n        /* \"#utility.yul\":545:552   */\n      not\n        /* \"#utility.yul\":540:542   */\n      0x1f\n        /* \"#utility.yul\":533:538   */\n      dup4\n        /* \"#utility.yul\":529:543   */\n      add\n        /* \"#utility.yul\":525:553   */\n      and\n        /* \"#utility.yul\":515:553   */\n      swap1\n      pop\n        /* \"#utility.yul\":457:559   */\n      swap2\n      swap1\n      pop\n      jump\t// out\n        /* \"#utility.yul\":565:745   */\n    tag_41:\n        /* \"#utility.yul\":613:690   */\n      0x4e487b7100000000000000000000000000000000000000000000000000000000\n        /* \"#utility.yul\":610:611   */\n      0x00\n        /* \"#utility.yul\":603:691   */\n      mstore\n        /* \"#utility.yul\":710:714   */\n      0x41\n        /* \"#utility.yul\":707:708   */\n      0x04\n        /* \"#utility.yul\":700:715   */\n      mstore\n        /* \"#utility.yul\":734:738   */\n      0x24\n        /* \"#utility.yul\":731:732   */\n      0x00\n        /* \"#utility.yul\":724:739   */\n      revert\n        /* \"#utility.yul\":751:1032   */\n    tag_58:\n        /* \"#utility.yul\":834:861   */\n      tag_84\n        /* \"#utility.yul\":856:860   */\n      dup3\n        /* \"#utility.yul\":834:861   */\n      tag_57\n      jump\t// in\n    tag_84:\n        /* \"#utility.yul\":826:832   */\n      dup2\n        /* \"#utility.yul\":822:862   */\n      add\n        /* \"#utility.yul\":964:970   */\n      dup2\n        /* \"#utility.yul\":952:962   */\n      dup2\n        /* \"#utility.yul\":949:971   */\n      lt\n        /* \"#utility.yul\":928:946   */\n      0xffffffffffffffff\n        /* \"#utility.yul\":916:926   */\n      dup3\n        /* \"#utility.yul\":913:947   */\n      gt\n        /* \"#utility.yul\":910:972   */\n      or\n        /* \"#utility.yul\":907:995   */\n      iszero\n      tag_85\n      jumpi\n        /* \"#utility.yul\":975:993   */\n      tag_86\n      tag_41\n      jump\t// in\n    tag_86:\n        /* \"#utility.yul\":907:995   */\n    tag_85:\n        /* \"#utility.yul\":1015:1025   */\n      dup1\n        /* \"#utility.yul\":1011:1013   */\n      0x40\n        /* \"#utility.yul\":1004:1026   */\n      mstore\n        /* \"#utility.yul\":794:1032   */\n      pop\n        /* \"#utility.yul\":751:1032   */\n      pop\n      pop\n      jump\t// out\n        /* \"#utility.yul\":1038:1167   */\n    tag_59:\n        /* \"#utility.yul\":1072:1078   */\n      0x00\n        /* \"#utility.yul\":1099:1119   */\n      tag_88\n      tag_53\n      jump\t// in\n    tag_88:\n        /* \"#utility.yul\":1089:1119   */\n      swap1\n      pop\n        /* \"#utility.yul\":1128:1161   */\n      tag_89\n        /* \"#utility.yul\":1156:1160   */\n      dup3\n        /* \"#utility.yul\":1148:1154   */\n      dup3\n        /* \"#utility.yul\":1128:1161   */\n      tag_58\n      jump\t// in\n    tag_89:\n        /* \"#utility.yul\":1038:1167   */\n      swap2\n      swap1\n      pop\n      jump\t// out\n        /* \"#utility.yul\":1173:1484   */\n    tag_60:\n        /* \"#utility.yul\":1250:1254   */\n      0x00\n        /* \"#utility.yul\":1340:1358   */\n      0xffffffffffffffff\n        /* \"#utility.yul\":1332:1338   */\n      dup3\n        /* \"#utility.yul\":1329:1359   */\n      gt\n        /* \"#utility.yul\":1326:1382   */\n      iszero\n      tag_91\n      jumpi\n        /* \"#utility.yul\":1362:1380   */\n      tag_92\n      tag_41\n      jump\t// in\n    tag_92:\n        /* \"#utility.yul\":1326:1382   */\n    tag_91:\n        /* \"#utility.yul\":1412:1416   */\n      0x20\n        /* \"#utility.yul\":1404:1410   */\n      dup3\n        /* \"#utility.yul\":1400:1417   */\n      mul\n        /* \"#utility.yul\":1392:1417   */\n      swap1\n      pop\n        /* \"#utility.yul\":1472:1476   */\n      0x20\n        /* \"#utility.yul\":1466:1470   */\n      dup2\n        /* \"#utility.yul\":1462:1477   */\n      add\n        /* \"#utility.yul\":1454:1477   */\n      swap1\n      pop\n        /* \"#utility.yul\":1173:1484   */\n      swap2\n      swap1\n      pop\n      jump\t// out\n        /* \"#utility.yul\":1490:1607   */\n    tag_61:\n        /* \"#utility.yul\":1599:1600   */\n      0x00\n        /* \"#utility.yul\":1596:1597   */\n      0x00\n        /* \"#utility.yul\":1589:1601   */\n      revert\n        /* \"#utility.yul\":1613:1690   */\n    tag_62:\n        /* \"#utility.yul\":1650:1657   */\n      0x00\n        /* \"#utility.yul\":1679:1684   */\n      dup2\n        /* \"#utility.yul\":1668:1684   */\n      swap1\n      pop\n        /* \"#utility.yul\":1613:1690   */\n      swap2\n      swap1\n      pop\n      jump\t// out\n        /* \"#utility.yul\":1696:1818   */\n    tag_63:\n        /* \"#utility.yul\":1769:1793   */\n      tag_96\n        /* \"#utility.yul\":1787:1792   */\n      dup2\n        /* \"#utility.yul\":1769:1793   */\n      tag_62\n      jump\t// in\n    tag_96:\n        /* \"#utility.yul\":1762:1767   */\n      dup2\n        /* \"#utility.yul\":1759:1794   */\n      eq\n        /* \"#utility.yul\":1749:1812   */\n      tag_97\n      jumpi\n        /* \"#utility.yul\":1808:1809   */\n      0x00\n        /* \"#utility.yul\":1805:1806   */\n      0x00\n        /* \"#utility.yul\":1798:1810   */\n      revert\n        /* \"#utility.yul\":1749:1812   */\n    tag_97:\n        /* \"#utility.yul\":1696:1818   */\n      pop\n      jump\t// out\n        /* \"#utility.yul\":1824:1963   */\n    tag_64:\n        /* \"#utility.yul\":1870:1875   */\n      0x00\n        /* \"#utility.yul\":1908:1914   */\n      dup2\n        /* \"#utility.yul\":1895:1915   */\n      calldataload\n        /* \"#utility.yul\":1886:1915   */\n      swap1\n      pop\n        /* \"#utility.yul\":1924:1957   */\n      tag_99\n        /* \"#utility.yul\":1951:1956   */\n      dup2\n        /* \"#utility.yul\":1924:1957   */\n      tag_63\n      jump\t// in\n    tag_99:\n        /* \"#utility.yul\":1824:1963   */\n      swap3\n      swap2\n      pop\n      pop\n      jump\t// out\n        /* \"#utility.yul\":1986:2696   */\n    tag_65:\n        /* \"#utility.yul\":2082:2087   */\n      0x00\n        /* \"#utility.yul\":2107:2188   */\n      tag_101\n        /* \"#utility.yul\":2123:2187   */\n      tag_102\n        /* \"#utility.yul\":2180:2186   */\n      dup5\n        /* \"#utility.yul\":2123:2187   */\n      tag_60\n      jump\t// in\n    tag_102:\n        /* \"#utility.yul\":2107:2188   */\n      tag_59\n      jump\t// in\n    tag_101:\n        /* \"#utility.yul\":2098:2188   */\n      swap1\n      pop\n        /* \"#utility.yul\":2208:2213   */\n      dup1\n        /* \"#utility.yul\":2237:2243   */\n      dup4\n        /* \"#utility.yul\":2230:2235   */\n      dup3\n        /* \"#utility.yul\":2223:2244   */\n      mstore\n        /* \"#utility.yul\":2271:2275   */\n      0x20\n        /* \"#utility.yul\":2264:2269   */\n      dup3\n        /* \"#utility.yul\":2260:2276   */\n      add\n        /* \"#utility.yul\":2253:2276   */\n      swap1\n      pop\n        /* \"#utility.yul\":2324:2328   */\n      0x20\n        /* \"#utility.yul\":2316:2322   */\n      dup5\n        /* \"#utility.yul\":2312:2329   */\n      mul\n        /* \"#utility.yul\":2304:2310   */\n      dup4\n        /* \"#utility.yul\":2300:2330   */\n      add\n        /* \"#utility.yul\":2353:2356   */\n      dup6\n        /* \"#utility.yul\":2345:2351   */\n      dup2\n        /* \"#utility.yul\":2342:2357   */\n      gt\n        /* \"#utility.yul\":2339:2461   */\n      iszero\n      tag_103\n      jumpi\n        /* \"#utility.yul\":2372:2451   */\n      tag_104\n      tag_61\n      jump\t// in\n    tag_104:\n        /* \"#utility.yul\":2339:2461   */\n    tag_103:\n        /* \"#utility.yul\":2487:2493   */\n      dup4\n        /* \"#utility.yul\":2470:2690   */\n    tag_105:\n        /* \"#utility.yul\":2504:2510   */\n      dup2\n        /* \"#utility.yul\":2499:2502   */\n      dup2\n        /* \"#utility.yul\":2496:2511   */\n      lt\n        /* \"#utility.yul\":2470:2690   */\n      iszero\n      tag_107\n      jumpi\n        /* \"#utility.yul\":2579:2582   */\n      dup1\n        /* \"#utility.yul\":2608:2645   */\n      tag_108\n        /* \"#utility.yul\":2641:2644   */\n      dup9\n        /* \"#utility.yul\":2629:2639   */\n      dup3\n        /* \"#utility.yul\":2608:2645   */\n      tag_64\n      jump\t// in\n    tag_108:\n        /* \"#utility.yul\":2603:2606   */\n      dup5\n        /* \"#utility.yul\":2596:2646   */\n      mstore\n        /* \"#utility.yul\":2675:2679   */\n      0x20\n        /* \"#utility.yul\":2670:2673   */\n      dup5\n        /* \"#utility.yul\":2666:2680   */\n      add\n        /* \"#utility.yul\":2659:2680   */\n      swap4\n      pop\n        /* \"#utility.yul\":2546:2690   */\n      pop\n        /* \"#utility.yul\":2530:2534   */\n      0x20\n        /* \"#utility.yul\":2525:2528   */\n      dup2\n        /* \"#utility.yul\":2521:2535   */\n      add\n        /* \"#utility.yul\":2514:2535   */\n      swap1\n      pop\n        /* \"#utility.yul\":2470:2690   */\n      jump(tag_105)\n    tag_107:\n        /* \"#utility.yul\":2474:2495   */\n      pop\n        /* \"#utility.yul\":2088:2696   */\n      pop\n      pop\n        /* \"#utility.yul\":1986:2696   */\n      swap4\n      swap3\n      pop\n      pop\n      pop\n      jump\t// out\n        /* \"#utility.yul\":2719:3089   */\n    tag_66:\n        /* \"#utility.yul\":2790:2795   */\n      0x00\n        /* \"#utility.yul\":2839:2842   */\n      dup3\n        /* \"#utility.yul\":2832:2836   */\n      0x1f\n        /* \"#utility.yul\":2824:2830   */\n      dup4\n        /* \"#utility.yul\":2820:2837   */\n      add\n        /* \"#utility.yul\":2816:2843   */\n      slt\n        /* \"#utility.yul\":2806:2928   */\n      tag_110\n      jumpi\n        /* \"#utility.yul\":2847:2926   */\n      tag_111\n      tag_56\n      jump\t// in\n    tag_111:\n        /* \"#utility.yul\":2806:2928   */\n    tag_110:\n        /* \"#utility.yul\":2964:2970   */\n      dup2\n        /* \"#utility.yul\":2951:2971   */\n      calldataload\n        /* \"#utility.yul\":2989:3083   */\n      tag_112\n        /* \"#utility.yul\":3079:3082   */\n      dup5\n        /* \"#utility.yul\":3071:3077   */\n      dup3\n        /* \"#utility.yul\":3064:3068   */\n      0x20\n        /* \"#utility.yul\":3056:3062   */\n      dup7\n        /* \"#utility.yul\":3052:3069   */\n      add\n        /* \"#utility.yul\":2989:3083   */\n      tag_65\n      jump\t// in\n    tag_112:\n        /* \"#utility.yul\":2980:3083   */\n      swap2\n      pop\n        /* \"#utility.yul\":2796:3089   */\n      pop\n        /* \"#utility.yul\":2719:3089   */\n      swap3\n      swap2\n      pop\n      pop\n      jump\t// out\n        /* \"#utility.yul\":3095:3634   */\n    tag_9:\n        /* \"#utility.yul\":3179:3185   */\n      0x00\n        /* \"#utility.yul\":3228:3230   */\n      0x20\n        /* \"#utility.yul\":3216:3225   */\n      dup3\n        /* \"#utility.yul\":3207:3214   */\n      dup5\n        /* \"#utility.yul\":3203:3226   */\n      sub\n        /* \"#utility.yul\":3199:3231   */\n      slt\n        /* \"#utility.yul\":3196:3315   */\n      iszero\n      tag_114\n      jumpi\n        /* \"#utility.yul\":3234:3313   */\n      tag_115\n      tag_54\n      jump\t// in\n    tag_115:\n        /* \"#utility.yul\":3196:3315   */\n    tag_114:\n        /* \"#utility.yul\":3382:3383   */\n      0x00\n        /* \"#utility.yul\":3371:3380   */\n      dup3\n        /* \"#utility.yul\":3367:3384   */\n      add\n        /* \"#utility.yul\":3354:3385   */\n      calldataload\n        /* \"#utility.yul\":3412:3430   */\n      0xffffffffffffffff\n        /* \"#utility.yul\":3404:3410   */\n      dup2\n        /* \"#utility.yul\":3401:3431   */\n      gt\n        /* \"#utility.yul\":3398:3515   */\n      iszero\n      tag_116\n      jumpi\n        /* \"#utility.yul\":3434:3513   */\n      tag_117\n      tag_55\n      jump\t// in\n    tag_117:\n        /* \"#utility.yul\":3398:3515   */\n    tag_116:\n        /* \"#utility.yul\":3539:3617   */\n      tag_118\n        /* \"#utility.yul\":3609:3616   */\n      dup5\n        /* \"#utility.yul\":3600:3606   */\n      dup3\n        /* \"#utility.yul\":3589:3598   */\n      dup6\n        /* \"#utility.yul\":3585:3607   */\n      add\n        /* \"#utility.yul\":3539:3617   */\n      tag_66\n      jump\t// in\n    tag_118:\n        /* \"#utility.yul\":3529:3617   */\n      swap2\n      pop\n        /* \"#utility.yul\":3325:3627   */\n      pop\n        /* \"#utility.yul\":3095:3634   */\n      swap3\n      swap2\n      pop\n      pop\n      jump\t// out\n        /* \"#utility.yul\":3640:3758   */\n    tag_67:\n        /* \"#utility.yul\":3727:3751   */\n      tag_120\n        /* \"#utility.yul\":3745:3750   */\n      dup2\n        /* \"#utility.yul\":3727:3751   */\n      tag_62\n      jump\t// in\n    tag_120:\n        /* \"#utility.yul\":3722:3725   */\n      dup3\n        /* \"#utility.yul\":3715:3752   */\n      mstore\n        /* \"#utility.yul\":3640:3758   */\n      pop\n      pop\n      jump\t// out\n        /* \"#utility.yul\":3764:3986   */\n    tag_12:\n        /* \"#utility.yul\":3857:3861   */\n      0x00\n        /* \"#utility.yul\":3895:3897   */\n      0x20\n        /* \"#utility.yul\":3884:3893   */\n      dup3\n        /* \"#utility.yul\":3880:3898   */\n      add\n        /* \"#utility.yul\":3872:3898   */\n      swap1\n      pop\n        /* \"#utility.yul\":3908:3979   */\n      tag_122\n        /* \"#utility.yul\":3976:3977   */\n      0x00\n        /* \"#utility.yul\":3965:3974   */\n      dup4\n        /* \"#utility.yul\":3961:3978   */\n      add\n        /* \"#utility.yul\":3952:3958   */\n      dup5\n        /* \"#utility.yul\":3908:3979   */\n      tag_67\n      jump\t// in\n    tag_122:\n        /* \"#utility.yul\":3764:3986   */\n      swap3\n      swap2\n      pop\n      pop\n      jump\t// out\n        /* \"#utility.yul\":3992:4321   */\n    tag_15:\n        /* \"#utility.yul\":4051:4057   */\n      0x00\n        /* \"#utility.yul\":4100:4102   */\n      0x20\n        /* \"#utility.yul\":4088:4097   */\n      dup3\n        /* \"#utility.yul\":4079:4086   */\n      dup5\n        /* \"#utility.yul\":4075:4098   */\n      sub\n        /* \"#utility.yul\":4071:4103   */\n      slt\n        /* \"#utility.yul\":4068:4187   */\n      iszero\n      tag_124\n      jumpi\n        /* \"#utility.yul\":4106:4185   */\n      tag_125\n      tag_54\n      jump\t// in\n    tag_125:\n        /* \"#utility.yul\":4068:4187   */\n    tag_124:\n        /* \"#utility.yul\":4226:4227   */\n      0x00\n        /* \"#utility.yul\":4251:4304   */\n      tag_126\n        /* \"#utility.yul\":4296:4303   */\n      dup5\n        /* \"#utility.yul\":4287:4293   */\n      dup3\n        /* \"#utility.yul\":4276:4285   */\n      dup6\n        /* \"#utility.yul\":4272:4294   */\n      add\n        /* \"#utility.yul\":4251:4304   */\n      tag_64\n      jump\t// in\n    tag_126:\n        /* \"#utility.yul\":4241:4304   */\n      swap2\n      pop\n        /* \"#utility.yul\":4197:4314   */\n      pop\n        /* \"#utility.yul\":3992:4321   */\n      swap3\n      swap2\n      pop\n      pop\n      jump\t// out\n        /* \"#utility.yul\":4327:4441   */\n    tag_68:\n        /* \"#utility.yul\":4394:4400   */\n      0x00\n        /* \"#utility.yul\":4428:4433   */\n      dup2\n        /* \"#utility.yul\":4422:4434   */\n      mload\n        /* \"#utility.yul\":4412:4434   */\n      swap1\n      pop\n        /* \"#utility.yul\":4327:4441   */\n      swap2\n      swap1\n      pop\n      jump\t// out\n        /* \"#utility.yul\":4447:4631   */\n    tag_69:\n        /* \"#utility.yul\":4546:4557   */\n      0x00\n        /* \"#utility.yul\":4580:4586   */\n      dup3\n        /* \"#utility.yul\":4575:4578   */\n      dup3\n        /* \"#utility.yul\":4568:4587   */\n      mstore\n        /* \"#utility.yul\":4620:4624   */\n      0x20\n        /* \"#utility.yul\":4615:4618   */\n      dup3\n        /* \"#utility.yul\":4611:4625   */\n      add\n        /* \"#utility.yul\":4596:4625   */\n      swap1\n      pop\n        /* \"#utility.yul\":4447:4631   */\n      swap3\n      swap2\n      pop\n      pop\n      jump\t// out\n        /* \"#utility.yul\":4637:4769   */\n    tag_70:\n        /* \"#utility.yul\":4704:4708   */\n      0x00\n        /* \"#utility.yul\":4727:4730   */\n      dup2\n        /* \"#utility.yul\":4719:4730   */\n      swap1\n      pop\n        /* \"#utility.yul\":4757:4761   */\n      0x20\n        /* \"#utility.yul\":4752:4755   */\n      dup3\n        /* \"#utility.yul\":4748:4762   */\n      add\n        /* \"#utility.yul\":4740:4762   */\n      swap1\n      pop\n        /* \"#utility.yul\":4637:4769   */\n      swap2\n      swap1\n      pop\n      jump\t// out\n        /* \"#utility.yul\":4775:4883   */\n    tag_71:\n        /* \"#utility.yul\":4852:4876   */\n      tag_131\n        /* \"#utility.yul\":4870:4875   */\n      dup2\n        /* \"#utility.yul\":4852:4876   */\n      tag_62\n      jump\t// in\n    tag_131:\n        /* \"#utility.yul\":4847:4850   */\n      dup3\n        /* \"#utility.yul\":4840:4877   */\n      mstore\n        /* \"#utility.yul\":4775:4883   */\n      pop\n      pop\n      jump\t// out\n        /* \"#utility.yul\":4889:5068   */\n    tag_72:\n        /* \"#utility.yul\":4958:4968   */\n      0x00\n        /* \"#utility.yul\":4979:5025   */\n      tag_133\n        /* \"#utility.yul\":5021:5024   */\n      dup4\n        /* \"#utility.yul\":5013:5019   */\n      dup4\n        /* \"#utility.yul\":4979:5025   */\n      tag_71\n      jump\t// in\n    tag_133:\n        /* \"#utility.yul\":5057:5061   */\n      0x20\n        /* \"#utility.yul\":5052:5055   */\n      dup4\n        /* \"#utility.yul\":5048:5062   */\n      add\n        /* \"#utility.yul\":5034:5062   */\n      swap1\n      pop\n        /* \"#utility.yul\":4889:5068   */\n      swap3\n      swap2\n      pop\n      pop\n      jump\t// out\n        /* \"#utility.yul\":5074:5187   */\n    tag_73:\n        /* \"#utility.yul\":5144:5148   */\n      0x00\n        /* \"#utility.yul\":5176:5180   */\n      0x20\n        /* \"#utility.yul\":5171:5174   */\n      dup3\n        /* \"#utility.yul\":5167:5181   */\n      add\n        /* \"#utility.yul\":5159:5181   */\n      swap1\n      pop\n        /* \"#utility.yul\":5074:5187   */\n      swap2\n      swap1\n      pop\n      jump\t// out\n        /* \"#utility.yul\":5223:5955   */\n    tag_74:\n        /* \"#utility.yul\":5342:5345   */\n      0x00\n        /* \"#utility.yul\":5371:5425   */\n      tag_136\n        /* \"#utility.yul\":5419:5424   */\n      dup3\n        /* \"#utility.yul\":5371:5425   */\n      tag_68\n      jump\t// in\n    tag_136:\n        /* \"#utility.yul\":5441:5527   */\n      tag_137\n        /* \"#utility.yul\":5520:5526   */\n      dup2\n        /* \"#utility.yul\":5515:5518   */\n      dup6\n        /* \"#utility.yul\":5441:5527   */\n      tag_69\n      jump\t// in\n    tag_137:\n        /* \"#utility.yul\":5434:5527   */\n      swap4\n      pop\n        /* \"#utility.yul\":5551:5607   */\n      tag_138\n        /* \"#utility.yul\":5601:5606   */\n      dup4\n        /* \"#utility.yul\":5551:5607   */\n      tag_70\n      jump\t// in\n    tag_138:\n        /* \"#utility.yul\":5630:5637   */\n      dup1\n        /* \"#utility.yul\":5661:5662   */\n      0x00\n        /* \"#utility.yul\":5646:5930   */\n    tag_139:\n        /* \"#utility.yul\":5671:5677   */\n      dup4\n        /* \"#utility.yul\":5668:5669   */\n      dup2\n        /* \"#utility.yul\":5665:5678   */\n      lt\n        /* \"#utility.yul\":5646:5930   */\n      iszero\n      tag_141\n      jumpi\n        /* \"#utility.yul\":5747:5753   */\n      dup2\n        /* \"#utility.yul\":5741:5754   */\n      mload\n        /* \"#utility.yul\":5774:5837   */\n      tag_142\n        /* \"#utility.yul\":5833:5836   */\n      dup9\n        /* \"#utility.yul\":5818:5831   */\n      dup3\n        /* \"#utility.yul\":5774:5837   */\n      tag_72\n      jump\t// in\n    tag_142:\n        /* \"#utility.yul\":5767:5837   */\n      swap8\n      pop\n        /* \"#utility.yul\":5860:5920   */\n      tag_143\n        /* \"#utility.yul\":5913:5919   */\n      dup4\n        /* \"#utility.yul\":5860:5920   */\n      tag_73\n      jump\t// in\n    tag_143:\n        /* \"#utility.yul\":5850:5920   */\n      swap3\n      pop\n        /* \"#utility.yul\":5706:5930   */\n      pop\n        /* \"#utility.yul\":5693:5694   */\n      0x01\n        /* \"#utility.yul\":5690:5691   */\n      dup2\n        /* \"#utility.yul\":5686:5695   */\n      add\n        /* \"#utility.yul\":5681:5695   */\n      swap1\n      pop\n        /* \"#utility.yul\":5646:5930   */\n      jump(tag_139)\n    tag_141:\n        /* \"#utility.yul\":5650:5664   */\n      pop\n        /* \"#utility.yul\":5946:5949   */\n      dup6\n        /* \"#utility.yul\":5939:5949   */\n      swap4\n      pop\n        /* \"#utility.yul\":5347:5955   */\n      pop\n      pop\n      pop\n        /* \"#utility.yul\":5223:5955   */\n      swap3\n      swap2\n      pop\n      pop\n      jump\t// out\n        /* \"#utility.yul\":5961:6334   */\n    tag_24:\n        /* \"#utility.yul\":6104:6108   */\n      0x00\n        /* \"#utility.yul\":6142:6144   */\n      0x20\n        /* \"#utility.yul\":6131:6140   */\n      dup3\n        /* \"#utility.yul\":6127:6145   */\n      add\n        /* \"#utility.yul\":6119:6145   */\n      swap1\n      pop\n        /* \"#utility.yul\":6191:6200   */\n      dup2\n        /* \"#utility.yul\":6185:6189   */\n      dup2\n        /* \"#utility.yul\":6181:6201   */\n      sub\n        /* \"#utility.yul\":6177:6178   */\n      0x00\n        /* \"#utility.yul\":6166:6175   */\n      dup4\n        /* \"#utility.yul\":6162:6179   */\n      add\n        /* \"#utility.yul\":6155:6202   */\n      mstore\n        /* \"#utility.yul\":6219:6327   */\n      tag_145\n        /* \"#utility.yul\":6322:6326   */\n      dup2\n        /* \"#utility.yul\":6313:6319   */\n      dup5\n        /* \"#utility.yul\":6219:6327   */\n      tag_74\n      jump\t// in\n    tag_145:\n        /* \"#utility.yul\":6211:6327   */\n      swap1\n      pop\n        /* \"#utility.yul\":5961:6334   */\n      swap3\n      swap2\n      pop\n      pop\n      jump\t// out\n        /* \"#utility.yul\":6340:6520   */\n    tag_31:\n        /* \"#utility.yul\":6388:6465   */\n      0x4e487b7100000000000000000000000000000000000000000000000000000000\n        /* \"#utility.yul\":6385:6386   */\n      0x00\n        /* \"#utility.yul\":6378:6466   */\n      mstore\n        /* \"#utility.yul\":6485:6489   */\n      0x32\n        /* \"#utility.yul\":6482:6483   */\n      0x04\n        /* \"#utility.yul\":6475:6490   */\n      mstore\n        /* \"#utility.yul\":6509:6513   */\n      0x24\n        /* \"#utility.yul\":6506:6507   */\n      0x00\n        /* \"#utility.yul\":6499:6514   */\n      revert\n        /* \"#utility.yul\":6526:6706   */\n    tag_75:\n        /* \"#utility.yul\":6574:6651   */\n      0x4e487b7100000000000000000000000000000000000000000000000000000000\n        /* \"#utility.yul\":6571:6572   */\n      0x00\n        /* \"#utility.yul\":6564:6652   */\n      mstore\n        /* \"#utility.yul\":6671:6675   */\n      0x11\n        /* \"#utility.yul\":6668:6669   */\n      0x04\n        /* \"#utility.yul\":6661:6676   */\n      mstore\n        /* \"#utility.yul\":6695:6699   */\n      0x24\n        /* \"#utility.yul\":6692:6693   */\n      0x00\n        /* \"#utility.yul\":6685:6700   */\n      revert\n        /* \"#utility.yul\":6712:6903   */\n    tag_33:\n        /* \"#utility.yul\":6752:6755   */\n      0x00\n        /* \"#utility.yul\":6771:6791   */\n      tag_149\n        /* \"#utility.yul\":6789:6790   */\n      dup3\n        /* \"#utility.yul\":6771:6791   */\n      tag_62\n      jump\t// in\n    tag_149:\n        /* \"#utility.yul\":6766:6791   */\n      swap2\n      pop\n        /* \"#utility.yul\":6805:6825   */\n      tag_150\n        /* \"#utility.yul\":6823:6824   */\n      dup4\n        /* \"#utility.yul\":6805:6825   */\n      tag_62\n      jump\t// in\n    tag_150:\n        /* \"#utility.yul\":6800:6825   */\n      swap3\n      pop\n        /* \"#utility.yul\":6848:6849   */\n      dup3\n        /* \"#utility.yul\":6845:6846   */\n      dup3\n        /* \"#utility.yul\":6841:6850   */\n      add\n        /* \"#utility.yul\":6834:6850   */\n      swap1\n      pop\n        /* \"#utility.yul\":6869:6872   */\n      dup1\n        /* \"#utility.yul\":6866:6867   */\n      dup3\n        /* \"#utility.yul\":6863:6873   */\n      gt\n        /* \"#utility.yul\":6860:6896   */\n      iszero\n      tag_151\n      jumpi\n        /* \"#utility.yul\":6876:6894   */\n      tag_152\n      tag_75\n      jump\t// in\n    tag_152:\n        /* \"#utility.yul\":6860:6896   */\n    tag_151:\n        /* \"#utility.yul\":6712:6903   */\n      swap3\n      swap2\n      pop\n      pop\n      jump\t// out\n        /* \"#utility.yul\":6909:7319   */\n    tag_50:\n        /* \"#utility.yul\":6949:6956   */\n      0x00\n        /* \"#utility.yul\":6972:6992   */\n      tag_154\n        /* \"#utility.yul\":6990:6991   */\n      dup3\n        /* \"#utility.yul\":6972:6992   */\n      tag_62\n      jump\t// in\n    tag_154:\n        /* \"#utility.yul\":6967:6992   */\n      swap2\n      pop\n        /* \"#utility.yul\":7006:7026   */\n      tag_155\n        /* \"#utility.yul\":7024:7025   */\n      dup4\n        /* \"#utility.yul\":7006:7026   */\n      tag_62\n      jump\t// in\n    tag_155:\n        /* \"#utility.yul\":7001:7026   */\n      swap3\n      pop\n        /* \"#utility.yul\":7061:7062   */\n      dup3\n        /* \"#utility.yul\":7058:7059   */\n      dup3\n        /* \"#utility.yul\":7054:7063   */\n      mul\n        /* \"#utility.yul\":7083:7113   */\n      tag_156\n        /* \"#utility.yul\":7101:7112   */\n      dup2\n        /* \"#utility.yul\":7083:7113   */\n      tag_62\n      jump\t// in\n    tag_156:\n        /* \"#utility.yul\":7072:7113   */\n      swap2\n      pop\n        /* \"#utility.yul\":7262:7263   */\n      dup3\n        /* \"#utility.yul\":7253:7260   */\n      dup3\n        /* \"#utility.yul\":7249:7264   */\n      div\n        /* \"#utility.yul\":7246:7247   */\n      dup5\n        /* \"#utility.yul\":7243:7265   */\n      eq\n        /* \"#utility.yul\":7223:7224   */\n      dup4\n        /* \"#utility.yul\":7216:7225   */\n      iszero\n        /* \"#utility.yul\":7196:7279   */\n      or\n        /* \"#utility.yul\":7173:7312   */\n      tag_157\n      jumpi\n        /* \"#utility.yul\":7292:7310   */\n      tag_158\n      tag_75\n      jump\t// in\n    tag_158:\n        /* \"#utility.yul\":7173:7312   */\n    tag_157:\n        /* \"#utility.yul\":6957:7319   */\n      pop\n        /* \"#utility.yul\":6909:7319   */\n      swap3\n      swap2\n      pop\n      pop\n      jump\t// out\n\n    auxdata: 0xa2646970667358221220bb5f42ded746eacc4b55ddc49b9aaadc1a51ec904cd0f4596c332875e4801a8464736f6c634300081c0033\n}\n",
				"bytecode": {
					"linkReferences": {},
					"object": "6080604052348015600e575f5ffd5b506106478061001c5f395ff3fe608060405234801561000f575f5ffd5b506004361061004a575f3560e01c806349b5a6361461004e5780637692fb5f1461007e578063a7521982146100ae578063def703a8146100ca575b5f5ffd5b610068600480360381019061006391906103d2565b6100e8565b6040516100759190610428565b60405180910390f35b61009860048036038101906100939190610441565b610137565b6040516100a59190610428565b60405180910390f35b6100c860048036038101906100c39190610441565b610156565b005b6100d261017e565b6040516100df9190610523565b60405180910390f35b5f5f5f5f90505b835181101561012d5783818151811061010b5761010a610543565b5b60200260200101518261011e919061059d565b915080806001019150506100ef565b5080915050919050565b5f8181548110610145575f80fd5b905f5260205f20015f915090505481565b5f81908060018154018082558091505060019003905f5260205f20015f909190919091505550565b60605f5f8054905090505f8167ffffffffffffffff8111156101a3576101a2610263565b5b6040519080825280602002602001820160405280156101d15781602001602082028036833780820191505090505b5090505f5f90505b828110156102355760025f82815481106101f6576101f5610543565b5b905f5260205f20015461020991906105d0565b82828151811061021c5761021b610543565b5b60200260200101818152505080806001019150506101d9565b50809250505090565b5f604051905090565b5f5ffd5b5f5ffd5b5f5ffd5b5f601f19601f8301169050919050565b7f4e487b71000000000000000000000000000000000000000000000000000000005f52604160045260245ffd5b61029982610253565b810181811067ffffffffffffffff821117156102b8576102b7610263565b5b80604052505050565b5f6102ca61023e565b90506102d68282610290565b919050565b5f67ffffffffffffffff8211156102f5576102f4610263565b5b602082029050602081019050919050565b5f5ffd5b5f819050919050565b61031c8161030a565b8114610326575f5ffd5b50565b5f8135905061033781610313565b92915050565b5f61034f61034a846102db565b6102c1565b9050808382526020820190506020840283018581111561037257610371610306565b5b835b8181101561039b57806103878882610329565b845260208401935050602081019050610374565b5050509392505050565b5f82601f8301126103b9576103b861024f565b5b81356103c984826020860161033d565b91505092915050565b5f602082840312156103e7576103e6610247565b5b5f82013567ffffffffffffffff8111156104045761040361024b565b5b610410848285016103a5565b91505092915050565b6104228161030a565b82525050565b5f60208201905061043b5f830184610419565b92915050565b5f6020828403121561045657610455610247565b5b5f61046384828501610329565b91505092915050565b5f81519050919050565b5f82825260208201905092915050565b5f819050602082019050919050565b61049e8161030a565b82525050565b5f6104af8383610495565b60208301905092915050565b5f602082019050919050565b5f6104d18261046c565b6104db8185610476565b93506104e683610486565b805f5b838110156105165781516104fd88826104a4565b9750610508836104bb565b9250506001810190506104e9565b5085935050505092915050565b5f6020820190508181035f83015261053b81846104c7565b905092915050565b7f4e487b71000000000000000000000000000000000000000000000000000000005f52603260045260245ffd5b7f4e487b71000000000000000000000000000000000000000000000000000000005f52601160045260245ffd5b5f6105a78261030a565b91506105b28361030a565b92508282019050808211156105ca576105c9610570565b5b92915050565b5f6105da8261030a565b91506105e58361030a565b92508282026105f38161030a565b9150828204841483151761060a57610609610570565b5b509291505056fea2646970667358221220bb5f42ded746eacc4b55ddc49b9aaadc1a51ec904cd0f4596c332875e4801a8464736f6c634300081c0033",
					"opcodes": "PUSH1 0x80 PUSH1 0x40 MSTORE CALLVALUE DUP1 ISZERO PUSH1 0xE JUMPI PUSH0 PUSH0 REVERT JUMPDEST POP PUSH2 0x647 DUP1 PUSH2 0x1C PUSH0 CODECOPY PUSH0 RETURN INVALID PUSH1 0x80 PUSH1 0x40 MSTORE CALLVALUE DUP1 ISZERO PUSH2 0xF JUMPI PUSH0 PUSH0 REVERT JUMPDEST POP PUSH1 0x4 CALLDATASIZE LT PUSH2 0x4A JUMPI PUSH0 CALLDATALOAD PUSH1 0xE0 SHR DUP1 PUSH4 0x49B5A636 EQ PUSH2 0x4E JUMPI DUP1 PUSH4 0x7692FB5F EQ PUSH2 0x7E JUMPI DUP1 PUSH4 0xA7521982 EQ PUSH2 0xAE JUMPI DUP1 PUSH4 0xDEF703A8 EQ PUSH2 0xCA JUMPI JUMPDEST PUSH0 PUSH0 REVERT JUMPDEST PUSH2 0x68 PUSH1 0x4 DUP1 CALLDATASIZE SUB DUP2 ADD SWAP1 PUSH2 0x63 SWAP2 SWAP1 PUSH2 0x3D2 JUMP JUMPDEST PUSH2 0xE8 JUMP JUMPDEST PUSH1 0x40 MLOAD PUSH2 0x75 SWAP2 SWAP1 PUSH2 0x428 JUMP JUMPDEST PUSH1 0x40 MLOAD DUP1 SWAP2 SUB SWAP1 RETURN JUMPDEST PUSH2 0x98 PUSH1 0x4 DUP1 CALLDATASIZE SUB DUP2 ADD SWAP1 PUSH2 0x93 SWAP2 SWAP1 PUSH2 0x441 JUMP JUMPDEST PUSH2 0x137 JUMP JUMPDEST PUSH1 0x40 MLOAD PUSH2 0xA5 SWAP2 SWAP1 PUSH2 0x428 JUMP JUMPDEST PUSH1 0x40 MLOAD DUP1 SWAP2 SUB SWAP1 RETURN JUMPDEST PUSH2 0xC8 PUSH1 0x4 DUP1 CALLDATASIZE SUB DUP2 ADD SWAP1 PUSH2 0xC3 SWAP2 SWAP1 PUSH2 0x441 JUMP JUMPDEST PUSH2 0x156 JUMP JUMPDEST STOP JUMPDEST PUSH2 0xD2 PUSH2 0x17E JUMP JUMPDEST PUSH1 0x40 MLOAD PUSH2 0xDF SWAP2 SWAP1 PUSH2 0x523 JUMP JUMPDEST PUSH1 0x40 MLOAD DUP1 SWAP2 SUB SWAP1 RETURN JUMPDEST PUSH0 PUSH0 PUSH0 PUSH0 SWAP1 POP JUMPDEST DUP4 MLOAD DUP2 LT ISZERO PUSH2 0x12D JUMPI DUP4 DUP2 DUP2 MLOAD DUP2 LT PUSH2 0x10B JUMPI PUSH2 0x10A PUSH2 0x543 JUMP JUMPDEST JUMPDEST PUSH1 0x20 MUL PUSH1 0x20 ADD ADD MLOAD DUP3 PUSH2 0x11E SWAP2 SWAP1 PUSH2 0x59D JUMP JUMPDEST SWAP2 POP DUP1 DUP1 PUSH1 0x1 ADD SWAP2 POP POP PUSH2 0xEF JUMP JUMPDEST POP DUP1 SWAP2 POP POP SWAP2 SWAP1 POP JUMP JUMPDEST PUSH0 DUP2 DUP2 SLOAD DUP2 LT PUSH2 0x145 JUMPI PUSH0 DUP1 REVERT JUMPDEST SWAP1 PUSH0 MSTORE PUSH1 0x20 PUSH0 KECCAK256 ADD PUSH0 SWAP2 POP SWAP1 POP SLOAD DUP2 JUMP JUMPDEST PUSH0 DUP2 SWAP1 DUP1 PUSH1 0x1 DUP2 SLOAD ADD DUP1 DUP3 SSTORE DUP1 SWAP2 POP POP PUSH1 0x1 SWAP1 SUB SWAP1 PUSH0 MSTORE PUSH1 0x20 PUSH0 KECCAK256 ADD PUSH0 SWAP1 SWAP2 SWAP1 SWAP2 SWAP1 SWAP2 POP SSTORE POP JUMP JUMPDEST PUSH1 0x60 PUSH0 PUSH0 DUP1 SLOAD SWAP1 POP SWAP1 POP PUSH0 DUP2 PUSH8 0xFFFFFFFFFFFFFFFF DUP2 GT ISZERO PUSH2 0x1A3 JUMPI PUSH2 0x1A2 PUSH2 0x263 JUMP JUMPDEST JUMPDEST PUSH1 0x40 MLOAD SWAP1 DUP1 DUP3 MSTORE DUP1 PUSH1 0x20 MUL PUSH1 0x20 ADD DUP3 ADD PUSH1 0x40 MSTORE DUP1 ISZERO PUSH2 0x1D1 JUMPI DUP2 PUSH1 0x20 ADD PUSH1 0x20 DUP3 MUL DUP1 CALLDATASIZE DUP4 CALLDATACOPY DUP1 DUP3 ADD SWAP2 POP POP SWAP1 POP JUMPDEST POP SWAP1 POP PUSH0 PUSH0 SWAP1 POP JUMPDEST DUP3 DUP2 LT ISZERO PUSH2 0x235 JUMPI PUSH1 0x2 PUSH0 DUP3 DUP2 SLOAD DUP2 LT PUSH2 0x1F6 JUMPI PUSH2 0x1F5 PUSH2 0x543 JUMP JUMPDEST JUMPDEST SWAP1 PUSH0 MSTORE PUSH1 0x20 PUSH0 KECCAK256 ADD SLOAD PUSH2 0x209 SWAP2 SWAP1 PUSH2 0x5D0 JUMP JUMPDEST DUP3 DUP3 DUP2 MLOAD DUP2 LT PUSH2 0x21C JUMPI PUSH2 0x21B PUSH2 0x543 JUMP JUMPDEST JUMPDEST PUSH1 0x20 MUL PUSH1 0x20 ADD ADD DUP2 DUP2 MSTORE POP POP DUP1 DUP1 PUSH1 0x1 ADD SWAP2 POP POP PUSH2 0x1D9 JUMP JUMPDEST POP DUP1 SWAP3 POP POP POP SWAP1 JUMP JUMPDEST PUSH0 PUSH1 0x40 MLOAD SWAP1 POP SWAP1 JUMP JUMPDEST PUSH0 PUSH0 REVERT JUMPDEST PUSH0 PUSH0 REVERT JUMPDEST PUSH0 PUSH0 REVERT JUMPDEST PUSH0 PUSH1 0x1F NOT PUSH1 0x1F DUP4 ADD AND SWAP1 POP SWAP2 SWAP1 POP JUMP JUMPDEST PUSH32 0x4E487B7100000000000000000000000000000000000000000000000000000000 PUSH0 MSTORE PUSH1 0x41 PUSH1 0x4 MSTORE PUSH1 0x24 PUSH0 REVERT JUMPDEST PUSH2 0x299 DUP3 PUSH2 0x253 JUMP JUMPDEST DUP2 ADD DUP2 DUP2 LT PUSH8 0xFFFFFFFFFFFFFFFF DUP3 GT OR ISZERO PUSH2 0x2B8 JUMPI PUSH2 0x2B7 PUSH2 0x263 JUMP JUMPDEST JUMPDEST DUP1 PUSH1 0x40 MSTORE POP POP POP JUMP JUMPDEST PUSH0 PUSH2 0x2CA PUSH2 0x23E JUMP JUMPDEST SWAP1 POP PUSH2 0x2D6 DUP3 DUP3 PUSH2 0x290 JUMP JUMPDEST SWAP2 SWAP1 POP JUMP JUMPDEST PUSH0 PUSH8 0xFFFFFFFFFFFFFFFF DUP3 GT ISZERO PUSH2 0x2F5 JUMPI PUSH2 0x2F4 PUSH2 0x263 JUMP JUMPDEST JUMPDEST PUSH1 0x20 DUP3 MUL SWAP1 POP PUSH1 0x20 DUP2 ADD SWAP1 POP SWAP2 SWAP1 POP JUMP JUMPDEST PUSH0 PUSH0 REVERT JUMPDEST PUSH0 DUP2 SWAP1 POP SWAP2 SWAP1 POP JUMP JUMPDEST PUSH2 0x31C DUP2 PUSH2 0x30A JUMP JUMPDEST DUP2 EQ PUSH2 0x326 JUMPI PUSH0 PUSH0 REVERT JUMPDEST POP JUMP JUMPDEST PUSH0 DUP2 CALLDATALOAD SWAP1 POP PUSH2 0x337 DUP2 PUSH2 0x313 JUMP JUMPDEST SWAP3 SWAP2 POP POP JUMP JUMPDEST PUSH0 PUSH2 0x34F PUSH2 0x34A DUP5 PUSH2 0x2DB JUMP JUMPDEST PUSH2 0x2C1 JUMP JUMPDEST SWAP1 POP DUP1 DUP4 DUP3 MSTORE PUSH1 0x20 DUP3 ADD SWAP1 POP PUSH1 0x20 DUP5 MUL DUP4 ADD DUP6 DUP2 GT ISZERO PUSH2 0x372 JUMPI PUSH2 0x371 PUSH2 0x306 JUMP JUMPDEST JUMPDEST DUP4 JUMPDEST DUP2 DUP2 LT ISZERO PUSH2 0x39B JUMPI DUP1 PUSH2 0x387 DUP9 DUP3 PUSH2 0x329 JUMP JUMPDEST DUP5 MSTORE PUSH1 0x20 DUP5 ADD SWAP4 POP POP PUSH1 0x20 DUP2 ADD SWAP1 POP PUSH2 0x374 JUMP JUMPDEST POP POP POP SWAP4 SWAP3 POP POP POP JUMP JUMPDEST PUSH0 DUP3 PUSH1 0x1F DUP4 ADD SLT PUSH2 0x3B9 JUMPI PUSH2 0x3B8 PUSH2 0x24F JUMP JUMPDEST JUMPDEST DUP2 CALLDATALOAD PUSH2 0x3C9 DUP5 DUP3 PUSH1 0x20 DUP7 ADD PUSH2 0x33D JUMP JUMPDEST SWAP2 POP POP SWAP3 SWAP2 POP POP JUMP JUMPDEST PUSH0 PUSH1 0x20 DUP3 DUP5 SUB SLT ISZERO PUSH2 0x3E7 JUMPI PUSH2 0x3E6 PUSH2 0x247 JUMP JUMPDEST JUMPDEST PUSH0 DUP3 ADD CALLDATALOAD PUSH8 0xFFFFFFFFFFFFFFFF DUP2 GT ISZERO PUSH2 0x404 JUMPI PUSH2 0x403 PUSH2 0x24B JUMP JUMPDEST JUMPDEST PUSH2 0x410 DUP5 DUP3 DUP6 ADD PUSH2 0x3A5 JUMP JUMPDEST SWAP2 POP POP SWAP3 SWAP2 POP POP JUMP JUMPDEST PUSH2 0x422 DUP2 PUSH2 0x30A JUMP JUMPDEST DUP3 MSTORE POP POP JUMP JUMPDEST PUSH0 PUSH1 0x20 DUP3 ADD SWAP1 POP PUSH2 0x43B PUSH0 DUP4 ADD DUP5 PUSH2 0x419 JUMP JUMPDEST SWAP3 SWAP2 POP POP JUMP JUMPDEST PUSH0 PUSH1 0x20 DUP3 DUP5 SUB SLT ISZERO PUSH2 0x456 JUMPI PUSH2 0x455 PUSH2 0x247 JUMP JUMPDEST JUMPDEST PUSH0 PUSH2 0x463 DUP5 DUP3 DUP6 ADD PUSH2 0x329 JUMP JUMPDEST SWAP2 POP POP SWAP3 SWAP2 POP POP JUMP JUMPDEST PUSH0 DUP2 MLOAD SWAP1 POP SWAP2 SWAP1 POP JUMP JUMPDEST PUSH0 DUP3 DUP3 MSTORE PUSH1 0x20 DUP3 ADD SWAP1 POP SWAP3 SWAP2 POP POP JUMP JUMPDEST PUSH0 DUP2 SWAP1 POP PUSH1 0x20 DUP3 ADD SWAP1 POP SWAP2 SWAP1 POP JUMP JUMPDEST PUSH2 0x49E DUP2 PUSH2 0x30A JUMP JUMPDEST DUP3 MSTORE POP POP JUMP JUMPDEST PUSH0 PUSH2 0x4AF DUP4 DUP4 PUSH2 0x495 JUMP JUMPDEST PUSH1 0x20 DUP4 ADD SWAP1 POP SWAP3 SWAP2 POP POP JUMP JUMPDEST PUSH0 PUSH1 0x20 DUP3 ADD SWAP1 POP SWAP2 SWAP1 POP JUMP JUMPDEST PUSH0 PUSH2 0x4D1 DUP3 PUSH2 0x46C JUMP JUMPDEST PUSH2 0x4DB DUP2 DUP6 PUSH2 0x476 JUMP JUMPDEST SWAP4 POP PUSH2 0x4E6 DUP4 PUSH2 0x486 JUMP JUMPDEST DUP1 PUSH0 JUMPDEST DUP4 DUP2 LT ISZERO PUSH2 0x516 JUMPI DUP2 MLOAD PUSH2 0x4FD DUP9 DUP3 PUSH2 0x4A4 JUMP JUMPDEST SWAP8 POP PUSH2 0x508 DUP4 PUSH2 0x4BB JUMP JUMPDEST SWAP3 POP POP PUSH1 0x1 DUP2 ADD SWAP1 POP PUSH2 0x4E9 JUMP JUMPDEST POP DUP6 SWAP4 POP POP POP POP SWAP3 SWAP2 POP POP JUMP JUMPDEST PUSH0 PUSH1 0x20 DUP3 ADD SWAP1 POP DUP2 DUP2 SUB PUSH0 DUP4 ADD MSTORE PUSH2 0x53B DUP2 DUP5 PUSH2 0x4C7 JUMP JUMPDEST SWAP1 POP SWAP3 SWAP2 POP POP JUMP JUMPDEST PUSH32 0x4E487B7100000000000000000000000000000000000000000000000000000000 PUSH0 MSTORE PUSH1 0x32 PUSH1 0x4 MSTORE PUSH1 0x24 PUSH0 REVERT JUMPDEST PUSH32 0x4E487B7100000000000000000000000000000000000000000000000000000000 PUSH0 MSTORE PUSH1 0x11 PUSH1 0x4 MSTORE PUSH1 0x24 PUSH0 REVERT JUMPDEST PUSH0 PUSH2 0x5A7 DUP3 PUSH2 0x30A JUMP JUMPDEST SWAP2 POP PUSH2 0x5B2 DUP4 PUSH2 0x30A JUMP JUMPDEST SWAP3 POP DUP3 DUP3 ADD SWAP1 POP DUP1 DUP3 GT ISZERO PUSH2 0x5CA JUMPI PUSH2 0x5C9 PUSH2 0x570 JUMP JUMPDEST JUMPDEST SWAP3 SWAP2 POP POP JUMP JUMPDEST PUSH0 PUSH2 0x5DA DUP3 PUSH2 0x30A JUMP JUMPDEST SWAP2 POP PUSH2 0x5E5 DUP4 PUSH2 0x30A JUMP JUMPDEST SWAP3 POP DUP3 DUP3 MUL PUSH2 0x5F3 DUP2 PUSH2 0x30A JUMP JUMPDEST SWAP2 POP DUP3 DUP3 DIV DUP5 EQ DUP4 ISZERO OR PUSH2 0x60A JUMPI PUSH2 0x609 PUSH2 0x570 JUMP JUMPDEST JUMPDEST POP SWAP3 SWAP2 POP POP JUMP INVALID LOG2 PUSH5 0x6970667358 0x22 SLT KECCAK256 0xBB PUSH0 TIMESTAMP 0xDE 0xD7 CHAINID 0xEA 0xCC 0x4B SSTORE 0xDD 0xC4 SWAP12 SWAP11 0xAA 0xDC BYTE MLOAD 0xEC SWAP1 0x4C 0xD0 DELEGATECALL MSIZE PUSH13 0x332875E4801A8464736F6C6343 STOP ADDMOD SHR STOP CALLER "
				},
				"gasEstimates": {
					"creation": {
						"codeDepositCost": "321400",
						"executionCost": "360",
						"totalCost": "321760"
					},
					"external": {
						"addNombres(uint256)": "46842",
						"getNombresX2()": "infinite",
						"nombres(uint256)": "infinite",
						"sommeTableau(uint256[])": "infinite"
					}
				},
				"methodIdentifiers": {
					"addNombres(uint256)": "a7521982",
					"getNombresX2()": "def703a8",
					"nombres(uint256)": "7692fb5f",
					"sommeTableau(uint256[])": "49b5a636"
				}
			},
			"storageLayout": {
				"storage": [
					{
						"astId": 63,
						"contract": "contracts/15_ContractExoLive.sol:ContractExoLive62",
						"label": "nombres",
						"offset": 0,
						"slot": "0",
						"type": "t_array(t_uint256)dyn_storage"
					}
				],
				"types": {
					"t_array(t_uint256)dyn_storage": {
						"base": "t_uint256",
						"encoding": "dynamic_array",
						"label": "uint256[]",
						"numberOfBytes": "32"
					},
					"t_uint256": {
						"encoding": "inplace",
						"label": "uint256",
						"numberOfBytes": "32"
					}
				}
			},
			"userdoc": {
				"kind": "user",
				"methods": {},
				"version": 1
			}
		}
	}
}