{
	"data": {
		"bytecode": {
			"linkReferences": {},
			"object": "608060405234801561000f575f80fd5b50335f73ffffffffffffffffffffffffffffffffffffffff168173ffffffffffffffffffffffffffffffffffffffff1603610081575f6040517f1e4fbdf70000000000000000000000000000000000000000000000000000000081526004016100789190610196565b60405180910390fd5b6100908161009660201b60201c565b506101af565b5f805f9054906101000a900473ffffffffffffffffffffffffffffffffffffffff169050815f806101000a81548173ffffffffffffffffffffffffffffffffffffffff021916908373ffffffffffffffffffffffffffffffffffffffff1602179055508173ffffffffffffffffffffffffffffffffffffffff168173ffffffffffffffffffffffffffffffffffffffff167f8be0079c531659141344cd1fd0a4f28419497f9722a3daafe3b4186f6b6457e060405160405180910390a35050565b5f73ffffffffffffffffffffffffffffffffffffffff82169050919050565b5f61018082610157565b9050919050565b61019081610176565b82525050565b5f6020820190506101a95f830184610187565b92915050565b611fc7806101bc5f395ff3fe608060405234801561000f575f80fd5b50600436106100e8575f3560e01c8063b6a5d7de1161008a578063e5349fe811610064578063e5349fe8146101c3578063ee74c678146101df578063ef8a9235146101e9578063f2fde38b14610207576100e8565b8063b6a5d7de1461016c578063c6311e3f14610188578063e09b8c79146101b9576100e8565b80638da5cb5b116100c65780638da5cb5b1461011c5780638e7ea5b21461013a578063a7bfab1614610158578063b647990a14610162576100e8565b80634e3c118e146100ec5780636c29744514610108578063715018a614610112575b5f80fd5b610106600480360381019061010191906111f8565b610223565b005b610110610515565b005b61011a61060a565b005b61012461061d565b6040516101319190611245565b60405180910390f35b610142610644565b60405161014f9190611317565b60405180910390f35b610160610722565b005b61016a610817565b005b61018660048036038101906101819190611337565b610990565b005b6101a2600480360381019061019d9190611362565b610b1c565b6040516101b09291906113e4565b60405180910390f35b6101c1610bd1565b005b6101dd60048036038101906101d8919061153e565b610cc5565b005b6101e7610e67565b005b6101f1610f5c565b6040516101fe919061160b565b60405180910390f35b610221600480360381019061021c9190611337565b610f6e565b005b6003600581111561023757610236611598565b5b60025f9054906101000a900460ff16600581111561025857610257611598565b5b14610298576040517f08c379a000000000000000000000000000000000000000000000000000000000815260040161028f9061166e565b60405180910390fd5b60035f8373ffffffffffffffffffffffffffffffffffffffff1673ffffffffffffffffffffffffffffffffffffffff1681526020019081526020015f205f015f9054906101000a900460ff16610323576040517f08c379a000000000000000000000000000000000000000000000000000000000815260040161031a906116d6565b60405180910390fd5b60035f8373ffffffffffffffffffffffffffffffffffffffff1673ffffffffffffffffffffffffffffffffffffffff1681526020019081526020015f205f0160019054906101000a900460ff16156103b0576040517f08c379a00000000000000000000000000000000000000000000000000000000081526004016103a79061173e565b60405180910390fd5b60048054905081106103f7576040517f08c379a00000000000000000000000000000000000000000000000000000000081526004016103ee906117a6565b60405180910390fd5b600160035f8473ffffffffffffffffffffffffffffffffffffffff1673ffffffffffffffffffffffffffffffffffffffff1681526020019081526020015f205f0160016101000a81548160ff0219169083151502179055508060035f8473ffffffffffffffffffffffffffffffffffffffff1673ffffffffffffffffffffffffffffffffffffffff1681526020019081526020015f206001018190555060046001826104a391906117f1565b815481106104b4576104b3611824565b5b905f5260205f2090600202016001015f8154809291906104d390611851565b91905055507f4d99b957a2bc29a30ebd96a7be8e68fe50a3c701db28a91436490b7d53870ca48282604051610509929190611898565b60405180910390a15050565b61051d610ff2565b6001600581111561053157610530611598565b5b60025f9054906101000a900460ff16600581111561055257610551611598565b5b14610592576040517f08c379a00000000000000000000000000000000000000000000000000000000081526004016105899061192f565b60405180910390fd5b5f600290507f0a97a4ee45751e2abf3e4fc8946939630b11b371ea8ae39ccdc3056e98f5cc3f60025f9054906101000a900460ff16826040516105d692919061194d565b60405180910390a18060025f6101000a81548160ff0219169083600581111561060257610601611598565b5b021790555050565b610612610ff2565b61061b5f611079565b565b5f805f9054906101000a900473ffffffffffffffffffffffffffffffffffffffff16905090565b61064c611141565b60046001805461065c91906117f1565b8154811061066d5761066c611824565b5b905f5260205f2090600202016040518060400160405290815f82018054610693906119a1565b80601f01602080910402602001604051908101604052809291908181526020018280546106bf906119a1565b801561070a5780601f106106e15761010080835404028352916020019161070a565b820191905f5260205f20905b8154815290600101906020018083116106ed57829003601f168201915b50505050508152602001600182015481525050905090565b61072a610ff2565b6003600581111561073e5761073d611598565b5b60025f9054906101000a900460ff16600581111561075f5761075e611598565b5b1461079f576040517f08c379a000000000000000000000000000000000000000000000000000000000815260040161079690611a41565b60405180910390fd5b5f600490507f0a97a4ee45751e2abf3e4fc8946939630b11b371ea8ae39ccdc3056e98f5cc3f60025f9054906101000a900460ff16826040516107e392919061194d565b60405180910390a18060025f6101000a81548160ff0219169083600581111561080f5761080e611598565b5b021790555050565b61081f610ff2565b6004600581111561083357610832611598565b5b60025f9054906101000a900460ff16600581111561085457610853611598565b5b14610894576040517f08c379a000000000000000000000000000000000000000000000000000000000815260040161088b9061166e565b60405180910390fd5b5f805b6004805490508110156109165781600482815481106108b9576108b8611824565b5b905f5260205f20906002020160010154111561090957600481815481106108e3576108e2611824565b5b905f5260205f2090600202016001015491506001816109029190611a5f565b6001819055505b8080600101915050610897565b505f600590507f0a97a4ee45751e2abf3e4fc8946939630b11b371ea8ae39ccdc3056e98f5cc3f60025f9054906101000a900460ff168260405161095b92919061194d565b60405180910390a18060025f6101000a81548160ff0219169083600581111561098757610986611598565b5b02179055505050565b610998610ff2565b5f60058111156109ab576109aa611598565b5b60025f9054906101000a900460ff1660058111156109cc576109cb611598565b5b14610a0c576040517f08c379a0000000000000000000000000000000000000000000000000000000008152600401610a0390611b02565b60405180910390fd5b60035f8273ffffffffffffffffffffffffffffffffffffffff1673ffffffffffffffffffffffffffffffffffffffff1681526020019081526020015f205f015f9054906101000a900460ff1615610a98576040517f08c379a0000000000000000000000000000000000000000000000000000000008152600401610a8f90611b6a565b60405180910390fd5b60035f8273ffffffffffffffffffffffffffffffffffffffff1673ffffffffffffffffffffffffffffffffffffffff1681526020019081526020015f205f015f9054906101000a9050507fb6be2187d059cc2a55fe29e0e503b566e1e0f8c8780096e185429350acffd3dd81604051610b119190611245565b60405180910390a150565b60048181548110610b2b575f80fd5b905f5260205f2090600202015f91509050805f018054610b4a906119a1565b80601f0160208091040260200160405190810160405280929190818152602001828054610b76906119a1565b8015610bc15780601f10610b9857610100808354040283529160200191610bc1565b820191905f5260205f20905b815481529060010190602001808311610ba457829003601f168201915b5050505050908060010154905082565b610bd9610ff2565b5f6005811115610bec57610beb611598565b5b60025f9054906101000a900460ff166005811115610c0d57610c0c611598565b5b14610c4d576040517f08c379a0000000000000000000000000000000000000000000000000000000008152600401610c4490611bf8565b60405180910390fd5b5f600190507f0a97a4ee45751e2abf3e4fc8946939630b11b371ea8ae39ccdc3056e98f5cc3f60025f9054906101000a900460ff1682604051610c9192919061194d565b60405180910390a18060025f6101000a81548160ff02191690836005811115610cbd57610cbc611598565b5b021790555050565b60016005811115610cd957610cd8611598565b5b60025f9054906101000a900460ff166005811115610cfa57610cf9611598565b5b14610d3a576040517f08c379a0000000000000000000000000000000000000000000000000000000008152600401610d3190611c60565b60405180910390fd5b60035f8373ffffffffffffffffffffffffffffffffffffffff1673ffffffffffffffffffffffffffffffffffffffff1681526020019081526020015f205f015f9054906101000a900460ff16610dc5576040517f08c379a0000000000000000000000000000000000000000000000000000000008152600401610dbc906116d6565b60405180910390fd5b5f60405180604001604052808381526020015f8152509050600481908060018154018082558091505060019003905f5260205f2090600202015f909190919091505f820151815f019081610e199190611e1b565b506020820151816001015550507f92e393e9b54e2f801d3ea4beb0c5e71a21cc34a5d34b77d0fb8a3aa1650dc18f600480549050604051610e5a9190611eea565b60405180910390a1505050565b610e6f610ff2565b60026005811115610e8357610e82611598565b5b60025f9054906101000a900460ff166005811115610ea457610ea3611598565b5b14610ee4576040517f08c379a0000000000000000000000000000000000000000000000000000000008152600401610edb90611f73565b60405180910390fd5b5f600390507f0a97a4ee45751e2abf3e4fc8946939630b11b371ea8ae39ccdc3056e98f5cc3f60025f9054906101000a900460ff1682604051610f2892919061194d565b60405180910390a18060025f6101000a81548160ff02191690836005811115610f5457610f53611598565b5b021790555050565b60025f9054906101000a900460ff1681565b610f76610ff2565b5f73ffffffffffffffffffffffffffffffffffffffff168173ffffffffffffffffffffffffffffffffffffffff1603610fe6575f6040517f1e4fbdf7000000000000000000000000000000000000000000000000000000008152600401610fdd9190611245565b60405180910390fd5b610fef81611079565b50565b610ffa61113a565b73ffffffffffffffffffffffffffffffffffffffff1661101861061d565b73ffffffffffffffffffffffffffffffffffffffff16146110775761103b61113a565b6040517f118cdaa700000000000000000000000000000000000000000000000000000000815260040161106e9190611245565b60405180910390fd5b565b5f805f9054906101000a900473ffffffffffffffffffffffffffffffffffffffff169050815f806101000a81548173ffffffffffffffffffffffffffffffffffffffff021916908373ffffffffffffffffffffffffffffffffffffffff1602179055508173ffffffffffffffffffffffffffffffffffffffff168173ffffffffffffffffffffffffffffffffffffffff167f8be0079c531659141344cd1fd0a4f28419497f9722a3daafe3b4186f6b6457e060405160405180910390a35050565b5f33905090565b6040518060400160405280606081526020015f81525090565b5f604051905090565b5f80fd5b5f80fd5b5f73ffffffffffffffffffffffffffffffffffffffff82169050919050565b5f6111948261116b565b9050919050565b6111a48161118a565b81146111ae575f80fd5b50565b5f813590506111bf8161119b565b92915050565b5f819050919050565b6111d7816111c5565b81146111e1575f80fd5b50565b5f813590506111f2816111ce565b92915050565b5f806040838503121561120e5761120d611163565b5b5f61121b858286016111b1565b925050602061122c858286016111e4565b9150509250929050565b61123f8161118a565b82525050565b5f6020820190506112585f830184611236565b92915050565b5f81519050919050565b5f82825260208201905092915050565b8281835e5f83830152505050565b5f601f19601f8301169050919050565b5f6112a08261125e565b6112aa8185611268565b93506112ba818560208601611278565b6112c381611286565b840191505092915050565b6112d7816111c5565b82525050565b5f604083015f8301518482035f8601526112f78282611296565b915050602083015161130c60208601826112ce565b508091505092915050565b5f6020820190508181035f83015261132f81846112dd565b905092915050565b5f6020828403121561134c5761134b611163565b5b5f611359848285016111b1565b91505092915050565b5f6020828403121561137757611376611163565b5b5f611384848285016111e4565b91505092915050565b5f82825260208201905092915050565b5f6113a78261125e565b6113b1818561138d565b93506113c1818560208601611278565b6113ca81611286565b840191505092915050565b6113de816111c5565b82525050565b5f6040820190508181035f8301526113fc818561139d565b905061140b60208301846113d5565b9392505050565b5f80fd5b5f80fd5b7f4e487b71000000000000000000000000000000000000000000000000000000005f52604160045260245ffd5b61145082611286565b810181811067ffffffffffffffff8211171561146f5761146e61141a565b5b80604052505050565b5f61148161115a565b905061148d8282611447565b919050565b5f67ffffffffffffffff8211156114ac576114ab61141a565b5b6114b582611286565b9050602081019050919050565b828183375f83830152505050565b5f6114e26114dd84611492565b611478565b9050828152602081018484840111156114fe576114fd611416565b5b6115098482856114c2565b509392505050565b5f82601f83011261152557611524611412565b5b81356115358482602086016114d0565b91505092915050565b5f806040838503121561155457611553611163565b5b5f611561858286016111b1565b925050602083013567ffffffffffffffff81111561158257611581611167565b5b61158e85828601611511565b9150509250929050565b7f4e487b71000000000000000000000000000000000000000000000000000000005f52602160045260245ffd5b600681106115d6576115d5611598565b5b50565b5f8190506115e6826115c5565b919050565b5f6115f5826115d9565b9050919050565b611605816115eb565b82525050565b5f60208201905061161e5f8301846115fc565b92915050565b7f43616e6e6f7420737461727420636f756e74696e6720766f74657300000000005f82015250565b5f611658601b8361138d565b915061166382611624565b602082019050919050565b5f6020820190508181035f8301526116858161164c565b9050919050565b7f566f746572206973206e6f7420726567697374657265640000000000000000005f82015250565b5f6116c060178361138d565b91506116cb8261168c565b602082019050919050565b5f6020820190508181035f8301526116ed816116b4565b9050919050565b7f566f7465722068617320616c726561647920766f7465640000000000000000005f82015250565b5f61172860178361138d565b9150611733826116f4565b602082019050919050565b5f6020820190508181035f8301526117558161171c565b9050919050565b7f496e76616c69642070726f706f73616c206964000000000000000000000000005f82015250565b5f61179060138361138d565b915061179b8261175c565b602082019050919050565b5f6020820190508181035f8301526117bd81611784565b9050919050565b7f4e487b71000000000000000000000000000000000000000000000000000000005f52601160045260245ffd5b5f6117fb826111c5565b9150611806836111c5565b925082820390508181111561181e5761181d6117c4565b5b92915050565b7f4e487b71000000000000000000000000000000000000000000000000000000005f52603260045260245ffd5b5f61185b826111c5565b91507fffffffffffffffffffffffffffffffffffffffffffffffffffffffffffffffff820361188d5761188c6117c4565b5b600182019050919050565b5f6040820190506118ab5f830185611236565b6118b860208301846113d5565b9392505050565b7f43616e6e6f7420656e642070726f706f73616c20726567697374726174696f6e5f8201527f2061742074686973207374616765000000000000000000000000000000000000602082015250565b5f611919602e8361138d565b9150611924826118bf565b604082019050919050565b5f6020820190508181035f8301526119468161190d565b9050919050565b5f6040820190506119605f8301856115fc565b61196d60208301846115fc565b9392505050565b7f4e487b71000000000000000000000000000000000000000000000000000000005f52602260045260245ffd5b5f60028204905060018216806119b857607f821691505b6020821081036119cb576119ca611974565b5b50919050565b7f43616e6e6f7420656e6420766f74696e672073657373696f6e206174207468695f8201527f7320737461676500000000000000000000000000000000000000000000000000602082015250565b5f611a2b60278361138d565b9150611a36826119d1565b604082019050919050565b5f6020820190508181035f830152611a5881611a1f565b9050919050565b5f611a69826111c5565b9150611a74836111c5565b9250828201905080821115611a8c57611a8b6117c4565b5b92915050565b7f566f74657220726567697374726174696f6e206973206e6f7420616c6c6f77655f8201527f6420617420746869732073746167650000000000000000000000000000000000602082015250565b5f611aec602f8361138d565b9150611af782611a92565b604082019050919050565b5f6020820190508181035f830152611b1981611ae0565b9050919050565b7f616c726561647920696e207468652077686974656c69737400000000000000005f82015250565b5f611b5460188361138d565b9150611b5f82611b20565b602082019050919050565b5f6020820190508181035f830152611b8181611b48565b9050919050565b7f43616e6e6f742073746172742070726f706f73616c20726567697374726174695f8201527f6f6e206174207468697320737461676500000000000000000000000000000000602082015250565b5f611be260308361138d565b9150611bed82611b88565b604082019050919050565b5f6020820190508181035f830152611c0f81611bd6565b9050919050565b7f43616e6e6f742072656769737465722070726f706f73616c00000000000000005f82015250565b5f611c4a60188361138d565b9150611c5582611c16565b602082019050919050565b5f6020820190508181035f830152611c7781611c3e565b9050919050565b5f819050815f5260205f209050919050565b5f6020601f8301049050919050565b5f82821b905092915050565b5f60088302611cda7fffffffffffffffffffffffffffffffffffffffffffffffffffffffffffffffff82611c9f565b611ce48683611c9f565b95508019841693508086168417925050509392505050565b5f819050919050565b5f611d1f611d1a611d15846111c5565b611cfc565b6111c5565b9050919050565b5f819050919050565b611d3883611d05565b611d4c611d4482611d26565b848454611cab565b825550505050565b5f90565b611d60611d54565b611d6b818484611d2f565b505050565b5b81811015611d8e57611d835f82611d58565b600181019050611d71565b5050565b601f821115611dd357611da481611c7e565b611dad84611c90565b81016020851015611dbc578190505b611dd0611dc885611c90565b830182611d70565b50505b505050565b5f82821c905092915050565b5f611df35f1984600802611dd8565b1980831691505092915050565b5f611e0b8383611de4565b9150826002028217905092915050565b611e248261125e565b67ffffffffffffffff811115611e3d57611e3c61141a565b5b611e4782546119a1565b611e52828285611d92565b5f60209050601f831160018114611e83575f8415611e71578287015190505b611e7b8582611e00565b865550611ee2565b601f198416611e9186611c7e565b5f5b82811015611eb857848901518255600182019150602085019450602081019050611e93565b86831015611ed55784890151611ed1601f891682611de4565b8355505b6001600288020188555050505b505050505050565b5f602082019050611efd5f8301846113d5565b92915050565b7f43616e6e6f7420737461727420766f74696e672073657373696f6e20617420745f8201527f6869732073746167650000000000000000000000000000000000000000000000602082015250565b5f611f5d60298361138d565b9150611f6882611f03565b604082019050919050565b5f6020820190508181035f830152611f8a81611f51565b905091905056fea2646970667358221220782d3c629543e493092e5749831dd467faeba3a9c5b860212a5649d91316c19b64736f6c634300081a0033",
			"opcodes": "PUSH1 0x80 PUSH1 0x40 MSTORE CALLVALUE DUP1 ISZERO PUSH2 0xF JUMPI PUSH0 DUP1 REVERT JUMPDEST POP CALLER PUSH0 PUSH20 0xFFFFFFFFFFFFFFFFFFFFFFFFFFFFFFFFFFFFFFFF AND DUP2 PUSH20 0xFFFFFFFFFFFFFFFFFFFFFFFFFFFFFFFFFFFFFFFF AND SUB PUSH2 0x81 JUMPI PUSH0 PUSH1 0x40 MLOAD PUSH32 0x1E4FBDF700000000000000000000000000000000000000000000000000000000 DUP2 MSTORE PUSH1 0x4 ADD PUSH2 0x78 SWAP2 SWAP1 PUSH2 0x196 JUMP JUMPDEST PUSH1 0x40 MLOAD DUP1 SWAP2 SUB SWAP1 REVERT JUMPDEST PUSH2 0x90 DUP2 PUSH2 0x96 PUSH1 0x20 SHL PUSH1 0x20 SHR JUMP JUMPDEST POP PUSH2 0x1AF JUMP JUMPDEST PUSH0 DUP1 PUSH0 SWAP1 SLOAD SWAP1 PUSH2 0x100 EXP SWAP1 DIV PUSH20 0xFFFFFFFFFFFFFFFFFFFFFFFFFFFFFFFFFFFFFFFF AND SWAP1 POP DUP2 PUSH0 DUP1 PUSH2 0x100 EXP DUP2 SLOAD DUP2 PUSH20 0xFFFFFFFFFFFFFFFFFFFFFFFFFFFFFFFFFFFFFFFF MUL NOT AND SWAP1 DUP4 PUSH20 0xFFFFFFFFFFFFFFFFFFFFFFFFFFFFFFFFFFFFFFFF AND MUL OR SWAP1 SSTORE POP DUP2 PUSH20 0xFFFFFFFFFFFFFFFFFFFFFFFFFFFFFFFFFFFFFFFF AND DUP2 PUSH20 0xFFFFFFFFFFFFFFFFFFFFFFFFFFFFFFFFFFFFFFFF AND PUSH32 0x8BE0079C531659141344CD1FD0A4F28419497F9722A3DAAFE3B4186F6B6457E0 PUSH1 0x40 MLOAD PUSH1 0x40 MLOAD DUP1 SWAP2 SUB SWAP1 LOG3 POP POP JUMP JUMPDEST PUSH0 PUSH20 0xFFFFFFFFFFFFFFFFFFFFFFFFFFFFFFFFFFFFFFFF DUP3 AND SWAP1 POP SWAP2 SWAP1 POP JUMP JUMPDEST PUSH0 PUSH2 0x180 DUP3 PUSH2 0x157 JUMP JUMPDEST SWAP1 POP SWAP2 SWAP1 POP JUMP JUMPDEST PUSH2 0x190 DUP2 PUSH2 0x176 JUMP JUMPDEST DUP3 MSTORE POP POP JUMP JUMPDEST PUSH0 PUSH1 0x20 DUP3 ADD SWAP1 POP PUSH2 0x1A9 PUSH0 DUP4 ADD DUP5 PUSH2 0x187 JUMP JUMPDEST SWAP3 SWAP2 POP POP JUMP JUMPDEST PUSH2 0x1FC7 DUP1 PUSH2 0x1BC PUSH0 CODECOPY PUSH0 RETURN INVALID PUSH1 0x80 PUSH1 0x40 MSTORE CALLVALUE DUP1 ISZERO PUSH2 0xF JUMPI PUSH0 DUP1 REVERT JUMPDEST POP PUSH1 0x4 CALLDATASIZE LT PUSH2 0xE8 JUMPI PUSH0 CALLDATALOAD PUSH1 0xE0 SHR DUP1 PUSH4 0xB6A5D7DE GT PUSH2 0x8A JUMPI DUP1 PUSH4 0xE5349FE8 GT PUSH2 0x64 JUMPI DUP1 PUSH4 0xE5349FE8 EQ PUSH2 0x1C3 JUMPI DUP1 PUSH4 0xEE74C678 EQ PUSH2 0x1DF JUMPI DUP1 PUSH4 0xEF8A9235 EQ PUSH2 0x1E9 JUMPI DUP1 PUSH4 0xF2FDE38B EQ PUSH2 0x207 JUMPI PUSH2 0xE8 JUMP JUMPDEST DUP1 PUSH4 0xB6A5D7DE EQ PUSH2 0x16C JUMPI DUP1 PUSH4 0xC6311E3F EQ PUSH2 0x188 JUMPI DUP1 PUSH4 0xE09B8C79 EQ PUSH2 0x1B9 JUMPI PUSH2 0xE8 JUMP JUMPDEST DUP1 PUSH4 0x8DA5CB5B GT PUSH2 0xC6 JUMPI DUP1 PUSH4 0x8DA5CB5B EQ PUSH2 0x11C JUMPI DUP1 PUSH4 0x8E7EA5B2 EQ PUSH2 0x13A JUMPI DUP1 PUSH4 0xA7BFAB16 EQ PUSH2 0x158 JUMPI DUP1 PUSH4 0xB647990A EQ PUSH2 0x162 JUMPI PUSH2 0xE8 JUMP JUMPDEST DUP1 PUSH4 0x4E3C118E EQ PUSH2 0xEC JUMPI DUP1 PUSH4 0x6C297445 EQ PUSH2 0x108 JUMPI DUP1 PUSH4 0x715018A6 EQ PUSH2 0x112 JUMPI JUMPDEST PUSH0 DUP1 REVERT JUMPDEST PUSH2 0x106 PUSH1 0x4 DUP1 CALLDATASIZE SUB DUP2 ADD SWAP1 PUSH2 0x101 SWAP2 SWAP1 PUSH2 0x11F8 JUMP JUMPDEST PUSH2 0x223 JUMP JUMPDEST STOP JUMPDEST PUSH2 0x110 PUSH2 0x515 JUMP JUMPDEST STOP JUMPDEST PUSH2 0x11A PUSH2 0x60A JUMP JUMPDEST STOP JUMPDEST PUSH2 0x124 PUSH2 0x61D JUMP JUMPDEST PUSH1 0x40 MLOAD PUSH2 0x131 SWAP2 SWAP1 PUSH2 0x1245 JUMP JUMPDEST PUSH1 0x40 MLOAD DUP1 SWAP2 SUB SWAP1 RETURN JUMPDEST PUSH2 0x142 PUSH2 0x644 JUMP JUMPDEST PUSH1 0x40 MLOAD PUSH2 0x14F SWAP2 SWAP1 PUSH2 0x1317 JUMP JUMPDEST PUSH1 0x40 MLOAD DUP1 SWAP2 SUB SWAP1 RETURN JUMPDEST PUSH2 0x160 PUSH2 0x722 JUMP JUMPDEST STOP JUMPDEST PUSH2 0x16A PUSH2 0x817 JUMP JUMPDEST STOP JUMPDEST PUSH2 0x186 PUSH1 0x4 DUP1 CALLDATASIZE SUB DUP2 ADD SWAP1 PUSH2 0x181 SWAP2 SWAP1 PUSH2 0x1337 JUMP JUMPDEST PUSH2 0x990 JUMP JUMPDEST STOP JUMPDEST PUSH2 0x1A2 PUSH1 0x4 DUP1 CALLDATASIZE SUB DUP2 ADD SWAP1 PUSH2 0x19D SWAP2 SWAP1 PUSH2 0x1362 JUMP JUMPDEST PUSH2 0xB1C JUMP JUMPDEST PUSH1 0x40 MLOAD PUSH2 0x1B0 SWAP3 SWAP2 SWAP1 PUSH2 0x13E4 JUMP JUMPDEST PUSH1 0x40 MLOAD DUP1 SWAP2 SUB SWAP1 RETURN JUMPDEST PUSH2 0x1C1 PUSH2 0xBD1 JUMP JUMPDEST STOP JUMPDEST PUSH2 0x1DD PUSH1 0x4 DUP1 CALLDATASIZE SUB DUP2 ADD SWAP1 PUSH2 0x1D8 SWAP2 SWAP1 PUSH2 0x153E JUMP JUMPDEST PUSH2 0xCC5 JUMP JUMPDEST STOP JUMPDEST PUSH2 0x1E7 PUSH2 0xE67 JUMP JUMPDEST STOP JUMPDEST PUSH2 0x1F1 PUSH2 0xF5C JUMP JUMPDEST PUSH1 0x40 MLOAD PUSH2 0x1FE SWAP2 SWAP1 PUSH2 0x160B JUMP JUMPDEST PUSH1 0x40 MLOAD DUP1 SWAP2 SUB SWAP1 RETURN JUMPDEST PUSH2 0x221 PUSH1 0x4 DUP1 CALLDATASIZE SUB DUP2 ADD SWAP1 PUSH2 0x21C SWAP2 SWAP1 PUSH2 0x1337 JUMP JUMPDEST PUSH2 0xF6E JUMP JUMPDEST STOP JUMPDEST PUSH1 0x3 PUSH1 0x5 DUP2 GT ISZERO PUSH2 0x237 JUMPI PUSH2 0x236 PUSH2 0x1598 JUMP JUMPDEST JUMPDEST PUSH1 0x2 PUSH0 SWAP1 SLOAD SWAP1 PUSH2 0x100 EXP SWAP1 DIV PUSH1 0xFF AND PUSH1 0x5 DUP2 GT ISZERO PUSH2 0x258 JUMPI PUSH2 0x257 PUSH2 0x1598 JUMP JUMPDEST JUMPDEST EQ PUSH2 0x298 JUMPI PUSH1 0x40 MLOAD PUSH32 0x8C379A000000000000000000000000000000000000000000000000000000000 DUP2 MSTORE PUSH1 0x4 ADD PUSH2 0x28F SWAP1 PUSH2 0x166E JUMP JUMPDEST PUSH1 0x40 MLOAD DUP1 SWAP2 SUB SWAP1 REVERT JUMPDEST PUSH1 0x3 PUSH0 DUP4 PUSH20 0xFFFFFFFFFFFFFFFFFFFFFFFFFFFFFFFFFFFFFFFF AND PUSH20 0xFFFFFFFFFFFFFFFFFFFFFFFFFFFFFFFFFFFFFFFF AND DUP2 MSTORE PUSH1 0x20 ADD SWAP1 DUP2 MSTORE PUSH1 0x20 ADD PUSH0 KECCAK256 PUSH0 ADD PUSH0 SWAP1 SLOAD SWAP1 PUSH2 0x100 EXP SWAP1 DIV PUSH1 0xFF AND PUSH2 0x323 JUMPI PUSH1 0x40 MLOAD PUSH32 0x8C379A000000000000000000000000000000000000000000000000000000000 DUP2 MSTORE PUSH1 0x4 ADD PUSH2 0x31A SWAP1 PUSH2 0x16D6 JUMP JUMPDEST PUSH1 0x40 MLOAD DUP1 SWAP2 SUB SWAP1 REVERT JUMPDEST PUSH1 0x3 PUSH0 DUP4 PUSH20 0xFFFFFFFFFFFFFFFFFFFFFFFFFFFFFFFFFFFFFFFF AND PUSH20 0xFFFFFFFFFFFFFFFFFFFFFFFFFFFFFFFFFFFFFFFF AND DUP2 MSTORE PUSH1 0x20 ADD SWAP1 DUP2 MSTORE PUSH1 0x20 ADD PUSH0 KECCAK256 PUSH0 ADD PUSH1 0x1 SWAP1 SLOAD SWAP1 PUSH2 0x100 EXP SWAP1 DIV PUSH1 0xFF AND ISZERO PUSH2 0x3B0 JUMPI PUSH1 0x40 MLOAD PUSH32 0x8C379A000000000000000000000000000000000000000000000000000000000 DUP2 MSTORE PUSH1 0x4 ADD PUSH2 0x3A7 SWAP1 PUSH2 0x173E JUMP JUMPDEST PUSH1 0x40 MLOAD DUP1 SWAP2 SUB SWAP1 REVERT JUMPDEST PUSH1 0x4 DUP1 SLOAD SWAP1 POP DUP2 LT PUSH2 0x3F7 JUMPI PUSH1 0x40 MLOAD PUSH32 0x8C379A000000000000000000000000000000000000000000000000000000000 DUP2 MSTORE PUSH1 0x4 ADD PUSH2 0x3EE SWAP1 PUSH2 0x17A6 JUMP JUMPDEST PUSH1 0x40 MLOAD DUP1 SWAP2 SUB SWAP1 REVERT JUMPDEST PUSH1 0x1 PUSH1 0x3 PUSH0 DUP5 PUSH20 0xFFFFFFFFFFFFFFFFFFFFFFFFFFFFFFFFFFFFFFFF AND PUSH20 0xFFFFFFFFFFFFFFFFFFFFFFFFFFFFFFFFFFFFFFFF AND DUP2 MSTORE PUSH1 0x20 ADD SWAP1 DUP2 MSTORE PUSH1 0x20 ADD PUSH0 KECCAK256 PUSH0 ADD PUSH1 0x1 PUSH2 0x100 EXP DUP2 SLOAD DUP2 PUSH1 0xFF MUL NOT AND SWAP1 DUP4 ISZERO ISZERO MUL OR SWAP1 SSTORE POP DUP1 PUSH1 0x3 PUSH0 DUP5 PUSH20 0xFFFFFFFFFFFFFFFFFFFFFFFFFFFFFFFFFFFFFFFF AND PUSH20 0xFFFFFFFFFFFFFFFFFFFFFFFFFFFFFFFFFFFFFFFF AND DUP2 MSTORE PUSH1 0x20 ADD SWAP1 DUP2 MSTORE PUSH1 0x20 ADD PUSH0 KECCAK256 PUSH1 0x1 ADD DUP2 SWAP1 SSTORE POP PUSH1 0x4 PUSH1 0x1 DUP3 PUSH2 0x4A3 SWAP2 SWAP1 PUSH2 0x17F1 JUMP JUMPDEST DUP2 SLOAD DUP2 LT PUSH2 0x4B4 JUMPI PUSH2 0x4B3 PUSH2 0x1824 JUMP JUMPDEST JUMPDEST SWAP1 PUSH0 MSTORE PUSH1 0x20 PUSH0 KECCAK256 SWAP1 PUSH1 0x2 MUL ADD PUSH1 0x1 ADD PUSH0 DUP2 SLOAD DUP1 SWAP3 SWAP2 SWAP1 PUSH2 0x4D3 SWAP1 PUSH2 0x1851 JUMP JUMPDEST SWAP2 SWAP1 POP SSTORE POP PUSH32 0x4D99B957A2BC29A30EBD96A7BE8E68FE50A3C701DB28A91436490B7D53870CA4 DUP3 DUP3 PUSH1 0x40 MLOAD PUSH2 0x509 SWAP3 SWAP2 SWAP1 PUSH2 0x1898 JUMP JUMPDEST PUSH1 0x40 MLOAD DUP1 SWAP2 SUB SWAP1 LOG1 POP POP JUMP JUMPDEST PUSH2 0x51D PUSH2 0xFF2 JUMP JUMPDEST PUSH1 0x1 PUSH1 0x5 DUP2 GT ISZERO PUSH2 0x531 JUMPI PUSH2 0x530 PUSH2 0x1598 JUMP JUMPDEST JUMPDEST PUSH1 0x2 PUSH0 SWAP1 SLOAD SWAP1 PUSH2 0x100 EXP SWAP1 DIV PUSH1 0xFF AND PUSH1 0x5 DUP2 GT ISZERO PUSH2 0x552 JUMPI PUSH2 0x551 PUSH2 0x1598 JUMP JUMPDEST JUMPDEST EQ PUSH2 0x592 JUMPI PUSH1 0x40 MLOAD PUSH32 0x8C379A000000000000000000000000000000000000000000000000000000000 DUP2 MSTORE PUSH1 0x4 ADD PUSH2 0x589 SWAP1 PUSH2 0x192F JUMP JUMPDEST PUSH1 0x40 MLOAD DUP1 SWAP2 SUB SWAP1 REVERT JUMPDEST PUSH0 PUSH1 0x2 SWAP1 POP PUSH32 0xA97A4EE45751E2ABF3E4FC8946939630B11B371EA8AE39CCDC3056E98F5CC3F PUSH1 0x2 PUSH0 SWAP1 SLOAD SWAP1 PUSH2 0x100 EXP SWAP1 DIV PUSH1 0xFF AND DUP3 PUSH1 0x40 MLOAD PUSH2 0x5D6 SWAP3 SWAP2 SWAP1 PUSH2 0x194D JUMP JUMPDEST PUSH1 0x40 MLOAD DUP1 SWAP2 SUB SWAP1 LOG1 DUP1 PUSH1 0x2 PUSH0 PUSH2 0x100 EXP DUP2 SLOAD DUP2 PUSH1 0xFF MUL NOT AND SWAP1 DUP4 PUSH1 0x5 DUP2 GT ISZERO PUSH2 0x602 JUMPI PUSH2 0x601 PUSH2 0x1598 JUMP JUMPDEST JUMPDEST MUL OR SWAP1 SSTORE POP POP JUMP JUMPDEST PUSH2 0x612 PUSH2 0xFF2 JUMP JUMPDEST PUSH2 0x61B PUSH0 PUSH2 0x1079 JUMP JUMPDEST JUMP JUMPDEST PUSH0 DUP1 PUSH0 SWAP1 SLOAD SWAP1 PUSH2 0x100 EXP SWAP1 DIV PUSH20 0xFFFFFFFFFFFFFFFFFFFFFFFFFFFFFFFFFFFFFFFF AND SWAP1 POP SWAP1 JUMP JUMPDEST PUSH2 0x64C PUSH2 0x1141 JUMP JUMPDEST PUSH1 0x4 PUSH1 0x1 DUP1 SLOAD PUSH2 0x65C SWAP2 SWAP1 PUSH2 0x17F1 JUMP JUMPDEST DUP2 SLOAD DUP2 LT PUSH2 0x66D JUMPI PUSH2 0x66C PUSH2 0x1824 JUMP JUMPDEST JUMPDEST SWAP1 PUSH0 MSTORE PUSH1 0x20 PUSH0 KECCAK256 SWAP1 PUSH1 0x2 MUL ADD PUSH1 0x40 MLOAD DUP1 PUSH1 0x40 ADD PUSH1 0x40 MSTORE SWAP1 DUP2 PUSH0 DUP3 ADD DUP1 SLOAD PUSH2 0x693 SWAP1 PUSH2 0x19A1 JUMP JUMPDEST DUP1 PUSH1 0x1F ADD PUSH1 0x20 DUP1 SWAP2 DIV MUL PUSH1 0x20 ADD PUSH1 0x40 MLOAD SWAP1 DUP2 ADD PUSH1 0x40 MSTORE DUP1 SWAP3 SWAP2 SWAP1 DUP2 DUP2 MSTORE PUSH1 0x20 ADD DUP3 DUP1 SLOAD PUSH2 0x6BF SWAP1 PUSH2 0x19A1 JUMP JUMPDEST DUP1 ISZERO PUSH2 0x70A JUMPI DUP1 PUSH1 0x1F LT PUSH2 0x6E1 JUMPI PUSH2 0x100 DUP1 DUP4 SLOAD DIV MUL DUP4 MSTORE SWAP2 PUSH1 0x20 ADD SWAP2 PUSH2 0x70A JUMP JUMPDEST DUP3 ADD SWAP2 SWAP1 PUSH0 MSTORE PUSH1 0x20 PUSH0 KECCAK256 SWAP1 JUMPDEST DUP2 SLOAD DUP2 MSTORE SWAP1 PUSH1 0x1 ADD SWAP1 PUSH1 0x20 ADD DUP1 DUP4 GT PUSH2 0x6ED JUMPI DUP3 SWAP1 SUB PUSH1 0x1F AND DUP3 ADD SWAP2 JUMPDEST POP POP POP POP POP DUP2 MSTORE PUSH1 0x20 ADD PUSH1 0x1 DUP3 ADD SLOAD DUP2 MSTORE POP POP SWAP1 POP SWAP1 JUMP JUMPDEST PUSH2 0x72A PUSH2 0xFF2 JUMP JUMPDEST PUSH1 0x3 PUSH1 0x5 DUP2 GT ISZERO PUSH2 0x73E JUMPI PUSH2 0x73D PUSH2 0x1598 JUMP JUMPDEST JUMPDEST PUSH1 0x2 PUSH0 SWAP1 SLOAD SWAP1 PUSH2 0x100 EXP SWAP1 DIV PUSH1 0xFF AND PUSH1 0x5 DUP2 GT ISZERO PUSH2 0x75F JUMPI PUSH2 0x75E PUSH2 0x1598 JUMP JUMPDEST JUMPDEST EQ PUSH2 0x79F JUMPI PUSH1 0x40 MLOAD PUSH32 0x8C379A000000000000000000000000000000000000000000000000000000000 DUP2 MSTORE PUSH1 0x4 ADD PUSH2 0x796 SWAP1 PUSH2 0x1A41 JUMP JUMPDEST PUSH1 0x40 MLOAD DUP1 SWAP2 SUB SWAP1 REVERT JUMPDEST PUSH0 PUSH1 0x4 SWAP1 POP PUSH32 0xA97A4EE45751E2ABF3E4FC8946939630B11B371EA8AE39CCDC3056E98F5CC3F PUSH1 0x2 PUSH0 SWAP1 SLOAD SWAP1 PUSH2 0x100 EXP SWAP1 DIV PUSH1 0xFF AND DUP3 PUSH1 0x40 MLOAD PUSH2 0x7E3 SWAP3 SWAP2 SWAP1 PUSH2 0x194D JUMP JUMPDEST PUSH1 0x40 MLOAD DUP1 SWAP2 SUB SWAP1 LOG1 DUP1 PUSH1 0x2 PUSH0 PUSH2 0x100 EXP DUP2 SLOAD DUP2 PUSH1 0xFF MUL NOT AND SWAP1 DUP4 PUSH1 0x5 DUP2 GT ISZERO PUSH2 0x80F JUMPI PUSH2 0x80E PUSH2 0x1598 JUMP JUMPDEST JUMPDEST MUL OR SWAP1 SSTORE POP POP JUMP JUMPDEST PUSH2 0x81F PUSH2 0xFF2 JUMP JUMPDEST PUSH1 0x4 PUSH1 0x5 DUP2 GT ISZERO PUSH2 0x833 JUMPI PUSH2 0x832 PUSH2 0x1598 JUMP JUMPDEST JUMPDEST PUSH1 0x2 PUSH0 SWAP1 SLOAD SWAP1 PUSH2 0x100 EXP SWAP1 DIV PUSH1 0xFF AND PUSH1 0x5 DUP2 GT ISZERO PUSH2 0x854 JUMPI PUSH2 0x853 PUSH2 0x1598 JUMP JUMPDEST JUMPDEST EQ PUSH2 0x894 JUMPI PUSH1 0x40 MLOAD PUSH32 0x8C379A000000000000000000000000000000000000000000000000000000000 DUP2 MSTORE PUSH1 0x4 ADD PUSH2 0x88B SWAP1 PUSH2 0x166E JUMP JUMPDEST PUSH1 0x40 MLOAD DUP1 SWAP2 SUB SWAP1 REVERT JUMPDEST PUSH0 DUP1 JUMPDEST PUSH1 0x4 DUP1 SLOAD SWAP1 POP DUP2 LT ISZERO PUSH2 0x916 JUMPI DUP2 PUSH1 0x4 DUP3 DUP2 SLOAD DUP2 LT PUSH2 0x8B9 JUMPI PUSH2 0x8B8 PUSH2 0x1824 JUMP JUMPDEST JUMPDEST SWAP1 PUSH0 MSTORE PUSH1 0x20 PUSH0 KECCAK256 SWAP1 PUSH1 0x2 MUL ADD PUSH1 0x1 ADD SLOAD GT ISZERO PUSH2 0x909 JUMPI PUSH1 0x4 DUP2 DUP2 SLOAD DUP2 LT PUSH2 0x8E3 JUMPI PUSH2 0x8E2 PUSH2 0x1824 JUMP JUMPDEST JUMPDEST SWAP1 PUSH0 MSTORE PUSH1 0x20 PUSH0 KECCAK256 SWAP1 PUSH1 0x2 MUL ADD PUSH1 0x1 ADD SLOAD SWAP2 POP PUSH1 0x1 DUP2 PUSH2 0x902 SWAP2 SWAP1 PUSH2 0x1A5F JUMP JUMPDEST PUSH1 0x1 DUP2 SWAP1 SSTORE POP JUMPDEST DUP1 DUP1 PUSH1 0x1 ADD SWAP2 POP POP PUSH2 0x897 JUMP JUMPDEST POP PUSH0 PUSH1 0x5 SWAP1 POP PUSH32 0xA97A4EE45751E2ABF3E4FC8946939630B11B371EA8AE39CCDC3056E98F5CC3F PUSH1 0x2 PUSH0 SWAP1 SLOAD SWAP1 PUSH2 0x100 EXP SWAP1 DIV PUSH1 0xFF AND DUP3 PUSH1 0x40 MLOAD PUSH2 0x95B SWAP3 SWAP2 SWAP1 PUSH2 0x194D JUMP JUMPDEST PUSH1 0x40 MLOAD DUP1 SWAP2 SUB SWAP1 LOG1 DUP1 PUSH1 0x2 PUSH0 PUSH2 0x100 EXP DUP2 SLOAD DUP2 PUSH1 0xFF MUL NOT AND SWAP1 DUP4 PUSH1 0x5 DUP2 GT ISZERO PUSH2 0x987 JUMPI PUSH2 0x986 PUSH2 0x1598 JUMP JUMPDEST JUMPDEST MUL OR SWAP1 SSTORE POP POP POP JUMP JUMPDEST PUSH2 0x998 PUSH2 0xFF2 JUMP JUMPDEST PUSH0 PUSH1 0x5 DUP2 GT ISZERO PUSH2 0x9AB JUMPI PUSH2 0x9AA PUSH2 0x1598 JUMP JUMPDEST JUMPDEST PUSH1 0x2 PUSH0 SWAP1 SLOAD SWAP1 PUSH2 0x100 EXP SWAP1 DIV PUSH1 0xFF AND PUSH1 0x5 DUP2 GT ISZERO PUSH2 0x9CC JUMPI PUSH2 0x9CB PUSH2 0x1598 JUMP JUMPDEST JUMPDEST EQ PUSH2 0xA0C JUMPI PUSH1 0x40 MLOAD PUSH32 0x8C379A000000000000000000000000000000000000000000000000000000000 DUP2 MSTORE PUSH1 0x4 ADD PUSH2 0xA03 SWAP1 PUSH2 0x1B02 JUMP JUMPDEST PUSH1 0x40 MLOAD DUP1 SWAP2 SUB SWAP1 REVERT JUMPDEST PUSH1 0x3 PUSH0 DUP3 PUSH20 0xFFFFFFFFFFFFFFFFFFFFFFFFFFFFFFFFFFFFFFFF AND PUSH20 0xFFFFFFFFFFFFFFFFFFFFFFFFFFFFFFFFFFFFFFFF AND DUP2 MSTORE PUSH1 0x20 ADD SWAP1 DUP2 MSTORE PUSH1 0x20 ADD PUSH0 KECCAK256 PUSH0 ADD PUSH0 SWAP1 SLOAD SWAP1 PUSH2 0x100 EXP SWAP1 DIV PUSH1 0xFF AND ISZERO PUSH2 0xA98 JUMPI PUSH1 0x40 MLOAD PUSH32 0x8C379A000000000000000000000000000000000000000000000000000000000 DUP2 MSTORE PUSH1 0x4 ADD PUSH2 0xA8F SWAP1 PUSH2 0x1B6A JUMP JUMPDEST PUSH1 0x40 MLOAD DUP1 SWAP2 SUB SWAP1 REVERT JUMPDEST PUSH1 0x3 PUSH0 DUP3 PUSH20 0xFFFFFFFFFFFFFFFFFFFFFFFFFFFFFFFFFFFFFFFF AND PUSH20 0xFFFFFFFFFFFFFFFFFFFFFFFFFFFFFFFFFFFFFFFF AND DUP2 MSTORE PUSH1 0x20 ADD SWAP1 DUP2 MSTORE PUSH1 0x20 ADD PUSH0 KECCAK256 PUSH0 ADD PUSH0 SWAP1 SLOAD SWAP1 PUSH2 0x100 EXP SWAP1 POP POP PUSH32 0xB6BE2187D059CC2A55FE29E0E503B566E1E0F8C8780096E185429350ACFFD3DD DUP2 PUSH1 0x40 MLOAD PUSH2 0xB11 SWAP2 SWAP1 PUSH2 0x1245 JUMP JUMPDEST PUSH1 0x40 MLOAD DUP1 SWAP2 SUB SWAP1 LOG1 POP JUMP JUMPDEST PUSH1 0x4 DUP2 DUP2 SLOAD DUP2 LT PUSH2 0xB2B JUMPI PUSH0 DUP1 REVERT JUMPDEST SWAP1 PUSH0 MSTORE PUSH1 0x20 PUSH0 KECCAK256 SWAP1 PUSH1 0x2 MUL ADD PUSH0 SWAP2 POP SWAP1 POP DUP1 PUSH0 ADD DUP1 SLOAD PUSH2 0xB4A SWAP1 PUSH2 0x19A1 JUMP JUMPDEST DUP1 PUSH1 0x1F ADD PUSH1 0x20 DUP1 SWAP2 DIV MUL PUSH1 0x20 ADD PUSH1 0x40 MLOAD SWAP1 DUP2 ADD PUSH1 0x40 MSTORE DUP1 SWAP3 SWAP2 SWAP1 DUP2 DUP2 MSTORE PUSH1 0x20 ADD DUP3 DUP1 SLOAD PUSH2 0xB76 SWAP1 PUSH2 0x19A1 JUMP JUMPDEST DUP1 ISZERO PUSH2 0xBC1 JUMPI DUP1 PUSH1 0x1F LT PUSH2 0xB98 JUMPI PUSH2 0x100 DUP1 DUP4 SLOAD DIV MUL DUP4 MSTORE SWAP2 PUSH1 0x20 ADD SWAP2 PUSH2 0xBC1 JUMP JUMPDEST DUP3 ADD SWAP2 SWAP1 PUSH0 MSTORE PUSH1 0x20 PUSH0 KECCAK256 SWAP1 JUMPDEST DUP2 SLOAD DUP2 MSTORE SWAP1 PUSH1 0x1 ADD SWAP1 PUSH1 0x20 ADD DUP1 DUP4 GT PUSH2 0xBA4 JUMPI DUP3 SWAP1 SUB PUSH1 0x1F AND DUP3 ADD SWAP2 JUMPDEST POP POP POP POP POP SWAP1 DUP1 PUSH1 0x1 ADD SLOAD SWAP1 POP DUP3 JUMP JUMPDEST PUSH2 0xBD9 PUSH2 0xFF2 JUMP JUMPDEST PUSH0 PUSH1 0x5 DUP2 GT ISZERO PUSH2 0xBEC JUMPI PUSH2 0xBEB PUSH2 0x1598 JUMP JUMPDEST JUMPDEST PUSH1 0x2 PUSH0 SWAP1 SLOAD SWAP1 PUSH2 0x100 EXP SWAP1 DIV PUSH1 0xFF AND PUSH1 0x5 DUP2 GT ISZERO PUSH2 0xC0D JUMPI PUSH2 0xC0C PUSH2 0x1598 JUMP JUMPDEST JUMPDEST EQ PUSH2 0xC4D JUMPI PUSH1 0x40 MLOAD PUSH32 0x8C379A000000000000000000000000000000000000000000000000000000000 DUP2 MSTORE PUSH1 0x4 ADD PUSH2 0xC44 SWAP1 PUSH2 0x1BF8 JUMP JUMPDEST PUSH1 0x40 MLOAD DUP1 SWAP2 SUB SWAP1 REVERT JUMPDEST PUSH0 PUSH1 0x1 SWAP1 POP PUSH32 0xA97A4EE45751E2ABF3E4FC8946939630B11B371EA8AE39CCDC3056E98F5CC3F PUSH1 0x2 PUSH0 SWAP1 SLOAD SWAP1 PUSH2 0x100 EXP SWAP1 DIV PUSH1 0xFF AND DUP3 PUSH1 0x40 MLOAD PUSH2 0xC91 SWAP3 SWAP2 SWAP1 PUSH2 0x194D JUMP JUMPDEST PUSH1 0x40 MLOAD DUP1 SWAP2 SUB SWAP1 LOG1 DUP1 PUSH1 0x2 PUSH0 PUSH2 0x100 EXP DUP2 SLOAD DUP2 PUSH1 0xFF MUL NOT AND SWAP1 DUP4 PUSH1 0x5 DUP2 GT ISZERO PUSH2 0xCBD JUMPI PUSH2 0xCBC PUSH2 0x1598 JUMP JUMPDEST JUMPDEST MUL OR SWAP1 SSTORE POP POP JUMP JUMPDEST PUSH1 0x1 PUSH1 0x5 DUP2 GT ISZERO PUSH2 0xCD9 JUMPI PUSH2 0xCD8 PUSH2 0x1598 JUMP JUMPDEST JUMPDEST PUSH1 0x2 PUSH0 SWAP1 SLOAD SWAP1 PUSH2 0x100 EXP SWAP1 DIV PUSH1 0xFF AND PUSH1 0x5 DUP2 GT ISZERO PUSH2 0xCFA JUMPI PUSH2 0xCF9 PUSH2 0x1598 JUMP JUMPDEST JUMPDEST EQ PUSH2 0xD3A JUMPI PUSH1 0x40 MLOAD PUSH32 0x8C379A000000000000000000000000000000000000000000000000000000000 DUP2 MSTORE PUSH1 0x4 ADD PUSH2 0xD31 SWAP1 PUSH2 0x1C60 JUMP JUMPDEST PUSH1 0x40 MLOAD DUP1 SWAP2 SUB SWAP1 REVERT JUMPDEST PUSH1 0x3 PUSH0 DUP4 PUSH20 0xFFFFFFFFFFFFFFFFFFFFFFFFFFFFFFFFFFFFFFFF AND PUSH20 0xFFFFFFFFFFFFFFFFFFFFFFFFFFFFFFFFFFFFFFFF AND DUP2 MSTORE PUSH1 0x20 ADD SWAP1 DUP2 MSTORE PUSH1 0x20 ADD PUSH0 KECCAK256 PUSH0 ADD PUSH0 SWAP1 SLOAD SWAP1 PUSH2 0x100 EXP SWAP1 DIV PUSH1 0xFF AND PUSH2 0xDC5 JUMPI PUSH1 0x40 MLOAD PUSH32 0x8C379A000000000000000000000000000000000000000000000000000000000 DUP2 MSTORE PUSH1 0x4 ADD PUSH2 0xDBC SWAP1 PUSH2 0x16D6 JUMP JUMPDEST PUSH1 0x40 MLOAD DUP1 SWAP2 SUB SWAP1 REVERT JUMPDEST PUSH0 PUSH1 0x40 MLOAD DUP1 PUSH1 0x40 ADD PUSH1 0x40 MSTORE DUP1 DUP4 DUP2 MSTORE PUSH1 0x20 ADD PUSH0 DUP2 MSTORE POP SWAP1 POP PUSH1 0x4 DUP2 SWAP1 DUP1 PUSH1 0x1 DUP2 SLOAD ADD DUP1 DUP3 SSTORE DUP1 SWAP2 POP POP PUSH1 0x1 SWAP1 SUB SWAP1 PUSH0 MSTORE PUSH1 0x20 PUSH0 KECCAK256 SWAP1 PUSH1 0x2 MUL ADD PUSH0 SWAP1 SWAP2 SWAP1 SWAP2 SWAP1 SWAP2 POP PUSH0 DUP3 ADD MLOAD DUP2 PUSH0 ADD SWAP1 DUP2 PUSH2 0xE19 SWAP2 SWAP1 PUSH2 0x1E1B JUMP JUMPDEST POP PUSH1 0x20 DUP3 ADD MLOAD DUP2 PUSH1 0x1 ADD SSTORE POP POP PUSH32 0x92E393E9B54E2F801D3EA4BEB0C5E71A21CC34A5D34B77D0FB8A3AA1650DC18F PUSH1 0x4 DUP1 SLOAD SWAP1 POP PUSH1 0x40 MLOAD PUSH2 0xE5A SWAP2 SWAP1 PUSH2 0x1EEA JUMP JUMPDEST PUSH1 0x40 MLOAD DUP1 SWAP2 SUB SWAP1 LOG1 POP POP POP JUMP JUMPDEST PUSH2 0xE6F PUSH2 0xFF2 JUMP JUMPDEST PUSH1 0x2 PUSH1 0x5 DUP2 GT ISZERO PUSH2 0xE83 JUMPI PUSH2 0xE82 PUSH2 0x1598 JUMP JUMPDEST JUMPDEST PUSH1 0x2 PUSH0 SWAP1 SLOAD SWAP1 PUSH2 0x100 EXP SWAP1 DIV PUSH1 0xFF AND PUSH1 0x5 DUP2 GT ISZERO PUSH2 0xEA4 JUMPI PUSH2 0xEA3 PUSH2 0x1598 JUMP JUMPDEST JUMPDEST EQ PUSH2 0xEE4 JUMPI PUSH1 0x40 MLOAD PUSH32 0x8C379A000000000000000000000000000000000000000000000000000000000 DUP2 MSTORE PUSH1 0x4 ADD PUSH2 0xEDB SWAP1 PUSH2 0x1F73 JUMP JUMPDEST PUSH1 0x40 MLOAD DUP1 SWAP2 SUB SWAP1 REVERT JUMPDEST PUSH0 PUSH1 0x3 SWAP1 POP PUSH32 0xA97A4EE45751E2ABF3E4FC8946939630B11B371EA8AE39CCDC3056E98F5CC3F PUSH1 0x2 PUSH0 SWAP1 SLOAD SWAP1 PUSH2 0x100 EXP SWAP1 DIV PUSH1 0xFF AND DUP3 PUSH1 0x40 MLOAD PUSH2 0xF28 SWAP3 SWAP2 SWAP1 PUSH2 0x194D JUMP JUMPDEST PUSH1 0x40 MLOAD DUP1 SWAP2 SUB SWAP1 LOG1 DUP1 PUSH1 0x2 PUSH0 PUSH2 0x100 EXP DUP2 SLOAD DUP2 PUSH1 0xFF MUL NOT AND SWAP1 DUP4 PUSH1 0x5 DUP2 GT ISZERO PUSH2 0xF54 JUMPI PUSH2 0xF53 PUSH2 0x1598 JUMP JUMPDEST JUMPDEST MUL OR SWAP1 SSTORE POP POP JUMP JUMPDEST PUSH1 0x2 PUSH0 SWAP1 SLOAD SWAP1 PUSH2 0x100 EXP SWAP1 DIV PUSH1 0xFF AND DUP2 JUMP JUMPDEST PUSH2 0xF76 PUSH2 0xFF2 JUMP JUMPDEST PUSH0 PUSH20 0xFFFFFFFFFFFFFFFFFFFFFFFFFFFFFFFFFFFFFFFF AND DUP2 PUSH20 0xFFFFFFFFFFFFFFFFFFFFFFFFFFFFFFFFFFFFFFFF AND SUB PUSH2 0xFE6 JUMPI PUSH0 PUSH1 0x40 MLOAD PUSH32 0x1E4FBDF700000000000000000000000000000000000000000000000000000000 DUP2 MSTORE PUSH1 0x4 ADD PUSH2 0xFDD SWAP2 SWAP1 PUSH2 0x1245 JUMP JUMPDEST PUSH1 0x40 MLOAD DUP1 SWAP2 SUB SWAP1 REVERT JUMPDEST PUSH2 0xFEF DUP2 PUSH2 0x1079 JUMP JUMPDEST POP JUMP JUMPDEST PUSH2 0xFFA PUSH2 0x113A JUMP JUMPDEST PUSH20 0xFFFFFFFFFFFFFFFFFFFFFFFFFFFFFFFFFFFFFFFF AND PUSH2 0x1018 PUSH2 0x61D JUMP JUMPDEST PUSH20 0xFFFFFFFFFFFFFFFFFFFFFFFFFFFFFFFFFFFFFFFF AND EQ PUSH2 0x1077 JUMPI PUSH2 0x103B PUSH2 0x113A JUMP JUMPDEST PUSH1 0x40 MLOAD PUSH32 0x118CDAA700000000000000000000000000000000000000000000000000000000 DUP2 MSTORE PUSH1 0x4 ADD PUSH2 0x106E SWAP2 SWAP1 PUSH2 0x1245 JUMP JUMPDEST PUSH1 0x40 MLOAD DUP1 SWAP2 SUB SWAP1 REVERT JUMPDEST JUMP JUMPDEST PUSH0 DUP1 PUSH0 SWAP1 SLOAD SWAP1 PUSH2 0x100 EXP SWAP1 DIV PUSH20 0xFFFFFFFFFFFFFFFFFFFFFFFFFFFFFFFFFFFFFFFF AND SWAP1 POP DUP2 PUSH0 DUP1 PUSH2 0x100 EXP DUP2 SLOAD DUP2 PUSH20 0xFFFFFFFFFFFFFFFFFFFFFFFFFFFFFFFFFFFFFFFF MUL NOT AND SWAP1 DUP4 PUSH20 0xFFFFFFFFFFFFFFFFFFFFFFFFFFFFFFFFFFFFFFFF AND MUL OR SWAP1 SSTORE POP DUP2 PUSH20 0xFFFFFFFFFFFFFFFFFFFFFFFFFFFFFFFFFFFFFFFF AND DUP2 PUSH20 0xFFFFFFFFFFFFFFFFFFFFFFFFFFFFFFFFFFFFFFFF AND PUSH32 0x8BE0079C531659141344CD1FD0A4F28419497F9722A3DAAFE3B4186F6B6457E0 PUSH1 0x40 MLOAD PUSH1 0x40 MLOAD DUP1 SWAP2 SUB SWAP1 LOG3 POP POP JUMP JUMPDEST PUSH0 CALLER SWAP1 POP SWAP1 JUMP JUMPDEST PUSH1 0x40 MLOAD DUP1 PUSH1 0x40 ADD PUSH1 0x40 MSTORE DUP1 PUSH1 0x60 DUP2 MSTORE PUSH1 0x20 ADD PUSH0 DUP2 MSTORE POP SWAP1 JUMP JUMPDEST PUSH0 PUSH1 0x40 MLOAD SWAP1 POP SWAP1 JUMP JUMPDEST PUSH0 DUP1 REVERT JUMPDEST PUSH0 DUP1 REVERT JUMPDEST PUSH0 PUSH20 0xFFFFFFFFFFFFFFFFFFFFFFFFFFFFFFFFFFFFFFFF DUP3 AND SWAP1 POP SWAP2 SWAP1 POP JUMP JUMPDEST PUSH0 PUSH2 0x1194 DUP3 PUSH2 0x116B JUMP JUMPDEST SWAP1 POP SWAP2 SWAP1 POP JUMP JUMPDEST PUSH2 0x11A4 DUP2 PUSH2 0x118A JUMP JUMPDEST DUP2 EQ PUSH2 0x11AE JUMPI PUSH0 DUP1 REVERT JUMPDEST POP JUMP JUMPDEST PUSH0 DUP2 CALLDATALOAD SWAP1 POP PUSH2 0x11BF DUP2 PUSH2 0x119B JUMP JUMPDEST SWAP3 SWAP2 POP POP JUMP JUMPDEST PUSH0 DUP2 SWAP1 POP SWAP2 SWAP1 POP JUMP JUMPDEST PUSH2 0x11D7 DUP2 PUSH2 0x11C5 JUMP JUMPDEST DUP2 EQ PUSH2 0x11E1 JUMPI PUSH0 DUP1 REVERT JUMPDEST POP JUMP JUMPDEST PUSH0 DUP2 CALLDATALOAD SWAP1 POP PUSH2 0x11F2 DUP2 PUSH2 0x11CE JUMP JUMPDEST SWAP3 SWAP2 POP POP JUMP JUMPDEST PUSH0 DUP1 PUSH1 0x40 DUP4 DUP6 SUB SLT ISZERO PUSH2 0x120E JUMPI PUSH2 0x120D PUSH2 0x1163 JUMP JUMPDEST JUMPDEST PUSH0 PUSH2 0x121B DUP6 DUP3 DUP7 ADD PUSH2 0x11B1 JUMP JUMPDEST SWAP3 POP POP PUSH1 0x20 PUSH2 0x122C DUP6 DUP3 DUP7 ADD PUSH2 0x11E4 JUMP JUMPDEST SWAP2 POP POP SWAP3 POP SWAP3 SWAP1 POP JUMP JUMPDEST PUSH2 0x123F DUP2 PUSH2 0x118A JUMP JUMPDEST DUP3 MSTORE POP POP JUMP JUMPDEST PUSH0 PUSH1 0x20 DUP3 ADD SWAP1 POP PUSH2 0x1258 PUSH0 DUP4 ADD DUP5 PUSH2 0x1236 JUMP JUMPDEST SWAP3 SWAP2 POP POP JUMP JUMPDEST PUSH0 DUP2 MLOAD SWAP1 POP SWAP2 SWAP1 POP JUMP JUMPDEST PUSH0 DUP3 DUP3 MSTORE PUSH1 0x20 DUP3 ADD SWAP1 POP SWAP3 SWAP2 POP POP JUMP JUMPDEST DUP3 DUP2 DUP4 MCOPY PUSH0 DUP4 DUP4 ADD MSTORE POP POP POP JUMP JUMPDEST PUSH0 PUSH1 0x1F NOT PUSH1 0x1F DUP4 ADD AND SWAP1 POP SWAP2 SWAP1 POP JUMP JUMPDEST PUSH0 PUSH2 0x12A0 DUP3 PUSH2 0x125E JUMP JUMPDEST PUSH2 0x12AA DUP2 DUP6 PUSH2 0x1268 JUMP JUMPDEST SWAP4 POP PUSH2 0x12BA DUP2 DUP6 PUSH1 0x20 DUP7 ADD PUSH2 0x1278 JUMP JUMPDEST PUSH2 0x12C3 DUP2 PUSH2 0x1286 JUMP JUMPDEST DUP5 ADD SWAP2 POP POP SWAP3 SWAP2 POP POP JUMP JUMPDEST PUSH2 0x12D7 DUP2 PUSH2 0x11C5 JUMP JUMPDEST DUP3 MSTORE POP POP JUMP JUMPDEST PUSH0 PUSH1 0x40 DUP4 ADD PUSH0 DUP4 ADD MLOAD DUP5 DUP3 SUB PUSH0 DUP7 ADD MSTORE PUSH2 0x12F7 DUP3 DUP3 PUSH2 0x1296 JUMP JUMPDEST SWAP2 POP POP PUSH1 0x20 DUP4 ADD MLOAD PUSH2 0x130C PUSH1 0x20 DUP7 ADD DUP3 PUSH2 0x12CE JUMP JUMPDEST POP DUP1 SWAP2 POP POP SWAP3 SWAP2 POP POP JUMP JUMPDEST PUSH0 PUSH1 0x20 DUP3 ADD SWAP1 POP DUP2 DUP2 SUB PUSH0 DUP4 ADD MSTORE PUSH2 0x132F DUP2 DUP5 PUSH2 0x12DD JUMP JUMPDEST SWAP1 POP SWAP3 SWAP2 POP POP JUMP JUMPDEST PUSH0 PUSH1 0x20 DUP3 DUP5 SUB SLT ISZERO PUSH2 0x134C JUMPI PUSH2 0x134B PUSH2 0x1163 JUMP JUMPDEST JUMPDEST PUSH0 PUSH2 0x1359 DUP5 DUP3 DUP6 ADD PUSH2 0x11B1 JUMP JUMPDEST SWAP2 POP POP SWAP3 SWAP2 POP POP JUMP JUMPDEST PUSH0 PUSH1 0x20 DUP3 DUP5 SUB SLT ISZERO PUSH2 0x1377 JUMPI PUSH2 0x1376 PUSH2 0x1163 JUMP JUMPDEST JUMPDEST PUSH0 PUSH2 0x1384 DUP5 DUP3 DUP6 ADD PUSH2 0x11E4 JUMP JUMPDEST SWAP2 POP POP SWAP3 SWAP2 POP POP JUMP JUMPDEST PUSH0 DUP3 DUP3 MSTORE PUSH1 0x20 DUP3 ADD SWAP1 POP SWAP3 SWAP2 POP POP JUMP JUMPDEST PUSH0 PUSH2 0x13A7 DUP3 PUSH2 0x125E JUMP JUMPDEST PUSH2 0x13B1 DUP2 DUP6 PUSH2 0x138D JUMP JUMPDEST SWAP4 POP PUSH2 0x13C1 DUP2 DUP6 PUSH1 0x20 DUP7 ADD PUSH2 0x1278 JUMP JUMPDEST PUSH2 0x13CA DUP2 PUSH2 0x1286 JUMP JUMPDEST DUP5 ADD SWAP2 POP POP SWAP3 SWAP2 POP POP JUMP JUMPDEST PUSH2 0x13DE DUP2 PUSH2 0x11C5 JUMP JUMPDEST DUP3 MSTORE POP POP JUMP JUMPDEST PUSH0 PUSH1 0x40 DUP3 ADD SWAP1 POP DUP2 DUP2 SUB PUSH0 DUP4 ADD MSTORE PUSH2 0x13FC DUP2 DUP6 PUSH2 0x139D JUMP JUMPDEST SWAP1 POP PUSH2 0x140B PUSH1 0x20 DUP4 ADD DUP5 PUSH2 0x13D5 JUMP JUMPDEST SWAP4 SWAP3 POP POP POP JUMP JUMPDEST PUSH0 DUP1 REVERT JUMPDEST PUSH0 DUP1 REVERT JUMPDEST PUSH32 0x4E487B7100000000000000000000000000000000000000000000000000000000 PUSH0 MSTORE PUSH1 0x41 PUSH1 0x4 MSTORE PUSH1 0x24 PUSH0 REVERT JUMPDEST PUSH2 0x1450 DUP3 PUSH2 0x1286 JUMP JUMPDEST DUP2 ADD DUP2 DUP2 LT PUSH8 0xFFFFFFFFFFFFFFFF DUP3 GT OR ISZERO PUSH2 0x146F JUMPI PUSH2 0x146E PUSH2 0x141A JUMP JUMPDEST JUMPDEST DUP1 PUSH1 0x40 MSTORE POP POP POP JUMP JUMPDEST PUSH0 PUSH2 0x1481 PUSH2 0x115A JUMP JUMPDEST SWAP1 POP PUSH2 0x148D DUP3 DUP3 PUSH2 0x1447 JUMP JUMPDEST SWAP2 SWAP1 POP JUMP JUMPDEST PUSH0 PUSH8 0xFFFFFFFFFFFFFFFF DUP3 GT ISZERO PUSH2 0x14AC JUMPI PUSH2 0x14AB PUSH2 0x141A JUMP JUMPDEST JUMPDEST PUSH2 0x14B5 DUP3 PUSH2 0x1286 JUMP JUMPDEST SWAP1 POP PUSH1 0x20 DUP2 ADD SWAP1 POP SWAP2 SWAP1 POP JUMP JUMPDEST DUP3 DUP2 DUP4 CALLDATACOPY PUSH0 DUP4 DUP4 ADD MSTORE POP POP POP JUMP JUMPDEST PUSH0 PUSH2 0x14E2 PUSH2 0x14DD DUP5 PUSH2 0x1492 JUMP JUMPDEST PUSH2 0x1478 JUMP JUMPDEST SWAP1 POP DUP3 DUP2 MSTORE PUSH1 0x20 DUP2 ADD DUP5 DUP5 DUP5 ADD GT ISZERO PUSH2 0x14FE JUMPI PUSH2 0x14FD PUSH2 0x1416 JUMP JUMPDEST JUMPDEST PUSH2 0x1509 DUP5 DUP3 DUP6 PUSH2 0x14C2 JUMP JUMPDEST POP SWAP4 SWAP3 POP POP POP JUMP JUMPDEST PUSH0 DUP3 PUSH1 0x1F DUP4 ADD SLT PUSH2 0x1525 JUMPI PUSH2 0x1524 PUSH2 0x1412 JUMP JUMPDEST JUMPDEST DUP2 CALLDATALOAD PUSH2 0x1535 DUP5 DUP3 PUSH1 0x20 DUP7 ADD PUSH2 0x14D0 JUMP JUMPDEST SWAP2 POP POP SWAP3 SWAP2 POP POP JUMP JUMPDEST PUSH0 DUP1 PUSH1 0x40 DUP4 DUP6 SUB SLT ISZERO PUSH2 0x1554 JUMPI PUSH2 0x1553 PUSH2 0x1163 JUMP JUMPDEST JUMPDEST PUSH0 PUSH2 0x1561 DUP6 DUP3 DUP7 ADD PUSH2 0x11B1 JUMP JUMPDEST SWAP3 POP POP PUSH1 0x20 DUP4 ADD CALLDATALOAD PUSH8 0xFFFFFFFFFFFFFFFF DUP2 GT ISZERO PUSH2 0x1582 JUMPI PUSH2 0x1581 PUSH2 0x1167 JUMP JUMPDEST JUMPDEST PUSH2 0x158E DUP6 DUP3 DUP7 ADD PUSH2 0x1511 JUMP JUMPDEST SWAP2 POP POP SWAP3 POP SWAP3 SWAP1 POP JUMP JUMPDEST PUSH32 0x4E487B7100000000000000000000000000000000000000000000000000000000 PUSH0 MSTORE PUSH1 0x21 PUSH1 0x4 MSTORE PUSH1 0x24 PUSH0 REVERT JUMPDEST PUSH1 0x6 DUP2 LT PUSH2 0x15D6 JUMPI PUSH2 0x15D5 PUSH2 0x1598 JUMP JUMPDEST JUMPDEST POP JUMP JUMPDEST PUSH0 DUP2 SWAP1 POP PUSH2 0x15E6 DUP3 PUSH2 0x15C5 JUMP JUMPDEST SWAP2 SWAP1 POP JUMP JUMPDEST PUSH0 PUSH2 0x15F5 DUP3 PUSH2 0x15D9 JUMP JUMPDEST SWAP1 POP SWAP2 SWAP1 POP JUMP JUMPDEST PUSH2 0x1605 DUP2 PUSH2 0x15EB JUMP JUMPDEST DUP3 MSTORE POP POP JUMP JUMPDEST PUSH0 PUSH1 0x20 DUP3 ADD SWAP1 POP PUSH2 0x161E PUSH0 DUP4 ADD DUP5 PUSH2 0x15FC JUMP JUMPDEST SWAP3 SWAP2 POP POP JUMP JUMPDEST PUSH32 0x43616E6E6F7420737461727420636F756E74696E6720766F7465730000000000 PUSH0 DUP3 ADD MSTORE POP JUMP JUMPDEST PUSH0 PUSH2 0x1658 PUSH1 0x1B DUP4 PUSH2 0x138D JUMP JUMPDEST SWAP2 POP PUSH2 0x1663 DUP3 PUSH2 0x1624 JUMP JUMPDEST PUSH1 0x20 DUP3 ADD SWAP1 POP SWAP2 SWAP1 POP JUMP JUMPDEST PUSH0 PUSH1 0x20 DUP3 ADD SWAP1 POP DUP2 DUP2 SUB PUSH0 DUP4 ADD MSTORE PUSH2 0x1685 DUP2 PUSH2 0x164C JUMP JUMPDEST SWAP1 POP SWAP2 SWAP1 POP JUMP JUMPDEST PUSH32 0x566F746572206973206E6F742072656769737465726564000000000000000000 PUSH0 DUP3 ADD MSTORE POP JUMP JUMPDEST PUSH0 PUSH2 0x16C0 PUSH1 0x17 DUP4 PUSH2 0x138D JUMP JUMPDEST SWAP2 POP PUSH2 0x16CB DUP3 PUSH2 0x168C JUMP JUMPDEST PUSH1 0x20 DUP3 ADD SWAP1 POP SWAP2 SWAP1 POP JUMP JUMPDEST PUSH0 PUSH1 0x20 DUP3 ADD SWAP1 POP DUP2 DUP2 SUB PUSH0 DUP4 ADD MSTORE PUSH2 0x16ED DUP2 PUSH2 0x16B4 JUMP JUMPDEST SWAP1 POP SWAP2 SWAP1 POP JUMP JUMPDEST PUSH32 0x566F7465722068617320616C726561647920766F746564000000000000000000 PUSH0 DUP3 ADD MSTORE POP JUMP JUMPDEST PUSH0 PUSH2 0x1728 PUSH1 0x17 DUP4 PUSH2 0x138D JUMP JUMPDEST SWAP2 POP PUSH2 0x1733 DUP3 PUSH2 0x16F4 JUMP JUMPDEST PUSH1 0x20 DUP3 ADD SWAP1 POP SWAP2 SWAP1 POP JUMP JUMPDEST PUSH0 PUSH1 0x20 DUP3 ADD SWAP1 POP DUP2 DUP2 SUB PUSH0 DUP4 ADD MSTORE PUSH2 0x1755 DUP2 PUSH2 0x171C JUMP JUMPDEST SWAP1 POP SWAP2 SWAP1 POP JUMP JUMPDEST PUSH32 0x496E76616C69642070726F706F73616C20696400000000000000000000000000 PUSH0 DUP3 ADD MSTORE POP JUMP JUMPDEST PUSH0 PUSH2 0x1790 PUSH1 0x13 DUP4 PUSH2 0x138D JUMP JUMPDEST SWAP2 POP PUSH2 0x179B DUP3 PUSH2 0x175C JUMP JUMPDEST PUSH1 0x20 DUP3 ADD SWAP1 POP SWAP2 SWAP1 POP JUMP JUMPDEST PUSH0 PUSH1 0x20 DUP3 ADD SWAP1 POP DUP2 DUP2 SUB PUSH0 DUP4 ADD MSTORE PUSH2 0x17BD DUP2 PUSH2 0x1784 JUMP JUMPDEST SWAP1 POP SWAP2 SWAP1 POP JUMP JUMPDEST PUSH32 0x4E487B7100000000000000000000000000000000000000000000000000000000 PUSH0 MSTORE PUSH1 0x11 PUSH1 0x4 MSTORE PUSH1 0x24 PUSH0 REVERT JUMPDEST PUSH0 PUSH2 0x17FB DUP3 PUSH2 0x11C5 JUMP JUMPDEST SWAP2 POP PUSH2 0x1806 DUP4 PUSH2 0x11C5 JUMP JUMPDEST SWAP3 POP DUP3 DUP3 SUB SWAP1 POP DUP2 DUP2 GT ISZERO PUSH2 0x181E JUMPI PUSH2 0x181D PUSH2 0x17C4 JUMP JUMPDEST JUMPDEST SWAP3 SWAP2 POP POP JUMP JUMPDEST PUSH32 0x4E487B7100000000000000000000000000000000000000000000000000000000 PUSH0 MSTORE PUSH1 0x32 PUSH1 0x4 MSTORE PUSH1 0x24 PUSH0 REVERT JUMPDEST PUSH0 PUSH2 0x185B DUP3 PUSH2 0x11C5 JUMP JUMPDEST SWAP2 POP PUSH32 0xFFFFFFFFFFFFFFFFFFFFFFFFFFFFFFFFFFFFFFFFFFFFFFFFFFFFFFFFFFFFFFFF DUP3 SUB PUSH2 0x188D JUMPI PUSH2 0x188C PUSH2 0x17C4 JUMP JUMPDEST JUMPDEST PUSH1 0x1 DUP3 ADD SWAP1 POP SWAP2 SWAP1 POP JUMP JUMPDEST PUSH0 PUSH1 0x40 DUP3 ADD SWAP1 POP PUSH2 0x18AB PUSH0 DUP4 ADD DUP6 PUSH2 0x1236 JUMP JUMPDEST PUSH2 0x18B8 PUSH1 0x20 DUP4 ADD DUP5 PUSH2 0x13D5 JUMP JUMPDEST SWAP4 SWAP3 POP POP POP JUMP JUMPDEST PUSH32 0x43616E6E6F7420656E642070726F706F73616C20726567697374726174696F6E PUSH0 DUP3 ADD MSTORE PUSH32 0x2061742074686973207374616765000000000000000000000000000000000000 PUSH1 0x20 DUP3 ADD MSTORE POP JUMP JUMPDEST PUSH0 PUSH2 0x1919 PUSH1 0x2E DUP4 PUSH2 0x138D JUMP JUMPDEST SWAP2 POP PUSH2 0x1924 DUP3 PUSH2 0x18BF JUMP JUMPDEST PUSH1 0x40 DUP3 ADD SWAP1 POP SWAP2 SWAP1 POP JUMP JUMPDEST PUSH0 PUSH1 0x20 DUP3 ADD SWAP1 POP DUP2 DUP2 SUB PUSH0 DUP4 ADD MSTORE PUSH2 0x1946 DUP2 PUSH2 0x190D JUMP JUMPDEST SWAP1 POP SWAP2 SWAP1 POP JUMP JUMPDEST PUSH0 PUSH1 0x40 DUP3 ADD SWAP1 POP PUSH2 0x1960 PUSH0 DUP4 ADD DUP6 PUSH2 0x15FC JUMP JUMPDEST PUSH2 0x196D PUSH1 0x20 DUP4 ADD DUP5 PUSH2 0x15FC JUMP JUMPDEST SWAP4 SWAP3 POP POP POP JUMP JUMPDEST PUSH32 0x4E487B7100000000000000000000000000000000000000000000000000000000 PUSH0 MSTORE PUSH1 0x22 PUSH1 0x4 MSTORE PUSH1 0x24 PUSH0 REVERT JUMPDEST PUSH0 PUSH1 0x2 DUP3 DIV SWAP1 POP PUSH1 0x1 DUP3 AND DUP1 PUSH2 0x19B8 JUMPI PUSH1 0x7F DUP3 AND SWAP2 POP JUMPDEST PUSH1 0x20 DUP3 LT DUP2 SUB PUSH2 0x19CB JUMPI PUSH2 0x19CA PUSH2 0x1974 JUMP JUMPDEST JUMPDEST POP SWAP2 SWAP1 POP JUMP JUMPDEST PUSH32 0x43616E6E6F7420656E6420766F74696E672073657373696F6E20617420746869 PUSH0 DUP3 ADD MSTORE PUSH32 0x7320737461676500000000000000000000000000000000000000000000000000 PUSH1 0x20 DUP3 ADD MSTORE POP JUMP JUMPDEST PUSH0 PUSH2 0x1A2B PUSH1 0x27 DUP4 PUSH2 0x138D JUMP JUMPDEST SWAP2 POP PUSH2 0x1A36 DUP3 PUSH2 0x19D1 JUMP JUMPDEST PUSH1 0x40 DUP3 ADD SWAP1 POP SWAP2 SWAP1 POP JUMP JUMPDEST PUSH0 PUSH1 0x20 DUP3 ADD SWAP1 POP DUP2 DUP2 SUB PUSH0 DUP4 ADD MSTORE PUSH2 0x1A58 DUP2 PUSH2 0x1A1F JUMP JUMPDEST SWAP1 POP SWAP2 SWAP1 POP JUMP JUMPDEST PUSH0 PUSH2 0x1A69 DUP3 PUSH2 0x11C5 JUMP JUMPDEST SWAP2 POP PUSH2 0x1A74 DUP4 PUSH2 0x11C5 JUMP JUMPDEST SWAP3 POP DUP3 DUP3 ADD SWAP1 POP DUP1 DUP3 GT ISZERO PUSH2 0x1A8C JUMPI PUSH2 0x1A8B PUSH2 0x17C4 JUMP JUMPDEST JUMPDEST SWAP3 SWAP2 POP POP JUMP JUMPDEST PUSH32 0x566F74657220726567697374726174696F6E206973206E6F7420616C6C6F7765 PUSH0 DUP3 ADD MSTORE PUSH32 0x6420617420746869732073746167650000000000000000000000000000000000 PUSH1 0x20 DUP3 ADD MSTORE POP JUMP JUMPDEST PUSH0 PUSH2 0x1AEC PUSH1 0x2F DUP4 PUSH2 0x138D JUMP JUMPDEST SWAP2 POP PUSH2 0x1AF7 DUP3 PUSH2 0x1A92 JUMP JUMPDEST PUSH1 0x40 DUP3 ADD SWAP1 POP SWAP2 SWAP1 POP JUMP JUMPDEST PUSH0 PUSH1 0x20 DUP3 ADD SWAP1 POP DUP2 DUP2 SUB PUSH0 DUP4 ADD MSTORE PUSH2 0x1B19 DUP2 PUSH2 0x1AE0 JUMP JUMPDEST SWAP1 POP SWAP2 SWAP1 POP JUMP JUMPDEST PUSH32 0x616C726561647920696E207468652077686974656C6973740000000000000000 PUSH0 DUP3 ADD MSTORE POP JUMP JUMPDEST PUSH0 PUSH2 0x1B54 PUSH1 0x18 DUP4 PUSH2 0x138D JUMP JUMPDEST SWAP2 POP PUSH2 0x1B5F DUP3 PUSH2 0x1B20 JUMP JUMPDEST PUSH1 0x20 DUP3 ADD SWAP1 POP SWAP2 SWAP1 POP JUMP JUMPDEST PUSH0 PUSH1 0x20 DUP3 ADD SWAP1 POP DUP2 DUP2 SUB PUSH0 DUP4 ADD MSTORE PUSH2 0x1B81 DUP2 PUSH2 0x1B48 JUMP JUMPDEST SWAP1 POP SWAP2 SWAP1 POP JUMP JUMPDEST PUSH32 0x43616E6E6F742073746172742070726F706F73616C2072656769737472617469 PUSH0 DUP3 ADD MSTORE PUSH32 0x6F6E206174207468697320737461676500000000000000000000000000000000 PUSH1 0x20 DUP3 ADD MSTORE POP JUMP JUMPDEST PUSH0 PUSH2 0x1BE2 PUSH1 0x30 DUP4 PUSH2 0x138D JUMP JUMPDEST SWAP2 POP PUSH2 0x1BED DUP3 PUSH2 0x1B88 JUMP JUMPDEST PUSH1 0x40 DUP3 ADD SWAP1 POP SWAP2 SWAP1 POP JUMP JUMPDEST PUSH0 PUSH1 0x20 DUP3 ADD SWAP1 POP DUP2 DUP2 SUB PUSH0 DUP4 ADD MSTORE PUSH2 0x1C0F DUP2 PUSH2 0x1BD6 JUMP JUMPDEST SWAP1 POP SWAP2 SWAP1 POP JUMP JUMPDEST PUSH32 0x43616E6E6F742072656769737465722070726F706F73616C0000000000000000 PUSH0 DUP3 ADD MSTORE POP JUMP JUMPDEST PUSH0 PUSH2 0x1C4A PUSH1 0x18 DUP4 PUSH2 0x138D JUMP JUMPDEST SWAP2 POP PUSH2 0x1C55 DUP3 PUSH2 0x1C16 JUMP JUMPDEST PUSH1 0x20 DUP3 ADD SWAP1 POP SWAP2 SWAP1 POP JUMP JUMPDEST PUSH0 PUSH1 0x20 DUP3 ADD SWAP1 POP DUP2 DUP2 SUB PUSH0 DUP4 ADD MSTORE PUSH2 0x1C77 DUP2 PUSH2 0x1C3E JUMP JUMPDEST SWAP1 POP SWAP2 SWAP1 POP JUMP JUMPDEST PUSH0 DUP2 SWAP1 POP DUP2 PUSH0 MSTORE PUSH1 0x20 PUSH0 KECCAK256 SWAP1 POP SWAP2 SWAP1 POP JUMP JUMPDEST PUSH0 PUSH1 0x20 PUSH1 0x1F DUP4 ADD DIV SWAP1 POP SWAP2 SWAP1 POP JUMP JUMPDEST PUSH0 DUP3 DUP3 SHL SWAP1 POP SWAP3 SWAP2 POP POP JUMP JUMPDEST PUSH0 PUSH1 0x8 DUP4 MUL PUSH2 0x1CDA PUSH32 0xFFFFFFFFFFFFFFFFFFFFFFFFFFFFFFFFFFFFFFFFFFFFFFFFFFFFFFFFFFFFFFFF DUP3 PUSH2 0x1C9F JUMP JUMPDEST PUSH2 0x1CE4 DUP7 DUP4 PUSH2 0x1C9F JUMP JUMPDEST SWAP6 POP DUP1 NOT DUP5 AND SWAP4 POP DUP1 DUP7 AND DUP5 OR SWAP3 POP POP POP SWAP4 SWAP3 POP POP POP JUMP JUMPDEST PUSH0 DUP2 SWAP1 POP SWAP2 SWAP1 POP JUMP JUMPDEST PUSH0 PUSH2 0x1D1F PUSH2 0x1D1A PUSH2 0x1D15 DUP5 PUSH2 0x11C5 JUMP JUMPDEST PUSH2 0x1CFC JUMP JUMPDEST PUSH2 0x11C5 JUMP JUMPDEST SWAP1 POP SWAP2 SWAP1 POP JUMP JUMPDEST PUSH0 DUP2 SWAP1 POP SWAP2 SWAP1 POP JUMP JUMPDEST PUSH2 0x1D38 DUP4 PUSH2 0x1D05 JUMP JUMPDEST PUSH2 0x1D4C PUSH2 0x1D44 DUP3 PUSH2 0x1D26 JUMP JUMPDEST DUP5 DUP5 SLOAD PUSH2 0x1CAB JUMP JUMPDEST DUP3 SSTORE POP POP POP POP JUMP JUMPDEST PUSH0 SWAP1 JUMP JUMPDEST PUSH2 0x1D60 PUSH2 0x1D54 JUMP JUMPDEST PUSH2 0x1D6B DUP2 DUP5 DUP5 PUSH2 0x1D2F JUMP JUMPDEST POP POP POP JUMP JUMPDEST JUMPDEST DUP2 DUP2 LT ISZERO PUSH2 0x1D8E JUMPI PUSH2 0x1D83 PUSH0 DUP3 PUSH2 0x1D58 JUMP JUMPDEST PUSH1 0x1 DUP2 ADD SWAP1 POP PUSH2 0x1D71 JUMP JUMPDEST POP POP JUMP JUMPDEST PUSH1 0x1F DUP3 GT ISZERO PUSH2 0x1DD3 JUMPI PUSH2 0x1DA4 DUP2 PUSH2 0x1C7E JUMP JUMPDEST PUSH2 0x1DAD DUP5 PUSH2 0x1C90 JUMP JUMPDEST DUP2 ADD PUSH1 0x20 DUP6 LT ISZERO PUSH2 0x1DBC JUMPI DUP2 SWAP1 POP JUMPDEST PUSH2 0x1DD0 PUSH2 0x1DC8 DUP6 PUSH2 0x1C90 JUMP JUMPDEST DUP4 ADD DUP3 PUSH2 0x1D70 JUMP JUMPDEST POP POP JUMPDEST POP POP POP JUMP JUMPDEST PUSH0 DUP3 DUP3 SHR SWAP1 POP SWAP3 SWAP2 POP POP JUMP JUMPDEST PUSH0 PUSH2 0x1DF3 PUSH0 NOT DUP5 PUSH1 0x8 MUL PUSH2 0x1DD8 JUMP JUMPDEST NOT DUP1 DUP4 AND SWAP2 POP POP SWAP3 SWAP2 POP POP JUMP JUMPDEST PUSH0 PUSH2 0x1E0B DUP4 DUP4 PUSH2 0x1DE4 JUMP JUMPDEST SWAP2 POP DUP3 PUSH1 0x2 MUL DUP3 OR SWAP1 POP SWAP3 SWAP2 POP POP JUMP JUMPDEST PUSH2 0x1E24 DUP3 PUSH2 0x125E JUMP JUMPDEST PUSH8 0xFFFFFFFFFFFFFFFF DUP2 GT ISZERO PUSH2 0x1E3D JUMPI PUSH2 0x1E3C PUSH2 0x141A JUMP JUMPDEST JUMPDEST PUSH2 0x1E47 DUP3 SLOAD PUSH2 0x19A1 JUMP JUMPDEST PUSH2 0x1E52 DUP3 DUP3 DUP6 PUSH2 0x1D92 JUMP JUMPDEST PUSH0 PUSH1 0x20 SWAP1 POP PUSH1 0x1F DUP4 GT PUSH1 0x1 DUP2 EQ PUSH2 0x1E83 JUMPI PUSH0 DUP5 ISZERO PUSH2 0x1E71 JUMPI DUP3 DUP8 ADD MLOAD SWAP1 POP JUMPDEST PUSH2 0x1E7B DUP6 DUP3 PUSH2 0x1E00 JUMP JUMPDEST DUP7 SSTORE POP PUSH2 0x1EE2 JUMP JUMPDEST PUSH1 0x1F NOT DUP5 AND PUSH2 0x1E91 DUP7 PUSH2 0x1C7E JUMP JUMPDEST PUSH0 JUMPDEST DUP3 DUP2 LT ISZERO PUSH2 0x1EB8 JUMPI DUP5 DUP10 ADD MLOAD DUP3 SSTORE PUSH1 0x1 DUP3 ADD SWAP2 POP PUSH1 0x20 DUP6 ADD SWAP5 POP PUSH1 0x20 DUP2 ADD SWAP1 POP PUSH2 0x1E93 JUMP JUMPDEST DUP7 DUP4 LT ISZERO PUSH2 0x1ED5 JUMPI DUP5 DUP10 ADD MLOAD PUSH2 0x1ED1 PUSH1 0x1F DUP10 AND DUP3 PUSH2 0x1DE4 JUMP JUMPDEST DUP4 SSTORE POP JUMPDEST PUSH1 0x1 PUSH1 0x2 DUP9 MUL ADD DUP9 SSTORE POP POP POP JUMPDEST POP POP POP POP POP POP JUMP JUMPDEST PUSH0 PUSH1 0x20 DUP3 ADD SWAP1 POP PUSH2 0x1EFD PUSH0 DUP4 ADD DUP5 PUSH2 0x13D5 JUMP JUMPDEST SWAP3 SWAP2 POP POP JUMP JUMPDEST PUSH32 0x43616E6E6F7420737461727420766F74696E672073657373696F6E2061742074 PUSH0 DUP3 ADD MSTORE PUSH32 0x6869732073746167650000000000000000000000000000000000000000000000 PUSH1 0x20 DUP3 ADD MSTORE POP JUMP JUMPDEST PUSH0 PUSH2 0x1F5D PUSH1 0x29 DUP4 PUSH2 0x138D JUMP JUMPDEST SWAP2 POP PUSH2 0x1F68 DUP3 PUSH2 0x1F03 JUMP JUMPDEST PUSH1 0x40 DUP3 ADD SWAP1 POP SWAP2 SWAP1 POP JUMP JUMPDEST PUSH0 PUSH1 0x20 DUP3 ADD SWAP1 POP DUP2 DUP2 SUB PUSH0 DUP4 ADD MSTORE PUSH2 0x1F8A DUP2 PUSH2 0x1F51 JUMP JUMPDEST SWAP1 POP SWAP2 SWAP1 POP JUMP INVALID LOG2 PUSH5 0x6970667358 0x22 SLT KECCAK256 PUSH25 0x2D3C629543E493092E5749831DD467FAEBA3A9C5B860212A56 BLOBHASH 0xD9 SGT AND 0xC1 SWAP12 PUSH5 0x736F6C6343 STOP ADDMOD BYTE STOP CALLER "
		},
		"gasEstimates": {
			"creation": {
				"codeDepositCost": "1627000",
				"executionCost": "infinite",
				"totalCost": "infinite"
			},
			"external": {
				"authorize(address)": "infinite",
				"countVotes()": "infinite",
				"currentStatus()": "2620",
				"endProposalsRegistration()": "infinite",
				"endVotingSession()": "infinite",
				"getWinner()": "infinite",
				"owner()": "2538",
				"proposalList(uint256)": "infinite",
				"registerProposal(address,string)": "infinite",
				"renounceOwnership()": "infinite",
				"startProposalsRegistration()": "infinite",
				"startVotingSession()": "infinite",
				"transferOwnership(address)": "infinite",
				"voteForProposal(address,uint256)": "infinite"
			}
		},
		"methodIdentifiers": {
			"authorize(address)": "b6a5d7de",
			"countVotes()": "b647990a",
			"currentStatus()": "ef8a9235",
			"endProposalsRegistration()": "6c297445",
			"endVotingSession()": "a7bfab16",
			"getWinner()": "8e7ea5b2",
			"owner()": "8da5cb5b",
			"proposalList(uint256)": "c6311e3f",
			"registerProposal(address,string)": "e5349fe8",
			"renounceOwnership()": "715018a6",
			"startProposalsRegistration()": "e09b8c79",
			"startVotingSession()": "ee74c678",
			"transferOwnership(address)": "f2fde38b",
			"voteForProposal(address,uint256)": "4e3c118e"
		}
	},
	"abi": [
		{
			"inputs": [],
			"stateMutability": "nonpayable",
			"type": "constructor"
		},
		{
			"inputs": [
				{
					"internalType": "address",
					"name": "owner",
					"type": "address"
				}
			],
			"name": "OwnableInvalidOwner",
			"type": "error"
		},
		{
			"inputs": [
				{
					"internalType": "address",
					"name": "account",
					"type": "address"
				}
			],
			"name": "OwnableUnauthorizedAccount",
			"type": "error"
		},
		{
			"anonymous": false,
			"inputs": [
				{
					"indexed": true,
					"internalType": "address",
					"name": "previousOwner",
					"type": "address"
				},
				{
					"indexed": true,
					"internalType": "address",
					"name": "newOwner",
					"type": "address"
				}
			],
			"name": "OwnershipTransferred",
			"type": "event"
		},
		{
			"anonymous": false,
			"inputs": [
				{
					"indexed": false,
					"internalType": "uint256",
					"name": "proposalId",
					"type": "uint256"
				}
			],
			"name": "ProposalRegistered",
			"type": "event"
		},
		{
			"anonymous": false,
			"inputs": [
				{
					"indexed": false,
					"internalType": "address",
					"name": "voter",
					"type": "address"
				},
				{
					"indexed": false,
					"internalType": "uint256",
					"name": "proposalId",
					"type": "uint256"
				}
			],
			"name": "Voted",
			"type": "event"
		},
		{
			"anonymous": false,
			"inputs": [
				{
					"indexed": false,
					"internalType": "address",
					"name": "voterAddress",
					"type": "address"
				}
			],
			"name": "VoterRegistered",
			"type": "event"
		},
		{
			"anonymous": false,
			"inputs": [
				{
					"indexed": false,
					"internalType": "enum Voting.WorkflowStatus",
					"name": "previousStatus",
					"type": "uint8"
				},
				{
					"indexed": false,
					"internalType": "enum Voting.WorkflowStatus",
					"name": "newStatus",
					"type": "uint8"
				}
			],
			"name": "WorkflowStatusChange",
			"type": "event"
		},
		{
			"inputs": [
				{
					"internalType": "address",
					"name": "_address",
					"type": "address"
				}
			],
			"name": "authorize",
			"outputs": [],
			"stateMutability": "nonpayable",
			"type": "function"
		},
		{
			"inputs": [],
			"name": "countVotes",
			"outputs": [],
			"stateMutability": "nonpayable",
			"type": "function"
		},
		{
			"inputs": [],
			"name": "currentStatus",
			"outputs": [
				{
					"internalType": "enum Voting.WorkflowStatus",
					"name": "",
					"type": "uint8"
				}
			],
			"stateMutability": "view",
			"type": "function"
		},
		{
			"inputs": [],
			"name": "endProposalsRegistration",
			"outputs": [],
			"stateMutability": "nonpayable",
			"type": "function"
		},
		{
			"inputs": [],
			"name": "endVotingSession",
			"outputs": [],
			"stateMutability": "nonpayable",
			"type": "function"
		},
		{
			"inputs": [],
			"name": "getWinner",
			"outputs": [
				{
					"components": [
						{
							"internalType": "string",
							"name": "description",
							"type": "string"
						},
						{
							"internalType": "uint256",
							"name": "voteCount",
							"type": "uint256"
						}
					],
					"internalType": "struct Voting.Proposal",
					"name": "",
					"type": "tuple"
				}
			],
			"stateMutability": "view",
			"type": "function"
		},
		{
			"inputs": [],
			"name": "owner",
			"outputs": [
				{
					"internalType": "address",
					"name": "",
					"type": "address"
				}
			],
			"stateMutability": "view",
			"type": "function"
		},
		{
			"inputs": [
				{
					"internalType": "uint256",
					"name": "",
					"type": "uint256"
				}
			],
			"name": "proposalList",
			"outputs": [
				{
					"internalType": "string",
					"name": "description",
					"type": "string"
				},
				{
					"internalType": "uint256",
					"name": "voteCount",
					"type": "uint256"
				}
			],
			"stateMutability": "view",
			"type": "function"
		},
		{
			"inputs": [
				{
					"internalType": "address",
					"name": "_address",
					"type": "address"
				},
				{
					"internalType": "string",
					"name": "_description",
					"type": "string"
				}
			],
			"name": "registerProposal",
			"outputs": [],
			"stateMutability": "nonpayable",
			"type": "function"
		},
		{
			"inputs": [],
			"name": "renounceOwnership",
			"outputs": [],
			"stateMutability": "nonpayable",
			"type": "function"
		},
		{
			"inputs": [],
			"name": "startProposalsRegistration",
			"outputs": [],
			"stateMutability": "nonpayable",
			"type": "function"
		},
		{
			"inputs": [],
			"name": "startVotingSession",
			"outputs": [],
			"stateMutability": "nonpayable",
			"type": "function"
		},
		{
			"inputs": [
				{
					"internalType": "address",
					"name": "newOwner",
					"type": "address"
				}
			],
			"name": "transferOwnership",
			"outputs": [],
			"stateMutability": "nonpayable",
			"type": "function"
		},
		{
			"inputs": [
				{
					"internalType": "address",
					"name": "_address",
					"type": "address"
				},
				{
					"internalType": "uint256",
					"name": "_proposalId",
					"type": "uint256"
				}
			],
			"name": "voteForProposal",
			"outputs": [],
			"stateMutability": "nonpayable",
			"type": "function"
		}
	]
}