{
	"contracts/Voting/Voting.sol": {
		"Voting": {
			"abi": [
				{
					"inputs": [],
					"stateMutability": "nonpayable",
					"type": "constructor"
				},
				{
					"inputs": [
						{
							"internalType": "address",
							"name": "owner",
							"type": "address"
						}
					],
					"name": "OwnableInvalidOwner",
					"type": "error"
				},
				{
					"inputs": [
						{
							"internalType": "address",
							"name": "account",
							"type": "address"
						}
					],
					"name": "OwnableUnauthorizedAccount",
					"type": "error"
				},
				{
					"anonymous": false,
					"inputs": [
						{
							"indexed": true,
							"internalType": "address",
							"name": "previousOwner",
							"type": "address"
						},
						{
							"indexed": true,
							"internalType": "address",
							"name": "newOwner",
							"type": "address"
						}
					],
					"name": "OwnershipTransferred",
					"type": "event"
				},
				{
					"anonymous": false,
					"inputs": [
						{
							"indexed": false,
							"internalType": "uint256",
							"name": "proposalId",
							"type": "uint256"
						}
					],
					"name": "ProposalRegistered",
					"type": "event"
				},
				{
					"anonymous": false,
					"inputs": [
						{
							"indexed": false,
							"internalType": "address",
							"name": "voter",
							"type": "address"
						},
						{
							"indexed": false,
							"internalType": "uint256",
							"name": "proposalId",
							"type": "uint256"
						}
					],
					"name": "Voted",
					"type": "event"
				},
				{
					"anonymous": false,
					"inputs": [
						{
							"indexed": false,
							"internalType": "address",
							"name": "voterAddress",
							"type": "address"
						}
					],
					"name": "VoterRegistered",
					"type": "event"
				},
				{
					"anonymous": false,
					"inputs": [
						{
							"indexed": false,
							"internalType": "enum Voting.WorkflowStatus",
							"name": "previousStatus",
							"type": "uint8"
						},
						{
							"indexed": false,
							"internalType": "enum Voting.WorkflowStatus",
							"name": "newStatus",
							"type": "uint8"
						}
					],
					"name": "WorkflowStatusChange",
					"type": "event"
				},
				{
					"inputs": [
						{
							"internalType": "address",
							"name": "_address",
							"type": "address"
						}
					],
					"name": "authorize",
					"outputs": [],
					"stateMutability": "nonpayable",
					"type": "function"
				},
				{
					"inputs": [],
					"name": "countVotes",
					"outputs": [],
					"stateMutability": "nonpayable",
					"type": "function"
				},
				{
					"inputs": [],
					"name": "endProposalsRegistration",
					"outputs": [],
					"stateMutability": "nonpayable",
					"type": "function"
				},
				{
					"inputs": [],
					"name": "endVotingSession",
					"outputs": [],
					"stateMutability": "nonpayable",
					"type": "function"
				},
				{
					"inputs": [],
					"name": "getWinner",
					"outputs": [
						{
							"components": [
								{
									"internalType": "string",
									"name": "description",
									"type": "string"
								},
								{
									"internalType": "uint256",
									"name": "voteCount",
									"type": "uint256"
								}
							],
							"internalType": "struct Voting.Proposal",
							"name": "",
							"type": "tuple"
						}
					],
					"stateMutability": "view",
					"type": "function"
				},
				{
					"inputs": [],
					"name": "owner",
					"outputs": [
						{
							"internalType": "address",
							"name": "",
							"type": "address"
						}
					],
					"stateMutability": "view",
					"type": "function"
				},
				{
					"inputs": [
						{
							"internalType": "address",
							"name": "_address",
							"type": "address"
						},
						{
							"internalType": "string",
							"name": "_description",
							"type": "string"
						}
					],
					"name": "registerProposal",
					"outputs": [],
					"stateMutability": "nonpayable",
					"type": "function"
				},
				{
					"inputs": [],
					"name": "renounceOwnership",
					"outputs": [],
					"stateMutability": "nonpayable",
					"type": "function"
				},
				{
					"inputs": [],
					"name": "startProposalsRegistration",
					"outputs": [],
					"stateMutability": "nonpayable",
					"type": "function"
				},
				{
					"inputs": [],
					"name": "startVotingSession",
					"outputs": [],
					"stateMutability": "nonpayable",
					"type": "function"
				},
				{
					"inputs": [
						{
							"internalType": "address",
							"name": "newOwner",
							"type": "address"
						}
					],
					"name": "transferOwnership",
					"outputs": [],
					"stateMutability": "nonpayable",
					"type": "function"
				},
				{
					"inputs": [
						{
							"internalType": "address",
							"name": "_address",
							"type": "address"
						},
						{
							"internalType": "uint256",
							"name": "_proposalId",
							"type": "uint256"
						}
					],
					"name": "voteForProposal",
					"outputs": [],
					"stateMutability": "nonpayable",
					"type": "function"
				}
			],
			"devdoc": {
				"errors": {
					"OwnableInvalidOwner(address)": [
						{
							"details": "The owner is not a valid owner account. (eg. `address(0)`)"
						}
					],
					"OwnableUnauthorizedAccount(address)": [
						{
							"details": "The caller account is not authorized to perform an operation."
						}
					]
				},
				"kind": "dev",
				"methods": {
					"owner()": {
						"details": "Returns the address of the current owner."
					},
					"renounceOwnership()": {
						"details": "Leaves the contract without owner. It will not be possible to call `onlyOwner` functions. Can only be called by the current owner. NOTE: Renouncing ownership will leave the contract without an owner, thereby disabling any functionality that is only available to the owner."
					},
					"transferOwnership(address)": {
						"details": "Transfers ownership of the contract to a new account (`newOwner`). Can only be called by the current owner."
					}
				},
				"version": 1
			},
			"evm": {
				"assembly": "    /* \"contracts/Voting/Voting.sol\":111:4742  contract Voting is Ownable {... */\n  mstore(0x40, 0x80)\n    /* \"contracts/Voting/Voting.sol\":144:278  constructor() Ownable(msg.sender) {... */\n  callvalue\n  dup1\n  iszero\n  tag_1\n  jumpi\n  revert(0x00, 0x00)\ntag_1:\n  pop\n    /* \"contracts/Voting/Voting.sol\":166:176  msg.sender */\n  caller\n    /* \"@openzeppelin/contracts/access/Ownable.sol\":1297:1298  0 */\n  0x00\n    /* \"@openzeppelin/contracts/access/Ownable.sol\":1273:1299  initialOwner == address(0) */\n  0xffffffffffffffffffffffffffffffffffffffff\n  and\n    /* \"@openzeppelin/contracts/access/Ownable.sol\":1273:1285  initialOwner */\n  dup2\n    /* \"@openzeppelin/contracts/access/Ownable.sol\":1273:1299  initialOwner == address(0) */\n  0xffffffffffffffffffffffffffffffffffffffff\n  and\n  sub\n    /* \"@openzeppelin/contracts/access/Ownable.sol\":1269:1364  if (initialOwner == address(0)) {... */\n  tag_5\n  jumpi\n    /* \"@openzeppelin/contracts/access/Ownable.sol\":1350:1351  0 */\n  0x00\n    /* \"@openzeppelin/contracts/access/Ownable.sol\":1322:1353  OwnableInvalidOwner(address(0)) */\n  mload(0x40)\n  0x1e4fbdf700000000000000000000000000000000000000000000000000000000\n  dup2\n  mstore\n  0x04\n  add\n  tag_6\n  swap2\n  swap1\n  tag_7\n  jump\t// in\ntag_6:\n  mload(0x40)\n  dup1\n  swap2\n  sub\n  swap1\n  revert\n    /* \"@openzeppelin/contracts/access/Ownable.sol\":1269:1364  if (initialOwner == address(0)) {... */\ntag_5:\n    /* \"@openzeppelin/contracts/access/Ownable.sol\":1373:1405  _transferOwnership(initialOwner) */\n  tag_8\n    /* \"@openzeppelin/contracts/access/Ownable.sol\":1392:1404  initialOwner */\n  dup2\n    /* \"@openzeppelin/contracts/access/Ownable.sol\":1373:1391  _transferOwnership */\n  shl(0x20, tag_9)\n    /* \"@openzeppelin/contracts/access/Ownable.sol\":1373:1405  _transferOwnership(initialOwner) */\n  0x20\n  shr\n  jump\t// in\ntag_8:\n    /* \"@openzeppelin/contracts/access/Ownable.sol\":1225:1412  constructor(address initialOwner) {... */\n  pop\n    /* \"contracts/Voting/Voting.sol\":225:229  true */\n  0x01\n    /* \"contracts/Voting/Voting.sol\":188:197  whitelist */\n  0x03\n    /* \"contracts/Voting/Voting.sol\":188:209  whitelist[msg.sender] */\n  0x00\n    /* \"contracts/Voting/Voting.sol\":198:208  msg.sender */\n  caller\n    /* \"contracts/Voting/Voting.sol\":188:209  whitelist[msg.sender] */\n  0xffffffffffffffffffffffffffffffffffffffff\n  and\n  0xffffffffffffffffffffffffffffffffffffffff\n  and\n  dup2\n  mstore\n  0x20\n  add\n  swap1\n  dup2\n  mstore\n  0x20\n  add\n  0x00\n  keccak256\n    /* \"contracts/Voting/Voting.sol\":188:222  whitelist[msg.sender].isRegistered */\n  0x00\n  add\n  0x00\n    /* \"contracts/Voting/Voting.sol\":188:229  whitelist[msg.sender].isRegistered = true */\n  0x0100\n  exp\n  dup2\n  sload\n  dup2\n  0xff\n  mul\n  not\n  and\n  swap1\n  dup4\n  iszero\n  iszero\n  mul\n  or\n  swap1\n  sstore\n  pop\n    /* \"contracts/Voting/Voting.sol\":244:271  VoterRegistered(msg.sender) */\n  0xb6be2187d059cc2a55fe29e0e503b566e1e0f8c8780096e185429350acffd3dd\n    /* \"contracts/Voting/Voting.sol\":260:270  msg.sender */\n  caller\n    /* \"contracts/Voting/Voting.sol\":244:271  VoterRegistered(msg.sender) */\n  mload(0x40)\n  tag_11\n  swap2\n  swap1\n  tag_7\n  jump\t// in\ntag_11:\n  mload(0x40)\n  dup1\n  swap2\n  sub\n  swap1\n  log1\n    /* \"contracts/Voting/Voting.sol\":111:4742  contract Voting is Ownable {... */\n  jump(tag_12)\n    /* \"@openzeppelin/contracts/access/Ownable.sol\":2912:3099  function _transferOwnership(address newOwner) internal virtual {... */\ntag_9:\n    /* \"@openzeppelin/contracts/access/Ownable.sol\":2985:3001  address oldOwner */\n  0x00\n    /* \"@openzeppelin/contracts/access/Ownable.sol\":3004:3010  _owner */\n  0x00\n  0x00\n  swap1\n  sload\n  swap1\n  0x0100\n  exp\n  swap1\n  div\n  0xffffffffffffffffffffffffffffffffffffffff\n  and\n    /* \"@openzeppelin/contracts/access/Ownable.sol\":2985:3010  address oldOwner = _owner */\n  swap1\n  pop\n    /* \"@openzeppelin/contracts/access/Ownable.sol\":3029:3037  newOwner */\n  dup2\n    /* \"@openzeppelin/contracts/access/Ownable.sol\":3020:3026  _owner */\n  0x00\n  0x00\n    /* \"@openzeppelin/contracts/access/Ownable.sol\":3020:3037  _owner = newOwner */\n  0x0100\n  exp\n  dup2\n  sload\n  dup2\n  0xffffffffffffffffffffffffffffffffffffffff\n  mul\n  not\n  and\n  swap1\n  dup4\n  0xffffffffffffffffffffffffffffffffffffffff\n  and\n  mul\n  or\n  swap1\n  sstore\n  pop\n    /* \"@openzeppelin/contracts/access/Ownable.sol\":3083:3091  newOwner */\n  dup2\n    /* \"@openzeppelin/contracts/access/Ownable.sol\":3052:3092  OwnershipTransferred(oldOwner, newOwner) */\n  0xffffffffffffffffffffffffffffffffffffffff\n  and\n    /* \"@openzeppelin/contracts/access/Ownable.sol\":3073:3081  oldOwner */\n  dup2\n    /* \"@openzeppelin/contracts/access/Ownable.sol\":3052:3092  OwnershipTransferred(oldOwner, newOwner) */\n  0xffffffffffffffffffffffffffffffffffffffff\n  and\n  0x8be0079c531659141344cd1fd0a4f28419497f9722a3daafe3b4186f6b6457e0\n  mload(0x40)\n  mload(0x40)\n  dup1\n  swap2\n  sub\n  swap1\n  log3\n    /* \"@openzeppelin/contracts/access/Ownable.sol\":2975:3099  {... */\n  pop\n    /* \"@openzeppelin/contracts/access/Ownable.sol\":2912:3099  function _transferOwnership(address newOwner) internal virtual {... */\n  pop\n  jump\t// out\n    /* \"#utility.yul\":7:133   */\ntag_14:\n    /* \"#utility.yul\":44:51   */\n  0x00\n    /* \"#utility.yul\":84:126   */\n  0xffffffffffffffffffffffffffffffffffffffff\n    /* \"#utility.yul\":77:82   */\n  dup3\n    /* \"#utility.yul\":73:127   */\n  and\n    /* \"#utility.yul\":62:127   */\n  swap1\n  pop\n    /* \"#utility.yul\":7:133   */\n  swap2\n  swap1\n  pop\n  jump\t// out\n    /* \"#utility.yul\":139:235   */\ntag_15:\n    /* \"#utility.yul\":176:183   */\n  0x00\n    /* \"#utility.yul\":205:229   */\n  tag_20\n    /* \"#utility.yul\":223:228   */\n  dup3\n    /* \"#utility.yul\":205:229   */\n  tag_14\n  jump\t// in\ntag_20:\n    /* \"#utility.yul\":194:229   */\n  swap1\n  pop\n    /* \"#utility.yul\":139:235   */\n  swap2\n  swap1\n  pop\n  jump\t// out\n    /* \"#utility.yul\":241:359   */\ntag_16:\n    /* \"#utility.yul\":328:352   */\n  tag_22\n    /* \"#utility.yul\":346:351   */\n  dup2\n    /* \"#utility.yul\":328:352   */\n  tag_15\n  jump\t// in\ntag_22:\n    /* \"#utility.yul\":323:326   */\n  dup3\n    /* \"#utility.yul\":316:353   */\n  mstore\n    /* \"#utility.yul\":241:359   */\n  pop\n  pop\n  jump\t// out\n    /* \"#utility.yul\":365:587   */\ntag_7:\n    /* \"#utility.yul\":458:462   */\n  0x00\n    /* \"#utility.yul\":496:498   */\n  0x20\n    /* \"#utility.yul\":485:494   */\n  dup3\n    /* \"#utility.yul\":481:499   */\n  add\n    /* \"#utility.yul\":473:499   */\n  swap1\n  pop\n    /* \"#utility.yul\":509:580   */\n  tag_24\n    /* \"#utility.yul\":577:578   */\n  0x00\n    /* \"#utility.yul\":566:575   */\n  dup4\n    /* \"#utility.yul\":562:579   */\n  add\n    /* \"#utility.yul\":553:559   */\n  dup5\n    /* \"#utility.yul\":509:580   */\n  tag_16\n  jump\t// in\ntag_24:\n    /* \"#utility.yul\":365:587   */\n  swap3\n  swap2\n  pop\n  pop\n  jump\t// out\n    /* \"contracts/Voting/Voting.sol\":111:4742  contract Voting is Ownable {... */\ntag_12:\n  dataSize(sub_0)\n  dup1\n  dataOffset(sub_0)\n  0x00\n  codecopy\n  0x00\n  return\nstop\n\nsub_0: assembly {\n        /* \"contracts/Voting/Voting.sol\":111:4742  contract Voting is Ownable {... */\n      mstore(0x40, 0x80)\n      callvalue\n      dup1\n      iszero\n      tag_1\n      jumpi\n      revert(0x00, 0x00)\n    tag_1:\n      pop\n      jumpi(tag_2, lt(calldatasize, 0x04))\n      shr(0xe0, calldataload(0x00))\n      dup1\n      0xb647990a\n      gt\n      tag_15\n      jumpi\n      dup1\n      0xb647990a\n      eq\n      tag_9\n      jumpi\n      dup1\n      0xb6a5d7de\n      eq\n      tag_10\n      jumpi\n      dup1\n      0xe09b8c79\n      eq\n      tag_11\n      jumpi\n      dup1\n      0xe5349fe8\n      eq\n      tag_12\n      jumpi\n      dup1\n      0xee74c678\n      eq\n      tag_13\n      jumpi\n      dup1\n      0xf2fde38b\n      eq\n      tag_14\n      jumpi\n      jump(tag_2)\n    tag_15:\n      dup1\n      0x4e3c118e\n      eq\n      tag_3\n      jumpi\n      dup1\n      0x6c297445\n      eq\n      tag_4\n      jumpi\n      dup1\n      0x715018a6\n      eq\n      tag_5\n      jumpi\n      dup1\n      0x8da5cb5b\n      eq\n      tag_6\n      jumpi\n      dup1\n      0x8e7ea5b2\n      eq\n      tag_7\n      jumpi\n      dup1\n      0xa7bfab16\n      eq\n      tag_8\n      jumpi\n    tag_2:\n      revert(0x00, 0x00)\n        /* \"contracts/Voting/Voting.sol\":3133:3713  function voteForProposal(address _address, uint256 _proposalId)... */\n    tag_3:\n      tag_16\n      0x04\n      dup1\n      calldatasize\n      sub\n      dup2\n      add\n      swap1\n      tag_17\n      swap2\n      swap1\n      tag_18\n      jump\t// in\n    tag_17:\n      tag_19\n      jump\t// in\n    tag_16:\n      stop\n        /* \"contracts/Voting/Voting.sol\":2697:2916  function endProposalsRegistration()... */\n    tag_4:\n      tag_20\n      tag_21\n      jump\t// in\n    tag_20:\n      stop\n        /* \"@openzeppelin/contracts/access/Ownable.sol\":2293:2394  function renounceOwnership() public virtual onlyOwner {... */\n    tag_5:\n      tag_22\n      tag_23\n      jump\t// in\n    tag_22:\n      stop\n        /* \"@openzeppelin/contracts/access/Ownable.sol\":1638:1723  function owner() public view virtual returns (address) {... */\n    tag_6:\n      tag_24\n      tag_25\n      jump\t// in\n    tag_24:\n      mload(0x40)\n      tag_26\n      swap2\n      swap1\n      tag_27\n      jump\t// in\n    tag_26:\n      mload(0x40)\n      dup1\n      swap2\n      sub\n      swap1\n      return\n        /* \"contracts/Voting/Voting.sol\":4572:4740  function getWinner() external checkCurrentStatus(WorkflowStatus.VotesTallied) view returns (Proposal memory) {... */\n    tag_7:\n      tag_28\n      tag_29\n      jump\t// in\n    tag_28:\n      mload(0x40)\n      tag_30\n      swap2\n      swap1\n      tag_31\n      jump\t// in\n    tag_30:\n      mload(0x40)\n      dup1\n      swap2\n      sub\n      swap1\n      return\n        /* \"contracts/Voting/Voting.sol\":3719:3914  function endVotingSession()... */\n    tag_8:\n      tag_32\n      tag_33\n      jump\t// in\n    tag_32:\n      stop\n        /* \"contracts/Voting/Voting.sol\":3920:4566  function countVotes()... */\n    tag_9:\n      tag_34\n      tag_35\n      jump\t// in\n    tag_34:\n      stop\n        /* \"contracts/Voting/Voting.sol\":1420:1771  function authorize(address _address)... */\n    tag_10:\n      tag_36\n      0x04\n      dup1\n      calldatasize\n      sub\n      dup2\n      add\n      swap1\n      tag_37\n      swap2\n      swap1\n      tag_38\n      jump\t// in\n    tag_37:\n      tag_39\n      jump\t// in\n    tag_36:\n      stop\n        /* \"contracts/Voting/Voting.sol\":1945:2157  function startProposalsRegistration()... */\n    tag_11:\n      tag_40\n      tag_41\n      jump\t// in\n    tag_40:\n      stop\n        /* \"contracts/Voting/Voting.sol\":2310:2691  function registerProposal(address _address, string memory _description)... */\n    tag_12:\n      tag_42\n      0x04\n      dup1\n      calldatasize\n      sub\n      dup2\n      add\n      swap1\n      tag_43\n      swap2\n      swap1\n      tag_44\n      jump\t// in\n    tag_43:\n      tag_45\n      jump\t// in\n    tag_42:\n      stop\n        /* \"contracts/Voting/Voting.sol\":2922:3127  function startVotingSession()... */\n    tag_13:\n      tag_46\n      tag_47\n      jump\t// in\n    tag_46:\n      stop\n        /* \"@openzeppelin/contracts/access/Ownable.sol\":2543:2758  function transferOwnership(address newOwner) public virtual onlyOwner {... */\n    tag_14:\n      tag_48\n      0x04\n      dup1\n      calldatasize\n      sub\n      dup2\n      add\n      swap1\n      tag_49\n      swap2\n      swap1\n      tag_38\n      jump\t// in\n    tag_49:\n      tag_50\n      jump\t// in\n    tag_48:\n      stop\n        /* \"contracts/Voting/Voting.sol\":3133:3713  function voteForProposal(address _address, uint256 _proposalId)... */\n    tag_19:\n        /* \"contracts/Voting/Voting.sol\":3242:3250  _address */\n      dup2\n        /* \"contracts/Voting/Voting.sol\":1355:1356  0 */\n      0x00\n        /* \"contracts/Voting/Voting.sol\":1335:1357  _address != address(0) */\n      0xffffffffffffffffffffffffffffffffffffffff\n      and\n        /* \"contracts/Voting/Voting.sol\":1335:1343  _address */\n      dup2\n        /* \"contracts/Voting/Voting.sol\":1335:1357  _address != address(0) */\n      0xffffffffffffffffffffffffffffffffffffffff\n      and\n      sub\n        /* \"contracts/Voting/Voting.sol\":1327:1396  require(_address != address(0), \"Address cannot be the zero address\") */\n      tag_52\n      jumpi\n      mload(0x40)\n      0x08c379a000000000000000000000000000000000000000000000000000000000\n      dup2\n      mstore\n      0x04\n      add\n      tag_53\n      swap1\n      tag_54\n      jump\t// in\n    tag_53:\n      mload(0x40)\n      dup1\n      swap2\n      sub\n      swap1\n      revert\n    tag_52:\n        /* \"contracts/Voting/Voting.sol\":3278:3286  _address */\n      dup3\n        /* \"contracts/Voting/Voting.sol\":2226:2235  whitelist */\n      0x03\n        /* \"contracts/Voting/Voting.sol\":2226:2245  whitelist[_address] */\n      0x00\n        /* \"contracts/Voting/Voting.sol\":2236:2244  _address */\n      dup3\n        /* \"contracts/Voting/Voting.sol\":2226:2245  whitelist[_address] */\n      0xffffffffffffffffffffffffffffffffffffffff\n      and\n      0xffffffffffffffffffffffffffffffffffffffff\n      and\n      dup2\n      mstore\n      0x20\n      add\n      swap1\n      dup2\n      mstore\n      0x20\n      add\n      0x00\n      keccak256\n        /* \"contracts/Voting/Voting.sol\":2226:2258  whitelist[_address].isRegistered */\n      0x00\n      add\n      0x00\n      swap1\n      sload\n      swap1\n      0x0100\n      exp\n      swap1\n      div\n      0xff\n      and\n        /* \"contracts/Voting/Voting.sol\":2218:2286  require(whitelist[_address].isRegistered, \"Voter is not registered\") */\n      tag_56\n      jumpi\n      mload(0x40)\n      0x08c379a000000000000000000000000000000000000000000000000000000000\n      dup2\n      mstore\n      0x04\n      add\n      tag_57\n      swap1\n      tag_58\n      jump\t// in\n    tag_57:\n      mload(0x40)\n      dup1\n      swap2\n      sub\n      swap1\n      revert\n    tag_56:\n        /* \"contracts/Voting/Voting.sol\":3315:3350  WorkflowStatus.VotingSessionStarted */\n      0x03\n        /* \"contracts/Voting/Voting.sol\":1211:1218  _status */\n      dup1\n        /* \"contracts/Voting/Voting.sol\":1194:1218  currentStatus == _status */\n      0x05\n      dup2\n      gt\n      iszero\n      tag_60\n      jumpi\n      tag_61\n      tag_62\n      jump\t// in\n    tag_61:\n    tag_60:\n        /* \"contracts/Voting/Voting.sol\":1194:1207  currentStatus */\n      0x02\n      0x00\n      swap1\n      sload\n      swap1\n      0x0100\n      exp\n      swap1\n      div\n      0xff\n      and\n        /* \"contracts/Voting/Voting.sol\":1194:1218  currentStatus == _status */\n      0x05\n      dup2\n      gt\n      iszero\n      tag_63\n      jumpi\n      tag_64\n      tag_62\n      jump\t// in\n    tag_64:\n    tag_63:\n      eq\n        /* \"contracts/Voting/Voting.sol\":1186:1246  require(currentStatus == _status, \"Invalid workflow status\") */\n      tag_65\n      jumpi\n      mload(0x40)\n      0x08c379a000000000000000000000000000000000000000000000000000000000\n      dup2\n      mstore\n      0x04\n      add\n      tag_66\n      swap1\n      tag_67\n      jump\t// in\n    tag_66:\n      mload(0x40)\n      dup1\n      swap2\n      sub\n      swap1\n      revert\n    tag_65:\n        /* \"contracts/Voting/Voting.sol\":3375:3384  whitelist */\n      0x03\n        /* \"contracts/Voting/Voting.sol\":3375:3394  whitelist[_address] */\n      0x00\n        /* \"contracts/Voting/Voting.sol\":3385:3393  _address */\n      dup7\n        /* \"contracts/Voting/Voting.sol\":3375:3394  whitelist[_address] */\n      0xffffffffffffffffffffffffffffffffffffffff\n      and\n      0xffffffffffffffffffffffffffffffffffffffff\n      and\n      dup2\n      mstore\n      0x20\n      add\n      swap1\n      dup2\n      mstore\n      0x20\n      add\n      0x00\n      keccak256\n        /* \"contracts/Voting/Voting.sol\":3375:3403  whitelist[_address].hasVoted */\n      0x00\n      add\n      0x01\n      swap1\n      sload\n      swap1\n      0x0100\n      exp\n      swap1\n      div\n      0xff\n      and\n        /* \"contracts/Voting/Voting.sol\":3374:3403  !whitelist[_address].hasVoted */\n      iszero\n        /* \"contracts/Voting/Voting.sol\":3366:3431  require(!whitelist[_address].hasVoted, \"Voter has already voted\") */\n      tag_69\n      jumpi\n      mload(0x40)\n      0x08c379a000000000000000000000000000000000000000000000000000000000\n      dup2\n      mstore\n      0x04\n      add\n      tag_70\n      swap1\n      tag_71\n      jump\t// in\n    tag_70:\n      mload(0x40)\n      dup1\n      swap2\n      sub\n      swap1\n      revert\n    tag_69:\n        /* \"contracts/Voting/Voting.sol\":3464:3476  proposalList */\n      0x04\n        /* \"contracts/Voting/Voting.sol\":3464:3483  proposalList.length */\n      dup1\n      sload\n      swap1\n      pop\n        /* \"contracts/Voting/Voting.sol\":3449:3460  _proposalId */\n      dup5\n        /* \"contracts/Voting/Voting.sol\":3449:3483  _proposalId <= proposalList.length */\n      gt\n      iszero\n        /* \"contracts/Voting/Voting.sol\":3441:3507  require(_proposalId <= proposalList.length, \"Invalid proposal id\") */\n      tag_72\n      jumpi\n      mload(0x40)\n      0x08c379a000000000000000000000000000000000000000000000000000000000\n      dup2\n      mstore\n      0x04\n      add\n      tag_73\n      swap1\n      tag_74\n      jump\t// in\n    tag_73:\n      mload(0x40)\n      dup1\n      swap2\n      sub\n      swap1\n      revert\n    tag_72:\n        /* \"contracts/Voting/Voting.sol\":3549:3553  true */\n      0x01\n        /* \"contracts/Voting/Voting.sol\":3518:3527  whitelist */\n      0x03\n        /* \"contracts/Voting/Voting.sol\":3518:3537  whitelist[_address] */\n      0x00\n        /* \"contracts/Voting/Voting.sol\":3528:3536  _address */\n      dup8\n        /* \"contracts/Voting/Voting.sol\":3518:3537  whitelist[_address] */\n      0xffffffffffffffffffffffffffffffffffffffff\n      and\n      0xffffffffffffffffffffffffffffffffffffffff\n      and\n      dup2\n      mstore\n      0x20\n      add\n      swap1\n      dup2\n      mstore\n      0x20\n      add\n      0x00\n      keccak256\n        /* \"contracts/Voting/Voting.sol\":3518:3546  whitelist[_address].hasVoted */\n      0x00\n      add\n      0x01\n        /* \"contracts/Voting/Voting.sol\":3518:3553  whitelist[_address].hasVoted = true */\n      0x0100\n      exp\n      dup2\n      sload\n      dup2\n      0xff\n      mul\n      not\n      and\n      swap1\n      dup4\n      iszero\n      iszero\n      mul\n      or\n      swap1\n      sstore\n      pop\n        /* \"contracts/Voting/Voting.sol\":3601:3612  _proposalId */\n      dup4\n        /* \"contracts/Voting/Voting.sol\":3563:3572  whitelist */\n      0x03\n        /* \"contracts/Voting/Voting.sol\":3563:3582  whitelist[_address] */\n      0x00\n        /* \"contracts/Voting/Voting.sol\":3573:3581  _address */\n      dup8\n        /* \"contracts/Voting/Voting.sol\":3563:3582  whitelist[_address] */\n      0xffffffffffffffffffffffffffffffffffffffff\n      and\n      0xffffffffffffffffffffffffffffffffffffffff\n      and\n      dup2\n      mstore\n      0x20\n      add\n      swap1\n      dup2\n      mstore\n      0x20\n      add\n      0x00\n      keccak256\n        /* \"contracts/Voting/Voting.sol\":3563:3598  whitelist[_address].votedProposalId */\n      0x01\n      add\n        /* \"contracts/Voting/Voting.sol\":3563:3612  whitelist[_address].votedProposalId = _proposalId */\n      dup2\n      swap1\n      sstore\n      pop\n        /* \"contracts/Voting/Voting.sol\":3622:3634  proposalList */\n      0x04\n        /* \"contracts/Voting/Voting.sol\":3649:3650  1 */\n      0x01\n        /* \"contracts/Voting/Voting.sol\":3635:3646  _proposalId */\n      dup6\n        /* \"contracts/Voting/Voting.sol\":3635:3650  _proposalId - 1 */\n      tag_75\n      swap2\n      swap1\n      tag_76\n      jump\t// in\n    tag_75:\n        /* \"contracts/Voting/Voting.sol\":3622:3651  proposalList[_proposalId - 1] */\n      dup2\n      sload\n      dup2\n      lt\n      tag_77\n      jumpi\n      tag_78\n      tag_79\n      jump\t// in\n    tag_78:\n    tag_77:\n      swap1\n      0x00\n      mstore\n      keccak256(0x00, 0x20)\n      swap1\n      0x02\n      mul\n      add\n        /* \"contracts/Voting/Voting.sol\":3622:3661  proposalList[_proposalId - 1].voteCount */\n      0x01\n      add\n      0x00\n        /* \"contracts/Voting/Voting.sol\":3622:3663  proposalList[_proposalId - 1].voteCount++ */\n      dup2\n      sload\n      dup1\n      swap3\n      swap2\n      swap1\n      tag_81\n      swap1\n      tag_82\n      jump\t// in\n    tag_81:\n      swap2\n      swap1\n      pop\n      sstore\n      pop\n        /* \"contracts/Voting/Voting.sol\":3678:3706  Voted(_address, _proposalId) */\n      0x4d99b957a2bc29a30ebd96a7be8e68fe50a3c701db28a91436490b7d53870ca4\n        /* \"contracts/Voting/Voting.sol\":3684:3692  _address */\n      dup6\n        /* \"contracts/Voting/Voting.sol\":3694:3705  _proposalId */\n      dup6\n        /* \"contracts/Voting/Voting.sol\":3678:3706  Voted(_address, _proposalId) */\n      mload(0x40)\n      tag_83\n      swap3\n      swap2\n      swap1\n      tag_84\n      jump\t// in\n    tag_83:\n      mload(0x40)\n      dup1\n      swap2\n      sub\n      swap1\n      log1\n        /* \"contracts/Voting/Voting.sol\":2296:2297  _ */\n      pop\n        /* \"contracts/Voting/Voting.sol\":1406:1407  _ */\n      pop\n        /* \"contracts/Voting/Voting.sol\":3133:3713  function voteForProposal(address _address, uint256 _proposalId)... */\n      pop\n      pop\n      pop\n      jump\t// out\n        /* \"contracts/Voting/Voting.sol\":2697:2916  function endProposalsRegistration()... */\n    tag_21:\n        /* \"@openzeppelin/contracts/access/Ownable.sol\":1531:1544  _checkOwner() */\n      tag_86\n        /* \"@openzeppelin/contracts/access/Ownable.sol\":1531:1542  _checkOwner */\n      tag_87\n        /* \"@openzeppelin/contracts/access/Ownable.sol\":1531:1544  _checkOwner() */\n      jump\t// in\n    tag_86:\n        /* \"contracts/Voting/Voting.sol\":2795:2838  WorkflowStatus.ProposalsRegistrationStarted */\n      0x01\n        /* \"contracts/Voting/Voting.sol\":1211:1218  _status */\n      dup1\n        /* \"contracts/Voting/Voting.sol\":1194:1218  currentStatus == _status */\n      0x05\n      dup2\n      gt\n      iszero\n      tag_89\n      jumpi\n      tag_90\n      tag_62\n      jump\t// in\n    tag_90:\n    tag_89:\n        /* \"contracts/Voting/Voting.sol\":1194:1207  currentStatus */\n      0x02\n      0x00\n      swap1\n      sload\n      swap1\n      0x0100\n      exp\n      swap1\n      div\n      0xff\n      and\n        /* \"contracts/Voting/Voting.sol\":1194:1218  currentStatus == _status */\n      0x05\n      dup2\n      gt\n      iszero\n      tag_91\n      jumpi\n      tag_92\n      tag_62\n      jump\t// in\n    tag_92:\n    tag_91:\n      eq\n        /* \"contracts/Voting/Voting.sol\":1186:1246  require(currentStatus == _status, \"Invalid workflow status\") */\n      tag_93\n      jumpi\n      mload(0x40)\n      0x08c379a000000000000000000000000000000000000000000000000000000000\n      dup2\n      mstore\n      0x04\n      add\n      tag_94\n      swap1\n      tag_67\n      jump\t// in\n    tag_94:\n      mload(0x40)\n      dup1\n      swap2\n      sub\n      swap1\n      revert\n    tag_93:\n        /* \"contracts/Voting/Voting.sol\":2854:2909  updateStatus(WorkflowStatus.ProposalsRegistrationEnded) */\n      tag_96\n        /* \"contracts/Voting/Voting.sol\":2867:2908  WorkflowStatus.ProposalsRegistrationEnded */\n      0x02\n        /* \"contracts/Voting/Voting.sol\":2854:2866  updateStatus */\n      tag_97\n        /* \"contracts/Voting/Voting.sol\":2854:2909  updateStatus(WorkflowStatus.ProposalsRegistrationEnded) */\n      jump\t// in\n    tag_96:\n        /* \"@openzeppelin/contracts/access/Ownable.sol\":1554:1555  _ */\n      pop\n        /* \"contracts/Voting/Voting.sol\":2697:2916  function endProposalsRegistration()... */\n      jump\t// out\n        /* \"@openzeppelin/contracts/access/Ownable.sol\":2293:2394  function renounceOwnership() public virtual onlyOwner {... */\n    tag_23:\n        /* \"@openzeppelin/contracts/access/Ownable.sol\":1531:1544  _checkOwner() */\n      tag_99\n        /* \"@openzeppelin/contracts/access/Ownable.sol\":1531:1542  _checkOwner */\n      tag_87\n        /* \"@openzeppelin/contracts/access/Ownable.sol\":1531:1544  _checkOwner() */\n      jump\t// in\n    tag_99:\n        /* \"@openzeppelin/contracts/access/Ownable.sol\":2357:2387  _transferOwnership(address(0)) */\n      tag_101\n        /* \"@openzeppelin/contracts/access/Ownable.sol\":2384:2385  0 */\n      0x00\n        /* \"@openzeppelin/contracts/access/Ownable.sol\":2357:2375  _transferOwnership */\n      tag_102\n        /* \"@openzeppelin/contracts/access/Ownable.sol\":2357:2387  _transferOwnership(address(0)) */\n      jump\t// in\n    tag_101:\n        /* \"@openzeppelin/contracts/access/Ownable.sol\":2293:2394  function renounceOwnership() public virtual onlyOwner {... */\n      jump\t// out\n        /* \"@openzeppelin/contracts/access/Ownable.sol\":1638:1723  function owner() public view virtual returns (address) {... */\n    tag_25:\n        /* \"@openzeppelin/contracts/access/Ownable.sol\":1684:1691  address */\n      0x00\n        /* \"@openzeppelin/contracts/access/Ownable.sol\":1710:1716  _owner */\n      0x00\n      0x00\n      swap1\n      sload\n      swap1\n      0x0100\n      exp\n      swap1\n      div\n      0xffffffffffffffffffffffffffffffffffffffff\n      and\n        /* \"@openzeppelin/contracts/access/Ownable.sol\":1703:1716  return _owner */\n      swap1\n      pop\n        /* \"@openzeppelin/contracts/access/Ownable.sol\":1638:1723  function owner() public view virtual returns (address) {... */\n      swap1\n      jump\t// out\n        /* \"contracts/Voting/Voting.sol\":4572:4740  function getWinner() external checkCurrentStatus(WorkflowStatus.VotesTallied) view returns (Proposal memory) {... */\n    tag_29:\n        /* \"contracts/Voting/Voting.sol\":4664:4679  Proposal memory */\n      tag_104\n      tag_105\n      jump\t// in\n    tag_104:\n        /* \"contracts/Voting/Voting.sol\":4621:4648  WorkflowStatus.VotesTallied */\n      0x05\n        /* \"contracts/Voting/Voting.sol\":1211:1218  _status */\n      dup1\n        /* \"contracts/Voting/Voting.sol\":1194:1218  currentStatus == _status */\n      0x05\n      dup2\n      gt\n      iszero\n      tag_107\n      jumpi\n      tag_108\n      tag_62\n      jump\t// in\n    tag_108:\n    tag_107:\n        /* \"contracts/Voting/Voting.sol\":1194:1207  currentStatus */\n      0x02\n      0x00\n      swap1\n      sload\n      swap1\n      0x0100\n      exp\n      swap1\n      div\n      0xff\n      and\n        /* \"contracts/Voting/Voting.sol\":1194:1218  currentStatus == _status */\n      0x05\n      dup2\n      gt\n      iszero\n      tag_109\n      jumpi\n      tag_110\n      tag_62\n      jump\t// in\n    tag_110:\n    tag_109:\n      eq\n        /* \"contracts/Voting/Voting.sol\":1186:1246  require(currentStatus == _status, \"Invalid workflow status\") */\n      tag_111\n      jumpi\n      mload(0x40)\n      0x08c379a000000000000000000000000000000000000000000000000000000000\n      dup2\n      mstore\n      0x04\n      add\n      tag_112\n      swap1\n      tag_67\n      jump\t// in\n    tag_112:\n      mload(0x40)\n      dup1\n      swap2\n      sub\n      swap1\n      revert\n    tag_111:\n        /* \"contracts/Voting/Voting.sol\":4698:4710  proposalList */\n      0x04\n        /* \"contracts/Voting/Voting.sol\":4731:4732  1 */\n      0x01\n        /* \"contracts/Voting/Voting.sol\":4711:4728  winningProposalId */\n      dup1\n      sload\n        /* \"contracts/Voting/Voting.sol\":4711:4732  winningProposalId - 1 */\n      tag_114\n      swap2\n      swap1\n      tag_76\n      jump\t// in\n    tag_114:\n        /* \"contracts/Voting/Voting.sol\":4698:4733  proposalList[winningProposalId - 1] */\n      dup2\n      sload\n      dup2\n      lt\n      tag_115\n      jumpi\n      tag_116\n      tag_79\n      jump\t// in\n    tag_116:\n    tag_115:\n      swap1\n      0x00\n      mstore\n      keccak256(0x00, 0x20)\n      swap1\n      0x02\n      mul\n      add\n        /* \"contracts/Voting/Voting.sol\":4691:4733  return proposalList[winningProposalId - 1] */\n      mload(0x40)\n      dup1\n      0x40\n      add\n      0x40\n      mstore\n      swap1\n      dup2\n      0x00\n      dup3\n      add\n      dup1\n      sload\n      tag_118\n      swap1\n      tag_119\n      jump\t// in\n    tag_118:\n      dup1\n      0x1f\n      add\n      0x20\n      dup1\n      swap2\n      div\n      mul\n      0x20\n      add\n      mload(0x40)\n      swap1\n      dup2\n      add\n      0x40\n      mstore\n      dup1\n      swap3\n      swap2\n      swap1\n      dup2\n      dup2\n      mstore\n      0x20\n      add\n      dup3\n      dup1\n      sload\n      tag_120\n      swap1\n      tag_119\n      jump\t// in\n    tag_120:\n      dup1\n      iszero\n      tag_121\n      jumpi\n      dup1\n      0x1f\n      lt\n      tag_122\n      jumpi\n      0x0100\n      dup1\n      dup4\n      sload\n      div\n      mul\n      dup4\n      mstore\n      swap2\n      0x20\n      add\n      swap2\n      jump(tag_121)\n    tag_122:\n      dup3\n      add\n      swap2\n      swap1\n      0x00\n      mstore\n      keccak256(0x00, 0x20)\n      swap1\n    tag_123:\n      dup2\n      sload\n      dup2\n      mstore\n      swap1\n      0x01\n      add\n      swap1\n      0x20\n      add\n      dup1\n      dup4\n      gt\n      tag_123\n      jumpi\n      dup3\n      swap1\n      sub\n      0x1f\n      and\n      dup3\n      add\n      swap2\n    tag_121:\n      pop\n      pop\n      pop\n      pop\n      pop\n      dup2\n      mstore\n      0x20\n      add\n      0x01\n      dup3\n      add\n      sload\n      dup2\n      mstore\n      pop\n      pop\n      swap2\n      pop\n        /* \"contracts/Voting/Voting.sol\":4572:4740  function getWinner() external checkCurrentStatus(WorkflowStatus.VotesTallied) view returns (Proposal memory) {... */\n      pop\n      swap1\n      jump\t// out\n        /* \"contracts/Voting/Voting.sol\":3719:3914  function endVotingSession()... */\n    tag_33:\n        /* \"@openzeppelin/contracts/access/Ownable.sol\":1531:1544  _checkOwner() */\n      tag_125\n        /* \"@openzeppelin/contracts/access/Ownable.sol\":1531:1542  _checkOwner */\n      tag_87\n        /* \"@openzeppelin/contracts/access/Ownable.sol\":1531:1544  _checkOwner() */\n      jump\t// in\n    tag_125:\n        /* \"contracts/Voting/Voting.sol\":3809:3844  WorkflowStatus.VotingSessionStarted */\n      0x03\n        /* \"contracts/Voting/Voting.sol\":1211:1218  _status */\n      dup1\n        /* \"contracts/Voting/Voting.sol\":1194:1218  currentStatus == _status */\n      0x05\n      dup2\n      gt\n      iszero\n      tag_127\n      jumpi\n      tag_128\n      tag_62\n      jump\t// in\n    tag_128:\n    tag_127:\n        /* \"contracts/Voting/Voting.sol\":1194:1207  currentStatus */\n      0x02\n      0x00\n      swap1\n      sload\n      swap1\n      0x0100\n      exp\n      swap1\n      div\n      0xff\n      and\n        /* \"contracts/Voting/Voting.sol\":1194:1218  currentStatus == _status */\n      0x05\n      dup2\n      gt\n      iszero\n      tag_129\n      jumpi\n      tag_130\n      tag_62\n      jump\t// in\n    tag_130:\n    tag_129:\n      eq\n        /* \"contracts/Voting/Voting.sol\":1186:1246  require(currentStatus == _status, \"Invalid workflow status\") */\n      tag_131\n      jumpi\n      mload(0x40)\n      0x08c379a000000000000000000000000000000000000000000000000000000000\n      dup2\n      mstore\n      0x04\n      add\n      tag_132\n      swap1\n      tag_67\n      jump\t// in\n    tag_132:\n      mload(0x40)\n      dup1\n      swap2\n      sub\n      swap1\n      revert\n    tag_131:\n        /* \"contracts/Voting/Voting.sol\":3860:3907  updateStatus(WorkflowStatus.VotingSessionEnded) */\n      tag_134\n        /* \"contracts/Voting/Voting.sol\":3873:3906  WorkflowStatus.VotingSessionEnded */\n      0x04\n        /* \"contracts/Voting/Voting.sol\":3860:3872  updateStatus */\n      tag_97\n        /* \"contracts/Voting/Voting.sol\":3860:3907  updateStatus(WorkflowStatus.VotingSessionEnded) */\n      jump\t// in\n    tag_134:\n        /* \"@openzeppelin/contracts/access/Ownable.sol\":1554:1555  _ */\n      pop\n        /* \"contracts/Voting/Voting.sol\":3719:3914  function endVotingSession()... */\n      jump\t// out\n        /* \"contracts/Voting/Voting.sol\":3920:4566  function countVotes()... */\n    tag_35:\n        /* \"@openzeppelin/contracts/access/Ownable.sol\":1531:1544  _checkOwner() */\n      tag_136\n        /* \"@openzeppelin/contracts/access/Ownable.sol\":1531:1542  _checkOwner */\n      tag_87\n        /* \"@openzeppelin/contracts/access/Ownable.sol\":1531:1544  _checkOwner() */\n      jump\t// in\n    tag_136:\n        /* \"contracts/Voting/Voting.sol\":4004:4037  WorkflowStatus.VotingSessionEnded */\n      0x04\n        /* \"contracts/Voting/Voting.sol\":1211:1218  _status */\n      dup1\n        /* \"contracts/Voting/Voting.sol\":1194:1218  currentStatus == _status */\n      0x05\n      dup2\n      gt\n      iszero\n      tag_138\n      jumpi\n      tag_139\n      tag_62\n      jump\t// in\n    tag_139:\n    tag_138:\n        /* \"contracts/Voting/Voting.sol\":1194:1207  currentStatus */\n      0x02\n      0x00\n      swap1\n      sload\n      swap1\n      0x0100\n      exp\n      swap1\n      div\n      0xff\n      and\n        /* \"contracts/Voting/Voting.sol\":1194:1218  currentStatus == _status */\n      0x05\n      dup2\n      gt\n      iszero\n      tag_140\n      jumpi\n      tag_141\n      tag_62\n      jump\t// in\n    tag_141:\n    tag_140:\n      eq\n        /* \"contracts/Voting/Voting.sol\":1186:1246  require(currentStatus == _status, \"Invalid workflow status\") */\n      tag_142\n      jumpi\n      mload(0x40)\n      0x08c379a000000000000000000000000000000000000000000000000000000000\n      dup2\n      mstore\n      0x04\n      add\n      tag_143\n      swap1\n      tag_67\n      jump\t// in\n    tag_143:\n      mload(0x40)\n      dup1\n      swap2\n      sub\n      swap1\n      revert\n    tag_142:\n        /* \"contracts/Voting/Voting.sol\":4053:4069  uint256 maxVotes */\n      0x00\n        /* \"contracts/Voting/Voting.sol\":4072:4073  0 */\n      0x00\n        /* \"contracts/Voting/Voting.sol\":4053:4073  uint256 maxVotes = 0 */\n      swap1\n      pop\n        /* \"contracts/Voting/Voting.sol\":4083:4093  bool isTie */\n      0x00\n        /* \"contracts/Voting/Voting.sol\":4096:4101  false */\n      0x00\n        /* \"contracts/Voting/Voting.sol\":4083:4101  bool isTie = false */\n      swap1\n      pop\n        /* \"contracts/Voting/Voting.sol\":4116:4125  uint256 i */\n      0x00\n        /* \"contracts/Voting/Voting.sol\":4128:4129  0 */\n      0x00\n        /* \"contracts/Voting/Voting.sol\":4116:4129  uint256 i = 0 */\n      swap1\n      pop\n        /* \"contracts/Voting/Voting.sol\":4111:4464  for (uint256 i = 0; i < proposalList.length; i++) {... */\n    tag_145:\n        /* \"contracts/Voting/Voting.sol\":4135:4147  proposalList */\n      0x04\n        /* \"contracts/Voting/Voting.sol\":4135:4154  proposalList.length */\n      dup1\n      sload\n      swap1\n      pop\n        /* \"contracts/Voting/Voting.sol\":4131:4132  i */\n      dup2\n        /* \"contracts/Voting/Voting.sol\":4131:4154  i < proposalList.length */\n      lt\n        /* \"contracts/Voting/Voting.sol\":4111:4464  for (uint256 i = 0; i < proposalList.length; i++) {... */\n      iszero\n      tag_146\n      jumpi\n        /* \"contracts/Voting/Voting.sol\":4207:4215  maxVotes */\n      dup3\n        /* \"contracts/Voting/Voting.sol\":4179:4191  proposalList */\n      0x04\n        /* \"contracts/Voting/Voting.sol\":4192:4193  i */\n      dup3\n        /* \"contracts/Voting/Voting.sol\":4179:4194  proposalList[i] */\n      dup2\n      sload\n      dup2\n      lt\n      tag_148\n      jumpi\n      tag_149\n      tag_79\n      jump\t// in\n    tag_149:\n    tag_148:\n      swap1\n      0x00\n      mstore\n      keccak256(0x00, 0x20)\n      swap1\n      0x02\n      mul\n      add\n        /* \"contracts/Voting/Voting.sol\":4179:4204  proposalList[i].voteCount */\n      0x01\n      add\n      sload\n        /* \"contracts/Voting/Voting.sol\":4179:4215  proposalList[i].voteCount > maxVotes */\n      gt\n        /* \"contracts/Voting/Voting.sol\":4175:4454  if (proposalList[i].voteCount > maxVotes) {... */\n      iszero\n      tag_151\n      jumpi\n        /* \"contracts/Voting/Voting.sol\":4246:4258  proposalList */\n      0x04\n        /* \"contracts/Voting/Voting.sol\":4259:4260  i */\n      dup2\n        /* \"contracts/Voting/Voting.sol\":4246:4261  proposalList[i] */\n      dup2\n      sload\n      dup2\n      lt\n      tag_152\n      jumpi\n      tag_153\n      tag_79\n      jump\t// in\n    tag_153:\n    tag_152:\n      swap1\n      0x00\n      mstore\n      keccak256(0x00, 0x20)\n      swap1\n      0x02\n      mul\n      add\n        /* \"contracts/Voting/Voting.sol\":4246:4271  proposalList[i].voteCount */\n      0x01\n      add\n      sload\n        /* \"contracts/Voting/Voting.sol\":4235:4271  maxVotes = proposalList[i].voteCount */\n      swap3\n      pop\n        /* \"contracts/Voting/Voting.sol\":4313:4314  1 */\n      0x01\n        /* \"contracts/Voting/Voting.sol\":4309:4310  i */\n      dup2\n        /* \"contracts/Voting/Voting.sol\":4309:4314  i + 1 */\n      tag_155\n      swap2\n      swap1\n      tag_156\n      jump\t// in\n    tag_155:\n        /* \"contracts/Voting/Voting.sol\":4289:4306  winningProposalId */\n      0x01\n        /* \"contracts/Voting/Voting.sol\":4289:4314  winningProposalId = i + 1 */\n      dup2\n      swap1\n      sstore\n      pop\n        /* \"contracts/Voting/Voting.sol\":4340:4345  false */\n      0x00\n        /* \"contracts/Voting/Voting.sol\":4332:4345  isTie = false */\n      swap2\n      pop\n        /* \"contracts/Voting/Voting.sol\":4175:4454  if (proposalList[i].voteCount > maxVotes) {... */\n      jump(tag_157)\n    tag_151:\n        /* \"contracts/Voting/Voting.sol\":4399:4407  maxVotes */\n      dup3\n        /* \"contracts/Voting/Voting.sol\":4370:4382  proposalList */\n      0x04\n        /* \"contracts/Voting/Voting.sol\":4383:4384  i */\n      dup3\n        /* \"contracts/Voting/Voting.sol\":4370:4385  proposalList[i] */\n      dup2\n      sload\n      dup2\n      lt\n      tag_158\n      jumpi\n      tag_159\n      tag_79\n      jump\t// in\n    tag_159:\n    tag_158:\n      swap1\n      0x00\n      mstore\n      keccak256(0x00, 0x20)\n      swap1\n      0x02\n      mul\n      add\n        /* \"contracts/Voting/Voting.sol\":4370:4395  proposalList[i].voteCount */\n      0x01\n      add\n      sload\n        /* \"contracts/Voting/Voting.sol\":4370:4407  proposalList[i].voteCount == maxVotes */\n      sub\n        /* \"contracts/Voting/Voting.sol\":4366:4454  if (proposalList[i].voteCount == maxVotes) {... */\n      tag_161\n      jumpi\n        /* \"contracts/Voting/Voting.sol\":4435:4439  true */\n      0x01\n        /* \"contracts/Voting/Voting.sol\":4427:4439  isTie = true */\n      swap2\n      pop\n        /* \"contracts/Voting/Voting.sol\":4366:4454  if (proposalList[i].voteCount == maxVotes) {... */\n    tag_161:\n        /* \"contracts/Voting/Voting.sol\":4175:4454  if (proposalList[i].voteCount > maxVotes) {... */\n    tag_157:\n        /* \"contracts/Voting/Voting.sol\":4156:4159  i++ */\n      dup1\n      dup1\n      0x01\n      add\n      swap2\n      pop\n      pop\n        /* \"contracts/Voting/Voting.sol\":4111:4464  for (uint256 i = 0; i < proposalList.length; i++) {... */\n      jump(tag_145)\n    tag_146:\n      pop\n        /* \"contracts/Voting/Voting.sol\":4482:4487  isTie */\n      dup1\n        /* \"contracts/Voting/Voting.sol\":4481:4487  !isTie */\n      iszero\n        /* \"contracts/Voting/Voting.sol\":4473:4508  require(!isTie, \"There is a tie !\") */\n      tag_162\n      jumpi\n      mload(0x40)\n      0x08c379a000000000000000000000000000000000000000000000000000000000\n      dup2\n      mstore\n      0x04\n      add\n      tag_163\n      swap1\n      tag_164\n      jump\t// in\n    tag_163:\n      mload(0x40)\n      dup1\n      swap2\n      sub\n      swap1\n      revert\n    tag_162:\n        /* \"contracts/Voting/Voting.sol\":4518:4559  updateStatus(WorkflowStatus.VotesTallied) */\n      tag_165\n        /* \"contracts/Voting/Voting.sol\":4531:4558  WorkflowStatus.VotesTallied */\n      0x05\n        /* \"contracts/Voting/Voting.sol\":4518:4530  updateStatus */\n      tag_97\n        /* \"contracts/Voting/Voting.sol\":4518:4559  updateStatus(WorkflowStatus.VotesTallied) */\n      jump\t// in\n    tag_165:\n        /* \"contracts/Voting/Voting.sol\":4043:4566  {... */\n      pop\n      pop\n        /* \"@openzeppelin/contracts/access/Ownable.sol\":1554:1555  _ */\n      pop\n        /* \"contracts/Voting/Voting.sol\":3920:4566  function countVotes()... */\n      jump\t// out\n        /* \"contracts/Voting/Voting.sol\":1420:1771  function authorize(address _address)... */\n    tag_39:\n        /* \"@openzeppelin/contracts/access/Ownable.sol\":1531:1544  _checkOwner() */\n      tag_167\n        /* \"@openzeppelin/contracts/access/Ownable.sol\":1531:1542  _checkOwner */\n      tag_87\n        /* \"@openzeppelin/contracts/access/Ownable.sol\":1531:1544  _checkOwner() */\n      jump\t// in\n    tag_167:\n        /* \"contracts/Voting/Voting.sol\":1519:1551  WorkflowStatus.RegisteringVoters */\n      0x00\n        /* \"contracts/Voting/Voting.sol\":1211:1218  _status */\n      dup1\n        /* \"contracts/Voting/Voting.sol\":1194:1218  currentStatus == _status */\n      0x05\n      dup2\n      gt\n      iszero\n      tag_169\n      jumpi\n      tag_170\n      tag_62\n      jump\t// in\n    tag_170:\n    tag_169:\n        /* \"contracts/Voting/Voting.sol\":1194:1207  currentStatus */\n      0x02\n      0x00\n      swap1\n      sload\n      swap1\n      0x0100\n      exp\n      swap1\n      div\n      0xff\n      and\n        /* \"contracts/Voting/Voting.sol\":1194:1218  currentStatus == _status */\n      0x05\n      dup2\n      gt\n      iszero\n      tag_171\n      jumpi\n      tag_172\n      tag_62\n      jump\t// in\n    tag_172:\n    tag_171:\n      eq\n        /* \"contracts/Voting/Voting.sol\":1186:1246  require(currentStatus == _status, \"Invalid workflow status\") */\n      tag_173\n      jumpi\n      mload(0x40)\n      0x08c379a000000000000000000000000000000000000000000000000000000000\n      dup2\n      mstore\n      0x04\n      add\n      tag_174\n      swap1\n      tag_67\n      jump\t// in\n    tag_174:\n      mload(0x40)\n      dup1\n      swap2\n      sub\n      swap1\n      revert\n    tag_173:\n        /* \"contracts/Voting/Voting.sol\":1581:1589  _address */\n      dup2\n        /* \"contracts/Voting/Voting.sol\":1355:1356  0 */\n      0x00\n        /* \"contracts/Voting/Voting.sol\":1335:1357  _address != address(0) */\n      0xffffffffffffffffffffffffffffffffffffffff\n      and\n        /* \"contracts/Voting/Voting.sol\":1335:1343  _address */\n      dup2\n        /* \"contracts/Voting/Voting.sol\":1335:1357  _address != address(0) */\n      0xffffffffffffffffffffffffffffffffffffffff\n      and\n      sub\n        /* \"contracts/Voting/Voting.sol\":1327:1396  require(_address != address(0), \"Address cannot be the zero address\") */\n      tag_176\n      jumpi\n      mload(0x40)\n      0x08c379a000000000000000000000000000000000000000000000000000000000\n      dup2\n      mstore\n      0x04\n      add\n      tag_177\n      swap1\n      tag_54\n      jump\t// in\n    tag_177:\n      mload(0x40)\n      dup1\n      swap2\n      sub\n      swap1\n      revert\n    tag_176:\n        /* \"contracts/Voting/Voting.sol\":1614:1623  whitelist */\n      0x03\n        /* \"contracts/Voting/Voting.sol\":1614:1633  whitelist[_address] */\n      0x00\n        /* \"contracts/Voting/Voting.sol\":1624:1632  _address */\n      dup5\n        /* \"contracts/Voting/Voting.sol\":1614:1633  whitelist[_address] */\n      0xffffffffffffffffffffffffffffffffffffffff\n      and\n      0xffffffffffffffffffffffffffffffffffffffff\n      and\n      dup2\n      mstore\n      0x20\n      add\n      swap1\n      dup2\n      mstore\n      0x20\n      add\n      0x00\n      keccak256\n        /* \"contracts/Voting/Voting.sol\":1614:1646  whitelist[_address].isRegistered */\n      0x00\n      add\n      0x00\n      swap1\n      sload\n      swap1\n      0x0100\n      exp\n      swap1\n      div\n      0xff\n      and\n        /* \"contracts/Voting/Voting.sol\":1613:1646  !whitelist[_address].isRegistered */\n      iszero\n        /* \"contracts/Voting/Voting.sol\":1605:1675  require(!whitelist[_address].isRegistered, \"already in the whitelist\") */\n      tag_179\n      jumpi\n      mload(0x40)\n      0x08c379a000000000000000000000000000000000000000000000000000000000\n      dup2\n      mstore\n      0x04\n      add\n      tag_180\n      swap1\n      tag_181\n      jump\t// in\n    tag_180:\n      mload(0x40)\n      dup1\n      swap2\n      sub\n      swap1\n      revert\n    tag_179:\n        /* \"contracts/Voting/Voting.sol\":1720:1724  true */\n      0x01\n        /* \"contracts/Voting/Voting.sol\":1685:1694  whitelist */\n      0x03\n        /* \"contracts/Voting/Voting.sol\":1685:1704  whitelist[_address] */\n      0x00\n        /* \"contracts/Voting/Voting.sol\":1695:1703  _address */\n      dup6\n        /* \"contracts/Voting/Voting.sol\":1685:1704  whitelist[_address] */\n      0xffffffffffffffffffffffffffffffffffffffff\n      and\n      0xffffffffffffffffffffffffffffffffffffffff\n      and\n      dup2\n      mstore\n      0x20\n      add\n      swap1\n      dup2\n      mstore\n      0x20\n      add\n      0x00\n      keccak256\n        /* \"contracts/Voting/Voting.sol\":1685:1717  whitelist[_address].isRegistered */\n      0x00\n      add\n      0x00\n        /* \"contracts/Voting/Voting.sol\":1685:1724  whitelist[_address].isRegistered = true */\n      0x0100\n      exp\n      dup2\n      sload\n      dup2\n      0xff\n      mul\n      not\n      and\n      swap1\n      dup4\n      iszero\n      iszero\n      mul\n      or\n      swap1\n      sstore\n      pop\n        /* \"contracts/Voting/Voting.sol\":1739:1764  VoterRegistered(_address) */\n      0xb6be2187d059cc2a55fe29e0e503b566e1e0f8c8780096e185429350acffd3dd\n        /* \"contracts/Voting/Voting.sol\":1755:1763  _address */\n      dup4\n        /* \"contracts/Voting/Voting.sol\":1739:1764  VoterRegistered(_address) */\n      mload(0x40)\n      tag_182\n      swap2\n      swap1\n      tag_27\n      jump\t// in\n    tag_182:\n      mload(0x40)\n      dup1\n      swap2\n      sub\n      swap1\n      log1\n        /* \"contracts/Voting/Voting.sol\":1256:1257  _ */\n      pop\n        /* \"@openzeppelin/contracts/access/Ownable.sol\":1554:1555  _ */\n      pop\n        /* \"contracts/Voting/Voting.sol\":1420:1771  function authorize(address _address)... */\n      pop\n      jump\t// out\n        /* \"contracts/Voting/Voting.sol\":1945:2157  function startProposalsRegistration()... */\n    tag_41:\n        /* \"@openzeppelin/contracts/access/Ownable.sol\":1531:1544  _checkOwner() */\n      tag_184\n        /* \"@openzeppelin/contracts/access/Ownable.sol\":1531:1542  _checkOwner */\n      tag_87\n        /* \"@openzeppelin/contracts/access/Ownable.sol\":1531:1544  _checkOwner() */\n      jump\t// in\n    tag_184:\n        /* \"contracts/Voting/Voting.sol\":2045:2077  WorkflowStatus.RegisteringVoters */\n      0x00\n        /* \"contracts/Voting/Voting.sol\":1211:1218  _status */\n      dup1\n        /* \"contracts/Voting/Voting.sol\":1194:1218  currentStatus == _status */\n      0x05\n      dup2\n      gt\n      iszero\n      tag_186\n      jumpi\n      tag_187\n      tag_62\n      jump\t// in\n    tag_187:\n    tag_186:\n        /* \"contracts/Voting/Voting.sol\":1194:1207  currentStatus */\n      0x02\n      0x00\n      swap1\n      sload\n      swap1\n      0x0100\n      exp\n      swap1\n      div\n      0xff\n      and\n        /* \"contracts/Voting/Voting.sol\":1194:1218  currentStatus == _status */\n      0x05\n      dup2\n      gt\n      iszero\n      tag_188\n      jumpi\n      tag_189\n      tag_62\n      jump\t// in\n    tag_189:\n    tag_188:\n      eq\n        /* \"contracts/Voting/Voting.sol\":1186:1246  require(currentStatus == _status, \"Invalid workflow status\") */\n      tag_190\n      jumpi\n      mload(0x40)\n      0x08c379a000000000000000000000000000000000000000000000000000000000\n      dup2\n      mstore\n      0x04\n      add\n      tag_191\n      swap1\n      tag_67\n      jump\t// in\n    tag_191:\n      mload(0x40)\n      dup1\n      swap2\n      sub\n      swap1\n      revert\n    tag_190:\n        /* \"contracts/Voting/Voting.sol\":2093:2150  updateStatus(WorkflowStatus.ProposalsRegistrationStarted) */\n      tag_193\n        /* \"contracts/Voting/Voting.sol\":2106:2149  WorkflowStatus.ProposalsRegistrationStarted */\n      0x01\n        /* \"contracts/Voting/Voting.sol\":2093:2105  updateStatus */\n      tag_97\n        /* \"contracts/Voting/Voting.sol\":2093:2150  updateStatus(WorkflowStatus.ProposalsRegistrationStarted) */\n      jump\t// in\n    tag_193:\n        /* \"@openzeppelin/contracts/access/Ownable.sol\":1554:1555  _ */\n      pop\n        /* \"contracts/Voting/Voting.sol\":1945:2157  function startProposalsRegistration()... */\n      jump\t// out\n        /* \"contracts/Voting/Voting.sol\":2310:2691  function registerProposal(address _address, string memory _description)... */\n    tag_45:\n        /* \"contracts/Voting/Voting.sol\":2427:2435  _address */\n      dup2\n        /* \"contracts/Voting/Voting.sol\":1355:1356  0 */\n      0x00\n        /* \"contracts/Voting/Voting.sol\":1335:1357  _address != address(0) */\n      0xffffffffffffffffffffffffffffffffffffffff\n      and\n        /* \"contracts/Voting/Voting.sol\":1335:1343  _address */\n      dup2\n        /* \"contracts/Voting/Voting.sol\":1335:1357  _address != address(0) */\n      0xffffffffffffffffffffffffffffffffffffffff\n      and\n      sub\n        /* \"contracts/Voting/Voting.sol\":1327:1396  require(_address != address(0), \"Address cannot be the zero address\") */\n      tag_195\n      jumpi\n      mload(0x40)\n      0x08c379a000000000000000000000000000000000000000000000000000000000\n      dup2\n      mstore\n      0x04\n      add\n      tag_196\n      swap1\n      tag_54\n      jump\t// in\n    tag_196:\n      mload(0x40)\n      dup1\n      swap2\n      sub\n      swap1\n      revert\n    tag_195:\n        /* \"contracts/Voting/Voting.sol\":2463:2471  _address */\n      dup3\n        /* \"contracts/Voting/Voting.sol\":2226:2235  whitelist */\n      0x03\n        /* \"contracts/Voting/Voting.sol\":2226:2245  whitelist[_address] */\n      0x00\n        /* \"contracts/Voting/Voting.sol\":2236:2244  _address */\n      dup3\n        /* \"contracts/Voting/Voting.sol\":2226:2245  whitelist[_address] */\n      0xffffffffffffffffffffffffffffffffffffffff\n      and\n      0xffffffffffffffffffffffffffffffffffffffff\n      and\n      dup2\n      mstore\n      0x20\n      add\n      swap1\n      dup2\n      mstore\n      0x20\n      add\n      0x00\n      keccak256\n        /* \"contracts/Voting/Voting.sol\":2226:2258  whitelist[_address].isRegistered */\n      0x00\n      add\n      0x00\n      swap1\n      sload\n      swap1\n      0x0100\n      exp\n      swap1\n      div\n      0xff\n      and\n        /* \"contracts/Voting/Voting.sol\":2218:2286  require(whitelist[_address].isRegistered, \"Voter is not registered\") */\n      tag_198\n      jumpi\n      mload(0x40)\n      0x08c379a000000000000000000000000000000000000000000000000000000000\n      dup2\n      mstore\n      0x04\n      add\n      tag_199\n      swap1\n      tag_58\n      jump\t// in\n    tag_199:\n      mload(0x40)\n      dup1\n      swap2\n      sub\n      swap1\n      revert\n    tag_198:\n        /* \"contracts/Voting/Voting.sol\":2500:2543  WorkflowStatus.ProposalsRegistrationStarted */\n      0x01\n        /* \"contracts/Voting/Voting.sol\":1211:1218  _status */\n      dup1\n        /* \"contracts/Voting/Voting.sol\":1194:1218  currentStatus == _status */\n      0x05\n      dup2\n      gt\n      iszero\n      tag_201\n      jumpi\n      tag_202\n      tag_62\n      jump\t// in\n    tag_202:\n    tag_201:\n        /* \"contracts/Voting/Voting.sol\":1194:1207  currentStatus */\n      0x02\n      0x00\n      swap1\n      sload\n      swap1\n      0x0100\n      exp\n      swap1\n      div\n      0xff\n      and\n        /* \"contracts/Voting/Voting.sol\":1194:1218  currentStatus == _status */\n      0x05\n      dup2\n      gt\n      iszero\n      tag_203\n      jumpi\n      tag_204\n      tag_62\n      jump\t// in\n    tag_204:\n    tag_203:\n      eq\n        /* \"contracts/Voting/Voting.sol\":1186:1246  require(currentStatus == _status, \"Invalid workflow status\") */\n      tag_205\n      jumpi\n      mload(0x40)\n      0x08c379a000000000000000000000000000000000000000000000000000000000\n      dup2\n      mstore\n      0x04\n      add\n      tag_206\n      swap1\n      tag_67\n      jump\t// in\n    tag_206:\n      mload(0x40)\n      dup1\n      swap2\n      sub\n      swap1\n      revert\n    tag_205:\n        /* \"contracts/Voting/Voting.sol\":2559:2571  proposalList */\n      0x04\n        /* \"contracts/Voting/Voting.sol\":2577:2628  Proposal({description: _description, voteCount: 0}) */\n      mload(0x40)\n      dup1\n      0x40\n      add\n      0x40\n      mstore\n      dup1\n        /* \"contracts/Voting/Voting.sol\":2600:2612  _description */\n      dup7\n        /* \"contracts/Voting/Voting.sol\":2577:2628  Proposal({description: _description, voteCount: 0}) */\n      dup2\n      mstore\n      0x20\n      add\n        /* \"contracts/Voting/Voting.sol\":2625:2626  0 */\n      0x00\n        /* \"contracts/Voting/Voting.sol\":2577:2628  Proposal({description: _description, voteCount: 0}) */\n      dup2\n      mstore\n      pop\n        /* \"contracts/Voting/Voting.sol\":2559:2629  proposalList.push(Proposal({description: _description, voteCount: 0})) */\n      swap1\n      dup1\n      0x01\n      dup2\n      sload\n      add\n      dup1\n      dup3\n      sstore\n      dup1\n      swap2\n      pop\n      pop\n      0x01\n      swap1\n      sub\n      swap1\n      0x00\n      mstore\n      keccak256(0x00, 0x20)\n      swap1\n      0x02\n      mul\n      add\n      0x00\n      swap1\n      swap2\n      swap1\n      swap2\n      swap1\n      swap2\n      pop\n      0x00\n      dup3\n      add\n      mload\n      dup2\n      0x00\n      add\n      swap1\n      dup2\n      tag_209\n      swap2\n      swap1\n      tag_210\n      jump\t// in\n    tag_209:\n      pop\n      0x20\n      dup3\n      add\n      mload\n      dup2\n      0x01\n      add\n      sstore\n      pop\n      pop\n        /* \"contracts/Voting/Voting.sol\":2645:2684  ProposalRegistered(proposalList.length) */\n      0x92e393e9b54e2f801d3ea4beb0c5e71a21cc34a5d34b77d0fb8a3aa1650dc18f\n        /* \"contracts/Voting/Voting.sol\":2664:2676  proposalList */\n      0x04\n        /* \"contracts/Voting/Voting.sol\":2664:2683  proposalList.length */\n      dup1\n      sload\n      swap1\n      pop\n        /* \"contracts/Voting/Voting.sol\":2645:2684  ProposalRegistered(proposalList.length) */\n      mload(0x40)\n      tag_211\n      swap2\n      swap1\n      tag_212\n      jump\t// in\n    tag_211:\n      mload(0x40)\n      dup1\n      swap2\n      sub\n      swap1\n      log1\n        /* \"contracts/Voting/Voting.sol\":2296:2297  _ */\n      pop\n        /* \"contracts/Voting/Voting.sol\":1406:1407  _ */\n      pop\n        /* \"contracts/Voting/Voting.sol\":2310:2691  function registerProposal(address _address, string memory _description)... */\n      pop\n      pop\n      pop\n      jump\t// out\n        /* \"contracts/Voting/Voting.sol\":2922:3127  function startVotingSession()... */\n    tag_47:\n        /* \"@openzeppelin/contracts/access/Ownable.sol\":1531:1544  _checkOwner() */\n      tag_214\n        /* \"@openzeppelin/contracts/access/Ownable.sol\":1531:1542  _checkOwner */\n      tag_87\n        /* \"@openzeppelin/contracts/access/Ownable.sol\":1531:1544  _checkOwner() */\n      jump\t// in\n    tag_214:\n        /* \"contracts/Voting/Voting.sol\":3014:3055  WorkflowStatus.ProposalsRegistrationEnded */\n      0x02\n        /* \"contracts/Voting/Voting.sol\":1211:1218  _status */\n      dup1\n        /* \"contracts/Voting/Voting.sol\":1194:1218  currentStatus == _status */\n      0x05\n      dup2\n      gt\n      iszero\n      tag_216\n      jumpi\n      tag_217\n      tag_62\n      jump\t// in\n    tag_217:\n    tag_216:\n        /* \"contracts/Voting/Voting.sol\":1194:1207  currentStatus */\n      0x02\n      0x00\n      swap1\n      sload\n      swap1\n      0x0100\n      exp\n      swap1\n      div\n      0xff\n      and\n        /* \"contracts/Voting/Voting.sol\":1194:1218  currentStatus == _status */\n      0x05\n      dup2\n      gt\n      iszero\n      tag_218\n      jumpi\n      tag_219\n      tag_62\n      jump\t// in\n    tag_219:\n    tag_218:\n      eq\n        /* \"contracts/Voting/Voting.sol\":1186:1246  require(currentStatus == _status, \"Invalid workflow status\") */\n      tag_220\n      jumpi\n      mload(0x40)\n      0x08c379a000000000000000000000000000000000000000000000000000000000\n      dup2\n      mstore\n      0x04\n      add\n      tag_221\n      swap1\n      tag_67\n      jump\t// in\n    tag_221:\n      mload(0x40)\n      dup1\n      swap2\n      sub\n      swap1\n      revert\n    tag_220:\n        /* \"contracts/Voting/Voting.sol\":3071:3120  updateStatus(WorkflowStatus.VotingSessionStarted) */\n      tag_223\n        /* \"contracts/Voting/Voting.sol\":3084:3119  WorkflowStatus.VotingSessionStarted */\n      0x03\n        /* \"contracts/Voting/Voting.sol\":3071:3083  updateStatus */\n      tag_97\n        /* \"contracts/Voting/Voting.sol\":3071:3120  updateStatus(WorkflowStatus.VotingSessionStarted) */\n      jump\t// in\n    tag_223:\n        /* \"@openzeppelin/contracts/access/Ownable.sol\":1554:1555  _ */\n      pop\n        /* \"contracts/Voting/Voting.sol\":2922:3127  function startVotingSession()... */\n      jump\t// out\n        /* \"@openzeppelin/contracts/access/Ownable.sol\":2543:2758  function transferOwnership(address newOwner) public virtual onlyOwner {... */\n    tag_50:\n        /* \"@openzeppelin/contracts/access/Ownable.sol\":1531:1544  _checkOwner() */\n      tag_225\n        /* \"@openzeppelin/contracts/access/Ownable.sol\":1531:1542  _checkOwner */\n      tag_87\n        /* \"@openzeppelin/contracts/access/Ownable.sol\":1531:1544  _checkOwner() */\n      jump\t// in\n    tag_225:\n        /* \"@openzeppelin/contracts/access/Ownable.sol\":2647:2648  0 */\n      0x00\n        /* \"@openzeppelin/contracts/access/Ownable.sol\":2627:2649  newOwner == address(0) */\n      0xffffffffffffffffffffffffffffffffffffffff\n      and\n        /* \"@openzeppelin/contracts/access/Ownable.sol\":2627:2635  newOwner */\n      dup2\n        /* \"@openzeppelin/contracts/access/Ownable.sol\":2627:2649  newOwner == address(0) */\n      0xffffffffffffffffffffffffffffffffffffffff\n      and\n      sub\n        /* \"@openzeppelin/contracts/access/Ownable.sol\":2623:2714  if (newOwner == address(0)) {... */\n      tag_227\n      jumpi\n        /* \"@openzeppelin/contracts/access/Ownable.sol\":2700:2701  0 */\n      0x00\n        /* \"@openzeppelin/contracts/access/Ownable.sol\":2672:2703  OwnableInvalidOwner(address(0)) */\n      mload(0x40)\n      0x1e4fbdf700000000000000000000000000000000000000000000000000000000\n      dup2\n      mstore\n      0x04\n      add\n      tag_228\n      swap2\n      swap1\n      tag_27\n      jump\t// in\n    tag_228:\n      mload(0x40)\n      dup1\n      swap2\n      sub\n      swap1\n      revert\n        /* \"@openzeppelin/contracts/access/Ownable.sol\":2623:2714  if (newOwner == address(0)) {... */\n    tag_227:\n        /* \"@openzeppelin/contracts/access/Ownable.sol\":2723:2751  _transferOwnership(newOwner) */\n      tag_229\n        /* \"@openzeppelin/contracts/access/Ownable.sol\":2742:2750  newOwner */\n      dup2\n        /* \"@openzeppelin/contracts/access/Ownable.sol\":2723:2741  _transferOwnership */\n      tag_102\n        /* \"@openzeppelin/contracts/access/Ownable.sol\":2723:2751  _transferOwnership(newOwner) */\n      jump\t// in\n    tag_229:\n        /* \"@openzeppelin/contracts/access/Ownable.sol\":2543:2758  function transferOwnership(address newOwner) public virtual onlyOwner {... */\n      pop\n      jump\t// out\n        /* \"@openzeppelin/contracts/access/Ownable.sol\":1796:1958  function _checkOwner() internal view virtual {... */\n    tag_87:\n        /* \"@openzeppelin/contracts/access/Ownable.sol\":1866:1878  _msgSender() */\n      tag_231\n        /* \"@openzeppelin/contracts/access/Ownable.sol\":1866:1876  _msgSender */\n      tag_232\n        /* \"@openzeppelin/contracts/access/Ownable.sol\":1866:1878  _msgSender() */\n      jump\t// in\n    tag_231:\n        /* \"@openzeppelin/contracts/access/Ownable.sol\":1855:1878  owner() != _msgSender() */\n      0xffffffffffffffffffffffffffffffffffffffff\n      and\n        /* \"@openzeppelin/contracts/access/Ownable.sol\":1855:1862  owner() */\n      tag_233\n        /* \"@openzeppelin/contracts/access/Ownable.sol\":1855:1860  owner */\n      tag_25\n        /* \"@openzeppelin/contracts/access/Ownable.sol\":1855:1862  owner() */\n      jump\t// in\n    tag_233:\n        /* \"@openzeppelin/contracts/access/Ownable.sol\":1855:1878  owner() != _msgSender() */\n      0xffffffffffffffffffffffffffffffffffffffff\n      and\n      eq\n        /* \"@openzeppelin/contracts/access/Ownable.sol\":1851:1952  if (owner() != _msgSender()) {... */\n      tag_234\n      jumpi\n        /* \"@openzeppelin/contracts/access/Ownable.sol\":1928:1940  _msgSender() */\n      tag_235\n        /* \"@openzeppelin/contracts/access/Ownable.sol\":1928:1938  _msgSender */\n      tag_232\n        /* \"@openzeppelin/contracts/access/Ownable.sol\":1928:1940  _msgSender() */\n      jump\t// in\n    tag_235:\n        /* \"@openzeppelin/contracts/access/Ownable.sol\":1901:1941  OwnableUnauthorizedAccount(_msgSender()) */\n      mload(0x40)\n      0x118cdaa700000000000000000000000000000000000000000000000000000000\n      dup2\n      mstore\n      0x04\n      add\n      tag_236\n      swap2\n      swap1\n      tag_27\n      jump\t// in\n    tag_236:\n      mload(0x40)\n      dup1\n      swap2\n      sub\n      swap1\n      revert\n        /* \"@openzeppelin/contracts/access/Ownable.sol\":1851:1952  if (owner() != _msgSender()) {... */\n    tag_234:\n        /* \"@openzeppelin/contracts/access/Ownable.sol\":1796:1958  function _checkOwner() internal view virtual {... */\n      jump\t// out\n        /* \"contracts/Voting/Voting.sol\":1777:1939  function updateStatus(WorkflowStatus _newStatus) private {... */\n    tag_97:\n        /* \"contracts/Voting/Voting.sol\":1849:1896  WorkflowStatusChange(currentStatus, _newStatus) */\n      0x0a97a4ee45751e2abf3e4fc8946939630b11b371ea8ae39ccdc3056e98f5cc3f\n        /* \"contracts/Voting/Voting.sol\":1870:1883  currentStatus */\n      0x02\n      0x00\n      swap1\n      sload\n      swap1\n      0x0100\n      exp\n      swap1\n      div\n      0xff\n      and\n        /* \"contracts/Voting/Voting.sol\":1885:1895  _newStatus */\n      dup3\n        /* \"contracts/Voting/Voting.sol\":1849:1896  WorkflowStatusChange(currentStatus, _newStatus) */\n      mload(0x40)\n      tag_238\n      swap3\n      swap2\n      swap1\n      tag_239\n      jump\t// in\n    tag_238:\n      mload(0x40)\n      dup1\n      swap2\n      sub\n      swap1\n      log1\n        /* \"contracts/Voting/Voting.sol\":1922:1932  _newStatus */\n      dup1\n        /* \"contracts/Voting/Voting.sol\":1906:1919  currentStatus */\n      0x02\n      0x00\n        /* \"contracts/Voting/Voting.sol\":1906:1932  currentStatus = _newStatus */\n      0x0100\n      exp\n      dup2\n      sload\n      dup2\n      0xff\n      mul\n      not\n      and\n      swap1\n      dup4\n      0x05\n      dup2\n      gt\n      iszero\n      tag_240\n      jumpi\n      tag_241\n      tag_62\n      jump\t// in\n    tag_241:\n    tag_240:\n      mul\n      or\n      swap1\n      sstore\n      pop\n        /* \"contracts/Voting/Voting.sol\":1777:1939  function updateStatus(WorkflowStatus _newStatus) private {... */\n      pop\n      jump\t// out\n        /* \"@openzeppelin/contracts/access/Ownable.sol\":2912:3099  function _transferOwnership(address newOwner) internal virtual {... */\n    tag_102:\n        /* \"@openzeppelin/contracts/access/Ownable.sol\":2985:3001  address oldOwner */\n      0x00\n        /* \"@openzeppelin/contracts/access/Ownable.sol\":3004:3010  _owner */\n      0x00\n      0x00\n      swap1\n      sload\n      swap1\n      0x0100\n      exp\n      swap1\n      div\n      0xffffffffffffffffffffffffffffffffffffffff\n      and\n        /* \"@openzeppelin/contracts/access/Ownable.sol\":2985:3010  address oldOwner = _owner */\n      swap1\n      pop\n        /* \"@openzeppelin/contracts/access/Ownable.sol\":3029:3037  newOwner */\n      dup2\n        /* \"@openzeppelin/contracts/access/Ownable.sol\":3020:3026  _owner */\n      0x00\n      0x00\n        /* \"@openzeppelin/contracts/access/Ownable.sol\":3020:3037  _owner = newOwner */\n      0x0100\n      exp\n      dup2\n      sload\n      dup2\n      0xffffffffffffffffffffffffffffffffffffffff\n      mul\n      not\n      and\n      swap1\n      dup4\n      0xffffffffffffffffffffffffffffffffffffffff\n      and\n      mul\n      or\n      swap1\n      sstore\n      pop\n        /* \"@openzeppelin/contracts/access/Ownable.sol\":3083:3091  newOwner */\n      dup2\n        /* \"@openzeppelin/contracts/access/Ownable.sol\":3052:3092  OwnershipTransferred(oldOwner, newOwner) */\n      0xffffffffffffffffffffffffffffffffffffffff\n      and\n        /* \"@openzeppelin/contracts/access/Ownable.sol\":3073:3081  oldOwner */\n      dup2\n        /* \"@openzeppelin/contracts/access/Ownable.sol\":3052:3092  OwnershipTransferred(oldOwner, newOwner) */\n      0xffffffffffffffffffffffffffffffffffffffff\n      and\n      0x8be0079c531659141344cd1fd0a4f28419497f9722a3daafe3b4186f6b6457e0\n      mload(0x40)\n      mload(0x40)\n      dup1\n      swap2\n      sub\n      swap1\n      log3\n        /* \"@openzeppelin/contracts/access/Ownable.sol\":2975:3099  {... */\n      pop\n        /* \"@openzeppelin/contracts/access/Ownable.sol\":2912:3099  function _transferOwnership(address newOwner) internal virtual {... */\n      pop\n      jump\t// out\n        /* \"@openzeppelin/contracts/utils/Context.sol\":656:752  function _msgSender() internal view virtual returns (address) {... */\n    tag_232:\n        /* \"@openzeppelin/contracts/utils/Context.sol\":709:716  address */\n      0x00\n        /* \"@openzeppelin/contracts/utils/Context.sol\":735:745  msg.sender */\n      caller\n        /* \"@openzeppelin/contracts/utils/Context.sol\":728:745  return msg.sender */\n      swap1\n      pop\n        /* \"@openzeppelin/contracts/utils/Context.sol\":656:752  function _msgSender() internal view virtual returns (address) {... */\n      swap1\n      jump\t// out\n    tag_105:\n      mload(0x40)\n      dup1\n      0x40\n      add\n      0x40\n      mstore\n      dup1\n      0x60\n      dup2\n      mstore\n      0x20\n      add\n      0x00\n      dup2\n      mstore\n      pop\n      swap1\n      jump\t// out\n        /* \"#utility.yul\":7:82   */\n    tag_244:\n        /* \"#utility.yul\":40:46   */\n      0x00\n        /* \"#utility.yul\":73:75   */\n      0x40\n        /* \"#utility.yul\":67:76   */\n      mload\n        /* \"#utility.yul\":57:76   */\n      swap1\n      pop\n        /* \"#utility.yul\":7:82   */\n      swap1\n      jump\t// out\n        /* \"#utility.yul\":88:205   */\n    tag_245:\n        /* \"#utility.yul\":197:198   */\n      0x00\n        /* \"#utility.yul\":194:195   */\n      0x00\n        /* \"#utility.yul\":187:199   */\n      revert\n        /* \"#utility.yul\":211:328   */\n    tag_246:\n        /* \"#utility.yul\":320:321   */\n      0x00\n        /* \"#utility.yul\":317:318   */\n      0x00\n        /* \"#utility.yul\":310:322   */\n      revert\n        /* \"#utility.yul\":334:460   */\n    tag_247:\n        /* \"#utility.yul\":371:378   */\n      0x00\n        /* \"#utility.yul\":411:453   */\n      0xffffffffffffffffffffffffffffffffffffffff\n        /* \"#utility.yul\":404:409   */\n      dup3\n        /* \"#utility.yul\":400:454   */\n      and\n        /* \"#utility.yul\":389:454   */\n      swap1\n      pop\n        /* \"#utility.yul\":334:460   */\n      swap2\n      swap1\n      pop\n      jump\t// out\n        /* \"#utility.yul\":466:562   */\n    tag_248:\n        /* \"#utility.yul\":503:510   */\n      0x00\n        /* \"#utility.yul\":532:556   */\n      tag_314\n        /* \"#utility.yul\":550:555   */\n      dup3\n        /* \"#utility.yul\":532:556   */\n      tag_247\n      jump\t// in\n    tag_314:\n        /* \"#utility.yul\":521:556   */\n      swap1\n      pop\n        /* \"#utility.yul\":466:562   */\n      swap2\n      swap1\n      pop\n      jump\t// out\n        /* \"#utility.yul\":568:690   */\n    tag_249:\n        /* \"#utility.yul\":641:665   */\n      tag_316\n        /* \"#utility.yul\":659:664   */\n      dup2\n        /* \"#utility.yul\":641:665   */\n      tag_248\n      jump\t// in\n    tag_316:\n        /* \"#utility.yul\":634:639   */\n      dup2\n        /* \"#utility.yul\":631:666   */\n      eq\n        /* \"#utility.yul\":621:684   */\n      tag_317\n      jumpi\n        /* \"#utility.yul\":680:681   */\n      0x00\n        /* \"#utility.yul\":677:678   */\n      0x00\n        /* \"#utility.yul\":670:682   */\n      revert\n        /* \"#utility.yul\":621:684   */\n    tag_317:\n        /* \"#utility.yul\":568:690   */\n      pop\n      jump\t// out\n        /* \"#utility.yul\":696:835   */\n    tag_250:\n        /* \"#utility.yul\":742:747   */\n      0x00\n        /* \"#utility.yul\":780:786   */\n      dup2\n        /* \"#utility.yul\":767:787   */\n      calldataload\n        /* \"#utility.yul\":758:787   */\n      swap1\n      pop\n        /* \"#utility.yul\":796:829   */\n      tag_319\n        /* \"#utility.yul\":823:828   */\n      dup2\n        /* \"#utility.yul\":796:829   */\n      tag_249\n      jump\t// in\n    tag_319:\n        /* \"#utility.yul\":696:835   */\n      swap3\n      swap2\n      pop\n      pop\n      jump\t// out\n        /* \"#utility.yul\":841:918   */\n    tag_251:\n        /* \"#utility.yul\":878:885   */\n      0x00\n        /* \"#utility.yul\":907:912   */\n      dup2\n        /* \"#utility.yul\":896:912   */\n      swap1\n      pop\n        /* \"#utility.yul\":841:918   */\n      swap2\n      swap1\n      pop\n      jump\t// out\n        /* \"#utility.yul\":924:1046   */\n    tag_252:\n        /* \"#utility.yul\":997:1021   */\n      tag_322\n        /* \"#utility.yul\":1015:1020   */\n      dup2\n        /* \"#utility.yul\":997:1021   */\n      tag_251\n      jump\t// in\n    tag_322:\n        /* \"#utility.yul\":990:995   */\n      dup2\n        /* \"#utility.yul\":987:1022   */\n      eq\n        /* \"#utility.yul\":977:1040   */\n      tag_323\n      jumpi\n        /* \"#utility.yul\":1036:1037   */\n      0x00\n        /* \"#utility.yul\":1033:1034   */\n      0x00\n        /* \"#utility.yul\":1026:1038   */\n      revert\n        /* \"#utility.yul\":977:1040   */\n    tag_323:\n        /* \"#utility.yul\":924:1046   */\n      pop\n      jump\t// out\n        /* \"#utility.yul\":1052:1191   */\n    tag_253:\n        /* \"#utility.yul\":1098:1103   */\n      0x00\n        /* \"#utility.yul\":1136:1142   */\n      dup2\n        /* \"#utility.yul\":1123:1143   */\n      calldataload\n        /* \"#utility.yul\":1114:1143   */\n      swap1\n      pop\n        /* \"#utility.yul\":1152:1185   */\n      tag_325\n        /* \"#utility.yul\":1179:1184   */\n      dup2\n        /* \"#utility.yul\":1152:1185   */\n      tag_252\n      jump\t// in\n    tag_325:\n        /* \"#utility.yul\":1052:1191   */\n      swap3\n      swap2\n      pop\n      pop\n      jump\t// out\n        /* \"#utility.yul\":1197:1671   */\n    tag_18:\n        /* \"#utility.yul\":1265:1271   */\n      0x00\n        /* \"#utility.yul\":1273:1279   */\n      0x00\n        /* \"#utility.yul\":1322:1324   */\n      0x40\n        /* \"#utility.yul\":1310:1319   */\n      dup4\n        /* \"#utility.yul\":1301:1308   */\n      dup6\n        /* \"#utility.yul\":1297:1320   */\n      sub\n        /* \"#utility.yul\":1293:1325   */\n      slt\n        /* \"#utility.yul\":1290:1409   */\n      iszero\n      tag_327\n      jumpi\n        /* \"#utility.yul\":1328:1407   */\n      tag_328\n      tag_245\n      jump\t// in\n    tag_328:\n        /* \"#utility.yul\":1290:1409   */\n    tag_327:\n        /* \"#utility.yul\":1448:1449   */\n      0x00\n        /* \"#utility.yul\":1473:1526   */\n      tag_329\n        /* \"#utility.yul\":1518:1525   */\n      dup6\n        /* \"#utility.yul\":1509:1515   */\n      dup3\n        /* \"#utility.yul\":1498:1507   */\n      dup7\n        /* \"#utility.yul\":1494:1516   */\n      add\n        /* \"#utility.yul\":1473:1526   */\n      tag_250\n      jump\t// in\n    tag_329:\n        /* \"#utility.yul\":1463:1526   */\n      swap3\n      pop\n        /* \"#utility.yul\":1419:1536   */\n      pop\n        /* \"#utility.yul\":1575:1577   */\n      0x20\n        /* \"#utility.yul\":1601:1654   */\n      tag_330\n        /* \"#utility.yul\":1646:1653   */\n      dup6\n        /* \"#utility.yul\":1637:1643   */\n      dup3\n        /* \"#utility.yul\":1626:1635   */\n      dup7\n        /* \"#utility.yul\":1622:1644   */\n      add\n        /* \"#utility.yul\":1601:1654   */\n      tag_253\n      jump\t// in\n    tag_330:\n        /* \"#utility.yul\":1591:1654   */\n      swap2\n      pop\n        /* \"#utility.yul\":1546:1664   */\n      pop\n        /* \"#utility.yul\":1197:1671   */\n      swap3\n      pop\n      swap3\n      swap1\n      pop\n      jump\t// out\n        /* \"#utility.yul\":1677:1795   */\n    tag_254:\n        /* \"#utility.yul\":1764:1788   */\n      tag_332\n        /* \"#utility.yul\":1782:1787   */\n      dup2\n        /* \"#utility.yul\":1764:1788   */\n      tag_248\n      jump\t// in\n    tag_332:\n        /* \"#utility.yul\":1759:1762   */\n      dup3\n        /* \"#utility.yul\":1752:1789   */\n      mstore\n        /* \"#utility.yul\":1677:1795   */\n      pop\n      pop\n      jump\t// out\n        /* \"#utility.yul\":1801:2023   */\n    tag_27:\n        /* \"#utility.yul\":1894:1898   */\n      0x00\n        /* \"#utility.yul\":1932:1934   */\n      0x20\n        /* \"#utility.yul\":1921:1930   */\n      dup3\n        /* \"#utility.yul\":1917:1935   */\n      add\n        /* \"#utility.yul\":1909:1935   */\n      swap1\n      pop\n        /* \"#utility.yul\":1945:2016   */\n      tag_334\n        /* \"#utility.yul\":2013:2014   */\n      0x00\n        /* \"#utility.yul\":2002:2011   */\n      dup4\n        /* \"#utility.yul\":1998:2015   */\n      add\n        /* \"#utility.yul\":1989:1995   */\n      dup5\n        /* \"#utility.yul\":1945:2016   */\n      tag_254\n      jump\t// in\n    tag_334:\n        /* \"#utility.yul\":1801:2023   */\n      swap3\n      swap2\n      pop\n      pop\n      jump\t// out\n        /* \"#utility.yul\":2029:2128   */\n    tag_255:\n        /* \"#utility.yul\":2081:2087   */\n      0x00\n        /* \"#utility.yul\":2115:2120   */\n      dup2\n        /* \"#utility.yul\":2109:2121   */\n      mload\n        /* \"#utility.yul\":2099:2121   */\n      swap1\n      pop\n        /* \"#utility.yul\":2029:2128   */\n      swap2\n      swap1\n      pop\n      jump\t// out\n        /* \"#utility.yul\":2134:2293   */\n    tag_256:\n        /* \"#utility.yul\":2208:2219   */\n      0x00\n        /* \"#utility.yul\":2242:2248   */\n      dup3\n        /* \"#utility.yul\":2237:2240   */\n      dup3\n        /* \"#utility.yul\":2230:2249   */\n      mstore\n        /* \"#utility.yul\":2282:2286   */\n      0x20\n        /* \"#utility.yul\":2277:2280   */\n      dup3\n        /* \"#utility.yul\":2273:2287   */\n      add\n        /* \"#utility.yul\":2258:2287   */\n      swap1\n      pop\n        /* \"#utility.yul\":2134:2293   */\n      swap3\n      swap2\n      pop\n      pop\n      jump\t// out\n        /* \"#utility.yul\":2299:2438   */\n    tag_257:\n        /* \"#utility.yul\":2388:2394   */\n      dup3\n        /* \"#utility.yul\":2383:2386   */\n      dup2\n        /* \"#utility.yul\":2378:2381   */\n      dup4\n        /* \"#utility.yul\":2372:2395   */\n      mcopy\n        /* \"#utility.yul\":2429:2430   */\n      0x00\n        /* \"#utility.yul\":2420:2426   */\n      dup4\n        /* \"#utility.yul\":2415:2418   */\n      dup4\n        /* \"#utility.yul\":2411:2427   */\n      add\n        /* \"#utility.yul\":2404:2431   */\n      mstore\n        /* \"#utility.yul\":2299:2438   */\n      pop\n      pop\n      pop\n      jump\t// out\n        /* \"#utility.yul\":2444:2546   */\n    tag_258:\n        /* \"#utility.yul\":2485:2491   */\n      0x00\n        /* \"#utility.yul\":2536:2538   */\n      0x1f\n        /* \"#utility.yul\":2532:2539   */\n      not\n        /* \"#utility.yul\":2527:2529   */\n      0x1f\n        /* \"#utility.yul\":2520:2525   */\n      dup4\n        /* \"#utility.yul\":2516:2530   */\n      add\n        /* \"#utility.yul\":2512:2540   */\n      and\n        /* \"#utility.yul\":2502:2540   */\n      swap1\n      pop\n        /* \"#utility.yul\":2444:2546   */\n      swap2\n      swap1\n      pop\n      jump\t// out\n        /* \"#utility.yul\":2552:2909   */\n    tag_259:\n        /* \"#utility.yul\":2630:2633   */\n      0x00\n        /* \"#utility.yul\":2658:2697   */\n      tag_340\n        /* \"#utility.yul\":2691:2696   */\n      dup3\n        /* \"#utility.yul\":2658:2697   */\n      tag_255\n      jump\t// in\n    tag_340:\n        /* \"#utility.yul\":2713:2774   */\n      tag_341\n        /* \"#utility.yul\":2767:2773   */\n      dup2\n        /* \"#utility.yul\":2762:2765   */\n      dup6\n        /* \"#utility.yul\":2713:2774   */\n      tag_256\n      jump\t// in\n    tag_341:\n        /* \"#utility.yul\":2706:2774   */\n      swap4\n      pop\n        /* \"#utility.yul\":2783:2848   */\n      tag_342\n        /* \"#utility.yul\":2841:2847   */\n      dup2\n        /* \"#utility.yul\":2836:2839   */\n      dup6\n        /* \"#utility.yul\":2829:2833   */\n      0x20\n        /* \"#utility.yul\":2822:2827   */\n      dup7\n        /* \"#utility.yul\":2818:2834   */\n      add\n        /* \"#utility.yul\":2783:2848   */\n      tag_257\n      jump\t// in\n    tag_342:\n        /* \"#utility.yul\":2873:2902   */\n      tag_343\n        /* \"#utility.yul\":2895:2901   */\n      dup2\n        /* \"#utility.yul\":2873:2902   */\n      tag_258\n      jump\t// in\n    tag_343:\n        /* \"#utility.yul\":2868:2871   */\n      dup5\n        /* \"#utility.yul\":2864:2903   */\n      add\n        /* \"#utility.yul\":2857:2903   */\n      swap2\n      pop\n        /* \"#utility.yul\":2634:2909   */\n      pop\n        /* \"#utility.yul\":2552:2909   */\n      swap3\n      swap2\n      pop\n      pop\n      jump\t// out\n        /* \"#utility.yul\":2915:3023   */\n    tag_260:\n        /* \"#utility.yul\":2992:3016   */\n      tag_345\n        /* \"#utility.yul\":3010:3015   */\n      dup2\n        /* \"#utility.yul\":2992:3016   */\n      tag_251\n      jump\t// in\n    tag_345:\n        /* \"#utility.yul\":2987:2990   */\n      dup3\n        /* \"#utility.yul\":2980:3017   */\n      mstore\n        /* \"#utility.yul\":2915:3023   */\n      pop\n      pop\n      jump\t// out\n        /* \"#utility.yul\":3085:3703   */\n    tag_261:\n        /* \"#utility.yul\":3204:3207   */\n      0x00\n        /* \"#utility.yul\":3240:3244   */\n      0x40\n        /* \"#utility.yul\":3235:3238   */\n      dup4\n        /* \"#utility.yul\":3231:3245   */\n      add\n        /* \"#utility.yul\":3334:3338   */\n      0x00\n        /* \"#utility.yul\":3327:3332   */\n      dup4\n        /* \"#utility.yul\":3323:3339   */\n      add\n        /* \"#utility.yul\":3317:3340   */\n      mload\n        /* \"#utility.yul\":3387:3390   */\n      dup5\n        /* \"#utility.yul\":3381:3385   */\n      dup3\n        /* \"#utility.yul\":3377:3391   */\n      sub\n        /* \"#utility.yul\":3370:3374   */\n      0x00\n        /* \"#utility.yul\":3365:3368   */\n      dup7\n        /* \"#utility.yul\":3361:3375   */\n      add\n        /* \"#utility.yul\":3354:3392   */\n      mstore\n        /* \"#utility.yul\":3413:3486   */\n      tag_347\n        /* \"#utility.yul\":3481:3485   */\n      dup3\n        /* \"#utility.yul\":3467:3479   */\n      dup3\n        /* \"#utility.yul\":3413:3486   */\n      tag_259\n      jump\t// in\n    tag_347:\n        /* \"#utility.yul\":3405:3486   */\n      swap2\n      pop\n        /* \"#utility.yul\":3255:3497   */\n      pop\n        /* \"#utility.yul\":3584:3588   */\n      0x20\n        /* \"#utility.yul\":3577:3582   */\n      dup4\n        /* \"#utility.yul\":3573:3589   */\n      add\n        /* \"#utility.yul\":3567:3590   */\n      mload\n        /* \"#utility.yul\":3603:3666   */\n      tag_348\n        /* \"#utility.yul\":3660:3664   */\n      0x20\n        /* \"#utility.yul\":3655:3658   */\n      dup7\n        /* \"#utility.yul\":3651:3665   */\n      add\n        /* \"#utility.yul\":3637:3649   */\n      dup3\n        /* \"#utility.yul\":3603:3666   */\n      tag_260\n      jump\t// in\n    tag_348:\n        /* \"#utility.yul\":3507:3676   */\n      pop\n        /* \"#utility.yul\":3693:3697   */\n      dup1\n        /* \"#utility.yul\":3686:3697   */\n      swap2\n      pop\n        /* \"#utility.yul\":3209:3703   */\n      pop\n        /* \"#utility.yul\":3085:3703   */\n      swap3\n      swap2\n      pop\n      pop\n      jump\t// out\n        /* \"#utility.yul\":3709:4082   */\n    tag_31:\n        /* \"#utility.yul\":3852:3856   */\n      0x00\n        /* \"#utility.yul\":3890:3892   */\n      0x20\n        /* \"#utility.yul\":3879:3888   */\n      dup3\n        /* \"#utility.yul\":3875:3893   */\n      add\n        /* \"#utility.yul\":3867:3893   */\n      swap1\n      pop\n        /* \"#utility.yul\":3939:3948   */\n      dup2\n        /* \"#utility.yul\":3933:3937   */\n      dup2\n        /* \"#utility.yul\":3929:3949   */\n      sub\n        /* \"#utility.yul\":3925:3926   */\n      0x00\n        /* \"#utility.yul\":3914:3923   */\n      dup4\n        /* \"#utility.yul\":3910:3927   */\n      add\n        /* \"#utility.yul\":3903:3950   */\n      mstore\n        /* \"#utility.yul\":3967:4075   */\n      tag_350\n        /* \"#utility.yul\":4070:4074   */\n      dup2\n        /* \"#utility.yul\":4061:4067   */\n      dup5\n        /* \"#utility.yul\":3967:4075   */\n      tag_261\n      jump\t// in\n    tag_350:\n        /* \"#utility.yul\":3959:4075   */\n      swap1\n      pop\n        /* \"#utility.yul\":3709:4082   */\n      swap3\n      swap2\n      pop\n      pop\n      jump\t// out\n        /* \"#utility.yul\":4088:4417   */\n    tag_38:\n        /* \"#utility.yul\":4147:4153   */\n      0x00\n        /* \"#utility.yul\":4196:4198   */\n      0x20\n        /* \"#utility.yul\":4184:4193   */\n      dup3\n        /* \"#utility.yul\":4175:4182   */\n      dup5\n        /* \"#utility.yul\":4171:4194   */\n      sub\n        /* \"#utility.yul\":4167:4199   */\n      slt\n        /* \"#utility.yul\":4164:4283   */\n      iszero\n      tag_352\n      jumpi\n        /* \"#utility.yul\":4202:4281   */\n      tag_353\n      tag_245\n      jump\t// in\n    tag_353:\n        /* \"#utility.yul\":4164:4283   */\n    tag_352:\n        /* \"#utility.yul\":4322:4323   */\n      0x00\n        /* \"#utility.yul\":4347:4400   */\n      tag_354\n        /* \"#utility.yul\":4392:4399   */\n      dup5\n        /* \"#utility.yul\":4383:4389   */\n      dup3\n        /* \"#utility.yul\":4372:4381   */\n      dup6\n        /* \"#utility.yul\":4368:4390   */\n      add\n        /* \"#utility.yul\":4347:4400   */\n      tag_250\n      jump\t// in\n    tag_354:\n        /* \"#utility.yul\":4337:4400   */\n      swap2\n      pop\n        /* \"#utility.yul\":4293:4410   */\n      pop\n        /* \"#utility.yul\":4088:4417   */\n      swap3\n      swap2\n      pop\n      pop\n      jump\t// out\n        /* \"#utility.yul\":4423:4540   */\n    tag_262:\n        /* \"#utility.yul\":4532:4533   */\n      0x00\n        /* \"#utility.yul\":4529:4530   */\n      0x00\n        /* \"#utility.yul\":4522:4534   */\n      revert\n        /* \"#utility.yul\":4546:4663   */\n    tag_263:\n        /* \"#utility.yul\":4655:4656   */\n      0x00\n        /* \"#utility.yul\":4652:4653   */\n      0x00\n        /* \"#utility.yul\":4645:4657   */\n      revert\n        /* \"#utility.yul\":4669:4849   */\n    tag_264:\n        /* \"#utility.yul\":4717:4794   */\n      0x4e487b7100000000000000000000000000000000000000000000000000000000\n        /* \"#utility.yul\":4714:4715   */\n      0x00\n        /* \"#utility.yul\":4707:4795   */\n      mstore\n        /* \"#utility.yul\":4814:4818   */\n      0x41\n        /* \"#utility.yul\":4811:4812   */\n      0x04\n        /* \"#utility.yul\":4804:4819   */\n      mstore\n        /* \"#utility.yul\":4838:4842   */\n      0x24\n        /* \"#utility.yul\":4835:4836   */\n      0x00\n        /* \"#utility.yul\":4828:4843   */\n      revert\n        /* \"#utility.yul\":4855:5136   */\n    tag_265:\n        /* \"#utility.yul\":4938:4965   */\n      tag_359\n        /* \"#utility.yul\":4960:4964   */\n      dup3\n        /* \"#utility.yul\":4938:4965   */\n      tag_258\n      jump\t// in\n    tag_359:\n        /* \"#utility.yul\":4930:4936   */\n      dup2\n        /* \"#utility.yul\":4926:4966   */\n      add\n        /* \"#utility.yul\":5068:5074   */\n      dup2\n        /* \"#utility.yul\":5056:5066   */\n      dup2\n        /* \"#utility.yul\":5053:5075   */\n      lt\n        /* \"#utility.yul\":5032:5050   */\n      0xffffffffffffffff\n        /* \"#utility.yul\":5020:5030   */\n      dup3\n        /* \"#utility.yul\":5017:5051   */\n      gt\n        /* \"#utility.yul\":5014:5076   */\n      or\n        /* \"#utility.yul\":5011:5099   */\n      iszero\n      tag_360\n      jumpi\n        /* \"#utility.yul\":5079:5097   */\n      tag_361\n      tag_264\n      jump\t// in\n    tag_361:\n        /* \"#utility.yul\":5011:5099   */\n    tag_360:\n        /* \"#utility.yul\":5119:5129   */\n      dup1\n        /* \"#utility.yul\":5115:5117   */\n      0x40\n        /* \"#utility.yul\":5108:5130   */\n      mstore\n        /* \"#utility.yul\":4898:5136   */\n      pop\n        /* \"#utility.yul\":4855:5136   */\n      pop\n      pop\n      jump\t// out\n        /* \"#utility.yul\":5142:5271   */\n    tag_266:\n        /* \"#utility.yul\":5176:5182   */\n      0x00\n        /* \"#utility.yul\":5203:5223   */\n      tag_363\n      tag_244\n      jump\t// in\n    tag_363:\n        /* \"#utility.yul\":5193:5223   */\n      swap1\n      pop\n        /* \"#utility.yul\":5232:5265   */\n      tag_364\n        /* \"#utility.yul\":5260:5264   */\n      dup3\n        /* \"#utility.yul\":5252:5258   */\n      dup3\n        /* \"#utility.yul\":5232:5265   */\n      tag_265\n      jump\t// in\n    tag_364:\n        /* \"#utility.yul\":5142:5271   */\n      swap2\n      swap1\n      pop\n      jump\t// out\n        /* \"#utility.yul\":5277:5585   */\n    tag_267:\n        /* \"#utility.yul\":5339:5343   */\n      0x00\n        /* \"#utility.yul\":5429:5447   */\n      0xffffffffffffffff\n        /* \"#utility.yul\":5421:5427   */\n      dup3\n        /* \"#utility.yul\":5418:5448   */\n      gt\n        /* \"#utility.yul\":5415:5471   */\n      iszero\n      tag_366\n      jumpi\n        /* \"#utility.yul\":5451:5469   */\n      tag_367\n      tag_264\n      jump\t// in\n    tag_367:\n        /* \"#utility.yul\":5415:5471   */\n    tag_366:\n        /* \"#utility.yul\":5489:5518   */\n      tag_368\n        /* \"#utility.yul\":5511:5517   */\n      dup3\n        /* \"#utility.yul\":5489:5518   */\n      tag_258\n      jump\t// in\n    tag_368:\n        /* \"#utility.yul\":5481:5518   */\n      swap1\n      pop\n        /* \"#utility.yul\":5573:5577   */\n      0x20\n        /* \"#utility.yul\":5567:5571   */\n      dup2\n        /* \"#utility.yul\":5563:5578   */\n      add\n        /* \"#utility.yul\":5555:5578   */\n      swap1\n      pop\n        /* \"#utility.yul\":5277:5585   */\n      swap2\n      swap1\n      pop\n      jump\t// out\n        /* \"#utility.yul\":5591:5739   */\n    tag_268:\n        /* \"#utility.yul\":5689:5695   */\n      dup3\n        /* \"#utility.yul\":5684:5687   */\n      dup2\n        /* \"#utility.yul\":5679:5682   */\n      dup4\n        /* \"#utility.yul\":5666:5696   */\n      calldatacopy\n        /* \"#utility.yul\":5730:5731   */\n      0x00\n        /* \"#utility.yul\":5721:5727   */\n      dup4\n        /* \"#utility.yul\":5716:5719   */\n      dup4\n        /* \"#utility.yul\":5712:5728   */\n      add\n        /* \"#utility.yul\":5705:5732   */\n      mstore\n        /* \"#utility.yul\":5591:5739   */\n      pop\n      pop\n      pop\n      jump\t// out\n        /* \"#utility.yul\":5745:6170   */\n    tag_269:\n        /* \"#utility.yul\":5823:5828   */\n      0x00\n        /* \"#utility.yul\":5848:5914   */\n      tag_371\n        /* \"#utility.yul\":5864:5913   */\n      tag_372\n        /* \"#utility.yul\":5906:5912   */\n      dup5\n        /* \"#utility.yul\":5864:5913   */\n      tag_267\n      jump\t// in\n    tag_372:\n        /* \"#utility.yul\":5848:5914   */\n      tag_266\n      jump\t// in\n    tag_371:\n        /* \"#utility.yul\":5839:5914   */\n      swap1\n      pop\n        /* \"#utility.yul\":5937:5943   */\n      dup3\n        /* \"#utility.yul\":5930:5935   */\n      dup2\n        /* \"#utility.yul\":5923:5944   */\n      mstore\n        /* \"#utility.yul\":5975:5979   */\n      0x20\n        /* \"#utility.yul\":5968:5973   */\n      dup2\n        /* \"#utility.yul\":5964:5980   */\n      add\n        /* \"#utility.yul\":6013:6016   */\n      dup5\n        /* \"#utility.yul\":6004:6010   */\n      dup5\n        /* \"#utility.yul\":5999:6002   */\n      dup5\n        /* \"#utility.yul\":5995:6011   */\n      add\n        /* \"#utility.yul\":5992:6017   */\n      gt\n        /* \"#utility.yul\":5989:6101   */\n      iszero\n      tag_373\n      jumpi\n        /* \"#utility.yul\":6020:6099   */\n      tag_374\n      tag_263\n      jump\t// in\n    tag_374:\n        /* \"#utility.yul\":5989:6101   */\n    tag_373:\n        /* \"#utility.yul\":6110:6164   */\n      tag_375\n        /* \"#utility.yul\":6157:6163   */\n      dup5\n        /* \"#utility.yul\":6152:6155   */\n      dup3\n        /* \"#utility.yul\":6147:6150   */\n      dup6\n        /* \"#utility.yul\":6110:6164   */\n      tag_268\n      jump\t// in\n    tag_375:\n        /* \"#utility.yul\":5829:6170   */\n      pop\n        /* \"#utility.yul\":5745:6170   */\n      swap4\n      swap3\n      pop\n      pop\n      pop\n      jump\t// out\n        /* \"#utility.yul\":6190:6530   */\n    tag_270:\n        /* \"#utility.yul\":6246:6251   */\n      0x00\n        /* \"#utility.yul\":6295:6298   */\n      dup3\n        /* \"#utility.yul\":6288:6292   */\n      0x1f\n        /* \"#utility.yul\":6280:6286   */\n      dup4\n        /* \"#utility.yul\":6276:6293   */\n      add\n        /* \"#utility.yul\":6272:6299   */\n      slt\n        /* \"#utility.yul\":6262:6384   */\n      tag_377\n      jumpi\n        /* \"#utility.yul\":6303:6382   */\n      tag_378\n      tag_262\n      jump\t// in\n    tag_378:\n        /* \"#utility.yul\":6262:6384   */\n    tag_377:\n        /* \"#utility.yul\":6420:6426   */\n      dup2\n        /* \"#utility.yul\":6407:6427   */\n      calldataload\n        /* \"#utility.yul\":6445:6524   */\n      tag_379\n        /* \"#utility.yul\":6520:6523   */\n      dup5\n        /* \"#utility.yul\":6512:6518   */\n      dup3\n        /* \"#utility.yul\":6505:6509   */\n      0x20\n        /* \"#utility.yul\":6497:6503   */\n      dup7\n        /* \"#utility.yul\":6493:6510   */\n      add\n        /* \"#utility.yul\":6445:6524   */\n      tag_269\n      jump\t// in\n    tag_379:\n        /* \"#utility.yul\":6436:6524   */\n      swap2\n      pop\n        /* \"#utility.yul\":6252:6530   */\n      pop\n        /* \"#utility.yul\":6190:6530   */\n      swap3\n      swap2\n      pop\n      pop\n      jump\t// out\n        /* \"#utility.yul\":6536:7190   */\n    tag_44:\n        /* \"#utility.yul\":6614:6620   */\n      0x00\n        /* \"#utility.yul\":6622:6628   */\n      0x00\n        /* \"#utility.yul\":6671:6673   */\n      0x40\n        /* \"#utility.yul\":6659:6668   */\n      dup4\n        /* \"#utility.yul\":6650:6657   */\n      dup6\n        /* \"#utility.yul\":6646:6669   */\n      sub\n        /* \"#utility.yul\":6642:6674   */\n      slt\n        /* \"#utility.yul\":6639:6758   */\n      iszero\n      tag_381\n      jumpi\n        /* \"#utility.yul\":6677:6756   */\n      tag_382\n      tag_245\n      jump\t// in\n    tag_382:\n        /* \"#utility.yul\":6639:6758   */\n    tag_381:\n        /* \"#utility.yul\":6797:6798   */\n      0x00\n        /* \"#utility.yul\":6822:6875   */\n      tag_383\n        /* \"#utility.yul\":6867:6874   */\n      dup6\n        /* \"#utility.yul\":6858:6864   */\n      dup3\n        /* \"#utility.yul\":6847:6856   */\n      dup7\n        /* \"#utility.yul\":6843:6865   */\n      add\n        /* \"#utility.yul\":6822:6875   */\n      tag_250\n      jump\t// in\n    tag_383:\n        /* \"#utility.yul\":6812:6875   */\n      swap3\n      pop\n        /* \"#utility.yul\":6768:6885   */\n      pop\n        /* \"#utility.yul\":6952:6954   */\n      0x20\n        /* \"#utility.yul\":6941:6950   */\n      dup4\n        /* \"#utility.yul\":6937:6955   */\n      add\n        /* \"#utility.yul\":6924:6956   */\n      calldataload\n        /* \"#utility.yul\":6983:7001   */\n      0xffffffffffffffff\n        /* \"#utility.yul\":6975:6981   */\n      dup2\n        /* \"#utility.yul\":6972:7002   */\n      gt\n        /* \"#utility.yul\":6969:7086   */\n      iszero\n      tag_384\n      jumpi\n        /* \"#utility.yul\":7005:7084   */\n      tag_385\n      tag_246\n      jump\t// in\n    tag_385:\n        /* \"#utility.yul\":6969:7086   */\n    tag_384:\n        /* \"#utility.yul\":7110:7173   */\n      tag_386\n        /* \"#utility.yul\":7165:7172   */\n      dup6\n        /* \"#utility.yul\":7156:7162   */\n      dup3\n        /* \"#utility.yul\":7145:7154   */\n      dup7\n        /* \"#utility.yul\":7141:7163   */\n      add\n        /* \"#utility.yul\":7110:7173   */\n      tag_270\n      jump\t// in\n    tag_386:\n        /* \"#utility.yul\":7100:7173   */\n      swap2\n      pop\n        /* \"#utility.yul\":6895:7183   */\n      pop\n        /* \"#utility.yul\":6536:7190   */\n      swap3\n      pop\n      swap3\n      swap1\n      pop\n      jump\t// out\n        /* \"#utility.yul\":7196:7365   */\n    tag_271:\n        /* \"#utility.yul\":7280:7291   */\n      0x00\n        /* \"#utility.yul\":7314:7320   */\n      dup3\n        /* \"#utility.yul\":7309:7312   */\n      dup3\n        /* \"#utility.yul\":7302:7321   */\n      mstore\n        /* \"#utility.yul\":7354:7358   */\n      0x20\n        /* \"#utility.yul\":7349:7352   */\n      dup3\n        /* \"#utility.yul\":7345:7359   */\n      add\n        /* \"#utility.yul\":7330:7359   */\n      swap1\n      pop\n        /* \"#utility.yul\":7196:7365   */\n      swap3\n      swap2\n      pop\n      pop\n      jump\t// out\n        /* \"#utility.yul\":7371:7592   */\n    tag_272:\n        /* \"#utility.yul\":7511:7545   */\n      0x416464726573732063616e6e6f7420626520746865207a65726f206164647265\n        /* \"#utility.yul\":7507:7508   */\n      0x00\n        /* \"#utility.yul\":7499:7505   */\n      dup3\n        /* \"#utility.yul\":7495:7509   */\n      add\n        /* \"#utility.yul\":7488:7546   */\n      mstore\n        /* \"#utility.yul\":7580:7584   */\n      0x7373000000000000000000000000000000000000000000000000000000000000\n        /* \"#utility.yul\":7575:7577   */\n      0x20\n        /* \"#utility.yul\":7567:7573   */\n      dup3\n        /* \"#utility.yul\":7563:7578   */\n      add\n        /* \"#utility.yul\":7556:7585   */\n      mstore\n        /* \"#utility.yul\":7371:7592   */\n      pop\n      jump\t// out\n        /* \"#utility.yul\":7598:7964   */\n    tag_273:\n        /* \"#utility.yul\":7740:7743   */\n      0x00\n        /* \"#utility.yul\":7761:7828   */\n      tag_390\n        /* \"#utility.yul\":7825:7827   */\n      0x22\n        /* \"#utility.yul\":7820:7823   */\n      dup4\n        /* \"#utility.yul\":7761:7828   */\n      tag_271\n      jump\t// in\n    tag_390:\n        /* \"#utility.yul\":7754:7828   */\n      swap2\n      pop\n        /* \"#utility.yul\":7837:7930   */\n      tag_391\n        /* \"#utility.yul\":7926:7929   */\n      dup3\n        /* \"#utility.yul\":7837:7930   */\n      tag_272\n      jump\t// in\n    tag_391:\n        /* \"#utility.yul\":7955:7957   */\n      0x40\n        /* \"#utility.yul\":7950:7953   */\n      dup3\n        /* \"#utility.yul\":7946:7958   */\n      add\n        /* \"#utility.yul\":7939:7958   */\n      swap1\n      pop\n        /* \"#utility.yul\":7598:7964   */\n      swap2\n      swap1\n      pop\n      jump\t// out\n        /* \"#utility.yul\":7970:8389   */\n    tag_54:\n        /* \"#utility.yul\":8136:8140   */\n      0x00\n        /* \"#utility.yul\":8174:8176   */\n      0x20\n        /* \"#utility.yul\":8163:8172   */\n      dup3\n        /* \"#utility.yul\":8159:8177   */\n      add\n        /* \"#utility.yul\":8151:8177   */\n      swap1\n      pop\n        /* \"#utility.yul\":8223:8232   */\n      dup2\n        /* \"#utility.yul\":8217:8221   */\n      dup2\n        /* \"#utility.yul\":8213:8233   */\n      sub\n        /* \"#utility.yul\":8209:8210   */\n      0x00\n        /* \"#utility.yul\":8198:8207   */\n      dup4\n        /* \"#utility.yul\":8194:8211   */\n      add\n        /* \"#utility.yul\":8187:8234   */\n      mstore\n        /* \"#utility.yul\":8251:8382   */\n      tag_393\n        /* \"#utility.yul\":8377:8381   */\n      dup2\n        /* \"#utility.yul\":8251:8382   */\n      tag_273\n      jump\t// in\n    tag_393:\n        /* \"#utility.yul\":8243:8382   */\n      swap1\n      pop\n        /* \"#utility.yul\":7970:8389   */\n      swap2\n      swap1\n      pop\n      jump\t// out\n        /* \"#utility.yul\":8395:8568   */\n    tag_274:\n        /* \"#utility.yul\":8535:8560   */\n      0x566f746572206973206e6f742072656769737465726564000000000000000000\n        /* \"#utility.yul\":8531:8532   */\n      0x00\n        /* \"#utility.yul\":8523:8529   */\n      dup3\n        /* \"#utility.yul\":8519:8533   */\n      add\n        /* \"#utility.yul\":8512:8561   */\n      mstore\n        /* \"#utility.yul\":8395:8568   */\n      pop\n      jump\t// out\n        /* \"#utility.yul\":8574:8940   */\n    tag_275:\n        /* \"#utility.yul\":8716:8719   */\n      0x00\n        /* \"#utility.yul\":8737:8804   */\n      tag_396\n        /* \"#utility.yul\":8801:8803   */\n      0x17\n        /* \"#utility.yul\":8796:8799   */\n      dup4\n        /* \"#utility.yul\":8737:8804   */\n      tag_271\n      jump\t// in\n    tag_396:\n        /* \"#utility.yul\":8730:8804   */\n      swap2\n      pop\n        /* \"#utility.yul\":8813:8906   */\n      tag_397\n        /* \"#utility.yul\":8902:8905   */\n      dup3\n        /* \"#utility.yul\":8813:8906   */\n      tag_274\n      jump\t// in\n    tag_397:\n        /* \"#utility.yul\":8931:8933   */\n      0x20\n        /* \"#utility.yul\":8926:8929   */\n      dup3\n        /* \"#utility.yul\":8922:8934   */\n      add\n        /* \"#utility.yul\":8915:8934   */\n      swap1\n      pop\n        /* \"#utility.yul\":8574:8940   */\n      swap2\n      swap1\n      pop\n      jump\t// out\n        /* \"#utility.yul\":8946:9365   */\n    tag_58:\n        /* \"#utility.yul\":9112:9116   */\n      0x00\n        /* \"#utility.yul\":9150:9152   */\n      0x20\n        /* \"#utility.yul\":9139:9148   */\n      dup3\n        /* \"#utility.yul\":9135:9153   */\n      add\n        /* \"#utility.yul\":9127:9153   */\n      swap1\n      pop\n        /* \"#utility.yul\":9199:9208   */\n      dup2\n        /* \"#utility.yul\":9193:9197   */\n      dup2\n        /* \"#utility.yul\":9189:9209   */\n      sub\n        /* \"#utility.yul\":9185:9186   */\n      0x00\n        /* \"#utility.yul\":9174:9183   */\n      dup4\n        /* \"#utility.yul\":9170:9187   */\n      add\n        /* \"#utility.yul\":9163:9210   */\n      mstore\n        /* \"#utility.yul\":9227:9358   */\n      tag_399\n        /* \"#utility.yul\":9353:9357   */\n      dup2\n        /* \"#utility.yul\":9227:9358   */\n      tag_275\n      jump\t// in\n    tag_399:\n        /* \"#utility.yul\":9219:9358   */\n      swap1\n      pop\n        /* \"#utility.yul\":8946:9365   */\n      swap2\n      swap1\n      pop\n      jump\t// out\n        /* \"#utility.yul\":9371:9551   */\n    tag_62:\n        /* \"#utility.yul\":9419:9496   */\n      0x4e487b7100000000000000000000000000000000000000000000000000000000\n        /* \"#utility.yul\":9416:9417   */\n      0x00\n        /* \"#utility.yul\":9409:9497   */\n      mstore\n        /* \"#utility.yul\":9516:9520   */\n      0x21\n        /* \"#utility.yul\":9513:9514   */\n      0x04\n        /* \"#utility.yul\":9506:9521   */\n      mstore\n        /* \"#utility.yul\":9540:9544   */\n      0x24\n        /* \"#utility.yul\":9537:9538   */\n      0x00\n        /* \"#utility.yul\":9530:9545   */\n      revert\n        /* \"#utility.yul\":9557:9730   */\n    tag_276:\n        /* \"#utility.yul\":9697:9722   */\n      0x496e76616c696420776f726b666c6f7720737461747573000000000000000000\n        /* \"#utility.yul\":9693:9694   */\n      0x00\n        /* \"#utility.yul\":9685:9691   */\n      dup3\n        /* \"#utility.yul\":9681:9695   */\n      add\n        /* \"#utility.yul\":9674:9723   */\n      mstore\n        /* \"#utility.yul\":9557:9730   */\n      pop\n      jump\t// out\n        /* \"#utility.yul\":9736:10102   */\n    tag_277:\n        /* \"#utility.yul\":9878:9881   */\n      0x00\n        /* \"#utility.yul\":9899:9966   */\n      tag_403\n        /* \"#utility.yul\":9963:9965   */\n      0x17\n        /* \"#utility.yul\":9958:9961   */\n      dup4\n        /* \"#utility.yul\":9899:9966   */\n      tag_271\n      jump\t// in\n    tag_403:\n        /* \"#utility.yul\":9892:9966   */\n      swap2\n      pop\n        /* \"#utility.yul\":9975:10068   */\n      tag_404\n        /* \"#utility.yul\":10064:10067   */\n      dup3\n        /* \"#utility.yul\":9975:10068   */\n      tag_276\n      jump\t// in\n    tag_404:\n        /* \"#utility.yul\":10093:10095   */\n      0x20\n        /* \"#utility.yul\":10088:10091   */\n      dup3\n        /* \"#utility.yul\":10084:10096   */\n      add\n        /* \"#utility.yul\":10077:10096   */\n      swap1\n      pop\n        /* \"#utility.yul\":9736:10102   */\n      swap2\n      swap1\n      pop\n      jump\t// out\n        /* \"#utility.yul\":10108:10527   */\n    tag_67:\n        /* \"#utility.yul\":10274:10278   */\n      0x00\n        /* \"#utility.yul\":10312:10314   */\n      0x20\n        /* \"#utility.yul\":10301:10310   */\n      dup3\n        /* \"#utility.yul\":10297:10315   */\n      add\n        /* \"#utility.yul\":10289:10315   */\n      swap1\n      pop\n        /* \"#utility.yul\":10361:10370   */\n      dup2\n        /* \"#utility.yul\":10355:10359   */\n      dup2\n        /* \"#utility.yul\":10351:10371   */\n      sub\n        /* \"#utility.yul\":10347:10348   */\n      0x00\n        /* \"#utility.yul\":10336:10345   */\n      dup4\n        /* \"#utility.yul\":10332:10349   */\n      add\n        /* \"#utility.yul\":10325:10372   */\n      mstore\n        /* \"#utility.yul\":10389:10520   */\n      tag_406\n        /* \"#utility.yul\":10515:10519   */\n      dup2\n        /* \"#utility.yul\":10389:10520   */\n      tag_277\n      jump\t// in\n    tag_406:\n        /* \"#utility.yul\":10381:10520   */\n      swap1\n      pop\n        /* \"#utility.yul\":10108:10527   */\n      swap2\n      swap1\n      pop\n      jump\t// out\n        /* \"#utility.yul\":10533:10706   */\n    tag_278:\n        /* \"#utility.yul\":10673:10698   */\n      0x566f7465722068617320616c726561647920766f746564000000000000000000\n        /* \"#utility.yul\":10669:10670   */\n      0x00\n        /* \"#utility.yul\":10661:10667   */\n      dup3\n        /* \"#utility.yul\":10657:10671   */\n      add\n        /* \"#utility.yul\":10650:10699   */\n      mstore\n        /* \"#utility.yul\":10533:10706   */\n      pop\n      jump\t// out\n        /* \"#utility.yul\":10712:11078   */\n    tag_279:\n        /* \"#utility.yul\":10854:10857   */\n      0x00\n        /* \"#utility.yul\":10875:10942   */\n      tag_409\n        /* \"#utility.yul\":10939:10941   */\n      0x17\n        /* \"#utility.yul\":10934:10937   */\n      dup4\n        /* \"#utility.yul\":10875:10942   */\n      tag_271\n      jump\t// in\n    tag_409:\n        /* \"#utility.yul\":10868:10942   */\n      swap2\n      pop\n        /* \"#utility.yul\":10951:11044   */\n      tag_410\n        /* \"#utility.yul\":11040:11043   */\n      dup3\n        /* \"#utility.yul\":10951:11044   */\n      tag_278\n      jump\t// in\n    tag_410:\n        /* \"#utility.yul\":11069:11071   */\n      0x20\n        /* \"#utility.yul\":11064:11067   */\n      dup3\n        /* \"#utility.yul\":11060:11072   */\n      add\n        /* \"#utility.yul\":11053:11072   */\n      swap1\n      pop\n        /* \"#utility.yul\":10712:11078   */\n      swap2\n      swap1\n      pop\n      jump\t// out\n        /* \"#utility.yul\":11084:11503   */\n    tag_71:\n        /* \"#utility.yul\":11250:11254   */\n      0x00\n        /* \"#utility.yul\":11288:11290   */\n      0x20\n        /* \"#utility.yul\":11277:11286   */\n      dup3\n        /* \"#utility.yul\":11273:11291   */\n      add\n        /* \"#utility.yul\":11265:11291   */\n      swap1\n      pop\n        /* \"#utility.yul\":11337:11346   */\n      dup2\n        /* \"#utility.yul\":11331:11335   */\n      dup2\n        /* \"#utility.yul\":11327:11347   */\n      sub\n        /* \"#utility.yul\":11323:11324   */\n      0x00\n        /* \"#utility.yul\":11312:11321   */\n      dup4\n        /* \"#utility.yul\":11308:11325   */\n      add\n        /* \"#utility.yul\":11301:11348   */\n      mstore\n        /* \"#utility.yul\":11365:11496   */\n      tag_412\n        /* \"#utility.yul\":11491:11495   */\n      dup2\n        /* \"#utility.yul\":11365:11496   */\n      tag_279\n      jump\t// in\n    tag_412:\n        /* \"#utility.yul\":11357:11496   */\n      swap1\n      pop\n        /* \"#utility.yul\":11084:11503   */\n      swap2\n      swap1\n      pop\n      jump\t// out\n        /* \"#utility.yul\":11509:11678   */\n    tag_280:\n        /* \"#utility.yul\":11649:11670   */\n      0x496e76616c69642070726f706f73616c20696400000000000000000000000000\n        /* \"#utility.yul\":11645:11646   */\n      0x00\n        /* \"#utility.yul\":11637:11643   */\n      dup3\n        /* \"#utility.yul\":11633:11647   */\n      add\n        /* \"#utility.yul\":11626:11671   */\n      mstore\n        /* \"#utility.yul\":11509:11678   */\n      pop\n      jump\t// out\n        /* \"#utility.yul\":11684:12050   */\n    tag_281:\n        /* \"#utility.yul\":11826:11829   */\n      0x00\n        /* \"#utility.yul\":11847:11914   */\n      tag_415\n        /* \"#utility.yul\":11911:11913   */\n      0x13\n        /* \"#utility.yul\":11906:11909   */\n      dup4\n        /* \"#utility.yul\":11847:11914   */\n      tag_271\n      jump\t// in\n    tag_415:\n        /* \"#utility.yul\":11840:11914   */\n      swap2\n      pop\n        /* \"#utility.yul\":11923:12016   */\n      tag_416\n        /* \"#utility.yul\":12012:12015   */\n      dup3\n        /* \"#utility.yul\":11923:12016   */\n      tag_280\n      jump\t// in\n    tag_416:\n        /* \"#utility.yul\":12041:12043   */\n      0x20\n        /* \"#utility.yul\":12036:12039   */\n      dup3\n        /* \"#utility.yul\":12032:12044   */\n      add\n        /* \"#utility.yul\":12025:12044   */\n      swap1\n      pop\n        /* \"#utility.yul\":11684:12050   */\n      swap2\n      swap1\n      pop\n      jump\t// out\n        /* \"#utility.yul\":12056:12475   */\n    tag_74:\n        /* \"#utility.yul\":12222:12226   */\n      0x00\n        /* \"#utility.yul\":12260:12262   */\n      0x20\n        /* \"#utility.yul\":12249:12258   */\n      dup3\n        /* \"#utility.yul\":12245:12263   */\n      add\n        /* \"#utility.yul\":12237:12263   */\n      swap1\n      pop\n        /* \"#utility.yul\":12309:12318   */\n      dup2\n        /* \"#utility.yul\":12303:12307   */\n      dup2\n        /* \"#utility.yul\":12299:12319   */\n      sub\n        /* \"#utility.yul\":12295:12296   */\n      0x00\n        /* \"#utility.yul\":12284:12293   */\n      dup4\n        /* \"#utility.yul\":12280:12297   */\n      add\n        /* \"#utility.yul\":12273:12320   */\n      mstore\n        /* \"#utility.yul\":12337:12468   */\n      tag_418\n        /* \"#utility.yul\":12463:12467   */\n      dup2\n        /* \"#utility.yul\":12337:12468   */\n      tag_281\n      jump\t// in\n    tag_418:\n        /* \"#utility.yul\":12329:12468   */\n      swap1\n      pop\n        /* \"#utility.yul\":12056:12475   */\n      swap2\n      swap1\n      pop\n      jump\t// out\n        /* \"#utility.yul\":12481:12661   */\n    tag_282:\n        /* \"#utility.yul\":12529:12606   */\n      0x4e487b7100000000000000000000000000000000000000000000000000000000\n        /* \"#utility.yul\":12526:12527   */\n      0x00\n        /* \"#utility.yul\":12519:12607   */\n      mstore\n        /* \"#utility.yul\":12626:12630   */\n      0x11\n        /* \"#utility.yul\":12623:12624   */\n      0x04\n        /* \"#utility.yul\":12616:12631   */\n      mstore\n        /* \"#utility.yul\":12650:12654   */\n      0x24\n        /* \"#utility.yul\":12647:12648   */\n      0x00\n        /* \"#utility.yul\":12640:12655   */\n      revert\n        /* \"#utility.yul\":12667:12861   */\n    tag_76:\n        /* \"#utility.yul\":12707:12711   */\n      0x00\n        /* \"#utility.yul\":12727:12747   */\n      tag_421\n        /* \"#utility.yul\":12745:12746   */\n      dup3\n        /* \"#utility.yul\":12727:12747   */\n      tag_251\n      jump\t// in\n    tag_421:\n        /* \"#utility.yul\":12722:12747   */\n      swap2\n      pop\n        /* \"#utility.yul\":12761:12781   */\n      tag_422\n        /* \"#utility.yul\":12779:12780   */\n      dup4\n        /* \"#utility.yul\":12761:12781   */\n      tag_251\n      jump\t// in\n    tag_422:\n        /* \"#utility.yul\":12756:12781   */\n      swap3\n      pop\n        /* \"#utility.yul\":12805:12806   */\n      dup3\n        /* \"#utility.yul\":12802:12803   */\n      dup3\n        /* \"#utility.yul\":12798:12807   */\n      sub\n        /* \"#utility.yul\":12790:12807   */\n      swap1\n      pop\n        /* \"#utility.yul\":12829:12830   */\n      dup2\n        /* \"#utility.yul\":12823:12827   */\n      dup2\n        /* \"#utility.yul\":12820:12831   */\n      gt\n        /* \"#utility.yul\":12817:12854   */\n      iszero\n      tag_423\n      jumpi\n        /* \"#utility.yul\":12834:12852   */\n      tag_424\n      tag_282\n      jump\t// in\n    tag_424:\n        /* \"#utility.yul\":12817:12854   */\n    tag_423:\n        /* \"#utility.yul\":12667:12861   */\n      swap3\n      swap2\n      pop\n      pop\n      jump\t// out\n        /* \"#utility.yul\":12867:13047   */\n    tag_79:\n        /* \"#utility.yul\":12915:12992   */\n      0x4e487b7100000000000000000000000000000000000000000000000000000000\n        /* \"#utility.yul\":12912:12913   */\n      0x00\n        /* \"#utility.yul\":12905:12993   */\n      mstore\n        /* \"#utility.yul\":13012:13016   */\n      0x32\n        /* \"#utility.yul\":13009:13010   */\n      0x04\n        /* \"#utility.yul\":13002:13017   */\n      mstore\n        /* \"#utility.yul\":13036:13040   */\n      0x24\n        /* \"#utility.yul\":13033:13034   */\n      0x00\n        /* \"#utility.yul\":13026:13041   */\n      revert\n        /* \"#utility.yul\":13053:13286   */\n    tag_82:\n        /* \"#utility.yul\":13092:13095   */\n      0x00\n        /* \"#utility.yul\":13115:13139   */\n      tag_427\n        /* \"#utility.yul\":13133:13138   */\n      dup3\n        /* \"#utility.yul\":13115:13139   */\n      tag_251\n      jump\t// in\n    tag_427:\n        /* \"#utility.yul\":13106:13139   */\n      swap2\n      pop\n        /* \"#utility.yul\":13161:13227   */\n      0xffffffffffffffffffffffffffffffffffffffffffffffffffffffffffffffff\n        /* \"#utility.yul\":13154:13159   */\n      dup3\n        /* \"#utility.yul\":13151:13228   */\n      sub\n        /* \"#utility.yul\":13148:13251   */\n      tag_428\n      jumpi\n        /* \"#utility.yul\":13231:13249   */\n      tag_429\n      tag_282\n      jump\t// in\n    tag_429:\n        /* \"#utility.yul\":13148:13251   */\n    tag_428:\n        /* \"#utility.yul\":13278:13279   */\n      0x01\n        /* \"#utility.yul\":13271:13276   */\n      dup3\n        /* \"#utility.yul\":13267:13280   */\n      add\n        /* \"#utility.yul\":13260:13280   */\n      swap1\n      pop\n        /* \"#utility.yul\":13053:13286   */\n      swap2\n      swap1\n      pop\n      jump\t// out\n        /* \"#utility.yul\":13292:13410   */\n    tag_283:\n        /* \"#utility.yul\":13379:13403   */\n      tag_431\n        /* \"#utility.yul\":13397:13402   */\n      dup2\n        /* \"#utility.yul\":13379:13403   */\n      tag_251\n      jump\t// in\n    tag_431:\n        /* \"#utility.yul\":13374:13377   */\n      dup3\n        /* \"#utility.yul\":13367:13404   */\n      mstore\n        /* \"#utility.yul\":13292:13410   */\n      pop\n      pop\n      jump\t// out\n        /* \"#utility.yul\":13416:13748   */\n    tag_84:\n        /* \"#utility.yul\":13537:13541   */\n      0x00\n        /* \"#utility.yul\":13575:13577   */\n      0x40\n        /* \"#utility.yul\":13564:13573   */\n      dup3\n        /* \"#utility.yul\":13560:13578   */\n      add\n        /* \"#utility.yul\":13552:13578   */\n      swap1\n      pop\n        /* \"#utility.yul\":13588:13659   */\n      tag_433\n        /* \"#utility.yul\":13656:13657   */\n      0x00\n        /* \"#utility.yul\":13645:13654   */\n      dup4\n        /* \"#utility.yul\":13641:13658   */\n      add\n        /* \"#utility.yul\":13632:13638   */\n      dup6\n        /* \"#utility.yul\":13588:13659   */\n      tag_254\n      jump\t// in\n    tag_433:\n        /* \"#utility.yul\":13669:13741   */\n      tag_434\n        /* \"#utility.yul\":13737:13739   */\n      0x20\n        /* \"#utility.yul\":13726:13735   */\n      dup4\n        /* \"#utility.yul\":13722:13740   */\n      add\n        /* \"#utility.yul\":13713:13719   */\n      dup5\n        /* \"#utility.yul\":13669:13741   */\n      tag_283\n      jump\t// in\n    tag_434:\n        /* \"#utility.yul\":13416:13748   */\n      swap4\n      swap3\n      pop\n      pop\n      pop\n      jump\t// out\n        /* \"#utility.yul\":13754:13934   */\n    tag_284:\n        /* \"#utility.yul\":13802:13879   */\n      0x4e487b7100000000000000000000000000000000000000000000000000000000\n        /* \"#utility.yul\":13799:13800   */\n      0x00\n        /* \"#utility.yul\":13792:13880   */\n      mstore\n        /* \"#utility.yul\":13899:13903   */\n      0x22\n        /* \"#utility.yul\":13896:13897   */\n      0x04\n        /* \"#utility.yul\":13889:13904   */\n      mstore\n        /* \"#utility.yul\":13923:13927   */\n      0x24\n        /* \"#utility.yul\":13920:13921   */\n      0x00\n        /* \"#utility.yul\":13913:13928   */\n      revert\n        /* \"#utility.yul\":13940:14260   */\n    tag_119:\n        /* \"#utility.yul\":13984:13990   */\n      0x00\n        /* \"#utility.yul\":14021:14022   */\n      0x02\n        /* \"#utility.yul\":14015:14019   */\n      dup3\n        /* \"#utility.yul\":14011:14023   */\n      div\n        /* \"#utility.yul\":14001:14023   */\n      swap1\n      pop\n        /* \"#utility.yul\":14068:14069   */\n      0x01\n        /* \"#utility.yul\":14062:14066   */\n      dup3\n        /* \"#utility.yul\":14058:14070   */\n      and\n        /* \"#utility.yul\":14089:14107   */\n      dup1\n        /* \"#utility.yul\":14079:14160   */\n      tag_437\n      jumpi\n        /* \"#utility.yul\":14145:14149   */\n      0x7f\n        /* \"#utility.yul\":14137:14143   */\n      dup3\n        /* \"#utility.yul\":14133:14150   */\n      and\n        /* \"#utility.yul\":14123:14150   */\n      swap2\n      pop\n        /* \"#utility.yul\":14079:14160   */\n    tag_437:\n        /* \"#utility.yul\":14207:14209   */\n      0x20\n        /* \"#utility.yul\":14199:14205   */\n      dup3\n        /* \"#utility.yul\":14196:14210   */\n      lt\n        /* \"#utility.yul\":14176:14194   */\n      dup2\n        /* \"#utility.yul\":14173:14211   */\n      sub\n        /* \"#utility.yul\":14170:14254   */\n      tag_438\n      jumpi\n        /* \"#utility.yul\":14226:14244   */\n      tag_439\n      tag_284\n      jump\t// in\n    tag_439:\n        /* \"#utility.yul\":14170:14254   */\n    tag_438:\n        /* \"#utility.yul\":13991:14260   */\n      pop\n        /* \"#utility.yul\":13940:14260   */\n      swap2\n      swap1\n      pop\n      jump\t// out\n        /* \"#utility.yul\":14266:14457   */\n    tag_156:\n        /* \"#utility.yul\":14306:14309   */\n      0x00\n        /* \"#utility.yul\":14325:14345   */\n      tag_441\n        /* \"#utility.yul\":14343:14344   */\n      dup3\n        /* \"#utility.yul\":14325:14345   */\n      tag_251\n      jump\t// in\n    tag_441:\n        /* \"#utility.yul\":14320:14345   */\n      swap2\n      pop\n        /* \"#utility.yul\":14359:14379   */\n      tag_442\n        /* \"#utility.yul\":14377:14378   */\n      dup4\n        /* \"#utility.yul\":14359:14379   */\n      tag_251\n      jump\t// in\n    tag_442:\n        /* \"#utility.yul\":14354:14379   */\n      swap3\n      pop\n        /* \"#utility.yul\":14402:14403   */\n      dup3\n        /* \"#utility.yul\":14399:14400   */\n      dup3\n        /* \"#utility.yul\":14395:14404   */\n      add\n        /* \"#utility.yul\":14388:14404   */\n      swap1\n      pop\n        /* \"#utility.yul\":14423:14426   */\n      dup1\n        /* \"#utility.yul\":14420:14421   */\n      dup3\n        /* \"#utility.yul\":14417:14427   */\n      gt\n        /* \"#utility.yul\":14414:14450   */\n      iszero\n      tag_443\n      jumpi\n        /* \"#utility.yul\":14430:14448   */\n      tag_444\n      tag_282\n      jump\t// in\n    tag_444:\n        /* \"#utility.yul\":14414:14450   */\n    tag_443:\n        /* \"#utility.yul\":14266:14457   */\n      swap3\n      swap2\n      pop\n      pop\n      jump\t// out\n        /* \"#utility.yul\":14463:14629   */\n    tag_285:\n        /* \"#utility.yul\":14603:14621   */\n      0x5468657265206973206120746965202100000000000000000000000000000000\n        /* \"#utility.yul\":14599:14600   */\n      0x00\n        /* \"#utility.yul\":14591:14597   */\n      dup3\n        /* \"#utility.yul\":14587:14601   */\n      add\n        /* \"#utility.yul\":14580:14622   */\n      mstore\n        /* \"#utility.yul\":14463:14629   */\n      pop\n      jump\t// out\n        /* \"#utility.yul\":14635:15001   */\n    tag_286:\n        /* \"#utility.yul\":14777:14780   */\n      0x00\n        /* \"#utility.yul\":14798:14865   */\n      tag_447\n        /* \"#utility.yul\":14862:14864   */\n      0x10\n        /* \"#utility.yul\":14857:14860   */\n      dup4\n        /* \"#utility.yul\":14798:14865   */\n      tag_271\n      jump\t// in\n    tag_447:\n        /* \"#utility.yul\":14791:14865   */\n      swap2\n      pop\n        /* \"#utility.yul\":14874:14967   */\n      tag_448\n        /* \"#utility.yul\":14963:14966   */\n      dup3\n        /* \"#utility.yul\":14874:14967   */\n      tag_285\n      jump\t// in\n    tag_448:\n        /* \"#utility.yul\":14992:14994   */\n      0x20\n        /* \"#utility.yul\":14987:14990   */\n      dup3\n        /* \"#utility.yul\":14983:14995   */\n      add\n        /* \"#utility.yul\":14976:14995   */\n      swap1\n      pop\n        /* \"#utility.yul\":14635:15001   */\n      swap2\n      swap1\n      pop\n      jump\t// out\n        /* \"#utility.yul\":15007:15426   */\n    tag_164:\n        /* \"#utility.yul\":15173:15177   */\n      0x00\n        /* \"#utility.yul\":15211:15213   */\n      0x20\n        /* \"#utility.yul\":15200:15209   */\n      dup3\n        /* \"#utility.yul\":15196:15214   */\n      add\n        /* \"#utility.yul\":15188:15214   */\n      swap1\n      pop\n        /* \"#utility.yul\":15260:15269   */\n      dup2\n        /* \"#utility.yul\":15254:15258   */\n      dup2\n        /* \"#utility.yul\":15250:15270   */\n      sub\n        /* \"#utility.yul\":15246:15247   */\n      0x00\n        /* \"#utility.yul\":15235:15244   */\n      dup4\n        /* \"#utility.yul\":15231:15248   */\n      add\n        /* \"#utility.yul\":15224:15271   */\n      mstore\n        /* \"#utility.yul\":15288:15419   */\n      tag_450\n        /* \"#utility.yul\":15414:15418   */\n      dup2\n        /* \"#utility.yul\":15288:15419   */\n      tag_286\n      jump\t// in\n    tag_450:\n        /* \"#utility.yul\":15280:15419   */\n      swap1\n      pop\n        /* \"#utility.yul\":15007:15426   */\n      swap2\n      swap1\n      pop\n      jump\t// out\n        /* \"#utility.yul\":15432:15606   */\n    tag_287:\n        /* \"#utility.yul\":15572:15598   */\n      0x616c726561647920696e207468652077686974656c6973740000000000000000\n        /* \"#utility.yul\":15568:15569   */\n      0x00\n        /* \"#utility.yul\":15560:15566   */\n      dup3\n        /* \"#utility.yul\":15556:15570   */\n      add\n        /* \"#utility.yul\":15549:15599   */\n      mstore\n        /* \"#utility.yul\":15432:15606   */\n      pop\n      jump\t// out\n        /* \"#utility.yul\":15612:15978   */\n    tag_288:\n        /* \"#utility.yul\":15754:15757   */\n      0x00\n        /* \"#utility.yul\":15775:15842   */\n      tag_453\n        /* \"#utility.yul\":15839:15841   */\n      0x18\n        /* \"#utility.yul\":15834:15837   */\n      dup4\n        /* \"#utility.yul\":15775:15842   */\n      tag_271\n      jump\t// in\n    tag_453:\n        /* \"#utility.yul\":15768:15842   */\n      swap2\n      pop\n        /* \"#utility.yul\":15851:15944   */\n      tag_454\n        /* \"#utility.yul\":15940:15943   */\n      dup3\n        /* \"#utility.yul\":15851:15944   */\n      tag_287\n      jump\t// in\n    tag_454:\n        /* \"#utility.yul\":15969:15971   */\n      0x20\n        /* \"#utility.yul\":15964:15967   */\n      dup3\n        /* \"#utility.yul\":15960:15972   */\n      add\n        /* \"#utility.yul\":15953:15972   */\n      swap1\n      pop\n        /* \"#utility.yul\":15612:15978   */\n      swap2\n      swap1\n      pop\n      jump\t// out\n        /* \"#utility.yul\":15984:16403   */\n    tag_181:\n        /* \"#utility.yul\":16150:16154   */\n      0x00\n        /* \"#utility.yul\":16188:16190   */\n      0x20\n        /* \"#utility.yul\":16177:16186   */\n      dup3\n        /* \"#utility.yul\":16173:16191   */\n      add\n        /* \"#utility.yul\":16165:16191   */\n      swap1\n      pop\n        /* \"#utility.yul\":16237:16246   */\n      dup2\n        /* \"#utility.yul\":16231:16235   */\n      dup2\n        /* \"#utility.yul\":16227:16247   */\n      sub\n        /* \"#utility.yul\":16223:16224   */\n      0x00\n        /* \"#utility.yul\":16212:16221   */\n      dup4\n        /* \"#utility.yul\":16208:16225   */\n      add\n        /* \"#utility.yul\":16201:16248   */\n      mstore\n        /* \"#utility.yul\":16265:16396   */\n      tag_456\n        /* \"#utility.yul\":16391:16395   */\n      dup2\n        /* \"#utility.yul\":16265:16396   */\n      tag_288\n      jump\t// in\n    tag_456:\n        /* \"#utility.yul\":16257:16396   */\n      swap1\n      pop\n        /* \"#utility.yul\":15984:16403   */\n      swap2\n      swap1\n      pop\n      jump\t// out\n        /* \"#utility.yul\":16409:16550   */\n    tag_289:\n        /* \"#utility.yul\":16458:16462   */\n      0x00\n        /* \"#utility.yul\":16481:16484   */\n      dup2\n        /* \"#utility.yul\":16473:16484   */\n      swap1\n      pop\n        /* \"#utility.yul\":16504:16507   */\n      dup2\n        /* \"#utility.yul\":16501:16502   */\n      0x00\n        /* \"#utility.yul\":16494:16508   */\n      mstore\n        /* \"#utility.yul\":16538:16542   */\n      0x20\n        /* \"#utility.yul\":16535:16536   */\n      0x00\n        /* \"#utility.yul\":16525:16543   */\n      keccak256\n        /* \"#utility.yul\":16517:16543   */\n      swap1\n      pop\n        /* \"#utility.yul\":16409:16550   */\n      swap2\n      swap1\n      pop\n      jump\t// out\n        /* \"#utility.yul\":16556:16649   */\n    tag_290:\n        /* \"#utility.yul\":16593:16599   */\n      0x00\n        /* \"#utility.yul\":16640:16642   */\n      0x20\n        /* \"#utility.yul\":16635:16637   */\n      0x1f\n        /* \"#utility.yul\":16628:16633   */\n      dup4\n        /* \"#utility.yul\":16624:16638   */\n      add\n        /* \"#utility.yul\":16620:16643   */\n      div\n        /* \"#utility.yul\":16610:16643   */\n      swap1\n      pop\n        /* \"#utility.yul\":16556:16649   */\n      swap2\n      swap1\n      pop\n      jump\t// out\n        /* \"#utility.yul\":16655:16762   */\n    tag_291:\n        /* \"#utility.yul\":16699:16707   */\n      0x00\n        /* \"#utility.yul\":16749:16754   */\n      dup3\n        /* \"#utility.yul\":16743:16747   */\n      dup3\n        /* \"#utility.yul\":16739:16755   */\n      shl\n        /* \"#utility.yul\":16718:16755   */\n      swap1\n      pop\n        /* \"#utility.yul\":16655:16762   */\n      swap3\n      swap2\n      pop\n      pop\n      jump\t// out\n        /* \"#utility.yul\":16768:17161   */\n    tag_292:\n        /* \"#utility.yul\":16837:16843   */\n      0x00\n        /* \"#utility.yul\":16887:16888   */\n      0x08\n        /* \"#utility.yul\":16875:16885   */\n      dup4\n        /* \"#utility.yul\":16871:16889   */\n      mul\n        /* \"#utility.yul\":16910:17007   */\n      tag_461\n        /* \"#utility.yul\":16940:17006   */\n      0xffffffffffffffffffffffffffffffffffffffffffffffffffffffffffffffff\n        /* \"#utility.yul\":16929:16938   */\n      dup3\n        /* \"#utility.yul\":16910:17007   */\n      tag_291\n      jump\t// in\n    tag_461:\n        /* \"#utility.yul\":17028:17067   */\n      tag_462\n        /* \"#utility.yul\":17058:17066   */\n      dup7\n        /* \"#utility.yul\":17047:17056   */\n      dup4\n        /* \"#utility.yul\":17028:17067   */\n      tag_291\n      jump\t// in\n    tag_462:\n        /* \"#utility.yul\":17016:17067   */\n      swap6\n      pop\n        /* \"#utility.yul\":17100:17104   */\n      dup1\n        /* \"#utility.yul\":17096:17105   */\n      not\n        /* \"#utility.yul\":17089:17094   */\n      dup5\n        /* \"#utility.yul\":17085:17106   */\n      and\n        /* \"#utility.yul\":17076:17106   */\n      swap4\n      pop\n        /* \"#utility.yul\":17149:17153   */\n      dup1\n        /* \"#utility.yul\":17139:17147   */\n      dup7\n        /* \"#utility.yul\":17135:17154   */\n      and\n        /* \"#utility.yul\":17128:17133   */\n      dup5\n        /* \"#utility.yul\":17125:17155   */\n      or\n        /* \"#utility.yul\":17115:17155   */\n      swap3\n      pop\n        /* \"#utility.yul\":16844:17161   */\n      pop\n      pop\n        /* \"#utility.yul\":16768:17161   */\n      swap4\n      swap3\n      pop\n      pop\n      pop\n      jump\t// out\n        /* \"#utility.yul\":17167:17227   */\n    tag_293:\n        /* \"#utility.yul\":17195:17198   */\n      0x00\n        /* \"#utility.yul\":17216:17221   */\n      dup2\n        /* \"#utility.yul\":17209:17221   */\n      swap1\n      pop\n        /* \"#utility.yul\":17167:17227   */\n      swap2\n      swap1\n      pop\n      jump\t// out\n        /* \"#utility.yul\":17233:17375   */\n    tag_294:\n        /* \"#utility.yul\":17283:17292   */\n      0x00\n        /* \"#utility.yul\":17316:17369   */\n      tag_465\n        /* \"#utility.yul\":17334:17368   */\n      tag_466\n        /* \"#utility.yul\":17343:17367   */\n      tag_467\n        /* \"#utility.yul\":17361:17366   */\n      dup5\n        /* \"#utility.yul\":17343:17367   */\n      tag_251\n      jump\t// in\n    tag_467:\n        /* \"#utility.yul\":17334:17368   */\n      tag_293\n      jump\t// in\n    tag_466:\n        /* \"#utility.yul\":17316:17369   */\n      tag_251\n      jump\t// in\n    tag_465:\n        /* \"#utility.yul\":17303:17369   */\n      swap1\n      pop\n        /* \"#utility.yul\":17233:17375   */\n      swap2\n      swap1\n      pop\n      jump\t// out\n        /* \"#utility.yul\":17381:17456   */\n    tag_295:\n        /* \"#utility.yul\":17424:17427   */\n      0x00\n        /* \"#utility.yul\":17445:17450   */\n      dup2\n        /* \"#utility.yul\":17438:17450   */\n      swap1\n      pop\n        /* \"#utility.yul\":17381:17456   */\n      swap2\n      swap1\n      pop\n      jump\t// out\n        /* \"#utility.yul\":17462:17731   */\n    tag_296:\n        /* \"#utility.yul\":17572:17611   */\n      tag_470\n        /* \"#utility.yul\":17603:17610   */\n      dup4\n        /* \"#utility.yul\":17572:17611   */\n      tag_294\n      jump\t// in\n    tag_470:\n        /* \"#utility.yul\":17633:17724   */\n      tag_471\n        /* \"#utility.yul\":17682:17723   */\n      tag_472\n        /* \"#utility.yul\":17706:17722   */\n      dup3\n        /* \"#utility.yul\":17682:17723   */\n      tag_295\n      jump\t// in\n    tag_472:\n        /* \"#utility.yul\":17674:17680   */\n      dup5\n        /* \"#utility.yul\":17667:17671   */\n      dup5\n        /* \"#utility.yul\":17661:17672   */\n      sload\n        /* \"#utility.yul\":17633:17724   */\n      tag_292\n      jump\t// in\n    tag_471:\n        /* \"#utility.yul\":17627:17631   */\n      dup3\n        /* \"#utility.yul\":17620:17725   */\n      sstore\n        /* \"#utility.yul\":17538:17731   */\n      pop\n        /* \"#utility.yul\":17462:17731   */\n      pop\n      pop\n      pop\n      jump\t// out\n        /* \"#utility.yul\":17737:17810   */\n    tag_297:\n        /* \"#utility.yul\":17782:17785   */\n      0x00\n        /* \"#utility.yul\":17803:17804   */\n      0x00\n        /* \"#utility.yul\":17796:17804   */\n      swap1\n      pop\n        /* \"#utility.yul\":17737:17810   */\n      swap1\n      jump\t// out\n        /* \"#utility.yul\":17816:18005   */\n    tag_298:\n        /* \"#utility.yul\":17893:17925   */\n      tag_475\n      tag_297\n      jump\t// in\n    tag_475:\n        /* \"#utility.yul\":17934:17999   */\n      tag_476\n        /* \"#utility.yul\":17992:17998   */\n      dup2\n        /* \"#utility.yul\":17984:17990   */\n      dup5\n        /* \"#utility.yul\":17978:17982   */\n      dup5\n        /* \"#utility.yul\":17934:17999   */\n      tag_296\n      jump\t// in\n    tag_476:\n        /* \"#utility.yul\":17869:18005   */\n      pop\n        /* \"#utility.yul\":17816:18005   */\n      pop\n      pop\n      jump\t// out\n        /* \"#utility.yul\":18011:18197   */\n    tag_299:\n        /* \"#utility.yul\":18071:18191   */\n    tag_478:\n        /* \"#utility.yul\":18088:18091   */\n      dup2\n        /* \"#utility.yul\":18081:18086   */\n      dup2\n        /* \"#utility.yul\":18078:18092   */\n      lt\n        /* \"#utility.yul\":18071:18191   */\n      iszero\n      tag_480\n      jumpi\n        /* \"#utility.yul\":18142:18181   */\n      tag_481\n        /* \"#utility.yul\":18179:18180   */\n      0x00\n        /* \"#utility.yul\":18172:18177   */\n      dup3\n        /* \"#utility.yul\":18142:18181   */\n      tag_298\n      jump\t// in\n    tag_481:\n        /* \"#utility.yul\":18115:18116   */\n      0x01\n        /* \"#utility.yul\":18108:18113   */\n      dup2\n        /* \"#utility.yul\":18104:18117   */\n      add\n        /* \"#utility.yul\":18095:18117   */\n      swap1\n      pop\n        /* \"#utility.yul\":18071:18191   */\n      jump(tag_478)\n    tag_480:\n        /* \"#utility.yul\":18011:18197   */\n      pop\n      pop\n      jump\t// out\n        /* \"#utility.yul\":18203:18746   */\n    tag_300:\n        /* \"#utility.yul\":18304:18306   */\n      0x1f\n        /* \"#utility.yul\":18299:18302   */\n      dup3\n        /* \"#utility.yul\":18296:18307   */\n      gt\n        /* \"#utility.yul\":18293:18739   */\n      iszero\n      tag_483\n      jumpi\n        /* \"#utility.yul\":18338:18376   */\n      tag_484\n        /* \"#utility.yul\":18370:18375   */\n      dup2\n        /* \"#utility.yul\":18338:18376   */\n      tag_289\n      jump\t// in\n    tag_484:\n        /* \"#utility.yul\":18422:18451   */\n      tag_485\n        /* \"#utility.yul\":18440:18450   */\n      dup5\n        /* \"#utility.yul\":18422:18451   */\n      tag_290\n      jump\t// in\n    tag_485:\n        /* \"#utility.yul\":18412:18420   */\n      dup2\n        /* \"#utility.yul\":18408:18452   */\n      add\n        /* \"#utility.yul\":18605:18607   */\n      0x20\n        /* \"#utility.yul\":18593:18603   */\n      dup6\n        /* \"#utility.yul\":18590:18608   */\n      lt\n        /* \"#utility.yul\":18587:18636   */\n      iszero\n      tag_486\n      jumpi\n        /* \"#utility.yul\":18626:18634   */\n      dup2\n        /* \"#utility.yul\":18611:18634   */\n      swap1\n      pop\n        /* \"#utility.yul\":18587:18636   */\n    tag_486:\n        /* \"#utility.yul\":18649:18729   */\n      tag_487\n        /* \"#utility.yul\":18705:18727   */\n      tag_488\n        /* \"#utility.yul\":18723:18726   */\n      dup6\n        /* \"#utility.yul\":18705:18727   */\n      tag_290\n      jump\t// in\n    tag_488:\n        /* \"#utility.yul\":18695:18703   */\n      dup4\n        /* \"#utility.yul\":18691:18728   */\n      add\n        /* \"#utility.yul\":18678:18689   */\n      dup3\n        /* \"#utility.yul\":18649:18729   */\n      tag_299\n      jump\t// in\n    tag_487:\n        /* \"#utility.yul\":18308:18739   */\n      pop\n      pop\n        /* \"#utility.yul\":18293:18739   */\n    tag_483:\n        /* \"#utility.yul\":18203:18746   */\n      pop\n      pop\n      pop\n      jump\t// out\n        /* \"#utility.yul\":18752:18869   */\n    tag_301:\n        /* \"#utility.yul\":18806:18814   */\n      0x00\n        /* \"#utility.yul\":18856:18861   */\n      dup3\n        /* \"#utility.yul\":18850:18854   */\n      dup3\n        /* \"#utility.yul\":18846:18862   */\n      shr\n        /* \"#utility.yul\":18825:18862   */\n      swap1\n      pop\n        /* \"#utility.yul\":18752:18869   */\n      swap3\n      swap2\n      pop\n      pop\n      jump\t// out\n        /* \"#utility.yul\":18875:19044   */\n    tag_302:\n        /* \"#utility.yul\":18919:18925   */\n      0x00\n        /* \"#utility.yul\":18952:19003   */\n      tag_491\n        /* \"#utility.yul\":19000:19001   */\n      0x00\n        /* \"#utility.yul\":18996:19002   */\n      not\n        /* \"#utility.yul\":18988:18993   */\n      dup5\n        /* \"#utility.yul\":18985:18986   */\n      0x08\n        /* \"#utility.yul\":18981:18994   */\n      mul\n        /* \"#utility.yul\":18952:19003   */\n      tag_301\n      jump\t// in\n    tag_491:\n        /* \"#utility.yul\":18948:19004   */\n      not\n        /* \"#utility.yul\":19033:19037   */\n      dup1\n        /* \"#utility.yul\":19027:19031   */\n      dup4\n        /* \"#utility.yul\":19023:19038   */\n      and\n        /* \"#utility.yul\":19013:19038   */\n      swap2\n      pop\n        /* \"#utility.yul\":18926:19044   */\n      pop\n        /* \"#utility.yul\":18875:19044   */\n      swap3\n      swap2\n      pop\n      pop\n      jump\t// out\n        /* \"#utility.yul\":19049:19344   */\n    tag_303:\n        /* \"#utility.yul\":19125:19129   */\n      0x00\n        /* \"#utility.yul\":19271:19300   */\n      tag_493\n        /* \"#utility.yul\":19296:19299   */\n      dup4\n        /* \"#utility.yul\":19290:19294   */\n      dup4\n        /* \"#utility.yul\":19271:19300   */\n      tag_302\n      jump\t// in\n    tag_493:\n        /* \"#utility.yul\":19263:19300   */\n      swap2\n      pop\n        /* \"#utility.yul\":19333:19336   */\n      dup3\n        /* \"#utility.yul\":19330:19331   */\n      0x02\n        /* \"#utility.yul\":19326:19337   */\n      mul\n        /* \"#utility.yul\":19320:19324   */\n      dup3\n        /* \"#utility.yul\":19317:19338   */\n      or\n        /* \"#utility.yul\":19309:19338   */\n      swap1\n      pop\n        /* \"#utility.yul\":19049:19344   */\n      swap3\n      swap2\n      pop\n      pop\n      jump\t// out\n        /* \"#utility.yul\":19349:20744   */\n    tag_210:\n        /* \"#utility.yul\":19466:19503   */\n      tag_495\n        /* \"#utility.yul\":19499:19502   */\n      dup3\n        /* \"#utility.yul\":19466:19503   */\n      tag_255\n      jump\t// in\n    tag_495:\n        /* \"#utility.yul\":19568:19586   */\n      0xffffffffffffffff\n        /* \"#utility.yul\":19560:19566   */\n      dup2\n        /* \"#utility.yul\":19557:19587   */\n      gt\n        /* \"#utility.yul\":19554:19610   */\n      iszero\n      tag_496\n      jumpi\n        /* \"#utility.yul\":19590:19608   */\n      tag_497\n      tag_264\n      jump\t// in\n    tag_497:\n        /* \"#utility.yul\":19554:19610   */\n    tag_496:\n        /* \"#utility.yul\":19634:19672   */\n      tag_498\n        /* \"#utility.yul\":19666:19670   */\n      dup3\n        /* \"#utility.yul\":19660:19671   */\n      sload\n        /* \"#utility.yul\":19634:19672   */\n      tag_119\n      jump\t// in\n    tag_498:\n        /* \"#utility.yul\":19719:19786   */\n      tag_499\n        /* \"#utility.yul\":19779:19785   */\n      dup3\n        /* \"#utility.yul\":19771:19777   */\n      dup3\n        /* \"#utility.yul\":19765:19769   */\n      dup6\n        /* \"#utility.yul\":19719:19786   */\n      tag_300\n      jump\t// in\n    tag_499:\n        /* \"#utility.yul\":19813:19814   */\n      0x00\n        /* \"#utility.yul\":19837:19841   */\n      0x20\n        /* \"#utility.yul\":19824:19841   */\n      swap1\n      pop\n        /* \"#utility.yul\":19869:19871   */\n      0x1f\n        /* \"#utility.yul\":19861:19867   */\n      dup4\n        /* \"#utility.yul\":19858:19872   */\n      gt\n        /* \"#utility.yul\":19886:19887   */\n      0x01\n        /* \"#utility.yul\":19881:20499   */\n      dup2\n      eq\n      tag_501\n      jumpi\n        /* \"#utility.yul\":20543:20544   */\n      0x00\n        /* \"#utility.yul\":20560:20566   */\n      dup5\n        /* \"#utility.yul\":20557:20634   */\n      iszero\n      tag_502\n      jumpi\n        /* \"#utility.yul\":20609:20618   */\n      dup3\n        /* \"#utility.yul\":20604:20607   */\n      dup8\n        /* \"#utility.yul\":20600:20619   */\n      add\n        /* \"#utility.yul\":20594:20620   */\n      mload\n        /* \"#utility.yul\":20585:20620   */\n      swap1\n      pop\n        /* \"#utility.yul\":20557:20634   */\n    tag_502:\n        /* \"#utility.yul\":20660:20727   */\n      tag_503\n        /* \"#utility.yul\":20720:20726   */\n      dup6\n        /* \"#utility.yul\":20713:20718   */\n      dup3\n        /* \"#utility.yul\":20660:20727   */\n      tag_303\n      jump\t// in\n    tag_503:\n        /* \"#utility.yul\":20654:20658   */\n      dup7\n        /* \"#utility.yul\":20647:20728   */\n      sstore\n        /* \"#utility.yul\":20516:20738   */\n      pop\n        /* \"#utility.yul\":19851:20738   */\n      jump(tag_500)\n        /* \"#utility.yul\":19881:20499   */\n    tag_501:\n        /* \"#utility.yul\":19933:19937   */\n      0x1f\n        /* \"#utility.yul\":19929:19938   */\n      not\n        /* \"#utility.yul\":19921:19927   */\n      dup5\n        /* \"#utility.yul\":19917:19939   */\n      and\n        /* \"#utility.yul\":19967:20004   */\n      tag_504\n        /* \"#utility.yul\":19999:20003   */\n      dup7\n        /* \"#utility.yul\":19967:20004   */\n      tag_289\n      jump\t// in\n    tag_504:\n        /* \"#utility.yul\":20026:20027   */\n      0x00\n        /* \"#utility.yul\":20040:20248   */\n    tag_505:\n        /* \"#utility.yul\":20054:20061   */\n      dup3\n        /* \"#utility.yul\":20051:20052   */\n      dup2\n        /* \"#utility.yul\":20048:20062   */\n      lt\n        /* \"#utility.yul\":20040:20248   */\n      iszero\n      tag_507\n      jumpi\n        /* \"#utility.yul\":20133:20142   */\n      dup5\n        /* \"#utility.yul\":20128:20131   */\n      dup10\n        /* \"#utility.yul\":20124:20143   */\n      add\n        /* \"#utility.yul\":20118:20144   */\n      mload\n        /* \"#utility.yul\":20110:20116   */\n      dup3\n        /* \"#utility.yul\":20103:20145   */\n      sstore\n        /* \"#utility.yul\":20184:20185   */\n      0x01\n        /* \"#utility.yul\":20176:20182   */\n      dup3\n        /* \"#utility.yul\":20172:20186   */\n      add\n        /* \"#utility.yul\":20162:20186   */\n      swap2\n      pop\n        /* \"#utility.yul\":20231:20233   */\n      0x20\n        /* \"#utility.yul\":20220:20229   */\n      dup6\n        /* \"#utility.yul\":20216:20234   */\n      add\n        /* \"#utility.yul\":20203:20234   */\n      swap5\n      pop\n        /* \"#utility.yul\":20077:20081   */\n      0x20\n        /* \"#utility.yul\":20074:20075   */\n      dup2\n        /* \"#utility.yul\":20070:20082   */\n      add\n        /* \"#utility.yul\":20065:20082   */\n      swap1\n      pop\n        /* \"#utility.yul\":20040:20248   */\n      jump(tag_505)\n    tag_507:\n        /* \"#utility.yul\":20276:20282   */\n      dup7\n        /* \"#utility.yul\":20267:20274   */\n      dup4\n        /* \"#utility.yul\":20264:20283   */\n      lt\n        /* \"#utility.yul\":20261:20440   */\n      iszero\n      tag_508\n      jumpi\n        /* \"#utility.yul\":20334:20343   */\n      dup5\n        /* \"#utility.yul\":20329:20332   */\n      dup10\n        /* \"#utility.yul\":20325:20344   */\n      add\n        /* \"#utility.yul\":20319:20345   */\n      mload\n        /* \"#utility.yul\":20377:20425   */\n      tag_509\n        /* \"#utility.yul\":20419:20423   */\n      0x1f\n        /* \"#utility.yul\":20411:20417   */\n      dup10\n        /* \"#utility.yul\":20407:20424   */\n      and\n        /* \"#utility.yul\":20396:20405   */\n      dup3\n        /* \"#utility.yul\":20377:20425   */\n      tag_302\n      jump\t// in\n    tag_509:\n        /* \"#utility.yul\":20369:20375   */\n      dup4\n        /* \"#utility.yul\":20362:20426   */\n      sstore\n        /* \"#utility.yul\":20284:20440   */\n      pop\n        /* \"#utility.yul\":20261:20440   */\n    tag_508:\n        /* \"#utility.yul\":20486:20487   */\n      0x01\n        /* \"#utility.yul\":20482:20483   */\n      0x02\n        /* \"#utility.yul\":20474:20480   */\n      dup9\n        /* \"#utility.yul\":20470:20484   */\n      mul\n        /* \"#utility.yul\":20466:20488   */\n      add\n        /* \"#utility.yul\":20460:20464   */\n      dup9\n        /* \"#utility.yul\":20453:20489   */\n      sstore\n        /* \"#utility.yul\":19888:20499   */\n      pop\n      pop\n      pop\n        /* \"#utility.yul\":19851:20738   */\n    tag_500:\n      pop\n        /* \"#utility.yul\":19441:20744   */\n      pop\n      pop\n      pop\n        /* \"#utility.yul\":19349:20744   */\n      pop\n      pop\n      jump\t// out\n        /* \"#utility.yul\":20750:20972   */\n    tag_212:\n        /* \"#utility.yul\":20843:20847   */\n      0x00\n        /* \"#utility.yul\":20881:20883   */\n      0x20\n        /* \"#utility.yul\":20870:20879   */\n      dup3\n        /* \"#utility.yul\":20866:20884   */\n      add\n        /* \"#utility.yul\":20858:20884   */\n      swap1\n      pop\n        /* \"#utility.yul\":20894:20965   */\n      tag_511\n        /* \"#utility.yul\":20962:20963   */\n      0x00\n        /* \"#utility.yul\":20951:20960   */\n      dup4\n        /* \"#utility.yul\":20947:20964   */\n      add\n        /* \"#utility.yul\":20938:20944   */\n      dup5\n        /* \"#utility.yul\":20894:20965   */\n      tag_283\n      jump\t// in\n    tag_511:\n        /* \"#utility.yul\":20750:20972   */\n      swap3\n      swap2\n      pop\n      pop\n      jump\t// out\n        /* \"#utility.yul\":20978:21101   */\n    tag_304:\n        /* \"#utility.yul\":21069:21070   */\n      0x06\n        /* \"#utility.yul\":21062:21067   */\n      dup2\n        /* \"#utility.yul\":21059:21071   */\n      lt\n        /* \"#utility.yul\":21049:21095   */\n      tag_513\n      jumpi\n        /* \"#utility.yul\":21075:21093   */\n      tag_514\n      tag_62\n      jump\t// in\n    tag_514:\n        /* \"#utility.yul\":21049:21095   */\n    tag_513:\n        /* \"#utility.yul\":20978:21101   */\n      pop\n      jump\t// out\n        /* \"#utility.yul\":21107:21254   */\n    tag_305:\n        /* \"#utility.yul\":21162:21169   */\n      0x00\n        /* \"#utility.yul\":21191:21196   */\n      dup2\n        /* \"#utility.yul\":21180:21196   */\n      swap1\n      pop\n        /* \"#utility.yul\":21197:21248   */\n      tag_516\n        /* \"#utility.yul\":21242:21247   */\n      dup3\n        /* \"#utility.yul\":21197:21248   */\n      tag_304\n      jump\t// in\n    tag_516:\n        /* \"#utility.yul\":21107:21254   */\n      swap2\n      swap1\n      pop\n      jump\t// out\n        /* \"#utility.yul\":21260:21407   */\n    tag_306:\n        /* \"#utility.yul\":21326:21335   */\n      0x00\n        /* \"#utility.yul\":21359:21401   */\n      tag_518\n        /* \"#utility.yul\":21395:21400   */\n      dup3\n        /* \"#utility.yul\":21359:21401   */\n      tag_305\n      jump\t// in\n    tag_518:\n        /* \"#utility.yul\":21346:21401   */\n      swap1\n      pop\n        /* \"#utility.yul\":21260:21407   */\n      swap2\n      swap1\n      pop\n      jump\t// out\n        /* \"#utility.yul\":21413:21576   */\n    tag_307:\n        /* \"#utility.yul\":21516:21569   */\n      tag_520\n        /* \"#utility.yul\":21563:21568   */\n      dup2\n        /* \"#utility.yul\":21516:21569   */\n      tag_306\n      jump\t// in\n    tag_520:\n        /* \"#utility.yul\":21511:21514   */\n      dup3\n        /* \"#utility.yul\":21504:21570   */\n      mstore\n        /* \"#utility.yul\":21413:21576   */\n      pop\n      pop\n      jump\t// out\n        /* \"#utility.yul\":21582:21978   */\n    tag_239:\n        /* \"#utility.yul\":21735:21739   */\n      0x00\n        /* \"#utility.yul\":21773:21775   */\n      0x40\n        /* \"#utility.yul\":21762:21771   */\n      dup3\n        /* \"#utility.yul\":21758:21776   */\n      add\n        /* \"#utility.yul\":21750:21776   */\n      swap1\n      pop\n        /* \"#utility.yul\":21786:21873   */\n      tag_522\n        /* \"#utility.yul\":21870:21871   */\n      0x00\n        /* \"#utility.yul\":21859:21868   */\n      dup4\n        /* \"#utility.yul\":21855:21872   */\n      add\n        /* \"#utility.yul\":21846:21852   */\n      dup6\n        /* \"#utility.yul\":21786:21873   */\n      tag_307\n      jump\t// in\n    tag_522:\n        /* \"#utility.yul\":21883:21971   */\n      tag_523\n        /* \"#utility.yul\":21967:21969   */\n      0x20\n        /* \"#utility.yul\":21956:21965   */\n      dup4\n        /* \"#utility.yul\":21952:21970   */\n      add\n        /* \"#utility.yul\":21943:21949   */\n      dup5\n        /* \"#utility.yul\":21883:21971   */\n      tag_307\n      jump\t// in\n    tag_523:\n        /* \"#utility.yul\":21582:21978   */\n      swap4\n      swap3\n      pop\n      pop\n      pop\n      jump\t// out\n\n    auxdata: 0xa264697066735822122019fc5ad1cbf8db0f187607a1c3ce922f70106c0cab9c5752bc6251849db4a6b664736f6c634300081c0033\n}\n",
				"bytecode": {
					"linkReferences": {},
					"object": "608060405234801561000f575f5ffd5b50335f73ffffffffffffffffffffffffffffffffffffffff168173ffffffffffffffffffffffffffffffffffffffff1603610081575f6040517f1e4fbdf70000000000000000000000000000000000000000000000000000000081526004016100789190610224565b60405180910390fd5b6100908161012460201b60201c565b50600160035f3373ffffffffffffffffffffffffffffffffffffffff1673ffffffffffffffffffffffffffffffffffffffff1681526020019081526020015f205f015f6101000a81548160ff0219169083151502179055507fb6be2187d059cc2a55fe29e0e503b566e1e0f8c8780096e185429350acffd3dd336040516101179190610224565b60405180910390a161023d565b5f5f5f9054906101000a900473ffffffffffffffffffffffffffffffffffffffff169050815f5f6101000a81548173ffffffffffffffffffffffffffffffffffffffff021916908373ffffffffffffffffffffffffffffffffffffffff1602179055508173ffffffffffffffffffffffffffffffffffffffff168173ffffffffffffffffffffffffffffffffffffffff167f8be0079c531659141344cd1fd0a4f28419497f9722a3daafe3b4186f6b6457e060405160405180910390a35050565b5f73ffffffffffffffffffffffffffffffffffffffff82169050919050565b5f61020e826101e5565b9050919050565b61021e81610204565b82525050565b5f6020820190506102375f830184610215565b92915050565b611c5a8061024a5f395ff3fe608060405234801561000f575f5ffd5b50600436106100b2575f3560e01c8063b647990a1161006f578063b647990a1461012c578063b6a5d7de14610136578063e09b8c7914610152578063e5349fe81461015c578063ee74c67814610178578063f2fde38b14610182576100b2565b80634e3c118e146100b65780636c297445146100d2578063715018a6146100dc5780638da5cb5b146100e65780638e7ea5b214610104578063a7bfab1614610122575b5f5ffd5b6100d060048036038101906100cb919061116a565b61019e565b005b6100da610505565b005b6100e4610590565b005b6100ee6105a3565b6040516100fb91906111b7565b60405180910390f35b61010c6105ca565b6040516101199190611289565b60405180910390f35b61012a61071f565b005b6101346107aa565b005b610150600480360381019061014b91906112a9565b61093c565b005b61015a610b47565b005b61017660048036038101906101719190611400565b610bd1565b005b610180610de2565b005b61019c600480360381019061019791906112a9565b610e6d565b005b815f73ffffffffffffffffffffffffffffffffffffffff168173ffffffffffffffffffffffffffffffffffffffff160361020d576040517f08c379a0000000000000000000000000000000000000000000000000000000008152600401610204906114da565b60405180910390fd5b8260035f8273ffffffffffffffffffffffffffffffffffffffff1673ffffffffffffffffffffffffffffffffffffffff1681526020019081526020015f205f015f9054906101000a900460ff16610299576040517f08c379a000000000000000000000000000000000000000000000000000000000815260040161029090611542565b60405180910390fd5b60038060058111156102ae576102ad611560565b5b60025f9054906101000a900460ff1660058111156102cf576102ce611560565b5b1461030f576040517f08c379a0000000000000000000000000000000000000000000000000000000008152600401610306906115d7565b60405180910390fd5b60035f8673ffffffffffffffffffffffffffffffffffffffff1673ffffffffffffffffffffffffffffffffffffffff1681526020019081526020015f205f0160019054906101000a900460ff161561039c576040517f08c379a00000000000000000000000000000000000000000000000000000000081526004016103939061163f565b60405180910390fd5b6004805490508411156103e4576040517f08c379a00000000000000000000000000000000000000000000000000000000081526004016103db906116a7565b60405180910390fd5b600160035f8773ffffffffffffffffffffffffffffffffffffffff1673ffffffffffffffffffffffffffffffffffffffff1681526020019081526020015f205f0160016101000a81548160ff0219169083151502179055508360035f8773ffffffffffffffffffffffffffffffffffffffff1673ffffffffffffffffffffffffffffffffffffffff1681526020019081526020015f2060010181905550600460018561049091906116f2565b815481106104a1576104a0611725565b5b905f5260205f2090600202016001015f8154809291906104c090611752565b91905055507f4d99b957a2bc29a30ebd96a7be8e68fe50a3c701db28a91436490b7d53870ca485856040516104f69291906117a8565b60405180910390a15050505050565b61050d610ef1565b600180600581111561052257610521611560565b5b60025f9054906101000a900460ff16600581111561054357610542611560565b5b14610583576040517f08c379a000000000000000000000000000000000000000000000000000000000815260040161057a906115d7565b60405180910390fd5b61058d6002610f78565b50565b610598610ef1565b6105a15f610feb565b565b5f5f5f9054906101000a900473ffffffffffffffffffffffffffffffffffffffff16905090565b6105d26110b3565b60058060058111156105e7576105e6611560565b5b60025f9054906101000a900460ff16600581111561060857610607611560565b5b14610648576040517f08c379a000000000000000000000000000000000000000000000000000000000815260040161063f906115d7565b60405180910390fd5b60046001805461065891906116f2565b8154811061066957610668611725565b5b905f5260205f2090600202016040518060400160405290815f8201805461068f906117fc565b80601f01602080910402602001604051908101604052809291908181526020018280546106bb906117fc565b80156107065780601f106106dd57610100808354040283529160200191610706565b820191905f5260205f20905b8154815290600101906020018083116106e957829003601f168201915b5050505050815260200160018201548152505091505090565b610727610ef1565b600380600581111561073c5761073b611560565b5b60025f9054906101000a900460ff16600581111561075d5761075c611560565b5b1461079d576040517f08c379a0000000000000000000000000000000000000000000000000000000008152600401610794906115d7565b60405180910390fd5b6107a76004610f78565b50565b6107b2610ef1565b60048060058111156107c7576107c6611560565b5b60025f9054906101000a900460ff1660058111156107e8576107e7611560565b5b14610828576040517f08c379a000000000000000000000000000000000000000000000000000000000815260040161081f906115d7565b60405180910390fd5b5f5f90505f5f90505f5f90505b6004805490508110156108eb57826004828154811061085757610856611725565b5b905f5260205f2090600202016001015411156108ae576004818154811061088157610880611725565b5b905f5260205f2090600202016001015492506001816108a0919061182c565b6001819055505f91506108de565b82600482815481106108c3576108c2611725565b5b905f5260205f20906002020160010154036108dd57600191505b5b8080600101915050610835565b50801561092d576040517f08c379a0000000000000000000000000000000000000000000000000000000008152600401610924906118a9565b60405180910390fd5b6109376005610f78565b505050565b610944610ef1565b5f80600581111561095857610957611560565b5b60025f9054906101000a900460ff16600581111561097957610978611560565b5b146109b9576040517f08c379a00000000000000000000000000000000000000000000000000000000081526004016109b0906115d7565b60405180910390fd5b815f73ffffffffffffffffffffffffffffffffffffffff168173ffffffffffffffffffffffffffffffffffffffff1603610a28576040517f08c379a0000000000000000000000000000000000000000000000000000000008152600401610a1f906114da565b60405180910390fd5b60035f8473ffffffffffffffffffffffffffffffffffffffff1673ffffffffffffffffffffffffffffffffffffffff1681526020019081526020015f205f015f9054906101000a900460ff1615610ab4576040517f08c379a0000000000000000000000000000000000000000000000000000000008152600401610aab90611911565b60405180910390fd5b600160035f8573ffffffffffffffffffffffffffffffffffffffff1673ffffffffffffffffffffffffffffffffffffffff1681526020019081526020015f205f015f6101000a81548160ff0219169083151502179055507fb6be2187d059cc2a55fe29e0e503b566e1e0f8c8780096e185429350acffd3dd83604051610b3a91906111b7565b60405180910390a1505050565b610b4f610ef1565b5f806005811115610b6357610b62611560565b5b60025f9054906101000a900460ff166005811115610b8457610b83611560565b5b14610bc4576040517f08c379a0000000000000000000000000000000000000000000000000000000008152600401610bbb906115d7565b60405180910390fd5b610bce6001610f78565b50565b815f73ffffffffffffffffffffffffffffffffffffffff168173ffffffffffffffffffffffffffffffffffffffff1603610c40576040517f08c379a0000000000000000000000000000000000000000000000000000000008152600401610c37906114da565b60405180910390fd5b8260035f8273ffffffffffffffffffffffffffffffffffffffff1673ffffffffffffffffffffffffffffffffffffffff1681526020019081526020015f205f015f9054906101000a900460ff16610ccc576040517f08c379a0000000000000000000000000000000000000000000000000000000008152600401610cc390611542565b60405180910390fd5b6001806005811115610ce157610ce0611560565b5b60025f9054906101000a900460ff166005811115610d0257610d01611560565b5b14610d42576040517f08c379a0000000000000000000000000000000000000000000000000000000008152600401610d39906115d7565b60405180910390fd5b600460405180604001604052808681526020015f815250908060018154018082558091505060019003905f5260205f2090600202015f909190919091505f820151815f019081610d929190611acf565b506020820151816001015550507f92e393e9b54e2f801d3ea4beb0c5e71a21cc34a5d34b77d0fb8a3aa1650dc18f600480549050604051610dd39190611b9e565b60405180910390a15050505050565b610dea610ef1565b6002806005811115610dff57610dfe611560565b5b60025f9054906101000a900460ff166005811115610e2057610e1f611560565b5b14610e60576040517f08c379a0000000000000000000000000000000000000000000000000000000008152600401610e57906115d7565b60405180910390fd5b610e6a6003610f78565b50565b610e75610ef1565b5f73ffffffffffffffffffffffffffffffffffffffff168173ffffffffffffffffffffffffffffffffffffffff1603610ee5575f6040517f1e4fbdf7000000000000000000000000000000000000000000000000000000008152600401610edc91906111b7565b60405180910390fd5b610eee81610feb565b50565b610ef96110ac565b73ffffffffffffffffffffffffffffffffffffffff16610f176105a3565b73ffffffffffffffffffffffffffffffffffffffff1614610f7657610f3a6110ac565b6040517f118cdaa7000000000000000000000000000000000000000000000000000000008152600401610f6d91906111b7565b60405180910390fd5b565b7f0a97a4ee45751e2abf3e4fc8946939630b11b371ea8ae39ccdc3056e98f5cc3f60025f9054906101000a900460ff1682604051610fb7929190611bfd565b60405180910390a18060025f6101000a81548160ff02191690836005811115610fe357610fe2611560565b5b021790555050565b5f5f5f9054906101000a900473ffffffffffffffffffffffffffffffffffffffff169050815f5f6101000a81548173ffffffffffffffffffffffffffffffffffffffff021916908373ffffffffffffffffffffffffffffffffffffffff1602179055508173ffffffffffffffffffffffffffffffffffffffff168173ffffffffffffffffffffffffffffffffffffffff167f8be0079c531659141344cd1fd0a4f28419497f9722a3daafe3b4186f6b6457e060405160405180910390a35050565b5f33905090565b6040518060400160405280606081526020015f81525090565b5f604051905090565b5f5ffd5b5f5ffd5b5f73ffffffffffffffffffffffffffffffffffffffff82169050919050565b5f611106826110dd565b9050919050565b611116816110fc565b8114611120575f5ffd5b50565b5f813590506111318161110d565b92915050565b5f819050919050565b61114981611137565b8114611153575f5ffd5b50565b5f8135905061116481611140565b92915050565b5f5f604083850312156111805761117f6110d5565b5b5f61118d85828601611123565b925050602061119e85828601611156565b9150509250929050565b6111b1816110fc565b82525050565b5f6020820190506111ca5f8301846111a8565b92915050565b5f81519050919050565b5f82825260208201905092915050565b8281835e5f83830152505050565b5f601f19601f8301169050919050565b5f611212826111d0565b61121c81856111da565b935061122c8185602086016111ea565b611235816111f8565b840191505092915050565b61124981611137565b82525050565b5f604083015f8301518482035f8601526112698282611208565b915050602083015161127e6020860182611240565b508091505092915050565b5f6020820190508181035f8301526112a1818461124f565b905092915050565b5f602082840312156112be576112bd6110d5565b5b5f6112cb84828501611123565b91505092915050565b5f5ffd5b5f5ffd5b7f4e487b71000000000000000000000000000000000000000000000000000000005f52604160045260245ffd5b611312826111f8565b810181811067ffffffffffffffff82111715611331576113306112dc565b5b80604052505050565b5f6113436110cc565b905061134f8282611309565b919050565b5f67ffffffffffffffff82111561136e5761136d6112dc565b5b611377826111f8565b9050602081019050919050565b828183375f83830152505050565b5f6113a461139f84611354565b61133a565b9050828152602081018484840111156113c0576113bf6112d8565b5b6113cb848285611384565b509392505050565b5f82601f8301126113e7576113e66112d4565b5b81356113f7848260208601611392565b91505092915050565b5f5f60408385031215611416576114156110d5565b5b5f61142385828601611123565b925050602083013567ffffffffffffffff811115611444576114436110d9565b5b611450858286016113d3565b9150509250929050565b5f82825260208201905092915050565b7f416464726573732063616e6e6f7420626520746865207a65726f2061646472655f8201527f7373000000000000000000000000000000000000000000000000000000000000602082015250565b5f6114c460228361145a565b91506114cf8261146a565b604082019050919050565b5f6020820190508181035f8301526114f1816114b8565b9050919050565b7f566f746572206973206e6f7420726567697374657265640000000000000000005f82015250565b5f61152c60178361145a565b9150611537826114f8565b602082019050919050565b5f6020820190508181035f83015261155981611520565b9050919050565b7f4e487b71000000000000000000000000000000000000000000000000000000005f52602160045260245ffd5b7f496e76616c696420776f726b666c6f77207374617475730000000000000000005f82015250565b5f6115c160178361145a565b91506115cc8261158d565b602082019050919050565b5f6020820190508181035f8301526115ee816115b5565b9050919050565b7f566f7465722068617320616c726561647920766f7465640000000000000000005f82015250565b5f61162960178361145a565b9150611634826115f5565b602082019050919050565b5f6020820190508181035f8301526116568161161d565b9050919050565b7f496e76616c69642070726f706f73616c206964000000000000000000000000005f82015250565b5f61169160138361145a565b915061169c8261165d565b602082019050919050565b5f6020820190508181035f8301526116be81611685565b9050919050565b7f4e487b71000000000000000000000000000000000000000000000000000000005f52601160045260245ffd5b5f6116fc82611137565b915061170783611137565b925082820390508181111561171f5761171e6116c5565b5b92915050565b7f4e487b71000000000000000000000000000000000000000000000000000000005f52603260045260245ffd5b5f61175c82611137565b91507fffffffffffffffffffffffffffffffffffffffffffffffffffffffffffffffff820361178e5761178d6116c5565b5b600182019050919050565b6117a281611137565b82525050565b5f6040820190506117bb5f8301856111a8565b6117c86020830184611799565b9392505050565b7f4e487b71000000000000000000000000000000000000000000000000000000005f52602260045260245ffd5b5f600282049050600182168061181357607f821691505b602082108103611826576118256117cf565b5b50919050565b5f61183682611137565b915061184183611137565b9250828201905080821115611859576118586116c5565b5b92915050565b7f54686572652069732061207469652021000000000000000000000000000000005f82015250565b5f61189360108361145a565b915061189e8261185f565b602082019050919050565b5f6020820190508181035f8301526118c081611887565b9050919050565b7f616c726561647920696e207468652077686974656c69737400000000000000005f82015250565b5f6118fb60188361145a565b9150611906826118c7565b602082019050919050565b5f6020820190508181035f830152611928816118ef565b9050919050565b5f819050815f5260205f209050919050565b5f6020601f8301049050919050565b5f82821b905092915050565b5f6008830261198b7fffffffffffffffffffffffffffffffffffffffffffffffffffffffffffffffff82611950565b6119958683611950565b95508019841693508086168417925050509392505050565b5f819050919050565b5f6119d06119cb6119c684611137565b6119ad565b611137565b9050919050565b5f819050919050565b6119e9836119b6565b6119fd6119f5826119d7565b84845461195c565b825550505050565b5f5f905090565b611a14611a05565b611a1f8184846119e0565b505050565b5b81811015611a4257611a375f82611a0c565b600181019050611a25565b5050565b601f821115611a8757611a588161192f565b611a6184611941565b81016020851015611a70578190505b611a84611a7c85611941565b830182611a24565b50505b505050565b5f82821c905092915050565b5f611aa75f1984600802611a8c565b1980831691505092915050565b5f611abf8383611a98565b9150826002028217905092915050565b611ad8826111d0565b67ffffffffffffffff811115611af157611af06112dc565b5b611afb82546117fc565b611b06828285611a46565b5f60209050601f831160018114611b37575f8415611b25578287015190505b611b2f8582611ab4565b865550611b96565b601f198416611b458661192f565b5f5b82811015611b6c57848901518255600182019150602085019450602081019050611b47565b86831015611b895784890151611b85601f891682611a98565b8355505b6001600288020188555050505b505050505050565b5f602082019050611bb15f830184611799565b92915050565b60068110611bc857611bc7611560565b5b50565b5f819050611bd882611bb7565b919050565b5f611be782611bcb565b9050919050565b611bf781611bdd565b82525050565b5f604082019050611c105f830185611bee565b611c1d6020830184611bee565b939250505056fea264697066735822122019fc5ad1cbf8db0f187607a1c3ce922f70106c0cab9c5752bc6251849db4a6b664736f6c634300081c0033",
					"opcodes": "PUSH1 0x80 PUSH1 0x40 MSTORE CALLVALUE DUP1 ISZERO PUSH2 0xF JUMPI PUSH0 PUSH0 REVERT JUMPDEST POP CALLER PUSH0 PUSH20 0xFFFFFFFFFFFFFFFFFFFFFFFFFFFFFFFFFFFFFFFF AND DUP2 PUSH20 0xFFFFFFFFFFFFFFFFFFFFFFFFFFFFFFFFFFFFFFFF AND SUB PUSH2 0x81 JUMPI PUSH0 PUSH1 0x40 MLOAD PUSH32 0x1E4FBDF700000000000000000000000000000000000000000000000000000000 DUP2 MSTORE PUSH1 0x4 ADD PUSH2 0x78 SWAP2 SWAP1 PUSH2 0x224 JUMP JUMPDEST PUSH1 0x40 MLOAD DUP1 SWAP2 SUB SWAP1 REVERT JUMPDEST PUSH2 0x90 DUP2 PUSH2 0x124 PUSH1 0x20 SHL PUSH1 0x20 SHR JUMP JUMPDEST POP PUSH1 0x1 PUSH1 0x3 PUSH0 CALLER PUSH20 0xFFFFFFFFFFFFFFFFFFFFFFFFFFFFFFFFFFFFFFFF AND PUSH20 0xFFFFFFFFFFFFFFFFFFFFFFFFFFFFFFFFFFFFFFFF AND DUP2 MSTORE PUSH1 0x20 ADD SWAP1 DUP2 MSTORE PUSH1 0x20 ADD PUSH0 KECCAK256 PUSH0 ADD PUSH0 PUSH2 0x100 EXP DUP2 SLOAD DUP2 PUSH1 0xFF MUL NOT AND SWAP1 DUP4 ISZERO ISZERO MUL OR SWAP1 SSTORE POP PUSH32 0xB6BE2187D059CC2A55FE29E0E503B566E1E0F8C8780096E185429350ACFFD3DD CALLER PUSH1 0x40 MLOAD PUSH2 0x117 SWAP2 SWAP1 PUSH2 0x224 JUMP JUMPDEST PUSH1 0x40 MLOAD DUP1 SWAP2 SUB SWAP1 LOG1 PUSH2 0x23D JUMP JUMPDEST PUSH0 PUSH0 PUSH0 SWAP1 SLOAD SWAP1 PUSH2 0x100 EXP SWAP1 DIV PUSH20 0xFFFFFFFFFFFFFFFFFFFFFFFFFFFFFFFFFFFFFFFF AND SWAP1 POP DUP2 PUSH0 PUSH0 PUSH2 0x100 EXP DUP2 SLOAD DUP2 PUSH20 0xFFFFFFFFFFFFFFFFFFFFFFFFFFFFFFFFFFFFFFFF MUL NOT AND SWAP1 DUP4 PUSH20 0xFFFFFFFFFFFFFFFFFFFFFFFFFFFFFFFFFFFFFFFF AND MUL OR SWAP1 SSTORE POP DUP2 PUSH20 0xFFFFFFFFFFFFFFFFFFFFFFFFFFFFFFFFFFFFFFFF AND DUP2 PUSH20 0xFFFFFFFFFFFFFFFFFFFFFFFFFFFFFFFFFFFFFFFF AND PUSH32 0x8BE0079C531659141344CD1FD0A4F28419497F9722A3DAAFE3B4186F6B6457E0 PUSH1 0x40 MLOAD PUSH1 0x40 MLOAD DUP1 SWAP2 SUB SWAP1 LOG3 POP POP JUMP JUMPDEST PUSH0 PUSH20 0xFFFFFFFFFFFFFFFFFFFFFFFFFFFFFFFFFFFFFFFF DUP3 AND SWAP1 POP SWAP2 SWAP1 POP JUMP JUMPDEST PUSH0 PUSH2 0x20E DUP3 PUSH2 0x1E5 JUMP JUMPDEST SWAP1 POP SWAP2 SWAP1 POP JUMP JUMPDEST PUSH2 0x21E DUP2 PUSH2 0x204 JUMP JUMPDEST DUP3 MSTORE POP POP JUMP JUMPDEST PUSH0 PUSH1 0x20 DUP3 ADD SWAP1 POP PUSH2 0x237 PUSH0 DUP4 ADD DUP5 PUSH2 0x215 JUMP JUMPDEST SWAP3 SWAP2 POP POP JUMP JUMPDEST PUSH2 0x1C5A DUP1 PUSH2 0x24A PUSH0 CODECOPY PUSH0 RETURN INVALID PUSH1 0x80 PUSH1 0x40 MSTORE CALLVALUE DUP1 ISZERO PUSH2 0xF JUMPI PUSH0 PUSH0 REVERT JUMPDEST POP PUSH1 0x4 CALLDATASIZE LT PUSH2 0xB2 JUMPI PUSH0 CALLDATALOAD PUSH1 0xE0 SHR DUP1 PUSH4 0xB647990A GT PUSH2 0x6F JUMPI DUP1 PUSH4 0xB647990A EQ PUSH2 0x12C JUMPI DUP1 PUSH4 0xB6A5D7DE EQ PUSH2 0x136 JUMPI DUP1 PUSH4 0xE09B8C79 EQ PUSH2 0x152 JUMPI DUP1 PUSH4 0xE5349FE8 EQ PUSH2 0x15C JUMPI DUP1 PUSH4 0xEE74C678 EQ PUSH2 0x178 JUMPI DUP1 PUSH4 0xF2FDE38B EQ PUSH2 0x182 JUMPI PUSH2 0xB2 JUMP JUMPDEST DUP1 PUSH4 0x4E3C118E EQ PUSH2 0xB6 JUMPI DUP1 PUSH4 0x6C297445 EQ PUSH2 0xD2 JUMPI DUP1 PUSH4 0x715018A6 EQ PUSH2 0xDC JUMPI DUP1 PUSH4 0x8DA5CB5B EQ PUSH2 0xE6 JUMPI DUP1 PUSH4 0x8E7EA5B2 EQ PUSH2 0x104 JUMPI DUP1 PUSH4 0xA7BFAB16 EQ PUSH2 0x122 JUMPI JUMPDEST PUSH0 PUSH0 REVERT JUMPDEST PUSH2 0xD0 PUSH1 0x4 DUP1 CALLDATASIZE SUB DUP2 ADD SWAP1 PUSH2 0xCB SWAP2 SWAP1 PUSH2 0x116A JUMP JUMPDEST PUSH2 0x19E JUMP JUMPDEST STOP JUMPDEST PUSH2 0xDA PUSH2 0x505 JUMP JUMPDEST STOP JUMPDEST PUSH2 0xE4 PUSH2 0x590 JUMP JUMPDEST STOP JUMPDEST PUSH2 0xEE PUSH2 0x5A3 JUMP JUMPDEST PUSH1 0x40 MLOAD PUSH2 0xFB SWAP2 SWAP1 PUSH2 0x11B7 JUMP JUMPDEST PUSH1 0x40 MLOAD DUP1 SWAP2 SUB SWAP1 RETURN JUMPDEST PUSH2 0x10C PUSH2 0x5CA JUMP JUMPDEST PUSH1 0x40 MLOAD PUSH2 0x119 SWAP2 SWAP1 PUSH2 0x1289 JUMP JUMPDEST PUSH1 0x40 MLOAD DUP1 SWAP2 SUB SWAP1 RETURN JUMPDEST PUSH2 0x12A PUSH2 0x71F JUMP JUMPDEST STOP JUMPDEST PUSH2 0x134 PUSH2 0x7AA JUMP JUMPDEST STOP JUMPDEST PUSH2 0x150 PUSH1 0x4 DUP1 CALLDATASIZE SUB DUP2 ADD SWAP1 PUSH2 0x14B SWAP2 SWAP1 PUSH2 0x12A9 JUMP JUMPDEST PUSH2 0x93C JUMP JUMPDEST STOP JUMPDEST PUSH2 0x15A PUSH2 0xB47 JUMP JUMPDEST STOP JUMPDEST PUSH2 0x176 PUSH1 0x4 DUP1 CALLDATASIZE SUB DUP2 ADD SWAP1 PUSH2 0x171 SWAP2 SWAP1 PUSH2 0x1400 JUMP JUMPDEST PUSH2 0xBD1 JUMP JUMPDEST STOP JUMPDEST PUSH2 0x180 PUSH2 0xDE2 JUMP JUMPDEST STOP JUMPDEST PUSH2 0x19C PUSH1 0x4 DUP1 CALLDATASIZE SUB DUP2 ADD SWAP1 PUSH2 0x197 SWAP2 SWAP1 PUSH2 0x12A9 JUMP JUMPDEST PUSH2 0xE6D JUMP JUMPDEST STOP JUMPDEST DUP2 PUSH0 PUSH20 0xFFFFFFFFFFFFFFFFFFFFFFFFFFFFFFFFFFFFFFFF AND DUP2 PUSH20 0xFFFFFFFFFFFFFFFFFFFFFFFFFFFFFFFFFFFFFFFF AND SUB PUSH2 0x20D JUMPI PUSH1 0x40 MLOAD PUSH32 0x8C379A000000000000000000000000000000000000000000000000000000000 DUP2 MSTORE PUSH1 0x4 ADD PUSH2 0x204 SWAP1 PUSH2 0x14DA JUMP JUMPDEST PUSH1 0x40 MLOAD DUP1 SWAP2 SUB SWAP1 REVERT JUMPDEST DUP3 PUSH1 0x3 PUSH0 DUP3 PUSH20 0xFFFFFFFFFFFFFFFFFFFFFFFFFFFFFFFFFFFFFFFF AND PUSH20 0xFFFFFFFFFFFFFFFFFFFFFFFFFFFFFFFFFFFFFFFF AND DUP2 MSTORE PUSH1 0x20 ADD SWAP1 DUP2 MSTORE PUSH1 0x20 ADD PUSH0 KECCAK256 PUSH0 ADD PUSH0 SWAP1 SLOAD SWAP1 PUSH2 0x100 EXP SWAP1 DIV PUSH1 0xFF AND PUSH2 0x299 JUMPI PUSH1 0x40 MLOAD PUSH32 0x8C379A000000000000000000000000000000000000000000000000000000000 DUP2 MSTORE PUSH1 0x4 ADD PUSH2 0x290 SWAP1 PUSH2 0x1542 JUMP JUMPDEST PUSH1 0x40 MLOAD DUP1 SWAP2 SUB SWAP1 REVERT JUMPDEST PUSH1 0x3 DUP1 PUSH1 0x5 DUP2 GT ISZERO PUSH2 0x2AE JUMPI PUSH2 0x2AD PUSH2 0x1560 JUMP JUMPDEST JUMPDEST PUSH1 0x2 PUSH0 SWAP1 SLOAD SWAP1 PUSH2 0x100 EXP SWAP1 DIV PUSH1 0xFF AND PUSH1 0x5 DUP2 GT ISZERO PUSH2 0x2CF JUMPI PUSH2 0x2CE PUSH2 0x1560 JUMP JUMPDEST JUMPDEST EQ PUSH2 0x30F JUMPI PUSH1 0x40 MLOAD PUSH32 0x8C379A000000000000000000000000000000000000000000000000000000000 DUP2 MSTORE PUSH1 0x4 ADD PUSH2 0x306 SWAP1 PUSH2 0x15D7 JUMP JUMPDEST PUSH1 0x40 MLOAD DUP1 SWAP2 SUB SWAP1 REVERT JUMPDEST PUSH1 0x3 PUSH0 DUP7 PUSH20 0xFFFFFFFFFFFFFFFFFFFFFFFFFFFFFFFFFFFFFFFF AND PUSH20 0xFFFFFFFFFFFFFFFFFFFFFFFFFFFFFFFFFFFFFFFF AND DUP2 MSTORE PUSH1 0x20 ADD SWAP1 DUP2 MSTORE PUSH1 0x20 ADD PUSH0 KECCAK256 PUSH0 ADD PUSH1 0x1 SWAP1 SLOAD SWAP1 PUSH2 0x100 EXP SWAP1 DIV PUSH1 0xFF AND ISZERO PUSH2 0x39C JUMPI PUSH1 0x40 MLOAD PUSH32 0x8C379A000000000000000000000000000000000000000000000000000000000 DUP2 MSTORE PUSH1 0x4 ADD PUSH2 0x393 SWAP1 PUSH2 0x163F JUMP JUMPDEST PUSH1 0x40 MLOAD DUP1 SWAP2 SUB SWAP1 REVERT JUMPDEST PUSH1 0x4 DUP1 SLOAD SWAP1 POP DUP5 GT ISZERO PUSH2 0x3E4 JUMPI PUSH1 0x40 MLOAD PUSH32 0x8C379A000000000000000000000000000000000000000000000000000000000 DUP2 MSTORE PUSH1 0x4 ADD PUSH2 0x3DB SWAP1 PUSH2 0x16A7 JUMP JUMPDEST PUSH1 0x40 MLOAD DUP1 SWAP2 SUB SWAP1 REVERT JUMPDEST PUSH1 0x1 PUSH1 0x3 PUSH0 DUP8 PUSH20 0xFFFFFFFFFFFFFFFFFFFFFFFFFFFFFFFFFFFFFFFF AND PUSH20 0xFFFFFFFFFFFFFFFFFFFFFFFFFFFFFFFFFFFFFFFF AND DUP2 MSTORE PUSH1 0x20 ADD SWAP1 DUP2 MSTORE PUSH1 0x20 ADD PUSH0 KECCAK256 PUSH0 ADD PUSH1 0x1 PUSH2 0x100 EXP DUP2 SLOAD DUP2 PUSH1 0xFF MUL NOT AND SWAP1 DUP4 ISZERO ISZERO MUL OR SWAP1 SSTORE POP DUP4 PUSH1 0x3 PUSH0 DUP8 PUSH20 0xFFFFFFFFFFFFFFFFFFFFFFFFFFFFFFFFFFFFFFFF AND PUSH20 0xFFFFFFFFFFFFFFFFFFFFFFFFFFFFFFFFFFFFFFFF AND DUP2 MSTORE PUSH1 0x20 ADD SWAP1 DUP2 MSTORE PUSH1 0x20 ADD PUSH0 KECCAK256 PUSH1 0x1 ADD DUP2 SWAP1 SSTORE POP PUSH1 0x4 PUSH1 0x1 DUP6 PUSH2 0x490 SWAP2 SWAP1 PUSH2 0x16F2 JUMP JUMPDEST DUP2 SLOAD DUP2 LT PUSH2 0x4A1 JUMPI PUSH2 0x4A0 PUSH2 0x1725 JUMP JUMPDEST JUMPDEST SWAP1 PUSH0 MSTORE PUSH1 0x20 PUSH0 KECCAK256 SWAP1 PUSH1 0x2 MUL ADD PUSH1 0x1 ADD PUSH0 DUP2 SLOAD DUP1 SWAP3 SWAP2 SWAP1 PUSH2 0x4C0 SWAP1 PUSH2 0x1752 JUMP JUMPDEST SWAP2 SWAP1 POP SSTORE POP PUSH32 0x4D99B957A2BC29A30EBD96A7BE8E68FE50A3C701DB28A91436490B7D53870CA4 DUP6 DUP6 PUSH1 0x40 MLOAD PUSH2 0x4F6 SWAP3 SWAP2 SWAP1 PUSH2 0x17A8 JUMP JUMPDEST PUSH1 0x40 MLOAD DUP1 SWAP2 SUB SWAP1 LOG1 POP POP POP POP POP JUMP JUMPDEST PUSH2 0x50D PUSH2 0xEF1 JUMP JUMPDEST PUSH1 0x1 DUP1 PUSH1 0x5 DUP2 GT ISZERO PUSH2 0x522 JUMPI PUSH2 0x521 PUSH2 0x1560 JUMP JUMPDEST JUMPDEST PUSH1 0x2 PUSH0 SWAP1 SLOAD SWAP1 PUSH2 0x100 EXP SWAP1 DIV PUSH1 0xFF AND PUSH1 0x5 DUP2 GT ISZERO PUSH2 0x543 JUMPI PUSH2 0x542 PUSH2 0x1560 JUMP JUMPDEST JUMPDEST EQ PUSH2 0x583 JUMPI PUSH1 0x40 MLOAD PUSH32 0x8C379A000000000000000000000000000000000000000000000000000000000 DUP2 MSTORE PUSH1 0x4 ADD PUSH2 0x57A SWAP1 PUSH2 0x15D7 JUMP JUMPDEST PUSH1 0x40 MLOAD DUP1 SWAP2 SUB SWAP1 REVERT JUMPDEST PUSH2 0x58D PUSH1 0x2 PUSH2 0xF78 JUMP JUMPDEST POP JUMP JUMPDEST PUSH2 0x598 PUSH2 0xEF1 JUMP JUMPDEST PUSH2 0x5A1 PUSH0 PUSH2 0xFEB JUMP JUMPDEST JUMP JUMPDEST PUSH0 PUSH0 PUSH0 SWAP1 SLOAD SWAP1 PUSH2 0x100 EXP SWAP1 DIV PUSH20 0xFFFFFFFFFFFFFFFFFFFFFFFFFFFFFFFFFFFFFFFF AND SWAP1 POP SWAP1 JUMP JUMPDEST PUSH2 0x5D2 PUSH2 0x10B3 JUMP JUMPDEST PUSH1 0x5 DUP1 PUSH1 0x5 DUP2 GT ISZERO PUSH2 0x5E7 JUMPI PUSH2 0x5E6 PUSH2 0x1560 JUMP JUMPDEST JUMPDEST PUSH1 0x2 PUSH0 SWAP1 SLOAD SWAP1 PUSH2 0x100 EXP SWAP1 DIV PUSH1 0xFF AND PUSH1 0x5 DUP2 GT ISZERO PUSH2 0x608 JUMPI PUSH2 0x607 PUSH2 0x1560 JUMP JUMPDEST JUMPDEST EQ PUSH2 0x648 JUMPI PUSH1 0x40 MLOAD PUSH32 0x8C379A000000000000000000000000000000000000000000000000000000000 DUP2 MSTORE PUSH1 0x4 ADD PUSH2 0x63F SWAP1 PUSH2 0x15D7 JUMP JUMPDEST PUSH1 0x40 MLOAD DUP1 SWAP2 SUB SWAP1 REVERT JUMPDEST PUSH1 0x4 PUSH1 0x1 DUP1 SLOAD PUSH2 0x658 SWAP2 SWAP1 PUSH2 0x16F2 JUMP JUMPDEST DUP2 SLOAD DUP2 LT PUSH2 0x669 JUMPI PUSH2 0x668 PUSH2 0x1725 JUMP JUMPDEST JUMPDEST SWAP1 PUSH0 MSTORE PUSH1 0x20 PUSH0 KECCAK256 SWAP1 PUSH1 0x2 MUL ADD PUSH1 0x40 MLOAD DUP1 PUSH1 0x40 ADD PUSH1 0x40 MSTORE SWAP1 DUP2 PUSH0 DUP3 ADD DUP1 SLOAD PUSH2 0x68F SWAP1 PUSH2 0x17FC JUMP JUMPDEST DUP1 PUSH1 0x1F ADD PUSH1 0x20 DUP1 SWAP2 DIV MUL PUSH1 0x20 ADD PUSH1 0x40 MLOAD SWAP1 DUP2 ADD PUSH1 0x40 MSTORE DUP1 SWAP3 SWAP2 SWAP1 DUP2 DUP2 MSTORE PUSH1 0x20 ADD DUP3 DUP1 SLOAD PUSH2 0x6BB SWAP1 PUSH2 0x17FC JUMP JUMPDEST DUP1 ISZERO PUSH2 0x706 JUMPI DUP1 PUSH1 0x1F LT PUSH2 0x6DD JUMPI PUSH2 0x100 DUP1 DUP4 SLOAD DIV MUL DUP4 MSTORE SWAP2 PUSH1 0x20 ADD SWAP2 PUSH2 0x706 JUMP JUMPDEST DUP3 ADD SWAP2 SWAP1 PUSH0 MSTORE PUSH1 0x20 PUSH0 KECCAK256 SWAP1 JUMPDEST DUP2 SLOAD DUP2 MSTORE SWAP1 PUSH1 0x1 ADD SWAP1 PUSH1 0x20 ADD DUP1 DUP4 GT PUSH2 0x6E9 JUMPI DUP3 SWAP1 SUB PUSH1 0x1F AND DUP3 ADD SWAP2 JUMPDEST POP POP POP POP POP DUP2 MSTORE PUSH1 0x20 ADD PUSH1 0x1 DUP3 ADD SLOAD DUP2 MSTORE POP POP SWAP2 POP POP SWAP1 JUMP JUMPDEST PUSH2 0x727 PUSH2 0xEF1 JUMP JUMPDEST PUSH1 0x3 DUP1 PUSH1 0x5 DUP2 GT ISZERO PUSH2 0x73C JUMPI PUSH2 0x73B PUSH2 0x1560 JUMP JUMPDEST JUMPDEST PUSH1 0x2 PUSH0 SWAP1 SLOAD SWAP1 PUSH2 0x100 EXP SWAP1 DIV PUSH1 0xFF AND PUSH1 0x5 DUP2 GT ISZERO PUSH2 0x75D JUMPI PUSH2 0x75C PUSH2 0x1560 JUMP JUMPDEST JUMPDEST EQ PUSH2 0x79D JUMPI PUSH1 0x40 MLOAD PUSH32 0x8C379A000000000000000000000000000000000000000000000000000000000 DUP2 MSTORE PUSH1 0x4 ADD PUSH2 0x794 SWAP1 PUSH2 0x15D7 JUMP JUMPDEST PUSH1 0x40 MLOAD DUP1 SWAP2 SUB SWAP1 REVERT JUMPDEST PUSH2 0x7A7 PUSH1 0x4 PUSH2 0xF78 JUMP JUMPDEST POP JUMP JUMPDEST PUSH2 0x7B2 PUSH2 0xEF1 JUMP JUMPDEST PUSH1 0x4 DUP1 PUSH1 0x5 DUP2 GT ISZERO PUSH2 0x7C7 JUMPI PUSH2 0x7C6 PUSH2 0x1560 JUMP JUMPDEST JUMPDEST PUSH1 0x2 PUSH0 SWAP1 SLOAD SWAP1 PUSH2 0x100 EXP SWAP1 DIV PUSH1 0xFF AND PUSH1 0x5 DUP2 GT ISZERO PUSH2 0x7E8 JUMPI PUSH2 0x7E7 PUSH2 0x1560 JUMP JUMPDEST JUMPDEST EQ PUSH2 0x828 JUMPI PUSH1 0x40 MLOAD PUSH32 0x8C379A000000000000000000000000000000000000000000000000000000000 DUP2 MSTORE PUSH1 0x4 ADD PUSH2 0x81F SWAP1 PUSH2 0x15D7 JUMP JUMPDEST PUSH1 0x40 MLOAD DUP1 SWAP2 SUB SWAP1 REVERT JUMPDEST PUSH0 PUSH0 SWAP1 POP PUSH0 PUSH0 SWAP1 POP PUSH0 PUSH0 SWAP1 POP JUMPDEST PUSH1 0x4 DUP1 SLOAD SWAP1 POP DUP2 LT ISZERO PUSH2 0x8EB JUMPI DUP3 PUSH1 0x4 DUP3 DUP2 SLOAD DUP2 LT PUSH2 0x857 JUMPI PUSH2 0x856 PUSH2 0x1725 JUMP JUMPDEST JUMPDEST SWAP1 PUSH0 MSTORE PUSH1 0x20 PUSH0 KECCAK256 SWAP1 PUSH1 0x2 MUL ADD PUSH1 0x1 ADD SLOAD GT ISZERO PUSH2 0x8AE JUMPI PUSH1 0x4 DUP2 DUP2 SLOAD DUP2 LT PUSH2 0x881 JUMPI PUSH2 0x880 PUSH2 0x1725 JUMP JUMPDEST JUMPDEST SWAP1 PUSH0 MSTORE PUSH1 0x20 PUSH0 KECCAK256 SWAP1 PUSH1 0x2 MUL ADD PUSH1 0x1 ADD SLOAD SWAP3 POP PUSH1 0x1 DUP2 PUSH2 0x8A0 SWAP2 SWAP1 PUSH2 0x182C JUMP JUMPDEST PUSH1 0x1 DUP2 SWAP1 SSTORE POP PUSH0 SWAP2 POP PUSH2 0x8DE JUMP JUMPDEST DUP3 PUSH1 0x4 DUP3 DUP2 SLOAD DUP2 LT PUSH2 0x8C3 JUMPI PUSH2 0x8C2 PUSH2 0x1725 JUMP JUMPDEST JUMPDEST SWAP1 PUSH0 MSTORE PUSH1 0x20 PUSH0 KECCAK256 SWAP1 PUSH1 0x2 MUL ADD PUSH1 0x1 ADD SLOAD SUB PUSH2 0x8DD JUMPI PUSH1 0x1 SWAP2 POP JUMPDEST JUMPDEST DUP1 DUP1 PUSH1 0x1 ADD SWAP2 POP POP PUSH2 0x835 JUMP JUMPDEST POP DUP1 ISZERO PUSH2 0x92D JUMPI PUSH1 0x40 MLOAD PUSH32 0x8C379A000000000000000000000000000000000000000000000000000000000 DUP2 MSTORE PUSH1 0x4 ADD PUSH2 0x924 SWAP1 PUSH2 0x18A9 JUMP JUMPDEST PUSH1 0x40 MLOAD DUP1 SWAP2 SUB SWAP1 REVERT JUMPDEST PUSH2 0x937 PUSH1 0x5 PUSH2 0xF78 JUMP JUMPDEST POP POP POP JUMP JUMPDEST PUSH2 0x944 PUSH2 0xEF1 JUMP JUMPDEST PUSH0 DUP1 PUSH1 0x5 DUP2 GT ISZERO PUSH2 0x958 JUMPI PUSH2 0x957 PUSH2 0x1560 JUMP JUMPDEST JUMPDEST PUSH1 0x2 PUSH0 SWAP1 SLOAD SWAP1 PUSH2 0x100 EXP SWAP1 DIV PUSH1 0xFF AND PUSH1 0x5 DUP2 GT ISZERO PUSH2 0x979 JUMPI PUSH2 0x978 PUSH2 0x1560 JUMP JUMPDEST JUMPDEST EQ PUSH2 0x9B9 JUMPI PUSH1 0x40 MLOAD PUSH32 0x8C379A000000000000000000000000000000000000000000000000000000000 DUP2 MSTORE PUSH1 0x4 ADD PUSH2 0x9B0 SWAP1 PUSH2 0x15D7 JUMP JUMPDEST PUSH1 0x40 MLOAD DUP1 SWAP2 SUB SWAP1 REVERT JUMPDEST DUP2 PUSH0 PUSH20 0xFFFFFFFFFFFFFFFFFFFFFFFFFFFFFFFFFFFFFFFF AND DUP2 PUSH20 0xFFFFFFFFFFFFFFFFFFFFFFFFFFFFFFFFFFFFFFFF AND SUB PUSH2 0xA28 JUMPI PUSH1 0x40 MLOAD PUSH32 0x8C379A000000000000000000000000000000000000000000000000000000000 DUP2 MSTORE PUSH1 0x4 ADD PUSH2 0xA1F SWAP1 PUSH2 0x14DA JUMP JUMPDEST PUSH1 0x40 MLOAD DUP1 SWAP2 SUB SWAP1 REVERT JUMPDEST PUSH1 0x3 PUSH0 DUP5 PUSH20 0xFFFFFFFFFFFFFFFFFFFFFFFFFFFFFFFFFFFFFFFF AND PUSH20 0xFFFFFFFFFFFFFFFFFFFFFFFFFFFFFFFFFFFFFFFF AND DUP2 MSTORE PUSH1 0x20 ADD SWAP1 DUP2 MSTORE PUSH1 0x20 ADD PUSH0 KECCAK256 PUSH0 ADD PUSH0 SWAP1 SLOAD SWAP1 PUSH2 0x100 EXP SWAP1 DIV PUSH1 0xFF AND ISZERO PUSH2 0xAB4 JUMPI PUSH1 0x40 MLOAD PUSH32 0x8C379A000000000000000000000000000000000000000000000000000000000 DUP2 MSTORE PUSH1 0x4 ADD PUSH2 0xAAB SWAP1 PUSH2 0x1911 JUMP JUMPDEST PUSH1 0x40 MLOAD DUP1 SWAP2 SUB SWAP1 REVERT JUMPDEST PUSH1 0x1 PUSH1 0x3 PUSH0 DUP6 PUSH20 0xFFFFFFFFFFFFFFFFFFFFFFFFFFFFFFFFFFFFFFFF AND PUSH20 0xFFFFFFFFFFFFFFFFFFFFFFFFFFFFFFFFFFFFFFFF AND DUP2 MSTORE PUSH1 0x20 ADD SWAP1 DUP2 MSTORE PUSH1 0x20 ADD PUSH0 KECCAK256 PUSH0 ADD PUSH0 PUSH2 0x100 EXP DUP2 SLOAD DUP2 PUSH1 0xFF MUL NOT AND SWAP1 DUP4 ISZERO ISZERO MUL OR SWAP1 SSTORE POP PUSH32 0xB6BE2187D059CC2A55FE29E0E503B566E1E0F8C8780096E185429350ACFFD3DD DUP4 PUSH1 0x40 MLOAD PUSH2 0xB3A SWAP2 SWAP1 PUSH2 0x11B7 JUMP JUMPDEST PUSH1 0x40 MLOAD DUP1 SWAP2 SUB SWAP1 LOG1 POP POP POP JUMP JUMPDEST PUSH2 0xB4F PUSH2 0xEF1 JUMP JUMPDEST PUSH0 DUP1 PUSH1 0x5 DUP2 GT ISZERO PUSH2 0xB63 JUMPI PUSH2 0xB62 PUSH2 0x1560 JUMP JUMPDEST JUMPDEST PUSH1 0x2 PUSH0 SWAP1 SLOAD SWAP1 PUSH2 0x100 EXP SWAP1 DIV PUSH1 0xFF AND PUSH1 0x5 DUP2 GT ISZERO PUSH2 0xB84 JUMPI PUSH2 0xB83 PUSH2 0x1560 JUMP JUMPDEST JUMPDEST EQ PUSH2 0xBC4 JUMPI PUSH1 0x40 MLOAD PUSH32 0x8C379A000000000000000000000000000000000000000000000000000000000 DUP2 MSTORE PUSH1 0x4 ADD PUSH2 0xBBB SWAP1 PUSH2 0x15D7 JUMP JUMPDEST PUSH1 0x40 MLOAD DUP1 SWAP2 SUB SWAP1 REVERT JUMPDEST PUSH2 0xBCE PUSH1 0x1 PUSH2 0xF78 JUMP JUMPDEST POP JUMP JUMPDEST DUP2 PUSH0 PUSH20 0xFFFFFFFFFFFFFFFFFFFFFFFFFFFFFFFFFFFFFFFF AND DUP2 PUSH20 0xFFFFFFFFFFFFFFFFFFFFFFFFFFFFFFFFFFFFFFFF AND SUB PUSH2 0xC40 JUMPI PUSH1 0x40 MLOAD PUSH32 0x8C379A000000000000000000000000000000000000000000000000000000000 DUP2 MSTORE PUSH1 0x4 ADD PUSH2 0xC37 SWAP1 PUSH2 0x14DA JUMP JUMPDEST PUSH1 0x40 MLOAD DUP1 SWAP2 SUB SWAP1 REVERT JUMPDEST DUP3 PUSH1 0x3 PUSH0 DUP3 PUSH20 0xFFFFFFFFFFFFFFFFFFFFFFFFFFFFFFFFFFFFFFFF AND PUSH20 0xFFFFFFFFFFFFFFFFFFFFFFFFFFFFFFFFFFFFFFFF AND DUP2 MSTORE PUSH1 0x20 ADD SWAP1 DUP2 MSTORE PUSH1 0x20 ADD PUSH0 KECCAK256 PUSH0 ADD PUSH0 SWAP1 SLOAD SWAP1 PUSH2 0x100 EXP SWAP1 DIV PUSH1 0xFF AND PUSH2 0xCCC JUMPI PUSH1 0x40 MLOAD PUSH32 0x8C379A000000000000000000000000000000000000000000000000000000000 DUP2 MSTORE PUSH1 0x4 ADD PUSH2 0xCC3 SWAP1 PUSH2 0x1542 JUMP JUMPDEST PUSH1 0x40 MLOAD DUP1 SWAP2 SUB SWAP1 REVERT JUMPDEST PUSH1 0x1 DUP1 PUSH1 0x5 DUP2 GT ISZERO PUSH2 0xCE1 JUMPI PUSH2 0xCE0 PUSH2 0x1560 JUMP JUMPDEST JUMPDEST PUSH1 0x2 PUSH0 SWAP1 SLOAD SWAP1 PUSH2 0x100 EXP SWAP1 DIV PUSH1 0xFF AND PUSH1 0x5 DUP2 GT ISZERO PUSH2 0xD02 JUMPI PUSH2 0xD01 PUSH2 0x1560 JUMP JUMPDEST JUMPDEST EQ PUSH2 0xD42 JUMPI PUSH1 0x40 MLOAD PUSH32 0x8C379A000000000000000000000000000000000000000000000000000000000 DUP2 MSTORE PUSH1 0x4 ADD PUSH2 0xD39 SWAP1 PUSH2 0x15D7 JUMP JUMPDEST PUSH1 0x40 MLOAD DUP1 SWAP2 SUB SWAP1 REVERT JUMPDEST PUSH1 0x4 PUSH1 0x40 MLOAD DUP1 PUSH1 0x40 ADD PUSH1 0x40 MSTORE DUP1 DUP7 DUP2 MSTORE PUSH1 0x20 ADD PUSH0 DUP2 MSTORE POP SWAP1 DUP1 PUSH1 0x1 DUP2 SLOAD ADD DUP1 DUP3 SSTORE DUP1 SWAP2 POP POP PUSH1 0x1 SWAP1 SUB SWAP1 PUSH0 MSTORE PUSH1 0x20 PUSH0 KECCAK256 SWAP1 PUSH1 0x2 MUL ADD PUSH0 SWAP1 SWAP2 SWAP1 SWAP2 SWAP1 SWAP2 POP PUSH0 DUP3 ADD MLOAD DUP2 PUSH0 ADD SWAP1 DUP2 PUSH2 0xD92 SWAP2 SWAP1 PUSH2 0x1ACF JUMP JUMPDEST POP PUSH1 0x20 DUP3 ADD MLOAD DUP2 PUSH1 0x1 ADD SSTORE POP POP PUSH32 0x92E393E9B54E2F801D3EA4BEB0C5E71A21CC34A5D34B77D0FB8A3AA1650DC18F PUSH1 0x4 DUP1 SLOAD SWAP1 POP PUSH1 0x40 MLOAD PUSH2 0xDD3 SWAP2 SWAP1 PUSH2 0x1B9E JUMP JUMPDEST PUSH1 0x40 MLOAD DUP1 SWAP2 SUB SWAP1 LOG1 POP POP POP POP POP JUMP JUMPDEST PUSH2 0xDEA PUSH2 0xEF1 JUMP JUMPDEST PUSH1 0x2 DUP1 PUSH1 0x5 DUP2 GT ISZERO PUSH2 0xDFF JUMPI PUSH2 0xDFE PUSH2 0x1560 JUMP JUMPDEST JUMPDEST PUSH1 0x2 PUSH0 SWAP1 SLOAD SWAP1 PUSH2 0x100 EXP SWAP1 DIV PUSH1 0xFF AND PUSH1 0x5 DUP2 GT ISZERO PUSH2 0xE20 JUMPI PUSH2 0xE1F PUSH2 0x1560 JUMP JUMPDEST JUMPDEST EQ PUSH2 0xE60 JUMPI PUSH1 0x40 MLOAD PUSH32 0x8C379A000000000000000000000000000000000000000000000000000000000 DUP2 MSTORE PUSH1 0x4 ADD PUSH2 0xE57 SWAP1 PUSH2 0x15D7 JUMP JUMPDEST PUSH1 0x40 MLOAD DUP1 SWAP2 SUB SWAP1 REVERT JUMPDEST PUSH2 0xE6A PUSH1 0x3 PUSH2 0xF78 JUMP JUMPDEST POP JUMP JUMPDEST PUSH2 0xE75 PUSH2 0xEF1 JUMP JUMPDEST PUSH0 PUSH20 0xFFFFFFFFFFFFFFFFFFFFFFFFFFFFFFFFFFFFFFFF AND DUP2 PUSH20 0xFFFFFFFFFFFFFFFFFFFFFFFFFFFFFFFFFFFFFFFF AND SUB PUSH2 0xEE5 JUMPI PUSH0 PUSH1 0x40 MLOAD PUSH32 0x1E4FBDF700000000000000000000000000000000000000000000000000000000 DUP2 MSTORE PUSH1 0x4 ADD PUSH2 0xEDC SWAP2 SWAP1 PUSH2 0x11B7 JUMP JUMPDEST PUSH1 0x40 MLOAD DUP1 SWAP2 SUB SWAP1 REVERT JUMPDEST PUSH2 0xEEE DUP2 PUSH2 0xFEB JUMP JUMPDEST POP JUMP JUMPDEST PUSH2 0xEF9 PUSH2 0x10AC JUMP JUMPDEST PUSH20 0xFFFFFFFFFFFFFFFFFFFFFFFFFFFFFFFFFFFFFFFF AND PUSH2 0xF17 PUSH2 0x5A3 JUMP JUMPDEST PUSH20 0xFFFFFFFFFFFFFFFFFFFFFFFFFFFFFFFFFFFFFFFF AND EQ PUSH2 0xF76 JUMPI PUSH2 0xF3A PUSH2 0x10AC JUMP JUMPDEST PUSH1 0x40 MLOAD PUSH32 0x118CDAA700000000000000000000000000000000000000000000000000000000 DUP2 MSTORE PUSH1 0x4 ADD PUSH2 0xF6D SWAP2 SWAP1 PUSH2 0x11B7 JUMP JUMPDEST PUSH1 0x40 MLOAD DUP1 SWAP2 SUB SWAP1 REVERT JUMPDEST JUMP JUMPDEST PUSH32 0xA97A4EE45751E2ABF3E4FC8946939630B11B371EA8AE39CCDC3056E98F5CC3F PUSH1 0x2 PUSH0 SWAP1 SLOAD SWAP1 PUSH2 0x100 EXP SWAP1 DIV PUSH1 0xFF AND DUP3 PUSH1 0x40 MLOAD PUSH2 0xFB7 SWAP3 SWAP2 SWAP1 PUSH2 0x1BFD JUMP JUMPDEST PUSH1 0x40 MLOAD DUP1 SWAP2 SUB SWAP1 LOG1 DUP1 PUSH1 0x2 PUSH0 PUSH2 0x100 EXP DUP2 SLOAD DUP2 PUSH1 0xFF MUL NOT AND SWAP1 DUP4 PUSH1 0x5 DUP2 GT ISZERO PUSH2 0xFE3 JUMPI PUSH2 0xFE2 PUSH2 0x1560 JUMP JUMPDEST JUMPDEST MUL OR SWAP1 SSTORE POP POP JUMP JUMPDEST PUSH0 PUSH0 PUSH0 SWAP1 SLOAD SWAP1 PUSH2 0x100 EXP SWAP1 DIV PUSH20 0xFFFFFFFFFFFFFFFFFFFFFFFFFFFFFFFFFFFFFFFF AND SWAP1 POP DUP2 PUSH0 PUSH0 PUSH2 0x100 EXP DUP2 SLOAD DUP2 PUSH20 0xFFFFFFFFFFFFFFFFFFFFFFFFFFFFFFFFFFFFFFFF MUL NOT AND SWAP1 DUP4 PUSH20 0xFFFFFFFFFFFFFFFFFFFFFFFFFFFFFFFFFFFFFFFF AND MUL OR SWAP1 SSTORE POP DUP2 PUSH20 0xFFFFFFFFFFFFFFFFFFFFFFFFFFFFFFFFFFFFFFFF AND DUP2 PUSH20 0xFFFFFFFFFFFFFFFFFFFFFFFFFFFFFFFFFFFFFFFF AND PUSH32 0x8BE0079C531659141344CD1FD0A4F28419497F9722A3DAAFE3B4186F6B6457E0 PUSH1 0x40 MLOAD PUSH1 0x40 MLOAD DUP1 SWAP2 SUB SWAP1 LOG3 POP POP JUMP JUMPDEST PUSH0 CALLER SWAP1 POP SWAP1 JUMP JUMPDEST PUSH1 0x40 MLOAD DUP1 PUSH1 0x40 ADD PUSH1 0x40 MSTORE DUP1 PUSH1 0x60 DUP2 MSTORE PUSH1 0x20 ADD PUSH0 DUP2 MSTORE POP SWAP1 JUMP JUMPDEST PUSH0 PUSH1 0x40 MLOAD SWAP1 POP SWAP1 JUMP JUMPDEST PUSH0 PUSH0 REVERT JUMPDEST PUSH0 PUSH0 REVERT JUMPDEST PUSH0 PUSH20 0xFFFFFFFFFFFFFFFFFFFFFFFFFFFFFFFFFFFFFFFF DUP3 AND SWAP1 POP SWAP2 SWAP1 POP JUMP JUMPDEST PUSH0 PUSH2 0x1106 DUP3 PUSH2 0x10DD JUMP JUMPDEST SWAP1 POP SWAP2 SWAP1 POP JUMP JUMPDEST PUSH2 0x1116 DUP2 PUSH2 0x10FC JUMP JUMPDEST DUP2 EQ PUSH2 0x1120 JUMPI PUSH0 PUSH0 REVERT JUMPDEST POP JUMP JUMPDEST PUSH0 DUP2 CALLDATALOAD SWAP1 POP PUSH2 0x1131 DUP2 PUSH2 0x110D JUMP JUMPDEST SWAP3 SWAP2 POP POP JUMP JUMPDEST PUSH0 DUP2 SWAP1 POP SWAP2 SWAP1 POP JUMP JUMPDEST PUSH2 0x1149 DUP2 PUSH2 0x1137 JUMP JUMPDEST DUP2 EQ PUSH2 0x1153 JUMPI PUSH0 PUSH0 REVERT JUMPDEST POP JUMP JUMPDEST PUSH0 DUP2 CALLDATALOAD SWAP1 POP PUSH2 0x1164 DUP2 PUSH2 0x1140 JUMP JUMPDEST SWAP3 SWAP2 POP POP JUMP JUMPDEST PUSH0 PUSH0 PUSH1 0x40 DUP4 DUP6 SUB SLT ISZERO PUSH2 0x1180 JUMPI PUSH2 0x117F PUSH2 0x10D5 JUMP JUMPDEST JUMPDEST PUSH0 PUSH2 0x118D DUP6 DUP3 DUP7 ADD PUSH2 0x1123 JUMP JUMPDEST SWAP3 POP POP PUSH1 0x20 PUSH2 0x119E DUP6 DUP3 DUP7 ADD PUSH2 0x1156 JUMP JUMPDEST SWAP2 POP POP SWAP3 POP SWAP3 SWAP1 POP JUMP JUMPDEST PUSH2 0x11B1 DUP2 PUSH2 0x10FC JUMP JUMPDEST DUP3 MSTORE POP POP JUMP JUMPDEST PUSH0 PUSH1 0x20 DUP3 ADD SWAP1 POP PUSH2 0x11CA PUSH0 DUP4 ADD DUP5 PUSH2 0x11A8 JUMP JUMPDEST SWAP3 SWAP2 POP POP JUMP JUMPDEST PUSH0 DUP2 MLOAD SWAP1 POP SWAP2 SWAP1 POP JUMP JUMPDEST PUSH0 DUP3 DUP3 MSTORE PUSH1 0x20 DUP3 ADD SWAP1 POP SWAP3 SWAP2 POP POP JUMP JUMPDEST DUP3 DUP2 DUP4 MCOPY PUSH0 DUP4 DUP4 ADD MSTORE POP POP POP JUMP JUMPDEST PUSH0 PUSH1 0x1F NOT PUSH1 0x1F DUP4 ADD AND SWAP1 POP SWAP2 SWAP1 POP JUMP JUMPDEST PUSH0 PUSH2 0x1212 DUP3 PUSH2 0x11D0 JUMP JUMPDEST PUSH2 0x121C DUP2 DUP6 PUSH2 0x11DA JUMP JUMPDEST SWAP4 POP PUSH2 0x122C DUP2 DUP6 PUSH1 0x20 DUP7 ADD PUSH2 0x11EA JUMP JUMPDEST PUSH2 0x1235 DUP2 PUSH2 0x11F8 JUMP JUMPDEST DUP5 ADD SWAP2 POP POP SWAP3 SWAP2 POP POP JUMP JUMPDEST PUSH2 0x1249 DUP2 PUSH2 0x1137 JUMP JUMPDEST DUP3 MSTORE POP POP JUMP JUMPDEST PUSH0 PUSH1 0x40 DUP4 ADD PUSH0 DUP4 ADD MLOAD DUP5 DUP3 SUB PUSH0 DUP7 ADD MSTORE PUSH2 0x1269 DUP3 DUP3 PUSH2 0x1208 JUMP JUMPDEST SWAP2 POP POP PUSH1 0x20 DUP4 ADD MLOAD PUSH2 0x127E PUSH1 0x20 DUP7 ADD DUP3 PUSH2 0x1240 JUMP JUMPDEST POP DUP1 SWAP2 POP POP SWAP3 SWAP2 POP POP JUMP JUMPDEST PUSH0 PUSH1 0x20 DUP3 ADD SWAP1 POP DUP2 DUP2 SUB PUSH0 DUP4 ADD MSTORE PUSH2 0x12A1 DUP2 DUP5 PUSH2 0x124F JUMP JUMPDEST SWAP1 POP SWAP3 SWAP2 POP POP JUMP JUMPDEST PUSH0 PUSH1 0x20 DUP3 DUP5 SUB SLT ISZERO PUSH2 0x12BE JUMPI PUSH2 0x12BD PUSH2 0x10D5 JUMP JUMPDEST JUMPDEST PUSH0 PUSH2 0x12CB DUP5 DUP3 DUP6 ADD PUSH2 0x1123 JUMP JUMPDEST SWAP2 POP POP SWAP3 SWAP2 POP POP JUMP JUMPDEST PUSH0 PUSH0 REVERT JUMPDEST PUSH0 PUSH0 REVERT JUMPDEST PUSH32 0x4E487B7100000000000000000000000000000000000000000000000000000000 PUSH0 MSTORE PUSH1 0x41 PUSH1 0x4 MSTORE PUSH1 0x24 PUSH0 REVERT JUMPDEST PUSH2 0x1312 DUP3 PUSH2 0x11F8 JUMP JUMPDEST DUP2 ADD DUP2 DUP2 LT PUSH8 0xFFFFFFFFFFFFFFFF DUP3 GT OR ISZERO PUSH2 0x1331 JUMPI PUSH2 0x1330 PUSH2 0x12DC JUMP JUMPDEST JUMPDEST DUP1 PUSH1 0x40 MSTORE POP POP POP JUMP JUMPDEST PUSH0 PUSH2 0x1343 PUSH2 0x10CC JUMP JUMPDEST SWAP1 POP PUSH2 0x134F DUP3 DUP3 PUSH2 0x1309 JUMP JUMPDEST SWAP2 SWAP1 POP JUMP JUMPDEST PUSH0 PUSH8 0xFFFFFFFFFFFFFFFF DUP3 GT ISZERO PUSH2 0x136E JUMPI PUSH2 0x136D PUSH2 0x12DC JUMP JUMPDEST JUMPDEST PUSH2 0x1377 DUP3 PUSH2 0x11F8 JUMP JUMPDEST SWAP1 POP PUSH1 0x20 DUP2 ADD SWAP1 POP SWAP2 SWAP1 POP JUMP JUMPDEST DUP3 DUP2 DUP4 CALLDATACOPY PUSH0 DUP4 DUP4 ADD MSTORE POP POP POP JUMP JUMPDEST PUSH0 PUSH2 0x13A4 PUSH2 0x139F DUP5 PUSH2 0x1354 JUMP JUMPDEST PUSH2 0x133A JUMP JUMPDEST SWAP1 POP DUP3 DUP2 MSTORE PUSH1 0x20 DUP2 ADD DUP5 DUP5 DUP5 ADD GT ISZERO PUSH2 0x13C0 JUMPI PUSH2 0x13BF PUSH2 0x12D8 JUMP JUMPDEST JUMPDEST PUSH2 0x13CB DUP5 DUP3 DUP6 PUSH2 0x1384 JUMP JUMPDEST POP SWAP4 SWAP3 POP POP POP JUMP JUMPDEST PUSH0 DUP3 PUSH1 0x1F DUP4 ADD SLT PUSH2 0x13E7 JUMPI PUSH2 0x13E6 PUSH2 0x12D4 JUMP JUMPDEST JUMPDEST DUP2 CALLDATALOAD PUSH2 0x13F7 DUP5 DUP3 PUSH1 0x20 DUP7 ADD PUSH2 0x1392 JUMP JUMPDEST SWAP2 POP POP SWAP3 SWAP2 POP POP JUMP JUMPDEST PUSH0 PUSH0 PUSH1 0x40 DUP4 DUP6 SUB SLT ISZERO PUSH2 0x1416 JUMPI PUSH2 0x1415 PUSH2 0x10D5 JUMP JUMPDEST JUMPDEST PUSH0 PUSH2 0x1423 DUP6 DUP3 DUP7 ADD PUSH2 0x1123 JUMP JUMPDEST SWAP3 POP POP PUSH1 0x20 DUP4 ADD CALLDATALOAD PUSH8 0xFFFFFFFFFFFFFFFF DUP2 GT ISZERO PUSH2 0x1444 JUMPI PUSH2 0x1443 PUSH2 0x10D9 JUMP JUMPDEST JUMPDEST PUSH2 0x1450 DUP6 DUP3 DUP7 ADD PUSH2 0x13D3 JUMP JUMPDEST SWAP2 POP POP SWAP3 POP SWAP3 SWAP1 POP JUMP JUMPDEST PUSH0 DUP3 DUP3 MSTORE PUSH1 0x20 DUP3 ADD SWAP1 POP SWAP3 SWAP2 POP POP JUMP JUMPDEST PUSH32 0x416464726573732063616E6E6F7420626520746865207A65726F206164647265 PUSH0 DUP3 ADD MSTORE PUSH32 0x7373000000000000000000000000000000000000000000000000000000000000 PUSH1 0x20 DUP3 ADD MSTORE POP JUMP JUMPDEST PUSH0 PUSH2 0x14C4 PUSH1 0x22 DUP4 PUSH2 0x145A JUMP JUMPDEST SWAP2 POP PUSH2 0x14CF DUP3 PUSH2 0x146A JUMP JUMPDEST PUSH1 0x40 DUP3 ADD SWAP1 POP SWAP2 SWAP1 POP JUMP JUMPDEST PUSH0 PUSH1 0x20 DUP3 ADD SWAP1 POP DUP2 DUP2 SUB PUSH0 DUP4 ADD MSTORE PUSH2 0x14F1 DUP2 PUSH2 0x14B8 JUMP JUMPDEST SWAP1 POP SWAP2 SWAP1 POP JUMP JUMPDEST PUSH32 0x566F746572206973206E6F742072656769737465726564000000000000000000 PUSH0 DUP3 ADD MSTORE POP JUMP JUMPDEST PUSH0 PUSH2 0x152C PUSH1 0x17 DUP4 PUSH2 0x145A JUMP JUMPDEST SWAP2 POP PUSH2 0x1537 DUP3 PUSH2 0x14F8 JUMP JUMPDEST PUSH1 0x20 DUP3 ADD SWAP1 POP SWAP2 SWAP1 POP JUMP JUMPDEST PUSH0 PUSH1 0x20 DUP3 ADD SWAP1 POP DUP2 DUP2 SUB PUSH0 DUP4 ADD MSTORE PUSH2 0x1559 DUP2 PUSH2 0x1520 JUMP JUMPDEST SWAP1 POP SWAP2 SWAP1 POP JUMP JUMPDEST PUSH32 0x4E487B7100000000000000000000000000000000000000000000000000000000 PUSH0 MSTORE PUSH1 0x21 PUSH1 0x4 MSTORE PUSH1 0x24 PUSH0 REVERT JUMPDEST PUSH32 0x496E76616C696420776F726B666C6F7720737461747573000000000000000000 PUSH0 DUP3 ADD MSTORE POP JUMP JUMPDEST PUSH0 PUSH2 0x15C1 PUSH1 0x17 DUP4 PUSH2 0x145A JUMP JUMPDEST SWAP2 POP PUSH2 0x15CC DUP3 PUSH2 0x158D JUMP JUMPDEST PUSH1 0x20 DUP3 ADD SWAP1 POP SWAP2 SWAP1 POP JUMP JUMPDEST PUSH0 PUSH1 0x20 DUP3 ADD SWAP1 POP DUP2 DUP2 SUB PUSH0 DUP4 ADD MSTORE PUSH2 0x15EE DUP2 PUSH2 0x15B5 JUMP JUMPDEST SWAP1 POP SWAP2 SWAP1 POP JUMP JUMPDEST PUSH32 0x566F7465722068617320616C726561647920766F746564000000000000000000 PUSH0 DUP3 ADD MSTORE POP JUMP JUMPDEST PUSH0 PUSH2 0x1629 PUSH1 0x17 DUP4 PUSH2 0x145A JUMP JUMPDEST SWAP2 POP PUSH2 0x1634 DUP3 PUSH2 0x15F5 JUMP JUMPDEST PUSH1 0x20 DUP3 ADD SWAP1 POP SWAP2 SWAP1 POP JUMP JUMPDEST PUSH0 PUSH1 0x20 DUP3 ADD SWAP1 POP DUP2 DUP2 SUB PUSH0 DUP4 ADD MSTORE PUSH2 0x1656 DUP2 PUSH2 0x161D JUMP JUMPDEST SWAP1 POP SWAP2 SWAP1 POP JUMP JUMPDEST PUSH32 0x496E76616C69642070726F706F73616C20696400000000000000000000000000 PUSH0 DUP3 ADD MSTORE POP JUMP JUMPDEST PUSH0 PUSH2 0x1691 PUSH1 0x13 DUP4 PUSH2 0x145A JUMP JUMPDEST SWAP2 POP PUSH2 0x169C DUP3 PUSH2 0x165D JUMP JUMPDEST PUSH1 0x20 DUP3 ADD SWAP1 POP SWAP2 SWAP1 POP JUMP JUMPDEST PUSH0 PUSH1 0x20 DUP3 ADD SWAP1 POP DUP2 DUP2 SUB PUSH0 DUP4 ADD MSTORE PUSH2 0x16BE DUP2 PUSH2 0x1685 JUMP JUMPDEST SWAP1 POP SWAP2 SWAP1 POP JUMP JUMPDEST PUSH32 0x4E487B7100000000000000000000000000000000000000000000000000000000 PUSH0 MSTORE PUSH1 0x11 PUSH1 0x4 MSTORE PUSH1 0x24 PUSH0 REVERT JUMPDEST PUSH0 PUSH2 0x16FC DUP3 PUSH2 0x1137 JUMP JUMPDEST SWAP2 POP PUSH2 0x1707 DUP4 PUSH2 0x1137 JUMP JUMPDEST SWAP3 POP DUP3 DUP3 SUB SWAP1 POP DUP2 DUP2 GT ISZERO PUSH2 0x171F JUMPI PUSH2 0x171E PUSH2 0x16C5 JUMP JUMPDEST JUMPDEST SWAP3 SWAP2 POP POP JUMP JUMPDEST PUSH32 0x4E487B7100000000000000000000000000000000000000000000000000000000 PUSH0 MSTORE PUSH1 0x32 PUSH1 0x4 MSTORE PUSH1 0x24 PUSH0 REVERT JUMPDEST PUSH0 PUSH2 0x175C DUP3 PUSH2 0x1137 JUMP JUMPDEST SWAP2 POP PUSH32 0xFFFFFFFFFFFFFFFFFFFFFFFFFFFFFFFFFFFFFFFFFFFFFFFFFFFFFFFFFFFFFFFF DUP3 SUB PUSH2 0x178E JUMPI PUSH2 0x178D PUSH2 0x16C5 JUMP JUMPDEST JUMPDEST PUSH1 0x1 DUP3 ADD SWAP1 POP SWAP2 SWAP1 POP JUMP JUMPDEST PUSH2 0x17A2 DUP2 PUSH2 0x1137 JUMP JUMPDEST DUP3 MSTORE POP POP JUMP JUMPDEST PUSH0 PUSH1 0x40 DUP3 ADD SWAP1 POP PUSH2 0x17BB PUSH0 DUP4 ADD DUP6 PUSH2 0x11A8 JUMP JUMPDEST PUSH2 0x17C8 PUSH1 0x20 DUP4 ADD DUP5 PUSH2 0x1799 JUMP JUMPDEST SWAP4 SWAP3 POP POP POP JUMP JUMPDEST PUSH32 0x4E487B7100000000000000000000000000000000000000000000000000000000 PUSH0 MSTORE PUSH1 0x22 PUSH1 0x4 MSTORE PUSH1 0x24 PUSH0 REVERT JUMPDEST PUSH0 PUSH1 0x2 DUP3 DIV SWAP1 POP PUSH1 0x1 DUP3 AND DUP1 PUSH2 0x1813 JUMPI PUSH1 0x7F DUP3 AND SWAP2 POP JUMPDEST PUSH1 0x20 DUP3 LT DUP2 SUB PUSH2 0x1826 JUMPI PUSH2 0x1825 PUSH2 0x17CF JUMP JUMPDEST JUMPDEST POP SWAP2 SWAP1 POP JUMP JUMPDEST PUSH0 PUSH2 0x1836 DUP3 PUSH2 0x1137 JUMP JUMPDEST SWAP2 POP PUSH2 0x1841 DUP4 PUSH2 0x1137 JUMP JUMPDEST SWAP3 POP DUP3 DUP3 ADD SWAP1 POP DUP1 DUP3 GT ISZERO PUSH2 0x1859 JUMPI PUSH2 0x1858 PUSH2 0x16C5 JUMP JUMPDEST JUMPDEST SWAP3 SWAP2 POP POP JUMP JUMPDEST PUSH32 0x5468657265206973206120746965202100000000000000000000000000000000 PUSH0 DUP3 ADD MSTORE POP JUMP JUMPDEST PUSH0 PUSH2 0x1893 PUSH1 0x10 DUP4 PUSH2 0x145A JUMP JUMPDEST SWAP2 POP PUSH2 0x189E DUP3 PUSH2 0x185F JUMP JUMPDEST PUSH1 0x20 DUP3 ADD SWAP1 POP SWAP2 SWAP1 POP JUMP JUMPDEST PUSH0 PUSH1 0x20 DUP3 ADD SWAP1 POP DUP2 DUP2 SUB PUSH0 DUP4 ADD MSTORE PUSH2 0x18C0 DUP2 PUSH2 0x1887 JUMP JUMPDEST SWAP1 POP SWAP2 SWAP1 POP JUMP JUMPDEST PUSH32 0x616C726561647920696E207468652077686974656C6973740000000000000000 PUSH0 DUP3 ADD MSTORE POP JUMP JUMPDEST PUSH0 PUSH2 0x18FB PUSH1 0x18 DUP4 PUSH2 0x145A JUMP JUMPDEST SWAP2 POP PUSH2 0x1906 DUP3 PUSH2 0x18C7 JUMP JUMPDEST PUSH1 0x20 DUP3 ADD SWAP1 POP SWAP2 SWAP1 POP JUMP JUMPDEST PUSH0 PUSH1 0x20 DUP3 ADD SWAP1 POP DUP2 DUP2 SUB PUSH0 DUP4 ADD MSTORE PUSH2 0x1928 DUP2 PUSH2 0x18EF JUMP JUMPDEST SWAP1 POP SWAP2 SWAP1 POP JUMP JUMPDEST PUSH0 DUP2 SWAP1 POP DUP2 PUSH0 MSTORE PUSH1 0x20 PUSH0 KECCAK256 SWAP1 POP SWAP2 SWAP1 POP JUMP JUMPDEST PUSH0 PUSH1 0x20 PUSH1 0x1F DUP4 ADD DIV SWAP1 POP SWAP2 SWAP1 POP JUMP JUMPDEST PUSH0 DUP3 DUP3 SHL SWAP1 POP SWAP3 SWAP2 POP POP JUMP JUMPDEST PUSH0 PUSH1 0x8 DUP4 MUL PUSH2 0x198B PUSH32 0xFFFFFFFFFFFFFFFFFFFFFFFFFFFFFFFFFFFFFFFFFFFFFFFFFFFFFFFFFFFFFFFF DUP3 PUSH2 0x1950 JUMP JUMPDEST PUSH2 0x1995 DUP7 DUP4 PUSH2 0x1950 JUMP JUMPDEST SWAP6 POP DUP1 NOT DUP5 AND SWAP4 POP DUP1 DUP7 AND DUP5 OR SWAP3 POP POP POP SWAP4 SWAP3 POP POP POP JUMP JUMPDEST PUSH0 DUP2 SWAP1 POP SWAP2 SWAP1 POP JUMP JUMPDEST PUSH0 PUSH2 0x19D0 PUSH2 0x19CB PUSH2 0x19C6 DUP5 PUSH2 0x1137 JUMP JUMPDEST PUSH2 0x19AD JUMP JUMPDEST PUSH2 0x1137 JUMP JUMPDEST SWAP1 POP SWAP2 SWAP1 POP JUMP JUMPDEST PUSH0 DUP2 SWAP1 POP SWAP2 SWAP1 POP JUMP JUMPDEST PUSH2 0x19E9 DUP4 PUSH2 0x19B6 JUMP JUMPDEST PUSH2 0x19FD PUSH2 0x19F5 DUP3 PUSH2 0x19D7 JUMP JUMPDEST DUP5 DUP5 SLOAD PUSH2 0x195C JUMP JUMPDEST DUP3 SSTORE POP POP POP POP JUMP JUMPDEST PUSH0 PUSH0 SWAP1 POP SWAP1 JUMP JUMPDEST PUSH2 0x1A14 PUSH2 0x1A05 JUMP JUMPDEST PUSH2 0x1A1F DUP2 DUP5 DUP5 PUSH2 0x19E0 JUMP JUMPDEST POP POP POP JUMP JUMPDEST JUMPDEST DUP2 DUP2 LT ISZERO PUSH2 0x1A42 JUMPI PUSH2 0x1A37 PUSH0 DUP3 PUSH2 0x1A0C JUMP JUMPDEST PUSH1 0x1 DUP2 ADD SWAP1 POP PUSH2 0x1A25 JUMP JUMPDEST POP POP JUMP JUMPDEST PUSH1 0x1F DUP3 GT ISZERO PUSH2 0x1A87 JUMPI PUSH2 0x1A58 DUP2 PUSH2 0x192F JUMP JUMPDEST PUSH2 0x1A61 DUP5 PUSH2 0x1941 JUMP JUMPDEST DUP2 ADD PUSH1 0x20 DUP6 LT ISZERO PUSH2 0x1A70 JUMPI DUP2 SWAP1 POP JUMPDEST PUSH2 0x1A84 PUSH2 0x1A7C DUP6 PUSH2 0x1941 JUMP JUMPDEST DUP4 ADD DUP3 PUSH2 0x1A24 JUMP JUMPDEST POP POP JUMPDEST POP POP POP JUMP JUMPDEST PUSH0 DUP3 DUP3 SHR SWAP1 POP SWAP3 SWAP2 POP POP JUMP JUMPDEST PUSH0 PUSH2 0x1AA7 PUSH0 NOT DUP5 PUSH1 0x8 MUL PUSH2 0x1A8C JUMP JUMPDEST NOT DUP1 DUP4 AND SWAP2 POP POP SWAP3 SWAP2 POP POP JUMP JUMPDEST PUSH0 PUSH2 0x1ABF DUP4 DUP4 PUSH2 0x1A98 JUMP JUMPDEST SWAP2 POP DUP3 PUSH1 0x2 MUL DUP3 OR SWAP1 POP SWAP3 SWAP2 POP POP JUMP JUMPDEST PUSH2 0x1AD8 DUP3 PUSH2 0x11D0 JUMP JUMPDEST PUSH8 0xFFFFFFFFFFFFFFFF DUP2 GT ISZERO PUSH2 0x1AF1 JUMPI PUSH2 0x1AF0 PUSH2 0x12DC JUMP JUMPDEST JUMPDEST PUSH2 0x1AFB DUP3 SLOAD PUSH2 0x17FC JUMP JUMPDEST PUSH2 0x1B06 DUP3 DUP3 DUP6 PUSH2 0x1A46 JUMP JUMPDEST PUSH0 PUSH1 0x20 SWAP1 POP PUSH1 0x1F DUP4 GT PUSH1 0x1 DUP2 EQ PUSH2 0x1B37 JUMPI PUSH0 DUP5 ISZERO PUSH2 0x1B25 JUMPI DUP3 DUP8 ADD MLOAD SWAP1 POP JUMPDEST PUSH2 0x1B2F DUP6 DUP3 PUSH2 0x1AB4 JUMP JUMPDEST DUP7 SSTORE POP PUSH2 0x1B96 JUMP JUMPDEST PUSH1 0x1F NOT DUP5 AND PUSH2 0x1B45 DUP7 PUSH2 0x192F JUMP JUMPDEST PUSH0 JUMPDEST DUP3 DUP2 LT ISZERO PUSH2 0x1B6C JUMPI DUP5 DUP10 ADD MLOAD DUP3 SSTORE PUSH1 0x1 DUP3 ADD SWAP2 POP PUSH1 0x20 DUP6 ADD SWAP5 POP PUSH1 0x20 DUP2 ADD SWAP1 POP PUSH2 0x1B47 JUMP JUMPDEST DUP7 DUP4 LT ISZERO PUSH2 0x1B89 JUMPI DUP5 DUP10 ADD MLOAD PUSH2 0x1B85 PUSH1 0x1F DUP10 AND DUP3 PUSH2 0x1A98 JUMP JUMPDEST DUP4 SSTORE POP JUMPDEST PUSH1 0x1 PUSH1 0x2 DUP9 MUL ADD DUP9 SSTORE POP POP POP JUMPDEST POP POP POP POP POP POP JUMP JUMPDEST PUSH0 PUSH1 0x20 DUP3 ADD SWAP1 POP PUSH2 0x1BB1 PUSH0 DUP4 ADD DUP5 PUSH2 0x1799 JUMP JUMPDEST SWAP3 SWAP2 POP POP JUMP JUMPDEST PUSH1 0x6 DUP2 LT PUSH2 0x1BC8 JUMPI PUSH2 0x1BC7 PUSH2 0x1560 JUMP JUMPDEST JUMPDEST POP JUMP JUMPDEST PUSH0 DUP2 SWAP1 POP PUSH2 0x1BD8 DUP3 PUSH2 0x1BB7 JUMP JUMPDEST SWAP2 SWAP1 POP JUMP JUMPDEST PUSH0 PUSH2 0x1BE7 DUP3 PUSH2 0x1BCB JUMP JUMPDEST SWAP1 POP SWAP2 SWAP1 POP JUMP JUMPDEST PUSH2 0x1BF7 DUP2 PUSH2 0x1BDD JUMP JUMPDEST DUP3 MSTORE POP POP JUMP JUMPDEST PUSH0 PUSH1 0x40 DUP3 ADD SWAP1 POP PUSH2 0x1C10 PUSH0 DUP4 ADD DUP6 PUSH2 0x1BEE JUMP JUMPDEST PUSH2 0x1C1D PUSH1 0x20 DUP4 ADD DUP5 PUSH2 0x1BEE JUMP JUMPDEST SWAP4 SWAP3 POP POP POP JUMP INVALID LOG2 PUSH5 0x6970667358 0x22 SLT KECCAK256 NOT 0xFC GAS 0xD1 0xCB 0xF8 0xDB 0xF XOR PUSH23 0x7A1C3CE922F70106C0CAB9C5752BC6251849DB4A6B664 PUSH20 0x6F6C634300081C00330000000000000000000000 "
				},
				"gasEstimates": {
					"creation": {
						"codeDepositCost": "1451600",
						"executionCost": "infinite",
						"totalCost": "infinite"
					},
					"external": {
						"authorize(address)": "infinite",
						"countVotes()": "infinite",
						"endProposalsRegistration()": "infinite",
						"endVotingSession()": "infinite",
						"getWinner()": "infinite",
						"owner()": "2581",
						"registerProposal(address,string)": "infinite",
						"renounceOwnership()": "infinite",
						"startProposalsRegistration()": "infinite",
						"startVotingSession()": "infinite",
						"transferOwnership(address)": "infinite",
						"voteForProposal(address,uint256)": "infinite"
					},
					"internal": {
						"updateStatus(enum Voting.WorkflowStatus)": "infinite"
					}
				},
				"methodIdentifiers": {
					"authorize(address)": "b6a5d7de",
					"countVotes()": "b647990a",
					"endProposalsRegistration()": "6c297445",
					"endVotingSession()": "a7bfab16",
					"getWinner()": "8e7ea5b2",
					"owner()": "8da5cb5b",
					"registerProposal(address,string)": "e5349fe8",
					"renounceOwnership()": "715018a6",
					"startProposalsRegistration()": "e09b8c79",
					"startVotingSession()": "ee74c678",
					"transferOwnership(address)": "f2fde38b",
					"voteForProposal(address,uint256)": "4e3c118e"
				}
			},
			"storageLayout": {
				"storage": [
					{
						"astId": 8,
						"contract": "contracts/Voting/Voting.sol:Voting",
						"label": "_owner",
						"offset": 0,
						"slot": "0",
						"type": "t_address"
					},
					{
						"astId": 224,
						"contract": "contracts/Voting/Voting.sol:Voting",
						"label": "winningProposalId",
						"offset": 0,
						"slot": "1",
						"type": "t_uint256"
					},
					{
						"astId": 227,
						"contract": "contracts/Voting/Voting.sol:Voting",
						"label": "currentStatus",
						"offset": 0,
						"slot": "2",
						"type": "t_enum(WorkflowStatus)222"
					},
					{
						"astId": 232,
						"contract": "contracts/Voting/Voting.sol:Voting",
						"label": "whitelist",
						"offset": 0,
						"slot": "3",
						"type": "t_mapping(t_address,t_struct(Voter)210_storage)"
					},
					{
						"astId": 236,
						"contract": "contracts/Voting/Voting.sol:Voting",
						"label": "proposalList",
						"offset": 0,
						"slot": "4",
						"type": "t_array(t_struct(Proposal)215_storage)dyn_storage"
					}
				],
				"types": {
					"t_address": {
						"encoding": "inplace",
						"label": "address",
						"numberOfBytes": "20"
					},
					"t_array(t_struct(Proposal)215_storage)dyn_storage": {
						"base": "t_struct(Proposal)215_storage",
						"encoding": "dynamic_array",
						"label": "struct Voting.Proposal[]",
						"numberOfBytes": "32"
					},
					"t_bool": {
						"encoding": "inplace",
						"label": "bool",
						"numberOfBytes": "1"
					},
					"t_enum(WorkflowStatus)222": {
						"encoding": "inplace",
						"label": "enum Voting.WorkflowStatus",
						"numberOfBytes": "1"
					},
					"t_mapping(t_address,t_struct(Voter)210_storage)": {
						"encoding": "mapping",
						"key": "t_address",
						"label": "mapping(address => struct Voting.Voter)",
						"numberOfBytes": "32",
						"value": "t_struct(Voter)210_storage"
					},
					"t_string_storage": {
						"encoding": "bytes",
						"label": "string",
						"numberOfBytes": "32"
					},
					"t_struct(Proposal)215_storage": {
						"encoding": "inplace",
						"label": "struct Voting.Proposal",
						"members": [
							{
								"astId": 212,
								"contract": "contracts/Voting/Voting.sol:Voting",
								"label": "description",
								"offset": 0,
								"slot": "0",
								"type": "t_string_storage"
							},
							{
								"astId": 214,
								"contract": "contracts/Voting/Voting.sol:Voting",
								"label": "voteCount",
								"offset": 0,
								"slot": "1",
								"type": "t_uint256"
							}
						],
						"numberOfBytes": "64"
					},
					"t_struct(Voter)210_storage": {
						"encoding": "inplace",
						"label": "struct Voting.Voter",
						"members": [
							{
								"astId": 205,
								"contract": "contracts/Voting/Voting.sol:Voting",
								"label": "isRegistered",
								"offset": 0,
								"slot": "0",
								"type": "t_bool"
							},
							{
								"astId": 207,
								"contract": "contracts/Voting/Voting.sol:Voting",
								"label": "hasVoted",
								"offset": 1,
								"slot": "0",
								"type": "t_bool"
							},
							{
								"astId": 209,
								"contract": "contracts/Voting/Voting.sol:Voting",
								"label": "votedProposalId",
								"offset": 0,
								"slot": "1",
								"type": "t_uint256"
							}
						],
						"numberOfBytes": "64"
					},
					"t_uint256": {
						"encoding": "inplace",
						"label": "uint256",
						"numberOfBytes": "32"
					}
				}
			},
			"userdoc": {
				"kind": "user",
				"methods": {},
				"version": 1
			}
		}
	}
}