{
	"contracts/Voting/Voting.sol": {
		"Voting": {
			"abi": [
				{
					"inputs": [],
					"stateMutability": "nonpayable",
					"type": "constructor"
				},
				{
					"inputs": [
						{
							"internalType": "address",
							"name": "owner",
							"type": "address"
						}
					],
					"name": "OwnableInvalidOwner",
					"type": "error"
				},
				{
					"inputs": [
						{
							"internalType": "address",
							"name": "account",
							"type": "address"
						}
					],
					"name": "OwnableUnauthorizedAccount",
					"type": "error"
				},
				{
					"anonymous": false,
					"inputs": [
						{
							"indexed": true,
							"internalType": "address",
							"name": "previousOwner",
							"type": "address"
						},
						{
							"indexed": true,
							"internalType": "address",
							"name": "newOwner",
							"type": "address"
						}
					],
					"name": "OwnershipTransferred",
					"type": "event"
				},
				{
					"anonymous": false,
					"inputs": [
						{
							"indexed": false,
							"internalType": "uint256",
							"name": "proposalId",
							"type": "uint256"
						}
					],
					"name": "ProposalRegistered",
					"type": "event"
				},
				{
					"anonymous": false,
					"inputs": [
						{
							"indexed": false,
							"internalType": "address",
							"name": "voter",
							"type": "address"
						},
						{
							"indexed": false,
							"internalType": "uint256",
							"name": "proposalId",
							"type": "uint256"
						}
					],
					"name": "Voted",
					"type": "event"
				},
				{
					"anonymous": false,
					"inputs": [
						{
							"indexed": false,
							"internalType": "address",
							"name": "voterAddress",
							"type": "address"
						}
					],
					"name": "VoterRegistered",
					"type": "event"
				},
				{
					"anonymous": false,
					"inputs": [
						{
							"indexed": false,
							"internalType": "enum Voting.WorkflowStatus",
							"name": "previousStatus",
							"type": "uint8"
						},
						{
							"indexed": false,
							"internalType": "enum Voting.WorkflowStatus",
							"name": "newStatus",
							"type": "uint8"
						}
					],
					"name": "WorkflowStatusChange",
					"type": "event"
				},
				{
					"inputs": [
						{
							"internalType": "address",
							"name": "_address",
							"type": "address"
						}
					],
					"name": "authorize",
					"outputs": [],
					"stateMutability": "nonpayable",
					"type": "function"
				},
				{
					"inputs": [],
					"name": "countVotes",
					"outputs": [],
					"stateMutability": "nonpayable",
					"type": "function"
				},
				{
					"inputs": [],
					"name": "currentStatus",
					"outputs": [
						{
							"internalType": "enum Voting.WorkflowStatus",
							"name": "",
							"type": "uint8"
						}
					],
					"stateMutability": "view",
					"type": "function"
				},
				{
					"inputs": [],
					"name": "endProposalsRegistration",
					"outputs": [],
					"stateMutability": "nonpayable",
					"type": "function"
				},
				{
					"inputs": [],
					"name": "endVotingSession",
					"outputs": [],
					"stateMutability": "nonpayable",
					"type": "function"
				},
				{
					"inputs": [],
					"name": "getWinner",
					"outputs": [
						{
							"components": [
								{
									"internalType": "string",
									"name": "description",
									"type": "string"
								},
								{
									"internalType": "uint256",
									"name": "voteCount",
									"type": "uint256"
								}
							],
							"internalType": "struct Voting.Proposal",
							"name": "",
							"type": "tuple"
						}
					],
					"stateMutability": "pure",
					"type": "function"
				},
				{
					"inputs": [],
					"name": "owner",
					"outputs": [
						{
							"internalType": "address",
							"name": "",
							"type": "address"
						}
					],
					"stateMutability": "view",
					"type": "function"
				},
				{
					"inputs": [
						{
							"internalType": "uint256",
							"name": "",
							"type": "uint256"
						}
					],
					"name": "proposalList",
					"outputs": [
						{
							"internalType": "string",
							"name": "description",
							"type": "string"
						},
						{
							"internalType": "uint256",
							"name": "voteCount",
							"type": "uint256"
						}
					],
					"stateMutability": "view",
					"type": "function"
				},
				{
					"inputs": [
						{
							"internalType": "address",
							"name": "_address",
							"type": "address"
						},
						{
							"internalType": "string",
							"name": "_description",
							"type": "string"
						}
					],
					"name": "registerProposal",
					"outputs": [],
					"stateMutability": "nonpayable",
					"type": "function"
				},
				{
					"inputs": [],
					"name": "renounceOwnership",
					"outputs": [],
					"stateMutability": "nonpayable",
					"type": "function"
				},
				{
					"inputs": [],
					"name": "startProposalsRegistration",
					"outputs": [],
					"stateMutability": "nonpayable",
					"type": "function"
				},
				{
					"inputs": [],
					"name": "startVotingSession",
					"outputs": [],
					"stateMutability": "nonpayable",
					"type": "function"
				},
				{
					"inputs": [
						{
							"internalType": "address",
							"name": "newOwner",
							"type": "address"
						}
					],
					"name": "transferOwnership",
					"outputs": [],
					"stateMutability": "nonpayable",
					"type": "function"
				},
				{
					"inputs": [
						{
							"internalType": "address",
							"name": "_address",
							"type": "address"
						},
						{
							"internalType": "uint256",
							"name": "_proposalId",
							"type": "uint256"
						}
					],
					"name": "voteForProposal",
					"outputs": [],
					"stateMutability": "nonpayable",
					"type": "function"
				},
				{
					"inputs": [
						{
							"internalType": "address",
							"name": "",
							"type": "address"
						}
					],
					"name": "voterProposalIds",
					"outputs": [
						{
							"internalType": "uint256",
							"name": "",
							"type": "uint256"
						}
					],
					"stateMutability": "view",
					"type": "function"
				}
			],
			"devdoc": {
				"errors": {
					"OwnableInvalidOwner(address)": [
						{
							"details": "The owner is not a valid owner account. (eg. `address(0)`)"
						}
					],
					"OwnableUnauthorizedAccount(address)": [
						{
							"details": "The caller account is not authorized to perform an operation."
						}
					]
				},
				"kind": "dev",
				"methods": {
					"owner()": {
						"details": "Returns the address of the current owner."
					},
					"renounceOwnership()": {
						"details": "Leaves the contract without owner. It will not be possible to call `onlyOwner` functions. Can only be called by the current owner. NOTE: Renouncing ownership will leave the contract without an owner, thereby disabling any functionality that is only available to the owner."
					},
					"transferOwnership(address)": {
						"details": "Transfers ownership of the contract to a new account (`newOwner`). Can only be called by the current owner."
					}
				},
				"version": 1
			},
			"evm": {
				"assembly": "    /* \"contracts/Voting/Voting.sol\":111:4750  contract Voting is Ownable {... */\n  mstore(0x40, 0x80)\n    /* \"contracts/Voting/Voting.sol\":144:180  constructor() Ownable(msg.sender) {} */\n  callvalue\n  dup1\n  iszero\n  tag_1\n  jumpi\n  0x00\n  dup1\n  revert\ntag_1:\n  pop\n    /* \"contracts/Voting/Voting.sol\":166:176  msg.sender */\n  caller\n    /* \"@openzeppelin/contracts/access/Ownable.sol\":1297:1298  0 */\n  0x00\n    /* \"@openzeppelin/contracts/access/Ownable.sol\":1273:1299  initialOwner == address(0) */\n  0xffffffffffffffffffffffffffffffffffffffff\n  and\n    /* \"@openzeppelin/contracts/access/Ownable.sol\":1273:1285  initialOwner */\n  dup2\n    /* \"@openzeppelin/contracts/access/Ownable.sol\":1273:1299  initialOwner == address(0) */\n  0xffffffffffffffffffffffffffffffffffffffff\n  and\n  sub\n    /* \"@openzeppelin/contracts/access/Ownable.sol\":1269:1364  if (initialOwner == address(0)) {... */\n  tag_5\n  jumpi\n    /* \"@openzeppelin/contracts/access/Ownable.sol\":1350:1351  0 */\n  0x00\n    /* \"@openzeppelin/contracts/access/Ownable.sol\":1322:1353  OwnableInvalidOwner(address(0)) */\n  mload(0x40)\n  0x1e4fbdf700000000000000000000000000000000000000000000000000000000\n  dup2\n  mstore\n  0x04\n  add\n  tag_6\n  swap2\n  swap1\n  tag_7\n  jump\t// in\ntag_6:\n  mload(0x40)\n  dup1\n  swap2\n  sub\n  swap1\n  revert\n    /* \"@openzeppelin/contracts/access/Ownable.sol\":1269:1364  if (initialOwner == address(0)) {... */\ntag_5:\n    /* \"@openzeppelin/contracts/access/Ownable.sol\":1373:1405  _transferOwnership(initialOwner) */\n  tag_8\n    /* \"@openzeppelin/contracts/access/Ownable.sol\":1392:1404  initialOwner */\n  dup2\n    /* \"@openzeppelin/contracts/access/Ownable.sol\":1373:1391  _transferOwnership */\n  shl(0x20, tag_9)\n    /* \"@openzeppelin/contracts/access/Ownable.sol\":1373:1405  _transferOwnership(initialOwner) */\n  0x20\n  shr\n  jump\t// in\ntag_8:\n    /* \"@openzeppelin/contracts/access/Ownable.sol\":1225:1412  constructor(address initialOwner) {... */\n  pop\n    /* \"contracts/Voting/Voting.sol\":111:4750  contract Voting is Ownable {... */\n  jump(tag_11)\n    /* \"@openzeppelin/contracts/access/Ownable.sol\":2912:3099  function _transferOwnership(address newOwner) internal virtual {... */\ntag_9:\n    /* \"@openzeppelin/contracts/access/Ownable.sol\":2985:3001  address oldOwner */\n  0x00\n    /* \"@openzeppelin/contracts/access/Ownable.sol\":3004:3010  _owner */\n  dup1\n  0x00\n  swap1\n  sload\n  swap1\n  0x0100\n  exp\n  swap1\n  div\n  0xffffffffffffffffffffffffffffffffffffffff\n  and\n    /* \"@openzeppelin/contracts/access/Ownable.sol\":2985:3010  address oldOwner = _owner */\n  swap1\n  pop\n    /* \"@openzeppelin/contracts/access/Ownable.sol\":3029:3037  newOwner */\n  dup2\n    /* \"@openzeppelin/contracts/access/Ownable.sol\":3020:3026  _owner */\n  0x00\n  dup1\n    /* \"@openzeppelin/contracts/access/Ownable.sol\":3020:3037  _owner = newOwner */\n  0x0100\n  exp\n  dup2\n  sload\n  dup2\n  0xffffffffffffffffffffffffffffffffffffffff\n  mul\n  not\n  and\n  swap1\n  dup4\n  0xffffffffffffffffffffffffffffffffffffffff\n  and\n  mul\n  or\n  swap1\n  sstore\n  pop\n    /* \"@openzeppelin/contracts/access/Ownable.sol\":3083:3091  newOwner */\n  dup2\n    /* \"@openzeppelin/contracts/access/Ownable.sol\":3052:3092  OwnershipTransferred(oldOwner, newOwner) */\n  0xffffffffffffffffffffffffffffffffffffffff\n  and\n    /* \"@openzeppelin/contracts/access/Ownable.sol\":3073:3081  oldOwner */\n  dup2\n    /* \"@openzeppelin/contracts/access/Ownable.sol\":3052:3092  OwnershipTransferred(oldOwner, newOwner) */\n  0xffffffffffffffffffffffffffffffffffffffff\n  and\n  0x8be0079c531659141344cd1fd0a4f28419497f9722a3daafe3b4186f6b6457e0\n  mload(0x40)\n  mload(0x40)\n  dup1\n  swap2\n  sub\n  swap1\n  log3\n    /* \"@openzeppelin/contracts/access/Ownable.sol\":2975:3099  {... */\n  pop\n    /* \"@openzeppelin/contracts/access/Ownable.sol\":2912:3099  function _transferOwnership(address newOwner) internal virtual {... */\n  pop\n  jump\t// out\n    /* \"#utility.yul\":7:133   */\ntag_13:\n    /* \"#utility.yul\":44:51   */\n  0x00\n    /* \"#utility.yul\":84:126   */\n  0xffffffffffffffffffffffffffffffffffffffff\n    /* \"#utility.yul\":77:82   */\n  dup3\n    /* \"#utility.yul\":73:127   */\n  and\n    /* \"#utility.yul\":62:127   */\n  swap1\n  pop\n    /* \"#utility.yul\":7:133   */\n  swap2\n  swap1\n  pop\n  jump\t// out\n    /* \"#utility.yul\":139:235   */\ntag_14:\n    /* \"#utility.yul\":176:183   */\n  0x00\n    /* \"#utility.yul\":205:229   */\n  tag_19\n    /* \"#utility.yul\":223:228   */\n  dup3\n    /* \"#utility.yul\":205:229   */\n  tag_13\n  jump\t// in\ntag_19:\n    /* \"#utility.yul\":194:229   */\n  swap1\n  pop\n    /* \"#utility.yul\":139:235   */\n  swap2\n  swap1\n  pop\n  jump\t// out\n    /* \"#utility.yul\":241:359   */\ntag_15:\n    /* \"#utility.yul\":328:352   */\n  tag_21\n    /* \"#utility.yul\":346:351   */\n  dup2\n    /* \"#utility.yul\":328:352   */\n  tag_14\n  jump\t// in\ntag_21:\n    /* \"#utility.yul\":323:326   */\n  dup3\n    /* \"#utility.yul\":316:353   */\n  mstore\n    /* \"#utility.yul\":241:359   */\n  pop\n  pop\n  jump\t// out\n    /* \"#utility.yul\":365:587   */\ntag_7:\n    /* \"#utility.yul\":458:462   */\n  0x00\n    /* \"#utility.yul\":496:498   */\n  0x20\n    /* \"#utility.yul\":485:494   */\n  dup3\n    /* \"#utility.yul\":481:499   */\n  add\n    /* \"#utility.yul\":473:499   */\n  swap1\n  pop\n    /* \"#utility.yul\":509:580   */\n  tag_23\n    /* \"#utility.yul\":577:578   */\n  0x00\n    /* \"#utility.yul\":566:575   */\n  dup4\n    /* \"#utility.yul\":562:579   */\n  add\n    /* \"#utility.yul\":553:559   */\n  dup5\n    /* \"#utility.yul\":509:580   */\n  tag_15\n  jump\t// in\ntag_23:\n    /* \"#utility.yul\":365:587   */\n  swap3\n  swap2\n  pop\n  pop\n  jump\t// out\n    /* \"contracts/Voting/Voting.sol\":111:4750  contract Voting is Ownable {... */\ntag_11:\n  dataSize(sub_0)\n  dup1\n  dataOffset(sub_0)\n  0x00\n  codecopy\n  0x00\n  return\nstop\n\nsub_0: assembly {\n        /* \"contracts/Voting/Voting.sol\":111:4750  contract Voting is Ownable {... */\n      mstore(0x40, 0x80)\n      callvalue\n      dup1\n      iszero\n      tag_1\n      jumpi\n      0x00\n      dup1\n      revert\n    tag_1:\n      pop\n      jumpi(tag_2, lt(calldatasize, 0x04))\n      shr(0xe0, calldataload(0x00))\n      dup1\n      0xb647990a\n      gt\n      tag_18\n      jumpi\n      dup1\n      0xe5349fe8\n      gt\n      tag_19\n      jumpi\n      dup1\n      0xe5349fe8\n      eq\n      tag_14\n      jumpi\n      dup1\n      0xee74c678\n      eq\n      tag_15\n      jumpi\n      dup1\n      0xef8a9235\n      eq\n      tag_16\n      jumpi\n      dup1\n      0xf2fde38b\n      eq\n      tag_17\n      jumpi\n      jump(tag_2)\n    tag_19:\n      dup1\n      0xb647990a\n      eq\n      tag_10\n      jumpi\n      dup1\n      0xb6a5d7de\n      eq\n      tag_11\n      jumpi\n      dup1\n      0xc6311e3f\n      eq\n      tag_12\n      jumpi\n      dup1\n      0xe09b8c79\n      eq\n      tag_13\n      jumpi\n      jump(tag_2)\n    tag_18:\n      dup1\n      0x715018a6\n      gt\n      tag_20\n      jumpi\n      dup1\n      0x715018a6\n      eq\n      tag_6\n      jumpi\n      dup1\n      0x8da5cb5b\n      eq\n      tag_7\n      jumpi\n      dup1\n      0x8e7ea5b2\n      eq\n      tag_8\n      jumpi\n      dup1\n      0xa7bfab16\n      eq\n      tag_9\n      jumpi\n      jump(tag_2)\n    tag_20:\n      dup1\n      0x144677c4\n      eq\n      tag_3\n      jumpi\n      dup1\n      0x4e3c118e\n      eq\n      tag_4\n      jumpi\n      dup1\n      0x6c297445\n      eq\n      tag_5\n      jumpi\n    tag_2:\n      0x00\n      dup1\n      revert\n        /* \"contracts/Voting/Voting.sol\":714:765  mapping(address => uint256) public voterProposalIds */\n    tag_3:\n      tag_21\n      0x04\n      dup1\n      calldatasize\n      sub\n      dup2\n      add\n      swap1\n      tag_22\n      swap2\n      swap1\n      tag_23\n      jump\t// in\n    tag_22:\n      tag_24\n      jump\t// in\n    tag_21:\n      mload(0x40)\n      tag_25\n      swap2\n      swap1\n      tag_26\n      jump\t// in\n    tag_25:\n      mload(0x40)\n      dup1\n      swap2\n      sub\n      swap1\n      return\n        /* \"contracts/Voting/Voting.sol\":3645:4131  function voteForProposal(address _address, uint256 _proposalId) public {... */\n    tag_4:\n      tag_27\n      0x04\n      dup1\n      calldatasize\n      sub\n      dup2\n      add\n      swap1\n      tag_28\n      swap2\n      swap1\n      tag_29\n      jump\t// in\n    tag_28:\n      tag_30\n      jump\t// in\n    tag_27:\n      stop\n        /* \"contracts/Voting/Voting.sol\":2486:2883  function endProposalsRegistration() public onlyOwner {... */\n    tag_5:\n      tag_31\n      tag_32\n      jump\t// in\n    tag_31:\n      stop\n        /* \"@openzeppelin/contracts/access/Ownable.sol\":2293:2394  function renounceOwnership() public virtual onlyOwner {... */\n    tag_6:\n      tag_33\n      tag_34\n      jump\t// in\n    tag_33:\n      stop\n        /* \"@openzeppelin/contracts/access/Ownable.sol\":1638:1723  function owner() public view virtual returns (address) {... */\n    tag_7:\n      tag_35\n      tag_36\n      jump\t// in\n    tag_35:\n      mload(0x40)\n      tag_37\n      swap2\n      swap1\n      tag_38\n      jump\t// in\n    tag_37:\n      mload(0x40)\n      dup1\n      swap2\n      sub\n      swap1\n      return\n        /* \"contracts/Voting/Voting.sol\":4539:4748  function getWinner() public pure returns (Proposal memory) {... */\n    tag_8:\n      tag_39\n      tag_40\n      jump\t// in\n    tag_39:\n      mload(0x40)\n      tag_41\n      swap2\n      swap1\n      tag_42\n      jump\t// in\n    tag_41:\n      mload(0x40)\n      dup1\n      swap2\n      sub\n      swap1\n      return\n        /* \"contracts/Voting/Voting.sol\":3273:3639  function endVotingSession() public onlyOwner {... */\n    tag_9:\n      tag_43\n      tag_44\n      jump\t// in\n    tag_43:\n      stop\n        /* \"contracts/Voting/Voting.sol\":4137:4533  function countVotes() public onlyOwner {... */\n    tag_10:\n      tag_45\n      tag_46\n      jump\t// in\n    tag_45:\n      stop\n        /* \"contracts/Voting/Voting.sol\":1071:1447  function authorize(address _address) public onlyOwner {... */\n    tag_11:\n      tag_47\n      0x04\n      dup1\n      calldatasize\n      sub\n      dup2\n      add\n      swap1\n      tag_48\n      swap2\n      swap1\n      tag_23\n      jump\t// in\n    tag_48:\n      tag_49\n      jump\t// in\n    tag_47:\n      stop\n        /* \"contracts/Voting/Voting.sol\":771:801  Proposal[] public proposalList */\n    tag_12:\n      tag_50\n      0x04\n      dup1\n      calldatasize\n      sub\n      dup2\n      add\n      swap1\n      tag_51\n      swap2\n      swap1\n      tag_52\n      jump\t// in\n    tag_51:\n      tag_53\n      jump\t// in\n    tag_50:\n      mload(0x40)\n      tag_54\n      swap3\n      swap2\n      swap1\n      tag_55\n      jump\t// in\n    tag_54:\n      mload(0x40)\n      dup1\n      swap2\n      sub\n      swap1\n      return\n        /* \"contracts/Voting/Voting.sol\":1453:1845  function startProposalsRegistration() public onlyOwner {... */\n    tag_13:\n      tag_56\n      tag_57\n      jump\t// in\n    tag_56:\n      stop\n        /* \"contracts/Voting/Voting.sol\":1851:2480  function registerProposal(address _address, string memory _description)... */\n    tag_14:\n      tag_58\n      0x04\n      dup1\n      calldatasize\n      sub\n      dup2\n      add\n      swap1\n      tag_59\n      swap2\n      swap1\n      tag_60\n      jump\t// in\n    tag_59:\n      tag_61\n      jump\t// in\n    tag_58:\n      stop\n        /* \"contracts/Voting/Voting.sol\":2889:3267  function startVotingSession() public onlyOwner {... */\n    tag_15:\n      tag_62\n      tag_63\n      jump\t// in\n    tag_62:\n      stop\n        /* \"contracts/Voting/Voting.sol\":631:666  WorkflowStatus public currentStatus */\n    tag_16:\n      tag_64\n      tag_65\n      jump\t// in\n    tag_64:\n      mload(0x40)\n      tag_66\n      swap2\n      swap1\n      tag_67\n      jump\t// in\n    tag_66:\n      mload(0x40)\n      dup1\n      swap2\n      sub\n      swap1\n      return\n        /* \"@openzeppelin/contracts/access/Ownable.sol\":2543:2758  function transferOwnership(address newOwner) public virtual onlyOwner {... */\n    tag_17:\n      tag_68\n      0x04\n      dup1\n      calldatasize\n      sub\n      dup2\n      add\n      swap1\n      tag_69\n      swap2\n      swap1\n      tag_23\n      jump\t// in\n    tag_69:\n      tag_70\n      jump\t// in\n    tag_68:\n      stop\n        /* \"contracts/Voting/Voting.sol\":714:765  mapping(address => uint256) public voterProposalIds */\n    tag_24:\n      mstore(0x20, 0x04)\n      dup1\n      0x00\n      mstore\n      keccak256(0x00, 0x40)\n      0x00\n      swap2\n      pop\n      swap1\n      pop\n      sload\n      dup2\n      jump\t// out\n        /* \"contracts/Voting/Voting.sol\":3645:4131  function voteForProposal(address _address, uint256 _proposalId) public {... */\n    tag_30:\n        /* \"contracts/Voting/Voting.sol\":3764:3799  WorkflowStatus.VotingSessionStarted */\n      0x03\n        /* \"contracts/Voting/Voting.sol\":3747:3799  currentStatus == WorkflowStatus.VotingSessionStarted */\n      0x05\n      dup2\n      gt\n      iszero\n      tag_72\n      jumpi\n      tag_73\n      tag_74\n      jump\t// in\n    tag_73:\n    tag_72:\n        /* \"contracts/Voting/Voting.sol\":3747:3760  currentStatus */\n      0x02\n      0x00\n      swap1\n      sload\n      swap1\n      0x0100\n      exp\n      swap1\n      div\n      0xff\n      and\n        /* \"contracts/Voting/Voting.sol\":3747:3799  currentStatus == WorkflowStatus.VotingSessionStarted */\n      0x05\n      dup2\n      gt\n      iszero\n      tag_75\n      jumpi\n      tag_76\n      tag_74\n      jump\t// in\n    tag_76:\n    tag_75:\n      eq\n        /* \"contracts/Voting/Voting.sol\":3726:3852  require(... */\n      tag_77\n      jumpi\n      mload(0x40)\n      0x08c379a000000000000000000000000000000000000000000000000000000000\n      dup2\n      mstore\n      0x04\n      add\n      tag_78\n      swap1\n      tag_79\n      jump\t// in\n    tag_78:\n      mload(0x40)\n      dup1\n      swap2\n      sub\n      swap1\n      revert\n    tag_77:\n        /* \"contracts/Voting/Voting.sol\":3870:3879  whitelist */\n      0x03\n        /* \"contracts/Voting/Voting.sol\":3870:3889  whitelist[_address] */\n      0x00\n        /* \"contracts/Voting/Voting.sol\":3880:3888  _address */\n      dup4\n        /* \"contracts/Voting/Voting.sol\":3870:3889  whitelist[_address] */\n      0xffffffffffffffffffffffffffffffffffffffff\n      and\n      0xffffffffffffffffffffffffffffffffffffffff\n      and\n      dup2\n      mstore\n      0x20\n      add\n      swap1\n      dup2\n      mstore\n      0x20\n      add\n      0x00\n      keccak256\n        /* \"contracts/Voting/Voting.sol\":3870:3902  whitelist[_address].isRegistered */\n      0x00\n      add\n      0x00\n      swap1\n      sload\n      swap1\n      0x0100\n      exp\n      swap1\n      div\n      0xff\n      and\n        /* \"contracts/Voting/Voting.sol\":3862:3930  require(whitelist[_address].isRegistered, \"Voter is not registered\") */\n      tag_80\n      jumpi\n      mload(0x40)\n      0x08c379a000000000000000000000000000000000000000000000000000000000\n      dup2\n      mstore\n      0x04\n      add\n      tag_81\n      swap1\n      tag_82\n      jump\t// in\n    tag_81:\n      mload(0x40)\n      dup1\n      swap2\n      sub\n      swap1\n      revert\n    tag_80:\n        /* \"contracts/Voting/Voting.sol\":3949:3958  whitelist */\n      0x03\n        /* \"contracts/Voting/Voting.sol\":3949:3968  whitelist[_address] */\n      0x00\n        /* \"contracts/Voting/Voting.sol\":3959:3967  _address */\n      dup4\n        /* \"contracts/Voting/Voting.sol\":3949:3968  whitelist[_address] */\n      0xffffffffffffffffffffffffffffffffffffffff\n      and\n      0xffffffffffffffffffffffffffffffffffffffff\n      and\n      dup2\n      mstore\n      0x20\n      add\n      swap1\n      dup2\n      mstore\n      0x20\n      add\n      0x00\n      keccak256\n        /* \"contracts/Voting/Voting.sol\":3949:3977  whitelist[_address].hasVoted */\n      0x00\n      add\n      0x01\n      swap1\n      sload\n      swap1\n      0x0100\n      exp\n      swap1\n      div\n      0xff\n      and\n        /* \"contracts/Voting/Voting.sol\":3948:3977  !whitelist[_address].hasVoted */\n      iszero\n        /* \"contracts/Voting/Voting.sol\":3940:4005  require(!whitelist[_address].hasVoted, \"Voter has already voted\") */\n      tag_83\n      jumpi\n      mload(0x40)\n      0x08c379a000000000000000000000000000000000000000000000000000000000\n      dup2\n      mstore\n      0x04\n      add\n      tag_84\n      swap1\n      tag_85\n      jump\t// in\n    tag_84:\n      mload(0x40)\n      dup1\n      swap2\n      sub\n      swap1\n      revert\n    tag_83:\n        /* \"contracts/Voting/Voting.sol\":4037:4049  proposalList */\n      0x05\n        /* \"contracts/Voting/Voting.sol\":4037:4056  proposalList.length */\n      dup1\n      sload\n      swap1\n      pop\n        /* \"contracts/Voting/Voting.sol\":4023:4034  _proposalId */\n      dup2\n        /* \"contracts/Voting/Voting.sol\":4023:4056  _proposalId < proposalList.length */\n      lt\n        /* \"contracts/Voting/Voting.sol\":4015:4080  require(_proposalId < proposalList.length, \"Invalid proposal id\") */\n      tag_86\n      jumpi\n      mload(0x40)\n      0x08c379a000000000000000000000000000000000000000000000000000000000\n      dup2\n      mstore\n      0x04\n      add\n      tag_87\n      swap1\n      tag_88\n      jump\t// in\n    tag_87:\n      mload(0x40)\n      dup1\n      swap2\n      sub\n      swap1\n      revert\n    tag_86:\n        /* \"contracts/Voting/Voting.sol\":4096:4124  Voted(_address, _proposalId) */\n      0x4d99b957a2bc29a30ebd96a7be8e68fe50a3c701db28a91436490b7d53870ca4\n        /* \"contracts/Voting/Voting.sol\":4102:4110  _address */\n      dup3\n        /* \"contracts/Voting/Voting.sol\":4112:4123  _proposalId */\n      dup3\n        /* \"contracts/Voting/Voting.sol\":4096:4124  Voted(_address, _proposalId) */\n      mload(0x40)\n      tag_89\n      swap3\n      swap2\n      swap1\n      tag_90\n      jump\t// in\n    tag_89:\n      mload(0x40)\n      dup1\n      swap2\n      sub\n      swap1\n      log1\n        /* \"contracts/Voting/Voting.sol\":3645:4131  function voteForProposal(address _address, uint256 _proposalId) public {... */\n      pop\n      pop\n      jump\t// out\n        /* \"contracts/Voting/Voting.sol\":2486:2883  function endProposalsRegistration() public onlyOwner {... */\n    tag_32:\n        /* \"@openzeppelin/contracts/access/Ownable.sol\":1531:1544  _checkOwner() */\n      tag_92\n        /* \"@openzeppelin/contracts/access/Ownable.sol\":1531:1542  _checkOwner */\n      tag_93\n        /* \"@openzeppelin/contracts/access/Ownable.sol\":1531:1544  _checkOwner() */\n      jump\t// in\n    tag_92:\n        /* \"contracts/Voting/Voting.sol\":2587:2630  WorkflowStatus.ProposalsRegistrationStarted */\n      0x01\n        /* \"contracts/Voting/Voting.sol\":2570:2630  currentStatus == WorkflowStatus.ProposalsRegistrationStarted */\n      0x05\n      dup2\n      gt\n      iszero\n      tag_95\n      jumpi\n      tag_96\n      tag_74\n      jump\t// in\n    tag_96:\n    tag_95:\n        /* \"contracts/Voting/Voting.sol\":2570:2583  currentStatus */\n      0x02\n      0x00\n      swap1\n      sload\n      swap1\n      0x0100\n      exp\n      swap1\n      div\n      0xff\n      and\n        /* \"contracts/Voting/Voting.sol\":2570:2630  currentStatus == WorkflowStatus.ProposalsRegistrationStarted */\n      0x05\n      dup2\n      gt\n      iszero\n      tag_97\n      jumpi\n      tag_98\n      tag_74\n      jump\t// in\n    tag_98:\n    tag_97:\n      eq\n        /* \"contracts/Voting/Voting.sol\":2549:2702  require(... */\n      tag_99\n      jumpi\n      mload(0x40)\n      0x08c379a000000000000000000000000000000000000000000000000000000000\n      dup2\n      mstore\n      0x04\n      add\n      tag_100\n      swap1\n      tag_101\n      jump\t// in\n    tag_100:\n      mload(0x40)\n      dup1\n      swap2\n      sub\n      swap1\n      revert\n    tag_99:\n        /* \"contracts/Voting/Voting.sol\":2712:2736  WorkflowStatus newStatus */\n      0x00\n        /* \"contracts/Voting/Voting.sol\":2739:2780  WorkflowStatus.ProposalsRegistrationEnded */\n      0x02\n        /* \"contracts/Voting/Voting.sol\":2712:2780  WorkflowStatus newStatus = WorkflowStatus.ProposalsRegistrationEnded */\n      swap1\n      pop\n        /* \"contracts/Voting/Voting.sol\":2795:2841  WorkflowStatusChange(currentStatus, newStatus) */\n      0x0a97a4ee45751e2abf3e4fc8946939630b11b371ea8ae39ccdc3056e98f5cc3f\n        /* \"contracts/Voting/Voting.sol\":2816:2829  currentStatus */\n      0x02\n      0x00\n      swap1\n      sload\n      swap1\n      0x0100\n      exp\n      swap1\n      div\n      0xff\n      and\n        /* \"contracts/Voting/Voting.sol\":2831:2840  newStatus */\n      dup3\n        /* \"contracts/Voting/Voting.sol\":2795:2841  WorkflowStatusChange(currentStatus, newStatus) */\n      mload(0x40)\n      tag_102\n      swap3\n      swap2\n      swap1\n      tag_103\n      jump\t// in\n    tag_102:\n      mload(0x40)\n      dup1\n      swap2\n      sub\n      swap1\n      log1\n        /* \"contracts/Voting/Voting.sol\":2867:2876  newStatus */\n      dup1\n        /* \"contracts/Voting/Voting.sol\":2851:2864  currentStatus */\n      0x02\n      0x00\n        /* \"contracts/Voting/Voting.sol\":2851:2876  currentStatus = newStatus */\n      0x0100\n      exp\n      dup2\n      sload\n      dup2\n      0xff\n      mul\n      not\n      and\n      swap1\n      dup4\n      0x05\n      dup2\n      gt\n      iszero\n      tag_104\n      jumpi\n      tag_105\n      tag_74\n      jump\t// in\n    tag_105:\n    tag_104:\n      mul\n      or\n      swap1\n      sstore\n      pop\n        /* \"contracts/Voting/Voting.sol\":2539:2883  {... */\n      pop\n        /* \"contracts/Voting/Voting.sol\":2486:2883  function endProposalsRegistration() public onlyOwner {... */\n      jump\t// out\n        /* \"@openzeppelin/contracts/access/Ownable.sol\":2293:2394  function renounceOwnership() public virtual onlyOwner {... */\n    tag_34:\n        /* \"@openzeppelin/contracts/access/Ownable.sol\":1531:1544  _checkOwner() */\n      tag_107\n        /* \"@openzeppelin/contracts/access/Ownable.sol\":1531:1542  _checkOwner */\n      tag_93\n        /* \"@openzeppelin/contracts/access/Ownable.sol\":1531:1544  _checkOwner() */\n      jump\t// in\n    tag_107:\n        /* \"@openzeppelin/contracts/access/Ownable.sol\":2357:2387  _transferOwnership(address(0)) */\n      tag_109\n        /* \"@openzeppelin/contracts/access/Ownable.sol\":2384:2385  0 */\n      0x00\n        /* \"@openzeppelin/contracts/access/Ownable.sol\":2357:2375  _transferOwnership */\n      tag_110\n        /* \"@openzeppelin/contracts/access/Ownable.sol\":2357:2387  _transferOwnership(address(0)) */\n      jump\t// in\n    tag_109:\n        /* \"@openzeppelin/contracts/access/Ownable.sol\":2293:2394  function renounceOwnership() public virtual onlyOwner {... */\n      jump\t// out\n        /* \"@openzeppelin/contracts/access/Ownable.sol\":1638:1723  function owner() public view virtual returns (address) {... */\n    tag_36:\n        /* \"@openzeppelin/contracts/access/Ownable.sol\":1684:1691  address */\n      0x00\n        /* \"@openzeppelin/contracts/access/Ownable.sol\":1710:1716  _owner */\n      dup1\n      0x00\n      swap1\n      sload\n      swap1\n      0x0100\n      exp\n      swap1\n      div\n      0xffffffffffffffffffffffffffffffffffffffff\n      and\n        /* \"@openzeppelin/contracts/access/Ownable.sol\":1703:1716  return _owner */\n      swap1\n      pop\n        /* \"@openzeppelin/contracts/access/Ownable.sol\":1638:1723  function owner() public view virtual returns (address) {... */\n      swap1\n      jump\t// out\n        /* \"contracts/Voting/Voting.sol\":4539:4748  function getWinner() public pure returns (Proposal memory) {... */\n    tag_40:\n        /* \"contracts/Voting/Voting.sol\":4581:4596  Proposal memory */\n      tag_112\n      tag_113\n      jump\t// in\n    tag_112:\n        /* \"contracts/Voting/Voting.sol\":4680:4741  Proposal({description: \"proposition de test\", voteCount: 20}) */\n      mload(0x40)\n      dup1\n      0x40\n      add\n      0x40\n      mstore\n      dup1\n      mload(0x40)\n      dup1\n      0x40\n      add\n      0x40\n      mstore\n      dup1\n      0x13\n      dup2\n      mstore\n      0x20\n      add\n      0x70726f706f736974696f6e206465207465737400000000000000000000000000\n      dup2\n      mstore\n      pop\n      dup2\n      mstore\n      0x20\n      add\n        /* \"contracts/Voting/Voting.sol\":4737:4739  20 */\n      0x14\n        /* \"contracts/Voting/Voting.sol\":4680:4741  Proposal({description: \"proposition de test\", voteCount: 20}) */\n      dup2\n      mstore\n      pop\n        /* \"contracts/Voting/Voting.sol\":4673:4741  return Proposal({description: \"proposition de test\", voteCount: 20}) */\n      swap1\n      pop\n        /* \"contracts/Voting/Voting.sol\":4539:4748  function getWinner() public pure returns (Proposal memory) {... */\n      swap1\n      jump\t// out\n        /* \"contracts/Voting/Voting.sol\":3273:3639  function endVotingSession() public onlyOwner {... */\n    tag_44:\n        /* \"@openzeppelin/contracts/access/Ownable.sol\":1531:1544  _checkOwner() */\n      tag_116\n        /* \"@openzeppelin/contracts/access/Ownable.sol\":1531:1542  _checkOwner */\n      tag_93\n        /* \"@openzeppelin/contracts/access/Ownable.sol\":1531:1544  _checkOwner() */\n      jump\t// in\n    tag_116:\n        /* \"contracts/Voting/Voting.sol\":3366:3401  WorkflowStatus.VotingSessionStarted */\n      0x03\n        /* \"contracts/Voting/Voting.sol\":3349:3401  currentStatus == WorkflowStatus.VotingSessionStarted */\n      0x05\n      dup2\n      gt\n      iszero\n      tag_118\n      jumpi\n      tag_119\n      tag_74\n      jump\t// in\n    tag_119:\n    tag_118:\n        /* \"contracts/Voting/Voting.sol\":3349:3362  currentStatus */\n      0x02\n      0x00\n      swap1\n      sload\n      swap1\n      0x0100\n      exp\n      swap1\n      div\n      0xff\n      and\n        /* \"contracts/Voting/Voting.sol\":3349:3401  currentStatus == WorkflowStatus.VotingSessionStarted */\n      0x05\n      dup2\n      gt\n      iszero\n      tag_120\n      jumpi\n      tag_121\n      tag_74\n      jump\t// in\n    tag_121:\n    tag_120:\n      eq\n        /* \"contracts/Voting/Voting.sol\":3328:3466  require(... */\n      tag_122\n      jumpi\n      mload(0x40)\n      0x08c379a000000000000000000000000000000000000000000000000000000000\n      dup2\n      mstore\n      0x04\n      add\n      tag_123\n      swap1\n      tag_124\n      jump\t// in\n    tag_123:\n      mload(0x40)\n      dup1\n      swap2\n      sub\n      swap1\n      revert\n    tag_122:\n        /* \"contracts/Voting/Voting.sol\":3476:3500  WorkflowStatus newStatus */\n      0x00\n        /* \"contracts/Voting/Voting.sol\":3503:3536  WorkflowStatus.VotingSessionEnded */\n      0x04\n        /* \"contracts/Voting/Voting.sol\":3476:3536  WorkflowStatus newStatus = WorkflowStatus.VotingSessionEnded */\n      swap1\n      pop\n        /* \"contracts/Voting/Voting.sol\":3551:3597  WorkflowStatusChange(currentStatus, newStatus) */\n      0x0a97a4ee45751e2abf3e4fc8946939630b11b371ea8ae39ccdc3056e98f5cc3f\n        /* \"contracts/Voting/Voting.sol\":3572:3585  currentStatus */\n      0x02\n      0x00\n      swap1\n      sload\n      swap1\n      0x0100\n      exp\n      swap1\n      div\n      0xff\n      and\n        /* \"contracts/Voting/Voting.sol\":3587:3596  newStatus */\n      dup3\n        /* \"contracts/Voting/Voting.sol\":3551:3597  WorkflowStatusChange(currentStatus, newStatus) */\n      mload(0x40)\n      tag_125\n      swap3\n      swap2\n      swap1\n      tag_103\n      jump\t// in\n    tag_125:\n      mload(0x40)\n      dup1\n      swap2\n      sub\n      swap1\n      log1\n        /* \"contracts/Voting/Voting.sol\":3623:3632  newStatus */\n      dup1\n        /* \"contracts/Voting/Voting.sol\":3607:3620  currentStatus */\n      0x02\n      0x00\n        /* \"contracts/Voting/Voting.sol\":3607:3632  currentStatus = newStatus */\n      0x0100\n      exp\n      dup2\n      sload\n      dup2\n      0xff\n      mul\n      not\n      and\n      swap1\n      dup4\n      0x05\n      dup2\n      gt\n      iszero\n      tag_126\n      jumpi\n      tag_127\n      tag_74\n      jump\t// in\n    tag_127:\n    tag_126:\n      mul\n      or\n      swap1\n      sstore\n      pop\n        /* \"contracts/Voting/Voting.sol\":3318:3639  {... */\n      pop\n        /* \"contracts/Voting/Voting.sol\":3273:3639  function endVotingSession() public onlyOwner {... */\n      jump\t// out\n        /* \"contracts/Voting/Voting.sol\":4137:4533  function countVotes() public onlyOwner {... */\n    tag_46:\n        /* \"@openzeppelin/contracts/access/Ownable.sol\":1531:1544  _checkOwner() */\n      tag_129\n        /* \"@openzeppelin/contracts/access/Ownable.sol\":1531:1542  _checkOwner */\n      tag_93\n        /* \"@openzeppelin/contracts/access/Ownable.sol\":1531:1544  _checkOwner() */\n      jump\t// in\n    tag_129:\n        /* \"contracts/Voting/Voting.sol\":4224:4257  WorkflowStatus.VotingSessionEnded */\n      0x04\n        /* \"contracts/Voting/Voting.sol\":4207:4257  currentStatus == WorkflowStatus.VotingSessionEnded */\n      0x05\n      dup2\n      gt\n      iszero\n      tag_131\n      jumpi\n      tag_132\n      tag_74\n      jump\t// in\n    tag_132:\n    tag_131:\n        /* \"contracts/Voting/Voting.sol\":4207:4220  currentStatus */\n      0x02\n      0x00\n      swap1\n      sload\n      swap1\n      0x0100\n      exp\n      swap1\n      div\n      0xff\n      and\n        /* \"contracts/Voting/Voting.sol\":4207:4257  currentStatus == WorkflowStatus.VotingSessionEnded */\n      0x05\n      dup2\n      gt\n      iszero\n      tag_133\n      jumpi\n      tag_134\n      tag_74\n      jump\t// in\n    tag_134:\n    tag_133:\n      eq\n        /* \"contracts/Voting/Voting.sol\":4186:4310  require(... */\n      tag_135\n      jumpi\n      mload(0x40)\n      0x08c379a000000000000000000000000000000000000000000000000000000000\n      dup2\n      mstore\n      0x04\n      add\n      tag_136\n      swap1\n      tag_79\n      jump\t// in\n    tag_136:\n      mload(0x40)\n      dup1\n      swap2\n      sub\n      swap1\n      revert\n    tag_135:\n        /* \"contracts/Voting/Voting.sol\":4320:4344  WorkflowStatus newStatus */\n      0x00\n        /* \"contracts/Voting/Voting.sol\":4347:4374  WorkflowStatus.VotesTallied */\n      0x05\n        /* \"contracts/Voting/Voting.sol\":4320:4374  WorkflowStatus newStatus = WorkflowStatus.VotesTallied */\n      swap1\n      pop\n        /* \"contracts/Voting/Voting.sol\":4389:4435  WorkflowStatusChange(currentStatus, newStatus) */\n      0x0a97a4ee45751e2abf3e4fc8946939630b11b371ea8ae39ccdc3056e98f5cc3f\n        /* \"contracts/Voting/Voting.sol\":4410:4423  currentStatus */\n      0x02\n      0x00\n      swap1\n      sload\n      swap1\n      0x0100\n      exp\n      swap1\n      div\n      0xff\n      and\n        /* \"contracts/Voting/Voting.sol\":4425:4434  newStatus */\n      dup3\n        /* \"contracts/Voting/Voting.sol\":4389:4435  WorkflowStatusChange(currentStatus, newStatus) */\n      mload(0x40)\n      tag_137\n      swap3\n      swap2\n      swap1\n      tag_103\n      jump\t// in\n    tag_137:\n      mload(0x40)\n      dup1\n      swap2\n      sub\n      swap1\n      log1\n        /* \"contracts/Voting/Voting.sol\":4461:4470  newStatus */\n      dup1\n        /* \"contracts/Voting/Voting.sol\":4445:4458  currentStatus */\n      0x02\n      0x00\n        /* \"contracts/Voting/Voting.sol\":4445:4470  currentStatus = newStatus */\n      0x0100\n      exp\n      dup2\n      sload\n      dup2\n      0xff\n      mul\n      not\n      and\n      swap1\n      dup4\n      0x05\n      dup2\n      gt\n      iszero\n      tag_138\n      jumpi\n      tag_139\n      tag_74\n      jump\t// in\n    tag_139:\n    tag_138:\n      mul\n      or\n      swap1\n      sstore\n      pop\n        /* \"contracts/Voting/Voting.sol\":4500:4502  10 */\n      0x0a\n        /* \"contracts/Voting/Voting.sol\":4480:4497  winningProposalId */\n      0x01\n        /* \"contracts/Voting/Voting.sol\":4480:4502  winningProposalId = 10 */\n      dup2\n      swap1\n      sstore\n      pop\n        /* \"contracts/Voting/Voting.sol\":4176:4533  {... */\n      pop\n        /* \"contracts/Voting/Voting.sol\":4137:4533  function countVotes() public onlyOwner {... */\n      jump\t// out\n        /* \"contracts/Voting/Voting.sol\":1071:1447  function authorize(address _address) public onlyOwner {... */\n    tag_49:\n        /* \"@openzeppelin/contracts/access/Ownable.sol\":1531:1544  _checkOwner() */\n      tag_141\n        /* \"@openzeppelin/contracts/access/Ownable.sol\":1531:1542  _checkOwner */\n      tag_93\n        /* \"@openzeppelin/contracts/access/Ownable.sol\":1531:1544  _checkOwner() */\n      jump\t// in\n    tag_141:\n        /* \"contracts/Voting/Voting.sol\":1173:1205  WorkflowStatus.RegisteringVoters */\n      0x00\n        /* \"contracts/Voting/Voting.sol\":1156:1205  currentStatus == WorkflowStatus.RegisteringVoters */\n      0x05\n      dup2\n      gt\n      iszero\n      tag_143\n      jumpi\n      tag_144\n      tag_74\n      jump\t// in\n    tag_144:\n    tag_143:\n        /* \"contracts/Voting/Voting.sol\":1156:1169  currentStatus */\n      0x02\n      0x00\n      swap1\n      sload\n      swap1\n      0x0100\n      exp\n      swap1\n      div\n      0xff\n      and\n        /* \"contracts/Voting/Voting.sol\":1156:1205  currentStatus == WorkflowStatus.RegisteringVoters */\n      0x05\n      dup2\n      gt\n      iszero\n      tag_145\n      jumpi\n      tag_146\n      tag_74\n      jump\t// in\n    tag_146:\n    tag_145:\n      eq\n        /* \"contracts/Voting/Voting.sol\":1135:1278  require(... */\n      tag_147\n      jumpi\n      mload(0x40)\n      0x08c379a000000000000000000000000000000000000000000000000000000000\n      dup2\n      mstore\n      0x04\n      add\n      tag_148\n      swap1\n      tag_149\n      jump\t// in\n    tag_148:\n      mload(0x40)\n      dup1\n      swap2\n      sub\n      swap1\n      revert\n    tag_147:\n        /* \"contracts/Voting/Voting.sol\":1297:1306  whitelist */\n      0x03\n        /* \"contracts/Voting/Voting.sol\":1297:1316  whitelist[_address] */\n      0x00\n        /* \"contracts/Voting/Voting.sol\":1307:1315  _address */\n      dup3\n        /* \"contracts/Voting/Voting.sol\":1297:1316  whitelist[_address] */\n      0xffffffffffffffffffffffffffffffffffffffff\n      and\n      0xffffffffffffffffffffffffffffffffffffffff\n      and\n      dup2\n      mstore\n      0x20\n      add\n      swap1\n      dup2\n      mstore\n      0x20\n      add\n      0x00\n      keccak256\n        /* \"contracts/Voting/Voting.sol\":1297:1329  whitelist[_address].isRegistered */\n      0x00\n      add\n      0x00\n      swap1\n      sload\n      swap1\n      0x0100\n      exp\n      swap1\n      div\n      0xff\n      and\n        /* \"contracts/Voting/Voting.sol\":1296:1329  !whitelist[_address].isRegistered */\n      iszero\n        /* \"contracts/Voting/Voting.sol\":1288:1358  require(!whitelist[_address].isRegistered, \"already in the whitelist\") */\n      tag_150\n      jumpi\n      mload(0x40)\n      0x08c379a000000000000000000000000000000000000000000000000000000000\n      dup2\n      mstore\n      0x04\n      add\n      tag_151\n      swap1\n      tag_152\n      jump\t// in\n    tag_151:\n      mload(0x40)\n      dup1\n      swap2\n      sub\n      swap1\n      revert\n    tag_150:\n        /* \"contracts/Voting/Voting.sol\":1368:1377  whitelist */\n      0x03\n        /* \"contracts/Voting/Voting.sol\":1368:1387  whitelist[_address] */\n      0x00\n        /* \"contracts/Voting/Voting.sol\":1378:1386  _address */\n      dup3\n        /* \"contracts/Voting/Voting.sol\":1368:1387  whitelist[_address] */\n      0xffffffffffffffffffffffffffffffffffffffff\n      and\n      0xffffffffffffffffffffffffffffffffffffffff\n      and\n      dup2\n      mstore\n      0x20\n      add\n      swap1\n      dup2\n      mstore\n      0x20\n      add\n      0x00\n      keccak256\n        /* \"contracts/Voting/Voting.sol\":1368:1400  whitelist[_address].isRegistered */\n      0x00\n      add\n      0x00\n      swap1\n      sload\n      swap1\n      0x0100\n      exp\n      swap1\n      pop\n      pop\n        /* \"contracts/Voting/Voting.sol\":1415:1440  VoterRegistered(_address) */\n      0xb6be2187d059cc2a55fe29e0e503b566e1e0f8c8780096e185429350acffd3dd\n        /* \"contracts/Voting/Voting.sol\":1431:1439  _address */\n      dup2\n        /* \"contracts/Voting/Voting.sol\":1415:1440  VoterRegistered(_address) */\n      mload(0x40)\n      tag_153\n      swap2\n      swap1\n      tag_38\n      jump\t// in\n    tag_153:\n      mload(0x40)\n      dup1\n      swap2\n      sub\n      swap1\n      log1\n        /* \"contracts/Voting/Voting.sol\":1071:1447  function authorize(address _address) public onlyOwner {... */\n      pop\n      jump\t// out\n        /* \"contracts/Voting/Voting.sol\":771:801  Proposal[] public proposalList */\n    tag_53:\n      0x05\n      dup2\n      dup2\n      sload\n      dup2\n      lt\n      tag_154\n      jumpi\n      0x00\n      dup1\n      revert\n    tag_154:\n      swap1\n      0x00\n      mstore\n      keccak256(0x00, 0x20)\n      swap1\n      0x02\n      mul\n      add\n      0x00\n      swap2\n      pop\n      swap1\n      pop\n      dup1\n      0x00\n      add\n      dup1\n      sload\n      tag_156\n      swap1\n      tag_157\n      jump\t// in\n    tag_156:\n      dup1\n      0x1f\n      add\n      0x20\n      dup1\n      swap2\n      div\n      mul\n      0x20\n      add\n      mload(0x40)\n      swap1\n      dup2\n      add\n      0x40\n      mstore\n      dup1\n      swap3\n      swap2\n      swap1\n      dup2\n      dup2\n      mstore\n      0x20\n      add\n      dup3\n      dup1\n      sload\n      tag_158\n      swap1\n      tag_157\n      jump\t// in\n    tag_158:\n      dup1\n      iszero\n      tag_159\n      jumpi\n      dup1\n      0x1f\n      lt\n      tag_160\n      jumpi\n      0x0100\n      dup1\n      dup4\n      sload\n      div\n      mul\n      dup4\n      mstore\n      swap2\n      0x20\n      add\n      swap2\n      jump(tag_159)\n    tag_160:\n      dup3\n      add\n      swap2\n      swap1\n      0x00\n      mstore\n      keccak256(0x00, 0x20)\n      swap1\n    tag_161:\n      dup2\n      sload\n      dup2\n      mstore\n      swap1\n      0x01\n      add\n      swap1\n      0x20\n      add\n      dup1\n      dup4\n      gt\n      tag_161\n      jumpi\n      dup3\n      swap1\n      sub\n      0x1f\n      and\n      dup3\n      add\n      swap2\n    tag_159:\n      pop\n      pop\n      pop\n      pop\n      pop\n      swap1\n      dup1\n      0x01\n      add\n      sload\n      swap1\n      pop\n      dup3\n      jump\t// out\n        /* \"contracts/Voting/Voting.sol\":1453:1845  function startProposalsRegistration() public onlyOwner {... */\n    tag_57:\n        /* \"@openzeppelin/contracts/access/Ownable.sol\":1531:1544  _checkOwner() */\n      tag_163\n        /* \"@openzeppelin/contracts/access/Ownable.sol\":1531:1542  _checkOwner */\n      tag_93\n        /* \"@openzeppelin/contracts/access/Ownable.sol\":1531:1544  _checkOwner() */\n      jump\t// in\n    tag_163:\n        /* \"contracts/Voting/Voting.sol\":1556:1588  WorkflowStatus.RegisteringVoters */\n      0x00\n        /* \"contracts/Voting/Voting.sol\":1539:1588  currentStatus == WorkflowStatus.RegisteringVoters */\n      0x05\n      dup2\n      gt\n      iszero\n      tag_165\n      jumpi\n      tag_166\n      tag_74\n      jump\t// in\n    tag_166:\n    tag_165:\n        /* \"contracts/Voting/Voting.sol\":1539:1552  currentStatus */\n      0x02\n      0x00\n      swap1\n      sload\n      swap1\n      0x0100\n      exp\n      swap1\n      div\n      0xff\n      and\n        /* \"contracts/Voting/Voting.sol\":1539:1588  currentStatus == WorkflowStatus.RegisteringVoters */\n      0x05\n      dup2\n      gt\n      iszero\n      tag_167\n      jumpi\n      tag_168\n      tag_74\n      jump\t// in\n    tag_168:\n    tag_167:\n      eq\n        /* \"contracts/Voting/Voting.sol\":1518:1662  require(... */\n      tag_169\n      jumpi\n      mload(0x40)\n      0x08c379a000000000000000000000000000000000000000000000000000000000\n      dup2\n      mstore\n      0x04\n      add\n      tag_170\n      swap1\n      tag_171\n      jump\t// in\n    tag_170:\n      mload(0x40)\n      dup1\n      swap2\n      sub\n      swap1\n      revert\n    tag_169:\n        /* \"contracts/Voting/Voting.sol\":1672:1696  WorkflowStatus newStatus */\n      0x00\n        /* \"contracts/Voting/Voting.sol\":1699:1742  WorkflowStatus.ProposalsRegistrationStarted */\n      0x01\n        /* \"contracts/Voting/Voting.sol\":1672:1742  WorkflowStatus newStatus = WorkflowStatus.ProposalsRegistrationStarted */\n      swap1\n      pop\n        /* \"contracts/Voting/Voting.sol\":1757:1803  WorkflowStatusChange(currentStatus, newStatus) */\n      0x0a97a4ee45751e2abf3e4fc8946939630b11b371ea8ae39ccdc3056e98f5cc3f\n        /* \"contracts/Voting/Voting.sol\":1778:1791  currentStatus */\n      0x02\n      0x00\n      swap1\n      sload\n      swap1\n      0x0100\n      exp\n      swap1\n      div\n      0xff\n      and\n        /* \"contracts/Voting/Voting.sol\":1793:1802  newStatus */\n      dup3\n        /* \"contracts/Voting/Voting.sol\":1757:1803  WorkflowStatusChange(currentStatus, newStatus) */\n      mload(0x40)\n      tag_172\n      swap3\n      swap2\n      swap1\n      tag_103\n      jump\t// in\n    tag_172:\n      mload(0x40)\n      dup1\n      swap2\n      sub\n      swap1\n      log1\n        /* \"contracts/Voting/Voting.sol\":1829:1838  newStatus */\n      dup1\n        /* \"contracts/Voting/Voting.sol\":1813:1826  currentStatus */\n      0x02\n      0x00\n        /* \"contracts/Voting/Voting.sol\":1813:1838  currentStatus = newStatus */\n      0x0100\n      exp\n      dup2\n      sload\n      dup2\n      0xff\n      mul\n      not\n      and\n      swap1\n      dup4\n      0x05\n      dup2\n      gt\n      iszero\n      tag_173\n      jumpi\n      tag_174\n      tag_74\n      jump\t// in\n    tag_174:\n    tag_173:\n      mul\n      or\n      swap1\n      sstore\n      pop\n        /* \"contracts/Voting/Voting.sol\":1508:1845  {... */\n      pop\n        /* \"contracts/Voting/Voting.sol\":1453:1845  function startProposalsRegistration() public onlyOwner {... */\n      jump\t// out\n        /* \"contracts/Voting/Voting.sol\":1851:2480  function registerProposal(address _address, string memory _description)... */\n    tag_61:\n        /* \"contracts/Voting/Voting.sol\":1990:2033  WorkflowStatus.ProposalsRegistrationStarted */\n      0x01\n        /* \"contracts/Voting/Voting.sol\":1973:2033  currentStatus == WorkflowStatus.ProposalsRegistrationStarted */\n      0x05\n      dup2\n      gt\n      iszero\n      tag_176\n      jumpi\n      tag_177\n      tag_74\n      jump\t// in\n    tag_177:\n    tag_176:\n        /* \"contracts/Voting/Voting.sol\":1973:1986  currentStatus */\n      0x02\n      0x00\n      swap1\n      sload\n      swap1\n      0x0100\n      exp\n      swap1\n      div\n      0xff\n      and\n        /* \"contracts/Voting/Voting.sol\":1973:2033  currentStatus == WorkflowStatus.ProposalsRegistrationStarted */\n      0x05\n      dup2\n      gt\n      iszero\n      tag_178\n      jumpi\n      tag_179\n      tag_74\n      jump\t// in\n    tag_179:\n    tag_178:\n      eq\n        /* \"contracts/Voting/Voting.sol\":1952:2083  require(... */\n      tag_180\n      jumpi\n      mload(0x40)\n      0x08c379a000000000000000000000000000000000000000000000000000000000\n      dup2\n      mstore\n      0x04\n      add\n      tag_181\n      swap1\n      tag_182\n      jump\t// in\n    tag_181:\n      mload(0x40)\n      dup1\n      swap2\n      sub\n      swap1\n      revert\n    tag_180:\n        /* \"contracts/Voting/Voting.sol\":2101:2110  whitelist */\n      0x03\n        /* \"contracts/Voting/Voting.sol\":2101:2120  whitelist[_address] */\n      0x00\n        /* \"contracts/Voting/Voting.sol\":2111:2119  _address */\n      dup4\n        /* \"contracts/Voting/Voting.sol\":2101:2120  whitelist[_address] */\n      0xffffffffffffffffffffffffffffffffffffffff\n      and\n      0xffffffffffffffffffffffffffffffffffffffff\n      and\n      dup2\n      mstore\n      0x20\n      add\n      swap1\n      dup2\n      mstore\n      0x20\n      add\n      0x00\n      keccak256\n        /* \"contracts/Voting/Voting.sol\":2101:2133  whitelist[_address].isRegistered */\n      0x00\n      add\n      0x00\n      swap1\n      sload\n      swap1\n      0x0100\n      exp\n      swap1\n      div\n      0xff\n      and\n        /* \"contracts/Voting/Voting.sol\":2093:2161  require(whitelist[_address].isRegistered, \"Voter is not registered\") */\n      tag_183\n      jumpi\n      mload(0x40)\n      0x08c379a000000000000000000000000000000000000000000000000000000000\n      dup2\n      mstore\n      0x04\n      add\n      tag_184\n      swap1\n      tag_82\n      jump\t// in\n    tag_184:\n      mload(0x40)\n      dup1\n      swap2\n      sub\n      swap1\n      revert\n    tag_183:\n        /* \"contracts/Voting/Voting.sol\":2171:2198  Proposal memory newProposal */\n      0x00\n        /* \"contracts/Voting/Voting.sol\":2201:2286  Proposal({... */\n      mload(0x40)\n      dup1\n      0x40\n      add\n      0x40\n      mstore\n      dup1\n        /* \"contracts/Voting/Voting.sol\":2237:2249  _description */\n      dup4\n        /* \"contracts/Voting/Voting.sol\":2201:2286  Proposal({... */\n      dup2\n      mstore\n      0x20\n      add\n        /* \"contracts/Voting/Voting.sol\":2274:2275  0 */\n      0x00\n        /* \"contracts/Voting/Voting.sol\":2201:2286  Proposal({... */\n      dup2\n      mstore\n      pop\n        /* \"contracts/Voting/Voting.sol\":2171:2286  Proposal memory newProposal = Proposal({... */\n      swap1\n      pop\n        /* \"contracts/Voting/Voting.sol\":2296:2308  proposalList */\n      0x05\n        /* \"contracts/Voting/Voting.sol\":2314:2325  newProposal */\n      dup2\n        /* \"contracts/Voting/Voting.sol\":2296:2326  proposalList.push(newProposal) */\n      swap1\n      dup1\n      0x01\n      dup2\n      sload\n      add\n      dup1\n      dup3\n      sstore\n      dup1\n      swap2\n      pop\n      pop\n      0x01\n      swap1\n      sub\n      swap1\n      0x00\n      mstore\n      keccak256(0x00, 0x20)\n      swap1\n      0x02\n      mul\n      add\n      0x00\n      swap1\n      swap2\n      swap1\n      swap2\n      swap1\n      swap2\n      pop\n      0x00\n      dup3\n      add\n      mload\n      dup2\n      0x00\n      add\n      swap1\n      dup2\n      tag_186\n      swap2\n      swap1\n      tag_187\n      jump\t// in\n    tag_186:\n      pop\n      0x20\n      dup3\n      add\n      mload\n      dup2\n      0x01\n      add\n      sstore\n      pop\n      pop\n        /* \"contracts/Voting/Voting.sol\":2337:2355  uint256 proposalId */\n      0x00\n        /* \"contracts/Voting/Voting.sol\":2358:2370  proposalList */\n      0x05\n        /* \"contracts/Voting/Voting.sol\":2358:2377  proposalList.length */\n      dup1\n      sload\n      swap1\n      pop\n        /* \"contracts/Voting/Voting.sol\":2337:2377  uint256 proposalId = proposalList.length */\n      swap1\n      pop\n        /* \"contracts/Voting/Voting.sol\":2417:2427  proposalId */\n      dup1\n        /* \"contracts/Voting/Voting.sol\":2388:2404  voterProposalIds */\n      0x04\n        /* \"contracts/Voting/Voting.sol\":2388:2414  voterProposalIds[_address] */\n      0x00\n        /* \"contracts/Voting/Voting.sol\":2405:2413  _address */\n      dup7\n        /* \"contracts/Voting/Voting.sol\":2388:2414  voterProposalIds[_address] */\n      0xffffffffffffffffffffffffffffffffffffffff\n      and\n      0xffffffffffffffffffffffffffffffffffffffff\n      and\n      dup2\n      mstore\n      0x20\n      add\n      swap1\n      dup2\n      mstore\n      0x20\n      add\n      0x00\n      keccak256\n        /* \"contracts/Voting/Voting.sol\":2388:2427  voterProposalIds[_address] = proposalId */\n      dup2\n      swap1\n      sstore\n      pop\n        /* \"contracts/Voting/Voting.sol\":2443:2473  ProposalRegistered(proposalId) */\n      0x92e393e9b54e2f801d3ea4beb0c5e71a21cc34a5d34b77d0fb8a3aa1650dc18f\n        /* \"contracts/Voting/Voting.sol\":2462:2472  proposalId */\n      dup2\n        /* \"contracts/Voting/Voting.sol\":2443:2473  ProposalRegistered(proposalId) */\n      mload(0x40)\n      tag_188\n      swap2\n      swap1\n      tag_26\n      jump\t// in\n    tag_188:\n      mload(0x40)\n      dup1\n      swap2\n      sub\n      swap1\n      log1\n        /* \"contracts/Voting/Voting.sol\":1942:2480  {... */\n      pop\n      pop\n        /* \"contracts/Voting/Voting.sol\":1851:2480  function registerProposal(address _address, string memory _description)... */\n      pop\n      pop\n      jump\t// out\n        /* \"contracts/Voting/Voting.sol\":2889:3267  function startVotingSession() public onlyOwner {... */\n    tag_63:\n        /* \"@openzeppelin/contracts/access/Ownable.sol\":1531:1544  _checkOwner() */\n      tag_190\n        /* \"@openzeppelin/contracts/access/Ownable.sol\":1531:1542  _checkOwner */\n      tag_93\n        /* \"@openzeppelin/contracts/access/Ownable.sol\":1531:1544  _checkOwner() */\n      jump\t// in\n    tag_190:\n        /* \"contracts/Voting/Voting.sol\":2984:3025  WorkflowStatus.ProposalsRegistrationEnded */\n      0x02\n        /* \"contracts/Voting/Voting.sol\":2967:3025  currentStatus == WorkflowStatus.ProposalsRegistrationEnded */\n      0x05\n      dup2\n      gt\n      iszero\n      tag_192\n      jumpi\n      tag_193\n      tag_74\n      jump\t// in\n    tag_193:\n    tag_192:\n        /* \"contracts/Voting/Voting.sol\":2967:2980  currentStatus */\n      0x02\n      0x00\n      swap1\n      sload\n      swap1\n      0x0100\n      exp\n      swap1\n      div\n      0xff\n      and\n        /* \"contracts/Voting/Voting.sol\":2967:3025  currentStatus == WorkflowStatus.ProposalsRegistrationEnded */\n      0x05\n      dup2\n      gt\n      iszero\n      tag_194\n      jumpi\n      tag_195\n      tag_74\n      jump\t// in\n    tag_195:\n    tag_194:\n      eq\n        /* \"contracts/Voting/Voting.sol\":2946:3092  require(... */\n      tag_196\n      jumpi\n      mload(0x40)\n      0x08c379a000000000000000000000000000000000000000000000000000000000\n      dup2\n      mstore\n      0x04\n      add\n      tag_197\n      swap1\n      tag_198\n      jump\t// in\n    tag_197:\n      mload(0x40)\n      dup1\n      swap2\n      sub\n      swap1\n      revert\n    tag_196:\n        /* \"contracts/Voting/Voting.sol\":3102:3126  WorkflowStatus newStatus */\n      0x00\n        /* \"contracts/Voting/Voting.sol\":3129:3164  WorkflowStatus.VotingSessionStarted */\n      0x03\n        /* \"contracts/Voting/Voting.sol\":3102:3164  WorkflowStatus newStatus = WorkflowStatus.VotingSessionStarted */\n      swap1\n      pop\n        /* \"contracts/Voting/Voting.sol\":3179:3225  WorkflowStatusChange(currentStatus, newStatus) */\n      0x0a97a4ee45751e2abf3e4fc8946939630b11b371ea8ae39ccdc3056e98f5cc3f\n        /* \"contracts/Voting/Voting.sol\":3200:3213  currentStatus */\n      0x02\n      0x00\n      swap1\n      sload\n      swap1\n      0x0100\n      exp\n      swap1\n      div\n      0xff\n      and\n        /* \"contracts/Voting/Voting.sol\":3215:3224  newStatus */\n      dup3\n        /* \"contracts/Voting/Voting.sol\":3179:3225  WorkflowStatusChange(currentStatus, newStatus) */\n      mload(0x40)\n      tag_199\n      swap3\n      swap2\n      swap1\n      tag_103\n      jump\t// in\n    tag_199:\n      mload(0x40)\n      dup1\n      swap2\n      sub\n      swap1\n      log1\n        /* \"contracts/Voting/Voting.sol\":3251:3260  newStatus */\n      dup1\n        /* \"contracts/Voting/Voting.sol\":3235:3248  currentStatus */\n      0x02\n      0x00\n        /* \"contracts/Voting/Voting.sol\":3235:3260  currentStatus = newStatus */\n      0x0100\n      exp\n      dup2\n      sload\n      dup2\n      0xff\n      mul\n      not\n      and\n      swap1\n      dup4\n      0x05\n      dup2\n      gt\n      iszero\n      tag_200\n      jumpi\n      tag_201\n      tag_74\n      jump\t// in\n    tag_201:\n    tag_200:\n      mul\n      or\n      swap1\n      sstore\n      pop\n        /* \"contracts/Voting/Voting.sol\":2936:3267  {... */\n      pop\n        /* \"contracts/Voting/Voting.sol\":2889:3267  function startVotingSession() public onlyOwner {... */\n      jump\t// out\n        /* \"contracts/Voting/Voting.sol\":631:666  WorkflowStatus public currentStatus */\n    tag_65:\n      0x02\n      0x00\n      swap1\n      sload\n      swap1\n      0x0100\n      exp\n      swap1\n      div\n      0xff\n      and\n      dup2\n      jump\t// out\n        /* \"@openzeppelin/contracts/access/Ownable.sol\":2543:2758  function transferOwnership(address newOwner) public virtual onlyOwner {... */\n    tag_70:\n        /* \"@openzeppelin/contracts/access/Ownable.sol\":1531:1544  _checkOwner() */\n      tag_203\n        /* \"@openzeppelin/contracts/access/Ownable.sol\":1531:1542  _checkOwner */\n      tag_93\n        /* \"@openzeppelin/contracts/access/Ownable.sol\":1531:1544  _checkOwner() */\n      jump\t// in\n    tag_203:\n        /* \"@openzeppelin/contracts/access/Ownable.sol\":2647:2648  0 */\n      0x00\n        /* \"@openzeppelin/contracts/access/Ownable.sol\":2627:2649  newOwner == address(0) */\n      0xffffffffffffffffffffffffffffffffffffffff\n      and\n        /* \"@openzeppelin/contracts/access/Ownable.sol\":2627:2635  newOwner */\n      dup2\n        /* \"@openzeppelin/contracts/access/Ownable.sol\":2627:2649  newOwner == address(0) */\n      0xffffffffffffffffffffffffffffffffffffffff\n      and\n      sub\n        /* \"@openzeppelin/contracts/access/Ownable.sol\":2623:2714  if (newOwner == address(0)) {... */\n      tag_205\n      jumpi\n        /* \"@openzeppelin/contracts/access/Ownable.sol\":2700:2701  0 */\n      0x00\n        /* \"@openzeppelin/contracts/access/Ownable.sol\":2672:2703  OwnableInvalidOwner(address(0)) */\n      mload(0x40)\n      0x1e4fbdf700000000000000000000000000000000000000000000000000000000\n      dup2\n      mstore\n      0x04\n      add\n      tag_206\n      swap2\n      swap1\n      tag_38\n      jump\t// in\n    tag_206:\n      mload(0x40)\n      dup1\n      swap2\n      sub\n      swap1\n      revert\n        /* \"@openzeppelin/contracts/access/Ownable.sol\":2623:2714  if (newOwner == address(0)) {... */\n    tag_205:\n        /* \"@openzeppelin/contracts/access/Ownable.sol\":2723:2751  _transferOwnership(newOwner) */\n      tag_207\n        /* \"@openzeppelin/contracts/access/Ownable.sol\":2742:2750  newOwner */\n      dup2\n        /* \"@openzeppelin/contracts/access/Ownable.sol\":2723:2741  _transferOwnership */\n      tag_110\n        /* \"@openzeppelin/contracts/access/Ownable.sol\":2723:2751  _transferOwnership(newOwner) */\n      jump\t// in\n    tag_207:\n        /* \"@openzeppelin/contracts/access/Ownable.sol\":2543:2758  function transferOwnership(address newOwner) public virtual onlyOwner {... */\n      pop\n      jump\t// out\n        /* \"@openzeppelin/contracts/access/Ownable.sol\":1796:1958  function _checkOwner() internal view virtual {... */\n    tag_93:\n        /* \"@openzeppelin/contracts/access/Ownable.sol\":1866:1878  _msgSender() */\n      tag_209\n        /* \"@openzeppelin/contracts/access/Ownable.sol\":1866:1876  _msgSender */\n      tag_210\n        /* \"@openzeppelin/contracts/access/Ownable.sol\":1866:1878  _msgSender() */\n      jump\t// in\n    tag_209:\n        /* \"@openzeppelin/contracts/access/Ownable.sol\":1855:1878  owner() != _msgSender() */\n      0xffffffffffffffffffffffffffffffffffffffff\n      and\n        /* \"@openzeppelin/contracts/access/Ownable.sol\":1855:1862  owner() */\n      tag_211\n        /* \"@openzeppelin/contracts/access/Ownable.sol\":1855:1860  owner */\n      tag_36\n        /* \"@openzeppelin/contracts/access/Ownable.sol\":1855:1862  owner() */\n      jump\t// in\n    tag_211:\n        /* \"@openzeppelin/contracts/access/Ownable.sol\":1855:1878  owner() != _msgSender() */\n      0xffffffffffffffffffffffffffffffffffffffff\n      and\n      eq\n        /* \"@openzeppelin/contracts/access/Ownable.sol\":1851:1952  if (owner() != _msgSender()) {... */\n      tag_212\n      jumpi\n        /* \"@openzeppelin/contracts/access/Ownable.sol\":1928:1940  _msgSender() */\n      tag_213\n        /* \"@openzeppelin/contracts/access/Ownable.sol\":1928:1938  _msgSender */\n      tag_210\n        /* \"@openzeppelin/contracts/access/Ownable.sol\":1928:1940  _msgSender() */\n      jump\t// in\n    tag_213:\n        /* \"@openzeppelin/contracts/access/Ownable.sol\":1901:1941  OwnableUnauthorizedAccount(_msgSender()) */\n      mload(0x40)\n      0x118cdaa700000000000000000000000000000000000000000000000000000000\n      dup2\n      mstore\n      0x04\n      add\n      tag_214\n      swap2\n      swap1\n      tag_38\n      jump\t// in\n    tag_214:\n      mload(0x40)\n      dup1\n      swap2\n      sub\n      swap1\n      revert\n        /* \"@openzeppelin/contracts/access/Ownable.sol\":1851:1952  if (owner() != _msgSender()) {... */\n    tag_212:\n        /* \"@openzeppelin/contracts/access/Ownable.sol\":1796:1958  function _checkOwner() internal view virtual {... */\n      jump\t// out\n        /* \"@openzeppelin/contracts/access/Ownable.sol\":2912:3099  function _transferOwnership(address newOwner) internal virtual {... */\n    tag_110:\n        /* \"@openzeppelin/contracts/access/Ownable.sol\":2985:3001  address oldOwner */\n      0x00\n        /* \"@openzeppelin/contracts/access/Ownable.sol\":3004:3010  _owner */\n      dup1\n      0x00\n      swap1\n      sload\n      swap1\n      0x0100\n      exp\n      swap1\n      div\n      0xffffffffffffffffffffffffffffffffffffffff\n      and\n        /* \"@openzeppelin/contracts/access/Ownable.sol\":2985:3010  address oldOwner = _owner */\n      swap1\n      pop\n        /* \"@openzeppelin/contracts/access/Ownable.sol\":3029:3037  newOwner */\n      dup2\n        /* \"@openzeppelin/contracts/access/Ownable.sol\":3020:3026  _owner */\n      0x00\n      dup1\n        /* \"@openzeppelin/contracts/access/Ownable.sol\":3020:3037  _owner = newOwner */\n      0x0100\n      exp\n      dup2\n      sload\n      dup2\n      0xffffffffffffffffffffffffffffffffffffffff\n      mul\n      not\n      and\n      swap1\n      dup4\n      0xffffffffffffffffffffffffffffffffffffffff\n      and\n      mul\n      or\n      swap1\n      sstore\n      pop\n        /* \"@openzeppelin/contracts/access/Ownable.sol\":3083:3091  newOwner */\n      dup2\n        /* \"@openzeppelin/contracts/access/Ownable.sol\":3052:3092  OwnershipTransferred(oldOwner, newOwner) */\n      0xffffffffffffffffffffffffffffffffffffffff\n      and\n        /* \"@openzeppelin/contracts/access/Ownable.sol\":3073:3081  oldOwner */\n      dup2\n        /* \"@openzeppelin/contracts/access/Ownable.sol\":3052:3092  OwnershipTransferred(oldOwner, newOwner) */\n      0xffffffffffffffffffffffffffffffffffffffff\n      and\n      0x8be0079c531659141344cd1fd0a4f28419497f9722a3daafe3b4186f6b6457e0\n      mload(0x40)\n      mload(0x40)\n      dup1\n      swap2\n      sub\n      swap1\n      log3\n        /* \"@openzeppelin/contracts/access/Ownable.sol\":2975:3099  {... */\n      pop\n        /* \"@openzeppelin/contracts/access/Ownable.sol\":2912:3099  function _transferOwnership(address newOwner) internal virtual {... */\n      pop\n      jump\t// out\n        /* \"@openzeppelin/contracts/utils/Context.sol\":656:752  function _msgSender() internal view virtual returns (address) {... */\n    tag_210:\n        /* \"@openzeppelin/contracts/utils/Context.sol\":709:716  address */\n      0x00\n        /* \"@openzeppelin/contracts/utils/Context.sol\":735:745  msg.sender */\n      caller\n        /* \"@openzeppelin/contracts/utils/Context.sol\":728:745  return msg.sender */\n      swap1\n      pop\n        /* \"@openzeppelin/contracts/utils/Context.sol\":656:752  function _msgSender() internal view virtual returns (address) {... */\n      swap1\n      jump\t// out\n    tag_113:\n      mload(0x40)\n      dup1\n      0x40\n      add\n      0x40\n      mstore\n      dup1\n      0x60\n      dup2\n      mstore\n      0x20\n      add\n      0x00\n      dup2\n      mstore\n      pop\n      swap1\n      jump\t// out\n        /* \"#utility.yul\":7:82   */\n    tag_217:\n        /* \"#utility.yul\":40:46   */\n      0x00\n        /* \"#utility.yul\":73:75   */\n      0x40\n        /* \"#utility.yul\":67:76   */\n      mload\n        /* \"#utility.yul\":57:76   */\n      swap1\n      pop\n        /* \"#utility.yul\":7:82   */\n      swap1\n      jump\t// out\n        /* \"#utility.yul\":88:205   */\n    tag_218:\n        /* \"#utility.yul\":197:198   */\n      0x00\n        /* \"#utility.yul\":194:195   */\n      dup1\n        /* \"#utility.yul\":187:199   */\n      revert\n        /* \"#utility.yul\":211:328   */\n    tag_219:\n        /* \"#utility.yul\":320:321   */\n      0x00\n        /* \"#utility.yul\":317:318   */\n      dup1\n        /* \"#utility.yul\":310:322   */\n      revert\n        /* \"#utility.yul\":334:460   */\n    tag_220:\n        /* \"#utility.yul\":371:378   */\n      0x00\n        /* \"#utility.yul\":411:453   */\n      0xffffffffffffffffffffffffffffffffffffffff\n        /* \"#utility.yul\":404:409   */\n      dup3\n        /* \"#utility.yul\":400:454   */\n      and\n        /* \"#utility.yul\":389:454   */\n      swap1\n      pop\n        /* \"#utility.yul\":334:460   */\n      swap2\n      swap1\n      pop\n      jump\t// out\n        /* \"#utility.yul\":466:562   */\n    tag_221:\n        /* \"#utility.yul\":503:510   */\n      0x00\n        /* \"#utility.yul\":532:556   */\n      tag_295\n        /* \"#utility.yul\":550:555   */\n      dup3\n        /* \"#utility.yul\":532:556   */\n      tag_220\n      jump\t// in\n    tag_295:\n        /* \"#utility.yul\":521:556   */\n      swap1\n      pop\n        /* \"#utility.yul\":466:562   */\n      swap2\n      swap1\n      pop\n      jump\t// out\n        /* \"#utility.yul\":568:690   */\n    tag_222:\n        /* \"#utility.yul\":641:665   */\n      tag_297\n        /* \"#utility.yul\":659:664   */\n      dup2\n        /* \"#utility.yul\":641:665   */\n      tag_221\n      jump\t// in\n    tag_297:\n        /* \"#utility.yul\":634:639   */\n      dup2\n        /* \"#utility.yul\":631:666   */\n      eq\n        /* \"#utility.yul\":621:684   */\n      tag_298\n      jumpi\n        /* \"#utility.yul\":680:681   */\n      0x00\n        /* \"#utility.yul\":677:678   */\n      dup1\n        /* \"#utility.yul\":670:682   */\n      revert\n        /* \"#utility.yul\":621:684   */\n    tag_298:\n        /* \"#utility.yul\":568:690   */\n      pop\n      jump\t// out\n        /* \"#utility.yul\":696:835   */\n    tag_223:\n        /* \"#utility.yul\":742:747   */\n      0x00\n        /* \"#utility.yul\":780:786   */\n      dup2\n        /* \"#utility.yul\":767:787   */\n      calldataload\n        /* \"#utility.yul\":758:787   */\n      swap1\n      pop\n        /* \"#utility.yul\":796:829   */\n      tag_300\n        /* \"#utility.yul\":823:828   */\n      dup2\n        /* \"#utility.yul\":796:829   */\n      tag_222\n      jump\t// in\n    tag_300:\n        /* \"#utility.yul\":696:835   */\n      swap3\n      swap2\n      pop\n      pop\n      jump\t// out\n        /* \"#utility.yul\":841:1170   */\n    tag_23:\n        /* \"#utility.yul\":900:906   */\n      0x00\n        /* \"#utility.yul\":949:951   */\n      0x20\n        /* \"#utility.yul\":937:946   */\n      dup3\n        /* \"#utility.yul\":928:935   */\n      dup5\n        /* \"#utility.yul\":924:947   */\n      sub\n        /* \"#utility.yul\":920:952   */\n      slt\n        /* \"#utility.yul\":917:1036   */\n      iszero\n      tag_302\n      jumpi\n        /* \"#utility.yul\":955:1034   */\n      tag_303\n      tag_218\n      jump\t// in\n    tag_303:\n        /* \"#utility.yul\":917:1036   */\n    tag_302:\n        /* \"#utility.yul\":1075:1076   */\n      0x00\n        /* \"#utility.yul\":1100:1153   */\n      tag_304\n        /* \"#utility.yul\":1145:1152   */\n      dup5\n        /* \"#utility.yul\":1136:1142   */\n      dup3\n        /* \"#utility.yul\":1125:1134   */\n      dup6\n        /* \"#utility.yul\":1121:1143   */\n      add\n        /* \"#utility.yul\":1100:1153   */\n      tag_223\n      jump\t// in\n    tag_304:\n        /* \"#utility.yul\":1090:1153   */\n      swap2\n      pop\n        /* \"#utility.yul\":1046:1163   */\n      pop\n        /* \"#utility.yul\":841:1170   */\n      swap3\n      swap2\n      pop\n      pop\n      jump\t// out\n        /* \"#utility.yul\":1176:1253   */\n    tag_224:\n        /* \"#utility.yul\":1213:1220   */\n      0x00\n        /* \"#utility.yul\":1242:1247   */\n      dup2\n        /* \"#utility.yul\":1231:1247   */\n      swap1\n      pop\n        /* \"#utility.yul\":1176:1253   */\n      swap2\n      swap1\n      pop\n      jump\t// out\n        /* \"#utility.yul\":1259:1377   */\n    tag_225:\n        /* \"#utility.yul\":1346:1370   */\n      tag_307\n        /* \"#utility.yul\":1364:1369   */\n      dup2\n        /* \"#utility.yul\":1346:1370   */\n      tag_224\n      jump\t// in\n    tag_307:\n        /* \"#utility.yul\":1341:1344   */\n      dup3\n        /* \"#utility.yul\":1334:1371   */\n      mstore\n        /* \"#utility.yul\":1259:1377   */\n      pop\n      pop\n      jump\t// out\n        /* \"#utility.yul\":1383:1605   */\n    tag_26:\n        /* \"#utility.yul\":1476:1480   */\n      0x00\n        /* \"#utility.yul\":1514:1516   */\n      0x20\n        /* \"#utility.yul\":1503:1512   */\n      dup3\n        /* \"#utility.yul\":1499:1517   */\n      add\n        /* \"#utility.yul\":1491:1517   */\n      swap1\n      pop\n        /* \"#utility.yul\":1527:1598   */\n      tag_309\n        /* \"#utility.yul\":1595:1596   */\n      0x00\n        /* \"#utility.yul\":1584:1593   */\n      dup4\n        /* \"#utility.yul\":1580:1597   */\n      add\n        /* \"#utility.yul\":1571:1577   */\n      dup5\n        /* \"#utility.yul\":1527:1598   */\n      tag_225\n      jump\t// in\n    tag_309:\n        /* \"#utility.yul\":1383:1605   */\n      swap3\n      swap2\n      pop\n      pop\n      jump\t// out\n        /* \"#utility.yul\":1611:1733   */\n    tag_226:\n        /* \"#utility.yul\":1684:1708   */\n      tag_311\n        /* \"#utility.yul\":1702:1707   */\n      dup2\n        /* \"#utility.yul\":1684:1708   */\n      tag_224\n      jump\t// in\n    tag_311:\n        /* \"#utility.yul\":1677:1682   */\n      dup2\n        /* \"#utility.yul\":1674:1709   */\n      eq\n        /* \"#utility.yul\":1664:1727   */\n      tag_312\n      jumpi\n        /* \"#utility.yul\":1723:1724   */\n      0x00\n        /* \"#utility.yul\":1720:1721   */\n      dup1\n        /* \"#utility.yul\":1713:1725   */\n      revert\n        /* \"#utility.yul\":1664:1727   */\n    tag_312:\n        /* \"#utility.yul\":1611:1733   */\n      pop\n      jump\t// out\n        /* \"#utility.yul\":1739:1878   */\n    tag_227:\n        /* \"#utility.yul\":1785:1790   */\n      0x00\n        /* \"#utility.yul\":1823:1829   */\n      dup2\n        /* \"#utility.yul\":1810:1830   */\n      calldataload\n        /* \"#utility.yul\":1801:1830   */\n      swap1\n      pop\n        /* \"#utility.yul\":1839:1872   */\n      tag_314\n        /* \"#utility.yul\":1866:1871   */\n      dup2\n        /* \"#utility.yul\":1839:1872   */\n      tag_226\n      jump\t// in\n    tag_314:\n        /* \"#utility.yul\":1739:1878   */\n      swap3\n      swap2\n      pop\n      pop\n      jump\t// out\n        /* \"#utility.yul\":1884:2358   */\n    tag_29:\n        /* \"#utility.yul\":1952:1958   */\n      0x00\n        /* \"#utility.yul\":1960:1966   */\n      dup1\n        /* \"#utility.yul\":2009:2011   */\n      0x40\n        /* \"#utility.yul\":1997:2006   */\n      dup4\n        /* \"#utility.yul\":1988:1995   */\n      dup6\n        /* \"#utility.yul\":1984:2007   */\n      sub\n        /* \"#utility.yul\":1980:2012   */\n      slt\n        /* \"#utility.yul\":1977:2096   */\n      iszero\n      tag_316\n      jumpi\n        /* \"#utility.yul\":2015:2094   */\n      tag_317\n      tag_218\n      jump\t// in\n    tag_317:\n        /* \"#utility.yul\":1977:2096   */\n    tag_316:\n        /* \"#utility.yul\":2135:2136   */\n      0x00\n        /* \"#utility.yul\":2160:2213   */\n      tag_318\n        /* \"#utility.yul\":2205:2212   */\n      dup6\n        /* \"#utility.yul\":2196:2202   */\n      dup3\n        /* \"#utility.yul\":2185:2194   */\n      dup7\n        /* \"#utility.yul\":2181:2203   */\n      add\n        /* \"#utility.yul\":2160:2213   */\n      tag_223\n      jump\t// in\n    tag_318:\n        /* \"#utility.yul\":2150:2213   */\n      swap3\n      pop\n        /* \"#utility.yul\":2106:2223   */\n      pop\n        /* \"#utility.yul\":2262:2264   */\n      0x20\n        /* \"#utility.yul\":2288:2341   */\n      tag_319\n        /* \"#utility.yul\":2333:2340   */\n      dup6\n        /* \"#utility.yul\":2324:2330   */\n      dup3\n        /* \"#utility.yul\":2313:2322   */\n      dup7\n        /* \"#utility.yul\":2309:2331   */\n      add\n        /* \"#utility.yul\":2288:2341   */\n      tag_227\n      jump\t// in\n    tag_319:\n        /* \"#utility.yul\":2278:2341   */\n      swap2\n      pop\n        /* \"#utility.yul\":2233:2351   */\n      pop\n        /* \"#utility.yul\":1884:2358   */\n      swap3\n      pop\n      swap3\n      swap1\n      pop\n      jump\t// out\n        /* \"#utility.yul\":2364:2482   */\n    tag_228:\n        /* \"#utility.yul\":2451:2475   */\n      tag_321\n        /* \"#utility.yul\":2469:2474   */\n      dup2\n        /* \"#utility.yul\":2451:2475   */\n      tag_221\n      jump\t// in\n    tag_321:\n        /* \"#utility.yul\":2446:2449   */\n      dup3\n        /* \"#utility.yul\":2439:2476   */\n      mstore\n        /* \"#utility.yul\":2364:2482   */\n      pop\n      pop\n      jump\t// out\n        /* \"#utility.yul\":2488:2710   */\n    tag_38:\n        /* \"#utility.yul\":2581:2585   */\n      0x00\n        /* \"#utility.yul\":2619:2621   */\n      0x20\n        /* \"#utility.yul\":2608:2617   */\n      dup3\n        /* \"#utility.yul\":2604:2622   */\n      add\n        /* \"#utility.yul\":2596:2622   */\n      swap1\n      pop\n        /* \"#utility.yul\":2632:2703   */\n      tag_323\n        /* \"#utility.yul\":2700:2701   */\n      0x00\n        /* \"#utility.yul\":2689:2698   */\n      dup4\n        /* \"#utility.yul\":2685:2702   */\n      add\n        /* \"#utility.yul\":2676:2682   */\n      dup5\n        /* \"#utility.yul\":2632:2703   */\n      tag_228\n      jump\t// in\n    tag_323:\n        /* \"#utility.yul\":2488:2710   */\n      swap3\n      swap2\n      pop\n      pop\n      jump\t// out\n        /* \"#utility.yul\":2716:2815   */\n    tag_229:\n        /* \"#utility.yul\":2768:2774   */\n      0x00\n        /* \"#utility.yul\":2802:2807   */\n      dup2\n        /* \"#utility.yul\":2796:2808   */\n      mload\n        /* \"#utility.yul\":2786:2808   */\n      swap1\n      pop\n        /* \"#utility.yul\":2716:2815   */\n      swap2\n      swap1\n      pop\n      jump\t// out\n        /* \"#utility.yul\":2821:2980   */\n    tag_230:\n        /* \"#utility.yul\":2895:2906   */\n      0x00\n        /* \"#utility.yul\":2929:2935   */\n      dup3\n        /* \"#utility.yul\":2924:2927   */\n      dup3\n        /* \"#utility.yul\":2917:2936   */\n      mstore\n        /* \"#utility.yul\":2969:2973   */\n      0x20\n        /* \"#utility.yul\":2964:2967   */\n      dup3\n        /* \"#utility.yul\":2960:2974   */\n      add\n        /* \"#utility.yul\":2945:2974   */\n      swap1\n      pop\n        /* \"#utility.yul\":2821:2980   */\n      swap3\n      swap2\n      pop\n      pop\n      jump\t// out\n        /* \"#utility.yul\":2986:3125   */\n    tag_231:\n        /* \"#utility.yul\":3075:3081   */\n      dup3\n        /* \"#utility.yul\":3070:3073   */\n      dup2\n        /* \"#utility.yul\":3065:3068   */\n      dup4\n        /* \"#utility.yul\":3059:3082   */\n      mcopy\n        /* \"#utility.yul\":3116:3117   */\n      0x00\n        /* \"#utility.yul\":3107:3113   */\n      dup4\n        /* \"#utility.yul\":3102:3105   */\n      dup4\n        /* \"#utility.yul\":3098:3114   */\n      add\n        /* \"#utility.yul\":3091:3118   */\n      mstore\n        /* \"#utility.yul\":2986:3125   */\n      pop\n      pop\n      pop\n      jump\t// out\n        /* \"#utility.yul\":3131:3233   */\n    tag_232:\n        /* \"#utility.yul\":3172:3178   */\n      0x00\n        /* \"#utility.yul\":3223:3225   */\n      0x1f\n        /* \"#utility.yul\":3219:3226   */\n      not\n        /* \"#utility.yul\":3214:3216   */\n      0x1f\n        /* \"#utility.yul\":3207:3212   */\n      dup4\n        /* \"#utility.yul\":3203:3217   */\n      add\n        /* \"#utility.yul\":3199:3227   */\n      and\n        /* \"#utility.yul\":3189:3227   */\n      swap1\n      pop\n        /* \"#utility.yul\":3131:3233   */\n      swap2\n      swap1\n      pop\n      jump\t// out\n        /* \"#utility.yul\":3239:3596   */\n    tag_233:\n        /* \"#utility.yul\":3317:3320   */\n      0x00\n        /* \"#utility.yul\":3345:3384   */\n      tag_329\n        /* \"#utility.yul\":3378:3383   */\n      dup3\n        /* \"#utility.yul\":3345:3384   */\n      tag_229\n      jump\t// in\n    tag_329:\n        /* \"#utility.yul\":3400:3461   */\n      tag_330\n        /* \"#utility.yul\":3454:3460   */\n      dup2\n        /* \"#utility.yul\":3449:3452   */\n      dup6\n        /* \"#utility.yul\":3400:3461   */\n      tag_230\n      jump\t// in\n    tag_330:\n        /* \"#utility.yul\":3393:3461   */\n      swap4\n      pop\n        /* \"#utility.yul\":3470:3535   */\n      tag_331\n        /* \"#utility.yul\":3528:3534   */\n      dup2\n        /* \"#utility.yul\":3523:3526   */\n      dup6\n        /* \"#utility.yul\":3516:3520   */\n      0x20\n        /* \"#utility.yul\":3509:3514   */\n      dup7\n        /* \"#utility.yul\":3505:3521   */\n      add\n        /* \"#utility.yul\":3470:3535   */\n      tag_231\n      jump\t// in\n    tag_331:\n        /* \"#utility.yul\":3560:3589   */\n      tag_332\n        /* \"#utility.yul\":3582:3588   */\n      dup2\n        /* \"#utility.yul\":3560:3589   */\n      tag_232\n      jump\t// in\n    tag_332:\n        /* \"#utility.yul\":3555:3558   */\n      dup5\n        /* \"#utility.yul\":3551:3590   */\n      add\n        /* \"#utility.yul\":3544:3590   */\n      swap2\n      pop\n        /* \"#utility.yul\":3321:3596   */\n      pop\n        /* \"#utility.yul\":3239:3596   */\n      swap3\n      swap2\n      pop\n      pop\n      jump\t// out\n        /* \"#utility.yul\":3602:3710   */\n    tag_234:\n        /* \"#utility.yul\":3679:3703   */\n      tag_334\n        /* \"#utility.yul\":3697:3702   */\n      dup2\n        /* \"#utility.yul\":3679:3703   */\n      tag_224\n      jump\t// in\n    tag_334:\n        /* \"#utility.yul\":3674:3677   */\n      dup3\n        /* \"#utility.yul\":3667:3704   */\n      mstore\n        /* \"#utility.yul\":3602:3710   */\n      pop\n      pop\n      jump\t// out\n        /* \"#utility.yul\":3772:4390   */\n    tag_235:\n        /* \"#utility.yul\":3891:3894   */\n      0x00\n        /* \"#utility.yul\":3927:3931   */\n      0x40\n        /* \"#utility.yul\":3922:3925   */\n      dup4\n        /* \"#utility.yul\":3918:3932   */\n      add\n        /* \"#utility.yul\":4021:4025   */\n      0x00\n        /* \"#utility.yul\":4014:4019   */\n      dup4\n        /* \"#utility.yul\":4010:4026   */\n      add\n        /* \"#utility.yul\":4004:4027   */\n      mload\n        /* \"#utility.yul\":4074:4077   */\n      dup5\n        /* \"#utility.yul\":4068:4072   */\n      dup3\n        /* \"#utility.yul\":4064:4078   */\n      sub\n        /* \"#utility.yul\":4057:4061   */\n      0x00\n        /* \"#utility.yul\":4052:4055   */\n      dup7\n        /* \"#utility.yul\":4048:4062   */\n      add\n        /* \"#utility.yul\":4041:4079   */\n      mstore\n        /* \"#utility.yul\":4100:4173   */\n      tag_336\n        /* \"#utility.yul\":4168:4172   */\n      dup3\n        /* \"#utility.yul\":4154:4166   */\n      dup3\n        /* \"#utility.yul\":4100:4173   */\n      tag_233\n      jump\t// in\n    tag_336:\n        /* \"#utility.yul\":4092:4173   */\n      swap2\n      pop\n        /* \"#utility.yul\":3942:4184   */\n      pop\n        /* \"#utility.yul\":4271:4275   */\n      0x20\n        /* \"#utility.yul\":4264:4269   */\n      dup4\n        /* \"#utility.yul\":4260:4276   */\n      add\n        /* \"#utility.yul\":4254:4277   */\n      mload\n        /* \"#utility.yul\":4290:4353   */\n      tag_337\n        /* \"#utility.yul\":4347:4351   */\n      0x20\n        /* \"#utility.yul\":4342:4345   */\n      dup7\n        /* \"#utility.yul\":4338:4352   */\n      add\n        /* \"#utility.yul\":4324:4336   */\n      dup3\n        /* \"#utility.yul\":4290:4353   */\n      tag_234\n      jump\t// in\n    tag_337:\n        /* \"#utility.yul\":4194:4363   */\n      pop\n        /* \"#utility.yul\":4380:4384   */\n      dup1\n        /* \"#utility.yul\":4373:4384   */\n      swap2\n      pop\n        /* \"#utility.yul\":3896:4390   */\n      pop\n        /* \"#utility.yul\":3772:4390   */\n      swap3\n      swap2\n      pop\n      pop\n      jump\t// out\n        /* \"#utility.yul\":4396:4769   */\n    tag_42:\n        /* \"#utility.yul\":4539:4543   */\n      0x00\n        /* \"#utility.yul\":4577:4579   */\n      0x20\n        /* \"#utility.yul\":4566:4575   */\n      dup3\n        /* \"#utility.yul\":4562:4580   */\n      add\n        /* \"#utility.yul\":4554:4580   */\n      swap1\n      pop\n        /* \"#utility.yul\":4626:4635   */\n      dup2\n        /* \"#utility.yul\":4620:4624   */\n      dup2\n        /* \"#utility.yul\":4616:4636   */\n      sub\n        /* \"#utility.yul\":4612:4613   */\n      0x00\n        /* \"#utility.yul\":4601:4610   */\n      dup4\n        /* \"#utility.yul\":4597:4614   */\n      add\n        /* \"#utility.yul\":4590:4637   */\n      mstore\n        /* \"#utility.yul\":4654:4762   */\n      tag_339\n        /* \"#utility.yul\":4757:4761   */\n      dup2\n        /* \"#utility.yul\":4748:4754   */\n      dup5\n        /* \"#utility.yul\":4654:4762   */\n      tag_235\n      jump\t// in\n    tag_339:\n        /* \"#utility.yul\":4646:4762   */\n      swap1\n      pop\n        /* \"#utility.yul\":4396:4769   */\n      swap3\n      swap2\n      pop\n      pop\n      jump\t// out\n        /* \"#utility.yul\":4775:5104   */\n    tag_52:\n        /* \"#utility.yul\":4834:4840   */\n      0x00\n        /* \"#utility.yul\":4883:4885   */\n      0x20\n        /* \"#utility.yul\":4871:4880   */\n      dup3\n        /* \"#utility.yul\":4862:4869   */\n      dup5\n        /* \"#utility.yul\":4858:4881   */\n      sub\n        /* \"#utility.yul\":4854:4886   */\n      slt\n        /* \"#utility.yul\":4851:4970   */\n      iszero\n      tag_341\n      jumpi\n        /* \"#utility.yul\":4889:4968   */\n      tag_342\n      tag_218\n      jump\t// in\n    tag_342:\n        /* \"#utility.yul\":4851:4970   */\n    tag_341:\n        /* \"#utility.yul\":5009:5010   */\n      0x00\n        /* \"#utility.yul\":5034:5087   */\n      tag_343\n        /* \"#utility.yul\":5079:5086   */\n      dup5\n        /* \"#utility.yul\":5070:5076   */\n      dup3\n        /* \"#utility.yul\":5059:5068   */\n      dup6\n        /* \"#utility.yul\":5055:5077   */\n      add\n        /* \"#utility.yul\":5034:5087   */\n      tag_227\n      jump\t// in\n    tag_343:\n        /* \"#utility.yul\":5024:5087   */\n      swap2\n      pop\n        /* \"#utility.yul\":4980:5097   */\n      pop\n        /* \"#utility.yul\":4775:5104   */\n      swap3\n      swap2\n      pop\n      pop\n      jump\t// out\n        /* \"#utility.yul\":5110:5279   */\n    tag_236:\n        /* \"#utility.yul\":5194:5205   */\n      0x00\n        /* \"#utility.yul\":5228:5234   */\n      dup3\n        /* \"#utility.yul\":5223:5226   */\n      dup3\n        /* \"#utility.yul\":5216:5235   */\n      mstore\n        /* \"#utility.yul\":5268:5272   */\n      0x20\n        /* \"#utility.yul\":5263:5266   */\n      dup3\n        /* \"#utility.yul\":5259:5273   */\n      add\n        /* \"#utility.yul\":5244:5273   */\n      swap1\n      pop\n        /* \"#utility.yul\":5110:5279   */\n      swap3\n      swap2\n      pop\n      pop\n      jump\t// out\n        /* \"#utility.yul\":5285:5662   */\n    tag_237:\n        /* \"#utility.yul\":5373:5376   */\n      0x00\n        /* \"#utility.yul\":5401:5440   */\n      tag_346\n        /* \"#utility.yul\":5434:5439   */\n      dup3\n        /* \"#utility.yul\":5401:5440   */\n      tag_229\n      jump\t// in\n    tag_346:\n        /* \"#utility.yul\":5456:5527   */\n      tag_347\n        /* \"#utility.yul\":5520:5526   */\n      dup2\n        /* \"#utility.yul\":5515:5518   */\n      dup6\n        /* \"#utility.yul\":5456:5527   */\n      tag_236\n      jump\t// in\n    tag_347:\n        /* \"#utility.yul\":5449:5527   */\n      swap4\n      pop\n        /* \"#utility.yul\":5536:5601   */\n      tag_348\n        /* \"#utility.yul\":5594:5600   */\n      dup2\n        /* \"#utility.yul\":5589:5592   */\n      dup6\n        /* \"#utility.yul\":5582:5586   */\n      0x20\n        /* \"#utility.yul\":5575:5580   */\n      dup7\n        /* \"#utility.yul\":5571:5587   */\n      add\n        /* \"#utility.yul\":5536:5601   */\n      tag_231\n      jump\t// in\n    tag_348:\n        /* \"#utility.yul\":5626:5655   */\n      tag_349\n        /* \"#utility.yul\":5648:5654   */\n      dup2\n        /* \"#utility.yul\":5626:5655   */\n      tag_232\n      jump\t// in\n    tag_349:\n        /* \"#utility.yul\":5621:5624   */\n      dup5\n        /* \"#utility.yul\":5617:5656   */\n      add\n        /* \"#utility.yul\":5610:5656   */\n      swap2\n      pop\n        /* \"#utility.yul\":5377:5662   */\n      pop\n        /* \"#utility.yul\":5285:5662   */\n      swap3\n      swap2\n      pop\n      pop\n      jump\t// out\n        /* \"#utility.yul\":5668:6091   */\n    tag_55:\n        /* \"#utility.yul\":5809:5813   */\n      0x00\n        /* \"#utility.yul\":5847:5849   */\n      0x40\n        /* \"#utility.yul\":5836:5845   */\n      dup3\n        /* \"#utility.yul\":5832:5850   */\n      add\n        /* \"#utility.yul\":5824:5850   */\n      swap1\n      pop\n        /* \"#utility.yul\":5896:5905   */\n      dup2\n        /* \"#utility.yul\":5890:5894   */\n      dup2\n        /* \"#utility.yul\":5886:5906   */\n      sub\n        /* \"#utility.yul\":5882:5883   */\n      0x00\n        /* \"#utility.yul\":5871:5880   */\n      dup4\n        /* \"#utility.yul\":5867:5884   */\n      add\n        /* \"#utility.yul\":5860:5907   */\n      mstore\n        /* \"#utility.yul\":5924:6002   */\n      tag_351\n        /* \"#utility.yul\":5997:6001   */\n      dup2\n        /* \"#utility.yul\":5988:5994   */\n      dup6\n        /* \"#utility.yul\":5924:6002   */\n      tag_237\n      jump\t// in\n    tag_351:\n        /* \"#utility.yul\":5916:6002   */\n      swap1\n      pop\n        /* \"#utility.yul\":6012:6084   */\n      tag_352\n        /* \"#utility.yul\":6080:6082   */\n      0x20\n        /* \"#utility.yul\":6069:6078   */\n      dup4\n        /* \"#utility.yul\":6065:6083   */\n      add\n        /* \"#utility.yul\":6056:6062   */\n      dup5\n        /* \"#utility.yul\":6012:6084   */\n      tag_225\n      jump\t// in\n    tag_352:\n        /* \"#utility.yul\":5668:6091   */\n      swap4\n      swap3\n      pop\n      pop\n      pop\n      jump\t// out\n        /* \"#utility.yul\":6097:6214   */\n    tag_238:\n        /* \"#utility.yul\":6206:6207   */\n      0x00\n        /* \"#utility.yul\":6203:6204   */\n      dup1\n        /* \"#utility.yul\":6196:6208   */\n      revert\n        /* \"#utility.yul\":6220:6337   */\n    tag_239:\n        /* \"#utility.yul\":6329:6330   */\n      0x00\n        /* \"#utility.yul\":6326:6327   */\n      dup1\n        /* \"#utility.yul\":6319:6331   */\n      revert\n        /* \"#utility.yul\":6343:6523   */\n    tag_240:\n        /* \"#utility.yul\":6391:6468   */\n      0x4e487b7100000000000000000000000000000000000000000000000000000000\n        /* \"#utility.yul\":6388:6389   */\n      0x00\n        /* \"#utility.yul\":6381:6469   */\n      mstore\n        /* \"#utility.yul\":6488:6492   */\n      0x41\n        /* \"#utility.yul\":6485:6486   */\n      0x04\n        /* \"#utility.yul\":6478:6493   */\n      mstore\n        /* \"#utility.yul\":6512:6516   */\n      0x24\n        /* \"#utility.yul\":6509:6510   */\n      0x00\n        /* \"#utility.yul\":6502:6517   */\n      revert\n        /* \"#utility.yul\":6529:6810   */\n    tag_241:\n        /* \"#utility.yul\":6612:6639   */\n      tag_357\n        /* \"#utility.yul\":6634:6638   */\n      dup3\n        /* \"#utility.yul\":6612:6639   */\n      tag_232\n      jump\t// in\n    tag_357:\n        /* \"#utility.yul\":6604:6610   */\n      dup2\n        /* \"#utility.yul\":6600:6640   */\n      add\n        /* \"#utility.yul\":6742:6748   */\n      dup2\n        /* \"#utility.yul\":6730:6740   */\n      dup2\n        /* \"#utility.yul\":6727:6749   */\n      lt\n        /* \"#utility.yul\":6706:6724   */\n      0xffffffffffffffff\n        /* \"#utility.yul\":6694:6704   */\n      dup3\n        /* \"#utility.yul\":6691:6725   */\n      gt\n        /* \"#utility.yul\":6688:6750   */\n      or\n        /* \"#utility.yul\":6685:6773   */\n      iszero\n      tag_358\n      jumpi\n        /* \"#utility.yul\":6753:6771   */\n      tag_359\n      tag_240\n      jump\t// in\n    tag_359:\n        /* \"#utility.yul\":6685:6773   */\n    tag_358:\n        /* \"#utility.yul\":6793:6803   */\n      dup1\n        /* \"#utility.yul\":6789:6791   */\n      0x40\n        /* \"#utility.yul\":6782:6804   */\n      mstore\n        /* \"#utility.yul\":6572:6810   */\n      pop\n        /* \"#utility.yul\":6529:6810   */\n      pop\n      pop\n      jump\t// out\n        /* \"#utility.yul\":6816:6945   */\n    tag_242:\n        /* \"#utility.yul\":6850:6856   */\n      0x00\n        /* \"#utility.yul\":6877:6897   */\n      tag_361\n      tag_217\n      jump\t// in\n    tag_361:\n        /* \"#utility.yul\":6867:6897   */\n      swap1\n      pop\n        /* \"#utility.yul\":6906:6939   */\n      tag_362\n        /* \"#utility.yul\":6934:6938   */\n      dup3\n        /* \"#utility.yul\":6926:6932   */\n      dup3\n        /* \"#utility.yul\":6906:6939   */\n      tag_241\n      jump\t// in\n    tag_362:\n        /* \"#utility.yul\":6816:6945   */\n      swap2\n      swap1\n      pop\n      jump\t// out\n        /* \"#utility.yul\":6951:7259   */\n    tag_243:\n        /* \"#utility.yul\":7013:7017   */\n      0x00\n        /* \"#utility.yul\":7103:7121   */\n      0xffffffffffffffff\n        /* \"#utility.yul\":7095:7101   */\n      dup3\n        /* \"#utility.yul\":7092:7122   */\n      gt\n        /* \"#utility.yul\":7089:7145   */\n      iszero\n      tag_364\n      jumpi\n        /* \"#utility.yul\":7125:7143   */\n      tag_365\n      tag_240\n      jump\t// in\n    tag_365:\n        /* \"#utility.yul\":7089:7145   */\n    tag_364:\n        /* \"#utility.yul\":7163:7192   */\n      tag_366\n        /* \"#utility.yul\":7185:7191   */\n      dup3\n        /* \"#utility.yul\":7163:7192   */\n      tag_232\n      jump\t// in\n    tag_366:\n        /* \"#utility.yul\":7155:7192   */\n      swap1\n      pop\n        /* \"#utility.yul\":7247:7251   */\n      0x20\n        /* \"#utility.yul\":7241:7245   */\n      dup2\n        /* \"#utility.yul\":7237:7252   */\n      add\n        /* \"#utility.yul\":7229:7252   */\n      swap1\n      pop\n        /* \"#utility.yul\":6951:7259   */\n      swap2\n      swap1\n      pop\n      jump\t// out\n        /* \"#utility.yul\":7265:7413   */\n    tag_244:\n        /* \"#utility.yul\":7363:7369   */\n      dup3\n        /* \"#utility.yul\":7358:7361   */\n      dup2\n        /* \"#utility.yul\":7353:7356   */\n      dup4\n        /* \"#utility.yul\":7340:7370   */\n      calldatacopy\n        /* \"#utility.yul\":7404:7405   */\n      0x00\n        /* \"#utility.yul\":7395:7401   */\n      dup4\n        /* \"#utility.yul\":7390:7393   */\n      dup4\n        /* \"#utility.yul\":7386:7402   */\n      add\n        /* \"#utility.yul\":7379:7406   */\n      mstore\n        /* \"#utility.yul\":7265:7413   */\n      pop\n      pop\n      pop\n      jump\t// out\n        /* \"#utility.yul\":7419:7844   */\n    tag_245:\n        /* \"#utility.yul\":7497:7502   */\n      0x00\n        /* \"#utility.yul\":7522:7588   */\n      tag_369\n        /* \"#utility.yul\":7538:7587   */\n      tag_370\n        /* \"#utility.yul\":7580:7586   */\n      dup5\n        /* \"#utility.yul\":7538:7587   */\n      tag_243\n      jump\t// in\n    tag_370:\n        /* \"#utility.yul\":7522:7588   */\n      tag_242\n      jump\t// in\n    tag_369:\n        /* \"#utility.yul\":7513:7588   */\n      swap1\n      pop\n        /* \"#utility.yul\":7611:7617   */\n      dup3\n        /* \"#utility.yul\":7604:7609   */\n      dup2\n        /* \"#utility.yul\":7597:7618   */\n      mstore\n        /* \"#utility.yul\":7649:7653   */\n      0x20\n        /* \"#utility.yul\":7642:7647   */\n      dup2\n        /* \"#utility.yul\":7638:7654   */\n      add\n        /* \"#utility.yul\":7687:7690   */\n      dup5\n        /* \"#utility.yul\":7678:7684   */\n      dup5\n        /* \"#utility.yul\":7673:7676   */\n      dup5\n        /* \"#utility.yul\":7669:7685   */\n      add\n        /* \"#utility.yul\":7666:7691   */\n      gt\n        /* \"#utility.yul\":7663:7775   */\n      iszero\n      tag_371\n      jumpi\n        /* \"#utility.yul\":7694:7773   */\n      tag_372\n      tag_239\n      jump\t// in\n    tag_372:\n        /* \"#utility.yul\":7663:7775   */\n    tag_371:\n        /* \"#utility.yul\":7784:7838   */\n      tag_373\n        /* \"#utility.yul\":7831:7837   */\n      dup5\n        /* \"#utility.yul\":7826:7829   */\n      dup3\n        /* \"#utility.yul\":7821:7824   */\n      dup6\n        /* \"#utility.yul\":7784:7838   */\n      tag_244\n      jump\t// in\n    tag_373:\n        /* \"#utility.yul\":7503:7844   */\n      pop\n        /* \"#utility.yul\":7419:7844   */\n      swap4\n      swap3\n      pop\n      pop\n      pop\n      jump\t// out\n        /* \"#utility.yul\":7864:8204   */\n    tag_246:\n        /* \"#utility.yul\":7920:7925   */\n      0x00\n        /* \"#utility.yul\":7969:7972   */\n      dup3\n        /* \"#utility.yul\":7962:7966   */\n      0x1f\n        /* \"#utility.yul\":7954:7960   */\n      dup4\n        /* \"#utility.yul\":7950:7967   */\n      add\n        /* \"#utility.yul\":7946:7973   */\n      slt\n        /* \"#utility.yul\":7936:8058   */\n      tag_375\n      jumpi\n        /* \"#utility.yul\":7977:8056   */\n      tag_376\n      tag_238\n      jump\t// in\n    tag_376:\n        /* \"#utility.yul\":7936:8058   */\n    tag_375:\n        /* \"#utility.yul\":8094:8100   */\n      dup2\n        /* \"#utility.yul\":8081:8101   */\n      calldataload\n        /* \"#utility.yul\":8119:8198   */\n      tag_377\n        /* \"#utility.yul\":8194:8197   */\n      dup5\n        /* \"#utility.yul\":8186:8192   */\n      dup3\n        /* \"#utility.yul\":8179:8183   */\n      0x20\n        /* \"#utility.yul\":8171:8177   */\n      dup7\n        /* \"#utility.yul\":8167:8184   */\n      add\n        /* \"#utility.yul\":8119:8198   */\n      tag_245\n      jump\t// in\n    tag_377:\n        /* \"#utility.yul\":8110:8198   */\n      swap2\n      pop\n        /* \"#utility.yul\":7926:8204   */\n      pop\n        /* \"#utility.yul\":7864:8204   */\n      swap3\n      swap2\n      pop\n      pop\n      jump\t// out\n        /* \"#utility.yul\":8210:8864   */\n    tag_60:\n        /* \"#utility.yul\":8288:8294   */\n      0x00\n        /* \"#utility.yul\":8296:8302   */\n      dup1\n        /* \"#utility.yul\":8345:8347   */\n      0x40\n        /* \"#utility.yul\":8333:8342   */\n      dup4\n        /* \"#utility.yul\":8324:8331   */\n      dup6\n        /* \"#utility.yul\":8320:8343   */\n      sub\n        /* \"#utility.yul\":8316:8348   */\n      slt\n        /* \"#utility.yul\":8313:8432   */\n      iszero\n      tag_379\n      jumpi\n        /* \"#utility.yul\":8351:8430   */\n      tag_380\n      tag_218\n      jump\t// in\n    tag_380:\n        /* \"#utility.yul\":8313:8432   */\n    tag_379:\n        /* \"#utility.yul\":8471:8472   */\n      0x00\n        /* \"#utility.yul\":8496:8549   */\n      tag_381\n        /* \"#utility.yul\":8541:8548   */\n      dup6\n        /* \"#utility.yul\":8532:8538   */\n      dup3\n        /* \"#utility.yul\":8521:8530   */\n      dup7\n        /* \"#utility.yul\":8517:8539   */\n      add\n        /* \"#utility.yul\":8496:8549   */\n      tag_223\n      jump\t// in\n    tag_381:\n        /* \"#utility.yul\":8486:8549   */\n      swap3\n      pop\n        /* \"#utility.yul\":8442:8559   */\n      pop\n        /* \"#utility.yul\":8626:8628   */\n      0x20\n        /* \"#utility.yul\":8615:8624   */\n      dup4\n        /* \"#utility.yul\":8611:8629   */\n      add\n        /* \"#utility.yul\":8598:8630   */\n      calldataload\n        /* \"#utility.yul\":8657:8675   */\n      0xffffffffffffffff\n        /* \"#utility.yul\":8649:8655   */\n      dup2\n        /* \"#utility.yul\":8646:8676   */\n      gt\n        /* \"#utility.yul\":8643:8760   */\n      iszero\n      tag_382\n      jumpi\n        /* \"#utility.yul\":8679:8758   */\n      tag_383\n      tag_219\n      jump\t// in\n    tag_383:\n        /* \"#utility.yul\":8643:8760   */\n    tag_382:\n        /* \"#utility.yul\":8784:8847   */\n      tag_384\n        /* \"#utility.yul\":8839:8846   */\n      dup6\n        /* \"#utility.yul\":8830:8836   */\n      dup3\n        /* \"#utility.yul\":8819:8828   */\n      dup7\n        /* \"#utility.yul\":8815:8837   */\n      add\n        /* \"#utility.yul\":8784:8847   */\n      tag_246\n      jump\t// in\n    tag_384:\n        /* \"#utility.yul\":8774:8847   */\n      swap2\n      pop\n        /* \"#utility.yul\":8569:8857   */\n      pop\n        /* \"#utility.yul\":8210:8864   */\n      swap3\n      pop\n      swap3\n      swap1\n      pop\n      jump\t// out\n        /* \"#utility.yul\":8870:9050   */\n    tag_74:\n        /* \"#utility.yul\":8918:8995   */\n      0x4e487b7100000000000000000000000000000000000000000000000000000000\n        /* \"#utility.yul\":8915:8916   */\n      0x00\n        /* \"#utility.yul\":8908:8996   */\n      mstore\n        /* \"#utility.yul\":9015:9019   */\n      0x21\n        /* \"#utility.yul\":9012:9013   */\n      0x04\n        /* \"#utility.yul\":9005:9020   */\n      mstore\n        /* \"#utility.yul\":9039:9043   */\n      0x24\n        /* \"#utility.yul\":9036:9037   */\n      0x00\n        /* \"#utility.yul\":9029:9044   */\n      revert\n        /* \"#utility.yul\":9056:9179   */\n    tag_247:\n        /* \"#utility.yul\":9147:9148   */\n      0x06\n        /* \"#utility.yul\":9140:9145   */\n      dup2\n        /* \"#utility.yul\":9137:9149   */\n      lt\n        /* \"#utility.yul\":9127:9173   */\n      tag_387\n      jumpi\n        /* \"#utility.yul\":9153:9171   */\n      tag_388\n      tag_74\n      jump\t// in\n    tag_388:\n        /* \"#utility.yul\":9127:9173   */\n    tag_387:\n        /* \"#utility.yul\":9056:9179   */\n      pop\n      jump\t// out\n        /* \"#utility.yul\":9185:9332   */\n    tag_248:\n        /* \"#utility.yul\":9240:9247   */\n      0x00\n        /* \"#utility.yul\":9269:9274   */\n      dup2\n        /* \"#utility.yul\":9258:9274   */\n      swap1\n      pop\n        /* \"#utility.yul\":9275:9326   */\n      tag_390\n        /* \"#utility.yul\":9320:9325   */\n      dup3\n        /* \"#utility.yul\":9275:9326   */\n      tag_247\n      jump\t// in\n    tag_390:\n        /* \"#utility.yul\":9185:9332   */\n      swap2\n      swap1\n      pop\n      jump\t// out\n        /* \"#utility.yul\":9338:9485   */\n    tag_249:\n        /* \"#utility.yul\":9404:9413   */\n      0x00\n        /* \"#utility.yul\":9437:9479   */\n      tag_392\n        /* \"#utility.yul\":9473:9478   */\n      dup3\n        /* \"#utility.yul\":9437:9479   */\n      tag_248\n      jump\t// in\n    tag_392:\n        /* \"#utility.yul\":9424:9479   */\n      swap1\n      pop\n        /* \"#utility.yul\":9338:9485   */\n      swap2\n      swap1\n      pop\n      jump\t// out\n        /* \"#utility.yul\":9491:9654   */\n    tag_250:\n        /* \"#utility.yul\":9594:9647   */\n      tag_394\n        /* \"#utility.yul\":9641:9646   */\n      dup2\n        /* \"#utility.yul\":9594:9647   */\n      tag_249\n      jump\t// in\n    tag_394:\n        /* \"#utility.yul\":9589:9592   */\n      dup3\n        /* \"#utility.yul\":9582:9648   */\n      mstore\n        /* \"#utility.yul\":9491:9654   */\n      pop\n      pop\n      jump\t// out\n        /* \"#utility.yul\":9660:9914   */\n    tag_67:\n        /* \"#utility.yul\":9769:9773   */\n      0x00\n        /* \"#utility.yul\":9807:9809   */\n      0x20\n        /* \"#utility.yul\":9796:9805   */\n      dup3\n        /* \"#utility.yul\":9792:9810   */\n      add\n        /* \"#utility.yul\":9784:9810   */\n      swap1\n      pop\n        /* \"#utility.yul\":9820:9907   */\n      tag_396\n        /* \"#utility.yul\":9904:9905   */\n      0x00\n        /* \"#utility.yul\":9893:9902   */\n      dup4\n        /* \"#utility.yul\":9889:9906   */\n      add\n        /* \"#utility.yul\":9880:9886   */\n      dup5\n        /* \"#utility.yul\":9820:9907   */\n      tag_250\n      jump\t// in\n    tag_396:\n        /* \"#utility.yul\":9660:9914   */\n      swap3\n      swap2\n      pop\n      pop\n      jump\t// out\n        /* \"#utility.yul\":9920:10097   */\n    tag_251:\n        /* \"#utility.yul\":10060:10089   */\n      0x43616e6e6f7420737461727420636f756e74696e6720766f7465730000000000\n        /* \"#utility.yul\":10056:10057   */\n      0x00\n        /* \"#utility.yul\":10048:10054   */\n      dup3\n        /* \"#utility.yul\":10044:10058   */\n      add\n        /* \"#utility.yul\":10037:10090   */\n      mstore\n        /* \"#utility.yul\":9920:10097   */\n      pop\n      jump\t// out\n        /* \"#utility.yul\":10103:10469   */\n    tag_252:\n        /* \"#utility.yul\":10245:10248   */\n      0x00\n        /* \"#utility.yul\":10266:10333   */\n      tag_399\n        /* \"#utility.yul\":10330:10332   */\n      0x1b\n        /* \"#utility.yul\":10325:10328   */\n      dup4\n        /* \"#utility.yul\":10266:10333   */\n      tag_236\n      jump\t// in\n    tag_399:\n        /* \"#utility.yul\":10259:10333   */\n      swap2\n      pop\n        /* \"#utility.yul\":10342:10435   */\n      tag_400\n        /* \"#utility.yul\":10431:10434   */\n      dup3\n        /* \"#utility.yul\":10342:10435   */\n      tag_251\n      jump\t// in\n    tag_400:\n        /* \"#utility.yul\":10460:10462   */\n      0x20\n        /* \"#utility.yul\":10455:10458   */\n      dup3\n        /* \"#utility.yul\":10451:10463   */\n      add\n        /* \"#utility.yul\":10444:10463   */\n      swap1\n      pop\n        /* \"#utility.yul\":10103:10469   */\n      swap2\n      swap1\n      pop\n      jump\t// out\n        /* \"#utility.yul\":10475:10894   */\n    tag_79:\n        /* \"#utility.yul\":10641:10645   */\n      0x00\n        /* \"#utility.yul\":10679:10681   */\n      0x20\n        /* \"#utility.yul\":10668:10677   */\n      dup3\n        /* \"#utility.yul\":10664:10682   */\n      add\n        /* \"#utility.yul\":10656:10682   */\n      swap1\n      pop\n        /* \"#utility.yul\":10728:10737   */\n      dup2\n        /* \"#utility.yul\":10722:10726   */\n      dup2\n        /* \"#utility.yul\":10718:10738   */\n      sub\n        /* \"#utility.yul\":10714:10715   */\n      0x00\n        /* \"#utility.yul\":10703:10712   */\n      dup4\n        /* \"#utility.yul\":10699:10716   */\n      add\n        /* \"#utility.yul\":10692:10739   */\n      mstore\n        /* \"#utility.yul\":10756:10887   */\n      tag_402\n        /* \"#utility.yul\":10882:10886   */\n      dup2\n        /* \"#utility.yul\":10756:10887   */\n      tag_252\n      jump\t// in\n    tag_402:\n        /* \"#utility.yul\":10748:10887   */\n      swap1\n      pop\n        /* \"#utility.yul\":10475:10894   */\n      swap2\n      swap1\n      pop\n      jump\t// out\n        /* \"#utility.yul\":10900:11073   */\n    tag_253:\n        /* \"#utility.yul\":11040:11065   */\n      0x566f746572206973206e6f742072656769737465726564000000000000000000\n        /* \"#utility.yul\":11036:11037   */\n      0x00\n        /* \"#utility.yul\":11028:11034   */\n      dup3\n        /* \"#utility.yul\":11024:11038   */\n      add\n        /* \"#utility.yul\":11017:11066   */\n      mstore\n        /* \"#utility.yul\":10900:11073   */\n      pop\n      jump\t// out\n        /* \"#utility.yul\":11079:11445   */\n    tag_254:\n        /* \"#utility.yul\":11221:11224   */\n      0x00\n        /* \"#utility.yul\":11242:11309   */\n      tag_405\n        /* \"#utility.yul\":11306:11308   */\n      0x17\n        /* \"#utility.yul\":11301:11304   */\n      dup4\n        /* \"#utility.yul\":11242:11309   */\n      tag_236\n      jump\t// in\n    tag_405:\n        /* \"#utility.yul\":11235:11309   */\n      swap2\n      pop\n        /* \"#utility.yul\":11318:11411   */\n      tag_406\n        /* \"#utility.yul\":11407:11410   */\n      dup3\n        /* \"#utility.yul\":11318:11411   */\n      tag_253\n      jump\t// in\n    tag_406:\n        /* \"#utility.yul\":11436:11438   */\n      0x20\n        /* \"#utility.yul\":11431:11434   */\n      dup3\n        /* \"#utility.yul\":11427:11439   */\n      add\n        /* \"#utility.yul\":11420:11439   */\n      swap1\n      pop\n        /* \"#utility.yul\":11079:11445   */\n      swap2\n      swap1\n      pop\n      jump\t// out\n        /* \"#utility.yul\":11451:11870   */\n    tag_82:\n        /* \"#utility.yul\":11617:11621   */\n      0x00\n        /* \"#utility.yul\":11655:11657   */\n      0x20\n        /* \"#utility.yul\":11644:11653   */\n      dup3\n        /* \"#utility.yul\":11640:11658   */\n      add\n        /* \"#utility.yul\":11632:11658   */\n      swap1\n      pop\n        /* \"#utility.yul\":11704:11713   */\n      dup2\n        /* \"#utility.yul\":11698:11702   */\n      dup2\n        /* \"#utility.yul\":11694:11714   */\n      sub\n        /* \"#utility.yul\":11690:11691   */\n      0x00\n        /* \"#utility.yul\":11679:11688   */\n      dup4\n        /* \"#utility.yul\":11675:11692   */\n      add\n        /* \"#utility.yul\":11668:11715   */\n      mstore\n        /* \"#utility.yul\":11732:11863   */\n      tag_408\n        /* \"#utility.yul\":11858:11862   */\n      dup2\n        /* \"#utility.yul\":11732:11863   */\n      tag_254\n      jump\t// in\n    tag_408:\n        /* \"#utility.yul\":11724:11863   */\n      swap1\n      pop\n        /* \"#utility.yul\":11451:11870   */\n      swap2\n      swap1\n      pop\n      jump\t// out\n        /* \"#utility.yul\":11876:12049   */\n    tag_255:\n        /* \"#utility.yul\":12016:12041   */\n      0x566f7465722068617320616c726561647920766f746564000000000000000000\n        /* \"#utility.yul\":12012:12013   */\n      0x00\n        /* \"#utility.yul\":12004:12010   */\n      dup3\n        /* \"#utility.yul\":12000:12014   */\n      add\n        /* \"#utility.yul\":11993:12042   */\n      mstore\n        /* \"#utility.yul\":11876:12049   */\n      pop\n      jump\t// out\n        /* \"#utility.yul\":12055:12421   */\n    tag_256:\n        /* \"#utility.yul\":12197:12200   */\n      0x00\n        /* \"#utility.yul\":12218:12285   */\n      tag_411\n        /* \"#utility.yul\":12282:12284   */\n      0x17\n        /* \"#utility.yul\":12277:12280   */\n      dup4\n        /* \"#utility.yul\":12218:12285   */\n      tag_236\n      jump\t// in\n    tag_411:\n        /* \"#utility.yul\":12211:12285   */\n      swap2\n      pop\n        /* \"#utility.yul\":12294:12387   */\n      tag_412\n        /* \"#utility.yul\":12383:12386   */\n      dup3\n        /* \"#utility.yul\":12294:12387   */\n      tag_255\n      jump\t// in\n    tag_412:\n        /* \"#utility.yul\":12412:12414   */\n      0x20\n        /* \"#utility.yul\":12407:12410   */\n      dup3\n        /* \"#utility.yul\":12403:12415   */\n      add\n        /* \"#utility.yul\":12396:12415   */\n      swap1\n      pop\n        /* \"#utility.yul\":12055:12421   */\n      swap2\n      swap1\n      pop\n      jump\t// out\n        /* \"#utility.yul\":12427:12846   */\n    tag_85:\n        /* \"#utility.yul\":12593:12597   */\n      0x00\n        /* \"#utility.yul\":12631:12633   */\n      0x20\n        /* \"#utility.yul\":12620:12629   */\n      dup3\n        /* \"#utility.yul\":12616:12634   */\n      add\n        /* \"#utility.yul\":12608:12634   */\n      swap1\n      pop\n        /* \"#utility.yul\":12680:12689   */\n      dup2\n        /* \"#utility.yul\":12674:12678   */\n      dup2\n        /* \"#utility.yul\":12670:12690   */\n      sub\n        /* \"#utility.yul\":12666:12667   */\n      0x00\n        /* \"#utility.yul\":12655:12664   */\n      dup4\n        /* \"#utility.yul\":12651:12668   */\n      add\n        /* \"#utility.yul\":12644:12691   */\n      mstore\n        /* \"#utility.yul\":12708:12839   */\n      tag_414\n        /* \"#utility.yul\":12834:12838   */\n      dup2\n        /* \"#utility.yul\":12708:12839   */\n      tag_256\n      jump\t// in\n    tag_414:\n        /* \"#utility.yul\":12700:12839   */\n      swap1\n      pop\n        /* \"#utility.yul\":12427:12846   */\n      swap2\n      swap1\n      pop\n      jump\t// out\n        /* \"#utility.yul\":12852:13021   */\n    tag_257:\n        /* \"#utility.yul\":12992:13013   */\n      0x496e76616c69642070726f706f73616c20696400000000000000000000000000\n        /* \"#utility.yul\":12988:12989   */\n      0x00\n        /* \"#utility.yul\":12980:12986   */\n      dup3\n        /* \"#utility.yul\":12976:12990   */\n      add\n        /* \"#utility.yul\":12969:13014   */\n      mstore\n        /* \"#utility.yul\":12852:13021   */\n      pop\n      jump\t// out\n        /* \"#utility.yul\":13027:13393   */\n    tag_258:\n        /* \"#utility.yul\":13169:13172   */\n      0x00\n        /* \"#utility.yul\":13190:13257   */\n      tag_417\n        /* \"#utility.yul\":13254:13256   */\n      0x13\n        /* \"#utility.yul\":13249:13252   */\n      dup4\n        /* \"#utility.yul\":13190:13257   */\n      tag_236\n      jump\t// in\n    tag_417:\n        /* \"#utility.yul\":13183:13257   */\n      swap2\n      pop\n        /* \"#utility.yul\":13266:13359   */\n      tag_418\n        /* \"#utility.yul\":13355:13358   */\n      dup3\n        /* \"#utility.yul\":13266:13359   */\n      tag_257\n      jump\t// in\n    tag_418:\n        /* \"#utility.yul\":13384:13386   */\n      0x20\n        /* \"#utility.yul\":13379:13382   */\n      dup3\n        /* \"#utility.yul\":13375:13387   */\n      add\n        /* \"#utility.yul\":13368:13387   */\n      swap1\n      pop\n        /* \"#utility.yul\":13027:13393   */\n      swap2\n      swap1\n      pop\n      jump\t// out\n        /* \"#utility.yul\":13399:13818   */\n    tag_88:\n        /* \"#utility.yul\":13565:13569   */\n      0x00\n        /* \"#utility.yul\":13603:13605   */\n      0x20\n        /* \"#utility.yul\":13592:13601   */\n      dup3\n        /* \"#utility.yul\":13588:13606   */\n      add\n        /* \"#utility.yul\":13580:13606   */\n      swap1\n      pop\n        /* \"#utility.yul\":13652:13661   */\n      dup2\n        /* \"#utility.yul\":13646:13650   */\n      dup2\n        /* \"#utility.yul\":13642:13662   */\n      sub\n        /* \"#utility.yul\":13638:13639   */\n      0x00\n        /* \"#utility.yul\":13627:13636   */\n      dup4\n        /* \"#utility.yul\":13623:13640   */\n      add\n        /* \"#utility.yul\":13616:13663   */\n      mstore\n        /* \"#utility.yul\":13680:13811   */\n      tag_420\n        /* \"#utility.yul\":13806:13810   */\n      dup2\n        /* \"#utility.yul\":13680:13811   */\n      tag_258\n      jump\t// in\n    tag_420:\n        /* \"#utility.yul\":13672:13811   */\n      swap1\n      pop\n        /* \"#utility.yul\":13399:13818   */\n      swap2\n      swap1\n      pop\n      jump\t// out\n        /* \"#utility.yul\":13824:14156   */\n    tag_90:\n        /* \"#utility.yul\":13945:13949   */\n      0x00\n        /* \"#utility.yul\":13983:13985   */\n      0x40\n        /* \"#utility.yul\":13972:13981   */\n      dup3\n        /* \"#utility.yul\":13968:13986   */\n      add\n        /* \"#utility.yul\":13960:13986   */\n      swap1\n      pop\n        /* \"#utility.yul\":13996:14067   */\n      tag_422\n        /* \"#utility.yul\":14064:14065   */\n      0x00\n        /* \"#utility.yul\":14053:14062   */\n      dup4\n        /* \"#utility.yul\":14049:14066   */\n      add\n        /* \"#utility.yul\":14040:14046   */\n      dup6\n        /* \"#utility.yul\":13996:14067   */\n      tag_228\n      jump\t// in\n    tag_422:\n        /* \"#utility.yul\":14077:14149   */\n      tag_423\n        /* \"#utility.yul\":14145:14147   */\n      0x20\n        /* \"#utility.yul\":14134:14143   */\n      dup4\n        /* \"#utility.yul\":14130:14148   */\n      add\n        /* \"#utility.yul\":14121:14127   */\n      dup5\n        /* \"#utility.yul\":14077:14149   */\n      tag_225\n      jump\t// in\n    tag_423:\n        /* \"#utility.yul\":13824:14156   */\n      swap4\n      swap3\n      pop\n      pop\n      pop\n      jump\t// out\n        /* \"#utility.yul\":14162:14395   */\n    tag_259:\n        /* \"#utility.yul\":14302:14336   */\n      0x43616e6e6f7420656e642070726f706f73616c20726567697374726174696f6e\n        /* \"#utility.yul\":14298:14299   */\n      0x00\n        /* \"#utility.yul\":14290:14296   */\n      dup3\n        /* \"#utility.yul\":14286:14300   */\n      add\n        /* \"#utility.yul\":14279:14337   */\n      mstore\n        /* \"#utility.yul\":14371:14387   */\n      0x2061742074686973207374616765000000000000000000000000000000000000\n        /* \"#utility.yul\":14366:14368   */\n      0x20\n        /* \"#utility.yul\":14358:14364   */\n      dup3\n        /* \"#utility.yul\":14354:14369   */\n      add\n        /* \"#utility.yul\":14347:14388   */\n      mstore\n        /* \"#utility.yul\":14162:14395   */\n      pop\n      jump\t// out\n        /* \"#utility.yul\":14401:14767   */\n    tag_260:\n        /* \"#utility.yul\":14543:14546   */\n      0x00\n        /* \"#utility.yul\":14564:14631   */\n      tag_426\n        /* \"#utility.yul\":14628:14630   */\n      0x2e\n        /* \"#utility.yul\":14623:14626   */\n      dup4\n        /* \"#utility.yul\":14564:14631   */\n      tag_236\n      jump\t// in\n    tag_426:\n        /* \"#utility.yul\":14557:14631   */\n      swap2\n      pop\n        /* \"#utility.yul\":14640:14733   */\n      tag_427\n        /* \"#utility.yul\":14729:14732   */\n      dup3\n        /* \"#utility.yul\":14640:14733   */\n      tag_259\n      jump\t// in\n    tag_427:\n        /* \"#utility.yul\":14758:14760   */\n      0x40\n        /* \"#utility.yul\":14753:14756   */\n      dup3\n        /* \"#utility.yul\":14749:14761   */\n      add\n        /* \"#utility.yul\":14742:14761   */\n      swap1\n      pop\n        /* \"#utility.yul\":14401:14767   */\n      swap2\n      swap1\n      pop\n      jump\t// out\n        /* \"#utility.yul\":14773:15192   */\n    tag_101:\n        /* \"#utility.yul\":14939:14943   */\n      0x00\n        /* \"#utility.yul\":14977:14979   */\n      0x20\n        /* \"#utility.yul\":14966:14975   */\n      dup3\n        /* \"#utility.yul\":14962:14980   */\n      add\n        /* \"#utility.yul\":14954:14980   */\n      swap1\n      pop\n        /* \"#utility.yul\":15026:15035   */\n      dup2\n        /* \"#utility.yul\":15020:15024   */\n      dup2\n        /* \"#utility.yul\":15016:15036   */\n      sub\n        /* \"#utility.yul\":15012:15013   */\n      0x00\n        /* \"#utility.yul\":15001:15010   */\n      dup4\n        /* \"#utility.yul\":14997:15014   */\n      add\n        /* \"#utility.yul\":14990:15037   */\n      mstore\n        /* \"#utility.yul\":15054:15185   */\n      tag_429\n        /* \"#utility.yul\":15180:15184   */\n      dup2\n        /* \"#utility.yul\":15054:15185   */\n      tag_260\n      jump\t// in\n    tag_429:\n        /* \"#utility.yul\":15046:15185   */\n      swap1\n      pop\n        /* \"#utility.yul\":14773:15192   */\n      swap2\n      swap1\n      pop\n      jump\t// out\n        /* \"#utility.yul\":15198:15594   */\n    tag_103:\n        /* \"#utility.yul\":15351:15355   */\n      0x00\n        /* \"#utility.yul\":15389:15391   */\n      0x40\n        /* \"#utility.yul\":15378:15387   */\n      dup3\n        /* \"#utility.yul\":15374:15392   */\n      add\n        /* \"#utility.yul\":15366:15392   */\n      swap1\n      pop\n        /* \"#utility.yul\":15402:15489   */\n      tag_431\n        /* \"#utility.yul\":15486:15487   */\n      0x00\n        /* \"#utility.yul\":15475:15484   */\n      dup4\n        /* \"#utility.yul\":15471:15488   */\n      add\n        /* \"#utility.yul\":15462:15468   */\n      dup6\n        /* \"#utility.yul\":15402:15489   */\n      tag_250\n      jump\t// in\n    tag_431:\n        /* \"#utility.yul\":15499:15587   */\n      tag_432\n        /* \"#utility.yul\":15583:15585   */\n      0x20\n        /* \"#utility.yul\":15572:15581   */\n      dup4\n        /* \"#utility.yul\":15568:15586   */\n      add\n        /* \"#utility.yul\":15559:15565   */\n      dup5\n        /* \"#utility.yul\":15499:15587   */\n      tag_250\n      jump\t// in\n    tag_432:\n        /* \"#utility.yul\":15198:15594   */\n      swap4\n      swap3\n      pop\n      pop\n      pop\n      jump\t// out\n        /* \"#utility.yul\":15600:15826   */\n    tag_261:\n        /* \"#utility.yul\":15740:15774   */\n      0x43616e6e6f7420656e6420766f74696e672073657373696f6e20617420746869\n        /* \"#utility.yul\":15736:15737   */\n      0x00\n        /* \"#utility.yul\":15728:15734   */\n      dup3\n        /* \"#utility.yul\":15724:15738   */\n      add\n        /* \"#utility.yul\":15717:15775   */\n      mstore\n        /* \"#utility.yul\":15809:15818   */\n      0x7320737461676500000000000000000000000000000000000000000000000000\n        /* \"#utility.yul\":15804:15806   */\n      0x20\n        /* \"#utility.yul\":15796:15802   */\n      dup3\n        /* \"#utility.yul\":15792:15807   */\n      add\n        /* \"#utility.yul\":15785:15819   */\n      mstore\n        /* \"#utility.yul\":15600:15826   */\n      pop\n      jump\t// out\n        /* \"#utility.yul\":15832:16198   */\n    tag_262:\n        /* \"#utility.yul\":15974:15977   */\n      0x00\n        /* \"#utility.yul\":15995:16062   */\n      tag_435\n        /* \"#utility.yul\":16059:16061   */\n      0x27\n        /* \"#utility.yul\":16054:16057   */\n      dup4\n        /* \"#utility.yul\":15995:16062   */\n      tag_236\n      jump\t// in\n    tag_435:\n        /* \"#utility.yul\":15988:16062   */\n      swap2\n      pop\n        /* \"#utility.yul\":16071:16164   */\n      tag_436\n        /* \"#utility.yul\":16160:16163   */\n      dup3\n        /* \"#utility.yul\":16071:16164   */\n      tag_261\n      jump\t// in\n    tag_436:\n        /* \"#utility.yul\":16189:16191   */\n      0x40\n        /* \"#utility.yul\":16184:16187   */\n      dup3\n        /* \"#utility.yul\":16180:16192   */\n      add\n        /* \"#utility.yul\":16173:16192   */\n      swap1\n      pop\n        /* \"#utility.yul\":15832:16198   */\n      swap2\n      swap1\n      pop\n      jump\t// out\n        /* \"#utility.yul\":16204:16623   */\n    tag_124:\n        /* \"#utility.yul\":16370:16374   */\n      0x00\n        /* \"#utility.yul\":16408:16410   */\n      0x20\n        /* \"#utility.yul\":16397:16406   */\n      dup3\n        /* \"#utility.yul\":16393:16411   */\n      add\n        /* \"#utility.yul\":16385:16411   */\n      swap1\n      pop\n        /* \"#utility.yul\":16457:16466   */\n      dup2\n        /* \"#utility.yul\":16451:16455   */\n      dup2\n        /* \"#utility.yul\":16447:16467   */\n      sub\n        /* \"#utility.yul\":16443:16444   */\n      0x00\n        /* \"#utility.yul\":16432:16441   */\n      dup4\n        /* \"#utility.yul\":16428:16445   */\n      add\n        /* \"#utility.yul\":16421:16468   */\n      mstore\n        /* \"#utility.yul\":16485:16616   */\n      tag_438\n        /* \"#utility.yul\":16611:16615   */\n      dup2\n        /* \"#utility.yul\":16485:16616   */\n      tag_262\n      jump\t// in\n    tag_438:\n        /* \"#utility.yul\":16477:16616   */\n      swap1\n      pop\n        /* \"#utility.yul\":16204:16623   */\n      swap2\n      swap1\n      pop\n      jump\t// out\n        /* \"#utility.yul\":16629:16863   */\n    tag_263:\n        /* \"#utility.yul\":16769:16803   */\n      0x566f74657220726567697374726174696f6e206973206e6f7420616c6c6f7765\n        /* \"#utility.yul\":16765:16766   */\n      0x00\n        /* \"#utility.yul\":16757:16763   */\n      dup3\n        /* \"#utility.yul\":16753:16767   */\n      add\n        /* \"#utility.yul\":16746:16804   */\n      mstore\n        /* \"#utility.yul\":16838:16855   */\n      0x6420617420746869732073746167650000000000000000000000000000000000\n        /* \"#utility.yul\":16833:16835   */\n      0x20\n        /* \"#utility.yul\":16825:16831   */\n      dup3\n        /* \"#utility.yul\":16821:16836   */\n      add\n        /* \"#utility.yul\":16814:16856   */\n      mstore\n        /* \"#utility.yul\":16629:16863   */\n      pop\n      jump\t// out\n        /* \"#utility.yul\":16869:17235   */\n    tag_264:\n        /* \"#utility.yul\":17011:17014   */\n      0x00\n        /* \"#utility.yul\":17032:17099   */\n      tag_441\n        /* \"#utility.yul\":17096:17098   */\n      0x2f\n        /* \"#utility.yul\":17091:17094   */\n      dup4\n        /* \"#utility.yul\":17032:17099   */\n      tag_236\n      jump\t// in\n    tag_441:\n        /* \"#utility.yul\":17025:17099   */\n      swap2\n      pop\n        /* \"#utility.yul\":17108:17201   */\n      tag_442\n        /* \"#utility.yul\":17197:17200   */\n      dup3\n        /* \"#utility.yul\":17108:17201   */\n      tag_263\n      jump\t// in\n    tag_442:\n        /* \"#utility.yul\":17226:17228   */\n      0x40\n        /* \"#utility.yul\":17221:17224   */\n      dup3\n        /* \"#utility.yul\":17217:17229   */\n      add\n        /* \"#utility.yul\":17210:17229   */\n      swap1\n      pop\n        /* \"#utility.yul\":16869:17235   */\n      swap2\n      swap1\n      pop\n      jump\t// out\n        /* \"#utility.yul\":17241:17660   */\n    tag_149:\n        /* \"#utility.yul\":17407:17411   */\n      0x00\n        /* \"#utility.yul\":17445:17447   */\n      0x20\n        /* \"#utility.yul\":17434:17443   */\n      dup3\n        /* \"#utility.yul\":17430:17448   */\n      add\n        /* \"#utility.yul\":17422:17448   */\n      swap1\n      pop\n        /* \"#utility.yul\":17494:17503   */\n      dup2\n        /* \"#utility.yul\":17488:17492   */\n      dup2\n        /* \"#utility.yul\":17484:17504   */\n      sub\n        /* \"#utility.yul\":17480:17481   */\n      0x00\n        /* \"#utility.yul\":17469:17478   */\n      dup4\n        /* \"#utility.yul\":17465:17482   */\n      add\n        /* \"#utility.yul\":17458:17505   */\n      mstore\n        /* \"#utility.yul\":17522:17653   */\n      tag_444\n        /* \"#utility.yul\":17648:17652   */\n      dup2\n        /* \"#utility.yul\":17522:17653   */\n      tag_264\n      jump\t// in\n    tag_444:\n        /* \"#utility.yul\":17514:17653   */\n      swap1\n      pop\n        /* \"#utility.yul\":17241:17660   */\n      swap2\n      swap1\n      pop\n      jump\t// out\n        /* \"#utility.yul\":17666:17840   */\n    tag_265:\n        /* \"#utility.yul\":17806:17832   */\n      0x616c726561647920696e207468652077686974656c6973740000000000000000\n        /* \"#utility.yul\":17802:17803   */\n      0x00\n        /* \"#utility.yul\":17794:17800   */\n      dup3\n        /* \"#utility.yul\":17790:17804   */\n      add\n        /* \"#utility.yul\":17783:17833   */\n      mstore\n        /* \"#utility.yul\":17666:17840   */\n      pop\n      jump\t// out\n        /* \"#utility.yul\":17846:18212   */\n    tag_266:\n        /* \"#utility.yul\":17988:17991   */\n      0x00\n        /* \"#utility.yul\":18009:18076   */\n      tag_447\n        /* \"#utility.yul\":18073:18075   */\n      0x18\n        /* \"#utility.yul\":18068:18071   */\n      dup4\n        /* \"#utility.yul\":18009:18076   */\n      tag_236\n      jump\t// in\n    tag_447:\n        /* \"#utility.yul\":18002:18076   */\n      swap2\n      pop\n        /* \"#utility.yul\":18085:18178   */\n      tag_448\n        /* \"#utility.yul\":18174:18177   */\n      dup3\n        /* \"#utility.yul\":18085:18178   */\n      tag_265\n      jump\t// in\n    tag_448:\n        /* \"#utility.yul\":18203:18205   */\n      0x20\n        /* \"#utility.yul\":18198:18201   */\n      dup3\n        /* \"#utility.yul\":18194:18206   */\n      add\n        /* \"#utility.yul\":18187:18206   */\n      swap1\n      pop\n        /* \"#utility.yul\":17846:18212   */\n      swap2\n      swap1\n      pop\n      jump\t// out\n        /* \"#utility.yul\":18218:18637   */\n    tag_152:\n        /* \"#utility.yul\":18384:18388   */\n      0x00\n        /* \"#utility.yul\":18422:18424   */\n      0x20\n        /* \"#utility.yul\":18411:18420   */\n      dup3\n        /* \"#utility.yul\":18407:18425   */\n      add\n        /* \"#utility.yul\":18399:18425   */\n      swap1\n      pop\n        /* \"#utility.yul\":18471:18480   */\n      dup2\n        /* \"#utility.yul\":18465:18469   */\n      dup2\n        /* \"#utility.yul\":18461:18481   */\n      sub\n        /* \"#utility.yul\":18457:18458   */\n      0x00\n        /* \"#utility.yul\":18446:18455   */\n      dup4\n        /* \"#utility.yul\":18442:18459   */\n      add\n        /* \"#utility.yul\":18435:18482   */\n      mstore\n        /* \"#utility.yul\":18499:18630   */\n      tag_450\n        /* \"#utility.yul\":18625:18629   */\n      dup2\n        /* \"#utility.yul\":18499:18630   */\n      tag_266\n      jump\t// in\n    tag_450:\n        /* \"#utility.yul\":18491:18630   */\n      swap1\n      pop\n        /* \"#utility.yul\":18218:18637   */\n      swap2\n      swap1\n      pop\n      jump\t// out\n        /* \"#utility.yul\":18643:18823   */\n    tag_267:\n        /* \"#utility.yul\":18691:18768   */\n      0x4e487b7100000000000000000000000000000000000000000000000000000000\n        /* \"#utility.yul\":18688:18689   */\n      0x00\n        /* \"#utility.yul\":18681:18769   */\n      mstore\n        /* \"#utility.yul\":18788:18792   */\n      0x22\n        /* \"#utility.yul\":18785:18786   */\n      0x04\n        /* \"#utility.yul\":18778:18793   */\n      mstore\n        /* \"#utility.yul\":18812:18816   */\n      0x24\n        /* \"#utility.yul\":18809:18810   */\n      0x00\n        /* \"#utility.yul\":18802:18817   */\n      revert\n        /* \"#utility.yul\":18829:19149   */\n    tag_157:\n        /* \"#utility.yul\":18873:18879   */\n      0x00\n        /* \"#utility.yul\":18910:18911   */\n      0x02\n        /* \"#utility.yul\":18904:18908   */\n      dup3\n        /* \"#utility.yul\":18900:18912   */\n      div\n        /* \"#utility.yul\":18890:18912   */\n      swap1\n      pop\n        /* \"#utility.yul\":18957:18958   */\n      0x01\n        /* \"#utility.yul\":18951:18955   */\n      dup3\n        /* \"#utility.yul\":18947:18959   */\n      and\n        /* \"#utility.yul\":18978:18996   */\n      dup1\n        /* \"#utility.yul\":18968:19049   */\n      tag_453\n      jumpi\n        /* \"#utility.yul\":19034:19038   */\n      0x7f\n        /* \"#utility.yul\":19026:19032   */\n      dup3\n        /* \"#utility.yul\":19022:19039   */\n      and\n        /* \"#utility.yul\":19012:19039   */\n      swap2\n      pop\n        /* \"#utility.yul\":18968:19049   */\n    tag_453:\n        /* \"#utility.yul\":19096:19098   */\n      0x20\n        /* \"#utility.yul\":19088:19094   */\n      dup3\n        /* \"#utility.yul\":19085:19099   */\n      lt\n        /* \"#utility.yul\":19065:19083   */\n      dup2\n        /* \"#utility.yul\":19062:19100   */\n      sub\n        /* \"#utility.yul\":19059:19143   */\n      tag_454\n      jumpi\n        /* \"#utility.yul\":19115:19133   */\n      tag_455\n      tag_267\n      jump\t// in\n    tag_455:\n        /* \"#utility.yul\":19059:19143   */\n    tag_454:\n        /* \"#utility.yul\":18880:19149   */\n      pop\n        /* \"#utility.yul\":18829:19149   */\n      swap2\n      swap1\n      pop\n      jump\t// out\n        /* \"#utility.yul\":19155:19390   */\n    tag_268:\n        /* \"#utility.yul\":19295:19329   */\n      0x43616e6e6f742073746172742070726f706f73616c2072656769737472617469\n        /* \"#utility.yul\":19291:19292   */\n      0x00\n        /* \"#utility.yul\":19283:19289   */\n      dup3\n        /* \"#utility.yul\":19279:19293   */\n      add\n        /* \"#utility.yul\":19272:19330   */\n      mstore\n        /* \"#utility.yul\":19364:19382   */\n      0x6f6e206174207468697320737461676500000000000000000000000000000000\n        /* \"#utility.yul\":19359:19361   */\n      0x20\n        /* \"#utility.yul\":19351:19357   */\n      dup3\n        /* \"#utility.yul\":19347:19362   */\n      add\n        /* \"#utility.yul\":19340:19383   */\n      mstore\n        /* \"#utility.yul\":19155:19390   */\n      pop\n      jump\t// out\n        /* \"#utility.yul\":19396:19762   */\n    tag_269:\n        /* \"#utility.yul\":19538:19541   */\n      0x00\n        /* \"#utility.yul\":19559:19626   */\n      tag_458\n        /* \"#utility.yul\":19623:19625   */\n      0x30\n        /* \"#utility.yul\":19618:19621   */\n      dup4\n        /* \"#utility.yul\":19559:19626   */\n      tag_236\n      jump\t// in\n    tag_458:\n        /* \"#utility.yul\":19552:19626   */\n      swap2\n      pop\n        /* \"#utility.yul\":19635:19728   */\n      tag_459\n        /* \"#utility.yul\":19724:19727   */\n      dup3\n        /* \"#utility.yul\":19635:19728   */\n      tag_268\n      jump\t// in\n    tag_459:\n        /* \"#utility.yul\":19753:19755   */\n      0x40\n        /* \"#utility.yul\":19748:19751   */\n      dup3\n        /* \"#utility.yul\":19744:19756   */\n      add\n        /* \"#utility.yul\":19737:19756   */\n      swap1\n      pop\n        /* \"#utility.yul\":19396:19762   */\n      swap2\n      swap1\n      pop\n      jump\t// out\n        /* \"#utility.yul\":19768:20187   */\n    tag_171:\n        /* \"#utility.yul\":19934:19938   */\n      0x00\n        /* \"#utility.yul\":19972:19974   */\n      0x20\n        /* \"#utility.yul\":19961:19970   */\n      dup3\n        /* \"#utility.yul\":19957:19975   */\n      add\n        /* \"#utility.yul\":19949:19975   */\n      swap1\n      pop\n        /* \"#utility.yul\":20021:20030   */\n      dup2\n        /* \"#utility.yul\":20015:20019   */\n      dup2\n        /* \"#utility.yul\":20011:20031   */\n      sub\n        /* \"#utility.yul\":20007:20008   */\n      0x00\n        /* \"#utility.yul\":19996:20005   */\n      dup4\n        /* \"#utility.yul\":19992:20009   */\n      add\n        /* \"#utility.yul\":19985:20032   */\n      mstore\n        /* \"#utility.yul\":20049:20180   */\n      tag_461\n        /* \"#utility.yul\":20175:20179   */\n      dup2\n        /* \"#utility.yul\":20049:20180   */\n      tag_269\n      jump\t// in\n    tag_461:\n        /* \"#utility.yul\":20041:20180   */\n      swap1\n      pop\n        /* \"#utility.yul\":19768:20187   */\n      swap2\n      swap1\n      pop\n      jump\t// out\n        /* \"#utility.yul\":20193:20367   */\n    tag_270:\n        /* \"#utility.yul\":20333:20359   */\n      0x43616e6e6f742072656769737465722070726f706f73616c0000000000000000\n        /* \"#utility.yul\":20329:20330   */\n      0x00\n        /* \"#utility.yul\":20321:20327   */\n      dup3\n        /* \"#utility.yul\":20317:20331   */\n      add\n        /* \"#utility.yul\":20310:20360   */\n      mstore\n        /* \"#utility.yul\":20193:20367   */\n      pop\n      jump\t// out\n        /* \"#utility.yul\":20373:20739   */\n    tag_271:\n        /* \"#utility.yul\":20515:20518   */\n      0x00\n        /* \"#utility.yul\":20536:20603   */\n      tag_464\n        /* \"#utility.yul\":20600:20602   */\n      0x18\n        /* \"#utility.yul\":20595:20598   */\n      dup4\n        /* \"#utility.yul\":20536:20603   */\n      tag_236\n      jump\t// in\n    tag_464:\n        /* \"#utility.yul\":20529:20603   */\n      swap2\n      pop\n        /* \"#utility.yul\":20612:20705   */\n      tag_465\n        /* \"#utility.yul\":20701:20704   */\n      dup3\n        /* \"#utility.yul\":20612:20705   */\n      tag_270\n      jump\t// in\n    tag_465:\n        /* \"#utility.yul\":20730:20732   */\n      0x20\n        /* \"#utility.yul\":20725:20728   */\n      dup3\n        /* \"#utility.yul\":20721:20733   */\n      add\n        /* \"#utility.yul\":20714:20733   */\n      swap1\n      pop\n        /* \"#utility.yul\":20373:20739   */\n      swap2\n      swap1\n      pop\n      jump\t// out\n        /* \"#utility.yul\":20745:21164   */\n    tag_182:\n        /* \"#utility.yul\":20911:20915   */\n      0x00\n        /* \"#utility.yul\":20949:20951   */\n      0x20\n        /* \"#utility.yul\":20938:20947   */\n      dup3\n        /* \"#utility.yul\":20934:20952   */\n      add\n        /* \"#utility.yul\":20926:20952   */\n      swap1\n      pop\n        /* \"#utility.yul\":20998:21007   */\n      dup2\n        /* \"#utility.yul\":20992:20996   */\n      dup2\n        /* \"#utility.yul\":20988:21008   */\n      sub\n        /* \"#utility.yul\":20984:20985   */\n      0x00\n        /* \"#utility.yul\":20973:20982   */\n      dup4\n        /* \"#utility.yul\":20969:20986   */\n      add\n        /* \"#utility.yul\":20962:21009   */\n      mstore\n        /* \"#utility.yul\":21026:21157   */\n      tag_467\n        /* \"#utility.yul\":21152:21156   */\n      dup2\n        /* \"#utility.yul\":21026:21157   */\n      tag_271\n      jump\t// in\n    tag_467:\n        /* \"#utility.yul\":21018:21157   */\n      swap1\n      pop\n        /* \"#utility.yul\":20745:21164   */\n      swap2\n      swap1\n      pop\n      jump\t// out\n        /* \"#utility.yul\":21170:21311   */\n    tag_272:\n        /* \"#utility.yul\":21219:21223   */\n      0x00\n        /* \"#utility.yul\":21242:21245   */\n      dup2\n        /* \"#utility.yul\":21234:21245   */\n      swap1\n      pop\n        /* \"#utility.yul\":21265:21268   */\n      dup2\n        /* \"#utility.yul\":21262:21263   */\n      0x00\n        /* \"#utility.yul\":21255:21269   */\n      mstore\n        /* \"#utility.yul\":21299:21303   */\n      0x20\n        /* \"#utility.yul\":21296:21297   */\n      0x00\n        /* \"#utility.yul\":21286:21304   */\n      keccak256\n        /* \"#utility.yul\":21278:21304   */\n      swap1\n      pop\n        /* \"#utility.yul\":21170:21311   */\n      swap2\n      swap1\n      pop\n      jump\t// out\n        /* \"#utility.yul\":21317:21410   */\n    tag_273:\n        /* \"#utility.yul\":21354:21360   */\n      0x00\n        /* \"#utility.yul\":21401:21403   */\n      0x20\n        /* \"#utility.yul\":21396:21398   */\n      0x1f\n        /* \"#utility.yul\":21389:21394   */\n      dup4\n        /* \"#utility.yul\":21385:21399   */\n      add\n        /* \"#utility.yul\":21381:21404   */\n      div\n        /* \"#utility.yul\":21371:21404   */\n      swap1\n      pop\n        /* \"#utility.yul\":21317:21410   */\n      swap2\n      swap1\n      pop\n      jump\t// out\n        /* \"#utility.yul\":21416:21523   */\n    tag_274:\n        /* \"#utility.yul\":21460:21468   */\n      0x00\n        /* \"#utility.yul\":21510:21515   */\n      dup3\n        /* \"#utility.yul\":21504:21508   */\n      dup3\n        /* \"#utility.yul\":21500:21516   */\n      shl\n        /* \"#utility.yul\":21479:21516   */\n      swap1\n      pop\n        /* \"#utility.yul\":21416:21523   */\n      swap3\n      swap2\n      pop\n      pop\n      jump\t// out\n        /* \"#utility.yul\":21529:21922   */\n    tag_275:\n        /* \"#utility.yul\":21598:21604   */\n      0x00\n        /* \"#utility.yul\":21648:21649   */\n      0x08\n        /* \"#utility.yul\":21636:21646   */\n      dup4\n        /* \"#utility.yul\":21632:21650   */\n      mul\n        /* \"#utility.yul\":21671:21768   */\n      tag_472\n        /* \"#utility.yul\":21701:21767   */\n      0xffffffffffffffffffffffffffffffffffffffffffffffffffffffffffffffff\n        /* \"#utility.yul\":21690:21699   */\n      dup3\n        /* \"#utility.yul\":21671:21768   */\n      tag_274\n      jump\t// in\n    tag_472:\n        /* \"#utility.yul\":21789:21828   */\n      tag_473\n        /* \"#utility.yul\":21819:21827   */\n      dup7\n        /* \"#utility.yul\":21808:21817   */\n      dup4\n        /* \"#utility.yul\":21789:21828   */\n      tag_274\n      jump\t// in\n    tag_473:\n        /* \"#utility.yul\":21777:21828   */\n      swap6\n      pop\n        /* \"#utility.yul\":21861:21865   */\n      dup1\n        /* \"#utility.yul\":21857:21866   */\n      not\n        /* \"#utility.yul\":21850:21855   */\n      dup5\n        /* \"#utility.yul\":21846:21867   */\n      and\n        /* \"#utility.yul\":21837:21867   */\n      swap4\n      pop\n        /* \"#utility.yul\":21910:21914   */\n      dup1\n        /* \"#utility.yul\":21900:21908   */\n      dup7\n        /* \"#utility.yul\":21896:21915   */\n      and\n        /* \"#utility.yul\":21889:21894   */\n      dup5\n        /* \"#utility.yul\":21886:21916   */\n      or\n        /* \"#utility.yul\":21876:21916   */\n      swap3\n      pop\n        /* \"#utility.yul\":21605:21922   */\n      pop\n      pop\n        /* \"#utility.yul\":21529:21922   */\n      swap4\n      swap3\n      pop\n      pop\n      pop\n      jump\t// out\n        /* \"#utility.yul\":21928:21988   */\n    tag_276:\n        /* \"#utility.yul\":21956:21959   */\n      0x00\n        /* \"#utility.yul\":21977:21982   */\n      dup2\n        /* \"#utility.yul\":21970:21982   */\n      swap1\n      pop\n        /* \"#utility.yul\":21928:21988   */\n      swap2\n      swap1\n      pop\n      jump\t// out\n        /* \"#utility.yul\":21994:22136   */\n    tag_277:\n        /* \"#utility.yul\":22044:22053   */\n      0x00\n        /* \"#utility.yul\":22077:22130   */\n      tag_476\n        /* \"#utility.yul\":22095:22129   */\n      tag_477\n        /* \"#utility.yul\":22104:22128   */\n      tag_478\n        /* \"#utility.yul\":22122:22127   */\n      dup5\n        /* \"#utility.yul\":22104:22128   */\n      tag_224\n      jump\t// in\n    tag_478:\n        /* \"#utility.yul\":22095:22129   */\n      tag_276\n      jump\t// in\n    tag_477:\n        /* \"#utility.yul\":22077:22130   */\n      tag_224\n      jump\t// in\n    tag_476:\n        /* \"#utility.yul\":22064:22130   */\n      swap1\n      pop\n        /* \"#utility.yul\":21994:22136   */\n      swap2\n      swap1\n      pop\n      jump\t// out\n        /* \"#utility.yul\":22142:22217   */\n    tag_278:\n        /* \"#utility.yul\":22185:22188   */\n      0x00\n        /* \"#utility.yul\":22206:22211   */\n      dup2\n        /* \"#utility.yul\":22199:22211   */\n      swap1\n      pop\n        /* \"#utility.yul\":22142:22217   */\n      swap2\n      swap1\n      pop\n      jump\t// out\n        /* \"#utility.yul\":22223:22492   */\n    tag_279:\n        /* \"#utility.yul\":22333:22372   */\n      tag_481\n        /* \"#utility.yul\":22364:22371   */\n      dup4\n        /* \"#utility.yul\":22333:22372   */\n      tag_277\n      jump\t// in\n    tag_481:\n        /* \"#utility.yul\":22394:22485   */\n      tag_482\n        /* \"#utility.yul\":22443:22484   */\n      tag_483\n        /* \"#utility.yul\":22467:22483   */\n      dup3\n        /* \"#utility.yul\":22443:22484   */\n      tag_278\n      jump\t// in\n    tag_483:\n        /* \"#utility.yul\":22435:22441   */\n      dup5\n        /* \"#utility.yul\":22428:22432   */\n      dup5\n        /* \"#utility.yul\":22422:22433   */\n      sload\n        /* \"#utility.yul\":22394:22485   */\n      tag_275\n      jump\t// in\n    tag_482:\n        /* \"#utility.yul\":22388:22392   */\n      dup3\n        /* \"#utility.yul\":22381:22486   */\n      sstore\n        /* \"#utility.yul\":22299:22492   */\n      pop\n        /* \"#utility.yul\":22223:22492   */\n      pop\n      pop\n      pop\n      jump\t// out\n        /* \"#utility.yul\":22498:22571   */\n    tag_280:\n        /* \"#utility.yul\":22543:22546   */\n      0x00\n        /* \"#utility.yul\":22498:22571   */\n      swap1\n      jump\t// out\n        /* \"#utility.yul\":22577:22766   */\n    tag_281:\n        /* \"#utility.yul\":22654:22686   */\n      tag_486\n      tag_280\n      jump\t// in\n    tag_486:\n        /* \"#utility.yul\":22695:22760   */\n      tag_487\n        /* \"#utility.yul\":22753:22759   */\n      dup2\n        /* \"#utility.yul\":22745:22751   */\n      dup5\n        /* \"#utility.yul\":22739:22743   */\n      dup5\n        /* \"#utility.yul\":22695:22760   */\n      tag_279\n      jump\t// in\n    tag_487:\n        /* \"#utility.yul\":22630:22766   */\n      pop\n        /* \"#utility.yul\":22577:22766   */\n      pop\n      pop\n      jump\t// out\n        /* \"#utility.yul\":22772:22958   */\n    tag_282:\n        /* \"#utility.yul\":22832:22952   */\n    tag_489:\n        /* \"#utility.yul\":22849:22852   */\n      dup2\n        /* \"#utility.yul\":22842:22847   */\n      dup2\n        /* \"#utility.yul\":22839:22853   */\n      lt\n        /* \"#utility.yul\":22832:22952   */\n      iszero\n      tag_491\n      jumpi\n        /* \"#utility.yul\":22903:22942   */\n      tag_492\n        /* \"#utility.yul\":22940:22941   */\n      0x00\n        /* \"#utility.yul\":22933:22938   */\n      dup3\n        /* \"#utility.yul\":22903:22942   */\n      tag_281\n      jump\t// in\n    tag_492:\n        /* \"#utility.yul\":22876:22877   */\n      0x01\n        /* \"#utility.yul\":22869:22874   */\n      dup2\n        /* \"#utility.yul\":22865:22878   */\n      add\n        /* \"#utility.yul\":22856:22878   */\n      swap1\n      pop\n        /* \"#utility.yul\":22832:22952   */\n      jump(tag_489)\n    tag_491:\n        /* \"#utility.yul\":22772:22958   */\n      pop\n      pop\n      jump\t// out\n        /* \"#utility.yul\":22964:23507   */\n    tag_283:\n        /* \"#utility.yul\":23065:23067   */\n      0x1f\n        /* \"#utility.yul\":23060:23063   */\n      dup3\n        /* \"#utility.yul\":23057:23068   */\n      gt\n        /* \"#utility.yul\":23054:23500   */\n      iszero\n      tag_494\n      jumpi\n        /* \"#utility.yul\":23099:23137   */\n      tag_495\n        /* \"#utility.yul\":23131:23136   */\n      dup2\n        /* \"#utility.yul\":23099:23137   */\n      tag_272\n      jump\t// in\n    tag_495:\n        /* \"#utility.yul\":23183:23212   */\n      tag_496\n        /* \"#utility.yul\":23201:23211   */\n      dup5\n        /* \"#utility.yul\":23183:23212   */\n      tag_273\n      jump\t// in\n    tag_496:\n        /* \"#utility.yul\":23173:23181   */\n      dup2\n        /* \"#utility.yul\":23169:23213   */\n      add\n        /* \"#utility.yul\":23366:23368   */\n      0x20\n        /* \"#utility.yul\":23354:23364   */\n      dup6\n        /* \"#utility.yul\":23351:23369   */\n      lt\n        /* \"#utility.yul\":23348:23397   */\n      iszero\n      tag_497\n      jumpi\n        /* \"#utility.yul\":23387:23395   */\n      dup2\n        /* \"#utility.yul\":23372:23395   */\n      swap1\n      pop\n        /* \"#utility.yul\":23348:23397   */\n    tag_497:\n        /* \"#utility.yul\":23410:23490   */\n      tag_498\n        /* \"#utility.yul\":23466:23488   */\n      tag_499\n        /* \"#utility.yul\":23484:23487   */\n      dup6\n        /* \"#utility.yul\":23466:23488   */\n      tag_273\n      jump\t// in\n    tag_499:\n        /* \"#utility.yul\":23456:23464   */\n      dup4\n        /* \"#utility.yul\":23452:23489   */\n      add\n        /* \"#utility.yul\":23439:23450   */\n      dup3\n        /* \"#utility.yul\":23410:23490   */\n      tag_282\n      jump\t// in\n    tag_498:\n        /* \"#utility.yul\":23069:23500   */\n      pop\n      pop\n        /* \"#utility.yul\":23054:23500   */\n    tag_494:\n        /* \"#utility.yul\":22964:23507   */\n      pop\n      pop\n      pop\n      jump\t// out\n        /* \"#utility.yul\":23513:23630   */\n    tag_284:\n        /* \"#utility.yul\":23567:23575   */\n      0x00\n        /* \"#utility.yul\":23617:23622   */\n      dup3\n        /* \"#utility.yul\":23611:23615   */\n      dup3\n        /* \"#utility.yul\":23607:23623   */\n      shr\n        /* \"#utility.yul\":23586:23623   */\n      swap1\n      pop\n        /* \"#utility.yul\":23513:23630   */\n      swap3\n      swap2\n      pop\n      pop\n      jump\t// out\n        /* \"#utility.yul\":23636:23805   */\n    tag_285:\n        /* \"#utility.yul\":23680:23686   */\n      0x00\n        /* \"#utility.yul\":23713:23764   */\n      tag_502\n        /* \"#utility.yul\":23761:23762   */\n      0x00\n        /* \"#utility.yul\":23757:23763   */\n      not\n        /* \"#utility.yul\":23749:23754   */\n      dup5\n        /* \"#utility.yul\":23746:23747   */\n      0x08\n        /* \"#utility.yul\":23742:23755   */\n      mul\n        /* \"#utility.yul\":23713:23764   */\n      tag_284\n      jump\t// in\n    tag_502:\n        /* \"#utility.yul\":23709:23765   */\n      not\n        /* \"#utility.yul\":23794:23798   */\n      dup1\n        /* \"#utility.yul\":23788:23792   */\n      dup4\n        /* \"#utility.yul\":23784:23799   */\n      and\n        /* \"#utility.yul\":23774:23799   */\n      swap2\n      pop\n        /* \"#utility.yul\":23687:23805   */\n      pop\n        /* \"#utility.yul\":23636:23805   */\n      swap3\n      swap2\n      pop\n      pop\n      jump\t// out\n        /* \"#utility.yul\":23810:24105   */\n    tag_286:\n        /* \"#utility.yul\":23886:23890   */\n      0x00\n        /* \"#utility.yul\":24032:24061   */\n      tag_504\n        /* \"#utility.yul\":24057:24060   */\n      dup4\n        /* \"#utility.yul\":24051:24055   */\n      dup4\n        /* \"#utility.yul\":24032:24061   */\n      tag_285\n      jump\t// in\n    tag_504:\n        /* \"#utility.yul\":24024:24061   */\n      swap2\n      pop\n        /* \"#utility.yul\":24094:24097   */\n      dup3\n        /* \"#utility.yul\":24091:24092   */\n      0x02\n        /* \"#utility.yul\":24087:24098   */\n      mul\n        /* \"#utility.yul\":24081:24085   */\n      dup3\n        /* \"#utility.yul\":24078:24099   */\n      or\n        /* \"#utility.yul\":24070:24099   */\n      swap1\n      pop\n        /* \"#utility.yul\":23810:24105   */\n      swap3\n      swap2\n      pop\n      pop\n      jump\t// out\n        /* \"#utility.yul\":24110:25505   */\n    tag_187:\n        /* \"#utility.yul\":24227:24264   */\n      tag_506\n        /* \"#utility.yul\":24260:24263   */\n      dup3\n        /* \"#utility.yul\":24227:24264   */\n      tag_229\n      jump\t// in\n    tag_506:\n        /* \"#utility.yul\":24329:24347   */\n      0xffffffffffffffff\n        /* \"#utility.yul\":24321:24327   */\n      dup2\n        /* \"#utility.yul\":24318:24348   */\n      gt\n        /* \"#utility.yul\":24315:24371   */\n      iszero\n      tag_507\n      jumpi\n        /* \"#utility.yul\":24351:24369   */\n      tag_508\n      tag_240\n      jump\t// in\n    tag_508:\n        /* \"#utility.yul\":24315:24371   */\n    tag_507:\n        /* \"#utility.yul\":24395:24433   */\n      tag_509\n        /* \"#utility.yul\":24427:24431   */\n      dup3\n        /* \"#utility.yul\":24421:24432   */\n      sload\n        /* \"#utility.yul\":24395:24433   */\n      tag_157\n      jump\t// in\n    tag_509:\n        /* \"#utility.yul\":24480:24547   */\n      tag_510\n        /* \"#utility.yul\":24540:24546   */\n      dup3\n        /* \"#utility.yul\":24532:24538   */\n      dup3\n        /* \"#utility.yul\":24526:24530   */\n      dup6\n        /* \"#utility.yul\":24480:24547   */\n      tag_283\n      jump\t// in\n    tag_510:\n        /* \"#utility.yul\":24574:24575   */\n      0x00\n        /* \"#utility.yul\":24598:24602   */\n      0x20\n        /* \"#utility.yul\":24585:24602   */\n      swap1\n      pop\n        /* \"#utility.yul\":24630:24632   */\n      0x1f\n        /* \"#utility.yul\":24622:24628   */\n      dup4\n        /* \"#utility.yul\":24619:24633   */\n      gt\n        /* \"#utility.yul\":24647:24648   */\n      0x01\n        /* \"#utility.yul\":24642:25260   */\n      dup2\n      eq\n      tag_512\n      jumpi\n        /* \"#utility.yul\":25304:25305   */\n      0x00\n        /* \"#utility.yul\":25321:25327   */\n      dup5\n        /* \"#utility.yul\":25318:25395   */\n      iszero\n      tag_513\n      jumpi\n        /* \"#utility.yul\":25370:25379   */\n      dup3\n        /* \"#utility.yul\":25365:25368   */\n      dup8\n        /* \"#utility.yul\":25361:25380   */\n      add\n        /* \"#utility.yul\":25355:25381   */\n      mload\n        /* \"#utility.yul\":25346:25381   */\n      swap1\n      pop\n        /* \"#utility.yul\":25318:25395   */\n    tag_513:\n        /* \"#utility.yul\":25421:25488   */\n      tag_514\n        /* \"#utility.yul\":25481:25487   */\n      dup6\n        /* \"#utility.yul\":25474:25479   */\n      dup3\n        /* \"#utility.yul\":25421:25488   */\n      tag_286\n      jump\t// in\n    tag_514:\n        /* \"#utility.yul\":25415:25419   */\n      dup7\n        /* \"#utility.yul\":25408:25489   */\n      sstore\n        /* \"#utility.yul\":25277:25499   */\n      pop\n        /* \"#utility.yul\":24612:25499   */\n      jump(tag_511)\n        /* \"#utility.yul\":24642:25260   */\n    tag_512:\n        /* \"#utility.yul\":24694:24698   */\n      0x1f\n        /* \"#utility.yul\":24690:24699   */\n      not\n        /* \"#utility.yul\":24682:24688   */\n      dup5\n        /* \"#utility.yul\":24678:24700   */\n      and\n        /* \"#utility.yul\":24728:24765   */\n      tag_515\n        /* \"#utility.yul\":24760:24764   */\n      dup7\n        /* \"#utility.yul\":24728:24765   */\n      tag_272\n      jump\t// in\n    tag_515:\n        /* \"#utility.yul\":24787:24788   */\n      0x00\n        /* \"#utility.yul\":24801:25009   */\n    tag_516:\n        /* \"#utility.yul\":24815:24822   */\n      dup3\n        /* \"#utility.yul\":24812:24813   */\n      dup2\n        /* \"#utility.yul\":24809:24823   */\n      lt\n        /* \"#utility.yul\":24801:25009   */\n      iszero\n      tag_518\n      jumpi\n        /* \"#utility.yul\":24894:24903   */\n      dup5\n        /* \"#utility.yul\":24889:24892   */\n      dup10\n        /* \"#utility.yul\":24885:24904   */\n      add\n        /* \"#utility.yul\":24879:24905   */\n      mload\n        /* \"#utility.yul\":24871:24877   */\n      dup3\n        /* \"#utility.yul\":24864:24906   */\n      sstore\n        /* \"#utility.yul\":24945:24946   */\n      0x01\n        /* \"#utility.yul\":24937:24943   */\n      dup3\n        /* \"#utility.yul\":24933:24947   */\n      add\n        /* \"#utility.yul\":24923:24947   */\n      swap2\n      pop\n        /* \"#utility.yul\":24992:24994   */\n      0x20\n        /* \"#utility.yul\":24981:24990   */\n      dup6\n        /* \"#utility.yul\":24977:24995   */\n      add\n        /* \"#utility.yul\":24964:24995   */\n      swap5\n      pop\n        /* \"#utility.yul\":24838:24842   */\n      0x20\n        /* \"#utility.yul\":24835:24836   */\n      dup2\n        /* \"#utility.yul\":24831:24843   */\n      add\n        /* \"#utility.yul\":24826:24843   */\n      swap1\n      pop\n        /* \"#utility.yul\":24801:25009   */\n      jump(tag_516)\n    tag_518:\n        /* \"#utility.yul\":25037:25043   */\n      dup7\n        /* \"#utility.yul\":25028:25035   */\n      dup4\n        /* \"#utility.yul\":25025:25044   */\n      lt\n        /* \"#utility.yul\":25022:25201   */\n      iszero\n      tag_519\n      jumpi\n        /* \"#utility.yul\":25095:25104   */\n      dup5\n        /* \"#utility.yul\":25090:25093   */\n      dup10\n        /* \"#utility.yul\":25086:25105   */\n      add\n        /* \"#utility.yul\":25080:25106   */\n      mload\n        /* \"#utility.yul\":25138:25186   */\n      tag_520\n        /* \"#utility.yul\":25180:25184   */\n      0x1f\n        /* \"#utility.yul\":25172:25178   */\n      dup10\n        /* \"#utility.yul\":25168:25185   */\n      and\n        /* \"#utility.yul\":25157:25166   */\n      dup3\n        /* \"#utility.yul\":25138:25186   */\n      tag_285\n      jump\t// in\n    tag_520:\n        /* \"#utility.yul\":25130:25136   */\n      dup4\n        /* \"#utility.yul\":25123:25187   */\n      sstore\n        /* \"#utility.yul\":25045:25201   */\n      pop\n        /* \"#utility.yul\":25022:25201   */\n    tag_519:\n        /* \"#utility.yul\":25247:25248   */\n      0x01\n        /* \"#utility.yul\":25243:25244   */\n      0x02\n        /* \"#utility.yul\":25235:25241   */\n      dup9\n        /* \"#utility.yul\":25231:25245   */\n      mul\n        /* \"#utility.yul\":25227:25249   */\n      add\n        /* \"#utility.yul\":25221:25225   */\n      dup9\n        /* \"#utility.yul\":25214:25250   */\n      sstore\n        /* \"#utility.yul\":24649:25260   */\n      pop\n      pop\n      pop\n        /* \"#utility.yul\":24612:25499   */\n    tag_511:\n      pop\n        /* \"#utility.yul\":24202:25505   */\n      pop\n      pop\n      pop\n        /* \"#utility.yul\":24110:25505   */\n      pop\n      pop\n      jump\t// out\n        /* \"#utility.yul\":25511:25739   */\n    tag_287:\n        /* \"#utility.yul\":25651:25685   */\n      0x43616e6e6f7420737461727420766f74696e672073657373696f6e2061742074\n        /* \"#utility.yul\":25647:25648   */\n      0x00\n        /* \"#utility.yul\":25639:25645   */\n      dup3\n        /* \"#utility.yul\":25635:25649   */\n      add\n        /* \"#utility.yul\":25628:25686   */\n      mstore\n        /* \"#utility.yul\":25720:25731   */\n      0x6869732073746167650000000000000000000000000000000000000000000000\n        /* \"#utility.yul\":25715:25717   */\n      0x20\n        /* \"#utility.yul\":25707:25713   */\n      dup3\n        /* \"#utility.yul\":25703:25718   */\n      add\n        /* \"#utility.yul\":25696:25732   */\n      mstore\n        /* \"#utility.yul\":25511:25739   */\n      pop\n      jump\t// out\n        /* \"#utility.yul\":25745:26111   */\n    tag_288:\n        /* \"#utility.yul\":25887:25890   */\n      0x00\n        /* \"#utility.yul\":25908:25975   */\n      tag_523\n        /* \"#utility.yul\":25972:25974   */\n      0x29\n        /* \"#utility.yul\":25967:25970   */\n      dup4\n        /* \"#utility.yul\":25908:25975   */\n      tag_236\n      jump\t// in\n    tag_523:\n        /* \"#utility.yul\":25901:25975   */\n      swap2\n      pop\n        /* \"#utility.yul\":25984:26077   */\n      tag_524\n        /* \"#utility.yul\":26073:26076   */\n      dup3\n        /* \"#utility.yul\":25984:26077   */\n      tag_287\n      jump\t// in\n    tag_524:\n        /* \"#utility.yul\":26102:26104   */\n      0x40\n        /* \"#utility.yul\":26097:26100   */\n      dup3\n        /* \"#utility.yul\":26093:26105   */\n      add\n        /* \"#utility.yul\":26086:26105   */\n      swap1\n      pop\n        /* \"#utility.yul\":25745:26111   */\n      swap2\n      swap1\n      pop\n      jump\t// out\n        /* \"#utility.yul\":26117:26536   */\n    tag_198:\n        /* \"#utility.yul\":26283:26287   */\n      0x00\n        /* \"#utility.yul\":26321:26323   */\n      0x20\n        /* \"#utility.yul\":26310:26319   */\n      dup3\n        /* \"#utility.yul\":26306:26324   */\n      add\n        /* \"#utility.yul\":26298:26324   */\n      swap1\n      pop\n        /* \"#utility.yul\":26370:26379   */\n      dup2\n        /* \"#utility.yul\":26364:26368   */\n      dup2\n        /* \"#utility.yul\":26360:26380   */\n      sub\n        /* \"#utility.yul\":26356:26357   */\n      0x00\n        /* \"#utility.yul\":26345:26354   */\n      dup4\n        /* \"#utility.yul\":26341:26358   */\n      add\n        /* \"#utility.yul\":26334:26381   */\n      mstore\n        /* \"#utility.yul\":26398:26529   */\n      tag_526\n        /* \"#utility.yul\":26524:26528   */\n      dup2\n        /* \"#utility.yul\":26398:26529   */\n      tag_288\n      jump\t// in\n    tag_526:\n        /* \"#utility.yul\":26390:26529   */\n      swap1\n      pop\n        /* \"#utility.yul\":26117:26536   */\n      swap2\n      swap1\n      pop\n      jump\t// out\n\n    auxdata: 0xa26469706673582212205e9356eb12fb10b430ee547b27367d4ddf9b775c227a4abe855d9e86657dd0ea64736f6c634300081a0033\n}\n",
				"bytecode": {
					"linkReferences": {},
					"object": "608060405234801561000f575f80fd5b50335f73ffffffffffffffffffffffffffffffffffffffff168173ffffffffffffffffffffffffffffffffffffffff1603610081575f6040517f1e4fbdf70000000000000000000000000000000000000000000000000000000081526004016100789190610196565b60405180910390fd5b6100908161009660201b60201c565b506101af565b5f805f9054906101000a900473ffffffffffffffffffffffffffffffffffffffff169050815f806101000a81548173ffffffffffffffffffffffffffffffffffffffff021916908373ffffffffffffffffffffffffffffffffffffffff1602179055508173ffffffffffffffffffffffffffffffffffffffff168173ffffffffffffffffffffffffffffffffffffffff167f8be0079c531659141344cd1fd0a4f28419497f9722a3daafe3b4186f6b6457e060405160405180910390a35050565b5f73ffffffffffffffffffffffffffffffffffffffff82169050919050565b5f61018082610157565b9050919050565b61019081610176565b82525050565b5f6020820190506101a95f830184610187565b92915050565b611d74806101bc5f395ff3fe608060405234801561000f575f80fd5b50600436106100f3575f3560e01c8063b647990a11610095578063e5349fe811610064578063e5349fe8146101fe578063ee74c6781461021a578063ef8a923514610224578063f2fde38b14610242576100f3565b8063b647990a1461019d578063b6a5d7de146101a7578063c6311e3f146101c3578063e09b8c79146101f4576100f3565b8063715018a6116100d1578063715018a61461014d5780638da5cb5b146101575780638e7ea5b214610175578063a7bfab1614610193576100f3565b8063144677c4146100f75780634e3c118e146101275780636c29744514610143575b5f80fd5b610111600480360381019061010c9190611079565b61025e565b60405161011e91906110bc565b60405180910390f35b610141600480360381019061013c91906110ff565b610273565b005b61014b610484565b005b610155610579565b005b61015f61058c565b60405161016c919061114c565b60405180910390f35b61017d6105b3565b60405161018a919061121e565b60405180910390f35b61019b61060b565b005b6101a5610700565b005b6101c160048036038101906101bc9190611079565b6107fd565b005b6101dd60048036038101906101d8919061123e565b610989565b6040516101eb9291906112b1565b60405180910390f35b6101fc610a3e565b005b6102186004803603810190610213919061140b565b610b32565b005b610222610d1b565b005b61022c610e10565b60405161023991906114d8565b60405180910390f35b61025c60048036038101906102579190611079565b610e22565b005b6004602052805f5260405f205f915090505481565b6003600581111561028757610286611465565b5b60025f9054906101000a900460ff1660058111156102a8576102a7611465565b5b146102e8576040517f08c379a00000000000000000000000000000000000000000000000000000000081526004016102df9061153b565b60405180910390fd5b60035f8373ffffffffffffffffffffffffffffffffffffffff1673ffffffffffffffffffffffffffffffffffffffff1681526020019081526020015f205f015f9054906101000a900460ff16610373576040517f08c379a000000000000000000000000000000000000000000000000000000000815260040161036a906115a3565b60405180910390fd5b60035f8373ffffffffffffffffffffffffffffffffffffffff1673ffffffffffffffffffffffffffffffffffffffff1681526020019081526020015f205f0160019054906101000a900460ff1615610400576040517f08c379a00000000000000000000000000000000000000000000000000000000081526004016103f79061160b565b60405180910390fd5b6005805490508110610447576040517f08c379a000000000000000000000000000000000000000000000000000000000815260040161043e90611673565b60405180910390fd5b7f4d99b957a2bc29a30ebd96a7be8e68fe50a3c701db28a91436490b7d53870ca48282604051610478929190611691565b60405180910390a15050565b61048c610ea6565b600160058111156104a05761049f611465565b5b60025f9054906101000a900460ff1660058111156104c1576104c0611465565b5b14610501576040517f08c379a00000000000000000000000000000000000000000000000000000000081526004016104f890611728565b60405180910390fd5b5f600290507f0a97a4ee45751e2abf3e4fc8946939630b11b371ea8ae39ccdc3056e98f5cc3f60025f9054906101000a900460ff1682604051610545929190611746565b60405180910390a18060025f6101000a81548160ff0219169083600581111561057157610570611465565b5b021790555050565b610581610ea6565b61058a5f610f2d565b565b5f805f9054906101000a900473ffffffffffffffffffffffffffffffffffffffff16905090565b6105bb610ff5565b60405180604001604052806040518060400160405280601381526020017f70726f706f736974696f6e20646520746573740000000000000000000000000081525081526020016014815250905090565b610613610ea6565b6003600581111561062757610626611465565b5b60025f9054906101000a900460ff16600581111561064857610647611465565b5b14610688576040517f08c379a000000000000000000000000000000000000000000000000000000000815260040161067f906117dd565b60405180910390fd5b5f600490507f0a97a4ee45751e2abf3e4fc8946939630b11b371ea8ae39ccdc3056e98f5cc3f60025f9054906101000a900460ff16826040516106cc929190611746565b60405180910390a18060025f6101000a81548160ff021916908360058111156106f8576106f7611465565b5b021790555050565b610708610ea6565b6004600581111561071c5761071b611465565b5b60025f9054906101000a900460ff16600581111561073d5761073c611465565b5b1461077d576040517f08c379a00000000000000000000000000000000000000000000000000000000081526004016107749061153b565b60405180910390fd5b5f600590507f0a97a4ee45751e2abf3e4fc8946939630b11b371ea8ae39ccdc3056e98f5cc3f60025f9054906101000a900460ff16826040516107c1929190611746565b60405180910390a18060025f6101000a81548160ff021916908360058111156107ed576107ec611465565b5b0217905550600a60018190555050565b610805610ea6565b5f600581111561081857610817611465565b5b60025f9054906101000a900460ff16600581111561083957610838611465565b5b14610879576040517f08c379a00000000000000000000000000000000000000000000000000000000081526004016108709061186b565b60405180910390fd5b60035f8273ffffffffffffffffffffffffffffffffffffffff1673ffffffffffffffffffffffffffffffffffffffff1681526020019081526020015f205f015f9054906101000a900460ff1615610905576040517f08c379a00000000000000000000000000000000000000000000000000000000081526004016108fc906118d3565b60405180910390fd5b60035f8273ffffffffffffffffffffffffffffffffffffffff1673ffffffffffffffffffffffffffffffffffffffff1681526020019081526020015f205f015f9054906101000a9050507fb6be2187d059cc2a55fe29e0e503b566e1e0f8c8780096e185429350acffd3dd8160405161097e919061114c565b60405180910390a150565b60058181548110610998575f80fd5b905f5260205f2090600202015f91509050805f0180546109b79061191e565b80601f01602080910402602001604051908101604052809291908181526020018280546109e39061191e565b8015610a2e5780601f10610a0557610100808354040283529160200191610a2e565b820191905f5260205f20905b815481529060010190602001808311610a1157829003601f168201915b5050505050908060010154905082565b610a46610ea6565b5f6005811115610a5957610a58611465565b5b60025f9054906101000a900460ff166005811115610a7a57610a79611465565b5b14610aba576040517f08c379a0000000000000000000000000000000000000000000000000000000008152600401610ab1906119be565b60405180910390fd5b5f600190507f0a97a4ee45751e2abf3e4fc8946939630b11b371ea8ae39ccdc3056e98f5cc3f60025f9054906101000a900460ff1682604051610afe929190611746565b60405180910390a18060025f6101000a81548160ff02191690836005811115610b2a57610b29611465565b5b021790555050565b60016005811115610b4657610b45611465565b5b60025f9054906101000a900460ff166005811115610b6757610b66611465565b5b14610ba7576040517f08c379a0000000000000000000000000000000000000000000000000000000008152600401610b9e90611a26565b60405180910390fd5b60035f8373ffffffffffffffffffffffffffffffffffffffff1673ffffffffffffffffffffffffffffffffffffffff1681526020019081526020015f205f015f9054906101000a900460ff16610c32576040517f08c379a0000000000000000000000000000000000000000000000000000000008152600401610c29906115a3565b60405180910390fd5b5f60405180604001604052808381526020015f8152509050600581908060018154018082558091505060019003905f5260205f2090600202015f909190919091505f820151815f019081610c869190611be1565b506020820151816001015550505f60058054905090508060045f8673ffffffffffffffffffffffffffffffffffffffff1673ffffffffffffffffffffffffffffffffffffffff1681526020019081526020015f20819055507f92e393e9b54e2f801d3ea4beb0c5e71a21cc34a5d34b77d0fb8a3aa1650dc18f81604051610d0d91906110bc565b60405180910390a150505050565b610d23610ea6565b60026005811115610d3757610d36611465565b5b60025f9054906101000a900460ff166005811115610d5857610d57611465565b5b14610d98576040517f08c379a0000000000000000000000000000000000000000000000000000000008152600401610d8f90611d20565b60405180910390fd5b5f600390507f0a97a4ee45751e2abf3e4fc8946939630b11b371ea8ae39ccdc3056e98f5cc3f60025f9054906101000a900460ff1682604051610ddc929190611746565b60405180910390a18060025f6101000a81548160ff02191690836005811115610e0857610e07611465565b5b021790555050565b60025f9054906101000a900460ff1681565b610e2a610ea6565b5f73ffffffffffffffffffffffffffffffffffffffff168173ffffffffffffffffffffffffffffffffffffffff1603610e9a575f6040517f1e4fbdf7000000000000000000000000000000000000000000000000000000008152600401610e91919061114c565b60405180910390fd5b610ea381610f2d565b50565b610eae610fee565b73ffffffffffffffffffffffffffffffffffffffff16610ecc61058c565b73ffffffffffffffffffffffffffffffffffffffff1614610f2b57610eef610fee565b6040517f118cdaa7000000000000000000000000000000000000000000000000000000008152600401610f22919061114c565b60405180910390fd5b565b5f805f9054906101000a900473ffffffffffffffffffffffffffffffffffffffff169050815f806101000a81548173ffffffffffffffffffffffffffffffffffffffff021916908373ffffffffffffffffffffffffffffffffffffffff1602179055508173ffffffffffffffffffffffffffffffffffffffff168173ffffffffffffffffffffffffffffffffffffffff167f8be0079c531659141344cd1fd0a4f28419497f9722a3daafe3b4186f6b6457e060405160405180910390a35050565b5f33905090565b6040518060400160405280606081526020015f81525090565b5f604051905090565b5f80fd5b5f80fd5b5f73ffffffffffffffffffffffffffffffffffffffff82169050919050565b5f6110488261101f565b9050919050565b6110588161103e565b8114611062575f80fd5b50565b5f813590506110738161104f565b92915050565b5f6020828403121561108e5761108d611017565b5b5f61109b84828501611065565b91505092915050565b5f819050919050565b6110b6816110a4565b82525050565b5f6020820190506110cf5f8301846110ad565b92915050565b6110de816110a4565b81146110e8575f80fd5b50565b5f813590506110f9816110d5565b92915050565b5f806040838503121561111557611114611017565b5b5f61112285828601611065565b9250506020611133858286016110eb565b9150509250929050565b6111468161103e565b82525050565b5f60208201905061115f5f83018461113d565b92915050565b5f81519050919050565b5f82825260208201905092915050565b8281835e5f83830152505050565b5f601f19601f8301169050919050565b5f6111a782611165565b6111b1818561116f565b93506111c181856020860161117f565b6111ca8161118d565b840191505092915050565b6111de816110a4565b82525050565b5f604083015f8301518482035f8601526111fe828261119d565b915050602083015161121360208601826111d5565b508091505092915050565b5f6020820190508181035f83015261123681846111e4565b905092915050565b5f6020828403121561125357611252611017565b5b5f611260848285016110eb565b91505092915050565b5f82825260208201905092915050565b5f61128382611165565b61128d8185611269565b935061129d81856020860161117f565b6112a68161118d565b840191505092915050565b5f6040820190508181035f8301526112c98185611279565b90506112d860208301846110ad565b9392505050565b5f80fd5b5f80fd5b7f4e487b71000000000000000000000000000000000000000000000000000000005f52604160045260245ffd5b61131d8261118d565b810181811067ffffffffffffffff8211171561133c5761133b6112e7565b5b80604052505050565b5f61134e61100e565b905061135a8282611314565b919050565b5f67ffffffffffffffff821115611379576113786112e7565b5b6113828261118d565b9050602081019050919050565b828183375f83830152505050565b5f6113af6113aa8461135f565b611345565b9050828152602081018484840111156113cb576113ca6112e3565b5b6113d684828561138f565b509392505050565b5f82601f8301126113f2576113f16112df565b5b813561140284826020860161139d565b91505092915050565b5f806040838503121561142157611420611017565b5b5f61142e85828601611065565b925050602083013567ffffffffffffffff81111561144f5761144e61101b565b5b61145b858286016113de565b9150509250929050565b7f4e487b71000000000000000000000000000000000000000000000000000000005f52602160045260245ffd5b600681106114a3576114a2611465565b5b50565b5f8190506114b382611492565b919050565b5f6114c2826114a6565b9050919050565b6114d2816114b8565b82525050565b5f6020820190506114eb5f8301846114c9565b92915050565b7f43616e6e6f7420737461727420636f756e74696e6720766f74657300000000005f82015250565b5f611525601b83611269565b9150611530826114f1565b602082019050919050565b5f6020820190508181035f83015261155281611519565b9050919050565b7f566f746572206973206e6f7420726567697374657265640000000000000000005f82015250565b5f61158d601783611269565b915061159882611559565b602082019050919050565b5f6020820190508181035f8301526115ba81611581565b9050919050565b7f566f7465722068617320616c726561647920766f7465640000000000000000005f82015250565b5f6115f5601783611269565b9150611600826115c1565b602082019050919050565b5f6020820190508181035f830152611622816115e9565b9050919050565b7f496e76616c69642070726f706f73616c206964000000000000000000000000005f82015250565b5f61165d601383611269565b915061166882611629565b602082019050919050565b5f6020820190508181035f83015261168a81611651565b9050919050565b5f6040820190506116a45f83018561113d565b6116b160208301846110ad565b9392505050565b7f43616e6e6f7420656e642070726f706f73616c20726567697374726174696f6e5f8201527f2061742074686973207374616765000000000000000000000000000000000000602082015250565b5f611712602e83611269565b915061171d826116b8565b604082019050919050565b5f6020820190508181035f83015261173f81611706565b9050919050565b5f6040820190506117595f8301856114c9565b61176660208301846114c9565b9392505050565b7f43616e6e6f7420656e6420766f74696e672073657373696f6e206174207468695f8201527f7320737461676500000000000000000000000000000000000000000000000000602082015250565b5f6117c7602783611269565b91506117d28261176d565b604082019050919050565b5f6020820190508181035f8301526117f4816117bb565b9050919050565b7f566f74657220726567697374726174696f6e206973206e6f7420616c6c6f77655f8201527f6420617420746869732073746167650000000000000000000000000000000000602082015250565b5f611855602f83611269565b9150611860826117fb565b604082019050919050565b5f6020820190508181035f83015261188281611849565b9050919050565b7f616c726561647920696e207468652077686974656c69737400000000000000005f82015250565b5f6118bd601883611269565b91506118c882611889565b602082019050919050565b5f6020820190508181035f8301526118ea816118b1565b9050919050565b7f4e487b71000000000000000000000000000000000000000000000000000000005f52602260045260245ffd5b5f600282049050600182168061193557607f821691505b602082108103611948576119476118f1565b5b50919050565b7f43616e6e6f742073746172742070726f706f73616c20726567697374726174695f8201527f6f6e206174207468697320737461676500000000000000000000000000000000602082015250565b5f6119a8603083611269565b91506119b38261194e565b604082019050919050565b5f6020820190508181035f8301526119d58161199c565b9050919050565b7f43616e6e6f742072656769737465722070726f706f73616c00000000000000005f82015250565b5f611a10601883611269565b9150611a1b826119dc565b602082019050919050565b5f6020820190508181035f830152611a3d81611a04565b9050919050565b5f819050815f5260205f209050919050565b5f6020601f8301049050919050565b5f82821b905092915050565b5f60088302611aa07fffffffffffffffffffffffffffffffffffffffffffffffffffffffffffffffff82611a65565b611aaa8683611a65565b95508019841693508086168417925050509392505050565b5f819050919050565b5f611ae5611ae0611adb846110a4565b611ac2565b6110a4565b9050919050565b5f819050919050565b611afe83611acb565b611b12611b0a82611aec565b848454611a71565b825550505050565b5f90565b611b26611b1a565b611b31818484611af5565b505050565b5b81811015611b5457611b495f82611b1e565b600181019050611b37565b5050565b601f821115611b9957611b6a81611a44565b611b7384611a56565b81016020851015611b82578190505b611b96611b8e85611a56565b830182611b36565b50505b505050565b5f82821c905092915050565b5f611bb95f1984600802611b9e565b1980831691505092915050565b5f611bd18383611baa565b9150826002028217905092915050565b611bea82611165565b67ffffffffffffffff811115611c0357611c026112e7565b5b611c0d825461191e565b611c18828285611b58565b5f60209050601f831160018114611c49575f8415611c37578287015190505b611c418582611bc6565b865550611ca8565b601f198416611c5786611a44565b5f5b82811015611c7e57848901518255600182019150602085019450602081019050611c59565b86831015611c9b5784890151611c97601f891682611baa565b8355505b6001600288020188555050505b505050505050565b7f43616e6e6f7420737461727420766f74696e672073657373696f6e20617420745f8201527f6869732073746167650000000000000000000000000000000000000000000000602082015250565b5f611d0a602983611269565b9150611d1582611cb0565b604082019050919050565b5f6020820190508181035f830152611d3781611cfe565b905091905056fea26469706673582212205e9356eb12fb10b430ee547b27367d4ddf9b775c227a4abe855d9e86657dd0ea64736f6c634300081a0033",
					"opcodes": "PUSH1 0x80 PUSH1 0x40 MSTORE CALLVALUE DUP1 ISZERO PUSH2 0xF JUMPI PUSH0 DUP1 REVERT JUMPDEST POP CALLER PUSH0 PUSH20 0xFFFFFFFFFFFFFFFFFFFFFFFFFFFFFFFFFFFFFFFF AND DUP2 PUSH20 0xFFFFFFFFFFFFFFFFFFFFFFFFFFFFFFFFFFFFFFFF AND SUB PUSH2 0x81 JUMPI PUSH0 PUSH1 0x40 MLOAD PUSH32 0x1E4FBDF700000000000000000000000000000000000000000000000000000000 DUP2 MSTORE PUSH1 0x4 ADD PUSH2 0x78 SWAP2 SWAP1 PUSH2 0x196 JUMP JUMPDEST PUSH1 0x40 MLOAD DUP1 SWAP2 SUB SWAP1 REVERT JUMPDEST PUSH2 0x90 DUP2 PUSH2 0x96 PUSH1 0x20 SHL PUSH1 0x20 SHR JUMP JUMPDEST POP PUSH2 0x1AF JUMP JUMPDEST PUSH0 DUP1 PUSH0 SWAP1 SLOAD SWAP1 PUSH2 0x100 EXP SWAP1 DIV PUSH20 0xFFFFFFFFFFFFFFFFFFFFFFFFFFFFFFFFFFFFFFFF AND SWAP1 POP DUP2 PUSH0 DUP1 PUSH2 0x100 EXP DUP2 SLOAD DUP2 PUSH20 0xFFFFFFFFFFFFFFFFFFFFFFFFFFFFFFFFFFFFFFFF MUL NOT AND SWAP1 DUP4 PUSH20 0xFFFFFFFFFFFFFFFFFFFFFFFFFFFFFFFFFFFFFFFF AND MUL OR SWAP1 SSTORE POP DUP2 PUSH20 0xFFFFFFFFFFFFFFFFFFFFFFFFFFFFFFFFFFFFFFFF AND DUP2 PUSH20 0xFFFFFFFFFFFFFFFFFFFFFFFFFFFFFFFFFFFFFFFF AND PUSH32 0x8BE0079C531659141344CD1FD0A4F28419497F9722A3DAAFE3B4186F6B6457E0 PUSH1 0x40 MLOAD PUSH1 0x40 MLOAD DUP1 SWAP2 SUB SWAP1 LOG3 POP POP JUMP JUMPDEST PUSH0 PUSH20 0xFFFFFFFFFFFFFFFFFFFFFFFFFFFFFFFFFFFFFFFF DUP3 AND SWAP1 POP SWAP2 SWAP1 POP JUMP JUMPDEST PUSH0 PUSH2 0x180 DUP3 PUSH2 0x157 JUMP JUMPDEST SWAP1 POP SWAP2 SWAP1 POP JUMP JUMPDEST PUSH2 0x190 DUP2 PUSH2 0x176 JUMP JUMPDEST DUP3 MSTORE POP POP JUMP JUMPDEST PUSH0 PUSH1 0x20 DUP3 ADD SWAP1 POP PUSH2 0x1A9 PUSH0 DUP4 ADD DUP5 PUSH2 0x187 JUMP JUMPDEST SWAP3 SWAP2 POP POP JUMP JUMPDEST PUSH2 0x1D74 DUP1 PUSH2 0x1BC PUSH0 CODECOPY PUSH0 RETURN INVALID PUSH1 0x80 PUSH1 0x40 MSTORE CALLVALUE DUP1 ISZERO PUSH2 0xF JUMPI PUSH0 DUP1 REVERT JUMPDEST POP PUSH1 0x4 CALLDATASIZE LT PUSH2 0xF3 JUMPI PUSH0 CALLDATALOAD PUSH1 0xE0 SHR DUP1 PUSH4 0xB647990A GT PUSH2 0x95 JUMPI DUP1 PUSH4 0xE5349FE8 GT PUSH2 0x64 JUMPI DUP1 PUSH4 0xE5349FE8 EQ PUSH2 0x1FE JUMPI DUP1 PUSH4 0xEE74C678 EQ PUSH2 0x21A JUMPI DUP1 PUSH4 0xEF8A9235 EQ PUSH2 0x224 JUMPI DUP1 PUSH4 0xF2FDE38B EQ PUSH2 0x242 JUMPI PUSH2 0xF3 JUMP JUMPDEST DUP1 PUSH4 0xB647990A EQ PUSH2 0x19D JUMPI DUP1 PUSH4 0xB6A5D7DE EQ PUSH2 0x1A7 JUMPI DUP1 PUSH4 0xC6311E3F EQ PUSH2 0x1C3 JUMPI DUP1 PUSH4 0xE09B8C79 EQ PUSH2 0x1F4 JUMPI PUSH2 0xF3 JUMP JUMPDEST DUP1 PUSH4 0x715018A6 GT PUSH2 0xD1 JUMPI DUP1 PUSH4 0x715018A6 EQ PUSH2 0x14D JUMPI DUP1 PUSH4 0x8DA5CB5B EQ PUSH2 0x157 JUMPI DUP1 PUSH4 0x8E7EA5B2 EQ PUSH2 0x175 JUMPI DUP1 PUSH4 0xA7BFAB16 EQ PUSH2 0x193 JUMPI PUSH2 0xF3 JUMP JUMPDEST DUP1 PUSH4 0x144677C4 EQ PUSH2 0xF7 JUMPI DUP1 PUSH4 0x4E3C118E EQ PUSH2 0x127 JUMPI DUP1 PUSH4 0x6C297445 EQ PUSH2 0x143 JUMPI JUMPDEST PUSH0 DUP1 REVERT JUMPDEST PUSH2 0x111 PUSH1 0x4 DUP1 CALLDATASIZE SUB DUP2 ADD SWAP1 PUSH2 0x10C SWAP2 SWAP1 PUSH2 0x1079 JUMP JUMPDEST PUSH2 0x25E JUMP JUMPDEST PUSH1 0x40 MLOAD PUSH2 0x11E SWAP2 SWAP1 PUSH2 0x10BC JUMP JUMPDEST PUSH1 0x40 MLOAD DUP1 SWAP2 SUB SWAP1 RETURN JUMPDEST PUSH2 0x141 PUSH1 0x4 DUP1 CALLDATASIZE SUB DUP2 ADD SWAP1 PUSH2 0x13C SWAP2 SWAP1 PUSH2 0x10FF JUMP JUMPDEST PUSH2 0x273 JUMP JUMPDEST STOP JUMPDEST PUSH2 0x14B PUSH2 0x484 JUMP JUMPDEST STOP JUMPDEST PUSH2 0x155 PUSH2 0x579 JUMP JUMPDEST STOP JUMPDEST PUSH2 0x15F PUSH2 0x58C JUMP JUMPDEST PUSH1 0x40 MLOAD PUSH2 0x16C SWAP2 SWAP1 PUSH2 0x114C JUMP JUMPDEST PUSH1 0x40 MLOAD DUP1 SWAP2 SUB SWAP1 RETURN JUMPDEST PUSH2 0x17D PUSH2 0x5B3 JUMP JUMPDEST PUSH1 0x40 MLOAD PUSH2 0x18A SWAP2 SWAP1 PUSH2 0x121E JUMP JUMPDEST PUSH1 0x40 MLOAD DUP1 SWAP2 SUB SWAP1 RETURN JUMPDEST PUSH2 0x19B PUSH2 0x60B JUMP JUMPDEST STOP JUMPDEST PUSH2 0x1A5 PUSH2 0x700 JUMP JUMPDEST STOP JUMPDEST PUSH2 0x1C1 PUSH1 0x4 DUP1 CALLDATASIZE SUB DUP2 ADD SWAP1 PUSH2 0x1BC SWAP2 SWAP1 PUSH2 0x1079 JUMP JUMPDEST PUSH2 0x7FD JUMP JUMPDEST STOP JUMPDEST PUSH2 0x1DD PUSH1 0x4 DUP1 CALLDATASIZE SUB DUP2 ADD SWAP1 PUSH2 0x1D8 SWAP2 SWAP1 PUSH2 0x123E JUMP JUMPDEST PUSH2 0x989 JUMP JUMPDEST PUSH1 0x40 MLOAD PUSH2 0x1EB SWAP3 SWAP2 SWAP1 PUSH2 0x12B1 JUMP JUMPDEST PUSH1 0x40 MLOAD DUP1 SWAP2 SUB SWAP1 RETURN JUMPDEST PUSH2 0x1FC PUSH2 0xA3E JUMP JUMPDEST STOP JUMPDEST PUSH2 0x218 PUSH1 0x4 DUP1 CALLDATASIZE SUB DUP2 ADD SWAP1 PUSH2 0x213 SWAP2 SWAP1 PUSH2 0x140B JUMP JUMPDEST PUSH2 0xB32 JUMP JUMPDEST STOP JUMPDEST PUSH2 0x222 PUSH2 0xD1B JUMP JUMPDEST STOP JUMPDEST PUSH2 0x22C PUSH2 0xE10 JUMP JUMPDEST PUSH1 0x40 MLOAD PUSH2 0x239 SWAP2 SWAP1 PUSH2 0x14D8 JUMP JUMPDEST PUSH1 0x40 MLOAD DUP1 SWAP2 SUB SWAP1 RETURN JUMPDEST PUSH2 0x25C PUSH1 0x4 DUP1 CALLDATASIZE SUB DUP2 ADD SWAP1 PUSH2 0x257 SWAP2 SWAP1 PUSH2 0x1079 JUMP JUMPDEST PUSH2 0xE22 JUMP JUMPDEST STOP JUMPDEST PUSH1 0x4 PUSH1 0x20 MSTORE DUP1 PUSH0 MSTORE PUSH1 0x40 PUSH0 KECCAK256 PUSH0 SWAP2 POP SWAP1 POP SLOAD DUP2 JUMP JUMPDEST PUSH1 0x3 PUSH1 0x5 DUP2 GT ISZERO PUSH2 0x287 JUMPI PUSH2 0x286 PUSH2 0x1465 JUMP JUMPDEST JUMPDEST PUSH1 0x2 PUSH0 SWAP1 SLOAD SWAP1 PUSH2 0x100 EXP SWAP1 DIV PUSH1 0xFF AND PUSH1 0x5 DUP2 GT ISZERO PUSH2 0x2A8 JUMPI PUSH2 0x2A7 PUSH2 0x1465 JUMP JUMPDEST JUMPDEST EQ PUSH2 0x2E8 JUMPI PUSH1 0x40 MLOAD PUSH32 0x8C379A000000000000000000000000000000000000000000000000000000000 DUP2 MSTORE PUSH1 0x4 ADD PUSH2 0x2DF SWAP1 PUSH2 0x153B JUMP JUMPDEST PUSH1 0x40 MLOAD DUP1 SWAP2 SUB SWAP1 REVERT JUMPDEST PUSH1 0x3 PUSH0 DUP4 PUSH20 0xFFFFFFFFFFFFFFFFFFFFFFFFFFFFFFFFFFFFFFFF AND PUSH20 0xFFFFFFFFFFFFFFFFFFFFFFFFFFFFFFFFFFFFFFFF AND DUP2 MSTORE PUSH1 0x20 ADD SWAP1 DUP2 MSTORE PUSH1 0x20 ADD PUSH0 KECCAK256 PUSH0 ADD PUSH0 SWAP1 SLOAD SWAP1 PUSH2 0x100 EXP SWAP1 DIV PUSH1 0xFF AND PUSH2 0x373 JUMPI PUSH1 0x40 MLOAD PUSH32 0x8C379A000000000000000000000000000000000000000000000000000000000 DUP2 MSTORE PUSH1 0x4 ADD PUSH2 0x36A SWAP1 PUSH2 0x15A3 JUMP JUMPDEST PUSH1 0x40 MLOAD DUP1 SWAP2 SUB SWAP1 REVERT JUMPDEST PUSH1 0x3 PUSH0 DUP4 PUSH20 0xFFFFFFFFFFFFFFFFFFFFFFFFFFFFFFFFFFFFFFFF AND PUSH20 0xFFFFFFFFFFFFFFFFFFFFFFFFFFFFFFFFFFFFFFFF AND DUP2 MSTORE PUSH1 0x20 ADD SWAP1 DUP2 MSTORE PUSH1 0x20 ADD PUSH0 KECCAK256 PUSH0 ADD PUSH1 0x1 SWAP1 SLOAD SWAP1 PUSH2 0x100 EXP SWAP1 DIV PUSH1 0xFF AND ISZERO PUSH2 0x400 JUMPI PUSH1 0x40 MLOAD PUSH32 0x8C379A000000000000000000000000000000000000000000000000000000000 DUP2 MSTORE PUSH1 0x4 ADD PUSH2 0x3F7 SWAP1 PUSH2 0x160B JUMP JUMPDEST PUSH1 0x40 MLOAD DUP1 SWAP2 SUB SWAP1 REVERT JUMPDEST PUSH1 0x5 DUP1 SLOAD SWAP1 POP DUP2 LT PUSH2 0x447 JUMPI PUSH1 0x40 MLOAD PUSH32 0x8C379A000000000000000000000000000000000000000000000000000000000 DUP2 MSTORE PUSH1 0x4 ADD PUSH2 0x43E SWAP1 PUSH2 0x1673 JUMP JUMPDEST PUSH1 0x40 MLOAD DUP1 SWAP2 SUB SWAP1 REVERT JUMPDEST PUSH32 0x4D99B957A2BC29A30EBD96A7BE8E68FE50A3C701DB28A91436490B7D53870CA4 DUP3 DUP3 PUSH1 0x40 MLOAD PUSH2 0x478 SWAP3 SWAP2 SWAP1 PUSH2 0x1691 JUMP JUMPDEST PUSH1 0x40 MLOAD DUP1 SWAP2 SUB SWAP1 LOG1 POP POP JUMP JUMPDEST PUSH2 0x48C PUSH2 0xEA6 JUMP JUMPDEST PUSH1 0x1 PUSH1 0x5 DUP2 GT ISZERO PUSH2 0x4A0 JUMPI PUSH2 0x49F PUSH2 0x1465 JUMP JUMPDEST JUMPDEST PUSH1 0x2 PUSH0 SWAP1 SLOAD SWAP1 PUSH2 0x100 EXP SWAP1 DIV PUSH1 0xFF AND PUSH1 0x5 DUP2 GT ISZERO PUSH2 0x4C1 JUMPI PUSH2 0x4C0 PUSH2 0x1465 JUMP JUMPDEST JUMPDEST EQ PUSH2 0x501 JUMPI PUSH1 0x40 MLOAD PUSH32 0x8C379A000000000000000000000000000000000000000000000000000000000 DUP2 MSTORE PUSH1 0x4 ADD PUSH2 0x4F8 SWAP1 PUSH2 0x1728 JUMP JUMPDEST PUSH1 0x40 MLOAD DUP1 SWAP2 SUB SWAP1 REVERT JUMPDEST PUSH0 PUSH1 0x2 SWAP1 POP PUSH32 0xA97A4EE45751E2ABF3E4FC8946939630B11B371EA8AE39CCDC3056E98F5CC3F PUSH1 0x2 PUSH0 SWAP1 SLOAD SWAP1 PUSH2 0x100 EXP SWAP1 DIV PUSH1 0xFF AND DUP3 PUSH1 0x40 MLOAD PUSH2 0x545 SWAP3 SWAP2 SWAP1 PUSH2 0x1746 JUMP JUMPDEST PUSH1 0x40 MLOAD DUP1 SWAP2 SUB SWAP1 LOG1 DUP1 PUSH1 0x2 PUSH0 PUSH2 0x100 EXP DUP2 SLOAD DUP2 PUSH1 0xFF MUL NOT AND SWAP1 DUP4 PUSH1 0x5 DUP2 GT ISZERO PUSH2 0x571 JUMPI PUSH2 0x570 PUSH2 0x1465 JUMP JUMPDEST JUMPDEST MUL OR SWAP1 SSTORE POP POP JUMP JUMPDEST PUSH2 0x581 PUSH2 0xEA6 JUMP JUMPDEST PUSH2 0x58A PUSH0 PUSH2 0xF2D JUMP JUMPDEST JUMP JUMPDEST PUSH0 DUP1 PUSH0 SWAP1 SLOAD SWAP1 PUSH2 0x100 EXP SWAP1 DIV PUSH20 0xFFFFFFFFFFFFFFFFFFFFFFFFFFFFFFFFFFFFFFFF AND SWAP1 POP SWAP1 JUMP JUMPDEST PUSH2 0x5BB PUSH2 0xFF5 JUMP JUMPDEST PUSH1 0x40 MLOAD DUP1 PUSH1 0x40 ADD PUSH1 0x40 MSTORE DUP1 PUSH1 0x40 MLOAD DUP1 PUSH1 0x40 ADD PUSH1 0x40 MSTORE DUP1 PUSH1 0x13 DUP2 MSTORE PUSH1 0x20 ADD PUSH32 0x70726F706F736974696F6E206465207465737400000000000000000000000000 DUP2 MSTORE POP DUP2 MSTORE PUSH1 0x20 ADD PUSH1 0x14 DUP2 MSTORE POP SWAP1 POP SWAP1 JUMP JUMPDEST PUSH2 0x613 PUSH2 0xEA6 JUMP JUMPDEST PUSH1 0x3 PUSH1 0x5 DUP2 GT ISZERO PUSH2 0x627 JUMPI PUSH2 0x626 PUSH2 0x1465 JUMP JUMPDEST JUMPDEST PUSH1 0x2 PUSH0 SWAP1 SLOAD SWAP1 PUSH2 0x100 EXP SWAP1 DIV PUSH1 0xFF AND PUSH1 0x5 DUP2 GT ISZERO PUSH2 0x648 JUMPI PUSH2 0x647 PUSH2 0x1465 JUMP JUMPDEST JUMPDEST EQ PUSH2 0x688 JUMPI PUSH1 0x40 MLOAD PUSH32 0x8C379A000000000000000000000000000000000000000000000000000000000 DUP2 MSTORE PUSH1 0x4 ADD PUSH2 0x67F SWAP1 PUSH2 0x17DD JUMP JUMPDEST PUSH1 0x40 MLOAD DUP1 SWAP2 SUB SWAP1 REVERT JUMPDEST PUSH0 PUSH1 0x4 SWAP1 POP PUSH32 0xA97A4EE45751E2ABF3E4FC8946939630B11B371EA8AE39CCDC3056E98F5CC3F PUSH1 0x2 PUSH0 SWAP1 SLOAD SWAP1 PUSH2 0x100 EXP SWAP1 DIV PUSH1 0xFF AND DUP3 PUSH1 0x40 MLOAD PUSH2 0x6CC SWAP3 SWAP2 SWAP1 PUSH2 0x1746 JUMP JUMPDEST PUSH1 0x40 MLOAD DUP1 SWAP2 SUB SWAP1 LOG1 DUP1 PUSH1 0x2 PUSH0 PUSH2 0x100 EXP DUP2 SLOAD DUP2 PUSH1 0xFF MUL NOT AND SWAP1 DUP4 PUSH1 0x5 DUP2 GT ISZERO PUSH2 0x6F8 JUMPI PUSH2 0x6F7 PUSH2 0x1465 JUMP JUMPDEST JUMPDEST MUL OR SWAP1 SSTORE POP POP JUMP JUMPDEST PUSH2 0x708 PUSH2 0xEA6 JUMP JUMPDEST PUSH1 0x4 PUSH1 0x5 DUP2 GT ISZERO PUSH2 0x71C JUMPI PUSH2 0x71B PUSH2 0x1465 JUMP JUMPDEST JUMPDEST PUSH1 0x2 PUSH0 SWAP1 SLOAD SWAP1 PUSH2 0x100 EXP SWAP1 DIV PUSH1 0xFF AND PUSH1 0x5 DUP2 GT ISZERO PUSH2 0x73D JUMPI PUSH2 0x73C PUSH2 0x1465 JUMP JUMPDEST JUMPDEST EQ PUSH2 0x77D JUMPI PUSH1 0x40 MLOAD PUSH32 0x8C379A000000000000000000000000000000000000000000000000000000000 DUP2 MSTORE PUSH1 0x4 ADD PUSH2 0x774 SWAP1 PUSH2 0x153B JUMP JUMPDEST PUSH1 0x40 MLOAD DUP1 SWAP2 SUB SWAP1 REVERT JUMPDEST PUSH0 PUSH1 0x5 SWAP1 POP PUSH32 0xA97A4EE45751E2ABF3E4FC8946939630B11B371EA8AE39CCDC3056E98F5CC3F PUSH1 0x2 PUSH0 SWAP1 SLOAD SWAP1 PUSH2 0x100 EXP SWAP1 DIV PUSH1 0xFF AND DUP3 PUSH1 0x40 MLOAD PUSH2 0x7C1 SWAP3 SWAP2 SWAP1 PUSH2 0x1746 JUMP JUMPDEST PUSH1 0x40 MLOAD DUP1 SWAP2 SUB SWAP1 LOG1 DUP1 PUSH1 0x2 PUSH0 PUSH2 0x100 EXP DUP2 SLOAD DUP2 PUSH1 0xFF MUL NOT AND SWAP1 DUP4 PUSH1 0x5 DUP2 GT ISZERO PUSH2 0x7ED JUMPI PUSH2 0x7EC PUSH2 0x1465 JUMP JUMPDEST JUMPDEST MUL OR SWAP1 SSTORE POP PUSH1 0xA PUSH1 0x1 DUP2 SWAP1 SSTORE POP POP JUMP JUMPDEST PUSH2 0x805 PUSH2 0xEA6 JUMP JUMPDEST PUSH0 PUSH1 0x5 DUP2 GT ISZERO PUSH2 0x818 JUMPI PUSH2 0x817 PUSH2 0x1465 JUMP JUMPDEST JUMPDEST PUSH1 0x2 PUSH0 SWAP1 SLOAD SWAP1 PUSH2 0x100 EXP SWAP1 DIV PUSH1 0xFF AND PUSH1 0x5 DUP2 GT ISZERO PUSH2 0x839 JUMPI PUSH2 0x838 PUSH2 0x1465 JUMP JUMPDEST JUMPDEST EQ PUSH2 0x879 JUMPI PUSH1 0x40 MLOAD PUSH32 0x8C379A000000000000000000000000000000000000000000000000000000000 DUP2 MSTORE PUSH1 0x4 ADD PUSH2 0x870 SWAP1 PUSH2 0x186B JUMP JUMPDEST PUSH1 0x40 MLOAD DUP1 SWAP2 SUB SWAP1 REVERT JUMPDEST PUSH1 0x3 PUSH0 DUP3 PUSH20 0xFFFFFFFFFFFFFFFFFFFFFFFFFFFFFFFFFFFFFFFF AND PUSH20 0xFFFFFFFFFFFFFFFFFFFFFFFFFFFFFFFFFFFFFFFF AND DUP2 MSTORE PUSH1 0x20 ADD SWAP1 DUP2 MSTORE PUSH1 0x20 ADD PUSH0 KECCAK256 PUSH0 ADD PUSH0 SWAP1 SLOAD SWAP1 PUSH2 0x100 EXP SWAP1 DIV PUSH1 0xFF AND ISZERO PUSH2 0x905 JUMPI PUSH1 0x40 MLOAD PUSH32 0x8C379A000000000000000000000000000000000000000000000000000000000 DUP2 MSTORE PUSH1 0x4 ADD PUSH2 0x8FC SWAP1 PUSH2 0x18D3 JUMP JUMPDEST PUSH1 0x40 MLOAD DUP1 SWAP2 SUB SWAP1 REVERT JUMPDEST PUSH1 0x3 PUSH0 DUP3 PUSH20 0xFFFFFFFFFFFFFFFFFFFFFFFFFFFFFFFFFFFFFFFF AND PUSH20 0xFFFFFFFFFFFFFFFFFFFFFFFFFFFFFFFFFFFFFFFF AND DUP2 MSTORE PUSH1 0x20 ADD SWAP1 DUP2 MSTORE PUSH1 0x20 ADD PUSH0 KECCAK256 PUSH0 ADD PUSH0 SWAP1 SLOAD SWAP1 PUSH2 0x100 EXP SWAP1 POP POP PUSH32 0xB6BE2187D059CC2A55FE29E0E503B566E1E0F8C8780096E185429350ACFFD3DD DUP2 PUSH1 0x40 MLOAD PUSH2 0x97E SWAP2 SWAP1 PUSH2 0x114C JUMP JUMPDEST PUSH1 0x40 MLOAD DUP1 SWAP2 SUB SWAP1 LOG1 POP JUMP JUMPDEST PUSH1 0x5 DUP2 DUP2 SLOAD DUP2 LT PUSH2 0x998 JUMPI PUSH0 DUP1 REVERT JUMPDEST SWAP1 PUSH0 MSTORE PUSH1 0x20 PUSH0 KECCAK256 SWAP1 PUSH1 0x2 MUL ADD PUSH0 SWAP2 POP SWAP1 POP DUP1 PUSH0 ADD DUP1 SLOAD PUSH2 0x9B7 SWAP1 PUSH2 0x191E JUMP JUMPDEST DUP1 PUSH1 0x1F ADD PUSH1 0x20 DUP1 SWAP2 DIV MUL PUSH1 0x20 ADD PUSH1 0x40 MLOAD SWAP1 DUP2 ADD PUSH1 0x40 MSTORE DUP1 SWAP3 SWAP2 SWAP1 DUP2 DUP2 MSTORE PUSH1 0x20 ADD DUP3 DUP1 SLOAD PUSH2 0x9E3 SWAP1 PUSH2 0x191E JUMP JUMPDEST DUP1 ISZERO PUSH2 0xA2E JUMPI DUP1 PUSH1 0x1F LT PUSH2 0xA05 JUMPI PUSH2 0x100 DUP1 DUP4 SLOAD DIV MUL DUP4 MSTORE SWAP2 PUSH1 0x20 ADD SWAP2 PUSH2 0xA2E JUMP JUMPDEST DUP3 ADD SWAP2 SWAP1 PUSH0 MSTORE PUSH1 0x20 PUSH0 KECCAK256 SWAP1 JUMPDEST DUP2 SLOAD DUP2 MSTORE SWAP1 PUSH1 0x1 ADD SWAP1 PUSH1 0x20 ADD DUP1 DUP4 GT PUSH2 0xA11 JUMPI DUP3 SWAP1 SUB PUSH1 0x1F AND DUP3 ADD SWAP2 JUMPDEST POP POP POP POP POP SWAP1 DUP1 PUSH1 0x1 ADD SLOAD SWAP1 POP DUP3 JUMP JUMPDEST PUSH2 0xA46 PUSH2 0xEA6 JUMP JUMPDEST PUSH0 PUSH1 0x5 DUP2 GT ISZERO PUSH2 0xA59 JUMPI PUSH2 0xA58 PUSH2 0x1465 JUMP JUMPDEST JUMPDEST PUSH1 0x2 PUSH0 SWAP1 SLOAD SWAP1 PUSH2 0x100 EXP SWAP1 DIV PUSH1 0xFF AND PUSH1 0x5 DUP2 GT ISZERO PUSH2 0xA7A JUMPI PUSH2 0xA79 PUSH2 0x1465 JUMP JUMPDEST JUMPDEST EQ PUSH2 0xABA JUMPI PUSH1 0x40 MLOAD PUSH32 0x8C379A000000000000000000000000000000000000000000000000000000000 DUP2 MSTORE PUSH1 0x4 ADD PUSH2 0xAB1 SWAP1 PUSH2 0x19BE JUMP JUMPDEST PUSH1 0x40 MLOAD DUP1 SWAP2 SUB SWAP1 REVERT JUMPDEST PUSH0 PUSH1 0x1 SWAP1 POP PUSH32 0xA97A4EE45751E2ABF3E4FC8946939630B11B371EA8AE39CCDC3056E98F5CC3F PUSH1 0x2 PUSH0 SWAP1 SLOAD SWAP1 PUSH2 0x100 EXP SWAP1 DIV PUSH1 0xFF AND DUP3 PUSH1 0x40 MLOAD PUSH2 0xAFE SWAP3 SWAP2 SWAP1 PUSH2 0x1746 JUMP JUMPDEST PUSH1 0x40 MLOAD DUP1 SWAP2 SUB SWAP1 LOG1 DUP1 PUSH1 0x2 PUSH0 PUSH2 0x100 EXP DUP2 SLOAD DUP2 PUSH1 0xFF MUL NOT AND SWAP1 DUP4 PUSH1 0x5 DUP2 GT ISZERO PUSH2 0xB2A JUMPI PUSH2 0xB29 PUSH2 0x1465 JUMP JUMPDEST JUMPDEST MUL OR SWAP1 SSTORE POP POP JUMP JUMPDEST PUSH1 0x1 PUSH1 0x5 DUP2 GT ISZERO PUSH2 0xB46 JUMPI PUSH2 0xB45 PUSH2 0x1465 JUMP JUMPDEST JUMPDEST PUSH1 0x2 PUSH0 SWAP1 SLOAD SWAP1 PUSH2 0x100 EXP SWAP1 DIV PUSH1 0xFF AND PUSH1 0x5 DUP2 GT ISZERO PUSH2 0xB67 JUMPI PUSH2 0xB66 PUSH2 0x1465 JUMP JUMPDEST JUMPDEST EQ PUSH2 0xBA7 JUMPI PUSH1 0x40 MLOAD PUSH32 0x8C379A000000000000000000000000000000000000000000000000000000000 DUP2 MSTORE PUSH1 0x4 ADD PUSH2 0xB9E SWAP1 PUSH2 0x1A26 JUMP JUMPDEST PUSH1 0x40 MLOAD DUP1 SWAP2 SUB SWAP1 REVERT JUMPDEST PUSH1 0x3 PUSH0 DUP4 PUSH20 0xFFFFFFFFFFFFFFFFFFFFFFFFFFFFFFFFFFFFFFFF AND PUSH20 0xFFFFFFFFFFFFFFFFFFFFFFFFFFFFFFFFFFFFFFFF AND DUP2 MSTORE PUSH1 0x20 ADD SWAP1 DUP2 MSTORE PUSH1 0x20 ADD PUSH0 KECCAK256 PUSH0 ADD PUSH0 SWAP1 SLOAD SWAP1 PUSH2 0x100 EXP SWAP1 DIV PUSH1 0xFF AND PUSH2 0xC32 JUMPI PUSH1 0x40 MLOAD PUSH32 0x8C379A000000000000000000000000000000000000000000000000000000000 DUP2 MSTORE PUSH1 0x4 ADD PUSH2 0xC29 SWAP1 PUSH2 0x15A3 JUMP JUMPDEST PUSH1 0x40 MLOAD DUP1 SWAP2 SUB SWAP1 REVERT JUMPDEST PUSH0 PUSH1 0x40 MLOAD DUP1 PUSH1 0x40 ADD PUSH1 0x40 MSTORE DUP1 DUP4 DUP2 MSTORE PUSH1 0x20 ADD PUSH0 DUP2 MSTORE POP SWAP1 POP PUSH1 0x5 DUP2 SWAP1 DUP1 PUSH1 0x1 DUP2 SLOAD ADD DUP1 DUP3 SSTORE DUP1 SWAP2 POP POP PUSH1 0x1 SWAP1 SUB SWAP1 PUSH0 MSTORE PUSH1 0x20 PUSH0 KECCAK256 SWAP1 PUSH1 0x2 MUL ADD PUSH0 SWAP1 SWAP2 SWAP1 SWAP2 SWAP1 SWAP2 POP PUSH0 DUP3 ADD MLOAD DUP2 PUSH0 ADD SWAP1 DUP2 PUSH2 0xC86 SWAP2 SWAP1 PUSH2 0x1BE1 JUMP JUMPDEST POP PUSH1 0x20 DUP3 ADD MLOAD DUP2 PUSH1 0x1 ADD SSTORE POP POP PUSH0 PUSH1 0x5 DUP1 SLOAD SWAP1 POP SWAP1 POP DUP1 PUSH1 0x4 PUSH0 DUP7 PUSH20 0xFFFFFFFFFFFFFFFFFFFFFFFFFFFFFFFFFFFFFFFF AND PUSH20 0xFFFFFFFFFFFFFFFFFFFFFFFFFFFFFFFFFFFFFFFF AND DUP2 MSTORE PUSH1 0x20 ADD SWAP1 DUP2 MSTORE PUSH1 0x20 ADD PUSH0 KECCAK256 DUP2 SWAP1 SSTORE POP PUSH32 0x92E393E9B54E2F801D3EA4BEB0C5E71A21CC34A5D34B77D0FB8A3AA1650DC18F DUP2 PUSH1 0x40 MLOAD PUSH2 0xD0D SWAP2 SWAP1 PUSH2 0x10BC JUMP JUMPDEST PUSH1 0x40 MLOAD DUP1 SWAP2 SUB SWAP1 LOG1 POP POP POP POP JUMP JUMPDEST PUSH2 0xD23 PUSH2 0xEA6 JUMP JUMPDEST PUSH1 0x2 PUSH1 0x5 DUP2 GT ISZERO PUSH2 0xD37 JUMPI PUSH2 0xD36 PUSH2 0x1465 JUMP JUMPDEST JUMPDEST PUSH1 0x2 PUSH0 SWAP1 SLOAD SWAP1 PUSH2 0x100 EXP SWAP1 DIV PUSH1 0xFF AND PUSH1 0x5 DUP2 GT ISZERO PUSH2 0xD58 JUMPI PUSH2 0xD57 PUSH2 0x1465 JUMP JUMPDEST JUMPDEST EQ PUSH2 0xD98 JUMPI PUSH1 0x40 MLOAD PUSH32 0x8C379A000000000000000000000000000000000000000000000000000000000 DUP2 MSTORE PUSH1 0x4 ADD PUSH2 0xD8F SWAP1 PUSH2 0x1D20 JUMP JUMPDEST PUSH1 0x40 MLOAD DUP1 SWAP2 SUB SWAP1 REVERT JUMPDEST PUSH0 PUSH1 0x3 SWAP1 POP PUSH32 0xA97A4EE45751E2ABF3E4FC8946939630B11B371EA8AE39CCDC3056E98F5CC3F PUSH1 0x2 PUSH0 SWAP1 SLOAD SWAP1 PUSH2 0x100 EXP SWAP1 DIV PUSH1 0xFF AND DUP3 PUSH1 0x40 MLOAD PUSH2 0xDDC SWAP3 SWAP2 SWAP1 PUSH2 0x1746 JUMP JUMPDEST PUSH1 0x40 MLOAD DUP1 SWAP2 SUB SWAP1 LOG1 DUP1 PUSH1 0x2 PUSH0 PUSH2 0x100 EXP DUP2 SLOAD DUP2 PUSH1 0xFF MUL NOT AND SWAP1 DUP4 PUSH1 0x5 DUP2 GT ISZERO PUSH2 0xE08 JUMPI PUSH2 0xE07 PUSH2 0x1465 JUMP JUMPDEST JUMPDEST MUL OR SWAP1 SSTORE POP POP JUMP JUMPDEST PUSH1 0x2 PUSH0 SWAP1 SLOAD SWAP1 PUSH2 0x100 EXP SWAP1 DIV PUSH1 0xFF AND DUP2 JUMP JUMPDEST PUSH2 0xE2A PUSH2 0xEA6 JUMP JUMPDEST PUSH0 PUSH20 0xFFFFFFFFFFFFFFFFFFFFFFFFFFFFFFFFFFFFFFFF AND DUP2 PUSH20 0xFFFFFFFFFFFFFFFFFFFFFFFFFFFFFFFFFFFFFFFF AND SUB PUSH2 0xE9A JUMPI PUSH0 PUSH1 0x40 MLOAD PUSH32 0x1E4FBDF700000000000000000000000000000000000000000000000000000000 DUP2 MSTORE PUSH1 0x4 ADD PUSH2 0xE91 SWAP2 SWAP1 PUSH2 0x114C JUMP JUMPDEST PUSH1 0x40 MLOAD DUP1 SWAP2 SUB SWAP1 REVERT JUMPDEST PUSH2 0xEA3 DUP2 PUSH2 0xF2D JUMP JUMPDEST POP JUMP JUMPDEST PUSH2 0xEAE PUSH2 0xFEE JUMP JUMPDEST PUSH20 0xFFFFFFFFFFFFFFFFFFFFFFFFFFFFFFFFFFFFFFFF AND PUSH2 0xECC PUSH2 0x58C JUMP JUMPDEST PUSH20 0xFFFFFFFFFFFFFFFFFFFFFFFFFFFFFFFFFFFFFFFF AND EQ PUSH2 0xF2B JUMPI PUSH2 0xEEF PUSH2 0xFEE JUMP JUMPDEST PUSH1 0x40 MLOAD PUSH32 0x118CDAA700000000000000000000000000000000000000000000000000000000 DUP2 MSTORE PUSH1 0x4 ADD PUSH2 0xF22 SWAP2 SWAP1 PUSH2 0x114C JUMP JUMPDEST PUSH1 0x40 MLOAD DUP1 SWAP2 SUB SWAP1 REVERT JUMPDEST JUMP JUMPDEST PUSH0 DUP1 PUSH0 SWAP1 SLOAD SWAP1 PUSH2 0x100 EXP SWAP1 DIV PUSH20 0xFFFFFFFFFFFFFFFFFFFFFFFFFFFFFFFFFFFFFFFF AND SWAP1 POP DUP2 PUSH0 DUP1 PUSH2 0x100 EXP DUP2 SLOAD DUP2 PUSH20 0xFFFFFFFFFFFFFFFFFFFFFFFFFFFFFFFFFFFFFFFF MUL NOT AND SWAP1 DUP4 PUSH20 0xFFFFFFFFFFFFFFFFFFFFFFFFFFFFFFFFFFFFFFFF AND MUL OR SWAP1 SSTORE POP DUP2 PUSH20 0xFFFFFFFFFFFFFFFFFFFFFFFFFFFFFFFFFFFFFFFF AND DUP2 PUSH20 0xFFFFFFFFFFFFFFFFFFFFFFFFFFFFFFFFFFFFFFFF AND PUSH32 0x8BE0079C531659141344CD1FD0A4F28419497F9722A3DAAFE3B4186F6B6457E0 PUSH1 0x40 MLOAD PUSH1 0x40 MLOAD DUP1 SWAP2 SUB SWAP1 LOG3 POP POP JUMP JUMPDEST PUSH0 CALLER SWAP1 POP SWAP1 JUMP JUMPDEST PUSH1 0x40 MLOAD DUP1 PUSH1 0x40 ADD PUSH1 0x40 MSTORE DUP1 PUSH1 0x60 DUP2 MSTORE PUSH1 0x20 ADD PUSH0 DUP2 MSTORE POP SWAP1 JUMP JUMPDEST PUSH0 PUSH1 0x40 MLOAD SWAP1 POP SWAP1 JUMP JUMPDEST PUSH0 DUP1 REVERT JUMPDEST PUSH0 DUP1 REVERT JUMPDEST PUSH0 PUSH20 0xFFFFFFFFFFFFFFFFFFFFFFFFFFFFFFFFFFFFFFFF DUP3 AND SWAP1 POP SWAP2 SWAP1 POP JUMP JUMPDEST PUSH0 PUSH2 0x1048 DUP3 PUSH2 0x101F JUMP JUMPDEST SWAP1 POP SWAP2 SWAP1 POP JUMP JUMPDEST PUSH2 0x1058 DUP2 PUSH2 0x103E JUMP JUMPDEST DUP2 EQ PUSH2 0x1062 JUMPI PUSH0 DUP1 REVERT JUMPDEST POP JUMP JUMPDEST PUSH0 DUP2 CALLDATALOAD SWAP1 POP PUSH2 0x1073 DUP2 PUSH2 0x104F JUMP JUMPDEST SWAP3 SWAP2 POP POP JUMP JUMPDEST PUSH0 PUSH1 0x20 DUP3 DUP5 SUB SLT ISZERO PUSH2 0x108E JUMPI PUSH2 0x108D PUSH2 0x1017 JUMP JUMPDEST JUMPDEST PUSH0 PUSH2 0x109B DUP5 DUP3 DUP6 ADD PUSH2 0x1065 JUMP JUMPDEST SWAP2 POP POP SWAP3 SWAP2 POP POP JUMP JUMPDEST PUSH0 DUP2 SWAP1 POP SWAP2 SWAP1 POP JUMP JUMPDEST PUSH2 0x10B6 DUP2 PUSH2 0x10A4 JUMP JUMPDEST DUP3 MSTORE POP POP JUMP JUMPDEST PUSH0 PUSH1 0x20 DUP3 ADD SWAP1 POP PUSH2 0x10CF PUSH0 DUP4 ADD DUP5 PUSH2 0x10AD JUMP JUMPDEST SWAP3 SWAP2 POP POP JUMP JUMPDEST PUSH2 0x10DE DUP2 PUSH2 0x10A4 JUMP JUMPDEST DUP2 EQ PUSH2 0x10E8 JUMPI PUSH0 DUP1 REVERT JUMPDEST POP JUMP JUMPDEST PUSH0 DUP2 CALLDATALOAD SWAP1 POP PUSH2 0x10F9 DUP2 PUSH2 0x10D5 JUMP JUMPDEST SWAP3 SWAP2 POP POP JUMP JUMPDEST PUSH0 DUP1 PUSH1 0x40 DUP4 DUP6 SUB SLT ISZERO PUSH2 0x1115 JUMPI PUSH2 0x1114 PUSH2 0x1017 JUMP JUMPDEST JUMPDEST PUSH0 PUSH2 0x1122 DUP6 DUP3 DUP7 ADD PUSH2 0x1065 JUMP JUMPDEST SWAP3 POP POP PUSH1 0x20 PUSH2 0x1133 DUP6 DUP3 DUP7 ADD PUSH2 0x10EB JUMP JUMPDEST SWAP2 POP POP SWAP3 POP SWAP3 SWAP1 POP JUMP JUMPDEST PUSH2 0x1146 DUP2 PUSH2 0x103E JUMP JUMPDEST DUP3 MSTORE POP POP JUMP JUMPDEST PUSH0 PUSH1 0x20 DUP3 ADD SWAP1 POP PUSH2 0x115F PUSH0 DUP4 ADD DUP5 PUSH2 0x113D JUMP JUMPDEST SWAP3 SWAP2 POP POP JUMP JUMPDEST PUSH0 DUP2 MLOAD SWAP1 POP SWAP2 SWAP1 POP JUMP JUMPDEST PUSH0 DUP3 DUP3 MSTORE PUSH1 0x20 DUP3 ADD SWAP1 POP SWAP3 SWAP2 POP POP JUMP JUMPDEST DUP3 DUP2 DUP4 MCOPY PUSH0 DUP4 DUP4 ADD MSTORE POP POP POP JUMP JUMPDEST PUSH0 PUSH1 0x1F NOT PUSH1 0x1F DUP4 ADD AND SWAP1 POP SWAP2 SWAP1 POP JUMP JUMPDEST PUSH0 PUSH2 0x11A7 DUP3 PUSH2 0x1165 JUMP JUMPDEST PUSH2 0x11B1 DUP2 DUP6 PUSH2 0x116F JUMP JUMPDEST SWAP4 POP PUSH2 0x11C1 DUP2 DUP6 PUSH1 0x20 DUP7 ADD PUSH2 0x117F JUMP JUMPDEST PUSH2 0x11CA DUP2 PUSH2 0x118D JUMP JUMPDEST DUP5 ADD SWAP2 POP POP SWAP3 SWAP2 POP POP JUMP JUMPDEST PUSH2 0x11DE DUP2 PUSH2 0x10A4 JUMP JUMPDEST DUP3 MSTORE POP POP JUMP JUMPDEST PUSH0 PUSH1 0x40 DUP4 ADD PUSH0 DUP4 ADD MLOAD DUP5 DUP3 SUB PUSH0 DUP7 ADD MSTORE PUSH2 0x11FE DUP3 DUP3 PUSH2 0x119D JUMP JUMPDEST SWAP2 POP POP PUSH1 0x20 DUP4 ADD MLOAD PUSH2 0x1213 PUSH1 0x20 DUP7 ADD DUP3 PUSH2 0x11D5 JUMP JUMPDEST POP DUP1 SWAP2 POP POP SWAP3 SWAP2 POP POP JUMP JUMPDEST PUSH0 PUSH1 0x20 DUP3 ADD SWAP1 POP DUP2 DUP2 SUB PUSH0 DUP4 ADD MSTORE PUSH2 0x1236 DUP2 DUP5 PUSH2 0x11E4 JUMP JUMPDEST SWAP1 POP SWAP3 SWAP2 POP POP JUMP JUMPDEST PUSH0 PUSH1 0x20 DUP3 DUP5 SUB SLT ISZERO PUSH2 0x1253 JUMPI PUSH2 0x1252 PUSH2 0x1017 JUMP JUMPDEST JUMPDEST PUSH0 PUSH2 0x1260 DUP5 DUP3 DUP6 ADD PUSH2 0x10EB JUMP JUMPDEST SWAP2 POP POP SWAP3 SWAP2 POP POP JUMP JUMPDEST PUSH0 DUP3 DUP3 MSTORE PUSH1 0x20 DUP3 ADD SWAP1 POP SWAP3 SWAP2 POP POP JUMP JUMPDEST PUSH0 PUSH2 0x1283 DUP3 PUSH2 0x1165 JUMP JUMPDEST PUSH2 0x128D DUP2 DUP6 PUSH2 0x1269 JUMP JUMPDEST SWAP4 POP PUSH2 0x129D DUP2 DUP6 PUSH1 0x20 DUP7 ADD PUSH2 0x117F JUMP JUMPDEST PUSH2 0x12A6 DUP2 PUSH2 0x118D JUMP JUMPDEST DUP5 ADD SWAP2 POP POP SWAP3 SWAP2 POP POP JUMP JUMPDEST PUSH0 PUSH1 0x40 DUP3 ADD SWAP1 POP DUP2 DUP2 SUB PUSH0 DUP4 ADD MSTORE PUSH2 0x12C9 DUP2 DUP6 PUSH2 0x1279 JUMP JUMPDEST SWAP1 POP PUSH2 0x12D8 PUSH1 0x20 DUP4 ADD DUP5 PUSH2 0x10AD JUMP JUMPDEST SWAP4 SWAP3 POP POP POP JUMP JUMPDEST PUSH0 DUP1 REVERT JUMPDEST PUSH0 DUP1 REVERT JUMPDEST PUSH32 0x4E487B7100000000000000000000000000000000000000000000000000000000 PUSH0 MSTORE PUSH1 0x41 PUSH1 0x4 MSTORE PUSH1 0x24 PUSH0 REVERT JUMPDEST PUSH2 0x131D DUP3 PUSH2 0x118D JUMP JUMPDEST DUP2 ADD DUP2 DUP2 LT PUSH8 0xFFFFFFFFFFFFFFFF DUP3 GT OR ISZERO PUSH2 0x133C JUMPI PUSH2 0x133B PUSH2 0x12E7 JUMP JUMPDEST JUMPDEST DUP1 PUSH1 0x40 MSTORE POP POP POP JUMP JUMPDEST PUSH0 PUSH2 0x134E PUSH2 0x100E JUMP JUMPDEST SWAP1 POP PUSH2 0x135A DUP3 DUP3 PUSH2 0x1314 JUMP JUMPDEST SWAP2 SWAP1 POP JUMP JUMPDEST PUSH0 PUSH8 0xFFFFFFFFFFFFFFFF DUP3 GT ISZERO PUSH2 0x1379 JUMPI PUSH2 0x1378 PUSH2 0x12E7 JUMP JUMPDEST JUMPDEST PUSH2 0x1382 DUP3 PUSH2 0x118D JUMP JUMPDEST SWAP1 POP PUSH1 0x20 DUP2 ADD SWAP1 POP SWAP2 SWAP1 POP JUMP JUMPDEST DUP3 DUP2 DUP4 CALLDATACOPY PUSH0 DUP4 DUP4 ADD MSTORE POP POP POP JUMP JUMPDEST PUSH0 PUSH2 0x13AF PUSH2 0x13AA DUP5 PUSH2 0x135F JUMP JUMPDEST PUSH2 0x1345 JUMP JUMPDEST SWAP1 POP DUP3 DUP2 MSTORE PUSH1 0x20 DUP2 ADD DUP5 DUP5 DUP5 ADD GT ISZERO PUSH2 0x13CB JUMPI PUSH2 0x13CA PUSH2 0x12E3 JUMP JUMPDEST JUMPDEST PUSH2 0x13D6 DUP5 DUP3 DUP6 PUSH2 0x138F JUMP JUMPDEST POP SWAP4 SWAP3 POP POP POP JUMP JUMPDEST PUSH0 DUP3 PUSH1 0x1F DUP4 ADD SLT PUSH2 0x13F2 JUMPI PUSH2 0x13F1 PUSH2 0x12DF JUMP JUMPDEST JUMPDEST DUP2 CALLDATALOAD PUSH2 0x1402 DUP5 DUP3 PUSH1 0x20 DUP7 ADD PUSH2 0x139D JUMP JUMPDEST SWAP2 POP POP SWAP3 SWAP2 POP POP JUMP JUMPDEST PUSH0 DUP1 PUSH1 0x40 DUP4 DUP6 SUB SLT ISZERO PUSH2 0x1421 JUMPI PUSH2 0x1420 PUSH2 0x1017 JUMP JUMPDEST JUMPDEST PUSH0 PUSH2 0x142E DUP6 DUP3 DUP7 ADD PUSH2 0x1065 JUMP JUMPDEST SWAP3 POP POP PUSH1 0x20 DUP4 ADD CALLDATALOAD PUSH8 0xFFFFFFFFFFFFFFFF DUP2 GT ISZERO PUSH2 0x144F JUMPI PUSH2 0x144E PUSH2 0x101B JUMP JUMPDEST JUMPDEST PUSH2 0x145B DUP6 DUP3 DUP7 ADD PUSH2 0x13DE JUMP JUMPDEST SWAP2 POP POP SWAP3 POP SWAP3 SWAP1 POP JUMP JUMPDEST PUSH32 0x4E487B7100000000000000000000000000000000000000000000000000000000 PUSH0 MSTORE PUSH1 0x21 PUSH1 0x4 MSTORE PUSH1 0x24 PUSH0 REVERT JUMPDEST PUSH1 0x6 DUP2 LT PUSH2 0x14A3 JUMPI PUSH2 0x14A2 PUSH2 0x1465 JUMP JUMPDEST JUMPDEST POP JUMP JUMPDEST PUSH0 DUP2 SWAP1 POP PUSH2 0x14B3 DUP3 PUSH2 0x1492 JUMP JUMPDEST SWAP2 SWAP1 POP JUMP JUMPDEST PUSH0 PUSH2 0x14C2 DUP3 PUSH2 0x14A6 JUMP JUMPDEST SWAP1 POP SWAP2 SWAP1 POP JUMP JUMPDEST PUSH2 0x14D2 DUP2 PUSH2 0x14B8 JUMP JUMPDEST DUP3 MSTORE POP POP JUMP JUMPDEST PUSH0 PUSH1 0x20 DUP3 ADD SWAP1 POP PUSH2 0x14EB PUSH0 DUP4 ADD DUP5 PUSH2 0x14C9 JUMP JUMPDEST SWAP3 SWAP2 POP POP JUMP JUMPDEST PUSH32 0x43616E6E6F7420737461727420636F756E74696E6720766F7465730000000000 PUSH0 DUP3 ADD MSTORE POP JUMP JUMPDEST PUSH0 PUSH2 0x1525 PUSH1 0x1B DUP4 PUSH2 0x1269 JUMP JUMPDEST SWAP2 POP PUSH2 0x1530 DUP3 PUSH2 0x14F1 JUMP JUMPDEST PUSH1 0x20 DUP3 ADD SWAP1 POP SWAP2 SWAP1 POP JUMP JUMPDEST PUSH0 PUSH1 0x20 DUP3 ADD SWAP1 POP DUP2 DUP2 SUB PUSH0 DUP4 ADD MSTORE PUSH2 0x1552 DUP2 PUSH2 0x1519 JUMP JUMPDEST SWAP1 POP SWAP2 SWAP1 POP JUMP JUMPDEST PUSH32 0x566F746572206973206E6F742072656769737465726564000000000000000000 PUSH0 DUP3 ADD MSTORE POP JUMP JUMPDEST PUSH0 PUSH2 0x158D PUSH1 0x17 DUP4 PUSH2 0x1269 JUMP JUMPDEST SWAP2 POP PUSH2 0x1598 DUP3 PUSH2 0x1559 JUMP JUMPDEST PUSH1 0x20 DUP3 ADD SWAP1 POP SWAP2 SWAP1 POP JUMP JUMPDEST PUSH0 PUSH1 0x20 DUP3 ADD SWAP1 POP DUP2 DUP2 SUB PUSH0 DUP4 ADD MSTORE PUSH2 0x15BA DUP2 PUSH2 0x1581 JUMP JUMPDEST SWAP1 POP SWAP2 SWAP1 POP JUMP JUMPDEST PUSH32 0x566F7465722068617320616C726561647920766F746564000000000000000000 PUSH0 DUP3 ADD MSTORE POP JUMP JUMPDEST PUSH0 PUSH2 0x15F5 PUSH1 0x17 DUP4 PUSH2 0x1269 JUMP JUMPDEST SWAP2 POP PUSH2 0x1600 DUP3 PUSH2 0x15C1 JUMP JUMPDEST PUSH1 0x20 DUP3 ADD SWAP1 POP SWAP2 SWAP1 POP JUMP JUMPDEST PUSH0 PUSH1 0x20 DUP3 ADD SWAP1 POP DUP2 DUP2 SUB PUSH0 DUP4 ADD MSTORE PUSH2 0x1622 DUP2 PUSH2 0x15E9 JUMP JUMPDEST SWAP1 POP SWAP2 SWAP1 POP JUMP JUMPDEST PUSH32 0x496E76616C69642070726F706F73616C20696400000000000000000000000000 PUSH0 DUP3 ADD MSTORE POP JUMP JUMPDEST PUSH0 PUSH2 0x165D PUSH1 0x13 DUP4 PUSH2 0x1269 JUMP JUMPDEST SWAP2 POP PUSH2 0x1668 DUP3 PUSH2 0x1629 JUMP JUMPDEST PUSH1 0x20 DUP3 ADD SWAP1 POP SWAP2 SWAP1 POP JUMP JUMPDEST PUSH0 PUSH1 0x20 DUP3 ADD SWAP1 POP DUP2 DUP2 SUB PUSH0 DUP4 ADD MSTORE PUSH2 0x168A DUP2 PUSH2 0x1651 JUMP JUMPDEST SWAP1 POP SWAP2 SWAP1 POP JUMP JUMPDEST PUSH0 PUSH1 0x40 DUP3 ADD SWAP1 POP PUSH2 0x16A4 PUSH0 DUP4 ADD DUP6 PUSH2 0x113D JUMP JUMPDEST PUSH2 0x16B1 PUSH1 0x20 DUP4 ADD DUP5 PUSH2 0x10AD JUMP JUMPDEST SWAP4 SWAP3 POP POP POP JUMP JUMPDEST PUSH32 0x43616E6E6F7420656E642070726F706F73616C20726567697374726174696F6E PUSH0 DUP3 ADD MSTORE PUSH32 0x2061742074686973207374616765000000000000000000000000000000000000 PUSH1 0x20 DUP3 ADD MSTORE POP JUMP JUMPDEST PUSH0 PUSH2 0x1712 PUSH1 0x2E DUP4 PUSH2 0x1269 JUMP JUMPDEST SWAP2 POP PUSH2 0x171D DUP3 PUSH2 0x16B8 JUMP JUMPDEST PUSH1 0x40 DUP3 ADD SWAP1 POP SWAP2 SWAP1 POP JUMP JUMPDEST PUSH0 PUSH1 0x20 DUP3 ADD SWAP1 POP DUP2 DUP2 SUB PUSH0 DUP4 ADD MSTORE PUSH2 0x173F DUP2 PUSH2 0x1706 JUMP JUMPDEST SWAP1 POP SWAP2 SWAP1 POP JUMP JUMPDEST PUSH0 PUSH1 0x40 DUP3 ADD SWAP1 POP PUSH2 0x1759 PUSH0 DUP4 ADD DUP6 PUSH2 0x14C9 JUMP JUMPDEST PUSH2 0x1766 PUSH1 0x20 DUP4 ADD DUP5 PUSH2 0x14C9 JUMP JUMPDEST SWAP4 SWAP3 POP POP POP JUMP JUMPDEST PUSH32 0x43616E6E6F7420656E6420766F74696E672073657373696F6E20617420746869 PUSH0 DUP3 ADD MSTORE PUSH32 0x7320737461676500000000000000000000000000000000000000000000000000 PUSH1 0x20 DUP3 ADD MSTORE POP JUMP JUMPDEST PUSH0 PUSH2 0x17C7 PUSH1 0x27 DUP4 PUSH2 0x1269 JUMP JUMPDEST SWAP2 POP PUSH2 0x17D2 DUP3 PUSH2 0x176D JUMP JUMPDEST PUSH1 0x40 DUP3 ADD SWAP1 POP SWAP2 SWAP1 POP JUMP JUMPDEST PUSH0 PUSH1 0x20 DUP3 ADD SWAP1 POP DUP2 DUP2 SUB PUSH0 DUP4 ADD MSTORE PUSH2 0x17F4 DUP2 PUSH2 0x17BB JUMP JUMPDEST SWAP1 POP SWAP2 SWAP1 POP JUMP JUMPDEST PUSH32 0x566F74657220726567697374726174696F6E206973206E6F7420616C6C6F7765 PUSH0 DUP3 ADD MSTORE PUSH32 0x6420617420746869732073746167650000000000000000000000000000000000 PUSH1 0x20 DUP3 ADD MSTORE POP JUMP JUMPDEST PUSH0 PUSH2 0x1855 PUSH1 0x2F DUP4 PUSH2 0x1269 JUMP JUMPDEST SWAP2 POP PUSH2 0x1860 DUP3 PUSH2 0x17FB JUMP JUMPDEST PUSH1 0x40 DUP3 ADD SWAP1 POP SWAP2 SWAP1 POP JUMP JUMPDEST PUSH0 PUSH1 0x20 DUP3 ADD SWAP1 POP DUP2 DUP2 SUB PUSH0 DUP4 ADD MSTORE PUSH2 0x1882 DUP2 PUSH2 0x1849 JUMP JUMPDEST SWAP1 POP SWAP2 SWAP1 POP JUMP JUMPDEST PUSH32 0x616C726561647920696E207468652077686974656C6973740000000000000000 PUSH0 DUP3 ADD MSTORE POP JUMP JUMPDEST PUSH0 PUSH2 0x18BD PUSH1 0x18 DUP4 PUSH2 0x1269 JUMP JUMPDEST SWAP2 POP PUSH2 0x18C8 DUP3 PUSH2 0x1889 JUMP JUMPDEST PUSH1 0x20 DUP3 ADD SWAP1 POP SWAP2 SWAP1 POP JUMP JUMPDEST PUSH0 PUSH1 0x20 DUP3 ADD SWAP1 POP DUP2 DUP2 SUB PUSH0 DUP4 ADD MSTORE PUSH2 0x18EA DUP2 PUSH2 0x18B1 JUMP JUMPDEST SWAP1 POP SWAP2 SWAP1 POP JUMP JUMPDEST PUSH32 0x4E487B7100000000000000000000000000000000000000000000000000000000 PUSH0 MSTORE PUSH1 0x22 PUSH1 0x4 MSTORE PUSH1 0x24 PUSH0 REVERT JUMPDEST PUSH0 PUSH1 0x2 DUP3 DIV SWAP1 POP PUSH1 0x1 DUP3 AND DUP1 PUSH2 0x1935 JUMPI PUSH1 0x7F DUP3 AND SWAP2 POP JUMPDEST PUSH1 0x20 DUP3 LT DUP2 SUB PUSH2 0x1948 JUMPI PUSH2 0x1947 PUSH2 0x18F1 JUMP JUMPDEST JUMPDEST POP SWAP2 SWAP1 POP JUMP JUMPDEST PUSH32 0x43616E6E6F742073746172742070726F706F73616C2072656769737472617469 PUSH0 DUP3 ADD MSTORE PUSH32 0x6F6E206174207468697320737461676500000000000000000000000000000000 PUSH1 0x20 DUP3 ADD MSTORE POP JUMP JUMPDEST PUSH0 PUSH2 0x19A8 PUSH1 0x30 DUP4 PUSH2 0x1269 JUMP JUMPDEST SWAP2 POP PUSH2 0x19B3 DUP3 PUSH2 0x194E JUMP JUMPDEST PUSH1 0x40 DUP3 ADD SWAP1 POP SWAP2 SWAP1 POP JUMP JUMPDEST PUSH0 PUSH1 0x20 DUP3 ADD SWAP1 POP DUP2 DUP2 SUB PUSH0 DUP4 ADD MSTORE PUSH2 0x19D5 DUP2 PUSH2 0x199C JUMP JUMPDEST SWAP1 POP SWAP2 SWAP1 POP JUMP JUMPDEST PUSH32 0x43616E6E6F742072656769737465722070726F706F73616C0000000000000000 PUSH0 DUP3 ADD MSTORE POP JUMP JUMPDEST PUSH0 PUSH2 0x1A10 PUSH1 0x18 DUP4 PUSH2 0x1269 JUMP JUMPDEST SWAP2 POP PUSH2 0x1A1B DUP3 PUSH2 0x19DC JUMP JUMPDEST PUSH1 0x20 DUP3 ADD SWAP1 POP SWAP2 SWAP1 POP JUMP JUMPDEST PUSH0 PUSH1 0x20 DUP3 ADD SWAP1 POP DUP2 DUP2 SUB PUSH0 DUP4 ADD MSTORE PUSH2 0x1A3D DUP2 PUSH2 0x1A04 JUMP JUMPDEST SWAP1 POP SWAP2 SWAP1 POP JUMP JUMPDEST PUSH0 DUP2 SWAP1 POP DUP2 PUSH0 MSTORE PUSH1 0x20 PUSH0 KECCAK256 SWAP1 POP SWAP2 SWAP1 POP JUMP JUMPDEST PUSH0 PUSH1 0x20 PUSH1 0x1F DUP4 ADD DIV SWAP1 POP SWAP2 SWAP1 POP JUMP JUMPDEST PUSH0 DUP3 DUP3 SHL SWAP1 POP SWAP3 SWAP2 POP POP JUMP JUMPDEST PUSH0 PUSH1 0x8 DUP4 MUL PUSH2 0x1AA0 PUSH32 0xFFFFFFFFFFFFFFFFFFFFFFFFFFFFFFFFFFFFFFFFFFFFFFFFFFFFFFFFFFFFFFFF DUP3 PUSH2 0x1A65 JUMP JUMPDEST PUSH2 0x1AAA DUP7 DUP4 PUSH2 0x1A65 JUMP JUMPDEST SWAP6 POP DUP1 NOT DUP5 AND SWAP4 POP DUP1 DUP7 AND DUP5 OR SWAP3 POP POP POP SWAP4 SWAP3 POP POP POP JUMP JUMPDEST PUSH0 DUP2 SWAP1 POP SWAP2 SWAP1 POP JUMP JUMPDEST PUSH0 PUSH2 0x1AE5 PUSH2 0x1AE0 PUSH2 0x1ADB DUP5 PUSH2 0x10A4 JUMP JUMPDEST PUSH2 0x1AC2 JUMP JUMPDEST PUSH2 0x10A4 JUMP JUMPDEST SWAP1 POP SWAP2 SWAP1 POP JUMP JUMPDEST PUSH0 DUP2 SWAP1 POP SWAP2 SWAP1 POP JUMP JUMPDEST PUSH2 0x1AFE DUP4 PUSH2 0x1ACB JUMP JUMPDEST PUSH2 0x1B12 PUSH2 0x1B0A DUP3 PUSH2 0x1AEC JUMP JUMPDEST DUP5 DUP5 SLOAD PUSH2 0x1A71 JUMP JUMPDEST DUP3 SSTORE POP POP POP POP JUMP JUMPDEST PUSH0 SWAP1 JUMP JUMPDEST PUSH2 0x1B26 PUSH2 0x1B1A JUMP JUMPDEST PUSH2 0x1B31 DUP2 DUP5 DUP5 PUSH2 0x1AF5 JUMP JUMPDEST POP POP POP JUMP JUMPDEST JUMPDEST DUP2 DUP2 LT ISZERO PUSH2 0x1B54 JUMPI PUSH2 0x1B49 PUSH0 DUP3 PUSH2 0x1B1E JUMP JUMPDEST PUSH1 0x1 DUP2 ADD SWAP1 POP PUSH2 0x1B37 JUMP JUMPDEST POP POP JUMP JUMPDEST PUSH1 0x1F DUP3 GT ISZERO PUSH2 0x1B99 JUMPI PUSH2 0x1B6A DUP2 PUSH2 0x1A44 JUMP JUMPDEST PUSH2 0x1B73 DUP5 PUSH2 0x1A56 JUMP JUMPDEST DUP2 ADD PUSH1 0x20 DUP6 LT ISZERO PUSH2 0x1B82 JUMPI DUP2 SWAP1 POP JUMPDEST PUSH2 0x1B96 PUSH2 0x1B8E DUP6 PUSH2 0x1A56 JUMP JUMPDEST DUP4 ADD DUP3 PUSH2 0x1B36 JUMP JUMPDEST POP POP JUMPDEST POP POP POP JUMP JUMPDEST PUSH0 DUP3 DUP3 SHR SWAP1 POP SWAP3 SWAP2 POP POP JUMP JUMPDEST PUSH0 PUSH2 0x1BB9 PUSH0 NOT DUP5 PUSH1 0x8 MUL PUSH2 0x1B9E JUMP JUMPDEST NOT DUP1 DUP4 AND SWAP2 POP POP SWAP3 SWAP2 POP POP JUMP JUMPDEST PUSH0 PUSH2 0x1BD1 DUP4 DUP4 PUSH2 0x1BAA JUMP JUMPDEST SWAP2 POP DUP3 PUSH1 0x2 MUL DUP3 OR SWAP1 POP SWAP3 SWAP2 POP POP JUMP JUMPDEST PUSH2 0x1BEA DUP3 PUSH2 0x1165 JUMP JUMPDEST PUSH8 0xFFFFFFFFFFFFFFFF DUP2 GT ISZERO PUSH2 0x1C03 JUMPI PUSH2 0x1C02 PUSH2 0x12E7 JUMP JUMPDEST JUMPDEST PUSH2 0x1C0D DUP3 SLOAD PUSH2 0x191E JUMP JUMPDEST PUSH2 0x1C18 DUP3 DUP3 DUP6 PUSH2 0x1B58 JUMP JUMPDEST PUSH0 PUSH1 0x20 SWAP1 POP PUSH1 0x1F DUP4 GT PUSH1 0x1 DUP2 EQ PUSH2 0x1C49 JUMPI PUSH0 DUP5 ISZERO PUSH2 0x1C37 JUMPI DUP3 DUP8 ADD MLOAD SWAP1 POP JUMPDEST PUSH2 0x1C41 DUP6 DUP3 PUSH2 0x1BC6 JUMP JUMPDEST DUP7 SSTORE POP PUSH2 0x1CA8 JUMP JUMPDEST PUSH1 0x1F NOT DUP5 AND PUSH2 0x1C57 DUP7 PUSH2 0x1A44 JUMP JUMPDEST PUSH0 JUMPDEST DUP3 DUP2 LT ISZERO PUSH2 0x1C7E JUMPI DUP5 DUP10 ADD MLOAD DUP3 SSTORE PUSH1 0x1 DUP3 ADD SWAP2 POP PUSH1 0x20 DUP6 ADD SWAP5 POP PUSH1 0x20 DUP2 ADD SWAP1 POP PUSH2 0x1C59 JUMP JUMPDEST DUP7 DUP4 LT ISZERO PUSH2 0x1C9B JUMPI DUP5 DUP10 ADD MLOAD PUSH2 0x1C97 PUSH1 0x1F DUP10 AND DUP3 PUSH2 0x1BAA JUMP JUMPDEST DUP4 SSTORE POP JUMPDEST PUSH1 0x1 PUSH1 0x2 DUP9 MUL ADD DUP9 SSTORE POP POP POP JUMPDEST POP POP POP POP POP POP JUMP JUMPDEST PUSH32 0x43616E6E6F7420737461727420766F74696E672073657373696F6E2061742074 PUSH0 DUP3 ADD MSTORE PUSH32 0x6869732073746167650000000000000000000000000000000000000000000000 PUSH1 0x20 DUP3 ADD MSTORE POP JUMP JUMPDEST PUSH0 PUSH2 0x1D0A PUSH1 0x29 DUP4 PUSH2 0x1269 JUMP JUMPDEST SWAP2 POP PUSH2 0x1D15 DUP3 PUSH2 0x1CB0 JUMP JUMPDEST PUSH1 0x40 DUP3 ADD SWAP1 POP SWAP2 SWAP1 POP JUMP JUMPDEST PUSH0 PUSH1 0x20 DUP3 ADD SWAP1 POP DUP2 DUP2 SUB PUSH0 DUP4 ADD MSTORE PUSH2 0x1D37 DUP2 PUSH2 0x1CFE JUMP JUMPDEST SWAP1 POP SWAP2 SWAP1 POP JUMP INVALID LOG2 PUSH5 0x6970667358 0x22 SLT KECCAK256 MCOPY SWAP4 JUMP 0xEB SLT 0xFB LT 0xB4 ADDRESS 0xEE SLOAD PUSH28 0x27367D4DDF9B775C227A4ABE855D9E86657DD0EA64736F6C63430008 BYTE STOP CALLER "
				},
				"gasEstimates": {
					"creation": {
						"codeDepositCost": "1508000",
						"executionCost": "infinite",
						"totalCost": "infinite"
					},
					"external": {
						"authorize(address)": "infinite",
						"countVotes()": "infinite",
						"currentStatus()": "2620",
						"endProposalsRegistration()": "infinite",
						"endVotingSession()": "infinite",
						"getWinner()": "infinite",
						"owner()": "2560",
						"proposalList(uint256)": "infinite",
						"registerProposal(address,string)": "infinite",
						"renounceOwnership()": "infinite",
						"startProposalsRegistration()": "infinite",
						"startVotingSession()": "infinite",
						"transferOwnership(address)": "infinite",
						"voteForProposal(address,uint256)": "infinite",
						"voterProposalIds(address)": "2826"
					}
				},
				"methodIdentifiers": {
					"authorize(address)": "b6a5d7de",
					"countVotes()": "b647990a",
					"currentStatus()": "ef8a9235",
					"endProposalsRegistration()": "6c297445",
					"endVotingSession()": "a7bfab16",
					"getWinner()": "8e7ea5b2",
					"owner()": "8da5cb5b",
					"proposalList(uint256)": "c6311e3f",
					"registerProposal(address,string)": "e5349fe8",
					"renounceOwnership()": "715018a6",
					"startProposalsRegistration()": "e09b8c79",
					"startVotingSession()": "ee74c678",
					"transferOwnership(address)": "f2fde38b",
					"voteForProposal(address,uint256)": "4e3c118e",
					"voterProposalIds(address)": "144677c4"
				}
			},
			"storageLayout": {
				"storage": [
					{
						"astId": 8,
						"contract": "contracts/Voting/Voting.sol:Voting",
						"label": "_owner",
						"offset": 0,
						"slot": "0",
						"type": "t_address"
					},
					{
						"astId": 211,
						"contract": "contracts/Voting/Voting.sol:Voting",
						"label": "winningProposalId",
						"offset": 0,
						"slot": "1",
						"type": "t_uint256"
					},
					{
						"astId": 214,
						"contract": "contracts/Voting/Voting.sol:Voting",
						"label": "currentStatus",
						"offset": 0,
						"slot": "2",
						"type": "t_enum(WorkflowStatus)209"
					},
					{
						"astId": 219,
						"contract": "contracts/Voting/Voting.sol:Voting",
						"label": "whitelist",
						"offset": 0,
						"slot": "3",
						"type": "t_mapping(t_address,t_struct(Voter)197_storage)"
					},
					{
						"astId": 223,
						"contract": "contracts/Voting/Voting.sol:Voting",
						"label": "voterProposalIds",
						"offset": 0,
						"slot": "4",
						"type": "t_mapping(t_address,t_uint256)"
					},
					{
						"astId": 227,
						"contract": "contracts/Voting/Voting.sol:Voting",
						"label": "proposalList",
						"offset": 0,
						"slot": "5",
						"type": "t_array(t_struct(Proposal)202_storage)dyn_storage"
					}
				],
				"types": {
					"t_address": {
						"encoding": "inplace",
						"label": "address",
						"numberOfBytes": "20"
					},
					"t_array(t_struct(Proposal)202_storage)dyn_storage": {
						"base": "t_struct(Proposal)202_storage",
						"encoding": "dynamic_array",
						"label": "struct Voting.Proposal[]",
						"numberOfBytes": "32"
					},
					"t_bool": {
						"encoding": "inplace",
						"label": "bool",
						"numberOfBytes": "1"
					},
					"t_enum(WorkflowStatus)209": {
						"encoding": "inplace",
						"label": "enum Voting.WorkflowStatus",
						"numberOfBytes": "1"
					},
					"t_mapping(t_address,t_struct(Voter)197_storage)": {
						"encoding": "mapping",
						"key": "t_address",
						"label": "mapping(address => struct Voting.Voter)",
						"numberOfBytes": "32",
						"value": "t_struct(Voter)197_storage"
					},
					"t_mapping(t_address,t_uint256)": {
						"encoding": "mapping",
						"key": "t_address",
						"label": "mapping(address => uint256)",
						"numberOfBytes": "32",
						"value": "t_uint256"
					},
					"t_string_storage": {
						"encoding": "bytes",
						"label": "string",
						"numberOfBytes": "32"
					},
					"t_struct(Proposal)202_storage": {
						"encoding": "inplace",
						"label": "struct Voting.Proposal",
						"members": [
							{
								"astId": 199,
								"contract": "contracts/Voting/Voting.sol:Voting",
								"label": "description",
								"offset": 0,
								"slot": "0",
								"type": "t_string_storage"
							},
							{
								"astId": 201,
								"contract": "contracts/Voting/Voting.sol:Voting",
								"label": "voteCount",
								"offset": 0,
								"slot": "1",
								"type": "t_uint256"
							}
						],
						"numberOfBytes": "64"
					},
					"t_struct(Voter)197_storage": {
						"encoding": "inplace",
						"label": "struct Voting.Voter",
						"members": [
							{
								"astId": 192,
								"contract": "contracts/Voting/Voting.sol:Voting",
								"label": "isRegistered",
								"offset": 0,
								"slot": "0",
								"type": "t_bool"
							},
							{
								"astId": 194,
								"contract": "contracts/Voting/Voting.sol:Voting",
								"label": "hasVoted",
								"offset": 1,
								"slot": "0",
								"type": "t_bool"
							},
							{
								"astId": 196,
								"contract": "contracts/Voting/Voting.sol:Voting",
								"label": "votedProposalId",
								"offset": 0,
								"slot": "1",
								"type": "t_uint256"
							}
						],
						"numberOfBytes": "64"
					},
					"t_uint256": {
						"encoding": "inplace",
						"label": "uint256",
						"numberOfBytes": "32"
					}
				}
			},
			"userdoc": {
				"kind": "user",
				"methods": {},
				"version": 1
			}
		}
	}
}