{
	"contracts/Security/36_forceFeeding.sol": {
		"Bank": {
			"abi": [
				{
					"inputs": [],
					"stateMutability": "nonpayable",
					"type": "constructor"
				},
				{
					"inputs": [],
					"name": "deposit",
					"outputs": [],
					"stateMutability": "payable",
					"type": "function"
				},
				{
					"inputs": [],
					"name": "withdrawAll",
					"outputs": [],
					"stateMutability": "nonpayable",
					"type": "function"
				}
			],
			"devdoc": {
				"kind": "dev",
				"methods": {},
				"version": 1
			},
			"evm": {
				"assembly": "    /* \"contracts/Security/36_forceFeeding.sol\":177:798  contract Bank {... */\n  mstore(0x40, 0x80)\n    /* \"contracts/Security/36_forceFeeding.sol\":248:297  constructor() {... */\n  callvalue\n  dup1\n  iszero\n  tag_1\n  jumpi\n  revert(0x00, 0x00)\ntag_1:\n  pop\n    /* \"contracts/Security/36_forceFeeding.sol\":280:290  msg.sender */\n  caller\n    /* \"contracts/Security/36_forceFeeding.sol\":272:277  owner */\n  0x00\n  0x00\n    /* \"contracts/Security/36_forceFeeding.sol\":272:290  owner = msg.sender */\n  0x0100\n  exp\n  dup2\n  sload\n  dup2\n  0xffffffffffffffffffffffffffffffffffffffff\n  mul\n  not\n  and\n  swap1\n  dup4\n  0xffffffffffffffffffffffffffffffffffffffff\n  and\n  mul\n  or\n  swap1\n  sstore\n  pop\n    /* \"contracts/Security/36_forceFeeding.sol\":177:798  contract Bank {... */\n  dataSize(sub_0)\n  dup1\n  dataOffset(sub_0)\n  0x00\n  codecopy\n  0x00\n  return\nstop\n\nsub_0: assembly {\n        /* \"contracts/Security/36_forceFeeding.sol\":177:798  contract Bank {... */\n      mstore(0x40, 0x80)\n      jumpi(tag_1, lt(calldatasize, 0x04))\n      shr(0xe0, calldataload(0x00))\n      dup1\n      0x853828b6\n      eq\n      tag_2\n      jumpi\n      dup1\n      0xd0e30db0\n      eq\n      tag_3\n      jumpi\n    tag_1:\n      revert(0x00, 0x00)\n        /* \"contracts/Security/36_forceFeeding.sol\":572:796  function withdrawAll() public {... */\n    tag_2:\n      callvalue\n      dup1\n      iszero\n      tag_4\n      jumpi\n      revert(0x00, 0x00)\n    tag_4:\n      pop\n      tag_5\n      tag_6\n      jump\t// in\n    tag_5:\n      stop\n        /* \"contracts/Security/36_forceFeeding.sol\":346:516  function deposit() public payable {... */\n    tag_3:\n      tag_7\n      tag_8\n      jump\t// in\n    tag_7:\n      stop\n        /* \"contracts/Security/36_forceFeeding.sol\":572:796  function withdrawAll() public {... */\n    tag_6:\n        /* \"contracts/Security/36_forceFeeding.sol\":634:639  owner */\n      0x00\n      0x00\n      swap1\n      sload\n      swap1\n      0x0100\n      exp\n      swap1\n      div\n      0xffffffffffffffffffffffffffffffffffffffff\n      and\n        /* \"contracts/Security/36_forceFeeding.sol\":620:639  msg.sender == owner */\n      0xffffffffffffffffffffffffffffffffffffffff\n      and\n        /* \"contracts/Security/36_forceFeeding.sol\":620:630  msg.sender */\n      caller\n        /* \"contracts/Security/36_forceFeeding.sol\":620:639  msg.sender == owner */\n      0xffffffffffffffffffffffffffffffffffffffff\n      and\n      eq\n        /* \"contracts/Security/36_forceFeeding.sol\":612:640  require(msg.sender == owner) */\n      tag_10\n      jumpi\n      revert(0x00, 0x00)\n    tag_10:\n        /* \"contracts/Security/36_forceFeeding.sol\":683:691  10 ether */\n      0x8ac7230489e80000\n        /* \"contracts/Security/36_forceFeeding.sol\":658:679  address(this).balance */\n      selfbalance\n        /* \"contracts/Security/36_forceFeeding.sol\":658:691  address(this).balance >= 10 ether */\n      lt\n      iszero\n        /* \"contracts/Security/36_forceFeeding.sol\":650:692  require(address(this).balance >= 10 ether) */\n      tag_11\n      jumpi\n      revert(0x00, 0x00)\n    tag_11:\n        /* \"contracts/Security/36_forceFeeding.sol\":703:714  bool succes */\n      0x00\n        /* \"contracts/Security/36_forceFeeding.sol\":720:725  owner */\n      0x00\n      0x00\n      swap1\n      sload\n      swap1\n      0x0100\n      exp\n      swap1\n      div\n      0xffffffffffffffffffffffffffffffffffffffff\n      and\n        /* \"contracts/Security/36_forceFeeding.sol\":720:730  owner.call */\n      0xffffffffffffffffffffffffffffffffffffffff\n      and\n        /* \"contracts/Security/36_forceFeeding.sol\":738:759  address(this).balance */\n      selfbalance\n        /* \"contracts/Security/36_forceFeeding.sol\":720:764  owner.call{value: address(this).balance}(\"\") */\n      mload(0x40)\n      tag_12\n      swap1\n      tag_13\n      jump\t// in\n    tag_12:\n      0x00\n      mload(0x40)\n      dup1\n      dup4\n      sub\n      dup2\n      dup6\n      dup8\n      gas\n      call\n      swap3\n      pop\n      pop\n      pop\n      returndatasize\n      dup1\n      0x00\n      dup2\n      eq\n      tag_16\n      jumpi\n      mload(0x40)\n      swap2\n      pop\n      and(add(returndatasize, 0x3f), not(0x1f))\n      dup3\n      add\n      0x40\n      mstore\n      returndatasize\n      dup3\n      mstore\n      returndatasize\n      0x00\n      0x20\n      dup5\n      add\n      returndatacopy\n      jump(tag_15)\n    tag_16:\n      0x60\n      swap2\n      pop\n    tag_15:\n      pop\n        /* \"contracts/Security/36_forceFeeding.sol\":702:764  (bool succes, ) = owner.call{value: address(this).balance}(\"\") */\n      pop\n      swap1\n      pop\n        /* \"contracts/Security/36_forceFeeding.sol\":782:788  succes */\n      dup1\n        /* \"contracts/Security/36_forceFeeding.sol\":774:789  require(succes) */\n      tag_17\n      jumpi\n      revert(0x00, 0x00)\n    tag_17:\n        /* \"contracts/Security/36_forceFeeding.sol\":602:796  {... */\n      pop\n        /* \"contracts/Security/36_forceFeeding.sol\":572:796  function withdrawAll() public {... */\n      jump\t// out\n        /* \"contracts/Security/36_forceFeeding.sol\":346:516  function deposit() public payable {... */\n    tag_8:\n        /* \"contracts/Security/36_forceFeeding.sol\":412:417  owner */\n      0x00\n      0x00\n      swap1\n      sload\n      swap1\n      0x0100\n      exp\n      swap1\n      div\n      0xffffffffffffffffffffffffffffffffffffffff\n      and\n        /* \"contracts/Security/36_forceFeeding.sol\":398:417  msg.sender == owner */\n      0xffffffffffffffffffffffffffffffffffffffff\n      and\n        /* \"contracts/Security/36_forceFeeding.sol\":398:408  msg.sender */\n      caller\n        /* \"contracts/Security/36_forceFeeding.sol\":398:417  msg.sender == owner */\n      0xffffffffffffffffffffffffffffffffffffffff\n      and\n      eq\n        /* \"contracts/Security/36_forceFeeding.sol\":390:418  require(msg.sender == owner) */\n      tag_19\n      jumpi\n      revert(0x00, 0x00)\n    tag_19:\n        /* \"contracts/Security/36_forceFeeding.sol\":449:456  1 ether */\n      0x0de0b6b3a7640000\n        /* \"contracts/Security/36_forceFeeding.sol\":436:445  msg.value */\n      callvalue\n        /* \"contracts/Security/36_forceFeeding.sol\":436:456  msg.value == 1 ether */\n      eq\n        /* \"contracts/Security/36_forceFeeding.sol\":428:457  require(msg.value == 1 ether) */\n      tag_20\n      jumpi\n      revert(0x00, 0x00)\n    tag_20:\n        /* \"contracts/Security/36_forceFeeding.sol\":500:508  10 ether */\n      0x8ac7230489e80000\n        /* \"contracts/Security/36_forceFeeding.sol\":475:496  address(this).balance */\n      selfbalance\n        /* \"contracts/Security/36_forceFeeding.sol\":475:508  address(this).balance <= 10 ether */\n      gt\n      iszero\n        /* \"contracts/Security/36_forceFeeding.sol\":467:509  require(address(this).balance <= 10 ether) */\n      tag_21\n      jumpi\n      revert(0x00, 0x00)\n    tag_21:\n        /* \"contracts/Security/36_forceFeeding.sol\":346:516  function deposit() public payable {... */\n      jump\t// out\n        /* \"#utility.yul\":7:154   */\n    tag_22:\n        /* \"#utility.yul\":108:119   */\n      0x00\n        /* \"#utility.yul\":145:148   */\n      dup2\n        /* \"#utility.yul\":130:148   */\n      swap1\n      pop\n        /* \"#utility.yul\":7:154   */\n      swap3\n      swap2\n      pop\n      pop\n      jump\t// out\n        /* \"#utility.yul\":160:274   */\n    tag_23:\n      pop\n      jump\t// out\n        /* \"#utility.yul\":280:678   */\n    tag_24:\n        /* \"#utility.yul\":439:442   */\n      0x00\n        /* \"#utility.yul\":460:543   */\n      tag_29\n        /* \"#utility.yul\":541:542   */\n      0x00\n        /* \"#utility.yul\":536:539   */\n      dup4\n        /* \"#utility.yul\":460:543   */\n      tag_22\n      jump\t// in\n    tag_29:\n        /* \"#utility.yul\":453:543   */\n      swap2\n      pop\n        /* \"#utility.yul\":552:645   */\n      tag_30\n        /* \"#utility.yul\":641:644   */\n      dup3\n        /* \"#utility.yul\":552:645   */\n      tag_23\n      jump\t// in\n    tag_30:\n        /* \"#utility.yul\":670:671   */\n      0x00\n        /* \"#utility.yul\":665:668   */\n      dup3\n        /* \"#utility.yul\":661:672   */\n      add\n        /* \"#utility.yul\":654:672   */\n      swap1\n      pop\n        /* \"#utility.yul\":280:678   */\n      swap2\n      swap1\n      pop\n      jump\t// out\n        /* \"#utility.yul\":684:1063   */\n    tag_13:\n        /* \"#utility.yul\":868:871   */\n      0x00\n        /* \"#utility.yul\":890:1037   */\n      tag_32\n        /* \"#utility.yul\":1033:1036   */\n      dup3\n        /* \"#utility.yul\":890:1037   */\n      tag_24\n      jump\t// in\n    tag_32:\n        /* \"#utility.yul\":883:1037   */\n      swap2\n      pop\n        /* \"#utility.yul\":1054:1057   */\n      dup2\n        /* \"#utility.yul\":1047:1057   */\n      swap1\n      pop\n        /* \"#utility.yul\":684:1063   */\n      swap2\n      swap1\n      pop\n      jump\t// out\n\n    auxdata: 0xa2646970667358221220ae909e3c1863454a998a1119258dcd788c80b87264f7caa3133fed431faa23db64736f6c634300081c0033\n}\n",
				"bytecode": {
					"linkReferences": {},
					"object": "6080604052348015600e575f5ffd5b50335f5f6101000a81548173ffffffffffffffffffffffffffffffffffffffff021916908373ffffffffffffffffffffffffffffffffffffffff1602179055506102428061005b5f395ff3fe608060405260043610610028575f3560e01c8063853828b61461002c578063d0e30db014610042575b5f5ffd5b348015610037575f5ffd5b5061004061004c565b005b61004a61014b565b005b5f5f9054906101000a900473ffffffffffffffffffffffffffffffffffffffff1673ffffffffffffffffffffffffffffffffffffffff163373ffffffffffffffffffffffffffffffffffffffff16146100a3575f5ffd5b678ac7230489e800004710156100b7575f5ffd5b5f5f5f9054906101000a900473ffffffffffffffffffffffffffffffffffffffff1673ffffffffffffffffffffffffffffffffffffffff16476040516100fc906101f8565b5f6040518083038185875af1925050503d805f8114610136576040519150601f19603f3d011682016040523d82523d5f602084013e61013b565b606091505b5050905080610148575f5ffd5b50565b5f5f9054906101000a900473ffffffffffffffffffffffffffffffffffffffff1673ffffffffffffffffffffffffffffffffffffffff163373ffffffffffffffffffffffffffffffffffffffff16146101a2575f5ffd5b670de0b6b3a764000034146101b5575f5ffd5b678ac7230489e800004711156101c9575f5ffd5b565b5f81905092915050565b50565b5f6101e35f836101cb565b91506101ee826101d5565b5f82019050919050565b5f610202826101d8565b915081905091905056fea2646970667358221220ae909e3c1863454a998a1119258dcd788c80b87264f7caa3133fed431faa23db64736f6c634300081c0033",
					"opcodes": "PUSH1 0x80 PUSH1 0x40 MSTORE CALLVALUE DUP1 ISZERO PUSH1 0xE JUMPI PUSH0 PUSH0 REVERT JUMPDEST POP CALLER PUSH0 PUSH0 PUSH2 0x100 EXP DUP2 SLOAD DUP2 PUSH20 0xFFFFFFFFFFFFFFFFFFFFFFFFFFFFFFFFFFFFFFFF MUL NOT AND SWAP1 DUP4 PUSH20 0xFFFFFFFFFFFFFFFFFFFFFFFFFFFFFFFFFFFFFFFF AND MUL OR SWAP1 SSTORE POP PUSH2 0x242 DUP1 PUSH2 0x5B PUSH0 CODECOPY PUSH0 RETURN INVALID PUSH1 0x80 PUSH1 0x40 MSTORE PUSH1 0x4 CALLDATASIZE LT PUSH2 0x28 JUMPI PUSH0 CALLDATALOAD PUSH1 0xE0 SHR DUP1 PUSH4 0x853828B6 EQ PUSH2 0x2C JUMPI DUP1 PUSH4 0xD0E30DB0 EQ PUSH2 0x42 JUMPI JUMPDEST PUSH0 PUSH0 REVERT JUMPDEST CALLVALUE DUP1 ISZERO PUSH2 0x37 JUMPI PUSH0 PUSH0 REVERT JUMPDEST POP PUSH2 0x40 PUSH2 0x4C JUMP JUMPDEST STOP JUMPDEST PUSH2 0x4A PUSH2 0x14B JUMP JUMPDEST STOP JUMPDEST PUSH0 PUSH0 SWAP1 SLOAD SWAP1 PUSH2 0x100 EXP SWAP1 DIV PUSH20 0xFFFFFFFFFFFFFFFFFFFFFFFFFFFFFFFFFFFFFFFF AND PUSH20 0xFFFFFFFFFFFFFFFFFFFFFFFFFFFFFFFFFFFFFFFF AND CALLER PUSH20 0xFFFFFFFFFFFFFFFFFFFFFFFFFFFFFFFFFFFFFFFF AND EQ PUSH2 0xA3 JUMPI PUSH0 PUSH0 REVERT JUMPDEST PUSH8 0x8AC7230489E80000 SELFBALANCE LT ISZERO PUSH2 0xB7 JUMPI PUSH0 PUSH0 REVERT JUMPDEST PUSH0 PUSH0 PUSH0 SWAP1 SLOAD SWAP1 PUSH2 0x100 EXP SWAP1 DIV PUSH20 0xFFFFFFFFFFFFFFFFFFFFFFFFFFFFFFFFFFFFFFFF AND PUSH20 0xFFFFFFFFFFFFFFFFFFFFFFFFFFFFFFFFFFFFFFFF AND SELFBALANCE PUSH1 0x40 MLOAD PUSH2 0xFC SWAP1 PUSH2 0x1F8 JUMP JUMPDEST PUSH0 PUSH1 0x40 MLOAD DUP1 DUP4 SUB DUP2 DUP6 DUP8 GAS CALL SWAP3 POP POP POP RETURNDATASIZE DUP1 PUSH0 DUP2 EQ PUSH2 0x136 JUMPI PUSH1 0x40 MLOAD SWAP2 POP PUSH1 0x1F NOT PUSH1 0x3F RETURNDATASIZE ADD AND DUP3 ADD PUSH1 0x40 MSTORE RETURNDATASIZE DUP3 MSTORE RETURNDATASIZE PUSH0 PUSH1 0x20 DUP5 ADD RETURNDATACOPY PUSH2 0x13B JUMP JUMPDEST PUSH1 0x60 SWAP2 POP JUMPDEST POP POP SWAP1 POP DUP1 PUSH2 0x148 JUMPI PUSH0 PUSH0 REVERT JUMPDEST POP JUMP JUMPDEST PUSH0 PUSH0 SWAP1 SLOAD SWAP1 PUSH2 0x100 EXP SWAP1 DIV PUSH20 0xFFFFFFFFFFFFFFFFFFFFFFFFFFFFFFFFFFFFFFFF AND PUSH20 0xFFFFFFFFFFFFFFFFFFFFFFFFFFFFFFFFFFFFFFFF AND CALLER PUSH20 0xFFFFFFFFFFFFFFFFFFFFFFFFFFFFFFFFFFFFFFFF AND EQ PUSH2 0x1A2 JUMPI PUSH0 PUSH0 REVERT JUMPDEST PUSH8 0xDE0B6B3A7640000 CALLVALUE EQ PUSH2 0x1B5 JUMPI PUSH0 PUSH0 REVERT JUMPDEST PUSH8 0x8AC7230489E80000 SELFBALANCE GT ISZERO PUSH2 0x1C9 JUMPI PUSH0 PUSH0 REVERT JUMPDEST JUMP JUMPDEST PUSH0 DUP2 SWAP1 POP SWAP3 SWAP2 POP POP JUMP JUMPDEST POP JUMP JUMPDEST PUSH0 PUSH2 0x1E3 PUSH0 DUP4 PUSH2 0x1CB JUMP JUMPDEST SWAP2 POP PUSH2 0x1EE DUP3 PUSH2 0x1D5 JUMP JUMPDEST PUSH0 DUP3 ADD SWAP1 POP SWAP2 SWAP1 POP JUMP JUMPDEST PUSH0 PUSH2 0x202 DUP3 PUSH2 0x1D8 JUMP JUMPDEST SWAP2 POP DUP2 SWAP1 POP SWAP2 SWAP1 POP JUMP INVALID LOG2 PUSH5 0x6970667358 0x22 SLT KECCAK256 0xAE SWAP1 SWAP15 EXTCODECOPY XOR PUSH4 0x454A998A GT NOT 0x25 DUP14 0xCD PUSH25 0x8C80B87264F7CAA3133FED431FAA23DB64736F6C634300081C STOP CALLER "
				},
				"gasEstimates": {
					"creation": {
						"codeDepositCost": "115600",
						"executionCost": "24427",
						"totalCost": "140027"
					},
					"external": {
						"deposit()": "2337",
						"withdrawAll()": "infinite"
					}
				},
				"methodIdentifiers": {
					"deposit()": "d0e30db0",
					"withdrawAll()": "853828b6"
				}
			},
			"storageLayout": {
				"storage": [
					{
						"astId": 3,
						"contract": "contracts/Security/36_forceFeeding.sol:Bank",
						"label": "owner",
						"offset": 0,
						"slot": "0",
						"type": "t_address"
					}
				],
				"types": {
					"t_address": {
						"encoding": "inplace",
						"label": "address",
						"numberOfBytes": "20"
					}
				}
			},
			"userdoc": {
				"kind": "user",
				"methods": {},
				"version": 1
			}
		}
	}
}