{
	"contracts/Security/36_attackForceFeeding.sol": {
		"attackForceFeeding": {
			"abi": [
				{
					"inputs": [
						{
							"internalType": "contract Bank",
							"name": "_bank",
							"type": "address"
						}
					],
					"stateMutability": "nonpayable",
					"type": "constructor"
				},
				{
					"inputs": [],
					"name": "attackBank",
					"outputs": [],
					"stateMutability": "nonpayable",
					"type": "function"
				},
				{
					"inputs": [],
					"name": "bank",
					"outputs": [
						{
							"internalType": "contract Bank",
							"name": "",
							"type": "address"
						}
					],
					"stateMutability": "view",
					"type": "function"
				},
				{
					"stateMutability": "payable",
					"type": "receive"
				}
			],
			"devdoc": {
				"kind": "dev",
				"methods": {},
				"version": 1
			},
			"evm": {
				"assembly": "    /* \"contracts/Security/36_attackForceFeeding.sol\":94:337  contract attackForceFeeding {... */\n  mstore(0x40, 0x80)\n    /* \"contracts/Security/36_attackForceFeeding.sol\":151:204  constructor(Bank _bank) {... */\n  callvalue\n  dup1\n  iszero\n  tag_1\n  jumpi\n  revert(0x00, 0x00)\ntag_1:\n  pop\n  mload(0x40)\n  sub(codesize, bytecodeSize)\n  dup1\n  bytecodeSize\n  dup4\n  codecopy\n  dup2\n  dup2\n  add\n  0x40\n  mstore\n  dup2\n  add\n  swap1\n  tag_2\n  swap2\n  swap1\n  tag_3\n  jump\t// in\ntag_2:\n    /* \"contracts/Security/36_attackForceFeeding.sol\":192:197  _bank */\n  dup1\n    /* \"contracts/Security/36_attackForceFeeding.sol\":185:189  bank */\n  0x00\n  0x00\n    /* \"contracts/Security/36_attackForceFeeding.sol\":185:197  bank = _bank */\n  0x0100\n  exp\n  dup2\n  sload\n  dup2\n  0xffffffffffffffffffffffffffffffffffffffff\n  mul\n  not\n  and\n  swap1\n  dup4\n  0xffffffffffffffffffffffffffffffffffffffff\n  and\n  mul\n  or\n  swap1\n  sstore\n  pop\n    /* \"contracts/Security/36_attackForceFeeding.sol\":151:204  constructor(Bank _bank) {... */\n  pop\n    /* \"contracts/Security/36_attackForceFeeding.sol\":94:337  contract attackForceFeeding {... */\n  jump(tag_6)\n    /* \"#utility.yul\":88:205   */\ntag_8:\n    /* \"#utility.yul\":197:198   */\n  0x00\n    /* \"#utility.yul\":194:195   */\n  0x00\n    /* \"#utility.yul\":187:199   */\n  revert\n    /* \"#utility.yul\":334:460   */\ntag_10:\n    /* \"#utility.yul\":371:378   */\n  0x00\n    /* \"#utility.yul\":411:453   */\n  0xffffffffffffffffffffffffffffffffffffffff\n    /* \"#utility.yul\":404:409   */\n  dup3\n    /* \"#utility.yul\":400:454   */\n  and\n    /* \"#utility.yul\":389:454   */\n  swap1\n  pop\n    /* \"#utility.yul\":334:460   */\n  swap2\n  swap1\n  pop\n  jump\t// out\n    /* \"#utility.yul\":466:562   */\ntag_11:\n    /* \"#utility.yul\":503:510   */\n  0x00\n    /* \"#utility.yul\":532:556   */\n  tag_21\n    /* \"#utility.yul\":550:555   */\n  dup3\n    /* \"#utility.yul\":532:556   */\n  tag_10\n  jump\t// in\ntag_21:\n    /* \"#utility.yul\":521:556   */\n  swap1\n  pop\n    /* \"#utility.yul\":466:562   */\n  swap2\n  swap1\n  pop\n  jump\t// out\n    /* \"#utility.yul\":568:676   */\ntag_12:\n    /* \"#utility.yul\":617:624   */\n  0x00\n    /* \"#utility.yul\":646:670   */\n  tag_23\n    /* \"#utility.yul\":664:669   */\n  dup3\n    /* \"#utility.yul\":646:670   */\n  tag_11\n  jump\t// in\ntag_23:\n    /* \"#utility.yul\":635:670   */\n  swap1\n  pop\n    /* \"#utility.yul\":568:676   */\n  swap2\n  swap1\n  pop\n  jump\t// out\n    /* \"#utility.yul\":682:828   */\ntag_13:\n    /* \"#utility.yul\":767:803   */\n  tag_25\n    /* \"#utility.yul\":797:802   */\n  dup2\n    /* \"#utility.yul\":767:803   */\n  tag_12\n  jump\t// in\ntag_25:\n    /* \"#utility.yul\":760:765   */\n  dup2\n    /* \"#utility.yul\":757:804   */\n  eq\n    /* \"#utility.yul\":747:822   */\n  tag_26\n  jumpi\n    /* \"#utility.yul\":818:819   */\n  0x00\n    /* \"#utility.yul\":815:816   */\n  0x00\n    /* \"#utility.yul\":808:820   */\n  revert\n    /* \"#utility.yul\":747:822   */\ntag_26:\n    /* \"#utility.yul\":682:828   */\n  pop\n  jump\t// out\n    /* \"#utility.yul\":834:1001   */\ntag_14:\n    /* \"#utility.yul\":903:908   */\n  0x00\n    /* \"#utility.yul\":934:940   */\n  dup2\n    /* \"#utility.yul\":928:941   */\n  mload\n    /* \"#utility.yul\":919:941   */\n  swap1\n  pop\n    /* \"#utility.yul\":950:995   */\n  tag_28\n    /* \"#utility.yul\":989:994   */\n  dup2\n    /* \"#utility.yul\":950:995   */\n  tag_13\n  jump\t// in\ntag_28:\n    /* \"#utility.yul\":834:1001   */\n  swap3\n  swap2\n  pop\n  pop\n  jump\t// out\n    /* \"#utility.yul\":1007:1382   */\ntag_3:\n    /* \"#utility.yul\":1089:1095   */\n  0x00\n    /* \"#utility.yul\":1138:1140   */\n  0x20\n    /* \"#utility.yul\":1126:1135   */\n  dup3\n    /* \"#utility.yul\":1117:1124   */\n  dup5\n    /* \"#utility.yul\":1113:1136   */\n  sub\n    /* \"#utility.yul\":1109:1141   */\n  slt\n    /* \"#utility.yul\":1106:1225   */\n  iszero\n  tag_30\n  jumpi\n    /* \"#utility.yul\":1144:1223   */\n  tag_31\n  tag_8\n  jump\t// in\ntag_31:\n    /* \"#utility.yul\":1106:1225   */\ntag_30:\n    /* \"#utility.yul\":1264:1265   */\n  0x00\n    /* \"#utility.yul\":1289:1365   */\n  tag_32\n    /* \"#utility.yul\":1357:1364   */\n  dup5\n    /* \"#utility.yul\":1348:1354   */\n  dup3\n    /* \"#utility.yul\":1337:1346   */\n  dup6\n    /* \"#utility.yul\":1333:1355   */\n  add\n    /* \"#utility.yul\":1289:1365   */\n  tag_14\n  jump\t// in\ntag_32:\n    /* \"#utility.yul\":1279:1365   */\n  swap2\n  pop\n    /* \"#utility.yul\":1235:1375   */\n  pop\n    /* \"#utility.yul\":1007:1382   */\n  swap3\n  swap2\n  pop\n  pop\n  jump\t// out\n    /* \"contracts/Security/36_attackForceFeeding.sol\":94:337  contract attackForceFeeding {... */\ntag_6:\n  dataSize(sub_0)\n  dup1\n  dataOffset(sub_0)\n  0x00\n  codecopy\n  0x00\n  return\nstop\n\nsub_0: assembly {\n        /* \"contracts/Security/36_attackForceFeeding.sol\":94:337  contract attackForceFeeding {... */\n      mstore(0x40, 0x80)\n      jumpi(tag_1, lt(calldatasize, 0x04))\n      shr(0xe0, calldataload(0x00))\n      dup1\n      0x76cdb03b\n      eq\n      tag_3\n      jumpi\n      dup1\n      0xb49a7185\n      eq\n      tag_4\n      jumpi\n      jump(tag_2)\n    tag_1:\n      jumpi(tag_2, calldatasize)\n      stop\n    tag_2:\n      revert(0x00, 0x00)\n        /* \"contracts/Security/36_attackForceFeeding.sol\":128:144  Bank public bank */\n    tag_3:\n      callvalue\n      dup1\n      iszero\n      tag_7\n      jumpi\n      revert(0x00, 0x00)\n    tag_7:\n      pop\n      tag_8\n      tag_9\n      jump\t// in\n    tag_8:\n      mload(0x40)\n      tag_10\n      swap2\n      swap1\n      tag_11\n      jump\t// in\n    tag_10:\n      mload(0x40)\n      dup1\n      swap2\n      sub\n      swap1\n      return\n        /* \"contracts/Security/36_attackForceFeeding.sol\":245:335  function attackBank() external {... */\n    tag_4:\n      callvalue\n      dup1\n      iszero\n      tag_12\n      jumpi\n      revert(0x00, 0x00)\n    tag_12:\n      pop\n      tag_13\n      tag_14\n      jump\t// in\n    tag_13:\n      stop\n        /* \"contracts/Security/36_attackForceFeeding.sol\":128:144  Bank public bank */\n    tag_9:\n      0x00\n      0x00\n      swap1\n      sload\n      swap1\n      0x0100\n      exp\n      swap1\n      div\n      0xffffffffffffffffffffffffffffffffffffffff\n      and\n      dup2\n      jump\t// out\n        /* \"contracts/Security/36_attackForceFeeding.sol\":245:335  function attackBank() external {... */\n    tag_14:\n      jump\t// out\n        /* \"#utility.yul\":7:133   */\n    tag_16:\n        /* \"#utility.yul\":44:51   */\n      0x00\n        /* \"#utility.yul\":84:126   */\n      0xffffffffffffffffffffffffffffffffffffffff\n        /* \"#utility.yul\":77:82   */\n      dup3\n        /* \"#utility.yul\":73:127   */\n      and\n        /* \"#utility.yul\":62:127   */\n      swap1\n      pop\n        /* \"#utility.yul\":7:133   */\n      swap2\n      swap1\n      pop\n      jump\t// out\n        /* \"#utility.yul\":139:199   */\n    tag_17:\n        /* \"#utility.yul\":167:170   */\n      0x00\n        /* \"#utility.yul\":188:193   */\n      dup2\n        /* \"#utility.yul\":181:193   */\n      swap1\n      pop\n        /* \"#utility.yul\":139:199   */\n      swap2\n      swap1\n      pop\n      jump\t// out\n        /* \"#utility.yul\":205:347   */\n    tag_18:\n        /* \"#utility.yul\":255:264   */\n      0x00\n        /* \"#utility.yul\":288:341   */\n      tag_26\n        /* \"#utility.yul\":306:340   */\n      tag_27\n        /* \"#utility.yul\":315:339   */\n      tag_28\n        /* \"#utility.yul\":333:338   */\n      dup5\n        /* \"#utility.yul\":315:339   */\n      tag_16\n      jump\t// in\n    tag_28:\n        /* \"#utility.yul\":306:340   */\n      tag_17\n      jump\t// in\n    tag_27:\n        /* \"#utility.yul\":288:341   */\n      tag_16\n      jump\t// in\n    tag_26:\n        /* \"#utility.yul\":275:341   */\n      swap1\n      pop\n        /* \"#utility.yul\":205:347   */\n      swap2\n      swap1\n      pop\n      jump\t// out\n        /* \"#utility.yul\":353:479   */\n    tag_19:\n        /* \"#utility.yul\":403:412   */\n      0x00\n        /* \"#utility.yul\":436:473   */\n      tag_30\n        /* \"#utility.yul\":467:472   */\n      dup3\n        /* \"#utility.yul\":436:473   */\n      tag_18\n      jump\t// in\n    tag_30:\n        /* \"#utility.yul\":423:473   */\n      swap1\n      pop\n        /* \"#utility.yul\":353:479   */\n      swap2\n      swap1\n      pop\n      jump\t// out\n        /* \"#utility.yul\":485:623   */\n    tag_20:\n        /* \"#utility.yul\":547:556   */\n      0x00\n        /* \"#utility.yul\":580:617   */\n      tag_32\n        /* \"#utility.yul\":611:616   */\n      dup3\n        /* \"#utility.yul\":580:617   */\n      tag_19\n      jump\t// in\n    tag_32:\n        /* \"#utility.yul\":567:617   */\n      swap1\n      pop\n        /* \"#utility.yul\":485:623   */\n      swap2\n      swap1\n      pop\n      jump\t// out\n        /* \"#utility.yul\":629:784   */\n    tag_21:\n        /* \"#utility.yul\":728:777   */\n      tag_34\n        /* \"#utility.yul\":771:776   */\n      dup2\n        /* \"#utility.yul\":728:777   */\n      tag_20\n      jump\t// in\n    tag_34:\n        /* \"#utility.yul\":723:726   */\n      dup3\n        /* \"#utility.yul\":716:778   */\n      mstore\n        /* \"#utility.yul\":629:784   */\n      pop\n      pop\n      jump\t// out\n        /* \"#utility.yul\":790:1036   */\n    tag_11:\n        /* \"#utility.yul\":895:899   */\n      0x00\n        /* \"#utility.yul\":933:935   */\n      0x20\n        /* \"#utility.yul\":922:931   */\n      dup3\n        /* \"#utility.yul\":918:936   */\n      add\n        /* \"#utility.yul\":910:936   */\n      swap1\n      pop\n        /* \"#utility.yul\":946:1029   */\n      tag_36\n        /* \"#utility.yul\":1026:1027   */\n      0x00\n        /* \"#utility.yul\":1015:1024   */\n      dup4\n        /* \"#utility.yul\":1011:1028   */\n      add\n        /* \"#utility.yul\":1002:1008   */\n      dup5\n        /* \"#utility.yul\":946:1029   */\n      tag_21\n      jump\t// in\n    tag_36:\n        /* \"#utility.yul\":790:1036   */\n      swap3\n      swap2\n      pop\n      pop\n      jump\t// out\n\n    auxdata: 0xa2646970667358221220cbd223bee04f9b110f1131be7c3ed072629512dbaa8466ad4c4fc5f3a9c4aa1864736f6c634300081c0033\n}\n",
				"bytecode": {
					"linkReferences": {},
					"object": "608060405234801561000f575f5ffd5b50604051610283380380610283833981810160405281019061003191906100e5565b805f5f6101000a81548173ffffffffffffffffffffffffffffffffffffffff021916908373ffffffffffffffffffffffffffffffffffffffff16021790555050610110565b5f5ffd5b5f73ffffffffffffffffffffffffffffffffffffffff82169050919050565b5f6100a38261007a565b9050919050565b5f6100b482610099565b9050919050565b6100c4816100aa565b81146100ce575f5ffd5b50565b5f815190506100df816100bb565b92915050565b5f602082840312156100fa576100f9610076565b5b5f610107848285016100d1565b91505092915050565b6101668061011d5f395ff3fe60806040526004361061002c575f3560e01c806376cdb03b14610037578063b49a71851461006157610033565b3661003357005b5f5ffd5b348015610042575f5ffd5b5061004b610077565b6040516100589190610117565b60405180910390f35b34801561006c575f5ffd5b5061007561009b565b005b5f5f9054906101000a900473ffffffffffffffffffffffffffffffffffffffff1681565b565b5f73ffffffffffffffffffffffffffffffffffffffff82169050919050565b5f819050919050565b5f6100df6100da6100d58461009d565b6100bc565b61009d565b9050919050565b5f6100f0826100c5565b9050919050565b5f610101826100e6565b9050919050565b610111816100f7565b82525050565b5f60208201905061012a5f830184610108565b9291505056fea2646970667358221220cbd223bee04f9b110f1131be7c3ed072629512dbaa8466ad4c4fc5f3a9c4aa1864736f6c634300081c0033",
					"opcodes": "PUSH1 0x80 PUSH1 0x40 MSTORE CALLVALUE DUP1 ISZERO PUSH2 0xF JUMPI PUSH0 PUSH0 REVERT JUMPDEST POP PUSH1 0x40 MLOAD PUSH2 0x283 CODESIZE SUB DUP1 PUSH2 0x283 DUP4 CODECOPY DUP2 DUP2 ADD PUSH1 0x40 MSTORE DUP2 ADD SWAP1 PUSH2 0x31 SWAP2 SWAP1 PUSH2 0xE5 JUMP JUMPDEST DUP1 PUSH0 PUSH0 PUSH2 0x100 EXP DUP2 SLOAD DUP2 PUSH20 0xFFFFFFFFFFFFFFFFFFFFFFFFFFFFFFFFFFFFFFFF MUL NOT AND SWAP1 DUP4 PUSH20 0xFFFFFFFFFFFFFFFFFFFFFFFFFFFFFFFFFFFFFFFF AND MUL OR SWAP1 SSTORE POP POP PUSH2 0x110 JUMP JUMPDEST PUSH0 PUSH0 REVERT JUMPDEST PUSH0 PUSH20 0xFFFFFFFFFFFFFFFFFFFFFFFFFFFFFFFFFFFFFFFF DUP3 AND SWAP1 POP SWAP2 SWAP1 POP JUMP JUMPDEST PUSH0 PUSH2 0xA3 DUP3 PUSH2 0x7A JUMP JUMPDEST SWAP1 POP SWAP2 SWAP1 POP JUMP JUMPDEST PUSH0 PUSH2 0xB4 DUP3 PUSH2 0x99 JUMP JUMPDEST SWAP1 POP SWAP2 SWAP1 POP JUMP JUMPDEST PUSH2 0xC4 DUP2 PUSH2 0xAA JUMP JUMPDEST DUP2 EQ PUSH2 0xCE JUMPI PUSH0 PUSH0 REVERT JUMPDEST POP JUMP JUMPDEST PUSH0 DUP2 MLOAD SWAP1 POP PUSH2 0xDF DUP2 PUSH2 0xBB JUMP JUMPDEST SWAP3 SWAP2 POP POP JUMP JUMPDEST PUSH0 PUSH1 0x20 DUP3 DUP5 SUB SLT ISZERO PUSH2 0xFA JUMPI PUSH2 0xF9 PUSH2 0x76 JUMP JUMPDEST JUMPDEST PUSH0 PUSH2 0x107 DUP5 DUP3 DUP6 ADD PUSH2 0xD1 JUMP JUMPDEST SWAP2 POP POP SWAP3 SWAP2 POP POP JUMP JUMPDEST PUSH2 0x166 DUP1 PUSH2 0x11D PUSH0 CODECOPY PUSH0 RETURN INVALID PUSH1 0x80 PUSH1 0x40 MSTORE PUSH1 0x4 CALLDATASIZE LT PUSH2 0x2C JUMPI PUSH0 CALLDATALOAD PUSH1 0xE0 SHR DUP1 PUSH4 0x76CDB03B EQ PUSH2 0x37 JUMPI DUP1 PUSH4 0xB49A7185 EQ PUSH2 0x61 JUMPI PUSH2 0x33 JUMP JUMPDEST CALLDATASIZE PUSH2 0x33 JUMPI STOP JUMPDEST PUSH0 PUSH0 REVERT JUMPDEST CALLVALUE DUP1 ISZERO PUSH2 0x42 JUMPI PUSH0 PUSH0 REVERT JUMPDEST POP PUSH2 0x4B PUSH2 0x77 JUMP JUMPDEST PUSH1 0x40 MLOAD PUSH2 0x58 SWAP2 SWAP1 PUSH2 0x117 JUMP JUMPDEST PUSH1 0x40 MLOAD DUP1 SWAP2 SUB SWAP1 RETURN JUMPDEST CALLVALUE DUP1 ISZERO PUSH2 0x6C JUMPI PUSH0 PUSH0 REVERT JUMPDEST POP PUSH2 0x75 PUSH2 0x9B JUMP JUMPDEST STOP JUMPDEST PUSH0 PUSH0 SWAP1 SLOAD SWAP1 PUSH2 0x100 EXP SWAP1 DIV PUSH20 0xFFFFFFFFFFFFFFFFFFFFFFFFFFFFFFFFFFFFFFFF AND DUP2 JUMP JUMPDEST JUMP JUMPDEST PUSH0 PUSH20 0xFFFFFFFFFFFFFFFFFFFFFFFFFFFFFFFFFFFFFFFF DUP3 AND SWAP1 POP SWAP2 SWAP1 POP JUMP JUMPDEST PUSH0 DUP2 SWAP1 POP SWAP2 SWAP1 POP JUMP JUMPDEST PUSH0 PUSH2 0xDF PUSH2 0xDA PUSH2 0xD5 DUP5 PUSH2 0x9D JUMP JUMPDEST PUSH2 0xBC JUMP JUMPDEST PUSH2 0x9D JUMP JUMPDEST SWAP1 POP SWAP2 SWAP1 POP JUMP JUMPDEST PUSH0 PUSH2 0xF0 DUP3 PUSH2 0xC5 JUMP JUMPDEST SWAP1 POP SWAP2 SWAP1 POP JUMP JUMPDEST PUSH0 PUSH2 0x101 DUP3 PUSH2 0xE6 JUMP JUMPDEST SWAP1 POP SWAP2 SWAP1 POP JUMP JUMPDEST PUSH2 0x111 DUP2 PUSH2 0xF7 JUMP JUMPDEST DUP3 MSTORE POP POP JUMP JUMPDEST PUSH0 PUSH1 0x20 DUP3 ADD SWAP1 POP PUSH2 0x12A PUSH0 DUP4 ADD DUP5 PUSH2 0x108 JUMP JUMPDEST SWAP3 SWAP2 POP POP JUMP INVALID LOG2 PUSH5 0x6970667358 0x22 SLT KECCAK256 0xCB 0xD2 0x23 0xBE 0xE0 0x4F SWAP12 GT 0xF GT BALANCE 0xBE PUSH29 0x3ED072629512DBAA8466AD4C4FC5F3A9C4AA1864736F6C634300081C00 CALLER "
				},
				"gasEstimates": {
					"creation": {
						"codeDepositCost": "71600",
						"executionCost": "infinite",
						"totalCost": "infinite"
					},
					"external": {
						"attackBank()": "143",
						"bank()": "infinite"
					}
				},
				"methodIdentifiers": {
					"attackBank()": "b49a7185",
					"bank()": "76cdb03b"
				}
			},
			"storageLayout": {
				"storage": [
					{
						"astId": 5,
						"contract": "contracts/Security/36_attackForceFeeding.sol:attackForceFeeding",
						"label": "bank",
						"offset": 0,
						"slot": "0",
						"type": "t_contract(Bank)105"
					}
				],
				"types": {
					"t_contract(Bank)105": {
						"encoding": "inplace",
						"label": "contract Bank",
						"numberOfBytes": "20"
					}
				}
			},
			"userdoc": {
				"kind": "user",
				"methods": {},
				"version": 1
			}
		}
	}
}