{
	"contracts/Security/12_pullPayment.sol": {
		"auction": {
			"abi": [
				{
					"inputs": [],
					"name": "bid",
					"outputs": [],
					"stateMutability": "payable",
					"type": "function"
				},
				{
					"inputs": [],
					"name": "withdrawRefund",
					"outputs": [],
					"stateMutability": "payable",
					"type": "function"
				}
			],
			"devdoc": {
				"kind": "dev",
				"methods": {},
				"version": 1
			},
			"evm": {
				"assembly": "    /* \"contracts/Security/12_pullPayment.sol\":61:651  contract auction {... */\n  mstore(0x40, 0x80)\n  callvalue\n  dup1\n  iszero\n  tag_1\n  jumpi\n  revert(0x00, 0x00)\ntag_1:\n  pop\n  dataSize(sub_0)\n  dup1\n  dataOffset(sub_0)\n  0x00\n  codecopy\n  0x00\n  return\nstop\n\nsub_0: assembly {\n        /* \"contracts/Security/12_pullPayment.sol\":61:651  contract auction {... */\n      mstore(0x40, 0x80)\n      jumpi(tag_1, lt(calldatasize, 0x04))\n      shr(0xe0, calldataload(0x00))\n      dup1\n      0x110f8874\n      eq\n      tag_2\n      jumpi\n      dup1\n      0x1998aeef\n      eq\n      tag_3\n      jumpi\n    tag_1:\n      revert(0x00, 0x00)\n        /* \"contracts/Security/12_pullPayment.sol\":435:649  function withdrawRefund() public payable {... */\n    tag_2:\n      tag_4\n      tag_5\n      jump\t// in\n    tag_4:\n      stop\n        /* \"contracts/Security/12_pullPayment.sol\":177:429  function bid() public payable {... */\n    tag_3:\n      tag_6\n      tag_7\n      jump\t// in\n    tag_6:\n      stop\n        /* \"contracts/Security/12_pullPayment.sol\":435:649  function withdrawRefund() public payable {... */\n    tag_5:\n        /* \"contracts/Security/12_pullPayment.sol\":486:500  uint256 refund */\n      0x00\n        /* \"contracts/Security/12_pullPayment.sol\":503:510  refunds */\n      0x02\n        /* \"contracts/Security/12_pullPayment.sol\":503:522  refunds[msg.sender] */\n      0x00\n        /* \"contracts/Security/12_pullPayment.sol\":511:521  msg.sender */\n      caller\n        /* \"contracts/Security/12_pullPayment.sol\":503:522  refunds[msg.sender] */\n      0xffffffffffffffffffffffffffffffffffffffff\n      and\n      0xffffffffffffffffffffffffffffffffffffffff\n      and\n      dup2\n      mstore\n      0x20\n      add\n      swap1\n      dup2\n      mstore\n      0x20\n      add\n      0x00\n      keccak256\n      sload\n        /* \"contracts/Security/12_pullPayment.sol\":486:522  uint256 refund = refunds[msg.sender] */\n      swap1\n      pop\n        /* \"contracts/Security/12_pullPayment.sol\":554:555  0 */\n      0x00\n        /* \"contracts/Security/12_pullPayment.sol\":532:539  refunds */\n      0x02\n        /* \"contracts/Security/12_pullPayment.sol\":532:551  refunds[msg.sender] */\n      0x00\n        /* \"contracts/Security/12_pullPayment.sol\":540:550  msg.sender */\n      caller\n        /* \"contracts/Security/12_pullPayment.sol\":532:551  refunds[msg.sender] */\n      0xffffffffffffffffffffffffffffffffffffffff\n      and\n      0xffffffffffffffffffffffffffffffffffffffff\n      and\n      dup2\n      mstore\n      0x20\n      add\n      swap1\n      dup2\n      mstore\n      0x20\n      add\n      0x00\n      keccak256\n        /* \"contracts/Security/12_pullPayment.sol\":532:555  refunds[msg.sender] = 0 */\n      dup2\n      swap1\n      sstore\n      pop\n        /* \"contracts/Security/12_pullPayment.sol\":566:577  bool succes */\n      0x00\n        /* \"contracts/Security/12_pullPayment.sol\":583:593  msg.sender */\n      caller\n        /* \"contracts/Security/12_pullPayment.sol\":583:598  msg.sender.call */\n      0xffffffffffffffffffffffffffffffffffffffff\n      and\n        /* \"contracts/Security/12_pullPayment.sol\":606:612  refund */\n      dup3\n        /* \"contracts/Security/12_pullPayment.sol\":583:617  msg.sender.call{value: refund}(\"\") */\n      mload(0x40)\n      tag_9\n      swap1\n      tag_10\n      jump\t// in\n    tag_9:\n      0x00\n      mload(0x40)\n      dup1\n      dup4\n      sub\n      dup2\n      dup6\n      dup8\n      gas\n      call\n      swap3\n      pop\n      pop\n      pop\n      returndatasize\n      dup1\n      0x00\n      dup2\n      eq\n      tag_13\n      jumpi\n      mload(0x40)\n      swap2\n      pop\n      and(add(returndatasize, 0x3f), not(0x1f))\n      dup3\n      add\n      0x40\n      mstore\n      returndatasize\n      dup3\n      mstore\n      returndatasize\n      0x00\n      0x20\n      dup5\n      add\n      returndatacopy\n      jump(tag_12)\n    tag_13:\n      0x60\n      swap2\n      pop\n    tag_12:\n      pop\n        /* \"contracts/Security/12_pullPayment.sol\":565:617  (bool succes, ) = msg.sender.call{value: refund}(\"\") */\n      pop\n      swap1\n      pop\n        /* \"contracts/Security/12_pullPayment.sol\":635:641  succes */\n      dup1\n        /* \"contracts/Security/12_pullPayment.sol\":627:642  require(succes) */\n      tag_14\n      jumpi\n      revert(0x00, 0x00)\n    tag_14:\n        /* \"contracts/Security/12_pullPayment.sol\":476:649  {... */\n      pop\n      pop\n        /* \"contracts/Security/12_pullPayment.sol\":435:649  function withdrawRefund() public payable {... */\n      jump\t// out\n        /* \"contracts/Security/12_pullPayment.sol\":177:429  function bid() public payable {... */\n    tag_7:\n        /* \"contracts/Security/12_pullPayment.sol\":238:248  highestBid */\n      sload(0x01)\n        /* \"contracts/Security/12_pullPayment.sol\":225:234  msg.value */\n      callvalue\n        /* \"contracts/Security/12_pullPayment.sol\":225:248  msg.value >= highestBid */\n      lt\n      iszero\n        /* \"contracts/Security/12_pullPayment.sol\":217:249  require(msg.value >= highestBid) */\n      tag_16\n      jumpi\n      revert(0x00, 0x00)\n    tag_16:\n        /* \"contracts/Security/12_pullPayment.sol\":289:290  0 */\n      0x00\n        /* \"contracts/Security/12_pullPayment.sol\":264:291  highestBidder != address(0) */\n      0xffffffffffffffffffffffffffffffffffffffff\n      and\n        /* \"contracts/Security/12_pullPayment.sol\":264:277  highestBidder */\n      0x00\n      0x00\n      swap1\n      sload\n      swap1\n      0x0100\n      exp\n      swap1\n      div\n      0xffffffffffffffffffffffffffffffffffffffff\n      and\n        /* \"contracts/Security/12_pullPayment.sol\":264:291  highestBidder != address(0) */\n      0xffffffffffffffffffffffffffffffffffffffff\n      and\n      eq\n        /* \"contracts/Security/12_pullPayment.sol\":260:354  if (highestBidder != address(0)) {... */\n      tag_17\n      jumpi\n        /* \"contracts/Security/12_pullPayment.sol\":333:343  highestBid */\n      sload(0x01)\n        /* \"contracts/Security/12_pullPayment.sol\":307:314  refunds */\n      0x02\n        /* \"contracts/Security/12_pullPayment.sol\":307:329  refunds[highestBidder] */\n      0x00\n        /* \"contracts/Security/12_pullPayment.sol\":315:328  highestBidder */\n      0x00\n      0x00\n      swap1\n      sload\n      swap1\n      0x0100\n      exp\n      swap1\n      div\n      0xffffffffffffffffffffffffffffffffffffffff\n      and\n        /* \"contracts/Security/12_pullPayment.sol\":307:329  refunds[highestBidder] */\n      0xffffffffffffffffffffffffffffffffffffffff\n      and\n      0xffffffffffffffffffffffffffffffffffffffff\n      and\n      dup2\n      mstore\n      0x20\n      add\n      swap1\n      dup2\n      mstore\n      0x20\n      add\n      0x00\n      keccak256\n      0x00\n        /* \"contracts/Security/12_pullPayment.sol\":307:343  refunds[highestBidder] += highestBid */\n      dup3\n      dup3\n      sload\n      tag_18\n      swap2\n      swap1\n      tag_19\n      jump\t// in\n    tag_18:\n      swap3\n      pop\n      pop\n      dup2\n      swap1\n      sstore\n      pop\n        /* \"contracts/Security/12_pullPayment.sol\":260:354  if (highestBidder != address(0)) {... */\n    tag_17:\n        /* \"contracts/Security/12_pullPayment.sol\":380:390  msg.sender */\n      caller\n        /* \"contracts/Security/12_pullPayment.sol\":364:377  highestBidder */\n      0x00\n      0x00\n        /* \"contracts/Security/12_pullPayment.sol\":364:390  highestBidder = msg.sender */\n      0x0100\n      exp\n      dup2\n      sload\n      dup2\n      0xffffffffffffffffffffffffffffffffffffffff\n      mul\n      not\n      and\n      swap1\n      dup4\n      0xffffffffffffffffffffffffffffffffffffffff\n      and\n      mul\n      or\n      swap1\n      sstore\n      pop\n        /* \"contracts/Security/12_pullPayment.sol\":413:422  msg.value */\n      callvalue\n        /* \"contracts/Security/12_pullPayment.sol\":400:410  highestBid */\n      0x01\n        /* \"contracts/Security/12_pullPayment.sol\":400:422  highestBid = msg.value */\n      dup2\n      swap1\n      sstore\n      pop\n        /* \"contracts/Security/12_pullPayment.sol\":177:429  function bid() public payable {... */\n      jump\t// out\n        /* \"#utility.yul\":7:154   */\n    tag_20:\n        /* \"#utility.yul\":108:119   */\n      0x00\n        /* \"#utility.yul\":145:148   */\n      dup2\n        /* \"#utility.yul\":130:148   */\n      swap1\n      pop\n        /* \"#utility.yul\":7:154   */\n      swap3\n      swap2\n      pop\n      pop\n      jump\t// out\n        /* \"#utility.yul\":160:274   */\n    tag_21:\n      pop\n      jump\t// out\n        /* \"#utility.yul\":280:678   */\n    tag_22:\n        /* \"#utility.yul\":439:442   */\n      0x00\n        /* \"#utility.yul\":460:543   */\n      tag_29\n        /* \"#utility.yul\":541:542   */\n      0x00\n        /* \"#utility.yul\":536:539   */\n      dup4\n        /* \"#utility.yul\":460:543   */\n      tag_20\n      jump\t// in\n    tag_29:\n        /* \"#utility.yul\":453:543   */\n      swap2\n      pop\n        /* \"#utility.yul\":552:645   */\n      tag_30\n        /* \"#utility.yul\":641:644   */\n      dup3\n        /* \"#utility.yul\":552:645   */\n      tag_21\n      jump\t// in\n    tag_30:\n        /* \"#utility.yul\":670:671   */\n      0x00\n        /* \"#utility.yul\":665:668   */\n      dup3\n        /* \"#utility.yul\":661:672   */\n      add\n        /* \"#utility.yul\":654:672   */\n      swap1\n      pop\n        /* \"#utility.yul\":280:678   */\n      swap2\n      swap1\n      pop\n      jump\t// out\n        /* \"#utility.yul\":684:1063   */\n    tag_10:\n        /* \"#utility.yul\":868:871   */\n      0x00\n        /* \"#utility.yul\":890:1037   */\n      tag_32\n        /* \"#utility.yul\":1033:1036   */\n      dup3\n        /* \"#utility.yul\":890:1037   */\n      tag_22\n      jump\t// in\n    tag_32:\n        /* \"#utility.yul\":883:1037   */\n      swap2\n      pop\n        /* \"#utility.yul\":1054:1057   */\n      dup2\n        /* \"#utility.yul\":1047:1057   */\n      swap1\n      pop\n        /* \"#utility.yul\":684:1063   */\n      swap2\n      swap1\n      pop\n      jump\t// out\n        /* \"#utility.yul\":1069:1146   */\n    tag_23:\n        /* \"#utility.yul\":1106:1113   */\n      0x00\n        /* \"#utility.yul\":1135:1140   */\n      dup2\n        /* \"#utility.yul\":1124:1140   */\n      swap1\n      pop\n        /* \"#utility.yul\":1069:1146   */\n      swap2\n      swap1\n      pop\n      jump\t// out\n        /* \"#utility.yul\":1152:1332   */\n    tag_24:\n        /* \"#utility.yul\":1200:1277   */\n      0x4e487b7100000000000000000000000000000000000000000000000000000000\n        /* \"#utility.yul\":1197:1198   */\n      0x00\n        /* \"#utility.yul\":1190:1278   */\n      mstore\n        /* \"#utility.yul\":1297:1301   */\n      0x11\n        /* \"#utility.yul\":1294:1295   */\n      0x04\n        /* \"#utility.yul\":1287:1302   */\n      mstore\n        /* \"#utility.yul\":1321:1325   */\n      0x24\n        /* \"#utility.yul\":1318:1319   */\n      0x00\n        /* \"#utility.yul\":1311:1326   */\n      revert\n        /* \"#utility.yul\":1338:1529   */\n    tag_19:\n        /* \"#utility.yul\":1378:1381   */\n      0x00\n        /* \"#utility.yul\":1397:1417   */\n      tag_36\n        /* \"#utility.yul\":1415:1416   */\n      dup3\n        /* \"#utility.yul\":1397:1417   */\n      tag_23\n      jump\t// in\n    tag_36:\n        /* \"#utility.yul\":1392:1417   */\n      swap2\n      pop\n        /* \"#utility.yul\":1431:1451   */\n      tag_37\n        /* \"#utility.yul\":1449:1450   */\n      dup4\n        /* \"#utility.yul\":1431:1451   */\n      tag_23\n      jump\t// in\n    tag_37:\n        /* \"#utility.yul\":1426:1451   */\n      swap3\n      pop\n        /* \"#utility.yul\":1474:1475   */\n      dup3\n        /* \"#utility.yul\":1471:1472   */\n      dup3\n        /* \"#utility.yul\":1467:1476   */\n      add\n        /* \"#utility.yul\":1460:1476   */\n      swap1\n      pop\n        /* \"#utility.yul\":1495:1498   */\n      dup1\n        /* \"#utility.yul\":1492:1493   */\n      dup3\n        /* \"#utility.yul\":1489:1499   */\n      gt\n        /* \"#utility.yul\":1486:1522   */\n      iszero\n      tag_38\n      jumpi\n        /* \"#utility.yul\":1502:1520   */\n      tag_39\n      tag_24\n      jump\t// in\n    tag_39:\n        /* \"#utility.yul\":1486:1522   */\n    tag_38:\n        /* \"#utility.yul\":1338:1529   */\n      swap3\n      swap2\n      pop\n      pop\n      jump\t// out\n\n    auxdata: 0xa2646970667358221220523a94be6f59a7947354fd078865e13adc7f0438c80dda8dd3a732f514376d3364736f6c634300081c0033\n}\n",
				"bytecode": {
					"linkReferences": {},
					"object": "6080604052348015600e575f5ffd5b506103378061001c5f395ff3fe608060405260043610610028575f3560e01c8063110f88741461002c5780631998aeef14610036575b5f5ffd5b610034610040565b005b61003e610138565b005b5f60025f3373ffffffffffffffffffffffffffffffffffffffff1673ffffffffffffffffffffffffffffffffffffffff1681526020019081526020015f205490505f60025f3373ffffffffffffffffffffffffffffffffffffffff1673ffffffffffffffffffffffffffffffffffffffff1681526020019081526020015f20819055505f3373ffffffffffffffffffffffffffffffffffffffff16826040516100e890610284565b5f6040518083038185875af1925050503d805f8114610122576040519150601f19603f3d011682016040523d82523d5f602084013e610127565b606091505b5050905080610134575f5ffd5b5050565b600154341015610146575f5ffd5b5f73ffffffffffffffffffffffffffffffffffffffff165f5f9054906101000a900473ffffffffffffffffffffffffffffffffffffffff1673ffffffffffffffffffffffffffffffffffffffff161461020f5760015460025f5f5f9054906101000a900473ffffffffffffffffffffffffffffffffffffffff1673ffffffffffffffffffffffffffffffffffffffff1673ffffffffffffffffffffffffffffffffffffffff1681526020019081526020015f205f82825461020791906102ce565b925050819055505b335f5f6101000a81548173ffffffffffffffffffffffffffffffffffffffff021916908373ffffffffffffffffffffffffffffffffffffffff16021790555034600181905550565b5f81905092915050565b50565b5f61026f5f83610257565b915061027a82610261565b5f82019050919050565b5f61028e82610264565b9150819050919050565b5f819050919050565b7f4e487b71000000000000000000000000000000000000000000000000000000005f52601160045260245ffd5b5f6102d882610298565b91506102e383610298565b92508282019050808211156102fb576102fa6102a1565b5b9291505056fea2646970667358221220523a94be6f59a7947354fd078865e13adc7f0438c80dda8dd3a732f514376d3364736f6c634300081c0033",
					"opcodes": "PUSH1 0x80 PUSH1 0x40 MSTORE CALLVALUE DUP1 ISZERO PUSH1 0xE JUMPI PUSH0 PUSH0 REVERT JUMPDEST POP PUSH2 0x337 DUP1 PUSH2 0x1C PUSH0 CODECOPY PUSH0 RETURN INVALID PUSH1 0x80 PUSH1 0x40 MSTORE PUSH1 0x4 CALLDATASIZE LT PUSH2 0x28 JUMPI PUSH0 CALLDATALOAD PUSH1 0xE0 SHR DUP1 PUSH4 0x110F8874 EQ PUSH2 0x2C JUMPI DUP1 PUSH4 0x1998AEEF EQ PUSH2 0x36 JUMPI JUMPDEST PUSH0 PUSH0 REVERT JUMPDEST PUSH2 0x34 PUSH2 0x40 JUMP JUMPDEST STOP JUMPDEST PUSH2 0x3E PUSH2 0x138 JUMP JUMPDEST STOP JUMPDEST PUSH0 PUSH1 0x2 PUSH0 CALLER PUSH20 0xFFFFFFFFFFFFFFFFFFFFFFFFFFFFFFFFFFFFFFFF AND PUSH20 0xFFFFFFFFFFFFFFFFFFFFFFFFFFFFFFFFFFFFFFFF AND DUP2 MSTORE PUSH1 0x20 ADD SWAP1 DUP2 MSTORE PUSH1 0x20 ADD PUSH0 KECCAK256 SLOAD SWAP1 POP PUSH0 PUSH1 0x2 PUSH0 CALLER PUSH20 0xFFFFFFFFFFFFFFFFFFFFFFFFFFFFFFFFFFFFFFFF AND PUSH20 0xFFFFFFFFFFFFFFFFFFFFFFFFFFFFFFFFFFFFFFFF AND DUP2 MSTORE PUSH1 0x20 ADD SWAP1 DUP2 MSTORE PUSH1 0x20 ADD PUSH0 KECCAK256 DUP2 SWAP1 SSTORE POP PUSH0 CALLER PUSH20 0xFFFFFFFFFFFFFFFFFFFFFFFFFFFFFFFFFFFFFFFF AND DUP3 PUSH1 0x40 MLOAD PUSH2 0xE8 SWAP1 PUSH2 0x284 JUMP JUMPDEST PUSH0 PUSH1 0x40 MLOAD DUP1 DUP4 SUB DUP2 DUP6 DUP8 GAS CALL SWAP3 POP POP POP RETURNDATASIZE DUP1 PUSH0 DUP2 EQ PUSH2 0x122 JUMPI PUSH1 0x40 MLOAD SWAP2 POP PUSH1 0x1F NOT PUSH1 0x3F RETURNDATASIZE ADD AND DUP3 ADD PUSH1 0x40 MSTORE RETURNDATASIZE DUP3 MSTORE RETURNDATASIZE PUSH0 PUSH1 0x20 DUP5 ADD RETURNDATACOPY PUSH2 0x127 JUMP JUMPDEST PUSH1 0x60 SWAP2 POP JUMPDEST POP POP SWAP1 POP DUP1 PUSH2 0x134 JUMPI PUSH0 PUSH0 REVERT JUMPDEST POP POP JUMP JUMPDEST PUSH1 0x1 SLOAD CALLVALUE LT ISZERO PUSH2 0x146 JUMPI PUSH0 PUSH0 REVERT JUMPDEST PUSH0 PUSH20 0xFFFFFFFFFFFFFFFFFFFFFFFFFFFFFFFFFFFFFFFF AND PUSH0 PUSH0 SWAP1 SLOAD SWAP1 PUSH2 0x100 EXP SWAP1 DIV PUSH20 0xFFFFFFFFFFFFFFFFFFFFFFFFFFFFFFFFFFFFFFFF AND PUSH20 0xFFFFFFFFFFFFFFFFFFFFFFFFFFFFFFFFFFFFFFFF AND EQ PUSH2 0x20F JUMPI PUSH1 0x1 SLOAD PUSH1 0x2 PUSH0 PUSH0 PUSH0 SWAP1 SLOAD SWAP1 PUSH2 0x100 EXP SWAP1 DIV PUSH20 0xFFFFFFFFFFFFFFFFFFFFFFFFFFFFFFFFFFFFFFFF AND PUSH20 0xFFFFFFFFFFFFFFFFFFFFFFFFFFFFFFFFFFFFFFFF AND PUSH20 0xFFFFFFFFFFFFFFFFFFFFFFFFFFFFFFFFFFFFFFFF AND DUP2 MSTORE PUSH1 0x20 ADD SWAP1 DUP2 MSTORE PUSH1 0x20 ADD PUSH0 KECCAK256 PUSH0 DUP3 DUP3 SLOAD PUSH2 0x207 SWAP2 SWAP1 PUSH2 0x2CE JUMP JUMPDEST SWAP3 POP POP DUP2 SWAP1 SSTORE POP JUMPDEST CALLER PUSH0 PUSH0 PUSH2 0x100 EXP DUP2 SLOAD DUP2 PUSH20 0xFFFFFFFFFFFFFFFFFFFFFFFFFFFFFFFFFFFFFFFF MUL NOT AND SWAP1 DUP4 PUSH20 0xFFFFFFFFFFFFFFFFFFFFFFFFFFFFFFFFFFFFFFFF AND MUL OR SWAP1 SSTORE POP CALLVALUE PUSH1 0x1 DUP2 SWAP1 SSTORE POP JUMP JUMPDEST PUSH0 DUP2 SWAP1 POP SWAP3 SWAP2 POP POP JUMP JUMPDEST POP JUMP JUMPDEST PUSH0 PUSH2 0x26F PUSH0 DUP4 PUSH2 0x257 JUMP JUMPDEST SWAP2 POP PUSH2 0x27A DUP3 PUSH2 0x261 JUMP JUMPDEST PUSH0 DUP3 ADD SWAP1 POP SWAP2 SWAP1 POP JUMP JUMPDEST PUSH0 PUSH2 0x28E DUP3 PUSH2 0x264 JUMP JUMPDEST SWAP2 POP DUP2 SWAP1 POP SWAP2 SWAP1 POP JUMP JUMPDEST PUSH0 DUP2 SWAP1 POP SWAP2 SWAP1 POP JUMP JUMPDEST PUSH32 0x4E487B7100000000000000000000000000000000000000000000000000000000 PUSH0 MSTORE PUSH1 0x11 PUSH1 0x4 MSTORE PUSH1 0x24 PUSH0 REVERT JUMPDEST PUSH0 PUSH2 0x2D8 DUP3 PUSH2 0x298 JUMP JUMPDEST SWAP2 POP PUSH2 0x2E3 DUP4 PUSH2 0x298 JUMP JUMPDEST SWAP3 POP DUP3 DUP3 ADD SWAP1 POP DUP1 DUP3 GT ISZERO PUSH2 0x2FB JUMPI PUSH2 0x2FA PUSH2 0x2A1 JUMP JUMPDEST JUMPDEST SWAP3 SWAP2 POP POP JUMP INVALID LOG2 PUSH5 0x6970667358 0x22 SLT KECCAK256 MSTORE GASPRICE SWAP5 0xBE PUSH16 0x59A7947354FD078865E13ADC7F0438C8 0xD 0xDA DUP14 0xD3 0xA7 ORIGIN CREATE2 EQ CALLDATACOPY PUSH14 0x3364736F6C634300081C00330000 "
				},
				"gasEstimates": {
					"creation": {
						"codeDepositCost": "164600",
						"executionCost": "206",
						"totalCost": "164806"
					},
					"external": {
						"bid()": "infinite",
						"withdrawRefund()": "infinite"
					}
				},
				"methodIdentifiers": {
					"bid()": "1998aeef",
					"withdrawRefund()": "110f8874"
				}
			},
			"storageLayout": {
				"storage": [
					{
						"astId": 3,
						"contract": "contracts/Security/12_pullPayment.sol:auction",
						"label": "highestBidder",
						"offset": 0,
						"slot": "0",
						"type": "t_address"
					},
					{
						"astId": 5,
						"contract": "contracts/Security/12_pullPayment.sol:auction",
						"label": "highestBid",
						"offset": 0,
						"slot": "1",
						"type": "t_uint256"
					},
					{
						"astId": 9,
						"contract": "contracts/Security/12_pullPayment.sol:auction",
						"label": "refunds",
						"offset": 0,
						"slot": "2",
						"type": "t_mapping(t_address,t_uint256)"
					}
				],
				"types": {
					"t_address": {
						"encoding": "inplace",
						"label": "address",
						"numberOfBytes": "20"
					},
					"t_mapping(t_address,t_uint256)": {
						"encoding": "mapping",
						"key": "t_address",
						"label": "mapping(address => uint256)",
						"numberOfBytes": "32",
						"value": "t_uint256"
					},
					"t_uint256": {
						"encoding": "inplace",
						"label": "uint256",
						"numberOfBytes": "32"
					}
				}
			},
			"userdoc": {
				"kind": "user",
				"methods": {},
				"version": 1
			}
		}
	}
}