{
	"contracts/Security/30_newReetrency1.sol": {
		"Vault": {
			"abi": [
				{
					"inputs": [
						{
							"internalType": "address",
							"name": "",
							"type": "address"
						}
					],
					"name": "balances",
					"outputs": [
						{
							"internalType": "uint256",
							"name": "",
							"type": "uint256"
						}
					],
					"stateMutability": "view",
					"type": "function"
				},
				{
					"inputs": [],
					"name": "redeemWithGuard",
					"outputs": [],
					"stateMutability": "nonpayable",
					"type": "function"
				},
				{
					"inputs": [],
					"name": "redeemWithUpdateBalance",
					"outputs": [],
					"stateMutability": "nonpayable",
					"type": "function"
				},
				{
					"inputs": [],
					"name": "store",
					"outputs": [],
					"stateMutability": "payable",
					"type": "function"
				}
			],
			"devdoc": {
				"kind": "dev",
				"methods": {
					"redeemWithGuard()": {
						"details": "Redeem your ETH."
					},
					"redeemWithUpdateBalance()": {
						"details": "Redeem your ETH."
					},
					"store()": {
						"details": "Store ETH in the contract."
					}
				},
				"version": 1
			},
			"evm": {
				"assembly": "    /* \"contracts/Security/30_newReetrency1.sol\":116:1010  contract Vault {... */\n  mstore(0x40, 0x80)\n  callvalue\n  dup1\n  iszero\n  tag_1\n  jumpi\n  revert(0x00, 0x00)\ntag_1:\n  pop\n  dataSize(sub_0)\n  dup1\n  dataOffset(sub_0)\n  0x00\n  codecopy\n  0x00\n  return\nstop\n\nsub_0: assembly {\n        /* \"contracts/Security/30_newReetrency1.sol\":116:1010  contract Vault {... */\n      mstore(0x40, 0x80)\n      jumpi(tag_1, lt(calldatasize, 0x04))\n      shr(0xe0, calldataload(0x00))\n      dup1\n      0x0bbdfc23\n      eq\n      tag_2\n      jumpi\n      dup1\n      0x27e235e3\n      eq\n      tag_3\n      jumpi\n      dup1\n      0x975057e7\n      eq\n      tag_4\n      jumpi\n      dup1\n      0xfce8a216\n      eq\n      tag_5\n      jumpi\n    tag_1:\n      revert(0x00, 0x00)\n        /* \"contracts/Security/30_newReetrency1.sol\":697:1008  function redeemWithUpdateBalance() public {... */\n    tag_2:\n      callvalue\n      dup1\n      iszero\n      tag_6\n      jumpi\n      revert(0x00, 0x00)\n    tag_6:\n      pop\n      tag_7\n      tag_8\n      jump\t// in\n    tag_7:\n      stop\n        /* \"contracts/Security/30_newReetrency1.sol\":137:180  mapping(address => uint256) public balances */\n    tag_3:\n      callvalue\n      dup1\n      iszero\n      tag_9\n      jumpi\n      revert(0x00, 0x00)\n    tag_9:\n      pop\n      tag_10\n      0x04\n      dup1\n      calldatasize\n      sub\n      dup2\n      add\n      swap1\n      tag_11\n      swap2\n      swap1\n      tag_12\n      jump\t// in\n    tag_11:\n      tag_13\n      jump\t// in\n    tag_10:\n      mload(0x40)\n      tag_14\n      swap2\n      swap1\n      tag_15\n      jump\t// in\n    tag_14:\n      mload(0x40)\n      dup1\n      swap2\n      sub\n      swap1\n      return\n        /* \"contracts/Security/30_newReetrency1.sol\":243:325  function store() public payable {... */\n    tag_4:\n      tag_16\n      tag_17\n      jump\t// in\n    tag_16:\n      stop\n        /* \"contracts/Security/30_newReetrency1.sol\":361:661  function redeemWithGuard() public {... */\n    tag_5:\n      callvalue\n      dup1\n      iszero\n      tag_18\n      jumpi\n      revert(0x00, 0x00)\n    tag_18:\n      pop\n      tag_19\n      tag_20\n      jump\t// in\n    tag_19:\n      stop\n        /* \"contracts/Security/30_newReetrency1.sol\":697:1008  function redeemWithUpdateBalance() public {... */\n    tag_8:\n        /* \"contracts/Security/30_newReetrency1.sol\":780:781  0 */\n      0x00\n        /* \"contracts/Security/30_newReetrency1.sol\":757:765  balances */\n      0x00\n        /* \"contracts/Security/30_newReetrency1.sol\":757:777  balances[msg.sender] */\n      0x00\n        /* \"contracts/Security/30_newReetrency1.sol\":766:776  msg.sender */\n      caller\n        /* \"contracts/Security/30_newReetrency1.sol\":757:777  balances[msg.sender] */\n      0xffffffffffffffffffffffffffffffffffffffff\n      and\n      0xffffffffffffffffffffffffffffffffffffffff\n      and\n      dup2\n      mstore\n      0x20\n      add\n      swap1\n      dup2\n      mstore\n      0x20\n      add\n      0x00\n      keccak256\n      sload\n        /* \"contracts/Security/30_newReetrency1.sol\":757:781  balances[msg.sender] > 0 */\n      gt\n        /* \"contracts/Security/30_newReetrency1.sol\":749:802  require(balances[msg.sender] > 0, \"Not enough funds\") */\n      tag_22\n      jumpi\n      mload(0x40)\n      0x08c379a000000000000000000000000000000000000000000000000000000000\n      dup2\n      mstore\n      0x04\n      add\n      tag_23\n      swap1\n      tag_24\n      jump\t// in\n    tag_23:\n      mload(0x40)\n      dup1\n      swap2\n      sub\n      swap1\n      revert\n    tag_22:\n        /* \"contracts/Security/30_newReetrency1.sol\":812:831  uint256 tempBalance */\n      0x00\n        /* \"contracts/Security/30_newReetrency1.sol\":834:842  balances */\n      0x00\n        /* \"contracts/Security/30_newReetrency1.sol\":834:854  balances[msg.sender] */\n      0x00\n        /* \"contracts/Security/30_newReetrency1.sol\":843:853  msg.sender */\n      caller\n        /* \"contracts/Security/30_newReetrency1.sol\":834:854  balances[msg.sender] */\n      0xffffffffffffffffffffffffffffffffffffffff\n      and\n      0xffffffffffffffffffffffffffffffffffffffff\n      and\n      dup2\n      mstore\n      0x20\n      add\n      swap1\n      dup2\n      mstore\n      0x20\n      add\n      0x00\n      keccak256\n      sload\n        /* \"contracts/Security/30_newReetrency1.sol\":812:854  uint256 tempBalance = balances[msg.sender] */\n      swap1\n      pop\n        /* \"contracts/Security/30_newReetrency1.sol\":887:888  0 */\n      0x00\n        /* \"contracts/Security/30_newReetrency1.sol\":864:872  balances */\n      0x00\n        /* \"contracts/Security/30_newReetrency1.sol\":864:884  balances[msg.sender] */\n      0x00\n        /* \"contracts/Security/30_newReetrency1.sol\":873:883  msg.sender */\n      caller\n        /* \"contracts/Security/30_newReetrency1.sol\":864:884  balances[msg.sender] */\n      0xffffffffffffffffffffffffffffffffffffffff\n      and\n      0xffffffffffffffffffffffffffffffffffffffff\n      and\n      dup2\n      mstore\n      0x20\n      add\n      swap1\n      dup2\n      mstore\n      0x20\n      add\n      0x00\n      keccak256\n        /* \"contracts/Security/30_newReetrency1.sol\":864:888  balances[msg.sender] = 0 */\n      dup2\n      swap1\n      sstore\n      pop\n        /* \"contracts/Security/30_newReetrency1.sol\":899:911  bool success */\n      0x00\n        /* \"contracts/Security/30_newReetrency1.sol\":917:927  msg.sender */\n      caller\n        /* \"contracts/Security/30_newReetrency1.sol\":917:932  msg.sender.call */\n      0xffffffffffffffffffffffffffffffffffffffff\n      and\n        /* \"contracts/Security/30_newReetrency1.sol\":940:951  tempBalance */\n      dup3\n        /* \"contracts/Security/30_newReetrency1.sol\":917:956  msg.sender.call{value: tempBalance}(\"\") */\n      mload(0x40)\n      tag_25\n      swap1\n      tag_26\n      jump\t// in\n    tag_25:\n      0x00\n      mload(0x40)\n      dup1\n      dup4\n      sub\n      dup2\n      dup6\n      dup8\n      gas\n      call\n      swap3\n      pop\n      pop\n      pop\n      returndatasize\n      dup1\n      0x00\n      dup2\n      eq\n      tag_29\n      jumpi\n      mload(0x40)\n      swap2\n      pop\n      and(add(returndatasize, 0x3f), not(0x1f))\n      dup3\n      add\n      0x40\n      mstore\n      returndatasize\n      dup3\n      mstore\n      returndatasize\n      0x00\n      0x20\n      dup5\n      add\n      returndatacopy\n      jump(tag_28)\n    tag_29:\n      0x60\n      swap2\n      pop\n    tag_28:\n      pop\n        /* \"contracts/Security/30_newReetrency1.sol\":898:956  (bool success, ) = msg.sender.call{value: tempBalance}(\"\") */\n      pop\n      swap1\n      pop\n        /* \"contracts/Security/30_newReetrency1.sol\":974:981  success */\n      dup1\n        /* \"contracts/Security/30_newReetrency1.sol\":966:1001  require(success, \"Transfer failed\") */\n      tag_30\n      jumpi\n      mload(0x40)\n      0x08c379a000000000000000000000000000000000000000000000000000000000\n      dup2\n      mstore\n      0x04\n      add\n      tag_31\n      swap1\n      tag_32\n      jump\t// in\n    tag_31:\n      mload(0x40)\n      dup1\n      swap2\n      sub\n      swap1\n      revert\n    tag_30:\n        /* \"contracts/Security/30_newReetrency1.sol\":739:1008  {... */\n      pop\n      pop\n        /* \"contracts/Security/30_newReetrency1.sol\":697:1008  function redeemWithUpdateBalance() public {... */\n      jump\t// out\n        /* \"contracts/Security/30_newReetrency1.sol\":137:180  mapping(address => uint256) public balances */\n    tag_13:\n      mstore(0x20, 0x00)\n      dup1\n      0x00\n      mstore\n      keccak256(0x00, 0x40)\n      0x00\n      swap2\n      pop\n      swap1\n      pop\n      sload\n      dup2\n      jump\t// out\n        /* \"contracts/Security/30_newReetrency1.sol\":243:325  function store() public payable {... */\n    tag_17:\n        /* \"contracts/Security/30_newReetrency1.sol\":309:318  msg.value */\n      callvalue\n        /* \"contracts/Security/30_newReetrency1.sol\":285:293  balances */\n      0x00\n        /* \"contracts/Security/30_newReetrency1.sol\":285:305  balances[msg.sender] */\n      0x00\n        /* \"contracts/Security/30_newReetrency1.sol\":294:304  msg.sender */\n      caller\n        /* \"contracts/Security/30_newReetrency1.sol\":285:305  balances[msg.sender] */\n      0xffffffffffffffffffffffffffffffffffffffff\n      and\n      0xffffffffffffffffffffffffffffffffffffffff\n      and\n      dup2\n      mstore\n      0x20\n      add\n      swap1\n      dup2\n      mstore\n      0x20\n      add\n      0x00\n      keccak256\n      0x00\n        /* \"contracts/Security/30_newReetrency1.sol\":285:318  balances[msg.sender] += msg.value */\n      dup3\n      dup3\n      sload\n      tag_34\n      swap2\n      swap1\n      tag_35\n      jump\t// in\n    tag_34:\n      swap3\n      pop\n      pop\n      dup2\n      swap1\n      sstore\n      pop\n        /* \"contracts/Security/30_newReetrency1.sol\":243:325  function store() public payable {... */\n      jump\t// out\n        /* \"contracts/Security/30_newReetrency1.sol\":361:661  function redeemWithGuard() public {... */\n    tag_20:\n        /* \"contracts/Security/30_newReetrency1.sol\":422:427  false */\n      0x00\n        /* \"contracts/Security/30_newReetrency1.sol\":413:427  guard == false */\n      iszero\n      iszero\n        /* \"contracts/Security/30_newReetrency1.sol\":413:418  guard */\n      0x01\n      0x00\n      swap1\n      sload\n      swap1\n      0x0100\n      exp\n      swap1\n      div\n      0xff\n      and\n        /* \"contracts/Security/30_newReetrency1.sol\":413:427  guard == false */\n      iszero\n      iszero\n      eq\n        /* \"contracts/Security/30_newReetrency1.sol\":405:476  require(guard == false, \"Be careful to attacks, guard has to be false\") */\n      tag_37\n      jumpi\n      mload(0x40)\n      0x08c379a000000000000000000000000000000000000000000000000000000000\n      dup2\n      mstore\n      0x04\n      add\n      tag_38\n      swap1\n      tag_39\n      jump\t// in\n    tag_38:\n      mload(0x40)\n      dup1\n      swap2\n      sub\n      swap1\n      revert\n    tag_37:\n        /* \"contracts/Security/30_newReetrency1.sol\":494:498  true */\n      0x01\n        /* \"contracts/Security/30_newReetrency1.sol\":486:491  guard */\n      dup1\n      0x00\n        /* \"contracts/Security/30_newReetrency1.sol\":486:498  guard = true */\n      0x0100\n      exp\n      dup2\n      sload\n      dup2\n      0xff\n      mul\n      not\n      and\n      swap1\n      dup4\n      iszero\n      iszero\n      mul\n      or\n      swap1\n      sstore\n      pop\n        /* \"contracts/Security/30_newReetrency1.sol\":509:521  bool success */\n      0x00\n        /* \"contracts/Security/30_newReetrency1.sol\":527:537  msg.sender */\n      caller\n        /* \"contracts/Security/30_newReetrency1.sol\":527:542  msg.sender.call */\n      0xffffffffffffffffffffffffffffffffffffffff\n      and\n        /* \"contracts/Security/30_newReetrency1.sol\":550:558  balances */\n      0x00\n        /* \"contracts/Security/30_newReetrency1.sol\":550:570  balances[msg.sender] */\n      0x00\n        /* \"contracts/Security/30_newReetrency1.sol\":559:569  msg.sender */\n      caller\n        /* \"contracts/Security/30_newReetrency1.sol\":550:570  balances[msg.sender] */\n      0xffffffffffffffffffffffffffffffffffffffff\n      and\n      0xffffffffffffffffffffffffffffffffffffffff\n      and\n      dup2\n      mstore\n      0x20\n      add\n      swap1\n      dup2\n      mstore\n      0x20\n      add\n      0x00\n      keccak256\n      sload\n        /* \"contracts/Security/30_newReetrency1.sol\":527:575  msg.sender.call{value: balances[msg.sender]}(\"\") */\n      mload(0x40)\n      tag_40\n      swap1\n      tag_26\n      jump\t// in\n    tag_40:\n      0x00\n      mload(0x40)\n      dup1\n      dup4\n      sub\n      dup2\n      dup6\n      dup8\n      gas\n      call\n      swap3\n      pop\n      pop\n      pop\n      returndatasize\n      dup1\n      0x00\n      dup2\n      eq\n      tag_43\n      jumpi\n      mload(0x40)\n      swap2\n      pop\n      and(add(returndatasize, 0x3f), not(0x1f))\n      dup3\n      add\n      0x40\n      mstore\n      returndatasize\n      dup3\n      mstore\n      returndatasize\n      0x00\n      0x20\n      dup5\n      add\n      returndatacopy\n      jump(tag_42)\n    tag_43:\n      0x60\n      swap2\n      pop\n    tag_42:\n      pop\n        /* \"contracts/Security/30_newReetrency1.sol\":508:575  (bool success, ) = msg.sender.call{value: balances[msg.sender]}(\"\") */\n      pop\n      swap1\n      pop\n        /* \"contracts/Security/30_newReetrency1.sol\":593:600  success */\n      dup1\n        /* \"contracts/Security/30_newReetrency1.sol\":585:620  require(success, \"Transfer failed\") */\n      tag_44\n      jumpi\n      mload(0x40)\n      0x08c379a000000000000000000000000000000000000000000000000000000000\n      dup2\n      mstore\n      0x04\n      add\n      tag_45\n      swap1\n      tag_32\n      jump\t// in\n    tag_45:\n      mload(0x40)\n      dup1\n      swap2\n      sub\n      swap1\n      revert\n    tag_44:\n        /* \"contracts/Security/30_newReetrency1.sol\":653:654  0 */\n      0x00\n        /* \"contracts/Security/30_newReetrency1.sol\":630:638  balances */\n      0x00\n        /* \"contracts/Security/30_newReetrency1.sol\":630:650  balances[msg.sender] */\n      0x00\n        /* \"contracts/Security/30_newReetrency1.sol\":639:649  msg.sender */\n      caller\n        /* \"contracts/Security/30_newReetrency1.sol\":630:650  balances[msg.sender] */\n      0xffffffffffffffffffffffffffffffffffffffff\n      and\n      0xffffffffffffffffffffffffffffffffffffffff\n      and\n      dup2\n      mstore\n      0x20\n      add\n      swap1\n      dup2\n      mstore\n      0x20\n      add\n      0x00\n      keccak256\n        /* \"contracts/Security/30_newReetrency1.sol\":630:654  balances[msg.sender] = 0 */\n      dup2\n      swap1\n      sstore\n      pop\n        /* \"contracts/Security/30_newReetrency1.sol\":395:661  {... */\n      pop\n        /* \"contracts/Security/30_newReetrency1.sol\":361:661  function redeemWithGuard() public {... */\n      jump\t// out\n        /* \"#utility.yul\":88:205   */\n    tag_47:\n        /* \"#utility.yul\":197:198   */\n      0x00\n        /* \"#utility.yul\":194:195   */\n      0x00\n        /* \"#utility.yul\":187:199   */\n      revert\n        /* \"#utility.yul\":334:460   */\n    tag_49:\n        /* \"#utility.yul\":371:378   */\n      0x00\n        /* \"#utility.yul\":411:453   */\n      0xffffffffffffffffffffffffffffffffffffffff\n        /* \"#utility.yul\":404:409   */\n      dup3\n        /* \"#utility.yul\":400:454   */\n      and\n        /* \"#utility.yul\":389:454   */\n      swap1\n      pop\n        /* \"#utility.yul\":334:460   */\n      swap2\n      swap1\n      pop\n      jump\t// out\n        /* \"#utility.yul\":466:562   */\n    tag_50:\n        /* \"#utility.yul\":503:510   */\n      0x00\n        /* \"#utility.yul\":532:556   */\n      tag_72\n        /* \"#utility.yul\":550:555   */\n      dup3\n        /* \"#utility.yul\":532:556   */\n      tag_49\n      jump\t// in\n    tag_72:\n        /* \"#utility.yul\":521:556   */\n      swap1\n      pop\n        /* \"#utility.yul\":466:562   */\n      swap2\n      swap1\n      pop\n      jump\t// out\n        /* \"#utility.yul\":568:690   */\n    tag_51:\n        /* \"#utility.yul\":641:665   */\n      tag_74\n        /* \"#utility.yul\":659:664   */\n      dup2\n        /* \"#utility.yul\":641:665   */\n      tag_50\n      jump\t// in\n    tag_74:\n        /* \"#utility.yul\":634:639   */\n      dup2\n        /* \"#utility.yul\":631:666   */\n      eq\n        /* \"#utility.yul\":621:684   */\n      tag_75\n      jumpi\n        /* \"#utility.yul\":680:681   */\n      0x00\n        /* \"#utility.yul\":677:678   */\n      0x00\n        /* \"#utility.yul\":670:682   */\n      revert\n        /* \"#utility.yul\":621:684   */\n    tag_75:\n        /* \"#utility.yul\":568:690   */\n      pop\n      jump\t// out\n        /* \"#utility.yul\":696:835   */\n    tag_52:\n        /* \"#utility.yul\":742:747   */\n      0x00\n        /* \"#utility.yul\":780:786   */\n      dup2\n        /* \"#utility.yul\":767:787   */\n      calldataload\n        /* \"#utility.yul\":758:787   */\n      swap1\n      pop\n        /* \"#utility.yul\":796:829   */\n      tag_77\n        /* \"#utility.yul\":823:828   */\n      dup2\n        /* \"#utility.yul\":796:829   */\n      tag_51\n      jump\t// in\n    tag_77:\n        /* \"#utility.yul\":696:835   */\n      swap3\n      swap2\n      pop\n      pop\n      jump\t// out\n        /* \"#utility.yul\":841:1170   */\n    tag_12:\n        /* \"#utility.yul\":900:906   */\n      0x00\n        /* \"#utility.yul\":949:951   */\n      0x20\n        /* \"#utility.yul\":937:946   */\n      dup3\n        /* \"#utility.yul\":928:935   */\n      dup5\n        /* \"#utility.yul\":924:947   */\n      sub\n        /* \"#utility.yul\":920:952   */\n      slt\n        /* \"#utility.yul\":917:1036   */\n      iszero\n      tag_79\n      jumpi\n        /* \"#utility.yul\":955:1034   */\n      tag_80\n      tag_47\n      jump\t// in\n    tag_80:\n        /* \"#utility.yul\":917:1036   */\n    tag_79:\n        /* \"#utility.yul\":1075:1076   */\n      0x00\n        /* \"#utility.yul\":1100:1153   */\n      tag_81\n        /* \"#utility.yul\":1145:1152   */\n      dup5\n        /* \"#utility.yul\":1136:1142   */\n      dup3\n        /* \"#utility.yul\":1125:1134   */\n      dup6\n        /* \"#utility.yul\":1121:1143   */\n      add\n        /* \"#utility.yul\":1100:1153   */\n      tag_52\n      jump\t// in\n    tag_81:\n        /* \"#utility.yul\":1090:1153   */\n      swap2\n      pop\n        /* \"#utility.yul\":1046:1163   */\n      pop\n        /* \"#utility.yul\":841:1170   */\n      swap3\n      swap2\n      pop\n      pop\n      jump\t// out\n        /* \"#utility.yul\":1176:1253   */\n    tag_53:\n        /* \"#utility.yul\":1213:1220   */\n      0x00\n        /* \"#utility.yul\":1242:1247   */\n      dup2\n        /* \"#utility.yul\":1231:1247   */\n      swap1\n      pop\n        /* \"#utility.yul\":1176:1253   */\n      swap2\n      swap1\n      pop\n      jump\t// out\n        /* \"#utility.yul\":1259:1377   */\n    tag_54:\n        /* \"#utility.yul\":1346:1370   */\n      tag_84\n        /* \"#utility.yul\":1364:1369   */\n      dup2\n        /* \"#utility.yul\":1346:1370   */\n      tag_53\n      jump\t// in\n    tag_84:\n        /* \"#utility.yul\":1341:1344   */\n      dup3\n        /* \"#utility.yul\":1334:1371   */\n      mstore\n        /* \"#utility.yul\":1259:1377   */\n      pop\n      pop\n      jump\t// out\n        /* \"#utility.yul\":1383:1605   */\n    tag_15:\n        /* \"#utility.yul\":1476:1480   */\n      0x00\n        /* \"#utility.yul\":1514:1516   */\n      0x20\n        /* \"#utility.yul\":1503:1512   */\n      dup3\n        /* \"#utility.yul\":1499:1517   */\n      add\n        /* \"#utility.yul\":1491:1517   */\n      swap1\n      pop\n        /* \"#utility.yul\":1527:1598   */\n      tag_86\n        /* \"#utility.yul\":1595:1596   */\n      0x00\n        /* \"#utility.yul\":1584:1593   */\n      dup4\n        /* \"#utility.yul\":1580:1597   */\n      add\n        /* \"#utility.yul\":1571:1577   */\n      dup5\n        /* \"#utility.yul\":1527:1598   */\n      tag_54\n      jump\t// in\n    tag_86:\n        /* \"#utility.yul\":1383:1605   */\n      swap3\n      swap2\n      pop\n      pop\n      jump\t// out\n        /* \"#utility.yul\":1611:1780   */\n    tag_55:\n        /* \"#utility.yul\":1695:1706   */\n      0x00\n        /* \"#utility.yul\":1729:1735   */\n      dup3\n        /* \"#utility.yul\":1724:1727   */\n      dup3\n        /* \"#utility.yul\":1717:1736   */\n      mstore\n        /* \"#utility.yul\":1769:1773   */\n      0x20\n        /* \"#utility.yul\":1764:1767   */\n      dup3\n        /* \"#utility.yul\":1760:1774   */\n      add\n        /* \"#utility.yul\":1745:1774   */\n      swap1\n      pop\n        /* \"#utility.yul\":1611:1780   */\n      swap3\n      swap2\n      pop\n      pop\n      jump\t// out\n        /* \"#utility.yul\":1786:1952   */\n    tag_56:\n        /* \"#utility.yul\":1926:1944   */\n      0x4e6f7420656e6f7567682066756e647300000000000000000000000000000000\n        /* \"#utility.yul\":1922:1923   */\n      0x00\n        /* \"#utility.yul\":1914:1920   */\n      dup3\n        /* \"#utility.yul\":1910:1924   */\n      add\n        /* \"#utility.yul\":1903:1945   */\n      mstore\n        /* \"#utility.yul\":1786:1952   */\n      pop\n      jump\t// out\n        /* \"#utility.yul\":1958:2324   */\n    tag_57:\n        /* \"#utility.yul\":2100:2103   */\n      0x00\n        /* \"#utility.yul\":2121:2188   */\n      tag_90\n        /* \"#utility.yul\":2185:2187   */\n      0x10\n        /* \"#utility.yul\":2180:2183   */\n      dup4\n        /* \"#utility.yul\":2121:2188   */\n      tag_55\n      jump\t// in\n    tag_90:\n        /* \"#utility.yul\":2114:2188   */\n      swap2\n      pop\n        /* \"#utility.yul\":2197:2290   */\n      tag_91\n        /* \"#utility.yul\":2286:2289   */\n      dup3\n        /* \"#utility.yul\":2197:2290   */\n      tag_56\n      jump\t// in\n    tag_91:\n        /* \"#utility.yul\":2315:2317   */\n      0x20\n        /* \"#utility.yul\":2310:2313   */\n      dup3\n        /* \"#utility.yul\":2306:2318   */\n      add\n        /* \"#utility.yul\":2299:2318   */\n      swap1\n      pop\n        /* \"#utility.yul\":1958:2324   */\n      swap2\n      swap1\n      pop\n      jump\t// out\n        /* \"#utility.yul\":2330:2749   */\n    tag_24:\n        /* \"#utility.yul\":2496:2500   */\n      0x00\n        /* \"#utility.yul\":2534:2536   */\n      0x20\n        /* \"#utility.yul\":2523:2532   */\n      dup3\n        /* \"#utility.yul\":2519:2537   */\n      add\n        /* \"#utility.yul\":2511:2537   */\n      swap1\n      pop\n        /* \"#utility.yul\":2583:2592   */\n      dup2\n        /* \"#utility.yul\":2577:2581   */\n      dup2\n        /* \"#utility.yul\":2573:2593   */\n      sub\n        /* \"#utility.yul\":2569:2570   */\n      0x00\n        /* \"#utility.yul\":2558:2567   */\n      dup4\n        /* \"#utility.yul\":2554:2571   */\n      add\n        /* \"#utility.yul\":2547:2594   */\n      mstore\n        /* \"#utility.yul\":2611:2742   */\n      tag_93\n        /* \"#utility.yul\":2737:2741   */\n      dup2\n        /* \"#utility.yul\":2611:2742   */\n      tag_57\n      jump\t// in\n    tag_93:\n        /* \"#utility.yul\":2603:2742   */\n      swap1\n      pop\n        /* \"#utility.yul\":2330:2749   */\n      swap2\n      swap1\n      pop\n      jump\t// out\n        /* \"#utility.yul\":2755:2902   */\n    tag_58:\n        /* \"#utility.yul\":2856:2867   */\n      0x00\n        /* \"#utility.yul\":2893:2896   */\n      dup2\n        /* \"#utility.yul\":2878:2896   */\n      swap1\n      pop\n        /* \"#utility.yul\":2755:2902   */\n      swap3\n      swap2\n      pop\n      pop\n      jump\t// out\n        /* \"#utility.yul\":2908:3022   */\n    tag_59:\n      pop\n      jump\t// out\n        /* \"#utility.yul\":3028:3426   */\n    tag_60:\n        /* \"#utility.yul\":3187:3190   */\n      0x00\n        /* \"#utility.yul\":3208:3291   */\n      tag_97\n        /* \"#utility.yul\":3289:3290   */\n      0x00\n        /* \"#utility.yul\":3284:3287   */\n      dup4\n        /* \"#utility.yul\":3208:3291   */\n      tag_58\n      jump\t// in\n    tag_97:\n        /* \"#utility.yul\":3201:3291   */\n      swap2\n      pop\n        /* \"#utility.yul\":3300:3393   */\n      tag_98\n        /* \"#utility.yul\":3389:3392   */\n      dup3\n        /* \"#utility.yul\":3300:3393   */\n      tag_59\n      jump\t// in\n    tag_98:\n        /* \"#utility.yul\":3418:3419   */\n      0x00\n        /* \"#utility.yul\":3413:3416   */\n      dup3\n        /* \"#utility.yul\":3409:3420   */\n      add\n        /* \"#utility.yul\":3402:3420   */\n      swap1\n      pop\n        /* \"#utility.yul\":3028:3426   */\n      swap2\n      swap1\n      pop\n      jump\t// out\n        /* \"#utility.yul\":3432:3811   */\n    tag_26:\n        /* \"#utility.yul\":3616:3619   */\n      0x00\n        /* \"#utility.yul\":3638:3785   */\n      tag_100\n        /* \"#utility.yul\":3781:3784   */\n      dup3\n        /* \"#utility.yul\":3638:3785   */\n      tag_60\n      jump\t// in\n    tag_100:\n        /* \"#utility.yul\":3631:3785   */\n      swap2\n      pop\n        /* \"#utility.yul\":3802:3805   */\n      dup2\n        /* \"#utility.yul\":3795:3805   */\n      swap1\n      pop\n        /* \"#utility.yul\":3432:3811   */\n      swap2\n      swap1\n      pop\n      jump\t// out\n        /* \"#utility.yul\":3817:3982   */\n    tag_61:\n        /* \"#utility.yul\":3957:3974   */\n      0x5472616e73666572206661696c65640000000000000000000000000000000000\n        /* \"#utility.yul\":3953:3954   */\n      0x00\n        /* \"#utility.yul\":3945:3951   */\n      dup3\n        /* \"#utility.yul\":3941:3955   */\n      add\n        /* \"#utility.yul\":3934:3975   */\n      mstore\n        /* \"#utility.yul\":3817:3982   */\n      pop\n      jump\t// out\n        /* \"#utility.yul\":3988:4354   */\n    tag_62:\n        /* \"#utility.yul\":4130:4133   */\n      0x00\n        /* \"#utility.yul\":4151:4218   */\n      tag_103\n        /* \"#utility.yul\":4215:4217   */\n      0x0f\n        /* \"#utility.yul\":4210:4213   */\n      dup4\n        /* \"#utility.yul\":4151:4218   */\n      tag_55\n      jump\t// in\n    tag_103:\n        /* \"#utility.yul\":4144:4218   */\n      swap2\n      pop\n        /* \"#utility.yul\":4227:4320   */\n      tag_104\n        /* \"#utility.yul\":4316:4319   */\n      dup3\n        /* \"#utility.yul\":4227:4320   */\n      tag_61\n      jump\t// in\n    tag_104:\n        /* \"#utility.yul\":4345:4347   */\n      0x20\n        /* \"#utility.yul\":4340:4343   */\n      dup3\n        /* \"#utility.yul\":4336:4348   */\n      add\n        /* \"#utility.yul\":4329:4348   */\n      swap1\n      pop\n        /* \"#utility.yul\":3988:4354   */\n      swap2\n      swap1\n      pop\n      jump\t// out\n        /* \"#utility.yul\":4360:4779   */\n    tag_32:\n        /* \"#utility.yul\":4526:4530   */\n      0x00\n        /* \"#utility.yul\":4564:4566   */\n      0x20\n        /* \"#utility.yul\":4553:4562   */\n      dup3\n        /* \"#utility.yul\":4549:4567   */\n      add\n        /* \"#utility.yul\":4541:4567   */\n      swap1\n      pop\n        /* \"#utility.yul\":4613:4622   */\n      dup2\n        /* \"#utility.yul\":4607:4611   */\n      dup2\n        /* \"#utility.yul\":4603:4623   */\n      sub\n        /* \"#utility.yul\":4599:4600   */\n      0x00\n        /* \"#utility.yul\":4588:4597   */\n      dup4\n        /* \"#utility.yul\":4584:4601   */\n      add\n        /* \"#utility.yul\":4577:4624   */\n      mstore\n        /* \"#utility.yul\":4641:4772   */\n      tag_106\n        /* \"#utility.yul\":4767:4771   */\n      dup2\n        /* \"#utility.yul\":4641:4772   */\n      tag_62\n      jump\t// in\n    tag_106:\n        /* \"#utility.yul\":4633:4772   */\n      swap1\n      pop\n        /* \"#utility.yul\":4360:4779   */\n      swap2\n      swap1\n      pop\n      jump\t// out\n        /* \"#utility.yul\":4785:4965   */\n    tag_63:\n        /* \"#utility.yul\":4833:4910   */\n      0x4e487b7100000000000000000000000000000000000000000000000000000000\n        /* \"#utility.yul\":4830:4831   */\n      0x00\n        /* \"#utility.yul\":4823:4911   */\n      mstore\n        /* \"#utility.yul\":4930:4934   */\n      0x11\n        /* \"#utility.yul\":4927:4928   */\n      0x04\n        /* \"#utility.yul\":4920:4935   */\n      mstore\n        /* \"#utility.yul\":4954:4958   */\n      0x24\n        /* \"#utility.yul\":4951:4952   */\n      0x00\n        /* \"#utility.yul\":4944:4959   */\n      revert\n        /* \"#utility.yul\":4971:5162   */\n    tag_35:\n        /* \"#utility.yul\":5011:5014   */\n      0x00\n        /* \"#utility.yul\":5030:5050   */\n      tag_109\n        /* \"#utility.yul\":5048:5049   */\n      dup3\n        /* \"#utility.yul\":5030:5050   */\n      tag_53\n      jump\t// in\n    tag_109:\n        /* \"#utility.yul\":5025:5050   */\n      swap2\n      pop\n        /* \"#utility.yul\":5064:5084   */\n      tag_110\n        /* \"#utility.yul\":5082:5083   */\n      dup4\n        /* \"#utility.yul\":5064:5084   */\n      tag_53\n      jump\t// in\n    tag_110:\n        /* \"#utility.yul\":5059:5084   */\n      swap3\n      pop\n        /* \"#utility.yul\":5107:5108   */\n      dup3\n        /* \"#utility.yul\":5104:5105   */\n      dup3\n        /* \"#utility.yul\":5100:5109   */\n      add\n        /* \"#utility.yul\":5093:5109   */\n      swap1\n      pop\n        /* \"#utility.yul\":5128:5131   */\n      dup1\n        /* \"#utility.yul\":5125:5126   */\n      dup3\n        /* \"#utility.yul\":5122:5132   */\n      gt\n        /* \"#utility.yul\":5119:5155   */\n      iszero\n      tag_111\n      jumpi\n        /* \"#utility.yul\":5135:5153   */\n      tag_112\n      tag_63\n      jump\t// in\n    tag_112:\n        /* \"#utility.yul\":5119:5155   */\n    tag_111:\n        /* \"#utility.yul\":4971:5162   */\n      swap3\n      swap2\n      pop\n      pop\n      jump\t// out\n        /* \"#utility.yul\":5168:5399   */\n    tag_64:\n        /* \"#utility.yul\":5308:5342   */\n      0x4265206361726566756c20746f2061747461636b732c20677561726420686173\n        /* \"#utility.yul\":5304:5305   */\n      0x00\n        /* \"#utility.yul\":5296:5302   */\n      dup3\n        /* \"#utility.yul\":5292:5306   */\n      add\n        /* \"#utility.yul\":5285:5343   */\n      mstore\n        /* \"#utility.yul\":5377:5391   */\n      0x20746f2062652066616c73650000000000000000000000000000000000000000\n        /* \"#utility.yul\":5372:5374   */\n      0x20\n        /* \"#utility.yul\":5364:5370   */\n      dup3\n        /* \"#utility.yul\":5360:5375   */\n      add\n        /* \"#utility.yul\":5353:5392   */\n      mstore\n        /* \"#utility.yul\":5168:5399   */\n      pop\n      jump\t// out\n        /* \"#utility.yul\":5405:5771   */\n    tag_65:\n        /* \"#utility.yul\":5547:5550   */\n      0x00\n        /* \"#utility.yul\":5568:5635   */\n      tag_115\n        /* \"#utility.yul\":5632:5634   */\n      0x2c\n        /* \"#utility.yul\":5627:5630   */\n      dup4\n        /* \"#utility.yul\":5568:5635   */\n      tag_55\n      jump\t// in\n    tag_115:\n        /* \"#utility.yul\":5561:5635   */\n      swap2\n      pop\n        /* \"#utility.yul\":5644:5737   */\n      tag_116\n        /* \"#utility.yul\":5733:5736   */\n      dup3\n        /* \"#utility.yul\":5644:5737   */\n      tag_64\n      jump\t// in\n    tag_116:\n        /* \"#utility.yul\":5762:5764   */\n      0x40\n        /* \"#utility.yul\":5757:5760   */\n      dup3\n        /* \"#utility.yul\":5753:5765   */\n      add\n        /* \"#utility.yul\":5746:5765   */\n      swap1\n      pop\n        /* \"#utility.yul\":5405:5771   */\n      swap2\n      swap1\n      pop\n      jump\t// out\n        /* \"#utility.yul\":5777:6196   */\n    tag_39:\n        /* \"#utility.yul\":5943:5947   */\n      0x00\n        /* \"#utility.yul\":5981:5983   */\n      0x20\n        /* \"#utility.yul\":5970:5979   */\n      dup3\n        /* \"#utility.yul\":5966:5984   */\n      add\n        /* \"#utility.yul\":5958:5984   */\n      swap1\n      pop\n        /* \"#utility.yul\":6030:6039   */\n      dup2\n        /* \"#utility.yul\":6024:6028   */\n      dup2\n        /* \"#utility.yul\":6020:6040   */\n      sub\n        /* \"#utility.yul\":6016:6017   */\n      0x00\n        /* \"#utility.yul\":6005:6014   */\n      dup4\n        /* \"#utility.yul\":6001:6018   */\n      add\n        /* \"#utility.yul\":5994:6041   */\n      mstore\n        /* \"#utility.yul\":6058:6189   */\n      tag_118\n        /* \"#utility.yul\":6184:6188   */\n      dup2\n        /* \"#utility.yul\":6058:6189   */\n      tag_65\n      jump\t// in\n    tag_118:\n        /* \"#utility.yul\":6050:6189   */\n      swap1\n      pop\n        /* \"#utility.yul\":5777:6196   */\n      swap2\n      swap1\n      pop\n      jump\t// out\n\n    auxdata: 0xa264697066735822122085305c29a0006c9538ee80515eadf317462cbd0676b2c98ec82f7a8797cc2e2264736f6c634300081c0033\n}\n",
				"bytecode": {
					"linkReferences": {},
					"object": "6080604052348015600e575f5ffd5b5061075b8061001c5f395ff3fe60806040526004361061003e575f3560e01c80630bbdfc231461004257806327e235e314610058578063975057e714610094578063fce8a2161461009e575b5f5ffd5b34801561004d575f5ffd5b506100566100b4565b005b348015610063575f5ffd5b5061007e600480360381019061007991906104ba565b61025f565b60405161008b91906104fd565b60405180910390f35b61009c610273565b005b3480156100a9575f5ffd5b506100b26102c7565b005b5f5f5f3373ffffffffffffffffffffffffffffffffffffffff1673ffffffffffffffffffffffffffffffffffffffff1681526020019081526020015f205411610132576040517f08c379a000000000000000000000000000000000000000000000000000000000815260040161012990610570565b60405180910390fd5b5f5f5f3373ffffffffffffffffffffffffffffffffffffffff1673ffffffffffffffffffffffffffffffffffffffff1681526020019081526020015f205490505f5f5f3373ffffffffffffffffffffffffffffffffffffffff1673ffffffffffffffffffffffffffffffffffffffff1681526020019081526020015f20819055505f3373ffffffffffffffffffffffffffffffffffffffff16826040516101d8906105bb565b5f6040518083038185875af1925050503d805f8114610212576040519150601f19603f3d011682016040523d82523d5f602084013e610217565b606091505b505090508061025b576040517f08c379a000000000000000000000000000000000000000000000000000000000815260040161025290610619565b60405180910390fd5b5050565b5f602052805f5260405f205f915090505481565b345f5f3373ffffffffffffffffffffffffffffffffffffffff1673ffffffffffffffffffffffffffffffffffffffff1681526020019081526020015f205f8282546102be9190610664565b92505081905550565b5f151560015f9054906101000a900460ff1615151461031b576040517f08c379a000000000000000000000000000000000000000000000000000000000815260040161031290610707565b60405180910390fd5b6001805f6101000a81548160ff0219169083151502179055505f3373ffffffffffffffffffffffffffffffffffffffff165f5f3373ffffffffffffffffffffffffffffffffffffffff1673ffffffffffffffffffffffffffffffffffffffff1681526020019081526020015f2054604051610395906105bb565b5f6040518083038185875af1925050503d805f81146103cf576040519150601f19603f3d011682016040523d82523d5f602084013e6103d4565b606091505b5050905080610418576040517f08c379a000000000000000000000000000000000000000000000000000000000815260040161040f90610619565b60405180910390fd5b5f5f5f3373ffffffffffffffffffffffffffffffffffffffff1673ffffffffffffffffffffffffffffffffffffffff1681526020019081526020015f208190555050565b5f5ffd5b5f73ffffffffffffffffffffffffffffffffffffffff82169050919050565b5f61048982610460565b9050919050565b6104998161047f565b81146104a3575f5ffd5b50565b5f813590506104b481610490565b92915050565b5f602082840312156104cf576104ce61045c565b5b5f6104dc848285016104a6565b91505092915050565b5f819050919050565b6104f7816104e5565b82525050565b5f6020820190506105105f8301846104ee565b92915050565b5f82825260208201905092915050565b7f4e6f7420656e6f7567682066756e6473000000000000000000000000000000005f82015250565b5f61055a601083610516565b915061056582610526565b602082019050919050565b5f6020820190508181035f8301526105878161054e565b9050919050565b5f81905092915050565b50565b5f6105a65f8361058e565b91506105b182610598565b5f82019050919050565b5f6105c58261059b565b9150819050919050565b7f5472616e73666572206661696c656400000000000000000000000000000000005f82015250565b5f610603600f83610516565b915061060e826105cf565b602082019050919050565b5f6020820190508181035f830152610630816105f7565b9050919050565b7f4e487b71000000000000000000000000000000000000000000000000000000005f52601160045260245ffd5b5f61066e826104e5565b9150610679836104e5565b925082820190508082111561069157610690610637565b5b92915050565b7f4265206361726566756c20746f2061747461636b732c206775617264206861735f8201527f20746f2062652066616c73650000000000000000000000000000000000000000602082015250565b5f6106f1602c83610516565b91506106fc82610697565b604082019050919050565b5f6020820190508181035f83015261071e816106e5565b905091905056fea264697066735822122085305c29a0006c9538ee80515eadf317462cbd0676b2c98ec82f7a8797cc2e2264736f6c634300081c0033",
					"opcodes": "PUSH1 0x80 PUSH1 0x40 MSTORE CALLVALUE DUP1 ISZERO PUSH1 0xE JUMPI PUSH0 PUSH0 REVERT JUMPDEST POP PUSH2 0x75B DUP1 PUSH2 0x1C PUSH0 CODECOPY PUSH0 RETURN INVALID PUSH1 0x80 PUSH1 0x40 MSTORE PUSH1 0x4 CALLDATASIZE LT PUSH2 0x3E JUMPI PUSH0 CALLDATALOAD PUSH1 0xE0 SHR DUP1 PUSH4 0xBBDFC23 EQ PUSH2 0x42 JUMPI DUP1 PUSH4 0x27E235E3 EQ PUSH2 0x58 JUMPI DUP1 PUSH4 0x975057E7 EQ PUSH2 0x94 JUMPI DUP1 PUSH4 0xFCE8A216 EQ PUSH2 0x9E JUMPI JUMPDEST PUSH0 PUSH0 REVERT JUMPDEST CALLVALUE DUP1 ISZERO PUSH2 0x4D JUMPI PUSH0 PUSH0 REVERT JUMPDEST POP PUSH2 0x56 PUSH2 0xB4 JUMP JUMPDEST STOP JUMPDEST CALLVALUE DUP1 ISZERO PUSH2 0x63 JUMPI PUSH0 PUSH0 REVERT JUMPDEST POP PUSH2 0x7E PUSH1 0x4 DUP1 CALLDATASIZE SUB DUP2 ADD SWAP1 PUSH2 0x79 SWAP2 SWAP1 PUSH2 0x4BA JUMP JUMPDEST PUSH2 0x25F JUMP JUMPDEST PUSH1 0x40 MLOAD PUSH2 0x8B SWAP2 SWAP1 PUSH2 0x4FD JUMP JUMPDEST PUSH1 0x40 MLOAD DUP1 SWAP2 SUB SWAP1 RETURN JUMPDEST PUSH2 0x9C PUSH2 0x273 JUMP JUMPDEST STOP JUMPDEST CALLVALUE DUP1 ISZERO PUSH2 0xA9 JUMPI PUSH0 PUSH0 REVERT JUMPDEST POP PUSH2 0xB2 PUSH2 0x2C7 JUMP JUMPDEST STOP JUMPDEST PUSH0 PUSH0 PUSH0 CALLER PUSH20 0xFFFFFFFFFFFFFFFFFFFFFFFFFFFFFFFFFFFFFFFF AND PUSH20 0xFFFFFFFFFFFFFFFFFFFFFFFFFFFFFFFFFFFFFFFF AND DUP2 MSTORE PUSH1 0x20 ADD SWAP1 DUP2 MSTORE PUSH1 0x20 ADD PUSH0 KECCAK256 SLOAD GT PUSH2 0x132 JUMPI PUSH1 0x40 MLOAD PUSH32 0x8C379A000000000000000000000000000000000000000000000000000000000 DUP2 MSTORE PUSH1 0x4 ADD PUSH2 0x129 SWAP1 PUSH2 0x570 JUMP JUMPDEST PUSH1 0x40 MLOAD DUP1 SWAP2 SUB SWAP1 REVERT JUMPDEST PUSH0 PUSH0 PUSH0 CALLER PUSH20 0xFFFFFFFFFFFFFFFFFFFFFFFFFFFFFFFFFFFFFFFF AND PUSH20 0xFFFFFFFFFFFFFFFFFFFFFFFFFFFFFFFFFFFFFFFF AND DUP2 MSTORE PUSH1 0x20 ADD SWAP1 DUP2 MSTORE PUSH1 0x20 ADD PUSH0 KECCAK256 SLOAD SWAP1 POP PUSH0 PUSH0 PUSH0 CALLER PUSH20 0xFFFFFFFFFFFFFFFFFFFFFFFFFFFFFFFFFFFFFFFF AND PUSH20 0xFFFFFFFFFFFFFFFFFFFFFFFFFFFFFFFFFFFFFFFF AND DUP2 MSTORE PUSH1 0x20 ADD SWAP1 DUP2 MSTORE PUSH1 0x20 ADD PUSH0 KECCAK256 DUP2 SWAP1 SSTORE POP PUSH0 CALLER PUSH20 0xFFFFFFFFFFFFFFFFFFFFFFFFFFFFFFFFFFFFFFFF AND DUP3 PUSH1 0x40 MLOAD PUSH2 0x1D8 SWAP1 PUSH2 0x5BB JUMP JUMPDEST PUSH0 PUSH1 0x40 MLOAD DUP1 DUP4 SUB DUP2 DUP6 DUP8 GAS CALL SWAP3 POP POP POP RETURNDATASIZE DUP1 PUSH0 DUP2 EQ PUSH2 0x212 JUMPI PUSH1 0x40 MLOAD SWAP2 POP PUSH1 0x1F NOT PUSH1 0x3F RETURNDATASIZE ADD AND DUP3 ADD PUSH1 0x40 MSTORE RETURNDATASIZE DUP3 MSTORE RETURNDATASIZE PUSH0 PUSH1 0x20 DUP5 ADD RETURNDATACOPY PUSH2 0x217 JUMP JUMPDEST PUSH1 0x60 SWAP2 POP JUMPDEST POP POP SWAP1 POP DUP1 PUSH2 0x25B JUMPI PUSH1 0x40 MLOAD PUSH32 0x8C379A000000000000000000000000000000000000000000000000000000000 DUP2 MSTORE PUSH1 0x4 ADD PUSH2 0x252 SWAP1 PUSH2 0x619 JUMP JUMPDEST PUSH1 0x40 MLOAD DUP1 SWAP2 SUB SWAP1 REVERT JUMPDEST POP POP JUMP JUMPDEST PUSH0 PUSH1 0x20 MSTORE DUP1 PUSH0 MSTORE PUSH1 0x40 PUSH0 KECCAK256 PUSH0 SWAP2 POP SWAP1 POP SLOAD DUP2 JUMP JUMPDEST CALLVALUE PUSH0 PUSH0 CALLER PUSH20 0xFFFFFFFFFFFFFFFFFFFFFFFFFFFFFFFFFFFFFFFF AND PUSH20 0xFFFFFFFFFFFFFFFFFFFFFFFFFFFFFFFFFFFFFFFF AND DUP2 MSTORE PUSH1 0x20 ADD SWAP1 DUP2 MSTORE PUSH1 0x20 ADD PUSH0 KECCAK256 PUSH0 DUP3 DUP3 SLOAD PUSH2 0x2BE SWAP2 SWAP1 PUSH2 0x664 JUMP JUMPDEST SWAP3 POP POP DUP2 SWAP1 SSTORE POP JUMP JUMPDEST PUSH0 ISZERO ISZERO PUSH1 0x1 PUSH0 SWAP1 SLOAD SWAP1 PUSH2 0x100 EXP SWAP1 DIV PUSH1 0xFF AND ISZERO ISZERO EQ PUSH2 0x31B JUMPI PUSH1 0x40 MLOAD PUSH32 0x8C379A000000000000000000000000000000000000000000000000000000000 DUP2 MSTORE PUSH1 0x4 ADD PUSH2 0x312 SWAP1 PUSH2 0x707 JUMP JUMPDEST PUSH1 0x40 MLOAD DUP1 SWAP2 SUB SWAP1 REVERT JUMPDEST PUSH1 0x1 DUP1 PUSH0 PUSH2 0x100 EXP DUP2 SLOAD DUP2 PUSH1 0xFF MUL NOT AND SWAP1 DUP4 ISZERO ISZERO MUL OR SWAP1 SSTORE POP PUSH0 CALLER PUSH20 0xFFFFFFFFFFFFFFFFFFFFFFFFFFFFFFFFFFFFFFFF AND PUSH0 PUSH0 CALLER PUSH20 0xFFFFFFFFFFFFFFFFFFFFFFFFFFFFFFFFFFFFFFFF AND PUSH20 0xFFFFFFFFFFFFFFFFFFFFFFFFFFFFFFFFFFFFFFFF AND DUP2 MSTORE PUSH1 0x20 ADD SWAP1 DUP2 MSTORE PUSH1 0x20 ADD PUSH0 KECCAK256 SLOAD PUSH1 0x40 MLOAD PUSH2 0x395 SWAP1 PUSH2 0x5BB JUMP JUMPDEST PUSH0 PUSH1 0x40 MLOAD DUP1 DUP4 SUB DUP2 DUP6 DUP8 GAS CALL SWAP3 POP POP POP RETURNDATASIZE DUP1 PUSH0 DUP2 EQ PUSH2 0x3CF JUMPI PUSH1 0x40 MLOAD SWAP2 POP PUSH1 0x1F NOT PUSH1 0x3F RETURNDATASIZE ADD AND DUP3 ADD PUSH1 0x40 MSTORE RETURNDATASIZE DUP3 MSTORE RETURNDATASIZE PUSH0 PUSH1 0x20 DUP5 ADD RETURNDATACOPY PUSH2 0x3D4 JUMP JUMPDEST PUSH1 0x60 SWAP2 POP JUMPDEST POP POP SWAP1 POP DUP1 PUSH2 0x418 JUMPI PUSH1 0x40 MLOAD PUSH32 0x8C379A000000000000000000000000000000000000000000000000000000000 DUP2 MSTORE PUSH1 0x4 ADD PUSH2 0x40F SWAP1 PUSH2 0x619 JUMP JUMPDEST PUSH1 0x40 MLOAD DUP1 SWAP2 SUB SWAP1 REVERT JUMPDEST PUSH0 PUSH0 PUSH0 CALLER PUSH20 0xFFFFFFFFFFFFFFFFFFFFFFFFFFFFFFFFFFFFFFFF AND PUSH20 0xFFFFFFFFFFFFFFFFFFFFFFFFFFFFFFFFFFFFFFFF AND DUP2 MSTORE PUSH1 0x20 ADD SWAP1 DUP2 MSTORE PUSH1 0x20 ADD PUSH0 KECCAK256 DUP2 SWAP1 SSTORE POP POP JUMP JUMPDEST PUSH0 PUSH0 REVERT JUMPDEST PUSH0 PUSH20 0xFFFFFFFFFFFFFFFFFFFFFFFFFFFFFFFFFFFFFFFF DUP3 AND SWAP1 POP SWAP2 SWAP1 POP JUMP JUMPDEST PUSH0 PUSH2 0x489 DUP3 PUSH2 0x460 JUMP JUMPDEST SWAP1 POP SWAP2 SWAP1 POP JUMP JUMPDEST PUSH2 0x499 DUP2 PUSH2 0x47F JUMP JUMPDEST DUP2 EQ PUSH2 0x4A3 JUMPI PUSH0 PUSH0 REVERT JUMPDEST POP JUMP JUMPDEST PUSH0 DUP2 CALLDATALOAD SWAP1 POP PUSH2 0x4B4 DUP2 PUSH2 0x490 JUMP JUMPDEST SWAP3 SWAP2 POP POP JUMP JUMPDEST PUSH0 PUSH1 0x20 DUP3 DUP5 SUB SLT ISZERO PUSH2 0x4CF JUMPI PUSH2 0x4CE PUSH2 0x45C JUMP JUMPDEST JUMPDEST PUSH0 PUSH2 0x4DC DUP5 DUP3 DUP6 ADD PUSH2 0x4A6 JUMP JUMPDEST SWAP2 POP POP SWAP3 SWAP2 POP POP JUMP JUMPDEST PUSH0 DUP2 SWAP1 POP SWAP2 SWAP1 POP JUMP JUMPDEST PUSH2 0x4F7 DUP2 PUSH2 0x4E5 JUMP JUMPDEST DUP3 MSTORE POP POP JUMP JUMPDEST PUSH0 PUSH1 0x20 DUP3 ADD SWAP1 POP PUSH2 0x510 PUSH0 DUP4 ADD DUP5 PUSH2 0x4EE JUMP JUMPDEST SWAP3 SWAP2 POP POP JUMP JUMPDEST PUSH0 DUP3 DUP3 MSTORE PUSH1 0x20 DUP3 ADD SWAP1 POP SWAP3 SWAP2 POP POP JUMP JUMPDEST PUSH32 0x4E6F7420656E6F7567682066756E647300000000000000000000000000000000 PUSH0 DUP3 ADD MSTORE POP JUMP JUMPDEST PUSH0 PUSH2 0x55A PUSH1 0x10 DUP4 PUSH2 0x516 JUMP JUMPDEST SWAP2 POP PUSH2 0x565 DUP3 PUSH2 0x526 JUMP JUMPDEST PUSH1 0x20 DUP3 ADD SWAP1 POP SWAP2 SWAP1 POP JUMP JUMPDEST PUSH0 PUSH1 0x20 DUP3 ADD SWAP1 POP DUP2 DUP2 SUB PUSH0 DUP4 ADD MSTORE PUSH2 0x587 DUP2 PUSH2 0x54E JUMP JUMPDEST SWAP1 POP SWAP2 SWAP1 POP JUMP JUMPDEST PUSH0 DUP2 SWAP1 POP SWAP3 SWAP2 POP POP JUMP JUMPDEST POP JUMP JUMPDEST PUSH0 PUSH2 0x5A6 PUSH0 DUP4 PUSH2 0x58E JUMP JUMPDEST SWAP2 POP PUSH2 0x5B1 DUP3 PUSH2 0x598 JUMP JUMPDEST PUSH0 DUP3 ADD SWAP1 POP SWAP2 SWAP1 POP JUMP JUMPDEST PUSH0 PUSH2 0x5C5 DUP3 PUSH2 0x59B JUMP JUMPDEST SWAP2 POP DUP2 SWAP1 POP SWAP2 SWAP1 POP JUMP JUMPDEST PUSH32 0x5472616E73666572206661696C65640000000000000000000000000000000000 PUSH0 DUP3 ADD MSTORE POP JUMP JUMPDEST PUSH0 PUSH2 0x603 PUSH1 0xF DUP4 PUSH2 0x516 JUMP JUMPDEST SWAP2 POP PUSH2 0x60E DUP3 PUSH2 0x5CF JUMP JUMPDEST PUSH1 0x20 DUP3 ADD SWAP1 POP SWAP2 SWAP1 POP JUMP JUMPDEST PUSH0 PUSH1 0x20 DUP3 ADD SWAP1 POP DUP2 DUP2 SUB PUSH0 DUP4 ADD MSTORE PUSH2 0x630 DUP2 PUSH2 0x5F7 JUMP JUMPDEST SWAP1 POP SWAP2 SWAP1 POP JUMP JUMPDEST PUSH32 0x4E487B7100000000000000000000000000000000000000000000000000000000 PUSH0 MSTORE PUSH1 0x11 PUSH1 0x4 MSTORE PUSH1 0x24 PUSH0 REVERT JUMPDEST PUSH0 PUSH2 0x66E DUP3 PUSH2 0x4E5 JUMP JUMPDEST SWAP2 POP PUSH2 0x679 DUP4 PUSH2 0x4E5 JUMP JUMPDEST SWAP3 POP DUP3 DUP3 ADD SWAP1 POP DUP1 DUP3 GT ISZERO PUSH2 0x691 JUMPI PUSH2 0x690 PUSH2 0x637 JUMP JUMPDEST JUMPDEST SWAP3 SWAP2 POP POP JUMP JUMPDEST PUSH32 0x4265206361726566756C20746F2061747461636B732C20677561726420686173 PUSH0 DUP3 ADD MSTORE PUSH32 0x20746F2062652066616C73650000000000000000000000000000000000000000 PUSH1 0x20 DUP3 ADD MSTORE POP JUMP JUMPDEST PUSH0 PUSH2 0x6F1 PUSH1 0x2C DUP4 PUSH2 0x516 JUMP JUMPDEST SWAP2 POP PUSH2 0x6FC DUP3 PUSH2 0x697 JUMP JUMPDEST PUSH1 0x40 DUP3 ADD SWAP1 POP SWAP2 SWAP1 POP JUMP JUMPDEST PUSH0 PUSH1 0x20 DUP3 ADD SWAP1 POP DUP2 DUP2 SUB PUSH0 DUP4 ADD MSTORE PUSH2 0x71E DUP2 PUSH2 0x6E5 JUMP JUMPDEST SWAP1 POP SWAP2 SWAP1 POP JUMP INVALID LOG2 PUSH5 0x6970667358 0x22 SLT KECCAK256 DUP6 ADDRESS TLOAD 0x29 LOG0 STOP PUSH13 0x9538EE80515EADF317462CBD06 PUSH23 0xB2C98EC82F7A8797CC2E2264736F6C634300081C003300 "
				},
				"gasEstimates": {
					"creation": {
						"codeDepositCost": "376600",
						"executionCost": "409",
						"totalCost": "377009"
					},
					"external": {
						"balances(address)": "2801",
						"redeemWithGuard()": "infinite",
						"redeemWithUpdateBalance()": "infinite",
						"store()": "infinite"
					}
				},
				"methodIdentifiers": {
					"balances(address)": "27e235e3",
					"redeemWithGuard()": "fce8a216",
					"redeemWithUpdateBalance()": "0bbdfc23",
					"store()": "975057e7"
				}
			},
			"storageLayout": {
				"storage": [
					{
						"astId": 5,
						"contract": "contracts/Security/30_newReetrency1.sol:Vault",
						"label": "balances",
						"offset": 0,
						"slot": "0",
						"type": "t_mapping(t_address,t_uint256)"
					},
					{
						"astId": 7,
						"contract": "contracts/Security/30_newReetrency1.sol:Vault",
						"label": "guard",
						"offset": 0,
						"slot": "1",
						"type": "t_bool"
					}
				],
				"types": {
					"t_address": {
						"encoding": "inplace",
						"label": "address",
						"numberOfBytes": "20"
					},
					"t_bool": {
						"encoding": "inplace",
						"label": "bool",
						"numberOfBytes": "1"
					},
					"t_mapping(t_address,t_uint256)": {
						"encoding": "mapping",
						"key": "t_address",
						"label": "mapping(address => uint256)",
						"numberOfBytes": "32",
						"value": "t_uint256"
					},
					"t_uint256": {
						"encoding": "inplace",
						"label": "uint256",
						"numberOfBytes": "32"
					}
				}
			},
			"userdoc": {
				"kind": "user",
				"methods": {},
				"version": 1
			}
		}
	}
}