{
	"contracts/Security/33_gasLimit.sol": {
		"Voting": {
			"abi": [
				{
					"inputs": [],
					"stateMutability": "nonpayable",
					"type": "constructor"
				},
				{
					"inputs": [
						{
							"internalType": "address",
							"name": "owner",
							"type": "address"
						}
					],
					"name": "OwnableInvalidOwner",
					"type": "error"
				},
				{
					"inputs": [
						{
							"internalType": "address",
							"name": "account",
							"type": "address"
						}
					],
					"name": "OwnableUnauthorizedAccount",
					"type": "error"
				},
				{
					"anonymous": false,
					"inputs": [
						{
							"indexed": true,
							"internalType": "address",
							"name": "previousOwner",
							"type": "address"
						},
						{
							"indexed": true,
							"internalType": "address",
							"name": "newOwner",
							"type": "address"
						}
					],
					"name": "OwnershipTransferred",
					"type": "event"
				},
				{
					"anonymous": false,
					"inputs": [
						{
							"indexed": false,
							"internalType": "uint256",
							"name": "proposalId",
							"type": "uint256"
						}
					],
					"name": "ProposalRegistered",
					"type": "event"
				},
				{
					"anonymous": false,
					"inputs": [
						{
							"indexed": false,
							"internalType": "address",
							"name": "voter",
							"type": "address"
						},
						{
							"indexed": false,
							"internalType": "uint256",
							"name": "proposalId",
							"type": "uint256"
						}
					],
					"name": "Voted",
					"type": "event"
				},
				{
					"anonymous": false,
					"inputs": [
						{
							"indexed": false,
							"internalType": "address",
							"name": "voterAddress",
							"type": "address"
						}
					],
					"name": "VoterRegistered",
					"type": "event"
				},
				{
					"anonymous": false,
					"inputs": [
						{
							"indexed": false,
							"internalType": "enum Voting.WorkflowStatus",
							"name": "previousStatus",
							"type": "uint8"
						},
						{
							"indexed": false,
							"internalType": "enum Voting.WorkflowStatus",
							"name": "newStatus",
							"type": "uint8"
						}
					],
					"name": "WorkflowStatusChange",
					"type": "event"
				},
				{
					"inputs": [],
					"name": "endProposalsRegistration",
					"outputs": [],
					"stateMutability": "nonpayable",
					"type": "function"
				},
				{
					"inputs": [],
					"name": "endVotingSession",
					"outputs": [],
					"stateMutability": "nonpayable",
					"type": "function"
				},
				{
					"inputs": [],
					"name": "getWinner",
					"outputs": [
						{
							"components": [
								{
									"internalType": "string",
									"name": "description",
									"type": "string"
								},
								{
									"internalType": "uint256",
									"name": "voteCount",
									"type": "uint256"
								}
							],
							"internalType": "struct Voting.Proposal",
							"name": "",
							"type": "tuple"
						}
					],
					"stateMutability": "view",
					"type": "function"
				},
				{
					"inputs": [],
					"name": "owner",
					"outputs": [
						{
							"internalType": "address",
							"name": "",
							"type": "address"
						}
					],
					"stateMutability": "view",
					"type": "function"
				},
				{
					"inputs": [
						{
							"internalType": "uint256",
							"name": "",
							"type": "uint256"
						}
					],
					"name": "proposals",
					"outputs": [
						{
							"internalType": "string",
							"name": "description",
							"type": "string"
						},
						{
							"internalType": "uint256",
							"name": "voteCount",
							"type": "uint256"
						}
					],
					"stateMutability": "view",
					"type": "function"
				},
				{
					"inputs": [
						{
							"internalType": "string",
							"name": "proposalDescription",
							"type": "string"
						}
					],
					"name": "registerProposals",
					"outputs": [],
					"stateMutability": "nonpayable",
					"type": "function"
				},
				{
					"inputs": [
						{
							"internalType": "address",
							"name": "_voterAddress",
							"type": "address"
						}
					],
					"name": "registerVoters",
					"outputs": [],
					"stateMutability": "nonpayable",
					"type": "function"
				},
				{
					"inputs": [],
					"name": "renounceOwnership",
					"outputs": [],
					"stateMutability": "nonpayable",
					"type": "function"
				},
				{
					"inputs": [],
					"name": "startProposalsRegistration",
					"outputs": [],
					"stateMutability": "nonpayable",
					"type": "function"
				},
				{
					"inputs": [],
					"name": "startVotingSession",
					"outputs": [],
					"stateMutability": "nonpayable",
					"type": "function"
				},
				{
					"inputs": [
						{
							"internalType": "address",
							"name": "newOwner",
							"type": "address"
						}
					],
					"name": "transferOwnership",
					"outputs": [],
					"stateMutability": "nonpayable",
					"type": "function"
				},
				{
					"inputs": [
						{
							"internalType": "uint256",
							"name": "proposalId",
							"type": "uint256"
						}
					],
					"name": "vote",
					"outputs": [],
					"stateMutability": "nonpayable",
					"type": "function"
				},
				{
					"inputs": [],
					"name": "votesTallied",
					"outputs": [],
					"stateMutability": "nonpayable",
					"type": "function"
				},
				{
					"inputs": [],
					"name": "workflowStatus",
					"outputs": [
						{
							"internalType": "enum Voting.WorkflowStatus",
							"name": "",
							"type": "uint8"
						}
					],
					"stateMutability": "view",
					"type": "function"
				}
			],
			"devdoc": {
				"errors": {
					"OwnableInvalidOwner(address)": [
						{
							"details": "The owner is not a valid owner account. (eg. `address(0)`)"
						}
					],
					"OwnableUnauthorizedAccount(address)": [
						{
							"details": "The caller account is not authorized to perform an operation."
						}
					]
				},
				"kind": "dev",
				"methods": {
					"owner()": {
						"details": "Returns the address of the current owner."
					},
					"renounceOwnership()": {
						"details": "Leaves the contract without owner. It will not be possible to call `onlyOwner` functions. Can only be called by the current owner. NOTE: Renouncing ownership will leave the contract without an owner, thereby disabling any functionality that is only available to the owner."
					},
					"transferOwnership(address)": {
						"details": "Transfers ownership of the contract to a new account (`newOwner`). Can only be called by the current owner."
					}
				},
				"version": 1
			},
			"evm": {
				"assembly": "    /* \"contracts/Security/33_gasLimit.sol\":115:4838  contract Voting is Ownable {... */\n  mstore(0x40, 0x80)\n    /* \"contracts/Security/33_gasLimit.sol\":148:184  constructor() Ownable(msg.sender) {} */\n  callvalue\n  dup1\n  iszero\n  tag_1\n  jumpi\n  revert(0x00, 0x00)\ntag_1:\n  pop\n    /* \"contracts/Security/33_gasLimit.sol\":170:180  msg.sender */\n  caller\n    /* \"@openzeppelin/contracts/access/Ownable.sol\":1297:1298  0 */\n  0x00\n    /* \"@openzeppelin/contracts/access/Ownable.sol\":1273:1299  initialOwner == address(0) */\n  0xffffffffffffffffffffffffffffffffffffffff\n  and\n    /* \"@openzeppelin/contracts/access/Ownable.sol\":1273:1285  initialOwner */\n  dup2\n    /* \"@openzeppelin/contracts/access/Ownable.sol\":1273:1299  initialOwner == address(0) */\n  0xffffffffffffffffffffffffffffffffffffffff\n  and\n  sub\n    /* \"@openzeppelin/contracts/access/Ownable.sol\":1269:1364  if (initialOwner == address(0)) {... */\n  tag_5\n  jumpi\n    /* \"@openzeppelin/contracts/access/Ownable.sol\":1350:1351  0 */\n  0x00\n    /* \"@openzeppelin/contracts/access/Ownable.sol\":1322:1353  OwnableInvalidOwner(address(0)) */\n  mload(0x40)\n  0x1e4fbdf700000000000000000000000000000000000000000000000000000000\n  dup2\n  mstore\n  0x04\n  add\n  tag_6\n  swap2\n  swap1\n  tag_7\n  jump\t// in\ntag_6:\n  mload(0x40)\n  dup1\n  swap2\n  sub\n  swap1\n  revert\n    /* \"@openzeppelin/contracts/access/Ownable.sol\":1269:1364  if (initialOwner == address(0)) {... */\ntag_5:\n    /* \"@openzeppelin/contracts/access/Ownable.sol\":1373:1405  _transferOwnership(initialOwner) */\n  tag_8\n    /* \"@openzeppelin/contracts/access/Ownable.sol\":1392:1404  initialOwner */\n  dup2\n    /* \"@openzeppelin/contracts/access/Ownable.sol\":1373:1391  _transferOwnership */\n  shl(0x20, tag_9)\n    /* \"@openzeppelin/contracts/access/Ownable.sol\":1373:1405  _transferOwnership(initialOwner) */\n  0x20\n  shr\n  jump\t// in\ntag_8:\n    /* \"@openzeppelin/contracts/access/Ownable.sol\":1225:1412  constructor(address initialOwner) {... */\n  pop\n    /* \"contracts/Security/33_gasLimit.sol\":115:4838  contract Voting is Ownable {... */\n  jump(tag_11)\n    /* \"@openzeppelin/contracts/access/Ownable.sol\":2912:3099  function _transferOwnership(address newOwner) internal virtual {... */\ntag_9:\n    /* \"@openzeppelin/contracts/access/Ownable.sol\":2985:3001  address oldOwner */\n  0x00\n    /* \"@openzeppelin/contracts/access/Ownable.sol\":3004:3010  _owner */\n  0x00\n  0x00\n  swap1\n  sload\n  swap1\n  0x0100\n  exp\n  swap1\n  div\n  0xffffffffffffffffffffffffffffffffffffffff\n  and\n    /* \"@openzeppelin/contracts/access/Ownable.sol\":2985:3010  address oldOwner = _owner */\n  swap1\n  pop\n    /* \"@openzeppelin/contracts/access/Ownable.sol\":3029:3037  newOwner */\n  dup2\n    /* \"@openzeppelin/contracts/access/Ownable.sol\":3020:3026  _owner */\n  0x00\n  0x00\n    /* \"@openzeppelin/contracts/access/Ownable.sol\":3020:3037  _owner = newOwner */\n  0x0100\n  exp\n  dup2\n  sload\n  dup2\n  0xffffffffffffffffffffffffffffffffffffffff\n  mul\n  not\n  and\n  swap1\n  dup4\n  0xffffffffffffffffffffffffffffffffffffffff\n  and\n  mul\n  or\n  swap1\n  sstore\n  pop\n    /* \"@openzeppelin/contracts/access/Ownable.sol\":3083:3091  newOwner */\n  dup2\n    /* \"@openzeppelin/contracts/access/Ownable.sol\":3052:3092  OwnershipTransferred(oldOwner, newOwner) */\n  0xffffffffffffffffffffffffffffffffffffffff\n  and\n    /* \"@openzeppelin/contracts/access/Ownable.sol\":3073:3081  oldOwner */\n  dup2\n    /* \"@openzeppelin/contracts/access/Ownable.sol\":3052:3092  OwnershipTransferred(oldOwner, newOwner) */\n  0xffffffffffffffffffffffffffffffffffffffff\n  and\n  0x8be0079c531659141344cd1fd0a4f28419497f9722a3daafe3b4186f6b6457e0\n  mload(0x40)\n  mload(0x40)\n  dup1\n  swap2\n  sub\n  swap1\n  log3\n    /* \"@openzeppelin/contracts/access/Ownable.sol\":2975:3099  {... */\n  pop\n    /* \"@openzeppelin/contracts/access/Ownable.sol\":2912:3099  function _transferOwnership(address newOwner) internal virtual {... */\n  pop\n  jump\t// out\n    /* \"#utility.yul\":7:133   */\ntag_13:\n    /* \"#utility.yul\":44:51   */\n  0x00\n    /* \"#utility.yul\":84:126   */\n  0xffffffffffffffffffffffffffffffffffffffff\n    /* \"#utility.yul\":77:82   */\n  dup3\n    /* \"#utility.yul\":73:127   */\n  and\n    /* \"#utility.yul\":62:127   */\n  swap1\n  pop\n    /* \"#utility.yul\":7:133   */\n  swap2\n  swap1\n  pop\n  jump\t// out\n    /* \"#utility.yul\":139:235   */\ntag_14:\n    /* \"#utility.yul\":176:183   */\n  0x00\n    /* \"#utility.yul\":205:229   */\n  tag_19\n    /* \"#utility.yul\":223:228   */\n  dup3\n    /* \"#utility.yul\":205:229   */\n  tag_13\n  jump\t// in\ntag_19:\n    /* \"#utility.yul\":194:229   */\n  swap1\n  pop\n    /* \"#utility.yul\":139:235   */\n  swap2\n  swap1\n  pop\n  jump\t// out\n    /* \"#utility.yul\":241:359   */\ntag_15:\n    /* \"#utility.yul\":328:352   */\n  tag_21\n    /* \"#utility.yul\":346:351   */\n  dup2\n    /* \"#utility.yul\":328:352   */\n  tag_14\n  jump\t// in\ntag_21:\n    /* \"#utility.yul\":323:326   */\n  dup3\n    /* \"#utility.yul\":316:353   */\n  mstore\n    /* \"#utility.yul\":241:359   */\n  pop\n  pop\n  jump\t// out\n    /* \"#utility.yul\":365:587   */\ntag_7:\n    /* \"#utility.yul\":458:462   */\n  0x00\n    /* \"#utility.yul\":496:498   */\n  0x20\n    /* \"#utility.yul\":485:494   */\n  dup3\n    /* \"#utility.yul\":481:499   */\n  add\n    /* \"#utility.yul\":473:499   */\n  swap1\n  pop\n    /* \"#utility.yul\":509:580   */\n  tag_23\n    /* \"#utility.yul\":577:578   */\n  0x00\n    /* \"#utility.yul\":566:575   */\n  dup4\n    /* \"#utility.yul\":562:579   */\n  add\n    /* \"#utility.yul\":553:559   */\n  dup5\n    /* \"#utility.yul\":509:580   */\n  tag_15\n  jump\t// in\ntag_23:\n    /* \"#utility.yul\":365:587   */\n  swap3\n  swap2\n  pop\n  pop\n  jump\t// out\n    /* \"contracts/Security/33_gasLimit.sol\":115:4838  contract Voting is Ownable {... */\ntag_11:\n  dataSize(sub_0)\n  dup1\n  dataOffset(sub_0)\n  0x00\n  codecopy\n  0x00\n  return\nstop\n\nsub_0: assembly {\n        /* \"contracts/Security/33_gasLimit.sol\":115:4838  contract Voting is Ownable {... */\n      mstore(0x40, 0x80)\n      callvalue\n      dup1\n      iszero\n      tag_1\n      jumpi\n      revert(0x00, 0x00)\n    tag_1:\n      pop\n      jumpi(tag_2, lt(calldatasize, 0x04))\n      shr(0xe0, calldataload(0x00))\n      dup1\n      0xa7bfab16\n      gt\n      tag_17\n      jumpi\n      dup1\n      0xe2dd58c6\n      gt\n      tag_18\n      jumpi\n      dup1\n      0xe2dd58c6\n      eq\n      tag_13\n      jumpi\n      dup1\n      0xed8a1608\n      eq\n      tag_14\n      jumpi\n      dup1\n      0xee74c678\n      eq\n      tag_15\n      jumpi\n      dup1\n      0xf2fde38b\n      eq\n      tag_16\n      jumpi\n      jump(tag_2)\n    tag_18:\n      dup1\n      0xa7bfab16\n      eq\n      tag_10\n      jumpi\n      dup1\n      0xada7415f\n      eq\n      tag_11\n      jumpi\n      dup1\n      0xe09b8c79\n      eq\n      tag_12\n      jumpi\n      jump(tag_2)\n    tag_17:\n      dup1\n      0x715018a6\n      gt\n      tag_19\n      jumpi\n      dup1\n      0x715018a6\n      eq\n      tag_6\n      jumpi\n      dup1\n      0x8da5cb5b\n      eq\n      tag_7\n      jumpi\n      dup1\n      0x8e7ea5b2\n      eq\n      tag_8\n      jumpi\n      dup1\n      0xa1edffa2\n      eq\n      tag_9\n      jumpi\n      jump(tag_2)\n    tag_19:\n      dup1\n      0x0121b93f\n      eq\n      tag_3\n      jumpi\n      dup1\n      0x013cf08b\n      eq\n      tag_4\n      jumpi\n      dup1\n      0x6c297445\n      eq\n      tag_5\n      jumpi\n    tag_2:\n      revert(0x00, 0x00)\n        /* \"contracts/Security/33_gasLimit.sol\":3076:3715  function vote(uint256 proposalId)... */\n    tag_3:\n      tag_20\n      0x04\n      dup1\n      calldatasize\n      sub\n      dup2\n      add\n      swap1\n      tag_21\n      swap2\n      swap1\n      tag_22\n      jump\t// in\n    tag_21:\n      tag_23\n      jump\t// in\n    tag_20:\n      stop\n        /* \"contracts/Security/33_gasLimit.sol\":715:742  Proposal[] public proposals */\n    tag_4:\n      tag_24\n      0x04\n      dup1\n      calldatasize\n      sub\n      dup2\n      add\n      swap1\n      tag_25\n      swap2\n      swap1\n      tag_22\n      jump\t// in\n    tag_25:\n      tag_26\n      jump\t// in\n    tag_24:\n      mload(0x40)\n      tag_27\n      swap3\n      swap2\n      swap1\n      tag_28\n      jump\t// in\n    tag_27:\n      mload(0x40)\n      dup1\n      swap2\n      sub\n      swap1\n      return\n        /* \"contracts/Security/33_gasLimit.sol\":2348:2717  function endProposalsRegistration()... */\n    tag_5:\n      tag_29\n      tag_30\n      jump\t// in\n    tag_29:\n      stop\n        /* \"@openzeppelin/contracts/access/Ownable.sol\":2293:2394  function renounceOwnership() public virtual onlyOwner {... */\n    tag_6:\n      tag_31\n      tag_32\n      jump\t// in\n    tag_31:\n      stop\n        /* \"@openzeppelin/contracts/access/Ownable.sol\":1638:1723  function owner() public view virtual returns (address) {... */\n    tag_7:\n      tag_33\n      tag_34\n      jump\t// in\n    tag_33:\n      mload(0x40)\n      tag_35\n      swap2\n      swap1\n      tag_36\n      jump\t// in\n    tag_35:\n      mload(0x40)\n      dup1\n      swap2\n      sub\n      swap1\n      return\n        /* \"contracts/Security/33_gasLimit.sol\":4649:4836  function getWinner()... */\n    tag_8:\n      tag_37\n      tag_38\n      jump\t// in\n    tag_37:\n      mload(0x40)\n      tag_39\n      swap2\n      swap1\n      tag_40\n      jump\t// in\n    tag_39:\n      mload(0x40)\n      dup1\n      swap2\n      sub\n      swap1\n      return\n        /* \"contracts/Security/33_gasLimit.sol\":594:630  WorkflowStatus public workflowStatus */\n    tag_9:\n      tag_41\n      tag_42\n      jump\t// in\n    tag_41:\n      mload(0x40)\n      tag_43\n      swap2\n      swap1\n      tag_44\n      jump\t// in\n    tag_43:\n      mload(0x40)\n      dup1\n      swap2\n      sub\n      swap1\n      return\n        /* \"contracts/Security/33_gasLimit.sol\":3721:4050  function endVotingSession()... */\n    tag_10:\n      tag_45\n      tag_46\n      jump\t// in\n    tag_45:\n      stop\n        /* \"contracts/Security/33_gasLimit.sol\":4056:4643  function votesTallied()... */\n    tag_11:\n      tag_47\n      tag_48\n      jump\t// in\n    tag_47:\n      stop\n        /* \"contracts/Security/33_gasLimit.sol\":1579:1932  function startProposalsRegistration()... */\n    tag_12:\n      tag_49\n      tag_50\n      jump\t// in\n    tag_49:\n      stop\n        /* \"contracts/Security/33_gasLimit.sol\":1938:2342  function registerProposals(string memory proposalDescription)... */\n    tag_13:\n      tag_51\n      0x04\n      dup1\n      calldatasize\n      sub\n      dup2\n      add\n      swap1\n      tag_52\n      swap2\n      swap1\n      tag_53\n      jump\t// in\n    tag_52:\n      tag_54\n      jump\t// in\n    tag_51:\n      stop\n        /* \"contracts/Security/33_gasLimit.sol\":1206:1573  function registerVoters(address _voterAddress)... */\n    tag_14:\n      tag_55\n      0x04\n      dup1\n      calldatasize\n      sub\n      dup2\n      add\n      swap1\n      tag_56\n      swap2\n      swap1\n      tag_57\n      jump\t// in\n    tag_56:\n      tag_58\n      jump\t// in\n    tag_55:\n      stop\n        /* \"contracts/Security/33_gasLimit.sol\":2723:3070  function startVotingSession()... */\n    tag_15:\n      tag_59\n      tag_60\n      jump\t// in\n    tag_59:\n      stop\n        /* \"@openzeppelin/contracts/access/Ownable.sol\":2543:2758  function transferOwnership(address newOwner) public virtual onlyOwner {... */\n    tag_16:\n      tag_61\n      0x04\n      dup1\n      calldatasize\n      sub\n      dup2\n      add\n      swap1\n      tag_62\n      swap2\n      swap1\n      tag_57\n      jump\t// in\n    tag_62:\n      tag_63\n      jump\t// in\n    tag_61:\n      stop\n        /* \"contracts/Security/33_gasLimit.sol\":3076:3715  function vote(uint256 proposalId)... */\n    tag_23:\n        /* \"contracts/Security/33_gasLimit.sol\":3144:3179  WorkflowStatus.VotingSessionStarted */\n      0x03\n        /* \"contracts/Security/33_gasLimit.sol\":1105:1112  _status */\n      dup1\n        /* \"contracts/Security/33_gasLimit.sol\":1087:1112  workflowStatus == _status */\n      0x05\n      dup2\n      gt\n      iszero\n      tag_65\n      jumpi\n      tag_66\n      tag_67\n      jump\t// in\n    tag_66:\n    tag_65:\n        /* \"contracts/Security/33_gasLimit.sol\":1087:1101  workflowStatus */\n      0x00\n      0x14\n      swap1\n      sload\n      swap1\n      0x0100\n      exp\n      swap1\n      div\n      0xff\n      and\n        /* \"contracts/Security/33_gasLimit.sol\":1087:1112  workflowStatus == _status */\n      0x05\n      dup2\n      gt\n      iszero\n      tag_68\n      jumpi\n      tag_69\n      tag_67\n      jump\t// in\n    tag_69:\n    tag_68:\n      eq\n        /* \"contracts/Security/33_gasLimit.sol\":1066:1182  require(... */\n      tag_70\n      jumpi\n      mload(0x40)\n      0x08c379a000000000000000000000000000000000000000000000000000000000\n      dup2\n      mstore\n      0x04\n      add\n      tag_71\n      swap1\n      tag_72\n      jump\t// in\n    tag_71:\n      mload(0x40)\n      dup1\n      swap2\n      sub\n      swap1\n      revert\n    tag_70:\n        /* \"contracts/Security/33_gasLimit.sol\":3203:3209  voters */\n      0x02\n        /* \"contracts/Security/33_gasLimit.sol\":3203:3221  voters[msg.sender] */\n      0x00\n        /* \"contracts/Security/33_gasLimit.sol\":3210:3220  msg.sender */\n      caller\n        /* \"contracts/Security/33_gasLimit.sol\":3203:3221  voters[msg.sender] */\n      0xffffffffffffffffffffffffffffffffffffffff\n      and\n      0xffffffffffffffffffffffffffffffffffffffff\n      and\n      dup2\n      mstore\n      0x20\n      add\n      swap1\n      dup2\n      mstore\n      0x20\n      add\n      0x00\n      keccak256\n        /* \"contracts/Security/33_gasLimit.sol\":3203:3234  voters[msg.sender].isRegistered */\n      0x00\n      add\n      0x00\n      swap1\n      sload\n      swap1\n      0x0100\n      exp\n      swap1\n      div\n      0xff\n      and\n        /* \"contracts/Security/33_gasLimit.sol\":3195:3266  require(voters[msg.sender].isRegistered, \"You are not allowed to vote\") */\n      tag_74\n      jumpi\n      mload(0x40)\n      0x08c379a000000000000000000000000000000000000000000000000000000000\n      dup2\n      mstore\n      0x04\n      add\n      tag_75\n      swap1\n      tag_76\n      jump\t// in\n    tag_75:\n      mload(0x40)\n      dup1\n      swap2\n      sub\n      swap1\n      revert\n    tag_74:\n        /* \"contracts/Security/33_gasLimit.sol\":3285:3291  voters */\n      0x02\n        /* \"contracts/Security/33_gasLimit.sol\":3285:3303  voters[msg.sender] */\n      0x00\n        /* \"contracts/Security/33_gasLimit.sol\":3292:3302  msg.sender */\n      caller\n        /* \"contracts/Security/33_gasLimit.sol\":3285:3303  voters[msg.sender] */\n      0xffffffffffffffffffffffffffffffffffffffff\n      and\n      0xffffffffffffffffffffffffffffffffffffffff\n      and\n      dup2\n      mstore\n      0x20\n      add\n      swap1\n      dup2\n      mstore\n      0x20\n      add\n      0x00\n      keccak256\n        /* \"contracts/Security/33_gasLimit.sol\":3285:3312  voters[msg.sender].hasVoted */\n      0x00\n      add\n      0x01\n      swap1\n      sload\n      swap1\n      0x0100\n      exp\n      swap1\n      div\n      0xff\n      and\n        /* \"contracts/Security/33_gasLimit.sol\":3284:3312  !voters[msg.sender].hasVoted */\n      iszero\n        /* \"contracts/Security/33_gasLimit.sol\":3276:3339  require(!voters[msg.sender].hasVoted, \"You have already voted\") */\n      tag_77\n      jumpi\n      mload(0x40)\n      0x08c379a000000000000000000000000000000000000000000000000000000000\n      dup2\n      mstore\n      0x04\n      add\n      tag_78\n      swap1\n      tag_79\n      jump\t// in\n    tag_78:\n      mload(0x40)\n      dup1\n      swap2\n      sub\n      swap1\n      revert\n    tag_77:\n        /* \"contracts/Security/33_gasLimit.sol\":3384:3385  1 */\n      0x01\n        /* \"contracts/Security/33_gasLimit.sol\":3349:3358  proposals */\n      0x03\n        /* \"contracts/Security/33_gasLimit.sol\":3359:3369  proposalId */\n      dup4\n        /* \"contracts/Security/33_gasLimit.sol\":3349:3370  proposals[proposalId] */\n      dup2\n      sload\n      dup2\n      lt\n      tag_80\n      jumpi\n      tag_81\n      tag_82\n      jump\t// in\n    tag_81:\n    tag_80:\n      swap1\n      0x00\n      mstore\n      keccak256(0x00, 0x20)\n      swap1\n      0x02\n      mul\n      add\n        /* \"contracts/Security/33_gasLimit.sol\":3349:3380  proposals[proposalId].voteCount */\n      0x01\n      add\n      0x00\n        /* \"contracts/Security/33_gasLimit.sol\":3349:3385  proposals[proposalId].voteCount += 1 */\n      dup3\n      dup3\n      sload\n      tag_84\n      swap2\n      swap1\n      tag_85\n      jump\t// in\n    tag_84:\n      swap3\n      pop\n      pop\n      dup2\n      swap1\n      sstore\n      pop\n        /* \"contracts/Security/33_gasLimit.sol\":3425:3429  true */\n      0x01\n        /* \"contracts/Security/33_gasLimit.sol\":3395:3401  voters */\n      0x02\n        /* \"contracts/Security/33_gasLimit.sol\":3395:3413  voters[msg.sender] */\n      0x00\n        /* \"contracts/Security/33_gasLimit.sol\":3402:3412  msg.sender */\n      caller\n        /* \"contracts/Security/33_gasLimit.sol\":3395:3413  voters[msg.sender] */\n      0xffffffffffffffffffffffffffffffffffffffff\n      and\n      0xffffffffffffffffffffffffffffffffffffffff\n      and\n      dup2\n      mstore\n      0x20\n      add\n      swap1\n      dup2\n      mstore\n      0x20\n      add\n      0x00\n      keccak256\n        /* \"contracts/Security/33_gasLimit.sol\":3395:3422  voters[msg.sender].hasVoted */\n      0x00\n      add\n      0x01\n        /* \"contracts/Security/33_gasLimit.sol\":3395:3429  voters[msg.sender].hasVoted = true */\n      0x0100\n      exp\n      dup2\n      sload\n      dup2\n      0xff\n      mul\n      not\n      and\n      swap1\n      dup4\n      iszero\n      iszero\n      mul\n      or\n      swap1\n      sstore\n      pop\n        /* \"contracts/Security/33_gasLimit.sol\":3476:3486  proposalId */\n      dup2\n        /* \"contracts/Security/33_gasLimit.sol\":3439:3445  voters */\n      0x02\n        /* \"contracts/Security/33_gasLimit.sol\":3439:3457  voters[msg.sender] */\n      0x00\n        /* \"contracts/Security/33_gasLimit.sol\":3446:3456  msg.sender */\n      caller\n        /* \"contracts/Security/33_gasLimit.sol\":3439:3457  voters[msg.sender] */\n      0xffffffffffffffffffffffffffffffffffffffff\n      and\n      0xffffffffffffffffffffffffffffffffffffffff\n      and\n      dup2\n      mstore\n      0x20\n      add\n      swap1\n      dup2\n      mstore\n      0x20\n      add\n      0x00\n      keccak256\n        /* \"contracts/Security/33_gasLimit.sol\":3439:3473  voters[msg.sender].votedProposalId */\n      0x01\n      add\n        /* \"contracts/Security/33_gasLimit.sol\":3439:3486  voters[msg.sender].votedProposalId = proposalId */\n      dup2\n      swap1\n      sstore\n      pop\n        /* \"contracts/Security/33_gasLimit.sol\":3560:3569  proposals */\n      0x03\n        /* \"contracts/Security/33_gasLimit.sol\":3570:3587  winningProposalId */\n      sload(0x01)\n        /* \"contracts/Security/33_gasLimit.sol\":3560:3588  proposals[winningProposalId] */\n      dup2\n      sload\n      dup2\n      lt\n      tag_86\n      jumpi\n      tag_87\n      tag_82\n      jump\t// in\n    tag_87:\n    tag_86:\n      swap1\n      0x00\n      mstore\n      keccak256(0x00, 0x20)\n      swap1\n      0x02\n      mul\n      add\n        /* \"contracts/Security/33_gasLimit.sol\":3560:3598  proposals[winningProposalId].voteCount */\n      0x01\n      add\n      sload\n        /* \"contracts/Security/33_gasLimit.sol\":3514:3523  proposals */\n      0x03\n        /* \"contracts/Security/33_gasLimit.sol\":3524:3534  proposalId */\n      dup4\n        /* \"contracts/Security/33_gasLimit.sol\":3514:3535  proposals[proposalId] */\n      dup2\n      sload\n      dup2\n      lt\n      tag_89\n      jumpi\n      tag_90\n      tag_82\n      jump\t// in\n    tag_90:\n    tag_89:\n      swap1\n      0x00\n      mstore\n      keccak256(0x00, 0x20)\n      swap1\n      0x02\n      mul\n      add\n        /* \"contracts/Security/33_gasLimit.sol\":3514:3545  proposals[proposalId].voteCount */\n      0x01\n      add\n      sload\n        /* \"contracts/Security/33_gasLimit.sol\":3514:3598  proposals[proposalId].voteCount >... */\n      gt\n        /* \"contracts/Security/33_gasLimit.sol\":3497:3664  if (... */\n      iszero\n      tag_92\n      jumpi\n        /* \"contracts/Security/33_gasLimit.sol\":3643:3653  proposalId */\n      dup2\n        /* \"contracts/Security/33_gasLimit.sol\":3623:3640  winningProposalId */\n      0x01\n        /* \"contracts/Security/33_gasLimit.sol\":3623:3653  winningProposalId = proposalId */\n      dup2\n      swap1\n      sstore\n      pop\n        /* \"contracts/Security/33_gasLimit.sol\":3497:3664  if (... */\n    tag_92:\n        /* \"contracts/Security/33_gasLimit.sol\":3679:3708  Voted(msg.sender, proposalId) */\n      0x4d99b957a2bc29a30ebd96a7be8e68fe50a3c701db28a91436490b7d53870ca4\n        /* \"contracts/Security/33_gasLimit.sol\":3685:3695  msg.sender */\n      caller\n        /* \"contracts/Security/33_gasLimit.sol\":3697:3707  proposalId */\n      dup4\n        /* \"contracts/Security/33_gasLimit.sol\":3679:3708  Voted(msg.sender, proposalId) */\n      mload(0x40)\n      tag_93\n      swap3\n      swap2\n      swap1\n      tag_94\n      jump\t// in\n    tag_93:\n      mload(0x40)\n      dup1\n      swap2\n      sub\n      swap1\n      log1\n        /* \"contracts/Security/33_gasLimit.sol\":3076:3715  function vote(uint256 proposalId)... */\n      pop\n      pop\n      jump\t// out\n        /* \"contracts/Security/33_gasLimit.sol\":715:742  Proposal[] public proposals */\n    tag_26:\n      0x03\n      dup2\n      dup2\n      sload\n      dup2\n      lt\n      tag_95\n      jumpi\n      0x00\n      dup1\n      revert\n    tag_95:\n      swap1\n      0x00\n      mstore\n      keccak256(0x00, 0x20)\n      swap1\n      0x02\n      mul\n      add\n      0x00\n      swap2\n      pop\n      swap1\n      pop\n      dup1\n      0x00\n      add\n      dup1\n      sload\n      tag_97\n      swap1\n      tag_98\n      jump\t// in\n    tag_97:\n      dup1\n      0x1f\n      add\n      0x20\n      dup1\n      swap2\n      div\n      mul\n      0x20\n      add\n      mload(0x40)\n      swap1\n      dup2\n      add\n      0x40\n      mstore\n      dup1\n      swap3\n      swap2\n      swap1\n      dup2\n      dup2\n      mstore\n      0x20\n      add\n      dup3\n      dup1\n      sload\n      tag_99\n      swap1\n      tag_98\n      jump\t// in\n    tag_99:\n      dup1\n      iszero\n      tag_100\n      jumpi\n      dup1\n      0x1f\n      lt\n      tag_101\n      jumpi\n      0x0100\n      dup1\n      dup4\n      sload\n      div\n      mul\n      dup4\n      mstore\n      swap2\n      0x20\n      add\n      swap2\n      jump(tag_100)\n    tag_101:\n      dup3\n      add\n      swap2\n      swap1\n      0x00\n      mstore\n      keccak256(0x00, 0x20)\n      swap1\n    tag_102:\n      dup2\n      sload\n      dup2\n      mstore\n      swap1\n      0x01\n      add\n      swap1\n      0x20\n      add\n      dup1\n      dup4\n      gt\n      tag_102\n      jumpi\n      dup3\n      swap1\n      sub\n      0x1f\n      and\n      dup3\n      add\n      swap2\n    tag_100:\n      pop\n      pop\n      pop\n      pop\n      pop\n      swap1\n      dup1\n      0x01\n      add\n      sload\n      swap1\n      pop\n      dup3\n      jump\t// out\n        /* \"contracts/Security/33_gasLimit.sol\":2348:2717  function endProposalsRegistration()... */\n    tag_30:\n        /* \"contracts/Security/33_gasLimit.sol\":2418:2461  WorkflowStatus.ProposalsRegistrationStarted */\n      0x01\n        /* \"contracts/Security/33_gasLimit.sol\":1105:1112  _status */\n      dup1\n        /* \"contracts/Security/33_gasLimit.sol\":1087:1112  workflowStatus == _status */\n      0x05\n      dup2\n      gt\n      iszero\n      tag_104\n      jumpi\n      tag_105\n      tag_67\n      jump\t// in\n    tag_105:\n    tag_104:\n        /* \"contracts/Security/33_gasLimit.sol\":1087:1101  workflowStatus */\n      0x00\n      0x14\n      swap1\n      sload\n      swap1\n      0x0100\n      exp\n      swap1\n      div\n      0xff\n      and\n        /* \"contracts/Security/33_gasLimit.sol\":1087:1112  workflowStatus == _status */\n      0x05\n      dup2\n      gt\n      iszero\n      tag_106\n      jumpi\n      tag_107\n      tag_67\n      jump\t// in\n    tag_107:\n    tag_106:\n      eq\n        /* \"contracts/Security/33_gasLimit.sol\":1066:1182  require(... */\n      tag_108\n      jumpi\n      mload(0x40)\n      0x08c379a000000000000000000000000000000000000000000000000000000000\n      dup2\n      mstore\n      0x04\n      add\n      tag_109\n      swap1\n      tag_72\n      jump\t// in\n    tag_109:\n      mload(0x40)\n      dup1\n      swap2\n      sub\n      swap1\n      revert\n    tag_108:\n        /* \"@openzeppelin/contracts/access/Ownable.sol\":1531:1544  _checkOwner() */\n      tag_111\n        /* \"@openzeppelin/contracts/access/Ownable.sol\":1531:1542  _checkOwner */\n      tag_112\n        /* \"@openzeppelin/contracts/access/Ownable.sol\":1531:1544  _checkOwner() */\n      jump\t// in\n    tag_111:\n        /* \"contracts/Security/33_gasLimit.sol\":2512:2553  WorkflowStatus.ProposalsRegistrationEnded */\n      0x02\n        /* \"contracts/Security/33_gasLimit.sol\":2495:2509  workflowStatus */\n      0x00\n      0x14\n        /* \"contracts/Security/33_gasLimit.sol\":2495:2553  workflowStatus = WorkflowStatus.ProposalsRegistrationEnded */\n      0x0100\n      exp\n      dup2\n      sload\n      dup2\n      0xff\n      mul\n      not\n      and\n      swap1\n      dup4\n      0x05\n      dup2\n      gt\n      iszero\n      tag_114\n      jumpi\n      tag_115\n      tag_67\n      jump\t// in\n    tag_115:\n    tag_114:\n      mul\n      or\n      swap1\n      sstore\n      pop\n        /* \"contracts/Security/33_gasLimit.sol\":2568:2710  WorkflowStatusChange(... */\n      0x0a97a4ee45751e2abf3e4fc8946939630b11b371ea8ae39ccdc3056e98f5cc3f\n        /* \"contracts/Security/33_gasLimit.sol\":2602:2645  WorkflowStatus.ProposalsRegistrationStarted */\n      0x01\n        /* \"contracts/Security/33_gasLimit.sol\":2659:2700  WorkflowStatus.ProposalsRegistrationEnded */\n      0x02\n        /* \"contracts/Security/33_gasLimit.sol\":2568:2710  WorkflowStatusChange(... */\n      mload(0x40)\n      tag_116\n      swap3\n      swap2\n      swap1\n      tag_117\n      jump\t// in\n    tag_116:\n      mload(0x40)\n      dup1\n      swap2\n      sub\n      swap1\n      log1\n        /* \"contracts/Security/33_gasLimit.sol\":2348:2717  function endProposalsRegistration()... */\n      pop\n      jump\t// out\n        /* \"@openzeppelin/contracts/access/Ownable.sol\":2293:2394  function renounceOwnership() public virtual onlyOwner {... */\n    tag_32:\n        /* \"@openzeppelin/contracts/access/Ownable.sol\":1531:1544  _checkOwner() */\n      tag_119\n        /* \"@openzeppelin/contracts/access/Ownable.sol\":1531:1542  _checkOwner */\n      tag_112\n        /* \"@openzeppelin/contracts/access/Ownable.sol\":1531:1544  _checkOwner() */\n      jump\t// in\n    tag_119:\n        /* \"@openzeppelin/contracts/access/Ownable.sol\":2357:2387  _transferOwnership(address(0)) */\n      tag_121\n        /* \"@openzeppelin/contracts/access/Ownable.sol\":2384:2385  0 */\n      0x00\n        /* \"@openzeppelin/contracts/access/Ownable.sol\":2357:2375  _transferOwnership */\n      tag_122\n        /* \"@openzeppelin/contracts/access/Ownable.sol\":2357:2387  _transferOwnership(address(0)) */\n      jump\t// in\n    tag_121:\n        /* \"@openzeppelin/contracts/access/Ownable.sol\":2293:2394  function renounceOwnership() public virtual onlyOwner {... */\n      jump\t// out\n        /* \"@openzeppelin/contracts/access/Ownable.sol\":1638:1723  function owner() public view virtual returns (address) {... */\n    tag_34:\n        /* \"@openzeppelin/contracts/access/Ownable.sol\":1684:1691  address */\n      0x00\n        /* \"@openzeppelin/contracts/access/Ownable.sol\":1710:1716  _owner */\n      0x00\n      0x00\n      swap1\n      sload\n      swap1\n      0x0100\n      exp\n      swap1\n      div\n      0xffffffffffffffffffffffffffffffffffffffff\n      and\n        /* \"@openzeppelin/contracts/access/Ownable.sol\":1703:1716  return _owner */\n      swap1\n      pop\n        /* \"@openzeppelin/contracts/access/Ownable.sol\":1638:1723  function owner() public view virtual returns (address) {... */\n      swap1\n      jump\t// out\n        /* \"contracts/Security/33_gasLimit.sol\":4649:4836  function getWinner()... */\n    tag_38:\n        /* \"contracts/Security/33_gasLimit.sol\":4763:4778  Proposal memory */\n      tag_124\n      tag_125\n      jump\t// in\n    tag_124:\n        /* \"contracts/Security/33_gasLimit.sol\":4717:4744  WorkflowStatus.VotesTallied */\n      0x05\n        /* \"contracts/Security/33_gasLimit.sol\":1105:1112  _status */\n      dup1\n        /* \"contracts/Security/33_gasLimit.sol\":1087:1112  workflowStatus == _status */\n      0x05\n      dup2\n      gt\n      iszero\n      tag_127\n      jumpi\n      tag_128\n      tag_67\n      jump\t// in\n    tag_128:\n    tag_127:\n        /* \"contracts/Security/33_gasLimit.sol\":1087:1101  workflowStatus */\n      0x00\n      0x14\n      swap1\n      sload\n      swap1\n      0x0100\n      exp\n      swap1\n      div\n      0xff\n      and\n        /* \"contracts/Security/33_gasLimit.sol\":1087:1112  workflowStatus == _status */\n      0x05\n      dup2\n      gt\n      iszero\n      tag_129\n      jumpi\n      tag_130\n      tag_67\n      jump\t// in\n    tag_130:\n    tag_129:\n      eq\n        /* \"contracts/Security/33_gasLimit.sol\":1066:1182  require(... */\n      tag_131\n      jumpi\n      mload(0x40)\n      0x08c379a000000000000000000000000000000000000000000000000000000000\n      dup2\n      mstore\n      0x04\n      add\n      tag_132\n      swap1\n      tag_72\n      jump\t// in\n    tag_132:\n      mload(0x40)\n      dup1\n      swap2\n      sub\n      swap1\n      revert\n    tag_131:\n        /* \"contracts/Security/33_gasLimit.sol\":4801:4810  proposals */\n      0x03\n        /* \"contracts/Security/33_gasLimit.sol\":4811:4828  winningProposalId */\n      sload(0x01)\n        /* \"contracts/Security/33_gasLimit.sol\":4801:4829  proposals[winningProposalId] */\n      dup2\n      sload\n      dup2\n      lt\n      tag_134\n      jumpi\n      tag_135\n      tag_82\n      jump\t// in\n    tag_135:\n    tag_134:\n      swap1\n      0x00\n      mstore\n      keccak256(0x00, 0x20)\n      swap1\n      0x02\n      mul\n      add\n        /* \"contracts/Security/33_gasLimit.sol\":4794:4829  return proposals[winningProposalId] */\n      mload(0x40)\n      dup1\n      0x40\n      add\n      0x40\n      mstore\n      swap1\n      dup2\n      0x00\n      dup3\n      add\n      dup1\n      sload\n      tag_137\n      swap1\n      tag_98\n      jump\t// in\n    tag_137:\n      dup1\n      0x1f\n      add\n      0x20\n      dup1\n      swap2\n      div\n      mul\n      0x20\n      add\n      mload(0x40)\n      swap1\n      dup2\n      add\n      0x40\n      mstore\n      dup1\n      swap3\n      swap2\n      swap1\n      dup2\n      dup2\n      mstore\n      0x20\n      add\n      dup3\n      dup1\n      sload\n      tag_138\n      swap1\n      tag_98\n      jump\t// in\n    tag_138:\n      dup1\n      iszero\n      tag_139\n      jumpi\n      dup1\n      0x1f\n      lt\n      tag_140\n      jumpi\n      0x0100\n      dup1\n      dup4\n      sload\n      div\n      mul\n      dup4\n      mstore\n      swap2\n      0x20\n      add\n      swap2\n      jump(tag_139)\n    tag_140:\n      dup3\n      add\n      swap2\n      swap1\n      0x00\n      mstore\n      keccak256(0x00, 0x20)\n      swap1\n    tag_141:\n      dup2\n      sload\n      dup2\n      mstore\n      swap1\n      0x01\n      add\n      swap1\n      0x20\n      add\n      dup1\n      dup4\n      gt\n      tag_141\n      jumpi\n      dup3\n      swap1\n      sub\n      0x1f\n      and\n      dup3\n      add\n      swap2\n    tag_139:\n      pop\n      pop\n      pop\n      pop\n      pop\n      dup2\n      mstore\n      0x20\n      add\n      0x01\n      dup3\n      add\n      sload\n      dup2\n      mstore\n      pop\n      pop\n      swap2\n      pop\n        /* \"contracts/Security/33_gasLimit.sol\":4649:4836  function getWinner()... */\n      pop\n      swap1\n      jump\t// out\n        /* \"contracts/Security/33_gasLimit.sol\":594:630  WorkflowStatus public workflowStatus */\n    tag_42:\n      0x00\n      0x14\n      swap1\n      sload\n      swap1\n      0x0100\n      exp\n      swap1\n      div\n      0xff\n      and\n      dup2\n      jump\t// out\n        /* \"contracts/Security/33_gasLimit.sol\":3721:4050  function endVotingSession()... */\n    tag_46:\n        /* \"contracts/Security/33_gasLimit.sol\":3783:3818  WorkflowStatus.VotingSessionStarted */\n      0x03\n        /* \"contracts/Security/33_gasLimit.sol\":1105:1112  _status */\n      dup1\n        /* \"contracts/Security/33_gasLimit.sol\":1087:1112  workflowStatus == _status */\n      0x05\n      dup2\n      gt\n      iszero\n      tag_143\n      jumpi\n      tag_144\n      tag_67\n      jump\t// in\n    tag_144:\n    tag_143:\n        /* \"contracts/Security/33_gasLimit.sol\":1087:1101  workflowStatus */\n      0x00\n      0x14\n      swap1\n      sload\n      swap1\n      0x0100\n      exp\n      swap1\n      div\n      0xff\n      and\n        /* \"contracts/Security/33_gasLimit.sol\":1087:1112  workflowStatus == _status */\n      0x05\n      dup2\n      gt\n      iszero\n      tag_145\n      jumpi\n      tag_146\n      tag_67\n      jump\t// in\n    tag_146:\n    tag_145:\n      eq\n        /* \"contracts/Security/33_gasLimit.sol\":1066:1182  require(... */\n      tag_147\n      jumpi\n      mload(0x40)\n      0x08c379a000000000000000000000000000000000000000000000000000000000\n      dup2\n      mstore\n      0x04\n      add\n      tag_148\n      swap1\n      tag_72\n      jump\t// in\n    tag_148:\n      mload(0x40)\n      dup1\n      swap2\n      sub\n      swap1\n      revert\n    tag_147:\n        /* \"@openzeppelin/contracts/access/Ownable.sol\":1531:1544  _checkOwner() */\n      tag_150\n        /* \"@openzeppelin/contracts/access/Ownable.sol\":1531:1542  _checkOwner */\n      tag_112\n        /* \"@openzeppelin/contracts/access/Ownable.sol\":1531:1544  _checkOwner() */\n      jump\t// in\n    tag_150:\n        /* \"contracts/Security/33_gasLimit.sol\":3869:3902  WorkflowStatus.VotingSessionEnded */\n      0x04\n        /* \"contracts/Security/33_gasLimit.sol\":3852:3866  workflowStatus */\n      0x00\n      0x14\n        /* \"contracts/Security/33_gasLimit.sol\":3852:3902  workflowStatus = WorkflowStatus.VotingSessionEnded */\n      0x0100\n      exp\n      dup2\n      sload\n      dup2\n      0xff\n      mul\n      not\n      and\n      swap1\n      dup4\n      0x05\n      dup2\n      gt\n      iszero\n      tag_152\n      jumpi\n      tag_153\n      tag_67\n      jump\t// in\n    tag_153:\n    tag_152:\n      mul\n      or\n      swap1\n      sstore\n      pop\n        /* \"contracts/Security/33_gasLimit.sol\":3917:4043  WorkflowStatusChange(... */\n      0x0a97a4ee45751e2abf3e4fc8946939630b11b371ea8ae39ccdc3056e98f5cc3f\n        /* \"contracts/Security/33_gasLimit.sol\":3951:3986  WorkflowStatus.VotingSessionStarted */\n      0x03\n        /* \"contracts/Security/33_gasLimit.sol\":4000:4033  WorkflowStatus.VotingSessionEnded */\n      0x04\n        /* \"contracts/Security/33_gasLimit.sol\":3917:4043  WorkflowStatusChange(... */\n      mload(0x40)\n      tag_154\n      swap3\n      swap2\n      swap1\n      tag_117\n      jump\t// in\n    tag_154:\n      mload(0x40)\n      dup1\n      swap2\n      sub\n      swap1\n      log1\n        /* \"contracts/Security/33_gasLimit.sol\":3721:4050  function endVotingSession()... */\n      pop\n      jump\t// out\n        /* \"contracts/Security/33_gasLimit.sol\":4056:4643  function votesTallied()... */\n    tag_48:\n        /* \"contracts/Security/33_gasLimit.sol\":4114:4147  WorkflowStatus.VotingSessionEnded */\n      0x04\n        /* \"contracts/Security/33_gasLimit.sol\":1105:1112  _status */\n      dup1\n        /* \"contracts/Security/33_gasLimit.sol\":1087:1112  workflowStatus == _status */\n      0x05\n      dup2\n      gt\n      iszero\n      tag_156\n      jumpi\n      tag_157\n      tag_67\n      jump\t// in\n    tag_157:\n    tag_156:\n        /* \"contracts/Security/33_gasLimit.sol\":1087:1101  workflowStatus */\n      0x00\n      0x14\n      swap1\n      sload\n      swap1\n      0x0100\n      exp\n      swap1\n      div\n      0xff\n      and\n        /* \"contracts/Security/33_gasLimit.sol\":1087:1112  workflowStatus == _status */\n      0x05\n      dup2\n      gt\n      iszero\n      tag_158\n      jumpi\n      tag_159\n      tag_67\n      jump\t// in\n    tag_159:\n    tag_158:\n      eq\n        /* \"contracts/Security/33_gasLimit.sol\":1066:1182  require(... */\n      tag_160\n      jumpi\n      mload(0x40)\n      0x08c379a000000000000000000000000000000000000000000000000000000000\n      dup2\n      mstore\n      0x04\n      add\n      tag_161\n      swap1\n      tag_72\n      jump\t// in\n    tag_161:\n      mload(0x40)\n      dup1\n      swap2\n      sub\n      swap1\n      revert\n    tag_160:\n        /* \"@openzeppelin/contracts/access/Ownable.sol\":1531:1544  _checkOwner() */\n      tag_163\n        /* \"@openzeppelin/contracts/access/Ownable.sol\":1531:1542  _checkOwner */\n      tag_112\n        /* \"@openzeppelin/contracts/access/Ownable.sol\":1531:1544  _checkOwner() */\n      jump\t// in\n    tag_163:\n        /* \"contracts/Security/33_gasLimit.sol\":4181:4205  uint256 winningVoteCount */\n      0x00\n        /* \"contracts/Security/33_gasLimit.sol\":4208:4209  0 */\n      0x00\n        /* \"contracts/Security/33_gasLimit.sol\":4181:4209  uint256 winningVoteCount = 0 */\n      swap1\n      pop\n        /* \"contracts/Security/33_gasLimit.sol\":4224:4233  uint256 p */\n      0x00\n        /* \"contracts/Security/33_gasLimit.sol\":4236:4237  0 */\n      0x00\n        /* \"contracts/Security/33_gasLimit.sol\":4224:4237  uint256 p = 0 */\n      swap1\n      pop\n        /* \"contracts/Security/33_gasLimit.sol\":4219:4450  for (uint256 p = 0; p < proposals.length; p++) {... */\n    tag_165:\n        /* \"contracts/Security/33_gasLimit.sol\":4243:4252  proposals */\n      0x03\n        /* \"contracts/Security/33_gasLimit.sol\":4243:4259  proposals.length */\n      dup1\n      sload\n      swap1\n      pop\n        /* \"contracts/Security/33_gasLimit.sol\":4239:4240  p */\n      dup2\n        /* \"contracts/Security/33_gasLimit.sol\":4239:4259  p < proposals.length */\n      lt\n        /* \"contracts/Security/33_gasLimit.sol\":4219:4450  for (uint256 p = 0; p < proposals.length; p++) {... */\n      iszero\n      tag_166\n      jumpi\n        /* \"contracts/Security/33_gasLimit.sol\":4309:4325  winningVoteCount */\n      dup2\n        /* \"contracts/Security/33_gasLimit.sol\":4284:4293  proposals */\n      0x03\n        /* \"contracts/Security/33_gasLimit.sol\":4294:4295  p */\n      dup3\n        /* \"contracts/Security/33_gasLimit.sol\":4284:4296  proposals[p] */\n      dup2\n      sload\n      dup2\n      lt\n      tag_168\n      jumpi\n      tag_169\n      tag_82\n      jump\t// in\n    tag_169:\n    tag_168:\n      swap1\n      0x00\n      mstore\n      keccak256(0x00, 0x20)\n      swap1\n      0x02\n      mul\n      add\n        /* \"contracts/Security/33_gasLimit.sol\":4284:4306  proposals[p].voteCount */\n      0x01\n      add\n      sload\n        /* \"contracts/Security/33_gasLimit.sol\":4284:4325  proposals[p].voteCount > winningVoteCount */\n      gt\n        /* \"contracts/Security/33_gasLimit.sol\":4280:4440  if (proposals[p].voteCount > winningVoteCount) {... */\n      iszero\n      tag_171\n      jumpi\n        /* \"contracts/Security/33_gasLimit.sol\":4364:4373  proposals */\n      0x03\n        /* \"contracts/Security/33_gasLimit.sol\":4374:4375  p */\n      dup2\n        /* \"contracts/Security/33_gasLimit.sol\":4364:4376  proposals[p] */\n      dup2\n      sload\n      dup2\n      lt\n      tag_172\n      jumpi\n      tag_173\n      tag_82\n      jump\t// in\n    tag_173:\n    tag_172:\n      swap1\n      0x00\n      mstore\n      keccak256(0x00, 0x20)\n      swap1\n      0x02\n      mul\n      add\n        /* \"contracts/Security/33_gasLimit.sol\":4364:4386  proposals[p].voteCount */\n      0x01\n      add\n      sload\n        /* \"contracts/Security/33_gasLimit.sol\":4345:4386  winningVoteCount = proposals[p].voteCount */\n      swap2\n      pop\n        /* \"contracts/Security/33_gasLimit.sol\":4424:4425  p */\n      dup1\n        /* \"contracts/Security/33_gasLimit.sol\":4404:4421  winningProposalId */\n      0x01\n        /* \"contracts/Security/33_gasLimit.sol\":4404:4425  winningProposalId = p */\n      dup2\n      swap1\n      sstore\n      pop\n        /* \"contracts/Security/33_gasLimit.sol\":4280:4440  if (proposals[p].voteCount > winningVoteCount) {... */\n    tag_171:\n        /* \"contracts/Security/33_gasLimit.sol\":4261:4264  p++ */\n      dup1\n      dup1\n      0x01\n      add\n      swap2\n      pop\n      pop\n        /* \"contracts/Security/33_gasLimit.sol\":4219:4450  for (uint256 p = 0; p < proposals.length; p++) {... */\n      jump(tag_165)\n    tag_166:\n      pop\n        /* \"contracts/Security/33_gasLimit.sol\":4476:4503  WorkflowStatus.VotesTallied */\n      0x05\n        /* \"contracts/Security/33_gasLimit.sol\":4459:4473  workflowStatus */\n      0x00\n      0x14\n        /* \"contracts/Security/33_gasLimit.sol\":4459:4503  workflowStatus = WorkflowStatus.VotesTallied */\n      0x0100\n      exp\n      dup2\n      sload\n      dup2\n      0xff\n      mul\n      not\n      and\n      swap1\n      dup4\n      0x05\n      dup2\n      gt\n      iszero\n      tag_175\n      jumpi\n      tag_176\n      tag_67\n      jump\t// in\n    tag_176:\n    tag_175:\n      mul\n      or\n      swap1\n      sstore\n      pop\n        /* \"contracts/Security/33_gasLimit.sol\":4518:4636  WorkflowStatusChange(... */\n      0x0a97a4ee45751e2abf3e4fc8946939630b11b371ea8ae39ccdc3056e98f5cc3f\n        /* \"contracts/Security/33_gasLimit.sol\":4552:4585  WorkflowStatus.VotingSessionEnded */\n      0x04\n        /* \"contracts/Security/33_gasLimit.sol\":4599:4626  WorkflowStatus.VotesTallied */\n      0x05\n        /* \"contracts/Security/33_gasLimit.sol\":4518:4636  WorkflowStatusChange(... */\n      mload(0x40)\n      tag_177\n      swap3\n      swap2\n      swap1\n      tag_117\n      jump\t// in\n    tag_177:\n      mload(0x40)\n      dup1\n      swap2\n      sub\n      swap1\n      log1\n        /* \"contracts/Security/33_gasLimit.sol\":4171:4643  {... */\n      pop\n        /* \"contracts/Security/33_gasLimit.sol\":4056:4643  function votesTallied()... */\n      pop\n      jump\t// out\n        /* \"contracts/Security/33_gasLimit.sol\":1579:1932  function startProposalsRegistration()... */\n    tag_50:\n        /* \"contracts/Security/33_gasLimit.sol\":1651:1683  WorkflowStatus.RegisteringVoters */\n      0x00\n        /* \"contracts/Security/33_gasLimit.sol\":1105:1112  _status */\n      dup1\n        /* \"contracts/Security/33_gasLimit.sol\":1087:1112  workflowStatus == _status */\n      0x05\n      dup2\n      gt\n      iszero\n      tag_179\n      jumpi\n      tag_180\n      tag_67\n      jump\t// in\n    tag_180:\n    tag_179:\n        /* \"contracts/Security/33_gasLimit.sol\":1087:1101  workflowStatus */\n      0x00\n      0x14\n      swap1\n      sload\n      swap1\n      0x0100\n      exp\n      swap1\n      div\n      0xff\n      and\n        /* \"contracts/Security/33_gasLimit.sol\":1087:1112  workflowStatus == _status */\n      0x05\n      dup2\n      gt\n      iszero\n      tag_181\n      jumpi\n      tag_182\n      tag_67\n      jump\t// in\n    tag_182:\n    tag_181:\n      eq\n        /* \"contracts/Security/33_gasLimit.sol\":1066:1182  require(... */\n      tag_183\n      jumpi\n      mload(0x40)\n      0x08c379a000000000000000000000000000000000000000000000000000000000\n      dup2\n      mstore\n      0x04\n      add\n      tag_184\n      swap1\n      tag_72\n      jump\t// in\n    tag_184:\n      mload(0x40)\n      dup1\n      swap2\n      sub\n      swap1\n      revert\n    tag_183:\n        /* \"@openzeppelin/contracts/access/Ownable.sol\":1531:1544  _checkOwner() */\n      tag_186\n        /* \"@openzeppelin/contracts/access/Ownable.sol\":1531:1542  _checkOwner */\n      tag_112\n        /* \"@openzeppelin/contracts/access/Ownable.sol\":1531:1544  _checkOwner() */\n      jump\t// in\n    tag_186:\n        /* \"contracts/Security/33_gasLimit.sol\":1734:1777  WorkflowStatus.ProposalsRegistrationStarted */\n      0x01\n        /* \"contracts/Security/33_gasLimit.sol\":1717:1731  workflowStatus */\n      0x00\n      0x14\n        /* \"contracts/Security/33_gasLimit.sol\":1717:1777  workflowStatus = WorkflowStatus.ProposalsRegistrationStarted */\n      0x0100\n      exp\n      dup2\n      sload\n      dup2\n      0xff\n      mul\n      not\n      and\n      swap1\n      dup4\n      0x05\n      dup2\n      gt\n      iszero\n      tag_188\n      jumpi\n      tag_189\n      tag_67\n      jump\t// in\n    tag_189:\n    tag_188:\n      mul\n      or\n      swap1\n      sstore\n      pop\n        /* \"contracts/Security/33_gasLimit.sol\":1792:1925  WorkflowStatusChange(... */\n      0x0a97a4ee45751e2abf3e4fc8946939630b11b371ea8ae39ccdc3056e98f5cc3f\n        /* \"contracts/Security/33_gasLimit.sol\":1826:1858  WorkflowStatus.RegisteringVoters */\n      0x00\n        /* \"contracts/Security/33_gasLimit.sol\":1872:1915  WorkflowStatus.ProposalsRegistrationStarted */\n      0x01\n        /* \"contracts/Security/33_gasLimit.sol\":1792:1925  WorkflowStatusChange(... */\n      mload(0x40)\n      tag_190\n      swap3\n      swap2\n      swap1\n      tag_117\n      jump\t// in\n    tag_190:\n      mload(0x40)\n      dup1\n      swap2\n      sub\n      swap1\n      log1\n        /* \"contracts/Security/33_gasLimit.sol\":1579:1932  function startProposalsRegistration()... */\n      pop\n      jump\t// out\n        /* \"contracts/Security/33_gasLimit.sol\":1938:2342  function registerProposals(string memory proposalDescription)... */\n    tag_54:\n        /* \"contracts/Security/33_gasLimit.sol\":2034:2077  WorkflowStatus.ProposalsRegistrationStarted */\n      0x01\n        /* \"contracts/Security/33_gasLimit.sol\":1105:1112  _status */\n      dup1\n        /* \"contracts/Security/33_gasLimit.sol\":1087:1112  workflowStatus == _status */\n      0x05\n      dup2\n      gt\n      iszero\n      tag_192\n      jumpi\n      tag_193\n      tag_67\n      jump\t// in\n    tag_193:\n    tag_192:\n        /* \"contracts/Security/33_gasLimit.sol\":1087:1101  workflowStatus */\n      0x00\n      0x14\n      swap1\n      sload\n      swap1\n      0x0100\n      exp\n      swap1\n      div\n      0xff\n      and\n        /* \"contracts/Security/33_gasLimit.sol\":1087:1112  workflowStatus == _status */\n      0x05\n      dup2\n      gt\n      iszero\n      tag_194\n      jumpi\n      tag_195\n      tag_67\n      jump\t// in\n    tag_195:\n    tag_194:\n      eq\n        /* \"contracts/Security/33_gasLimit.sol\":1066:1182  require(... */\n      tag_196\n      jumpi\n      mload(0x40)\n      0x08c379a000000000000000000000000000000000000000000000000000000000\n      dup2\n      mstore\n      0x04\n      add\n      tag_197\n      swap1\n      tag_72\n      jump\t// in\n    tag_197:\n      mload(0x40)\n      dup1\n      swap2\n      sub\n      swap1\n      revert\n    tag_196:\n        /* \"contracts/Security/33_gasLimit.sol\":2114:2120  voters */\n      0x02\n        /* \"contracts/Security/33_gasLimit.sol\":2114:2132  voters[msg.sender] */\n      0x00\n        /* \"contracts/Security/33_gasLimit.sol\":2121:2131  msg.sender */\n      caller\n        /* \"contracts/Security/33_gasLimit.sol\":2114:2132  voters[msg.sender] */\n      0xffffffffffffffffffffffffffffffffffffffff\n      and\n      0xffffffffffffffffffffffffffffffffffffffff\n      and\n      dup2\n      mstore\n      0x20\n      add\n      swap1\n      dup2\n      mstore\n      0x20\n      add\n      0x00\n      keccak256\n        /* \"contracts/Security/33_gasLimit.sol\":2114:2145  voters[msg.sender].isRegistered */\n      0x00\n      add\n      0x00\n      swap1\n      sload\n      swap1\n      0x0100\n      exp\n      swap1\n      div\n      0xff\n      and\n        /* \"contracts/Security/33_gasLimit.sol\":2093:2209  require(... */\n      tag_199\n      jumpi\n      mload(0x40)\n      0x08c379a000000000000000000000000000000000000000000000000000000000\n      dup2\n      mstore\n      0x04\n      add\n      tag_200\n      swap1\n      tag_201\n      jump\t// in\n    tag_200:\n      mload(0x40)\n      dup1\n      swap2\n      sub\n      swap1\n      revert\n    tag_199:\n        /* \"contracts/Security/33_gasLimit.sol\":2220:2229  proposals */\n      0x03\n        /* \"contracts/Security/33_gasLimit.sol\":2235:2267  Proposal(proposalDescription, 0) */\n      mload(0x40)\n      dup1\n      0x40\n      add\n      0x40\n      mstore\n      dup1\n        /* \"contracts/Security/33_gasLimit.sol\":2244:2263  proposalDescription */\n      dup5\n        /* \"contracts/Security/33_gasLimit.sol\":2235:2267  Proposal(proposalDescription, 0) */\n      dup2\n      mstore\n      0x20\n      add\n        /* \"contracts/Security/33_gasLimit.sol\":2265:2266  0 */\n      0x00\n        /* \"contracts/Security/33_gasLimit.sol\":2235:2267  Proposal(proposalDescription, 0) */\n      dup2\n      mstore\n      pop\n        /* \"contracts/Security/33_gasLimit.sol\":2220:2268  proposals.push(Proposal(proposalDescription, 0)) */\n      swap1\n      dup1\n      0x01\n      dup2\n      sload\n      add\n      dup1\n      dup3\n      sstore\n      dup1\n      swap2\n      pop\n      pop\n      0x01\n      swap1\n      sub\n      swap1\n      0x00\n      mstore\n      keccak256(0x00, 0x20)\n      swap1\n      0x02\n      mul\n      add\n      0x00\n      swap1\n      swap2\n      swap1\n      swap2\n      swap1\n      swap2\n      pop\n      0x00\n      dup3\n      add\n      mload\n      dup2\n      0x00\n      add\n      swap1\n      dup2\n      tag_203\n      swap2\n      swap1\n      tag_204\n      jump\t// in\n    tag_203:\n      pop\n      0x20\n      dup3\n      add\n      mload\n      dup2\n      0x01\n      add\n      sstore\n      pop\n      pop\n        /* \"contracts/Security/33_gasLimit.sol\":2334:2335  1 */\n      0x01\n        /* \"contracts/Security/33_gasLimit.sol\":2315:2324  proposals */\n      0x03\n        /* \"contracts/Security/33_gasLimit.sol\":2315:2331  proposals.length */\n      dup1\n      sload\n      swap1\n      pop\n        /* \"contracts/Security/33_gasLimit.sol\":2315:2335  proposals.length + 1 */\n      tag_205\n      swap2\n      swap1\n      tag_85\n      jump\t// in\n    tag_205:\n        /* \"contracts/Security/33_gasLimit.sol\":2278:2284  voters */\n      0x02\n        /* \"contracts/Security/33_gasLimit.sol\":2278:2296  voters[msg.sender] */\n      0x00\n        /* \"contracts/Security/33_gasLimit.sol\":2285:2295  msg.sender */\n      caller\n        /* \"contracts/Security/33_gasLimit.sol\":2278:2296  voters[msg.sender] */\n      0xffffffffffffffffffffffffffffffffffffffff\n      and\n      0xffffffffffffffffffffffffffffffffffffffff\n      and\n      dup2\n      mstore\n      0x20\n      add\n      swap1\n      dup2\n      mstore\n      0x20\n      add\n      0x00\n      keccak256\n        /* \"contracts/Security/33_gasLimit.sol\":2278:2312  voters[msg.sender].votedProposalId */\n      0x01\n      add\n        /* \"contracts/Security/33_gasLimit.sol\":2278:2335  voters[msg.sender].votedProposalId = proposals.length + 1 */\n      dup2\n      swap1\n      sstore\n      pop\n        /* \"contracts/Security/33_gasLimit.sol\":1938:2342  function registerProposals(string memory proposalDescription)... */\n      pop\n      pop\n      jump\t// out\n        /* \"contracts/Security/33_gasLimit.sol\":1206:1573  function registerVoters(address _voterAddress)... */\n    tag_58:\n        /* \"contracts/Security/33_gasLimit.sol\":1287:1319  WorkflowStatus.RegisteringVoters */\n      0x00\n        /* \"contracts/Security/33_gasLimit.sol\":1105:1112  _status */\n      dup1\n        /* \"contracts/Security/33_gasLimit.sol\":1087:1112  workflowStatus == _status */\n      0x05\n      dup2\n      gt\n      iszero\n      tag_207\n      jumpi\n      tag_208\n      tag_67\n      jump\t// in\n    tag_208:\n    tag_207:\n        /* \"contracts/Security/33_gasLimit.sol\":1087:1101  workflowStatus */\n      0x00\n      0x14\n      swap1\n      sload\n      swap1\n      0x0100\n      exp\n      swap1\n      div\n      0xff\n      and\n        /* \"contracts/Security/33_gasLimit.sol\":1087:1112  workflowStatus == _status */\n      0x05\n      dup2\n      gt\n      iszero\n      tag_209\n      jumpi\n      tag_210\n      tag_67\n      jump\t// in\n    tag_210:\n    tag_209:\n      eq\n        /* \"contracts/Security/33_gasLimit.sol\":1066:1182  require(... */\n      tag_211\n      jumpi\n      mload(0x40)\n      0x08c379a000000000000000000000000000000000000000000000000000000000\n      dup2\n      mstore\n      0x04\n      add\n      tag_212\n      swap1\n      tag_72\n      jump\t// in\n    tag_212:\n      mload(0x40)\n      dup1\n      swap2\n      sub\n      swap1\n      revert\n    tag_211:\n        /* \"@openzeppelin/contracts/access/Ownable.sol\":1531:1544  _checkOwner() */\n      tag_214\n        /* \"@openzeppelin/contracts/access/Ownable.sol\":1531:1542  _checkOwner */\n      tag_112\n        /* \"@openzeppelin/contracts/access/Ownable.sol\":1531:1544  _checkOwner() */\n      jump\t// in\n    tag_214:\n        /* \"contracts/Security/33_gasLimit.sol\":1375:1381  voters */\n      0x02\n        /* \"contracts/Security/33_gasLimit.sol\":1375:1396  voters[_voterAddress] */\n      0x00\n        /* \"contracts/Security/33_gasLimit.sol\":1382:1395  _voterAddress */\n      dup4\n        /* \"contracts/Security/33_gasLimit.sol\":1375:1396  voters[_voterAddress] */\n      0xffffffffffffffffffffffffffffffffffffffff\n      and\n      0xffffffffffffffffffffffffffffffffffffffff\n      and\n      dup2\n      mstore\n      0x20\n      add\n      swap1\n      dup2\n      mstore\n      0x20\n      add\n      0x00\n      keccak256\n        /* \"contracts/Security/33_gasLimit.sol\":1375:1409  voters[_voterAddress].isRegistered */\n      0x00\n      add\n      0x00\n      swap1\n      sload\n      swap1\n      0x0100\n      exp\n      swap1\n      div\n      0xff\n      and\n        /* \"contracts/Security/33_gasLimit.sol\":1374:1409  !voters[_voterAddress].isRegistered */\n      iszero\n        /* \"contracts/Security/33_gasLimit.sol\":1353:1468  require(... */\n      tag_216\n      jumpi\n      mload(0x40)\n      0x08c379a000000000000000000000000000000000000000000000000000000000\n      dup2\n      mstore\n      0x04\n      add\n      tag_217\n      swap1\n      tag_218\n      jump\t// in\n    tag_217:\n      mload(0x40)\n      dup1\n      swap2\n      sub\n      swap1\n      revert\n    tag_216:\n        /* \"contracts/Security/33_gasLimit.sol\":1516:1520  true */\n      0x01\n        /* \"contracts/Security/33_gasLimit.sol\":1479:1485  voters */\n      0x02\n        /* \"contracts/Security/33_gasLimit.sol\":1479:1500  voters[_voterAddress] */\n      0x00\n        /* \"contracts/Security/33_gasLimit.sol\":1486:1499  _voterAddress */\n      dup5\n        /* \"contracts/Security/33_gasLimit.sol\":1479:1500  voters[_voterAddress] */\n      0xffffffffffffffffffffffffffffffffffffffff\n      and\n      0xffffffffffffffffffffffffffffffffffffffff\n      and\n      dup2\n      mstore\n      0x20\n      add\n      swap1\n      dup2\n      mstore\n      0x20\n      add\n      0x00\n      keccak256\n        /* \"contracts/Security/33_gasLimit.sol\":1479:1513  voters[_voterAddress].isRegistered */\n      0x00\n      add\n      0x00\n        /* \"contracts/Security/33_gasLimit.sol\":1479:1520  voters[_voterAddress].isRegistered = true */\n      0x0100\n      exp\n      dup2\n      sload\n      dup2\n      0xff\n      mul\n      not\n      and\n      swap1\n      dup4\n      iszero\n      iszero\n      mul\n      or\n      swap1\n      sstore\n      pop\n        /* \"contracts/Security/33_gasLimit.sol\":1536:1566  VoterRegistered(_voterAddress) */\n      0xb6be2187d059cc2a55fe29e0e503b566e1e0f8c8780096e185429350acffd3dd\n        /* \"contracts/Security/33_gasLimit.sol\":1552:1565  _voterAddress */\n      dup3\n        /* \"contracts/Security/33_gasLimit.sol\":1536:1566  VoterRegistered(_voterAddress) */\n      mload(0x40)\n      tag_219\n      swap2\n      swap1\n      tag_36\n      jump\t// in\n    tag_219:\n      mload(0x40)\n      dup1\n      swap2\n      sub\n      swap1\n      log1\n        /* \"contracts/Security/33_gasLimit.sol\":1206:1573  function registerVoters(address _voterAddress)... */\n      pop\n      pop\n      jump\t// out\n        /* \"contracts/Security/33_gasLimit.sol\":2723:3070  function startVotingSession()... */\n    tag_60:\n        /* \"contracts/Security/33_gasLimit.sol\":2787:2828  WorkflowStatus.ProposalsRegistrationEnded */\n      0x02\n        /* \"contracts/Security/33_gasLimit.sol\":1105:1112  _status */\n      dup1\n        /* \"contracts/Security/33_gasLimit.sol\":1087:1112  workflowStatus == _status */\n      0x05\n      dup2\n      gt\n      iszero\n      tag_221\n      jumpi\n      tag_222\n      tag_67\n      jump\t// in\n    tag_222:\n    tag_221:\n        /* \"contracts/Security/33_gasLimit.sol\":1087:1101  workflowStatus */\n      0x00\n      0x14\n      swap1\n      sload\n      swap1\n      0x0100\n      exp\n      swap1\n      div\n      0xff\n      and\n        /* \"contracts/Security/33_gasLimit.sol\":1087:1112  workflowStatus == _status */\n      0x05\n      dup2\n      gt\n      iszero\n      tag_223\n      jumpi\n      tag_224\n      tag_67\n      jump\t// in\n    tag_224:\n    tag_223:\n      eq\n        /* \"contracts/Security/33_gasLimit.sol\":1066:1182  require(... */\n      tag_225\n      jumpi\n      mload(0x40)\n      0x08c379a000000000000000000000000000000000000000000000000000000000\n      dup2\n      mstore\n      0x04\n      add\n      tag_226\n      swap1\n      tag_72\n      jump\t// in\n    tag_226:\n      mload(0x40)\n      dup1\n      swap2\n      sub\n      swap1\n      revert\n    tag_225:\n        /* \"@openzeppelin/contracts/access/Ownable.sol\":1531:1544  _checkOwner() */\n      tag_228\n        /* \"@openzeppelin/contracts/access/Ownable.sol\":1531:1542  _checkOwner */\n      tag_112\n        /* \"@openzeppelin/contracts/access/Ownable.sol\":1531:1544  _checkOwner() */\n      jump\t// in\n    tag_228:\n        /* \"contracts/Security/33_gasLimit.sol\":2879:2914  WorkflowStatus.VotingSessionStarted */\n      0x03\n        /* \"contracts/Security/33_gasLimit.sol\":2862:2876  workflowStatus */\n      0x00\n      0x14\n        /* \"contracts/Security/33_gasLimit.sol\":2862:2914  workflowStatus = WorkflowStatus.VotingSessionStarted */\n      0x0100\n      exp\n      dup2\n      sload\n      dup2\n      0xff\n      mul\n      not\n      and\n      swap1\n      dup4\n      0x05\n      dup2\n      gt\n      iszero\n      tag_230\n      jumpi\n      tag_231\n      tag_67\n      jump\t// in\n    tag_231:\n    tag_230:\n      mul\n      or\n      swap1\n      sstore\n      pop\n        /* \"contracts/Security/33_gasLimit.sol\":2929:3063  WorkflowStatusChange(... */\n      0x0a97a4ee45751e2abf3e4fc8946939630b11b371ea8ae39ccdc3056e98f5cc3f\n        /* \"contracts/Security/33_gasLimit.sol\":2963:3004  WorkflowStatus.ProposalsRegistrationEnded */\n      0x02\n        /* \"contracts/Security/33_gasLimit.sol\":3018:3053  WorkflowStatus.VotingSessionStarted */\n      0x03\n        /* \"contracts/Security/33_gasLimit.sol\":2929:3063  WorkflowStatusChange(... */\n      mload(0x40)\n      tag_232\n      swap3\n      swap2\n      swap1\n      tag_117\n      jump\t// in\n    tag_232:\n      mload(0x40)\n      dup1\n      swap2\n      sub\n      swap1\n      log1\n        /* \"contracts/Security/33_gasLimit.sol\":2723:3070  function startVotingSession()... */\n      pop\n      jump\t// out\n        /* \"@openzeppelin/contracts/access/Ownable.sol\":2543:2758  function transferOwnership(address newOwner) public virtual onlyOwner {... */\n    tag_63:\n        /* \"@openzeppelin/contracts/access/Ownable.sol\":1531:1544  _checkOwner() */\n      tag_234\n        /* \"@openzeppelin/contracts/access/Ownable.sol\":1531:1542  _checkOwner */\n      tag_112\n        /* \"@openzeppelin/contracts/access/Ownable.sol\":1531:1544  _checkOwner() */\n      jump\t// in\n    tag_234:\n        /* \"@openzeppelin/contracts/access/Ownable.sol\":2647:2648  0 */\n      0x00\n        /* \"@openzeppelin/contracts/access/Ownable.sol\":2627:2649  newOwner == address(0) */\n      0xffffffffffffffffffffffffffffffffffffffff\n      and\n        /* \"@openzeppelin/contracts/access/Ownable.sol\":2627:2635  newOwner */\n      dup2\n        /* \"@openzeppelin/contracts/access/Ownable.sol\":2627:2649  newOwner == address(0) */\n      0xffffffffffffffffffffffffffffffffffffffff\n      and\n      sub\n        /* \"@openzeppelin/contracts/access/Ownable.sol\":2623:2714  if (newOwner == address(0)) {... */\n      tag_236\n      jumpi\n        /* \"@openzeppelin/contracts/access/Ownable.sol\":2700:2701  0 */\n      0x00\n        /* \"@openzeppelin/contracts/access/Ownable.sol\":2672:2703  OwnableInvalidOwner(address(0)) */\n      mload(0x40)\n      0x1e4fbdf700000000000000000000000000000000000000000000000000000000\n      dup2\n      mstore\n      0x04\n      add\n      tag_237\n      swap2\n      swap1\n      tag_36\n      jump\t// in\n    tag_237:\n      mload(0x40)\n      dup1\n      swap2\n      sub\n      swap1\n      revert\n        /* \"@openzeppelin/contracts/access/Ownable.sol\":2623:2714  if (newOwner == address(0)) {... */\n    tag_236:\n        /* \"@openzeppelin/contracts/access/Ownable.sol\":2723:2751  _transferOwnership(newOwner) */\n      tag_238\n        /* \"@openzeppelin/contracts/access/Ownable.sol\":2742:2750  newOwner */\n      dup2\n        /* \"@openzeppelin/contracts/access/Ownable.sol\":2723:2741  _transferOwnership */\n      tag_122\n        /* \"@openzeppelin/contracts/access/Ownable.sol\":2723:2751  _transferOwnership(newOwner) */\n      jump\t// in\n    tag_238:\n        /* \"@openzeppelin/contracts/access/Ownable.sol\":2543:2758  function transferOwnership(address newOwner) public virtual onlyOwner {... */\n      pop\n      jump\t// out\n        /* \"@openzeppelin/contracts/access/Ownable.sol\":1796:1958  function _checkOwner() internal view virtual {... */\n    tag_112:\n        /* \"@openzeppelin/contracts/access/Ownable.sol\":1866:1878  _msgSender() */\n      tag_240\n        /* \"@openzeppelin/contracts/access/Ownable.sol\":1866:1876  _msgSender */\n      tag_241\n        /* \"@openzeppelin/contracts/access/Ownable.sol\":1866:1878  _msgSender() */\n      jump\t// in\n    tag_240:\n        /* \"@openzeppelin/contracts/access/Ownable.sol\":1855:1878  owner() != _msgSender() */\n      0xffffffffffffffffffffffffffffffffffffffff\n      and\n        /* \"@openzeppelin/contracts/access/Ownable.sol\":1855:1862  owner() */\n      tag_242\n        /* \"@openzeppelin/contracts/access/Ownable.sol\":1855:1860  owner */\n      tag_34\n        /* \"@openzeppelin/contracts/access/Ownable.sol\":1855:1862  owner() */\n      jump\t// in\n    tag_242:\n        /* \"@openzeppelin/contracts/access/Ownable.sol\":1855:1878  owner() != _msgSender() */\n      0xffffffffffffffffffffffffffffffffffffffff\n      and\n      eq\n        /* \"@openzeppelin/contracts/access/Ownable.sol\":1851:1952  if (owner() != _msgSender()) {... */\n      tag_243\n      jumpi\n        /* \"@openzeppelin/contracts/access/Ownable.sol\":1928:1940  _msgSender() */\n      tag_244\n        /* \"@openzeppelin/contracts/access/Ownable.sol\":1928:1938  _msgSender */\n      tag_241\n        /* \"@openzeppelin/contracts/access/Ownable.sol\":1928:1940  _msgSender() */\n      jump\t// in\n    tag_244:\n        /* \"@openzeppelin/contracts/access/Ownable.sol\":1901:1941  OwnableUnauthorizedAccount(_msgSender()) */\n      mload(0x40)\n      0x118cdaa700000000000000000000000000000000000000000000000000000000\n      dup2\n      mstore\n      0x04\n      add\n      tag_245\n      swap2\n      swap1\n      tag_36\n      jump\t// in\n    tag_245:\n      mload(0x40)\n      dup1\n      swap2\n      sub\n      swap1\n      revert\n        /* \"@openzeppelin/contracts/access/Ownable.sol\":1851:1952  if (owner() != _msgSender()) {... */\n    tag_243:\n        /* \"@openzeppelin/contracts/access/Ownable.sol\":1796:1958  function _checkOwner() internal view virtual {... */\n      jump\t// out\n        /* \"@openzeppelin/contracts/access/Ownable.sol\":2912:3099  function _transferOwnership(address newOwner) internal virtual {... */\n    tag_122:\n        /* \"@openzeppelin/contracts/access/Ownable.sol\":2985:3001  address oldOwner */\n      0x00\n        /* \"@openzeppelin/contracts/access/Ownable.sol\":3004:3010  _owner */\n      0x00\n      0x00\n      swap1\n      sload\n      swap1\n      0x0100\n      exp\n      swap1\n      div\n      0xffffffffffffffffffffffffffffffffffffffff\n      and\n        /* \"@openzeppelin/contracts/access/Ownable.sol\":2985:3010  address oldOwner = _owner */\n      swap1\n      pop\n        /* \"@openzeppelin/contracts/access/Ownable.sol\":3029:3037  newOwner */\n      dup2\n        /* \"@openzeppelin/contracts/access/Ownable.sol\":3020:3026  _owner */\n      0x00\n      0x00\n        /* \"@openzeppelin/contracts/access/Ownable.sol\":3020:3037  _owner = newOwner */\n      0x0100\n      exp\n      dup2\n      sload\n      dup2\n      0xffffffffffffffffffffffffffffffffffffffff\n      mul\n      not\n      and\n      swap1\n      dup4\n      0xffffffffffffffffffffffffffffffffffffffff\n      and\n      mul\n      or\n      swap1\n      sstore\n      pop\n        /* \"@openzeppelin/contracts/access/Ownable.sol\":3083:3091  newOwner */\n      dup2\n        /* \"@openzeppelin/contracts/access/Ownable.sol\":3052:3092  OwnershipTransferred(oldOwner, newOwner) */\n      0xffffffffffffffffffffffffffffffffffffffff\n      and\n        /* \"@openzeppelin/contracts/access/Ownable.sol\":3073:3081  oldOwner */\n      dup2\n        /* \"@openzeppelin/contracts/access/Ownable.sol\":3052:3092  OwnershipTransferred(oldOwner, newOwner) */\n      0xffffffffffffffffffffffffffffffffffffffff\n      and\n      0x8be0079c531659141344cd1fd0a4f28419497f9722a3daafe3b4186f6b6457e0\n      mload(0x40)\n      mload(0x40)\n      dup1\n      swap2\n      sub\n      swap1\n      log3\n        /* \"@openzeppelin/contracts/access/Ownable.sol\":2975:3099  {... */\n      pop\n        /* \"@openzeppelin/contracts/access/Ownable.sol\":2912:3099  function _transferOwnership(address newOwner) internal virtual {... */\n      pop\n      jump\t// out\n        /* \"@openzeppelin/contracts/utils/Context.sol\":656:752  function _msgSender() internal view virtual returns (address) {... */\n    tag_241:\n        /* \"@openzeppelin/contracts/utils/Context.sol\":709:716  address */\n      0x00\n        /* \"@openzeppelin/contracts/utils/Context.sol\":735:745  msg.sender */\n      caller\n        /* \"@openzeppelin/contracts/utils/Context.sol\":728:745  return msg.sender */\n      swap1\n      pop\n        /* \"@openzeppelin/contracts/utils/Context.sol\":656:752  function _msgSender() internal view virtual returns (address) {... */\n      swap1\n      jump\t// out\n    tag_125:\n      mload(0x40)\n      dup1\n      0x40\n      add\n      0x40\n      mstore\n      dup1\n      0x60\n      dup2\n      mstore\n      0x20\n      add\n      0x00\n      dup2\n      mstore\n      pop\n      swap1\n      jump\t// out\n        /* \"#utility.yul\":7:82   */\n    tag_248:\n        /* \"#utility.yul\":40:46   */\n      0x00\n        /* \"#utility.yul\":73:75   */\n      0x40\n        /* \"#utility.yul\":67:76   */\n      mload\n        /* \"#utility.yul\":57:76   */\n      swap1\n      pop\n        /* \"#utility.yul\":7:82   */\n      swap1\n      jump\t// out\n        /* \"#utility.yul\":88:205   */\n    tag_249:\n        /* \"#utility.yul\":197:198   */\n      0x00\n        /* \"#utility.yul\":194:195   */\n      0x00\n        /* \"#utility.yul\":187:199   */\n      revert\n        /* \"#utility.yul\":211:328   */\n    tag_250:\n        /* \"#utility.yul\":320:321   */\n      0x00\n        /* \"#utility.yul\":317:318   */\n      0x00\n        /* \"#utility.yul\":310:322   */\n      revert\n        /* \"#utility.yul\":334:411   */\n    tag_251:\n        /* \"#utility.yul\":371:378   */\n      0x00\n        /* \"#utility.yul\":400:405   */\n      dup2\n        /* \"#utility.yul\":389:405   */\n      swap1\n      pop\n        /* \"#utility.yul\":334:411   */\n      swap2\n      swap1\n      pop\n      jump\t// out\n        /* \"#utility.yul\":417:539   */\n    tag_252:\n        /* \"#utility.yul\":490:514   */\n      tag_315\n        /* \"#utility.yul\":508:513   */\n      dup2\n        /* \"#utility.yul\":490:514   */\n      tag_251\n      jump\t// in\n    tag_315:\n        /* \"#utility.yul\":483:488   */\n      dup2\n        /* \"#utility.yul\":480:515   */\n      eq\n        /* \"#utility.yul\":470:533   */\n      tag_316\n      jumpi\n        /* \"#utility.yul\":529:530   */\n      0x00\n        /* \"#utility.yul\":526:527   */\n      0x00\n        /* \"#utility.yul\":519:531   */\n      revert\n        /* \"#utility.yul\":470:533   */\n    tag_316:\n        /* \"#utility.yul\":417:539   */\n      pop\n      jump\t// out\n        /* \"#utility.yul\":545:684   */\n    tag_253:\n        /* \"#utility.yul\":591:596   */\n      0x00\n        /* \"#utility.yul\":629:635   */\n      dup2\n        /* \"#utility.yul\":616:636   */\n      calldataload\n        /* \"#utility.yul\":607:636   */\n      swap1\n      pop\n        /* \"#utility.yul\":645:678   */\n      tag_318\n        /* \"#utility.yul\":672:677   */\n      dup2\n        /* \"#utility.yul\":645:678   */\n      tag_252\n      jump\t// in\n    tag_318:\n        /* \"#utility.yul\":545:684   */\n      swap3\n      swap2\n      pop\n      pop\n      jump\t// out\n        /* \"#utility.yul\":690:1019   */\n    tag_22:\n        /* \"#utility.yul\":749:755   */\n      0x00\n        /* \"#utility.yul\":798:800   */\n      0x20\n        /* \"#utility.yul\":786:795   */\n      dup3\n        /* \"#utility.yul\":777:784   */\n      dup5\n        /* \"#utility.yul\":773:796   */\n      sub\n        /* \"#utility.yul\":769:801   */\n      slt\n        /* \"#utility.yul\":766:885   */\n      iszero\n      tag_320\n      jumpi\n        /* \"#utility.yul\":804:883   */\n      tag_321\n      tag_249\n      jump\t// in\n    tag_321:\n        /* \"#utility.yul\":766:885   */\n    tag_320:\n        /* \"#utility.yul\":924:925   */\n      0x00\n        /* \"#utility.yul\":949:1002   */\n      tag_322\n        /* \"#utility.yul\":994:1001   */\n      dup5\n        /* \"#utility.yul\":985:991   */\n      dup3\n        /* \"#utility.yul\":974:983   */\n      dup6\n        /* \"#utility.yul\":970:992   */\n      add\n        /* \"#utility.yul\":949:1002   */\n      tag_253\n      jump\t// in\n    tag_322:\n        /* \"#utility.yul\":939:1002   */\n      swap2\n      pop\n        /* \"#utility.yul\":895:1012   */\n      pop\n        /* \"#utility.yul\":690:1019   */\n      swap3\n      swap2\n      pop\n      pop\n      jump\t// out\n        /* \"#utility.yul\":1025:1124   */\n    tag_254:\n        /* \"#utility.yul\":1077:1083   */\n      0x00\n        /* \"#utility.yul\":1111:1116   */\n      dup2\n        /* \"#utility.yul\":1105:1117   */\n      mload\n        /* \"#utility.yul\":1095:1117   */\n      swap1\n      pop\n        /* \"#utility.yul\":1025:1124   */\n      swap2\n      swap1\n      pop\n      jump\t// out\n        /* \"#utility.yul\":1130:1299   */\n    tag_255:\n        /* \"#utility.yul\":1214:1225   */\n      0x00\n        /* \"#utility.yul\":1248:1254   */\n      dup3\n        /* \"#utility.yul\":1243:1246   */\n      dup3\n        /* \"#utility.yul\":1236:1255   */\n      mstore\n        /* \"#utility.yul\":1288:1292   */\n      0x20\n        /* \"#utility.yul\":1283:1286   */\n      dup3\n        /* \"#utility.yul\":1279:1293   */\n      add\n        /* \"#utility.yul\":1264:1293   */\n      swap1\n      pop\n        /* \"#utility.yul\":1130:1299   */\n      swap3\n      swap2\n      pop\n      pop\n      jump\t// out\n        /* \"#utility.yul\":1305:1444   */\n    tag_256:\n        /* \"#utility.yul\":1394:1400   */\n      dup3\n        /* \"#utility.yul\":1389:1392   */\n      dup2\n        /* \"#utility.yul\":1384:1387   */\n      dup4\n        /* \"#utility.yul\":1378:1401   */\n      mcopy\n        /* \"#utility.yul\":1435:1436   */\n      0x00\n        /* \"#utility.yul\":1426:1432   */\n      dup4\n        /* \"#utility.yul\":1421:1424   */\n      dup4\n        /* \"#utility.yul\":1417:1433   */\n      add\n        /* \"#utility.yul\":1410:1437   */\n      mstore\n        /* \"#utility.yul\":1305:1444   */\n      pop\n      pop\n      pop\n      jump\t// out\n        /* \"#utility.yul\":1450:1552   */\n    tag_257:\n        /* \"#utility.yul\":1491:1497   */\n      0x00\n        /* \"#utility.yul\":1542:1544   */\n      0x1f\n        /* \"#utility.yul\":1538:1545   */\n      not\n        /* \"#utility.yul\":1533:1535   */\n      0x1f\n        /* \"#utility.yul\":1526:1531   */\n      dup4\n        /* \"#utility.yul\":1522:1536   */\n      add\n        /* \"#utility.yul\":1518:1546   */\n      and\n        /* \"#utility.yul\":1508:1546   */\n      swap1\n      pop\n        /* \"#utility.yul\":1450:1552   */\n      swap2\n      swap1\n      pop\n      jump\t// out\n        /* \"#utility.yul\":1558:1935   */\n    tag_258:\n        /* \"#utility.yul\":1646:1649   */\n      0x00\n        /* \"#utility.yul\":1674:1713   */\n      tag_328\n        /* \"#utility.yul\":1707:1712   */\n      dup3\n        /* \"#utility.yul\":1674:1713   */\n      tag_254\n      jump\t// in\n    tag_328:\n        /* \"#utility.yul\":1729:1800   */\n      tag_329\n        /* \"#utility.yul\":1793:1799   */\n      dup2\n        /* \"#utility.yul\":1788:1791   */\n      dup6\n        /* \"#utility.yul\":1729:1800   */\n      tag_255\n      jump\t// in\n    tag_329:\n        /* \"#utility.yul\":1722:1800   */\n      swap4\n      pop\n        /* \"#utility.yul\":1809:1874   */\n      tag_330\n        /* \"#utility.yul\":1867:1873   */\n      dup2\n        /* \"#utility.yul\":1862:1865   */\n      dup6\n        /* \"#utility.yul\":1855:1859   */\n      0x20\n        /* \"#utility.yul\":1848:1853   */\n      dup7\n        /* \"#utility.yul\":1844:1860   */\n      add\n        /* \"#utility.yul\":1809:1874   */\n      tag_256\n      jump\t// in\n    tag_330:\n        /* \"#utility.yul\":1899:1928   */\n      tag_331\n        /* \"#utility.yul\":1921:1927   */\n      dup2\n        /* \"#utility.yul\":1899:1928   */\n      tag_257\n      jump\t// in\n    tag_331:\n        /* \"#utility.yul\":1894:1897   */\n      dup5\n        /* \"#utility.yul\":1890:1929   */\n      add\n        /* \"#utility.yul\":1883:1929   */\n      swap2\n      pop\n        /* \"#utility.yul\":1650:1935   */\n      pop\n        /* \"#utility.yul\":1558:1935   */\n      swap3\n      swap2\n      pop\n      pop\n      jump\t// out\n        /* \"#utility.yul\":1941:2059   */\n    tag_259:\n        /* \"#utility.yul\":2028:2052   */\n      tag_333\n        /* \"#utility.yul\":2046:2051   */\n      dup2\n        /* \"#utility.yul\":2028:2052   */\n      tag_251\n      jump\t// in\n    tag_333:\n        /* \"#utility.yul\":2023:2026   */\n      dup3\n        /* \"#utility.yul\":2016:2053   */\n      mstore\n        /* \"#utility.yul\":1941:2059   */\n      pop\n      pop\n      jump\t// out\n        /* \"#utility.yul\":2065:2488   */\n    tag_28:\n        /* \"#utility.yul\":2206:2210   */\n      0x00\n        /* \"#utility.yul\":2244:2246   */\n      0x40\n        /* \"#utility.yul\":2233:2242   */\n      dup3\n        /* \"#utility.yul\":2229:2247   */\n      add\n        /* \"#utility.yul\":2221:2247   */\n      swap1\n      pop\n        /* \"#utility.yul\":2293:2302   */\n      dup2\n        /* \"#utility.yul\":2287:2291   */\n      dup2\n        /* \"#utility.yul\":2283:2303   */\n      sub\n        /* \"#utility.yul\":2279:2280   */\n      0x00\n        /* \"#utility.yul\":2268:2277   */\n      dup4\n        /* \"#utility.yul\":2264:2281   */\n      add\n        /* \"#utility.yul\":2257:2304   */\n      mstore\n        /* \"#utility.yul\":2321:2399   */\n      tag_335\n        /* \"#utility.yul\":2394:2398   */\n      dup2\n        /* \"#utility.yul\":2385:2391   */\n      dup6\n        /* \"#utility.yul\":2321:2399   */\n      tag_258\n      jump\t// in\n    tag_335:\n        /* \"#utility.yul\":2313:2399   */\n      swap1\n      pop\n        /* \"#utility.yul\":2409:2481   */\n      tag_336\n        /* \"#utility.yul\":2477:2479   */\n      0x20\n        /* \"#utility.yul\":2466:2475   */\n      dup4\n        /* \"#utility.yul\":2462:2480   */\n      add\n        /* \"#utility.yul\":2453:2459   */\n      dup5\n        /* \"#utility.yul\":2409:2481   */\n      tag_259\n      jump\t// in\n    tag_336:\n        /* \"#utility.yul\":2065:2488   */\n      swap4\n      swap3\n      pop\n      pop\n      pop\n      jump\t// out\n        /* \"#utility.yul\":2494:2620   */\n    tag_260:\n        /* \"#utility.yul\":2531:2538   */\n      0x00\n        /* \"#utility.yul\":2571:2613   */\n      0xffffffffffffffffffffffffffffffffffffffff\n        /* \"#utility.yul\":2564:2569   */\n      dup3\n        /* \"#utility.yul\":2560:2614   */\n      and\n        /* \"#utility.yul\":2549:2614   */\n      swap1\n      pop\n        /* \"#utility.yul\":2494:2620   */\n      swap2\n      swap1\n      pop\n      jump\t// out\n        /* \"#utility.yul\":2626:2722   */\n    tag_261:\n        /* \"#utility.yul\":2663:2670   */\n      0x00\n        /* \"#utility.yul\":2692:2716   */\n      tag_339\n        /* \"#utility.yul\":2710:2715   */\n      dup3\n        /* \"#utility.yul\":2692:2716   */\n      tag_260\n      jump\t// in\n    tag_339:\n        /* \"#utility.yul\":2681:2716   */\n      swap1\n      pop\n        /* \"#utility.yul\":2626:2722   */\n      swap2\n      swap1\n      pop\n      jump\t// out\n        /* \"#utility.yul\":2728:2846   */\n    tag_262:\n        /* \"#utility.yul\":2815:2839   */\n      tag_341\n        /* \"#utility.yul\":2833:2838   */\n      dup2\n        /* \"#utility.yul\":2815:2839   */\n      tag_261\n      jump\t// in\n    tag_341:\n        /* \"#utility.yul\":2810:2813   */\n      dup3\n        /* \"#utility.yul\":2803:2840   */\n      mstore\n        /* \"#utility.yul\":2728:2846   */\n      pop\n      pop\n      jump\t// out\n        /* \"#utility.yul\":2852:3074   */\n    tag_36:\n        /* \"#utility.yul\":2945:2949   */\n      0x00\n        /* \"#utility.yul\":2983:2985   */\n      0x20\n        /* \"#utility.yul\":2972:2981   */\n      dup3\n        /* \"#utility.yul\":2968:2986   */\n      add\n        /* \"#utility.yul\":2960:2986   */\n      swap1\n      pop\n        /* \"#utility.yul\":2996:3067   */\n      tag_343\n        /* \"#utility.yul\":3064:3065   */\n      0x00\n        /* \"#utility.yul\":3053:3062   */\n      dup4\n        /* \"#utility.yul\":3049:3066   */\n      add\n        /* \"#utility.yul\":3040:3046   */\n      dup5\n        /* \"#utility.yul\":2996:3067   */\n      tag_262\n      jump\t// in\n    tag_343:\n        /* \"#utility.yul\":2852:3074   */\n      swap3\n      swap2\n      pop\n      pop\n      jump\t// out\n        /* \"#utility.yul\":3080:3239   */\n    tag_263:\n        /* \"#utility.yul\":3154:3165   */\n      0x00\n        /* \"#utility.yul\":3188:3194   */\n      dup3\n        /* \"#utility.yul\":3183:3186   */\n      dup3\n        /* \"#utility.yul\":3176:3195   */\n      mstore\n        /* \"#utility.yul\":3228:3232   */\n      0x20\n        /* \"#utility.yul\":3223:3226   */\n      dup3\n        /* \"#utility.yul\":3219:3233   */\n      add\n        /* \"#utility.yul\":3204:3233   */\n      swap1\n      pop\n        /* \"#utility.yul\":3080:3239   */\n      swap3\n      swap2\n      pop\n      pop\n      jump\t// out\n        /* \"#utility.yul\":3245:3602   */\n    tag_264:\n        /* \"#utility.yul\":3323:3326   */\n      0x00\n        /* \"#utility.yul\":3351:3390   */\n      tag_346\n        /* \"#utility.yul\":3384:3389   */\n      dup3\n        /* \"#utility.yul\":3351:3390   */\n      tag_254\n      jump\t// in\n    tag_346:\n        /* \"#utility.yul\":3406:3467   */\n      tag_347\n        /* \"#utility.yul\":3460:3466   */\n      dup2\n        /* \"#utility.yul\":3455:3458   */\n      dup6\n        /* \"#utility.yul\":3406:3467   */\n      tag_263\n      jump\t// in\n    tag_347:\n        /* \"#utility.yul\":3399:3467   */\n      swap4\n      pop\n        /* \"#utility.yul\":3476:3541   */\n      tag_348\n        /* \"#utility.yul\":3534:3540   */\n      dup2\n        /* \"#utility.yul\":3529:3532   */\n      dup6\n        /* \"#utility.yul\":3522:3526   */\n      0x20\n        /* \"#utility.yul\":3515:3520   */\n      dup7\n        /* \"#utility.yul\":3511:3527   */\n      add\n        /* \"#utility.yul\":3476:3541   */\n      tag_256\n      jump\t// in\n    tag_348:\n        /* \"#utility.yul\":3566:3595   */\n      tag_349\n        /* \"#utility.yul\":3588:3594   */\n      dup2\n        /* \"#utility.yul\":3566:3595   */\n      tag_257\n      jump\t// in\n    tag_349:\n        /* \"#utility.yul\":3561:3564   */\n      dup5\n        /* \"#utility.yul\":3557:3596   */\n      add\n        /* \"#utility.yul\":3550:3596   */\n      swap2\n      pop\n        /* \"#utility.yul\":3327:3602   */\n      pop\n        /* \"#utility.yul\":3245:3602   */\n      swap3\n      swap2\n      pop\n      pop\n      jump\t// out\n        /* \"#utility.yul\":3608:3716   */\n    tag_265:\n        /* \"#utility.yul\":3685:3709   */\n      tag_351\n        /* \"#utility.yul\":3703:3708   */\n      dup2\n        /* \"#utility.yul\":3685:3709   */\n      tag_251\n      jump\t// in\n    tag_351:\n        /* \"#utility.yul\":3680:3683   */\n      dup3\n        /* \"#utility.yul\":3673:3710   */\n      mstore\n        /* \"#utility.yul\":3608:3716   */\n      pop\n      pop\n      jump\t// out\n        /* \"#utility.yul\":3778:4396   */\n    tag_266:\n        /* \"#utility.yul\":3897:3900   */\n      0x00\n        /* \"#utility.yul\":3933:3937   */\n      0x40\n        /* \"#utility.yul\":3928:3931   */\n      dup4\n        /* \"#utility.yul\":3924:3938   */\n      add\n        /* \"#utility.yul\":4027:4031   */\n      0x00\n        /* \"#utility.yul\":4020:4025   */\n      dup4\n        /* \"#utility.yul\":4016:4032   */\n      add\n        /* \"#utility.yul\":4010:4033   */\n      mload\n        /* \"#utility.yul\":4080:4083   */\n      dup5\n        /* \"#utility.yul\":4074:4078   */\n      dup3\n        /* \"#utility.yul\":4070:4084   */\n      sub\n        /* \"#utility.yul\":4063:4067   */\n      0x00\n        /* \"#utility.yul\":4058:4061   */\n      dup7\n        /* \"#utility.yul\":4054:4068   */\n      add\n        /* \"#utility.yul\":4047:4085   */\n      mstore\n        /* \"#utility.yul\":4106:4179   */\n      tag_353\n        /* \"#utility.yul\":4174:4178   */\n      dup3\n        /* \"#utility.yul\":4160:4172   */\n      dup3\n        /* \"#utility.yul\":4106:4179   */\n      tag_264\n      jump\t// in\n    tag_353:\n        /* \"#utility.yul\":4098:4179   */\n      swap2\n      pop\n        /* \"#utility.yul\":3948:4190   */\n      pop\n        /* \"#utility.yul\":4277:4281   */\n      0x20\n        /* \"#utility.yul\":4270:4275   */\n      dup4\n        /* \"#utility.yul\":4266:4282   */\n      add\n        /* \"#utility.yul\":4260:4283   */\n      mload\n        /* \"#utility.yul\":4296:4359   */\n      tag_354\n        /* \"#utility.yul\":4353:4357   */\n      0x20\n        /* \"#utility.yul\":4348:4351   */\n      dup7\n        /* \"#utility.yul\":4344:4358   */\n      add\n        /* \"#utility.yul\":4330:4342   */\n      dup3\n        /* \"#utility.yul\":4296:4359   */\n      tag_265\n      jump\t// in\n    tag_354:\n        /* \"#utility.yul\":4200:4369   */\n      pop\n        /* \"#utility.yul\":4386:4390   */\n      dup1\n        /* \"#utility.yul\":4379:4390   */\n      swap2\n      pop\n        /* \"#utility.yul\":3902:4396   */\n      pop\n        /* \"#utility.yul\":3778:4396   */\n      swap3\n      swap2\n      pop\n      pop\n      jump\t// out\n        /* \"#utility.yul\":4402:4775   */\n    tag_40:\n        /* \"#utility.yul\":4545:4549   */\n      0x00\n        /* \"#utility.yul\":4583:4585   */\n      0x20\n        /* \"#utility.yul\":4572:4581   */\n      dup3\n        /* \"#utility.yul\":4568:4586   */\n      add\n        /* \"#utility.yul\":4560:4586   */\n      swap1\n      pop\n        /* \"#utility.yul\":4632:4641   */\n      dup2\n        /* \"#utility.yul\":4626:4630   */\n      dup2\n        /* \"#utility.yul\":4622:4642   */\n      sub\n        /* \"#utility.yul\":4618:4619   */\n      0x00\n        /* \"#utility.yul\":4607:4616   */\n      dup4\n        /* \"#utility.yul\":4603:4620   */\n      add\n        /* \"#utility.yul\":4596:4643   */\n      mstore\n        /* \"#utility.yul\":4660:4768   */\n      tag_356\n        /* \"#utility.yul\":4763:4767   */\n      dup2\n        /* \"#utility.yul\":4754:4760   */\n      dup5\n        /* \"#utility.yul\":4660:4768   */\n      tag_266\n      jump\t// in\n    tag_356:\n        /* \"#utility.yul\":4652:4768   */\n      swap1\n      pop\n        /* \"#utility.yul\":4402:4775   */\n      swap3\n      swap2\n      pop\n      pop\n      jump\t// out\n        /* \"#utility.yul\":4781:4961   */\n    tag_67:\n        /* \"#utility.yul\":4829:4906   */\n      0x4e487b7100000000000000000000000000000000000000000000000000000000\n        /* \"#utility.yul\":4826:4827   */\n      0x00\n        /* \"#utility.yul\":4819:4907   */\n      mstore\n        /* \"#utility.yul\":4926:4930   */\n      0x21\n        /* \"#utility.yul\":4923:4924   */\n      0x04\n        /* \"#utility.yul\":4916:4931   */\n      mstore\n        /* \"#utility.yul\":4950:4954   */\n      0x24\n        /* \"#utility.yul\":4947:4948   */\n      0x00\n        /* \"#utility.yul\":4940:4955   */\n      revert\n        /* \"#utility.yul\":4967:5090   */\n    tag_267:\n        /* \"#utility.yul\":5058:5059   */\n      0x06\n        /* \"#utility.yul\":5051:5056   */\n      dup2\n        /* \"#utility.yul\":5048:5060   */\n      lt\n        /* \"#utility.yul\":5038:5084   */\n      tag_359\n      jumpi\n        /* \"#utility.yul\":5064:5082   */\n      tag_360\n      tag_67\n      jump\t// in\n    tag_360:\n        /* \"#utility.yul\":5038:5084   */\n    tag_359:\n        /* \"#utility.yul\":4967:5090   */\n      pop\n      jump\t// out\n        /* \"#utility.yul\":5096:5243   */\n    tag_268:\n        /* \"#utility.yul\":5151:5158   */\n      0x00\n        /* \"#utility.yul\":5180:5185   */\n      dup2\n        /* \"#utility.yul\":5169:5185   */\n      swap1\n      pop\n        /* \"#utility.yul\":5186:5237   */\n      tag_362\n        /* \"#utility.yul\":5231:5236   */\n      dup3\n        /* \"#utility.yul\":5186:5237   */\n      tag_267\n      jump\t// in\n    tag_362:\n        /* \"#utility.yul\":5096:5243   */\n      swap2\n      swap1\n      pop\n      jump\t// out\n        /* \"#utility.yul\":5249:5396   */\n    tag_269:\n        /* \"#utility.yul\":5315:5324   */\n      0x00\n        /* \"#utility.yul\":5348:5390   */\n      tag_364\n        /* \"#utility.yul\":5384:5389   */\n      dup3\n        /* \"#utility.yul\":5348:5390   */\n      tag_268\n      jump\t// in\n    tag_364:\n        /* \"#utility.yul\":5335:5390   */\n      swap1\n      pop\n        /* \"#utility.yul\":5249:5396   */\n      swap2\n      swap1\n      pop\n      jump\t// out\n        /* \"#utility.yul\":5402:5565   */\n    tag_270:\n        /* \"#utility.yul\":5505:5558   */\n      tag_366\n        /* \"#utility.yul\":5552:5557   */\n      dup2\n        /* \"#utility.yul\":5505:5558   */\n      tag_269\n      jump\t// in\n    tag_366:\n        /* \"#utility.yul\":5500:5503   */\n      dup3\n        /* \"#utility.yul\":5493:5559   */\n      mstore\n        /* \"#utility.yul\":5402:5565   */\n      pop\n      pop\n      jump\t// out\n        /* \"#utility.yul\":5571:5825   */\n    tag_44:\n        /* \"#utility.yul\":5680:5684   */\n      0x00\n        /* \"#utility.yul\":5718:5720   */\n      0x20\n        /* \"#utility.yul\":5707:5716   */\n      dup3\n        /* \"#utility.yul\":5703:5721   */\n      add\n        /* \"#utility.yul\":5695:5721   */\n      swap1\n      pop\n        /* \"#utility.yul\":5731:5818   */\n      tag_368\n        /* \"#utility.yul\":5815:5816   */\n      0x00\n        /* \"#utility.yul\":5804:5813   */\n      dup4\n        /* \"#utility.yul\":5800:5817   */\n      add\n        /* \"#utility.yul\":5791:5797   */\n      dup5\n        /* \"#utility.yul\":5731:5818   */\n      tag_270\n      jump\t// in\n    tag_368:\n        /* \"#utility.yul\":5571:5825   */\n      swap3\n      swap2\n      pop\n      pop\n      jump\t// out\n        /* \"#utility.yul\":5831:5948   */\n    tag_271:\n        /* \"#utility.yul\":5940:5941   */\n      0x00\n        /* \"#utility.yul\":5937:5938   */\n      0x00\n        /* \"#utility.yul\":5930:5942   */\n      revert\n        /* \"#utility.yul\":5954:6071   */\n    tag_272:\n        /* \"#utility.yul\":6063:6064   */\n      0x00\n        /* \"#utility.yul\":6060:6061   */\n      0x00\n        /* \"#utility.yul\":6053:6065   */\n      revert\n        /* \"#utility.yul\":6077:6257   */\n    tag_273:\n        /* \"#utility.yul\":6125:6202   */\n      0x4e487b7100000000000000000000000000000000000000000000000000000000\n        /* \"#utility.yul\":6122:6123   */\n      0x00\n        /* \"#utility.yul\":6115:6203   */\n      mstore\n        /* \"#utility.yul\":6222:6226   */\n      0x41\n        /* \"#utility.yul\":6219:6220   */\n      0x04\n        /* \"#utility.yul\":6212:6227   */\n      mstore\n        /* \"#utility.yul\":6246:6250   */\n      0x24\n        /* \"#utility.yul\":6243:6244   */\n      0x00\n        /* \"#utility.yul\":6236:6251   */\n      revert\n        /* \"#utility.yul\":6263:6544   */\n    tag_274:\n        /* \"#utility.yul\":6346:6373   */\n      tag_373\n        /* \"#utility.yul\":6368:6372   */\n      dup3\n        /* \"#utility.yul\":6346:6373   */\n      tag_257\n      jump\t// in\n    tag_373:\n        /* \"#utility.yul\":6338:6344   */\n      dup2\n        /* \"#utility.yul\":6334:6374   */\n      add\n        /* \"#utility.yul\":6476:6482   */\n      dup2\n        /* \"#utility.yul\":6464:6474   */\n      dup2\n        /* \"#utility.yul\":6461:6483   */\n      lt\n        /* \"#utility.yul\":6440:6458   */\n      0xffffffffffffffff\n        /* \"#utility.yul\":6428:6438   */\n      dup3\n        /* \"#utility.yul\":6425:6459   */\n      gt\n        /* \"#utility.yul\":6422:6484   */\n      or\n        /* \"#utility.yul\":6419:6507   */\n      iszero\n      tag_374\n      jumpi\n        /* \"#utility.yul\":6487:6505   */\n      tag_375\n      tag_273\n      jump\t// in\n    tag_375:\n        /* \"#utility.yul\":6419:6507   */\n    tag_374:\n        /* \"#utility.yul\":6527:6537   */\n      dup1\n        /* \"#utility.yul\":6523:6525   */\n      0x40\n        /* \"#utility.yul\":6516:6538   */\n      mstore\n        /* \"#utility.yul\":6306:6544   */\n      pop\n        /* \"#utility.yul\":6263:6544   */\n      pop\n      pop\n      jump\t// out\n        /* \"#utility.yul\":6550:6679   */\n    tag_275:\n        /* \"#utility.yul\":6584:6590   */\n      0x00\n        /* \"#utility.yul\":6611:6631   */\n      tag_377\n      tag_248\n      jump\t// in\n    tag_377:\n        /* \"#utility.yul\":6601:6631   */\n      swap1\n      pop\n        /* \"#utility.yul\":6640:6673   */\n      tag_378\n        /* \"#utility.yul\":6668:6672   */\n      dup3\n        /* \"#utility.yul\":6660:6666   */\n      dup3\n        /* \"#utility.yul\":6640:6673   */\n      tag_274\n      jump\t// in\n    tag_378:\n        /* \"#utility.yul\":6550:6679   */\n      swap2\n      swap1\n      pop\n      jump\t// out\n        /* \"#utility.yul\":6685:6993   */\n    tag_276:\n        /* \"#utility.yul\":6747:6751   */\n      0x00\n        /* \"#utility.yul\":6837:6855   */\n      0xffffffffffffffff\n        /* \"#utility.yul\":6829:6835   */\n      dup3\n        /* \"#utility.yul\":6826:6856   */\n      gt\n        /* \"#utility.yul\":6823:6879   */\n      iszero\n      tag_380\n      jumpi\n        /* \"#utility.yul\":6859:6877   */\n      tag_381\n      tag_273\n      jump\t// in\n    tag_381:\n        /* \"#utility.yul\":6823:6879   */\n    tag_380:\n        /* \"#utility.yul\":6897:6926   */\n      tag_382\n        /* \"#utility.yul\":6919:6925   */\n      dup3\n        /* \"#utility.yul\":6897:6926   */\n      tag_257\n      jump\t// in\n    tag_382:\n        /* \"#utility.yul\":6889:6926   */\n      swap1\n      pop\n        /* \"#utility.yul\":6981:6985   */\n      0x20\n        /* \"#utility.yul\":6975:6979   */\n      dup2\n        /* \"#utility.yul\":6971:6986   */\n      add\n        /* \"#utility.yul\":6963:6986   */\n      swap1\n      pop\n        /* \"#utility.yul\":6685:6993   */\n      swap2\n      swap1\n      pop\n      jump\t// out\n        /* \"#utility.yul\":6999:7147   */\n    tag_277:\n        /* \"#utility.yul\":7097:7103   */\n      dup3\n        /* \"#utility.yul\":7092:7095   */\n      dup2\n        /* \"#utility.yul\":7087:7090   */\n      dup4\n        /* \"#utility.yul\":7074:7104   */\n      calldatacopy\n        /* \"#utility.yul\":7138:7139   */\n      0x00\n        /* \"#utility.yul\":7129:7135   */\n      dup4\n        /* \"#utility.yul\":7124:7127   */\n      dup4\n        /* \"#utility.yul\":7120:7136   */\n      add\n        /* \"#utility.yul\":7113:7140   */\n      mstore\n        /* \"#utility.yul\":6999:7147   */\n      pop\n      pop\n      pop\n      jump\t// out\n        /* \"#utility.yul\":7153:7578   */\n    tag_278:\n        /* \"#utility.yul\":7231:7236   */\n      0x00\n        /* \"#utility.yul\":7256:7322   */\n      tag_385\n        /* \"#utility.yul\":7272:7321   */\n      tag_386\n        /* \"#utility.yul\":7314:7320   */\n      dup5\n        /* \"#utility.yul\":7272:7321   */\n      tag_276\n      jump\t// in\n    tag_386:\n        /* \"#utility.yul\":7256:7322   */\n      tag_275\n      jump\t// in\n    tag_385:\n        /* \"#utility.yul\":7247:7322   */\n      swap1\n      pop\n        /* \"#utility.yul\":7345:7351   */\n      dup3\n        /* \"#utility.yul\":7338:7343   */\n      dup2\n        /* \"#utility.yul\":7331:7352   */\n      mstore\n        /* \"#utility.yul\":7383:7387   */\n      0x20\n        /* \"#utility.yul\":7376:7381   */\n      dup2\n        /* \"#utility.yul\":7372:7388   */\n      add\n        /* \"#utility.yul\":7421:7424   */\n      dup5\n        /* \"#utility.yul\":7412:7418   */\n      dup5\n        /* \"#utility.yul\":7407:7410   */\n      dup5\n        /* \"#utility.yul\":7403:7419   */\n      add\n        /* \"#utility.yul\":7400:7425   */\n      gt\n        /* \"#utility.yul\":7397:7509   */\n      iszero\n      tag_387\n      jumpi\n        /* \"#utility.yul\":7428:7507   */\n      tag_388\n      tag_272\n      jump\t// in\n    tag_388:\n        /* \"#utility.yul\":7397:7509   */\n    tag_387:\n        /* \"#utility.yul\":7518:7572   */\n      tag_389\n        /* \"#utility.yul\":7565:7571   */\n      dup5\n        /* \"#utility.yul\":7560:7563   */\n      dup3\n        /* \"#utility.yul\":7555:7558   */\n      dup6\n        /* \"#utility.yul\":7518:7572   */\n      tag_277\n      jump\t// in\n    tag_389:\n        /* \"#utility.yul\":7237:7578   */\n      pop\n        /* \"#utility.yul\":7153:7578   */\n      swap4\n      swap3\n      pop\n      pop\n      pop\n      jump\t// out\n        /* \"#utility.yul\":7598:7938   */\n    tag_279:\n        /* \"#utility.yul\":7654:7659   */\n      0x00\n        /* \"#utility.yul\":7703:7706   */\n      dup3\n        /* \"#utility.yul\":7696:7700   */\n      0x1f\n        /* \"#utility.yul\":7688:7694   */\n      dup4\n        /* \"#utility.yul\":7684:7701   */\n      add\n        /* \"#utility.yul\":7680:7707   */\n      slt\n        /* \"#utility.yul\":7670:7792   */\n      tag_391\n      jumpi\n        /* \"#utility.yul\":7711:7790   */\n      tag_392\n      tag_271\n      jump\t// in\n    tag_392:\n        /* \"#utility.yul\":7670:7792   */\n    tag_391:\n        /* \"#utility.yul\":7828:7834   */\n      dup2\n        /* \"#utility.yul\":7815:7835   */\n      calldataload\n        /* \"#utility.yul\":7853:7932   */\n      tag_393\n        /* \"#utility.yul\":7928:7931   */\n      dup5\n        /* \"#utility.yul\":7920:7926   */\n      dup3\n        /* \"#utility.yul\":7913:7917   */\n      0x20\n        /* \"#utility.yul\":7905:7911   */\n      dup7\n        /* \"#utility.yul\":7901:7918   */\n      add\n        /* \"#utility.yul\":7853:7932   */\n      tag_278\n      jump\t// in\n    tag_393:\n        /* \"#utility.yul\":7844:7932   */\n      swap2\n      pop\n        /* \"#utility.yul\":7660:7938   */\n      pop\n        /* \"#utility.yul\":7598:7938   */\n      swap3\n      swap2\n      pop\n      pop\n      jump\t// out\n        /* \"#utility.yul\":7944:8453   */\n    tag_53:\n        /* \"#utility.yul\":8013:8019   */\n      0x00\n        /* \"#utility.yul\":8062:8064   */\n      0x20\n        /* \"#utility.yul\":8050:8059   */\n      dup3\n        /* \"#utility.yul\":8041:8048   */\n      dup5\n        /* \"#utility.yul\":8037:8060   */\n      sub\n        /* \"#utility.yul\":8033:8065   */\n      slt\n        /* \"#utility.yul\":8030:8149   */\n      iszero\n      tag_395\n      jumpi\n        /* \"#utility.yul\":8068:8147   */\n      tag_396\n      tag_249\n      jump\t// in\n    tag_396:\n        /* \"#utility.yul\":8030:8149   */\n    tag_395:\n        /* \"#utility.yul\":8216:8217   */\n      0x00\n        /* \"#utility.yul\":8205:8214   */\n      dup3\n        /* \"#utility.yul\":8201:8218   */\n      add\n        /* \"#utility.yul\":8188:8219   */\n      calldataload\n        /* \"#utility.yul\":8246:8264   */\n      0xffffffffffffffff\n        /* \"#utility.yul\":8238:8244   */\n      dup2\n        /* \"#utility.yul\":8235:8265   */\n      gt\n        /* \"#utility.yul\":8232:8349   */\n      iszero\n      tag_397\n      jumpi\n        /* \"#utility.yul\":8268:8347   */\n      tag_398\n      tag_250\n      jump\t// in\n    tag_398:\n        /* \"#utility.yul\":8232:8349   */\n    tag_397:\n        /* \"#utility.yul\":8373:8436   */\n      tag_399\n        /* \"#utility.yul\":8428:8435   */\n      dup5\n        /* \"#utility.yul\":8419:8425   */\n      dup3\n        /* \"#utility.yul\":8408:8417   */\n      dup6\n        /* \"#utility.yul\":8404:8426   */\n      add\n        /* \"#utility.yul\":8373:8436   */\n      tag_279\n      jump\t// in\n    tag_399:\n        /* \"#utility.yul\":8363:8436   */\n      swap2\n      pop\n        /* \"#utility.yul\":8159:8446   */\n      pop\n        /* \"#utility.yul\":7944:8453   */\n      swap3\n      swap2\n      pop\n      pop\n      jump\t// out\n        /* \"#utility.yul\":8459:8581   */\n    tag_280:\n        /* \"#utility.yul\":8532:8556   */\n      tag_401\n        /* \"#utility.yul\":8550:8555   */\n      dup2\n        /* \"#utility.yul\":8532:8556   */\n      tag_261\n      jump\t// in\n    tag_401:\n        /* \"#utility.yul\":8525:8530   */\n      dup2\n        /* \"#utility.yul\":8522:8557   */\n      eq\n        /* \"#utility.yul\":8512:8575   */\n      tag_402\n      jumpi\n        /* \"#utility.yul\":8571:8572   */\n      0x00\n        /* \"#utility.yul\":8568:8569   */\n      0x00\n        /* \"#utility.yul\":8561:8573   */\n      revert\n        /* \"#utility.yul\":8512:8575   */\n    tag_402:\n        /* \"#utility.yul\":8459:8581   */\n      pop\n      jump\t// out\n        /* \"#utility.yul\":8587:8726   */\n    tag_281:\n        /* \"#utility.yul\":8633:8638   */\n      0x00\n        /* \"#utility.yul\":8671:8677   */\n      dup2\n        /* \"#utility.yul\":8658:8678   */\n      calldataload\n        /* \"#utility.yul\":8649:8678   */\n      swap1\n      pop\n        /* \"#utility.yul\":8687:8720   */\n      tag_404\n        /* \"#utility.yul\":8714:8719   */\n      dup2\n        /* \"#utility.yul\":8687:8720   */\n      tag_280\n      jump\t// in\n    tag_404:\n        /* \"#utility.yul\":8587:8726   */\n      swap3\n      swap2\n      pop\n      pop\n      jump\t// out\n        /* \"#utility.yul\":8732:9061   */\n    tag_57:\n        /* \"#utility.yul\":8791:8797   */\n      0x00\n        /* \"#utility.yul\":8840:8842   */\n      0x20\n        /* \"#utility.yul\":8828:8837   */\n      dup3\n        /* \"#utility.yul\":8819:8826   */\n      dup5\n        /* \"#utility.yul\":8815:8838   */\n      sub\n        /* \"#utility.yul\":8811:8843   */\n      slt\n        /* \"#utility.yul\":8808:8927   */\n      iszero\n      tag_406\n      jumpi\n        /* \"#utility.yul\":8846:8925   */\n      tag_407\n      tag_249\n      jump\t// in\n    tag_407:\n        /* \"#utility.yul\":8808:8927   */\n    tag_406:\n        /* \"#utility.yul\":8966:8967   */\n      0x00\n        /* \"#utility.yul\":8991:9044   */\n      tag_408\n        /* \"#utility.yul\":9036:9043   */\n      dup5\n        /* \"#utility.yul\":9027:9033   */\n      dup3\n        /* \"#utility.yul\":9016:9025   */\n      dup6\n        /* \"#utility.yul\":9012:9034   */\n      add\n        /* \"#utility.yul\":8991:9044   */\n      tag_281\n      jump\t// in\n    tag_408:\n        /* \"#utility.yul\":8981:9044   */\n      swap2\n      pop\n        /* \"#utility.yul\":8937:9054   */\n      pop\n        /* \"#utility.yul\":8732:9061   */\n      swap3\n      swap2\n      pop\n      pop\n      jump\t// out\n        /* \"#utility.yul\":9067:9298   */\n    tag_282:\n        /* \"#utility.yul\":9207:9241   */\n      0x596f7520617265206e6f742061626c6520746f20646f20746869732061637469\n        /* \"#utility.yul\":9203:9204   */\n      0x00\n        /* \"#utility.yul\":9195:9201   */\n      dup3\n        /* \"#utility.yul\":9191:9205   */\n      add\n        /* \"#utility.yul\":9184:9242   */\n      mstore\n        /* \"#utility.yul\":9276:9290   */\n      0x6f6e207269676874206e6f770000000000000000000000000000000000000000\n        /* \"#utility.yul\":9271:9273   */\n      0x20\n        /* \"#utility.yul\":9263:9269   */\n      dup3\n        /* \"#utility.yul\":9259:9274   */\n      add\n        /* \"#utility.yul\":9252:9291   */\n      mstore\n        /* \"#utility.yul\":9067:9298   */\n      pop\n      jump\t// out\n        /* \"#utility.yul\":9304:9670   */\n    tag_283:\n        /* \"#utility.yul\":9446:9449   */\n      0x00\n        /* \"#utility.yul\":9467:9534   */\n      tag_411\n        /* \"#utility.yul\":9531:9533   */\n      0x2c\n        /* \"#utility.yul\":9526:9529   */\n      dup4\n        /* \"#utility.yul\":9467:9534   */\n      tag_255\n      jump\t// in\n    tag_411:\n        /* \"#utility.yul\":9460:9534   */\n      swap2\n      pop\n        /* \"#utility.yul\":9543:9636   */\n      tag_412\n        /* \"#utility.yul\":9632:9635   */\n      dup3\n        /* \"#utility.yul\":9543:9636   */\n      tag_282\n      jump\t// in\n    tag_412:\n        /* \"#utility.yul\":9661:9663   */\n      0x40\n        /* \"#utility.yul\":9656:9659   */\n      dup3\n        /* \"#utility.yul\":9652:9664   */\n      add\n        /* \"#utility.yul\":9645:9664   */\n      swap1\n      pop\n        /* \"#utility.yul\":9304:9670   */\n      swap2\n      swap1\n      pop\n      jump\t// out\n        /* \"#utility.yul\":9676:10095   */\n    tag_72:\n        /* \"#utility.yul\":9842:9846   */\n      0x00\n        /* \"#utility.yul\":9880:9882   */\n      0x20\n        /* \"#utility.yul\":9869:9878   */\n      dup3\n        /* \"#utility.yul\":9865:9883   */\n      add\n        /* \"#utility.yul\":9857:9883   */\n      swap1\n      pop\n        /* \"#utility.yul\":9929:9938   */\n      dup2\n        /* \"#utility.yul\":9923:9927   */\n      dup2\n        /* \"#utility.yul\":9919:9939   */\n      sub\n        /* \"#utility.yul\":9915:9916   */\n      0x00\n        /* \"#utility.yul\":9904:9913   */\n      dup4\n        /* \"#utility.yul\":9900:9917   */\n      add\n        /* \"#utility.yul\":9893:9940   */\n      mstore\n        /* \"#utility.yul\":9957:10088   */\n      tag_414\n        /* \"#utility.yul\":10083:10087   */\n      dup2\n        /* \"#utility.yul\":9957:10088   */\n      tag_283\n      jump\t// in\n    tag_414:\n        /* \"#utility.yul\":9949:10088   */\n      swap1\n      pop\n        /* \"#utility.yul\":9676:10095   */\n      swap2\n      swap1\n      pop\n      jump\t// out\n        /* \"#utility.yul\":10101:10278   */\n    tag_284:\n        /* \"#utility.yul\":10241:10270   */\n      0x596f7520617265206e6f7420616c6c6f77656420746f20766f74650000000000\n        /* \"#utility.yul\":10237:10238   */\n      0x00\n        /* \"#utility.yul\":10229:10235   */\n      dup3\n        /* \"#utility.yul\":10225:10239   */\n      add\n        /* \"#utility.yul\":10218:10271   */\n      mstore\n        /* \"#utility.yul\":10101:10278   */\n      pop\n      jump\t// out\n        /* \"#utility.yul\":10284:10650   */\n    tag_285:\n        /* \"#utility.yul\":10426:10429   */\n      0x00\n        /* \"#utility.yul\":10447:10514   */\n      tag_417\n        /* \"#utility.yul\":10511:10513   */\n      0x1b\n        /* \"#utility.yul\":10506:10509   */\n      dup4\n        /* \"#utility.yul\":10447:10514   */\n      tag_255\n      jump\t// in\n    tag_417:\n        /* \"#utility.yul\":10440:10514   */\n      swap2\n      pop\n        /* \"#utility.yul\":10523:10616   */\n      tag_418\n        /* \"#utility.yul\":10612:10615   */\n      dup3\n        /* \"#utility.yul\":10523:10616   */\n      tag_284\n      jump\t// in\n    tag_418:\n        /* \"#utility.yul\":10641:10643   */\n      0x20\n        /* \"#utility.yul\":10636:10639   */\n      dup3\n        /* \"#utility.yul\":10632:10644   */\n      add\n        /* \"#utility.yul\":10625:10644   */\n      swap1\n      pop\n        /* \"#utility.yul\":10284:10650   */\n      swap2\n      swap1\n      pop\n      jump\t// out\n        /* \"#utility.yul\":10656:11075   */\n    tag_76:\n        /* \"#utility.yul\":10822:10826   */\n      0x00\n        /* \"#utility.yul\":10860:10862   */\n      0x20\n        /* \"#utility.yul\":10849:10858   */\n      dup3\n        /* \"#utility.yul\":10845:10863   */\n      add\n        /* \"#utility.yul\":10837:10863   */\n      swap1\n      pop\n        /* \"#utility.yul\":10909:10918   */\n      dup2\n        /* \"#utility.yul\":10903:10907   */\n      dup2\n        /* \"#utility.yul\":10899:10919   */\n      sub\n        /* \"#utility.yul\":10895:10896   */\n      0x00\n        /* \"#utility.yul\":10884:10893   */\n      dup4\n        /* \"#utility.yul\":10880:10897   */\n      add\n        /* \"#utility.yul\":10873:10920   */\n      mstore\n        /* \"#utility.yul\":10937:11068   */\n      tag_420\n        /* \"#utility.yul\":11063:11067   */\n      dup2\n        /* \"#utility.yul\":10937:11068   */\n      tag_285\n      jump\t// in\n    tag_420:\n        /* \"#utility.yul\":10929:11068   */\n      swap1\n      pop\n        /* \"#utility.yul\":10656:11075   */\n      swap2\n      swap1\n      pop\n      jump\t// out\n        /* \"#utility.yul\":11081:11253   */\n    tag_286:\n        /* \"#utility.yul\":11221:11245   */\n      0x596f75206861766520616c726561647920766f74656400000000000000000000\n        /* \"#utility.yul\":11217:11218   */\n      0x00\n        /* \"#utility.yul\":11209:11215   */\n      dup3\n        /* \"#utility.yul\":11205:11219   */\n      add\n        /* \"#utility.yul\":11198:11246   */\n      mstore\n        /* \"#utility.yul\":11081:11253   */\n      pop\n      jump\t// out\n        /* \"#utility.yul\":11259:11625   */\n    tag_287:\n        /* \"#utility.yul\":11401:11404   */\n      0x00\n        /* \"#utility.yul\":11422:11489   */\n      tag_423\n        /* \"#utility.yul\":11486:11488   */\n      0x16\n        /* \"#utility.yul\":11481:11484   */\n      dup4\n        /* \"#utility.yul\":11422:11489   */\n      tag_255\n      jump\t// in\n    tag_423:\n        /* \"#utility.yul\":11415:11489   */\n      swap2\n      pop\n        /* \"#utility.yul\":11498:11591   */\n      tag_424\n        /* \"#utility.yul\":11587:11590   */\n      dup3\n        /* \"#utility.yul\":11498:11591   */\n      tag_286\n      jump\t// in\n    tag_424:\n        /* \"#utility.yul\":11616:11618   */\n      0x20\n        /* \"#utility.yul\":11611:11614   */\n      dup3\n        /* \"#utility.yul\":11607:11619   */\n      add\n        /* \"#utility.yul\":11600:11619   */\n      swap1\n      pop\n        /* \"#utility.yul\":11259:11625   */\n      swap2\n      swap1\n      pop\n      jump\t// out\n        /* \"#utility.yul\":11631:12050   */\n    tag_79:\n        /* \"#utility.yul\":11797:11801   */\n      0x00\n        /* \"#utility.yul\":11835:11837   */\n      0x20\n        /* \"#utility.yul\":11824:11833   */\n      dup3\n        /* \"#utility.yul\":11820:11838   */\n      add\n        /* \"#utility.yul\":11812:11838   */\n      swap1\n      pop\n        /* \"#utility.yul\":11884:11893   */\n      dup2\n        /* \"#utility.yul\":11878:11882   */\n      dup2\n        /* \"#utility.yul\":11874:11894   */\n      sub\n        /* \"#utility.yul\":11870:11871   */\n      0x00\n        /* \"#utility.yul\":11859:11868   */\n      dup4\n        /* \"#utility.yul\":11855:11872   */\n      add\n        /* \"#utility.yul\":11848:11895   */\n      mstore\n        /* \"#utility.yul\":11912:12043   */\n      tag_426\n        /* \"#utility.yul\":12038:12042   */\n      dup2\n        /* \"#utility.yul\":11912:12043   */\n      tag_287\n      jump\t// in\n    tag_426:\n        /* \"#utility.yul\":11904:12043   */\n      swap1\n      pop\n        /* \"#utility.yul\":11631:12050   */\n      swap2\n      swap1\n      pop\n      jump\t// out\n        /* \"#utility.yul\":12056:12236   */\n    tag_82:\n        /* \"#utility.yul\":12104:12181   */\n      0x4e487b7100000000000000000000000000000000000000000000000000000000\n        /* \"#utility.yul\":12101:12102   */\n      0x00\n        /* \"#utility.yul\":12094:12182   */\n      mstore\n        /* \"#utility.yul\":12201:12205   */\n      0x32\n        /* \"#utility.yul\":12198:12199   */\n      0x04\n        /* \"#utility.yul\":12191:12206   */\n      mstore\n        /* \"#utility.yul\":12225:12229   */\n      0x24\n        /* \"#utility.yul\":12222:12223   */\n      0x00\n        /* \"#utility.yul\":12215:12230   */\n      revert\n        /* \"#utility.yul\":12242:12422   */\n    tag_288:\n        /* \"#utility.yul\":12290:12367   */\n      0x4e487b7100000000000000000000000000000000000000000000000000000000\n        /* \"#utility.yul\":12287:12288   */\n      0x00\n        /* \"#utility.yul\":12280:12368   */\n      mstore\n        /* \"#utility.yul\":12387:12391   */\n      0x11\n        /* \"#utility.yul\":12384:12385   */\n      0x04\n        /* \"#utility.yul\":12377:12392   */\n      mstore\n        /* \"#utility.yul\":12411:12415   */\n      0x24\n        /* \"#utility.yul\":12408:12409   */\n      0x00\n        /* \"#utility.yul\":12401:12416   */\n      revert\n        /* \"#utility.yul\":12428:12619   */\n    tag_85:\n        /* \"#utility.yul\":12468:12471   */\n      0x00\n        /* \"#utility.yul\":12487:12507   */\n      tag_430\n        /* \"#utility.yul\":12505:12506   */\n      dup3\n        /* \"#utility.yul\":12487:12507   */\n      tag_251\n      jump\t// in\n    tag_430:\n        /* \"#utility.yul\":12482:12507   */\n      swap2\n      pop\n        /* \"#utility.yul\":12521:12541   */\n      tag_431\n        /* \"#utility.yul\":12539:12540   */\n      dup4\n        /* \"#utility.yul\":12521:12541   */\n      tag_251\n      jump\t// in\n    tag_431:\n        /* \"#utility.yul\":12516:12541   */\n      swap3\n      pop\n        /* \"#utility.yul\":12564:12565   */\n      dup3\n        /* \"#utility.yul\":12561:12562   */\n      dup3\n        /* \"#utility.yul\":12557:12566   */\n      add\n        /* \"#utility.yul\":12550:12566   */\n      swap1\n      pop\n        /* \"#utility.yul\":12585:12588   */\n      dup1\n        /* \"#utility.yul\":12582:12583   */\n      dup3\n        /* \"#utility.yul\":12579:12589   */\n      gt\n        /* \"#utility.yul\":12576:12612   */\n      iszero\n      tag_432\n      jumpi\n        /* \"#utility.yul\":12592:12610   */\n      tag_433\n      tag_288\n      jump\t// in\n    tag_433:\n        /* \"#utility.yul\":12576:12612   */\n    tag_432:\n        /* \"#utility.yul\":12428:12619   */\n      swap3\n      swap2\n      pop\n      pop\n      jump\t// out\n        /* \"#utility.yul\":12625:12957   */\n    tag_94:\n        /* \"#utility.yul\":12746:12750   */\n      0x00\n        /* \"#utility.yul\":12784:12786   */\n      0x40\n        /* \"#utility.yul\":12773:12782   */\n      dup3\n        /* \"#utility.yul\":12769:12787   */\n      add\n        /* \"#utility.yul\":12761:12787   */\n      swap1\n      pop\n        /* \"#utility.yul\":12797:12868   */\n      tag_435\n        /* \"#utility.yul\":12865:12866   */\n      0x00\n        /* \"#utility.yul\":12854:12863   */\n      dup4\n        /* \"#utility.yul\":12850:12867   */\n      add\n        /* \"#utility.yul\":12841:12847   */\n      dup6\n        /* \"#utility.yul\":12797:12868   */\n      tag_262\n      jump\t// in\n    tag_435:\n        /* \"#utility.yul\":12878:12950   */\n      tag_436\n        /* \"#utility.yul\":12946:12948   */\n      0x20\n        /* \"#utility.yul\":12935:12944   */\n      dup4\n        /* \"#utility.yul\":12931:12949   */\n      add\n        /* \"#utility.yul\":12922:12928   */\n      dup5\n        /* \"#utility.yul\":12878:12950   */\n      tag_259\n      jump\t// in\n    tag_436:\n        /* \"#utility.yul\":12625:12957   */\n      swap4\n      swap3\n      pop\n      pop\n      pop\n      jump\t// out\n        /* \"#utility.yul\":12963:13143   */\n    tag_289:\n        /* \"#utility.yul\":13011:13088   */\n      0x4e487b7100000000000000000000000000000000000000000000000000000000\n        /* \"#utility.yul\":13008:13009   */\n      0x00\n        /* \"#utility.yul\":13001:13089   */\n      mstore\n        /* \"#utility.yul\":13108:13112   */\n      0x22\n        /* \"#utility.yul\":13105:13106   */\n      0x04\n        /* \"#utility.yul\":13098:13113   */\n      mstore\n        /* \"#utility.yul\":13132:13136   */\n      0x24\n        /* \"#utility.yul\":13129:13130   */\n      0x00\n        /* \"#utility.yul\":13122:13137   */\n      revert\n        /* \"#utility.yul\":13149:13469   */\n    tag_98:\n        /* \"#utility.yul\":13193:13199   */\n      0x00\n        /* \"#utility.yul\":13230:13231   */\n      0x02\n        /* \"#utility.yul\":13224:13228   */\n      dup3\n        /* \"#utility.yul\":13220:13232   */\n      div\n        /* \"#utility.yul\":13210:13232   */\n      swap1\n      pop\n        /* \"#utility.yul\":13277:13278   */\n      0x01\n        /* \"#utility.yul\":13271:13275   */\n      dup3\n        /* \"#utility.yul\":13267:13279   */\n      and\n        /* \"#utility.yul\":13298:13316   */\n      dup1\n        /* \"#utility.yul\":13288:13369   */\n      tag_439\n      jumpi\n        /* \"#utility.yul\":13354:13358   */\n      0x7f\n        /* \"#utility.yul\":13346:13352   */\n      dup3\n        /* \"#utility.yul\":13342:13359   */\n      and\n        /* \"#utility.yul\":13332:13359   */\n      swap2\n      pop\n        /* \"#utility.yul\":13288:13369   */\n    tag_439:\n        /* \"#utility.yul\":13416:13418   */\n      0x20\n        /* \"#utility.yul\":13408:13414   */\n      dup3\n        /* \"#utility.yul\":13405:13419   */\n      lt\n        /* \"#utility.yul\":13385:13403   */\n      dup2\n        /* \"#utility.yul\":13382:13420   */\n      sub\n        /* \"#utility.yul\":13379:13463   */\n      tag_440\n      jumpi\n        /* \"#utility.yul\":13435:13453   */\n      tag_441\n      tag_289\n      jump\t// in\n    tag_441:\n        /* \"#utility.yul\":13379:13463   */\n    tag_440:\n        /* \"#utility.yul\":13200:13469   */\n      pop\n        /* \"#utility.yul\":13149:13469   */\n      swap2\n      swap1\n      pop\n      jump\t// out\n        /* \"#utility.yul\":13475:13871   */\n    tag_117:\n        /* \"#utility.yul\":13628:13632   */\n      0x00\n        /* \"#utility.yul\":13666:13668   */\n      0x40\n        /* \"#utility.yul\":13655:13664   */\n      dup3\n        /* \"#utility.yul\":13651:13669   */\n      add\n        /* \"#utility.yul\":13643:13669   */\n      swap1\n      pop\n        /* \"#utility.yul\":13679:13766   */\n      tag_443\n        /* \"#utility.yul\":13763:13764   */\n      0x00\n        /* \"#utility.yul\":13752:13761   */\n      dup4\n        /* \"#utility.yul\":13748:13765   */\n      add\n        /* \"#utility.yul\":13739:13745   */\n      dup6\n        /* \"#utility.yul\":13679:13766   */\n      tag_270\n      jump\t// in\n    tag_443:\n        /* \"#utility.yul\":13776:13864   */\n      tag_444\n        /* \"#utility.yul\":13860:13862   */\n      0x20\n        /* \"#utility.yul\":13849:13858   */\n      dup4\n        /* \"#utility.yul\":13845:13863   */\n      add\n        /* \"#utility.yul\":13836:13842   */\n      dup5\n        /* \"#utility.yul\":13776:13864   */\n      tag_270\n      jump\t// in\n    tag_444:\n        /* \"#utility.yul\":13475:13871   */\n      swap4\n      swap3\n      pop\n      pop\n      pop\n      jump\t// out\n        /* \"#utility.yul\":13877:14102   */\n    tag_290:\n        /* \"#utility.yul\":14017:14051   */\n      0x596f7520617265206e6f7420616c6c6f77656420746f206d616b652061207072\n        /* \"#utility.yul\":14013:14014   */\n      0x00\n        /* \"#utility.yul\":14005:14011   */\n      dup3\n        /* \"#utility.yul\":14001:14015   */\n      add\n        /* \"#utility.yul\":13994:14052   */\n      mstore\n        /* \"#utility.yul\":14086:14094   */\n      0x6f706f73616c0000000000000000000000000000000000000000000000000000\n        /* \"#utility.yul\":14081:14083   */\n      0x20\n        /* \"#utility.yul\":14073:14079   */\n      dup3\n        /* \"#utility.yul\":14069:14084   */\n      add\n        /* \"#utility.yul\":14062:14095   */\n      mstore\n        /* \"#utility.yul\":13877:14102   */\n      pop\n      jump\t// out\n        /* \"#utility.yul\":14108:14474   */\n    tag_291:\n        /* \"#utility.yul\":14250:14253   */\n      0x00\n        /* \"#utility.yul\":14271:14338   */\n      tag_447\n        /* \"#utility.yul\":14335:14337   */\n      0x26\n        /* \"#utility.yul\":14330:14333   */\n      dup4\n        /* \"#utility.yul\":14271:14338   */\n      tag_255\n      jump\t// in\n    tag_447:\n        /* \"#utility.yul\":14264:14338   */\n      swap2\n      pop\n        /* \"#utility.yul\":14347:14440   */\n      tag_448\n        /* \"#utility.yul\":14436:14439   */\n      dup3\n        /* \"#utility.yul\":14347:14440   */\n      tag_290\n      jump\t// in\n    tag_448:\n        /* \"#utility.yul\":14465:14467   */\n      0x40\n        /* \"#utility.yul\":14460:14463   */\n      dup3\n        /* \"#utility.yul\":14456:14468   */\n      add\n        /* \"#utility.yul\":14449:14468   */\n      swap1\n      pop\n        /* \"#utility.yul\":14108:14474   */\n      swap2\n      swap1\n      pop\n      jump\t// out\n        /* \"#utility.yul\":14480:14899   */\n    tag_201:\n        /* \"#utility.yul\":14646:14650   */\n      0x00\n        /* \"#utility.yul\":14684:14686   */\n      0x20\n        /* \"#utility.yul\":14673:14682   */\n      dup3\n        /* \"#utility.yul\":14669:14687   */\n      add\n        /* \"#utility.yul\":14661:14687   */\n      swap1\n      pop\n        /* \"#utility.yul\":14733:14742   */\n      dup2\n        /* \"#utility.yul\":14727:14731   */\n      dup2\n        /* \"#utility.yul\":14723:14743   */\n      sub\n        /* \"#utility.yul\":14719:14720   */\n      0x00\n        /* \"#utility.yul\":14708:14717   */\n      dup4\n        /* \"#utility.yul\":14704:14721   */\n      add\n        /* \"#utility.yul\":14697:14744   */\n      mstore\n        /* \"#utility.yul\":14761:14892   */\n      tag_450\n        /* \"#utility.yul\":14887:14891   */\n      dup2\n        /* \"#utility.yul\":14761:14892   */\n      tag_291\n      jump\t// in\n    tag_450:\n        /* \"#utility.yul\":14753:14892   */\n      swap1\n      pop\n        /* \"#utility.yul\":14480:14899   */\n      swap2\n      swap1\n      pop\n      jump\t// out\n        /* \"#utility.yul\":14905:15046   */\n    tag_292:\n        /* \"#utility.yul\":14954:14958   */\n      0x00\n        /* \"#utility.yul\":14977:14980   */\n      dup2\n        /* \"#utility.yul\":14969:14980   */\n      swap1\n      pop\n        /* \"#utility.yul\":15000:15003   */\n      dup2\n        /* \"#utility.yul\":14997:14998   */\n      0x00\n        /* \"#utility.yul\":14990:15004   */\n      mstore\n        /* \"#utility.yul\":15034:15038   */\n      0x20\n        /* \"#utility.yul\":15031:15032   */\n      0x00\n        /* \"#utility.yul\":15021:15039   */\n      keccak256\n        /* \"#utility.yul\":15013:15039   */\n      swap1\n      pop\n        /* \"#utility.yul\":14905:15046   */\n      swap2\n      swap1\n      pop\n      jump\t// out\n        /* \"#utility.yul\":15052:15145   */\n    tag_293:\n        /* \"#utility.yul\":15089:15095   */\n      0x00\n        /* \"#utility.yul\":15136:15138   */\n      0x20\n        /* \"#utility.yul\":15131:15133   */\n      0x1f\n        /* \"#utility.yul\":15124:15129   */\n      dup4\n        /* \"#utility.yul\":15120:15134   */\n      add\n        /* \"#utility.yul\":15116:15139   */\n      div\n        /* \"#utility.yul\":15106:15139   */\n      swap1\n      pop\n        /* \"#utility.yul\":15052:15145   */\n      swap2\n      swap1\n      pop\n      jump\t// out\n        /* \"#utility.yul\":15151:15258   */\n    tag_294:\n        /* \"#utility.yul\":15195:15203   */\n      0x00\n        /* \"#utility.yul\":15245:15250   */\n      dup3\n        /* \"#utility.yul\":15239:15243   */\n      dup3\n        /* \"#utility.yul\":15235:15251   */\n      shl\n        /* \"#utility.yul\":15214:15251   */\n      swap1\n      pop\n        /* \"#utility.yul\":15151:15258   */\n      swap3\n      swap2\n      pop\n      pop\n      jump\t// out\n        /* \"#utility.yul\":15264:15657   */\n    tag_295:\n        /* \"#utility.yul\":15333:15339   */\n      0x00\n        /* \"#utility.yul\":15383:15384   */\n      0x08\n        /* \"#utility.yul\":15371:15381   */\n      dup4\n        /* \"#utility.yul\":15367:15385   */\n      mul\n        /* \"#utility.yul\":15406:15503   */\n      tag_455\n        /* \"#utility.yul\":15436:15502   */\n      0xffffffffffffffffffffffffffffffffffffffffffffffffffffffffffffffff\n        /* \"#utility.yul\":15425:15434   */\n      dup3\n        /* \"#utility.yul\":15406:15503   */\n      tag_294\n      jump\t// in\n    tag_455:\n        /* \"#utility.yul\":15524:15563   */\n      tag_456\n        /* \"#utility.yul\":15554:15562   */\n      dup7\n        /* \"#utility.yul\":15543:15552   */\n      dup4\n        /* \"#utility.yul\":15524:15563   */\n      tag_294\n      jump\t// in\n    tag_456:\n        /* \"#utility.yul\":15512:15563   */\n      swap6\n      pop\n        /* \"#utility.yul\":15596:15600   */\n      dup1\n        /* \"#utility.yul\":15592:15601   */\n      not\n        /* \"#utility.yul\":15585:15590   */\n      dup5\n        /* \"#utility.yul\":15581:15602   */\n      and\n        /* \"#utility.yul\":15572:15602   */\n      swap4\n      pop\n        /* \"#utility.yul\":15645:15649   */\n      dup1\n        /* \"#utility.yul\":15635:15643   */\n      dup7\n        /* \"#utility.yul\":15631:15650   */\n      and\n        /* \"#utility.yul\":15624:15629   */\n      dup5\n        /* \"#utility.yul\":15621:15651   */\n      or\n        /* \"#utility.yul\":15611:15651   */\n      swap3\n      pop\n        /* \"#utility.yul\":15340:15657   */\n      pop\n      pop\n        /* \"#utility.yul\":15264:15657   */\n      swap4\n      swap3\n      pop\n      pop\n      pop\n      jump\t// out\n        /* \"#utility.yul\":15663:15723   */\n    tag_296:\n        /* \"#utility.yul\":15691:15694   */\n      0x00\n        /* \"#utility.yul\":15712:15717   */\n      dup2\n        /* \"#utility.yul\":15705:15717   */\n      swap1\n      pop\n        /* \"#utility.yul\":15663:15723   */\n      swap2\n      swap1\n      pop\n      jump\t// out\n        /* \"#utility.yul\":15729:15871   */\n    tag_297:\n        /* \"#utility.yul\":15779:15788   */\n      0x00\n        /* \"#utility.yul\":15812:15865   */\n      tag_459\n        /* \"#utility.yul\":15830:15864   */\n      tag_460\n        /* \"#utility.yul\":15839:15863   */\n      tag_461\n        /* \"#utility.yul\":15857:15862   */\n      dup5\n        /* \"#utility.yul\":15839:15863   */\n      tag_251\n      jump\t// in\n    tag_461:\n        /* \"#utility.yul\":15830:15864   */\n      tag_296\n      jump\t// in\n    tag_460:\n        /* \"#utility.yul\":15812:15865   */\n      tag_251\n      jump\t// in\n    tag_459:\n        /* \"#utility.yul\":15799:15865   */\n      swap1\n      pop\n        /* \"#utility.yul\":15729:15871   */\n      swap2\n      swap1\n      pop\n      jump\t// out\n        /* \"#utility.yul\":15877:15952   */\n    tag_298:\n        /* \"#utility.yul\":15920:15923   */\n      0x00\n        /* \"#utility.yul\":15941:15946   */\n      dup2\n        /* \"#utility.yul\":15934:15946   */\n      swap1\n      pop\n        /* \"#utility.yul\":15877:15952   */\n      swap2\n      swap1\n      pop\n      jump\t// out\n        /* \"#utility.yul\":15958:16227   */\n    tag_299:\n        /* \"#utility.yul\":16068:16107   */\n      tag_464\n        /* \"#utility.yul\":16099:16106   */\n      dup4\n        /* \"#utility.yul\":16068:16107   */\n      tag_297\n      jump\t// in\n    tag_464:\n        /* \"#utility.yul\":16129:16220   */\n      tag_465\n        /* \"#utility.yul\":16178:16219   */\n      tag_466\n        /* \"#utility.yul\":16202:16218   */\n      dup3\n        /* \"#utility.yul\":16178:16219   */\n      tag_298\n      jump\t// in\n    tag_466:\n        /* \"#utility.yul\":16170:16176   */\n      dup5\n        /* \"#utility.yul\":16163:16167   */\n      dup5\n        /* \"#utility.yul\":16157:16168   */\n      sload\n        /* \"#utility.yul\":16129:16220   */\n      tag_295\n      jump\t// in\n    tag_465:\n        /* \"#utility.yul\":16123:16127   */\n      dup3\n        /* \"#utility.yul\":16116:16221   */\n      sstore\n        /* \"#utility.yul\":16034:16227   */\n      pop\n        /* \"#utility.yul\":15958:16227   */\n      pop\n      pop\n      pop\n      jump\t// out\n        /* \"#utility.yul\":16233:16306   */\n    tag_300:\n        /* \"#utility.yul\":16278:16281   */\n      0x00\n        /* \"#utility.yul\":16299:16300   */\n      0x00\n        /* \"#utility.yul\":16292:16300   */\n      swap1\n      pop\n        /* \"#utility.yul\":16233:16306   */\n      swap1\n      jump\t// out\n        /* \"#utility.yul\":16312:16501   */\n    tag_301:\n        /* \"#utility.yul\":16389:16421   */\n      tag_469\n      tag_300\n      jump\t// in\n    tag_469:\n        /* \"#utility.yul\":16430:16495   */\n      tag_470\n        /* \"#utility.yul\":16488:16494   */\n      dup2\n        /* \"#utility.yul\":16480:16486   */\n      dup5\n        /* \"#utility.yul\":16474:16478   */\n      dup5\n        /* \"#utility.yul\":16430:16495   */\n      tag_299\n      jump\t// in\n    tag_470:\n        /* \"#utility.yul\":16365:16501   */\n      pop\n        /* \"#utility.yul\":16312:16501   */\n      pop\n      pop\n      jump\t// out\n        /* \"#utility.yul\":16507:16693   */\n    tag_302:\n        /* \"#utility.yul\":16567:16687   */\n    tag_472:\n        /* \"#utility.yul\":16584:16587   */\n      dup2\n        /* \"#utility.yul\":16577:16582   */\n      dup2\n        /* \"#utility.yul\":16574:16588   */\n      lt\n        /* \"#utility.yul\":16567:16687   */\n      iszero\n      tag_474\n      jumpi\n        /* \"#utility.yul\":16638:16677   */\n      tag_475\n        /* \"#utility.yul\":16675:16676   */\n      0x00\n        /* \"#utility.yul\":16668:16673   */\n      dup3\n        /* \"#utility.yul\":16638:16677   */\n      tag_301\n      jump\t// in\n    tag_475:\n        /* \"#utility.yul\":16611:16612   */\n      0x01\n        /* \"#utility.yul\":16604:16609   */\n      dup2\n        /* \"#utility.yul\":16600:16613   */\n      add\n        /* \"#utility.yul\":16591:16613   */\n      swap1\n      pop\n        /* \"#utility.yul\":16567:16687   */\n      jump(tag_472)\n    tag_474:\n        /* \"#utility.yul\":16507:16693   */\n      pop\n      pop\n      jump\t// out\n        /* \"#utility.yul\":16699:17242   */\n    tag_303:\n        /* \"#utility.yul\":16800:16802   */\n      0x1f\n        /* \"#utility.yul\":16795:16798   */\n      dup3\n        /* \"#utility.yul\":16792:16803   */\n      gt\n        /* \"#utility.yul\":16789:17235   */\n      iszero\n      tag_477\n      jumpi\n        /* \"#utility.yul\":16834:16872   */\n      tag_478\n        /* \"#utility.yul\":16866:16871   */\n      dup2\n        /* \"#utility.yul\":16834:16872   */\n      tag_292\n      jump\t// in\n    tag_478:\n        /* \"#utility.yul\":16918:16947   */\n      tag_479\n        /* \"#utility.yul\":16936:16946   */\n      dup5\n        /* \"#utility.yul\":16918:16947   */\n      tag_293\n      jump\t// in\n    tag_479:\n        /* \"#utility.yul\":16908:16916   */\n      dup2\n        /* \"#utility.yul\":16904:16948   */\n      add\n        /* \"#utility.yul\":17101:17103   */\n      0x20\n        /* \"#utility.yul\":17089:17099   */\n      dup6\n        /* \"#utility.yul\":17086:17104   */\n      lt\n        /* \"#utility.yul\":17083:17132   */\n      iszero\n      tag_480\n      jumpi\n        /* \"#utility.yul\":17122:17130   */\n      dup2\n        /* \"#utility.yul\":17107:17130   */\n      swap1\n      pop\n        /* \"#utility.yul\":17083:17132   */\n    tag_480:\n        /* \"#utility.yul\":17145:17225   */\n      tag_481\n        /* \"#utility.yul\":17201:17223   */\n      tag_482\n        /* \"#utility.yul\":17219:17222   */\n      dup6\n        /* \"#utility.yul\":17201:17223   */\n      tag_293\n      jump\t// in\n    tag_482:\n        /* \"#utility.yul\":17191:17199   */\n      dup4\n        /* \"#utility.yul\":17187:17224   */\n      add\n        /* \"#utility.yul\":17174:17185   */\n      dup3\n        /* \"#utility.yul\":17145:17225   */\n      tag_302\n      jump\t// in\n    tag_481:\n        /* \"#utility.yul\":16804:17235   */\n      pop\n      pop\n        /* \"#utility.yul\":16789:17235   */\n    tag_477:\n        /* \"#utility.yul\":16699:17242   */\n      pop\n      pop\n      pop\n      jump\t// out\n        /* \"#utility.yul\":17248:17365   */\n    tag_304:\n        /* \"#utility.yul\":17302:17310   */\n      0x00\n        /* \"#utility.yul\":17352:17357   */\n      dup3\n        /* \"#utility.yul\":17346:17350   */\n      dup3\n        /* \"#utility.yul\":17342:17358   */\n      shr\n        /* \"#utility.yul\":17321:17358   */\n      swap1\n      pop\n        /* \"#utility.yul\":17248:17365   */\n      swap3\n      swap2\n      pop\n      pop\n      jump\t// out\n        /* \"#utility.yul\":17371:17540   */\n    tag_305:\n        /* \"#utility.yul\":17415:17421   */\n      0x00\n        /* \"#utility.yul\":17448:17499   */\n      tag_485\n        /* \"#utility.yul\":17496:17497   */\n      0x00\n        /* \"#utility.yul\":17492:17498   */\n      not\n        /* \"#utility.yul\":17484:17489   */\n      dup5\n        /* \"#utility.yul\":17481:17482   */\n      0x08\n        /* \"#utility.yul\":17477:17490   */\n      mul\n        /* \"#utility.yul\":17448:17499   */\n      tag_304\n      jump\t// in\n    tag_485:\n        /* \"#utility.yul\":17444:17500   */\n      not\n        /* \"#utility.yul\":17529:17533   */\n      dup1\n        /* \"#utility.yul\":17523:17527   */\n      dup4\n        /* \"#utility.yul\":17519:17534   */\n      and\n        /* \"#utility.yul\":17509:17534   */\n      swap2\n      pop\n        /* \"#utility.yul\":17422:17540   */\n      pop\n        /* \"#utility.yul\":17371:17540   */\n      swap3\n      swap2\n      pop\n      pop\n      jump\t// out\n        /* \"#utility.yul\":17545:17840   */\n    tag_306:\n        /* \"#utility.yul\":17621:17625   */\n      0x00\n        /* \"#utility.yul\":17767:17796   */\n      tag_487\n        /* \"#utility.yul\":17792:17795   */\n      dup4\n        /* \"#utility.yul\":17786:17790   */\n      dup4\n        /* \"#utility.yul\":17767:17796   */\n      tag_305\n      jump\t// in\n    tag_487:\n        /* \"#utility.yul\":17759:17796   */\n      swap2\n      pop\n        /* \"#utility.yul\":17829:17832   */\n      dup3\n        /* \"#utility.yul\":17826:17827   */\n      0x02\n        /* \"#utility.yul\":17822:17833   */\n      mul\n        /* \"#utility.yul\":17816:17820   */\n      dup3\n        /* \"#utility.yul\":17813:17834   */\n      or\n        /* \"#utility.yul\":17805:17834   */\n      swap1\n      pop\n        /* \"#utility.yul\":17545:17840   */\n      swap3\n      swap2\n      pop\n      pop\n      jump\t// out\n        /* \"#utility.yul\":17845:19240   */\n    tag_204:\n        /* \"#utility.yul\":17962:17999   */\n      tag_489\n        /* \"#utility.yul\":17995:17998   */\n      dup3\n        /* \"#utility.yul\":17962:17999   */\n      tag_254\n      jump\t// in\n    tag_489:\n        /* \"#utility.yul\":18064:18082   */\n      0xffffffffffffffff\n        /* \"#utility.yul\":18056:18062   */\n      dup2\n        /* \"#utility.yul\":18053:18083   */\n      gt\n        /* \"#utility.yul\":18050:18106   */\n      iszero\n      tag_490\n      jumpi\n        /* \"#utility.yul\":18086:18104   */\n      tag_491\n      tag_273\n      jump\t// in\n    tag_491:\n        /* \"#utility.yul\":18050:18106   */\n    tag_490:\n        /* \"#utility.yul\":18130:18168   */\n      tag_492\n        /* \"#utility.yul\":18162:18166   */\n      dup3\n        /* \"#utility.yul\":18156:18167   */\n      sload\n        /* \"#utility.yul\":18130:18168   */\n      tag_98\n      jump\t// in\n    tag_492:\n        /* \"#utility.yul\":18215:18282   */\n      tag_493\n        /* \"#utility.yul\":18275:18281   */\n      dup3\n        /* \"#utility.yul\":18267:18273   */\n      dup3\n        /* \"#utility.yul\":18261:18265   */\n      dup6\n        /* \"#utility.yul\":18215:18282   */\n      tag_303\n      jump\t// in\n    tag_493:\n        /* \"#utility.yul\":18309:18310   */\n      0x00\n        /* \"#utility.yul\":18333:18337   */\n      0x20\n        /* \"#utility.yul\":18320:18337   */\n      swap1\n      pop\n        /* \"#utility.yul\":18365:18367   */\n      0x1f\n        /* \"#utility.yul\":18357:18363   */\n      dup4\n        /* \"#utility.yul\":18354:18368   */\n      gt\n        /* \"#utility.yul\":18382:18383   */\n      0x01\n        /* \"#utility.yul\":18377:18995   */\n      dup2\n      eq\n      tag_495\n      jumpi\n        /* \"#utility.yul\":19039:19040   */\n      0x00\n        /* \"#utility.yul\":19056:19062   */\n      dup5\n        /* \"#utility.yul\":19053:19130   */\n      iszero\n      tag_496\n      jumpi\n        /* \"#utility.yul\":19105:19114   */\n      dup3\n        /* \"#utility.yul\":19100:19103   */\n      dup8\n        /* \"#utility.yul\":19096:19115   */\n      add\n        /* \"#utility.yul\":19090:19116   */\n      mload\n        /* \"#utility.yul\":19081:19116   */\n      swap1\n      pop\n        /* \"#utility.yul\":19053:19130   */\n    tag_496:\n        /* \"#utility.yul\":19156:19223   */\n      tag_497\n        /* \"#utility.yul\":19216:19222   */\n      dup6\n        /* \"#utility.yul\":19209:19214   */\n      dup3\n        /* \"#utility.yul\":19156:19223   */\n      tag_306\n      jump\t// in\n    tag_497:\n        /* \"#utility.yul\":19150:19154   */\n      dup7\n        /* \"#utility.yul\":19143:19224   */\n      sstore\n        /* \"#utility.yul\":19012:19234   */\n      pop\n        /* \"#utility.yul\":18347:19234   */\n      jump(tag_494)\n        /* \"#utility.yul\":18377:18995   */\n    tag_495:\n        /* \"#utility.yul\":18429:18433   */\n      0x1f\n        /* \"#utility.yul\":18425:18434   */\n      not\n        /* \"#utility.yul\":18417:18423   */\n      dup5\n        /* \"#utility.yul\":18413:18435   */\n      and\n        /* \"#utility.yul\":18463:18500   */\n      tag_498\n        /* \"#utility.yul\":18495:18499   */\n      dup7\n        /* \"#utility.yul\":18463:18500   */\n      tag_292\n      jump\t// in\n    tag_498:\n        /* \"#utility.yul\":18522:18523   */\n      0x00\n        /* \"#utility.yul\":18536:18744   */\n    tag_499:\n        /* \"#utility.yul\":18550:18557   */\n      dup3\n        /* \"#utility.yul\":18547:18548   */\n      dup2\n        /* \"#utility.yul\":18544:18558   */\n      lt\n        /* \"#utility.yul\":18536:18744   */\n      iszero\n      tag_501\n      jumpi\n        /* \"#utility.yul\":18629:18638   */\n      dup5\n        /* \"#utility.yul\":18624:18627   */\n      dup10\n        /* \"#utility.yul\":18620:18639   */\n      add\n        /* \"#utility.yul\":18614:18640   */\n      mload\n        /* \"#utility.yul\":18606:18612   */\n      dup3\n        /* \"#utility.yul\":18599:18641   */\n      sstore\n        /* \"#utility.yul\":18680:18681   */\n      0x01\n        /* \"#utility.yul\":18672:18678   */\n      dup3\n        /* \"#utility.yul\":18668:18682   */\n      add\n        /* \"#utility.yul\":18658:18682   */\n      swap2\n      pop\n        /* \"#utility.yul\":18727:18729   */\n      0x20\n        /* \"#utility.yul\":18716:18725   */\n      dup6\n        /* \"#utility.yul\":18712:18730   */\n      add\n        /* \"#utility.yul\":18699:18730   */\n      swap5\n      pop\n        /* \"#utility.yul\":18573:18577   */\n      0x20\n        /* \"#utility.yul\":18570:18571   */\n      dup2\n        /* \"#utility.yul\":18566:18578   */\n      add\n        /* \"#utility.yul\":18561:18578   */\n      swap1\n      pop\n        /* \"#utility.yul\":18536:18744   */\n      jump(tag_499)\n    tag_501:\n        /* \"#utility.yul\":18772:18778   */\n      dup7\n        /* \"#utility.yul\":18763:18770   */\n      dup4\n        /* \"#utility.yul\":18760:18779   */\n      lt\n        /* \"#utility.yul\":18757:18936   */\n      iszero\n      tag_502\n      jumpi\n        /* \"#utility.yul\":18830:18839   */\n      dup5\n        /* \"#utility.yul\":18825:18828   */\n      dup10\n        /* \"#utility.yul\":18821:18840   */\n      add\n        /* \"#utility.yul\":18815:18841   */\n      mload\n        /* \"#utility.yul\":18873:18921   */\n      tag_503\n        /* \"#utility.yul\":18915:18919   */\n      0x1f\n        /* \"#utility.yul\":18907:18913   */\n      dup10\n        /* \"#utility.yul\":18903:18920   */\n      and\n        /* \"#utility.yul\":18892:18901   */\n      dup3\n        /* \"#utility.yul\":18873:18921   */\n      tag_305\n      jump\t// in\n    tag_503:\n        /* \"#utility.yul\":18865:18871   */\n      dup4\n        /* \"#utility.yul\":18858:18922   */\n      sstore\n        /* \"#utility.yul\":18780:18936   */\n      pop\n        /* \"#utility.yul\":18757:18936   */\n    tag_502:\n        /* \"#utility.yul\":18982:18983   */\n      0x01\n        /* \"#utility.yul\":18978:18979   */\n      0x02\n        /* \"#utility.yul\":18970:18976   */\n      dup9\n        /* \"#utility.yul\":18966:18980   */\n      mul\n        /* \"#utility.yul\":18962:18984   */\n      add\n        /* \"#utility.yul\":18956:18960   */\n      dup9\n        /* \"#utility.yul\":18949:18985   */\n      sstore\n        /* \"#utility.yul\":18384:18995   */\n      pop\n      pop\n      pop\n        /* \"#utility.yul\":18347:19234   */\n    tag_494:\n      pop\n        /* \"#utility.yul\":17937:19240   */\n      pop\n      pop\n      pop\n        /* \"#utility.yul\":17845:19240   */\n      pop\n      pop\n      jump\t// out\n        /* \"#utility.yul\":19246:19466   */\n    tag_307:\n        /* \"#utility.yul\":19386:19420   */\n      0x54686973206164647265737320697320616c726561647920696e20766f746572\n        /* \"#utility.yul\":19382:19383   */\n      0x00\n        /* \"#utility.yul\":19374:19380   */\n      dup3\n        /* \"#utility.yul\":19370:19384   */\n      add\n        /* \"#utility.yul\":19363:19421   */\n      mstore\n        /* \"#utility.yul\":19455:19458   */\n      0x7300000000000000000000000000000000000000000000000000000000000000\n        /* \"#utility.yul\":19450:19452   */\n      0x20\n        /* \"#utility.yul\":19442:19448   */\n      dup3\n        /* \"#utility.yul\":19438:19453   */\n      add\n        /* \"#utility.yul\":19431:19459   */\n      mstore\n        /* \"#utility.yul\":19246:19466   */\n      pop\n      jump\t// out\n        /* \"#utility.yul\":19472:19838   */\n    tag_308:\n        /* \"#utility.yul\":19614:19617   */\n      0x00\n        /* \"#utility.yul\":19635:19702   */\n      tag_506\n        /* \"#utility.yul\":19699:19701   */\n      0x21\n        /* \"#utility.yul\":19694:19697   */\n      dup4\n        /* \"#utility.yul\":19635:19702   */\n      tag_255\n      jump\t// in\n    tag_506:\n        /* \"#utility.yul\":19628:19702   */\n      swap2\n      pop\n        /* \"#utility.yul\":19711:19804   */\n      tag_507\n        /* \"#utility.yul\":19800:19803   */\n      dup3\n        /* \"#utility.yul\":19711:19804   */\n      tag_307\n      jump\t// in\n    tag_507:\n        /* \"#utility.yul\":19829:19831   */\n      0x40\n        /* \"#utility.yul\":19824:19827   */\n      dup3\n        /* \"#utility.yul\":19820:19832   */\n      add\n        /* \"#utility.yul\":19813:19832   */\n      swap1\n      pop\n        /* \"#utility.yul\":19472:19838   */\n      swap2\n      swap1\n      pop\n      jump\t// out\n        /* \"#utility.yul\":19844:20263   */\n    tag_218:\n        /* \"#utility.yul\":20010:20014   */\n      0x00\n        /* \"#utility.yul\":20048:20050   */\n      0x20\n        /* \"#utility.yul\":20037:20046   */\n      dup3\n        /* \"#utility.yul\":20033:20051   */\n      add\n        /* \"#utility.yul\":20025:20051   */\n      swap1\n      pop\n        /* \"#utility.yul\":20097:20106   */\n      dup2\n        /* \"#utility.yul\":20091:20095   */\n      dup2\n        /* \"#utility.yul\":20087:20107   */\n      sub\n        /* \"#utility.yul\":20083:20084   */\n      0x00\n        /* \"#utility.yul\":20072:20081   */\n      dup4\n        /* \"#utility.yul\":20068:20085   */\n      add\n        /* \"#utility.yul\":20061:20108   */\n      mstore\n        /* \"#utility.yul\":20125:20256   */\n      tag_509\n        /* \"#utility.yul\":20251:20255   */\n      dup2\n        /* \"#utility.yul\":20125:20256   */\n      tag_308\n      jump\t// in\n    tag_509:\n        /* \"#utility.yul\":20117:20256   */\n      swap1\n      pop\n        /* \"#utility.yul\":19844:20263   */\n      swap2\n      swap1\n      pop\n      jump\t// out\n\n    auxdata: 0xa264697066735822122087792bde2b56b8e89141e604fb4ab5679a7bbe5a85a95482133e35dd352256f764736f6c634300081c0033\n}\n",
				"bytecode": {
					"linkReferences": {},
					"object": "608060405234801561000f575f5ffd5b50335f73ffffffffffffffffffffffffffffffffffffffff168173ffffffffffffffffffffffffffffffffffffffff1603610081575f6040517f1e4fbdf70000000000000000000000000000000000000000000000000000000081526004016100789190610196565b60405180910390fd5b6100908161009660201b60201c565b506101af565b5f5f5f9054906101000a900473ffffffffffffffffffffffffffffffffffffffff169050815f5f6101000a81548173ffffffffffffffffffffffffffffffffffffffff021916908373ffffffffffffffffffffffffffffffffffffffff1602179055508173ffffffffffffffffffffffffffffffffffffffff168173ffffffffffffffffffffffffffffffffffffffff167f8be0079c531659141344cd1fd0a4f28419497f9722a3daafe3b4186f6b6457e060405160405180910390a35050565b5f73ffffffffffffffffffffffffffffffffffffffff82169050919050565b5f61018082610157565b9050919050565b61019081610176565b82525050565b5f6020820190506101a95f830184610187565b92915050565b611c71806101bc5f395ff3fe608060405234801561000f575f5ffd5b50600436106100e8575f3560e01c8063a7bfab161161008a578063e2dd58c611610064578063e2dd58c6146101c5578063ed8a1608146101e1578063ee74c678146101fd578063f2fde38b14610207576100e8565b8063a7bfab16146101a7578063ada7415f146101b1578063e09b8c79146101bb576100e8565b8063715018a6116100c6578063715018a6146101435780638da5cb5b1461014d5780638e7ea5b21461016b578063a1edffa214610189576100e8565b80630121b93f146100ec578063013cf08b146101085780636c29744514610139575b5f5ffd5b610106600480360381019061010191906111e5565b610223565b005b610122600480360381019061011d91906111e5565b61051d565b60405161013092919061128f565b60405180910390f35b6101416105d2565b005b61014b6106b8565b005b6101556106cb565b60405161016291906112fc565b60405180910390f35b6101736106f2565b60405161018091906113a6565b60405180910390f35b61019161083c565b60405161019e9190611439565b60405180910390f35b6101af61084e565b005b6101b9610934565b005b6101c3610a98565b005b6101df60048036038101906101da919061157e565b610b7c565b005b6101fb60048036038101906101f691906115ef565b610d34565b005b610205610ecf565b005b610221600480360381019061021c91906115ef565b610fb5565b005b6003806005811115610238576102376113c6565b5b5f60149054906101000a900460ff166005811115610259576102586113c6565b5b14610299576040517f08c379a00000000000000000000000000000000000000000000000000000000081526004016102909061168a565b60405180910390fd5b60025f3373ffffffffffffffffffffffffffffffffffffffff1673ffffffffffffffffffffffffffffffffffffffff1681526020019081526020015f205f015f9054906101000a900460ff16610324576040517f08c379a000000000000000000000000000000000000000000000000000000000815260040161031b906116f2565b60405180910390fd5b60025f3373ffffffffffffffffffffffffffffffffffffffff1673ffffffffffffffffffffffffffffffffffffffff1681526020019081526020015f205f0160019054906101000a900460ff16156103b1576040517f08c379a00000000000000000000000000000000000000000000000000000000081526004016103a89061175a565b60405180910390fd5b6001600383815481106103c7576103c6611778565b5b905f5260205f2090600202016001015f8282546103e491906117d2565b92505081905550600160025f3373ffffffffffffffffffffffffffffffffffffffff1673ffffffffffffffffffffffffffffffffffffffff1681526020019081526020015f205f0160016101000a81548160ff0219169083151502179055508160025f3373ffffffffffffffffffffffffffffffffffffffff1673ffffffffffffffffffffffffffffffffffffffff1681526020019081526020015f206001018190555060036001548154811061049e5761049d611778565b5b905f5260205f20906002020160010154600383815481106104c2576104c1611778565b5b905f5260205f2090600202016001015411156104e057816001819055505b7f4d99b957a2bc29a30ebd96a7be8e68fe50a3c701db28a91436490b7d53870ca43383604051610511929190611805565b60405180910390a15050565b6003818154811061052c575f80fd5b905f5260205f2090600202015f91509050805f01805461054b90611859565b80601f016020809104026020016040519081016040528092919081815260200182805461057790611859565b80156105c25780601f10610599576101008083540402835291602001916105c2565b820191905f5260205f20905b8154815290600101906020018083116105a557829003601f168201915b5050505050908060010154905082565b60018060058111156105e7576105e66113c6565b5b5f60149054906101000a900460ff166005811115610608576106076113c6565b5b14610648576040517f08c379a000000000000000000000000000000000000000000000000000000000815260040161063f9061168a565b60405180910390fd5b610650611039565b60025f60146101000a81548160ff02191690836005811115610675576106746113c6565b5b02179055507f0a97a4ee45751e2abf3e4fc8946939630b11b371ea8ae39ccdc3056e98f5cc3f600160026040516106ad929190611889565b60405180910390a150565b6106c0611039565b6106c95f6110c0565b565b5f5f5f9054906101000a900473ffffffffffffffffffffffffffffffffffffffff16905090565b6106fa611188565b600580600581111561070f5761070e6113c6565b5b5f60149054906101000a900460ff1660058111156107305761072f6113c6565b5b14610770576040517f08c379a00000000000000000000000000000000000000000000000000000000081526004016107679061168a565b60405180910390fd5b60036001548154811061078657610785611778565b5b905f5260205f2090600202016040518060400160405290815f820180546107ac90611859565b80601f01602080910402602001604051908101604052809291908181526020018280546107d890611859565b80156108235780601f106107fa57610100808354040283529160200191610823565b820191905f5260205f20905b81548152906001019060200180831161080657829003601f168201915b5050505050815260200160018201548152505091505090565b5f60149054906101000a900460ff1681565b6003806005811115610863576108626113c6565b5b5f60149054906101000a900460ff166005811115610884576108836113c6565b5b146108c4576040517f08c379a00000000000000000000000000000000000000000000000000000000081526004016108bb9061168a565b60405180910390fd5b6108cc611039565b60045f60146101000a81548160ff021916908360058111156108f1576108f06113c6565b5b02179055507f0a97a4ee45751e2abf3e4fc8946939630b11b371ea8ae39ccdc3056e98f5cc3f60036004604051610929929190611889565b60405180910390a150565b6004806005811115610949576109486113c6565b5b5f60149054906101000a900460ff16600581111561096a576109696113c6565b5b146109aa576040517f08c379a00000000000000000000000000000000000000000000000000000000081526004016109a19061168a565b60405180910390fd5b6109b2611039565b5f5f90505f5f90505b600380549050811015610a2e5781600382815481106109dd576109dc611778565b5b905f5260205f209060020201600101541115610a215760038181548110610a0757610a06611778565b5b905f5260205f209060020201600101549150806001819055505b80806001019150506109bb565b5060055f60146101000a81548160ff02191690836005811115610a5457610a536113c6565b5b02179055507f0a97a4ee45751e2abf3e4fc8946939630b11b371ea8ae39ccdc3056e98f5cc3f60046005604051610a8c929190611889565b60405180910390a15050565b5f806005811115610aac57610aab6113c6565b5b5f60149054906101000a900460ff166005811115610acd57610acc6113c6565b5b14610b0d576040517f08c379a0000000000000000000000000000000000000000000000000000000008152600401610b049061168a565b60405180910390fd5b610b15611039565b60015f60146101000a81548160ff02191690836005811115610b3a57610b396113c6565b5b02179055507f0a97a4ee45751e2abf3e4fc8946939630b11b371ea8ae39ccdc3056e98f5cc3f5f6001604051610b71929190611889565b60405180910390a150565b6001806005811115610b9157610b906113c6565b5b5f60149054906101000a900460ff166005811115610bb257610bb16113c6565b5b14610bf2576040517f08c379a0000000000000000000000000000000000000000000000000000000008152600401610be99061168a565b60405180910390fd5b60025f3373ffffffffffffffffffffffffffffffffffffffff1673ffffffffffffffffffffffffffffffffffffffff1681526020019081526020015f205f015f9054906101000a900460ff16610c7d576040517f08c379a0000000000000000000000000000000000000000000000000000000008152600401610c7490611920565b60405180910390fd5b600360405180604001604052808481526020015f815250908060018154018082558091505060019003905f5260205f2090600202015f909190919091505f820151815f019081610ccd9190611ade565b506020820151816001015550506001600380549050610cec91906117d2565b60025f3373ffffffffffffffffffffffffffffffffffffffff1673ffffffffffffffffffffffffffffffffffffffff1681526020019081526020015f20600101819055505050565b5f806005811115610d4857610d476113c6565b5b5f60149054906101000a900460ff166005811115610d6957610d686113c6565b5b14610da9576040517f08c379a0000000000000000000000000000000000000000000000000000000008152600401610da09061168a565b60405180910390fd5b610db1611039565b60025f8373ffffffffffffffffffffffffffffffffffffffff1673ffffffffffffffffffffffffffffffffffffffff1681526020019081526020015f205f015f9054906101000a900460ff1615610e3d576040517f08c379a0000000000000000000000000000000000000000000000000000000008152600401610e3490611c1d565b60405180910390fd5b600160025f8473ffffffffffffffffffffffffffffffffffffffff1673ffffffffffffffffffffffffffffffffffffffff1681526020019081526020015f205f015f6101000a81548160ff0219169083151502179055507fb6be2187d059cc2a55fe29e0e503b566e1e0f8c8780096e185429350acffd3dd82604051610ec391906112fc565b60405180910390a15050565b6002806005811115610ee457610ee36113c6565b5b5f60149054906101000a900460ff166005811115610f0557610f046113c6565b5b14610f45576040517f08c379a0000000000000000000000000000000000000000000000000000000008152600401610f3c9061168a565b60405180910390fd5b610f4d611039565b60035f60146101000a81548160ff02191690836005811115610f7257610f716113c6565b5b02179055507f0a97a4ee45751e2abf3e4fc8946939630b11b371ea8ae39ccdc3056e98f5cc3f60026003604051610faa929190611889565b60405180910390a150565b610fbd611039565b5f73ffffffffffffffffffffffffffffffffffffffff168173ffffffffffffffffffffffffffffffffffffffff160361102d575f6040517f1e4fbdf700000000000000000000000000000000000000000000000000000000815260040161102491906112fc565b60405180910390fd5b611036816110c0565b50565b611041611181565b73ffffffffffffffffffffffffffffffffffffffff1661105f6106cb565b73ffffffffffffffffffffffffffffffffffffffff16146110be57611082611181565b6040517f118cdaa70000000000000000000000000000000000000000000000000000000081526004016110b591906112fc565b60405180910390fd5b565b5f5f5f9054906101000a900473ffffffffffffffffffffffffffffffffffffffff169050815f5f6101000a81548173ffffffffffffffffffffffffffffffffffffffff021916908373ffffffffffffffffffffffffffffffffffffffff1602179055508173ffffffffffffffffffffffffffffffffffffffff168173ffffffffffffffffffffffffffffffffffffffff167f8be0079c531659141344cd1fd0a4f28419497f9722a3daafe3b4186f6b6457e060405160405180910390a35050565b5f33905090565b6040518060400160405280606081526020015f81525090565b5f604051905090565b5f5ffd5b5f5ffd5b5f819050919050565b6111c4816111b2565b81146111ce575f5ffd5b50565b5f813590506111df816111bb565b92915050565b5f602082840312156111fa576111f96111aa565b5b5f611207848285016111d1565b91505092915050565b5f81519050919050565b5f82825260208201905092915050565b8281835e5f83830152505050565b5f601f19601f8301169050919050565b5f61125282611210565b61125c818561121a565b935061126c81856020860161122a565b61127581611238565b840191505092915050565b611289816111b2565b82525050565b5f6040820190508181035f8301526112a78185611248565b90506112b66020830184611280565b9392505050565b5f73ffffffffffffffffffffffffffffffffffffffff82169050919050565b5f6112e6826112bd565b9050919050565b6112f6816112dc565b82525050565b5f60208201905061130f5f8301846112ed565b92915050565b5f82825260208201905092915050565b5f61132f82611210565b6113398185611315565b935061134981856020860161122a565b61135281611238565b840191505092915050565b611366816111b2565b82525050565b5f604083015f8301518482035f8601526113868282611325565b915050602083015161139b602086018261135d565b508091505092915050565b5f6020820190508181035f8301526113be818461136c565b905092915050565b7f4e487b71000000000000000000000000000000000000000000000000000000005f52602160045260245ffd5b60068110611404576114036113c6565b5b50565b5f819050611414826113f3565b919050565b5f61142382611407565b9050919050565b61143381611419565b82525050565b5f60208201905061144c5f83018461142a565b92915050565b5f5ffd5b5f5ffd5b7f4e487b71000000000000000000000000000000000000000000000000000000005f52604160045260245ffd5b61149082611238565b810181811067ffffffffffffffff821117156114af576114ae61145a565b5b80604052505050565b5f6114c16111a1565b90506114cd8282611487565b919050565b5f67ffffffffffffffff8211156114ec576114eb61145a565b5b6114f582611238565b9050602081019050919050565b828183375f83830152505050565b5f61152261151d846114d2565b6114b8565b90508281526020810184848401111561153e5761153d611456565b5b611549848285611502565b509392505050565b5f82601f83011261156557611564611452565b5b8135611575848260208601611510565b91505092915050565b5f60208284031215611593576115926111aa565b5b5f82013567ffffffffffffffff8111156115b0576115af6111ae565b5b6115bc84828501611551565b91505092915050565b6115ce816112dc565b81146115d8575f5ffd5b50565b5f813590506115e9816115c5565b92915050565b5f60208284031215611604576116036111aa565b5b5f611611848285016115db565b91505092915050565b7f596f7520617265206e6f742061626c6520746f20646f207468697320616374695f8201527f6f6e207269676874206e6f770000000000000000000000000000000000000000602082015250565b5f611674602c8361121a565b915061167f8261161a565b604082019050919050565b5f6020820190508181035f8301526116a181611668565b9050919050565b7f596f7520617265206e6f7420616c6c6f77656420746f20766f746500000000005f82015250565b5f6116dc601b8361121a565b91506116e7826116a8565b602082019050919050565b5f6020820190508181035f830152611709816116d0565b9050919050565b7f596f75206861766520616c726561647920766f746564000000000000000000005f82015250565b5f61174460168361121a565b915061174f82611710565b602082019050919050565b5f6020820190508181035f83015261177181611738565b9050919050565b7f4e487b71000000000000000000000000000000000000000000000000000000005f52603260045260245ffd5b7f4e487b71000000000000000000000000000000000000000000000000000000005f52601160045260245ffd5b5f6117dc826111b2565b91506117e7836111b2565b92508282019050808211156117ff576117fe6117a5565b5b92915050565b5f6040820190506118185f8301856112ed565b6118256020830184611280565b9392505050565b7f4e487b71000000000000000000000000000000000000000000000000000000005f52602260045260245ffd5b5f600282049050600182168061187057607f821691505b6020821081036118835761188261182c565b5b50919050565b5f60408201905061189c5f83018561142a565b6118a9602083018461142a565b9392505050565b7f596f7520617265206e6f7420616c6c6f77656420746f206d616b6520612070725f8201527f6f706f73616c0000000000000000000000000000000000000000000000000000602082015250565b5f61190a60268361121a565b9150611915826118b0565b604082019050919050565b5f6020820190508181035f830152611937816118fe565b9050919050565b5f819050815f5260205f209050919050565b5f6020601f8301049050919050565b5f82821b905092915050565b5f6008830261199a7fffffffffffffffffffffffffffffffffffffffffffffffffffffffffffffffff8261195f565b6119a4868361195f565b95508019841693508086168417925050509392505050565b5f819050919050565b5f6119df6119da6119d5846111b2565b6119bc565b6111b2565b9050919050565b5f819050919050565b6119f8836119c5565b611a0c611a04826119e6565b84845461196b565b825550505050565b5f5f905090565b611a23611a14565b611a2e8184846119ef565b505050565b5b81811015611a5157611a465f82611a1b565b600181019050611a34565b5050565b601f821115611a9657611a678161193e565b611a7084611950565b81016020851015611a7f578190505b611a93611a8b85611950565b830182611a33565b50505b505050565b5f82821c905092915050565b5f611ab65f1984600802611a9b565b1980831691505092915050565b5f611ace8383611aa7565b9150826002028217905092915050565b611ae782611210565b67ffffffffffffffff811115611b0057611aff61145a565b5b611b0a8254611859565b611b15828285611a55565b5f60209050601f831160018114611b46575f8415611b34578287015190505b611b3e8582611ac3565b865550611ba5565b601f198416611b548661193e565b5f5b82811015611b7b57848901518255600182019150602085019450602081019050611b56565b86831015611b985784890151611b94601f891682611aa7565b8355505b6001600288020188555050505b505050505050565b7f54686973206164647265737320697320616c726561647920696e20766f7465725f8201527f7300000000000000000000000000000000000000000000000000000000000000602082015250565b5f611c0760218361121a565b9150611c1282611bad565b604082019050919050565b5f6020820190508181035f830152611c3481611bfb565b905091905056fea264697066735822122087792bde2b56b8e89141e604fb4ab5679a7bbe5a85a95482133e35dd352256f764736f6c634300081c0033",
					"opcodes": "PUSH1 0x80 PUSH1 0x40 MSTORE CALLVALUE DUP1 ISZERO PUSH2 0xF JUMPI PUSH0 PUSH0 REVERT JUMPDEST POP CALLER PUSH0 PUSH20 0xFFFFFFFFFFFFFFFFFFFFFFFFFFFFFFFFFFFFFFFF AND DUP2 PUSH20 0xFFFFFFFFFFFFFFFFFFFFFFFFFFFFFFFFFFFFFFFF AND SUB PUSH2 0x81 JUMPI PUSH0 PUSH1 0x40 MLOAD PUSH32 0x1E4FBDF700000000000000000000000000000000000000000000000000000000 DUP2 MSTORE PUSH1 0x4 ADD PUSH2 0x78 SWAP2 SWAP1 PUSH2 0x196 JUMP JUMPDEST PUSH1 0x40 MLOAD DUP1 SWAP2 SUB SWAP1 REVERT JUMPDEST PUSH2 0x90 DUP2 PUSH2 0x96 PUSH1 0x20 SHL PUSH1 0x20 SHR JUMP JUMPDEST POP PUSH2 0x1AF JUMP JUMPDEST PUSH0 PUSH0 PUSH0 SWAP1 SLOAD SWAP1 PUSH2 0x100 EXP SWAP1 DIV PUSH20 0xFFFFFFFFFFFFFFFFFFFFFFFFFFFFFFFFFFFFFFFF AND SWAP1 POP DUP2 PUSH0 PUSH0 PUSH2 0x100 EXP DUP2 SLOAD DUP2 PUSH20 0xFFFFFFFFFFFFFFFFFFFFFFFFFFFFFFFFFFFFFFFF MUL NOT AND SWAP1 DUP4 PUSH20 0xFFFFFFFFFFFFFFFFFFFFFFFFFFFFFFFFFFFFFFFF AND MUL OR SWAP1 SSTORE POP DUP2 PUSH20 0xFFFFFFFFFFFFFFFFFFFFFFFFFFFFFFFFFFFFFFFF AND DUP2 PUSH20 0xFFFFFFFFFFFFFFFFFFFFFFFFFFFFFFFFFFFFFFFF AND PUSH32 0x8BE0079C531659141344CD1FD0A4F28419497F9722A3DAAFE3B4186F6B6457E0 PUSH1 0x40 MLOAD PUSH1 0x40 MLOAD DUP1 SWAP2 SUB SWAP1 LOG3 POP POP JUMP JUMPDEST PUSH0 PUSH20 0xFFFFFFFFFFFFFFFFFFFFFFFFFFFFFFFFFFFFFFFF DUP3 AND SWAP1 POP SWAP2 SWAP1 POP JUMP JUMPDEST PUSH0 PUSH2 0x180 DUP3 PUSH2 0x157 JUMP JUMPDEST SWAP1 POP SWAP2 SWAP1 POP JUMP JUMPDEST PUSH2 0x190 DUP2 PUSH2 0x176 JUMP JUMPDEST DUP3 MSTORE POP POP JUMP JUMPDEST PUSH0 PUSH1 0x20 DUP3 ADD SWAP1 POP PUSH2 0x1A9 PUSH0 DUP4 ADD DUP5 PUSH2 0x187 JUMP JUMPDEST SWAP3 SWAP2 POP POP JUMP JUMPDEST PUSH2 0x1C71 DUP1 PUSH2 0x1BC PUSH0 CODECOPY PUSH0 RETURN INVALID PUSH1 0x80 PUSH1 0x40 MSTORE CALLVALUE DUP1 ISZERO PUSH2 0xF JUMPI PUSH0 PUSH0 REVERT JUMPDEST POP PUSH1 0x4 CALLDATASIZE LT PUSH2 0xE8 JUMPI PUSH0 CALLDATALOAD PUSH1 0xE0 SHR DUP1 PUSH4 0xA7BFAB16 GT PUSH2 0x8A JUMPI DUP1 PUSH4 0xE2DD58C6 GT PUSH2 0x64 JUMPI DUP1 PUSH4 0xE2DD58C6 EQ PUSH2 0x1C5 JUMPI DUP1 PUSH4 0xED8A1608 EQ PUSH2 0x1E1 JUMPI DUP1 PUSH4 0xEE74C678 EQ PUSH2 0x1FD JUMPI DUP1 PUSH4 0xF2FDE38B EQ PUSH2 0x207 JUMPI PUSH2 0xE8 JUMP JUMPDEST DUP1 PUSH4 0xA7BFAB16 EQ PUSH2 0x1A7 JUMPI DUP1 PUSH4 0xADA7415F EQ PUSH2 0x1B1 JUMPI DUP1 PUSH4 0xE09B8C79 EQ PUSH2 0x1BB JUMPI PUSH2 0xE8 JUMP JUMPDEST DUP1 PUSH4 0x715018A6 GT PUSH2 0xC6 JUMPI DUP1 PUSH4 0x715018A6 EQ PUSH2 0x143 JUMPI DUP1 PUSH4 0x8DA5CB5B EQ PUSH2 0x14D JUMPI DUP1 PUSH4 0x8E7EA5B2 EQ PUSH2 0x16B JUMPI DUP1 PUSH4 0xA1EDFFA2 EQ PUSH2 0x189 JUMPI PUSH2 0xE8 JUMP JUMPDEST DUP1 PUSH4 0x121B93F EQ PUSH2 0xEC JUMPI DUP1 PUSH4 0x13CF08B EQ PUSH2 0x108 JUMPI DUP1 PUSH4 0x6C297445 EQ PUSH2 0x139 JUMPI JUMPDEST PUSH0 PUSH0 REVERT JUMPDEST PUSH2 0x106 PUSH1 0x4 DUP1 CALLDATASIZE SUB DUP2 ADD SWAP1 PUSH2 0x101 SWAP2 SWAP1 PUSH2 0x11E5 JUMP JUMPDEST PUSH2 0x223 JUMP JUMPDEST STOP JUMPDEST PUSH2 0x122 PUSH1 0x4 DUP1 CALLDATASIZE SUB DUP2 ADD SWAP1 PUSH2 0x11D SWAP2 SWAP1 PUSH2 0x11E5 JUMP JUMPDEST PUSH2 0x51D JUMP JUMPDEST PUSH1 0x40 MLOAD PUSH2 0x130 SWAP3 SWAP2 SWAP1 PUSH2 0x128F JUMP JUMPDEST PUSH1 0x40 MLOAD DUP1 SWAP2 SUB SWAP1 RETURN JUMPDEST PUSH2 0x141 PUSH2 0x5D2 JUMP JUMPDEST STOP JUMPDEST PUSH2 0x14B PUSH2 0x6B8 JUMP JUMPDEST STOP JUMPDEST PUSH2 0x155 PUSH2 0x6CB JUMP JUMPDEST PUSH1 0x40 MLOAD PUSH2 0x162 SWAP2 SWAP1 PUSH2 0x12FC JUMP JUMPDEST PUSH1 0x40 MLOAD DUP1 SWAP2 SUB SWAP1 RETURN JUMPDEST PUSH2 0x173 PUSH2 0x6F2 JUMP JUMPDEST PUSH1 0x40 MLOAD PUSH2 0x180 SWAP2 SWAP1 PUSH2 0x13A6 JUMP JUMPDEST PUSH1 0x40 MLOAD DUP1 SWAP2 SUB SWAP1 RETURN JUMPDEST PUSH2 0x191 PUSH2 0x83C JUMP JUMPDEST PUSH1 0x40 MLOAD PUSH2 0x19E SWAP2 SWAP1 PUSH2 0x1439 JUMP JUMPDEST PUSH1 0x40 MLOAD DUP1 SWAP2 SUB SWAP1 RETURN JUMPDEST PUSH2 0x1AF PUSH2 0x84E JUMP JUMPDEST STOP JUMPDEST PUSH2 0x1B9 PUSH2 0x934 JUMP JUMPDEST STOP JUMPDEST PUSH2 0x1C3 PUSH2 0xA98 JUMP JUMPDEST STOP JUMPDEST PUSH2 0x1DF PUSH1 0x4 DUP1 CALLDATASIZE SUB DUP2 ADD SWAP1 PUSH2 0x1DA SWAP2 SWAP1 PUSH2 0x157E JUMP JUMPDEST PUSH2 0xB7C JUMP JUMPDEST STOP JUMPDEST PUSH2 0x1FB PUSH1 0x4 DUP1 CALLDATASIZE SUB DUP2 ADD SWAP1 PUSH2 0x1F6 SWAP2 SWAP1 PUSH2 0x15EF JUMP JUMPDEST PUSH2 0xD34 JUMP JUMPDEST STOP JUMPDEST PUSH2 0x205 PUSH2 0xECF JUMP JUMPDEST STOP JUMPDEST PUSH2 0x221 PUSH1 0x4 DUP1 CALLDATASIZE SUB DUP2 ADD SWAP1 PUSH2 0x21C SWAP2 SWAP1 PUSH2 0x15EF JUMP JUMPDEST PUSH2 0xFB5 JUMP JUMPDEST STOP JUMPDEST PUSH1 0x3 DUP1 PUSH1 0x5 DUP2 GT ISZERO PUSH2 0x238 JUMPI PUSH2 0x237 PUSH2 0x13C6 JUMP JUMPDEST JUMPDEST PUSH0 PUSH1 0x14 SWAP1 SLOAD SWAP1 PUSH2 0x100 EXP SWAP1 DIV PUSH1 0xFF AND PUSH1 0x5 DUP2 GT ISZERO PUSH2 0x259 JUMPI PUSH2 0x258 PUSH2 0x13C6 JUMP JUMPDEST JUMPDEST EQ PUSH2 0x299 JUMPI PUSH1 0x40 MLOAD PUSH32 0x8C379A000000000000000000000000000000000000000000000000000000000 DUP2 MSTORE PUSH1 0x4 ADD PUSH2 0x290 SWAP1 PUSH2 0x168A JUMP JUMPDEST PUSH1 0x40 MLOAD DUP1 SWAP2 SUB SWAP1 REVERT JUMPDEST PUSH1 0x2 PUSH0 CALLER PUSH20 0xFFFFFFFFFFFFFFFFFFFFFFFFFFFFFFFFFFFFFFFF AND PUSH20 0xFFFFFFFFFFFFFFFFFFFFFFFFFFFFFFFFFFFFFFFF AND DUP2 MSTORE PUSH1 0x20 ADD SWAP1 DUP2 MSTORE PUSH1 0x20 ADD PUSH0 KECCAK256 PUSH0 ADD PUSH0 SWAP1 SLOAD SWAP1 PUSH2 0x100 EXP SWAP1 DIV PUSH1 0xFF AND PUSH2 0x324 JUMPI PUSH1 0x40 MLOAD PUSH32 0x8C379A000000000000000000000000000000000000000000000000000000000 DUP2 MSTORE PUSH1 0x4 ADD PUSH2 0x31B SWAP1 PUSH2 0x16F2 JUMP JUMPDEST PUSH1 0x40 MLOAD DUP1 SWAP2 SUB SWAP1 REVERT JUMPDEST PUSH1 0x2 PUSH0 CALLER PUSH20 0xFFFFFFFFFFFFFFFFFFFFFFFFFFFFFFFFFFFFFFFF AND PUSH20 0xFFFFFFFFFFFFFFFFFFFFFFFFFFFFFFFFFFFFFFFF AND DUP2 MSTORE PUSH1 0x20 ADD SWAP1 DUP2 MSTORE PUSH1 0x20 ADD PUSH0 KECCAK256 PUSH0 ADD PUSH1 0x1 SWAP1 SLOAD SWAP1 PUSH2 0x100 EXP SWAP1 DIV PUSH1 0xFF AND ISZERO PUSH2 0x3B1 JUMPI PUSH1 0x40 MLOAD PUSH32 0x8C379A000000000000000000000000000000000000000000000000000000000 DUP2 MSTORE PUSH1 0x4 ADD PUSH2 0x3A8 SWAP1 PUSH2 0x175A JUMP JUMPDEST PUSH1 0x40 MLOAD DUP1 SWAP2 SUB SWAP1 REVERT JUMPDEST PUSH1 0x1 PUSH1 0x3 DUP4 DUP2 SLOAD DUP2 LT PUSH2 0x3C7 JUMPI PUSH2 0x3C6 PUSH2 0x1778 JUMP JUMPDEST JUMPDEST SWAP1 PUSH0 MSTORE PUSH1 0x20 PUSH0 KECCAK256 SWAP1 PUSH1 0x2 MUL ADD PUSH1 0x1 ADD PUSH0 DUP3 DUP3 SLOAD PUSH2 0x3E4 SWAP2 SWAP1 PUSH2 0x17D2 JUMP JUMPDEST SWAP3 POP POP DUP2 SWAP1 SSTORE POP PUSH1 0x1 PUSH1 0x2 PUSH0 CALLER PUSH20 0xFFFFFFFFFFFFFFFFFFFFFFFFFFFFFFFFFFFFFFFF AND PUSH20 0xFFFFFFFFFFFFFFFFFFFFFFFFFFFFFFFFFFFFFFFF AND DUP2 MSTORE PUSH1 0x20 ADD SWAP1 DUP2 MSTORE PUSH1 0x20 ADD PUSH0 KECCAK256 PUSH0 ADD PUSH1 0x1 PUSH2 0x100 EXP DUP2 SLOAD DUP2 PUSH1 0xFF MUL NOT AND SWAP1 DUP4 ISZERO ISZERO MUL OR SWAP1 SSTORE POP DUP2 PUSH1 0x2 PUSH0 CALLER PUSH20 0xFFFFFFFFFFFFFFFFFFFFFFFFFFFFFFFFFFFFFFFF AND PUSH20 0xFFFFFFFFFFFFFFFFFFFFFFFFFFFFFFFFFFFFFFFF AND DUP2 MSTORE PUSH1 0x20 ADD SWAP1 DUP2 MSTORE PUSH1 0x20 ADD PUSH0 KECCAK256 PUSH1 0x1 ADD DUP2 SWAP1 SSTORE POP PUSH1 0x3 PUSH1 0x1 SLOAD DUP2 SLOAD DUP2 LT PUSH2 0x49E JUMPI PUSH2 0x49D PUSH2 0x1778 JUMP JUMPDEST JUMPDEST SWAP1 PUSH0 MSTORE PUSH1 0x20 PUSH0 KECCAK256 SWAP1 PUSH1 0x2 MUL ADD PUSH1 0x1 ADD SLOAD PUSH1 0x3 DUP4 DUP2 SLOAD DUP2 LT PUSH2 0x4C2 JUMPI PUSH2 0x4C1 PUSH2 0x1778 JUMP JUMPDEST JUMPDEST SWAP1 PUSH0 MSTORE PUSH1 0x20 PUSH0 KECCAK256 SWAP1 PUSH1 0x2 MUL ADD PUSH1 0x1 ADD SLOAD GT ISZERO PUSH2 0x4E0 JUMPI DUP2 PUSH1 0x1 DUP2 SWAP1 SSTORE POP JUMPDEST PUSH32 0x4D99B957A2BC29A30EBD96A7BE8E68FE50A3C701DB28A91436490B7D53870CA4 CALLER DUP4 PUSH1 0x40 MLOAD PUSH2 0x511 SWAP3 SWAP2 SWAP1 PUSH2 0x1805 JUMP JUMPDEST PUSH1 0x40 MLOAD DUP1 SWAP2 SUB SWAP1 LOG1 POP POP JUMP JUMPDEST PUSH1 0x3 DUP2 DUP2 SLOAD DUP2 LT PUSH2 0x52C JUMPI PUSH0 DUP1 REVERT JUMPDEST SWAP1 PUSH0 MSTORE PUSH1 0x20 PUSH0 KECCAK256 SWAP1 PUSH1 0x2 MUL ADD PUSH0 SWAP2 POP SWAP1 POP DUP1 PUSH0 ADD DUP1 SLOAD PUSH2 0x54B SWAP1 PUSH2 0x1859 JUMP JUMPDEST DUP1 PUSH1 0x1F ADD PUSH1 0x20 DUP1 SWAP2 DIV MUL PUSH1 0x20 ADD PUSH1 0x40 MLOAD SWAP1 DUP2 ADD PUSH1 0x40 MSTORE DUP1 SWAP3 SWAP2 SWAP1 DUP2 DUP2 MSTORE PUSH1 0x20 ADD DUP3 DUP1 SLOAD PUSH2 0x577 SWAP1 PUSH2 0x1859 JUMP JUMPDEST DUP1 ISZERO PUSH2 0x5C2 JUMPI DUP1 PUSH1 0x1F LT PUSH2 0x599 JUMPI PUSH2 0x100 DUP1 DUP4 SLOAD DIV MUL DUP4 MSTORE SWAP2 PUSH1 0x20 ADD SWAP2 PUSH2 0x5C2 JUMP JUMPDEST DUP3 ADD SWAP2 SWAP1 PUSH0 MSTORE PUSH1 0x20 PUSH0 KECCAK256 SWAP1 JUMPDEST DUP2 SLOAD DUP2 MSTORE SWAP1 PUSH1 0x1 ADD SWAP1 PUSH1 0x20 ADD DUP1 DUP4 GT PUSH2 0x5A5 JUMPI DUP3 SWAP1 SUB PUSH1 0x1F AND DUP3 ADD SWAP2 JUMPDEST POP POP POP POP POP SWAP1 DUP1 PUSH1 0x1 ADD SLOAD SWAP1 POP DUP3 JUMP JUMPDEST PUSH1 0x1 DUP1 PUSH1 0x5 DUP2 GT ISZERO PUSH2 0x5E7 JUMPI PUSH2 0x5E6 PUSH2 0x13C6 JUMP JUMPDEST JUMPDEST PUSH0 PUSH1 0x14 SWAP1 SLOAD SWAP1 PUSH2 0x100 EXP SWAP1 DIV PUSH1 0xFF AND PUSH1 0x5 DUP2 GT ISZERO PUSH2 0x608 JUMPI PUSH2 0x607 PUSH2 0x13C6 JUMP JUMPDEST JUMPDEST EQ PUSH2 0x648 JUMPI PUSH1 0x40 MLOAD PUSH32 0x8C379A000000000000000000000000000000000000000000000000000000000 DUP2 MSTORE PUSH1 0x4 ADD PUSH2 0x63F SWAP1 PUSH2 0x168A JUMP JUMPDEST PUSH1 0x40 MLOAD DUP1 SWAP2 SUB SWAP1 REVERT JUMPDEST PUSH2 0x650 PUSH2 0x1039 JUMP JUMPDEST PUSH1 0x2 PUSH0 PUSH1 0x14 PUSH2 0x100 EXP DUP2 SLOAD DUP2 PUSH1 0xFF MUL NOT AND SWAP1 DUP4 PUSH1 0x5 DUP2 GT ISZERO PUSH2 0x675 JUMPI PUSH2 0x674 PUSH2 0x13C6 JUMP JUMPDEST JUMPDEST MUL OR SWAP1 SSTORE POP PUSH32 0xA97A4EE45751E2ABF3E4FC8946939630B11B371EA8AE39CCDC3056E98F5CC3F PUSH1 0x1 PUSH1 0x2 PUSH1 0x40 MLOAD PUSH2 0x6AD SWAP3 SWAP2 SWAP1 PUSH2 0x1889 JUMP JUMPDEST PUSH1 0x40 MLOAD DUP1 SWAP2 SUB SWAP1 LOG1 POP JUMP JUMPDEST PUSH2 0x6C0 PUSH2 0x1039 JUMP JUMPDEST PUSH2 0x6C9 PUSH0 PUSH2 0x10C0 JUMP JUMPDEST JUMP JUMPDEST PUSH0 PUSH0 PUSH0 SWAP1 SLOAD SWAP1 PUSH2 0x100 EXP SWAP1 DIV PUSH20 0xFFFFFFFFFFFFFFFFFFFFFFFFFFFFFFFFFFFFFFFF AND SWAP1 POP SWAP1 JUMP JUMPDEST PUSH2 0x6FA PUSH2 0x1188 JUMP JUMPDEST PUSH1 0x5 DUP1 PUSH1 0x5 DUP2 GT ISZERO PUSH2 0x70F JUMPI PUSH2 0x70E PUSH2 0x13C6 JUMP JUMPDEST JUMPDEST PUSH0 PUSH1 0x14 SWAP1 SLOAD SWAP1 PUSH2 0x100 EXP SWAP1 DIV PUSH1 0xFF AND PUSH1 0x5 DUP2 GT ISZERO PUSH2 0x730 JUMPI PUSH2 0x72F PUSH2 0x13C6 JUMP JUMPDEST JUMPDEST EQ PUSH2 0x770 JUMPI PUSH1 0x40 MLOAD PUSH32 0x8C379A000000000000000000000000000000000000000000000000000000000 DUP2 MSTORE PUSH1 0x4 ADD PUSH2 0x767 SWAP1 PUSH2 0x168A JUMP JUMPDEST PUSH1 0x40 MLOAD DUP1 SWAP2 SUB SWAP1 REVERT JUMPDEST PUSH1 0x3 PUSH1 0x1 SLOAD DUP2 SLOAD DUP2 LT PUSH2 0x786 JUMPI PUSH2 0x785 PUSH2 0x1778 JUMP JUMPDEST JUMPDEST SWAP1 PUSH0 MSTORE PUSH1 0x20 PUSH0 KECCAK256 SWAP1 PUSH1 0x2 MUL ADD PUSH1 0x40 MLOAD DUP1 PUSH1 0x40 ADD PUSH1 0x40 MSTORE SWAP1 DUP2 PUSH0 DUP3 ADD DUP1 SLOAD PUSH2 0x7AC SWAP1 PUSH2 0x1859 JUMP JUMPDEST DUP1 PUSH1 0x1F ADD PUSH1 0x20 DUP1 SWAP2 DIV MUL PUSH1 0x20 ADD PUSH1 0x40 MLOAD SWAP1 DUP2 ADD PUSH1 0x40 MSTORE DUP1 SWAP3 SWAP2 SWAP1 DUP2 DUP2 MSTORE PUSH1 0x20 ADD DUP3 DUP1 SLOAD PUSH2 0x7D8 SWAP1 PUSH2 0x1859 JUMP JUMPDEST DUP1 ISZERO PUSH2 0x823 JUMPI DUP1 PUSH1 0x1F LT PUSH2 0x7FA JUMPI PUSH2 0x100 DUP1 DUP4 SLOAD DIV MUL DUP4 MSTORE SWAP2 PUSH1 0x20 ADD SWAP2 PUSH2 0x823 JUMP JUMPDEST DUP3 ADD SWAP2 SWAP1 PUSH0 MSTORE PUSH1 0x20 PUSH0 KECCAK256 SWAP1 JUMPDEST DUP2 SLOAD DUP2 MSTORE SWAP1 PUSH1 0x1 ADD SWAP1 PUSH1 0x20 ADD DUP1 DUP4 GT PUSH2 0x806 JUMPI DUP3 SWAP1 SUB PUSH1 0x1F AND DUP3 ADD SWAP2 JUMPDEST POP POP POP POP POP DUP2 MSTORE PUSH1 0x20 ADD PUSH1 0x1 DUP3 ADD SLOAD DUP2 MSTORE POP POP SWAP2 POP POP SWAP1 JUMP JUMPDEST PUSH0 PUSH1 0x14 SWAP1 SLOAD SWAP1 PUSH2 0x100 EXP SWAP1 DIV PUSH1 0xFF AND DUP2 JUMP JUMPDEST PUSH1 0x3 DUP1 PUSH1 0x5 DUP2 GT ISZERO PUSH2 0x863 JUMPI PUSH2 0x862 PUSH2 0x13C6 JUMP JUMPDEST JUMPDEST PUSH0 PUSH1 0x14 SWAP1 SLOAD SWAP1 PUSH2 0x100 EXP SWAP1 DIV PUSH1 0xFF AND PUSH1 0x5 DUP2 GT ISZERO PUSH2 0x884 JUMPI PUSH2 0x883 PUSH2 0x13C6 JUMP JUMPDEST JUMPDEST EQ PUSH2 0x8C4 JUMPI PUSH1 0x40 MLOAD PUSH32 0x8C379A000000000000000000000000000000000000000000000000000000000 DUP2 MSTORE PUSH1 0x4 ADD PUSH2 0x8BB SWAP1 PUSH2 0x168A JUMP JUMPDEST PUSH1 0x40 MLOAD DUP1 SWAP2 SUB SWAP1 REVERT JUMPDEST PUSH2 0x8CC PUSH2 0x1039 JUMP JUMPDEST PUSH1 0x4 PUSH0 PUSH1 0x14 PUSH2 0x100 EXP DUP2 SLOAD DUP2 PUSH1 0xFF MUL NOT AND SWAP1 DUP4 PUSH1 0x5 DUP2 GT ISZERO PUSH2 0x8F1 JUMPI PUSH2 0x8F0 PUSH2 0x13C6 JUMP JUMPDEST JUMPDEST MUL OR SWAP1 SSTORE POP PUSH32 0xA97A4EE45751E2ABF3E4FC8946939630B11B371EA8AE39CCDC3056E98F5CC3F PUSH1 0x3 PUSH1 0x4 PUSH1 0x40 MLOAD PUSH2 0x929 SWAP3 SWAP2 SWAP1 PUSH2 0x1889 JUMP JUMPDEST PUSH1 0x40 MLOAD DUP1 SWAP2 SUB SWAP1 LOG1 POP JUMP JUMPDEST PUSH1 0x4 DUP1 PUSH1 0x5 DUP2 GT ISZERO PUSH2 0x949 JUMPI PUSH2 0x948 PUSH2 0x13C6 JUMP JUMPDEST JUMPDEST PUSH0 PUSH1 0x14 SWAP1 SLOAD SWAP1 PUSH2 0x100 EXP SWAP1 DIV PUSH1 0xFF AND PUSH1 0x5 DUP2 GT ISZERO PUSH2 0x96A JUMPI PUSH2 0x969 PUSH2 0x13C6 JUMP JUMPDEST JUMPDEST EQ PUSH2 0x9AA JUMPI PUSH1 0x40 MLOAD PUSH32 0x8C379A000000000000000000000000000000000000000000000000000000000 DUP2 MSTORE PUSH1 0x4 ADD PUSH2 0x9A1 SWAP1 PUSH2 0x168A JUMP JUMPDEST PUSH1 0x40 MLOAD DUP1 SWAP2 SUB SWAP1 REVERT JUMPDEST PUSH2 0x9B2 PUSH2 0x1039 JUMP JUMPDEST PUSH0 PUSH0 SWAP1 POP PUSH0 PUSH0 SWAP1 POP JUMPDEST PUSH1 0x3 DUP1 SLOAD SWAP1 POP DUP2 LT ISZERO PUSH2 0xA2E JUMPI DUP2 PUSH1 0x3 DUP3 DUP2 SLOAD DUP2 LT PUSH2 0x9DD JUMPI PUSH2 0x9DC PUSH2 0x1778 JUMP JUMPDEST JUMPDEST SWAP1 PUSH0 MSTORE PUSH1 0x20 PUSH0 KECCAK256 SWAP1 PUSH1 0x2 MUL ADD PUSH1 0x1 ADD SLOAD GT ISZERO PUSH2 0xA21 JUMPI PUSH1 0x3 DUP2 DUP2 SLOAD DUP2 LT PUSH2 0xA07 JUMPI PUSH2 0xA06 PUSH2 0x1778 JUMP JUMPDEST JUMPDEST SWAP1 PUSH0 MSTORE PUSH1 0x20 PUSH0 KECCAK256 SWAP1 PUSH1 0x2 MUL ADD PUSH1 0x1 ADD SLOAD SWAP2 POP DUP1 PUSH1 0x1 DUP2 SWAP1 SSTORE POP JUMPDEST DUP1 DUP1 PUSH1 0x1 ADD SWAP2 POP POP PUSH2 0x9BB JUMP JUMPDEST POP PUSH1 0x5 PUSH0 PUSH1 0x14 PUSH2 0x100 EXP DUP2 SLOAD DUP2 PUSH1 0xFF MUL NOT AND SWAP1 DUP4 PUSH1 0x5 DUP2 GT ISZERO PUSH2 0xA54 JUMPI PUSH2 0xA53 PUSH2 0x13C6 JUMP JUMPDEST JUMPDEST MUL OR SWAP1 SSTORE POP PUSH32 0xA97A4EE45751E2ABF3E4FC8946939630B11B371EA8AE39CCDC3056E98F5CC3F PUSH1 0x4 PUSH1 0x5 PUSH1 0x40 MLOAD PUSH2 0xA8C SWAP3 SWAP2 SWAP1 PUSH2 0x1889 JUMP JUMPDEST PUSH1 0x40 MLOAD DUP1 SWAP2 SUB SWAP1 LOG1 POP POP JUMP JUMPDEST PUSH0 DUP1 PUSH1 0x5 DUP2 GT ISZERO PUSH2 0xAAC JUMPI PUSH2 0xAAB PUSH2 0x13C6 JUMP JUMPDEST JUMPDEST PUSH0 PUSH1 0x14 SWAP1 SLOAD SWAP1 PUSH2 0x100 EXP SWAP1 DIV PUSH1 0xFF AND PUSH1 0x5 DUP2 GT ISZERO PUSH2 0xACD JUMPI PUSH2 0xACC PUSH2 0x13C6 JUMP JUMPDEST JUMPDEST EQ PUSH2 0xB0D JUMPI PUSH1 0x40 MLOAD PUSH32 0x8C379A000000000000000000000000000000000000000000000000000000000 DUP2 MSTORE PUSH1 0x4 ADD PUSH2 0xB04 SWAP1 PUSH2 0x168A JUMP JUMPDEST PUSH1 0x40 MLOAD DUP1 SWAP2 SUB SWAP1 REVERT JUMPDEST PUSH2 0xB15 PUSH2 0x1039 JUMP JUMPDEST PUSH1 0x1 PUSH0 PUSH1 0x14 PUSH2 0x100 EXP DUP2 SLOAD DUP2 PUSH1 0xFF MUL NOT AND SWAP1 DUP4 PUSH1 0x5 DUP2 GT ISZERO PUSH2 0xB3A JUMPI PUSH2 0xB39 PUSH2 0x13C6 JUMP JUMPDEST JUMPDEST MUL OR SWAP1 SSTORE POP PUSH32 0xA97A4EE45751E2ABF3E4FC8946939630B11B371EA8AE39CCDC3056E98F5CC3F PUSH0 PUSH1 0x1 PUSH1 0x40 MLOAD PUSH2 0xB71 SWAP3 SWAP2 SWAP1 PUSH2 0x1889 JUMP JUMPDEST PUSH1 0x40 MLOAD DUP1 SWAP2 SUB SWAP1 LOG1 POP JUMP JUMPDEST PUSH1 0x1 DUP1 PUSH1 0x5 DUP2 GT ISZERO PUSH2 0xB91 JUMPI PUSH2 0xB90 PUSH2 0x13C6 JUMP JUMPDEST JUMPDEST PUSH0 PUSH1 0x14 SWAP1 SLOAD SWAP1 PUSH2 0x100 EXP SWAP1 DIV PUSH1 0xFF AND PUSH1 0x5 DUP2 GT ISZERO PUSH2 0xBB2 JUMPI PUSH2 0xBB1 PUSH2 0x13C6 JUMP JUMPDEST JUMPDEST EQ PUSH2 0xBF2 JUMPI PUSH1 0x40 MLOAD PUSH32 0x8C379A000000000000000000000000000000000000000000000000000000000 DUP2 MSTORE PUSH1 0x4 ADD PUSH2 0xBE9 SWAP1 PUSH2 0x168A JUMP JUMPDEST PUSH1 0x40 MLOAD DUP1 SWAP2 SUB SWAP1 REVERT JUMPDEST PUSH1 0x2 PUSH0 CALLER PUSH20 0xFFFFFFFFFFFFFFFFFFFFFFFFFFFFFFFFFFFFFFFF AND PUSH20 0xFFFFFFFFFFFFFFFFFFFFFFFFFFFFFFFFFFFFFFFF AND DUP2 MSTORE PUSH1 0x20 ADD SWAP1 DUP2 MSTORE PUSH1 0x20 ADD PUSH0 KECCAK256 PUSH0 ADD PUSH0 SWAP1 SLOAD SWAP1 PUSH2 0x100 EXP SWAP1 DIV PUSH1 0xFF AND PUSH2 0xC7D JUMPI PUSH1 0x40 MLOAD PUSH32 0x8C379A000000000000000000000000000000000000000000000000000000000 DUP2 MSTORE PUSH1 0x4 ADD PUSH2 0xC74 SWAP1 PUSH2 0x1920 JUMP JUMPDEST PUSH1 0x40 MLOAD DUP1 SWAP2 SUB SWAP1 REVERT JUMPDEST PUSH1 0x3 PUSH1 0x40 MLOAD DUP1 PUSH1 0x40 ADD PUSH1 0x40 MSTORE DUP1 DUP5 DUP2 MSTORE PUSH1 0x20 ADD PUSH0 DUP2 MSTORE POP SWAP1 DUP1 PUSH1 0x1 DUP2 SLOAD ADD DUP1 DUP3 SSTORE DUP1 SWAP2 POP POP PUSH1 0x1 SWAP1 SUB SWAP1 PUSH0 MSTORE PUSH1 0x20 PUSH0 KECCAK256 SWAP1 PUSH1 0x2 MUL ADD PUSH0 SWAP1 SWAP2 SWAP1 SWAP2 SWAP1 SWAP2 POP PUSH0 DUP3 ADD MLOAD DUP2 PUSH0 ADD SWAP1 DUP2 PUSH2 0xCCD SWAP2 SWAP1 PUSH2 0x1ADE JUMP JUMPDEST POP PUSH1 0x20 DUP3 ADD MLOAD DUP2 PUSH1 0x1 ADD SSTORE POP POP PUSH1 0x1 PUSH1 0x3 DUP1 SLOAD SWAP1 POP PUSH2 0xCEC SWAP2 SWAP1 PUSH2 0x17D2 JUMP JUMPDEST PUSH1 0x2 PUSH0 CALLER PUSH20 0xFFFFFFFFFFFFFFFFFFFFFFFFFFFFFFFFFFFFFFFF AND PUSH20 0xFFFFFFFFFFFFFFFFFFFFFFFFFFFFFFFFFFFFFFFF AND DUP2 MSTORE PUSH1 0x20 ADD SWAP1 DUP2 MSTORE PUSH1 0x20 ADD PUSH0 KECCAK256 PUSH1 0x1 ADD DUP2 SWAP1 SSTORE POP POP POP JUMP JUMPDEST PUSH0 DUP1 PUSH1 0x5 DUP2 GT ISZERO PUSH2 0xD48 JUMPI PUSH2 0xD47 PUSH2 0x13C6 JUMP JUMPDEST JUMPDEST PUSH0 PUSH1 0x14 SWAP1 SLOAD SWAP1 PUSH2 0x100 EXP SWAP1 DIV PUSH1 0xFF AND PUSH1 0x5 DUP2 GT ISZERO PUSH2 0xD69 JUMPI PUSH2 0xD68 PUSH2 0x13C6 JUMP JUMPDEST JUMPDEST EQ PUSH2 0xDA9 JUMPI PUSH1 0x40 MLOAD PUSH32 0x8C379A000000000000000000000000000000000000000000000000000000000 DUP2 MSTORE PUSH1 0x4 ADD PUSH2 0xDA0 SWAP1 PUSH2 0x168A JUMP JUMPDEST PUSH1 0x40 MLOAD DUP1 SWAP2 SUB SWAP1 REVERT JUMPDEST PUSH2 0xDB1 PUSH2 0x1039 JUMP JUMPDEST PUSH1 0x2 PUSH0 DUP4 PUSH20 0xFFFFFFFFFFFFFFFFFFFFFFFFFFFFFFFFFFFFFFFF AND PUSH20 0xFFFFFFFFFFFFFFFFFFFFFFFFFFFFFFFFFFFFFFFF AND DUP2 MSTORE PUSH1 0x20 ADD SWAP1 DUP2 MSTORE PUSH1 0x20 ADD PUSH0 KECCAK256 PUSH0 ADD PUSH0 SWAP1 SLOAD SWAP1 PUSH2 0x100 EXP SWAP1 DIV PUSH1 0xFF AND ISZERO PUSH2 0xE3D JUMPI PUSH1 0x40 MLOAD PUSH32 0x8C379A000000000000000000000000000000000000000000000000000000000 DUP2 MSTORE PUSH1 0x4 ADD PUSH2 0xE34 SWAP1 PUSH2 0x1C1D JUMP JUMPDEST PUSH1 0x40 MLOAD DUP1 SWAP2 SUB SWAP1 REVERT JUMPDEST PUSH1 0x1 PUSH1 0x2 PUSH0 DUP5 PUSH20 0xFFFFFFFFFFFFFFFFFFFFFFFFFFFFFFFFFFFFFFFF AND PUSH20 0xFFFFFFFFFFFFFFFFFFFFFFFFFFFFFFFFFFFFFFFF AND DUP2 MSTORE PUSH1 0x20 ADD SWAP1 DUP2 MSTORE PUSH1 0x20 ADD PUSH0 KECCAK256 PUSH0 ADD PUSH0 PUSH2 0x100 EXP DUP2 SLOAD DUP2 PUSH1 0xFF MUL NOT AND SWAP1 DUP4 ISZERO ISZERO MUL OR SWAP1 SSTORE POP PUSH32 0xB6BE2187D059CC2A55FE29E0E503B566E1E0F8C8780096E185429350ACFFD3DD DUP3 PUSH1 0x40 MLOAD PUSH2 0xEC3 SWAP2 SWAP1 PUSH2 0x12FC JUMP JUMPDEST PUSH1 0x40 MLOAD DUP1 SWAP2 SUB SWAP1 LOG1 POP POP JUMP JUMPDEST PUSH1 0x2 DUP1 PUSH1 0x5 DUP2 GT ISZERO PUSH2 0xEE4 JUMPI PUSH2 0xEE3 PUSH2 0x13C6 JUMP JUMPDEST JUMPDEST PUSH0 PUSH1 0x14 SWAP1 SLOAD SWAP1 PUSH2 0x100 EXP SWAP1 DIV PUSH1 0xFF AND PUSH1 0x5 DUP2 GT ISZERO PUSH2 0xF05 JUMPI PUSH2 0xF04 PUSH2 0x13C6 JUMP JUMPDEST JUMPDEST EQ PUSH2 0xF45 JUMPI PUSH1 0x40 MLOAD PUSH32 0x8C379A000000000000000000000000000000000000000000000000000000000 DUP2 MSTORE PUSH1 0x4 ADD PUSH2 0xF3C SWAP1 PUSH2 0x168A JUMP JUMPDEST PUSH1 0x40 MLOAD DUP1 SWAP2 SUB SWAP1 REVERT JUMPDEST PUSH2 0xF4D PUSH2 0x1039 JUMP JUMPDEST PUSH1 0x3 PUSH0 PUSH1 0x14 PUSH2 0x100 EXP DUP2 SLOAD DUP2 PUSH1 0xFF MUL NOT AND SWAP1 DUP4 PUSH1 0x5 DUP2 GT ISZERO PUSH2 0xF72 JUMPI PUSH2 0xF71 PUSH2 0x13C6 JUMP JUMPDEST JUMPDEST MUL OR SWAP1 SSTORE POP PUSH32 0xA97A4EE45751E2ABF3E4FC8946939630B11B371EA8AE39CCDC3056E98F5CC3F PUSH1 0x2 PUSH1 0x3 PUSH1 0x40 MLOAD PUSH2 0xFAA SWAP3 SWAP2 SWAP1 PUSH2 0x1889 JUMP JUMPDEST PUSH1 0x40 MLOAD DUP1 SWAP2 SUB SWAP1 LOG1 POP JUMP JUMPDEST PUSH2 0xFBD PUSH2 0x1039 JUMP JUMPDEST PUSH0 PUSH20 0xFFFFFFFFFFFFFFFFFFFFFFFFFFFFFFFFFFFFFFFF AND DUP2 PUSH20 0xFFFFFFFFFFFFFFFFFFFFFFFFFFFFFFFFFFFFFFFF AND SUB PUSH2 0x102D JUMPI PUSH0 PUSH1 0x40 MLOAD PUSH32 0x1E4FBDF700000000000000000000000000000000000000000000000000000000 DUP2 MSTORE PUSH1 0x4 ADD PUSH2 0x1024 SWAP2 SWAP1 PUSH2 0x12FC JUMP JUMPDEST PUSH1 0x40 MLOAD DUP1 SWAP2 SUB SWAP1 REVERT JUMPDEST PUSH2 0x1036 DUP2 PUSH2 0x10C0 JUMP JUMPDEST POP JUMP JUMPDEST PUSH2 0x1041 PUSH2 0x1181 JUMP JUMPDEST PUSH20 0xFFFFFFFFFFFFFFFFFFFFFFFFFFFFFFFFFFFFFFFF AND PUSH2 0x105F PUSH2 0x6CB JUMP JUMPDEST PUSH20 0xFFFFFFFFFFFFFFFFFFFFFFFFFFFFFFFFFFFFFFFF AND EQ PUSH2 0x10BE JUMPI PUSH2 0x1082 PUSH2 0x1181 JUMP JUMPDEST PUSH1 0x40 MLOAD PUSH32 0x118CDAA700000000000000000000000000000000000000000000000000000000 DUP2 MSTORE PUSH1 0x4 ADD PUSH2 0x10B5 SWAP2 SWAP1 PUSH2 0x12FC JUMP JUMPDEST PUSH1 0x40 MLOAD DUP1 SWAP2 SUB SWAP1 REVERT JUMPDEST JUMP JUMPDEST PUSH0 PUSH0 PUSH0 SWAP1 SLOAD SWAP1 PUSH2 0x100 EXP SWAP1 DIV PUSH20 0xFFFFFFFFFFFFFFFFFFFFFFFFFFFFFFFFFFFFFFFF AND SWAP1 POP DUP2 PUSH0 PUSH0 PUSH2 0x100 EXP DUP2 SLOAD DUP2 PUSH20 0xFFFFFFFFFFFFFFFFFFFFFFFFFFFFFFFFFFFFFFFF MUL NOT AND SWAP1 DUP4 PUSH20 0xFFFFFFFFFFFFFFFFFFFFFFFFFFFFFFFFFFFFFFFF AND MUL OR SWAP1 SSTORE POP DUP2 PUSH20 0xFFFFFFFFFFFFFFFFFFFFFFFFFFFFFFFFFFFFFFFF AND DUP2 PUSH20 0xFFFFFFFFFFFFFFFFFFFFFFFFFFFFFFFFFFFFFFFF AND PUSH32 0x8BE0079C531659141344CD1FD0A4F28419497F9722A3DAAFE3B4186F6B6457E0 PUSH1 0x40 MLOAD PUSH1 0x40 MLOAD DUP1 SWAP2 SUB SWAP1 LOG3 POP POP JUMP JUMPDEST PUSH0 CALLER SWAP1 POP SWAP1 JUMP JUMPDEST PUSH1 0x40 MLOAD DUP1 PUSH1 0x40 ADD PUSH1 0x40 MSTORE DUP1 PUSH1 0x60 DUP2 MSTORE PUSH1 0x20 ADD PUSH0 DUP2 MSTORE POP SWAP1 JUMP JUMPDEST PUSH0 PUSH1 0x40 MLOAD SWAP1 POP SWAP1 JUMP JUMPDEST PUSH0 PUSH0 REVERT JUMPDEST PUSH0 PUSH0 REVERT JUMPDEST PUSH0 DUP2 SWAP1 POP SWAP2 SWAP1 POP JUMP JUMPDEST PUSH2 0x11C4 DUP2 PUSH2 0x11B2 JUMP JUMPDEST DUP2 EQ PUSH2 0x11CE JUMPI PUSH0 PUSH0 REVERT JUMPDEST POP JUMP JUMPDEST PUSH0 DUP2 CALLDATALOAD SWAP1 POP PUSH2 0x11DF DUP2 PUSH2 0x11BB JUMP JUMPDEST SWAP3 SWAP2 POP POP JUMP JUMPDEST PUSH0 PUSH1 0x20 DUP3 DUP5 SUB SLT ISZERO PUSH2 0x11FA JUMPI PUSH2 0x11F9 PUSH2 0x11AA JUMP JUMPDEST JUMPDEST PUSH0 PUSH2 0x1207 DUP5 DUP3 DUP6 ADD PUSH2 0x11D1 JUMP JUMPDEST SWAP2 POP POP SWAP3 SWAP2 POP POP JUMP JUMPDEST PUSH0 DUP2 MLOAD SWAP1 POP SWAP2 SWAP1 POP JUMP JUMPDEST PUSH0 DUP3 DUP3 MSTORE PUSH1 0x20 DUP3 ADD SWAP1 POP SWAP3 SWAP2 POP POP JUMP JUMPDEST DUP3 DUP2 DUP4 MCOPY PUSH0 DUP4 DUP4 ADD MSTORE POP POP POP JUMP JUMPDEST PUSH0 PUSH1 0x1F NOT PUSH1 0x1F DUP4 ADD AND SWAP1 POP SWAP2 SWAP1 POP JUMP JUMPDEST PUSH0 PUSH2 0x1252 DUP3 PUSH2 0x1210 JUMP JUMPDEST PUSH2 0x125C DUP2 DUP6 PUSH2 0x121A JUMP JUMPDEST SWAP4 POP PUSH2 0x126C DUP2 DUP6 PUSH1 0x20 DUP7 ADD PUSH2 0x122A JUMP JUMPDEST PUSH2 0x1275 DUP2 PUSH2 0x1238 JUMP JUMPDEST DUP5 ADD SWAP2 POP POP SWAP3 SWAP2 POP POP JUMP JUMPDEST PUSH2 0x1289 DUP2 PUSH2 0x11B2 JUMP JUMPDEST DUP3 MSTORE POP POP JUMP JUMPDEST PUSH0 PUSH1 0x40 DUP3 ADD SWAP1 POP DUP2 DUP2 SUB PUSH0 DUP4 ADD MSTORE PUSH2 0x12A7 DUP2 DUP6 PUSH2 0x1248 JUMP JUMPDEST SWAP1 POP PUSH2 0x12B6 PUSH1 0x20 DUP4 ADD DUP5 PUSH2 0x1280 JUMP JUMPDEST SWAP4 SWAP3 POP POP POP JUMP JUMPDEST PUSH0 PUSH20 0xFFFFFFFFFFFFFFFFFFFFFFFFFFFFFFFFFFFFFFFF DUP3 AND SWAP1 POP SWAP2 SWAP1 POP JUMP JUMPDEST PUSH0 PUSH2 0x12E6 DUP3 PUSH2 0x12BD JUMP JUMPDEST SWAP1 POP SWAP2 SWAP1 POP JUMP JUMPDEST PUSH2 0x12F6 DUP2 PUSH2 0x12DC JUMP JUMPDEST DUP3 MSTORE POP POP JUMP JUMPDEST PUSH0 PUSH1 0x20 DUP3 ADD SWAP1 POP PUSH2 0x130F PUSH0 DUP4 ADD DUP5 PUSH2 0x12ED JUMP JUMPDEST SWAP3 SWAP2 POP POP JUMP JUMPDEST PUSH0 DUP3 DUP3 MSTORE PUSH1 0x20 DUP3 ADD SWAP1 POP SWAP3 SWAP2 POP POP JUMP JUMPDEST PUSH0 PUSH2 0x132F DUP3 PUSH2 0x1210 JUMP JUMPDEST PUSH2 0x1339 DUP2 DUP6 PUSH2 0x1315 JUMP JUMPDEST SWAP4 POP PUSH2 0x1349 DUP2 DUP6 PUSH1 0x20 DUP7 ADD PUSH2 0x122A JUMP JUMPDEST PUSH2 0x1352 DUP2 PUSH2 0x1238 JUMP JUMPDEST DUP5 ADD SWAP2 POP POP SWAP3 SWAP2 POP POP JUMP JUMPDEST PUSH2 0x1366 DUP2 PUSH2 0x11B2 JUMP JUMPDEST DUP3 MSTORE POP POP JUMP JUMPDEST PUSH0 PUSH1 0x40 DUP4 ADD PUSH0 DUP4 ADD MLOAD DUP5 DUP3 SUB PUSH0 DUP7 ADD MSTORE PUSH2 0x1386 DUP3 DUP3 PUSH2 0x1325 JUMP JUMPDEST SWAP2 POP POP PUSH1 0x20 DUP4 ADD MLOAD PUSH2 0x139B PUSH1 0x20 DUP7 ADD DUP3 PUSH2 0x135D JUMP JUMPDEST POP DUP1 SWAP2 POP POP SWAP3 SWAP2 POP POP JUMP JUMPDEST PUSH0 PUSH1 0x20 DUP3 ADD SWAP1 POP DUP2 DUP2 SUB PUSH0 DUP4 ADD MSTORE PUSH2 0x13BE DUP2 DUP5 PUSH2 0x136C JUMP JUMPDEST SWAP1 POP SWAP3 SWAP2 POP POP JUMP JUMPDEST PUSH32 0x4E487B7100000000000000000000000000000000000000000000000000000000 PUSH0 MSTORE PUSH1 0x21 PUSH1 0x4 MSTORE PUSH1 0x24 PUSH0 REVERT JUMPDEST PUSH1 0x6 DUP2 LT PUSH2 0x1404 JUMPI PUSH2 0x1403 PUSH2 0x13C6 JUMP JUMPDEST JUMPDEST POP JUMP JUMPDEST PUSH0 DUP2 SWAP1 POP PUSH2 0x1414 DUP3 PUSH2 0x13F3 JUMP JUMPDEST SWAP2 SWAP1 POP JUMP JUMPDEST PUSH0 PUSH2 0x1423 DUP3 PUSH2 0x1407 JUMP JUMPDEST SWAP1 POP SWAP2 SWAP1 POP JUMP JUMPDEST PUSH2 0x1433 DUP2 PUSH2 0x1419 JUMP JUMPDEST DUP3 MSTORE POP POP JUMP JUMPDEST PUSH0 PUSH1 0x20 DUP3 ADD SWAP1 POP PUSH2 0x144C PUSH0 DUP4 ADD DUP5 PUSH2 0x142A JUMP JUMPDEST SWAP3 SWAP2 POP POP JUMP JUMPDEST PUSH0 PUSH0 REVERT JUMPDEST PUSH0 PUSH0 REVERT JUMPDEST PUSH32 0x4E487B7100000000000000000000000000000000000000000000000000000000 PUSH0 MSTORE PUSH1 0x41 PUSH1 0x4 MSTORE PUSH1 0x24 PUSH0 REVERT JUMPDEST PUSH2 0x1490 DUP3 PUSH2 0x1238 JUMP JUMPDEST DUP2 ADD DUP2 DUP2 LT PUSH8 0xFFFFFFFFFFFFFFFF DUP3 GT OR ISZERO PUSH2 0x14AF JUMPI PUSH2 0x14AE PUSH2 0x145A JUMP JUMPDEST JUMPDEST DUP1 PUSH1 0x40 MSTORE POP POP POP JUMP JUMPDEST PUSH0 PUSH2 0x14C1 PUSH2 0x11A1 JUMP JUMPDEST SWAP1 POP PUSH2 0x14CD DUP3 DUP3 PUSH2 0x1487 JUMP JUMPDEST SWAP2 SWAP1 POP JUMP JUMPDEST PUSH0 PUSH8 0xFFFFFFFFFFFFFFFF DUP3 GT ISZERO PUSH2 0x14EC JUMPI PUSH2 0x14EB PUSH2 0x145A JUMP JUMPDEST JUMPDEST PUSH2 0x14F5 DUP3 PUSH2 0x1238 JUMP JUMPDEST SWAP1 POP PUSH1 0x20 DUP2 ADD SWAP1 POP SWAP2 SWAP1 POP JUMP JUMPDEST DUP3 DUP2 DUP4 CALLDATACOPY PUSH0 DUP4 DUP4 ADD MSTORE POP POP POP JUMP JUMPDEST PUSH0 PUSH2 0x1522 PUSH2 0x151D DUP5 PUSH2 0x14D2 JUMP JUMPDEST PUSH2 0x14B8 JUMP JUMPDEST SWAP1 POP DUP3 DUP2 MSTORE PUSH1 0x20 DUP2 ADD DUP5 DUP5 DUP5 ADD GT ISZERO PUSH2 0x153E JUMPI PUSH2 0x153D PUSH2 0x1456 JUMP JUMPDEST JUMPDEST PUSH2 0x1549 DUP5 DUP3 DUP6 PUSH2 0x1502 JUMP JUMPDEST POP SWAP4 SWAP3 POP POP POP JUMP JUMPDEST PUSH0 DUP3 PUSH1 0x1F DUP4 ADD SLT PUSH2 0x1565 JUMPI PUSH2 0x1564 PUSH2 0x1452 JUMP JUMPDEST JUMPDEST DUP2 CALLDATALOAD PUSH2 0x1575 DUP5 DUP3 PUSH1 0x20 DUP7 ADD PUSH2 0x1510 JUMP JUMPDEST SWAP2 POP POP SWAP3 SWAP2 POP POP JUMP JUMPDEST PUSH0 PUSH1 0x20 DUP3 DUP5 SUB SLT ISZERO PUSH2 0x1593 JUMPI PUSH2 0x1592 PUSH2 0x11AA JUMP JUMPDEST JUMPDEST PUSH0 DUP3 ADD CALLDATALOAD PUSH8 0xFFFFFFFFFFFFFFFF DUP2 GT ISZERO PUSH2 0x15B0 JUMPI PUSH2 0x15AF PUSH2 0x11AE JUMP JUMPDEST JUMPDEST PUSH2 0x15BC DUP5 DUP3 DUP6 ADD PUSH2 0x1551 JUMP JUMPDEST SWAP2 POP POP SWAP3 SWAP2 POP POP JUMP JUMPDEST PUSH2 0x15CE DUP2 PUSH2 0x12DC JUMP JUMPDEST DUP2 EQ PUSH2 0x15D8 JUMPI PUSH0 PUSH0 REVERT JUMPDEST POP JUMP JUMPDEST PUSH0 DUP2 CALLDATALOAD SWAP1 POP PUSH2 0x15E9 DUP2 PUSH2 0x15C5 JUMP JUMPDEST SWAP3 SWAP2 POP POP JUMP JUMPDEST PUSH0 PUSH1 0x20 DUP3 DUP5 SUB SLT ISZERO PUSH2 0x1604 JUMPI PUSH2 0x1603 PUSH2 0x11AA JUMP JUMPDEST JUMPDEST PUSH0 PUSH2 0x1611 DUP5 DUP3 DUP6 ADD PUSH2 0x15DB JUMP JUMPDEST SWAP2 POP POP SWAP3 SWAP2 POP POP JUMP JUMPDEST PUSH32 0x596F7520617265206E6F742061626C6520746F20646F20746869732061637469 PUSH0 DUP3 ADD MSTORE PUSH32 0x6F6E207269676874206E6F770000000000000000000000000000000000000000 PUSH1 0x20 DUP3 ADD MSTORE POP JUMP JUMPDEST PUSH0 PUSH2 0x1674 PUSH1 0x2C DUP4 PUSH2 0x121A JUMP JUMPDEST SWAP2 POP PUSH2 0x167F DUP3 PUSH2 0x161A JUMP JUMPDEST PUSH1 0x40 DUP3 ADD SWAP1 POP SWAP2 SWAP1 POP JUMP JUMPDEST PUSH0 PUSH1 0x20 DUP3 ADD SWAP1 POP DUP2 DUP2 SUB PUSH0 DUP4 ADD MSTORE PUSH2 0x16A1 DUP2 PUSH2 0x1668 JUMP JUMPDEST SWAP1 POP SWAP2 SWAP1 POP JUMP JUMPDEST PUSH32 0x596F7520617265206E6F7420616C6C6F77656420746F20766F74650000000000 PUSH0 DUP3 ADD MSTORE POP JUMP JUMPDEST PUSH0 PUSH2 0x16DC PUSH1 0x1B DUP4 PUSH2 0x121A JUMP JUMPDEST SWAP2 POP PUSH2 0x16E7 DUP3 PUSH2 0x16A8 JUMP JUMPDEST PUSH1 0x20 DUP3 ADD SWAP1 POP SWAP2 SWAP1 POP JUMP JUMPDEST PUSH0 PUSH1 0x20 DUP3 ADD SWAP1 POP DUP2 DUP2 SUB PUSH0 DUP4 ADD MSTORE PUSH2 0x1709 DUP2 PUSH2 0x16D0 JUMP JUMPDEST SWAP1 POP SWAP2 SWAP1 POP JUMP JUMPDEST PUSH32 0x596F75206861766520616C726561647920766F74656400000000000000000000 PUSH0 DUP3 ADD MSTORE POP JUMP JUMPDEST PUSH0 PUSH2 0x1744 PUSH1 0x16 DUP4 PUSH2 0x121A JUMP JUMPDEST SWAP2 POP PUSH2 0x174F DUP3 PUSH2 0x1710 JUMP JUMPDEST PUSH1 0x20 DUP3 ADD SWAP1 POP SWAP2 SWAP1 POP JUMP JUMPDEST PUSH0 PUSH1 0x20 DUP3 ADD SWAP1 POP DUP2 DUP2 SUB PUSH0 DUP4 ADD MSTORE PUSH2 0x1771 DUP2 PUSH2 0x1738 JUMP JUMPDEST SWAP1 POP SWAP2 SWAP1 POP JUMP JUMPDEST PUSH32 0x4E487B7100000000000000000000000000000000000000000000000000000000 PUSH0 MSTORE PUSH1 0x32 PUSH1 0x4 MSTORE PUSH1 0x24 PUSH0 REVERT JUMPDEST PUSH32 0x4E487B7100000000000000000000000000000000000000000000000000000000 PUSH0 MSTORE PUSH1 0x11 PUSH1 0x4 MSTORE PUSH1 0x24 PUSH0 REVERT JUMPDEST PUSH0 PUSH2 0x17DC DUP3 PUSH2 0x11B2 JUMP JUMPDEST SWAP2 POP PUSH2 0x17E7 DUP4 PUSH2 0x11B2 JUMP JUMPDEST SWAP3 POP DUP3 DUP3 ADD SWAP1 POP DUP1 DUP3 GT ISZERO PUSH2 0x17FF JUMPI PUSH2 0x17FE PUSH2 0x17A5 JUMP JUMPDEST JUMPDEST SWAP3 SWAP2 POP POP JUMP JUMPDEST PUSH0 PUSH1 0x40 DUP3 ADD SWAP1 POP PUSH2 0x1818 PUSH0 DUP4 ADD DUP6 PUSH2 0x12ED JUMP JUMPDEST PUSH2 0x1825 PUSH1 0x20 DUP4 ADD DUP5 PUSH2 0x1280 JUMP JUMPDEST SWAP4 SWAP3 POP POP POP JUMP JUMPDEST PUSH32 0x4E487B7100000000000000000000000000000000000000000000000000000000 PUSH0 MSTORE PUSH1 0x22 PUSH1 0x4 MSTORE PUSH1 0x24 PUSH0 REVERT JUMPDEST PUSH0 PUSH1 0x2 DUP3 DIV SWAP1 POP PUSH1 0x1 DUP3 AND DUP1 PUSH2 0x1870 JUMPI PUSH1 0x7F DUP3 AND SWAP2 POP JUMPDEST PUSH1 0x20 DUP3 LT DUP2 SUB PUSH2 0x1883 JUMPI PUSH2 0x1882 PUSH2 0x182C JUMP JUMPDEST JUMPDEST POP SWAP2 SWAP1 POP JUMP JUMPDEST PUSH0 PUSH1 0x40 DUP3 ADD SWAP1 POP PUSH2 0x189C PUSH0 DUP4 ADD DUP6 PUSH2 0x142A JUMP JUMPDEST PUSH2 0x18A9 PUSH1 0x20 DUP4 ADD DUP5 PUSH2 0x142A JUMP JUMPDEST SWAP4 SWAP3 POP POP POP JUMP JUMPDEST PUSH32 0x596F7520617265206E6F7420616C6C6F77656420746F206D616B652061207072 PUSH0 DUP3 ADD MSTORE PUSH32 0x6F706F73616C0000000000000000000000000000000000000000000000000000 PUSH1 0x20 DUP3 ADD MSTORE POP JUMP JUMPDEST PUSH0 PUSH2 0x190A PUSH1 0x26 DUP4 PUSH2 0x121A JUMP JUMPDEST SWAP2 POP PUSH2 0x1915 DUP3 PUSH2 0x18B0 JUMP JUMPDEST PUSH1 0x40 DUP3 ADD SWAP1 POP SWAP2 SWAP1 POP JUMP JUMPDEST PUSH0 PUSH1 0x20 DUP3 ADD SWAP1 POP DUP2 DUP2 SUB PUSH0 DUP4 ADD MSTORE PUSH2 0x1937 DUP2 PUSH2 0x18FE JUMP JUMPDEST SWAP1 POP SWAP2 SWAP1 POP JUMP JUMPDEST PUSH0 DUP2 SWAP1 POP DUP2 PUSH0 MSTORE PUSH1 0x20 PUSH0 KECCAK256 SWAP1 POP SWAP2 SWAP1 POP JUMP JUMPDEST PUSH0 PUSH1 0x20 PUSH1 0x1F DUP4 ADD DIV SWAP1 POP SWAP2 SWAP1 POP JUMP JUMPDEST PUSH0 DUP3 DUP3 SHL SWAP1 POP SWAP3 SWAP2 POP POP JUMP JUMPDEST PUSH0 PUSH1 0x8 DUP4 MUL PUSH2 0x199A PUSH32 0xFFFFFFFFFFFFFFFFFFFFFFFFFFFFFFFFFFFFFFFFFFFFFFFFFFFFFFFFFFFFFFFF DUP3 PUSH2 0x195F JUMP JUMPDEST PUSH2 0x19A4 DUP7 DUP4 PUSH2 0x195F JUMP JUMPDEST SWAP6 POP DUP1 NOT DUP5 AND SWAP4 POP DUP1 DUP7 AND DUP5 OR SWAP3 POP POP POP SWAP4 SWAP3 POP POP POP JUMP JUMPDEST PUSH0 DUP2 SWAP1 POP SWAP2 SWAP1 POP JUMP JUMPDEST PUSH0 PUSH2 0x19DF PUSH2 0x19DA PUSH2 0x19D5 DUP5 PUSH2 0x11B2 JUMP JUMPDEST PUSH2 0x19BC JUMP JUMPDEST PUSH2 0x11B2 JUMP JUMPDEST SWAP1 POP SWAP2 SWAP1 POP JUMP JUMPDEST PUSH0 DUP2 SWAP1 POP SWAP2 SWAP1 POP JUMP JUMPDEST PUSH2 0x19F8 DUP4 PUSH2 0x19C5 JUMP JUMPDEST PUSH2 0x1A0C PUSH2 0x1A04 DUP3 PUSH2 0x19E6 JUMP JUMPDEST DUP5 DUP5 SLOAD PUSH2 0x196B JUMP JUMPDEST DUP3 SSTORE POP POP POP POP JUMP JUMPDEST PUSH0 PUSH0 SWAP1 POP SWAP1 JUMP JUMPDEST PUSH2 0x1A23 PUSH2 0x1A14 JUMP JUMPDEST PUSH2 0x1A2E DUP2 DUP5 DUP5 PUSH2 0x19EF JUMP JUMPDEST POP POP POP JUMP JUMPDEST JUMPDEST DUP2 DUP2 LT ISZERO PUSH2 0x1A51 JUMPI PUSH2 0x1A46 PUSH0 DUP3 PUSH2 0x1A1B JUMP JUMPDEST PUSH1 0x1 DUP2 ADD SWAP1 POP PUSH2 0x1A34 JUMP JUMPDEST POP POP JUMP JUMPDEST PUSH1 0x1F DUP3 GT ISZERO PUSH2 0x1A96 JUMPI PUSH2 0x1A67 DUP2 PUSH2 0x193E JUMP JUMPDEST PUSH2 0x1A70 DUP5 PUSH2 0x1950 JUMP JUMPDEST DUP2 ADD PUSH1 0x20 DUP6 LT ISZERO PUSH2 0x1A7F JUMPI DUP2 SWAP1 POP JUMPDEST PUSH2 0x1A93 PUSH2 0x1A8B DUP6 PUSH2 0x1950 JUMP JUMPDEST DUP4 ADD DUP3 PUSH2 0x1A33 JUMP JUMPDEST POP POP JUMPDEST POP POP POP JUMP JUMPDEST PUSH0 DUP3 DUP3 SHR SWAP1 POP SWAP3 SWAP2 POP POP JUMP JUMPDEST PUSH0 PUSH2 0x1AB6 PUSH0 NOT DUP5 PUSH1 0x8 MUL PUSH2 0x1A9B JUMP JUMPDEST NOT DUP1 DUP4 AND SWAP2 POP POP SWAP3 SWAP2 POP POP JUMP JUMPDEST PUSH0 PUSH2 0x1ACE DUP4 DUP4 PUSH2 0x1AA7 JUMP JUMPDEST SWAP2 POP DUP3 PUSH1 0x2 MUL DUP3 OR SWAP1 POP SWAP3 SWAP2 POP POP JUMP JUMPDEST PUSH2 0x1AE7 DUP3 PUSH2 0x1210 JUMP JUMPDEST PUSH8 0xFFFFFFFFFFFFFFFF DUP2 GT ISZERO PUSH2 0x1B00 JUMPI PUSH2 0x1AFF PUSH2 0x145A JUMP JUMPDEST JUMPDEST PUSH2 0x1B0A DUP3 SLOAD PUSH2 0x1859 JUMP JUMPDEST PUSH2 0x1B15 DUP3 DUP3 DUP6 PUSH2 0x1A55 JUMP JUMPDEST PUSH0 PUSH1 0x20 SWAP1 POP PUSH1 0x1F DUP4 GT PUSH1 0x1 DUP2 EQ PUSH2 0x1B46 JUMPI PUSH0 DUP5 ISZERO PUSH2 0x1B34 JUMPI DUP3 DUP8 ADD MLOAD SWAP1 POP JUMPDEST PUSH2 0x1B3E DUP6 DUP3 PUSH2 0x1AC3 JUMP JUMPDEST DUP7 SSTORE POP PUSH2 0x1BA5 JUMP JUMPDEST PUSH1 0x1F NOT DUP5 AND PUSH2 0x1B54 DUP7 PUSH2 0x193E JUMP JUMPDEST PUSH0 JUMPDEST DUP3 DUP2 LT ISZERO PUSH2 0x1B7B JUMPI DUP5 DUP10 ADD MLOAD DUP3 SSTORE PUSH1 0x1 DUP3 ADD SWAP2 POP PUSH1 0x20 DUP6 ADD SWAP5 POP PUSH1 0x20 DUP2 ADD SWAP1 POP PUSH2 0x1B56 JUMP JUMPDEST DUP7 DUP4 LT ISZERO PUSH2 0x1B98 JUMPI DUP5 DUP10 ADD MLOAD PUSH2 0x1B94 PUSH1 0x1F DUP10 AND DUP3 PUSH2 0x1AA7 JUMP JUMPDEST DUP4 SSTORE POP JUMPDEST PUSH1 0x1 PUSH1 0x2 DUP9 MUL ADD DUP9 SSTORE POP POP POP JUMPDEST POP POP POP POP POP POP JUMP JUMPDEST PUSH32 0x54686973206164647265737320697320616C726561647920696E20766F746572 PUSH0 DUP3 ADD MSTORE PUSH32 0x7300000000000000000000000000000000000000000000000000000000000000 PUSH1 0x20 DUP3 ADD MSTORE POP JUMP JUMPDEST PUSH0 PUSH2 0x1C07 PUSH1 0x21 DUP4 PUSH2 0x121A JUMP JUMPDEST SWAP2 POP PUSH2 0x1C12 DUP3 PUSH2 0x1BAD JUMP JUMPDEST PUSH1 0x40 DUP3 ADD SWAP1 POP SWAP2 SWAP1 POP JUMP JUMPDEST PUSH0 PUSH1 0x20 DUP3 ADD SWAP1 POP DUP2 DUP2 SUB PUSH0 DUP4 ADD MSTORE PUSH2 0x1C34 DUP2 PUSH2 0x1BFB JUMP JUMPDEST SWAP1 POP SWAP2 SWAP1 POP JUMP INVALID LOG2 PUSH5 0x6970667358 0x22 SLT KECCAK256 DUP8 PUSH26 0x2BDE2B56B8E89141E604FB4AB5679A7BBE5A85A95482133E35DD CALLDATALOAD 0x22 JUMP 0xF7 PUSH5 0x736F6C6343 STOP ADDMOD SHR STOP CALLER "
				},
				"gasEstimates": {
					"creation": {
						"codeDepositCost": "1456200",
						"executionCost": "infinite",
						"totalCost": "infinite"
					},
					"external": {
						"endProposalsRegistration()": "infinite",
						"endVotingSession()": "infinite",
						"getWinner()": "infinite",
						"owner()": "2559",
						"proposals(uint256)": "infinite",
						"registerProposals(string)": "infinite",
						"registerVoters(address)": "infinite",
						"renounceOwnership()": "infinite",
						"startProposalsRegistration()": "infinite",
						"startVotingSession()": "infinite",
						"transferOwnership(address)": "infinite",
						"vote(uint256)": "infinite",
						"votesTallied()": "infinite",
						"workflowStatus()": "2693"
					}
				},
				"methodIdentifiers": {
					"endProposalsRegistration()": "6c297445",
					"endVotingSession()": "a7bfab16",
					"getWinner()": "8e7ea5b2",
					"owner()": "8da5cb5b",
					"proposals(uint256)": "013cf08b",
					"registerProposals(string)": "e2dd58c6",
					"registerVoters(address)": "ed8a1608",
					"renounceOwnership()": "715018a6",
					"startProposalsRegistration()": "e09b8c79",
					"startVotingSession()": "ee74c678",
					"transferOwnership(address)": "f2fde38b",
					"vote(uint256)": "0121b93f",
					"votesTallied()": "ada7415f",
					"workflowStatus()": "a1edffa2"
				}
			},
			"storageLayout": {
				"storage": [
					{
						"astId": 8,
						"contract": "contracts/Security/33_gasLimit.sol:Voting",
						"label": "_owner",
						"offset": 0,
						"slot": "0",
						"type": "t_address"
					},
					{
						"astId": 212,
						"contract": "contracts/Security/33_gasLimit.sol:Voting",
						"label": "workflowStatus",
						"offset": 20,
						"slot": "0",
						"type": "t_enum(WorkflowStatus)209"
					},
					{
						"astId": 214,
						"contract": "contracts/Security/33_gasLimit.sol:Voting",
						"label": "winningProposalId",
						"offset": 0,
						"slot": "1",
						"type": "t_uint256"
					},
					{
						"astId": 219,
						"contract": "contracts/Security/33_gasLimit.sol:Voting",
						"label": "voters",
						"offset": 0,
						"slot": "2",
						"type": "t_mapping(t_address,t_struct(Voter)197_storage)"
					},
					{
						"astId": 223,
						"contract": "contracts/Security/33_gasLimit.sol:Voting",
						"label": "proposals",
						"offset": 0,
						"slot": "3",
						"type": "t_array(t_struct(Proposal)202_storage)dyn_storage"
					}
				],
				"types": {
					"t_address": {
						"encoding": "inplace",
						"label": "address",
						"numberOfBytes": "20"
					},
					"t_array(t_struct(Proposal)202_storage)dyn_storage": {
						"base": "t_struct(Proposal)202_storage",
						"encoding": "dynamic_array",
						"label": "struct Voting.Proposal[]",
						"numberOfBytes": "32"
					},
					"t_bool": {
						"encoding": "inplace",
						"label": "bool",
						"numberOfBytes": "1"
					},
					"t_enum(WorkflowStatus)209": {
						"encoding": "inplace",
						"label": "enum Voting.WorkflowStatus",
						"numberOfBytes": "1"
					},
					"t_mapping(t_address,t_struct(Voter)197_storage)": {
						"encoding": "mapping",
						"key": "t_address",
						"label": "mapping(address => struct Voting.Voter)",
						"numberOfBytes": "32",
						"value": "t_struct(Voter)197_storage"
					},
					"t_string_storage": {
						"encoding": "bytes",
						"label": "string",
						"numberOfBytes": "32"
					},
					"t_struct(Proposal)202_storage": {
						"encoding": "inplace",
						"label": "struct Voting.Proposal",
						"members": [
							{
								"astId": 199,
								"contract": "contracts/Security/33_gasLimit.sol:Voting",
								"label": "description",
								"offset": 0,
								"slot": "0",
								"type": "t_string_storage"
							},
							{
								"astId": 201,
								"contract": "contracts/Security/33_gasLimit.sol:Voting",
								"label": "voteCount",
								"offset": 0,
								"slot": "1",
								"type": "t_uint256"
							}
						],
						"numberOfBytes": "64"
					},
					"t_struct(Voter)197_storage": {
						"encoding": "inplace",
						"label": "struct Voting.Voter",
						"members": [
							{
								"astId": 192,
								"contract": "contracts/Security/33_gasLimit.sol:Voting",
								"label": "isRegistered",
								"offset": 0,
								"slot": "0",
								"type": "t_bool"
							},
							{
								"astId": 194,
								"contract": "contracts/Security/33_gasLimit.sol:Voting",
								"label": "hasVoted",
								"offset": 1,
								"slot": "0",
								"type": "t_bool"
							},
							{
								"astId": 196,
								"contract": "contracts/Security/33_gasLimit.sol:Voting",
								"label": "votedProposalId",
								"offset": 0,
								"slot": "1",
								"type": "t_uint256"
							}
						],
						"numberOfBytes": "64"
					},
					"t_uint256": {
						"encoding": "inplace",
						"label": "uint256",
						"numberOfBytes": "32"
					}
				}
			},
			"userdoc": {
				"kind": "user",
				"methods": {},
				"version": 1
			}
		}
	}
}