{
	"contracts/Security/33_gasLimit.sol": {
		"Voting": {
			"abi": [
				{
					"inputs": [],
					"stateMutability": "nonpayable",
					"type": "constructor"
				},
				{
					"inputs": [
						{
							"internalType": "address",
							"name": "owner",
							"type": "address"
						}
					],
					"name": "OwnableInvalidOwner",
					"type": "error"
				},
				{
					"inputs": [
						{
							"internalType": "address",
							"name": "account",
							"type": "address"
						}
					],
					"name": "OwnableUnauthorizedAccount",
					"type": "error"
				},
				{
					"anonymous": false,
					"inputs": [
						{
							"indexed": true,
							"internalType": "address",
							"name": "previousOwner",
							"type": "address"
						},
						{
							"indexed": true,
							"internalType": "address",
							"name": "newOwner",
							"type": "address"
						}
					],
					"name": "OwnershipTransferred",
					"type": "event"
				},
				{
					"anonymous": false,
					"inputs": [
						{
							"indexed": false,
							"internalType": "uint256",
							"name": "proposalId",
							"type": "uint256"
						}
					],
					"name": "ProposalRegistered",
					"type": "event"
				},
				{
					"anonymous": false,
					"inputs": [
						{
							"indexed": false,
							"internalType": "address",
							"name": "voter",
							"type": "address"
						},
						{
							"indexed": false,
							"internalType": "uint256",
							"name": "proposalId",
							"type": "uint256"
						}
					],
					"name": "Voted",
					"type": "event"
				},
				{
					"anonymous": false,
					"inputs": [
						{
							"indexed": false,
							"internalType": "address",
							"name": "voterAddress",
							"type": "address"
						}
					],
					"name": "VoterRegistered",
					"type": "event"
				},
				{
					"anonymous": false,
					"inputs": [
						{
							"indexed": false,
							"internalType": "enum Voting.WorkflowStatus",
							"name": "previousStatus",
							"type": "uint8"
						},
						{
							"indexed": false,
							"internalType": "enum Voting.WorkflowStatus",
							"name": "newStatus",
							"type": "uint8"
						}
					],
					"name": "WorkflowStatusChange",
					"type": "event"
				},
				{
					"inputs": [],
					"name": "endProposalsRegistration",
					"outputs": [],
					"stateMutability": "nonpayable",
					"type": "function"
				},
				{
					"inputs": [],
					"name": "endVotingSession",
					"outputs": [],
					"stateMutability": "nonpayable",
					"type": "function"
				},
				{
					"inputs": [],
					"name": "getWinner",
					"outputs": [
						{
							"components": [
								{
									"internalType": "string",
									"name": "description",
									"type": "string"
								},
								{
									"internalType": "uint256",
									"name": "voteCount",
									"type": "uint256"
								}
							],
							"internalType": "struct Voting.Proposal",
							"name": "",
							"type": "tuple"
						}
					],
					"stateMutability": "view",
					"type": "function"
				},
				{
					"inputs": [],
					"name": "owner",
					"outputs": [
						{
							"internalType": "address",
							"name": "",
							"type": "address"
						}
					],
					"stateMutability": "view",
					"type": "function"
				},
				{
					"inputs": [
						{
							"internalType": "uint256",
							"name": "",
							"type": "uint256"
						}
					],
					"name": "proposals",
					"outputs": [
						{
							"internalType": "string",
							"name": "description",
							"type": "string"
						},
						{
							"internalType": "uint256",
							"name": "voteCount",
							"type": "uint256"
						}
					],
					"stateMutability": "view",
					"type": "function"
				},
				{
					"inputs": [
						{
							"internalType": "string",
							"name": "proposalDescription",
							"type": "string"
						}
					],
					"name": "registerProposals",
					"outputs": [],
					"stateMutability": "nonpayable",
					"type": "function"
				},
				{
					"inputs": [
						{
							"internalType": "address",
							"name": "_voterAddress",
							"type": "address"
						}
					],
					"name": "registerVoters",
					"outputs": [],
					"stateMutability": "nonpayable",
					"type": "function"
				},
				{
					"inputs": [],
					"name": "renounceOwnership",
					"outputs": [],
					"stateMutability": "nonpayable",
					"type": "function"
				},
				{
					"inputs": [],
					"name": "startProposalsRegistration",
					"outputs": [],
					"stateMutability": "nonpayable",
					"type": "function"
				},
				{
					"inputs": [],
					"name": "startVotingSession",
					"outputs": [],
					"stateMutability": "nonpayable",
					"type": "function"
				},
				{
					"inputs": [
						{
							"internalType": "address",
							"name": "newOwner",
							"type": "address"
						}
					],
					"name": "transferOwnership",
					"outputs": [],
					"stateMutability": "nonpayable",
					"type": "function"
				},
				{
					"inputs": [
						{
							"internalType": "uint256",
							"name": "proposalId",
							"type": "uint256"
						}
					],
					"name": "vote",
					"outputs": [],
					"stateMutability": "nonpayable",
					"type": "function"
				},
				{
					"inputs": [],
					"name": "votesTallied",
					"outputs": [],
					"stateMutability": "nonpayable",
					"type": "function"
				},
				{
					"inputs": [],
					"name": "workflowStatus",
					"outputs": [
						{
							"internalType": "enum Voting.WorkflowStatus",
							"name": "",
							"type": "uint8"
						}
					],
					"stateMutability": "view",
					"type": "function"
				}
			],
			"devdoc": {
				"errors": {
					"OwnableInvalidOwner(address)": [
						{
							"details": "The owner is not a valid owner account. (eg. `address(0)`)"
						}
					],
					"OwnableUnauthorizedAccount(address)": [
						{
							"details": "The caller account is not authorized to perform an operation."
						}
					]
				},
				"kind": "dev",
				"methods": {
					"owner()": {
						"details": "Returns the address of the current owner."
					},
					"renounceOwnership()": {
						"details": "Leaves the contract without owner. It will not be possible to call `onlyOwner` functions. Can only be called by the current owner. NOTE: Renouncing ownership will leave the contract without an owner, thereby disabling any functionality that is only available to the owner."
					},
					"transferOwnership(address)": {
						"details": "Transfers ownership of the contract to a new account (`newOwner`). Can only be called by the current owner."
					}
				},
				"version": 1
			},
			"evm": {
				"assembly": "    /* \"contracts/Security/33_gasLimit.sol\":115:4661  contract Voting is Ownable {... */\n  mstore(0x40, 0x80)\n    /* \"contracts/Security/33_gasLimit.sol\":148:184  constructor() Ownable(msg.sender) {} */\n  callvalue\n  dup1\n  iszero\n  tag_1\n  jumpi\n  revert(0x00, 0x00)\ntag_1:\n  pop\n    /* \"contracts/Security/33_gasLimit.sol\":170:180  msg.sender */\n  caller\n    /* \"@openzeppelin/contracts/access/Ownable.sol\":1297:1298  0 */\n  0x00\n    /* \"@openzeppelin/contracts/access/Ownable.sol\":1273:1299  initialOwner == address(0) */\n  0xffffffffffffffffffffffffffffffffffffffff\n  and\n    /* \"@openzeppelin/contracts/access/Ownable.sol\":1273:1285  initialOwner */\n  dup2\n    /* \"@openzeppelin/contracts/access/Ownable.sol\":1273:1299  initialOwner == address(0) */\n  0xffffffffffffffffffffffffffffffffffffffff\n  and\n  sub\n    /* \"@openzeppelin/contracts/access/Ownable.sol\":1269:1364  if (initialOwner == address(0)) {... */\n  tag_5\n  jumpi\n    /* \"@openzeppelin/contracts/access/Ownable.sol\":1350:1351  0 */\n  0x00\n    /* \"@openzeppelin/contracts/access/Ownable.sol\":1322:1353  OwnableInvalidOwner(address(0)) */\n  mload(0x40)\n  0x1e4fbdf700000000000000000000000000000000000000000000000000000000\n  dup2\n  mstore\n  0x04\n  add\n  tag_6\n  swap2\n  swap1\n  tag_7\n  jump\t// in\ntag_6:\n  mload(0x40)\n  dup1\n  swap2\n  sub\n  swap1\n  revert\n    /* \"@openzeppelin/contracts/access/Ownable.sol\":1269:1364  if (initialOwner == address(0)) {... */\ntag_5:\n    /* \"@openzeppelin/contracts/access/Ownable.sol\":1373:1405  _transferOwnership(initialOwner) */\n  tag_8\n    /* \"@openzeppelin/contracts/access/Ownable.sol\":1392:1404  initialOwner */\n  dup2\n    /* \"@openzeppelin/contracts/access/Ownable.sol\":1373:1391  _transferOwnership */\n  shl(0x20, tag_9)\n    /* \"@openzeppelin/contracts/access/Ownable.sol\":1373:1405  _transferOwnership(initialOwner) */\n  0x20\n  shr\n  jump\t// in\ntag_8:\n    /* \"@openzeppelin/contracts/access/Ownable.sol\":1225:1412  constructor(address initialOwner) {... */\n  pop\n    /* \"contracts/Security/33_gasLimit.sol\":115:4661  contract Voting is Ownable {... */\n  jump(tag_11)\n    /* \"@openzeppelin/contracts/access/Ownable.sol\":2912:3099  function _transferOwnership(address newOwner) internal virtual {... */\ntag_9:\n    /* \"@openzeppelin/contracts/access/Ownable.sol\":2985:3001  address oldOwner */\n  0x00\n    /* \"@openzeppelin/contracts/access/Ownable.sol\":3004:3010  _owner */\n  0x00\n  0x00\n  swap1\n  sload\n  swap1\n  0x0100\n  exp\n  swap1\n  div\n  0xffffffffffffffffffffffffffffffffffffffff\n  and\n    /* \"@openzeppelin/contracts/access/Ownable.sol\":2985:3010  address oldOwner = _owner */\n  swap1\n  pop\n    /* \"@openzeppelin/contracts/access/Ownable.sol\":3029:3037  newOwner */\n  dup2\n    /* \"@openzeppelin/contracts/access/Ownable.sol\":3020:3026  _owner */\n  0x00\n  0x00\n    /* \"@openzeppelin/contracts/access/Ownable.sol\":3020:3037  _owner = newOwner */\n  0x0100\n  exp\n  dup2\n  sload\n  dup2\n  0xffffffffffffffffffffffffffffffffffffffff\n  mul\n  not\n  and\n  swap1\n  dup4\n  0xffffffffffffffffffffffffffffffffffffffff\n  and\n  mul\n  or\n  swap1\n  sstore\n  pop\n    /* \"@openzeppelin/contracts/access/Ownable.sol\":3083:3091  newOwner */\n  dup2\n    /* \"@openzeppelin/contracts/access/Ownable.sol\":3052:3092  OwnershipTransferred(oldOwner, newOwner) */\n  0xffffffffffffffffffffffffffffffffffffffff\n  and\n    /* \"@openzeppelin/contracts/access/Ownable.sol\":3073:3081  oldOwner */\n  dup2\n    /* \"@openzeppelin/contracts/access/Ownable.sol\":3052:3092  OwnershipTransferred(oldOwner, newOwner) */\n  0xffffffffffffffffffffffffffffffffffffffff\n  and\n  0x8be0079c531659141344cd1fd0a4f28419497f9722a3daafe3b4186f6b6457e0\n  mload(0x40)\n  mload(0x40)\n  dup1\n  swap2\n  sub\n  swap1\n  log3\n    /* \"@openzeppelin/contracts/access/Ownable.sol\":2975:3099  {... */\n  pop\n    /* \"@openzeppelin/contracts/access/Ownable.sol\":2912:3099  function _transferOwnership(address newOwner) internal virtual {... */\n  pop\n  jump\t// out\n    /* \"#utility.yul\":7:133   */\ntag_13:\n    /* \"#utility.yul\":44:51   */\n  0x00\n    /* \"#utility.yul\":84:126   */\n  0xffffffffffffffffffffffffffffffffffffffff\n    /* \"#utility.yul\":77:82   */\n  dup3\n    /* \"#utility.yul\":73:127   */\n  and\n    /* \"#utility.yul\":62:127   */\n  swap1\n  pop\n    /* \"#utility.yul\":7:133   */\n  swap2\n  swap1\n  pop\n  jump\t// out\n    /* \"#utility.yul\":139:235   */\ntag_14:\n    /* \"#utility.yul\":176:183   */\n  0x00\n    /* \"#utility.yul\":205:229   */\n  tag_19\n    /* \"#utility.yul\":223:228   */\n  dup3\n    /* \"#utility.yul\":205:229   */\n  tag_13\n  jump\t// in\ntag_19:\n    /* \"#utility.yul\":194:229   */\n  swap1\n  pop\n    /* \"#utility.yul\":139:235   */\n  swap2\n  swap1\n  pop\n  jump\t// out\n    /* \"#utility.yul\":241:359   */\ntag_15:\n    /* \"#utility.yul\":328:352   */\n  tag_21\n    /* \"#utility.yul\":346:351   */\n  dup2\n    /* \"#utility.yul\":328:352   */\n  tag_14\n  jump\t// in\ntag_21:\n    /* \"#utility.yul\":323:326   */\n  dup3\n    /* \"#utility.yul\":316:353   */\n  mstore\n    /* \"#utility.yul\":241:359   */\n  pop\n  pop\n  jump\t// out\n    /* \"#utility.yul\":365:587   */\ntag_7:\n    /* \"#utility.yul\":458:462   */\n  0x00\n    /* \"#utility.yul\":496:498   */\n  0x20\n    /* \"#utility.yul\":485:494   */\n  dup3\n    /* \"#utility.yul\":481:499   */\n  add\n    /* \"#utility.yul\":473:499   */\n  swap1\n  pop\n    /* \"#utility.yul\":509:580   */\n  tag_23\n    /* \"#utility.yul\":577:578   */\n  0x00\n    /* \"#utility.yul\":566:575   */\n  dup4\n    /* \"#utility.yul\":562:579   */\n  add\n    /* \"#utility.yul\":553:559   */\n  dup5\n    /* \"#utility.yul\":509:580   */\n  tag_15\n  jump\t// in\ntag_23:\n    /* \"#utility.yul\":365:587   */\n  swap3\n  swap2\n  pop\n  pop\n  jump\t// out\n    /* \"contracts/Security/33_gasLimit.sol\":115:4661  contract Voting is Ownable {... */\ntag_11:\n  dataSize(sub_0)\n  dup1\n  dataOffset(sub_0)\n  0x00\n  codecopy\n  0x00\n  return\nstop\n\nsub_0: assembly {\n        /* \"contracts/Security/33_gasLimit.sol\":115:4661  contract Voting is Ownable {... */\n      mstore(0x40, 0x80)\n      callvalue\n      dup1\n      iszero\n      tag_1\n      jumpi\n      revert(0x00, 0x00)\n    tag_1:\n      pop\n      jumpi(tag_2, lt(calldatasize, 0x04))\n      shr(0xe0, calldataload(0x00))\n      dup1\n      0xa7bfab16\n      gt\n      tag_17\n      jumpi\n      dup1\n      0xe2dd58c6\n      gt\n      tag_18\n      jumpi\n      dup1\n      0xe2dd58c6\n      eq\n      tag_13\n      jumpi\n      dup1\n      0xed8a1608\n      eq\n      tag_14\n      jumpi\n      dup1\n      0xee74c678\n      eq\n      tag_15\n      jumpi\n      dup1\n      0xf2fde38b\n      eq\n      tag_16\n      jumpi\n      jump(tag_2)\n    tag_18:\n      dup1\n      0xa7bfab16\n      eq\n      tag_10\n      jumpi\n      dup1\n      0xada7415f\n      eq\n      tag_11\n      jumpi\n      dup1\n      0xe09b8c79\n      eq\n      tag_12\n      jumpi\n      jump(tag_2)\n    tag_17:\n      dup1\n      0x715018a6\n      gt\n      tag_19\n      jumpi\n      dup1\n      0x715018a6\n      eq\n      tag_6\n      jumpi\n      dup1\n      0x8da5cb5b\n      eq\n      tag_7\n      jumpi\n      dup1\n      0x8e7ea5b2\n      eq\n      tag_8\n      jumpi\n      dup1\n      0xa1edffa2\n      eq\n      tag_9\n      jumpi\n      jump(tag_2)\n    tag_19:\n      dup1\n      0x0121b93f\n      eq\n      tag_3\n      jumpi\n      dup1\n      0x013cf08b\n      eq\n      tag_4\n      jumpi\n      dup1\n      0x6c297445\n      eq\n      tag_5\n      jumpi\n    tag_2:\n      revert(0x00, 0x00)\n        /* \"contracts/Security/33_gasLimit.sol\":3076:3538  function vote(uint256 proposalId)... */\n    tag_3:\n      tag_20\n      0x04\n      dup1\n      calldatasize\n      sub\n      dup2\n      add\n      swap1\n      tag_21\n      swap2\n      swap1\n      tag_22\n      jump\t// in\n    tag_21:\n      tag_23\n      jump\t// in\n    tag_20:\n      stop\n        /* \"contracts/Security/33_gasLimit.sol\":715:742  Proposal[] public proposals */\n    tag_4:\n      tag_24\n      0x04\n      dup1\n      calldatasize\n      sub\n      dup2\n      add\n      swap1\n      tag_25\n      swap2\n      swap1\n      tag_22\n      jump\t// in\n    tag_25:\n      tag_26\n      jump\t// in\n    tag_24:\n      mload(0x40)\n      tag_27\n      swap3\n      swap2\n      swap1\n      tag_28\n      jump\t// in\n    tag_27:\n      mload(0x40)\n      dup1\n      swap2\n      sub\n      swap1\n      return\n        /* \"contracts/Security/33_gasLimit.sol\":2348:2717  function endProposalsRegistration()... */\n    tag_5:\n      tag_29\n      tag_30\n      jump\t// in\n    tag_29:\n      stop\n        /* \"@openzeppelin/contracts/access/Ownable.sol\":2293:2394  function renounceOwnership() public virtual onlyOwner {... */\n    tag_6:\n      tag_31\n      tag_32\n      jump\t// in\n    tag_31:\n      stop\n        /* \"@openzeppelin/contracts/access/Ownable.sol\":1638:1723  function owner() public view virtual returns (address) {... */\n    tag_7:\n      tag_33\n      tag_34\n      jump\t// in\n    tag_33:\n      mload(0x40)\n      tag_35\n      swap2\n      swap1\n      tag_36\n      jump\t// in\n    tag_35:\n      mload(0x40)\n      dup1\n      swap2\n      sub\n      swap1\n      return\n        /* \"contracts/Security/33_gasLimit.sol\":4472:4659  function getWinner()... */\n    tag_8:\n      tag_37\n      tag_38\n      jump\t// in\n    tag_37:\n      mload(0x40)\n      tag_39\n      swap2\n      swap1\n      tag_40\n      jump\t// in\n    tag_39:\n      mload(0x40)\n      dup1\n      swap2\n      sub\n      swap1\n      return\n        /* \"contracts/Security/33_gasLimit.sol\":594:630  WorkflowStatus public workflowStatus */\n    tag_9:\n      tag_41\n      tag_42\n      jump\t// in\n    tag_41:\n      mload(0x40)\n      tag_43\n      swap2\n      swap1\n      tag_44\n      jump\t// in\n    tag_43:\n      mload(0x40)\n      dup1\n      swap2\n      sub\n      swap1\n      return\n        /* \"contracts/Security/33_gasLimit.sol\":3544:3873  function endVotingSession()... */\n    tag_10:\n      tag_45\n      tag_46\n      jump\t// in\n    tag_45:\n      stop\n        /* \"contracts/Security/33_gasLimit.sol\":3879:4466  function votesTallied()... */\n    tag_11:\n      tag_47\n      tag_48\n      jump\t// in\n    tag_47:\n      stop\n        /* \"contracts/Security/33_gasLimit.sol\":1579:1932  function startProposalsRegistration()... */\n    tag_12:\n      tag_49\n      tag_50\n      jump\t// in\n    tag_49:\n      stop\n        /* \"contracts/Security/33_gasLimit.sol\":1938:2342  function registerProposals(string memory proposalDescription)... */\n    tag_13:\n      tag_51\n      0x04\n      dup1\n      calldatasize\n      sub\n      dup2\n      add\n      swap1\n      tag_52\n      swap2\n      swap1\n      tag_53\n      jump\t// in\n    tag_52:\n      tag_54\n      jump\t// in\n    tag_51:\n      stop\n        /* \"contracts/Security/33_gasLimit.sol\":1206:1573  function registerVoters(address _voterAddress)... */\n    tag_14:\n      tag_55\n      0x04\n      dup1\n      calldatasize\n      sub\n      dup2\n      add\n      swap1\n      tag_56\n      swap2\n      swap1\n      tag_57\n      jump\t// in\n    tag_56:\n      tag_58\n      jump\t// in\n    tag_55:\n      stop\n        /* \"contracts/Security/33_gasLimit.sol\":2723:3070  function startVotingSession()... */\n    tag_15:\n      tag_59\n      tag_60\n      jump\t// in\n    tag_59:\n      stop\n        /* \"@openzeppelin/contracts/access/Ownable.sol\":2543:2758  function transferOwnership(address newOwner) public virtual onlyOwner {... */\n    tag_16:\n      tag_61\n      0x04\n      dup1\n      calldatasize\n      sub\n      dup2\n      add\n      swap1\n      tag_62\n      swap2\n      swap1\n      tag_57\n      jump\t// in\n    tag_62:\n      tag_63\n      jump\t// in\n    tag_61:\n      stop\n        /* \"contracts/Security/33_gasLimit.sol\":3076:3538  function vote(uint256 proposalId)... */\n    tag_23:\n        /* \"contracts/Security/33_gasLimit.sol\":3144:3179  WorkflowStatus.VotingSessionStarted */\n      0x03\n        /* \"contracts/Security/33_gasLimit.sol\":1105:1112  _status */\n      dup1\n        /* \"contracts/Security/33_gasLimit.sol\":1087:1112  workflowStatus == _status */\n      0x05\n      dup2\n      gt\n      iszero\n      tag_65\n      jumpi\n      tag_66\n      tag_67\n      jump\t// in\n    tag_66:\n    tag_65:\n        /* \"contracts/Security/33_gasLimit.sol\":1087:1101  workflowStatus */\n      0x00\n      0x14\n      swap1\n      sload\n      swap1\n      0x0100\n      exp\n      swap1\n      div\n      0xff\n      and\n        /* \"contracts/Security/33_gasLimit.sol\":1087:1112  workflowStatus == _status */\n      0x05\n      dup2\n      gt\n      iszero\n      tag_68\n      jumpi\n      tag_69\n      tag_67\n      jump\t// in\n    tag_69:\n    tag_68:\n      eq\n        /* \"contracts/Security/33_gasLimit.sol\":1066:1182  require(... */\n      tag_70\n      jumpi\n      mload(0x40)\n      0x08c379a000000000000000000000000000000000000000000000000000000000\n      dup2\n      mstore\n      0x04\n      add\n      tag_71\n      swap1\n      tag_72\n      jump\t// in\n    tag_71:\n      mload(0x40)\n      dup1\n      swap2\n      sub\n      swap1\n      revert\n    tag_70:\n        /* \"contracts/Security/33_gasLimit.sol\":3203:3209  voters */\n      0x02\n        /* \"contracts/Security/33_gasLimit.sol\":3203:3221  voters[msg.sender] */\n      0x00\n        /* \"contracts/Security/33_gasLimit.sol\":3210:3220  msg.sender */\n      caller\n        /* \"contracts/Security/33_gasLimit.sol\":3203:3221  voters[msg.sender] */\n      0xffffffffffffffffffffffffffffffffffffffff\n      and\n      0xffffffffffffffffffffffffffffffffffffffff\n      and\n      dup2\n      mstore\n      0x20\n      add\n      swap1\n      dup2\n      mstore\n      0x20\n      add\n      0x00\n      keccak256\n        /* \"contracts/Security/33_gasLimit.sol\":3203:3234  voters[msg.sender].isRegistered */\n      0x00\n      add\n      0x00\n      swap1\n      sload\n      swap1\n      0x0100\n      exp\n      swap1\n      div\n      0xff\n      and\n        /* \"contracts/Security/33_gasLimit.sol\":3195:3266  require(voters[msg.sender].isRegistered, \"You are not allowed to vote\") */\n      tag_74\n      jumpi\n      mload(0x40)\n      0x08c379a000000000000000000000000000000000000000000000000000000000\n      dup2\n      mstore\n      0x04\n      add\n      tag_75\n      swap1\n      tag_76\n      jump\t// in\n    tag_75:\n      mload(0x40)\n      dup1\n      swap2\n      sub\n      swap1\n      revert\n    tag_74:\n        /* \"contracts/Security/33_gasLimit.sol\":3285:3291  voters */\n      0x02\n        /* \"contracts/Security/33_gasLimit.sol\":3285:3303  voters[msg.sender] */\n      0x00\n        /* \"contracts/Security/33_gasLimit.sol\":3292:3302  msg.sender */\n      caller\n        /* \"contracts/Security/33_gasLimit.sol\":3285:3303  voters[msg.sender] */\n      0xffffffffffffffffffffffffffffffffffffffff\n      and\n      0xffffffffffffffffffffffffffffffffffffffff\n      and\n      dup2\n      mstore\n      0x20\n      add\n      swap1\n      dup2\n      mstore\n      0x20\n      add\n      0x00\n      keccak256\n        /* \"contracts/Security/33_gasLimit.sol\":3285:3312  voters[msg.sender].hasVoted */\n      0x00\n      add\n      0x01\n      swap1\n      sload\n      swap1\n      0x0100\n      exp\n      swap1\n      div\n      0xff\n      and\n        /* \"contracts/Security/33_gasLimit.sol\":3284:3312  !voters[msg.sender].hasVoted */\n      iszero\n        /* \"contracts/Security/33_gasLimit.sol\":3276:3339  require(!voters[msg.sender].hasVoted, \"You have already voted\") */\n      tag_77\n      jumpi\n      mload(0x40)\n      0x08c379a000000000000000000000000000000000000000000000000000000000\n      dup2\n      mstore\n      0x04\n      add\n      tag_78\n      swap1\n      tag_79\n      jump\t// in\n    tag_78:\n      mload(0x40)\n      dup1\n      swap2\n      sub\n      swap1\n      revert\n    tag_77:\n        /* \"contracts/Security/33_gasLimit.sol\":3384:3385  1 */\n      0x01\n        /* \"contracts/Security/33_gasLimit.sol\":3349:3358  proposals */\n      0x03\n        /* \"contracts/Security/33_gasLimit.sol\":3359:3369  proposalId */\n      dup4\n        /* \"contracts/Security/33_gasLimit.sol\":3349:3370  proposals[proposalId] */\n      dup2\n      sload\n      dup2\n      lt\n      tag_80\n      jumpi\n      tag_81\n      tag_82\n      jump\t// in\n    tag_81:\n    tag_80:\n      swap1\n      0x00\n      mstore\n      keccak256(0x00, 0x20)\n      swap1\n      0x02\n      mul\n      add\n        /* \"contracts/Security/33_gasLimit.sol\":3349:3380  proposals[proposalId].voteCount */\n      0x01\n      add\n      0x00\n        /* \"contracts/Security/33_gasLimit.sol\":3349:3385  proposals[proposalId].voteCount += 1 */\n      dup3\n      dup3\n      sload\n      tag_84\n      swap2\n      swap1\n      tag_85\n      jump\t// in\n    tag_84:\n      swap3\n      pop\n      pop\n      dup2\n      swap1\n      sstore\n      pop\n        /* \"contracts/Security/33_gasLimit.sol\":3425:3429  true */\n      0x01\n        /* \"contracts/Security/33_gasLimit.sol\":3395:3401  voters */\n      0x02\n        /* \"contracts/Security/33_gasLimit.sol\":3395:3413  voters[msg.sender] */\n      0x00\n        /* \"contracts/Security/33_gasLimit.sol\":3402:3412  msg.sender */\n      caller\n        /* \"contracts/Security/33_gasLimit.sol\":3395:3413  voters[msg.sender] */\n      0xffffffffffffffffffffffffffffffffffffffff\n      and\n      0xffffffffffffffffffffffffffffffffffffffff\n      and\n      dup2\n      mstore\n      0x20\n      add\n      swap1\n      dup2\n      mstore\n      0x20\n      add\n      0x00\n      keccak256\n        /* \"contracts/Security/33_gasLimit.sol\":3395:3422  voters[msg.sender].hasVoted */\n      0x00\n      add\n      0x01\n        /* \"contracts/Security/33_gasLimit.sol\":3395:3429  voters[msg.sender].hasVoted = true */\n      0x0100\n      exp\n      dup2\n      sload\n      dup2\n      0xff\n      mul\n      not\n      and\n      swap1\n      dup4\n      iszero\n      iszero\n      mul\n      or\n      swap1\n      sstore\n      pop\n        /* \"contracts/Security/33_gasLimit.sol\":3476:3486  proposalId */\n      dup2\n        /* \"contracts/Security/33_gasLimit.sol\":3439:3445  voters */\n      0x02\n        /* \"contracts/Security/33_gasLimit.sol\":3439:3457  voters[msg.sender] */\n      0x00\n        /* \"contracts/Security/33_gasLimit.sol\":3446:3456  msg.sender */\n      caller\n        /* \"contracts/Security/33_gasLimit.sol\":3439:3457  voters[msg.sender] */\n      0xffffffffffffffffffffffffffffffffffffffff\n      and\n      0xffffffffffffffffffffffffffffffffffffffff\n      and\n      dup2\n      mstore\n      0x20\n      add\n      swap1\n      dup2\n      mstore\n      0x20\n      add\n      0x00\n      keccak256\n        /* \"contracts/Security/33_gasLimit.sol\":3439:3473  voters[msg.sender].votedProposalId */\n      0x01\n      add\n        /* \"contracts/Security/33_gasLimit.sol\":3439:3486  voters[msg.sender].votedProposalId = proposalId */\n      dup2\n      swap1\n      sstore\n      pop\n        /* \"contracts/Security/33_gasLimit.sol\":3502:3531  Voted(msg.sender, proposalId) */\n      0x4d99b957a2bc29a30ebd96a7be8e68fe50a3c701db28a91436490b7d53870ca4\n        /* \"contracts/Security/33_gasLimit.sol\":3508:3518  msg.sender */\n      caller\n        /* \"contracts/Security/33_gasLimit.sol\":3520:3530  proposalId */\n      dup4\n        /* \"contracts/Security/33_gasLimit.sol\":3502:3531  Voted(msg.sender, proposalId) */\n      mload(0x40)\n      tag_86\n      swap3\n      swap2\n      swap1\n      tag_87\n      jump\t// in\n    tag_86:\n      mload(0x40)\n      dup1\n      swap2\n      sub\n      swap1\n      log1\n        /* \"contracts/Security/33_gasLimit.sol\":3076:3538  function vote(uint256 proposalId)... */\n      pop\n      pop\n      jump\t// out\n        /* \"contracts/Security/33_gasLimit.sol\":715:742  Proposal[] public proposals */\n    tag_26:\n      0x03\n      dup2\n      dup2\n      sload\n      dup2\n      lt\n      tag_88\n      jumpi\n      0x00\n      dup1\n      revert\n    tag_88:\n      swap1\n      0x00\n      mstore\n      keccak256(0x00, 0x20)\n      swap1\n      0x02\n      mul\n      add\n      0x00\n      swap2\n      pop\n      swap1\n      pop\n      dup1\n      0x00\n      add\n      dup1\n      sload\n      tag_90\n      swap1\n      tag_91\n      jump\t// in\n    tag_90:\n      dup1\n      0x1f\n      add\n      0x20\n      dup1\n      swap2\n      div\n      mul\n      0x20\n      add\n      mload(0x40)\n      swap1\n      dup2\n      add\n      0x40\n      mstore\n      dup1\n      swap3\n      swap2\n      swap1\n      dup2\n      dup2\n      mstore\n      0x20\n      add\n      dup3\n      dup1\n      sload\n      tag_92\n      swap1\n      tag_91\n      jump\t// in\n    tag_92:\n      dup1\n      iszero\n      tag_93\n      jumpi\n      dup1\n      0x1f\n      lt\n      tag_94\n      jumpi\n      0x0100\n      dup1\n      dup4\n      sload\n      div\n      mul\n      dup4\n      mstore\n      swap2\n      0x20\n      add\n      swap2\n      jump(tag_93)\n    tag_94:\n      dup3\n      add\n      swap2\n      swap1\n      0x00\n      mstore\n      keccak256(0x00, 0x20)\n      swap1\n    tag_95:\n      dup2\n      sload\n      dup2\n      mstore\n      swap1\n      0x01\n      add\n      swap1\n      0x20\n      add\n      dup1\n      dup4\n      gt\n      tag_95\n      jumpi\n      dup3\n      swap1\n      sub\n      0x1f\n      and\n      dup3\n      add\n      swap2\n    tag_93:\n      pop\n      pop\n      pop\n      pop\n      pop\n      swap1\n      dup1\n      0x01\n      add\n      sload\n      swap1\n      pop\n      dup3\n      jump\t// out\n        /* \"contracts/Security/33_gasLimit.sol\":2348:2717  function endProposalsRegistration()... */\n    tag_30:\n        /* \"contracts/Security/33_gasLimit.sol\":2418:2461  WorkflowStatus.ProposalsRegistrationStarted */\n      0x01\n        /* \"contracts/Security/33_gasLimit.sol\":1105:1112  _status */\n      dup1\n        /* \"contracts/Security/33_gasLimit.sol\":1087:1112  workflowStatus == _status */\n      0x05\n      dup2\n      gt\n      iszero\n      tag_97\n      jumpi\n      tag_98\n      tag_67\n      jump\t// in\n    tag_98:\n    tag_97:\n        /* \"contracts/Security/33_gasLimit.sol\":1087:1101  workflowStatus */\n      0x00\n      0x14\n      swap1\n      sload\n      swap1\n      0x0100\n      exp\n      swap1\n      div\n      0xff\n      and\n        /* \"contracts/Security/33_gasLimit.sol\":1087:1112  workflowStatus == _status */\n      0x05\n      dup2\n      gt\n      iszero\n      tag_99\n      jumpi\n      tag_100\n      tag_67\n      jump\t// in\n    tag_100:\n    tag_99:\n      eq\n        /* \"contracts/Security/33_gasLimit.sol\":1066:1182  require(... */\n      tag_101\n      jumpi\n      mload(0x40)\n      0x08c379a000000000000000000000000000000000000000000000000000000000\n      dup2\n      mstore\n      0x04\n      add\n      tag_102\n      swap1\n      tag_72\n      jump\t// in\n    tag_102:\n      mload(0x40)\n      dup1\n      swap2\n      sub\n      swap1\n      revert\n    tag_101:\n        /* \"@openzeppelin/contracts/access/Ownable.sol\":1531:1544  _checkOwner() */\n      tag_104\n        /* \"@openzeppelin/contracts/access/Ownable.sol\":1531:1542  _checkOwner */\n      tag_105\n        /* \"@openzeppelin/contracts/access/Ownable.sol\":1531:1544  _checkOwner() */\n      jump\t// in\n    tag_104:\n        /* \"contracts/Security/33_gasLimit.sol\":2512:2553  WorkflowStatus.ProposalsRegistrationEnded */\n      0x02\n        /* \"contracts/Security/33_gasLimit.sol\":2495:2509  workflowStatus */\n      0x00\n      0x14\n        /* \"contracts/Security/33_gasLimit.sol\":2495:2553  workflowStatus = WorkflowStatus.ProposalsRegistrationEnded */\n      0x0100\n      exp\n      dup2\n      sload\n      dup2\n      0xff\n      mul\n      not\n      and\n      swap1\n      dup4\n      0x05\n      dup2\n      gt\n      iszero\n      tag_107\n      jumpi\n      tag_108\n      tag_67\n      jump\t// in\n    tag_108:\n    tag_107:\n      mul\n      or\n      swap1\n      sstore\n      pop\n        /* \"contracts/Security/33_gasLimit.sol\":2568:2710  WorkflowStatusChange(... */\n      0x0a97a4ee45751e2abf3e4fc8946939630b11b371ea8ae39ccdc3056e98f5cc3f\n        /* \"contracts/Security/33_gasLimit.sol\":2602:2645  WorkflowStatus.ProposalsRegistrationStarted */\n      0x01\n        /* \"contracts/Security/33_gasLimit.sol\":2659:2700  WorkflowStatus.ProposalsRegistrationEnded */\n      0x02\n        /* \"contracts/Security/33_gasLimit.sol\":2568:2710  WorkflowStatusChange(... */\n      mload(0x40)\n      tag_109\n      swap3\n      swap2\n      swap1\n      tag_110\n      jump\t// in\n    tag_109:\n      mload(0x40)\n      dup1\n      swap2\n      sub\n      swap1\n      log1\n        /* \"contracts/Security/33_gasLimit.sol\":2348:2717  function endProposalsRegistration()... */\n      pop\n      jump\t// out\n        /* \"@openzeppelin/contracts/access/Ownable.sol\":2293:2394  function renounceOwnership() public virtual onlyOwner {... */\n    tag_32:\n        /* \"@openzeppelin/contracts/access/Ownable.sol\":1531:1544  _checkOwner() */\n      tag_112\n        /* \"@openzeppelin/contracts/access/Ownable.sol\":1531:1542  _checkOwner */\n      tag_105\n        /* \"@openzeppelin/contracts/access/Ownable.sol\":1531:1544  _checkOwner() */\n      jump\t// in\n    tag_112:\n        /* \"@openzeppelin/contracts/access/Ownable.sol\":2357:2387  _transferOwnership(address(0)) */\n      tag_114\n        /* \"@openzeppelin/contracts/access/Ownable.sol\":2384:2385  0 */\n      0x00\n        /* \"@openzeppelin/contracts/access/Ownable.sol\":2357:2375  _transferOwnership */\n      tag_115\n        /* \"@openzeppelin/contracts/access/Ownable.sol\":2357:2387  _transferOwnership(address(0)) */\n      jump\t// in\n    tag_114:\n        /* \"@openzeppelin/contracts/access/Ownable.sol\":2293:2394  function renounceOwnership() public virtual onlyOwner {... */\n      jump\t// out\n        /* \"@openzeppelin/contracts/access/Ownable.sol\":1638:1723  function owner() public view virtual returns (address) {... */\n    tag_34:\n        /* \"@openzeppelin/contracts/access/Ownable.sol\":1684:1691  address */\n      0x00\n        /* \"@openzeppelin/contracts/access/Ownable.sol\":1710:1716  _owner */\n      0x00\n      0x00\n      swap1\n      sload\n      swap1\n      0x0100\n      exp\n      swap1\n      div\n      0xffffffffffffffffffffffffffffffffffffffff\n      and\n        /* \"@openzeppelin/contracts/access/Ownable.sol\":1703:1716  return _owner */\n      swap1\n      pop\n        /* \"@openzeppelin/contracts/access/Ownable.sol\":1638:1723  function owner() public view virtual returns (address) {... */\n      swap1\n      jump\t// out\n        /* \"contracts/Security/33_gasLimit.sol\":4472:4659  function getWinner()... */\n    tag_38:\n        /* \"contracts/Security/33_gasLimit.sol\":4586:4601  Proposal memory */\n      tag_117\n      tag_118\n      jump\t// in\n    tag_117:\n        /* \"contracts/Security/33_gasLimit.sol\":4540:4567  WorkflowStatus.VotesTallied */\n      0x05\n        /* \"contracts/Security/33_gasLimit.sol\":1105:1112  _status */\n      dup1\n        /* \"contracts/Security/33_gasLimit.sol\":1087:1112  workflowStatus == _status */\n      0x05\n      dup2\n      gt\n      iszero\n      tag_120\n      jumpi\n      tag_121\n      tag_67\n      jump\t// in\n    tag_121:\n    tag_120:\n        /* \"contracts/Security/33_gasLimit.sol\":1087:1101  workflowStatus */\n      0x00\n      0x14\n      swap1\n      sload\n      swap1\n      0x0100\n      exp\n      swap1\n      div\n      0xff\n      and\n        /* \"contracts/Security/33_gasLimit.sol\":1087:1112  workflowStatus == _status */\n      0x05\n      dup2\n      gt\n      iszero\n      tag_122\n      jumpi\n      tag_123\n      tag_67\n      jump\t// in\n    tag_123:\n    tag_122:\n      eq\n        /* \"contracts/Security/33_gasLimit.sol\":1066:1182  require(... */\n      tag_124\n      jumpi\n      mload(0x40)\n      0x08c379a000000000000000000000000000000000000000000000000000000000\n      dup2\n      mstore\n      0x04\n      add\n      tag_125\n      swap1\n      tag_72\n      jump\t// in\n    tag_125:\n      mload(0x40)\n      dup1\n      swap2\n      sub\n      swap1\n      revert\n    tag_124:\n        /* \"contracts/Security/33_gasLimit.sol\":4624:4633  proposals */\n      0x03\n        /* \"contracts/Security/33_gasLimit.sol\":4634:4651  winningProposalId */\n      sload(0x01)\n        /* \"contracts/Security/33_gasLimit.sol\":4624:4652  proposals[winningProposalId] */\n      dup2\n      sload\n      dup2\n      lt\n      tag_127\n      jumpi\n      tag_128\n      tag_82\n      jump\t// in\n    tag_128:\n    tag_127:\n      swap1\n      0x00\n      mstore\n      keccak256(0x00, 0x20)\n      swap1\n      0x02\n      mul\n      add\n        /* \"contracts/Security/33_gasLimit.sol\":4617:4652  return proposals[winningProposalId] */\n      mload(0x40)\n      dup1\n      0x40\n      add\n      0x40\n      mstore\n      swap1\n      dup2\n      0x00\n      dup3\n      add\n      dup1\n      sload\n      tag_130\n      swap1\n      tag_91\n      jump\t// in\n    tag_130:\n      dup1\n      0x1f\n      add\n      0x20\n      dup1\n      swap2\n      div\n      mul\n      0x20\n      add\n      mload(0x40)\n      swap1\n      dup2\n      add\n      0x40\n      mstore\n      dup1\n      swap3\n      swap2\n      swap1\n      dup2\n      dup2\n      mstore\n      0x20\n      add\n      dup3\n      dup1\n      sload\n      tag_131\n      swap1\n      tag_91\n      jump\t// in\n    tag_131:\n      dup1\n      iszero\n      tag_132\n      jumpi\n      dup1\n      0x1f\n      lt\n      tag_133\n      jumpi\n      0x0100\n      dup1\n      dup4\n      sload\n      div\n      mul\n      dup4\n      mstore\n      swap2\n      0x20\n      add\n      swap2\n      jump(tag_132)\n    tag_133:\n      dup3\n      add\n      swap2\n      swap1\n      0x00\n      mstore\n      keccak256(0x00, 0x20)\n      swap1\n    tag_134:\n      dup2\n      sload\n      dup2\n      mstore\n      swap1\n      0x01\n      add\n      swap1\n      0x20\n      add\n      dup1\n      dup4\n      gt\n      tag_134\n      jumpi\n      dup3\n      swap1\n      sub\n      0x1f\n      and\n      dup3\n      add\n      swap2\n    tag_132:\n      pop\n      pop\n      pop\n      pop\n      pop\n      dup2\n      mstore\n      0x20\n      add\n      0x01\n      dup3\n      add\n      sload\n      dup2\n      mstore\n      pop\n      pop\n      swap2\n      pop\n        /* \"contracts/Security/33_gasLimit.sol\":4472:4659  function getWinner()... */\n      pop\n      swap1\n      jump\t// out\n        /* \"contracts/Security/33_gasLimit.sol\":594:630  WorkflowStatus public workflowStatus */\n    tag_42:\n      0x00\n      0x14\n      swap1\n      sload\n      swap1\n      0x0100\n      exp\n      swap1\n      div\n      0xff\n      and\n      dup2\n      jump\t// out\n        /* \"contracts/Security/33_gasLimit.sol\":3544:3873  function endVotingSession()... */\n    tag_46:\n        /* \"contracts/Security/33_gasLimit.sol\":3606:3641  WorkflowStatus.VotingSessionStarted */\n      0x03\n        /* \"contracts/Security/33_gasLimit.sol\":1105:1112  _status */\n      dup1\n        /* \"contracts/Security/33_gasLimit.sol\":1087:1112  workflowStatus == _status */\n      0x05\n      dup2\n      gt\n      iszero\n      tag_136\n      jumpi\n      tag_137\n      tag_67\n      jump\t// in\n    tag_137:\n    tag_136:\n        /* \"contracts/Security/33_gasLimit.sol\":1087:1101  workflowStatus */\n      0x00\n      0x14\n      swap1\n      sload\n      swap1\n      0x0100\n      exp\n      swap1\n      div\n      0xff\n      and\n        /* \"contracts/Security/33_gasLimit.sol\":1087:1112  workflowStatus == _status */\n      0x05\n      dup2\n      gt\n      iszero\n      tag_138\n      jumpi\n      tag_139\n      tag_67\n      jump\t// in\n    tag_139:\n    tag_138:\n      eq\n        /* \"contracts/Security/33_gasLimit.sol\":1066:1182  require(... */\n      tag_140\n      jumpi\n      mload(0x40)\n      0x08c379a000000000000000000000000000000000000000000000000000000000\n      dup2\n      mstore\n      0x04\n      add\n      tag_141\n      swap1\n      tag_72\n      jump\t// in\n    tag_141:\n      mload(0x40)\n      dup1\n      swap2\n      sub\n      swap1\n      revert\n    tag_140:\n        /* \"@openzeppelin/contracts/access/Ownable.sol\":1531:1544  _checkOwner() */\n      tag_143\n        /* \"@openzeppelin/contracts/access/Ownable.sol\":1531:1542  _checkOwner */\n      tag_105\n        /* \"@openzeppelin/contracts/access/Ownable.sol\":1531:1544  _checkOwner() */\n      jump\t// in\n    tag_143:\n        /* \"contracts/Security/33_gasLimit.sol\":3692:3725  WorkflowStatus.VotingSessionEnded */\n      0x04\n        /* \"contracts/Security/33_gasLimit.sol\":3675:3689  workflowStatus */\n      0x00\n      0x14\n        /* \"contracts/Security/33_gasLimit.sol\":3675:3725  workflowStatus = WorkflowStatus.VotingSessionEnded */\n      0x0100\n      exp\n      dup2\n      sload\n      dup2\n      0xff\n      mul\n      not\n      and\n      swap1\n      dup4\n      0x05\n      dup2\n      gt\n      iszero\n      tag_145\n      jumpi\n      tag_146\n      tag_67\n      jump\t// in\n    tag_146:\n    tag_145:\n      mul\n      or\n      swap1\n      sstore\n      pop\n        /* \"contracts/Security/33_gasLimit.sol\":3740:3866  WorkflowStatusChange(... */\n      0x0a97a4ee45751e2abf3e4fc8946939630b11b371ea8ae39ccdc3056e98f5cc3f\n        /* \"contracts/Security/33_gasLimit.sol\":3774:3809  WorkflowStatus.VotingSessionStarted */\n      0x03\n        /* \"contracts/Security/33_gasLimit.sol\":3823:3856  WorkflowStatus.VotingSessionEnded */\n      0x04\n        /* \"contracts/Security/33_gasLimit.sol\":3740:3866  WorkflowStatusChange(... */\n      mload(0x40)\n      tag_147\n      swap3\n      swap2\n      swap1\n      tag_110\n      jump\t// in\n    tag_147:\n      mload(0x40)\n      dup1\n      swap2\n      sub\n      swap1\n      log1\n        /* \"contracts/Security/33_gasLimit.sol\":3544:3873  function endVotingSession()... */\n      pop\n      jump\t// out\n        /* \"contracts/Security/33_gasLimit.sol\":3879:4466  function votesTallied()... */\n    tag_48:\n        /* \"contracts/Security/33_gasLimit.sol\":3937:3970  WorkflowStatus.VotingSessionEnded */\n      0x04\n        /* \"contracts/Security/33_gasLimit.sol\":1105:1112  _status */\n      dup1\n        /* \"contracts/Security/33_gasLimit.sol\":1087:1112  workflowStatus == _status */\n      0x05\n      dup2\n      gt\n      iszero\n      tag_149\n      jumpi\n      tag_150\n      tag_67\n      jump\t// in\n    tag_150:\n    tag_149:\n        /* \"contracts/Security/33_gasLimit.sol\":1087:1101  workflowStatus */\n      0x00\n      0x14\n      swap1\n      sload\n      swap1\n      0x0100\n      exp\n      swap1\n      div\n      0xff\n      and\n        /* \"contracts/Security/33_gasLimit.sol\":1087:1112  workflowStatus == _status */\n      0x05\n      dup2\n      gt\n      iszero\n      tag_151\n      jumpi\n      tag_152\n      tag_67\n      jump\t// in\n    tag_152:\n    tag_151:\n      eq\n        /* \"contracts/Security/33_gasLimit.sol\":1066:1182  require(... */\n      tag_153\n      jumpi\n      mload(0x40)\n      0x08c379a000000000000000000000000000000000000000000000000000000000\n      dup2\n      mstore\n      0x04\n      add\n      tag_154\n      swap1\n      tag_72\n      jump\t// in\n    tag_154:\n      mload(0x40)\n      dup1\n      swap2\n      sub\n      swap1\n      revert\n    tag_153:\n        /* \"@openzeppelin/contracts/access/Ownable.sol\":1531:1544  _checkOwner() */\n      tag_156\n        /* \"@openzeppelin/contracts/access/Ownable.sol\":1531:1542  _checkOwner */\n      tag_105\n        /* \"@openzeppelin/contracts/access/Ownable.sol\":1531:1544  _checkOwner() */\n      jump\t// in\n    tag_156:\n        /* \"contracts/Security/33_gasLimit.sol\":4004:4028  uint256 winningVoteCount */\n      0x00\n        /* \"contracts/Security/33_gasLimit.sol\":4031:4032  0 */\n      0x00\n        /* \"contracts/Security/33_gasLimit.sol\":4004:4032  uint256 winningVoteCount = 0 */\n      swap1\n      pop\n        /* \"contracts/Security/33_gasLimit.sol\":4047:4056  uint256 p */\n      0x00\n        /* \"contracts/Security/33_gasLimit.sol\":4059:4060  0 */\n      0x00\n        /* \"contracts/Security/33_gasLimit.sol\":4047:4060  uint256 p = 0 */\n      swap1\n      pop\n        /* \"contracts/Security/33_gasLimit.sol\":4042:4273  for (uint256 p = 0; p < proposals.length; p++) {... */\n    tag_158:\n        /* \"contracts/Security/33_gasLimit.sol\":4066:4075  proposals */\n      0x03\n        /* \"contracts/Security/33_gasLimit.sol\":4066:4082  proposals.length */\n      dup1\n      sload\n      swap1\n      pop\n        /* \"contracts/Security/33_gasLimit.sol\":4062:4063  p */\n      dup2\n        /* \"contracts/Security/33_gasLimit.sol\":4062:4082  p < proposals.length */\n      lt\n        /* \"contracts/Security/33_gasLimit.sol\":4042:4273  for (uint256 p = 0; p < proposals.length; p++) {... */\n      iszero\n      tag_159\n      jumpi\n        /* \"contracts/Security/33_gasLimit.sol\":4132:4148  winningVoteCount */\n      dup2\n        /* \"contracts/Security/33_gasLimit.sol\":4107:4116  proposals */\n      0x03\n        /* \"contracts/Security/33_gasLimit.sol\":4117:4118  p */\n      dup3\n        /* \"contracts/Security/33_gasLimit.sol\":4107:4119  proposals[p] */\n      dup2\n      sload\n      dup2\n      lt\n      tag_161\n      jumpi\n      tag_162\n      tag_82\n      jump\t// in\n    tag_162:\n    tag_161:\n      swap1\n      0x00\n      mstore\n      keccak256(0x00, 0x20)\n      swap1\n      0x02\n      mul\n      add\n        /* \"contracts/Security/33_gasLimit.sol\":4107:4129  proposals[p].voteCount */\n      0x01\n      add\n      sload\n        /* \"contracts/Security/33_gasLimit.sol\":4107:4148  proposals[p].voteCount > winningVoteCount */\n      gt\n        /* \"contracts/Security/33_gasLimit.sol\":4103:4263  if (proposals[p].voteCount > winningVoteCount) {... */\n      iszero\n      tag_164\n      jumpi\n        /* \"contracts/Security/33_gasLimit.sol\":4187:4196  proposals */\n      0x03\n        /* \"contracts/Security/33_gasLimit.sol\":4197:4198  p */\n      dup2\n        /* \"contracts/Security/33_gasLimit.sol\":4187:4199  proposals[p] */\n      dup2\n      sload\n      dup2\n      lt\n      tag_165\n      jumpi\n      tag_166\n      tag_82\n      jump\t// in\n    tag_166:\n    tag_165:\n      swap1\n      0x00\n      mstore\n      keccak256(0x00, 0x20)\n      swap1\n      0x02\n      mul\n      add\n        /* \"contracts/Security/33_gasLimit.sol\":4187:4209  proposals[p].voteCount */\n      0x01\n      add\n      sload\n        /* \"contracts/Security/33_gasLimit.sol\":4168:4209  winningVoteCount = proposals[p].voteCount */\n      swap2\n      pop\n        /* \"contracts/Security/33_gasLimit.sol\":4247:4248  p */\n      dup1\n        /* \"contracts/Security/33_gasLimit.sol\":4227:4244  winningProposalId */\n      0x01\n        /* \"contracts/Security/33_gasLimit.sol\":4227:4248  winningProposalId = p */\n      dup2\n      swap1\n      sstore\n      pop\n        /* \"contracts/Security/33_gasLimit.sol\":4103:4263  if (proposals[p].voteCount > winningVoteCount) {... */\n    tag_164:\n        /* \"contracts/Security/33_gasLimit.sol\":4084:4087  p++ */\n      dup1\n      dup1\n      0x01\n      add\n      swap2\n      pop\n      pop\n        /* \"contracts/Security/33_gasLimit.sol\":4042:4273  for (uint256 p = 0; p < proposals.length; p++) {... */\n      jump(tag_158)\n    tag_159:\n      pop\n        /* \"contracts/Security/33_gasLimit.sol\":4299:4326  WorkflowStatus.VotesTallied */\n      0x05\n        /* \"contracts/Security/33_gasLimit.sol\":4282:4296  workflowStatus */\n      0x00\n      0x14\n        /* \"contracts/Security/33_gasLimit.sol\":4282:4326  workflowStatus = WorkflowStatus.VotesTallied */\n      0x0100\n      exp\n      dup2\n      sload\n      dup2\n      0xff\n      mul\n      not\n      and\n      swap1\n      dup4\n      0x05\n      dup2\n      gt\n      iszero\n      tag_168\n      jumpi\n      tag_169\n      tag_67\n      jump\t// in\n    tag_169:\n    tag_168:\n      mul\n      or\n      swap1\n      sstore\n      pop\n        /* \"contracts/Security/33_gasLimit.sol\":4341:4459  WorkflowStatusChange(... */\n      0x0a97a4ee45751e2abf3e4fc8946939630b11b371ea8ae39ccdc3056e98f5cc3f\n        /* \"contracts/Security/33_gasLimit.sol\":4375:4408  WorkflowStatus.VotingSessionEnded */\n      0x04\n        /* \"contracts/Security/33_gasLimit.sol\":4422:4449  WorkflowStatus.VotesTallied */\n      0x05\n        /* \"contracts/Security/33_gasLimit.sol\":4341:4459  WorkflowStatusChange(... */\n      mload(0x40)\n      tag_170\n      swap3\n      swap2\n      swap1\n      tag_110\n      jump\t// in\n    tag_170:\n      mload(0x40)\n      dup1\n      swap2\n      sub\n      swap1\n      log1\n        /* \"contracts/Security/33_gasLimit.sol\":3994:4466  {... */\n      pop\n        /* \"contracts/Security/33_gasLimit.sol\":3879:4466  function votesTallied()... */\n      pop\n      jump\t// out\n        /* \"contracts/Security/33_gasLimit.sol\":1579:1932  function startProposalsRegistration()... */\n    tag_50:\n        /* \"contracts/Security/33_gasLimit.sol\":1651:1683  WorkflowStatus.RegisteringVoters */\n      0x00\n        /* \"contracts/Security/33_gasLimit.sol\":1105:1112  _status */\n      dup1\n        /* \"contracts/Security/33_gasLimit.sol\":1087:1112  workflowStatus == _status */\n      0x05\n      dup2\n      gt\n      iszero\n      tag_172\n      jumpi\n      tag_173\n      tag_67\n      jump\t// in\n    tag_173:\n    tag_172:\n        /* \"contracts/Security/33_gasLimit.sol\":1087:1101  workflowStatus */\n      0x00\n      0x14\n      swap1\n      sload\n      swap1\n      0x0100\n      exp\n      swap1\n      div\n      0xff\n      and\n        /* \"contracts/Security/33_gasLimit.sol\":1087:1112  workflowStatus == _status */\n      0x05\n      dup2\n      gt\n      iszero\n      tag_174\n      jumpi\n      tag_175\n      tag_67\n      jump\t// in\n    tag_175:\n    tag_174:\n      eq\n        /* \"contracts/Security/33_gasLimit.sol\":1066:1182  require(... */\n      tag_176\n      jumpi\n      mload(0x40)\n      0x08c379a000000000000000000000000000000000000000000000000000000000\n      dup2\n      mstore\n      0x04\n      add\n      tag_177\n      swap1\n      tag_72\n      jump\t// in\n    tag_177:\n      mload(0x40)\n      dup1\n      swap2\n      sub\n      swap1\n      revert\n    tag_176:\n        /* \"@openzeppelin/contracts/access/Ownable.sol\":1531:1544  _checkOwner() */\n      tag_179\n        /* \"@openzeppelin/contracts/access/Ownable.sol\":1531:1542  _checkOwner */\n      tag_105\n        /* \"@openzeppelin/contracts/access/Ownable.sol\":1531:1544  _checkOwner() */\n      jump\t// in\n    tag_179:\n        /* \"contracts/Security/33_gasLimit.sol\":1734:1777  WorkflowStatus.ProposalsRegistrationStarted */\n      0x01\n        /* \"contracts/Security/33_gasLimit.sol\":1717:1731  workflowStatus */\n      0x00\n      0x14\n        /* \"contracts/Security/33_gasLimit.sol\":1717:1777  workflowStatus = WorkflowStatus.ProposalsRegistrationStarted */\n      0x0100\n      exp\n      dup2\n      sload\n      dup2\n      0xff\n      mul\n      not\n      and\n      swap1\n      dup4\n      0x05\n      dup2\n      gt\n      iszero\n      tag_181\n      jumpi\n      tag_182\n      tag_67\n      jump\t// in\n    tag_182:\n    tag_181:\n      mul\n      or\n      swap1\n      sstore\n      pop\n        /* \"contracts/Security/33_gasLimit.sol\":1792:1925  WorkflowStatusChange(... */\n      0x0a97a4ee45751e2abf3e4fc8946939630b11b371ea8ae39ccdc3056e98f5cc3f\n        /* \"contracts/Security/33_gasLimit.sol\":1826:1858  WorkflowStatus.RegisteringVoters */\n      0x00\n        /* \"contracts/Security/33_gasLimit.sol\":1872:1915  WorkflowStatus.ProposalsRegistrationStarted */\n      0x01\n        /* \"contracts/Security/33_gasLimit.sol\":1792:1925  WorkflowStatusChange(... */\n      mload(0x40)\n      tag_183\n      swap3\n      swap2\n      swap1\n      tag_110\n      jump\t// in\n    tag_183:\n      mload(0x40)\n      dup1\n      swap2\n      sub\n      swap1\n      log1\n        /* \"contracts/Security/33_gasLimit.sol\":1579:1932  function startProposalsRegistration()... */\n      pop\n      jump\t// out\n        /* \"contracts/Security/33_gasLimit.sol\":1938:2342  function registerProposals(string memory proposalDescription)... */\n    tag_54:\n        /* \"contracts/Security/33_gasLimit.sol\":2034:2077  WorkflowStatus.ProposalsRegistrationStarted */\n      0x01\n        /* \"contracts/Security/33_gasLimit.sol\":1105:1112  _status */\n      dup1\n        /* \"contracts/Security/33_gasLimit.sol\":1087:1112  workflowStatus == _status */\n      0x05\n      dup2\n      gt\n      iszero\n      tag_185\n      jumpi\n      tag_186\n      tag_67\n      jump\t// in\n    tag_186:\n    tag_185:\n        /* \"contracts/Security/33_gasLimit.sol\":1087:1101  workflowStatus */\n      0x00\n      0x14\n      swap1\n      sload\n      swap1\n      0x0100\n      exp\n      swap1\n      div\n      0xff\n      and\n        /* \"contracts/Security/33_gasLimit.sol\":1087:1112  workflowStatus == _status */\n      0x05\n      dup2\n      gt\n      iszero\n      tag_187\n      jumpi\n      tag_188\n      tag_67\n      jump\t// in\n    tag_188:\n    tag_187:\n      eq\n        /* \"contracts/Security/33_gasLimit.sol\":1066:1182  require(... */\n      tag_189\n      jumpi\n      mload(0x40)\n      0x08c379a000000000000000000000000000000000000000000000000000000000\n      dup2\n      mstore\n      0x04\n      add\n      tag_190\n      swap1\n      tag_72\n      jump\t// in\n    tag_190:\n      mload(0x40)\n      dup1\n      swap2\n      sub\n      swap1\n      revert\n    tag_189:\n        /* \"contracts/Security/33_gasLimit.sol\":2114:2120  voters */\n      0x02\n        /* \"contracts/Security/33_gasLimit.sol\":2114:2132  voters[msg.sender] */\n      0x00\n        /* \"contracts/Security/33_gasLimit.sol\":2121:2131  msg.sender */\n      caller\n        /* \"contracts/Security/33_gasLimit.sol\":2114:2132  voters[msg.sender] */\n      0xffffffffffffffffffffffffffffffffffffffff\n      and\n      0xffffffffffffffffffffffffffffffffffffffff\n      and\n      dup2\n      mstore\n      0x20\n      add\n      swap1\n      dup2\n      mstore\n      0x20\n      add\n      0x00\n      keccak256\n        /* \"contracts/Security/33_gasLimit.sol\":2114:2145  voters[msg.sender].isRegistered */\n      0x00\n      add\n      0x00\n      swap1\n      sload\n      swap1\n      0x0100\n      exp\n      swap1\n      div\n      0xff\n      and\n        /* \"contracts/Security/33_gasLimit.sol\":2093:2209  require(... */\n      tag_192\n      jumpi\n      mload(0x40)\n      0x08c379a000000000000000000000000000000000000000000000000000000000\n      dup2\n      mstore\n      0x04\n      add\n      tag_193\n      swap1\n      tag_194\n      jump\t// in\n    tag_193:\n      mload(0x40)\n      dup1\n      swap2\n      sub\n      swap1\n      revert\n    tag_192:\n        /* \"contracts/Security/33_gasLimit.sol\":2220:2229  proposals */\n      0x03\n        /* \"contracts/Security/33_gasLimit.sol\":2235:2267  Proposal(proposalDescription, 0) */\n      mload(0x40)\n      dup1\n      0x40\n      add\n      0x40\n      mstore\n      dup1\n        /* \"contracts/Security/33_gasLimit.sol\":2244:2263  proposalDescription */\n      dup5\n        /* \"contracts/Security/33_gasLimit.sol\":2235:2267  Proposal(proposalDescription, 0) */\n      dup2\n      mstore\n      0x20\n      add\n        /* \"contracts/Security/33_gasLimit.sol\":2265:2266  0 */\n      0x00\n        /* \"contracts/Security/33_gasLimit.sol\":2235:2267  Proposal(proposalDescription, 0) */\n      dup2\n      mstore\n      pop\n        /* \"contracts/Security/33_gasLimit.sol\":2220:2268  proposals.push(Proposal(proposalDescription, 0)) */\n      swap1\n      dup1\n      0x01\n      dup2\n      sload\n      add\n      dup1\n      dup3\n      sstore\n      dup1\n      swap2\n      pop\n      pop\n      0x01\n      swap1\n      sub\n      swap1\n      0x00\n      mstore\n      keccak256(0x00, 0x20)\n      swap1\n      0x02\n      mul\n      add\n      0x00\n      swap1\n      swap2\n      swap1\n      swap2\n      swap1\n      swap2\n      pop\n      0x00\n      dup3\n      add\n      mload\n      dup2\n      0x00\n      add\n      swap1\n      dup2\n      tag_196\n      swap2\n      swap1\n      tag_197\n      jump\t// in\n    tag_196:\n      pop\n      0x20\n      dup3\n      add\n      mload\n      dup2\n      0x01\n      add\n      sstore\n      pop\n      pop\n        /* \"contracts/Security/33_gasLimit.sol\":2334:2335  1 */\n      0x01\n        /* \"contracts/Security/33_gasLimit.sol\":2315:2324  proposals */\n      0x03\n        /* \"contracts/Security/33_gasLimit.sol\":2315:2331  proposals.length */\n      dup1\n      sload\n      swap1\n      pop\n        /* \"contracts/Security/33_gasLimit.sol\":2315:2335  proposals.length + 1 */\n      tag_198\n      swap2\n      swap1\n      tag_85\n      jump\t// in\n    tag_198:\n        /* \"contracts/Security/33_gasLimit.sol\":2278:2284  voters */\n      0x02\n        /* \"contracts/Security/33_gasLimit.sol\":2278:2296  voters[msg.sender] */\n      0x00\n        /* \"contracts/Security/33_gasLimit.sol\":2285:2295  msg.sender */\n      caller\n        /* \"contracts/Security/33_gasLimit.sol\":2278:2296  voters[msg.sender] */\n      0xffffffffffffffffffffffffffffffffffffffff\n      and\n      0xffffffffffffffffffffffffffffffffffffffff\n      and\n      dup2\n      mstore\n      0x20\n      add\n      swap1\n      dup2\n      mstore\n      0x20\n      add\n      0x00\n      keccak256\n        /* \"contracts/Security/33_gasLimit.sol\":2278:2312  voters[msg.sender].votedProposalId */\n      0x01\n      add\n        /* \"contracts/Security/33_gasLimit.sol\":2278:2335  voters[msg.sender].votedProposalId = proposals.length + 1 */\n      dup2\n      swap1\n      sstore\n      pop\n        /* \"contracts/Security/33_gasLimit.sol\":1938:2342  function registerProposals(string memory proposalDescription)... */\n      pop\n      pop\n      jump\t// out\n        /* \"contracts/Security/33_gasLimit.sol\":1206:1573  function registerVoters(address _voterAddress)... */\n    tag_58:\n        /* \"contracts/Security/33_gasLimit.sol\":1287:1319  WorkflowStatus.RegisteringVoters */\n      0x00\n        /* \"contracts/Security/33_gasLimit.sol\":1105:1112  _status */\n      dup1\n        /* \"contracts/Security/33_gasLimit.sol\":1087:1112  workflowStatus == _status */\n      0x05\n      dup2\n      gt\n      iszero\n      tag_200\n      jumpi\n      tag_201\n      tag_67\n      jump\t// in\n    tag_201:\n    tag_200:\n        /* \"contracts/Security/33_gasLimit.sol\":1087:1101  workflowStatus */\n      0x00\n      0x14\n      swap1\n      sload\n      swap1\n      0x0100\n      exp\n      swap1\n      div\n      0xff\n      and\n        /* \"contracts/Security/33_gasLimit.sol\":1087:1112  workflowStatus == _status */\n      0x05\n      dup2\n      gt\n      iszero\n      tag_202\n      jumpi\n      tag_203\n      tag_67\n      jump\t// in\n    tag_203:\n    tag_202:\n      eq\n        /* \"contracts/Security/33_gasLimit.sol\":1066:1182  require(... */\n      tag_204\n      jumpi\n      mload(0x40)\n      0x08c379a000000000000000000000000000000000000000000000000000000000\n      dup2\n      mstore\n      0x04\n      add\n      tag_205\n      swap1\n      tag_72\n      jump\t// in\n    tag_205:\n      mload(0x40)\n      dup1\n      swap2\n      sub\n      swap1\n      revert\n    tag_204:\n        /* \"@openzeppelin/contracts/access/Ownable.sol\":1531:1544  _checkOwner() */\n      tag_207\n        /* \"@openzeppelin/contracts/access/Ownable.sol\":1531:1542  _checkOwner */\n      tag_105\n        /* \"@openzeppelin/contracts/access/Ownable.sol\":1531:1544  _checkOwner() */\n      jump\t// in\n    tag_207:\n        /* \"contracts/Security/33_gasLimit.sol\":1375:1381  voters */\n      0x02\n        /* \"contracts/Security/33_gasLimit.sol\":1375:1396  voters[_voterAddress] */\n      0x00\n        /* \"contracts/Security/33_gasLimit.sol\":1382:1395  _voterAddress */\n      dup4\n        /* \"contracts/Security/33_gasLimit.sol\":1375:1396  voters[_voterAddress] */\n      0xffffffffffffffffffffffffffffffffffffffff\n      and\n      0xffffffffffffffffffffffffffffffffffffffff\n      and\n      dup2\n      mstore\n      0x20\n      add\n      swap1\n      dup2\n      mstore\n      0x20\n      add\n      0x00\n      keccak256\n        /* \"contracts/Security/33_gasLimit.sol\":1375:1409  voters[_voterAddress].isRegistered */\n      0x00\n      add\n      0x00\n      swap1\n      sload\n      swap1\n      0x0100\n      exp\n      swap1\n      div\n      0xff\n      and\n        /* \"contracts/Security/33_gasLimit.sol\":1374:1409  !voters[_voterAddress].isRegistered */\n      iszero\n        /* \"contracts/Security/33_gasLimit.sol\":1353:1468  require(... */\n      tag_209\n      jumpi\n      mload(0x40)\n      0x08c379a000000000000000000000000000000000000000000000000000000000\n      dup2\n      mstore\n      0x04\n      add\n      tag_210\n      swap1\n      tag_211\n      jump\t// in\n    tag_210:\n      mload(0x40)\n      dup1\n      swap2\n      sub\n      swap1\n      revert\n    tag_209:\n        /* \"contracts/Security/33_gasLimit.sol\":1516:1520  true */\n      0x01\n        /* \"contracts/Security/33_gasLimit.sol\":1479:1485  voters */\n      0x02\n        /* \"contracts/Security/33_gasLimit.sol\":1479:1500  voters[_voterAddress] */\n      0x00\n        /* \"contracts/Security/33_gasLimit.sol\":1486:1499  _voterAddress */\n      dup5\n        /* \"contracts/Security/33_gasLimit.sol\":1479:1500  voters[_voterAddress] */\n      0xffffffffffffffffffffffffffffffffffffffff\n      and\n      0xffffffffffffffffffffffffffffffffffffffff\n      and\n      dup2\n      mstore\n      0x20\n      add\n      swap1\n      dup2\n      mstore\n      0x20\n      add\n      0x00\n      keccak256\n        /* \"contracts/Security/33_gasLimit.sol\":1479:1513  voters[_voterAddress].isRegistered */\n      0x00\n      add\n      0x00\n        /* \"contracts/Security/33_gasLimit.sol\":1479:1520  voters[_voterAddress].isRegistered = true */\n      0x0100\n      exp\n      dup2\n      sload\n      dup2\n      0xff\n      mul\n      not\n      and\n      swap1\n      dup4\n      iszero\n      iszero\n      mul\n      or\n      swap1\n      sstore\n      pop\n        /* \"contracts/Security/33_gasLimit.sol\":1536:1566  VoterRegistered(_voterAddress) */\n      0xb6be2187d059cc2a55fe29e0e503b566e1e0f8c8780096e185429350acffd3dd\n        /* \"contracts/Security/33_gasLimit.sol\":1552:1565  _voterAddress */\n      dup3\n        /* \"contracts/Security/33_gasLimit.sol\":1536:1566  VoterRegistered(_voterAddress) */\n      mload(0x40)\n      tag_212\n      swap2\n      swap1\n      tag_36\n      jump\t// in\n    tag_212:\n      mload(0x40)\n      dup1\n      swap2\n      sub\n      swap1\n      log1\n        /* \"contracts/Security/33_gasLimit.sol\":1206:1573  function registerVoters(address _voterAddress)... */\n      pop\n      pop\n      jump\t// out\n        /* \"contracts/Security/33_gasLimit.sol\":2723:3070  function startVotingSession()... */\n    tag_60:\n        /* \"contracts/Security/33_gasLimit.sol\":2787:2828  WorkflowStatus.ProposalsRegistrationEnded */\n      0x02\n        /* \"contracts/Security/33_gasLimit.sol\":1105:1112  _status */\n      dup1\n        /* \"contracts/Security/33_gasLimit.sol\":1087:1112  workflowStatus == _status */\n      0x05\n      dup2\n      gt\n      iszero\n      tag_214\n      jumpi\n      tag_215\n      tag_67\n      jump\t// in\n    tag_215:\n    tag_214:\n        /* \"contracts/Security/33_gasLimit.sol\":1087:1101  workflowStatus */\n      0x00\n      0x14\n      swap1\n      sload\n      swap1\n      0x0100\n      exp\n      swap1\n      div\n      0xff\n      and\n        /* \"contracts/Security/33_gasLimit.sol\":1087:1112  workflowStatus == _status */\n      0x05\n      dup2\n      gt\n      iszero\n      tag_216\n      jumpi\n      tag_217\n      tag_67\n      jump\t// in\n    tag_217:\n    tag_216:\n      eq\n        /* \"contracts/Security/33_gasLimit.sol\":1066:1182  require(... */\n      tag_218\n      jumpi\n      mload(0x40)\n      0x08c379a000000000000000000000000000000000000000000000000000000000\n      dup2\n      mstore\n      0x04\n      add\n      tag_219\n      swap1\n      tag_72\n      jump\t// in\n    tag_219:\n      mload(0x40)\n      dup1\n      swap2\n      sub\n      swap1\n      revert\n    tag_218:\n        /* \"@openzeppelin/contracts/access/Ownable.sol\":1531:1544  _checkOwner() */\n      tag_221\n        /* \"@openzeppelin/contracts/access/Ownable.sol\":1531:1542  _checkOwner */\n      tag_105\n        /* \"@openzeppelin/contracts/access/Ownable.sol\":1531:1544  _checkOwner() */\n      jump\t// in\n    tag_221:\n        /* \"contracts/Security/33_gasLimit.sol\":2879:2914  WorkflowStatus.VotingSessionStarted */\n      0x03\n        /* \"contracts/Security/33_gasLimit.sol\":2862:2876  workflowStatus */\n      0x00\n      0x14\n        /* \"contracts/Security/33_gasLimit.sol\":2862:2914  workflowStatus = WorkflowStatus.VotingSessionStarted */\n      0x0100\n      exp\n      dup2\n      sload\n      dup2\n      0xff\n      mul\n      not\n      and\n      swap1\n      dup4\n      0x05\n      dup2\n      gt\n      iszero\n      tag_223\n      jumpi\n      tag_224\n      tag_67\n      jump\t// in\n    tag_224:\n    tag_223:\n      mul\n      or\n      swap1\n      sstore\n      pop\n        /* \"contracts/Security/33_gasLimit.sol\":2929:3063  WorkflowStatusChange(... */\n      0x0a97a4ee45751e2abf3e4fc8946939630b11b371ea8ae39ccdc3056e98f5cc3f\n        /* \"contracts/Security/33_gasLimit.sol\":2963:3004  WorkflowStatus.ProposalsRegistrationEnded */\n      0x02\n        /* \"contracts/Security/33_gasLimit.sol\":3018:3053  WorkflowStatus.VotingSessionStarted */\n      0x03\n        /* \"contracts/Security/33_gasLimit.sol\":2929:3063  WorkflowStatusChange(... */\n      mload(0x40)\n      tag_225\n      swap3\n      swap2\n      swap1\n      tag_110\n      jump\t// in\n    tag_225:\n      mload(0x40)\n      dup1\n      swap2\n      sub\n      swap1\n      log1\n        /* \"contracts/Security/33_gasLimit.sol\":2723:3070  function startVotingSession()... */\n      pop\n      jump\t// out\n        /* \"@openzeppelin/contracts/access/Ownable.sol\":2543:2758  function transferOwnership(address newOwner) public virtual onlyOwner {... */\n    tag_63:\n        /* \"@openzeppelin/contracts/access/Ownable.sol\":1531:1544  _checkOwner() */\n      tag_227\n        /* \"@openzeppelin/contracts/access/Ownable.sol\":1531:1542  _checkOwner */\n      tag_105\n        /* \"@openzeppelin/contracts/access/Ownable.sol\":1531:1544  _checkOwner() */\n      jump\t// in\n    tag_227:\n        /* \"@openzeppelin/contracts/access/Ownable.sol\":2647:2648  0 */\n      0x00\n        /* \"@openzeppelin/contracts/access/Ownable.sol\":2627:2649  newOwner == address(0) */\n      0xffffffffffffffffffffffffffffffffffffffff\n      and\n        /* \"@openzeppelin/contracts/access/Ownable.sol\":2627:2635  newOwner */\n      dup2\n        /* \"@openzeppelin/contracts/access/Ownable.sol\":2627:2649  newOwner == address(0) */\n      0xffffffffffffffffffffffffffffffffffffffff\n      and\n      sub\n        /* \"@openzeppelin/contracts/access/Ownable.sol\":2623:2714  if (newOwner == address(0)) {... */\n      tag_229\n      jumpi\n        /* \"@openzeppelin/contracts/access/Ownable.sol\":2700:2701  0 */\n      0x00\n        /* \"@openzeppelin/contracts/access/Ownable.sol\":2672:2703  OwnableInvalidOwner(address(0)) */\n      mload(0x40)\n      0x1e4fbdf700000000000000000000000000000000000000000000000000000000\n      dup2\n      mstore\n      0x04\n      add\n      tag_230\n      swap2\n      swap1\n      tag_36\n      jump\t// in\n    tag_230:\n      mload(0x40)\n      dup1\n      swap2\n      sub\n      swap1\n      revert\n        /* \"@openzeppelin/contracts/access/Ownable.sol\":2623:2714  if (newOwner == address(0)) {... */\n    tag_229:\n        /* \"@openzeppelin/contracts/access/Ownable.sol\":2723:2751  _transferOwnership(newOwner) */\n      tag_231\n        /* \"@openzeppelin/contracts/access/Ownable.sol\":2742:2750  newOwner */\n      dup2\n        /* \"@openzeppelin/contracts/access/Ownable.sol\":2723:2741  _transferOwnership */\n      tag_115\n        /* \"@openzeppelin/contracts/access/Ownable.sol\":2723:2751  _transferOwnership(newOwner) */\n      jump\t// in\n    tag_231:\n        /* \"@openzeppelin/contracts/access/Ownable.sol\":2543:2758  function transferOwnership(address newOwner) public virtual onlyOwner {... */\n      pop\n      jump\t// out\n        /* \"@openzeppelin/contracts/access/Ownable.sol\":1796:1958  function _checkOwner() internal view virtual {... */\n    tag_105:\n        /* \"@openzeppelin/contracts/access/Ownable.sol\":1866:1878  _msgSender() */\n      tag_233\n        /* \"@openzeppelin/contracts/access/Ownable.sol\":1866:1876  _msgSender */\n      tag_234\n        /* \"@openzeppelin/contracts/access/Ownable.sol\":1866:1878  _msgSender() */\n      jump\t// in\n    tag_233:\n        /* \"@openzeppelin/contracts/access/Ownable.sol\":1855:1878  owner() != _msgSender() */\n      0xffffffffffffffffffffffffffffffffffffffff\n      and\n        /* \"@openzeppelin/contracts/access/Ownable.sol\":1855:1862  owner() */\n      tag_235\n        /* \"@openzeppelin/contracts/access/Ownable.sol\":1855:1860  owner */\n      tag_34\n        /* \"@openzeppelin/contracts/access/Ownable.sol\":1855:1862  owner() */\n      jump\t// in\n    tag_235:\n        /* \"@openzeppelin/contracts/access/Ownable.sol\":1855:1878  owner() != _msgSender() */\n      0xffffffffffffffffffffffffffffffffffffffff\n      and\n      eq\n        /* \"@openzeppelin/contracts/access/Ownable.sol\":1851:1952  if (owner() != _msgSender()) {... */\n      tag_236\n      jumpi\n        /* \"@openzeppelin/contracts/access/Ownable.sol\":1928:1940  _msgSender() */\n      tag_237\n        /* \"@openzeppelin/contracts/access/Ownable.sol\":1928:1938  _msgSender */\n      tag_234\n        /* \"@openzeppelin/contracts/access/Ownable.sol\":1928:1940  _msgSender() */\n      jump\t// in\n    tag_237:\n        /* \"@openzeppelin/contracts/access/Ownable.sol\":1901:1941  OwnableUnauthorizedAccount(_msgSender()) */\n      mload(0x40)\n      0x118cdaa700000000000000000000000000000000000000000000000000000000\n      dup2\n      mstore\n      0x04\n      add\n      tag_238\n      swap2\n      swap1\n      tag_36\n      jump\t// in\n    tag_238:\n      mload(0x40)\n      dup1\n      swap2\n      sub\n      swap1\n      revert\n        /* \"@openzeppelin/contracts/access/Ownable.sol\":1851:1952  if (owner() != _msgSender()) {... */\n    tag_236:\n        /* \"@openzeppelin/contracts/access/Ownable.sol\":1796:1958  function _checkOwner() internal view virtual {... */\n      jump\t// out\n        /* \"@openzeppelin/contracts/access/Ownable.sol\":2912:3099  function _transferOwnership(address newOwner) internal virtual {... */\n    tag_115:\n        /* \"@openzeppelin/contracts/access/Ownable.sol\":2985:3001  address oldOwner */\n      0x00\n        /* \"@openzeppelin/contracts/access/Ownable.sol\":3004:3010  _owner */\n      0x00\n      0x00\n      swap1\n      sload\n      swap1\n      0x0100\n      exp\n      swap1\n      div\n      0xffffffffffffffffffffffffffffffffffffffff\n      and\n        /* \"@openzeppelin/contracts/access/Ownable.sol\":2985:3010  address oldOwner = _owner */\n      swap1\n      pop\n        /* \"@openzeppelin/contracts/access/Ownable.sol\":3029:3037  newOwner */\n      dup2\n        /* \"@openzeppelin/contracts/access/Ownable.sol\":3020:3026  _owner */\n      0x00\n      0x00\n        /* \"@openzeppelin/contracts/access/Ownable.sol\":3020:3037  _owner = newOwner */\n      0x0100\n      exp\n      dup2\n      sload\n      dup2\n      0xffffffffffffffffffffffffffffffffffffffff\n      mul\n      not\n      and\n      swap1\n      dup4\n      0xffffffffffffffffffffffffffffffffffffffff\n      and\n      mul\n      or\n      swap1\n      sstore\n      pop\n        /* \"@openzeppelin/contracts/access/Ownable.sol\":3083:3091  newOwner */\n      dup2\n        /* \"@openzeppelin/contracts/access/Ownable.sol\":3052:3092  OwnershipTransferred(oldOwner, newOwner) */\n      0xffffffffffffffffffffffffffffffffffffffff\n      and\n        /* \"@openzeppelin/contracts/access/Ownable.sol\":3073:3081  oldOwner */\n      dup2\n        /* \"@openzeppelin/contracts/access/Ownable.sol\":3052:3092  OwnershipTransferred(oldOwner, newOwner) */\n      0xffffffffffffffffffffffffffffffffffffffff\n      and\n      0x8be0079c531659141344cd1fd0a4f28419497f9722a3daafe3b4186f6b6457e0\n      mload(0x40)\n      mload(0x40)\n      dup1\n      swap2\n      sub\n      swap1\n      log3\n        /* \"@openzeppelin/contracts/access/Ownable.sol\":2975:3099  {... */\n      pop\n        /* \"@openzeppelin/contracts/access/Ownable.sol\":2912:3099  function _transferOwnership(address newOwner) internal virtual {... */\n      pop\n      jump\t// out\n        /* \"@openzeppelin/contracts/utils/Context.sol\":656:752  function _msgSender() internal view virtual returns (address) {... */\n    tag_234:\n        /* \"@openzeppelin/contracts/utils/Context.sol\":709:716  address */\n      0x00\n        /* \"@openzeppelin/contracts/utils/Context.sol\":735:745  msg.sender */\n      caller\n        /* \"@openzeppelin/contracts/utils/Context.sol\":728:745  return msg.sender */\n      swap1\n      pop\n        /* \"@openzeppelin/contracts/utils/Context.sol\":656:752  function _msgSender() internal view virtual returns (address) {... */\n      swap1\n      jump\t// out\n    tag_118:\n      mload(0x40)\n      dup1\n      0x40\n      add\n      0x40\n      mstore\n      dup1\n      0x60\n      dup2\n      mstore\n      0x20\n      add\n      0x00\n      dup2\n      mstore\n      pop\n      swap1\n      jump\t// out\n        /* \"#utility.yul\":7:82   */\n    tag_241:\n        /* \"#utility.yul\":40:46   */\n      0x00\n        /* \"#utility.yul\":73:75   */\n      0x40\n        /* \"#utility.yul\":67:76   */\n      mload\n        /* \"#utility.yul\":57:76   */\n      swap1\n      pop\n        /* \"#utility.yul\":7:82   */\n      swap1\n      jump\t// out\n        /* \"#utility.yul\":88:205   */\n    tag_242:\n        /* \"#utility.yul\":197:198   */\n      0x00\n        /* \"#utility.yul\":194:195   */\n      0x00\n        /* \"#utility.yul\":187:199   */\n      revert\n        /* \"#utility.yul\":211:328   */\n    tag_243:\n        /* \"#utility.yul\":320:321   */\n      0x00\n        /* \"#utility.yul\":317:318   */\n      0x00\n        /* \"#utility.yul\":310:322   */\n      revert\n        /* \"#utility.yul\":334:411   */\n    tag_244:\n        /* \"#utility.yul\":371:378   */\n      0x00\n        /* \"#utility.yul\":400:405   */\n      dup2\n        /* \"#utility.yul\":389:405   */\n      swap1\n      pop\n        /* \"#utility.yul\":334:411   */\n      swap2\n      swap1\n      pop\n      jump\t// out\n        /* \"#utility.yul\":417:539   */\n    tag_245:\n        /* \"#utility.yul\":490:514   */\n      tag_308\n        /* \"#utility.yul\":508:513   */\n      dup2\n        /* \"#utility.yul\":490:514   */\n      tag_244\n      jump\t// in\n    tag_308:\n        /* \"#utility.yul\":483:488   */\n      dup2\n        /* \"#utility.yul\":480:515   */\n      eq\n        /* \"#utility.yul\":470:533   */\n      tag_309\n      jumpi\n        /* \"#utility.yul\":529:530   */\n      0x00\n        /* \"#utility.yul\":526:527   */\n      0x00\n        /* \"#utility.yul\":519:531   */\n      revert\n        /* \"#utility.yul\":470:533   */\n    tag_309:\n        /* \"#utility.yul\":417:539   */\n      pop\n      jump\t// out\n        /* \"#utility.yul\":545:684   */\n    tag_246:\n        /* \"#utility.yul\":591:596   */\n      0x00\n        /* \"#utility.yul\":629:635   */\n      dup2\n        /* \"#utility.yul\":616:636   */\n      calldataload\n        /* \"#utility.yul\":607:636   */\n      swap1\n      pop\n        /* \"#utility.yul\":645:678   */\n      tag_311\n        /* \"#utility.yul\":672:677   */\n      dup2\n        /* \"#utility.yul\":645:678   */\n      tag_245\n      jump\t// in\n    tag_311:\n        /* \"#utility.yul\":545:684   */\n      swap3\n      swap2\n      pop\n      pop\n      jump\t// out\n        /* \"#utility.yul\":690:1019   */\n    tag_22:\n        /* \"#utility.yul\":749:755   */\n      0x00\n        /* \"#utility.yul\":798:800   */\n      0x20\n        /* \"#utility.yul\":786:795   */\n      dup3\n        /* \"#utility.yul\":777:784   */\n      dup5\n        /* \"#utility.yul\":773:796   */\n      sub\n        /* \"#utility.yul\":769:801   */\n      slt\n        /* \"#utility.yul\":766:885   */\n      iszero\n      tag_313\n      jumpi\n        /* \"#utility.yul\":804:883   */\n      tag_314\n      tag_242\n      jump\t// in\n    tag_314:\n        /* \"#utility.yul\":766:885   */\n    tag_313:\n        /* \"#utility.yul\":924:925   */\n      0x00\n        /* \"#utility.yul\":949:1002   */\n      tag_315\n        /* \"#utility.yul\":994:1001   */\n      dup5\n        /* \"#utility.yul\":985:991   */\n      dup3\n        /* \"#utility.yul\":974:983   */\n      dup6\n        /* \"#utility.yul\":970:992   */\n      add\n        /* \"#utility.yul\":949:1002   */\n      tag_246\n      jump\t// in\n    tag_315:\n        /* \"#utility.yul\":939:1002   */\n      swap2\n      pop\n        /* \"#utility.yul\":895:1012   */\n      pop\n        /* \"#utility.yul\":690:1019   */\n      swap3\n      swap2\n      pop\n      pop\n      jump\t// out\n        /* \"#utility.yul\":1025:1124   */\n    tag_247:\n        /* \"#utility.yul\":1077:1083   */\n      0x00\n        /* \"#utility.yul\":1111:1116   */\n      dup2\n        /* \"#utility.yul\":1105:1117   */\n      mload\n        /* \"#utility.yul\":1095:1117   */\n      swap1\n      pop\n        /* \"#utility.yul\":1025:1124   */\n      swap2\n      swap1\n      pop\n      jump\t// out\n        /* \"#utility.yul\":1130:1299   */\n    tag_248:\n        /* \"#utility.yul\":1214:1225   */\n      0x00\n        /* \"#utility.yul\":1248:1254   */\n      dup3\n        /* \"#utility.yul\":1243:1246   */\n      dup3\n        /* \"#utility.yul\":1236:1255   */\n      mstore\n        /* \"#utility.yul\":1288:1292   */\n      0x20\n        /* \"#utility.yul\":1283:1286   */\n      dup3\n        /* \"#utility.yul\":1279:1293   */\n      add\n        /* \"#utility.yul\":1264:1293   */\n      swap1\n      pop\n        /* \"#utility.yul\":1130:1299   */\n      swap3\n      swap2\n      pop\n      pop\n      jump\t// out\n        /* \"#utility.yul\":1305:1444   */\n    tag_249:\n        /* \"#utility.yul\":1394:1400   */\n      dup3\n        /* \"#utility.yul\":1389:1392   */\n      dup2\n        /* \"#utility.yul\":1384:1387   */\n      dup4\n        /* \"#utility.yul\":1378:1401   */\n      mcopy\n        /* \"#utility.yul\":1435:1436   */\n      0x00\n        /* \"#utility.yul\":1426:1432   */\n      dup4\n        /* \"#utility.yul\":1421:1424   */\n      dup4\n        /* \"#utility.yul\":1417:1433   */\n      add\n        /* \"#utility.yul\":1410:1437   */\n      mstore\n        /* \"#utility.yul\":1305:1444   */\n      pop\n      pop\n      pop\n      jump\t// out\n        /* \"#utility.yul\":1450:1552   */\n    tag_250:\n        /* \"#utility.yul\":1491:1497   */\n      0x00\n        /* \"#utility.yul\":1542:1544   */\n      0x1f\n        /* \"#utility.yul\":1538:1545   */\n      not\n        /* \"#utility.yul\":1533:1535   */\n      0x1f\n        /* \"#utility.yul\":1526:1531   */\n      dup4\n        /* \"#utility.yul\":1522:1536   */\n      add\n        /* \"#utility.yul\":1518:1546   */\n      and\n        /* \"#utility.yul\":1508:1546   */\n      swap1\n      pop\n        /* \"#utility.yul\":1450:1552   */\n      swap2\n      swap1\n      pop\n      jump\t// out\n        /* \"#utility.yul\":1558:1935   */\n    tag_251:\n        /* \"#utility.yul\":1646:1649   */\n      0x00\n        /* \"#utility.yul\":1674:1713   */\n      tag_321\n        /* \"#utility.yul\":1707:1712   */\n      dup3\n        /* \"#utility.yul\":1674:1713   */\n      tag_247\n      jump\t// in\n    tag_321:\n        /* \"#utility.yul\":1729:1800   */\n      tag_322\n        /* \"#utility.yul\":1793:1799   */\n      dup2\n        /* \"#utility.yul\":1788:1791   */\n      dup6\n        /* \"#utility.yul\":1729:1800   */\n      tag_248\n      jump\t// in\n    tag_322:\n        /* \"#utility.yul\":1722:1800   */\n      swap4\n      pop\n        /* \"#utility.yul\":1809:1874   */\n      tag_323\n        /* \"#utility.yul\":1867:1873   */\n      dup2\n        /* \"#utility.yul\":1862:1865   */\n      dup6\n        /* \"#utility.yul\":1855:1859   */\n      0x20\n        /* \"#utility.yul\":1848:1853   */\n      dup7\n        /* \"#utility.yul\":1844:1860   */\n      add\n        /* \"#utility.yul\":1809:1874   */\n      tag_249\n      jump\t// in\n    tag_323:\n        /* \"#utility.yul\":1899:1928   */\n      tag_324\n        /* \"#utility.yul\":1921:1927   */\n      dup2\n        /* \"#utility.yul\":1899:1928   */\n      tag_250\n      jump\t// in\n    tag_324:\n        /* \"#utility.yul\":1894:1897   */\n      dup5\n        /* \"#utility.yul\":1890:1929   */\n      add\n        /* \"#utility.yul\":1883:1929   */\n      swap2\n      pop\n        /* \"#utility.yul\":1650:1935   */\n      pop\n        /* \"#utility.yul\":1558:1935   */\n      swap3\n      swap2\n      pop\n      pop\n      jump\t// out\n        /* \"#utility.yul\":1941:2059   */\n    tag_252:\n        /* \"#utility.yul\":2028:2052   */\n      tag_326\n        /* \"#utility.yul\":2046:2051   */\n      dup2\n        /* \"#utility.yul\":2028:2052   */\n      tag_244\n      jump\t// in\n    tag_326:\n        /* \"#utility.yul\":2023:2026   */\n      dup3\n        /* \"#utility.yul\":2016:2053   */\n      mstore\n        /* \"#utility.yul\":1941:2059   */\n      pop\n      pop\n      jump\t// out\n        /* \"#utility.yul\":2065:2488   */\n    tag_28:\n        /* \"#utility.yul\":2206:2210   */\n      0x00\n        /* \"#utility.yul\":2244:2246   */\n      0x40\n        /* \"#utility.yul\":2233:2242   */\n      dup3\n        /* \"#utility.yul\":2229:2247   */\n      add\n        /* \"#utility.yul\":2221:2247   */\n      swap1\n      pop\n        /* \"#utility.yul\":2293:2302   */\n      dup2\n        /* \"#utility.yul\":2287:2291   */\n      dup2\n        /* \"#utility.yul\":2283:2303   */\n      sub\n        /* \"#utility.yul\":2279:2280   */\n      0x00\n        /* \"#utility.yul\":2268:2277   */\n      dup4\n        /* \"#utility.yul\":2264:2281   */\n      add\n        /* \"#utility.yul\":2257:2304   */\n      mstore\n        /* \"#utility.yul\":2321:2399   */\n      tag_328\n        /* \"#utility.yul\":2394:2398   */\n      dup2\n        /* \"#utility.yul\":2385:2391   */\n      dup6\n        /* \"#utility.yul\":2321:2399   */\n      tag_251\n      jump\t// in\n    tag_328:\n        /* \"#utility.yul\":2313:2399   */\n      swap1\n      pop\n        /* \"#utility.yul\":2409:2481   */\n      tag_329\n        /* \"#utility.yul\":2477:2479   */\n      0x20\n        /* \"#utility.yul\":2466:2475   */\n      dup4\n        /* \"#utility.yul\":2462:2480   */\n      add\n        /* \"#utility.yul\":2453:2459   */\n      dup5\n        /* \"#utility.yul\":2409:2481   */\n      tag_252\n      jump\t// in\n    tag_329:\n        /* \"#utility.yul\":2065:2488   */\n      swap4\n      swap3\n      pop\n      pop\n      pop\n      jump\t// out\n        /* \"#utility.yul\":2494:2620   */\n    tag_253:\n        /* \"#utility.yul\":2531:2538   */\n      0x00\n        /* \"#utility.yul\":2571:2613   */\n      0xffffffffffffffffffffffffffffffffffffffff\n        /* \"#utility.yul\":2564:2569   */\n      dup3\n        /* \"#utility.yul\":2560:2614   */\n      and\n        /* \"#utility.yul\":2549:2614   */\n      swap1\n      pop\n        /* \"#utility.yul\":2494:2620   */\n      swap2\n      swap1\n      pop\n      jump\t// out\n        /* \"#utility.yul\":2626:2722   */\n    tag_254:\n        /* \"#utility.yul\":2663:2670   */\n      0x00\n        /* \"#utility.yul\":2692:2716   */\n      tag_332\n        /* \"#utility.yul\":2710:2715   */\n      dup3\n        /* \"#utility.yul\":2692:2716   */\n      tag_253\n      jump\t// in\n    tag_332:\n        /* \"#utility.yul\":2681:2716   */\n      swap1\n      pop\n        /* \"#utility.yul\":2626:2722   */\n      swap2\n      swap1\n      pop\n      jump\t// out\n        /* \"#utility.yul\":2728:2846   */\n    tag_255:\n        /* \"#utility.yul\":2815:2839   */\n      tag_334\n        /* \"#utility.yul\":2833:2838   */\n      dup2\n        /* \"#utility.yul\":2815:2839   */\n      tag_254\n      jump\t// in\n    tag_334:\n        /* \"#utility.yul\":2810:2813   */\n      dup3\n        /* \"#utility.yul\":2803:2840   */\n      mstore\n        /* \"#utility.yul\":2728:2846   */\n      pop\n      pop\n      jump\t// out\n        /* \"#utility.yul\":2852:3074   */\n    tag_36:\n        /* \"#utility.yul\":2945:2949   */\n      0x00\n        /* \"#utility.yul\":2983:2985   */\n      0x20\n        /* \"#utility.yul\":2972:2981   */\n      dup3\n        /* \"#utility.yul\":2968:2986   */\n      add\n        /* \"#utility.yul\":2960:2986   */\n      swap1\n      pop\n        /* \"#utility.yul\":2996:3067   */\n      tag_336\n        /* \"#utility.yul\":3064:3065   */\n      0x00\n        /* \"#utility.yul\":3053:3062   */\n      dup4\n        /* \"#utility.yul\":3049:3066   */\n      add\n        /* \"#utility.yul\":3040:3046   */\n      dup5\n        /* \"#utility.yul\":2996:3067   */\n      tag_255\n      jump\t// in\n    tag_336:\n        /* \"#utility.yul\":2852:3074   */\n      swap3\n      swap2\n      pop\n      pop\n      jump\t// out\n        /* \"#utility.yul\":3080:3239   */\n    tag_256:\n        /* \"#utility.yul\":3154:3165   */\n      0x00\n        /* \"#utility.yul\":3188:3194   */\n      dup3\n        /* \"#utility.yul\":3183:3186   */\n      dup3\n        /* \"#utility.yul\":3176:3195   */\n      mstore\n        /* \"#utility.yul\":3228:3232   */\n      0x20\n        /* \"#utility.yul\":3223:3226   */\n      dup3\n        /* \"#utility.yul\":3219:3233   */\n      add\n        /* \"#utility.yul\":3204:3233   */\n      swap1\n      pop\n        /* \"#utility.yul\":3080:3239   */\n      swap3\n      swap2\n      pop\n      pop\n      jump\t// out\n        /* \"#utility.yul\":3245:3602   */\n    tag_257:\n        /* \"#utility.yul\":3323:3326   */\n      0x00\n        /* \"#utility.yul\":3351:3390   */\n      tag_339\n        /* \"#utility.yul\":3384:3389   */\n      dup3\n        /* \"#utility.yul\":3351:3390   */\n      tag_247\n      jump\t// in\n    tag_339:\n        /* \"#utility.yul\":3406:3467   */\n      tag_340\n        /* \"#utility.yul\":3460:3466   */\n      dup2\n        /* \"#utility.yul\":3455:3458   */\n      dup6\n        /* \"#utility.yul\":3406:3467   */\n      tag_256\n      jump\t// in\n    tag_340:\n        /* \"#utility.yul\":3399:3467   */\n      swap4\n      pop\n        /* \"#utility.yul\":3476:3541   */\n      tag_341\n        /* \"#utility.yul\":3534:3540   */\n      dup2\n        /* \"#utility.yul\":3529:3532   */\n      dup6\n        /* \"#utility.yul\":3522:3526   */\n      0x20\n        /* \"#utility.yul\":3515:3520   */\n      dup7\n        /* \"#utility.yul\":3511:3527   */\n      add\n        /* \"#utility.yul\":3476:3541   */\n      tag_249\n      jump\t// in\n    tag_341:\n        /* \"#utility.yul\":3566:3595   */\n      tag_342\n        /* \"#utility.yul\":3588:3594   */\n      dup2\n        /* \"#utility.yul\":3566:3595   */\n      tag_250\n      jump\t// in\n    tag_342:\n        /* \"#utility.yul\":3561:3564   */\n      dup5\n        /* \"#utility.yul\":3557:3596   */\n      add\n        /* \"#utility.yul\":3550:3596   */\n      swap2\n      pop\n        /* \"#utility.yul\":3327:3602   */\n      pop\n        /* \"#utility.yul\":3245:3602   */\n      swap3\n      swap2\n      pop\n      pop\n      jump\t// out\n        /* \"#utility.yul\":3608:3716   */\n    tag_258:\n        /* \"#utility.yul\":3685:3709   */\n      tag_344\n        /* \"#utility.yul\":3703:3708   */\n      dup2\n        /* \"#utility.yul\":3685:3709   */\n      tag_244\n      jump\t// in\n    tag_344:\n        /* \"#utility.yul\":3680:3683   */\n      dup3\n        /* \"#utility.yul\":3673:3710   */\n      mstore\n        /* \"#utility.yul\":3608:3716   */\n      pop\n      pop\n      jump\t// out\n        /* \"#utility.yul\":3778:4396   */\n    tag_259:\n        /* \"#utility.yul\":3897:3900   */\n      0x00\n        /* \"#utility.yul\":3933:3937   */\n      0x40\n        /* \"#utility.yul\":3928:3931   */\n      dup4\n        /* \"#utility.yul\":3924:3938   */\n      add\n        /* \"#utility.yul\":4027:4031   */\n      0x00\n        /* \"#utility.yul\":4020:4025   */\n      dup4\n        /* \"#utility.yul\":4016:4032   */\n      add\n        /* \"#utility.yul\":4010:4033   */\n      mload\n        /* \"#utility.yul\":4080:4083   */\n      dup5\n        /* \"#utility.yul\":4074:4078   */\n      dup3\n        /* \"#utility.yul\":4070:4084   */\n      sub\n        /* \"#utility.yul\":4063:4067   */\n      0x00\n        /* \"#utility.yul\":4058:4061   */\n      dup7\n        /* \"#utility.yul\":4054:4068   */\n      add\n        /* \"#utility.yul\":4047:4085   */\n      mstore\n        /* \"#utility.yul\":4106:4179   */\n      tag_346\n        /* \"#utility.yul\":4174:4178   */\n      dup3\n        /* \"#utility.yul\":4160:4172   */\n      dup3\n        /* \"#utility.yul\":4106:4179   */\n      tag_257\n      jump\t// in\n    tag_346:\n        /* \"#utility.yul\":4098:4179   */\n      swap2\n      pop\n        /* \"#utility.yul\":3948:4190   */\n      pop\n        /* \"#utility.yul\":4277:4281   */\n      0x20\n        /* \"#utility.yul\":4270:4275   */\n      dup4\n        /* \"#utility.yul\":4266:4282   */\n      add\n        /* \"#utility.yul\":4260:4283   */\n      mload\n        /* \"#utility.yul\":4296:4359   */\n      tag_347\n        /* \"#utility.yul\":4353:4357   */\n      0x20\n        /* \"#utility.yul\":4348:4351   */\n      dup7\n        /* \"#utility.yul\":4344:4358   */\n      add\n        /* \"#utility.yul\":4330:4342   */\n      dup3\n        /* \"#utility.yul\":4296:4359   */\n      tag_258\n      jump\t// in\n    tag_347:\n        /* \"#utility.yul\":4200:4369   */\n      pop\n        /* \"#utility.yul\":4386:4390   */\n      dup1\n        /* \"#utility.yul\":4379:4390   */\n      swap2\n      pop\n        /* \"#utility.yul\":3902:4396   */\n      pop\n        /* \"#utility.yul\":3778:4396   */\n      swap3\n      swap2\n      pop\n      pop\n      jump\t// out\n        /* \"#utility.yul\":4402:4775   */\n    tag_40:\n        /* \"#utility.yul\":4545:4549   */\n      0x00\n        /* \"#utility.yul\":4583:4585   */\n      0x20\n        /* \"#utility.yul\":4572:4581   */\n      dup3\n        /* \"#utility.yul\":4568:4586   */\n      add\n        /* \"#utility.yul\":4560:4586   */\n      swap1\n      pop\n        /* \"#utility.yul\":4632:4641   */\n      dup2\n        /* \"#utility.yul\":4626:4630   */\n      dup2\n        /* \"#utility.yul\":4622:4642   */\n      sub\n        /* \"#utility.yul\":4618:4619   */\n      0x00\n        /* \"#utility.yul\":4607:4616   */\n      dup4\n        /* \"#utility.yul\":4603:4620   */\n      add\n        /* \"#utility.yul\":4596:4643   */\n      mstore\n        /* \"#utility.yul\":4660:4768   */\n      tag_349\n        /* \"#utility.yul\":4763:4767   */\n      dup2\n        /* \"#utility.yul\":4754:4760   */\n      dup5\n        /* \"#utility.yul\":4660:4768   */\n      tag_259\n      jump\t// in\n    tag_349:\n        /* \"#utility.yul\":4652:4768   */\n      swap1\n      pop\n        /* \"#utility.yul\":4402:4775   */\n      swap3\n      swap2\n      pop\n      pop\n      jump\t// out\n        /* \"#utility.yul\":4781:4961   */\n    tag_67:\n        /* \"#utility.yul\":4829:4906   */\n      0x4e487b7100000000000000000000000000000000000000000000000000000000\n        /* \"#utility.yul\":4826:4827   */\n      0x00\n        /* \"#utility.yul\":4819:4907   */\n      mstore\n        /* \"#utility.yul\":4926:4930   */\n      0x21\n        /* \"#utility.yul\":4923:4924   */\n      0x04\n        /* \"#utility.yul\":4916:4931   */\n      mstore\n        /* \"#utility.yul\":4950:4954   */\n      0x24\n        /* \"#utility.yul\":4947:4948   */\n      0x00\n        /* \"#utility.yul\":4940:4955   */\n      revert\n        /* \"#utility.yul\":4967:5090   */\n    tag_260:\n        /* \"#utility.yul\":5058:5059   */\n      0x06\n        /* \"#utility.yul\":5051:5056   */\n      dup2\n        /* \"#utility.yul\":5048:5060   */\n      lt\n        /* \"#utility.yul\":5038:5084   */\n      tag_352\n      jumpi\n        /* \"#utility.yul\":5064:5082   */\n      tag_353\n      tag_67\n      jump\t// in\n    tag_353:\n        /* \"#utility.yul\":5038:5084   */\n    tag_352:\n        /* \"#utility.yul\":4967:5090   */\n      pop\n      jump\t// out\n        /* \"#utility.yul\":5096:5243   */\n    tag_261:\n        /* \"#utility.yul\":5151:5158   */\n      0x00\n        /* \"#utility.yul\":5180:5185   */\n      dup2\n        /* \"#utility.yul\":5169:5185   */\n      swap1\n      pop\n        /* \"#utility.yul\":5186:5237   */\n      tag_355\n        /* \"#utility.yul\":5231:5236   */\n      dup3\n        /* \"#utility.yul\":5186:5237   */\n      tag_260\n      jump\t// in\n    tag_355:\n        /* \"#utility.yul\":5096:5243   */\n      swap2\n      swap1\n      pop\n      jump\t// out\n        /* \"#utility.yul\":5249:5396   */\n    tag_262:\n        /* \"#utility.yul\":5315:5324   */\n      0x00\n        /* \"#utility.yul\":5348:5390   */\n      tag_357\n        /* \"#utility.yul\":5384:5389   */\n      dup3\n        /* \"#utility.yul\":5348:5390   */\n      tag_261\n      jump\t// in\n    tag_357:\n        /* \"#utility.yul\":5335:5390   */\n      swap1\n      pop\n        /* \"#utility.yul\":5249:5396   */\n      swap2\n      swap1\n      pop\n      jump\t// out\n        /* \"#utility.yul\":5402:5565   */\n    tag_263:\n        /* \"#utility.yul\":5505:5558   */\n      tag_359\n        /* \"#utility.yul\":5552:5557   */\n      dup2\n        /* \"#utility.yul\":5505:5558   */\n      tag_262\n      jump\t// in\n    tag_359:\n        /* \"#utility.yul\":5500:5503   */\n      dup3\n        /* \"#utility.yul\":5493:5559   */\n      mstore\n        /* \"#utility.yul\":5402:5565   */\n      pop\n      pop\n      jump\t// out\n        /* \"#utility.yul\":5571:5825   */\n    tag_44:\n        /* \"#utility.yul\":5680:5684   */\n      0x00\n        /* \"#utility.yul\":5718:5720   */\n      0x20\n        /* \"#utility.yul\":5707:5716   */\n      dup3\n        /* \"#utility.yul\":5703:5721   */\n      add\n        /* \"#utility.yul\":5695:5721   */\n      swap1\n      pop\n        /* \"#utility.yul\":5731:5818   */\n      tag_361\n        /* \"#utility.yul\":5815:5816   */\n      0x00\n        /* \"#utility.yul\":5804:5813   */\n      dup4\n        /* \"#utility.yul\":5800:5817   */\n      add\n        /* \"#utility.yul\":5791:5797   */\n      dup5\n        /* \"#utility.yul\":5731:5818   */\n      tag_263\n      jump\t// in\n    tag_361:\n        /* \"#utility.yul\":5571:5825   */\n      swap3\n      swap2\n      pop\n      pop\n      jump\t// out\n        /* \"#utility.yul\":5831:5948   */\n    tag_264:\n        /* \"#utility.yul\":5940:5941   */\n      0x00\n        /* \"#utility.yul\":5937:5938   */\n      0x00\n        /* \"#utility.yul\":5930:5942   */\n      revert\n        /* \"#utility.yul\":5954:6071   */\n    tag_265:\n        /* \"#utility.yul\":6063:6064   */\n      0x00\n        /* \"#utility.yul\":6060:6061   */\n      0x00\n        /* \"#utility.yul\":6053:6065   */\n      revert\n        /* \"#utility.yul\":6077:6257   */\n    tag_266:\n        /* \"#utility.yul\":6125:6202   */\n      0x4e487b7100000000000000000000000000000000000000000000000000000000\n        /* \"#utility.yul\":6122:6123   */\n      0x00\n        /* \"#utility.yul\":6115:6203   */\n      mstore\n        /* \"#utility.yul\":6222:6226   */\n      0x41\n        /* \"#utility.yul\":6219:6220   */\n      0x04\n        /* \"#utility.yul\":6212:6227   */\n      mstore\n        /* \"#utility.yul\":6246:6250   */\n      0x24\n        /* \"#utility.yul\":6243:6244   */\n      0x00\n        /* \"#utility.yul\":6236:6251   */\n      revert\n        /* \"#utility.yul\":6263:6544   */\n    tag_267:\n        /* \"#utility.yul\":6346:6373   */\n      tag_366\n        /* \"#utility.yul\":6368:6372   */\n      dup3\n        /* \"#utility.yul\":6346:6373   */\n      tag_250\n      jump\t// in\n    tag_366:\n        /* \"#utility.yul\":6338:6344   */\n      dup2\n        /* \"#utility.yul\":6334:6374   */\n      add\n        /* \"#utility.yul\":6476:6482   */\n      dup2\n        /* \"#utility.yul\":6464:6474   */\n      dup2\n        /* \"#utility.yul\":6461:6483   */\n      lt\n        /* \"#utility.yul\":6440:6458   */\n      0xffffffffffffffff\n        /* \"#utility.yul\":6428:6438   */\n      dup3\n        /* \"#utility.yul\":6425:6459   */\n      gt\n        /* \"#utility.yul\":6422:6484   */\n      or\n        /* \"#utility.yul\":6419:6507   */\n      iszero\n      tag_367\n      jumpi\n        /* \"#utility.yul\":6487:6505   */\n      tag_368\n      tag_266\n      jump\t// in\n    tag_368:\n        /* \"#utility.yul\":6419:6507   */\n    tag_367:\n        /* \"#utility.yul\":6527:6537   */\n      dup1\n        /* \"#utility.yul\":6523:6525   */\n      0x40\n        /* \"#utility.yul\":6516:6538   */\n      mstore\n        /* \"#utility.yul\":6306:6544   */\n      pop\n        /* \"#utility.yul\":6263:6544   */\n      pop\n      pop\n      jump\t// out\n        /* \"#utility.yul\":6550:6679   */\n    tag_268:\n        /* \"#utility.yul\":6584:6590   */\n      0x00\n        /* \"#utility.yul\":6611:6631   */\n      tag_370\n      tag_241\n      jump\t// in\n    tag_370:\n        /* \"#utility.yul\":6601:6631   */\n      swap1\n      pop\n        /* \"#utility.yul\":6640:6673   */\n      tag_371\n        /* \"#utility.yul\":6668:6672   */\n      dup3\n        /* \"#utility.yul\":6660:6666   */\n      dup3\n        /* \"#utility.yul\":6640:6673   */\n      tag_267\n      jump\t// in\n    tag_371:\n        /* \"#utility.yul\":6550:6679   */\n      swap2\n      swap1\n      pop\n      jump\t// out\n        /* \"#utility.yul\":6685:6993   */\n    tag_269:\n        /* \"#utility.yul\":6747:6751   */\n      0x00\n        /* \"#utility.yul\":6837:6855   */\n      0xffffffffffffffff\n        /* \"#utility.yul\":6829:6835   */\n      dup3\n        /* \"#utility.yul\":6826:6856   */\n      gt\n        /* \"#utility.yul\":6823:6879   */\n      iszero\n      tag_373\n      jumpi\n        /* \"#utility.yul\":6859:6877   */\n      tag_374\n      tag_266\n      jump\t// in\n    tag_374:\n        /* \"#utility.yul\":6823:6879   */\n    tag_373:\n        /* \"#utility.yul\":6897:6926   */\n      tag_375\n        /* \"#utility.yul\":6919:6925   */\n      dup3\n        /* \"#utility.yul\":6897:6926   */\n      tag_250\n      jump\t// in\n    tag_375:\n        /* \"#utility.yul\":6889:6926   */\n      swap1\n      pop\n        /* \"#utility.yul\":6981:6985   */\n      0x20\n        /* \"#utility.yul\":6975:6979   */\n      dup2\n        /* \"#utility.yul\":6971:6986   */\n      add\n        /* \"#utility.yul\":6963:6986   */\n      swap1\n      pop\n        /* \"#utility.yul\":6685:6993   */\n      swap2\n      swap1\n      pop\n      jump\t// out\n        /* \"#utility.yul\":6999:7147   */\n    tag_270:\n        /* \"#utility.yul\":7097:7103   */\n      dup3\n        /* \"#utility.yul\":7092:7095   */\n      dup2\n        /* \"#utility.yul\":7087:7090   */\n      dup4\n        /* \"#utility.yul\":7074:7104   */\n      calldatacopy\n        /* \"#utility.yul\":7138:7139   */\n      0x00\n        /* \"#utility.yul\":7129:7135   */\n      dup4\n        /* \"#utility.yul\":7124:7127   */\n      dup4\n        /* \"#utility.yul\":7120:7136   */\n      add\n        /* \"#utility.yul\":7113:7140   */\n      mstore\n        /* \"#utility.yul\":6999:7147   */\n      pop\n      pop\n      pop\n      jump\t// out\n        /* \"#utility.yul\":7153:7578   */\n    tag_271:\n        /* \"#utility.yul\":7231:7236   */\n      0x00\n        /* \"#utility.yul\":7256:7322   */\n      tag_378\n        /* \"#utility.yul\":7272:7321   */\n      tag_379\n        /* \"#utility.yul\":7314:7320   */\n      dup5\n        /* \"#utility.yul\":7272:7321   */\n      tag_269\n      jump\t// in\n    tag_379:\n        /* \"#utility.yul\":7256:7322   */\n      tag_268\n      jump\t// in\n    tag_378:\n        /* \"#utility.yul\":7247:7322   */\n      swap1\n      pop\n        /* \"#utility.yul\":7345:7351   */\n      dup3\n        /* \"#utility.yul\":7338:7343   */\n      dup2\n        /* \"#utility.yul\":7331:7352   */\n      mstore\n        /* \"#utility.yul\":7383:7387   */\n      0x20\n        /* \"#utility.yul\":7376:7381   */\n      dup2\n        /* \"#utility.yul\":7372:7388   */\n      add\n        /* \"#utility.yul\":7421:7424   */\n      dup5\n        /* \"#utility.yul\":7412:7418   */\n      dup5\n        /* \"#utility.yul\":7407:7410   */\n      dup5\n        /* \"#utility.yul\":7403:7419   */\n      add\n        /* \"#utility.yul\":7400:7425   */\n      gt\n        /* \"#utility.yul\":7397:7509   */\n      iszero\n      tag_380\n      jumpi\n        /* \"#utility.yul\":7428:7507   */\n      tag_381\n      tag_265\n      jump\t// in\n    tag_381:\n        /* \"#utility.yul\":7397:7509   */\n    tag_380:\n        /* \"#utility.yul\":7518:7572   */\n      tag_382\n        /* \"#utility.yul\":7565:7571   */\n      dup5\n        /* \"#utility.yul\":7560:7563   */\n      dup3\n        /* \"#utility.yul\":7555:7558   */\n      dup6\n        /* \"#utility.yul\":7518:7572   */\n      tag_270\n      jump\t// in\n    tag_382:\n        /* \"#utility.yul\":7237:7578   */\n      pop\n        /* \"#utility.yul\":7153:7578   */\n      swap4\n      swap3\n      pop\n      pop\n      pop\n      jump\t// out\n        /* \"#utility.yul\":7598:7938   */\n    tag_272:\n        /* \"#utility.yul\":7654:7659   */\n      0x00\n        /* \"#utility.yul\":7703:7706   */\n      dup3\n        /* \"#utility.yul\":7696:7700   */\n      0x1f\n        /* \"#utility.yul\":7688:7694   */\n      dup4\n        /* \"#utility.yul\":7684:7701   */\n      add\n        /* \"#utility.yul\":7680:7707   */\n      slt\n        /* \"#utility.yul\":7670:7792   */\n      tag_384\n      jumpi\n        /* \"#utility.yul\":7711:7790   */\n      tag_385\n      tag_264\n      jump\t// in\n    tag_385:\n        /* \"#utility.yul\":7670:7792   */\n    tag_384:\n        /* \"#utility.yul\":7828:7834   */\n      dup2\n        /* \"#utility.yul\":7815:7835   */\n      calldataload\n        /* \"#utility.yul\":7853:7932   */\n      tag_386\n        /* \"#utility.yul\":7928:7931   */\n      dup5\n        /* \"#utility.yul\":7920:7926   */\n      dup3\n        /* \"#utility.yul\":7913:7917   */\n      0x20\n        /* \"#utility.yul\":7905:7911   */\n      dup7\n        /* \"#utility.yul\":7901:7918   */\n      add\n        /* \"#utility.yul\":7853:7932   */\n      tag_271\n      jump\t// in\n    tag_386:\n        /* \"#utility.yul\":7844:7932   */\n      swap2\n      pop\n        /* \"#utility.yul\":7660:7938   */\n      pop\n        /* \"#utility.yul\":7598:7938   */\n      swap3\n      swap2\n      pop\n      pop\n      jump\t// out\n        /* \"#utility.yul\":7944:8453   */\n    tag_53:\n        /* \"#utility.yul\":8013:8019   */\n      0x00\n        /* \"#utility.yul\":8062:8064   */\n      0x20\n        /* \"#utility.yul\":8050:8059   */\n      dup3\n        /* \"#utility.yul\":8041:8048   */\n      dup5\n        /* \"#utility.yul\":8037:8060   */\n      sub\n        /* \"#utility.yul\":8033:8065   */\n      slt\n        /* \"#utility.yul\":8030:8149   */\n      iszero\n      tag_388\n      jumpi\n        /* \"#utility.yul\":8068:8147   */\n      tag_389\n      tag_242\n      jump\t// in\n    tag_389:\n        /* \"#utility.yul\":8030:8149   */\n    tag_388:\n        /* \"#utility.yul\":8216:8217   */\n      0x00\n        /* \"#utility.yul\":8205:8214   */\n      dup3\n        /* \"#utility.yul\":8201:8218   */\n      add\n        /* \"#utility.yul\":8188:8219   */\n      calldataload\n        /* \"#utility.yul\":8246:8264   */\n      0xffffffffffffffff\n        /* \"#utility.yul\":8238:8244   */\n      dup2\n        /* \"#utility.yul\":8235:8265   */\n      gt\n        /* \"#utility.yul\":8232:8349   */\n      iszero\n      tag_390\n      jumpi\n        /* \"#utility.yul\":8268:8347   */\n      tag_391\n      tag_243\n      jump\t// in\n    tag_391:\n        /* \"#utility.yul\":8232:8349   */\n    tag_390:\n        /* \"#utility.yul\":8373:8436   */\n      tag_392\n        /* \"#utility.yul\":8428:8435   */\n      dup5\n        /* \"#utility.yul\":8419:8425   */\n      dup3\n        /* \"#utility.yul\":8408:8417   */\n      dup6\n        /* \"#utility.yul\":8404:8426   */\n      add\n        /* \"#utility.yul\":8373:8436   */\n      tag_272\n      jump\t// in\n    tag_392:\n        /* \"#utility.yul\":8363:8436   */\n      swap2\n      pop\n        /* \"#utility.yul\":8159:8446   */\n      pop\n        /* \"#utility.yul\":7944:8453   */\n      swap3\n      swap2\n      pop\n      pop\n      jump\t// out\n        /* \"#utility.yul\":8459:8581   */\n    tag_273:\n        /* \"#utility.yul\":8532:8556   */\n      tag_394\n        /* \"#utility.yul\":8550:8555   */\n      dup2\n        /* \"#utility.yul\":8532:8556   */\n      tag_254\n      jump\t// in\n    tag_394:\n        /* \"#utility.yul\":8525:8530   */\n      dup2\n        /* \"#utility.yul\":8522:8557   */\n      eq\n        /* \"#utility.yul\":8512:8575   */\n      tag_395\n      jumpi\n        /* \"#utility.yul\":8571:8572   */\n      0x00\n        /* \"#utility.yul\":8568:8569   */\n      0x00\n        /* \"#utility.yul\":8561:8573   */\n      revert\n        /* \"#utility.yul\":8512:8575   */\n    tag_395:\n        /* \"#utility.yul\":8459:8581   */\n      pop\n      jump\t// out\n        /* \"#utility.yul\":8587:8726   */\n    tag_274:\n        /* \"#utility.yul\":8633:8638   */\n      0x00\n        /* \"#utility.yul\":8671:8677   */\n      dup2\n        /* \"#utility.yul\":8658:8678   */\n      calldataload\n        /* \"#utility.yul\":8649:8678   */\n      swap1\n      pop\n        /* \"#utility.yul\":8687:8720   */\n      tag_397\n        /* \"#utility.yul\":8714:8719   */\n      dup2\n        /* \"#utility.yul\":8687:8720   */\n      tag_273\n      jump\t// in\n    tag_397:\n        /* \"#utility.yul\":8587:8726   */\n      swap3\n      swap2\n      pop\n      pop\n      jump\t// out\n        /* \"#utility.yul\":8732:9061   */\n    tag_57:\n        /* \"#utility.yul\":8791:8797   */\n      0x00\n        /* \"#utility.yul\":8840:8842   */\n      0x20\n        /* \"#utility.yul\":8828:8837   */\n      dup3\n        /* \"#utility.yul\":8819:8826   */\n      dup5\n        /* \"#utility.yul\":8815:8838   */\n      sub\n        /* \"#utility.yul\":8811:8843   */\n      slt\n        /* \"#utility.yul\":8808:8927   */\n      iszero\n      tag_399\n      jumpi\n        /* \"#utility.yul\":8846:8925   */\n      tag_400\n      tag_242\n      jump\t// in\n    tag_400:\n        /* \"#utility.yul\":8808:8927   */\n    tag_399:\n        /* \"#utility.yul\":8966:8967   */\n      0x00\n        /* \"#utility.yul\":8991:9044   */\n      tag_401\n        /* \"#utility.yul\":9036:9043   */\n      dup5\n        /* \"#utility.yul\":9027:9033   */\n      dup3\n        /* \"#utility.yul\":9016:9025   */\n      dup6\n        /* \"#utility.yul\":9012:9034   */\n      add\n        /* \"#utility.yul\":8991:9044   */\n      tag_274\n      jump\t// in\n    tag_401:\n        /* \"#utility.yul\":8981:9044   */\n      swap2\n      pop\n        /* \"#utility.yul\":8937:9054   */\n      pop\n        /* \"#utility.yul\":8732:9061   */\n      swap3\n      swap2\n      pop\n      pop\n      jump\t// out\n        /* \"#utility.yul\":9067:9298   */\n    tag_275:\n        /* \"#utility.yul\":9207:9241   */\n      0x596f7520617265206e6f742061626c6520746f20646f20746869732061637469\n        /* \"#utility.yul\":9203:9204   */\n      0x00\n        /* \"#utility.yul\":9195:9201   */\n      dup3\n        /* \"#utility.yul\":9191:9205   */\n      add\n        /* \"#utility.yul\":9184:9242   */\n      mstore\n        /* \"#utility.yul\":9276:9290   */\n      0x6f6e207269676874206e6f770000000000000000000000000000000000000000\n        /* \"#utility.yul\":9271:9273   */\n      0x20\n        /* \"#utility.yul\":9263:9269   */\n      dup3\n        /* \"#utility.yul\":9259:9274   */\n      add\n        /* \"#utility.yul\":9252:9291   */\n      mstore\n        /* \"#utility.yul\":9067:9298   */\n      pop\n      jump\t// out\n        /* \"#utility.yul\":9304:9670   */\n    tag_276:\n        /* \"#utility.yul\":9446:9449   */\n      0x00\n        /* \"#utility.yul\":9467:9534   */\n      tag_404\n        /* \"#utility.yul\":9531:9533   */\n      0x2c\n        /* \"#utility.yul\":9526:9529   */\n      dup4\n        /* \"#utility.yul\":9467:9534   */\n      tag_248\n      jump\t// in\n    tag_404:\n        /* \"#utility.yul\":9460:9534   */\n      swap2\n      pop\n        /* \"#utility.yul\":9543:9636   */\n      tag_405\n        /* \"#utility.yul\":9632:9635   */\n      dup3\n        /* \"#utility.yul\":9543:9636   */\n      tag_275\n      jump\t// in\n    tag_405:\n        /* \"#utility.yul\":9661:9663   */\n      0x40\n        /* \"#utility.yul\":9656:9659   */\n      dup3\n        /* \"#utility.yul\":9652:9664   */\n      add\n        /* \"#utility.yul\":9645:9664   */\n      swap1\n      pop\n        /* \"#utility.yul\":9304:9670   */\n      swap2\n      swap1\n      pop\n      jump\t// out\n        /* \"#utility.yul\":9676:10095   */\n    tag_72:\n        /* \"#utility.yul\":9842:9846   */\n      0x00\n        /* \"#utility.yul\":9880:9882   */\n      0x20\n        /* \"#utility.yul\":9869:9878   */\n      dup3\n        /* \"#utility.yul\":9865:9883   */\n      add\n        /* \"#utility.yul\":9857:9883   */\n      swap1\n      pop\n        /* \"#utility.yul\":9929:9938   */\n      dup2\n        /* \"#utility.yul\":9923:9927   */\n      dup2\n        /* \"#utility.yul\":9919:9939   */\n      sub\n        /* \"#utility.yul\":9915:9916   */\n      0x00\n        /* \"#utility.yul\":9904:9913   */\n      dup4\n        /* \"#utility.yul\":9900:9917   */\n      add\n        /* \"#utility.yul\":9893:9940   */\n      mstore\n        /* \"#utility.yul\":9957:10088   */\n      tag_407\n        /* \"#utility.yul\":10083:10087   */\n      dup2\n        /* \"#utility.yul\":9957:10088   */\n      tag_276\n      jump\t// in\n    tag_407:\n        /* \"#utility.yul\":9949:10088   */\n      swap1\n      pop\n        /* \"#utility.yul\":9676:10095   */\n      swap2\n      swap1\n      pop\n      jump\t// out\n        /* \"#utility.yul\":10101:10278   */\n    tag_277:\n        /* \"#utility.yul\":10241:10270   */\n      0x596f7520617265206e6f7420616c6c6f77656420746f20766f74650000000000\n        /* \"#utility.yul\":10237:10238   */\n      0x00\n        /* \"#utility.yul\":10229:10235   */\n      dup3\n        /* \"#utility.yul\":10225:10239   */\n      add\n        /* \"#utility.yul\":10218:10271   */\n      mstore\n        /* \"#utility.yul\":10101:10278   */\n      pop\n      jump\t// out\n        /* \"#utility.yul\":10284:10650   */\n    tag_278:\n        /* \"#utility.yul\":10426:10429   */\n      0x00\n        /* \"#utility.yul\":10447:10514   */\n      tag_410\n        /* \"#utility.yul\":10511:10513   */\n      0x1b\n        /* \"#utility.yul\":10506:10509   */\n      dup4\n        /* \"#utility.yul\":10447:10514   */\n      tag_248\n      jump\t// in\n    tag_410:\n        /* \"#utility.yul\":10440:10514   */\n      swap2\n      pop\n        /* \"#utility.yul\":10523:10616   */\n      tag_411\n        /* \"#utility.yul\":10612:10615   */\n      dup3\n        /* \"#utility.yul\":10523:10616   */\n      tag_277\n      jump\t// in\n    tag_411:\n        /* \"#utility.yul\":10641:10643   */\n      0x20\n        /* \"#utility.yul\":10636:10639   */\n      dup3\n        /* \"#utility.yul\":10632:10644   */\n      add\n        /* \"#utility.yul\":10625:10644   */\n      swap1\n      pop\n        /* \"#utility.yul\":10284:10650   */\n      swap2\n      swap1\n      pop\n      jump\t// out\n        /* \"#utility.yul\":10656:11075   */\n    tag_76:\n        /* \"#utility.yul\":10822:10826   */\n      0x00\n        /* \"#utility.yul\":10860:10862   */\n      0x20\n        /* \"#utility.yul\":10849:10858   */\n      dup3\n        /* \"#utility.yul\":10845:10863   */\n      add\n        /* \"#utility.yul\":10837:10863   */\n      swap1\n      pop\n        /* \"#utility.yul\":10909:10918   */\n      dup2\n        /* \"#utility.yul\":10903:10907   */\n      dup2\n        /* \"#utility.yul\":10899:10919   */\n      sub\n        /* \"#utility.yul\":10895:10896   */\n      0x00\n        /* \"#utility.yul\":10884:10893   */\n      dup4\n        /* \"#utility.yul\":10880:10897   */\n      add\n        /* \"#utility.yul\":10873:10920   */\n      mstore\n        /* \"#utility.yul\":10937:11068   */\n      tag_413\n        /* \"#utility.yul\":11063:11067   */\n      dup2\n        /* \"#utility.yul\":10937:11068   */\n      tag_278\n      jump\t// in\n    tag_413:\n        /* \"#utility.yul\":10929:11068   */\n      swap1\n      pop\n        /* \"#utility.yul\":10656:11075   */\n      swap2\n      swap1\n      pop\n      jump\t// out\n        /* \"#utility.yul\":11081:11253   */\n    tag_279:\n        /* \"#utility.yul\":11221:11245   */\n      0x596f75206861766520616c726561647920766f74656400000000000000000000\n        /* \"#utility.yul\":11217:11218   */\n      0x00\n        /* \"#utility.yul\":11209:11215   */\n      dup3\n        /* \"#utility.yul\":11205:11219   */\n      add\n        /* \"#utility.yul\":11198:11246   */\n      mstore\n        /* \"#utility.yul\":11081:11253   */\n      pop\n      jump\t// out\n        /* \"#utility.yul\":11259:11625   */\n    tag_280:\n        /* \"#utility.yul\":11401:11404   */\n      0x00\n        /* \"#utility.yul\":11422:11489   */\n      tag_416\n        /* \"#utility.yul\":11486:11488   */\n      0x16\n        /* \"#utility.yul\":11481:11484   */\n      dup4\n        /* \"#utility.yul\":11422:11489   */\n      tag_248\n      jump\t// in\n    tag_416:\n        /* \"#utility.yul\":11415:11489   */\n      swap2\n      pop\n        /* \"#utility.yul\":11498:11591   */\n      tag_417\n        /* \"#utility.yul\":11587:11590   */\n      dup3\n        /* \"#utility.yul\":11498:11591   */\n      tag_279\n      jump\t// in\n    tag_417:\n        /* \"#utility.yul\":11616:11618   */\n      0x20\n        /* \"#utility.yul\":11611:11614   */\n      dup3\n        /* \"#utility.yul\":11607:11619   */\n      add\n        /* \"#utility.yul\":11600:11619   */\n      swap1\n      pop\n        /* \"#utility.yul\":11259:11625   */\n      swap2\n      swap1\n      pop\n      jump\t// out\n        /* \"#utility.yul\":11631:12050   */\n    tag_79:\n        /* \"#utility.yul\":11797:11801   */\n      0x00\n        /* \"#utility.yul\":11835:11837   */\n      0x20\n        /* \"#utility.yul\":11824:11833   */\n      dup3\n        /* \"#utility.yul\":11820:11838   */\n      add\n        /* \"#utility.yul\":11812:11838   */\n      swap1\n      pop\n        /* \"#utility.yul\":11884:11893   */\n      dup2\n        /* \"#utility.yul\":11878:11882   */\n      dup2\n        /* \"#utility.yul\":11874:11894   */\n      sub\n        /* \"#utility.yul\":11870:11871   */\n      0x00\n        /* \"#utility.yul\":11859:11868   */\n      dup4\n        /* \"#utility.yul\":11855:11872   */\n      add\n        /* \"#utility.yul\":11848:11895   */\n      mstore\n        /* \"#utility.yul\":11912:12043   */\n      tag_419\n        /* \"#utility.yul\":12038:12042   */\n      dup2\n        /* \"#utility.yul\":11912:12043   */\n      tag_280\n      jump\t// in\n    tag_419:\n        /* \"#utility.yul\":11904:12043   */\n      swap1\n      pop\n        /* \"#utility.yul\":11631:12050   */\n      swap2\n      swap1\n      pop\n      jump\t// out\n        /* \"#utility.yul\":12056:12236   */\n    tag_82:\n        /* \"#utility.yul\":12104:12181   */\n      0x4e487b7100000000000000000000000000000000000000000000000000000000\n        /* \"#utility.yul\":12101:12102   */\n      0x00\n        /* \"#utility.yul\":12094:12182   */\n      mstore\n        /* \"#utility.yul\":12201:12205   */\n      0x32\n        /* \"#utility.yul\":12198:12199   */\n      0x04\n        /* \"#utility.yul\":12191:12206   */\n      mstore\n        /* \"#utility.yul\":12225:12229   */\n      0x24\n        /* \"#utility.yul\":12222:12223   */\n      0x00\n        /* \"#utility.yul\":12215:12230   */\n      revert\n        /* \"#utility.yul\":12242:12422   */\n    tag_281:\n        /* \"#utility.yul\":12290:12367   */\n      0x4e487b7100000000000000000000000000000000000000000000000000000000\n        /* \"#utility.yul\":12287:12288   */\n      0x00\n        /* \"#utility.yul\":12280:12368   */\n      mstore\n        /* \"#utility.yul\":12387:12391   */\n      0x11\n        /* \"#utility.yul\":12384:12385   */\n      0x04\n        /* \"#utility.yul\":12377:12392   */\n      mstore\n        /* \"#utility.yul\":12411:12415   */\n      0x24\n        /* \"#utility.yul\":12408:12409   */\n      0x00\n        /* \"#utility.yul\":12401:12416   */\n      revert\n        /* \"#utility.yul\":12428:12619   */\n    tag_85:\n        /* \"#utility.yul\":12468:12471   */\n      0x00\n        /* \"#utility.yul\":12487:12507   */\n      tag_423\n        /* \"#utility.yul\":12505:12506   */\n      dup3\n        /* \"#utility.yul\":12487:12507   */\n      tag_244\n      jump\t// in\n    tag_423:\n        /* \"#utility.yul\":12482:12507   */\n      swap2\n      pop\n        /* \"#utility.yul\":12521:12541   */\n      tag_424\n        /* \"#utility.yul\":12539:12540   */\n      dup4\n        /* \"#utility.yul\":12521:12541   */\n      tag_244\n      jump\t// in\n    tag_424:\n        /* \"#utility.yul\":12516:12541   */\n      swap3\n      pop\n        /* \"#utility.yul\":12564:12565   */\n      dup3\n        /* \"#utility.yul\":12561:12562   */\n      dup3\n        /* \"#utility.yul\":12557:12566   */\n      add\n        /* \"#utility.yul\":12550:12566   */\n      swap1\n      pop\n        /* \"#utility.yul\":12585:12588   */\n      dup1\n        /* \"#utility.yul\":12582:12583   */\n      dup3\n        /* \"#utility.yul\":12579:12589   */\n      gt\n        /* \"#utility.yul\":12576:12612   */\n      iszero\n      tag_425\n      jumpi\n        /* \"#utility.yul\":12592:12610   */\n      tag_426\n      tag_281\n      jump\t// in\n    tag_426:\n        /* \"#utility.yul\":12576:12612   */\n    tag_425:\n        /* \"#utility.yul\":12428:12619   */\n      swap3\n      swap2\n      pop\n      pop\n      jump\t// out\n        /* \"#utility.yul\":12625:12957   */\n    tag_87:\n        /* \"#utility.yul\":12746:12750   */\n      0x00\n        /* \"#utility.yul\":12784:12786   */\n      0x40\n        /* \"#utility.yul\":12773:12782   */\n      dup3\n        /* \"#utility.yul\":12769:12787   */\n      add\n        /* \"#utility.yul\":12761:12787   */\n      swap1\n      pop\n        /* \"#utility.yul\":12797:12868   */\n      tag_428\n        /* \"#utility.yul\":12865:12866   */\n      0x00\n        /* \"#utility.yul\":12854:12863   */\n      dup4\n        /* \"#utility.yul\":12850:12867   */\n      add\n        /* \"#utility.yul\":12841:12847   */\n      dup6\n        /* \"#utility.yul\":12797:12868   */\n      tag_255\n      jump\t// in\n    tag_428:\n        /* \"#utility.yul\":12878:12950   */\n      tag_429\n        /* \"#utility.yul\":12946:12948   */\n      0x20\n        /* \"#utility.yul\":12935:12944   */\n      dup4\n        /* \"#utility.yul\":12931:12949   */\n      add\n        /* \"#utility.yul\":12922:12928   */\n      dup5\n        /* \"#utility.yul\":12878:12950   */\n      tag_252\n      jump\t// in\n    tag_429:\n        /* \"#utility.yul\":12625:12957   */\n      swap4\n      swap3\n      pop\n      pop\n      pop\n      jump\t// out\n        /* \"#utility.yul\":12963:13143   */\n    tag_282:\n        /* \"#utility.yul\":13011:13088   */\n      0x4e487b7100000000000000000000000000000000000000000000000000000000\n        /* \"#utility.yul\":13008:13009   */\n      0x00\n        /* \"#utility.yul\":13001:13089   */\n      mstore\n        /* \"#utility.yul\":13108:13112   */\n      0x22\n        /* \"#utility.yul\":13105:13106   */\n      0x04\n        /* \"#utility.yul\":13098:13113   */\n      mstore\n        /* \"#utility.yul\":13132:13136   */\n      0x24\n        /* \"#utility.yul\":13129:13130   */\n      0x00\n        /* \"#utility.yul\":13122:13137   */\n      revert\n        /* \"#utility.yul\":13149:13469   */\n    tag_91:\n        /* \"#utility.yul\":13193:13199   */\n      0x00\n        /* \"#utility.yul\":13230:13231   */\n      0x02\n        /* \"#utility.yul\":13224:13228   */\n      dup3\n        /* \"#utility.yul\":13220:13232   */\n      div\n        /* \"#utility.yul\":13210:13232   */\n      swap1\n      pop\n        /* \"#utility.yul\":13277:13278   */\n      0x01\n        /* \"#utility.yul\":13271:13275   */\n      dup3\n        /* \"#utility.yul\":13267:13279   */\n      and\n        /* \"#utility.yul\":13298:13316   */\n      dup1\n        /* \"#utility.yul\":13288:13369   */\n      tag_432\n      jumpi\n        /* \"#utility.yul\":13354:13358   */\n      0x7f\n        /* \"#utility.yul\":13346:13352   */\n      dup3\n        /* \"#utility.yul\":13342:13359   */\n      and\n        /* \"#utility.yul\":13332:13359   */\n      swap2\n      pop\n        /* \"#utility.yul\":13288:13369   */\n    tag_432:\n        /* \"#utility.yul\":13416:13418   */\n      0x20\n        /* \"#utility.yul\":13408:13414   */\n      dup3\n        /* \"#utility.yul\":13405:13419   */\n      lt\n        /* \"#utility.yul\":13385:13403   */\n      dup2\n        /* \"#utility.yul\":13382:13420   */\n      sub\n        /* \"#utility.yul\":13379:13463   */\n      tag_433\n      jumpi\n        /* \"#utility.yul\":13435:13453   */\n      tag_434\n      tag_282\n      jump\t// in\n    tag_434:\n        /* \"#utility.yul\":13379:13463   */\n    tag_433:\n        /* \"#utility.yul\":13200:13469   */\n      pop\n        /* \"#utility.yul\":13149:13469   */\n      swap2\n      swap1\n      pop\n      jump\t// out\n        /* \"#utility.yul\":13475:13871   */\n    tag_110:\n        /* \"#utility.yul\":13628:13632   */\n      0x00\n        /* \"#utility.yul\":13666:13668   */\n      0x40\n        /* \"#utility.yul\":13655:13664   */\n      dup3\n        /* \"#utility.yul\":13651:13669   */\n      add\n        /* \"#utility.yul\":13643:13669   */\n      swap1\n      pop\n        /* \"#utility.yul\":13679:13766   */\n      tag_436\n        /* \"#utility.yul\":13763:13764   */\n      0x00\n        /* \"#utility.yul\":13752:13761   */\n      dup4\n        /* \"#utility.yul\":13748:13765   */\n      add\n        /* \"#utility.yul\":13739:13745   */\n      dup6\n        /* \"#utility.yul\":13679:13766   */\n      tag_263\n      jump\t// in\n    tag_436:\n        /* \"#utility.yul\":13776:13864   */\n      tag_437\n        /* \"#utility.yul\":13860:13862   */\n      0x20\n        /* \"#utility.yul\":13849:13858   */\n      dup4\n        /* \"#utility.yul\":13845:13863   */\n      add\n        /* \"#utility.yul\":13836:13842   */\n      dup5\n        /* \"#utility.yul\":13776:13864   */\n      tag_263\n      jump\t// in\n    tag_437:\n        /* \"#utility.yul\":13475:13871   */\n      swap4\n      swap3\n      pop\n      pop\n      pop\n      jump\t// out\n        /* \"#utility.yul\":13877:14102   */\n    tag_283:\n        /* \"#utility.yul\":14017:14051   */\n      0x596f7520617265206e6f7420616c6c6f77656420746f206d616b652061207072\n        /* \"#utility.yul\":14013:14014   */\n      0x00\n        /* \"#utility.yul\":14005:14011   */\n      dup3\n        /* \"#utility.yul\":14001:14015   */\n      add\n        /* \"#utility.yul\":13994:14052   */\n      mstore\n        /* \"#utility.yul\":14086:14094   */\n      0x6f706f73616c0000000000000000000000000000000000000000000000000000\n        /* \"#utility.yul\":14081:14083   */\n      0x20\n        /* \"#utility.yul\":14073:14079   */\n      dup3\n        /* \"#utility.yul\":14069:14084   */\n      add\n        /* \"#utility.yul\":14062:14095   */\n      mstore\n        /* \"#utility.yul\":13877:14102   */\n      pop\n      jump\t// out\n        /* \"#utility.yul\":14108:14474   */\n    tag_284:\n        /* \"#utility.yul\":14250:14253   */\n      0x00\n        /* \"#utility.yul\":14271:14338   */\n      tag_440\n        /* \"#utility.yul\":14335:14337   */\n      0x26\n        /* \"#utility.yul\":14330:14333   */\n      dup4\n        /* \"#utility.yul\":14271:14338   */\n      tag_248\n      jump\t// in\n    tag_440:\n        /* \"#utility.yul\":14264:14338   */\n      swap2\n      pop\n        /* \"#utility.yul\":14347:14440   */\n      tag_441\n        /* \"#utility.yul\":14436:14439   */\n      dup3\n        /* \"#utility.yul\":14347:14440   */\n      tag_283\n      jump\t// in\n    tag_441:\n        /* \"#utility.yul\":14465:14467   */\n      0x40\n        /* \"#utility.yul\":14460:14463   */\n      dup3\n        /* \"#utility.yul\":14456:14468   */\n      add\n        /* \"#utility.yul\":14449:14468   */\n      swap1\n      pop\n        /* \"#utility.yul\":14108:14474   */\n      swap2\n      swap1\n      pop\n      jump\t// out\n        /* \"#utility.yul\":14480:14899   */\n    tag_194:\n        /* \"#utility.yul\":14646:14650   */\n      0x00\n        /* \"#utility.yul\":14684:14686   */\n      0x20\n        /* \"#utility.yul\":14673:14682   */\n      dup3\n        /* \"#utility.yul\":14669:14687   */\n      add\n        /* \"#utility.yul\":14661:14687   */\n      swap1\n      pop\n        /* \"#utility.yul\":14733:14742   */\n      dup2\n        /* \"#utility.yul\":14727:14731   */\n      dup2\n        /* \"#utility.yul\":14723:14743   */\n      sub\n        /* \"#utility.yul\":14719:14720   */\n      0x00\n        /* \"#utility.yul\":14708:14717   */\n      dup4\n        /* \"#utility.yul\":14704:14721   */\n      add\n        /* \"#utility.yul\":14697:14744   */\n      mstore\n        /* \"#utility.yul\":14761:14892   */\n      tag_443\n        /* \"#utility.yul\":14887:14891   */\n      dup2\n        /* \"#utility.yul\":14761:14892   */\n      tag_284\n      jump\t// in\n    tag_443:\n        /* \"#utility.yul\":14753:14892   */\n      swap1\n      pop\n        /* \"#utility.yul\":14480:14899   */\n      swap2\n      swap1\n      pop\n      jump\t// out\n        /* \"#utility.yul\":14905:15046   */\n    tag_285:\n        /* \"#utility.yul\":14954:14958   */\n      0x00\n        /* \"#utility.yul\":14977:14980   */\n      dup2\n        /* \"#utility.yul\":14969:14980   */\n      swap1\n      pop\n        /* \"#utility.yul\":15000:15003   */\n      dup2\n        /* \"#utility.yul\":14997:14998   */\n      0x00\n        /* \"#utility.yul\":14990:15004   */\n      mstore\n        /* \"#utility.yul\":15034:15038   */\n      0x20\n        /* \"#utility.yul\":15031:15032   */\n      0x00\n        /* \"#utility.yul\":15021:15039   */\n      keccak256\n        /* \"#utility.yul\":15013:15039   */\n      swap1\n      pop\n        /* \"#utility.yul\":14905:15046   */\n      swap2\n      swap1\n      pop\n      jump\t// out\n        /* \"#utility.yul\":15052:15145   */\n    tag_286:\n        /* \"#utility.yul\":15089:15095   */\n      0x00\n        /* \"#utility.yul\":15136:15138   */\n      0x20\n        /* \"#utility.yul\":15131:15133   */\n      0x1f\n        /* \"#utility.yul\":15124:15129   */\n      dup4\n        /* \"#utility.yul\":15120:15134   */\n      add\n        /* \"#utility.yul\":15116:15139   */\n      div\n        /* \"#utility.yul\":15106:15139   */\n      swap1\n      pop\n        /* \"#utility.yul\":15052:15145   */\n      swap2\n      swap1\n      pop\n      jump\t// out\n        /* \"#utility.yul\":15151:15258   */\n    tag_287:\n        /* \"#utility.yul\":15195:15203   */\n      0x00\n        /* \"#utility.yul\":15245:15250   */\n      dup3\n        /* \"#utility.yul\":15239:15243   */\n      dup3\n        /* \"#utility.yul\":15235:15251   */\n      shl\n        /* \"#utility.yul\":15214:15251   */\n      swap1\n      pop\n        /* \"#utility.yul\":15151:15258   */\n      swap3\n      swap2\n      pop\n      pop\n      jump\t// out\n        /* \"#utility.yul\":15264:15657   */\n    tag_288:\n        /* \"#utility.yul\":15333:15339   */\n      0x00\n        /* \"#utility.yul\":15383:15384   */\n      0x08\n        /* \"#utility.yul\":15371:15381   */\n      dup4\n        /* \"#utility.yul\":15367:15385   */\n      mul\n        /* \"#utility.yul\":15406:15503   */\n      tag_448\n        /* \"#utility.yul\":15436:15502   */\n      0xffffffffffffffffffffffffffffffffffffffffffffffffffffffffffffffff\n        /* \"#utility.yul\":15425:15434   */\n      dup3\n        /* \"#utility.yul\":15406:15503   */\n      tag_287\n      jump\t// in\n    tag_448:\n        /* \"#utility.yul\":15524:15563   */\n      tag_449\n        /* \"#utility.yul\":15554:15562   */\n      dup7\n        /* \"#utility.yul\":15543:15552   */\n      dup4\n        /* \"#utility.yul\":15524:15563   */\n      tag_287\n      jump\t// in\n    tag_449:\n        /* \"#utility.yul\":15512:15563   */\n      swap6\n      pop\n        /* \"#utility.yul\":15596:15600   */\n      dup1\n        /* \"#utility.yul\":15592:15601   */\n      not\n        /* \"#utility.yul\":15585:15590   */\n      dup5\n        /* \"#utility.yul\":15581:15602   */\n      and\n        /* \"#utility.yul\":15572:15602   */\n      swap4\n      pop\n        /* \"#utility.yul\":15645:15649   */\n      dup1\n        /* \"#utility.yul\":15635:15643   */\n      dup7\n        /* \"#utility.yul\":15631:15650   */\n      and\n        /* \"#utility.yul\":15624:15629   */\n      dup5\n        /* \"#utility.yul\":15621:15651   */\n      or\n        /* \"#utility.yul\":15611:15651   */\n      swap3\n      pop\n        /* \"#utility.yul\":15340:15657   */\n      pop\n      pop\n        /* \"#utility.yul\":15264:15657   */\n      swap4\n      swap3\n      pop\n      pop\n      pop\n      jump\t// out\n        /* \"#utility.yul\":15663:15723   */\n    tag_289:\n        /* \"#utility.yul\":15691:15694   */\n      0x00\n        /* \"#utility.yul\":15712:15717   */\n      dup2\n        /* \"#utility.yul\":15705:15717   */\n      swap1\n      pop\n        /* \"#utility.yul\":15663:15723   */\n      swap2\n      swap1\n      pop\n      jump\t// out\n        /* \"#utility.yul\":15729:15871   */\n    tag_290:\n        /* \"#utility.yul\":15779:15788   */\n      0x00\n        /* \"#utility.yul\":15812:15865   */\n      tag_452\n        /* \"#utility.yul\":15830:15864   */\n      tag_453\n        /* \"#utility.yul\":15839:15863   */\n      tag_454\n        /* \"#utility.yul\":15857:15862   */\n      dup5\n        /* \"#utility.yul\":15839:15863   */\n      tag_244\n      jump\t// in\n    tag_454:\n        /* \"#utility.yul\":15830:15864   */\n      tag_289\n      jump\t// in\n    tag_453:\n        /* \"#utility.yul\":15812:15865   */\n      tag_244\n      jump\t// in\n    tag_452:\n        /* \"#utility.yul\":15799:15865   */\n      swap1\n      pop\n        /* \"#utility.yul\":15729:15871   */\n      swap2\n      swap1\n      pop\n      jump\t// out\n        /* \"#utility.yul\":15877:15952   */\n    tag_291:\n        /* \"#utility.yul\":15920:15923   */\n      0x00\n        /* \"#utility.yul\":15941:15946   */\n      dup2\n        /* \"#utility.yul\":15934:15946   */\n      swap1\n      pop\n        /* \"#utility.yul\":15877:15952   */\n      swap2\n      swap1\n      pop\n      jump\t// out\n        /* \"#utility.yul\":15958:16227   */\n    tag_292:\n        /* \"#utility.yul\":16068:16107   */\n      tag_457\n        /* \"#utility.yul\":16099:16106   */\n      dup4\n        /* \"#utility.yul\":16068:16107   */\n      tag_290\n      jump\t// in\n    tag_457:\n        /* \"#utility.yul\":16129:16220   */\n      tag_458\n        /* \"#utility.yul\":16178:16219   */\n      tag_459\n        /* \"#utility.yul\":16202:16218   */\n      dup3\n        /* \"#utility.yul\":16178:16219   */\n      tag_291\n      jump\t// in\n    tag_459:\n        /* \"#utility.yul\":16170:16176   */\n      dup5\n        /* \"#utility.yul\":16163:16167   */\n      dup5\n        /* \"#utility.yul\":16157:16168   */\n      sload\n        /* \"#utility.yul\":16129:16220   */\n      tag_288\n      jump\t// in\n    tag_458:\n        /* \"#utility.yul\":16123:16127   */\n      dup3\n        /* \"#utility.yul\":16116:16221   */\n      sstore\n        /* \"#utility.yul\":16034:16227   */\n      pop\n        /* \"#utility.yul\":15958:16227   */\n      pop\n      pop\n      pop\n      jump\t// out\n        /* \"#utility.yul\":16233:16306   */\n    tag_293:\n        /* \"#utility.yul\":16278:16281   */\n      0x00\n        /* \"#utility.yul\":16299:16300   */\n      0x00\n        /* \"#utility.yul\":16292:16300   */\n      swap1\n      pop\n        /* \"#utility.yul\":16233:16306   */\n      swap1\n      jump\t// out\n        /* \"#utility.yul\":16312:16501   */\n    tag_294:\n        /* \"#utility.yul\":16389:16421   */\n      tag_462\n      tag_293\n      jump\t// in\n    tag_462:\n        /* \"#utility.yul\":16430:16495   */\n      tag_463\n        /* \"#utility.yul\":16488:16494   */\n      dup2\n        /* \"#utility.yul\":16480:16486   */\n      dup5\n        /* \"#utility.yul\":16474:16478   */\n      dup5\n        /* \"#utility.yul\":16430:16495   */\n      tag_292\n      jump\t// in\n    tag_463:\n        /* \"#utility.yul\":16365:16501   */\n      pop\n        /* \"#utility.yul\":16312:16501   */\n      pop\n      pop\n      jump\t// out\n        /* \"#utility.yul\":16507:16693   */\n    tag_295:\n        /* \"#utility.yul\":16567:16687   */\n    tag_465:\n        /* \"#utility.yul\":16584:16587   */\n      dup2\n        /* \"#utility.yul\":16577:16582   */\n      dup2\n        /* \"#utility.yul\":16574:16588   */\n      lt\n        /* \"#utility.yul\":16567:16687   */\n      iszero\n      tag_467\n      jumpi\n        /* \"#utility.yul\":16638:16677   */\n      tag_468\n        /* \"#utility.yul\":16675:16676   */\n      0x00\n        /* \"#utility.yul\":16668:16673   */\n      dup3\n        /* \"#utility.yul\":16638:16677   */\n      tag_294\n      jump\t// in\n    tag_468:\n        /* \"#utility.yul\":16611:16612   */\n      0x01\n        /* \"#utility.yul\":16604:16609   */\n      dup2\n        /* \"#utility.yul\":16600:16613   */\n      add\n        /* \"#utility.yul\":16591:16613   */\n      swap1\n      pop\n        /* \"#utility.yul\":16567:16687   */\n      jump(tag_465)\n    tag_467:\n        /* \"#utility.yul\":16507:16693   */\n      pop\n      pop\n      jump\t// out\n        /* \"#utility.yul\":16699:17242   */\n    tag_296:\n        /* \"#utility.yul\":16800:16802   */\n      0x1f\n        /* \"#utility.yul\":16795:16798   */\n      dup3\n        /* \"#utility.yul\":16792:16803   */\n      gt\n        /* \"#utility.yul\":16789:17235   */\n      iszero\n      tag_470\n      jumpi\n        /* \"#utility.yul\":16834:16872   */\n      tag_471\n        /* \"#utility.yul\":16866:16871   */\n      dup2\n        /* \"#utility.yul\":16834:16872   */\n      tag_285\n      jump\t// in\n    tag_471:\n        /* \"#utility.yul\":16918:16947   */\n      tag_472\n        /* \"#utility.yul\":16936:16946   */\n      dup5\n        /* \"#utility.yul\":16918:16947   */\n      tag_286\n      jump\t// in\n    tag_472:\n        /* \"#utility.yul\":16908:16916   */\n      dup2\n        /* \"#utility.yul\":16904:16948   */\n      add\n        /* \"#utility.yul\":17101:17103   */\n      0x20\n        /* \"#utility.yul\":17089:17099   */\n      dup6\n        /* \"#utility.yul\":17086:17104   */\n      lt\n        /* \"#utility.yul\":17083:17132   */\n      iszero\n      tag_473\n      jumpi\n        /* \"#utility.yul\":17122:17130   */\n      dup2\n        /* \"#utility.yul\":17107:17130   */\n      swap1\n      pop\n        /* \"#utility.yul\":17083:17132   */\n    tag_473:\n        /* \"#utility.yul\":17145:17225   */\n      tag_474\n        /* \"#utility.yul\":17201:17223   */\n      tag_475\n        /* \"#utility.yul\":17219:17222   */\n      dup6\n        /* \"#utility.yul\":17201:17223   */\n      tag_286\n      jump\t// in\n    tag_475:\n        /* \"#utility.yul\":17191:17199   */\n      dup4\n        /* \"#utility.yul\":17187:17224   */\n      add\n        /* \"#utility.yul\":17174:17185   */\n      dup3\n        /* \"#utility.yul\":17145:17225   */\n      tag_295\n      jump\t// in\n    tag_474:\n        /* \"#utility.yul\":16804:17235   */\n      pop\n      pop\n        /* \"#utility.yul\":16789:17235   */\n    tag_470:\n        /* \"#utility.yul\":16699:17242   */\n      pop\n      pop\n      pop\n      jump\t// out\n        /* \"#utility.yul\":17248:17365   */\n    tag_297:\n        /* \"#utility.yul\":17302:17310   */\n      0x00\n        /* \"#utility.yul\":17352:17357   */\n      dup3\n        /* \"#utility.yul\":17346:17350   */\n      dup3\n        /* \"#utility.yul\":17342:17358   */\n      shr\n        /* \"#utility.yul\":17321:17358   */\n      swap1\n      pop\n        /* \"#utility.yul\":17248:17365   */\n      swap3\n      swap2\n      pop\n      pop\n      jump\t// out\n        /* \"#utility.yul\":17371:17540   */\n    tag_298:\n        /* \"#utility.yul\":17415:17421   */\n      0x00\n        /* \"#utility.yul\":17448:17499   */\n      tag_478\n        /* \"#utility.yul\":17496:17497   */\n      0x00\n        /* \"#utility.yul\":17492:17498   */\n      not\n        /* \"#utility.yul\":17484:17489   */\n      dup5\n        /* \"#utility.yul\":17481:17482   */\n      0x08\n        /* \"#utility.yul\":17477:17490   */\n      mul\n        /* \"#utility.yul\":17448:17499   */\n      tag_297\n      jump\t// in\n    tag_478:\n        /* \"#utility.yul\":17444:17500   */\n      not\n        /* \"#utility.yul\":17529:17533   */\n      dup1\n        /* \"#utility.yul\":17523:17527   */\n      dup4\n        /* \"#utility.yul\":17519:17534   */\n      and\n        /* \"#utility.yul\":17509:17534   */\n      swap2\n      pop\n        /* \"#utility.yul\":17422:17540   */\n      pop\n        /* \"#utility.yul\":17371:17540   */\n      swap3\n      swap2\n      pop\n      pop\n      jump\t// out\n        /* \"#utility.yul\":17545:17840   */\n    tag_299:\n        /* \"#utility.yul\":17621:17625   */\n      0x00\n        /* \"#utility.yul\":17767:17796   */\n      tag_480\n        /* \"#utility.yul\":17792:17795   */\n      dup4\n        /* \"#utility.yul\":17786:17790   */\n      dup4\n        /* \"#utility.yul\":17767:17796   */\n      tag_298\n      jump\t// in\n    tag_480:\n        /* \"#utility.yul\":17759:17796   */\n      swap2\n      pop\n        /* \"#utility.yul\":17829:17832   */\n      dup3\n        /* \"#utility.yul\":17826:17827   */\n      0x02\n        /* \"#utility.yul\":17822:17833   */\n      mul\n        /* \"#utility.yul\":17816:17820   */\n      dup3\n        /* \"#utility.yul\":17813:17834   */\n      or\n        /* \"#utility.yul\":17805:17834   */\n      swap1\n      pop\n        /* \"#utility.yul\":17545:17840   */\n      swap3\n      swap2\n      pop\n      pop\n      jump\t// out\n        /* \"#utility.yul\":17845:19240   */\n    tag_197:\n        /* \"#utility.yul\":17962:17999   */\n      tag_482\n        /* \"#utility.yul\":17995:17998   */\n      dup3\n        /* \"#utility.yul\":17962:17999   */\n      tag_247\n      jump\t// in\n    tag_482:\n        /* \"#utility.yul\":18064:18082   */\n      0xffffffffffffffff\n        /* \"#utility.yul\":18056:18062   */\n      dup2\n        /* \"#utility.yul\":18053:18083   */\n      gt\n        /* \"#utility.yul\":18050:18106   */\n      iszero\n      tag_483\n      jumpi\n        /* \"#utility.yul\":18086:18104   */\n      tag_484\n      tag_266\n      jump\t// in\n    tag_484:\n        /* \"#utility.yul\":18050:18106   */\n    tag_483:\n        /* \"#utility.yul\":18130:18168   */\n      tag_485\n        /* \"#utility.yul\":18162:18166   */\n      dup3\n        /* \"#utility.yul\":18156:18167   */\n      sload\n        /* \"#utility.yul\":18130:18168   */\n      tag_91\n      jump\t// in\n    tag_485:\n        /* \"#utility.yul\":18215:18282   */\n      tag_486\n        /* \"#utility.yul\":18275:18281   */\n      dup3\n        /* \"#utility.yul\":18267:18273   */\n      dup3\n        /* \"#utility.yul\":18261:18265   */\n      dup6\n        /* \"#utility.yul\":18215:18282   */\n      tag_296\n      jump\t// in\n    tag_486:\n        /* \"#utility.yul\":18309:18310   */\n      0x00\n        /* \"#utility.yul\":18333:18337   */\n      0x20\n        /* \"#utility.yul\":18320:18337   */\n      swap1\n      pop\n        /* \"#utility.yul\":18365:18367   */\n      0x1f\n        /* \"#utility.yul\":18357:18363   */\n      dup4\n        /* \"#utility.yul\":18354:18368   */\n      gt\n        /* \"#utility.yul\":18382:18383   */\n      0x01\n        /* \"#utility.yul\":18377:18995   */\n      dup2\n      eq\n      tag_488\n      jumpi\n        /* \"#utility.yul\":19039:19040   */\n      0x00\n        /* \"#utility.yul\":19056:19062   */\n      dup5\n        /* \"#utility.yul\":19053:19130   */\n      iszero\n      tag_489\n      jumpi\n        /* \"#utility.yul\":19105:19114   */\n      dup3\n        /* \"#utility.yul\":19100:19103   */\n      dup8\n        /* \"#utility.yul\":19096:19115   */\n      add\n        /* \"#utility.yul\":19090:19116   */\n      mload\n        /* \"#utility.yul\":19081:19116   */\n      swap1\n      pop\n        /* \"#utility.yul\":19053:19130   */\n    tag_489:\n        /* \"#utility.yul\":19156:19223   */\n      tag_490\n        /* \"#utility.yul\":19216:19222   */\n      dup6\n        /* \"#utility.yul\":19209:19214   */\n      dup3\n        /* \"#utility.yul\":19156:19223   */\n      tag_299\n      jump\t// in\n    tag_490:\n        /* \"#utility.yul\":19150:19154   */\n      dup7\n        /* \"#utility.yul\":19143:19224   */\n      sstore\n        /* \"#utility.yul\":19012:19234   */\n      pop\n        /* \"#utility.yul\":18347:19234   */\n      jump(tag_487)\n        /* \"#utility.yul\":18377:18995   */\n    tag_488:\n        /* \"#utility.yul\":18429:18433   */\n      0x1f\n        /* \"#utility.yul\":18425:18434   */\n      not\n        /* \"#utility.yul\":18417:18423   */\n      dup5\n        /* \"#utility.yul\":18413:18435   */\n      and\n        /* \"#utility.yul\":18463:18500   */\n      tag_491\n        /* \"#utility.yul\":18495:18499   */\n      dup7\n        /* \"#utility.yul\":18463:18500   */\n      tag_285\n      jump\t// in\n    tag_491:\n        /* \"#utility.yul\":18522:18523   */\n      0x00\n        /* \"#utility.yul\":18536:18744   */\n    tag_492:\n        /* \"#utility.yul\":18550:18557   */\n      dup3\n        /* \"#utility.yul\":18547:18548   */\n      dup2\n        /* \"#utility.yul\":18544:18558   */\n      lt\n        /* \"#utility.yul\":18536:18744   */\n      iszero\n      tag_494\n      jumpi\n        /* \"#utility.yul\":18629:18638   */\n      dup5\n        /* \"#utility.yul\":18624:18627   */\n      dup10\n        /* \"#utility.yul\":18620:18639   */\n      add\n        /* \"#utility.yul\":18614:18640   */\n      mload\n        /* \"#utility.yul\":18606:18612   */\n      dup3\n        /* \"#utility.yul\":18599:18641   */\n      sstore\n        /* \"#utility.yul\":18680:18681   */\n      0x01\n        /* \"#utility.yul\":18672:18678   */\n      dup3\n        /* \"#utility.yul\":18668:18682   */\n      add\n        /* \"#utility.yul\":18658:18682   */\n      swap2\n      pop\n        /* \"#utility.yul\":18727:18729   */\n      0x20\n        /* \"#utility.yul\":18716:18725   */\n      dup6\n        /* \"#utility.yul\":18712:18730   */\n      add\n        /* \"#utility.yul\":18699:18730   */\n      swap5\n      pop\n        /* \"#utility.yul\":18573:18577   */\n      0x20\n        /* \"#utility.yul\":18570:18571   */\n      dup2\n        /* \"#utility.yul\":18566:18578   */\n      add\n        /* \"#utility.yul\":18561:18578   */\n      swap1\n      pop\n        /* \"#utility.yul\":18536:18744   */\n      jump(tag_492)\n    tag_494:\n        /* \"#utility.yul\":18772:18778   */\n      dup7\n        /* \"#utility.yul\":18763:18770   */\n      dup4\n        /* \"#utility.yul\":18760:18779   */\n      lt\n        /* \"#utility.yul\":18757:18936   */\n      iszero\n      tag_495\n      jumpi\n        /* \"#utility.yul\":18830:18839   */\n      dup5\n        /* \"#utility.yul\":18825:18828   */\n      dup10\n        /* \"#utility.yul\":18821:18840   */\n      add\n        /* \"#utility.yul\":18815:18841   */\n      mload\n        /* \"#utility.yul\":18873:18921   */\n      tag_496\n        /* \"#utility.yul\":18915:18919   */\n      0x1f\n        /* \"#utility.yul\":18907:18913   */\n      dup10\n        /* \"#utility.yul\":18903:18920   */\n      and\n        /* \"#utility.yul\":18892:18901   */\n      dup3\n        /* \"#utility.yul\":18873:18921   */\n      tag_298\n      jump\t// in\n    tag_496:\n        /* \"#utility.yul\":18865:18871   */\n      dup4\n        /* \"#utility.yul\":18858:18922   */\n      sstore\n        /* \"#utility.yul\":18780:18936   */\n      pop\n        /* \"#utility.yul\":18757:18936   */\n    tag_495:\n        /* \"#utility.yul\":18982:18983   */\n      0x01\n        /* \"#utility.yul\":18978:18979   */\n      0x02\n        /* \"#utility.yul\":18970:18976   */\n      dup9\n        /* \"#utility.yul\":18966:18980   */\n      mul\n        /* \"#utility.yul\":18962:18984   */\n      add\n        /* \"#utility.yul\":18956:18960   */\n      dup9\n        /* \"#utility.yul\":18949:18985   */\n      sstore\n        /* \"#utility.yul\":18384:18995   */\n      pop\n      pop\n      pop\n        /* \"#utility.yul\":18347:19234   */\n    tag_487:\n      pop\n        /* \"#utility.yul\":17937:19240   */\n      pop\n      pop\n      pop\n        /* \"#utility.yul\":17845:19240   */\n      pop\n      pop\n      jump\t// out\n        /* \"#utility.yul\":19246:19466   */\n    tag_300:\n        /* \"#utility.yul\":19386:19420   */\n      0x54686973206164647265737320697320616c726561647920696e20766f746572\n        /* \"#utility.yul\":19382:19383   */\n      0x00\n        /* \"#utility.yul\":19374:19380   */\n      dup3\n        /* \"#utility.yul\":19370:19384   */\n      add\n        /* \"#utility.yul\":19363:19421   */\n      mstore\n        /* \"#utility.yul\":19455:19458   */\n      0x7300000000000000000000000000000000000000000000000000000000000000\n        /* \"#utility.yul\":19450:19452   */\n      0x20\n        /* \"#utility.yul\":19442:19448   */\n      dup3\n        /* \"#utility.yul\":19438:19453   */\n      add\n        /* \"#utility.yul\":19431:19459   */\n      mstore\n        /* \"#utility.yul\":19246:19466   */\n      pop\n      jump\t// out\n        /* \"#utility.yul\":19472:19838   */\n    tag_301:\n        /* \"#utility.yul\":19614:19617   */\n      0x00\n        /* \"#utility.yul\":19635:19702   */\n      tag_499\n        /* \"#utility.yul\":19699:19701   */\n      0x21\n        /* \"#utility.yul\":19694:19697   */\n      dup4\n        /* \"#utility.yul\":19635:19702   */\n      tag_248\n      jump\t// in\n    tag_499:\n        /* \"#utility.yul\":19628:19702   */\n      swap2\n      pop\n        /* \"#utility.yul\":19711:19804   */\n      tag_500\n        /* \"#utility.yul\":19800:19803   */\n      dup3\n        /* \"#utility.yul\":19711:19804   */\n      tag_300\n      jump\t// in\n    tag_500:\n        /* \"#utility.yul\":19829:19831   */\n      0x40\n        /* \"#utility.yul\":19824:19827   */\n      dup3\n        /* \"#utility.yul\":19820:19832   */\n      add\n        /* \"#utility.yul\":19813:19832   */\n      swap1\n      pop\n        /* \"#utility.yul\":19472:19838   */\n      swap2\n      swap1\n      pop\n      jump\t// out\n        /* \"#utility.yul\":19844:20263   */\n    tag_211:\n        /* \"#utility.yul\":20010:20014   */\n      0x00\n        /* \"#utility.yul\":20048:20050   */\n      0x20\n        /* \"#utility.yul\":20037:20046   */\n      dup3\n        /* \"#utility.yul\":20033:20051   */\n      add\n        /* \"#utility.yul\":20025:20051   */\n      swap1\n      pop\n        /* \"#utility.yul\":20097:20106   */\n      dup2\n        /* \"#utility.yul\":20091:20095   */\n      dup2\n        /* \"#utility.yul\":20087:20107   */\n      sub\n        /* \"#utility.yul\":20083:20084   */\n      0x00\n        /* \"#utility.yul\":20072:20081   */\n      dup4\n        /* \"#utility.yul\":20068:20085   */\n      add\n        /* \"#utility.yul\":20061:20108   */\n      mstore\n        /* \"#utility.yul\":20125:20256   */\n      tag_502\n        /* \"#utility.yul\":20251:20255   */\n      dup2\n        /* \"#utility.yul\":20125:20256   */\n      tag_301\n      jump\t// in\n    tag_502:\n        /* \"#utility.yul\":20117:20256   */\n      swap1\n      pop\n        /* \"#utility.yul\":19844:20263   */\n      swap2\n      swap1\n      pop\n      jump\t// out\n\n    auxdata: 0xa264697066735822122024ba78a2c47aa87fe3b4a3d62d1c1483f0528abe3140e9c739f051b981bdc30864736f6c634300081c0033\n}\n",
				"bytecode": {
					"linkReferences": {},
					"object": "608060405234801561000f575f5ffd5b50335f73ffffffffffffffffffffffffffffffffffffffff168173ffffffffffffffffffffffffffffffffffffffff1603610081575f6040517f1e4fbdf70000000000000000000000000000000000000000000000000000000081526004016100789190610196565b60405180910390fd5b6100908161009660201b60201c565b506101af565b5f5f5f9054906101000a900473ffffffffffffffffffffffffffffffffffffffff169050815f5f6101000a81548173ffffffffffffffffffffffffffffffffffffffff021916908373ffffffffffffffffffffffffffffffffffffffff1602179055508173ffffffffffffffffffffffffffffffffffffffff168173ffffffffffffffffffffffffffffffffffffffff167f8be0079c531659141344cd1fd0a4f28419497f9722a3daafe3b4186f6b6457e060405160405180910390a35050565b5f73ffffffffffffffffffffffffffffffffffffffff82169050919050565b5f61018082610157565b9050919050565b61019081610176565b82525050565b5f6020820190506101a95f830184610187565b92915050565b611c19806101bc5f395ff3fe608060405234801561000f575f5ffd5b50600436106100e8575f3560e01c8063a7bfab161161008a578063e2dd58c611610064578063e2dd58c6146101c5578063ed8a1608146101e1578063ee74c678146101fd578063f2fde38b14610207576100e8565b8063a7bfab16146101a7578063ada7415f146101b1578063e09b8c79146101bb576100e8565b8063715018a6116100c6578063715018a6146101435780638da5cb5b1461014d5780638e7ea5b21461016b578063a1edffa214610189576100e8565b80630121b93f146100ec578063013cf08b146101085780636c29744514610139575b5f5ffd5b6101066004803603810190610101919061118d565b610223565b005b610122600480360381019061011d919061118d565b6104c5565b604051610130929190611237565b60405180910390f35b61014161057a565b005b61014b610660565b005b610155610673565b60405161016291906112a4565b60405180910390f35b61017361069a565b604051610180919061134e565b60405180910390f35b6101916107e4565b60405161019e91906113e1565b60405180910390f35b6101af6107f6565b005b6101b96108dc565b005b6101c3610a40565b005b6101df60048036038101906101da9190611526565b610b24565b005b6101fb60048036038101906101f69190611597565b610cdc565b005b610205610e77565b005b610221600480360381019061021c9190611597565b610f5d565b005b60038060058111156102385761023761136e565b5b5f60149054906101000a900460ff1660058111156102595761025861136e565b5b14610299576040517f08c379a000000000000000000000000000000000000000000000000000000000815260040161029090611632565b60405180910390fd5b60025f3373ffffffffffffffffffffffffffffffffffffffff1673ffffffffffffffffffffffffffffffffffffffff1681526020019081526020015f205f015f9054906101000a900460ff16610324576040517f08c379a000000000000000000000000000000000000000000000000000000000815260040161031b9061169a565b60405180910390fd5b60025f3373ffffffffffffffffffffffffffffffffffffffff1673ffffffffffffffffffffffffffffffffffffffff1681526020019081526020015f205f0160019054906101000a900460ff16156103b1576040517f08c379a00000000000000000000000000000000000000000000000000000000081526004016103a890611702565b60405180910390fd5b6001600383815481106103c7576103c6611720565b5b905f5260205f2090600202016001015f8282546103e4919061177a565b92505081905550600160025f3373ffffffffffffffffffffffffffffffffffffffff1673ffffffffffffffffffffffffffffffffffffffff1681526020019081526020015f205f0160016101000a81548160ff0219169083151502179055508160025f3373ffffffffffffffffffffffffffffffffffffffff1673ffffffffffffffffffffffffffffffffffffffff1681526020019081526020015f20600101819055507f4d99b957a2bc29a30ebd96a7be8e68fe50a3c701db28a91436490b7d53870ca433836040516104b99291906117ad565b60405180910390a15050565b600381815481106104d4575f80fd5b905f5260205f2090600202015f91509050805f0180546104f390611801565b80601f016020809104026020016040519081016040528092919081815260200182805461051f90611801565b801561056a5780601f106105415761010080835404028352916020019161056a565b820191905f5260205f20905b81548152906001019060200180831161054d57829003601f168201915b5050505050908060010154905082565b600180600581111561058f5761058e61136e565b5b5f60149054906101000a900460ff1660058111156105b0576105af61136e565b5b146105f0576040517f08c379a00000000000000000000000000000000000000000000000000000000081526004016105e790611632565b60405180910390fd5b6105f8610fe1565b60025f60146101000a81548160ff0219169083600581111561061d5761061c61136e565b5b02179055507f0a97a4ee45751e2abf3e4fc8946939630b11b371ea8ae39ccdc3056e98f5cc3f60016002604051610655929190611831565b60405180910390a150565b610668610fe1565b6106715f611068565b565b5f5f5f9054906101000a900473ffffffffffffffffffffffffffffffffffffffff16905090565b6106a2611130565b60058060058111156106b7576106b661136e565b5b5f60149054906101000a900460ff1660058111156106d8576106d761136e565b5b14610718576040517f08c379a000000000000000000000000000000000000000000000000000000000815260040161070f90611632565b60405180910390fd5b60036001548154811061072e5761072d611720565b5b905f5260205f2090600202016040518060400160405290815f8201805461075490611801565b80601f016020809104026020016040519081016040528092919081815260200182805461078090611801565b80156107cb5780601f106107a2576101008083540402835291602001916107cb565b820191905f5260205f20905b8154815290600101906020018083116107ae57829003601f168201915b5050505050815260200160018201548152505091505090565b5f60149054906101000a900460ff1681565b600380600581111561080b5761080a61136e565b5b5f60149054906101000a900460ff16600581111561082c5761082b61136e565b5b1461086c576040517f08c379a000000000000000000000000000000000000000000000000000000000815260040161086390611632565b60405180910390fd5b610874610fe1565b60045f60146101000a81548160ff021916908360058111156108995761089861136e565b5b02179055507f0a97a4ee45751e2abf3e4fc8946939630b11b371ea8ae39ccdc3056e98f5cc3f600360046040516108d1929190611831565b60405180910390a150565b60048060058111156108f1576108f061136e565b5b5f60149054906101000a900460ff1660058111156109125761091161136e565b5b14610952576040517f08c379a000000000000000000000000000000000000000000000000000000000815260040161094990611632565b60405180910390fd5b61095a610fe1565b5f5f90505f5f90505b6003805490508110156109d657816003828154811061098557610984611720565b5b905f5260205f2090600202016001015411156109c957600381815481106109af576109ae611720565b5b905f5260205f209060020201600101549150806001819055505b8080600101915050610963565b5060055f60146101000a81548160ff021916908360058111156109fc576109fb61136e565b5b02179055507f0a97a4ee45751e2abf3e4fc8946939630b11b371ea8ae39ccdc3056e98f5cc3f60046005604051610a34929190611831565b60405180910390a15050565b5f806005811115610a5457610a5361136e565b5b5f60149054906101000a900460ff166005811115610a7557610a7461136e565b5b14610ab5576040517f08c379a0000000000000000000000000000000000000000000000000000000008152600401610aac90611632565b60405180910390fd5b610abd610fe1565b60015f60146101000a81548160ff02191690836005811115610ae257610ae161136e565b5b02179055507f0a97a4ee45751e2abf3e4fc8946939630b11b371ea8ae39ccdc3056e98f5cc3f5f6001604051610b19929190611831565b60405180910390a150565b6001806005811115610b3957610b3861136e565b5b5f60149054906101000a900460ff166005811115610b5a57610b5961136e565b5b14610b9a576040517f08c379a0000000000000000000000000000000000000000000000000000000008152600401610b9190611632565b60405180910390fd5b60025f3373ffffffffffffffffffffffffffffffffffffffff1673ffffffffffffffffffffffffffffffffffffffff1681526020019081526020015f205f015f9054906101000a900460ff16610c25576040517f08c379a0000000000000000000000000000000000000000000000000000000008152600401610c1c906118c8565b60405180910390fd5b600360405180604001604052808481526020015f815250908060018154018082558091505060019003905f5260205f2090600202015f909190919091505f820151815f019081610c759190611a86565b506020820151816001015550506001600380549050610c94919061177a565b60025f3373ffffffffffffffffffffffffffffffffffffffff1673ffffffffffffffffffffffffffffffffffffffff1681526020019081526020015f20600101819055505050565b5f806005811115610cf057610cef61136e565b5b5f60149054906101000a900460ff166005811115610d1157610d1061136e565b5b14610d51576040517f08c379a0000000000000000000000000000000000000000000000000000000008152600401610d4890611632565b60405180910390fd5b610d59610fe1565b60025f8373ffffffffffffffffffffffffffffffffffffffff1673ffffffffffffffffffffffffffffffffffffffff1681526020019081526020015f205f015f9054906101000a900460ff1615610de5576040517f08c379a0000000000000000000000000000000000000000000000000000000008152600401610ddc90611bc5565b60405180910390fd5b600160025f8473ffffffffffffffffffffffffffffffffffffffff1673ffffffffffffffffffffffffffffffffffffffff1681526020019081526020015f205f015f6101000a81548160ff0219169083151502179055507fb6be2187d059cc2a55fe29e0e503b566e1e0f8c8780096e185429350acffd3dd82604051610e6b91906112a4565b60405180910390a15050565b6002806005811115610e8c57610e8b61136e565b5b5f60149054906101000a900460ff166005811115610ead57610eac61136e565b5b14610eed576040517f08c379a0000000000000000000000000000000000000000000000000000000008152600401610ee490611632565b60405180910390fd5b610ef5610fe1565b60035f60146101000a81548160ff02191690836005811115610f1a57610f1961136e565b5b02179055507f0a97a4ee45751e2abf3e4fc8946939630b11b371ea8ae39ccdc3056e98f5cc3f60026003604051610f52929190611831565b60405180910390a150565b610f65610fe1565b5f73ffffffffffffffffffffffffffffffffffffffff168173ffffffffffffffffffffffffffffffffffffffff1603610fd5575f6040517f1e4fbdf7000000000000000000000000000000000000000000000000000000008152600401610fcc91906112a4565b60405180910390fd5b610fde81611068565b50565b610fe9611129565b73ffffffffffffffffffffffffffffffffffffffff16611007610673565b73ffffffffffffffffffffffffffffffffffffffff16146110665761102a611129565b6040517f118cdaa700000000000000000000000000000000000000000000000000000000815260040161105d91906112a4565b60405180910390fd5b565b5f5f5f9054906101000a900473ffffffffffffffffffffffffffffffffffffffff169050815f5f6101000a81548173ffffffffffffffffffffffffffffffffffffffff021916908373ffffffffffffffffffffffffffffffffffffffff1602179055508173ffffffffffffffffffffffffffffffffffffffff168173ffffffffffffffffffffffffffffffffffffffff167f8be0079c531659141344cd1fd0a4f28419497f9722a3daafe3b4186f6b6457e060405160405180910390a35050565b5f33905090565b6040518060400160405280606081526020015f81525090565b5f604051905090565b5f5ffd5b5f5ffd5b5f819050919050565b61116c8161115a565b8114611176575f5ffd5b50565b5f8135905061118781611163565b92915050565b5f602082840312156111a2576111a1611152565b5b5f6111af84828501611179565b91505092915050565b5f81519050919050565b5f82825260208201905092915050565b8281835e5f83830152505050565b5f601f19601f8301169050919050565b5f6111fa826111b8565b61120481856111c2565b93506112148185602086016111d2565b61121d816111e0565b840191505092915050565b6112318161115a565b82525050565b5f6040820190508181035f83015261124f81856111f0565b905061125e6020830184611228565b9392505050565b5f73ffffffffffffffffffffffffffffffffffffffff82169050919050565b5f61128e82611265565b9050919050565b61129e81611284565b82525050565b5f6020820190506112b75f830184611295565b92915050565b5f82825260208201905092915050565b5f6112d7826111b8565b6112e181856112bd565b93506112f18185602086016111d2565b6112fa816111e0565b840191505092915050565b61130e8161115a565b82525050565b5f604083015f8301518482035f86015261132e82826112cd565b91505060208301516113436020860182611305565b508091505092915050565b5f6020820190508181035f8301526113668184611314565b905092915050565b7f4e487b71000000000000000000000000000000000000000000000000000000005f52602160045260245ffd5b600681106113ac576113ab61136e565b5b50565b5f8190506113bc8261139b565b919050565b5f6113cb826113af565b9050919050565b6113db816113c1565b82525050565b5f6020820190506113f45f8301846113d2565b92915050565b5f5ffd5b5f5ffd5b7f4e487b71000000000000000000000000000000000000000000000000000000005f52604160045260245ffd5b611438826111e0565b810181811067ffffffffffffffff8211171561145757611456611402565b5b80604052505050565b5f611469611149565b9050611475828261142f565b919050565b5f67ffffffffffffffff82111561149457611493611402565b5b61149d826111e0565b9050602081019050919050565b828183375f83830152505050565b5f6114ca6114c58461147a565b611460565b9050828152602081018484840111156114e6576114e56113fe565b5b6114f18482856114aa565b509392505050565b5f82601f83011261150d5761150c6113fa565b5b813561151d8482602086016114b8565b91505092915050565b5f6020828403121561153b5761153a611152565b5b5f82013567ffffffffffffffff81111561155857611557611156565b5b611564848285016114f9565b91505092915050565b61157681611284565b8114611580575f5ffd5b50565b5f813590506115918161156d565b92915050565b5f602082840312156115ac576115ab611152565b5b5f6115b984828501611583565b91505092915050565b7f596f7520617265206e6f742061626c6520746f20646f207468697320616374695f8201527f6f6e207269676874206e6f770000000000000000000000000000000000000000602082015250565b5f61161c602c836111c2565b9150611627826115c2565b604082019050919050565b5f6020820190508181035f83015261164981611610565b9050919050565b7f596f7520617265206e6f7420616c6c6f77656420746f20766f746500000000005f82015250565b5f611684601b836111c2565b915061168f82611650565b602082019050919050565b5f6020820190508181035f8301526116b181611678565b9050919050565b7f596f75206861766520616c726561647920766f746564000000000000000000005f82015250565b5f6116ec6016836111c2565b91506116f7826116b8565b602082019050919050565b5f6020820190508181035f830152611719816116e0565b9050919050565b7f4e487b71000000000000000000000000000000000000000000000000000000005f52603260045260245ffd5b7f4e487b71000000000000000000000000000000000000000000000000000000005f52601160045260245ffd5b5f6117848261115a565b915061178f8361115a565b92508282019050808211156117a7576117a661174d565b5b92915050565b5f6040820190506117c05f830185611295565b6117cd6020830184611228565b9392505050565b7f4e487b71000000000000000000000000000000000000000000000000000000005f52602260045260245ffd5b5f600282049050600182168061181857607f821691505b60208210810361182b5761182a6117d4565b5b50919050565b5f6040820190506118445f8301856113d2565b61185160208301846113d2565b9392505050565b7f596f7520617265206e6f7420616c6c6f77656420746f206d616b6520612070725f8201527f6f706f73616c0000000000000000000000000000000000000000000000000000602082015250565b5f6118b26026836111c2565b91506118bd82611858565b604082019050919050565b5f6020820190508181035f8301526118df816118a6565b9050919050565b5f819050815f5260205f209050919050565b5f6020601f8301049050919050565b5f82821b905092915050565b5f600883026119427fffffffffffffffffffffffffffffffffffffffffffffffffffffffffffffffff82611907565b61194c8683611907565b95508019841693508086168417925050509392505050565b5f819050919050565b5f61198761198261197d8461115a565b611964565b61115a565b9050919050565b5f819050919050565b6119a08361196d565b6119b46119ac8261198e565b848454611913565b825550505050565b5f5f905090565b6119cb6119bc565b6119d6818484611997565b505050565b5b818110156119f9576119ee5f826119c3565b6001810190506119dc565b5050565b601f821115611a3e57611a0f816118e6565b611a18846118f8565b81016020851015611a27578190505b611a3b611a33856118f8565b8301826119db565b50505b505050565b5f82821c905092915050565b5f611a5e5f1984600802611a43565b1980831691505092915050565b5f611a768383611a4f565b9150826002028217905092915050565b611a8f826111b8565b67ffffffffffffffff811115611aa857611aa7611402565b5b611ab28254611801565b611abd8282856119fd565b5f60209050601f831160018114611aee575f8415611adc578287015190505b611ae68582611a6b565b865550611b4d565b601f198416611afc866118e6565b5f5b82811015611b2357848901518255600182019150602085019450602081019050611afe565b86831015611b405784890151611b3c601f891682611a4f565b8355505b6001600288020188555050505b505050505050565b7f54686973206164647265737320697320616c726561647920696e20766f7465725f8201527f7300000000000000000000000000000000000000000000000000000000000000602082015250565b5f611baf6021836111c2565b9150611bba82611b55565b604082019050919050565b5f6020820190508181035f830152611bdc81611ba3565b905091905056fea264697066735822122024ba78a2c47aa87fe3b4a3d62d1c1483f0528abe3140e9c739f051b981bdc30864736f6c634300081c0033",
					"opcodes": "PUSH1 0x80 PUSH1 0x40 MSTORE CALLVALUE DUP1 ISZERO PUSH2 0xF JUMPI PUSH0 PUSH0 REVERT JUMPDEST POP CALLER PUSH0 PUSH20 0xFFFFFFFFFFFFFFFFFFFFFFFFFFFFFFFFFFFFFFFF AND DUP2 PUSH20 0xFFFFFFFFFFFFFFFFFFFFFFFFFFFFFFFFFFFFFFFF AND SUB PUSH2 0x81 JUMPI PUSH0 PUSH1 0x40 MLOAD PUSH32 0x1E4FBDF700000000000000000000000000000000000000000000000000000000 DUP2 MSTORE PUSH1 0x4 ADD PUSH2 0x78 SWAP2 SWAP1 PUSH2 0x196 JUMP JUMPDEST PUSH1 0x40 MLOAD DUP1 SWAP2 SUB SWAP1 REVERT JUMPDEST PUSH2 0x90 DUP2 PUSH2 0x96 PUSH1 0x20 SHL PUSH1 0x20 SHR JUMP JUMPDEST POP PUSH2 0x1AF JUMP JUMPDEST PUSH0 PUSH0 PUSH0 SWAP1 SLOAD SWAP1 PUSH2 0x100 EXP SWAP1 DIV PUSH20 0xFFFFFFFFFFFFFFFFFFFFFFFFFFFFFFFFFFFFFFFF AND SWAP1 POP DUP2 PUSH0 PUSH0 PUSH2 0x100 EXP DUP2 SLOAD DUP2 PUSH20 0xFFFFFFFFFFFFFFFFFFFFFFFFFFFFFFFFFFFFFFFF MUL NOT AND SWAP1 DUP4 PUSH20 0xFFFFFFFFFFFFFFFFFFFFFFFFFFFFFFFFFFFFFFFF AND MUL OR SWAP1 SSTORE POP DUP2 PUSH20 0xFFFFFFFFFFFFFFFFFFFFFFFFFFFFFFFFFFFFFFFF AND DUP2 PUSH20 0xFFFFFFFFFFFFFFFFFFFFFFFFFFFFFFFFFFFFFFFF AND PUSH32 0x8BE0079C531659141344CD1FD0A4F28419497F9722A3DAAFE3B4186F6B6457E0 PUSH1 0x40 MLOAD PUSH1 0x40 MLOAD DUP1 SWAP2 SUB SWAP1 LOG3 POP POP JUMP JUMPDEST PUSH0 PUSH20 0xFFFFFFFFFFFFFFFFFFFFFFFFFFFFFFFFFFFFFFFF DUP3 AND SWAP1 POP SWAP2 SWAP1 POP JUMP JUMPDEST PUSH0 PUSH2 0x180 DUP3 PUSH2 0x157 JUMP JUMPDEST SWAP1 POP SWAP2 SWAP1 POP JUMP JUMPDEST PUSH2 0x190 DUP2 PUSH2 0x176 JUMP JUMPDEST DUP3 MSTORE POP POP JUMP JUMPDEST PUSH0 PUSH1 0x20 DUP3 ADD SWAP1 POP PUSH2 0x1A9 PUSH0 DUP4 ADD DUP5 PUSH2 0x187 JUMP JUMPDEST SWAP3 SWAP2 POP POP JUMP JUMPDEST PUSH2 0x1C19 DUP1 PUSH2 0x1BC PUSH0 CODECOPY PUSH0 RETURN INVALID PUSH1 0x80 PUSH1 0x40 MSTORE CALLVALUE DUP1 ISZERO PUSH2 0xF JUMPI PUSH0 PUSH0 REVERT JUMPDEST POP PUSH1 0x4 CALLDATASIZE LT PUSH2 0xE8 JUMPI PUSH0 CALLDATALOAD PUSH1 0xE0 SHR DUP1 PUSH4 0xA7BFAB16 GT PUSH2 0x8A JUMPI DUP1 PUSH4 0xE2DD58C6 GT PUSH2 0x64 JUMPI DUP1 PUSH4 0xE2DD58C6 EQ PUSH2 0x1C5 JUMPI DUP1 PUSH4 0xED8A1608 EQ PUSH2 0x1E1 JUMPI DUP1 PUSH4 0xEE74C678 EQ PUSH2 0x1FD JUMPI DUP1 PUSH4 0xF2FDE38B EQ PUSH2 0x207 JUMPI PUSH2 0xE8 JUMP JUMPDEST DUP1 PUSH4 0xA7BFAB16 EQ PUSH2 0x1A7 JUMPI DUP1 PUSH4 0xADA7415F EQ PUSH2 0x1B1 JUMPI DUP1 PUSH4 0xE09B8C79 EQ PUSH2 0x1BB JUMPI PUSH2 0xE8 JUMP JUMPDEST DUP1 PUSH4 0x715018A6 GT PUSH2 0xC6 JUMPI DUP1 PUSH4 0x715018A6 EQ PUSH2 0x143 JUMPI DUP1 PUSH4 0x8DA5CB5B EQ PUSH2 0x14D JUMPI DUP1 PUSH4 0x8E7EA5B2 EQ PUSH2 0x16B JUMPI DUP1 PUSH4 0xA1EDFFA2 EQ PUSH2 0x189 JUMPI PUSH2 0xE8 JUMP JUMPDEST DUP1 PUSH4 0x121B93F EQ PUSH2 0xEC JUMPI DUP1 PUSH4 0x13CF08B EQ PUSH2 0x108 JUMPI DUP1 PUSH4 0x6C297445 EQ PUSH2 0x139 JUMPI JUMPDEST PUSH0 PUSH0 REVERT JUMPDEST PUSH2 0x106 PUSH1 0x4 DUP1 CALLDATASIZE SUB DUP2 ADD SWAP1 PUSH2 0x101 SWAP2 SWAP1 PUSH2 0x118D JUMP JUMPDEST PUSH2 0x223 JUMP JUMPDEST STOP JUMPDEST PUSH2 0x122 PUSH1 0x4 DUP1 CALLDATASIZE SUB DUP2 ADD SWAP1 PUSH2 0x11D SWAP2 SWAP1 PUSH2 0x118D JUMP JUMPDEST PUSH2 0x4C5 JUMP JUMPDEST PUSH1 0x40 MLOAD PUSH2 0x130 SWAP3 SWAP2 SWAP1 PUSH2 0x1237 JUMP JUMPDEST PUSH1 0x40 MLOAD DUP1 SWAP2 SUB SWAP1 RETURN JUMPDEST PUSH2 0x141 PUSH2 0x57A JUMP JUMPDEST STOP JUMPDEST PUSH2 0x14B PUSH2 0x660 JUMP JUMPDEST STOP JUMPDEST PUSH2 0x155 PUSH2 0x673 JUMP JUMPDEST PUSH1 0x40 MLOAD PUSH2 0x162 SWAP2 SWAP1 PUSH2 0x12A4 JUMP JUMPDEST PUSH1 0x40 MLOAD DUP1 SWAP2 SUB SWAP1 RETURN JUMPDEST PUSH2 0x173 PUSH2 0x69A JUMP JUMPDEST PUSH1 0x40 MLOAD PUSH2 0x180 SWAP2 SWAP1 PUSH2 0x134E JUMP JUMPDEST PUSH1 0x40 MLOAD DUP1 SWAP2 SUB SWAP1 RETURN JUMPDEST PUSH2 0x191 PUSH2 0x7E4 JUMP JUMPDEST PUSH1 0x40 MLOAD PUSH2 0x19E SWAP2 SWAP1 PUSH2 0x13E1 JUMP JUMPDEST PUSH1 0x40 MLOAD DUP1 SWAP2 SUB SWAP1 RETURN JUMPDEST PUSH2 0x1AF PUSH2 0x7F6 JUMP JUMPDEST STOP JUMPDEST PUSH2 0x1B9 PUSH2 0x8DC JUMP JUMPDEST STOP JUMPDEST PUSH2 0x1C3 PUSH2 0xA40 JUMP JUMPDEST STOP JUMPDEST PUSH2 0x1DF PUSH1 0x4 DUP1 CALLDATASIZE SUB DUP2 ADD SWAP1 PUSH2 0x1DA SWAP2 SWAP1 PUSH2 0x1526 JUMP JUMPDEST PUSH2 0xB24 JUMP JUMPDEST STOP JUMPDEST PUSH2 0x1FB PUSH1 0x4 DUP1 CALLDATASIZE SUB DUP2 ADD SWAP1 PUSH2 0x1F6 SWAP2 SWAP1 PUSH2 0x1597 JUMP JUMPDEST PUSH2 0xCDC JUMP JUMPDEST STOP JUMPDEST PUSH2 0x205 PUSH2 0xE77 JUMP JUMPDEST STOP JUMPDEST PUSH2 0x221 PUSH1 0x4 DUP1 CALLDATASIZE SUB DUP2 ADD SWAP1 PUSH2 0x21C SWAP2 SWAP1 PUSH2 0x1597 JUMP JUMPDEST PUSH2 0xF5D JUMP JUMPDEST STOP JUMPDEST PUSH1 0x3 DUP1 PUSH1 0x5 DUP2 GT ISZERO PUSH2 0x238 JUMPI PUSH2 0x237 PUSH2 0x136E JUMP JUMPDEST JUMPDEST PUSH0 PUSH1 0x14 SWAP1 SLOAD SWAP1 PUSH2 0x100 EXP SWAP1 DIV PUSH1 0xFF AND PUSH1 0x5 DUP2 GT ISZERO PUSH2 0x259 JUMPI PUSH2 0x258 PUSH2 0x136E JUMP JUMPDEST JUMPDEST EQ PUSH2 0x299 JUMPI PUSH1 0x40 MLOAD PUSH32 0x8C379A000000000000000000000000000000000000000000000000000000000 DUP2 MSTORE PUSH1 0x4 ADD PUSH2 0x290 SWAP1 PUSH2 0x1632 JUMP JUMPDEST PUSH1 0x40 MLOAD DUP1 SWAP2 SUB SWAP1 REVERT JUMPDEST PUSH1 0x2 PUSH0 CALLER PUSH20 0xFFFFFFFFFFFFFFFFFFFFFFFFFFFFFFFFFFFFFFFF AND PUSH20 0xFFFFFFFFFFFFFFFFFFFFFFFFFFFFFFFFFFFFFFFF AND DUP2 MSTORE PUSH1 0x20 ADD SWAP1 DUP2 MSTORE PUSH1 0x20 ADD PUSH0 KECCAK256 PUSH0 ADD PUSH0 SWAP1 SLOAD SWAP1 PUSH2 0x100 EXP SWAP1 DIV PUSH1 0xFF AND PUSH2 0x324 JUMPI PUSH1 0x40 MLOAD PUSH32 0x8C379A000000000000000000000000000000000000000000000000000000000 DUP2 MSTORE PUSH1 0x4 ADD PUSH2 0x31B SWAP1 PUSH2 0x169A JUMP JUMPDEST PUSH1 0x40 MLOAD DUP1 SWAP2 SUB SWAP1 REVERT JUMPDEST PUSH1 0x2 PUSH0 CALLER PUSH20 0xFFFFFFFFFFFFFFFFFFFFFFFFFFFFFFFFFFFFFFFF AND PUSH20 0xFFFFFFFFFFFFFFFFFFFFFFFFFFFFFFFFFFFFFFFF AND DUP2 MSTORE PUSH1 0x20 ADD SWAP1 DUP2 MSTORE PUSH1 0x20 ADD PUSH0 KECCAK256 PUSH0 ADD PUSH1 0x1 SWAP1 SLOAD SWAP1 PUSH2 0x100 EXP SWAP1 DIV PUSH1 0xFF AND ISZERO PUSH2 0x3B1 JUMPI PUSH1 0x40 MLOAD PUSH32 0x8C379A000000000000000000000000000000000000000000000000000000000 DUP2 MSTORE PUSH1 0x4 ADD PUSH2 0x3A8 SWAP1 PUSH2 0x1702 JUMP JUMPDEST PUSH1 0x40 MLOAD DUP1 SWAP2 SUB SWAP1 REVERT JUMPDEST PUSH1 0x1 PUSH1 0x3 DUP4 DUP2 SLOAD DUP2 LT PUSH2 0x3C7 JUMPI PUSH2 0x3C6 PUSH2 0x1720 JUMP JUMPDEST JUMPDEST SWAP1 PUSH0 MSTORE PUSH1 0x20 PUSH0 KECCAK256 SWAP1 PUSH1 0x2 MUL ADD PUSH1 0x1 ADD PUSH0 DUP3 DUP3 SLOAD PUSH2 0x3E4 SWAP2 SWAP1 PUSH2 0x177A JUMP JUMPDEST SWAP3 POP POP DUP2 SWAP1 SSTORE POP PUSH1 0x1 PUSH1 0x2 PUSH0 CALLER PUSH20 0xFFFFFFFFFFFFFFFFFFFFFFFFFFFFFFFFFFFFFFFF AND PUSH20 0xFFFFFFFFFFFFFFFFFFFFFFFFFFFFFFFFFFFFFFFF AND DUP2 MSTORE PUSH1 0x20 ADD SWAP1 DUP2 MSTORE PUSH1 0x20 ADD PUSH0 KECCAK256 PUSH0 ADD PUSH1 0x1 PUSH2 0x100 EXP DUP2 SLOAD DUP2 PUSH1 0xFF MUL NOT AND SWAP1 DUP4 ISZERO ISZERO MUL OR SWAP1 SSTORE POP DUP2 PUSH1 0x2 PUSH0 CALLER PUSH20 0xFFFFFFFFFFFFFFFFFFFFFFFFFFFFFFFFFFFFFFFF AND PUSH20 0xFFFFFFFFFFFFFFFFFFFFFFFFFFFFFFFFFFFFFFFF AND DUP2 MSTORE PUSH1 0x20 ADD SWAP1 DUP2 MSTORE PUSH1 0x20 ADD PUSH0 KECCAK256 PUSH1 0x1 ADD DUP2 SWAP1 SSTORE POP PUSH32 0x4D99B957A2BC29A30EBD96A7BE8E68FE50A3C701DB28A91436490B7D53870CA4 CALLER DUP4 PUSH1 0x40 MLOAD PUSH2 0x4B9 SWAP3 SWAP2 SWAP1 PUSH2 0x17AD JUMP JUMPDEST PUSH1 0x40 MLOAD DUP1 SWAP2 SUB SWAP1 LOG1 POP POP JUMP JUMPDEST PUSH1 0x3 DUP2 DUP2 SLOAD DUP2 LT PUSH2 0x4D4 JUMPI PUSH0 DUP1 REVERT JUMPDEST SWAP1 PUSH0 MSTORE PUSH1 0x20 PUSH0 KECCAK256 SWAP1 PUSH1 0x2 MUL ADD PUSH0 SWAP2 POP SWAP1 POP DUP1 PUSH0 ADD DUP1 SLOAD PUSH2 0x4F3 SWAP1 PUSH2 0x1801 JUMP JUMPDEST DUP1 PUSH1 0x1F ADD PUSH1 0x20 DUP1 SWAP2 DIV MUL PUSH1 0x20 ADD PUSH1 0x40 MLOAD SWAP1 DUP2 ADD PUSH1 0x40 MSTORE DUP1 SWAP3 SWAP2 SWAP1 DUP2 DUP2 MSTORE PUSH1 0x20 ADD DUP3 DUP1 SLOAD PUSH2 0x51F SWAP1 PUSH2 0x1801 JUMP JUMPDEST DUP1 ISZERO PUSH2 0x56A JUMPI DUP1 PUSH1 0x1F LT PUSH2 0x541 JUMPI PUSH2 0x100 DUP1 DUP4 SLOAD DIV MUL DUP4 MSTORE SWAP2 PUSH1 0x20 ADD SWAP2 PUSH2 0x56A JUMP JUMPDEST DUP3 ADD SWAP2 SWAP1 PUSH0 MSTORE PUSH1 0x20 PUSH0 KECCAK256 SWAP1 JUMPDEST DUP2 SLOAD DUP2 MSTORE SWAP1 PUSH1 0x1 ADD SWAP1 PUSH1 0x20 ADD DUP1 DUP4 GT PUSH2 0x54D JUMPI DUP3 SWAP1 SUB PUSH1 0x1F AND DUP3 ADD SWAP2 JUMPDEST POP POP POP POP POP SWAP1 DUP1 PUSH1 0x1 ADD SLOAD SWAP1 POP DUP3 JUMP JUMPDEST PUSH1 0x1 DUP1 PUSH1 0x5 DUP2 GT ISZERO PUSH2 0x58F JUMPI PUSH2 0x58E PUSH2 0x136E JUMP JUMPDEST JUMPDEST PUSH0 PUSH1 0x14 SWAP1 SLOAD SWAP1 PUSH2 0x100 EXP SWAP1 DIV PUSH1 0xFF AND PUSH1 0x5 DUP2 GT ISZERO PUSH2 0x5B0 JUMPI PUSH2 0x5AF PUSH2 0x136E JUMP JUMPDEST JUMPDEST EQ PUSH2 0x5F0 JUMPI PUSH1 0x40 MLOAD PUSH32 0x8C379A000000000000000000000000000000000000000000000000000000000 DUP2 MSTORE PUSH1 0x4 ADD PUSH2 0x5E7 SWAP1 PUSH2 0x1632 JUMP JUMPDEST PUSH1 0x40 MLOAD DUP1 SWAP2 SUB SWAP1 REVERT JUMPDEST PUSH2 0x5F8 PUSH2 0xFE1 JUMP JUMPDEST PUSH1 0x2 PUSH0 PUSH1 0x14 PUSH2 0x100 EXP DUP2 SLOAD DUP2 PUSH1 0xFF MUL NOT AND SWAP1 DUP4 PUSH1 0x5 DUP2 GT ISZERO PUSH2 0x61D JUMPI PUSH2 0x61C PUSH2 0x136E JUMP JUMPDEST JUMPDEST MUL OR SWAP1 SSTORE POP PUSH32 0xA97A4EE45751E2ABF3E4FC8946939630B11B371EA8AE39CCDC3056E98F5CC3F PUSH1 0x1 PUSH1 0x2 PUSH1 0x40 MLOAD PUSH2 0x655 SWAP3 SWAP2 SWAP1 PUSH2 0x1831 JUMP JUMPDEST PUSH1 0x40 MLOAD DUP1 SWAP2 SUB SWAP1 LOG1 POP JUMP JUMPDEST PUSH2 0x668 PUSH2 0xFE1 JUMP JUMPDEST PUSH2 0x671 PUSH0 PUSH2 0x1068 JUMP JUMPDEST JUMP JUMPDEST PUSH0 PUSH0 PUSH0 SWAP1 SLOAD SWAP1 PUSH2 0x100 EXP SWAP1 DIV PUSH20 0xFFFFFFFFFFFFFFFFFFFFFFFFFFFFFFFFFFFFFFFF AND SWAP1 POP SWAP1 JUMP JUMPDEST PUSH2 0x6A2 PUSH2 0x1130 JUMP JUMPDEST PUSH1 0x5 DUP1 PUSH1 0x5 DUP2 GT ISZERO PUSH2 0x6B7 JUMPI PUSH2 0x6B6 PUSH2 0x136E JUMP JUMPDEST JUMPDEST PUSH0 PUSH1 0x14 SWAP1 SLOAD SWAP1 PUSH2 0x100 EXP SWAP1 DIV PUSH1 0xFF AND PUSH1 0x5 DUP2 GT ISZERO PUSH2 0x6D8 JUMPI PUSH2 0x6D7 PUSH2 0x136E JUMP JUMPDEST JUMPDEST EQ PUSH2 0x718 JUMPI PUSH1 0x40 MLOAD PUSH32 0x8C379A000000000000000000000000000000000000000000000000000000000 DUP2 MSTORE PUSH1 0x4 ADD PUSH2 0x70F SWAP1 PUSH2 0x1632 JUMP JUMPDEST PUSH1 0x40 MLOAD DUP1 SWAP2 SUB SWAP1 REVERT JUMPDEST PUSH1 0x3 PUSH1 0x1 SLOAD DUP2 SLOAD DUP2 LT PUSH2 0x72E JUMPI PUSH2 0x72D PUSH2 0x1720 JUMP JUMPDEST JUMPDEST SWAP1 PUSH0 MSTORE PUSH1 0x20 PUSH0 KECCAK256 SWAP1 PUSH1 0x2 MUL ADD PUSH1 0x40 MLOAD DUP1 PUSH1 0x40 ADD PUSH1 0x40 MSTORE SWAP1 DUP2 PUSH0 DUP3 ADD DUP1 SLOAD PUSH2 0x754 SWAP1 PUSH2 0x1801 JUMP JUMPDEST DUP1 PUSH1 0x1F ADD PUSH1 0x20 DUP1 SWAP2 DIV MUL PUSH1 0x20 ADD PUSH1 0x40 MLOAD SWAP1 DUP2 ADD PUSH1 0x40 MSTORE DUP1 SWAP3 SWAP2 SWAP1 DUP2 DUP2 MSTORE PUSH1 0x20 ADD DUP3 DUP1 SLOAD PUSH2 0x780 SWAP1 PUSH2 0x1801 JUMP JUMPDEST DUP1 ISZERO PUSH2 0x7CB JUMPI DUP1 PUSH1 0x1F LT PUSH2 0x7A2 JUMPI PUSH2 0x100 DUP1 DUP4 SLOAD DIV MUL DUP4 MSTORE SWAP2 PUSH1 0x20 ADD SWAP2 PUSH2 0x7CB JUMP JUMPDEST DUP3 ADD SWAP2 SWAP1 PUSH0 MSTORE PUSH1 0x20 PUSH0 KECCAK256 SWAP1 JUMPDEST DUP2 SLOAD DUP2 MSTORE SWAP1 PUSH1 0x1 ADD SWAP1 PUSH1 0x20 ADD DUP1 DUP4 GT PUSH2 0x7AE JUMPI DUP3 SWAP1 SUB PUSH1 0x1F AND DUP3 ADD SWAP2 JUMPDEST POP POP POP POP POP DUP2 MSTORE PUSH1 0x20 ADD PUSH1 0x1 DUP3 ADD SLOAD DUP2 MSTORE POP POP SWAP2 POP POP SWAP1 JUMP JUMPDEST PUSH0 PUSH1 0x14 SWAP1 SLOAD SWAP1 PUSH2 0x100 EXP SWAP1 DIV PUSH1 0xFF AND DUP2 JUMP JUMPDEST PUSH1 0x3 DUP1 PUSH1 0x5 DUP2 GT ISZERO PUSH2 0x80B JUMPI PUSH2 0x80A PUSH2 0x136E JUMP JUMPDEST JUMPDEST PUSH0 PUSH1 0x14 SWAP1 SLOAD SWAP1 PUSH2 0x100 EXP SWAP1 DIV PUSH1 0xFF AND PUSH1 0x5 DUP2 GT ISZERO PUSH2 0x82C JUMPI PUSH2 0x82B PUSH2 0x136E JUMP JUMPDEST JUMPDEST EQ PUSH2 0x86C JUMPI PUSH1 0x40 MLOAD PUSH32 0x8C379A000000000000000000000000000000000000000000000000000000000 DUP2 MSTORE PUSH1 0x4 ADD PUSH2 0x863 SWAP1 PUSH2 0x1632 JUMP JUMPDEST PUSH1 0x40 MLOAD DUP1 SWAP2 SUB SWAP1 REVERT JUMPDEST PUSH2 0x874 PUSH2 0xFE1 JUMP JUMPDEST PUSH1 0x4 PUSH0 PUSH1 0x14 PUSH2 0x100 EXP DUP2 SLOAD DUP2 PUSH1 0xFF MUL NOT AND SWAP1 DUP4 PUSH1 0x5 DUP2 GT ISZERO PUSH2 0x899 JUMPI PUSH2 0x898 PUSH2 0x136E JUMP JUMPDEST JUMPDEST MUL OR SWAP1 SSTORE POP PUSH32 0xA97A4EE45751E2ABF3E4FC8946939630B11B371EA8AE39CCDC3056E98F5CC3F PUSH1 0x3 PUSH1 0x4 PUSH1 0x40 MLOAD PUSH2 0x8D1 SWAP3 SWAP2 SWAP1 PUSH2 0x1831 JUMP JUMPDEST PUSH1 0x40 MLOAD DUP1 SWAP2 SUB SWAP1 LOG1 POP JUMP JUMPDEST PUSH1 0x4 DUP1 PUSH1 0x5 DUP2 GT ISZERO PUSH2 0x8F1 JUMPI PUSH2 0x8F0 PUSH2 0x136E JUMP JUMPDEST JUMPDEST PUSH0 PUSH1 0x14 SWAP1 SLOAD SWAP1 PUSH2 0x100 EXP SWAP1 DIV PUSH1 0xFF AND PUSH1 0x5 DUP2 GT ISZERO PUSH2 0x912 JUMPI PUSH2 0x911 PUSH2 0x136E JUMP JUMPDEST JUMPDEST EQ PUSH2 0x952 JUMPI PUSH1 0x40 MLOAD PUSH32 0x8C379A000000000000000000000000000000000000000000000000000000000 DUP2 MSTORE PUSH1 0x4 ADD PUSH2 0x949 SWAP1 PUSH2 0x1632 JUMP JUMPDEST PUSH1 0x40 MLOAD DUP1 SWAP2 SUB SWAP1 REVERT JUMPDEST PUSH2 0x95A PUSH2 0xFE1 JUMP JUMPDEST PUSH0 PUSH0 SWAP1 POP PUSH0 PUSH0 SWAP1 POP JUMPDEST PUSH1 0x3 DUP1 SLOAD SWAP1 POP DUP2 LT ISZERO PUSH2 0x9D6 JUMPI DUP2 PUSH1 0x3 DUP3 DUP2 SLOAD DUP2 LT PUSH2 0x985 JUMPI PUSH2 0x984 PUSH2 0x1720 JUMP JUMPDEST JUMPDEST SWAP1 PUSH0 MSTORE PUSH1 0x20 PUSH0 KECCAK256 SWAP1 PUSH1 0x2 MUL ADD PUSH1 0x1 ADD SLOAD GT ISZERO PUSH2 0x9C9 JUMPI PUSH1 0x3 DUP2 DUP2 SLOAD DUP2 LT PUSH2 0x9AF JUMPI PUSH2 0x9AE PUSH2 0x1720 JUMP JUMPDEST JUMPDEST SWAP1 PUSH0 MSTORE PUSH1 0x20 PUSH0 KECCAK256 SWAP1 PUSH1 0x2 MUL ADD PUSH1 0x1 ADD SLOAD SWAP2 POP DUP1 PUSH1 0x1 DUP2 SWAP1 SSTORE POP JUMPDEST DUP1 DUP1 PUSH1 0x1 ADD SWAP2 POP POP PUSH2 0x963 JUMP JUMPDEST POP PUSH1 0x5 PUSH0 PUSH1 0x14 PUSH2 0x100 EXP DUP2 SLOAD DUP2 PUSH1 0xFF MUL NOT AND SWAP1 DUP4 PUSH1 0x5 DUP2 GT ISZERO PUSH2 0x9FC JUMPI PUSH2 0x9FB PUSH2 0x136E JUMP JUMPDEST JUMPDEST MUL OR SWAP1 SSTORE POP PUSH32 0xA97A4EE45751E2ABF3E4FC8946939630B11B371EA8AE39CCDC3056E98F5CC3F PUSH1 0x4 PUSH1 0x5 PUSH1 0x40 MLOAD PUSH2 0xA34 SWAP3 SWAP2 SWAP1 PUSH2 0x1831 JUMP JUMPDEST PUSH1 0x40 MLOAD DUP1 SWAP2 SUB SWAP1 LOG1 POP POP JUMP JUMPDEST PUSH0 DUP1 PUSH1 0x5 DUP2 GT ISZERO PUSH2 0xA54 JUMPI PUSH2 0xA53 PUSH2 0x136E JUMP JUMPDEST JUMPDEST PUSH0 PUSH1 0x14 SWAP1 SLOAD SWAP1 PUSH2 0x100 EXP SWAP1 DIV PUSH1 0xFF AND PUSH1 0x5 DUP2 GT ISZERO PUSH2 0xA75 JUMPI PUSH2 0xA74 PUSH2 0x136E JUMP JUMPDEST JUMPDEST EQ PUSH2 0xAB5 JUMPI PUSH1 0x40 MLOAD PUSH32 0x8C379A000000000000000000000000000000000000000000000000000000000 DUP2 MSTORE PUSH1 0x4 ADD PUSH2 0xAAC SWAP1 PUSH2 0x1632 JUMP JUMPDEST PUSH1 0x40 MLOAD DUP1 SWAP2 SUB SWAP1 REVERT JUMPDEST PUSH2 0xABD PUSH2 0xFE1 JUMP JUMPDEST PUSH1 0x1 PUSH0 PUSH1 0x14 PUSH2 0x100 EXP DUP2 SLOAD DUP2 PUSH1 0xFF MUL NOT AND SWAP1 DUP4 PUSH1 0x5 DUP2 GT ISZERO PUSH2 0xAE2 JUMPI PUSH2 0xAE1 PUSH2 0x136E JUMP JUMPDEST JUMPDEST MUL OR SWAP1 SSTORE POP PUSH32 0xA97A4EE45751E2ABF3E4FC8946939630B11B371EA8AE39CCDC3056E98F5CC3F PUSH0 PUSH1 0x1 PUSH1 0x40 MLOAD PUSH2 0xB19 SWAP3 SWAP2 SWAP1 PUSH2 0x1831 JUMP JUMPDEST PUSH1 0x40 MLOAD DUP1 SWAP2 SUB SWAP1 LOG1 POP JUMP JUMPDEST PUSH1 0x1 DUP1 PUSH1 0x5 DUP2 GT ISZERO PUSH2 0xB39 JUMPI PUSH2 0xB38 PUSH2 0x136E JUMP JUMPDEST JUMPDEST PUSH0 PUSH1 0x14 SWAP1 SLOAD SWAP1 PUSH2 0x100 EXP SWAP1 DIV PUSH1 0xFF AND PUSH1 0x5 DUP2 GT ISZERO PUSH2 0xB5A JUMPI PUSH2 0xB59 PUSH2 0x136E JUMP JUMPDEST JUMPDEST EQ PUSH2 0xB9A JUMPI PUSH1 0x40 MLOAD PUSH32 0x8C379A000000000000000000000000000000000000000000000000000000000 DUP2 MSTORE PUSH1 0x4 ADD PUSH2 0xB91 SWAP1 PUSH2 0x1632 JUMP JUMPDEST PUSH1 0x40 MLOAD DUP1 SWAP2 SUB SWAP1 REVERT JUMPDEST PUSH1 0x2 PUSH0 CALLER PUSH20 0xFFFFFFFFFFFFFFFFFFFFFFFFFFFFFFFFFFFFFFFF AND PUSH20 0xFFFFFFFFFFFFFFFFFFFFFFFFFFFFFFFFFFFFFFFF AND DUP2 MSTORE PUSH1 0x20 ADD SWAP1 DUP2 MSTORE PUSH1 0x20 ADD PUSH0 KECCAK256 PUSH0 ADD PUSH0 SWAP1 SLOAD SWAP1 PUSH2 0x100 EXP SWAP1 DIV PUSH1 0xFF AND PUSH2 0xC25 JUMPI PUSH1 0x40 MLOAD PUSH32 0x8C379A000000000000000000000000000000000000000000000000000000000 DUP2 MSTORE PUSH1 0x4 ADD PUSH2 0xC1C SWAP1 PUSH2 0x18C8 JUMP JUMPDEST PUSH1 0x40 MLOAD DUP1 SWAP2 SUB SWAP1 REVERT JUMPDEST PUSH1 0x3 PUSH1 0x40 MLOAD DUP1 PUSH1 0x40 ADD PUSH1 0x40 MSTORE DUP1 DUP5 DUP2 MSTORE PUSH1 0x20 ADD PUSH0 DUP2 MSTORE POP SWAP1 DUP1 PUSH1 0x1 DUP2 SLOAD ADD DUP1 DUP3 SSTORE DUP1 SWAP2 POP POP PUSH1 0x1 SWAP1 SUB SWAP1 PUSH0 MSTORE PUSH1 0x20 PUSH0 KECCAK256 SWAP1 PUSH1 0x2 MUL ADD PUSH0 SWAP1 SWAP2 SWAP1 SWAP2 SWAP1 SWAP2 POP PUSH0 DUP3 ADD MLOAD DUP2 PUSH0 ADD SWAP1 DUP2 PUSH2 0xC75 SWAP2 SWAP1 PUSH2 0x1A86 JUMP JUMPDEST POP PUSH1 0x20 DUP3 ADD MLOAD DUP2 PUSH1 0x1 ADD SSTORE POP POP PUSH1 0x1 PUSH1 0x3 DUP1 SLOAD SWAP1 POP PUSH2 0xC94 SWAP2 SWAP1 PUSH2 0x177A JUMP JUMPDEST PUSH1 0x2 PUSH0 CALLER PUSH20 0xFFFFFFFFFFFFFFFFFFFFFFFFFFFFFFFFFFFFFFFF AND PUSH20 0xFFFFFFFFFFFFFFFFFFFFFFFFFFFFFFFFFFFFFFFF AND DUP2 MSTORE PUSH1 0x20 ADD SWAP1 DUP2 MSTORE PUSH1 0x20 ADD PUSH0 KECCAK256 PUSH1 0x1 ADD DUP2 SWAP1 SSTORE POP POP POP JUMP JUMPDEST PUSH0 DUP1 PUSH1 0x5 DUP2 GT ISZERO PUSH2 0xCF0 JUMPI PUSH2 0xCEF PUSH2 0x136E JUMP JUMPDEST JUMPDEST PUSH0 PUSH1 0x14 SWAP1 SLOAD SWAP1 PUSH2 0x100 EXP SWAP1 DIV PUSH1 0xFF AND PUSH1 0x5 DUP2 GT ISZERO PUSH2 0xD11 JUMPI PUSH2 0xD10 PUSH2 0x136E JUMP JUMPDEST JUMPDEST EQ PUSH2 0xD51 JUMPI PUSH1 0x40 MLOAD PUSH32 0x8C379A000000000000000000000000000000000000000000000000000000000 DUP2 MSTORE PUSH1 0x4 ADD PUSH2 0xD48 SWAP1 PUSH2 0x1632 JUMP JUMPDEST PUSH1 0x40 MLOAD DUP1 SWAP2 SUB SWAP1 REVERT JUMPDEST PUSH2 0xD59 PUSH2 0xFE1 JUMP JUMPDEST PUSH1 0x2 PUSH0 DUP4 PUSH20 0xFFFFFFFFFFFFFFFFFFFFFFFFFFFFFFFFFFFFFFFF AND PUSH20 0xFFFFFFFFFFFFFFFFFFFFFFFFFFFFFFFFFFFFFFFF AND DUP2 MSTORE PUSH1 0x20 ADD SWAP1 DUP2 MSTORE PUSH1 0x20 ADD PUSH0 KECCAK256 PUSH0 ADD PUSH0 SWAP1 SLOAD SWAP1 PUSH2 0x100 EXP SWAP1 DIV PUSH1 0xFF AND ISZERO PUSH2 0xDE5 JUMPI PUSH1 0x40 MLOAD PUSH32 0x8C379A000000000000000000000000000000000000000000000000000000000 DUP2 MSTORE PUSH1 0x4 ADD PUSH2 0xDDC SWAP1 PUSH2 0x1BC5 JUMP JUMPDEST PUSH1 0x40 MLOAD DUP1 SWAP2 SUB SWAP1 REVERT JUMPDEST PUSH1 0x1 PUSH1 0x2 PUSH0 DUP5 PUSH20 0xFFFFFFFFFFFFFFFFFFFFFFFFFFFFFFFFFFFFFFFF AND PUSH20 0xFFFFFFFFFFFFFFFFFFFFFFFFFFFFFFFFFFFFFFFF AND DUP2 MSTORE PUSH1 0x20 ADD SWAP1 DUP2 MSTORE PUSH1 0x20 ADD PUSH0 KECCAK256 PUSH0 ADD PUSH0 PUSH2 0x100 EXP DUP2 SLOAD DUP2 PUSH1 0xFF MUL NOT AND SWAP1 DUP4 ISZERO ISZERO MUL OR SWAP1 SSTORE POP PUSH32 0xB6BE2187D059CC2A55FE29E0E503B566E1E0F8C8780096E185429350ACFFD3DD DUP3 PUSH1 0x40 MLOAD PUSH2 0xE6B SWAP2 SWAP1 PUSH2 0x12A4 JUMP JUMPDEST PUSH1 0x40 MLOAD DUP1 SWAP2 SUB SWAP1 LOG1 POP POP JUMP JUMPDEST PUSH1 0x2 DUP1 PUSH1 0x5 DUP2 GT ISZERO PUSH2 0xE8C JUMPI PUSH2 0xE8B PUSH2 0x136E JUMP JUMPDEST JUMPDEST PUSH0 PUSH1 0x14 SWAP1 SLOAD SWAP1 PUSH2 0x100 EXP SWAP1 DIV PUSH1 0xFF AND PUSH1 0x5 DUP2 GT ISZERO PUSH2 0xEAD JUMPI PUSH2 0xEAC PUSH2 0x136E JUMP JUMPDEST JUMPDEST EQ PUSH2 0xEED JUMPI PUSH1 0x40 MLOAD PUSH32 0x8C379A000000000000000000000000000000000000000000000000000000000 DUP2 MSTORE PUSH1 0x4 ADD PUSH2 0xEE4 SWAP1 PUSH2 0x1632 JUMP JUMPDEST PUSH1 0x40 MLOAD DUP1 SWAP2 SUB SWAP1 REVERT JUMPDEST PUSH2 0xEF5 PUSH2 0xFE1 JUMP JUMPDEST PUSH1 0x3 PUSH0 PUSH1 0x14 PUSH2 0x100 EXP DUP2 SLOAD DUP2 PUSH1 0xFF MUL NOT AND SWAP1 DUP4 PUSH1 0x5 DUP2 GT ISZERO PUSH2 0xF1A JUMPI PUSH2 0xF19 PUSH2 0x136E JUMP JUMPDEST JUMPDEST MUL OR SWAP1 SSTORE POP PUSH32 0xA97A4EE45751E2ABF3E4FC8946939630B11B371EA8AE39CCDC3056E98F5CC3F PUSH1 0x2 PUSH1 0x3 PUSH1 0x40 MLOAD PUSH2 0xF52 SWAP3 SWAP2 SWAP1 PUSH2 0x1831 JUMP JUMPDEST PUSH1 0x40 MLOAD DUP1 SWAP2 SUB SWAP1 LOG1 POP JUMP JUMPDEST PUSH2 0xF65 PUSH2 0xFE1 JUMP JUMPDEST PUSH0 PUSH20 0xFFFFFFFFFFFFFFFFFFFFFFFFFFFFFFFFFFFFFFFF AND DUP2 PUSH20 0xFFFFFFFFFFFFFFFFFFFFFFFFFFFFFFFFFFFFFFFF AND SUB PUSH2 0xFD5 JUMPI PUSH0 PUSH1 0x40 MLOAD PUSH32 0x1E4FBDF700000000000000000000000000000000000000000000000000000000 DUP2 MSTORE PUSH1 0x4 ADD PUSH2 0xFCC SWAP2 SWAP1 PUSH2 0x12A4 JUMP JUMPDEST PUSH1 0x40 MLOAD DUP1 SWAP2 SUB SWAP1 REVERT JUMPDEST PUSH2 0xFDE DUP2 PUSH2 0x1068 JUMP JUMPDEST POP JUMP JUMPDEST PUSH2 0xFE9 PUSH2 0x1129 JUMP JUMPDEST PUSH20 0xFFFFFFFFFFFFFFFFFFFFFFFFFFFFFFFFFFFFFFFF AND PUSH2 0x1007 PUSH2 0x673 JUMP JUMPDEST PUSH20 0xFFFFFFFFFFFFFFFFFFFFFFFFFFFFFFFFFFFFFFFF AND EQ PUSH2 0x1066 JUMPI PUSH2 0x102A PUSH2 0x1129 JUMP JUMPDEST PUSH1 0x40 MLOAD PUSH32 0x118CDAA700000000000000000000000000000000000000000000000000000000 DUP2 MSTORE PUSH1 0x4 ADD PUSH2 0x105D SWAP2 SWAP1 PUSH2 0x12A4 JUMP JUMPDEST PUSH1 0x40 MLOAD DUP1 SWAP2 SUB SWAP1 REVERT JUMPDEST JUMP JUMPDEST PUSH0 PUSH0 PUSH0 SWAP1 SLOAD SWAP1 PUSH2 0x100 EXP SWAP1 DIV PUSH20 0xFFFFFFFFFFFFFFFFFFFFFFFFFFFFFFFFFFFFFFFF AND SWAP1 POP DUP2 PUSH0 PUSH0 PUSH2 0x100 EXP DUP2 SLOAD DUP2 PUSH20 0xFFFFFFFFFFFFFFFFFFFFFFFFFFFFFFFFFFFFFFFF MUL NOT AND SWAP1 DUP4 PUSH20 0xFFFFFFFFFFFFFFFFFFFFFFFFFFFFFFFFFFFFFFFF AND MUL OR SWAP1 SSTORE POP DUP2 PUSH20 0xFFFFFFFFFFFFFFFFFFFFFFFFFFFFFFFFFFFFFFFF AND DUP2 PUSH20 0xFFFFFFFFFFFFFFFFFFFFFFFFFFFFFFFFFFFFFFFF AND PUSH32 0x8BE0079C531659141344CD1FD0A4F28419497F9722A3DAAFE3B4186F6B6457E0 PUSH1 0x40 MLOAD PUSH1 0x40 MLOAD DUP1 SWAP2 SUB SWAP1 LOG3 POP POP JUMP JUMPDEST PUSH0 CALLER SWAP1 POP SWAP1 JUMP JUMPDEST PUSH1 0x40 MLOAD DUP1 PUSH1 0x40 ADD PUSH1 0x40 MSTORE DUP1 PUSH1 0x60 DUP2 MSTORE PUSH1 0x20 ADD PUSH0 DUP2 MSTORE POP SWAP1 JUMP JUMPDEST PUSH0 PUSH1 0x40 MLOAD SWAP1 POP SWAP1 JUMP JUMPDEST PUSH0 PUSH0 REVERT JUMPDEST PUSH0 PUSH0 REVERT JUMPDEST PUSH0 DUP2 SWAP1 POP SWAP2 SWAP1 POP JUMP JUMPDEST PUSH2 0x116C DUP2 PUSH2 0x115A JUMP JUMPDEST DUP2 EQ PUSH2 0x1176 JUMPI PUSH0 PUSH0 REVERT JUMPDEST POP JUMP JUMPDEST PUSH0 DUP2 CALLDATALOAD SWAP1 POP PUSH2 0x1187 DUP2 PUSH2 0x1163 JUMP JUMPDEST SWAP3 SWAP2 POP POP JUMP JUMPDEST PUSH0 PUSH1 0x20 DUP3 DUP5 SUB SLT ISZERO PUSH2 0x11A2 JUMPI PUSH2 0x11A1 PUSH2 0x1152 JUMP JUMPDEST JUMPDEST PUSH0 PUSH2 0x11AF DUP5 DUP3 DUP6 ADD PUSH2 0x1179 JUMP JUMPDEST SWAP2 POP POP SWAP3 SWAP2 POP POP JUMP JUMPDEST PUSH0 DUP2 MLOAD SWAP1 POP SWAP2 SWAP1 POP JUMP JUMPDEST PUSH0 DUP3 DUP3 MSTORE PUSH1 0x20 DUP3 ADD SWAP1 POP SWAP3 SWAP2 POP POP JUMP JUMPDEST DUP3 DUP2 DUP4 MCOPY PUSH0 DUP4 DUP4 ADD MSTORE POP POP POP JUMP JUMPDEST PUSH0 PUSH1 0x1F NOT PUSH1 0x1F DUP4 ADD AND SWAP1 POP SWAP2 SWAP1 POP JUMP JUMPDEST PUSH0 PUSH2 0x11FA DUP3 PUSH2 0x11B8 JUMP JUMPDEST PUSH2 0x1204 DUP2 DUP6 PUSH2 0x11C2 JUMP JUMPDEST SWAP4 POP PUSH2 0x1214 DUP2 DUP6 PUSH1 0x20 DUP7 ADD PUSH2 0x11D2 JUMP JUMPDEST PUSH2 0x121D DUP2 PUSH2 0x11E0 JUMP JUMPDEST DUP5 ADD SWAP2 POP POP SWAP3 SWAP2 POP POP JUMP JUMPDEST PUSH2 0x1231 DUP2 PUSH2 0x115A JUMP JUMPDEST DUP3 MSTORE POP POP JUMP JUMPDEST PUSH0 PUSH1 0x40 DUP3 ADD SWAP1 POP DUP2 DUP2 SUB PUSH0 DUP4 ADD MSTORE PUSH2 0x124F DUP2 DUP6 PUSH2 0x11F0 JUMP JUMPDEST SWAP1 POP PUSH2 0x125E PUSH1 0x20 DUP4 ADD DUP5 PUSH2 0x1228 JUMP JUMPDEST SWAP4 SWAP3 POP POP POP JUMP JUMPDEST PUSH0 PUSH20 0xFFFFFFFFFFFFFFFFFFFFFFFFFFFFFFFFFFFFFFFF DUP3 AND SWAP1 POP SWAP2 SWAP1 POP JUMP JUMPDEST PUSH0 PUSH2 0x128E DUP3 PUSH2 0x1265 JUMP JUMPDEST SWAP1 POP SWAP2 SWAP1 POP JUMP JUMPDEST PUSH2 0x129E DUP2 PUSH2 0x1284 JUMP JUMPDEST DUP3 MSTORE POP POP JUMP JUMPDEST PUSH0 PUSH1 0x20 DUP3 ADD SWAP1 POP PUSH2 0x12B7 PUSH0 DUP4 ADD DUP5 PUSH2 0x1295 JUMP JUMPDEST SWAP3 SWAP2 POP POP JUMP JUMPDEST PUSH0 DUP3 DUP3 MSTORE PUSH1 0x20 DUP3 ADD SWAP1 POP SWAP3 SWAP2 POP POP JUMP JUMPDEST PUSH0 PUSH2 0x12D7 DUP3 PUSH2 0x11B8 JUMP JUMPDEST PUSH2 0x12E1 DUP2 DUP6 PUSH2 0x12BD JUMP JUMPDEST SWAP4 POP PUSH2 0x12F1 DUP2 DUP6 PUSH1 0x20 DUP7 ADD PUSH2 0x11D2 JUMP JUMPDEST PUSH2 0x12FA DUP2 PUSH2 0x11E0 JUMP JUMPDEST DUP5 ADD SWAP2 POP POP SWAP3 SWAP2 POP POP JUMP JUMPDEST PUSH2 0x130E DUP2 PUSH2 0x115A JUMP JUMPDEST DUP3 MSTORE POP POP JUMP JUMPDEST PUSH0 PUSH1 0x40 DUP4 ADD PUSH0 DUP4 ADD MLOAD DUP5 DUP3 SUB PUSH0 DUP7 ADD MSTORE PUSH2 0x132E DUP3 DUP3 PUSH2 0x12CD JUMP JUMPDEST SWAP2 POP POP PUSH1 0x20 DUP4 ADD MLOAD PUSH2 0x1343 PUSH1 0x20 DUP7 ADD DUP3 PUSH2 0x1305 JUMP JUMPDEST POP DUP1 SWAP2 POP POP SWAP3 SWAP2 POP POP JUMP JUMPDEST PUSH0 PUSH1 0x20 DUP3 ADD SWAP1 POP DUP2 DUP2 SUB PUSH0 DUP4 ADD MSTORE PUSH2 0x1366 DUP2 DUP5 PUSH2 0x1314 JUMP JUMPDEST SWAP1 POP SWAP3 SWAP2 POP POP JUMP JUMPDEST PUSH32 0x4E487B7100000000000000000000000000000000000000000000000000000000 PUSH0 MSTORE PUSH1 0x21 PUSH1 0x4 MSTORE PUSH1 0x24 PUSH0 REVERT JUMPDEST PUSH1 0x6 DUP2 LT PUSH2 0x13AC JUMPI PUSH2 0x13AB PUSH2 0x136E JUMP JUMPDEST JUMPDEST POP JUMP JUMPDEST PUSH0 DUP2 SWAP1 POP PUSH2 0x13BC DUP3 PUSH2 0x139B JUMP JUMPDEST SWAP2 SWAP1 POP JUMP JUMPDEST PUSH0 PUSH2 0x13CB DUP3 PUSH2 0x13AF JUMP JUMPDEST SWAP1 POP SWAP2 SWAP1 POP JUMP JUMPDEST PUSH2 0x13DB DUP2 PUSH2 0x13C1 JUMP JUMPDEST DUP3 MSTORE POP POP JUMP JUMPDEST PUSH0 PUSH1 0x20 DUP3 ADD SWAP1 POP PUSH2 0x13F4 PUSH0 DUP4 ADD DUP5 PUSH2 0x13D2 JUMP JUMPDEST SWAP3 SWAP2 POP POP JUMP JUMPDEST PUSH0 PUSH0 REVERT JUMPDEST PUSH0 PUSH0 REVERT JUMPDEST PUSH32 0x4E487B7100000000000000000000000000000000000000000000000000000000 PUSH0 MSTORE PUSH1 0x41 PUSH1 0x4 MSTORE PUSH1 0x24 PUSH0 REVERT JUMPDEST PUSH2 0x1438 DUP3 PUSH2 0x11E0 JUMP JUMPDEST DUP2 ADD DUP2 DUP2 LT PUSH8 0xFFFFFFFFFFFFFFFF DUP3 GT OR ISZERO PUSH2 0x1457 JUMPI PUSH2 0x1456 PUSH2 0x1402 JUMP JUMPDEST JUMPDEST DUP1 PUSH1 0x40 MSTORE POP POP POP JUMP JUMPDEST PUSH0 PUSH2 0x1469 PUSH2 0x1149 JUMP JUMPDEST SWAP1 POP PUSH2 0x1475 DUP3 DUP3 PUSH2 0x142F JUMP JUMPDEST SWAP2 SWAP1 POP JUMP JUMPDEST PUSH0 PUSH8 0xFFFFFFFFFFFFFFFF DUP3 GT ISZERO PUSH2 0x1494 JUMPI PUSH2 0x1493 PUSH2 0x1402 JUMP JUMPDEST JUMPDEST PUSH2 0x149D DUP3 PUSH2 0x11E0 JUMP JUMPDEST SWAP1 POP PUSH1 0x20 DUP2 ADD SWAP1 POP SWAP2 SWAP1 POP JUMP JUMPDEST DUP3 DUP2 DUP4 CALLDATACOPY PUSH0 DUP4 DUP4 ADD MSTORE POP POP POP JUMP JUMPDEST PUSH0 PUSH2 0x14CA PUSH2 0x14C5 DUP5 PUSH2 0x147A JUMP JUMPDEST PUSH2 0x1460 JUMP JUMPDEST SWAP1 POP DUP3 DUP2 MSTORE PUSH1 0x20 DUP2 ADD DUP5 DUP5 DUP5 ADD GT ISZERO PUSH2 0x14E6 JUMPI PUSH2 0x14E5 PUSH2 0x13FE JUMP JUMPDEST JUMPDEST PUSH2 0x14F1 DUP5 DUP3 DUP6 PUSH2 0x14AA JUMP JUMPDEST POP SWAP4 SWAP3 POP POP POP JUMP JUMPDEST PUSH0 DUP3 PUSH1 0x1F DUP4 ADD SLT PUSH2 0x150D JUMPI PUSH2 0x150C PUSH2 0x13FA JUMP JUMPDEST JUMPDEST DUP2 CALLDATALOAD PUSH2 0x151D DUP5 DUP3 PUSH1 0x20 DUP7 ADD PUSH2 0x14B8 JUMP JUMPDEST SWAP2 POP POP SWAP3 SWAP2 POP POP JUMP JUMPDEST PUSH0 PUSH1 0x20 DUP3 DUP5 SUB SLT ISZERO PUSH2 0x153B JUMPI PUSH2 0x153A PUSH2 0x1152 JUMP JUMPDEST JUMPDEST PUSH0 DUP3 ADD CALLDATALOAD PUSH8 0xFFFFFFFFFFFFFFFF DUP2 GT ISZERO PUSH2 0x1558 JUMPI PUSH2 0x1557 PUSH2 0x1156 JUMP JUMPDEST JUMPDEST PUSH2 0x1564 DUP5 DUP3 DUP6 ADD PUSH2 0x14F9 JUMP JUMPDEST SWAP2 POP POP SWAP3 SWAP2 POP POP JUMP JUMPDEST PUSH2 0x1576 DUP2 PUSH2 0x1284 JUMP JUMPDEST DUP2 EQ PUSH2 0x1580 JUMPI PUSH0 PUSH0 REVERT JUMPDEST POP JUMP JUMPDEST PUSH0 DUP2 CALLDATALOAD SWAP1 POP PUSH2 0x1591 DUP2 PUSH2 0x156D JUMP JUMPDEST SWAP3 SWAP2 POP POP JUMP JUMPDEST PUSH0 PUSH1 0x20 DUP3 DUP5 SUB SLT ISZERO PUSH2 0x15AC JUMPI PUSH2 0x15AB PUSH2 0x1152 JUMP JUMPDEST JUMPDEST PUSH0 PUSH2 0x15B9 DUP5 DUP3 DUP6 ADD PUSH2 0x1583 JUMP JUMPDEST SWAP2 POP POP SWAP3 SWAP2 POP POP JUMP JUMPDEST PUSH32 0x596F7520617265206E6F742061626C6520746F20646F20746869732061637469 PUSH0 DUP3 ADD MSTORE PUSH32 0x6F6E207269676874206E6F770000000000000000000000000000000000000000 PUSH1 0x20 DUP3 ADD MSTORE POP JUMP JUMPDEST PUSH0 PUSH2 0x161C PUSH1 0x2C DUP4 PUSH2 0x11C2 JUMP JUMPDEST SWAP2 POP PUSH2 0x1627 DUP3 PUSH2 0x15C2 JUMP JUMPDEST PUSH1 0x40 DUP3 ADD SWAP1 POP SWAP2 SWAP1 POP JUMP JUMPDEST PUSH0 PUSH1 0x20 DUP3 ADD SWAP1 POP DUP2 DUP2 SUB PUSH0 DUP4 ADD MSTORE PUSH2 0x1649 DUP2 PUSH2 0x1610 JUMP JUMPDEST SWAP1 POP SWAP2 SWAP1 POP JUMP JUMPDEST PUSH32 0x596F7520617265206E6F7420616C6C6F77656420746F20766F74650000000000 PUSH0 DUP3 ADD MSTORE POP JUMP JUMPDEST PUSH0 PUSH2 0x1684 PUSH1 0x1B DUP4 PUSH2 0x11C2 JUMP JUMPDEST SWAP2 POP PUSH2 0x168F DUP3 PUSH2 0x1650 JUMP JUMPDEST PUSH1 0x20 DUP3 ADD SWAP1 POP SWAP2 SWAP1 POP JUMP JUMPDEST PUSH0 PUSH1 0x20 DUP3 ADD SWAP1 POP DUP2 DUP2 SUB PUSH0 DUP4 ADD MSTORE PUSH2 0x16B1 DUP2 PUSH2 0x1678 JUMP JUMPDEST SWAP1 POP SWAP2 SWAP1 POP JUMP JUMPDEST PUSH32 0x596F75206861766520616C726561647920766F74656400000000000000000000 PUSH0 DUP3 ADD MSTORE POP JUMP JUMPDEST PUSH0 PUSH2 0x16EC PUSH1 0x16 DUP4 PUSH2 0x11C2 JUMP JUMPDEST SWAP2 POP PUSH2 0x16F7 DUP3 PUSH2 0x16B8 JUMP JUMPDEST PUSH1 0x20 DUP3 ADD SWAP1 POP SWAP2 SWAP1 POP JUMP JUMPDEST PUSH0 PUSH1 0x20 DUP3 ADD SWAP1 POP DUP2 DUP2 SUB PUSH0 DUP4 ADD MSTORE PUSH2 0x1719 DUP2 PUSH2 0x16E0 JUMP JUMPDEST SWAP1 POP SWAP2 SWAP1 POP JUMP JUMPDEST PUSH32 0x4E487B7100000000000000000000000000000000000000000000000000000000 PUSH0 MSTORE PUSH1 0x32 PUSH1 0x4 MSTORE PUSH1 0x24 PUSH0 REVERT JUMPDEST PUSH32 0x4E487B7100000000000000000000000000000000000000000000000000000000 PUSH0 MSTORE PUSH1 0x11 PUSH1 0x4 MSTORE PUSH1 0x24 PUSH0 REVERT JUMPDEST PUSH0 PUSH2 0x1784 DUP3 PUSH2 0x115A JUMP JUMPDEST SWAP2 POP PUSH2 0x178F DUP4 PUSH2 0x115A JUMP JUMPDEST SWAP3 POP DUP3 DUP3 ADD SWAP1 POP DUP1 DUP3 GT ISZERO PUSH2 0x17A7 JUMPI PUSH2 0x17A6 PUSH2 0x174D JUMP JUMPDEST JUMPDEST SWAP3 SWAP2 POP POP JUMP JUMPDEST PUSH0 PUSH1 0x40 DUP3 ADD SWAP1 POP PUSH2 0x17C0 PUSH0 DUP4 ADD DUP6 PUSH2 0x1295 JUMP JUMPDEST PUSH2 0x17CD PUSH1 0x20 DUP4 ADD DUP5 PUSH2 0x1228 JUMP JUMPDEST SWAP4 SWAP3 POP POP POP JUMP JUMPDEST PUSH32 0x4E487B7100000000000000000000000000000000000000000000000000000000 PUSH0 MSTORE PUSH1 0x22 PUSH1 0x4 MSTORE PUSH1 0x24 PUSH0 REVERT JUMPDEST PUSH0 PUSH1 0x2 DUP3 DIV SWAP1 POP PUSH1 0x1 DUP3 AND DUP1 PUSH2 0x1818 JUMPI PUSH1 0x7F DUP3 AND SWAP2 POP JUMPDEST PUSH1 0x20 DUP3 LT DUP2 SUB PUSH2 0x182B JUMPI PUSH2 0x182A PUSH2 0x17D4 JUMP JUMPDEST JUMPDEST POP SWAP2 SWAP1 POP JUMP JUMPDEST PUSH0 PUSH1 0x40 DUP3 ADD SWAP1 POP PUSH2 0x1844 PUSH0 DUP4 ADD DUP6 PUSH2 0x13D2 JUMP JUMPDEST PUSH2 0x1851 PUSH1 0x20 DUP4 ADD DUP5 PUSH2 0x13D2 JUMP JUMPDEST SWAP4 SWAP3 POP POP POP JUMP JUMPDEST PUSH32 0x596F7520617265206E6F7420616C6C6F77656420746F206D616B652061207072 PUSH0 DUP3 ADD MSTORE PUSH32 0x6F706F73616C0000000000000000000000000000000000000000000000000000 PUSH1 0x20 DUP3 ADD MSTORE POP JUMP JUMPDEST PUSH0 PUSH2 0x18B2 PUSH1 0x26 DUP4 PUSH2 0x11C2 JUMP JUMPDEST SWAP2 POP PUSH2 0x18BD DUP3 PUSH2 0x1858 JUMP JUMPDEST PUSH1 0x40 DUP3 ADD SWAP1 POP SWAP2 SWAP1 POP JUMP JUMPDEST PUSH0 PUSH1 0x20 DUP3 ADD SWAP1 POP DUP2 DUP2 SUB PUSH0 DUP4 ADD MSTORE PUSH2 0x18DF DUP2 PUSH2 0x18A6 JUMP JUMPDEST SWAP1 POP SWAP2 SWAP1 POP JUMP JUMPDEST PUSH0 DUP2 SWAP1 POP DUP2 PUSH0 MSTORE PUSH1 0x20 PUSH0 KECCAK256 SWAP1 POP SWAP2 SWAP1 POP JUMP JUMPDEST PUSH0 PUSH1 0x20 PUSH1 0x1F DUP4 ADD DIV SWAP1 POP SWAP2 SWAP1 POP JUMP JUMPDEST PUSH0 DUP3 DUP3 SHL SWAP1 POP SWAP3 SWAP2 POP POP JUMP JUMPDEST PUSH0 PUSH1 0x8 DUP4 MUL PUSH2 0x1942 PUSH32 0xFFFFFFFFFFFFFFFFFFFFFFFFFFFFFFFFFFFFFFFFFFFFFFFFFFFFFFFFFFFFFFFF DUP3 PUSH2 0x1907 JUMP JUMPDEST PUSH2 0x194C DUP7 DUP4 PUSH2 0x1907 JUMP JUMPDEST SWAP6 POP DUP1 NOT DUP5 AND SWAP4 POP DUP1 DUP7 AND DUP5 OR SWAP3 POP POP POP SWAP4 SWAP3 POP POP POP JUMP JUMPDEST PUSH0 DUP2 SWAP1 POP SWAP2 SWAP1 POP JUMP JUMPDEST PUSH0 PUSH2 0x1987 PUSH2 0x1982 PUSH2 0x197D DUP5 PUSH2 0x115A JUMP JUMPDEST PUSH2 0x1964 JUMP JUMPDEST PUSH2 0x115A JUMP JUMPDEST SWAP1 POP SWAP2 SWAP1 POP JUMP JUMPDEST PUSH0 DUP2 SWAP1 POP SWAP2 SWAP1 POP JUMP JUMPDEST PUSH2 0x19A0 DUP4 PUSH2 0x196D JUMP JUMPDEST PUSH2 0x19B4 PUSH2 0x19AC DUP3 PUSH2 0x198E JUMP JUMPDEST DUP5 DUP5 SLOAD PUSH2 0x1913 JUMP JUMPDEST DUP3 SSTORE POP POP POP POP JUMP JUMPDEST PUSH0 PUSH0 SWAP1 POP SWAP1 JUMP JUMPDEST PUSH2 0x19CB PUSH2 0x19BC JUMP JUMPDEST PUSH2 0x19D6 DUP2 DUP5 DUP5 PUSH2 0x1997 JUMP JUMPDEST POP POP POP JUMP JUMPDEST JUMPDEST DUP2 DUP2 LT ISZERO PUSH2 0x19F9 JUMPI PUSH2 0x19EE PUSH0 DUP3 PUSH2 0x19C3 JUMP JUMPDEST PUSH1 0x1 DUP2 ADD SWAP1 POP PUSH2 0x19DC JUMP JUMPDEST POP POP JUMP JUMPDEST PUSH1 0x1F DUP3 GT ISZERO PUSH2 0x1A3E JUMPI PUSH2 0x1A0F DUP2 PUSH2 0x18E6 JUMP JUMPDEST PUSH2 0x1A18 DUP5 PUSH2 0x18F8 JUMP JUMPDEST DUP2 ADD PUSH1 0x20 DUP6 LT ISZERO PUSH2 0x1A27 JUMPI DUP2 SWAP1 POP JUMPDEST PUSH2 0x1A3B PUSH2 0x1A33 DUP6 PUSH2 0x18F8 JUMP JUMPDEST DUP4 ADD DUP3 PUSH2 0x19DB JUMP JUMPDEST POP POP JUMPDEST POP POP POP JUMP JUMPDEST PUSH0 DUP3 DUP3 SHR SWAP1 POP SWAP3 SWAP2 POP POP JUMP JUMPDEST PUSH0 PUSH2 0x1A5E PUSH0 NOT DUP5 PUSH1 0x8 MUL PUSH2 0x1A43 JUMP JUMPDEST NOT DUP1 DUP4 AND SWAP2 POP POP SWAP3 SWAP2 POP POP JUMP JUMPDEST PUSH0 PUSH2 0x1A76 DUP4 DUP4 PUSH2 0x1A4F JUMP JUMPDEST SWAP2 POP DUP3 PUSH1 0x2 MUL DUP3 OR SWAP1 POP SWAP3 SWAP2 POP POP JUMP JUMPDEST PUSH2 0x1A8F DUP3 PUSH2 0x11B8 JUMP JUMPDEST PUSH8 0xFFFFFFFFFFFFFFFF DUP2 GT ISZERO PUSH2 0x1AA8 JUMPI PUSH2 0x1AA7 PUSH2 0x1402 JUMP JUMPDEST JUMPDEST PUSH2 0x1AB2 DUP3 SLOAD PUSH2 0x1801 JUMP JUMPDEST PUSH2 0x1ABD DUP3 DUP3 DUP6 PUSH2 0x19FD JUMP JUMPDEST PUSH0 PUSH1 0x20 SWAP1 POP PUSH1 0x1F DUP4 GT PUSH1 0x1 DUP2 EQ PUSH2 0x1AEE JUMPI PUSH0 DUP5 ISZERO PUSH2 0x1ADC JUMPI DUP3 DUP8 ADD MLOAD SWAP1 POP JUMPDEST PUSH2 0x1AE6 DUP6 DUP3 PUSH2 0x1A6B JUMP JUMPDEST DUP7 SSTORE POP PUSH2 0x1B4D JUMP JUMPDEST PUSH1 0x1F NOT DUP5 AND PUSH2 0x1AFC DUP7 PUSH2 0x18E6 JUMP JUMPDEST PUSH0 JUMPDEST DUP3 DUP2 LT ISZERO PUSH2 0x1B23 JUMPI DUP5 DUP10 ADD MLOAD DUP3 SSTORE PUSH1 0x1 DUP3 ADD SWAP2 POP PUSH1 0x20 DUP6 ADD SWAP5 POP PUSH1 0x20 DUP2 ADD SWAP1 POP PUSH2 0x1AFE JUMP JUMPDEST DUP7 DUP4 LT ISZERO PUSH2 0x1B40 JUMPI DUP5 DUP10 ADD MLOAD PUSH2 0x1B3C PUSH1 0x1F DUP10 AND DUP3 PUSH2 0x1A4F JUMP JUMPDEST DUP4 SSTORE POP JUMPDEST PUSH1 0x1 PUSH1 0x2 DUP9 MUL ADD DUP9 SSTORE POP POP POP JUMPDEST POP POP POP POP POP POP JUMP JUMPDEST PUSH32 0x54686973206164647265737320697320616C726561647920696E20766F746572 PUSH0 DUP3 ADD MSTORE PUSH32 0x7300000000000000000000000000000000000000000000000000000000000000 PUSH1 0x20 DUP3 ADD MSTORE POP JUMP JUMPDEST PUSH0 PUSH2 0x1BAF PUSH1 0x21 DUP4 PUSH2 0x11C2 JUMP JUMPDEST SWAP2 POP PUSH2 0x1BBA DUP3 PUSH2 0x1B55 JUMP JUMPDEST PUSH1 0x40 DUP3 ADD SWAP1 POP SWAP2 SWAP1 POP JUMP JUMPDEST PUSH0 PUSH1 0x20 DUP3 ADD SWAP1 POP DUP2 DUP2 SUB PUSH0 DUP4 ADD MSTORE PUSH2 0x1BDC DUP2 PUSH2 0x1BA3 JUMP JUMPDEST SWAP1 POP SWAP2 SWAP1 POP JUMP INVALID LOG2 PUSH5 0x6970667358 0x22 SLT KECCAK256 0x24 0xBA PUSH25 0xA2C47AA87FE3B4A3D62D1C1483F0528ABE3140E9C739F051B9 DUP2 0xBD 0xC3 ADDMOD PUSH5 0x736F6C6343 STOP ADDMOD SHR STOP CALLER "
				},
				"gasEstimates": {
					"creation": {
						"codeDepositCost": "1438600",
						"executionCost": "infinite",
						"totalCost": "infinite"
					},
					"external": {
						"endProposalsRegistration()": "infinite",
						"endVotingSession()": "infinite",
						"getWinner()": "infinite",
						"owner()": "2559",
						"proposals(uint256)": "infinite",
						"registerProposals(string)": "infinite",
						"registerVoters(address)": "infinite",
						"renounceOwnership()": "infinite",
						"startProposalsRegistration()": "infinite",
						"startVotingSession()": "infinite",
						"transferOwnership(address)": "infinite",
						"vote(uint256)": "infinite",
						"votesTallied()": "infinite",
						"workflowStatus()": "2693"
					}
				},
				"methodIdentifiers": {
					"endProposalsRegistration()": "6c297445",
					"endVotingSession()": "a7bfab16",
					"getWinner()": "8e7ea5b2",
					"owner()": "8da5cb5b",
					"proposals(uint256)": "013cf08b",
					"registerProposals(string)": "e2dd58c6",
					"registerVoters(address)": "ed8a1608",
					"renounceOwnership()": "715018a6",
					"startProposalsRegistration()": "e09b8c79",
					"startVotingSession()": "ee74c678",
					"transferOwnership(address)": "f2fde38b",
					"vote(uint256)": "0121b93f",
					"votesTallied()": "ada7415f",
					"workflowStatus()": "a1edffa2"
				}
			},
			"storageLayout": {
				"storage": [
					{
						"astId": 8,
						"contract": "contracts/Security/33_gasLimit.sol:Voting",
						"label": "_owner",
						"offset": 0,
						"slot": "0",
						"type": "t_address"
					},
					{
						"astId": 255,
						"contract": "contracts/Security/33_gasLimit.sol:Voting",
						"label": "workflowStatus",
						"offset": 20,
						"slot": "0",
						"type": "t_enum(WorkflowStatus)252"
					},
					{
						"astId": 257,
						"contract": "contracts/Security/33_gasLimit.sol:Voting",
						"label": "winningProposalId",
						"offset": 0,
						"slot": "1",
						"type": "t_uint256"
					},
					{
						"astId": 262,
						"contract": "contracts/Security/33_gasLimit.sol:Voting",
						"label": "voters",
						"offset": 0,
						"slot": "2",
						"type": "t_mapping(t_address,t_struct(Voter)240_storage)"
					},
					{
						"astId": 266,
						"contract": "contracts/Security/33_gasLimit.sol:Voting",
						"label": "proposals",
						"offset": 0,
						"slot": "3",
						"type": "t_array(t_struct(Proposal)245_storage)dyn_storage"
					}
				],
				"types": {
					"t_address": {
						"encoding": "inplace",
						"label": "address",
						"numberOfBytes": "20"
					},
					"t_array(t_struct(Proposal)245_storage)dyn_storage": {
						"base": "t_struct(Proposal)245_storage",
						"encoding": "dynamic_array",
						"label": "struct Voting.Proposal[]",
						"numberOfBytes": "32"
					},
					"t_bool": {
						"encoding": "inplace",
						"label": "bool",
						"numberOfBytes": "1"
					},
					"t_enum(WorkflowStatus)252": {
						"encoding": "inplace",
						"label": "enum Voting.WorkflowStatus",
						"numberOfBytes": "1"
					},
					"t_mapping(t_address,t_struct(Voter)240_storage)": {
						"encoding": "mapping",
						"key": "t_address",
						"label": "mapping(address => struct Voting.Voter)",
						"numberOfBytes": "32",
						"value": "t_struct(Voter)240_storage"
					},
					"t_string_storage": {
						"encoding": "bytes",
						"label": "string",
						"numberOfBytes": "32"
					},
					"t_struct(Proposal)245_storage": {
						"encoding": "inplace",
						"label": "struct Voting.Proposal",
						"members": [
							{
								"astId": 242,
								"contract": "contracts/Security/33_gasLimit.sol:Voting",
								"label": "description",
								"offset": 0,
								"slot": "0",
								"type": "t_string_storage"
							},
							{
								"astId": 244,
								"contract": "contracts/Security/33_gasLimit.sol:Voting",
								"label": "voteCount",
								"offset": 0,
								"slot": "1",
								"type": "t_uint256"
							}
						],
						"numberOfBytes": "64"
					},
					"t_struct(Voter)240_storage": {
						"encoding": "inplace",
						"label": "struct Voting.Voter",
						"members": [
							{
								"astId": 235,
								"contract": "contracts/Security/33_gasLimit.sol:Voting",
								"label": "isRegistered",
								"offset": 0,
								"slot": "0",
								"type": "t_bool"
							},
							{
								"astId": 237,
								"contract": "contracts/Security/33_gasLimit.sol:Voting",
								"label": "hasVoted",
								"offset": 1,
								"slot": "0",
								"type": "t_bool"
							},
							{
								"astId": 239,
								"contract": "contracts/Security/33_gasLimit.sol:Voting",
								"label": "votedProposalId",
								"offset": 0,
								"slot": "1",
								"type": "t_uint256"
							}
						],
						"numberOfBytes": "64"
					},
					"t_uint256": {
						"encoding": "inplace",
						"label": "uint256",
						"numberOfBytes": "32"
					}
				}
			},
			"userdoc": {
				"kind": "user",
				"methods": {},
				"version": 1
			}
		}
	}
}