{
	"contracts/Security/33_attackGasLimit.sol": {
		"attackGasLimit": {
			"abi": [
				{
					"inputs": [
						{
							"internalType": "address",
							"name": "_votingAddress",
							"type": "address"
						}
					],
					"stateMutability": "nonpayable",
					"type": "constructor"
				},
				{
					"inputs": [
						{
							"internalType": "address",
							"name": "owner",
							"type": "address"
						}
					],
					"name": "OwnableInvalidOwner",
					"type": "error"
				},
				{
					"inputs": [
						{
							"internalType": "address",
							"name": "account",
							"type": "address"
						}
					],
					"name": "OwnableUnauthorizedAccount",
					"type": "error"
				},
				{
					"anonymous": false,
					"inputs": [
						{
							"indexed": true,
							"internalType": "address",
							"name": "previousOwner",
							"type": "address"
						},
						{
							"indexed": true,
							"internalType": "address",
							"name": "newOwner",
							"type": "address"
						}
					],
					"name": "OwnershipTransferred",
					"type": "event"
				},
				{
					"anonymous": false,
					"inputs": [
						{
							"indexed": false,
							"internalType": "uint256",
							"name": "proposalId",
							"type": "uint256"
						}
					],
					"name": "ProposalRegistered",
					"type": "event"
				},
				{
					"anonymous": false,
					"inputs": [
						{
							"indexed": false,
							"internalType": "address",
							"name": "voter",
							"type": "address"
						},
						{
							"indexed": false,
							"internalType": "uint256",
							"name": "proposalId",
							"type": "uint256"
						}
					],
					"name": "Voted",
					"type": "event"
				},
				{
					"anonymous": false,
					"inputs": [
						{
							"indexed": false,
							"internalType": "address",
							"name": "voterAddress",
							"type": "address"
						}
					],
					"name": "VoterRegistered",
					"type": "event"
				},
				{
					"anonymous": false,
					"inputs": [
						{
							"indexed": false,
							"internalType": "enum Voting.WorkflowStatus",
							"name": "previousStatus",
							"type": "uint8"
						},
						{
							"indexed": false,
							"internalType": "enum Voting.WorkflowStatus",
							"name": "newStatus",
							"type": "uint8"
						}
					],
					"name": "WorkflowStatusChange",
					"type": "event"
				},
				{
					"inputs": [],
					"name": "attackStep",
					"outputs": [],
					"stateMutability": "nonpayable",
					"type": "function"
				},
				{
					"inputs": [],
					"name": "endProposalsRegistration",
					"outputs": [],
					"stateMutability": "nonpayable",
					"type": "function"
				},
				{
					"inputs": [],
					"name": "endVotingSession",
					"outputs": [],
					"stateMutability": "nonpayable",
					"type": "function"
				},
				{
					"inputs": [],
					"name": "getWinner",
					"outputs": [
						{
							"components": [
								{
									"internalType": "string",
									"name": "description",
									"type": "string"
								},
								{
									"internalType": "uint256",
									"name": "voteCount",
									"type": "uint256"
								}
							],
							"internalType": "struct Voting.Proposal",
							"name": "",
							"type": "tuple"
						}
					],
					"stateMutability": "view",
					"type": "function"
				},
				{
					"inputs": [],
					"name": "owner",
					"outputs": [
						{
							"internalType": "address",
							"name": "",
							"type": "address"
						}
					],
					"stateMutability": "view",
					"type": "function"
				},
				{
					"inputs": [
						{
							"internalType": "uint256",
							"name": "",
							"type": "uint256"
						}
					],
					"name": "proposals",
					"outputs": [
						{
							"internalType": "string",
							"name": "description",
							"type": "string"
						},
						{
							"internalType": "uint256",
							"name": "voteCount",
							"type": "uint256"
						}
					],
					"stateMutability": "view",
					"type": "function"
				},
				{
					"inputs": [
						{
							"internalType": "string",
							"name": "proposalDescription",
							"type": "string"
						}
					],
					"name": "registerProposals",
					"outputs": [],
					"stateMutability": "nonpayable",
					"type": "function"
				},
				{
					"inputs": [
						{
							"internalType": "address",
							"name": "_voterAddress",
							"type": "address"
						}
					],
					"name": "registerVoters",
					"outputs": [],
					"stateMutability": "nonpayable",
					"type": "function"
				},
				{
					"inputs": [],
					"name": "renounceOwnership",
					"outputs": [],
					"stateMutability": "nonpayable",
					"type": "function"
				},
				{
					"inputs": [],
					"name": "startProposalsRegistration",
					"outputs": [],
					"stateMutability": "nonpayable",
					"type": "function"
				},
				{
					"inputs": [],
					"name": "startVotingSession",
					"outputs": [],
					"stateMutability": "nonpayable",
					"type": "function"
				},
				{
					"inputs": [
						{
							"internalType": "address",
							"name": "newOwner",
							"type": "address"
						}
					],
					"name": "transferOwnership",
					"outputs": [],
					"stateMutability": "nonpayable",
					"type": "function"
				},
				{
					"inputs": [
						{
							"internalType": "uint256",
							"name": "proposalId",
							"type": "uint256"
						}
					],
					"name": "vote",
					"outputs": [],
					"stateMutability": "nonpayable",
					"type": "function"
				},
				{
					"inputs": [],
					"name": "votesTallied",
					"outputs": [],
					"stateMutability": "nonpayable",
					"type": "function"
				},
				{
					"inputs": [],
					"name": "voting",
					"outputs": [
						{
							"internalType": "contract Voting",
							"name": "",
							"type": "address"
						}
					],
					"stateMutability": "view",
					"type": "function"
				},
				{
					"inputs": [],
					"name": "workflowStatus",
					"outputs": [
						{
							"internalType": "enum Voting.WorkflowStatus",
							"name": "",
							"type": "uint8"
						}
					],
					"stateMutability": "view",
					"type": "function"
				}
			],
			"devdoc": {
				"errors": {
					"OwnableInvalidOwner(address)": [
						{
							"details": "The owner is not a valid owner account. (eg. `address(0)`)"
						}
					],
					"OwnableUnauthorizedAccount(address)": [
						{
							"details": "The caller account is not authorized to perform an operation."
						}
					]
				},
				"kind": "dev",
				"methods": {
					"owner()": {
						"details": "Returns the address of the current owner."
					},
					"renounceOwnership()": {
						"details": "Leaves the contract without owner. It will not be possible to call `onlyOwner` functions. Can only be called by the current owner. NOTE: Renouncing ownership will leave the contract without an owner, thereby disabling any functionality that is only available to the owner."
					},
					"transferOwnership(address)": {
						"details": "Transfers ownership of the contract to a new account (`newOwner`). Can only be called by the current owner."
					}
				},
				"version": 1
			},
			"evm": {
				"assembly": "    /* \"contracts/Security/33_attackGasLimit.sol\":90:387  contract attackGasLimit is Voting {... */\n  mstore(0x40, 0x80)\n    /* \"contracts/Security/33_attackGasLimit.sol\":157:241  constructor(address _votingAddress) {... */\n  callvalue\n  dup1\n  iszero\n  tag_1\n  jumpi\n  revert(0x00, 0x00)\ntag_1:\n  pop\n  mload(0x40)\n  sub(codesize, bytecodeSize)\n  dup1\n  bytecodeSize\n  dup4\n  codecopy\n  dup2\n  dup2\n  add\n  0x40\n  mstore\n  dup2\n  add\n  swap1\n  tag_2\n  swap2\n  swap1\n  tag_3\n  jump\t// in\ntag_2:\n    /* \"contracts/Security/33_gasLimit.sol\":170:180  msg.sender */\n  caller\n    /* \"@openzeppelin/contracts/access/Ownable.sol\":1297:1298  0 */\n  0x00\n    /* \"@openzeppelin/contracts/access/Ownable.sol\":1273:1299  initialOwner == address(0) */\n  0xffffffffffffffffffffffffffffffffffffffff\n  and\n    /* \"@openzeppelin/contracts/access/Ownable.sol\":1273:1285  initialOwner */\n  dup2\n    /* \"@openzeppelin/contracts/access/Ownable.sol\":1273:1299  initialOwner == address(0) */\n  0xffffffffffffffffffffffffffffffffffffffff\n  and\n  sub\n    /* \"@openzeppelin/contracts/access/Ownable.sol\":1269:1364  if (initialOwner == address(0)) {... */\n  tag_8\n  jumpi\n    /* \"@openzeppelin/contracts/access/Ownable.sol\":1350:1351  0 */\n  0x00\n    /* \"@openzeppelin/contracts/access/Ownable.sol\":1322:1353  OwnableInvalidOwner(address(0)) */\n  mload(0x40)\n  0x1e4fbdf700000000000000000000000000000000000000000000000000000000\n  dup2\n  mstore\n  0x04\n  add\n  tag_9\n  swap2\n  swap1\n  tag_10\n  jump\t// in\ntag_9:\n  mload(0x40)\n  dup1\n  swap2\n  sub\n  swap1\n  revert\n    /* \"@openzeppelin/contracts/access/Ownable.sol\":1269:1364  if (initialOwner == address(0)) {... */\ntag_8:\n    /* \"@openzeppelin/contracts/access/Ownable.sol\":1373:1405  _transferOwnership(initialOwner) */\n  tag_11\n    /* \"@openzeppelin/contracts/access/Ownable.sol\":1392:1404  initialOwner */\n  dup2\n    /* \"@openzeppelin/contracts/access/Ownable.sol\":1373:1391  _transferOwnership */\n  shl(0x20, tag_12)\n    /* \"@openzeppelin/contracts/access/Ownable.sol\":1373:1405  _transferOwnership(initialOwner) */\n  0x20\n  shr\n  jump\t// in\ntag_11:\n    /* \"@openzeppelin/contracts/access/Ownable.sol\":1225:1412  constructor(address initialOwner) {... */\n  pop\n    /* \"contracts/Security/33_attackGasLimit.sol\":219:233  _votingAddress */\n  dup1\n    /* \"contracts/Security/33_attackGasLimit.sol\":203:209  voting */\n  0x04\n  0x00\n    /* \"contracts/Security/33_attackGasLimit.sol\":203:234  voting = Voting(_votingAddress) */\n  0x0100\n  exp\n  dup2\n  sload\n  dup2\n  0xffffffffffffffffffffffffffffffffffffffff\n  mul\n  not\n  and\n  swap1\n  dup4\n  0xffffffffffffffffffffffffffffffffffffffff\n  and\n  mul\n  or\n  swap1\n  sstore\n  pop\n    /* \"contracts/Security/33_attackGasLimit.sol\":157:241  constructor(address _votingAddress) {... */\n  pop\n    /* \"contracts/Security/33_attackGasLimit.sol\":90:387  contract attackGasLimit is Voting {... */\n  jump(tag_15)\n    /* \"@openzeppelin/contracts/access/Ownable.sol\":2912:3099  function _transferOwnership(address newOwner) internal virtual {... */\ntag_12:\n    /* \"@openzeppelin/contracts/access/Ownable.sol\":2985:3001  address oldOwner */\n  0x00\n    /* \"@openzeppelin/contracts/access/Ownable.sol\":3004:3010  _owner */\n  0x00\n  0x00\n  swap1\n  sload\n  swap1\n  0x0100\n  exp\n  swap1\n  div\n  0xffffffffffffffffffffffffffffffffffffffff\n  and\n    /* \"@openzeppelin/contracts/access/Ownable.sol\":2985:3010  address oldOwner = _owner */\n  swap1\n  pop\n    /* \"@openzeppelin/contracts/access/Ownable.sol\":3029:3037  newOwner */\n  dup2\n    /* \"@openzeppelin/contracts/access/Ownable.sol\":3020:3026  _owner */\n  0x00\n  0x00\n    /* \"@openzeppelin/contracts/access/Ownable.sol\":3020:3037  _owner = newOwner */\n  0x0100\n  exp\n  dup2\n  sload\n  dup2\n  0xffffffffffffffffffffffffffffffffffffffff\n  mul\n  not\n  and\n  swap1\n  dup4\n  0xffffffffffffffffffffffffffffffffffffffff\n  and\n  mul\n  or\n  swap1\n  sstore\n  pop\n    /* \"@openzeppelin/contracts/access/Ownable.sol\":3083:3091  newOwner */\n  dup2\n    /* \"@openzeppelin/contracts/access/Ownable.sol\":3052:3092  OwnershipTransferred(oldOwner, newOwner) */\n  0xffffffffffffffffffffffffffffffffffffffff\n  and\n    /* \"@openzeppelin/contracts/access/Ownable.sol\":3073:3081  oldOwner */\n  dup2\n    /* \"@openzeppelin/contracts/access/Ownable.sol\":3052:3092  OwnershipTransferred(oldOwner, newOwner) */\n  0xffffffffffffffffffffffffffffffffffffffff\n  and\n  0x8be0079c531659141344cd1fd0a4f28419497f9722a3daafe3b4186f6b6457e0\n  mload(0x40)\n  mload(0x40)\n  dup1\n  swap2\n  sub\n  swap1\n  log3\n    /* \"@openzeppelin/contracts/access/Ownable.sol\":2975:3099  {... */\n  pop\n    /* \"@openzeppelin/contracts/access/Ownable.sol\":2912:3099  function _transferOwnership(address newOwner) internal virtual {... */\n  pop\n  jump\t// out\n    /* \"#utility.yul\":88:205   */\ntag_18:\n    /* \"#utility.yul\":197:198   */\n  0x00\n    /* \"#utility.yul\":194:195   */\n  0x00\n    /* \"#utility.yul\":187:199   */\n  revert\n    /* \"#utility.yul\":334:460   */\ntag_20:\n    /* \"#utility.yul\":371:378   */\n  0x00\n    /* \"#utility.yul\":411:453   */\n  0xffffffffffffffffffffffffffffffffffffffff\n    /* \"#utility.yul\":404:409   */\n  dup3\n    /* \"#utility.yul\":400:454   */\n  and\n    /* \"#utility.yul\":389:454   */\n  swap1\n  pop\n    /* \"#utility.yul\":334:460   */\n  swap2\n  swap1\n  pop\n  jump\t// out\n    /* \"#utility.yul\":466:562   */\ntag_21:\n    /* \"#utility.yul\":503:510   */\n  0x00\n    /* \"#utility.yul\":532:556   */\n  tag_31\n    /* \"#utility.yul\":550:555   */\n  dup3\n    /* \"#utility.yul\":532:556   */\n  tag_20\n  jump\t// in\ntag_31:\n    /* \"#utility.yul\":521:556   */\n  swap1\n  pop\n    /* \"#utility.yul\":466:562   */\n  swap2\n  swap1\n  pop\n  jump\t// out\n    /* \"#utility.yul\":568:690   */\ntag_22:\n    /* \"#utility.yul\":641:665   */\n  tag_33\n    /* \"#utility.yul\":659:664   */\n  dup2\n    /* \"#utility.yul\":641:665   */\n  tag_21\n  jump\t// in\ntag_33:\n    /* \"#utility.yul\":634:639   */\n  dup2\n    /* \"#utility.yul\":631:666   */\n  eq\n    /* \"#utility.yul\":621:684   */\n  tag_34\n  jumpi\n    /* \"#utility.yul\":680:681   */\n  0x00\n    /* \"#utility.yul\":677:678   */\n  0x00\n    /* \"#utility.yul\":670:682   */\n  revert\n    /* \"#utility.yul\":621:684   */\ntag_34:\n    /* \"#utility.yul\":568:690   */\n  pop\n  jump\t// out\n    /* \"#utility.yul\":696:839   */\ntag_23:\n    /* \"#utility.yul\":753:758   */\n  0x00\n    /* \"#utility.yul\":784:790   */\n  dup2\n    /* \"#utility.yul\":778:791   */\n  mload\n    /* \"#utility.yul\":769:791   */\n  swap1\n  pop\n    /* \"#utility.yul\":800:833   */\n  tag_36\n    /* \"#utility.yul\":827:832   */\n  dup2\n    /* \"#utility.yul\":800:833   */\n  tag_22\n  jump\t// in\ntag_36:\n    /* \"#utility.yul\":696:839   */\n  swap3\n  swap2\n  pop\n  pop\n  jump\t// out\n    /* \"#utility.yul\":845:1196   */\ntag_3:\n    /* \"#utility.yul\":915:921   */\n  0x00\n    /* \"#utility.yul\":964:966   */\n  0x20\n    /* \"#utility.yul\":952:961   */\n  dup3\n    /* \"#utility.yul\":943:950   */\n  dup5\n    /* \"#utility.yul\":939:962   */\n  sub\n    /* \"#utility.yul\":935:967   */\n  slt\n    /* \"#utility.yul\":932:1051   */\n  iszero\n  tag_38\n  jumpi\n    /* \"#utility.yul\":970:1049   */\n  tag_39\n  tag_18\n  jump\t// in\ntag_39:\n    /* \"#utility.yul\":932:1051   */\ntag_38:\n    /* \"#utility.yul\":1090:1091   */\n  0x00\n    /* \"#utility.yul\":1115:1179   */\n  tag_40\n    /* \"#utility.yul\":1171:1178   */\n  dup5\n    /* \"#utility.yul\":1162:1168   */\n  dup3\n    /* \"#utility.yul\":1151:1160   */\n  dup6\n    /* \"#utility.yul\":1147:1169   */\n  add\n    /* \"#utility.yul\":1115:1179   */\n  tag_23\n  jump\t// in\ntag_40:\n    /* \"#utility.yul\":1105:1179   */\n  swap2\n  pop\n    /* \"#utility.yul\":1061:1189   */\n  pop\n    /* \"#utility.yul\":845:1196   */\n  swap3\n  swap2\n  pop\n  pop\n  jump\t// out\n    /* \"#utility.yul\":1202:1320   */\ntag_24:\n    /* \"#utility.yul\":1289:1313   */\n  tag_42\n    /* \"#utility.yul\":1307:1312   */\n  dup2\n    /* \"#utility.yul\":1289:1313   */\n  tag_21\n  jump\t// in\ntag_42:\n    /* \"#utility.yul\":1284:1287   */\n  dup3\n    /* \"#utility.yul\":1277:1314   */\n  mstore\n    /* \"#utility.yul\":1202:1320   */\n  pop\n  pop\n  jump\t// out\n    /* \"#utility.yul\":1326:1548   */\ntag_10:\n    /* \"#utility.yul\":1419:1423   */\n  0x00\n    /* \"#utility.yul\":1457:1459   */\n  0x20\n    /* \"#utility.yul\":1446:1455   */\n  dup3\n    /* \"#utility.yul\":1442:1460   */\n  add\n    /* \"#utility.yul\":1434:1460   */\n  swap1\n  pop\n    /* \"#utility.yul\":1470:1541   */\n  tag_44\n    /* \"#utility.yul\":1538:1539   */\n  0x00\n    /* \"#utility.yul\":1527:1536   */\n  dup4\n    /* \"#utility.yul\":1523:1540   */\n  add\n    /* \"#utility.yul\":1514:1520   */\n  dup5\n    /* \"#utility.yul\":1470:1541   */\n  tag_24\n  jump\t// in\ntag_44:\n    /* \"#utility.yul\":1326:1548   */\n  swap3\n  swap2\n  pop\n  pop\n  jump\t// out\n    /* \"contracts/Security/33_attackGasLimit.sol\":90:387  contract attackGasLimit is Voting {... */\ntag_15:\n  dataSize(sub_0)\n  dup1\n  dataOffset(sub_0)\n  0x00\n  codecopy\n  0x00\n  return\nstop\n\nsub_0: assembly {\n        /* \"contracts/Security/33_attackGasLimit.sol\":90:387  contract attackGasLimit is Voting {... */\n      mstore(0x40, 0x80)\n      callvalue\n      dup1\n      iszero\n      tag_1\n      jumpi\n      revert(0x00, 0x00)\n    tag_1:\n      pop\n      jumpi(tag_2, lt(calldatasize, 0x04))\n      shr(0xe0, calldataload(0x00))\n      dup1\n      0xa7bfab16\n      gt\n      tag_19\n      jumpi\n      dup1\n      0xed8a1608\n      gt\n      tag_20\n      jumpi\n      dup1\n      0xed8a1608\n      eq\n      tag_15\n      jumpi\n      dup1\n      0xee74c678\n      eq\n      tag_16\n      jumpi\n      dup1\n      0xf2fde38b\n      eq\n      tag_17\n      jumpi\n      dup1\n      0xfce1ccca\n      eq\n      tag_18\n      jumpi\n      jump(tag_2)\n    tag_20:\n      dup1\n      0xa7bfab16\n      eq\n      tag_11\n      jumpi\n      dup1\n      0xada7415f\n      eq\n      tag_12\n      jumpi\n      dup1\n      0xe09b8c79\n      eq\n      tag_13\n      jumpi\n      dup1\n      0xe2dd58c6\n      eq\n      tag_14\n      jumpi\n      jump(tag_2)\n    tag_19:\n      dup1\n      0x7a164584\n      gt\n      tag_21\n      jumpi\n      dup1\n      0x7a164584\n      eq\n      tag_7\n      jumpi\n      dup1\n      0x8da5cb5b\n      eq\n      tag_8\n      jumpi\n      dup1\n      0x8e7ea5b2\n      eq\n      tag_9\n      jumpi\n      dup1\n      0xa1edffa2\n      eq\n      tag_10\n      jumpi\n      jump(tag_2)\n    tag_21:\n      dup1\n      0x0121b93f\n      eq\n      tag_3\n      jumpi\n      dup1\n      0x013cf08b\n      eq\n      tag_4\n      jumpi\n      dup1\n      0x6c297445\n      eq\n      tag_5\n      jumpi\n      dup1\n      0x715018a6\n      eq\n      tag_6\n      jumpi\n    tag_2:\n      revert(0x00, 0x00)\n        /* \"contracts/Security/33_gasLimit.sol\":3076:3538  function vote(uint256 proposalId)... */\n    tag_3:\n      tag_22\n      0x04\n      dup1\n      calldatasize\n      sub\n      dup2\n      add\n      swap1\n      tag_23\n      swap2\n      swap1\n      tag_24\n      jump\t// in\n    tag_23:\n      tag_25\n      jump\t// in\n    tag_22:\n      stop\n        /* \"contracts/Security/33_gasLimit.sol\":715:742  Proposal[] public proposals */\n    tag_4:\n      tag_26\n      0x04\n      dup1\n      calldatasize\n      sub\n      dup2\n      add\n      swap1\n      tag_27\n      swap2\n      swap1\n      tag_24\n      jump\t// in\n    tag_27:\n      tag_28\n      jump\t// in\n    tag_26:\n      mload(0x40)\n      tag_29\n      swap3\n      swap2\n      swap1\n      tag_30\n      jump\t// in\n    tag_29:\n      mload(0x40)\n      dup1\n      swap2\n      sub\n      swap1\n      return\n        /* \"contracts/Security/33_gasLimit.sol\":2348:2717  function endProposalsRegistration()... */\n    tag_5:\n      tag_31\n      tag_32\n      jump\t// in\n    tag_31:\n      stop\n        /* \"@openzeppelin/contracts/access/Ownable.sol\":2293:2394  function renounceOwnership() public virtual onlyOwner {... */\n    tag_6:\n      tag_33\n      tag_34\n      jump\t// in\n    tag_33:\n      stop\n        /* \"contracts/Security/33_attackGasLimit.sol\":247:385  function attackStep() public {... */\n    tag_7:\n      tag_35\n      tag_36\n      jump\t// in\n    tag_35:\n      stop\n        /* \"@openzeppelin/contracts/access/Ownable.sol\":1638:1723  function owner() public view virtual returns (address) {... */\n    tag_8:\n      tag_37\n      tag_38\n      jump\t// in\n    tag_37:\n      mload(0x40)\n      tag_39\n      swap2\n      swap1\n      tag_40\n      jump\t// in\n    tag_39:\n      mload(0x40)\n      dup1\n      swap2\n      sub\n      swap1\n      return\n        /* \"contracts/Security/33_gasLimit.sol\":4472:4659  function getWinner()... */\n    tag_9:\n      tag_41\n      tag_42\n      jump\t// in\n    tag_41:\n      mload(0x40)\n      tag_43\n      swap2\n      swap1\n      tag_44\n      jump\t// in\n    tag_43:\n      mload(0x40)\n      dup1\n      swap2\n      sub\n      swap1\n      return\n        /* \"contracts/Security/33_gasLimit.sol\":594:630  WorkflowStatus public workflowStatus */\n    tag_10:\n      tag_45\n      tag_46\n      jump\t// in\n    tag_45:\n      mload(0x40)\n      tag_47\n      swap2\n      swap1\n      tag_48\n      jump\t// in\n    tag_47:\n      mload(0x40)\n      dup1\n      swap2\n      sub\n      swap1\n      return\n        /* \"contracts/Security/33_gasLimit.sol\":3544:3873  function endVotingSession()... */\n    tag_11:\n      tag_49\n      tag_50\n      jump\t// in\n    tag_49:\n      stop\n        /* \"contracts/Security/33_gasLimit.sol\":3879:4466  function votesTallied()... */\n    tag_12:\n      tag_51\n      tag_52\n      jump\t// in\n    tag_51:\n      stop\n        /* \"contracts/Security/33_gasLimit.sol\":1579:1932  function startProposalsRegistration()... */\n    tag_13:\n      tag_53\n      tag_54\n      jump\t// in\n    tag_53:\n      stop\n        /* \"contracts/Security/33_gasLimit.sol\":1938:2342  function registerProposals(string memory proposalDescription)... */\n    tag_14:\n      tag_55\n      0x04\n      dup1\n      calldatasize\n      sub\n      dup2\n      add\n      swap1\n      tag_56\n      swap2\n      swap1\n      tag_57\n      jump\t// in\n    tag_56:\n      tag_58\n      jump\t// in\n    tag_55:\n      stop\n        /* \"contracts/Security/33_gasLimit.sol\":1206:1573  function registerVoters(address _voterAddress)... */\n    tag_15:\n      tag_59\n      0x04\n      dup1\n      calldatasize\n      sub\n      dup2\n      add\n      swap1\n      tag_60\n      swap2\n      swap1\n      tag_61\n      jump\t// in\n    tag_60:\n      tag_62\n      jump\t// in\n    tag_59:\n      stop\n        /* \"contracts/Security/33_gasLimit.sol\":2723:3070  function startVotingSession()... */\n    tag_16:\n      tag_63\n      tag_64\n      jump\t// in\n    tag_63:\n      stop\n        /* \"@openzeppelin/contracts/access/Ownable.sol\":2543:2758  function transferOwnership(address newOwner) public virtual onlyOwner {... */\n    tag_17:\n      tag_65\n      0x04\n      dup1\n      calldatasize\n      sub\n      dup2\n      add\n      swap1\n      tag_66\n      swap2\n      swap1\n      tag_61\n      jump\t// in\n    tag_66:\n      tag_67\n      jump\t// in\n    tag_65:\n      stop\n        /* \"contracts/Security/33_attackGasLimit.sol\":130:150  Voting public voting */\n    tag_18:\n      tag_68\n      tag_69\n      jump\t// in\n    tag_68:\n      mload(0x40)\n      tag_70\n      swap2\n      swap1\n      tag_71\n      jump\t// in\n    tag_70:\n      mload(0x40)\n      dup1\n      swap2\n      sub\n      swap1\n      return\n        /* \"contracts/Security/33_gasLimit.sol\":3076:3538  function vote(uint256 proposalId)... */\n    tag_25:\n        /* \"contracts/Security/33_gasLimit.sol\":3144:3179  WorkflowStatus.VotingSessionStarted */\n      0x03\n        /* \"contracts/Security/33_gasLimit.sol\":1105:1112  _status */\n      dup1\n        /* \"contracts/Security/33_gasLimit.sol\":1087:1112  workflowStatus == _status */\n      0x05\n      dup2\n      gt\n      iszero\n      tag_73\n      jumpi\n      tag_74\n      tag_75\n      jump\t// in\n    tag_74:\n    tag_73:\n        /* \"contracts/Security/33_gasLimit.sol\":1087:1101  workflowStatus */\n      0x00\n      0x14\n      swap1\n      sload\n      swap1\n      0x0100\n      exp\n      swap1\n      div\n      0xff\n      and\n        /* \"contracts/Security/33_gasLimit.sol\":1087:1112  workflowStatus == _status */\n      0x05\n      dup2\n      gt\n      iszero\n      tag_76\n      jumpi\n      tag_77\n      tag_75\n      jump\t// in\n    tag_77:\n    tag_76:\n      eq\n        /* \"contracts/Security/33_gasLimit.sol\":1066:1182  require(... */\n      tag_78\n      jumpi\n      mload(0x40)\n      0x08c379a000000000000000000000000000000000000000000000000000000000\n      dup2\n      mstore\n      0x04\n      add\n      tag_79\n      swap1\n      tag_80\n      jump\t// in\n    tag_79:\n      mload(0x40)\n      dup1\n      swap2\n      sub\n      swap1\n      revert\n    tag_78:\n        /* \"contracts/Security/33_gasLimit.sol\":3203:3209  voters */\n      0x02\n        /* \"contracts/Security/33_gasLimit.sol\":3203:3221  voters[msg.sender] */\n      0x00\n        /* \"contracts/Security/33_gasLimit.sol\":3210:3220  msg.sender */\n      caller\n        /* \"contracts/Security/33_gasLimit.sol\":3203:3221  voters[msg.sender] */\n      0xffffffffffffffffffffffffffffffffffffffff\n      and\n      0xffffffffffffffffffffffffffffffffffffffff\n      and\n      dup2\n      mstore\n      0x20\n      add\n      swap1\n      dup2\n      mstore\n      0x20\n      add\n      0x00\n      keccak256\n        /* \"contracts/Security/33_gasLimit.sol\":3203:3234  voters[msg.sender].isRegistered */\n      0x00\n      add\n      0x00\n      swap1\n      sload\n      swap1\n      0x0100\n      exp\n      swap1\n      div\n      0xff\n      and\n        /* \"contracts/Security/33_gasLimit.sol\":3195:3266  require(voters[msg.sender].isRegistered, \"You are not allowed to vote\") */\n      tag_82\n      jumpi\n      mload(0x40)\n      0x08c379a000000000000000000000000000000000000000000000000000000000\n      dup2\n      mstore\n      0x04\n      add\n      tag_83\n      swap1\n      tag_84\n      jump\t// in\n    tag_83:\n      mload(0x40)\n      dup1\n      swap2\n      sub\n      swap1\n      revert\n    tag_82:\n        /* \"contracts/Security/33_gasLimit.sol\":3285:3291  voters */\n      0x02\n        /* \"contracts/Security/33_gasLimit.sol\":3285:3303  voters[msg.sender] */\n      0x00\n        /* \"contracts/Security/33_gasLimit.sol\":3292:3302  msg.sender */\n      caller\n        /* \"contracts/Security/33_gasLimit.sol\":3285:3303  voters[msg.sender] */\n      0xffffffffffffffffffffffffffffffffffffffff\n      and\n      0xffffffffffffffffffffffffffffffffffffffff\n      and\n      dup2\n      mstore\n      0x20\n      add\n      swap1\n      dup2\n      mstore\n      0x20\n      add\n      0x00\n      keccak256\n        /* \"contracts/Security/33_gasLimit.sol\":3285:3312  voters[msg.sender].hasVoted */\n      0x00\n      add\n      0x01\n      swap1\n      sload\n      swap1\n      0x0100\n      exp\n      swap1\n      div\n      0xff\n      and\n        /* \"contracts/Security/33_gasLimit.sol\":3284:3312  !voters[msg.sender].hasVoted */\n      iszero\n        /* \"contracts/Security/33_gasLimit.sol\":3276:3339  require(!voters[msg.sender].hasVoted, \"You have already voted\") */\n      tag_85\n      jumpi\n      mload(0x40)\n      0x08c379a000000000000000000000000000000000000000000000000000000000\n      dup2\n      mstore\n      0x04\n      add\n      tag_86\n      swap1\n      tag_87\n      jump\t// in\n    tag_86:\n      mload(0x40)\n      dup1\n      swap2\n      sub\n      swap1\n      revert\n    tag_85:\n        /* \"contracts/Security/33_gasLimit.sol\":3384:3385  1 */\n      0x01\n        /* \"contracts/Security/33_gasLimit.sol\":3349:3358  proposals */\n      0x03\n        /* \"contracts/Security/33_gasLimit.sol\":3359:3369  proposalId */\n      dup4\n        /* \"contracts/Security/33_gasLimit.sol\":3349:3370  proposals[proposalId] */\n      dup2\n      sload\n      dup2\n      lt\n      tag_88\n      jumpi\n      tag_89\n      tag_90\n      jump\t// in\n    tag_89:\n    tag_88:\n      swap1\n      0x00\n      mstore\n      keccak256(0x00, 0x20)\n      swap1\n      0x02\n      mul\n      add\n        /* \"contracts/Security/33_gasLimit.sol\":3349:3380  proposals[proposalId].voteCount */\n      0x01\n      add\n      0x00\n        /* \"contracts/Security/33_gasLimit.sol\":3349:3385  proposals[proposalId].voteCount += 1 */\n      dup3\n      dup3\n      sload\n      tag_92\n      swap2\n      swap1\n      tag_93\n      jump\t// in\n    tag_92:\n      swap3\n      pop\n      pop\n      dup2\n      swap1\n      sstore\n      pop\n        /* \"contracts/Security/33_gasLimit.sol\":3425:3429  true */\n      0x01\n        /* \"contracts/Security/33_gasLimit.sol\":3395:3401  voters */\n      0x02\n        /* \"contracts/Security/33_gasLimit.sol\":3395:3413  voters[msg.sender] */\n      0x00\n        /* \"contracts/Security/33_gasLimit.sol\":3402:3412  msg.sender */\n      caller\n        /* \"contracts/Security/33_gasLimit.sol\":3395:3413  voters[msg.sender] */\n      0xffffffffffffffffffffffffffffffffffffffff\n      and\n      0xffffffffffffffffffffffffffffffffffffffff\n      and\n      dup2\n      mstore\n      0x20\n      add\n      swap1\n      dup2\n      mstore\n      0x20\n      add\n      0x00\n      keccak256\n        /* \"contracts/Security/33_gasLimit.sol\":3395:3422  voters[msg.sender].hasVoted */\n      0x00\n      add\n      0x01\n        /* \"contracts/Security/33_gasLimit.sol\":3395:3429  voters[msg.sender].hasVoted = true */\n      0x0100\n      exp\n      dup2\n      sload\n      dup2\n      0xff\n      mul\n      not\n      and\n      swap1\n      dup4\n      iszero\n      iszero\n      mul\n      or\n      swap1\n      sstore\n      pop\n        /* \"contracts/Security/33_gasLimit.sol\":3476:3486  proposalId */\n      dup2\n        /* \"contracts/Security/33_gasLimit.sol\":3439:3445  voters */\n      0x02\n        /* \"contracts/Security/33_gasLimit.sol\":3439:3457  voters[msg.sender] */\n      0x00\n        /* \"contracts/Security/33_gasLimit.sol\":3446:3456  msg.sender */\n      caller\n        /* \"contracts/Security/33_gasLimit.sol\":3439:3457  voters[msg.sender] */\n      0xffffffffffffffffffffffffffffffffffffffff\n      and\n      0xffffffffffffffffffffffffffffffffffffffff\n      and\n      dup2\n      mstore\n      0x20\n      add\n      swap1\n      dup2\n      mstore\n      0x20\n      add\n      0x00\n      keccak256\n        /* \"contracts/Security/33_gasLimit.sol\":3439:3473  voters[msg.sender].votedProposalId */\n      0x01\n      add\n        /* \"contracts/Security/33_gasLimit.sol\":3439:3486  voters[msg.sender].votedProposalId = proposalId */\n      dup2\n      swap1\n      sstore\n      pop\n        /* \"contracts/Security/33_gasLimit.sol\":3502:3531  Voted(msg.sender, proposalId) */\n      0x4d99b957a2bc29a30ebd96a7be8e68fe50a3c701db28a91436490b7d53870ca4\n        /* \"contracts/Security/33_gasLimit.sol\":3508:3518  msg.sender */\n      caller\n        /* \"contracts/Security/33_gasLimit.sol\":3520:3530  proposalId */\n      dup4\n        /* \"contracts/Security/33_gasLimit.sol\":3502:3531  Voted(msg.sender, proposalId) */\n      mload(0x40)\n      tag_94\n      swap3\n      swap2\n      swap1\n      tag_95\n      jump\t// in\n    tag_94:\n      mload(0x40)\n      dup1\n      swap2\n      sub\n      swap1\n      log1\n        /* \"contracts/Security/33_gasLimit.sol\":3076:3538  function vote(uint256 proposalId)... */\n      pop\n      pop\n      jump\t// out\n        /* \"contracts/Security/33_gasLimit.sol\":715:742  Proposal[] public proposals */\n    tag_28:\n      0x03\n      dup2\n      dup2\n      sload\n      dup2\n      lt\n      tag_96\n      jumpi\n      0x00\n      dup1\n      revert\n    tag_96:\n      swap1\n      0x00\n      mstore\n      keccak256(0x00, 0x20)\n      swap1\n      0x02\n      mul\n      add\n      0x00\n      swap2\n      pop\n      swap1\n      pop\n      dup1\n      0x00\n      add\n      dup1\n      sload\n      tag_98\n      swap1\n      tag_99\n      jump\t// in\n    tag_98:\n      dup1\n      0x1f\n      add\n      0x20\n      dup1\n      swap2\n      div\n      mul\n      0x20\n      add\n      mload(0x40)\n      swap1\n      dup2\n      add\n      0x40\n      mstore\n      dup1\n      swap3\n      swap2\n      swap1\n      dup2\n      dup2\n      mstore\n      0x20\n      add\n      dup3\n      dup1\n      sload\n      tag_100\n      swap1\n      tag_99\n      jump\t// in\n    tag_100:\n      dup1\n      iszero\n      tag_101\n      jumpi\n      dup1\n      0x1f\n      lt\n      tag_102\n      jumpi\n      0x0100\n      dup1\n      dup4\n      sload\n      div\n      mul\n      dup4\n      mstore\n      swap2\n      0x20\n      add\n      swap2\n      jump(tag_101)\n    tag_102:\n      dup3\n      add\n      swap2\n      swap1\n      0x00\n      mstore\n      keccak256(0x00, 0x20)\n      swap1\n    tag_103:\n      dup2\n      sload\n      dup2\n      mstore\n      swap1\n      0x01\n      add\n      swap1\n      0x20\n      add\n      dup1\n      dup4\n      gt\n      tag_103\n      jumpi\n      dup3\n      swap1\n      sub\n      0x1f\n      and\n      dup3\n      add\n      swap2\n    tag_101:\n      pop\n      pop\n      pop\n      pop\n      pop\n      swap1\n      dup1\n      0x01\n      add\n      sload\n      swap1\n      pop\n      dup3\n      jump\t// out\n        /* \"contracts/Security/33_gasLimit.sol\":2348:2717  function endProposalsRegistration()... */\n    tag_32:\n        /* \"contracts/Security/33_gasLimit.sol\":2418:2461  WorkflowStatus.ProposalsRegistrationStarted */\n      0x01\n        /* \"contracts/Security/33_gasLimit.sol\":1105:1112  _status */\n      dup1\n        /* \"contracts/Security/33_gasLimit.sol\":1087:1112  workflowStatus == _status */\n      0x05\n      dup2\n      gt\n      iszero\n      tag_105\n      jumpi\n      tag_106\n      tag_75\n      jump\t// in\n    tag_106:\n    tag_105:\n        /* \"contracts/Security/33_gasLimit.sol\":1087:1101  workflowStatus */\n      0x00\n      0x14\n      swap1\n      sload\n      swap1\n      0x0100\n      exp\n      swap1\n      div\n      0xff\n      and\n        /* \"contracts/Security/33_gasLimit.sol\":1087:1112  workflowStatus == _status */\n      0x05\n      dup2\n      gt\n      iszero\n      tag_107\n      jumpi\n      tag_108\n      tag_75\n      jump\t// in\n    tag_108:\n    tag_107:\n      eq\n        /* \"contracts/Security/33_gasLimit.sol\":1066:1182  require(... */\n      tag_109\n      jumpi\n      mload(0x40)\n      0x08c379a000000000000000000000000000000000000000000000000000000000\n      dup2\n      mstore\n      0x04\n      add\n      tag_110\n      swap1\n      tag_80\n      jump\t// in\n    tag_110:\n      mload(0x40)\n      dup1\n      swap2\n      sub\n      swap1\n      revert\n    tag_109:\n        /* \"@openzeppelin/contracts/access/Ownable.sol\":1531:1544  _checkOwner() */\n      tag_112\n        /* \"@openzeppelin/contracts/access/Ownable.sol\":1531:1542  _checkOwner */\n      tag_113\n        /* \"@openzeppelin/contracts/access/Ownable.sol\":1531:1544  _checkOwner() */\n      jump\t// in\n    tag_112:\n        /* \"contracts/Security/33_gasLimit.sol\":2512:2553  WorkflowStatus.ProposalsRegistrationEnded */\n      0x02\n        /* \"contracts/Security/33_gasLimit.sol\":2495:2509  workflowStatus */\n      0x00\n      0x14\n        /* \"contracts/Security/33_gasLimit.sol\":2495:2553  workflowStatus = WorkflowStatus.ProposalsRegistrationEnded */\n      0x0100\n      exp\n      dup2\n      sload\n      dup2\n      0xff\n      mul\n      not\n      and\n      swap1\n      dup4\n      0x05\n      dup2\n      gt\n      iszero\n      tag_115\n      jumpi\n      tag_116\n      tag_75\n      jump\t// in\n    tag_116:\n    tag_115:\n      mul\n      or\n      swap1\n      sstore\n      pop\n        /* \"contracts/Security/33_gasLimit.sol\":2568:2710  WorkflowStatusChange(... */\n      0x0a97a4ee45751e2abf3e4fc8946939630b11b371ea8ae39ccdc3056e98f5cc3f\n        /* \"contracts/Security/33_gasLimit.sol\":2602:2645  WorkflowStatus.ProposalsRegistrationStarted */\n      0x01\n        /* \"contracts/Security/33_gasLimit.sol\":2659:2700  WorkflowStatus.ProposalsRegistrationEnded */\n      0x02\n        /* \"contracts/Security/33_gasLimit.sol\":2568:2710  WorkflowStatusChange(... */\n      mload(0x40)\n      tag_117\n      swap3\n      swap2\n      swap1\n      tag_118\n      jump\t// in\n    tag_117:\n      mload(0x40)\n      dup1\n      swap2\n      sub\n      swap1\n      log1\n        /* \"contracts/Security/33_gasLimit.sol\":2348:2717  function endProposalsRegistration()... */\n      pop\n      jump\t// out\n        /* \"@openzeppelin/contracts/access/Ownable.sol\":2293:2394  function renounceOwnership() public virtual onlyOwner {... */\n    tag_34:\n        /* \"@openzeppelin/contracts/access/Ownable.sol\":1531:1544  _checkOwner() */\n      tag_120\n        /* \"@openzeppelin/contracts/access/Ownable.sol\":1531:1542  _checkOwner */\n      tag_113\n        /* \"@openzeppelin/contracts/access/Ownable.sol\":1531:1544  _checkOwner() */\n      jump\t// in\n    tag_120:\n        /* \"@openzeppelin/contracts/access/Ownable.sol\":2357:2387  _transferOwnership(address(0)) */\n      tag_122\n        /* \"@openzeppelin/contracts/access/Ownable.sol\":2384:2385  0 */\n      0x00\n        /* \"@openzeppelin/contracts/access/Ownable.sol\":2357:2375  _transferOwnership */\n      tag_123\n        /* \"@openzeppelin/contracts/access/Ownable.sol\":2357:2387  _transferOwnership(address(0)) */\n      jump\t// in\n    tag_122:\n        /* \"@openzeppelin/contracts/access/Ownable.sol\":2293:2394  function renounceOwnership() public virtual onlyOwner {... */\n      jump\t// out\n        /* \"contracts/Security/33_attackGasLimit.sol\":247:385  function attackStep() public {... */\n    tag_36:\n        /* \"contracts/Security/33_attackGasLimit.sol\":291:300  uint256 i */\n      0x00\n        /* \"contracts/Security/33_attackGasLimit.sol\":303:304  1 */\n      0x01\n        /* \"contracts/Security/33_attackGasLimit.sol\":291:304  uint256 i = 1 */\n      swap1\n      pop\n        /* \"contracts/Security/33_attackGasLimit.sol\":286:379  for (uint256 i = 1; i < 200; i++) {... */\n    tag_125:\n        /* \"contracts/Security/33_attackGasLimit.sol\":310:313  200 */\n      0xc8\n        /* \"contracts/Security/33_attackGasLimit.sol\":306:307  i */\n      dup2\n        /* \"contracts/Security/33_attackGasLimit.sol\":306:313  i < 200 */\n      lt\n        /* \"contracts/Security/33_attackGasLimit.sol\":286:379  for (uint256 i = 1; i < 200; i++) {... */\n      iszero\n      tag_126\n      jumpi\n        /* \"contracts/Security/33_attackGasLimit.sol\":334:340  voting */\n      0x04\n      0x00\n      swap1\n      sload\n      swap1\n      0x0100\n      exp\n      swap1\n      div\n      0xffffffffffffffffffffffffffffffffffffffff\n      and\n        /* \"contracts/Security/33_attackGasLimit.sol\":334:358  voting.registerProposals */\n      0xffffffffffffffffffffffffffffffffffffffff\n      and\n      0xe2dd58c6\n        /* \"contracts/Security/33_attackGasLimit.sol\":334:368  voting.registerProposals(\"attack\") */\n      mload(0x40)\n      dup2\n      0xffffffff\n      and\n      0xe0\n      shl\n      dup2\n      mstore\n      0x04\n      add\n      tag_128\n      swap1\n      tag_129\n      jump\t// in\n    tag_128:\n      0x00\n      mload(0x40)\n      dup1\n      dup4\n      sub\n      dup2\n      0x00\n      dup8\n      dup1\n      extcodesize\n      iszero\n      dup1\n      iszero\n      tag_130\n      jumpi\n      revert(0x00, 0x00)\n    tag_130:\n      pop\n      gas\n      call\n      iszero\n      dup1\n      iszero\n      tag_132\n      jumpi\n      returndatacopy(0x00, 0x00, returndatasize)\n      revert(0x00, returndatasize)\n    tag_132:\n      pop\n      pop\n      pop\n      pop\n        /* \"contracts/Security/33_attackGasLimit.sol\":315:318  i++ */\n      dup1\n      dup1\n      0x01\n      add\n      swap2\n      pop\n      pop\n        /* \"contracts/Security/33_attackGasLimit.sol\":286:379  for (uint256 i = 1; i < 200; i++) {... */\n      jump(tag_125)\n    tag_126:\n      pop\n        /* \"contracts/Security/33_attackGasLimit.sol\":247:385  function attackStep() public {... */\n      jump\t// out\n        /* \"@openzeppelin/contracts/access/Ownable.sol\":1638:1723  function owner() public view virtual returns (address) {... */\n    tag_38:\n        /* \"@openzeppelin/contracts/access/Ownable.sol\":1684:1691  address */\n      0x00\n        /* \"@openzeppelin/contracts/access/Ownable.sol\":1710:1716  _owner */\n      0x00\n      0x00\n      swap1\n      sload\n      swap1\n      0x0100\n      exp\n      swap1\n      div\n      0xffffffffffffffffffffffffffffffffffffffff\n      and\n        /* \"@openzeppelin/contracts/access/Ownable.sol\":1703:1716  return _owner */\n      swap1\n      pop\n        /* \"@openzeppelin/contracts/access/Ownable.sol\":1638:1723  function owner() public view virtual returns (address) {... */\n      swap1\n      jump\t// out\n        /* \"contracts/Security/33_gasLimit.sol\":4472:4659  function getWinner()... */\n    tag_42:\n        /* \"contracts/Security/33_gasLimit.sol\":4586:4601  Proposal memory */\n      tag_134\n      tag_135\n      jump\t// in\n    tag_134:\n        /* \"contracts/Security/33_gasLimit.sol\":4540:4567  WorkflowStatus.VotesTallied */\n      0x05\n        /* \"contracts/Security/33_gasLimit.sol\":1105:1112  _status */\n      dup1\n        /* \"contracts/Security/33_gasLimit.sol\":1087:1112  workflowStatus == _status */\n      0x05\n      dup2\n      gt\n      iszero\n      tag_137\n      jumpi\n      tag_138\n      tag_75\n      jump\t// in\n    tag_138:\n    tag_137:\n        /* \"contracts/Security/33_gasLimit.sol\":1087:1101  workflowStatus */\n      0x00\n      0x14\n      swap1\n      sload\n      swap1\n      0x0100\n      exp\n      swap1\n      div\n      0xff\n      and\n        /* \"contracts/Security/33_gasLimit.sol\":1087:1112  workflowStatus == _status */\n      0x05\n      dup2\n      gt\n      iszero\n      tag_139\n      jumpi\n      tag_140\n      tag_75\n      jump\t// in\n    tag_140:\n    tag_139:\n      eq\n        /* \"contracts/Security/33_gasLimit.sol\":1066:1182  require(... */\n      tag_141\n      jumpi\n      mload(0x40)\n      0x08c379a000000000000000000000000000000000000000000000000000000000\n      dup2\n      mstore\n      0x04\n      add\n      tag_142\n      swap1\n      tag_80\n      jump\t// in\n    tag_142:\n      mload(0x40)\n      dup1\n      swap2\n      sub\n      swap1\n      revert\n    tag_141:\n        /* \"contracts/Security/33_gasLimit.sol\":4624:4633  proposals */\n      0x03\n        /* \"contracts/Security/33_gasLimit.sol\":4634:4651  winningProposalId */\n      sload(0x01)\n        /* \"contracts/Security/33_gasLimit.sol\":4624:4652  proposals[winningProposalId] */\n      dup2\n      sload\n      dup2\n      lt\n      tag_144\n      jumpi\n      tag_145\n      tag_90\n      jump\t// in\n    tag_145:\n    tag_144:\n      swap1\n      0x00\n      mstore\n      keccak256(0x00, 0x20)\n      swap1\n      0x02\n      mul\n      add\n        /* \"contracts/Security/33_gasLimit.sol\":4617:4652  return proposals[winningProposalId] */\n      mload(0x40)\n      dup1\n      0x40\n      add\n      0x40\n      mstore\n      swap1\n      dup2\n      0x00\n      dup3\n      add\n      dup1\n      sload\n      tag_147\n      swap1\n      tag_99\n      jump\t// in\n    tag_147:\n      dup1\n      0x1f\n      add\n      0x20\n      dup1\n      swap2\n      div\n      mul\n      0x20\n      add\n      mload(0x40)\n      swap1\n      dup2\n      add\n      0x40\n      mstore\n      dup1\n      swap3\n      swap2\n      swap1\n      dup2\n      dup2\n      mstore\n      0x20\n      add\n      dup3\n      dup1\n      sload\n      tag_148\n      swap1\n      tag_99\n      jump\t// in\n    tag_148:\n      dup1\n      iszero\n      tag_149\n      jumpi\n      dup1\n      0x1f\n      lt\n      tag_150\n      jumpi\n      0x0100\n      dup1\n      dup4\n      sload\n      div\n      mul\n      dup4\n      mstore\n      swap2\n      0x20\n      add\n      swap2\n      jump(tag_149)\n    tag_150:\n      dup3\n      add\n      swap2\n      swap1\n      0x00\n      mstore\n      keccak256(0x00, 0x20)\n      swap1\n    tag_151:\n      dup2\n      sload\n      dup2\n      mstore\n      swap1\n      0x01\n      add\n      swap1\n      0x20\n      add\n      dup1\n      dup4\n      gt\n      tag_151\n      jumpi\n      dup3\n      swap1\n      sub\n      0x1f\n      and\n      dup3\n      add\n      swap2\n    tag_149:\n      pop\n      pop\n      pop\n      pop\n      pop\n      dup2\n      mstore\n      0x20\n      add\n      0x01\n      dup3\n      add\n      sload\n      dup2\n      mstore\n      pop\n      pop\n      swap2\n      pop\n        /* \"contracts/Security/33_gasLimit.sol\":4472:4659  function getWinner()... */\n      pop\n      swap1\n      jump\t// out\n        /* \"contracts/Security/33_gasLimit.sol\":594:630  WorkflowStatus public workflowStatus */\n    tag_46:\n      0x00\n      0x14\n      swap1\n      sload\n      swap1\n      0x0100\n      exp\n      swap1\n      div\n      0xff\n      and\n      dup2\n      jump\t// out\n        /* \"contracts/Security/33_gasLimit.sol\":3544:3873  function endVotingSession()... */\n    tag_50:\n        /* \"contracts/Security/33_gasLimit.sol\":3606:3641  WorkflowStatus.VotingSessionStarted */\n      0x03\n        /* \"contracts/Security/33_gasLimit.sol\":1105:1112  _status */\n      dup1\n        /* \"contracts/Security/33_gasLimit.sol\":1087:1112  workflowStatus == _status */\n      0x05\n      dup2\n      gt\n      iszero\n      tag_153\n      jumpi\n      tag_154\n      tag_75\n      jump\t// in\n    tag_154:\n    tag_153:\n        /* \"contracts/Security/33_gasLimit.sol\":1087:1101  workflowStatus */\n      0x00\n      0x14\n      swap1\n      sload\n      swap1\n      0x0100\n      exp\n      swap1\n      div\n      0xff\n      and\n        /* \"contracts/Security/33_gasLimit.sol\":1087:1112  workflowStatus == _status */\n      0x05\n      dup2\n      gt\n      iszero\n      tag_155\n      jumpi\n      tag_156\n      tag_75\n      jump\t// in\n    tag_156:\n    tag_155:\n      eq\n        /* \"contracts/Security/33_gasLimit.sol\":1066:1182  require(... */\n      tag_157\n      jumpi\n      mload(0x40)\n      0x08c379a000000000000000000000000000000000000000000000000000000000\n      dup2\n      mstore\n      0x04\n      add\n      tag_158\n      swap1\n      tag_80\n      jump\t// in\n    tag_158:\n      mload(0x40)\n      dup1\n      swap2\n      sub\n      swap1\n      revert\n    tag_157:\n        /* \"@openzeppelin/contracts/access/Ownable.sol\":1531:1544  _checkOwner() */\n      tag_160\n        /* \"@openzeppelin/contracts/access/Ownable.sol\":1531:1542  _checkOwner */\n      tag_113\n        /* \"@openzeppelin/contracts/access/Ownable.sol\":1531:1544  _checkOwner() */\n      jump\t// in\n    tag_160:\n        /* \"contracts/Security/33_gasLimit.sol\":3692:3725  WorkflowStatus.VotingSessionEnded */\n      0x04\n        /* \"contracts/Security/33_gasLimit.sol\":3675:3689  workflowStatus */\n      0x00\n      0x14\n        /* \"contracts/Security/33_gasLimit.sol\":3675:3725  workflowStatus = WorkflowStatus.VotingSessionEnded */\n      0x0100\n      exp\n      dup2\n      sload\n      dup2\n      0xff\n      mul\n      not\n      and\n      swap1\n      dup4\n      0x05\n      dup2\n      gt\n      iszero\n      tag_162\n      jumpi\n      tag_163\n      tag_75\n      jump\t// in\n    tag_163:\n    tag_162:\n      mul\n      or\n      swap1\n      sstore\n      pop\n        /* \"contracts/Security/33_gasLimit.sol\":3740:3866  WorkflowStatusChange(... */\n      0x0a97a4ee45751e2abf3e4fc8946939630b11b371ea8ae39ccdc3056e98f5cc3f\n        /* \"contracts/Security/33_gasLimit.sol\":3774:3809  WorkflowStatus.VotingSessionStarted */\n      0x03\n        /* \"contracts/Security/33_gasLimit.sol\":3823:3856  WorkflowStatus.VotingSessionEnded */\n      0x04\n        /* \"contracts/Security/33_gasLimit.sol\":3740:3866  WorkflowStatusChange(... */\n      mload(0x40)\n      tag_164\n      swap3\n      swap2\n      swap1\n      tag_118\n      jump\t// in\n    tag_164:\n      mload(0x40)\n      dup1\n      swap2\n      sub\n      swap1\n      log1\n        /* \"contracts/Security/33_gasLimit.sol\":3544:3873  function endVotingSession()... */\n      pop\n      jump\t// out\n        /* \"contracts/Security/33_gasLimit.sol\":3879:4466  function votesTallied()... */\n    tag_52:\n        /* \"contracts/Security/33_gasLimit.sol\":3937:3970  WorkflowStatus.VotingSessionEnded */\n      0x04\n        /* \"contracts/Security/33_gasLimit.sol\":1105:1112  _status */\n      dup1\n        /* \"contracts/Security/33_gasLimit.sol\":1087:1112  workflowStatus == _status */\n      0x05\n      dup2\n      gt\n      iszero\n      tag_166\n      jumpi\n      tag_167\n      tag_75\n      jump\t// in\n    tag_167:\n    tag_166:\n        /* \"contracts/Security/33_gasLimit.sol\":1087:1101  workflowStatus */\n      0x00\n      0x14\n      swap1\n      sload\n      swap1\n      0x0100\n      exp\n      swap1\n      div\n      0xff\n      and\n        /* \"contracts/Security/33_gasLimit.sol\":1087:1112  workflowStatus == _status */\n      0x05\n      dup2\n      gt\n      iszero\n      tag_168\n      jumpi\n      tag_169\n      tag_75\n      jump\t// in\n    tag_169:\n    tag_168:\n      eq\n        /* \"contracts/Security/33_gasLimit.sol\":1066:1182  require(... */\n      tag_170\n      jumpi\n      mload(0x40)\n      0x08c379a000000000000000000000000000000000000000000000000000000000\n      dup2\n      mstore\n      0x04\n      add\n      tag_171\n      swap1\n      tag_80\n      jump\t// in\n    tag_171:\n      mload(0x40)\n      dup1\n      swap2\n      sub\n      swap1\n      revert\n    tag_170:\n        /* \"@openzeppelin/contracts/access/Ownable.sol\":1531:1544  _checkOwner() */\n      tag_173\n        /* \"@openzeppelin/contracts/access/Ownable.sol\":1531:1542  _checkOwner */\n      tag_113\n        /* \"@openzeppelin/contracts/access/Ownable.sol\":1531:1544  _checkOwner() */\n      jump\t// in\n    tag_173:\n        /* \"contracts/Security/33_gasLimit.sol\":4004:4028  uint256 winningVoteCount */\n      0x00\n        /* \"contracts/Security/33_gasLimit.sol\":4031:4032  0 */\n      0x00\n        /* \"contracts/Security/33_gasLimit.sol\":4004:4032  uint256 winningVoteCount = 0 */\n      swap1\n      pop\n        /* \"contracts/Security/33_gasLimit.sol\":4047:4056  uint256 p */\n      0x00\n        /* \"contracts/Security/33_gasLimit.sol\":4059:4060  0 */\n      0x00\n        /* \"contracts/Security/33_gasLimit.sol\":4047:4060  uint256 p = 0 */\n      swap1\n      pop\n        /* \"contracts/Security/33_gasLimit.sol\":4042:4273  for (uint256 p = 0; p < proposals.length; p++) {... */\n    tag_175:\n        /* \"contracts/Security/33_gasLimit.sol\":4066:4075  proposals */\n      0x03\n        /* \"contracts/Security/33_gasLimit.sol\":4066:4082  proposals.length */\n      dup1\n      sload\n      swap1\n      pop\n        /* \"contracts/Security/33_gasLimit.sol\":4062:4063  p */\n      dup2\n        /* \"contracts/Security/33_gasLimit.sol\":4062:4082  p < proposals.length */\n      lt\n        /* \"contracts/Security/33_gasLimit.sol\":4042:4273  for (uint256 p = 0; p < proposals.length; p++) {... */\n      iszero\n      tag_176\n      jumpi\n        /* \"contracts/Security/33_gasLimit.sol\":4132:4148  winningVoteCount */\n      dup2\n        /* \"contracts/Security/33_gasLimit.sol\":4107:4116  proposals */\n      0x03\n        /* \"contracts/Security/33_gasLimit.sol\":4117:4118  p */\n      dup3\n        /* \"contracts/Security/33_gasLimit.sol\":4107:4119  proposals[p] */\n      dup2\n      sload\n      dup2\n      lt\n      tag_178\n      jumpi\n      tag_179\n      tag_90\n      jump\t// in\n    tag_179:\n    tag_178:\n      swap1\n      0x00\n      mstore\n      keccak256(0x00, 0x20)\n      swap1\n      0x02\n      mul\n      add\n        /* \"contracts/Security/33_gasLimit.sol\":4107:4129  proposals[p].voteCount */\n      0x01\n      add\n      sload\n        /* \"contracts/Security/33_gasLimit.sol\":4107:4148  proposals[p].voteCount > winningVoteCount */\n      gt\n        /* \"contracts/Security/33_gasLimit.sol\":4103:4263  if (proposals[p].voteCount > winningVoteCount) {... */\n      iszero\n      tag_181\n      jumpi\n        /* \"contracts/Security/33_gasLimit.sol\":4187:4196  proposals */\n      0x03\n        /* \"contracts/Security/33_gasLimit.sol\":4197:4198  p */\n      dup2\n        /* \"contracts/Security/33_gasLimit.sol\":4187:4199  proposals[p] */\n      dup2\n      sload\n      dup2\n      lt\n      tag_182\n      jumpi\n      tag_183\n      tag_90\n      jump\t// in\n    tag_183:\n    tag_182:\n      swap1\n      0x00\n      mstore\n      keccak256(0x00, 0x20)\n      swap1\n      0x02\n      mul\n      add\n        /* \"contracts/Security/33_gasLimit.sol\":4187:4209  proposals[p].voteCount */\n      0x01\n      add\n      sload\n        /* \"contracts/Security/33_gasLimit.sol\":4168:4209  winningVoteCount = proposals[p].voteCount */\n      swap2\n      pop\n        /* \"contracts/Security/33_gasLimit.sol\":4247:4248  p */\n      dup1\n        /* \"contracts/Security/33_gasLimit.sol\":4227:4244  winningProposalId */\n      0x01\n        /* \"contracts/Security/33_gasLimit.sol\":4227:4248  winningProposalId = p */\n      dup2\n      swap1\n      sstore\n      pop\n        /* \"contracts/Security/33_gasLimit.sol\":4103:4263  if (proposals[p].voteCount > winningVoteCount) {... */\n    tag_181:\n        /* \"contracts/Security/33_gasLimit.sol\":4084:4087  p++ */\n      dup1\n      dup1\n      0x01\n      add\n      swap2\n      pop\n      pop\n        /* \"contracts/Security/33_gasLimit.sol\":4042:4273  for (uint256 p = 0; p < proposals.length; p++) {... */\n      jump(tag_175)\n    tag_176:\n      pop\n        /* \"contracts/Security/33_gasLimit.sol\":4299:4326  WorkflowStatus.VotesTallied */\n      0x05\n        /* \"contracts/Security/33_gasLimit.sol\":4282:4296  workflowStatus */\n      0x00\n      0x14\n        /* \"contracts/Security/33_gasLimit.sol\":4282:4326  workflowStatus = WorkflowStatus.VotesTallied */\n      0x0100\n      exp\n      dup2\n      sload\n      dup2\n      0xff\n      mul\n      not\n      and\n      swap1\n      dup4\n      0x05\n      dup2\n      gt\n      iszero\n      tag_185\n      jumpi\n      tag_186\n      tag_75\n      jump\t// in\n    tag_186:\n    tag_185:\n      mul\n      or\n      swap1\n      sstore\n      pop\n        /* \"contracts/Security/33_gasLimit.sol\":4341:4459  WorkflowStatusChange(... */\n      0x0a97a4ee45751e2abf3e4fc8946939630b11b371ea8ae39ccdc3056e98f5cc3f\n        /* \"contracts/Security/33_gasLimit.sol\":4375:4408  WorkflowStatus.VotingSessionEnded */\n      0x04\n        /* \"contracts/Security/33_gasLimit.sol\":4422:4449  WorkflowStatus.VotesTallied */\n      0x05\n        /* \"contracts/Security/33_gasLimit.sol\":4341:4459  WorkflowStatusChange(... */\n      mload(0x40)\n      tag_187\n      swap3\n      swap2\n      swap1\n      tag_118\n      jump\t// in\n    tag_187:\n      mload(0x40)\n      dup1\n      swap2\n      sub\n      swap1\n      log1\n        /* \"contracts/Security/33_gasLimit.sol\":3994:4466  {... */\n      pop\n        /* \"contracts/Security/33_gasLimit.sol\":3879:4466  function votesTallied()... */\n      pop\n      jump\t// out\n        /* \"contracts/Security/33_gasLimit.sol\":1579:1932  function startProposalsRegistration()... */\n    tag_54:\n        /* \"contracts/Security/33_gasLimit.sol\":1651:1683  WorkflowStatus.RegisteringVoters */\n      0x00\n        /* \"contracts/Security/33_gasLimit.sol\":1105:1112  _status */\n      dup1\n        /* \"contracts/Security/33_gasLimit.sol\":1087:1112  workflowStatus == _status */\n      0x05\n      dup2\n      gt\n      iszero\n      tag_189\n      jumpi\n      tag_190\n      tag_75\n      jump\t// in\n    tag_190:\n    tag_189:\n        /* \"contracts/Security/33_gasLimit.sol\":1087:1101  workflowStatus */\n      0x00\n      0x14\n      swap1\n      sload\n      swap1\n      0x0100\n      exp\n      swap1\n      div\n      0xff\n      and\n        /* \"contracts/Security/33_gasLimit.sol\":1087:1112  workflowStatus == _status */\n      0x05\n      dup2\n      gt\n      iszero\n      tag_191\n      jumpi\n      tag_192\n      tag_75\n      jump\t// in\n    tag_192:\n    tag_191:\n      eq\n        /* \"contracts/Security/33_gasLimit.sol\":1066:1182  require(... */\n      tag_193\n      jumpi\n      mload(0x40)\n      0x08c379a000000000000000000000000000000000000000000000000000000000\n      dup2\n      mstore\n      0x04\n      add\n      tag_194\n      swap1\n      tag_80\n      jump\t// in\n    tag_194:\n      mload(0x40)\n      dup1\n      swap2\n      sub\n      swap1\n      revert\n    tag_193:\n        /* \"@openzeppelin/contracts/access/Ownable.sol\":1531:1544  _checkOwner() */\n      tag_196\n        /* \"@openzeppelin/contracts/access/Ownable.sol\":1531:1542  _checkOwner */\n      tag_113\n        /* \"@openzeppelin/contracts/access/Ownable.sol\":1531:1544  _checkOwner() */\n      jump\t// in\n    tag_196:\n        /* \"contracts/Security/33_gasLimit.sol\":1734:1777  WorkflowStatus.ProposalsRegistrationStarted */\n      0x01\n        /* \"contracts/Security/33_gasLimit.sol\":1717:1731  workflowStatus */\n      0x00\n      0x14\n        /* \"contracts/Security/33_gasLimit.sol\":1717:1777  workflowStatus = WorkflowStatus.ProposalsRegistrationStarted */\n      0x0100\n      exp\n      dup2\n      sload\n      dup2\n      0xff\n      mul\n      not\n      and\n      swap1\n      dup4\n      0x05\n      dup2\n      gt\n      iszero\n      tag_198\n      jumpi\n      tag_199\n      tag_75\n      jump\t// in\n    tag_199:\n    tag_198:\n      mul\n      or\n      swap1\n      sstore\n      pop\n        /* \"contracts/Security/33_gasLimit.sol\":1792:1925  WorkflowStatusChange(... */\n      0x0a97a4ee45751e2abf3e4fc8946939630b11b371ea8ae39ccdc3056e98f5cc3f\n        /* \"contracts/Security/33_gasLimit.sol\":1826:1858  WorkflowStatus.RegisteringVoters */\n      0x00\n        /* \"contracts/Security/33_gasLimit.sol\":1872:1915  WorkflowStatus.ProposalsRegistrationStarted */\n      0x01\n        /* \"contracts/Security/33_gasLimit.sol\":1792:1925  WorkflowStatusChange(... */\n      mload(0x40)\n      tag_200\n      swap3\n      swap2\n      swap1\n      tag_118\n      jump\t// in\n    tag_200:\n      mload(0x40)\n      dup1\n      swap2\n      sub\n      swap1\n      log1\n        /* \"contracts/Security/33_gasLimit.sol\":1579:1932  function startProposalsRegistration()... */\n      pop\n      jump\t// out\n        /* \"contracts/Security/33_gasLimit.sol\":1938:2342  function registerProposals(string memory proposalDescription)... */\n    tag_58:\n        /* \"contracts/Security/33_gasLimit.sol\":2034:2077  WorkflowStatus.ProposalsRegistrationStarted */\n      0x01\n        /* \"contracts/Security/33_gasLimit.sol\":1105:1112  _status */\n      dup1\n        /* \"contracts/Security/33_gasLimit.sol\":1087:1112  workflowStatus == _status */\n      0x05\n      dup2\n      gt\n      iszero\n      tag_202\n      jumpi\n      tag_203\n      tag_75\n      jump\t// in\n    tag_203:\n    tag_202:\n        /* \"contracts/Security/33_gasLimit.sol\":1087:1101  workflowStatus */\n      0x00\n      0x14\n      swap1\n      sload\n      swap1\n      0x0100\n      exp\n      swap1\n      div\n      0xff\n      and\n        /* \"contracts/Security/33_gasLimit.sol\":1087:1112  workflowStatus == _status */\n      0x05\n      dup2\n      gt\n      iszero\n      tag_204\n      jumpi\n      tag_205\n      tag_75\n      jump\t// in\n    tag_205:\n    tag_204:\n      eq\n        /* \"contracts/Security/33_gasLimit.sol\":1066:1182  require(... */\n      tag_206\n      jumpi\n      mload(0x40)\n      0x08c379a000000000000000000000000000000000000000000000000000000000\n      dup2\n      mstore\n      0x04\n      add\n      tag_207\n      swap1\n      tag_80\n      jump\t// in\n    tag_207:\n      mload(0x40)\n      dup1\n      swap2\n      sub\n      swap1\n      revert\n    tag_206:\n        /* \"contracts/Security/33_gasLimit.sol\":2114:2120  voters */\n      0x02\n        /* \"contracts/Security/33_gasLimit.sol\":2114:2132  voters[msg.sender] */\n      0x00\n        /* \"contracts/Security/33_gasLimit.sol\":2121:2131  msg.sender */\n      caller\n        /* \"contracts/Security/33_gasLimit.sol\":2114:2132  voters[msg.sender] */\n      0xffffffffffffffffffffffffffffffffffffffff\n      and\n      0xffffffffffffffffffffffffffffffffffffffff\n      and\n      dup2\n      mstore\n      0x20\n      add\n      swap1\n      dup2\n      mstore\n      0x20\n      add\n      0x00\n      keccak256\n        /* \"contracts/Security/33_gasLimit.sol\":2114:2145  voters[msg.sender].isRegistered */\n      0x00\n      add\n      0x00\n      swap1\n      sload\n      swap1\n      0x0100\n      exp\n      swap1\n      div\n      0xff\n      and\n        /* \"contracts/Security/33_gasLimit.sol\":2093:2209  require(... */\n      tag_209\n      jumpi\n      mload(0x40)\n      0x08c379a000000000000000000000000000000000000000000000000000000000\n      dup2\n      mstore\n      0x04\n      add\n      tag_210\n      swap1\n      tag_211\n      jump\t// in\n    tag_210:\n      mload(0x40)\n      dup1\n      swap2\n      sub\n      swap1\n      revert\n    tag_209:\n        /* \"contracts/Security/33_gasLimit.sol\":2220:2229  proposals */\n      0x03\n        /* \"contracts/Security/33_gasLimit.sol\":2235:2267  Proposal(proposalDescription, 0) */\n      mload(0x40)\n      dup1\n      0x40\n      add\n      0x40\n      mstore\n      dup1\n        /* \"contracts/Security/33_gasLimit.sol\":2244:2263  proposalDescription */\n      dup5\n        /* \"contracts/Security/33_gasLimit.sol\":2235:2267  Proposal(proposalDescription, 0) */\n      dup2\n      mstore\n      0x20\n      add\n        /* \"contracts/Security/33_gasLimit.sol\":2265:2266  0 */\n      0x00\n        /* \"contracts/Security/33_gasLimit.sol\":2235:2267  Proposal(proposalDescription, 0) */\n      dup2\n      mstore\n      pop\n        /* \"contracts/Security/33_gasLimit.sol\":2220:2268  proposals.push(Proposal(proposalDescription, 0)) */\n      swap1\n      dup1\n      0x01\n      dup2\n      sload\n      add\n      dup1\n      dup3\n      sstore\n      dup1\n      swap2\n      pop\n      pop\n      0x01\n      swap1\n      sub\n      swap1\n      0x00\n      mstore\n      keccak256(0x00, 0x20)\n      swap1\n      0x02\n      mul\n      add\n      0x00\n      swap1\n      swap2\n      swap1\n      swap2\n      swap1\n      swap2\n      pop\n      0x00\n      dup3\n      add\n      mload\n      dup2\n      0x00\n      add\n      swap1\n      dup2\n      tag_213\n      swap2\n      swap1\n      tag_214\n      jump\t// in\n    tag_213:\n      pop\n      0x20\n      dup3\n      add\n      mload\n      dup2\n      0x01\n      add\n      sstore\n      pop\n      pop\n        /* \"contracts/Security/33_gasLimit.sol\":2334:2335  1 */\n      0x01\n        /* \"contracts/Security/33_gasLimit.sol\":2315:2324  proposals */\n      0x03\n        /* \"contracts/Security/33_gasLimit.sol\":2315:2331  proposals.length */\n      dup1\n      sload\n      swap1\n      pop\n        /* \"contracts/Security/33_gasLimit.sol\":2315:2335  proposals.length + 1 */\n      tag_215\n      swap2\n      swap1\n      tag_93\n      jump\t// in\n    tag_215:\n        /* \"contracts/Security/33_gasLimit.sol\":2278:2284  voters */\n      0x02\n        /* \"contracts/Security/33_gasLimit.sol\":2278:2296  voters[msg.sender] */\n      0x00\n        /* \"contracts/Security/33_gasLimit.sol\":2285:2295  msg.sender */\n      caller\n        /* \"contracts/Security/33_gasLimit.sol\":2278:2296  voters[msg.sender] */\n      0xffffffffffffffffffffffffffffffffffffffff\n      and\n      0xffffffffffffffffffffffffffffffffffffffff\n      and\n      dup2\n      mstore\n      0x20\n      add\n      swap1\n      dup2\n      mstore\n      0x20\n      add\n      0x00\n      keccak256\n        /* \"contracts/Security/33_gasLimit.sol\":2278:2312  voters[msg.sender].votedProposalId */\n      0x01\n      add\n        /* \"contracts/Security/33_gasLimit.sol\":2278:2335  voters[msg.sender].votedProposalId = proposals.length + 1 */\n      dup2\n      swap1\n      sstore\n      pop\n        /* \"contracts/Security/33_gasLimit.sol\":1938:2342  function registerProposals(string memory proposalDescription)... */\n      pop\n      pop\n      jump\t// out\n        /* \"contracts/Security/33_gasLimit.sol\":1206:1573  function registerVoters(address _voterAddress)... */\n    tag_62:\n        /* \"contracts/Security/33_gasLimit.sol\":1287:1319  WorkflowStatus.RegisteringVoters */\n      0x00\n        /* \"contracts/Security/33_gasLimit.sol\":1105:1112  _status */\n      dup1\n        /* \"contracts/Security/33_gasLimit.sol\":1087:1112  workflowStatus == _status */\n      0x05\n      dup2\n      gt\n      iszero\n      tag_217\n      jumpi\n      tag_218\n      tag_75\n      jump\t// in\n    tag_218:\n    tag_217:\n        /* \"contracts/Security/33_gasLimit.sol\":1087:1101  workflowStatus */\n      0x00\n      0x14\n      swap1\n      sload\n      swap1\n      0x0100\n      exp\n      swap1\n      div\n      0xff\n      and\n        /* \"contracts/Security/33_gasLimit.sol\":1087:1112  workflowStatus == _status */\n      0x05\n      dup2\n      gt\n      iszero\n      tag_219\n      jumpi\n      tag_220\n      tag_75\n      jump\t// in\n    tag_220:\n    tag_219:\n      eq\n        /* \"contracts/Security/33_gasLimit.sol\":1066:1182  require(... */\n      tag_221\n      jumpi\n      mload(0x40)\n      0x08c379a000000000000000000000000000000000000000000000000000000000\n      dup2\n      mstore\n      0x04\n      add\n      tag_222\n      swap1\n      tag_80\n      jump\t// in\n    tag_222:\n      mload(0x40)\n      dup1\n      swap2\n      sub\n      swap1\n      revert\n    tag_221:\n        /* \"@openzeppelin/contracts/access/Ownable.sol\":1531:1544  _checkOwner() */\n      tag_224\n        /* \"@openzeppelin/contracts/access/Ownable.sol\":1531:1542  _checkOwner */\n      tag_113\n        /* \"@openzeppelin/contracts/access/Ownable.sol\":1531:1544  _checkOwner() */\n      jump\t// in\n    tag_224:\n        /* \"contracts/Security/33_gasLimit.sol\":1375:1381  voters */\n      0x02\n        /* \"contracts/Security/33_gasLimit.sol\":1375:1396  voters[_voterAddress] */\n      0x00\n        /* \"contracts/Security/33_gasLimit.sol\":1382:1395  _voterAddress */\n      dup4\n        /* \"contracts/Security/33_gasLimit.sol\":1375:1396  voters[_voterAddress] */\n      0xffffffffffffffffffffffffffffffffffffffff\n      and\n      0xffffffffffffffffffffffffffffffffffffffff\n      and\n      dup2\n      mstore\n      0x20\n      add\n      swap1\n      dup2\n      mstore\n      0x20\n      add\n      0x00\n      keccak256\n        /* \"contracts/Security/33_gasLimit.sol\":1375:1409  voters[_voterAddress].isRegistered */\n      0x00\n      add\n      0x00\n      swap1\n      sload\n      swap1\n      0x0100\n      exp\n      swap1\n      div\n      0xff\n      and\n        /* \"contracts/Security/33_gasLimit.sol\":1374:1409  !voters[_voterAddress].isRegistered */\n      iszero\n        /* \"contracts/Security/33_gasLimit.sol\":1353:1468  require(... */\n      tag_226\n      jumpi\n      mload(0x40)\n      0x08c379a000000000000000000000000000000000000000000000000000000000\n      dup2\n      mstore\n      0x04\n      add\n      tag_227\n      swap1\n      tag_228\n      jump\t// in\n    tag_227:\n      mload(0x40)\n      dup1\n      swap2\n      sub\n      swap1\n      revert\n    tag_226:\n        /* \"contracts/Security/33_gasLimit.sol\":1516:1520  true */\n      0x01\n        /* \"contracts/Security/33_gasLimit.sol\":1479:1485  voters */\n      0x02\n        /* \"contracts/Security/33_gasLimit.sol\":1479:1500  voters[_voterAddress] */\n      0x00\n        /* \"contracts/Security/33_gasLimit.sol\":1486:1499  _voterAddress */\n      dup5\n        /* \"contracts/Security/33_gasLimit.sol\":1479:1500  voters[_voterAddress] */\n      0xffffffffffffffffffffffffffffffffffffffff\n      and\n      0xffffffffffffffffffffffffffffffffffffffff\n      and\n      dup2\n      mstore\n      0x20\n      add\n      swap1\n      dup2\n      mstore\n      0x20\n      add\n      0x00\n      keccak256\n        /* \"contracts/Security/33_gasLimit.sol\":1479:1513  voters[_voterAddress].isRegistered */\n      0x00\n      add\n      0x00\n        /* \"contracts/Security/33_gasLimit.sol\":1479:1520  voters[_voterAddress].isRegistered = true */\n      0x0100\n      exp\n      dup2\n      sload\n      dup2\n      0xff\n      mul\n      not\n      and\n      swap1\n      dup4\n      iszero\n      iszero\n      mul\n      or\n      swap1\n      sstore\n      pop\n        /* \"contracts/Security/33_gasLimit.sol\":1536:1566  VoterRegistered(_voterAddress) */\n      0xb6be2187d059cc2a55fe29e0e503b566e1e0f8c8780096e185429350acffd3dd\n        /* \"contracts/Security/33_gasLimit.sol\":1552:1565  _voterAddress */\n      dup3\n        /* \"contracts/Security/33_gasLimit.sol\":1536:1566  VoterRegistered(_voterAddress) */\n      mload(0x40)\n      tag_229\n      swap2\n      swap1\n      tag_40\n      jump\t// in\n    tag_229:\n      mload(0x40)\n      dup1\n      swap2\n      sub\n      swap1\n      log1\n        /* \"contracts/Security/33_gasLimit.sol\":1206:1573  function registerVoters(address _voterAddress)... */\n      pop\n      pop\n      jump\t// out\n        /* \"contracts/Security/33_gasLimit.sol\":2723:3070  function startVotingSession()... */\n    tag_64:\n        /* \"contracts/Security/33_gasLimit.sol\":2787:2828  WorkflowStatus.ProposalsRegistrationEnded */\n      0x02\n        /* \"contracts/Security/33_gasLimit.sol\":1105:1112  _status */\n      dup1\n        /* \"contracts/Security/33_gasLimit.sol\":1087:1112  workflowStatus == _status */\n      0x05\n      dup2\n      gt\n      iszero\n      tag_231\n      jumpi\n      tag_232\n      tag_75\n      jump\t// in\n    tag_232:\n    tag_231:\n        /* \"contracts/Security/33_gasLimit.sol\":1087:1101  workflowStatus */\n      0x00\n      0x14\n      swap1\n      sload\n      swap1\n      0x0100\n      exp\n      swap1\n      div\n      0xff\n      and\n        /* \"contracts/Security/33_gasLimit.sol\":1087:1112  workflowStatus == _status */\n      0x05\n      dup2\n      gt\n      iszero\n      tag_233\n      jumpi\n      tag_234\n      tag_75\n      jump\t// in\n    tag_234:\n    tag_233:\n      eq\n        /* \"contracts/Security/33_gasLimit.sol\":1066:1182  require(... */\n      tag_235\n      jumpi\n      mload(0x40)\n      0x08c379a000000000000000000000000000000000000000000000000000000000\n      dup2\n      mstore\n      0x04\n      add\n      tag_236\n      swap1\n      tag_80\n      jump\t// in\n    tag_236:\n      mload(0x40)\n      dup1\n      swap2\n      sub\n      swap1\n      revert\n    tag_235:\n        /* \"@openzeppelin/contracts/access/Ownable.sol\":1531:1544  _checkOwner() */\n      tag_238\n        /* \"@openzeppelin/contracts/access/Ownable.sol\":1531:1542  _checkOwner */\n      tag_113\n        /* \"@openzeppelin/contracts/access/Ownable.sol\":1531:1544  _checkOwner() */\n      jump\t// in\n    tag_238:\n        /* \"contracts/Security/33_gasLimit.sol\":2879:2914  WorkflowStatus.VotingSessionStarted */\n      0x03\n        /* \"contracts/Security/33_gasLimit.sol\":2862:2876  workflowStatus */\n      0x00\n      0x14\n        /* \"contracts/Security/33_gasLimit.sol\":2862:2914  workflowStatus = WorkflowStatus.VotingSessionStarted */\n      0x0100\n      exp\n      dup2\n      sload\n      dup2\n      0xff\n      mul\n      not\n      and\n      swap1\n      dup4\n      0x05\n      dup2\n      gt\n      iszero\n      tag_240\n      jumpi\n      tag_241\n      tag_75\n      jump\t// in\n    tag_241:\n    tag_240:\n      mul\n      or\n      swap1\n      sstore\n      pop\n        /* \"contracts/Security/33_gasLimit.sol\":2929:3063  WorkflowStatusChange(... */\n      0x0a97a4ee45751e2abf3e4fc8946939630b11b371ea8ae39ccdc3056e98f5cc3f\n        /* \"contracts/Security/33_gasLimit.sol\":2963:3004  WorkflowStatus.ProposalsRegistrationEnded */\n      0x02\n        /* \"contracts/Security/33_gasLimit.sol\":3018:3053  WorkflowStatus.VotingSessionStarted */\n      0x03\n        /* \"contracts/Security/33_gasLimit.sol\":2929:3063  WorkflowStatusChange(... */\n      mload(0x40)\n      tag_242\n      swap3\n      swap2\n      swap1\n      tag_118\n      jump\t// in\n    tag_242:\n      mload(0x40)\n      dup1\n      swap2\n      sub\n      swap1\n      log1\n        /* \"contracts/Security/33_gasLimit.sol\":2723:3070  function startVotingSession()... */\n      pop\n      jump\t// out\n        /* \"@openzeppelin/contracts/access/Ownable.sol\":2543:2758  function transferOwnership(address newOwner) public virtual onlyOwner {... */\n    tag_67:\n        /* \"@openzeppelin/contracts/access/Ownable.sol\":1531:1544  _checkOwner() */\n      tag_244\n        /* \"@openzeppelin/contracts/access/Ownable.sol\":1531:1542  _checkOwner */\n      tag_113\n        /* \"@openzeppelin/contracts/access/Ownable.sol\":1531:1544  _checkOwner() */\n      jump\t// in\n    tag_244:\n        /* \"@openzeppelin/contracts/access/Ownable.sol\":2647:2648  0 */\n      0x00\n        /* \"@openzeppelin/contracts/access/Ownable.sol\":2627:2649  newOwner == address(0) */\n      0xffffffffffffffffffffffffffffffffffffffff\n      and\n        /* \"@openzeppelin/contracts/access/Ownable.sol\":2627:2635  newOwner */\n      dup2\n        /* \"@openzeppelin/contracts/access/Ownable.sol\":2627:2649  newOwner == address(0) */\n      0xffffffffffffffffffffffffffffffffffffffff\n      and\n      sub\n        /* \"@openzeppelin/contracts/access/Ownable.sol\":2623:2714  if (newOwner == address(0)) {... */\n      tag_246\n      jumpi\n        /* \"@openzeppelin/contracts/access/Ownable.sol\":2700:2701  0 */\n      0x00\n        /* \"@openzeppelin/contracts/access/Ownable.sol\":2672:2703  OwnableInvalidOwner(address(0)) */\n      mload(0x40)\n      0x1e4fbdf700000000000000000000000000000000000000000000000000000000\n      dup2\n      mstore\n      0x04\n      add\n      tag_247\n      swap2\n      swap1\n      tag_40\n      jump\t// in\n    tag_247:\n      mload(0x40)\n      dup1\n      swap2\n      sub\n      swap1\n      revert\n        /* \"@openzeppelin/contracts/access/Ownable.sol\":2623:2714  if (newOwner == address(0)) {... */\n    tag_246:\n        /* \"@openzeppelin/contracts/access/Ownable.sol\":2723:2751  _transferOwnership(newOwner) */\n      tag_248\n        /* \"@openzeppelin/contracts/access/Ownable.sol\":2742:2750  newOwner */\n      dup2\n        /* \"@openzeppelin/contracts/access/Ownable.sol\":2723:2741  _transferOwnership */\n      tag_123\n        /* \"@openzeppelin/contracts/access/Ownable.sol\":2723:2751  _transferOwnership(newOwner) */\n      jump\t// in\n    tag_248:\n        /* \"@openzeppelin/contracts/access/Ownable.sol\":2543:2758  function transferOwnership(address newOwner) public virtual onlyOwner {... */\n      pop\n      jump\t// out\n        /* \"contracts/Security/33_attackGasLimit.sol\":130:150  Voting public voting */\n    tag_69:\n      0x04\n      0x00\n      swap1\n      sload\n      swap1\n      0x0100\n      exp\n      swap1\n      div\n      0xffffffffffffffffffffffffffffffffffffffff\n      and\n      dup2\n      jump\t// out\n        /* \"@openzeppelin/contracts/access/Ownable.sol\":1796:1958  function _checkOwner() internal view virtual {... */\n    tag_113:\n        /* \"@openzeppelin/contracts/access/Ownable.sol\":1866:1878  _msgSender() */\n      tag_250\n        /* \"@openzeppelin/contracts/access/Ownable.sol\":1866:1876  _msgSender */\n      tag_251\n        /* \"@openzeppelin/contracts/access/Ownable.sol\":1866:1878  _msgSender() */\n      jump\t// in\n    tag_250:\n        /* \"@openzeppelin/contracts/access/Ownable.sol\":1855:1878  owner() != _msgSender() */\n      0xffffffffffffffffffffffffffffffffffffffff\n      and\n        /* \"@openzeppelin/contracts/access/Ownable.sol\":1855:1862  owner() */\n      tag_252\n        /* \"@openzeppelin/contracts/access/Ownable.sol\":1855:1860  owner */\n      tag_38\n        /* \"@openzeppelin/contracts/access/Ownable.sol\":1855:1862  owner() */\n      jump\t// in\n    tag_252:\n        /* \"@openzeppelin/contracts/access/Ownable.sol\":1855:1878  owner() != _msgSender() */\n      0xffffffffffffffffffffffffffffffffffffffff\n      and\n      eq\n        /* \"@openzeppelin/contracts/access/Ownable.sol\":1851:1952  if (owner() != _msgSender()) {... */\n      tag_253\n      jumpi\n        /* \"@openzeppelin/contracts/access/Ownable.sol\":1928:1940  _msgSender() */\n      tag_254\n        /* \"@openzeppelin/contracts/access/Ownable.sol\":1928:1938  _msgSender */\n      tag_251\n        /* \"@openzeppelin/contracts/access/Ownable.sol\":1928:1940  _msgSender() */\n      jump\t// in\n    tag_254:\n        /* \"@openzeppelin/contracts/access/Ownable.sol\":1901:1941  OwnableUnauthorizedAccount(_msgSender()) */\n      mload(0x40)\n      0x118cdaa700000000000000000000000000000000000000000000000000000000\n      dup2\n      mstore\n      0x04\n      add\n      tag_255\n      swap2\n      swap1\n      tag_40\n      jump\t// in\n    tag_255:\n      mload(0x40)\n      dup1\n      swap2\n      sub\n      swap1\n      revert\n        /* \"@openzeppelin/contracts/access/Ownable.sol\":1851:1952  if (owner() != _msgSender()) {... */\n    tag_253:\n        /* \"@openzeppelin/contracts/access/Ownable.sol\":1796:1958  function _checkOwner() internal view virtual {... */\n      jump\t// out\n        /* \"@openzeppelin/contracts/access/Ownable.sol\":2912:3099  function _transferOwnership(address newOwner) internal virtual {... */\n    tag_123:\n        /* \"@openzeppelin/contracts/access/Ownable.sol\":2985:3001  address oldOwner */\n      0x00\n        /* \"@openzeppelin/contracts/access/Ownable.sol\":3004:3010  _owner */\n      0x00\n      0x00\n      swap1\n      sload\n      swap1\n      0x0100\n      exp\n      swap1\n      div\n      0xffffffffffffffffffffffffffffffffffffffff\n      and\n        /* \"@openzeppelin/contracts/access/Ownable.sol\":2985:3010  address oldOwner = _owner */\n      swap1\n      pop\n        /* \"@openzeppelin/contracts/access/Ownable.sol\":3029:3037  newOwner */\n      dup2\n        /* \"@openzeppelin/contracts/access/Ownable.sol\":3020:3026  _owner */\n      0x00\n      0x00\n        /* \"@openzeppelin/contracts/access/Ownable.sol\":3020:3037  _owner = newOwner */\n      0x0100\n      exp\n      dup2\n      sload\n      dup2\n      0xffffffffffffffffffffffffffffffffffffffff\n      mul\n      not\n      and\n      swap1\n      dup4\n      0xffffffffffffffffffffffffffffffffffffffff\n      and\n      mul\n      or\n      swap1\n      sstore\n      pop\n        /* \"@openzeppelin/contracts/access/Ownable.sol\":3083:3091  newOwner */\n      dup2\n        /* \"@openzeppelin/contracts/access/Ownable.sol\":3052:3092  OwnershipTransferred(oldOwner, newOwner) */\n      0xffffffffffffffffffffffffffffffffffffffff\n      and\n        /* \"@openzeppelin/contracts/access/Ownable.sol\":3073:3081  oldOwner */\n      dup2\n        /* \"@openzeppelin/contracts/access/Ownable.sol\":3052:3092  OwnershipTransferred(oldOwner, newOwner) */\n      0xffffffffffffffffffffffffffffffffffffffff\n      and\n      0x8be0079c531659141344cd1fd0a4f28419497f9722a3daafe3b4186f6b6457e0\n      mload(0x40)\n      mload(0x40)\n      dup1\n      swap2\n      sub\n      swap1\n      log3\n        /* \"@openzeppelin/contracts/access/Ownable.sol\":2975:3099  {... */\n      pop\n        /* \"@openzeppelin/contracts/access/Ownable.sol\":2912:3099  function _transferOwnership(address newOwner) internal virtual {... */\n      pop\n      jump\t// out\n        /* \"@openzeppelin/contracts/utils/Context.sol\":656:752  function _msgSender() internal view virtual returns (address) {... */\n    tag_251:\n        /* \"@openzeppelin/contracts/utils/Context.sol\":709:716  address */\n      0x00\n        /* \"@openzeppelin/contracts/utils/Context.sol\":735:745  msg.sender */\n      caller\n        /* \"@openzeppelin/contracts/utils/Context.sol\":728:745  return msg.sender */\n      swap1\n      pop\n        /* \"@openzeppelin/contracts/utils/Context.sol\":656:752  function _msgSender() internal view virtual returns (address) {... */\n      swap1\n      jump\t// out\n    tag_135:\n      mload(0x40)\n      dup1\n      0x40\n      add\n      0x40\n      mstore\n      dup1\n      0x60\n      dup2\n      mstore\n      0x20\n      add\n      0x00\n      dup2\n      mstore\n      pop\n      swap1\n      jump\t// out\n        /* \"#utility.yul\":7:82   */\n    tag_258:\n        /* \"#utility.yul\":40:46   */\n      0x00\n        /* \"#utility.yul\":73:75   */\n      0x40\n        /* \"#utility.yul\":67:76   */\n      mload\n        /* \"#utility.yul\":57:76   */\n      swap1\n      pop\n        /* \"#utility.yul\":7:82   */\n      swap1\n      jump\t// out\n        /* \"#utility.yul\":88:205   */\n    tag_259:\n        /* \"#utility.yul\":197:198   */\n      0x00\n        /* \"#utility.yul\":194:195   */\n      0x00\n        /* \"#utility.yul\":187:199   */\n      revert\n        /* \"#utility.yul\":211:328   */\n    tag_260:\n        /* \"#utility.yul\":320:321   */\n      0x00\n        /* \"#utility.yul\":317:318   */\n      0x00\n        /* \"#utility.yul\":310:322   */\n      revert\n        /* \"#utility.yul\":334:411   */\n    tag_261:\n        /* \"#utility.yul\":371:378   */\n      0x00\n        /* \"#utility.yul\":400:405   */\n      dup2\n        /* \"#utility.yul\":389:405   */\n      swap1\n      pop\n        /* \"#utility.yul\":334:411   */\n      swap2\n      swap1\n      pop\n      jump\t// out\n        /* \"#utility.yul\":417:539   */\n    tag_262:\n        /* \"#utility.yul\":490:514   */\n      tag_331\n        /* \"#utility.yul\":508:513   */\n      dup2\n        /* \"#utility.yul\":490:514   */\n      tag_261\n      jump\t// in\n    tag_331:\n        /* \"#utility.yul\":483:488   */\n      dup2\n        /* \"#utility.yul\":480:515   */\n      eq\n        /* \"#utility.yul\":470:533   */\n      tag_332\n      jumpi\n        /* \"#utility.yul\":529:530   */\n      0x00\n        /* \"#utility.yul\":526:527   */\n      0x00\n        /* \"#utility.yul\":519:531   */\n      revert\n        /* \"#utility.yul\":470:533   */\n    tag_332:\n        /* \"#utility.yul\":417:539   */\n      pop\n      jump\t// out\n        /* \"#utility.yul\":545:684   */\n    tag_263:\n        /* \"#utility.yul\":591:596   */\n      0x00\n        /* \"#utility.yul\":629:635   */\n      dup2\n        /* \"#utility.yul\":616:636   */\n      calldataload\n        /* \"#utility.yul\":607:636   */\n      swap1\n      pop\n        /* \"#utility.yul\":645:678   */\n      tag_334\n        /* \"#utility.yul\":672:677   */\n      dup2\n        /* \"#utility.yul\":645:678   */\n      tag_262\n      jump\t// in\n    tag_334:\n        /* \"#utility.yul\":545:684   */\n      swap3\n      swap2\n      pop\n      pop\n      jump\t// out\n        /* \"#utility.yul\":690:1019   */\n    tag_24:\n        /* \"#utility.yul\":749:755   */\n      0x00\n        /* \"#utility.yul\":798:800   */\n      0x20\n        /* \"#utility.yul\":786:795   */\n      dup3\n        /* \"#utility.yul\":777:784   */\n      dup5\n        /* \"#utility.yul\":773:796   */\n      sub\n        /* \"#utility.yul\":769:801   */\n      slt\n        /* \"#utility.yul\":766:885   */\n      iszero\n      tag_336\n      jumpi\n        /* \"#utility.yul\":804:883   */\n      tag_337\n      tag_259\n      jump\t// in\n    tag_337:\n        /* \"#utility.yul\":766:885   */\n    tag_336:\n        /* \"#utility.yul\":924:925   */\n      0x00\n        /* \"#utility.yul\":949:1002   */\n      tag_338\n        /* \"#utility.yul\":994:1001   */\n      dup5\n        /* \"#utility.yul\":985:991   */\n      dup3\n        /* \"#utility.yul\":974:983   */\n      dup6\n        /* \"#utility.yul\":970:992   */\n      add\n        /* \"#utility.yul\":949:1002   */\n      tag_263\n      jump\t// in\n    tag_338:\n        /* \"#utility.yul\":939:1002   */\n      swap2\n      pop\n        /* \"#utility.yul\":895:1012   */\n      pop\n        /* \"#utility.yul\":690:1019   */\n      swap3\n      swap2\n      pop\n      pop\n      jump\t// out\n        /* \"#utility.yul\":1025:1124   */\n    tag_264:\n        /* \"#utility.yul\":1077:1083   */\n      0x00\n        /* \"#utility.yul\":1111:1116   */\n      dup2\n        /* \"#utility.yul\":1105:1117   */\n      mload\n        /* \"#utility.yul\":1095:1117   */\n      swap1\n      pop\n        /* \"#utility.yul\":1025:1124   */\n      swap2\n      swap1\n      pop\n      jump\t// out\n        /* \"#utility.yul\":1130:1299   */\n    tag_265:\n        /* \"#utility.yul\":1214:1225   */\n      0x00\n        /* \"#utility.yul\":1248:1254   */\n      dup3\n        /* \"#utility.yul\":1243:1246   */\n      dup3\n        /* \"#utility.yul\":1236:1255   */\n      mstore\n        /* \"#utility.yul\":1288:1292   */\n      0x20\n        /* \"#utility.yul\":1283:1286   */\n      dup3\n        /* \"#utility.yul\":1279:1293   */\n      add\n        /* \"#utility.yul\":1264:1293   */\n      swap1\n      pop\n        /* \"#utility.yul\":1130:1299   */\n      swap3\n      swap2\n      pop\n      pop\n      jump\t// out\n        /* \"#utility.yul\":1305:1444   */\n    tag_266:\n        /* \"#utility.yul\":1394:1400   */\n      dup3\n        /* \"#utility.yul\":1389:1392   */\n      dup2\n        /* \"#utility.yul\":1384:1387   */\n      dup4\n        /* \"#utility.yul\":1378:1401   */\n      mcopy\n        /* \"#utility.yul\":1435:1436   */\n      0x00\n        /* \"#utility.yul\":1426:1432   */\n      dup4\n        /* \"#utility.yul\":1421:1424   */\n      dup4\n        /* \"#utility.yul\":1417:1433   */\n      add\n        /* \"#utility.yul\":1410:1437   */\n      mstore\n        /* \"#utility.yul\":1305:1444   */\n      pop\n      pop\n      pop\n      jump\t// out\n        /* \"#utility.yul\":1450:1552   */\n    tag_267:\n        /* \"#utility.yul\":1491:1497   */\n      0x00\n        /* \"#utility.yul\":1542:1544   */\n      0x1f\n        /* \"#utility.yul\":1538:1545   */\n      not\n        /* \"#utility.yul\":1533:1535   */\n      0x1f\n        /* \"#utility.yul\":1526:1531   */\n      dup4\n        /* \"#utility.yul\":1522:1536   */\n      add\n        /* \"#utility.yul\":1518:1546   */\n      and\n        /* \"#utility.yul\":1508:1546   */\n      swap1\n      pop\n        /* \"#utility.yul\":1450:1552   */\n      swap2\n      swap1\n      pop\n      jump\t// out\n        /* \"#utility.yul\":1558:1935   */\n    tag_268:\n        /* \"#utility.yul\":1646:1649   */\n      0x00\n        /* \"#utility.yul\":1674:1713   */\n      tag_344\n        /* \"#utility.yul\":1707:1712   */\n      dup3\n        /* \"#utility.yul\":1674:1713   */\n      tag_264\n      jump\t// in\n    tag_344:\n        /* \"#utility.yul\":1729:1800   */\n      tag_345\n        /* \"#utility.yul\":1793:1799   */\n      dup2\n        /* \"#utility.yul\":1788:1791   */\n      dup6\n        /* \"#utility.yul\":1729:1800   */\n      tag_265\n      jump\t// in\n    tag_345:\n        /* \"#utility.yul\":1722:1800   */\n      swap4\n      pop\n        /* \"#utility.yul\":1809:1874   */\n      tag_346\n        /* \"#utility.yul\":1867:1873   */\n      dup2\n        /* \"#utility.yul\":1862:1865   */\n      dup6\n        /* \"#utility.yul\":1855:1859   */\n      0x20\n        /* \"#utility.yul\":1848:1853   */\n      dup7\n        /* \"#utility.yul\":1844:1860   */\n      add\n        /* \"#utility.yul\":1809:1874   */\n      tag_266\n      jump\t// in\n    tag_346:\n        /* \"#utility.yul\":1899:1928   */\n      tag_347\n        /* \"#utility.yul\":1921:1927   */\n      dup2\n        /* \"#utility.yul\":1899:1928   */\n      tag_267\n      jump\t// in\n    tag_347:\n        /* \"#utility.yul\":1894:1897   */\n      dup5\n        /* \"#utility.yul\":1890:1929   */\n      add\n        /* \"#utility.yul\":1883:1929   */\n      swap2\n      pop\n        /* \"#utility.yul\":1650:1935   */\n      pop\n        /* \"#utility.yul\":1558:1935   */\n      swap3\n      swap2\n      pop\n      pop\n      jump\t// out\n        /* \"#utility.yul\":1941:2059   */\n    tag_269:\n        /* \"#utility.yul\":2028:2052   */\n      tag_349\n        /* \"#utility.yul\":2046:2051   */\n      dup2\n        /* \"#utility.yul\":2028:2052   */\n      tag_261\n      jump\t// in\n    tag_349:\n        /* \"#utility.yul\":2023:2026   */\n      dup3\n        /* \"#utility.yul\":2016:2053   */\n      mstore\n        /* \"#utility.yul\":1941:2059   */\n      pop\n      pop\n      jump\t// out\n        /* \"#utility.yul\":2065:2488   */\n    tag_30:\n        /* \"#utility.yul\":2206:2210   */\n      0x00\n        /* \"#utility.yul\":2244:2246   */\n      0x40\n        /* \"#utility.yul\":2233:2242   */\n      dup3\n        /* \"#utility.yul\":2229:2247   */\n      add\n        /* \"#utility.yul\":2221:2247   */\n      swap1\n      pop\n        /* \"#utility.yul\":2293:2302   */\n      dup2\n        /* \"#utility.yul\":2287:2291   */\n      dup2\n        /* \"#utility.yul\":2283:2303   */\n      sub\n        /* \"#utility.yul\":2279:2280   */\n      0x00\n        /* \"#utility.yul\":2268:2277   */\n      dup4\n        /* \"#utility.yul\":2264:2281   */\n      add\n        /* \"#utility.yul\":2257:2304   */\n      mstore\n        /* \"#utility.yul\":2321:2399   */\n      tag_351\n        /* \"#utility.yul\":2394:2398   */\n      dup2\n        /* \"#utility.yul\":2385:2391   */\n      dup6\n        /* \"#utility.yul\":2321:2399   */\n      tag_268\n      jump\t// in\n    tag_351:\n        /* \"#utility.yul\":2313:2399   */\n      swap1\n      pop\n        /* \"#utility.yul\":2409:2481   */\n      tag_352\n        /* \"#utility.yul\":2477:2479   */\n      0x20\n        /* \"#utility.yul\":2466:2475   */\n      dup4\n        /* \"#utility.yul\":2462:2480   */\n      add\n        /* \"#utility.yul\":2453:2459   */\n      dup5\n        /* \"#utility.yul\":2409:2481   */\n      tag_269\n      jump\t// in\n    tag_352:\n        /* \"#utility.yul\":2065:2488   */\n      swap4\n      swap3\n      pop\n      pop\n      pop\n      jump\t// out\n        /* \"#utility.yul\":2494:2620   */\n    tag_270:\n        /* \"#utility.yul\":2531:2538   */\n      0x00\n        /* \"#utility.yul\":2571:2613   */\n      0xffffffffffffffffffffffffffffffffffffffff\n        /* \"#utility.yul\":2564:2569   */\n      dup3\n        /* \"#utility.yul\":2560:2614   */\n      and\n        /* \"#utility.yul\":2549:2614   */\n      swap1\n      pop\n        /* \"#utility.yul\":2494:2620   */\n      swap2\n      swap1\n      pop\n      jump\t// out\n        /* \"#utility.yul\":2626:2722   */\n    tag_271:\n        /* \"#utility.yul\":2663:2670   */\n      0x00\n        /* \"#utility.yul\":2692:2716   */\n      tag_355\n        /* \"#utility.yul\":2710:2715   */\n      dup3\n        /* \"#utility.yul\":2692:2716   */\n      tag_270\n      jump\t// in\n    tag_355:\n        /* \"#utility.yul\":2681:2716   */\n      swap1\n      pop\n        /* \"#utility.yul\":2626:2722   */\n      swap2\n      swap1\n      pop\n      jump\t// out\n        /* \"#utility.yul\":2728:2846   */\n    tag_272:\n        /* \"#utility.yul\":2815:2839   */\n      tag_357\n        /* \"#utility.yul\":2833:2838   */\n      dup2\n        /* \"#utility.yul\":2815:2839   */\n      tag_271\n      jump\t// in\n    tag_357:\n        /* \"#utility.yul\":2810:2813   */\n      dup3\n        /* \"#utility.yul\":2803:2840   */\n      mstore\n        /* \"#utility.yul\":2728:2846   */\n      pop\n      pop\n      jump\t// out\n        /* \"#utility.yul\":2852:3074   */\n    tag_40:\n        /* \"#utility.yul\":2945:2949   */\n      0x00\n        /* \"#utility.yul\":2983:2985   */\n      0x20\n        /* \"#utility.yul\":2972:2981   */\n      dup3\n        /* \"#utility.yul\":2968:2986   */\n      add\n        /* \"#utility.yul\":2960:2986   */\n      swap1\n      pop\n        /* \"#utility.yul\":2996:3067   */\n      tag_359\n        /* \"#utility.yul\":3064:3065   */\n      0x00\n        /* \"#utility.yul\":3053:3062   */\n      dup4\n        /* \"#utility.yul\":3049:3066   */\n      add\n        /* \"#utility.yul\":3040:3046   */\n      dup5\n        /* \"#utility.yul\":2996:3067   */\n      tag_272\n      jump\t// in\n    tag_359:\n        /* \"#utility.yul\":2852:3074   */\n      swap3\n      swap2\n      pop\n      pop\n      jump\t// out\n        /* \"#utility.yul\":3080:3239   */\n    tag_273:\n        /* \"#utility.yul\":3154:3165   */\n      0x00\n        /* \"#utility.yul\":3188:3194   */\n      dup3\n        /* \"#utility.yul\":3183:3186   */\n      dup3\n        /* \"#utility.yul\":3176:3195   */\n      mstore\n        /* \"#utility.yul\":3228:3232   */\n      0x20\n        /* \"#utility.yul\":3223:3226   */\n      dup3\n        /* \"#utility.yul\":3219:3233   */\n      add\n        /* \"#utility.yul\":3204:3233   */\n      swap1\n      pop\n        /* \"#utility.yul\":3080:3239   */\n      swap3\n      swap2\n      pop\n      pop\n      jump\t// out\n        /* \"#utility.yul\":3245:3602   */\n    tag_274:\n        /* \"#utility.yul\":3323:3326   */\n      0x00\n        /* \"#utility.yul\":3351:3390   */\n      tag_362\n        /* \"#utility.yul\":3384:3389   */\n      dup3\n        /* \"#utility.yul\":3351:3390   */\n      tag_264\n      jump\t// in\n    tag_362:\n        /* \"#utility.yul\":3406:3467   */\n      tag_363\n        /* \"#utility.yul\":3460:3466   */\n      dup2\n        /* \"#utility.yul\":3455:3458   */\n      dup6\n        /* \"#utility.yul\":3406:3467   */\n      tag_273\n      jump\t// in\n    tag_363:\n        /* \"#utility.yul\":3399:3467   */\n      swap4\n      pop\n        /* \"#utility.yul\":3476:3541   */\n      tag_364\n        /* \"#utility.yul\":3534:3540   */\n      dup2\n        /* \"#utility.yul\":3529:3532   */\n      dup6\n        /* \"#utility.yul\":3522:3526   */\n      0x20\n        /* \"#utility.yul\":3515:3520   */\n      dup7\n        /* \"#utility.yul\":3511:3527   */\n      add\n        /* \"#utility.yul\":3476:3541   */\n      tag_266\n      jump\t// in\n    tag_364:\n        /* \"#utility.yul\":3566:3595   */\n      tag_365\n        /* \"#utility.yul\":3588:3594   */\n      dup2\n        /* \"#utility.yul\":3566:3595   */\n      tag_267\n      jump\t// in\n    tag_365:\n        /* \"#utility.yul\":3561:3564   */\n      dup5\n        /* \"#utility.yul\":3557:3596   */\n      add\n        /* \"#utility.yul\":3550:3596   */\n      swap2\n      pop\n        /* \"#utility.yul\":3327:3602   */\n      pop\n        /* \"#utility.yul\":3245:3602   */\n      swap3\n      swap2\n      pop\n      pop\n      jump\t// out\n        /* \"#utility.yul\":3608:3716   */\n    tag_275:\n        /* \"#utility.yul\":3685:3709   */\n      tag_367\n        /* \"#utility.yul\":3703:3708   */\n      dup2\n        /* \"#utility.yul\":3685:3709   */\n      tag_261\n      jump\t// in\n    tag_367:\n        /* \"#utility.yul\":3680:3683   */\n      dup3\n        /* \"#utility.yul\":3673:3710   */\n      mstore\n        /* \"#utility.yul\":3608:3716   */\n      pop\n      pop\n      jump\t// out\n        /* \"#utility.yul\":3778:4396   */\n    tag_276:\n        /* \"#utility.yul\":3897:3900   */\n      0x00\n        /* \"#utility.yul\":3933:3937   */\n      0x40\n        /* \"#utility.yul\":3928:3931   */\n      dup4\n        /* \"#utility.yul\":3924:3938   */\n      add\n        /* \"#utility.yul\":4027:4031   */\n      0x00\n        /* \"#utility.yul\":4020:4025   */\n      dup4\n        /* \"#utility.yul\":4016:4032   */\n      add\n        /* \"#utility.yul\":4010:4033   */\n      mload\n        /* \"#utility.yul\":4080:4083   */\n      dup5\n        /* \"#utility.yul\":4074:4078   */\n      dup3\n        /* \"#utility.yul\":4070:4084   */\n      sub\n        /* \"#utility.yul\":4063:4067   */\n      0x00\n        /* \"#utility.yul\":4058:4061   */\n      dup7\n        /* \"#utility.yul\":4054:4068   */\n      add\n        /* \"#utility.yul\":4047:4085   */\n      mstore\n        /* \"#utility.yul\":4106:4179   */\n      tag_369\n        /* \"#utility.yul\":4174:4178   */\n      dup3\n        /* \"#utility.yul\":4160:4172   */\n      dup3\n        /* \"#utility.yul\":4106:4179   */\n      tag_274\n      jump\t// in\n    tag_369:\n        /* \"#utility.yul\":4098:4179   */\n      swap2\n      pop\n        /* \"#utility.yul\":3948:4190   */\n      pop\n        /* \"#utility.yul\":4277:4281   */\n      0x20\n        /* \"#utility.yul\":4270:4275   */\n      dup4\n        /* \"#utility.yul\":4266:4282   */\n      add\n        /* \"#utility.yul\":4260:4283   */\n      mload\n        /* \"#utility.yul\":4296:4359   */\n      tag_370\n        /* \"#utility.yul\":4353:4357   */\n      0x20\n        /* \"#utility.yul\":4348:4351   */\n      dup7\n        /* \"#utility.yul\":4344:4358   */\n      add\n        /* \"#utility.yul\":4330:4342   */\n      dup3\n        /* \"#utility.yul\":4296:4359   */\n      tag_275\n      jump\t// in\n    tag_370:\n        /* \"#utility.yul\":4200:4369   */\n      pop\n        /* \"#utility.yul\":4386:4390   */\n      dup1\n        /* \"#utility.yul\":4379:4390   */\n      swap2\n      pop\n        /* \"#utility.yul\":3902:4396   */\n      pop\n        /* \"#utility.yul\":3778:4396   */\n      swap3\n      swap2\n      pop\n      pop\n      jump\t// out\n        /* \"#utility.yul\":4402:4775   */\n    tag_44:\n        /* \"#utility.yul\":4545:4549   */\n      0x00\n        /* \"#utility.yul\":4583:4585   */\n      0x20\n        /* \"#utility.yul\":4572:4581   */\n      dup3\n        /* \"#utility.yul\":4568:4586   */\n      add\n        /* \"#utility.yul\":4560:4586   */\n      swap1\n      pop\n        /* \"#utility.yul\":4632:4641   */\n      dup2\n        /* \"#utility.yul\":4626:4630   */\n      dup2\n        /* \"#utility.yul\":4622:4642   */\n      sub\n        /* \"#utility.yul\":4618:4619   */\n      0x00\n        /* \"#utility.yul\":4607:4616   */\n      dup4\n        /* \"#utility.yul\":4603:4620   */\n      add\n        /* \"#utility.yul\":4596:4643   */\n      mstore\n        /* \"#utility.yul\":4660:4768   */\n      tag_372\n        /* \"#utility.yul\":4763:4767   */\n      dup2\n        /* \"#utility.yul\":4754:4760   */\n      dup5\n        /* \"#utility.yul\":4660:4768   */\n      tag_276\n      jump\t// in\n    tag_372:\n        /* \"#utility.yul\":4652:4768   */\n      swap1\n      pop\n        /* \"#utility.yul\":4402:4775   */\n      swap3\n      swap2\n      pop\n      pop\n      jump\t// out\n        /* \"#utility.yul\":4781:4961   */\n    tag_75:\n        /* \"#utility.yul\":4829:4906   */\n      0x4e487b7100000000000000000000000000000000000000000000000000000000\n        /* \"#utility.yul\":4826:4827   */\n      0x00\n        /* \"#utility.yul\":4819:4907   */\n      mstore\n        /* \"#utility.yul\":4926:4930   */\n      0x21\n        /* \"#utility.yul\":4923:4924   */\n      0x04\n        /* \"#utility.yul\":4916:4931   */\n      mstore\n        /* \"#utility.yul\":4950:4954   */\n      0x24\n        /* \"#utility.yul\":4947:4948   */\n      0x00\n        /* \"#utility.yul\":4940:4955   */\n      revert\n        /* \"#utility.yul\":4967:5090   */\n    tag_277:\n        /* \"#utility.yul\":5058:5059   */\n      0x06\n        /* \"#utility.yul\":5051:5056   */\n      dup2\n        /* \"#utility.yul\":5048:5060   */\n      lt\n        /* \"#utility.yul\":5038:5084   */\n      tag_375\n      jumpi\n        /* \"#utility.yul\":5064:5082   */\n      tag_376\n      tag_75\n      jump\t// in\n    tag_376:\n        /* \"#utility.yul\":5038:5084   */\n    tag_375:\n        /* \"#utility.yul\":4967:5090   */\n      pop\n      jump\t// out\n        /* \"#utility.yul\":5096:5243   */\n    tag_278:\n        /* \"#utility.yul\":5151:5158   */\n      0x00\n        /* \"#utility.yul\":5180:5185   */\n      dup2\n        /* \"#utility.yul\":5169:5185   */\n      swap1\n      pop\n        /* \"#utility.yul\":5186:5237   */\n      tag_378\n        /* \"#utility.yul\":5231:5236   */\n      dup3\n        /* \"#utility.yul\":5186:5237   */\n      tag_277\n      jump\t// in\n    tag_378:\n        /* \"#utility.yul\":5096:5243   */\n      swap2\n      swap1\n      pop\n      jump\t// out\n        /* \"#utility.yul\":5249:5396   */\n    tag_279:\n        /* \"#utility.yul\":5315:5324   */\n      0x00\n        /* \"#utility.yul\":5348:5390   */\n      tag_380\n        /* \"#utility.yul\":5384:5389   */\n      dup3\n        /* \"#utility.yul\":5348:5390   */\n      tag_278\n      jump\t// in\n    tag_380:\n        /* \"#utility.yul\":5335:5390   */\n      swap1\n      pop\n        /* \"#utility.yul\":5249:5396   */\n      swap2\n      swap1\n      pop\n      jump\t// out\n        /* \"#utility.yul\":5402:5565   */\n    tag_280:\n        /* \"#utility.yul\":5505:5558   */\n      tag_382\n        /* \"#utility.yul\":5552:5557   */\n      dup2\n        /* \"#utility.yul\":5505:5558   */\n      tag_279\n      jump\t// in\n    tag_382:\n        /* \"#utility.yul\":5500:5503   */\n      dup3\n        /* \"#utility.yul\":5493:5559   */\n      mstore\n        /* \"#utility.yul\":5402:5565   */\n      pop\n      pop\n      jump\t// out\n        /* \"#utility.yul\":5571:5825   */\n    tag_48:\n        /* \"#utility.yul\":5680:5684   */\n      0x00\n        /* \"#utility.yul\":5718:5720   */\n      0x20\n        /* \"#utility.yul\":5707:5716   */\n      dup3\n        /* \"#utility.yul\":5703:5721   */\n      add\n        /* \"#utility.yul\":5695:5721   */\n      swap1\n      pop\n        /* \"#utility.yul\":5731:5818   */\n      tag_384\n        /* \"#utility.yul\":5815:5816   */\n      0x00\n        /* \"#utility.yul\":5804:5813   */\n      dup4\n        /* \"#utility.yul\":5800:5817   */\n      add\n        /* \"#utility.yul\":5791:5797   */\n      dup5\n        /* \"#utility.yul\":5731:5818   */\n      tag_280\n      jump\t// in\n    tag_384:\n        /* \"#utility.yul\":5571:5825   */\n      swap3\n      swap2\n      pop\n      pop\n      jump\t// out\n        /* \"#utility.yul\":5831:5948   */\n    tag_281:\n        /* \"#utility.yul\":5940:5941   */\n      0x00\n        /* \"#utility.yul\":5937:5938   */\n      0x00\n        /* \"#utility.yul\":5930:5942   */\n      revert\n        /* \"#utility.yul\":5954:6071   */\n    tag_282:\n        /* \"#utility.yul\":6063:6064   */\n      0x00\n        /* \"#utility.yul\":6060:6061   */\n      0x00\n        /* \"#utility.yul\":6053:6065   */\n      revert\n        /* \"#utility.yul\":6077:6257   */\n    tag_283:\n        /* \"#utility.yul\":6125:6202   */\n      0x4e487b7100000000000000000000000000000000000000000000000000000000\n        /* \"#utility.yul\":6122:6123   */\n      0x00\n        /* \"#utility.yul\":6115:6203   */\n      mstore\n        /* \"#utility.yul\":6222:6226   */\n      0x41\n        /* \"#utility.yul\":6219:6220   */\n      0x04\n        /* \"#utility.yul\":6212:6227   */\n      mstore\n        /* \"#utility.yul\":6246:6250   */\n      0x24\n        /* \"#utility.yul\":6243:6244   */\n      0x00\n        /* \"#utility.yul\":6236:6251   */\n      revert\n        /* \"#utility.yul\":6263:6544   */\n    tag_284:\n        /* \"#utility.yul\":6346:6373   */\n      tag_389\n        /* \"#utility.yul\":6368:6372   */\n      dup3\n        /* \"#utility.yul\":6346:6373   */\n      tag_267\n      jump\t// in\n    tag_389:\n        /* \"#utility.yul\":6338:6344   */\n      dup2\n        /* \"#utility.yul\":6334:6374   */\n      add\n        /* \"#utility.yul\":6476:6482   */\n      dup2\n        /* \"#utility.yul\":6464:6474   */\n      dup2\n        /* \"#utility.yul\":6461:6483   */\n      lt\n        /* \"#utility.yul\":6440:6458   */\n      0xffffffffffffffff\n        /* \"#utility.yul\":6428:6438   */\n      dup3\n        /* \"#utility.yul\":6425:6459   */\n      gt\n        /* \"#utility.yul\":6422:6484   */\n      or\n        /* \"#utility.yul\":6419:6507   */\n      iszero\n      tag_390\n      jumpi\n        /* \"#utility.yul\":6487:6505   */\n      tag_391\n      tag_283\n      jump\t// in\n    tag_391:\n        /* \"#utility.yul\":6419:6507   */\n    tag_390:\n        /* \"#utility.yul\":6527:6537   */\n      dup1\n        /* \"#utility.yul\":6523:6525   */\n      0x40\n        /* \"#utility.yul\":6516:6538   */\n      mstore\n        /* \"#utility.yul\":6306:6544   */\n      pop\n        /* \"#utility.yul\":6263:6544   */\n      pop\n      pop\n      jump\t// out\n        /* \"#utility.yul\":6550:6679   */\n    tag_285:\n        /* \"#utility.yul\":6584:6590   */\n      0x00\n        /* \"#utility.yul\":6611:6631   */\n      tag_393\n      tag_258\n      jump\t// in\n    tag_393:\n        /* \"#utility.yul\":6601:6631   */\n      swap1\n      pop\n        /* \"#utility.yul\":6640:6673   */\n      tag_394\n        /* \"#utility.yul\":6668:6672   */\n      dup3\n        /* \"#utility.yul\":6660:6666   */\n      dup3\n        /* \"#utility.yul\":6640:6673   */\n      tag_284\n      jump\t// in\n    tag_394:\n        /* \"#utility.yul\":6550:6679   */\n      swap2\n      swap1\n      pop\n      jump\t// out\n        /* \"#utility.yul\":6685:6993   */\n    tag_286:\n        /* \"#utility.yul\":6747:6751   */\n      0x00\n        /* \"#utility.yul\":6837:6855   */\n      0xffffffffffffffff\n        /* \"#utility.yul\":6829:6835   */\n      dup3\n        /* \"#utility.yul\":6826:6856   */\n      gt\n        /* \"#utility.yul\":6823:6879   */\n      iszero\n      tag_396\n      jumpi\n        /* \"#utility.yul\":6859:6877   */\n      tag_397\n      tag_283\n      jump\t// in\n    tag_397:\n        /* \"#utility.yul\":6823:6879   */\n    tag_396:\n        /* \"#utility.yul\":6897:6926   */\n      tag_398\n        /* \"#utility.yul\":6919:6925   */\n      dup3\n        /* \"#utility.yul\":6897:6926   */\n      tag_267\n      jump\t// in\n    tag_398:\n        /* \"#utility.yul\":6889:6926   */\n      swap1\n      pop\n        /* \"#utility.yul\":6981:6985   */\n      0x20\n        /* \"#utility.yul\":6975:6979   */\n      dup2\n        /* \"#utility.yul\":6971:6986   */\n      add\n        /* \"#utility.yul\":6963:6986   */\n      swap1\n      pop\n        /* \"#utility.yul\":6685:6993   */\n      swap2\n      swap1\n      pop\n      jump\t// out\n        /* \"#utility.yul\":6999:7147   */\n    tag_287:\n        /* \"#utility.yul\":7097:7103   */\n      dup3\n        /* \"#utility.yul\":7092:7095   */\n      dup2\n        /* \"#utility.yul\":7087:7090   */\n      dup4\n        /* \"#utility.yul\":7074:7104   */\n      calldatacopy\n        /* \"#utility.yul\":7138:7139   */\n      0x00\n        /* \"#utility.yul\":7129:7135   */\n      dup4\n        /* \"#utility.yul\":7124:7127   */\n      dup4\n        /* \"#utility.yul\":7120:7136   */\n      add\n        /* \"#utility.yul\":7113:7140   */\n      mstore\n        /* \"#utility.yul\":6999:7147   */\n      pop\n      pop\n      pop\n      jump\t// out\n        /* \"#utility.yul\":7153:7578   */\n    tag_288:\n        /* \"#utility.yul\":7231:7236   */\n      0x00\n        /* \"#utility.yul\":7256:7322   */\n      tag_401\n        /* \"#utility.yul\":7272:7321   */\n      tag_402\n        /* \"#utility.yul\":7314:7320   */\n      dup5\n        /* \"#utility.yul\":7272:7321   */\n      tag_286\n      jump\t// in\n    tag_402:\n        /* \"#utility.yul\":7256:7322   */\n      tag_285\n      jump\t// in\n    tag_401:\n        /* \"#utility.yul\":7247:7322   */\n      swap1\n      pop\n        /* \"#utility.yul\":7345:7351   */\n      dup3\n        /* \"#utility.yul\":7338:7343   */\n      dup2\n        /* \"#utility.yul\":7331:7352   */\n      mstore\n        /* \"#utility.yul\":7383:7387   */\n      0x20\n        /* \"#utility.yul\":7376:7381   */\n      dup2\n        /* \"#utility.yul\":7372:7388   */\n      add\n        /* \"#utility.yul\":7421:7424   */\n      dup5\n        /* \"#utility.yul\":7412:7418   */\n      dup5\n        /* \"#utility.yul\":7407:7410   */\n      dup5\n        /* \"#utility.yul\":7403:7419   */\n      add\n        /* \"#utility.yul\":7400:7425   */\n      gt\n        /* \"#utility.yul\":7397:7509   */\n      iszero\n      tag_403\n      jumpi\n        /* \"#utility.yul\":7428:7507   */\n      tag_404\n      tag_282\n      jump\t// in\n    tag_404:\n        /* \"#utility.yul\":7397:7509   */\n    tag_403:\n        /* \"#utility.yul\":7518:7572   */\n      tag_405\n        /* \"#utility.yul\":7565:7571   */\n      dup5\n        /* \"#utility.yul\":7560:7563   */\n      dup3\n        /* \"#utility.yul\":7555:7558   */\n      dup6\n        /* \"#utility.yul\":7518:7572   */\n      tag_287\n      jump\t// in\n    tag_405:\n        /* \"#utility.yul\":7237:7578   */\n      pop\n        /* \"#utility.yul\":7153:7578   */\n      swap4\n      swap3\n      pop\n      pop\n      pop\n      jump\t// out\n        /* \"#utility.yul\":7598:7938   */\n    tag_289:\n        /* \"#utility.yul\":7654:7659   */\n      0x00\n        /* \"#utility.yul\":7703:7706   */\n      dup3\n        /* \"#utility.yul\":7696:7700   */\n      0x1f\n        /* \"#utility.yul\":7688:7694   */\n      dup4\n        /* \"#utility.yul\":7684:7701   */\n      add\n        /* \"#utility.yul\":7680:7707   */\n      slt\n        /* \"#utility.yul\":7670:7792   */\n      tag_407\n      jumpi\n        /* \"#utility.yul\":7711:7790   */\n      tag_408\n      tag_281\n      jump\t// in\n    tag_408:\n        /* \"#utility.yul\":7670:7792   */\n    tag_407:\n        /* \"#utility.yul\":7828:7834   */\n      dup2\n        /* \"#utility.yul\":7815:7835   */\n      calldataload\n        /* \"#utility.yul\":7853:7932   */\n      tag_409\n        /* \"#utility.yul\":7928:7931   */\n      dup5\n        /* \"#utility.yul\":7920:7926   */\n      dup3\n        /* \"#utility.yul\":7913:7917   */\n      0x20\n        /* \"#utility.yul\":7905:7911   */\n      dup7\n        /* \"#utility.yul\":7901:7918   */\n      add\n        /* \"#utility.yul\":7853:7932   */\n      tag_288\n      jump\t// in\n    tag_409:\n        /* \"#utility.yul\":7844:7932   */\n      swap2\n      pop\n        /* \"#utility.yul\":7660:7938   */\n      pop\n        /* \"#utility.yul\":7598:7938   */\n      swap3\n      swap2\n      pop\n      pop\n      jump\t// out\n        /* \"#utility.yul\":7944:8453   */\n    tag_57:\n        /* \"#utility.yul\":8013:8019   */\n      0x00\n        /* \"#utility.yul\":8062:8064   */\n      0x20\n        /* \"#utility.yul\":8050:8059   */\n      dup3\n        /* \"#utility.yul\":8041:8048   */\n      dup5\n        /* \"#utility.yul\":8037:8060   */\n      sub\n        /* \"#utility.yul\":8033:8065   */\n      slt\n        /* \"#utility.yul\":8030:8149   */\n      iszero\n      tag_411\n      jumpi\n        /* \"#utility.yul\":8068:8147   */\n      tag_412\n      tag_259\n      jump\t// in\n    tag_412:\n        /* \"#utility.yul\":8030:8149   */\n    tag_411:\n        /* \"#utility.yul\":8216:8217   */\n      0x00\n        /* \"#utility.yul\":8205:8214   */\n      dup3\n        /* \"#utility.yul\":8201:8218   */\n      add\n        /* \"#utility.yul\":8188:8219   */\n      calldataload\n        /* \"#utility.yul\":8246:8264   */\n      0xffffffffffffffff\n        /* \"#utility.yul\":8238:8244   */\n      dup2\n        /* \"#utility.yul\":8235:8265   */\n      gt\n        /* \"#utility.yul\":8232:8349   */\n      iszero\n      tag_413\n      jumpi\n        /* \"#utility.yul\":8268:8347   */\n      tag_414\n      tag_260\n      jump\t// in\n    tag_414:\n        /* \"#utility.yul\":8232:8349   */\n    tag_413:\n        /* \"#utility.yul\":8373:8436   */\n      tag_415\n        /* \"#utility.yul\":8428:8435   */\n      dup5\n        /* \"#utility.yul\":8419:8425   */\n      dup3\n        /* \"#utility.yul\":8408:8417   */\n      dup6\n        /* \"#utility.yul\":8404:8426   */\n      add\n        /* \"#utility.yul\":8373:8436   */\n      tag_289\n      jump\t// in\n    tag_415:\n        /* \"#utility.yul\":8363:8436   */\n      swap2\n      pop\n        /* \"#utility.yul\":8159:8446   */\n      pop\n        /* \"#utility.yul\":7944:8453   */\n      swap3\n      swap2\n      pop\n      pop\n      jump\t// out\n        /* \"#utility.yul\":8459:8581   */\n    tag_290:\n        /* \"#utility.yul\":8532:8556   */\n      tag_417\n        /* \"#utility.yul\":8550:8555   */\n      dup2\n        /* \"#utility.yul\":8532:8556   */\n      tag_271\n      jump\t// in\n    tag_417:\n        /* \"#utility.yul\":8525:8530   */\n      dup2\n        /* \"#utility.yul\":8522:8557   */\n      eq\n        /* \"#utility.yul\":8512:8575   */\n      tag_418\n      jumpi\n        /* \"#utility.yul\":8571:8572   */\n      0x00\n        /* \"#utility.yul\":8568:8569   */\n      0x00\n        /* \"#utility.yul\":8561:8573   */\n      revert\n        /* \"#utility.yul\":8512:8575   */\n    tag_418:\n        /* \"#utility.yul\":8459:8581   */\n      pop\n      jump\t// out\n        /* \"#utility.yul\":8587:8726   */\n    tag_291:\n        /* \"#utility.yul\":8633:8638   */\n      0x00\n        /* \"#utility.yul\":8671:8677   */\n      dup2\n        /* \"#utility.yul\":8658:8678   */\n      calldataload\n        /* \"#utility.yul\":8649:8678   */\n      swap1\n      pop\n        /* \"#utility.yul\":8687:8720   */\n      tag_420\n        /* \"#utility.yul\":8714:8719   */\n      dup2\n        /* \"#utility.yul\":8687:8720   */\n      tag_290\n      jump\t// in\n    tag_420:\n        /* \"#utility.yul\":8587:8726   */\n      swap3\n      swap2\n      pop\n      pop\n      jump\t// out\n        /* \"#utility.yul\":8732:9061   */\n    tag_61:\n        /* \"#utility.yul\":8791:8797   */\n      0x00\n        /* \"#utility.yul\":8840:8842   */\n      0x20\n        /* \"#utility.yul\":8828:8837   */\n      dup3\n        /* \"#utility.yul\":8819:8826   */\n      dup5\n        /* \"#utility.yul\":8815:8838   */\n      sub\n        /* \"#utility.yul\":8811:8843   */\n      slt\n        /* \"#utility.yul\":8808:8927   */\n      iszero\n      tag_422\n      jumpi\n        /* \"#utility.yul\":8846:8925   */\n      tag_423\n      tag_259\n      jump\t// in\n    tag_423:\n        /* \"#utility.yul\":8808:8927   */\n    tag_422:\n        /* \"#utility.yul\":8966:8967   */\n      0x00\n        /* \"#utility.yul\":8991:9044   */\n      tag_424\n        /* \"#utility.yul\":9036:9043   */\n      dup5\n        /* \"#utility.yul\":9027:9033   */\n      dup3\n        /* \"#utility.yul\":9016:9025   */\n      dup6\n        /* \"#utility.yul\":9012:9034   */\n      add\n        /* \"#utility.yul\":8991:9044   */\n      tag_291\n      jump\t// in\n    tag_424:\n        /* \"#utility.yul\":8981:9044   */\n      swap2\n      pop\n        /* \"#utility.yul\":8937:9054   */\n      pop\n        /* \"#utility.yul\":8732:9061   */\n      swap3\n      swap2\n      pop\n      pop\n      jump\t// out\n        /* \"#utility.yul\":9067:9127   */\n    tag_292:\n        /* \"#utility.yul\":9095:9098   */\n      0x00\n        /* \"#utility.yul\":9116:9121   */\n      dup2\n        /* \"#utility.yul\":9109:9121   */\n      swap1\n      pop\n        /* \"#utility.yul\":9067:9127   */\n      swap2\n      swap1\n      pop\n      jump\t// out\n        /* \"#utility.yul\":9133:9275   */\n    tag_293:\n        /* \"#utility.yul\":9183:9192   */\n      0x00\n        /* \"#utility.yul\":9216:9269   */\n      tag_427\n        /* \"#utility.yul\":9234:9268   */\n      tag_428\n        /* \"#utility.yul\":9243:9267   */\n      tag_429\n        /* \"#utility.yul\":9261:9266   */\n      dup5\n        /* \"#utility.yul\":9243:9267   */\n      tag_270\n      jump\t// in\n    tag_429:\n        /* \"#utility.yul\":9234:9268   */\n      tag_292\n      jump\t// in\n    tag_428:\n        /* \"#utility.yul\":9216:9269   */\n      tag_270\n      jump\t// in\n    tag_427:\n        /* \"#utility.yul\":9203:9269   */\n      swap1\n      pop\n        /* \"#utility.yul\":9133:9275   */\n      swap2\n      swap1\n      pop\n      jump\t// out\n        /* \"#utility.yul\":9281:9407   */\n    tag_294:\n        /* \"#utility.yul\":9331:9340   */\n      0x00\n        /* \"#utility.yul\":9364:9401   */\n      tag_431\n        /* \"#utility.yul\":9395:9400   */\n      dup3\n        /* \"#utility.yul\":9364:9401   */\n      tag_293\n      jump\t// in\n    tag_431:\n        /* \"#utility.yul\":9351:9401   */\n      swap1\n      pop\n        /* \"#utility.yul\":9281:9407   */\n      swap2\n      swap1\n      pop\n      jump\t// out\n        /* \"#utility.yul\":9413:9553   */\n    tag_295:\n        /* \"#utility.yul\":9477:9486   */\n      0x00\n        /* \"#utility.yul\":9510:9547   */\n      tag_433\n        /* \"#utility.yul\":9541:9546   */\n      dup3\n        /* \"#utility.yul\":9510:9547   */\n      tag_294\n      jump\t// in\n    tag_433:\n        /* \"#utility.yul\":9497:9547   */\n      swap1\n      pop\n        /* \"#utility.yul\":9413:9553   */\n      swap2\n      swap1\n      pop\n      jump\t// out\n        /* \"#utility.yul\":9559:9718   */\n    tag_296:\n        /* \"#utility.yul\":9660:9711   */\n      tag_435\n        /* \"#utility.yul\":9705:9710   */\n      dup2\n        /* \"#utility.yul\":9660:9711   */\n      tag_295\n      jump\t// in\n    tag_435:\n        /* \"#utility.yul\":9655:9658   */\n      dup3\n        /* \"#utility.yul\":9648:9712   */\n      mstore\n        /* \"#utility.yul\":9559:9718   */\n      pop\n      pop\n      jump\t// out\n        /* \"#utility.yul\":9724:9974   */\n    tag_71:\n        /* \"#utility.yul\":9831:9835   */\n      0x00\n        /* \"#utility.yul\":9869:9871   */\n      0x20\n        /* \"#utility.yul\":9858:9867   */\n      dup3\n        /* \"#utility.yul\":9854:9872   */\n      add\n        /* \"#utility.yul\":9846:9872   */\n      swap1\n      pop\n        /* \"#utility.yul\":9882:9967   */\n      tag_437\n        /* \"#utility.yul\":9964:9965   */\n      0x00\n        /* \"#utility.yul\":9953:9962   */\n      dup4\n        /* \"#utility.yul\":9949:9966   */\n      add\n        /* \"#utility.yul\":9940:9946   */\n      dup5\n        /* \"#utility.yul\":9882:9967   */\n      tag_296\n      jump\t// in\n    tag_437:\n        /* \"#utility.yul\":9724:9974   */\n      swap3\n      swap2\n      pop\n      pop\n      jump\t// out\n        /* \"#utility.yul\":9980:10211   */\n    tag_297:\n        /* \"#utility.yul\":10120:10154   */\n      0x596f7520617265206e6f742061626c6520746f20646f20746869732061637469\n        /* \"#utility.yul\":10116:10117   */\n      0x00\n        /* \"#utility.yul\":10108:10114   */\n      dup3\n        /* \"#utility.yul\":10104:10118   */\n      add\n        /* \"#utility.yul\":10097:10155   */\n      mstore\n        /* \"#utility.yul\":10189:10203   */\n      0x6f6e207269676874206e6f770000000000000000000000000000000000000000\n        /* \"#utility.yul\":10184:10186   */\n      0x20\n        /* \"#utility.yul\":10176:10182   */\n      dup3\n        /* \"#utility.yul\":10172:10187   */\n      add\n        /* \"#utility.yul\":10165:10204   */\n      mstore\n        /* \"#utility.yul\":9980:10211   */\n      pop\n      jump\t// out\n        /* \"#utility.yul\":10217:10583   */\n    tag_298:\n        /* \"#utility.yul\":10359:10362   */\n      0x00\n        /* \"#utility.yul\":10380:10447   */\n      tag_440\n        /* \"#utility.yul\":10444:10446   */\n      0x2c\n        /* \"#utility.yul\":10439:10442   */\n      dup4\n        /* \"#utility.yul\":10380:10447   */\n      tag_265\n      jump\t// in\n    tag_440:\n        /* \"#utility.yul\":10373:10447   */\n      swap2\n      pop\n        /* \"#utility.yul\":10456:10549   */\n      tag_441\n        /* \"#utility.yul\":10545:10548   */\n      dup3\n        /* \"#utility.yul\":10456:10549   */\n      tag_297\n      jump\t// in\n    tag_441:\n        /* \"#utility.yul\":10574:10576   */\n      0x40\n        /* \"#utility.yul\":10569:10572   */\n      dup3\n        /* \"#utility.yul\":10565:10577   */\n      add\n        /* \"#utility.yul\":10558:10577   */\n      swap1\n      pop\n        /* \"#utility.yul\":10217:10583   */\n      swap2\n      swap1\n      pop\n      jump\t// out\n        /* \"#utility.yul\":10589:11008   */\n    tag_80:\n        /* \"#utility.yul\":10755:10759   */\n      0x00\n        /* \"#utility.yul\":10793:10795   */\n      0x20\n        /* \"#utility.yul\":10782:10791   */\n      dup3\n        /* \"#utility.yul\":10778:10796   */\n      add\n        /* \"#utility.yul\":10770:10796   */\n      swap1\n      pop\n        /* \"#utility.yul\":10842:10851   */\n      dup2\n        /* \"#utility.yul\":10836:10840   */\n      dup2\n        /* \"#utility.yul\":10832:10852   */\n      sub\n        /* \"#utility.yul\":10828:10829   */\n      0x00\n        /* \"#utility.yul\":10817:10826   */\n      dup4\n        /* \"#utility.yul\":10813:10830   */\n      add\n        /* \"#utility.yul\":10806:10853   */\n      mstore\n        /* \"#utility.yul\":10870:11001   */\n      tag_443\n        /* \"#utility.yul\":10996:11000   */\n      dup2\n        /* \"#utility.yul\":10870:11001   */\n      tag_298\n      jump\t// in\n    tag_443:\n        /* \"#utility.yul\":10862:11001   */\n      swap1\n      pop\n        /* \"#utility.yul\":10589:11008   */\n      swap2\n      swap1\n      pop\n      jump\t// out\n        /* \"#utility.yul\":11014:11191   */\n    tag_299:\n        /* \"#utility.yul\":11154:11183   */\n      0x596f7520617265206e6f7420616c6c6f77656420746f20766f74650000000000\n        /* \"#utility.yul\":11150:11151   */\n      0x00\n        /* \"#utility.yul\":11142:11148   */\n      dup3\n        /* \"#utility.yul\":11138:11152   */\n      add\n        /* \"#utility.yul\":11131:11184   */\n      mstore\n        /* \"#utility.yul\":11014:11191   */\n      pop\n      jump\t// out\n        /* \"#utility.yul\":11197:11563   */\n    tag_300:\n        /* \"#utility.yul\":11339:11342   */\n      0x00\n        /* \"#utility.yul\":11360:11427   */\n      tag_446\n        /* \"#utility.yul\":11424:11426   */\n      0x1b\n        /* \"#utility.yul\":11419:11422   */\n      dup4\n        /* \"#utility.yul\":11360:11427   */\n      tag_265\n      jump\t// in\n    tag_446:\n        /* \"#utility.yul\":11353:11427   */\n      swap2\n      pop\n        /* \"#utility.yul\":11436:11529   */\n      tag_447\n        /* \"#utility.yul\":11525:11528   */\n      dup3\n        /* \"#utility.yul\":11436:11529   */\n      tag_299\n      jump\t// in\n    tag_447:\n        /* \"#utility.yul\":11554:11556   */\n      0x20\n        /* \"#utility.yul\":11549:11552   */\n      dup3\n        /* \"#utility.yul\":11545:11557   */\n      add\n        /* \"#utility.yul\":11538:11557   */\n      swap1\n      pop\n        /* \"#utility.yul\":11197:11563   */\n      swap2\n      swap1\n      pop\n      jump\t// out\n        /* \"#utility.yul\":11569:11988   */\n    tag_84:\n        /* \"#utility.yul\":11735:11739   */\n      0x00\n        /* \"#utility.yul\":11773:11775   */\n      0x20\n        /* \"#utility.yul\":11762:11771   */\n      dup3\n        /* \"#utility.yul\":11758:11776   */\n      add\n        /* \"#utility.yul\":11750:11776   */\n      swap1\n      pop\n        /* \"#utility.yul\":11822:11831   */\n      dup2\n        /* \"#utility.yul\":11816:11820   */\n      dup2\n        /* \"#utility.yul\":11812:11832   */\n      sub\n        /* \"#utility.yul\":11808:11809   */\n      0x00\n        /* \"#utility.yul\":11797:11806   */\n      dup4\n        /* \"#utility.yul\":11793:11810   */\n      add\n        /* \"#utility.yul\":11786:11833   */\n      mstore\n        /* \"#utility.yul\":11850:11981   */\n      tag_449\n        /* \"#utility.yul\":11976:11980   */\n      dup2\n        /* \"#utility.yul\":11850:11981   */\n      tag_300\n      jump\t// in\n    tag_449:\n        /* \"#utility.yul\":11842:11981   */\n      swap1\n      pop\n        /* \"#utility.yul\":11569:11988   */\n      swap2\n      swap1\n      pop\n      jump\t// out\n        /* \"#utility.yul\":11994:12166   */\n    tag_301:\n        /* \"#utility.yul\":12134:12158   */\n      0x596f75206861766520616c726561647920766f74656400000000000000000000\n        /* \"#utility.yul\":12130:12131   */\n      0x00\n        /* \"#utility.yul\":12122:12128   */\n      dup3\n        /* \"#utility.yul\":12118:12132   */\n      add\n        /* \"#utility.yul\":12111:12159   */\n      mstore\n        /* \"#utility.yul\":11994:12166   */\n      pop\n      jump\t// out\n        /* \"#utility.yul\":12172:12538   */\n    tag_302:\n        /* \"#utility.yul\":12314:12317   */\n      0x00\n        /* \"#utility.yul\":12335:12402   */\n      tag_452\n        /* \"#utility.yul\":12399:12401   */\n      0x16\n        /* \"#utility.yul\":12394:12397   */\n      dup4\n        /* \"#utility.yul\":12335:12402   */\n      tag_265\n      jump\t// in\n    tag_452:\n        /* \"#utility.yul\":12328:12402   */\n      swap2\n      pop\n        /* \"#utility.yul\":12411:12504   */\n      tag_453\n        /* \"#utility.yul\":12500:12503   */\n      dup3\n        /* \"#utility.yul\":12411:12504   */\n      tag_301\n      jump\t// in\n    tag_453:\n        /* \"#utility.yul\":12529:12531   */\n      0x20\n        /* \"#utility.yul\":12524:12527   */\n      dup3\n        /* \"#utility.yul\":12520:12532   */\n      add\n        /* \"#utility.yul\":12513:12532   */\n      swap1\n      pop\n        /* \"#utility.yul\":12172:12538   */\n      swap2\n      swap1\n      pop\n      jump\t// out\n        /* \"#utility.yul\":12544:12963   */\n    tag_87:\n        /* \"#utility.yul\":12710:12714   */\n      0x00\n        /* \"#utility.yul\":12748:12750   */\n      0x20\n        /* \"#utility.yul\":12737:12746   */\n      dup3\n        /* \"#utility.yul\":12733:12751   */\n      add\n        /* \"#utility.yul\":12725:12751   */\n      swap1\n      pop\n        /* \"#utility.yul\":12797:12806   */\n      dup2\n        /* \"#utility.yul\":12791:12795   */\n      dup2\n        /* \"#utility.yul\":12787:12807   */\n      sub\n        /* \"#utility.yul\":12783:12784   */\n      0x00\n        /* \"#utility.yul\":12772:12781   */\n      dup4\n        /* \"#utility.yul\":12768:12785   */\n      add\n        /* \"#utility.yul\":12761:12808   */\n      mstore\n        /* \"#utility.yul\":12825:12956   */\n      tag_455\n        /* \"#utility.yul\":12951:12955   */\n      dup2\n        /* \"#utility.yul\":12825:12956   */\n      tag_302\n      jump\t// in\n    tag_455:\n        /* \"#utility.yul\":12817:12956   */\n      swap1\n      pop\n        /* \"#utility.yul\":12544:12963   */\n      swap2\n      swap1\n      pop\n      jump\t// out\n        /* \"#utility.yul\":12969:13149   */\n    tag_90:\n        /* \"#utility.yul\":13017:13094   */\n      0x4e487b7100000000000000000000000000000000000000000000000000000000\n        /* \"#utility.yul\":13014:13015   */\n      0x00\n        /* \"#utility.yul\":13007:13095   */\n      mstore\n        /* \"#utility.yul\":13114:13118   */\n      0x32\n        /* \"#utility.yul\":13111:13112   */\n      0x04\n        /* \"#utility.yul\":13104:13119   */\n      mstore\n        /* \"#utility.yul\":13138:13142   */\n      0x24\n        /* \"#utility.yul\":13135:13136   */\n      0x00\n        /* \"#utility.yul\":13128:13143   */\n      revert\n        /* \"#utility.yul\":13155:13335   */\n    tag_303:\n        /* \"#utility.yul\":13203:13280   */\n      0x4e487b7100000000000000000000000000000000000000000000000000000000\n        /* \"#utility.yul\":13200:13201   */\n      0x00\n        /* \"#utility.yul\":13193:13281   */\n      mstore\n        /* \"#utility.yul\":13300:13304   */\n      0x11\n        /* \"#utility.yul\":13297:13298   */\n      0x04\n        /* \"#utility.yul\":13290:13305   */\n      mstore\n        /* \"#utility.yul\":13324:13328   */\n      0x24\n        /* \"#utility.yul\":13321:13322   */\n      0x00\n        /* \"#utility.yul\":13314:13329   */\n      revert\n        /* \"#utility.yul\":13341:13532   */\n    tag_93:\n        /* \"#utility.yul\":13381:13384   */\n      0x00\n        /* \"#utility.yul\":13400:13420   */\n      tag_459\n        /* \"#utility.yul\":13418:13419   */\n      dup3\n        /* \"#utility.yul\":13400:13420   */\n      tag_261\n      jump\t// in\n    tag_459:\n        /* \"#utility.yul\":13395:13420   */\n      swap2\n      pop\n        /* \"#utility.yul\":13434:13454   */\n      tag_460\n        /* \"#utility.yul\":13452:13453   */\n      dup4\n        /* \"#utility.yul\":13434:13454   */\n      tag_261\n      jump\t// in\n    tag_460:\n        /* \"#utility.yul\":13429:13454   */\n      swap3\n      pop\n        /* \"#utility.yul\":13477:13478   */\n      dup3\n        /* \"#utility.yul\":13474:13475   */\n      dup3\n        /* \"#utility.yul\":13470:13479   */\n      add\n        /* \"#utility.yul\":13463:13479   */\n      swap1\n      pop\n        /* \"#utility.yul\":13498:13501   */\n      dup1\n        /* \"#utility.yul\":13495:13496   */\n      dup3\n        /* \"#utility.yul\":13492:13502   */\n      gt\n        /* \"#utility.yul\":13489:13525   */\n      iszero\n      tag_461\n      jumpi\n        /* \"#utility.yul\":13505:13523   */\n      tag_462\n      tag_303\n      jump\t// in\n    tag_462:\n        /* \"#utility.yul\":13489:13525   */\n    tag_461:\n        /* \"#utility.yul\":13341:13532   */\n      swap3\n      swap2\n      pop\n      pop\n      jump\t// out\n        /* \"#utility.yul\":13538:13870   */\n    tag_95:\n        /* \"#utility.yul\":13659:13663   */\n      0x00\n        /* \"#utility.yul\":13697:13699   */\n      0x40\n        /* \"#utility.yul\":13686:13695   */\n      dup3\n        /* \"#utility.yul\":13682:13700   */\n      add\n        /* \"#utility.yul\":13674:13700   */\n      swap1\n      pop\n        /* \"#utility.yul\":13710:13781   */\n      tag_464\n        /* \"#utility.yul\":13778:13779   */\n      0x00\n        /* \"#utility.yul\":13767:13776   */\n      dup4\n        /* \"#utility.yul\":13763:13780   */\n      add\n        /* \"#utility.yul\":13754:13760   */\n      dup6\n        /* \"#utility.yul\":13710:13781   */\n      tag_272\n      jump\t// in\n    tag_464:\n        /* \"#utility.yul\":13791:13863   */\n      tag_465\n        /* \"#utility.yul\":13859:13861   */\n      0x20\n        /* \"#utility.yul\":13848:13857   */\n      dup4\n        /* \"#utility.yul\":13844:13862   */\n      add\n        /* \"#utility.yul\":13835:13841   */\n      dup5\n        /* \"#utility.yul\":13791:13863   */\n      tag_269\n      jump\t// in\n    tag_465:\n        /* \"#utility.yul\":13538:13870   */\n      swap4\n      swap3\n      pop\n      pop\n      pop\n      jump\t// out\n        /* \"#utility.yul\":13876:14056   */\n    tag_304:\n        /* \"#utility.yul\":13924:14001   */\n      0x4e487b7100000000000000000000000000000000000000000000000000000000\n        /* \"#utility.yul\":13921:13922   */\n      0x00\n        /* \"#utility.yul\":13914:14002   */\n      mstore\n        /* \"#utility.yul\":14021:14025   */\n      0x22\n        /* \"#utility.yul\":14018:14019   */\n      0x04\n        /* \"#utility.yul\":14011:14026   */\n      mstore\n        /* \"#utility.yul\":14045:14049   */\n      0x24\n        /* \"#utility.yul\":14042:14043   */\n      0x00\n        /* \"#utility.yul\":14035:14050   */\n      revert\n        /* \"#utility.yul\":14062:14382   */\n    tag_99:\n        /* \"#utility.yul\":14106:14112   */\n      0x00\n        /* \"#utility.yul\":14143:14144   */\n      0x02\n        /* \"#utility.yul\":14137:14141   */\n      dup3\n        /* \"#utility.yul\":14133:14145   */\n      div\n        /* \"#utility.yul\":14123:14145   */\n      swap1\n      pop\n        /* \"#utility.yul\":14190:14191   */\n      0x01\n        /* \"#utility.yul\":14184:14188   */\n      dup3\n        /* \"#utility.yul\":14180:14192   */\n      and\n        /* \"#utility.yul\":14211:14229   */\n      dup1\n        /* \"#utility.yul\":14201:14282   */\n      tag_468\n      jumpi\n        /* \"#utility.yul\":14267:14271   */\n      0x7f\n        /* \"#utility.yul\":14259:14265   */\n      dup3\n        /* \"#utility.yul\":14255:14272   */\n      and\n        /* \"#utility.yul\":14245:14272   */\n      swap2\n      pop\n        /* \"#utility.yul\":14201:14282   */\n    tag_468:\n        /* \"#utility.yul\":14329:14331   */\n      0x20\n        /* \"#utility.yul\":14321:14327   */\n      dup3\n        /* \"#utility.yul\":14318:14332   */\n      lt\n        /* \"#utility.yul\":14298:14316   */\n      dup2\n        /* \"#utility.yul\":14295:14333   */\n      sub\n        /* \"#utility.yul\":14292:14376   */\n      tag_469\n      jumpi\n        /* \"#utility.yul\":14348:14366   */\n      tag_470\n      tag_304\n      jump\t// in\n    tag_470:\n        /* \"#utility.yul\":14292:14376   */\n    tag_469:\n        /* \"#utility.yul\":14113:14382   */\n      pop\n        /* \"#utility.yul\":14062:14382   */\n      swap2\n      swap1\n      pop\n      jump\t// out\n        /* \"#utility.yul\":14388:14784   */\n    tag_118:\n        /* \"#utility.yul\":14541:14545   */\n      0x00\n        /* \"#utility.yul\":14579:14581   */\n      0x40\n        /* \"#utility.yul\":14568:14577   */\n      dup3\n        /* \"#utility.yul\":14564:14582   */\n      add\n        /* \"#utility.yul\":14556:14582   */\n      swap1\n      pop\n        /* \"#utility.yul\":14592:14679   */\n      tag_472\n        /* \"#utility.yul\":14676:14677   */\n      0x00\n        /* \"#utility.yul\":14665:14674   */\n      dup4\n        /* \"#utility.yul\":14661:14678   */\n      add\n        /* \"#utility.yul\":14652:14658   */\n      dup6\n        /* \"#utility.yul\":14592:14679   */\n      tag_280\n      jump\t// in\n    tag_472:\n        /* \"#utility.yul\":14689:14777   */\n      tag_473\n        /* \"#utility.yul\":14773:14775   */\n      0x20\n        /* \"#utility.yul\":14762:14771   */\n      dup4\n        /* \"#utility.yul\":14758:14776   */\n      add\n        /* \"#utility.yul\":14749:14755   */\n      dup5\n        /* \"#utility.yul\":14689:14777   */\n      tag_280\n      jump\t// in\n    tag_473:\n        /* \"#utility.yul\":14388:14784   */\n      swap4\n      swap3\n      pop\n      pop\n      pop\n      jump\t// out\n        /* \"#utility.yul\":14790:14946   */\n    tag_305:\n        /* \"#utility.yul\":14930:14938   */\n      0x61747461636b0000000000000000000000000000000000000000000000000000\n        /* \"#utility.yul\":14926:14927   */\n      0x00\n        /* \"#utility.yul\":14918:14924   */\n      dup3\n        /* \"#utility.yul\":14914:14928   */\n      add\n        /* \"#utility.yul\":14907:14939   */\n      mstore\n        /* \"#utility.yul\":14790:14946   */\n      pop\n      jump\t// out\n        /* \"#utility.yul\":14952:15317   */\n    tag_306:\n        /* \"#utility.yul\":15094:15097   */\n      0x00\n        /* \"#utility.yul\":15115:15181   */\n      tag_476\n        /* \"#utility.yul\":15179:15180   */\n      0x06\n        /* \"#utility.yul\":15174:15177   */\n      dup4\n        /* \"#utility.yul\":15115:15181   */\n      tag_265\n      jump\t// in\n    tag_476:\n        /* \"#utility.yul\":15108:15181   */\n      swap2\n      pop\n        /* \"#utility.yul\":15190:15283   */\n      tag_477\n        /* \"#utility.yul\":15279:15282   */\n      dup3\n        /* \"#utility.yul\":15190:15283   */\n      tag_305\n      jump\t// in\n    tag_477:\n        /* \"#utility.yul\":15308:15310   */\n      0x20\n        /* \"#utility.yul\":15303:15306   */\n      dup3\n        /* \"#utility.yul\":15299:15311   */\n      add\n        /* \"#utility.yul\":15292:15311   */\n      swap1\n      pop\n        /* \"#utility.yul\":14952:15317   */\n      swap2\n      swap1\n      pop\n      jump\t// out\n        /* \"#utility.yul\":15323:15742   */\n    tag_129:\n        /* \"#utility.yul\":15489:15493   */\n      0x00\n        /* \"#utility.yul\":15527:15529   */\n      0x20\n        /* \"#utility.yul\":15516:15525   */\n      dup3\n        /* \"#utility.yul\":15512:15530   */\n      add\n        /* \"#utility.yul\":15504:15530   */\n      swap1\n      pop\n        /* \"#utility.yul\":15576:15585   */\n      dup2\n        /* \"#utility.yul\":15570:15574   */\n      dup2\n        /* \"#utility.yul\":15566:15586   */\n      sub\n        /* \"#utility.yul\":15562:15563   */\n      0x00\n        /* \"#utility.yul\":15551:15560   */\n      dup4\n        /* \"#utility.yul\":15547:15564   */\n      add\n        /* \"#utility.yul\":15540:15587   */\n      mstore\n        /* \"#utility.yul\":15604:15735   */\n      tag_479\n        /* \"#utility.yul\":15730:15734   */\n      dup2\n        /* \"#utility.yul\":15604:15735   */\n      tag_306\n      jump\t// in\n    tag_479:\n        /* \"#utility.yul\":15596:15735   */\n      swap1\n      pop\n        /* \"#utility.yul\":15323:15742   */\n      swap2\n      swap1\n      pop\n      jump\t// out\n        /* \"#utility.yul\":15748:15973   */\n    tag_307:\n        /* \"#utility.yul\":15888:15922   */\n      0x596f7520617265206e6f7420616c6c6f77656420746f206d616b652061207072\n        /* \"#utility.yul\":15884:15885   */\n      0x00\n        /* \"#utility.yul\":15876:15882   */\n      dup3\n        /* \"#utility.yul\":15872:15886   */\n      add\n        /* \"#utility.yul\":15865:15923   */\n      mstore\n        /* \"#utility.yul\":15957:15965   */\n      0x6f706f73616c0000000000000000000000000000000000000000000000000000\n        /* \"#utility.yul\":15952:15954   */\n      0x20\n        /* \"#utility.yul\":15944:15950   */\n      dup3\n        /* \"#utility.yul\":15940:15955   */\n      add\n        /* \"#utility.yul\":15933:15966   */\n      mstore\n        /* \"#utility.yul\":15748:15973   */\n      pop\n      jump\t// out\n        /* \"#utility.yul\":15979:16345   */\n    tag_308:\n        /* \"#utility.yul\":16121:16124   */\n      0x00\n        /* \"#utility.yul\":16142:16209   */\n      tag_482\n        /* \"#utility.yul\":16206:16208   */\n      0x26\n        /* \"#utility.yul\":16201:16204   */\n      dup4\n        /* \"#utility.yul\":16142:16209   */\n      tag_265\n      jump\t// in\n    tag_482:\n        /* \"#utility.yul\":16135:16209   */\n      swap2\n      pop\n        /* \"#utility.yul\":16218:16311   */\n      tag_483\n        /* \"#utility.yul\":16307:16310   */\n      dup3\n        /* \"#utility.yul\":16218:16311   */\n      tag_307\n      jump\t// in\n    tag_483:\n        /* \"#utility.yul\":16336:16338   */\n      0x40\n        /* \"#utility.yul\":16331:16334   */\n      dup3\n        /* \"#utility.yul\":16327:16339   */\n      add\n        /* \"#utility.yul\":16320:16339   */\n      swap1\n      pop\n        /* \"#utility.yul\":15979:16345   */\n      swap2\n      swap1\n      pop\n      jump\t// out\n        /* \"#utility.yul\":16351:16770   */\n    tag_211:\n        /* \"#utility.yul\":16517:16521   */\n      0x00\n        /* \"#utility.yul\":16555:16557   */\n      0x20\n        /* \"#utility.yul\":16544:16553   */\n      dup3\n        /* \"#utility.yul\":16540:16558   */\n      add\n        /* \"#utility.yul\":16532:16558   */\n      swap1\n      pop\n        /* \"#utility.yul\":16604:16613   */\n      dup2\n        /* \"#utility.yul\":16598:16602   */\n      dup2\n        /* \"#utility.yul\":16594:16614   */\n      sub\n        /* \"#utility.yul\":16590:16591   */\n      0x00\n        /* \"#utility.yul\":16579:16588   */\n      dup4\n        /* \"#utility.yul\":16575:16592   */\n      add\n        /* \"#utility.yul\":16568:16615   */\n      mstore\n        /* \"#utility.yul\":16632:16763   */\n      tag_485\n        /* \"#utility.yul\":16758:16762   */\n      dup2\n        /* \"#utility.yul\":16632:16763   */\n      tag_308\n      jump\t// in\n    tag_485:\n        /* \"#utility.yul\":16624:16763   */\n      swap1\n      pop\n        /* \"#utility.yul\":16351:16770   */\n      swap2\n      swap1\n      pop\n      jump\t// out\n        /* \"#utility.yul\":16776:16917   */\n    tag_309:\n        /* \"#utility.yul\":16825:16829   */\n      0x00\n        /* \"#utility.yul\":16848:16851   */\n      dup2\n        /* \"#utility.yul\":16840:16851   */\n      swap1\n      pop\n        /* \"#utility.yul\":16871:16874   */\n      dup2\n        /* \"#utility.yul\":16868:16869   */\n      0x00\n        /* \"#utility.yul\":16861:16875   */\n      mstore\n        /* \"#utility.yul\":16905:16909   */\n      0x20\n        /* \"#utility.yul\":16902:16903   */\n      0x00\n        /* \"#utility.yul\":16892:16910   */\n      keccak256\n        /* \"#utility.yul\":16884:16910   */\n      swap1\n      pop\n        /* \"#utility.yul\":16776:16917   */\n      swap2\n      swap1\n      pop\n      jump\t// out\n        /* \"#utility.yul\":16923:17016   */\n    tag_310:\n        /* \"#utility.yul\":16960:16966   */\n      0x00\n        /* \"#utility.yul\":17007:17009   */\n      0x20\n        /* \"#utility.yul\":17002:17004   */\n      0x1f\n        /* \"#utility.yul\":16995:17000   */\n      dup4\n        /* \"#utility.yul\":16991:17005   */\n      add\n        /* \"#utility.yul\":16987:17010   */\n      div\n        /* \"#utility.yul\":16977:17010   */\n      swap1\n      pop\n        /* \"#utility.yul\":16923:17016   */\n      swap2\n      swap1\n      pop\n      jump\t// out\n        /* \"#utility.yul\":17022:17129   */\n    tag_311:\n        /* \"#utility.yul\":17066:17074   */\n      0x00\n        /* \"#utility.yul\":17116:17121   */\n      dup3\n        /* \"#utility.yul\":17110:17114   */\n      dup3\n        /* \"#utility.yul\":17106:17122   */\n      shl\n        /* \"#utility.yul\":17085:17122   */\n      swap1\n      pop\n        /* \"#utility.yul\":17022:17129   */\n      swap3\n      swap2\n      pop\n      pop\n      jump\t// out\n        /* \"#utility.yul\":17135:17528   */\n    tag_312:\n        /* \"#utility.yul\":17204:17210   */\n      0x00\n        /* \"#utility.yul\":17254:17255   */\n      0x08\n        /* \"#utility.yul\":17242:17252   */\n      dup4\n        /* \"#utility.yul\":17238:17256   */\n      mul\n        /* \"#utility.yul\":17277:17374   */\n      tag_490\n        /* \"#utility.yul\":17307:17373   */\n      0xffffffffffffffffffffffffffffffffffffffffffffffffffffffffffffffff\n        /* \"#utility.yul\":17296:17305   */\n      dup3\n        /* \"#utility.yul\":17277:17374   */\n      tag_311\n      jump\t// in\n    tag_490:\n        /* \"#utility.yul\":17395:17434   */\n      tag_491\n        /* \"#utility.yul\":17425:17433   */\n      dup7\n        /* \"#utility.yul\":17414:17423   */\n      dup4\n        /* \"#utility.yul\":17395:17434   */\n      tag_311\n      jump\t// in\n    tag_491:\n        /* \"#utility.yul\":17383:17434   */\n      swap6\n      pop\n        /* \"#utility.yul\":17467:17471   */\n      dup1\n        /* \"#utility.yul\":17463:17472   */\n      not\n        /* \"#utility.yul\":17456:17461   */\n      dup5\n        /* \"#utility.yul\":17452:17473   */\n      and\n        /* \"#utility.yul\":17443:17473   */\n      swap4\n      pop\n        /* \"#utility.yul\":17516:17520   */\n      dup1\n        /* \"#utility.yul\":17506:17514   */\n      dup7\n        /* \"#utility.yul\":17502:17521   */\n      and\n        /* \"#utility.yul\":17495:17500   */\n      dup5\n        /* \"#utility.yul\":17492:17522   */\n      or\n        /* \"#utility.yul\":17482:17522   */\n      swap3\n      pop\n        /* \"#utility.yul\":17211:17528   */\n      pop\n      pop\n        /* \"#utility.yul\":17135:17528   */\n      swap4\n      swap3\n      pop\n      pop\n      pop\n      jump\t// out\n        /* \"#utility.yul\":17534:17676   */\n    tag_313:\n        /* \"#utility.yul\":17584:17593   */\n      0x00\n        /* \"#utility.yul\":17617:17670   */\n      tag_493\n        /* \"#utility.yul\":17635:17669   */\n      tag_494\n        /* \"#utility.yul\":17644:17668   */\n      tag_495\n        /* \"#utility.yul\":17662:17667   */\n      dup5\n        /* \"#utility.yul\":17644:17668   */\n      tag_261\n      jump\t// in\n    tag_495:\n        /* \"#utility.yul\":17635:17669   */\n      tag_292\n      jump\t// in\n    tag_494:\n        /* \"#utility.yul\":17617:17670   */\n      tag_261\n      jump\t// in\n    tag_493:\n        /* \"#utility.yul\":17604:17670   */\n      swap1\n      pop\n        /* \"#utility.yul\":17534:17676   */\n      swap2\n      swap1\n      pop\n      jump\t// out\n        /* \"#utility.yul\":17682:17757   */\n    tag_314:\n        /* \"#utility.yul\":17725:17728   */\n      0x00\n        /* \"#utility.yul\":17746:17751   */\n      dup2\n        /* \"#utility.yul\":17739:17751   */\n      swap1\n      pop\n        /* \"#utility.yul\":17682:17757   */\n      swap2\n      swap1\n      pop\n      jump\t// out\n        /* \"#utility.yul\":17763:18032   */\n    tag_315:\n        /* \"#utility.yul\":17873:17912   */\n      tag_498\n        /* \"#utility.yul\":17904:17911   */\n      dup4\n        /* \"#utility.yul\":17873:17912   */\n      tag_313\n      jump\t// in\n    tag_498:\n        /* \"#utility.yul\":17934:18025   */\n      tag_499\n        /* \"#utility.yul\":17983:18024   */\n      tag_500\n        /* \"#utility.yul\":18007:18023   */\n      dup3\n        /* \"#utility.yul\":17983:18024   */\n      tag_314\n      jump\t// in\n    tag_500:\n        /* \"#utility.yul\":17975:17981   */\n      dup5\n        /* \"#utility.yul\":17968:17972   */\n      dup5\n        /* \"#utility.yul\":17962:17973   */\n      sload\n        /* \"#utility.yul\":17934:18025   */\n      tag_312\n      jump\t// in\n    tag_499:\n        /* \"#utility.yul\":17928:17932   */\n      dup3\n        /* \"#utility.yul\":17921:18026   */\n      sstore\n        /* \"#utility.yul\":17839:18032   */\n      pop\n        /* \"#utility.yul\":17763:18032   */\n      pop\n      pop\n      pop\n      jump\t// out\n        /* \"#utility.yul\":18038:18111   */\n    tag_316:\n        /* \"#utility.yul\":18083:18086   */\n      0x00\n        /* \"#utility.yul\":18104:18105   */\n      0x00\n        /* \"#utility.yul\":18097:18105   */\n      swap1\n      pop\n        /* \"#utility.yul\":18038:18111   */\n      swap1\n      jump\t// out\n        /* \"#utility.yul\":18117:18306   */\n    tag_317:\n        /* \"#utility.yul\":18194:18226   */\n      tag_503\n      tag_316\n      jump\t// in\n    tag_503:\n        /* \"#utility.yul\":18235:18300   */\n      tag_504\n        /* \"#utility.yul\":18293:18299   */\n      dup2\n        /* \"#utility.yul\":18285:18291   */\n      dup5\n        /* \"#utility.yul\":18279:18283   */\n      dup5\n        /* \"#utility.yul\":18235:18300   */\n      tag_315\n      jump\t// in\n    tag_504:\n        /* \"#utility.yul\":18170:18306   */\n      pop\n        /* \"#utility.yul\":18117:18306   */\n      pop\n      pop\n      jump\t// out\n        /* \"#utility.yul\":18312:18498   */\n    tag_318:\n        /* \"#utility.yul\":18372:18492   */\n    tag_506:\n        /* \"#utility.yul\":18389:18392   */\n      dup2\n        /* \"#utility.yul\":18382:18387   */\n      dup2\n        /* \"#utility.yul\":18379:18393   */\n      lt\n        /* \"#utility.yul\":18372:18492   */\n      iszero\n      tag_508\n      jumpi\n        /* \"#utility.yul\":18443:18482   */\n      tag_509\n        /* \"#utility.yul\":18480:18481   */\n      0x00\n        /* \"#utility.yul\":18473:18478   */\n      dup3\n        /* \"#utility.yul\":18443:18482   */\n      tag_317\n      jump\t// in\n    tag_509:\n        /* \"#utility.yul\":18416:18417   */\n      0x01\n        /* \"#utility.yul\":18409:18414   */\n      dup2\n        /* \"#utility.yul\":18405:18418   */\n      add\n        /* \"#utility.yul\":18396:18418   */\n      swap1\n      pop\n        /* \"#utility.yul\":18372:18492   */\n      jump(tag_506)\n    tag_508:\n        /* \"#utility.yul\":18312:18498   */\n      pop\n      pop\n      jump\t// out\n        /* \"#utility.yul\":18504:19047   */\n    tag_319:\n        /* \"#utility.yul\":18605:18607   */\n      0x1f\n        /* \"#utility.yul\":18600:18603   */\n      dup3\n        /* \"#utility.yul\":18597:18608   */\n      gt\n        /* \"#utility.yul\":18594:19040   */\n      iszero\n      tag_511\n      jumpi\n        /* \"#utility.yul\":18639:18677   */\n      tag_512\n        /* \"#utility.yul\":18671:18676   */\n      dup2\n        /* \"#utility.yul\":18639:18677   */\n      tag_309\n      jump\t// in\n    tag_512:\n        /* \"#utility.yul\":18723:18752   */\n      tag_513\n        /* \"#utility.yul\":18741:18751   */\n      dup5\n        /* \"#utility.yul\":18723:18752   */\n      tag_310\n      jump\t// in\n    tag_513:\n        /* \"#utility.yul\":18713:18721   */\n      dup2\n        /* \"#utility.yul\":18709:18753   */\n      add\n        /* \"#utility.yul\":18906:18908   */\n      0x20\n        /* \"#utility.yul\":18894:18904   */\n      dup6\n        /* \"#utility.yul\":18891:18909   */\n      lt\n        /* \"#utility.yul\":18888:18937   */\n      iszero\n      tag_514\n      jumpi\n        /* \"#utility.yul\":18927:18935   */\n      dup2\n        /* \"#utility.yul\":18912:18935   */\n      swap1\n      pop\n        /* \"#utility.yul\":18888:18937   */\n    tag_514:\n        /* \"#utility.yul\":18950:19030   */\n      tag_515\n        /* \"#utility.yul\":19006:19028   */\n      tag_516\n        /* \"#utility.yul\":19024:19027   */\n      dup6\n        /* \"#utility.yul\":19006:19028   */\n      tag_310\n      jump\t// in\n    tag_516:\n        /* \"#utility.yul\":18996:19004   */\n      dup4\n        /* \"#utility.yul\":18992:19029   */\n      add\n        /* \"#utility.yul\":18979:18990   */\n      dup3\n        /* \"#utility.yul\":18950:19030   */\n      tag_318\n      jump\t// in\n    tag_515:\n        /* \"#utility.yul\":18609:19040   */\n      pop\n      pop\n        /* \"#utility.yul\":18594:19040   */\n    tag_511:\n        /* \"#utility.yul\":18504:19047   */\n      pop\n      pop\n      pop\n      jump\t// out\n        /* \"#utility.yul\":19053:19170   */\n    tag_320:\n        /* \"#utility.yul\":19107:19115   */\n      0x00\n        /* \"#utility.yul\":19157:19162   */\n      dup3\n        /* \"#utility.yul\":19151:19155   */\n      dup3\n        /* \"#utility.yul\":19147:19163   */\n      shr\n        /* \"#utility.yul\":19126:19163   */\n      swap1\n      pop\n        /* \"#utility.yul\":19053:19170   */\n      swap3\n      swap2\n      pop\n      pop\n      jump\t// out\n        /* \"#utility.yul\":19176:19345   */\n    tag_321:\n        /* \"#utility.yul\":19220:19226   */\n      0x00\n        /* \"#utility.yul\":19253:19304   */\n      tag_519\n        /* \"#utility.yul\":19301:19302   */\n      0x00\n        /* \"#utility.yul\":19297:19303   */\n      not\n        /* \"#utility.yul\":19289:19294   */\n      dup5\n        /* \"#utility.yul\":19286:19287   */\n      0x08\n        /* \"#utility.yul\":19282:19295   */\n      mul\n        /* \"#utility.yul\":19253:19304   */\n      tag_320\n      jump\t// in\n    tag_519:\n        /* \"#utility.yul\":19249:19305   */\n      not\n        /* \"#utility.yul\":19334:19338   */\n      dup1\n        /* \"#utility.yul\":19328:19332   */\n      dup4\n        /* \"#utility.yul\":19324:19339   */\n      and\n        /* \"#utility.yul\":19314:19339   */\n      swap2\n      pop\n        /* \"#utility.yul\":19227:19345   */\n      pop\n        /* \"#utility.yul\":19176:19345   */\n      swap3\n      swap2\n      pop\n      pop\n      jump\t// out\n        /* \"#utility.yul\":19350:19645   */\n    tag_322:\n        /* \"#utility.yul\":19426:19430   */\n      0x00\n        /* \"#utility.yul\":19572:19601   */\n      tag_521\n        /* \"#utility.yul\":19597:19600   */\n      dup4\n        /* \"#utility.yul\":19591:19595   */\n      dup4\n        /* \"#utility.yul\":19572:19601   */\n      tag_321\n      jump\t// in\n    tag_521:\n        /* \"#utility.yul\":19564:19601   */\n      swap2\n      pop\n        /* \"#utility.yul\":19634:19637   */\n      dup3\n        /* \"#utility.yul\":19631:19632   */\n      0x02\n        /* \"#utility.yul\":19627:19638   */\n      mul\n        /* \"#utility.yul\":19621:19625   */\n      dup3\n        /* \"#utility.yul\":19618:19639   */\n      or\n        /* \"#utility.yul\":19610:19639   */\n      swap1\n      pop\n        /* \"#utility.yul\":19350:19645   */\n      swap3\n      swap2\n      pop\n      pop\n      jump\t// out\n        /* \"#utility.yul\":19650:21045   */\n    tag_214:\n        /* \"#utility.yul\":19767:19804   */\n      tag_523\n        /* \"#utility.yul\":19800:19803   */\n      dup3\n        /* \"#utility.yul\":19767:19804   */\n      tag_264\n      jump\t// in\n    tag_523:\n        /* \"#utility.yul\":19869:19887   */\n      0xffffffffffffffff\n        /* \"#utility.yul\":19861:19867   */\n      dup2\n        /* \"#utility.yul\":19858:19888   */\n      gt\n        /* \"#utility.yul\":19855:19911   */\n      iszero\n      tag_524\n      jumpi\n        /* \"#utility.yul\":19891:19909   */\n      tag_525\n      tag_283\n      jump\t// in\n    tag_525:\n        /* \"#utility.yul\":19855:19911   */\n    tag_524:\n        /* \"#utility.yul\":19935:19973   */\n      tag_526\n        /* \"#utility.yul\":19967:19971   */\n      dup3\n        /* \"#utility.yul\":19961:19972   */\n      sload\n        /* \"#utility.yul\":19935:19973   */\n      tag_99\n      jump\t// in\n    tag_526:\n        /* \"#utility.yul\":20020:20087   */\n      tag_527\n        /* \"#utility.yul\":20080:20086   */\n      dup3\n        /* \"#utility.yul\":20072:20078   */\n      dup3\n        /* \"#utility.yul\":20066:20070   */\n      dup6\n        /* \"#utility.yul\":20020:20087   */\n      tag_319\n      jump\t// in\n    tag_527:\n        /* \"#utility.yul\":20114:20115   */\n      0x00\n        /* \"#utility.yul\":20138:20142   */\n      0x20\n        /* \"#utility.yul\":20125:20142   */\n      swap1\n      pop\n        /* \"#utility.yul\":20170:20172   */\n      0x1f\n        /* \"#utility.yul\":20162:20168   */\n      dup4\n        /* \"#utility.yul\":20159:20173   */\n      gt\n        /* \"#utility.yul\":20187:20188   */\n      0x01\n        /* \"#utility.yul\":20182:20800   */\n      dup2\n      eq\n      tag_529\n      jumpi\n        /* \"#utility.yul\":20844:20845   */\n      0x00\n        /* \"#utility.yul\":20861:20867   */\n      dup5\n        /* \"#utility.yul\":20858:20935   */\n      iszero\n      tag_530\n      jumpi\n        /* \"#utility.yul\":20910:20919   */\n      dup3\n        /* \"#utility.yul\":20905:20908   */\n      dup8\n        /* \"#utility.yul\":20901:20920   */\n      add\n        /* \"#utility.yul\":20895:20921   */\n      mload\n        /* \"#utility.yul\":20886:20921   */\n      swap1\n      pop\n        /* \"#utility.yul\":20858:20935   */\n    tag_530:\n        /* \"#utility.yul\":20961:21028   */\n      tag_531\n        /* \"#utility.yul\":21021:21027   */\n      dup6\n        /* \"#utility.yul\":21014:21019   */\n      dup3\n        /* \"#utility.yul\":20961:21028   */\n      tag_322\n      jump\t// in\n    tag_531:\n        /* \"#utility.yul\":20955:20959   */\n      dup7\n        /* \"#utility.yul\":20948:21029   */\n      sstore\n        /* \"#utility.yul\":20817:21039   */\n      pop\n        /* \"#utility.yul\":20152:21039   */\n      jump(tag_528)\n        /* \"#utility.yul\":20182:20800   */\n    tag_529:\n        /* \"#utility.yul\":20234:20238   */\n      0x1f\n        /* \"#utility.yul\":20230:20239   */\n      not\n        /* \"#utility.yul\":20222:20228   */\n      dup5\n        /* \"#utility.yul\":20218:20240   */\n      and\n        /* \"#utility.yul\":20268:20305   */\n      tag_532\n        /* \"#utility.yul\":20300:20304   */\n      dup7\n        /* \"#utility.yul\":20268:20305   */\n      tag_309\n      jump\t// in\n    tag_532:\n        /* \"#utility.yul\":20327:20328   */\n      0x00\n        /* \"#utility.yul\":20341:20549   */\n    tag_533:\n        /* \"#utility.yul\":20355:20362   */\n      dup3\n        /* \"#utility.yul\":20352:20353   */\n      dup2\n        /* \"#utility.yul\":20349:20363   */\n      lt\n        /* \"#utility.yul\":20341:20549   */\n      iszero\n      tag_535\n      jumpi\n        /* \"#utility.yul\":20434:20443   */\n      dup5\n        /* \"#utility.yul\":20429:20432   */\n      dup10\n        /* \"#utility.yul\":20425:20444   */\n      add\n        /* \"#utility.yul\":20419:20445   */\n      mload\n        /* \"#utility.yul\":20411:20417   */\n      dup3\n        /* \"#utility.yul\":20404:20446   */\n      sstore\n        /* \"#utility.yul\":20485:20486   */\n      0x01\n        /* \"#utility.yul\":20477:20483   */\n      dup3\n        /* \"#utility.yul\":20473:20487   */\n      add\n        /* \"#utility.yul\":20463:20487   */\n      swap2\n      pop\n        /* \"#utility.yul\":20532:20534   */\n      0x20\n        /* \"#utility.yul\":20521:20530   */\n      dup6\n        /* \"#utility.yul\":20517:20535   */\n      add\n        /* \"#utility.yul\":20504:20535   */\n      swap5\n      pop\n        /* \"#utility.yul\":20378:20382   */\n      0x20\n        /* \"#utility.yul\":20375:20376   */\n      dup2\n        /* \"#utility.yul\":20371:20383   */\n      add\n        /* \"#utility.yul\":20366:20383   */\n      swap1\n      pop\n        /* \"#utility.yul\":20341:20549   */\n      jump(tag_533)\n    tag_535:\n        /* \"#utility.yul\":20577:20583   */\n      dup7\n        /* \"#utility.yul\":20568:20575   */\n      dup4\n        /* \"#utility.yul\":20565:20584   */\n      lt\n        /* \"#utility.yul\":20562:20741   */\n      iszero\n      tag_536\n      jumpi\n        /* \"#utility.yul\":20635:20644   */\n      dup5\n        /* \"#utility.yul\":20630:20633   */\n      dup10\n        /* \"#utility.yul\":20626:20645   */\n      add\n        /* \"#utility.yul\":20620:20646   */\n      mload\n        /* \"#utility.yul\":20678:20726   */\n      tag_537\n        /* \"#utility.yul\":20720:20724   */\n      0x1f\n        /* \"#utility.yul\":20712:20718   */\n      dup10\n        /* \"#utility.yul\":20708:20725   */\n      and\n        /* \"#utility.yul\":20697:20706   */\n      dup3\n        /* \"#utility.yul\":20678:20726   */\n      tag_321\n      jump\t// in\n    tag_537:\n        /* \"#utility.yul\":20670:20676   */\n      dup4\n        /* \"#utility.yul\":20663:20727   */\n      sstore\n        /* \"#utility.yul\":20585:20741   */\n      pop\n        /* \"#utility.yul\":20562:20741   */\n    tag_536:\n        /* \"#utility.yul\":20787:20788   */\n      0x01\n        /* \"#utility.yul\":20783:20784   */\n      0x02\n        /* \"#utility.yul\":20775:20781   */\n      dup9\n        /* \"#utility.yul\":20771:20785   */\n      mul\n        /* \"#utility.yul\":20767:20789   */\n      add\n        /* \"#utility.yul\":20761:20765   */\n      dup9\n        /* \"#utility.yul\":20754:20790   */\n      sstore\n        /* \"#utility.yul\":20189:20800   */\n      pop\n      pop\n      pop\n        /* \"#utility.yul\":20152:21039   */\n    tag_528:\n      pop\n        /* \"#utility.yul\":19742:21045   */\n      pop\n      pop\n      pop\n        /* \"#utility.yul\":19650:21045   */\n      pop\n      pop\n      jump\t// out\n        /* \"#utility.yul\":21051:21271   */\n    tag_323:\n        /* \"#utility.yul\":21191:21225   */\n      0x54686973206164647265737320697320616c726561647920696e20766f746572\n        /* \"#utility.yul\":21187:21188   */\n      0x00\n        /* \"#utility.yul\":21179:21185   */\n      dup3\n        /* \"#utility.yul\":21175:21189   */\n      add\n        /* \"#utility.yul\":21168:21226   */\n      mstore\n        /* \"#utility.yul\":21260:21263   */\n      0x7300000000000000000000000000000000000000000000000000000000000000\n        /* \"#utility.yul\":21255:21257   */\n      0x20\n        /* \"#utility.yul\":21247:21253   */\n      dup3\n        /* \"#utility.yul\":21243:21258   */\n      add\n        /* \"#utility.yul\":21236:21264   */\n      mstore\n        /* \"#utility.yul\":21051:21271   */\n      pop\n      jump\t// out\n        /* \"#utility.yul\":21277:21643   */\n    tag_324:\n        /* \"#utility.yul\":21419:21422   */\n      0x00\n        /* \"#utility.yul\":21440:21507   */\n      tag_540\n        /* \"#utility.yul\":21504:21506   */\n      0x21\n        /* \"#utility.yul\":21499:21502   */\n      dup4\n        /* \"#utility.yul\":21440:21507   */\n      tag_265\n      jump\t// in\n    tag_540:\n        /* \"#utility.yul\":21433:21507   */\n      swap2\n      pop\n        /* \"#utility.yul\":21516:21609   */\n      tag_541\n        /* \"#utility.yul\":21605:21608   */\n      dup3\n        /* \"#utility.yul\":21516:21609   */\n      tag_323\n      jump\t// in\n    tag_541:\n        /* \"#utility.yul\":21634:21636   */\n      0x40\n        /* \"#utility.yul\":21629:21632   */\n      dup3\n        /* \"#utility.yul\":21625:21637   */\n      add\n        /* \"#utility.yul\":21618:21637   */\n      swap1\n      pop\n        /* \"#utility.yul\":21277:21643   */\n      swap2\n      swap1\n      pop\n      jump\t// out\n        /* \"#utility.yul\":21649:22068   */\n    tag_228:\n        /* \"#utility.yul\":21815:21819   */\n      0x00\n        /* \"#utility.yul\":21853:21855   */\n      0x20\n        /* \"#utility.yul\":21842:21851   */\n      dup3\n        /* \"#utility.yul\":21838:21856   */\n      add\n        /* \"#utility.yul\":21830:21856   */\n      swap1\n      pop\n        /* \"#utility.yul\":21902:21911   */\n      dup2\n        /* \"#utility.yul\":21896:21900   */\n      dup2\n        /* \"#utility.yul\":21892:21912   */\n      sub\n        /* \"#utility.yul\":21888:21889   */\n      0x00\n        /* \"#utility.yul\":21877:21886   */\n      dup4\n        /* \"#utility.yul\":21873:21890   */\n      add\n        /* \"#utility.yul\":21866:21913   */\n      mstore\n        /* \"#utility.yul\":21930:22061   */\n      tag_543\n        /* \"#utility.yul\":22056:22060   */\n      dup2\n        /* \"#utility.yul\":21930:22061   */\n      tag_324\n      jump\t// in\n    tag_543:\n        /* \"#utility.yul\":21922:22061   */\n      swap1\n      pop\n        /* \"#utility.yul\":21649:22068   */\n      swap2\n      swap1\n      pop\n      jump\t// out\n\n    auxdata: 0xa26469706673582212208910e1a0e35f1a32d020a7de42a9be3d36d6412cf693cac5e4f286f8edb90dc864736f6c634300081c0033\n}\n",
				"bytecode": {
					"linkReferences": {},
					"object": "608060405234801561000f575f5ffd5b5060405161206a38038061206a83398181016040528101906100319190610217565b335f73ffffffffffffffffffffffffffffffffffffffff168173ffffffffffffffffffffffffffffffffffffffff16036100a2575f6040517f1e4fbdf70000000000000000000000000000000000000000000000000000000081526004016100999190610251565b60405180910390fd5b6100b1816100f860201b60201c565b508060045f6101000a81548173ffffffffffffffffffffffffffffffffffffffff021916908373ffffffffffffffffffffffffffffffffffffffff1602179055505061026a565b5f5f5f9054906101000a900473ffffffffffffffffffffffffffffffffffffffff169050815f5f6101000a81548173ffffffffffffffffffffffffffffffffffffffff021916908373ffffffffffffffffffffffffffffffffffffffff1602179055508173ffffffffffffffffffffffffffffffffffffffff168173ffffffffffffffffffffffffffffffffffffffff167f8be0079c531659141344cd1fd0a4f28419497f9722a3daafe3b4186f6b6457e060405160405180910390a35050565b5f5ffd5b5f73ffffffffffffffffffffffffffffffffffffffff82169050919050565b5f6101e6826101bd565b9050919050565b6101f6816101dc565b8114610200575f5ffd5b50565b5f81519050610211816101ed565b92915050565b5f6020828403121561022c5761022b6101b9565b5b5f61023984828501610203565b91505092915050565b61024b816101dc565b82525050565b5f6020820190506102645f830184610242565b92915050565b611df3806102775f395ff3fe608060405234801561000f575f5ffd5b50600436106100fe575f3560e01c8063a7bfab1611610095578063ed8a160811610064578063ed8a160814610201578063ee74c6781461021d578063f2fde38b14610227578063fce1ccca14610243576100fe565b8063a7bfab16146101c7578063ada7415f146101d1578063e09b8c79146101db578063e2dd58c6146101e5576100fe565b80637a164584116100d15780637a164584146101635780638da5cb5b1461016d5780638e7ea5b21461018b578063a1edffa2146101a9576100fe565b80630121b93f14610102578063013cf08b1461011e5780636c2974451461014f578063715018a614610159575b5f5ffd5b61011c60048036038101906101179190611294565b610261565b005b61013860048036038101906101339190611294565b610503565b60405161014692919061133e565b60405180910390f35b6101576105b8565b005b61016161069e565b005b61016b6106b1565b005b610175610755565b60405161018291906113ab565b60405180910390f35b61019361077c565b6040516101a09190611455565b60405180910390f35b6101b16108c6565b6040516101be91906114e8565b60405180910390f35b6101cf6108d8565b005b6101d96109be565b005b6101e3610b22565b005b6101ff60048036038101906101fa919061162d565b610c06565b005b61021b6004803603810190610216919061169e565b610dbe565b005b610225610f59565b005b610241600480360381019061023c919061169e565b61103f565b005b61024b6110c3565b6040516102589190611724565b60405180910390f35b600380600581111561027657610275611475565b5b5f60149054906101000a900460ff16600581111561029757610296611475565b5b146102d7576040517f08c379a00000000000000000000000000000000000000000000000000000000081526004016102ce906117ad565b60405180910390fd5b60025f3373ffffffffffffffffffffffffffffffffffffffff1673ffffffffffffffffffffffffffffffffffffffff1681526020019081526020015f205f015f9054906101000a900460ff16610362576040517f08c379a000000000000000000000000000000000000000000000000000000000815260040161035990611815565b60405180910390fd5b60025f3373ffffffffffffffffffffffffffffffffffffffff1673ffffffffffffffffffffffffffffffffffffffff1681526020019081526020015f205f0160019054906101000a900460ff16156103ef576040517f08c379a00000000000000000000000000000000000000000000000000000000081526004016103e69061187d565b60405180910390fd5b6001600383815481106104055761040461189b565b5b905f5260205f2090600202016001015f82825461042291906118f5565b92505081905550600160025f3373ffffffffffffffffffffffffffffffffffffffff1673ffffffffffffffffffffffffffffffffffffffff1681526020019081526020015f205f0160016101000a81548160ff0219169083151502179055508160025f3373ffffffffffffffffffffffffffffffffffffffff1673ffffffffffffffffffffffffffffffffffffffff1681526020019081526020015f20600101819055507f4d99b957a2bc29a30ebd96a7be8e68fe50a3c701db28a91436490b7d53870ca433836040516104f7929190611928565b60405180910390a15050565b60038181548110610512575f80fd5b905f5260205f2090600202015f91509050805f0180546105319061197c565b80601f016020809104026020016040519081016040528092919081815260200182805461055d9061197c565b80156105a85780601f1061057f576101008083540402835291602001916105a8565b820191905f5260205f20905b81548152906001019060200180831161058b57829003601f168201915b5050505050908060010154905082565b60018060058111156105cd576105cc611475565b5b5f60149054906101000a900460ff1660058111156105ee576105ed611475565b5b1461062e576040517f08c379a0000000000000000000000000000000000000000000000000000000008152600401610625906117ad565b60405180910390fd5b6106366110e8565b60025f60146101000a81548160ff0219169083600581111561065b5761065a611475565b5b02179055507f0a97a4ee45751e2abf3e4fc8946939630b11b371ea8ae39ccdc3056e98f5cc3f600160026040516106939291906119ac565b60405180910390a150565b6106a66110e8565b6106af5f61116f565b565b5f600190505b60c88110156107525760045f9054906101000a900473ffffffffffffffffffffffffffffffffffffffff1673ffffffffffffffffffffffffffffffffffffffff1663e2dd58c66040518163ffffffff1660e01b815260040161071890611a1d565b5f604051808303815f87803b15801561072f575f5ffd5b505af1158015610741573d5f5f3e3d5ffd5b5050505080806001019150506106b7565b50565b5f5f5f9054906101000a900473ffffffffffffffffffffffffffffffffffffffff16905090565b610784611237565b600580600581111561079957610798611475565b5b5f60149054906101000a900460ff1660058111156107ba576107b9611475565b5b146107fa576040517f08c379a00000000000000000000000000000000000000000000000000000000081526004016107f1906117ad565b60405180910390fd5b6003600154815481106108105761080f61189b565b5b905f5260205f2090600202016040518060400160405290815f820180546108369061197c565b80601f01602080910402602001604051908101604052809291908181526020018280546108629061197c565b80156108ad5780601f10610884576101008083540402835291602001916108ad565b820191905f5260205f20905b81548152906001019060200180831161089057829003601f168201915b5050505050815260200160018201548152505091505090565b5f60149054906101000a900460ff1681565b60038060058111156108ed576108ec611475565b5b5f60149054906101000a900460ff16600581111561090e5761090d611475565b5b1461094e576040517f08c379a0000000000000000000000000000000000000000000000000000000008152600401610945906117ad565b60405180910390fd5b6109566110e8565b60045f60146101000a81548160ff0219169083600581111561097b5761097a611475565b5b02179055507f0a97a4ee45751e2abf3e4fc8946939630b11b371ea8ae39ccdc3056e98f5cc3f600360046040516109b39291906119ac565b60405180910390a150565b60048060058111156109d3576109d2611475565b5b5f60149054906101000a900460ff1660058111156109f4576109f3611475565b5b14610a34576040517f08c379a0000000000000000000000000000000000000000000000000000000008152600401610a2b906117ad565b60405180910390fd5b610a3c6110e8565b5f5f90505f5f90505b600380549050811015610ab8578160038281548110610a6757610a6661189b565b5b905f5260205f209060020201600101541115610aab5760038181548110610a9157610a9061189b565b5b905f5260205f209060020201600101549150806001819055505b8080600101915050610a45565b5060055f60146101000a81548160ff02191690836005811115610ade57610add611475565b5b02179055507f0a97a4ee45751e2abf3e4fc8946939630b11b371ea8ae39ccdc3056e98f5cc3f60046005604051610b169291906119ac565b60405180910390a15050565b5f806005811115610b3657610b35611475565b5b5f60149054906101000a900460ff166005811115610b5757610b56611475565b5b14610b97576040517f08c379a0000000000000000000000000000000000000000000000000000000008152600401610b8e906117ad565b60405180910390fd5b610b9f6110e8565b60015f60146101000a81548160ff02191690836005811115610bc457610bc3611475565b5b02179055507f0a97a4ee45751e2abf3e4fc8946939630b11b371ea8ae39ccdc3056e98f5cc3f5f6001604051610bfb9291906119ac565b60405180910390a150565b6001806005811115610c1b57610c1a611475565b5b5f60149054906101000a900460ff166005811115610c3c57610c3b611475565b5b14610c7c576040517f08c379a0000000000000000000000000000000000000000000000000000000008152600401610c73906117ad565b60405180910390fd5b60025f3373ffffffffffffffffffffffffffffffffffffffff1673ffffffffffffffffffffffffffffffffffffffff1681526020019081526020015f205f015f9054906101000a900460ff16610d07576040517f08c379a0000000000000000000000000000000000000000000000000000000008152600401610cfe90611aab565b60405180910390fd5b600360405180604001604052808481526020015f815250908060018154018082558091505060019003905f5260205f2090600202015f909190919091505f820151815f019081610d579190611c60565b506020820151816001015550506001600380549050610d7691906118f5565b60025f3373ffffffffffffffffffffffffffffffffffffffff1673ffffffffffffffffffffffffffffffffffffffff1681526020019081526020015f20600101819055505050565b5f806005811115610dd257610dd1611475565b5b5f60149054906101000a900460ff166005811115610df357610df2611475565b5b14610e33576040517f08c379a0000000000000000000000000000000000000000000000000000000008152600401610e2a906117ad565b60405180910390fd5b610e3b6110e8565b60025f8373ffffffffffffffffffffffffffffffffffffffff1673ffffffffffffffffffffffffffffffffffffffff1681526020019081526020015f205f015f9054906101000a900460ff1615610ec7576040517f08c379a0000000000000000000000000000000000000000000000000000000008152600401610ebe90611d9f565b60405180910390fd5b600160025f8473ffffffffffffffffffffffffffffffffffffffff1673ffffffffffffffffffffffffffffffffffffffff1681526020019081526020015f205f015f6101000a81548160ff0219169083151502179055507fb6be2187d059cc2a55fe29e0e503b566e1e0f8c8780096e185429350acffd3dd82604051610f4d91906113ab565b60405180910390a15050565b6002806005811115610f6e57610f6d611475565b5b5f60149054906101000a900460ff166005811115610f8f57610f8e611475565b5b14610fcf576040517f08c379a0000000000000000000000000000000000000000000000000000000008152600401610fc6906117ad565b60405180910390fd5b610fd76110e8565b60035f60146101000a81548160ff02191690836005811115610ffc57610ffb611475565b5b02179055507f0a97a4ee45751e2abf3e4fc8946939630b11b371ea8ae39ccdc3056e98f5cc3f600260036040516110349291906119ac565b60405180910390a150565b6110476110e8565b5f73ffffffffffffffffffffffffffffffffffffffff168173ffffffffffffffffffffffffffffffffffffffff16036110b7575f6040517f1e4fbdf70000000000000000000000000000000000000000000000000000000081526004016110ae91906113ab565b60405180910390fd5b6110c08161116f565b50565b60045f9054906101000a900473ffffffffffffffffffffffffffffffffffffffff1681565b6110f0611230565b73ffffffffffffffffffffffffffffffffffffffff1661110e610755565b73ffffffffffffffffffffffffffffffffffffffff161461116d57611131611230565b6040517f118cdaa700000000000000000000000000000000000000000000000000000000815260040161116491906113ab565b60405180910390fd5b565b5f5f5f9054906101000a900473ffffffffffffffffffffffffffffffffffffffff169050815f5f6101000a81548173ffffffffffffffffffffffffffffffffffffffff021916908373ffffffffffffffffffffffffffffffffffffffff1602179055508173ffffffffffffffffffffffffffffffffffffffff168173ffffffffffffffffffffffffffffffffffffffff167f8be0079c531659141344cd1fd0a4f28419497f9722a3daafe3b4186f6b6457e060405160405180910390a35050565b5f33905090565b6040518060400160405280606081526020015f81525090565b5f604051905090565b5f5ffd5b5f5ffd5b5f819050919050565b61127381611261565b811461127d575f5ffd5b50565b5f8135905061128e8161126a565b92915050565b5f602082840312156112a9576112a8611259565b5b5f6112b684828501611280565b91505092915050565b5f81519050919050565b5f82825260208201905092915050565b8281835e5f83830152505050565b5f601f19601f8301169050919050565b5f611301826112bf565b61130b81856112c9565b935061131b8185602086016112d9565b611324816112e7565b840191505092915050565b61133881611261565b82525050565b5f6040820190508181035f83015261135681856112f7565b9050611365602083018461132f565b9392505050565b5f73ffffffffffffffffffffffffffffffffffffffff82169050919050565b5f6113958261136c565b9050919050565b6113a58161138b565b82525050565b5f6020820190506113be5f83018461139c565b92915050565b5f82825260208201905092915050565b5f6113de826112bf565b6113e881856113c4565b93506113f88185602086016112d9565b611401816112e7565b840191505092915050565b61141581611261565b82525050565b5f604083015f8301518482035f86015261143582826113d4565b915050602083015161144a602086018261140c565b508091505092915050565b5f6020820190508181035f83015261146d818461141b565b905092915050565b7f4e487b71000000000000000000000000000000000000000000000000000000005f52602160045260245ffd5b600681106114b3576114b2611475565b5b50565b5f8190506114c3826114a2565b919050565b5f6114d2826114b6565b9050919050565b6114e2816114c8565b82525050565b5f6020820190506114fb5f8301846114d9565b92915050565b5f5ffd5b5f5ffd5b7f4e487b71000000000000000000000000000000000000000000000000000000005f52604160045260245ffd5b61153f826112e7565b810181811067ffffffffffffffff8211171561155e5761155d611509565b5b80604052505050565b5f611570611250565b905061157c8282611536565b919050565b5f67ffffffffffffffff82111561159b5761159a611509565b5b6115a4826112e7565b9050602081019050919050565b828183375f83830152505050565b5f6115d16115cc84611581565b611567565b9050828152602081018484840111156115ed576115ec611505565b5b6115f88482856115b1565b509392505050565b5f82601f83011261161457611613611501565b5b81356116248482602086016115bf565b91505092915050565b5f6020828403121561164257611641611259565b5b5f82013567ffffffffffffffff81111561165f5761165e61125d565b5b61166b84828501611600565b91505092915050565b61167d8161138b565b8114611687575f5ffd5b50565b5f8135905061169881611674565b92915050565b5f602082840312156116b3576116b2611259565b5b5f6116c08482850161168a565b91505092915050565b5f819050919050565b5f6116ec6116e76116e28461136c565b6116c9565b61136c565b9050919050565b5f6116fd826116d2565b9050919050565b5f61170e826116f3565b9050919050565b61171e81611704565b82525050565b5f6020820190506117375f830184611715565b92915050565b7f596f7520617265206e6f742061626c6520746f20646f207468697320616374695f8201527f6f6e207269676874206e6f770000000000000000000000000000000000000000602082015250565b5f611797602c836112c9565b91506117a28261173d565b604082019050919050565b5f6020820190508181035f8301526117c48161178b565b9050919050565b7f596f7520617265206e6f7420616c6c6f77656420746f20766f746500000000005f82015250565b5f6117ff601b836112c9565b915061180a826117cb565b602082019050919050565b5f6020820190508181035f83015261182c816117f3565b9050919050565b7f596f75206861766520616c726561647920766f746564000000000000000000005f82015250565b5f6118676016836112c9565b915061187282611833565b602082019050919050565b5f6020820190508181035f8301526118948161185b565b9050919050565b7f4e487b71000000000000000000000000000000000000000000000000000000005f52603260045260245ffd5b7f4e487b71000000000000000000000000000000000000000000000000000000005f52601160045260245ffd5b5f6118ff82611261565b915061190a83611261565b9250828201905080821115611922576119216118c8565b5b92915050565b5f60408201905061193b5f83018561139c565b611948602083018461132f565b9392505050565b7f4e487b71000000000000000000000000000000000000000000000000000000005f52602260045260245ffd5b5f600282049050600182168061199357607f821691505b6020821081036119a6576119a561194f565b5b50919050565b5f6040820190506119bf5f8301856114d9565b6119cc60208301846114d9565b9392505050565b7f61747461636b00000000000000000000000000000000000000000000000000005f82015250565b5f611a076006836112c9565b9150611a12826119d3565b602082019050919050565b5f6020820190508181035f830152611a34816119fb565b9050919050565b7f596f7520617265206e6f7420616c6c6f77656420746f206d616b6520612070725f8201527f6f706f73616c0000000000000000000000000000000000000000000000000000602082015250565b5f611a956026836112c9565b9150611aa082611a3b565b604082019050919050565b5f6020820190508181035f830152611ac281611a89565b9050919050565b5f819050815f5260205f209050919050565b5f6020601f8301049050919050565b5f82821b905092915050565b5f60088302611b257fffffffffffffffffffffffffffffffffffffffffffffffffffffffffffffffff82611aea565b611b2f8683611aea565b95508019841693508086168417925050509392505050565b5f611b61611b5c611b5784611261565b6116c9565b611261565b9050919050565b5f819050919050565b611b7a83611b47565b611b8e611b8682611b68565b848454611af6565b825550505050565b5f5f905090565b611ba5611b96565b611bb0818484611b71565b505050565b5b81811015611bd357611bc85f82611b9d565b600181019050611bb6565b5050565b601f821115611c1857611be981611ac9565b611bf284611adb565b81016020851015611c01578190505b611c15611c0d85611adb565b830182611bb5565b50505b505050565b5f82821c905092915050565b5f611c385f1984600802611c1d565b1980831691505092915050565b5f611c508383611c29565b9150826002028217905092915050565b611c69826112bf565b67ffffffffffffffff811115611c8257611c81611509565b5b611c8c825461197c565b611c97828285611bd7565b5f60209050601f831160018114611cc8575f8415611cb6578287015190505b611cc08582611c45565b865550611d27565b601f198416611cd686611ac9565b5f5b82811015611cfd57848901518255600182019150602085019450602081019050611cd8565b86831015611d1a5784890151611d16601f891682611c29565b8355505b6001600288020188555050505b505050505050565b7f54686973206164647265737320697320616c726561647920696e20766f7465725f8201527f7300000000000000000000000000000000000000000000000000000000000000602082015250565b5f611d896021836112c9565b9150611d9482611d2f565b604082019050919050565b5f6020820190508181035f830152611db681611d7d565b905091905056fea26469706673582212208910e1a0e35f1a32d020a7de42a9be3d36d6412cf693cac5e4f286f8edb90dc864736f6c634300081c0033",
					"opcodes": "PUSH1 0x80 PUSH1 0x40 MSTORE CALLVALUE DUP1 ISZERO PUSH2 0xF JUMPI PUSH0 PUSH0 REVERT JUMPDEST POP PUSH1 0x40 MLOAD PUSH2 0x206A CODESIZE SUB DUP1 PUSH2 0x206A DUP4 CODECOPY DUP2 DUP2 ADD PUSH1 0x40 MSTORE DUP2 ADD SWAP1 PUSH2 0x31 SWAP2 SWAP1 PUSH2 0x217 JUMP JUMPDEST CALLER PUSH0 PUSH20 0xFFFFFFFFFFFFFFFFFFFFFFFFFFFFFFFFFFFFFFFF AND DUP2 PUSH20 0xFFFFFFFFFFFFFFFFFFFFFFFFFFFFFFFFFFFFFFFF AND SUB PUSH2 0xA2 JUMPI PUSH0 PUSH1 0x40 MLOAD PUSH32 0x1E4FBDF700000000000000000000000000000000000000000000000000000000 DUP2 MSTORE PUSH1 0x4 ADD PUSH2 0x99 SWAP2 SWAP1 PUSH2 0x251 JUMP JUMPDEST PUSH1 0x40 MLOAD DUP1 SWAP2 SUB SWAP1 REVERT JUMPDEST PUSH2 0xB1 DUP2 PUSH2 0xF8 PUSH1 0x20 SHL PUSH1 0x20 SHR JUMP JUMPDEST POP DUP1 PUSH1 0x4 PUSH0 PUSH2 0x100 EXP DUP2 SLOAD DUP2 PUSH20 0xFFFFFFFFFFFFFFFFFFFFFFFFFFFFFFFFFFFFFFFF MUL NOT AND SWAP1 DUP4 PUSH20 0xFFFFFFFFFFFFFFFFFFFFFFFFFFFFFFFFFFFFFFFF AND MUL OR SWAP1 SSTORE POP POP PUSH2 0x26A JUMP JUMPDEST PUSH0 PUSH0 PUSH0 SWAP1 SLOAD SWAP1 PUSH2 0x100 EXP SWAP1 DIV PUSH20 0xFFFFFFFFFFFFFFFFFFFFFFFFFFFFFFFFFFFFFFFF AND SWAP1 POP DUP2 PUSH0 PUSH0 PUSH2 0x100 EXP DUP2 SLOAD DUP2 PUSH20 0xFFFFFFFFFFFFFFFFFFFFFFFFFFFFFFFFFFFFFFFF MUL NOT AND SWAP1 DUP4 PUSH20 0xFFFFFFFFFFFFFFFFFFFFFFFFFFFFFFFFFFFFFFFF AND MUL OR SWAP1 SSTORE POP DUP2 PUSH20 0xFFFFFFFFFFFFFFFFFFFFFFFFFFFFFFFFFFFFFFFF AND DUP2 PUSH20 0xFFFFFFFFFFFFFFFFFFFFFFFFFFFFFFFFFFFFFFFF AND PUSH32 0x8BE0079C531659141344CD1FD0A4F28419497F9722A3DAAFE3B4186F6B6457E0 PUSH1 0x40 MLOAD PUSH1 0x40 MLOAD DUP1 SWAP2 SUB SWAP1 LOG3 POP POP JUMP JUMPDEST PUSH0 PUSH0 REVERT JUMPDEST PUSH0 PUSH20 0xFFFFFFFFFFFFFFFFFFFFFFFFFFFFFFFFFFFFFFFF DUP3 AND SWAP1 POP SWAP2 SWAP1 POP JUMP JUMPDEST PUSH0 PUSH2 0x1E6 DUP3 PUSH2 0x1BD JUMP JUMPDEST SWAP1 POP SWAP2 SWAP1 POP JUMP JUMPDEST PUSH2 0x1F6 DUP2 PUSH2 0x1DC JUMP JUMPDEST DUP2 EQ PUSH2 0x200 JUMPI PUSH0 PUSH0 REVERT JUMPDEST POP JUMP JUMPDEST PUSH0 DUP2 MLOAD SWAP1 POP PUSH2 0x211 DUP2 PUSH2 0x1ED JUMP JUMPDEST SWAP3 SWAP2 POP POP JUMP JUMPDEST PUSH0 PUSH1 0x20 DUP3 DUP5 SUB SLT ISZERO PUSH2 0x22C JUMPI PUSH2 0x22B PUSH2 0x1B9 JUMP JUMPDEST JUMPDEST PUSH0 PUSH2 0x239 DUP5 DUP3 DUP6 ADD PUSH2 0x203 JUMP JUMPDEST SWAP2 POP POP SWAP3 SWAP2 POP POP JUMP JUMPDEST PUSH2 0x24B DUP2 PUSH2 0x1DC JUMP JUMPDEST DUP3 MSTORE POP POP JUMP JUMPDEST PUSH0 PUSH1 0x20 DUP3 ADD SWAP1 POP PUSH2 0x264 PUSH0 DUP4 ADD DUP5 PUSH2 0x242 JUMP JUMPDEST SWAP3 SWAP2 POP POP JUMP JUMPDEST PUSH2 0x1DF3 DUP1 PUSH2 0x277 PUSH0 CODECOPY PUSH0 RETURN INVALID PUSH1 0x80 PUSH1 0x40 MSTORE CALLVALUE DUP1 ISZERO PUSH2 0xF JUMPI PUSH0 PUSH0 REVERT JUMPDEST POP PUSH1 0x4 CALLDATASIZE LT PUSH2 0xFE JUMPI PUSH0 CALLDATALOAD PUSH1 0xE0 SHR DUP1 PUSH4 0xA7BFAB16 GT PUSH2 0x95 JUMPI DUP1 PUSH4 0xED8A1608 GT PUSH2 0x64 JUMPI DUP1 PUSH4 0xED8A1608 EQ PUSH2 0x201 JUMPI DUP1 PUSH4 0xEE74C678 EQ PUSH2 0x21D JUMPI DUP1 PUSH4 0xF2FDE38B EQ PUSH2 0x227 JUMPI DUP1 PUSH4 0xFCE1CCCA EQ PUSH2 0x243 JUMPI PUSH2 0xFE JUMP JUMPDEST DUP1 PUSH4 0xA7BFAB16 EQ PUSH2 0x1C7 JUMPI DUP1 PUSH4 0xADA7415F EQ PUSH2 0x1D1 JUMPI DUP1 PUSH4 0xE09B8C79 EQ PUSH2 0x1DB JUMPI DUP1 PUSH4 0xE2DD58C6 EQ PUSH2 0x1E5 JUMPI PUSH2 0xFE JUMP JUMPDEST DUP1 PUSH4 0x7A164584 GT PUSH2 0xD1 JUMPI DUP1 PUSH4 0x7A164584 EQ PUSH2 0x163 JUMPI DUP1 PUSH4 0x8DA5CB5B EQ PUSH2 0x16D JUMPI DUP1 PUSH4 0x8E7EA5B2 EQ PUSH2 0x18B JUMPI DUP1 PUSH4 0xA1EDFFA2 EQ PUSH2 0x1A9 JUMPI PUSH2 0xFE JUMP JUMPDEST DUP1 PUSH4 0x121B93F EQ PUSH2 0x102 JUMPI DUP1 PUSH4 0x13CF08B EQ PUSH2 0x11E JUMPI DUP1 PUSH4 0x6C297445 EQ PUSH2 0x14F JUMPI DUP1 PUSH4 0x715018A6 EQ PUSH2 0x159 JUMPI JUMPDEST PUSH0 PUSH0 REVERT JUMPDEST PUSH2 0x11C PUSH1 0x4 DUP1 CALLDATASIZE SUB DUP2 ADD SWAP1 PUSH2 0x117 SWAP2 SWAP1 PUSH2 0x1294 JUMP JUMPDEST PUSH2 0x261 JUMP JUMPDEST STOP JUMPDEST PUSH2 0x138 PUSH1 0x4 DUP1 CALLDATASIZE SUB DUP2 ADD SWAP1 PUSH2 0x133 SWAP2 SWAP1 PUSH2 0x1294 JUMP JUMPDEST PUSH2 0x503 JUMP JUMPDEST PUSH1 0x40 MLOAD PUSH2 0x146 SWAP3 SWAP2 SWAP1 PUSH2 0x133E JUMP JUMPDEST PUSH1 0x40 MLOAD DUP1 SWAP2 SUB SWAP1 RETURN JUMPDEST PUSH2 0x157 PUSH2 0x5B8 JUMP JUMPDEST STOP JUMPDEST PUSH2 0x161 PUSH2 0x69E JUMP JUMPDEST STOP JUMPDEST PUSH2 0x16B PUSH2 0x6B1 JUMP JUMPDEST STOP JUMPDEST PUSH2 0x175 PUSH2 0x755 JUMP JUMPDEST PUSH1 0x40 MLOAD PUSH2 0x182 SWAP2 SWAP1 PUSH2 0x13AB JUMP JUMPDEST PUSH1 0x40 MLOAD DUP1 SWAP2 SUB SWAP1 RETURN JUMPDEST PUSH2 0x193 PUSH2 0x77C JUMP JUMPDEST PUSH1 0x40 MLOAD PUSH2 0x1A0 SWAP2 SWAP1 PUSH2 0x1455 JUMP JUMPDEST PUSH1 0x40 MLOAD DUP1 SWAP2 SUB SWAP1 RETURN JUMPDEST PUSH2 0x1B1 PUSH2 0x8C6 JUMP JUMPDEST PUSH1 0x40 MLOAD PUSH2 0x1BE SWAP2 SWAP1 PUSH2 0x14E8 JUMP JUMPDEST PUSH1 0x40 MLOAD DUP1 SWAP2 SUB SWAP1 RETURN JUMPDEST PUSH2 0x1CF PUSH2 0x8D8 JUMP JUMPDEST STOP JUMPDEST PUSH2 0x1D9 PUSH2 0x9BE JUMP JUMPDEST STOP JUMPDEST PUSH2 0x1E3 PUSH2 0xB22 JUMP JUMPDEST STOP JUMPDEST PUSH2 0x1FF PUSH1 0x4 DUP1 CALLDATASIZE SUB DUP2 ADD SWAP1 PUSH2 0x1FA SWAP2 SWAP1 PUSH2 0x162D JUMP JUMPDEST PUSH2 0xC06 JUMP JUMPDEST STOP JUMPDEST PUSH2 0x21B PUSH1 0x4 DUP1 CALLDATASIZE SUB DUP2 ADD SWAP1 PUSH2 0x216 SWAP2 SWAP1 PUSH2 0x169E JUMP JUMPDEST PUSH2 0xDBE JUMP JUMPDEST STOP JUMPDEST PUSH2 0x225 PUSH2 0xF59 JUMP JUMPDEST STOP JUMPDEST PUSH2 0x241 PUSH1 0x4 DUP1 CALLDATASIZE SUB DUP2 ADD SWAP1 PUSH2 0x23C SWAP2 SWAP1 PUSH2 0x169E JUMP JUMPDEST PUSH2 0x103F JUMP JUMPDEST STOP JUMPDEST PUSH2 0x24B PUSH2 0x10C3 JUMP JUMPDEST PUSH1 0x40 MLOAD PUSH2 0x258 SWAP2 SWAP1 PUSH2 0x1724 JUMP JUMPDEST PUSH1 0x40 MLOAD DUP1 SWAP2 SUB SWAP1 RETURN JUMPDEST PUSH1 0x3 DUP1 PUSH1 0x5 DUP2 GT ISZERO PUSH2 0x276 JUMPI PUSH2 0x275 PUSH2 0x1475 JUMP JUMPDEST JUMPDEST PUSH0 PUSH1 0x14 SWAP1 SLOAD SWAP1 PUSH2 0x100 EXP SWAP1 DIV PUSH1 0xFF AND PUSH1 0x5 DUP2 GT ISZERO PUSH2 0x297 JUMPI PUSH2 0x296 PUSH2 0x1475 JUMP JUMPDEST JUMPDEST EQ PUSH2 0x2D7 JUMPI PUSH1 0x40 MLOAD PUSH32 0x8C379A000000000000000000000000000000000000000000000000000000000 DUP2 MSTORE PUSH1 0x4 ADD PUSH2 0x2CE SWAP1 PUSH2 0x17AD JUMP JUMPDEST PUSH1 0x40 MLOAD DUP1 SWAP2 SUB SWAP1 REVERT JUMPDEST PUSH1 0x2 PUSH0 CALLER PUSH20 0xFFFFFFFFFFFFFFFFFFFFFFFFFFFFFFFFFFFFFFFF AND PUSH20 0xFFFFFFFFFFFFFFFFFFFFFFFFFFFFFFFFFFFFFFFF AND DUP2 MSTORE PUSH1 0x20 ADD SWAP1 DUP2 MSTORE PUSH1 0x20 ADD PUSH0 KECCAK256 PUSH0 ADD PUSH0 SWAP1 SLOAD SWAP1 PUSH2 0x100 EXP SWAP1 DIV PUSH1 0xFF AND PUSH2 0x362 JUMPI PUSH1 0x40 MLOAD PUSH32 0x8C379A000000000000000000000000000000000000000000000000000000000 DUP2 MSTORE PUSH1 0x4 ADD PUSH2 0x359 SWAP1 PUSH2 0x1815 JUMP JUMPDEST PUSH1 0x40 MLOAD DUP1 SWAP2 SUB SWAP1 REVERT JUMPDEST PUSH1 0x2 PUSH0 CALLER PUSH20 0xFFFFFFFFFFFFFFFFFFFFFFFFFFFFFFFFFFFFFFFF AND PUSH20 0xFFFFFFFFFFFFFFFFFFFFFFFFFFFFFFFFFFFFFFFF AND DUP2 MSTORE PUSH1 0x20 ADD SWAP1 DUP2 MSTORE PUSH1 0x20 ADD PUSH0 KECCAK256 PUSH0 ADD PUSH1 0x1 SWAP1 SLOAD SWAP1 PUSH2 0x100 EXP SWAP1 DIV PUSH1 0xFF AND ISZERO PUSH2 0x3EF JUMPI PUSH1 0x40 MLOAD PUSH32 0x8C379A000000000000000000000000000000000000000000000000000000000 DUP2 MSTORE PUSH1 0x4 ADD PUSH2 0x3E6 SWAP1 PUSH2 0x187D JUMP JUMPDEST PUSH1 0x40 MLOAD DUP1 SWAP2 SUB SWAP1 REVERT JUMPDEST PUSH1 0x1 PUSH1 0x3 DUP4 DUP2 SLOAD DUP2 LT PUSH2 0x405 JUMPI PUSH2 0x404 PUSH2 0x189B JUMP JUMPDEST JUMPDEST SWAP1 PUSH0 MSTORE PUSH1 0x20 PUSH0 KECCAK256 SWAP1 PUSH1 0x2 MUL ADD PUSH1 0x1 ADD PUSH0 DUP3 DUP3 SLOAD PUSH2 0x422 SWAP2 SWAP1 PUSH2 0x18F5 JUMP JUMPDEST SWAP3 POP POP DUP2 SWAP1 SSTORE POP PUSH1 0x1 PUSH1 0x2 PUSH0 CALLER PUSH20 0xFFFFFFFFFFFFFFFFFFFFFFFFFFFFFFFFFFFFFFFF AND PUSH20 0xFFFFFFFFFFFFFFFFFFFFFFFFFFFFFFFFFFFFFFFF AND DUP2 MSTORE PUSH1 0x20 ADD SWAP1 DUP2 MSTORE PUSH1 0x20 ADD PUSH0 KECCAK256 PUSH0 ADD PUSH1 0x1 PUSH2 0x100 EXP DUP2 SLOAD DUP2 PUSH1 0xFF MUL NOT AND SWAP1 DUP4 ISZERO ISZERO MUL OR SWAP1 SSTORE POP DUP2 PUSH1 0x2 PUSH0 CALLER PUSH20 0xFFFFFFFFFFFFFFFFFFFFFFFFFFFFFFFFFFFFFFFF AND PUSH20 0xFFFFFFFFFFFFFFFFFFFFFFFFFFFFFFFFFFFFFFFF AND DUP2 MSTORE PUSH1 0x20 ADD SWAP1 DUP2 MSTORE PUSH1 0x20 ADD PUSH0 KECCAK256 PUSH1 0x1 ADD DUP2 SWAP1 SSTORE POP PUSH32 0x4D99B957A2BC29A30EBD96A7BE8E68FE50A3C701DB28A91436490B7D53870CA4 CALLER DUP4 PUSH1 0x40 MLOAD PUSH2 0x4F7 SWAP3 SWAP2 SWAP1 PUSH2 0x1928 JUMP JUMPDEST PUSH1 0x40 MLOAD DUP1 SWAP2 SUB SWAP1 LOG1 POP POP JUMP JUMPDEST PUSH1 0x3 DUP2 DUP2 SLOAD DUP2 LT PUSH2 0x512 JUMPI PUSH0 DUP1 REVERT JUMPDEST SWAP1 PUSH0 MSTORE PUSH1 0x20 PUSH0 KECCAK256 SWAP1 PUSH1 0x2 MUL ADD PUSH0 SWAP2 POP SWAP1 POP DUP1 PUSH0 ADD DUP1 SLOAD PUSH2 0x531 SWAP1 PUSH2 0x197C JUMP JUMPDEST DUP1 PUSH1 0x1F ADD PUSH1 0x20 DUP1 SWAP2 DIV MUL PUSH1 0x20 ADD PUSH1 0x40 MLOAD SWAP1 DUP2 ADD PUSH1 0x40 MSTORE DUP1 SWAP3 SWAP2 SWAP1 DUP2 DUP2 MSTORE PUSH1 0x20 ADD DUP3 DUP1 SLOAD PUSH2 0x55D SWAP1 PUSH2 0x197C JUMP JUMPDEST DUP1 ISZERO PUSH2 0x5A8 JUMPI DUP1 PUSH1 0x1F LT PUSH2 0x57F JUMPI PUSH2 0x100 DUP1 DUP4 SLOAD DIV MUL DUP4 MSTORE SWAP2 PUSH1 0x20 ADD SWAP2 PUSH2 0x5A8 JUMP JUMPDEST DUP3 ADD SWAP2 SWAP1 PUSH0 MSTORE PUSH1 0x20 PUSH0 KECCAK256 SWAP1 JUMPDEST DUP2 SLOAD DUP2 MSTORE SWAP1 PUSH1 0x1 ADD SWAP1 PUSH1 0x20 ADD DUP1 DUP4 GT PUSH2 0x58B JUMPI DUP3 SWAP1 SUB PUSH1 0x1F AND DUP3 ADD SWAP2 JUMPDEST POP POP POP POP POP SWAP1 DUP1 PUSH1 0x1 ADD SLOAD SWAP1 POP DUP3 JUMP JUMPDEST PUSH1 0x1 DUP1 PUSH1 0x5 DUP2 GT ISZERO PUSH2 0x5CD JUMPI PUSH2 0x5CC PUSH2 0x1475 JUMP JUMPDEST JUMPDEST PUSH0 PUSH1 0x14 SWAP1 SLOAD SWAP1 PUSH2 0x100 EXP SWAP1 DIV PUSH1 0xFF AND PUSH1 0x5 DUP2 GT ISZERO PUSH2 0x5EE JUMPI PUSH2 0x5ED PUSH2 0x1475 JUMP JUMPDEST JUMPDEST EQ PUSH2 0x62E JUMPI PUSH1 0x40 MLOAD PUSH32 0x8C379A000000000000000000000000000000000000000000000000000000000 DUP2 MSTORE PUSH1 0x4 ADD PUSH2 0x625 SWAP1 PUSH2 0x17AD JUMP JUMPDEST PUSH1 0x40 MLOAD DUP1 SWAP2 SUB SWAP1 REVERT JUMPDEST PUSH2 0x636 PUSH2 0x10E8 JUMP JUMPDEST PUSH1 0x2 PUSH0 PUSH1 0x14 PUSH2 0x100 EXP DUP2 SLOAD DUP2 PUSH1 0xFF MUL NOT AND SWAP1 DUP4 PUSH1 0x5 DUP2 GT ISZERO PUSH2 0x65B JUMPI PUSH2 0x65A PUSH2 0x1475 JUMP JUMPDEST JUMPDEST MUL OR SWAP1 SSTORE POP PUSH32 0xA97A4EE45751E2ABF3E4FC8946939630B11B371EA8AE39CCDC3056E98F5CC3F PUSH1 0x1 PUSH1 0x2 PUSH1 0x40 MLOAD PUSH2 0x693 SWAP3 SWAP2 SWAP1 PUSH2 0x19AC JUMP JUMPDEST PUSH1 0x40 MLOAD DUP1 SWAP2 SUB SWAP1 LOG1 POP JUMP JUMPDEST PUSH2 0x6A6 PUSH2 0x10E8 JUMP JUMPDEST PUSH2 0x6AF PUSH0 PUSH2 0x116F JUMP JUMPDEST JUMP JUMPDEST PUSH0 PUSH1 0x1 SWAP1 POP JUMPDEST PUSH1 0xC8 DUP2 LT ISZERO PUSH2 0x752 JUMPI PUSH1 0x4 PUSH0 SWAP1 SLOAD SWAP1 PUSH2 0x100 EXP SWAP1 DIV PUSH20 0xFFFFFFFFFFFFFFFFFFFFFFFFFFFFFFFFFFFFFFFF AND PUSH20 0xFFFFFFFFFFFFFFFFFFFFFFFFFFFFFFFFFFFFFFFF AND PUSH4 0xE2DD58C6 PUSH1 0x40 MLOAD DUP2 PUSH4 0xFFFFFFFF AND PUSH1 0xE0 SHL DUP2 MSTORE PUSH1 0x4 ADD PUSH2 0x718 SWAP1 PUSH2 0x1A1D JUMP JUMPDEST PUSH0 PUSH1 0x40 MLOAD DUP1 DUP4 SUB DUP2 PUSH0 DUP8 DUP1 EXTCODESIZE ISZERO DUP1 ISZERO PUSH2 0x72F JUMPI PUSH0 PUSH0 REVERT JUMPDEST POP GAS CALL ISZERO DUP1 ISZERO PUSH2 0x741 JUMPI RETURNDATASIZE PUSH0 PUSH0 RETURNDATACOPY RETURNDATASIZE PUSH0 REVERT JUMPDEST POP POP POP POP DUP1 DUP1 PUSH1 0x1 ADD SWAP2 POP POP PUSH2 0x6B7 JUMP JUMPDEST POP JUMP JUMPDEST PUSH0 PUSH0 PUSH0 SWAP1 SLOAD SWAP1 PUSH2 0x100 EXP SWAP1 DIV PUSH20 0xFFFFFFFFFFFFFFFFFFFFFFFFFFFFFFFFFFFFFFFF AND SWAP1 POP SWAP1 JUMP JUMPDEST PUSH2 0x784 PUSH2 0x1237 JUMP JUMPDEST PUSH1 0x5 DUP1 PUSH1 0x5 DUP2 GT ISZERO PUSH2 0x799 JUMPI PUSH2 0x798 PUSH2 0x1475 JUMP JUMPDEST JUMPDEST PUSH0 PUSH1 0x14 SWAP1 SLOAD SWAP1 PUSH2 0x100 EXP SWAP1 DIV PUSH1 0xFF AND PUSH1 0x5 DUP2 GT ISZERO PUSH2 0x7BA JUMPI PUSH2 0x7B9 PUSH2 0x1475 JUMP JUMPDEST JUMPDEST EQ PUSH2 0x7FA JUMPI PUSH1 0x40 MLOAD PUSH32 0x8C379A000000000000000000000000000000000000000000000000000000000 DUP2 MSTORE PUSH1 0x4 ADD PUSH2 0x7F1 SWAP1 PUSH2 0x17AD JUMP JUMPDEST PUSH1 0x40 MLOAD DUP1 SWAP2 SUB SWAP1 REVERT JUMPDEST PUSH1 0x3 PUSH1 0x1 SLOAD DUP2 SLOAD DUP2 LT PUSH2 0x810 JUMPI PUSH2 0x80F PUSH2 0x189B JUMP JUMPDEST JUMPDEST SWAP1 PUSH0 MSTORE PUSH1 0x20 PUSH0 KECCAK256 SWAP1 PUSH1 0x2 MUL ADD PUSH1 0x40 MLOAD DUP1 PUSH1 0x40 ADD PUSH1 0x40 MSTORE SWAP1 DUP2 PUSH0 DUP3 ADD DUP1 SLOAD PUSH2 0x836 SWAP1 PUSH2 0x197C JUMP JUMPDEST DUP1 PUSH1 0x1F ADD PUSH1 0x20 DUP1 SWAP2 DIV MUL PUSH1 0x20 ADD PUSH1 0x40 MLOAD SWAP1 DUP2 ADD PUSH1 0x40 MSTORE DUP1 SWAP3 SWAP2 SWAP1 DUP2 DUP2 MSTORE PUSH1 0x20 ADD DUP3 DUP1 SLOAD PUSH2 0x862 SWAP1 PUSH2 0x197C JUMP JUMPDEST DUP1 ISZERO PUSH2 0x8AD JUMPI DUP1 PUSH1 0x1F LT PUSH2 0x884 JUMPI PUSH2 0x100 DUP1 DUP4 SLOAD DIV MUL DUP4 MSTORE SWAP2 PUSH1 0x20 ADD SWAP2 PUSH2 0x8AD JUMP JUMPDEST DUP3 ADD SWAP2 SWAP1 PUSH0 MSTORE PUSH1 0x20 PUSH0 KECCAK256 SWAP1 JUMPDEST DUP2 SLOAD DUP2 MSTORE SWAP1 PUSH1 0x1 ADD SWAP1 PUSH1 0x20 ADD DUP1 DUP4 GT PUSH2 0x890 JUMPI DUP3 SWAP1 SUB PUSH1 0x1F AND DUP3 ADD SWAP2 JUMPDEST POP POP POP POP POP DUP2 MSTORE PUSH1 0x20 ADD PUSH1 0x1 DUP3 ADD SLOAD DUP2 MSTORE POP POP SWAP2 POP POP SWAP1 JUMP JUMPDEST PUSH0 PUSH1 0x14 SWAP1 SLOAD SWAP1 PUSH2 0x100 EXP SWAP1 DIV PUSH1 0xFF AND DUP2 JUMP JUMPDEST PUSH1 0x3 DUP1 PUSH1 0x5 DUP2 GT ISZERO PUSH2 0x8ED JUMPI PUSH2 0x8EC PUSH2 0x1475 JUMP JUMPDEST JUMPDEST PUSH0 PUSH1 0x14 SWAP1 SLOAD SWAP1 PUSH2 0x100 EXP SWAP1 DIV PUSH1 0xFF AND PUSH1 0x5 DUP2 GT ISZERO PUSH2 0x90E JUMPI PUSH2 0x90D PUSH2 0x1475 JUMP JUMPDEST JUMPDEST EQ PUSH2 0x94E JUMPI PUSH1 0x40 MLOAD PUSH32 0x8C379A000000000000000000000000000000000000000000000000000000000 DUP2 MSTORE PUSH1 0x4 ADD PUSH2 0x945 SWAP1 PUSH2 0x17AD JUMP JUMPDEST PUSH1 0x40 MLOAD DUP1 SWAP2 SUB SWAP1 REVERT JUMPDEST PUSH2 0x956 PUSH2 0x10E8 JUMP JUMPDEST PUSH1 0x4 PUSH0 PUSH1 0x14 PUSH2 0x100 EXP DUP2 SLOAD DUP2 PUSH1 0xFF MUL NOT AND SWAP1 DUP4 PUSH1 0x5 DUP2 GT ISZERO PUSH2 0x97B JUMPI PUSH2 0x97A PUSH2 0x1475 JUMP JUMPDEST JUMPDEST MUL OR SWAP1 SSTORE POP PUSH32 0xA97A4EE45751E2ABF3E4FC8946939630B11B371EA8AE39CCDC3056E98F5CC3F PUSH1 0x3 PUSH1 0x4 PUSH1 0x40 MLOAD PUSH2 0x9B3 SWAP3 SWAP2 SWAP1 PUSH2 0x19AC JUMP JUMPDEST PUSH1 0x40 MLOAD DUP1 SWAP2 SUB SWAP1 LOG1 POP JUMP JUMPDEST PUSH1 0x4 DUP1 PUSH1 0x5 DUP2 GT ISZERO PUSH2 0x9D3 JUMPI PUSH2 0x9D2 PUSH2 0x1475 JUMP JUMPDEST JUMPDEST PUSH0 PUSH1 0x14 SWAP1 SLOAD SWAP1 PUSH2 0x100 EXP SWAP1 DIV PUSH1 0xFF AND PUSH1 0x5 DUP2 GT ISZERO PUSH2 0x9F4 JUMPI PUSH2 0x9F3 PUSH2 0x1475 JUMP JUMPDEST JUMPDEST EQ PUSH2 0xA34 JUMPI PUSH1 0x40 MLOAD PUSH32 0x8C379A000000000000000000000000000000000000000000000000000000000 DUP2 MSTORE PUSH1 0x4 ADD PUSH2 0xA2B SWAP1 PUSH2 0x17AD JUMP JUMPDEST PUSH1 0x40 MLOAD DUP1 SWAP2 SUB SWAP1 REVERT JUMPDEST PUSH2 0xA3C PUSH2 0x10E8 JUMP JUMPDEST PUSH0 PUSH0 SWAP1 POP PUSH0 PUSH0 SWAP1 POP JUMPDEST PUSH1 0x3 DUP1 SLOAD SWAP1 POP DUP2 LT ISZERO PUSH2 0xAB8 JUMPI DUP2 PUSH1 0x3 DUP3 DUP2 SLOAD DUP2 LT PUSH2 0xA67 JUMPI PUSH2 0xA66 PUSH2 0x189B JUMP JUMPDEST JUMPDEST SWAP1 PUSH0 MSTORE PUSH1 0x20 PUSH0 KECCAK256 SWAP1 PUSH1 0x2 MUL ADD PUSH1 0x1 ADD SLOAD GT ISZERO PUSH2 0xAAB JUMPI PUSH1 0x3 DUP2 DUP2 SLOAD DUP2 LT PUSH2 0xA91 JUMPI PUSH2 0xA90 PUSH2 0x189B JUMP JUMPDEST JUMPDEST SWAP1 PUSH0 MSTORE PUSH1 0x20 PUSH0 KECCAK256 SWAP1 PUSH1 0x2 MUL ADD PUSH1 0x1 ADD SLOAD SWAP2 POP DUP1 PUSH1 0x1 DUP2 SWAP1 SSTORE POP JUMPDEST DUP1 DUP1 PUSH1 0x1 ADD SWAP2 POP POP PUSH2 0xA45 JUMP JUMPDEST POP PUSH1 0x5 PUSH0 PUSH1 0x14 PUSH2 0x100 EXP DUP2 SLOAD DUP2 PUSH1 0xFF MUL NOT AND SWAP1 DUP4 PUSH1 0x5 DUP2 GT ISZERO PUSH2 0xADE JUMPI PUSH2 0xADD PUSH2 0x1475 JUMP JUMPDEST JUMPDEST MUL OR SWAP1 SSTORE POP PUSH32 0xA97A4EE45751E2ABF3E4FC8946939630B11B371EA8AE39CCDC3056E98F5CC3F PUSH1 0x4 PUSH1 0x5 PUSH1 0x40 MLOAD PUSH2 0xB16 SWAP3 SWAP2 SWAP1 PUSH2 0x19AC JUMP JUMPDEST PUSH1 0x40 MLOAD DUP1 SWAP2 SUB SWAP1 LOG1 POP POP JUMP JUMPDEST PUSH0 DUP1 PUSH1 0x5 DUP2 GT ISZERO PUSH2 0xB36 JUMPI PUSH2 0xB35 PUSH2 0x1475 JUMP JUMPDEST JUMPDEST PUSH0 PUSH1 0x14 SWAP1 SLOAD SWAP1 PUSH2 0x100 EXP SWAP1 DIV PUSH1 0xFF AND PUSH1 0x5 DUP2 GT ISZERO PUSH2 0xB57 JUMPI PUSH2 0xB56 PUSH2 0x1475 JUMP JUMPDEST JUMPDEST EQ PUSH2 0xB97 JUMPI PUSH1 0x40 MLOAD PUSH32 0x8C379A000000000000000000000000000000000000000000000000000000000 DUP2 MSTORE PUSH1 0x4 ADD PUSH2 0xB8E SWAP1 PUSH2 0x17AD JUMP JUMPDEST PUSH1 0x40 MLOAD DUP1 SWAP2 SUB SWAP1 REVERT JUMPDEST PUSH2 0xB9F PUSH2 0x10E8 JUMP JUMPDEST PUSH1 0x1 PUSH0 PUSH1 0x14 PUSH2 0x100 EXP DUP2 SLOAD DUP2 PUSH1 0xFF MUL NOT AND SWAP1 DUP4 PUSH1 0x5 DUP2 GT ISZERO PUSH2 0xBC4 JUMPI PUSH2 0xBC3 PUSH2 0x1475 JUMP JUMPDEST JUMPDEST MUL OR SWAP1 SSTORE POP PUSH32 0xA97A4EE45751E2ABF3E4FC8946939630B11B371EA8AE39CCDC3056E98F5CC3F PUSH0 PUSH1 0x1 PUSH1 0x40 MLOAD PUSH2 0xBFB SWAP3 SWAP2 SWAP1 PUSH2 0x19AC JUMP JUMPDEST PUSH1 0x40 MLOAD DUP1 SWAP2 SUB SWAP1 LOG1 POP JUMP JUMPDEST PUSH1 0x1 DUP1 PUSH1 0x5 DUP2 GT ISZERO PUSH2 0xC1B JUMPI PUSH2 0xC1A PUSH2 0x1475 JUMP JUMPDEST JUMPDEST PUSH0 PUSH1 0x14 SWAP1 SLOAD SWAP1 PUSH2 0x100 EXP SWAP1 DIV PUSH1 0xFF AND PUSH1 0x5 DUP2 GT ISZERO PUSH2 0xC3C JUMPI PUSH2 0xC3B PUSH2 0x1475 JUMP JUMPDEST JUMPDEST EQ PUSH2 0xC7C JUMPI PUSH1 0x40 MLOAD PUSH32 0x8C379A000000000000000000000000000000000000000000000000000000000 DUP2 MSTORE PUSH1 0x4 ADD PUSH2 0xC73 SWAP1 PUSH2 0x17AD JUMP JUMPDEST PUSH1 0x40 MLOAD DUP1 SWAP2 SUB SWAP1 REVERT JUMPDEST PUSH1 0x2 PUSH0 CALLER PUSH20 0xFFFFFFFFFFFFFFFFFFFFFFFFFFFFFFFFFFFFFFFF AND PUSH20 0xFFFFFFFFFFFFFFFFFFFFFFFFFFFFFFFFFFFFFFFF AND DUP2 MSTORE PUSH1 0x20 ADD SWAP1 DUP2 MSTORE PUSH1 0x20 ADD PUSH0 KECCAK256 PUSH0 ADD PUSH0 SWAP1 SLOAD SWAP1 PUSH2 0x100 EXP SWAP1 DIV PUSH1 0xFF AND PUSH2 0xD07 JUMPI PUSH1 0x40 MLOAD PUSH32 0x8C379A000000000000000000000000000000000000000000000000000000000 DUP2 MSTORE PUSH1 0x4 ADD PUSH2 0xCFE SWAP1 PUSH2 0x1AAB JUMP JUMPDEST PUSH1 0x40 MLOAD DUP1 SWAP2 SUB SWAP1 REVERT JUMPDEST PUSH1 0x3 PUSH1 0x40 MLOAD DUP1 PUSH1 0x40 ADD PUSH1 0x40 MSTORE DUP1 DUP5 DUP2 MSTORE PUSH1 0x20 ADD PUSH0 DUP2 MSTORE POP SWAP1 DUP1 PUSH1 0x1 DUP2 SLOAD ADD DUP1 DUP3 SSTORE DUP1 SWAP2 POP POP PUSH1 0x1 SWAP1 SUB SWAP1 PUSH0 MSTORE PUSH1 0x20 PUSH0 KECCAK256 SWAP1 PUSH1 0x2 MUL ADD PUSH0 SWAP1 SWAP2 SWAP1 SWAP2 SWAP1 SWAP2 POP PUSH0 DUP3 ADD MLOAD DUP2 PUSH0 ADD SWAP1 DUP2 PUSH2 0xD57 SWAP2 SWAP1 PUSH2 0x1C60 JUMP JUMPDEST POP PUSH1 0x20 DUP3 ADD MLOAD DUP2 PUSH1 0x1 ADD SSTORE POP POP PUSH1 0x1 PUSH1 0x3 DUP1 SLOAD SWAP1 POP PUSH2 0xD76 SWAP2 SWAP1 PUSH2 0x18F5 JUMP JUMPDEST PUSH1 0x2 PUSH0 CALLER PUSH20 0xFFFFFFFFFFFFFFFFFFFFFFFFFFFFFFFFFFFFFFFF AND PUSH20 0xFFFFFFFFFFFFFFFFFFFFFFFFFFFFFFFFFFFFFFFF AND DUP2 MSTORE PUSH1 0x20 ADD SWAP1 DUP2 MSTORE PUSH1 0x20 ADD PUSH0 KECCAK256 PUSH1 0x1 ADD DUP2 SWAP1 SSTORE POP POP POP JUMP JUMPDEST PUSH0 DUP1 PUSH1 0x5 DUP2 GT ISZERO PUSH2 0xDD2 JUMPI PUSH2 0xDD1 PUSH2 0x1475 JUMP JUMPDEST JUMPDEST PUSH0 PUSH1 0x14 SWAP1 SLOAD SWAP1 PUSH2 0x100 EXP SWAP1 DIV PUSH1 0xFF AND PUSH1 0x5 DUP2 GT ISZERO PUSH2 0xDF3 JUMPI PUSH2 0xDF2 PUSH2 0x1475 JUMP JUMPDEST JUMPDEST EQ PUSH2 0xE33 JUMPI PUSH1 0x40 MLOAD PUSH32 0x8C379A000000000000000000000000000000000000000000000000000000000 DUP2 MSTORE PUSH1 0x4 ADD PUSH2 0xE2A SWAP1 PUSH2 0x17AD JUMP JUMPDEST PUSH1 0x40 MLOAD DUP1 SWAP2 SUB SWAP1 REVERT JUMPDEST PUSH2 0xE3B PUSH2 0x10E8 JUMP JUMPDEST PUSH1 0x2 PUSH0 DUP4 PUSH20 0xFFFFFFFFFFFFFFFFFFFFFFFFFFFFFFFFFFFFFFFF AND PUSH20 0xFFFFFFFFFFFFFFFFFFFFFFFFFFFFFFFFFFFFFFFF AND DUP2 MSTORE PUSH1 0x20 ADD SWAP1 DUP2 MSTORE PUSH1 0x20 ADD PUSH0 KECCAK256 PUSH0 ADD PUSH0 SWAP1 SLOAD SWAP1 PUSH2 0x100 EXP SWAP1 DIV PUSH1 0xFF AND ISZERO PUSH2 0xEC7 JUMPI PUSH1 0x40 MLOAD PUSH32 0x8C379A000000000000000000000000000000000000000000000000000000000 DUP2 MSTORE PUSH1 0x4 ADD PUSH2 0xEBE SWAP1 PUSH2 0x1D9F JUMP JUMPDEST PUSH1 0x40 MLOAD DUP1 SWAP2 SUB SWAP1 REVERT JUMPDEST PUSH1 0x1 PUSH1 0x2 PUSH0 DUP5 PUSH20 0xFFFFFFFFFFFFFFFFFFFFFFFFFFFFFFFFFFFFFFFF AND PUSH20 0xFFFFFFFFFFFFFFFFFFFFFFFFFFFFFFFFFFFFFFFF AND DUP2 MSTORE PUSH1 0x20 ADD SWAP1 DUP2 MSTORE PUSH1 0x20 ADD PUSH0 KECCAK256 PUSH0 ADD PUSH0 PUSH2 0x100 EXP DUP2 SLOAD DUP2 PUSH1 0xFF MUL NOT AND SWAP1 DUP4 ISZERO ISZERO MUL OR SWAP1 SSTORE POP PUSH32 0xB6BE2187D059CC2A55FE29E0E503B566E1E0F8C8780096E185429350ACFFD3DD DUP3 PUSH1 0x40 MLOAD PUSH2 0xF4D SWAP2 SWAP1 PUSH2 0x13AB JUMP JUMPDEST PUSH1 0x40 MLOAD DUP1 SWAP2 SUB SWAP1 LOG1 POP POP JUMP JUMPDEST PUSH1 0x2 DUP1 PUSH1 0x5 DUP2 GT ISZERO PUSH2 0xF6E JUMPI PUSH2 0xF6D PUSH2 0x1475 JUMP JUMPDEST JUMPDEST PUSH0 PUSH1 0x14 SWAP1 SLOAD SWAP1 PUSH2 0x100 EXP SWAP1 DIV PUSH1 0xFF AND PUSH1 0x5 DUP2 GT ISZERO PUSH2 0xF8F JUMPI PUSH2 0xF8E PUSH2 0x1475 JUMP JUMPDEST JUMPDEST EQ PUSH2 0xFCF JUMPI PUSH1 0x40 MLOAD PUSH32 0x8C379A000000000000000000000000000000000000000000000000000000000 DUP2 MSTORE PUSH1 0x4 ADD PUSH2 0xFC6 SWAP1 PUSH2 0x17AD JUMP JUMPDEST PUSH1 0x40 MLOAD DUP1 SWAP2 SUB SWAP1 REVERT JUMPDEST PUSH2 0xFD7 PUSH2 0x10E8 JUMP JUMPDEST PUSH1 0x3 PUSH0 PUSH1 0x14 PUSH2 0x100 EXP DUP2 SLOAD DUP2 PUSH1 0xFF MUL NOT AND SWAP1 DUP4 PUSH1 0x5 DUP2 GT ISZERO PUSH2 0xFFC JUMPI PUSH2 0xFFB PUSH2 0x1475 JUMP JUMPDEST JUMPDEST MUL OR SWAP1 SSTORE POP PUSH32 0xA97A4EE45751E2ABF3E4FC8946939630B11B371EA8AE39CCDC3056E98F5CC3F PUSH1 0x2 PUSH1 0x3 PUSH1 0x40 MLOAD PUSH2 0x1034 SWAP3 SWAP2 SWAP1 PUSH2 0x19AC JUMP JUMPDEST PUSH1 0x40 MLOAD DUP1 SWAP2 SUB SWAP1 LOG1 POP JUMP JUMPDEST PUSH2 0x1047 PUSH2 0x10E8 JUMP JUMPDEST PUSH0 PUSH20 0xFFFFFFFFFFFFFFFFFFFFFFFFFFFFFFFFFFFFFFFF AND DUP2 PUSH20 0xFFFFFFFFFFFFFFFFFFFFFFFFFFFFFFFFFFFFFFFF AND SUB PUSH2 0x10B7 JUMPI PUSH0 PUSH1 0x40 MLOAD PUSH32 0x1E4FBDF700000000000000000000000000000000000000000000000000000000 DUP2 MSTORE PUSH1 0x4 ADD PUSH2 0x10AE SWAP2 SWAP1 PUSH2 0x13AB JUMP JUMPDEST PUSH1 0x40 MLOAD DUP1 SWAP2 SUB SWAP1 REVERT JUMPDEST PUSH2 0x10C0 DUP2 PUSH2 0x116F JUMP JUMPDEST POP JUMP JUMPDEST PUSH1 0x4 PUSH0 SWAP1 SLOAD SWAP1 PUSH2 0x100 EXP SWAP1 DIV PUSH20 0xFFFFFFFFFFFFFFFFFFFFFFFFFFFFFFFFFFFFFFFF AND DUP2 JUMP JUMPDEST PUSH2 0x10F0 PUSH2 0x1230 JUMP JUMPDEST PUSH20 0xFFFFFFFFFFFFFFFFFFFFFFFFFFFFFFFFFFFFFFFF AND PUSH2 0x110E PUSH2 0x755 JUMP JUMPDEST PUSH20 0xFFFFFFFFFFFFFFFFFFFFFFFFFFFFFFFFFFFFFFFF AND EQ PUSH2 0x116D JUMPI PUSH2 0x1131 PUSH2 0x1230 JUMP JUMPDEST PUSH1 0x40 MLOAD PUSH32 0x118CDAA700000000000000000000000000000000000000000000000000000000 DUP2 MSTORE PUSH1 0x4 ADD PUSH2 0x1164 SWAP2 SWAP1 PUSH2 0x13AB JUMP JUMPDEST PUSH1 0x40 MLOAD DUP1 SWAP2 SUB SWAP1 REVERT JUMPDEST JUMP JUMPDEST PUSH0 PUSH0 PUSH0 SWAP1 SLOAD SWAP1 PUSH2 0x100 EXP SWAP1 DIV PUSH20 0xFFFFFFFFFFFFFFFFFFFFFFFFFFFFFFFFFFFFFFFF AND SWAP1 POP DUP2 PUSH0 PUSH0 PUSH2 0x100 EXP DUP2 SLOAD DUP2 PUSH20 0xFFFFFFFFFFFFFFFFFFFFFFFFFFFFFFFFFFFFFFFF MUL NOT AND SWAP1 DUP4 PUSH20 0xFFFFFFFFFFFFFFFFFFFFFFFFFFFFFFFFFFFFFFFF AND MUL OR SWAP1 SSTORE POP DUP2 PUSH20 0xFFFFFFFFFFFFFFFFFFFFFFFFFFFFFFFFFFFFFFFF AND DUP2 PUSH20 0xFFFFFFFFFFFFFFFFFFFFFFFFFFFFFFFFFFFFFFFF AND PUSH32 0x8BE0079C531659141344CD1FD0A4F28419497F9722A3DAAFE3B4186F6B6457E0 PUSH1 0x40 MLOAD PUSH1 0x40 MLOAD DUP1 SWAP2 SUB SWAP1 LOG3 POP POP JUMP JUMPDEST PUSH0 CALLER SWAP1 POP SWAP1 JUMP JUMPDEST PUSH1 0x40 MLOAD DUP1 PUSH1 0x40 ADD PUSH1 0x40 MSTORE DUP1 PUSH1 0x60 DUP2 MSTORE PUSH1 0x20 ADD PUSH0 DUP2 MSTORE POP SWAP1 JUMP JUMPDEST PUSH0 PUSH1 0x40 MLOAD SWAP1 POP SWAP1 JUMP JUMPDEST PUSH0 PUSH0 REVERT JUMPDEST PUSH0 PUSH0 REVERT JUMPDEST PUSH0 DUP2 SWAP1 POP SWAP2 SWAP1 POP JUMP JUMPDEST PUSH2 0x1273 DUP2 PUSH2 0x1261 JUMP JUMPDEST DUP2 EQ PUSH2 0x127D JUMPI PUSH0 PUSH0 REVERT JUMPDEST POP JUMP JUMPDEST PUSH0 DUP2 CALLDATALOAD SWAP1 POP PUSH2 0x128E DUP2 PUSH2 0x126A JUMP JUMPDEST SWAP3 SWAP2 POP POP JUMP JUMPDEST PUSH0 PUSH1 0x20 DUP3 DUP5 SUB SLT ISZERO PUSH2 0x12A9 JUMPI PUSH2 0x12A8 PUSH2 0x1259 JUMP JUMPDEST JUMPDEST PUSH0 PUSH2 0x12B6 DUP5 DUP3 DUP6 ADD PUSH2 0x1280 JUMP JUMPDEST SWAP2 POP POP SWAP3 SWAP2 POP POP JUMP JUMPDEST PUSH0 DUP2 MLOAD SWAP1 POP SWAP2 SWAP1 POP JUMP JUMPDEST PUSH0 DUP3 DUP3 MSTORE PUSH1 0x20 DUP3 ADD SWAP1 POP SWAP3 SWAP2 POP POP JUMP JUMPDEST DUP3 DUP2 DUP4 MCOPY PUSH0 DUP4 DUP4 ADD MSTORE POP POP POP JUMP JUMPDEST PUSH0 PUSH1 0x1F NOT PUSH1 0x1F DUP4 ADD AND SWAP1 POP SWAP2 SWAP1 POP JUMP JUMPDEST PUSH0 PUSH2 0x1301 DUP3 PUSH2 0x12BF JUMP JUMPDEST PUSH2 0x130B DUP2 DUP6 PUSH2 0x12C9 JUMP JUMPDEST SWAP4 POP PUSH2 0x131B DUP2 DUP6 PUSH1 0x20 DUP7 ADD PUSH2 0x12D9 JUMP JUMPDEST PUSH2 0x1324 DUP2 PUSH2 0x12E7 JUMP JUMPDEST DUP5 ADD SWAP2 POP POP SWAP3 SWAP2 POP POP JUMP JUMPDEST PUSH2 0x1338 DUP2 PUSH2 0x1261 JUMP JUMPDEST DUP3 MSTORE POP POP JUMP JUMPDEST PUSH0 PUSH1 0x40 DUP3 ADD SWAP1 POP DUP2 DUP2 SUB PUSH0 DUP4 ADD MSTORE PUSH2 0x1356 DUP2 DUP6 PUSH2 0x12F7 JUMP JUMPDEST SWAP1 POP PUSH2 0x1365 PUSH1 0x20 DUP4 ADD DUP5 PUSH2 0x132F JUMP JUMPDEST SWAP4 SWAP3 POP POP POP JUMP JUMPDEST PUSH0 PUSH20 0xFFFFFFFFFFFFFFFFFFFFFFFFFFFFFFFFFFFFFFFF DUP3 AND SWAP1 POP SWAP2 SWAP1 POP JUMP JUMPDEST PUSH0 PUSH2 0x1395 DUP3 PUSH2 0x136C JUMP JUMPDEST SWAP1 POP SWAP2 SWAP1 POP JUMP JUMPDEST PUSH2 0x13A5 DUP2 PUSH2 0x138B JUMP JUMPDEST DUP3 MSTORE POP POP JUMP JUMPDEST PUSH0 PUSH1 0x20 DUP3 ADD SWAP1 POP PUSH2 0x13BE PUSH0 DUP4 ADD DUP5 PUSH2 0x139C JUMP JUMPDEST SWAP3 SWAP2 POP POP JUMP JUMPDEST PUSH0 DUP3 DUP3 MSTORE PUSH1 0x20 DUP3 ADD SWAP1 POP SWAP3 SWAP2 POP POP JUMP JUMPDEST PUSH0 PUSH2 0x13DE DUP3 PUSH2 0x12BF JUMP JUMPDEST PUSH2 0x13E8 DUP2 DUP6 PUSH2 0x13C4 JUMP JUMPDEST SWAP4 POP PUSH2 0x13F8 DUP2 DUP6 PUSH1 0x20 DUP7 ADD PUSH2 0x12D9 JUMP JUMPDEST PUSH2 0x1401 DUP2 PUSH2 0x12E7 JUMP JUMPDEST DUP5 ADD SWAP2 POP POP SWAP3 SWAP2 POP POP JUMP JUMPDEST PUSH2 0x1415 DUP2 PUSH2 0x1261 JUMP JUMPDEST DUP3 MSTORE POP POP JUMP JUMPDEST PUSH0 PUSH1 0x40 DUP4 ADD PUSH0 DUP4 ADD MLOAD DUP5 DUP3 SUB PUSH0 DUP7 ADD MSTORE PUSH2 0x1435 DUP3 DUP3 PUSH2 0x13D4 JUMP JUMPDEST SWAP2 POP POP PUSH1 0x20 DUP4 ADD MLOAD PUSH2 0x144A PUSH1 0x20 DUP7 ADD DUP3 PUSH2 0x140C JUMP JUMPDEST POP DUP1 SWAP2 POP POP SWAP3 SWAP2 POP POP JUMP JUMPDEST PUSH0 PUSH1 0x20 DUP3 ADD SWAP1 POP DUP2 DUP2 SUB PUSH0 DUP4 ADD MSTORE PUSH2 0x146D DUP2 DUP5 PUSH2 0x141B JUMP JUMPDEST SWAP1 POP SWAP3 SWAP2 POP POP JUMP JUMPDEST PUSH32 0x4E487B7100000000000000000000000000000000000000000000000000000000 PUSH0 MSTORE PUSH1 0x21 PUSH1 0x4 MSTORE PUSH1 0x24 PUSH0 REVERT JUMPDEST PUSH1 0x6 DUP2 LT PUSH2 0x14B3 JUMPI PUSH2 0x14B2 PUSH2 0x1475 JUMP JUMPDEST JUMPDEST POP JUMP JUMPDEST PUSH0 DUP2 SWAP1 POP PUSH2 0x14C3 DUP3 PUSH2 0x14A2 JUMP JUMPDEST SWAP2 SWAP1 POP JUMP JUMPDEST PUSH0 PUSH2 0x14D2 DUP3 PUSH2 0x14B6 JUMP JUMPDEST SWAP1 POP SWAP2 SWAP1 POP JUMP JUMPDEST PUSH2 0x14E2 DUP2 PUSH2 0x14C8 JUMP JUMPDEST DUP3 MSTORE POP POP JUMP JUMPDEST PUSH0 PUSH1 0x20 DUP3 ADD SWAP1 POP PUSH2 0x14FB PUSH0 DUP4 ADD DUP5 PUSH2 0x14D9 JUMP JUMPDEST SWAP3 SWAP2 POP POP JUMP JUMPDEST PUSH0 PUSH0 REVERT JUMPDEST PUSH0 PUSH0 REVERT JUMPDEST PUSH32 0x4E487B7100000000000000000000000000000000000000000000000000000000 PUSH0 MSTORE PUSH1 0x41 PUSH1 0x4 MSTORE PUSH1 0x24 PUSH0 REVERT JUMPDEST PUSH2 0x153F DUP3 PUSH2 0x12E7 JUMP JUMPDEST DUP2 ADD DUP2 DUP2 LT PUSH8 0xFFFFFFFFFFFFFFFF DUP3 GT OR ISZERO PUSH2 0x155E JUMPI PUSH2 0x155D PUSH2 0x1509 JUMP JUMPDEST JUMPDEST DUP1 PUSH1 0x40 MSTORE POP POP POP JUMP JUMPDEST PUSH0 PUSH2 0x1570 PUSH2 0x1250 JUMP JUMPDEST SWAP1 POP PUSH2 0x157C DUP3 DUP3 PUSH2 0x1536 JUMP JUMPDEST SWAP2 SWAP1 POP JUMP JUMPDEST PUSH0 PUSH8 0xFFFFFFFFFFFFFFFF DUP3 GT ISZERO PUSH2 0x159B JUMPI PUSH2 0x159A PUSH2 0x1509 JUMP JUMPDEST JUMPDEST PUSH2 0x15A4 DUP3 PUSH2 0x12E7 JUMP JUMPDEST SWAP1 POP PUSH1 0x20 DUP2 ADD SWAP1 POP SWAP2 SWAP1 POP JUMP JUMPDEST DUP3 DUP2 DUP4 CALLDATACOPY PUSH0 DUP4 DUP4 ADD MSTORE POP POP POP JUMP JUMPDEST PUSH0 PUSH2 0x15D1 PUSH2 0x15CC DUP5 PUSH2 0x1581 JUMP JUMPDEST PUSH2 0x1567 JUMP JUMPDEST SWAP1 POP DUP3 DUP2 MSTORE PUSH1 0x20 DUP2 ADD DUP5 DUP5 DUP5 ADD GT ISZERO PUSH2 0x15ED JUMPI PUSH2 0x15EC PUSH2 0x1505 JUMP JUMPDEST JUMPDEST PUSH2 0x15F8 DUP5 DUP3 DUP6 PUSH2 0x15B1 JUMP JUMPDEST POP SWAP4 SWAP3 POP POP POP JUMP JUMPDEST PUSH0 DUP3 PUSH1 0x1F DUP4 ADD SLT PUSH2 0x1614 JUMPI PUSH2 0x1613 PUSH2 0x1501 JUMP JUMPDEST JUMPDEST DUP2 CALLDATALOAD PUSH2 0x1624 DUP5 DUP3 PUSH1 0x20 DUP7 ADD PUSH2 0x15BF JUMP JUMPDEST SWAP2 POP POP SWAP3 SWAP2 POP POP JUMP JUMPDEST PUSH0 PUSH1 0x20 DUP3 DUP5 SUB SLT ISZERO PUSH2 0x1642 JUMPI PUSH2 0x1641 PUSH2 0x1259 JUMP JUMPDEST JUMPDEST PUSH0 DUP3 ADD CALLDATALOAD PUSH8 0xFFFFFFFFFFFFFFFF DUP2 GT ISZERO PUSH2 0x165F JUMPI PUSH2 0x165E PUSH2 0x125D JUMP JUMPDEST JUMPDEST PUSH2 0x166B DUP5 DUP3 DUP6 ADD PUSH2 0x1600 JUMP JUMPDEST SWAP2 POP POP SWAP3 SWAP2 POP POP JUMP JUMPDEST PUSH2 0x167D DUP2 PUSH2 0x138B JUMP JUMPDEST DUP2 EQ PUSH2 0x1687 JUMPI PUSH0 PUSH0 REVERT JUMPDEST POP JUMP JUMPDEST PUSH0 DUP2 CALLDATALOAD SWAP1 POP PUSH2 0x1698 DUP2 PUSH2 0x1674 JUMP JUMPDEST SWAP3 SWAP2 POP POP JUMP JUMPDEST PUSH0 PUSH1 0x20 DUP3 DUP5 SUB SLT ISZERO PUSH2 0x16B3 JUMPI PUSH2 0x16B2 PUSH2 0x1259 JUMP JUMPDEST JUMPDEST PUSH0 PUSH2 0x16C0 DUP5 DUP3 DUP6 ADD PUSH2 0x168A JUMP JUMPDEST SWAP2 POP POP SWAP3 SWAP2 POP POP JUMP JUMPDEST PUSH0 DUP2 SWAP1 POP SWAP2 SWAP1 POP JUMP JUMPDEST PUSH0 PUSH2 0x16EC PUSH2 0x16E7 PUSH2 0x16E2 DUP5 PUSH2 0x136C JUMP JUMPDEST PUSH2 0x16C9 JUMP JUMPDEST PUSH2 0x136C JUMP JUMPDEST SWAP1 POP SWAP2 SWAP1 POP JUMP JUMPDEST PUSH0 PUSH2 0x16FD DUP3 PUSH2 0x16D2 JUMP JUMPDEST SWAP1 POP SWAP2 SWAP1 POP JUMP JUMPDEST PUSH0 PUSH2 0x170E DUP3 PUSH2 0x16F3 JUMP JUMPDEST SWAP1 POP SWAP2 SWAP1 POP JUMP JUMPDEST PUSH2 0x171E DUP2 PUSH2 0x1704 JUMP JUMPDEST DUP3 MSTORE POP POP JUMP JUMPDEST PUSH0 PUSH1 0x20 DUP3 ADD SWAP1 POP PUSH2 0x1737 PUSH0 DUP4 ADD DUP5 PUSH2 0x1715 JUMP JUMPDEST SWAP3 SWAP2 POP POP JUMP JUMPDEST PUSH32 0x596F7520617265206E6F742061626C6520746F20646F20746869732061637469 PUSH0 DUP3 ADD MSTORE PUSH32 0x6F6E207269676874206E6F770000000000000000000000000000000000000000 PUSH1 0x20 DUP3 ADD MSTORE POP JUMP JUMPDEST PUSH0 PUSH2 0x1797 PUSH1 0x2C DUP4 PUSH2 0x12C9 JUMP JUMPDEST SWAP2 POP PUSH2 0x17A2 DUP3 PUSH2 0x173D JUMP JUMPDEST PUSH1 0x40 DUP3 ADD SWAP1 POP SWAP2 SWAP1 POP JUMP JUMPDEST PUSH0 PUSH1 0x20 DUP3 ADD SWAP1 POP DUP2 DUP2 SUB PUSH0 DUP4 ADD MSTORE PUSH2 0x17C4 DUP2 PUSH2 0x178B JUMP JUMPDEST SWAP1 POP SWAP2 SWAP1 POP JUMP JUMPDEST PUSH32 0x596F7520617265206E6F7420616C6C6F77656420746F20766F74650000000000 PUSH0 DUP3 ADD MSTORE POP JUMP JUMPDEST PUSH0 PUSH2 0x17FF PUSH1 0x1B DUP4 PUSH2 0x12C9 JUMP JUMPDEST SWAP2 POP PUSH2 0x180A DUP3 PUSH2 0x17CB JUMP JUMPDEST PUSH1 0x20 DUP3 ADD SWAP1 POP SWAP2 SWAP1 POP JUMP JUMPDEST PUSH0 PUSH1 0x20 DUP3 ADD SWAP1 POP DUP2 DUP2 SUB PUSH0 DUP4 ADD MSTORE PUSH2 0x182C DUP2 PUSH2 0x17F3 JUMP JUMPDEST SWAP1 POP SWAP2 SWAP1 POP JUMP JUMPDEST PUSH32 0x596F75206861766520616C726561647920766F74656400000000000000000000 PUSH0 DUP3 ADD MSTORE POP JUMP JUMPDEST PUSH0 PUSH2 0x1867 PUSH1 0x16 DUP4 PUSH2 0x12C9 JUMP JUMPDEST SWAP2 POP PUSH2 0x1872 DUP3 PUSH2 0x1833 JUMP JUMPDEST PUSH1 0x20 DUP3 ADD SWAP1 POP SWAP2 SWAP1 POP JUMP JUMPDEST PUSH0 PUSH1 0x20 DUP3 ADD SWAP1 POP DUP2 DUP2 SUB PUSH0 DUP4 ADD MSTORE PUSH2 0x1894 DUP2 PUSH2 0x185B JUMP JUMPDEST SWAP1 POP SWAP2 SWAP1 POP JUMP JUMPDEST PUSH32 0x4E487B7100000000000000000000000000000000000000000000000000000000 PUSH0 MSTORE PUSH1 0x32 PUSH1 0x4 MSTORE PUSH1 0x24 PUSH0 REVERT JUMPDEST PUSH32 0x4E487B7100000000000000000000000000000000000000000000000000000000 PUSH0 MSTORE PUSH1 0x11 PUSH1 0x4 MSTORE PUSH1 0x24 PUSH0 REVERT JUMPDEST PUSH0 PUSH2 0x18FF DUP3 PUSH2 0x1261 JUMP JUMPDEST SWAP2 POP PUSH2 0x190A DUP4 PUSH2 0x1261 JUMP JUMPDEST SWAP3 POP DUP3 DUP3 ADD SWAP1 POP DUP1 DUP3 GT ISZERO PUSH2 0x1922 JUMPI PUSH2 0x1921 PUSH2 0x18C8 JUMP JUMPDEST JUMPDEST SWAP3 SWAP2 POP POP JUMP JUMPDEST PUSH0 PUSH1 0x40 DUP3 ADD SWAP1 POP PUSH2 0x193B PUSH0 DUP4 ADD DUP6 PUSH2 0x139C JUMP JUMPDEST PUSH2 0x1948 PUSH1 0x20 DUP4 ADD DUP5 PUSH2 0x132F JUMP JUMPDEST SWAP4 SWAP3 POP POP POP JUMP JUMPDEST PUSH32 0x4E487B7100000000000000000000000000000000000000000000000000000000 PUSH0 MSTORE PUSH1 0x22 PUSH1 0x4 MSTORE PUSH1 0x24 PUSH0 REVERT JUMPDEST PUSH0 PUSH1 0x2 DUP3 DIV SWAP1 POP PUSH1 0x1 DUP3 AND DUP1 PUSH2 0x1993 JUMPI PUSH1 0x7F DUP3 AND SWAP2 POP JUMPDEST PUSH1 0x20 DUP3 LT DUP2 SUB PUSH2 0x19A6 JUMPI PUSH2 0x19A5 PUSH2 0x194F JUMP JUMPDEST JUMPDEST POP SWAP2 SWAP1 POP JUMP JUMPDEST PUSH0 PUSH1 0x40 DUP3 ADD SWAP1 POP PUSH2 0x19BF PUSH0 DUP4 ADD DUP6 PUSH2 0x14D9 JUMP JUMPDEST PUSH2 0x19CC PUSH1 0x20 DUP4 ADD DUP5 PUSH2 0x14D9 JUMP JUMPDEST SWAP4 SWAP3 POP POP POP JUMP JUMPDEST PUSH32 0x61747461636B0000000000000000000000000000000000000000000000000000 PUSH0 DUP3 ADD MSTORE POP JUMP JUMPDEST PUSH0 PUSH2 0x1A07 PUSH1 0x6 DUP4 PUSH2 0x12C9 JUMP JUMPDEST SWAP2 POP PUSH2 0x1A12 DUP3 PUSH2 0x19D3 JUMP JUMPDEST PUSH1 0x20 DUP3 ADD SWAP1 POP SWAP2 SWAP1 POP JUMP JUMPDEST PUSH0 PUSH1 0x20 DUP3 ADD SWAP1 POP DUP2 DUP2 SUB PUSH0 DUP4 ADD MSTORE PUSH2 0x1A34 DUP2 PUSH2 0x19FB JUMP JUMPDEST SWAP1 POP SWAP2 SWAP1 POP JUMP JUMPDEST PUSH32 0x596F7520617265206E6F7420616C6C6F77656420746F206D616B652061207072 PUSH0 DUP3 ADD MSTORE PUSH32 0x6F706F73616C0000000000000000000000000000000000000000000000000000 PUSH1 0x20 DUP3 ADD MSTORE POP JUMP JUMPDEST PUSH0 PUSH2 0x1A95 PUSH1 0x26 DUP4 PUSH2 0x12C9 JUMP JUMPDEST SWAP2 POP PUSH2 0x1AA0 DUP3 PUSH2 0x1A3B JUMP JUMPDEST PUSH1 0x40 DUP3 ADD SWAP1 POP SWAP2 SWAP1 POP JUMP JUMPDEST PUSH0 PUSH1 0x20 DUP3 ADD SWAP1 POP DUP2 DUP2 SUB PUSH0 DUP4 ADD MSTORE PUSH2 0x1AC2 DUP2 PUSH2 0x1A89 JUMP JUMPDEST SWAP1 POP SWAP2 SWAP1 POP JUMP JUMPDEST PUSH0 DUP2 SWAP1 POP DUP2 PUSH0 MSTORE PUSH1 0x20 PUSH0 KECCAK256 SWAP1 POP SWAP2 SWAP1 POP JUMP JUMPDEST PUSH0 PUSH1 0x20 PUSH1 0x1F DUP4 ADD DIV SWAP1 POP SWAP2 SWAP1 POP JUMP JUMPDEST PUSH0 DUP3 DUP3 SHL SWAP1 POP SWAP3 SWAP2 POP POP JUMP JUMPDEST PUSH0 PUSH1 0x8 DUP4 MUL PUSH2 0x1B25 PUSH32 0xFFFFFFFFFFFFFFFFFFFFFFFFFFFFFFFFFFFFFFFFFFFFFFFFFFFFFFFFFFFFFFFF DUP3 PUSH2 0x1AEA JUMP JUMPDEST PUSH2 0x1B2F DUP7 DUP4 PUSH2 0x1AEA JUMP JUMPDEST SWAP6 POP DUP1 NOT DUP5 AND SWAP4 POP DUP1 DUP7 AND DUP5 OR SWAP3 POP POP POP SWAP4 SWAP3 POP POP POP JUMP JUMPDEST PUSH0 PUSH2 0x1B61 PUSH2 0x1B5C PUSH2 0x1B57 DUP5 PUSH2 0x1261 JUMP JUMPDEST PUSH2 0x16C9 JUMP JUMPDEST PUSH2 0x1261 JUMP JUMPDEST SWAP1 POP SWAP2 SWAP1 POP JUMP JUMPDEST PUSH0 DUP2 SWAP1 POP SWAP2 SWAP1 POP JUMP JUMPDEST PUSH2 0x1B7A DUP4 PUSH2 0x1B47 JUMP JUMPDEST PUSH2 0x1B8E PUSH2 0x1B86 DUP3 PUSH2 0x1B68 JUMP JUMPDEST DUP5 DUP5 SLOAD PUSH2 0x1AF6 JUMP JUMPDEST DUP3 SSTORE POP POP POP POP JUMP JUMPDEST PUSH0 PUSH0 SWAP1 POP SWAP1 JUMP JUMPDEST PUSH2 0x1BA5 PUSH2 0x1B96 JUMP JUMPDEST PUSH2 0x1BB0 DUP2 DUP5 DUP5 PUSH2 0x1B71 JUMP JUMPDEST POP POP POP JUMP JUMPDEST JUMPDEST DUP2 DUP2 LT ISZERO PUSH2 0x1BD3 JUMPI PUSH2 0x1BC8 PUSH0 DUP3 PUSH2 0x1B9D JUMP JUMPDEST PUSH1 0x1 DUP2 ADD SWAP1 POP PUSH2 0x1BB6 JUMP JUMPDEST POP POP JUMP JUMPDEST PUSH1 0x1F DUP3 GT ISZERO PUSH2 0x1C18 JUMPI PUSH2 0x1BE9 DUP2 PUSH2 0x1AC9 JUMP JUMPDEST PUSH2 0x1BF2 DUP5 PUSH2 0x1ADB JUMP JUMPDEST DUP2 ADD PUSH1 0x20 DUP6 LT ISZERO PUSH2 0x1C01 JUMPI DUP2 SWAP1 POP JUMPDEST PUSH2 0x1C15 PUSH2 0x1C0D DUP6 PUSH2 0x1ADB JUMP JUMPDEST DUP4 ADD DUP3 PUSH2 0x1BB5 JUMP JUMPDEST POP POP JUMPDEST POP POP POP JUMP JUMPDEST PUSH0 DUP3 DUP3 SHR SWAP1 POP SWAP3 SWAP2 POP POP JUMP JUMPDEST PUSH0 PUSH2 0x1C38 PUSH0 NOT DUP5 PUSH1 0x8 MUL PUSH2 0x1C1D JUMP JUMPDEST NOT DUP1 DUP4 AND SWAP2 POP POP SWAP3 SWAP2 POP POP JUMP JUMPDEST PUSH0 PUSH2 0x1C50 DUP4 DUP4 PUSH2 0x1C29 JUMP JUMPDEST SWAP2 POP DUP3 PUSH1 0x2 MUL DUP3 OR SWAP1 POP SWAP3 SWAP2 POP POP JUMP JUMPDEST PUSH2 0x1C69 DUP3 PUSH2 0x12BF JUMP JUMPDEST PUSH8 0xFFFFFFFFFFFFFFFF DUP2 GT ISZERO PUSH2 0x1C82 JUMPI PUSH2 0x1C81 PUSH2 0x1509 JUMP JUMPDEST JUMPDEST PUSH2 0x1C8C DUP3 SLOAD PUSH2 0x197C JUMP JUMPDEST PUSH2 0x1C97 DUP3 DUP3 DUP6 PUSH2 0x1BD7 JUMP JUMPDEST PUSH0 PUSH1 0x20 SWAP1 POP PUSH1 0x1F DUP4 GT PUSH1 0x1 DUP2 EQ PUSH2 0x1CC8 JUMPI PUSH0 DUP5 ISZERO PUSH2 0x1CB6 JUMPI DUP3 DUP8 ADD MLOAD SWAP1 POP JUMPDEST PUSH2 0x1CC0 DUP6 DUP3 PUSH2 0x1C45 JUMP JUMPDEST DUP7 SSTORE POP PUSH2 0x1D27 JUMP JUMPDEST PUSH1 0x1F NOT DUP5 AND PUSH2 0x1CD6 DUP7 PUSH2 0x1AC9 JUMP JUMPDEST PUSH0 JUMPDEST DUP3 DUP2 LT ISZERO PUSH2 0x1CFD JUMPI DUP5 DUP10 ADD MLOAD DUP3 SSTORE PUSH1 0x1 DUP3 ADD SWAP2 POP PUSH1 0x20 DUP6 ADD SWAP5 POP PUSH1 0x20 DUP2 ADD SWAP1 POP PUSH2 0x1CD8 JUMP JUMPDEST DUP7 DUP4 LT ISZERO PUSH2 0x1D1A JUMPI DUP5 DUP10 ADD MLOAD PUSH2 0x1D16 PUSH1 0x1F DUP10 AND DUP3 PUSH2 0x1C29 JUMP JUMPDEST DUP4 SSTORE POP JUMPDEST PUSH1 0x1 PUSH1 0x2 DUP9 MUL ADD DUP9 SSTORE POP POP POP JUMPDEST POP POP POP POP POP POP JUMP JUMPDEST PUSH32 0x54686973206164647265737320697320616C726561647920696E20766F746572 PUSH0 DUP3 ADD MSTORE PUSH32 0x7300000000000000000000000000000000000000000000000000000000000000 PUSH1 0x20 DUP3 ADD MSTORE POP JUMP JUMPDEST PUSH0 PUSH2 0x1D89 PUSH1 0x21 DUP4 PUSH2 0x12C9 JUMP JUMPDEST SWAP2 POP PUSH2 0x1D94 DUP3 PUSH2 0x1D2F JUMP JUMPDEST PUSH1 0x40 DUP3 ADD SWAP1 POP SWAP2 SWAP1 POP JUMP JUMPDEST PUSH0 PUSH1 0x20 DUP3 ADD SWAP1 POP DUP2 DUP2 SUB PUSH0 DUP4 ADD MSTORE PUSH2 0x1DB6 DUP2 PUSH2 0x1D7D JUMP JUMPDEST SWAP1 POP SWAP2 SWAP1 POP JUMP INVALID LOG2 PUSH5 0x6970667358 0x22 SLT KECCAK256 DUP10 LT 0xE1 LOG0 0xE3 PUSH0 BYTE ORIGIN 0xD0 KECCAK256 0xA7 0xDE TIMESTAMP 0xA9 0xBE RETURNDATASIZE CALLDATASIZE 0xD6 COINBASE 0x2C 0xF6 SWAP4 0xCA 0xC5 0xE4 CALLCODE DUP7 0xF8 0xED 0xB9 0xD 0xC8 PUSH5 0x736F6C6343 STOP ADDMOD SHR STOP CALLER "
				},
				"gasEstimates": {
					"creation": {
						"codeDepositCost": "1533400",
						"executionCost": "infinite",
						"totalCost": "infinite"
					},
					"external": {
						"attackStep()": "infinite",
						"endProposalsRegistration()": "infinite",
						"endVotingSession()": "infinite",
						"getWinner()": "infinite",
						"owner()": "2559",
						"proposals(uint256)": "infinite",
						"registerProposals(string)": "infinite",
						"registerVoters(address)": "infinite",
						"renounceOwnership()": "infinite",
						"startProposalsRegistration()": "infinite",
						"startVotingSession()": "infinite",
						"transferOwnership(address)": "infinite",
						"vote(uint256)": "infinite",
						"votesTallied()": "infinite",
						"voting()": "infinite",
						"workflowStatus()": "2693"
					}
				},
				"methodIdentifiers": {
					"attackStep()": "7a164584",
					"endProposalsRegistration()": "6c297445",
					"endVotingSession()": "a7bfab16",
					"getWinner()": "8e7ea5b2",
					"owner()": "8da5cb5b",
					"proposals(uint256)": "013cf08b",
					"registerProposals(string)": "e2dd58c6",
					"registerVoters(address)": "ed8a1608",
					"renounceOwnership()": "715018a6",
					"startProposalsRegistration()": "e09b8c79",
					"startVotingSession()": "ee74c678",
					"transferOwnership(address)": "f2fde38b",
					"vote(uint256)": "0121b93f",
					"votesTallied()": "ada7415f",
					"voting()": "fce1ccca",
					"workflowStatus()": "a1edffa2"
				}
			},
			"storageLayout": {
				"storage": [
					{
						"astId": 8,
						"contract": "contracts/Security/33_attackGasLimit.sol:attackGasLimit",
						"label": "_owner",
						"offset": 0,
						"slot": "0",
						"type": "t_address"
					},
					{
						"astId": 255,
						"contract": "contracts/Security/33_attackGasLimit.sol:attackGasLimit",
						"label": "workflowStatus",
						"offset": 20,
						"slot": "0",
						"type": "t_enum(WorkflowStatus)252"
					},
					{
						"astId": 257,
						"contract": "contracts/Security/33_attackGasLimit.sol:attackGasLimit",
						"label": "winningProposalId",
						"offset": 0,
						"slot": "1",
						"type": "t_uint256"
					},
					{
						"astId": 262,
						"contract": "contracts/Security/33_attackGasLimit.sol:attackGasLimit",
						"label": "voters",
						"offset": 0,
						"slot": "2",
						"type": "t_mapping(t_address,t_struct(Voter)240_storage)"
					},
					{
						"astId": 266,
						"contract": "contracts/Security/33_attackGasLimit.sol:attackGasLimit",
						"label": "proposals",
						"offset": 0,
						"slot": "3",
						"type": "t_array(t_struct(Proposal)245_storage)dyn_storage"
					},
					{
						"astId": 185,
						"contract": "contracts/Security/33_attackGasLimit.sol:attackGasLimit",
						"label": "voting",
						"offset": 0,
						"slot": "4",
						"type": "t_contract(Voting)593"
					}
				],
				"types": {
					"t_address": {
						"encoding": "inplace",
						"label": "address",
						"numberOfBytes": "20"
					},
					"t_array(t_struct(Proposal)245_storage)dyn_storage": {
						"base": "t_struct(Proposal)245_storage",
						"encoding": "dynamic_array",
						"label": "struct Voting.Proposal[]",
						"numberOfBytes": "32"
					},
					"t_bool": {
						"encoding": "inplace",
						"label": "bool",
						"numberOfBytes": "1"
					},
					"t_contract(Voting)593": {
						"encoding": "inplace",
						"label": "contract Voting",
						"numberOfBytes": "20"
					},
					"t_enum(WorkflowStatus)252": {
						"encoding": "inplace",
						"label": "enum Voting.WorkflowStatus",
						"numberOfBytes": "1"
					},
					"t_mapping(t_address,t_struct(Voter)240_storage)": {
						"encoding": "mapping",
						"key": "t_address",
						"label": "mapping(address => struct Voting.Voter)",
						"numberOfBytes": "32",
						"value": "t_struct(Voter)240_storage"
					},
					"t_string_storage": {
						"encoding": "bytes",
						"label": "string",
						"numberOfBytes": "32"
					},
					"t_struct(Proposal)245_storage": {
						"encoding": "inplace",
						"label": "struct Voting.Proposal",
						"members": [
							{
								"astId": 242,
								"contract": "contracts/Security/33_attackGasLimit.sol:attackGasLimit",
								"label": "description",
								"offset": 0,
								"slot": "0",
								"type": "t_string_storage"
							},
							{
								"astId": 244,
								"contract": "contracts/Security/33_attackGasLimit.sol:attackGasLimit",
								"label": "voteCount",
								"offset": 0,
								"slot": "1",
								"type": "t_uint256"
							}
						],
						"numberOfBytes": "64"
					},
					"t_struct(Voter)240_storage": {
						"encoding": "inplace",
						"label": "struct Voting.Voter",
						"members": [
							{
								"astId": 235,
								"contract": "contracts/Security/33_attackGasLimit.sol:attackGasLimit",
								"label": "isRegistered",
								"offset": 0,
								"slot": "0",
								"type": "t_bool"
							},
							{
								"astId": 237,
								"contract": "contracts/Security/33_attackGasLimit.sol:attackGasLimit",
								"label": "hasVoted",
								"offset": 1,
								"slot": "0",
								"type": "t_bool"
							},
							{
								"astId": 239,
								"contract": "contracts/Security/33_attackGasLimit.sol:attackGasLimit",
								"label": "votedProposalId",
								"offset": 0,
								"slot": "1",
								"type": "t_uint256"
							}
						],
						"numberOfBytes": "64"
					},
					"t_uint256": {
						"encoding": "inplace",
						"label": "uint256",
						"numberOfBytes": "32"
					}
				}
			},
			"userdoc": {
				"kind": "user",
				"methods": {},
				"version": 1
			}
		}
	}
}